{
	"Receipts.sol": {
		"UintsProofOfBroadcast": {
			"abi": [
				{
					"inputs": [],
					"stateMutability": "nonpayable",
					"type": "constructor"
				},
				{
					"inputs": [],
					"name": "ApprovalCallerNotOwnerNorApproved",
					"type": "error"
				},
				{
					"inputs": [],
					"name": "ApprovalQueryForNonexistentToken",
					"type": "error"
				},
				{
					"inputs": [],
					"name": "BalanceQueryForZeroAddress",
					"type": "error"
				},
				{
					"inputs": [],
					"name": "MintERC2309QuantityExceedsLimit",
					"type": "error"
				},
				{
					"inputs": [],
					"name": "MintToZeroAddress",
					"type": "error"
				},
				{
					"inputs": [],
					"name": "MintZeroQuantity",
					"type": "error"
				},
				{
					"inputs": [],
					"name": "OwnerQueryForNonexistentToken",
					"type": "error"
				},
				{
					"inputs": [],
					"name": "OwnershipNotInitializedForExtraData",
					"type": "error"
				},
				{
					"inputs": [],
					"name": "TransferCallerNotOwnerNorApproved",
					"type": "error"
				},
				{
					"inputs": [],
					"name": "TransferFromIncorrectOwner",
					"type": "error"
				},
				{
					"inputs": [],
					"name": "TransferToNonERC721ReceiverImplementer",
					"type": "error"
				},
				{
					"inputs": [],
					"name": "TransferToZeroAddress",
					"type": "error"
				},
				{
					"inputs": [],
					"name": "URIQueryForNonexistentToken",
					"type": "error"
				},
				{
					"anonymous": false,
					"inputs": [
						{
							"indexed": true,
							"internalType": "address",
							"name": "owner",
							"type": "address"
						},
						{
							"indexed": true,
							"internalType": "address",
							"name": "approved",
							"type": "address"
						},
						{
							"indexed": true,
							"internalType": "uint256",
							"name": "tokenId",
							"type": "uint256"
						}
					],
					"name": "Approval",
					"type": "event"
				},
				{
					"anonymous": false,
					"inputs": [
						{
							"indexed": true,
							"internalType": "address",
							"name": "owner",
							"type": "address"
						},
						{
							"indexed": true,
							"internalType": "address",
							"name": "operator",
							"type": "address"
						},
						{
							"indexed": false,
							"internalType": "bool",
							"name": "approved",
							"type": "bool"
						}
					],
					"name": "ApprovalForAll",
					"type": "event"
				},
				{
					"anonymous": false,
					"inputs": [
						{
							"indexed": true,
							"internalType": "uint256",
							"name": "fromTokenId",
							"type": "uint256"
						},
						{
							"indexed": false,
							"internalType": "uint256",
							"name": "toTokenId",
							"type": "uint256"
						},
						{
							"indexed": true,
							"internalType": "address",
							"name": "from",
							"type": "address"
						},
						{
							"indexed": true,
							"internalType": "address",
							"name": "to",
							"type": "address"
						}
					],
					"name": "ConsecutiveTransfer",
					"type": "event"
				},
				{
					"anonymous": false,
					"inputs": [
						{
							"indexed": true,
							"internalType": "address",
							"name": "previousOwner",
							"type": "address"
						},
						{
							"indexed": true,
							"internalType": "address",
							"name": "newOwner",
							"type": "address"
						}
					],
					"name": "OwnershipTransferred",
					"type": "event"
				},
				{
					"anonymous": false,
					"inputs": [
						{
							"indexed": true,
							"internalType": "address",
							"name": "from",
							"type": "address"
						},
						{
							"indexed": true,
							"internalType": "address",
							"name": "to",
							"type": "address"
						},
						{
							"indexed": true,
							"internalType": "uint256",
							"name": "tokenId",
							"type": "uint256"
						}
					],
					"name": "Transfer",
					"type": "event"
				},
				{
					"inputs": [
						{
							"internalType": "address",
							"name": "to",
							"type": "address"
						},
						{
							"internalType": "uint256",
							"name": "tokenId",
							"type": "uint256"
						}
					],
					"name": "approve",
					"outputs": [],
					"stateMutability": "payable",
					"type": "function"
				},
				{
					"inputs": [
						{
							"internalType": "address",
							"name": "owner",
							"type": "address"
						}
					],
					"name": "balanceOf",
					"outputs": [
						{
							"internalType": "uint256",
							"name": "",
							"type": "uint256"
						}
					],
					"stateMutability": "view",
					"type": "function"
				},
				{
					"inputs": [
						{
							"internalType": "uint256",
							"name": "tokenId",
							"type": "uint256"
						}
					],
					"name": "getApproved",
					"outputs": [
						{
							"internalType": "address",
							"name": "",
							"type": "address"
						}
					],
					"stateMutability": "view",
					"type": "function"
				},
				{
					"inputs": [],
					"name": "getCanvasMessageSender",
					"outputs": [
						{
							"internalType": "address",
							"name": "",
							"type": "address"
						}
					],
					"stateMutability": "view",
					"type": "function"
				},
				{
					"inputs": [],
					"name": "getMessageSender",
					"outputs": [
						{
							"internalType": "address",
							"name": "",
							"type": "address"
						}
					],
					"stateMutability": "view",
					"type": "function"
				},
				{
					"inputs": [
						{
							"internalType": "address",
							"name": "owner",
							"type": "address"
						},
						{
							"internalType": "address",
							"name": "operator",
							"type": "address"
						}
					],
					"name": "isApprovedForAll",
					"outputs": [
						{
							"internalType": "bool",
							"name": "",
							"type": "bool"
						}
					],
					"stateMutability": "view",
					"type": "function"
				},
				{
					"inputs": [],
					"name": "name",
					"outputs": [
						{
							"internalType": "string",
							"name": "",
							"type": "string"
						}
					],
					"stateMutability": "view",
					"type": "function"
				},
				{
					"inputs": [],
					"name": "owner",
					"outputs": [
						{
							"internalType": "address",
							"name": "",
							"type": "address"
						}
					],
					"stateMutability": "view",
					"type": "function"
				},
				{
					"inputs": [
						{
							"internalType": "uint256",
							"name": "tokenId",
							"type": "uint256"
						}
					],
					"name": "ownerOf",
					"outputs": [
						{
							"internalType": "address",
							"name": "",
							"type": "address"
						}
					],
					"stateMutability": "view",
					"type": "function"
				},
				{
					"inputs": [],
					"name": "renounceOwnership",
					"outputs": [],
					"stateMutability": "nonpayable",
					"type": "function"
				},
				{
					"inputs": [
						{
							"internalType": "address",
							"name": "from",
							"type": "address"
						},
						{
							"internalType": "address",
							"name": "to",
							"type": "address"
						},
						{
							"internalType": "uint256",
							"name": "tokenId",
							"type": "uint256"
						}
					],
					"name": "safeTransferFrom",
					"outputs": [],
					"stateMutability": "payable",
					"type": "function"
				},
				{
					"inputs": [
						{
							"internalType": "address",
							"name": "from",
							"type": "address"
						},
						{
							"internalType": "address",
							"name": "to",
							"type": "address"
						},
						{
							"internalType": "uint256",
							"name": "tokenId",
							"type": "uint256"
						},
						{
							"internalType": "bytes",
							"name": "_data",
							"type": "bytes"
						}
					],
					"name": "safeTransferFrom",
					"outputs": [],
					"stateMutability": "payable",
					"type": "function"
				},
				{
					"inputs": [
						{
							"internalType": "address",
							"name": "operator",
							"type": "address"
						},
						{
							"internalType": "bool",
							"name": "approved",
							"type": "bool"
						}
					],
					"name": "setApprovalForAll",
					"outputs": [],
					"stateMutability": "nonpayable",
					"type": "function"
				},
				{
					"inputs": [
						{
							"internalType": "address",
							"name": "contractAddress",
							"type": "address"
						}
					],
					"name": "setEditionContract",
					"outputs": [],
					"stateMutability": "nonpayable",
					"type": "function"
				},
				{
					"inputs": [
						{
							"internalType": "bytes4",
							"name": "interfaceId",
							"type": "bytes4"
						}
					],
					"name": "supportsInterface",
					"outputs": [
						{
							"internalType": "bool",
							"name": "",
							"type": "bool"
						}
					],
					"stateMutability": "view",
					"type": "function"
				},
				{
					"inputs": [],
					"name": "symbol",
					"outputs": [
						{
							"internalType": "string",
							"name": "",
							"type": "string"
						}
					],
					"stateMutability": "view",
					"type": "function"
				},
				{
					"inputs": [
						{
							"internalType": "uint256",
							"name": "tokenId",
							"type": "uint256"
						}
					],
					"name": "tokenURI",
					"outputs": [
						{
							"internalType": "string",
							"name": "",
							"type": "string"
						}
					],
					"stateMutability": "view",
					"type": "function"
				},
				{
					"inputs": [],
					"name": "totalSupply",
					"outputs": [
						{
							"internalType": "uint256",
							"name": "",
							"type": "uint256"
						}
					],
					"stateMutability": "view",
					"type": "function"
				},
				{
					"inputs": [
						{
							"internalType": "address",
							"name": "from",
							"type": "address"
						},
						{
							"internalType": "address",
							"name": "to",
							"type": "address"
						},
						{
							"internalType": "uint256",
							"name": "tokenId",
							"type": "uint256"
						}
					],
					"name": "transferFrom",
					"outputs": [],
					"stateMutability": "payable",
					"type": "function"
				},
				{
					"inputs": [
						{
							"internalType": "address",
							"name": "newOwner",
							"type": "address"
						}
					],
					"name": "transferOwnership",
					"outputs": [],
					"stateMutability": "nonpayable",
					"type": "function"
				}
			],
			"devdoc": {
				"events": {
					"Approval(address,address,uint256)": {
						"details": "Emitted when `owner` enables `approved` to manage the `tokenId` token."
					},
					"ApprovalForAll(address,address,bool)": {
						"details": "Emitted when `owner` enables or disables (`approved`) `operator` to manage all of its assets."
					},
					"ConsecutiveTransfer(uint256,uint256,address,address)": {
						"details": "Emitted when tokens in `fromTokenId` to `toTokenId` (inclusive) is transferred from `from` to `to`, as defined in the [ERC2309](https://eips.ethereum.org/EIPS/eip-2309) standard. See {_mintERC2309} for more details."
					},
					"Transfer(address,address,uint256)": {
						"details": "Emitted when `tokenId` token is transferred from `from` to `to`."
					}
				},
				"kind": "dev",
				"methods": {
					"approve(address,uint256)": {
						"details": "Gives permission to `to` to transfer `tokenId` token to another account. The approval is cleared when the token is transferred. Only a single account can be approved at a time, so approving the zero address clears previous approvals. Requirements: - The caller must own the token or be an approved operator. - `tokenId` must exist. Emits an {Approval} event."
					},
					"balanceOf(address)": {
						"details": "Returns the number of tokens in `owner`'s account."
					},
					"getApproved(uint256)": {
						"details": "Returns the account approved for `tokenId` token. Requirements: - `tokenId` must exist."
					},
					"isApprovedForAll(address,address)": {
						"details": "Returns if the `operator` is allowed to manage all of the assets of `owner`. See {setApprovalForAll}."
					},
					"name()": {
						"details": "Returns the token collection name."
					},
					"owner()": {
						"details": "Returns the address of the current owner."
					},
					"ownerOf(uint256)": {
						"details": "Returns the owner of the `tokenId` token. Requirements: - `tokenId` must exist."
					},
					"renounceOwnership()": {
						"details": "Leaves the contract without owner. It will not be possible to call `onlyOwner` functions anymore. Can only be called by the current owner. NOTE: Renouncing ownership will leave the contract without an owner, thereby removing any functionality that is only available to the owner."
					},
					"safeTransferFrom(address,address,uint256)": {
						"details": "Equivalent to `safeTransferFrom(from, to, tokenId, '')`."
					},
					"safeTransferFrom(address,address,uint256,bytes)": {
						"details": "Safely transfers `tokenId` token from `from` to `to`. Requirements: - `from` cannot be the zero address. - `to` cannot be the zero address. - `tokenId` token must exist and be owned by `from`. - If the caller is not `from`, it must be approved to move this token by either {approve} or {setApprovalForAll}. - If `to` refers to a smart contract, it must implement {IERC721Receiver-onERC721Received}, which is called upon a safe transfer. Emits a {Transfer} event."
					},
					"setApprovalForAll(address,bool)": {
						"details": "Approve or remove `operator` as an operator for the caller. Operators can call {transferFrom} or {safeTransferFrom} for any token owned by the caller. Requirements: - The `operator` cannot be the caller. Emits an {ApprovalForAll} event."
					},
					"supportsInterface(bytes4)": {
						"details": "Returns true if this contract implements the interface defined by `interfaceId`. See the corresponding [EIP section](https://eips.ethereum.org/EIPS/eip-165#how-interfaces-are-identified) to learn more about how these ids are created. This function call must use less than 30000 gas."
					},
					"symbol()": {
						"details": "Returns the token collection symbol."
					},
					"tokenURI(uint256)": {
						"details": "Returns the Uniform Resource Identifier (URI) for `tokenId` token."
					},
					"totalSupply()": {
						"details": "Returns the total number of tokens in existence. Burned tokens will reduce the count. To get the total number of tokens minted, please see {_totalMinted}."
					},
					"transferFrom(address,address,uint256)": {
						"details": "Transfers `tokenId` from `from` to `to`. Requirements: - `from` cannot be the zero address. - `to` cannot be the zero address. - `tokenId` token must be owned by `from`. - If the caller is not `from`, it must be approved to move this token by either {approve} or {setApprovalForAll}. Emits a {Transfer} event."
					},
					"transferOwnership(address)": {
						"details": "Transfers ownership of the contract to a new account (`newOwner`). Can only be called by the current owner."
					}
				},
				"version": 1
			},
			"evm": {
				"assembly": "    /* \"Receipts.sol\":240:877  contract UintsProofOfBroadcast is ERC721A, Ownable {... */\n  mstore(0x40, 0x80)\n    /* \"Receipts.sol\":546:588  0x43D218197E8c5FBC0527769821503660861c7045 */\n  0x43d218197e8c5fbc0527769821503660861c7045\n    /* \"Receipts.sol\":521:588  address _canvasAddress = 0x43D218197E8c5FBC0527769821503660861c7045 */\n  0x0a\n  exp(0x0100, 0x00)\n  dup2\n  sload\n  dup2\n  0xffffffffffffffffffffffffffffffffffffffff\n  mul\n  not\n  and\n  swap1\n  dup4\n  0xffffffffffffffffffffffffffffffffffffffff\n  and\n  mul\n  or\n  swap1\n  sstore\n  pop\n    /* \"Receipts.sol\":628:642  _canvasAddress */\n  0x0a\n  0x00\n  swap1\n  sload\n  swap1\n  0x0100\n  exp\n  swap1\n  div\n  0xffffffffffffffffffffffffffffffffffffffff\n  and\n    /* \"Receipts.sol\":594:643  ICanvas _canvasContract = ICanvas(_canvasAddress) */\n  0x0b\n  exp(0x0100, 0x00)\n  dup2\n  sload\n  dup2\n  0xffffffffffffffffffffffffffffffffffffffff\n  mul\n  not\n  and\n  swap1\n  dup4\n  0xffffffffffffffffffffffffffffffffffffffff\n  and\n  mul\n  or\n  swap1\n  sstore\n  pop\n    /* \"Receipts.sol\":329:388  constructor() ERC721A(\"UINTS PROOF OF BROADCAST\", \"POB\") {} */\n  callvalue\n  dup1\n  iszero\n  tag_1\n  jumpi\n  0x00\n  dup1\n  revert\ntag_1:\n  pop\n    /* \"erc721a/contracts/ERC721A.sol\":4946:5100  constructor(string memory name_, string memory symbol_) {... */\n  mload(0x40)\n  dup1\n  0x40\n  add\n  0x40\n  mstore\n  dup1\n  0x18\n  dup2\n  mstore\n  0x20\n  add\n  0x55494e54532050524f4f46204f462042524f4144434153540000000000000000\n  dup2\n  mstore\n  pop\n  mload(0x40)\n  dup1\n  0x40\n  add\n  0x40\n  mstore\n  dup1\n  0x03\n  dup2\n  mstore\n  0x20\n  add\n  0x504f420000000000000000000000000000000000000000000000000000000000\n  dup2\n  mstore\n  pop\n    /* \"erc721a/contracts/ERC721A.sol\":5020:5025  name_ */\n  dup2\n    /* \"erc721a/contracts/ERC721A.sol\":5012:5017  _name */\n  0x02\n    /* \"erc721a/contracts/ERC721A.sol\":5012:5025  _name = name_ */\n  swap1\n  dup2\n  tag_6\n  swap2\n  swap1\n  tag_7\n  jump\t// in\ntag_6:\n  pop\n    /* \"erc721a/contracts/ERC721A.sol\":5045:5052  symbol_ */\n  dup1\n    /* \"erc721a/contracts/ERC721A.sol\":5035:5042  _symbol */\n  0x03\n    /* \"erc721a/contracts/ERC721A.sol\":5035:5052  _symbol = symbol_ */\n  swap1\n  dup2\n  tag_8\n  swap2\n  swap1\n  tag_7\n  jump\t// in\ntag_8:\n  pop\n    /* \"erc721a/contracts/ERC721A.sol\":5078:5093  _startTokenId() */\n  tag_9\n    /* \"erc721a/contracts/ERC721A.sol\":5078:5091  _startTokenId */\n  shl(0x20, tag_10)\n    /* \"erc721a/contracts/ERC721A.sol\":5078:5093  _startTokenId() */\n  0x20\n  shr\n  jump\t// in\ntag_9:\n    /* \"erc721a/contracts/ERC721A.sol\":5062:5075  _currentIndex */\n  0x00\n    /* \"erc721a/contracts/ERC721A.sol\":5062:5093  _currentIndex = _startTokenId() */\n  dup2\n  swap1\n  sstore\n  pop\n    /* \"erc721a/contracts/ERC721A.sol\":4946:5100  constructor(string memory name_, string memory symbol_) {... */\n  pop\n  pop\n    /* \"@openzeppelin/contracts/access/Ownable.sol\":936:968  _transferOwnership(_msgSender()) */\n  tag_12\n    /* \"@openzeppelin/contracts/access/Ownable.sol\":955:967  _msgSender() */\n  tag_13\n    /* \"@openzeppelin/contracts/access/Ownable.sol\":955:965  _msgSender */\n  shl(0x20, tag_14)\n    /* \"@openzeppelin/contracts/access/Ownable.sol\":955:967  _msgSender() */\n  0x20\n  shr\n  jump\t// in\ntag_13:\n    /* \"@openzeppelin/contracts/access/Ownable.sol\":936:954  _transferOwnership */\n  shl(0x20, tag_15)\n    /* \"@openzeppelin/contracts/access/Ownable.sol\":936:968  _transferOwnership(_msgSender()) */\n  0x20\n  shr\n  jump\t// in\ntag_12:\n    /* \"Receipts.sol\":240:877  contract UintsProofOfBroadcast is ERC721A, Ownable {... */\n  jump(tag_17)\n    /* \"erc721a/contracts/ERC721A.sol\":5426:5516  function _startTokenId() internal view virtual returns (uint256) {... */\ntag_10:\n    /* \"erc721a/contracts/ERC721A.sol\":5482:5489  uint256 */\n  0x00\n    /* \"erc721a/contracts/ERC721A.sol\":5426:5516  function _startTokenId() internal view virtual returns (uint256) {... */\n  swap1\n  jump\t// out\n    /* \"@openzeppelin/contracts/utils/Context.sol\":640:736  function _msgSender() internal view virtual returns (address) {... */\ntag_14:\n    /* \"@openzeppelin/contracts/utils/Context.sol\":693:700  address */\n  0x00\n    /* \"@openzeppelin/contracts/utils/Context.sol\":719:729  msg.sender */\n  caller\n    /* \"@openzeppelin/contracts/utils/Context.sol\":712:729  return msg.sender */\n  swap1\n  pop\n    /* \"@openzeppelin/contracts/utils/Context.sol\":640:736  function _msgSender() internal view virtual returns (address) {... */\n  swap1\n  jump\t// out\n    /* \"@openzeppelin/contracts/access/Ownable.sol\":2433:2620  function _transferOwnership(address newOwner) internal virtual {... */\ntag_15:\n    /* \"@openzeppelin/contracts/access/Ownable.sol\":2506:2522  address oldOwner */\n  0x00\n    /* \"@openzeppelin/contracts/access/Ownable.sol\":2525:2531  _owner */\n  0x08\n  0x00\n  swap1\n  sload\n  swap1\n  0x0100\n  exp\n  swap1\n  div\n  0xffffffffffffffffffffffffffffffffffffffff\n  and\n    /* \"@openzeppelin/contracts/access/Ownable.sol\":2506:2531  address oldOwner = _owner */\n  swap1\n  pop\n    /* \"@openzeppelin/contracts/access/Ownable.sol\":2550:2558  newOwner */\n  dup2\n    /* \"@openzeppelin/contracts/access/Ownable.sol\":2541:2547  _owner */\n  0x08\n  0x00\n    /* \"@openzeppelin/contracts/access/Ownable.sol\":2541:2558  _owner = newOwner */\n  0x0100\n  exp\n  dup2\n  sload\n  dup2\n  0xffffffffffffffffffffffffffffffffffffffff\n  mul\n  not\n  and\n  swap1\n  dup4\n  0xffffffffffffffffffffffffffffffffffffffff\n  and\n  mul\n  or\n  swap1\n  sstore\n  pop\n    /* \"@openzeppelin/contracts/access/Ownable.sol\":2604:2612  newOwner */\n  dup2\n    /* \"@openzeppelin/contracts/access/Ownable.sol\":2573:2613  OwnershipTransferred(oldOwner, newOwner) */\n  0xffffffffffffffffffffffffffffffffffffffff\n  and\n    /* \"@openzeppelin/contracts/access/Ownable.sol\":2594:2602  oldOwner */\n  dup2\n    /* \"@openzeppelin/contracts/access/Ownable.sol\":2573:2613  OwnershipTransferred(oldOwner, newOwner) */\n  0xffffffffffffffffffffffffffffffffffffffff\n  and\n  0x8be0079c531659141344cd1fd0a4f28419497f9722a3daafe3b4186f6b6457e0\n  mload(0x40)\n  mload(0x40)\n  dup1\n  swap2\n  sub\n  swap1\n  log3\n    /* \"@openzeppelin/contracts/access/Ownable.sol\":2496:2620  {... */\n  pop\n    /* \"@openzeppelin/contracts/access/Ownable.sol\":2433:2620  function _transferOwnership(address newOwner) internal virtual {... */\n  pop\n  jump\t// out\n    /* \"#utility.yul\":7:106   */\ntag_21:\n    /* \"#utility.yul\":59:65   */\n  0x00\n    /* \"#utility.yul\":93:98   */\n  dup2\n    /* \"#utility.yul\":87:99   */\n  mload\n    /* \"#utility.yul\":77:99   */\n  swap1\n  pop\n    /* \"#utility.yul\":7:106   */\n  swap2\n  swap1\n  pop\n  jump\t// out\n    /* \"#utility.yul\":112:292   */\ntag_22:\n    /* \"#utility.yul\":160:237   */\n  0x4e487b7100000000000000000000000000000000000000000000000000000000\n    /* \"#utility.yul\":157:158   */\n  0x00\n    /* \"#utility.yul\":150:238   */\n  mstore\n    /* \"#utility.yul\":257:261   */\n  0x41\n    /* \"#utility.yul\":254:255   */\n  0x04\n    /* \"#utility.yul\":247:262   */\n  mstore\n    /* \"#utility.yul\":281:285   */\n  0x24\n    /* \"#utility.yul\":278:279   */\n  0x00\n    /* \"#utility.yul\":271:286   */\n  revert\n    /* \"#utility.yul\":298:478   */\ntag_23:\n    /* \"#utility.yul\":346:423   */\n  0x4e487b7100000000000000000000000000000000000000000000000000000000\n    /* \"#utility.yul\":343:344   */\n  0x00\n    /* \"#utility.yul\":336:424   */\n  mstore\n    /* \"#utility.yul\":443:447   */\n  0x22\n    /* \"#utility.yul\":440:441   */\n  0x04\n    /* \"#utility.yul\":433:448   */\n  mstore\n    /* \"#utility.yul\":467:471   */\n  0x24\n    /* \"#utility.yul\":464:465   */\n  0x00\n    /* \"#utility.yul\":457:472   */\n  revert\n    /* \"#utility.yul\":484:804   */\ntag_24:\n    /* \"#utility.yul\":528:534   */\n  0x00\n    /* \"#utility.yul\":565:566   */\n  0x02\n    /* \"#utility.yul\":559:563   */\n  dup3\n    /* \"#utility.yul\":555:567   */\n  div\n    /* \"#utility.yul\":545:567   */\n  swap1\n  pop\n    /* \"#utility.yul\":612:613   */\n  0x01\n    /* \"#utility.yul\":606:610   */\n  dup3\n    /* \"#utility.yul\":602:614   */\n  and\n    /* \"#utility.yul\":633:651   */\n  dup1\n    /* \"#utility.yul\":623:704   */\n  tag_46\n  jumpi\n    /* \"#utility.yul\":689:693   */\n  0x7f\n    /* \"#utility.yul\":681:687   */\n  dup3\n    /* \"#utility.yul\":677:694   */\n  and\n    /* \"#utility.yul\":667:694   */\n  swap2\n  pop\n    /* \"#utility.yul\":623:704   */\ntag_46:\n    /* \"#utility.yul\":751:753   */\n  0x20\n    /* \"#utility.yul\":743:749   */\n  dup3\n    /* \"#utility.yul\":740:754   */\n  lt\n    /* \"#utility.yul\":720:738   */\n  dup2\n    /* \"#utility.yul\":717:755   */\n  sub\n    /* \"#utility.yul\":714:798   */\n  tag_47\n  jumpi\n    /* \"#utility.yul\":770:788   */\n  tag_48\n  tag_23\n  jump\t// in\ntag_48:\n    /* \"#utility.yul\":714:798   */\ntag_47:\n    /* \"#utility.yul\":535:804   */\n  pop\n    /* \"#utility.yul\":484:804   */\n  swap2\n  swap1\n  pop\n  jump\t// out\n    /* \"#utility.yul\":810:951   */\ntag_25:\n    /* \"#utility.yul\":859:863   */\n  0x00\n    /* \"#utility.yul\":882:885   */\n  dup2\n    /* \"#utility.yul\":874:885   */\n  swap1\n  pop\n    /* \"#utility.yul\":905:908   */\n  dup2\n    /* \"#utility.yul\":902:903   */\n  0x00\n    /* \"#utility.yul\":895:909   */\n  mstore\n    /* \"#utility.yul\":939:943   */\n  0x20\n    /* \"#utility.yul\":936:937   */\n  0x00\n    /* \"#utility.yul\":926:944   */\n  keccak256\n    /* \"#utility.yul\":918:944   */\n  swap1\n  pop\n    /* \"#utility.yul\":810:951   */\n  swap2\n  swap1\n  pop\n  jump\t// out\n    /* \"#utility.yul\":957:1050   */\ntag_26:\n    /* \"#utility.yul\":994:1000   */\n  0x00\n    /* \"#utility.yul\":1041:1043   */\n  0x20\n    /* \"#utility.yul\":1036:1038   */\n  0x1f\n    /* \"#utility.yul\":1029:1034   */\n  dup4\n    /* \"#utility.yul\":1025:1039   */\n  add\n    /* \"#utility.yul\":1021:1044   */\n  div\n    /* \"#utility.yul\":1011:1044   */\n  swap1\n  pop\n    /* \"#utility.yul\":957:1050   */\n  swap2\n  swap1\n  pop\n  jump\t// out\n    /* \"#utility.yul\":1056:1163   */\ntag_27:\n    /* \"#utility.yul\":1100:1108   */\n  0x00\n    /* \"#utility.yul\":1150:1155   */\n  dup3\n    /* \"#utility.yul\":1144:1148   */\n  dup3\n    /* \"#utility.yul\":1140:1156   */\n  shl\n    /* \"#utility.yul\":1119:1156   */\n  swap1\n  pop\n    /* \"#utility.yul\":1056:1163   */\n  swap3\n  swap2\n  pop\n  pop\n  jump\t// out\n    /* \"#utility.yul\":1169:1562   */\ntag_28:\n    /* \"#utility.yul\":1238:1244   */\n  0x00\n    /* \"#utility.yul\":1288:1289   */\n  0x08\n    /* \"#utility.yul\":1276:1286   */\n  dup4\n    /* \"#utility.yul\":1272:1290   */\n  mul\n    /* \"#utility.yul\":1311:1408   */\n  tag_53\n    /* \"#utility.yul\":1341:1407   */\n  0xffffffffffffffffffffffffffffffffffffffffffffffffffffffffffffffff\n    /* \"#utility.yul\":1330:1339   */\n  dup3\n    /* \"#utility.yul\":1311:1408   */\n  tag_27\n  jump\t// in\ntag_53:\n    /* \"#utility.yul\":1429:1468   */\n  tag_54\n    /* \"#utility.yul\":1459:1467   */\n  dup7\n    /* \"#utility.yul\":1448:1457   */\n  dup4\n    /* \"#utility.yul\":1429:1468   */\n  tag_27\n  jump\t// in\ntag_54:\n    /* \"#utility.yul\":1417:1468   */\n  swap6\n  pop\n    /* \"#utility.yul\":1501:1505   */\n  dup1\n    /* \"#utility.yul\":1497:1506   */\n  not\n    /* \"#utility.yul\":1490:1495   */\n  dup5\n    /* \"#utility.yul\":1486:1507   */\n  and\n    /* \"#utility.yul\":1477:1507   */\n  swap4\n  pop\n    /* \"#utility.yul\":1550:1554   */\n  dup1\n    /* \"#utility.yul\":1540:1548   */\n  dup7\n    /* \"#utility.yul\":1536:1555   */\n  and\n    /* \"#utility.yul\":1529:1534   */\n  dup5\n    /* \"#utility.yul\":1526:1556   */\n  or\n    /* \"#utility.yul\":1516:1556   */\n  swap3\n  pop\n    /* \"#utility.yul\":1245:1562   */\n  pop\n  pop\n    /* \"#utility.yul\":1169:1562   */\n  swap4\n  swap3\n  pop\n  pop\n  pop\n  jump\t// out\n    /* \"#utility.yul\":1568:1645   */\ntag_29:\n    /* \"#utility.yul\":1605:1612   */\n  0x00\n    /* \"#utility.yul\":1634:1639   */\n  dup2\n    /* \"#utility.yul\":1623:1639   */\n  swap1\n  pop\n    /* \"#utility.yul\":1568:1645   */\n  swap2\n  swap1\n  pop\n  jump\t// out\n    /* \"#utility.yul\":1651:1711   */\ntag_30:\n    /* \"#utility.yul\":1679:1682   */\n  0x00\n    /* \"#utility.yul\":1700:1705   */\n  dup2\n    /* \"#utility.yul\":1693:1705   */\n  swap1\n  pop\n    /* \"#utility.yul\":1651:1711   */\n  swap2\n  swap1\n  pop\n  jump\t// out\n    /* \"#utility.yul\":1717:1859   */\ntag_31:\n    /* \"#utility.yul\":1767:1776   */\n  0x00\n    /* \"#utility.yul\":1800:1853   */\n  tag_58\n    /* \"#utility.yul\":1818:1852   */\n  tag_59\n    /* \"#utility.yul\":1827:1851   */\n  tag_60\n    /* \"#utility.yul\":1845:1850   */\n  dup5\n    /* \"#utility.yul\":1827:1851   */\n  tag_29\n  jump\t// in\ntag_60:\n    /* \"#utility.yul\":1818:1852   */\n  tag_30\n  jump\t// in\ntag_59:\n    /* \"#utility.yul\":1800:1853   */\n  tag_29\n  jump\t// in\ntag_58:\n    /* \"#utility.yul\":1787:1853   */\n  swap1\n  pop\n    /* \"#utility.yul\":1717:1859   */\n  swap2\n  swap1\n  pop\n  jump\t// out\n    /* \"#utility.yul\":1865:1940   */\ntag_32:\n    /* \"#utility.yul\":1908:1911   */\n  0x00\n    /* \"#utility.yul\":1929:1934   */\n  dup2\n    /* \"#utility.yul\":1922:1934   */\n  swap1\n  pop\n    /* \"#utility.yul\":1865:1940   */\n  swap2\n  swap1\n  pop\n  jump\t// out\n    /* \"#utility.yul\":1946:2215   */\ntag_33:\n    /* \"#utility.yul\":2056:2095   */\n  tag_63\n    /* \"#utility.yul\":2087:2094   */\n  dup4\n    /* \"#utility.yul\":2056:2095   */\n  tag_31\n  jump\t// in\ntag_63:\n    /* \"#utility.yul\":2117:2208   */\n  tag_64\n    /* \"#utility.yul\":2166:2207   */\n  tag_65\n    /* \"#utility.yul\":2190:2206   */\n  dup3\n    /* \"#utility.yul\":2166:2207   */\n  tag_32\n  jump\t// in\ntag_65:\n    /* \"#utility.yul\":2158:2164   */\n  dup5\n    /* \"#utility.yul\":2151:2155   */\n  dup5\n    /* \"#utility.yul\":2145:2156   */\n  sload\n    /* \"#utility.yul\":2117:2208   */\n  tag_28\n  jump\t// in\ntag_64:\n    /* \"#utility.yul\":2111:2115   */\n  dup3\n    /* \"#utility.yul\":2104:2209   */\n  sstore\n    /* \"#utility.yul\":2022:2215   */\n  pop\n    /* \"#utility.yul\":1946:2215   */\n  pop\n  pop\n  pop\n  jump\t// out\n    /* \"#utility.yul\":2221:2294   */\ntag_34:\n    /* \"#utility.yul\":2266:2269   */\n  0x00\n    /* \"#utility.yul\":2221:2294   */\n  swap1\n  jump\t// out\n    /* \"#utility.yul\":2300:2489   */\ntag_35:\n    /* \"#utility.yul\":2377:2409   */\n  tag_68\n  tag_34\n  jump\t// in\ntag_68:\n    /* \"#utility.yul\":2418:2483   */\n  tag_69\n    /* \"#utility.yul\":2476:2482   */\n  dup2\n    /* \"#utility.yul\":2468:2474   */\n  dup5\n    /* \"#utility.yul\":2462:2466   */\n  dup5\n    /* \"#utility.yul\":2418:2483   */\n  tag_33\n  jump\t// in\ntag_69:\n    /* \"#utility.yul\":2353:2489   */\n  pop\n    /* \"#utility.yul\":2300:2489   */\n  pop\n  pop\n  jump\t// out\n    /* \"#utility.yul\":2495:2681   */\ntag_36:\n    /* \"#utility.yul\":2555:2675   */\ntag_71:\n    /* \"#utility.yul\":2572:2575   */\n  dup2\n    /* \"#utility.yul\":2565:2570   */\n  dup2\n    /* \"#utility.yul\":2562:2576   */\n  lt\n    /* \"#utility.yul\":2555:2675   */\n  iszero\n  tag_73\n  jumpi\n    /* \"#utility.yul\":2626:2665   */\n  tag_74\n    /* \"#utility.yul\":2663:2664   */\n  0x00\n    /* \"#utility.yul\":2656:2661   */\n  dup3\n    /* \"#utility.yul\":2626:2665   */\n  tag_35\n  jump\t// in\ntag_74:\n    /* \"#utility.yul\":2599:2600   */\n  0x01\n    /* \"#utility.yul\":2592:2597   */\n  dup2\n    /* \"#utility.yul\":2588:2601   */\n  add\n    /* \"#utility.yul\":2579:2601   */\n  swap1\n  pop\n    /* \"#utility.yul\":2555:2675   */\n  jump(tag_71)\ntag_73:\n    /* \"#utility.yul\":2495:2681   */\n  pop\n  pop\n  jump\t// out\n    /* \"#utility.yul\":2687:3230   */\ntag_37:\n    /* \"#utility.yul\":2788:2790   */\n  0x1f\n    /* \"#utility.yul\":2783:2786   */\n  dup3\n    /* \"#utility.yul\":2780:2791   */\n  gt\n    /* \"#utility.yul\":2777:3223   */\n  iszero\n  tag_76\n  jumpi\n    /* \"#utility.yul\":2822:2860   */\n  tag_77\n    /* \"#utility.yul\":2854:2859   */\n  dup2\n    /* \"#utility.yul\":2822:2860   */\n  tag_25\n  jump\t// in\ntag_77:\n    /* \"#utility.yul\":2906:2935   */\n  tag_78\n    /* \"#utility.yul\":2924:2934   */\n  dup5\n    /* \"#utility.yul\":2906:2935   */\n  tag_26\n  jump\t// in\ntag_78:\n    /* \"#utility.yul\":2896:2904   */\n  dup2\n    /* \"#utility.yul\":2892:2936   */\n  add\n    /* \"#utility.yul\":3089:3091   */\n  0x20\n    /* \"#utility.yul\":3077:3087   */\n  dup6\n    /* \"#utility.yul\":3074:3092   */\n  lt\n    /* \"#utility.yul\":3071:3120   */\n  iszero\n  tag_79\n  jumpi\n    /* \"#utility.yul\":3110:3118   */\n  dup2\n    /* \"#utility.yul\":3095:3118   */\n  swap1\n  pop\n    /* \"#utility.yul\":3071:3120   */\ntag_79:\n    /* \"#utility.yul\":3133:3213   */\n  tag_80\n    /* \"#utility.yul\":3189:3211   */\n  tag_81\n    /* \"#utility.yul\":3207:3210   */\n  dup6\n    /* \"#utility.yul\":3189:3211   */\n  tag_26\n  jump\t// in\ntag_81:\n    /* \"#utility.yul\":3179:3187   */\n  dup4\n    /* \"#utility.yul\":3175:3212   */\n  add\n    /* \"#utility.yul\":3162:3173   */\n  dup3\n    /* \"#utility.yul\":3133:3213   */\n  tag_36\n  jump\t// in\ntag_80:\n    /* \"#utility.yul\":2792:3223   */\n  pop\n  pop\n    /* \"#utility.yul\":2777:3223   */\ntag_76:\n    /* \"#utility.yul\":2687:3230   */\n  pop\n  pop\n  pop\n  jump\t// out\n    /* \"#utility.yul\":3236:3353   */\ntag_38:\n    /* \"#utility.yul\":3290:3298   */\n  0x00\n    /* \"#utility.yul\":3340:3345   */\n  dup3\n    /* \"#utility.yul\":3334:3338   */\n  dup3\n    /* \"#utility.yul\":3330:3346   */\n  shr\n    /* \"#utility.yul\":3309:3346   */\n  swap1\n  pop\n    /* \"#utility.yul\":3236:3353   */\n  swap3\n  swap2\n  pop\n  pop\n  jump\t// out\n    /* \"#utility.yul\":3359:3528   */\ntag_39:\n    /* \"#utility.yul\":3403:3409   */\n  0x00\n    /* \"#utility.yul\":3436:3487   */\n  tag_84\n    /* \"#utility.yul\":3484:3485   */\n  0x00\n    /* \"#utility.yul\":3480:3486   */\n  not\n    /* \"#utility.yul\":3472:3477   */\n  dup5\n    /* \"#utility.yul\":3469:3470   */\n  0x08\n    /* \"#utility.yul\":3465:3478   */\n  mul\n    /* \"#utility.yul\":3436:3487   */\n  tag_38\n  jump\t// in\ntag_84:\n    /* \"#utility.yul\":3432:3488   */\n  not\n    /* \"#utility.yul\":3517:3521   */\n  dup1\n    /* \"#utility.yul\":3511:3515   */\n  dup4\n    /* \"#utility.yul\":3507:3522   */\n  and\n    /* \"#utility.yul\":3497:3522   */\n  swap2\n  pop\n    /* \"#utility.yul\":3410:3528   */\n  pop\n    /* \"#utility.yul\":3359:3528   */\n  swap3\n  swap2\n  pop\n  pop\n  jump\t// out\n    /* \"#utility.yul\":3533:3828   */\ntag_40:\n    /* \"#utility.yul\":3609:3613   */\n  0x00\n    /* \"#utility.yul\":3755:3784   */\n  tag_86\n    /* \"#utility.yul\":3780:3783   */\n  dup4\n    /* \"#utility.yul\":3774:3778   */\n  dup4\n    /* \"#utility.yul\":3755:3784   */\n  tag_39\n  jump\t// in\ntag_86:\n    /* \"#utility.yul\":3747:3784   */\n  swap2\n  pop\n    /* \"#utility.yul\":3817:3820   */\n  dup3\n    /* \"#utility.yul\":3814:3815   */\n  0x02\n    /* \"#utility.yul\":3810:3821   */\n  mul\n    /* \"#utility.yul\":3804:3808   */\n  dup3\n    /* \"#utility.yul\":3801:3822   */\n  or\n    /* \"#utility.yul\":3793:3822   */\n  swap1\n  pop\n    /* \"#utility.yul\":3533:3828   */\n  swap3\n  swap2\n  pop\n  pop\n  jump\t// out\n    /* \"#utility.yul\":3833:5228   */\ntag_7:\n    /* \"#utility.yul\":3950:3987   */\n  tag_88\n    /* \"#utility.yul\":3983:3986   */\n  dup3\n    /* \"#utility.yul\":3950:3987   */\n  tag_21\n  jump\t// in\ntag_88:\n    /* \"#utility.yul\":4052:4070   */\n  0xffffffffffffffff\n    /* \"#utility.yul\":4044:4050   */\n  dup2\n    /* \"#utility.yul\":4041:4071   */\n  gt\n    /* \"#utility.yul\":4038:4094   */\n  iszero\n  tag_89\n  jumpi\n    /* \"#utility.yul\":4074:4092   */\n  tag_90\n  tag_22\n  jump\t// in\ntag_90:\n    /* \"#utility.yul\":4038:4094   */\ntag_89:\n    /* \"#utility.yul\":4118:4156   */\n  tag_91\n    /* \"#utility.yul\":4150:4154   */\n  dup3\n    /* \"#utility.yul\":4144:4155   */\n  sload\n    /* \"#utility.yul\":4118:4156   */\n  tag_24\n  jump\t// in\ntag_91:\n    /* \"#utility.yul\":4203:4270   */\n  tag_92\n    /* \"#utility.yul\":4263:4269   */\n  dup3\n    /* \"#utility.yul\":4255:4261   */\n  dup3\n    /* \"#utility.yul\":4249:4253   */\n  dup6\n    /* \"#utility.yul\":4203:4270   */\n  tag_37\n  jump\t// in\ntag_92:\n    /* \"#utility.yul\":4297:4298   */\n  0x00\n    /* \"#utility.yul\":4321:4325   */\n  0x20\n    /* \"#utility.yul\":4308:4325   */\n  swap1\n  pop\n    /* \"#utility.yul\":4353:4355   */\n  0x1f\n    /* \"#utility.yul\":4345:4351   */\n  dup4\n    /* \"#utility.yul\":4342:4356   */\n  gt\n    /* \"#utility.yul\":4370:4371   */\n  0x01\n    /* \"#utility.yul\":4365:4983   */\n  dup2\n  eq\n  tag_94\n  jumpi\n    /* \"#utility.yul\":5027:5028   */\n  0x00\n    /* \"#utility.yul\":5044:5050   */\n  dup5\n    /* \"#utility.yul\":5041:5118   */\n  iszero\n  tag_95\n  jumpi\n    /* \"#utility.yul\":5093:5102   */\n  dup3\n    /* \"#utility.yul\":5088:5091   */\n  dup8\n    /* \"#utility.yul\":5084:5103   */\n  add\n    /* \"#utility.yul\":5078:5104   */\n  mload\n    /* \"#utility.yul\":5069:5104   */\n  swap1\n  pop\n    /* \"#utility.yul\":5041:5118   */\ntag_95:\n    /* \"#utility.yul\":5144:5211   */\n  tag_96\n    /* \"#utility.yul\":5204:5210   */\n  dup6\n    /* \"#utility.yul\":5197:5202   */\n  dup3\n    /* \"#utility.yul\":5144:5211   */\n  tag_40\n  jump\t// in\ntag_96:\n    /* \"#utility.yul\":5138:5142   */\n  dup7\n    /* \"#utility.yul\":5131:5212   */\n  sstore\n    /* \"#utility.yul\":5000:5222   */\n  pop\n    /* \"#utility.yul\":4335:5222   */\n  jump(tag_93)\n    /* \"#utility.yul\":4365:4983   */\ntag_94:\n    /* \"#utility.yul\":4417:4421   */\n  0x1f\n    /* \"#utility.yul\":4413:4422   */\n  not\n    /* \"#utility.yul\":4405:4411   */\n  dup5\n    /* \"#utility.yul\":4401:4423   */\n  and\n    /* \"#utility.yul\":4451:4488   */\n  tag_97\n    /* \"#utility.yul\":4483:4487   */\n  dup7\n    /* \"#utility.yul\":4451:4488   */\n  tag_25\n  jump\t// in\ntag_97:\n    /* \"#utility.yul\":4510:4511   */\n  0x00\n    /* \"#utility.yul\":4524:4732   */\ntag_98:\n    /* \"#utility.yul\":4538:4545   */\n  dup3\n    /* \"#utility.yul\":4535:4536   */\n  dup2\n    /* \"#utility.yul\":4532:4546   */\n  lt\n    /* \"#utility.yul\":4524:4732   */\n  iszero\n  tag_100\n  jumpi\n    /* \"#utility.yul\":4617:4626   */\n  dup5\n    /* \"#utility.yul\":4612:4615   */\n  dup10\n    /* \"#utility.yul\":4608:4627   */\n  add\n    /* \"#utility.yul\":4602:4628   */\n  mload\n    /* \"#utility.yul\":4594:4600   */\n  dup3\n    /* \"#utility.yul\":4587:4629   */\n  sstore\n    /* \"#utility.yul\":4668:4669   */\n  0x01\n    /* \"#utility.yul\":4660:4666   */\n  dup3\n    /* \"#utility.yul\":4656:4670   */\n  add\n    /* \"#utility.yul\":4646:4670   */\n  swap2\n  pop\n    /* \"#utility.yul\":4715:4717   */\n  0x20\n    /* \"#utility.yul\":4704:4713   */\n  dup6\n    /* \"#utility.yul\":4700:4718   */\n  add\n    /* \"#utility.yul\":4687:4718   */\n  swap5\n  pop\n    /* \"#utility.yul\":4561:4565   */\n  0x20\n    /* \"#utility.yul\":4558:4559   */\n  dup2\n    /* \"#utility.yul\":4554:4566   */\n  add\n    /* \"#utility.yul\":4549:4566   */\n  swap1\n  pop\n    /* \"#utility.yul\":4524:4732   */\n  jump(tag_98)\ntag_100:\n    /* \"#utility.yul\":4760:4766   */\n  dup7\n    /* \"#utility.yul\":4751:4758   */\n  dup4\n    /* \"#utility.yul\":4748:4767   */\n  lt\n    /* \"#utility.yul\":4745:4924   */\n  iszero\n  tag_101\n  jumpi\n    /* \"#utility.yul\":4818:4827   */\n  dup5\n    /* \"#utility.yul\":4813:4816   */\n  dup10\n    /* \"#utility.yul\":4809:4828   */\n  add\n    /* \"#utility.yul\":4803:4829   */\n  mload\n    /* \"#utility.yul\":4861:4909   */\n  tag_102\n    /* \"#utility.yul\":4903:4907   */\n  0x1f\n    /* \"#utility.yul\":4895:4901   */\n  dup10\n    /* \"#utility.yul\":4891:4908   */\n  and\n    /* \"#utility.yul\":4880:4889   */\n  dup3\n    /* \"#utility.yul\":4861:4909   */\n  tag_39\n  jump\t// in\ntag_102:\n    /* \"#utility.yul\":4853:4859   */\n  dup4\n    /* \"#utility.yul\":4846:4910   */\n  sstore\n    /* \"#utility.yul\":4768:4924   */\n  pop\n    /* \"#utility.yul\":4745:4924   */\ntag_101:\n    /* \"#utility.yul\":4970:4971   */\n  0x01\n    /* \"#utility.yul\":4966:4967   */\n  0x02\n    /* \"#utility.yul\":4958:4964   */\n  dup9\n    /* \"#utility.yul\":4954:4968   */\n  mul\n    /* \"#utility.yul\":4950:4972   */\n  add\n    /* \"#utility.yul\":4944:4948   */\n  dup9\n    /* \"#utility.yul\":4937:4973   */\n  sstore\n    /* \"#utility.yul\":4372:4983   */\n  pop\n  pop\n  pop\n    /* \"#utility.yul\":4335:5222   */\ntag_93:\n  pop\n    /* \"#utility.yul\":3925:5228   */\n  pop\n  pop\n  pop\n    /* \"#utility.yul\":3833:5228   */\n  pop\n  pop\n  jump\t// out\n    /* \"Receipts.sol\":240:877  contract UintsProofOfBroadcast is ERC721A, Ownable {... */\ntag_17:\n  dataSize(sub_0)\n  dup1\n  dataOffset(sub_0)\n  0x00\n  codecopy\n  0x00\n  return\nstop\n\nsub_0: assembly {\n        /* \"Receipts.sol\":240:877  contract UintsProofOfBroadcast is ERC721A, Ownable {... */\n      mstore(0x40, 0x80)\n      jumpi(tag_1, lt(calldatasize, 0x04))\n      shr(0xe0, calldataload(0x00))\n      dup1\n      0x70a08231\n      gt\n      tag_22\n      jumpi\n      dup1\n      0xa22cb465\n      gt\n      tag_23\n      jumpi\n      dup1\n      0xa22cb465\n      eq\n      tag_17\n      jumpi\n      dup1\n      0xb88d4fde\n      eq\n      tag_18\n      jumpi\n      dup1\n      0xc87b56dd\n      eq\n      tag_19\n      jumpi\n      dup1\n      0xe985e9c5\n      eq\n      tag_20\n      jumpi\n      dup1\n      0xf2fde38b\n      eq\n      tag_21\n      jumpi\n      jump(tag_1)\n    tag_23:\n      dup1\n      0x70a08231\n      eq\n      tag_12\n      jumpi\n      dup1\n      0x715018a6\n      eq\n      tag_13\n      jumpi\n      dup1\n      0x76167a89\n      eq\n      tag_14\n      jumpi\n      dup1\n      0x8da5cb5b\n      eq\n      tag_15\n      jumpi\n      dup1\n      0x95d89b41\n      eq\n      tag_16\n      jumpi\n      jump(tag_1)\n    tag_22:\n      dup1\n      0x23b872dd\n      gt\n      tag_24\n      jumpi\n      dup1\n      0x23b872dd\n      eq\n      tag_7\n      jumpi\n      dup1\n      0x42842e0e\n      eq\n      tag_8\n      jumpi\n      dup1\n      0x433f7b8b\n      eq\n      tag_9\n      jumpi\n      dup1\n      0x43e0231e\n      eq\n      tag_10\n      jumpi\n      dup1\n      0x6352211e\n      eq\n      tag_11\n      jumpi\n      jump(tag_1)\n    tag_24:\n      dup1\n      0x01ffc9a7\n      eq\n      tag_2\n      jumpi\n      dup1\n      0x06fdde03\n      eq\n      tag_3\n      jumpi\n      dup1\n      0x081812fc\n      eq\n      tag_4\n      jumpi\n      dup1\n      0x095ea7b3\n      eq\n      tag_5\n      jumpi\n      dup1\n      0x18160ddd\n      eq\n      tag_6\n      jumpi\n    tag_1:\n      0x00\n      dup1\n      revert\n        /* \"erc721a/contracts/ERC721A.sol\":9155:9785  function supportsInterface(bytes4 interfaceId) public view virtual override returns (bool) {... */\n    tag_2:\n      callvalue\n      dup1\n      iszero\n      tag_25\n      jumpi\n      0x00\n      dup1\n      revert\n    tag_25:\n      pop\n      tag_26\n      0x04\n      dup1\n      calldatasize\n      sub\n      dup2\n      add\n      swap1\n      tag_27\n      swap2\n      swap1\n      tag_28\n      jump\t// in\n    tag_27:\n      tag_29\n      jump\t// in\n    tag_26:\n      mload(0x40)\n      tag_30\n      swap2\n      swap1\n      tag_31\n      jump\t// in\n    tag_30:\n      mload(0x40)\n      dup1\n      swap2\n      sub\n      swap1\n      return\n        /* \"erc721a/contracts/ERC721A.sol\":10039:10137  function name() public view virtual override returns (string memory) {... */\n    tag_3:\n      callvalue\n      dup1\n      iszero\n      tag_32\n      jumpi\n      0x00\n      dup1\n      revert\n    tag_32:\n      pop\n      tag_33\n      tag_34\n      jump\t// in\n    tag_33:\n      mload(0x40)\n      tag_35\n      swap2\n      swap1\n      tag_36\n      jump\t// in\n    tag_35:\n      mload(0x40)\n      dup1\n      swap2\n      sub\n      swap1\n      return\n        /* \"erc721a/contracts/ERC721A.sol\":16360:16574  function getApproved(uint256 tokenId) public view virtual override returns (address) {... */\n    tag_4:\n      callvalue\n      dup1\n      iszero\n      tag_37\n      jumpi\n      0x00\n      dup1\n      revert\n    tag_37:\n      pop\n      tag_38\n      0x04\n      dup1\n      calldatasize\n      sub\n      dup2\n      add\n      swap1\n      tag_39\n      swap2\n      swap1\n      tag_40\n      jump\t// in\n    tag_39:\n      tag_41\n      jump\t// in\n    tag_38:\n      mload(0x40)\n      tag_42\n      swap2\n      swap1\n      tag_43\n      jump\t// in\n    tag_42:\n      mload(0x40)\n      dup1\n      swap2\n      sub\n      swap1\n      return\n        /* \"erc721a/contracts/ERC721A.sol\":15812:16210  function approve(address to, uint256 tokenId) public payable virtual override {... */\n    tag_5:\n      tag_44\n      0x04\n      dup1\n      calldatasize\n      sub\n      dup2\n      add\n      swap1\n      tag_45\n      swap2\n      swap1\n      tag_46\n      jump\t// in\n    tag_45:\n      tag_47\n      jump\t// in\n    tag_44:\n      stop\n        /* \"erc721a/contracts/ERC721A.sol\":5894:6211  function totalSupply() public view virtual override returns (uint256) {... */\n    tag_6:\n      callvalue\n      dup1\n      iszero\n      tag_48\n      jumpi\n      0x00\n      dup1\n      revert\n    tag_48:\n      pop\n      tag_49\n      tag_50\n      jump\t// in\n    tag_49:\n      mload(0x40)\n      tag_51\n      swap2\n      swap1\n      tag_52\n      jump\t// in\n    tag_51:\n      mload(0x40)\n      dup1\n      swap2\n      sub\n      swap1\n      return\n        /* \"erc721a/contracts/ERC721A.sol\":19903:22667  function transferFrom(... */\n    tag_7:\n      tag_53\n      0x04\n      dup1\n      calldatasize\n      sub\n      dup2\n      add\n      swap1\n      tag_54\n      swap2\n      swap1\n      tag_55\n      jump\t// in\n    tag_54:\n      tag_56\n      jump\t// in\n    tag_53:\n      stop\n        /* \"erc721a/contracts/ERC721A.sol\":22758:22945  function safeTransferFrom(... */\n    tag_8:\n      tag_57\n      0x04\n      dup1\n      calldatasize\n      sub\n      dup2\n      add\n      swap1\n      tag_58\n      swap2\n      swap1\n      tag_55\n      jump\t// in\n    tag_58:\n      tag_59\n      jump\t// in\n    tag_57:\n      stop\n        /* \"Receipts.sol\":394:515  function setEditionContract(address contractAddress) public onlyOwner {... */\n    tag_9:\n      callvalue\n      dup1\n      iszero\n      tag_60\n      jumpi\n      0x00\n      dup1\n      revert\n    tag_60:\n      pop\n      tag_61\n      0x04\n      dup1\n      calldatasize\n      sub\n      dup2\n      add\n      swap1\n      tag_62\n      swap2\n      swap1\n      tag_63\n      jump\t// in\n    tag_62:\n      tag_64\n      jump\t// in\n    tag_61:\n      stop\n        /* \"Receipts.sol\":750:874  function getCanvasMessageSender() external view returns (address) {... */\n    tag_10:\n      callvalue\n      dup1\n      iszero\n      tag_65\n      jumpi\n      0x00\n      dup1\n      revert\n    tag_65:\n      pop\n      tag_66\n      tag_67\n      jump\t// in\n    tag_66:\n      mload(0x40)\n      tag_68\n      swap2\n      swap1\n      tag_43\n      jump\t// in\n    tag_68:\n      mload(0x40)\n      dup1\n      swap2\n      sub\n      swap1\n      return\n        /* \"erc721a/contracts/ERC721A.sol\":11391:11541  function ownerOf(uint256 tokenId) public view virtual override returns (address) {... */\n    tag_11:\n      callvalue\n      dup1\n      iszero\n      tag_69\n      jumpi\n      0x00\n      dup1\n      revert\n    tag_69:\n      pop\n      tag_70\n      0x04\n      dup1\n      calldatasize\n      sub\n      dup2\n      add\n      swap1\n      tag_71\n      swap2\n      swap1\n      tag_40\n      jump\t// in\n    tag_71:\n      tag_72\n      jump\t// in\n    tag_70:\n      mload(0x40)\n      tag_73\n      swap2\n      swap1\n      tag_43\n      jump\t// in\n    tag_73:\n      mload(0x40)\n      dup1\n      swap2\n      sub\n      swap1\n      return\n        /* \"erc721a/contracts/ERC721A.sol\":7045:7275  function balanceOf(address owner) public view virtual override returns (uint256) {... */\n    tag_12:\n      callvalue\n      dup1\n      iszero\n      tag_74\n      jumpi\n      0x00\n      dup1\n      revert\n    tag_74:\n      pop\n      tag_75\n      0x04\n      dup1\n      calldatasize\n      sub\n      dup2\n      add\n      swap1\n      tag_76\n      swap2\n      swap1\n      tag_63\n      jump\t// in\n    tag_76:\n      tag_77\n      jump\t// in\n    tag_75:\n      mload(0x40)\n      tag_78\n      swap2\n      swap1\n      tag_52\n      jump\t// in\n    tag_78:\n      mload(0x40)\n      dup1\n      swap2\n      sub\n      swap1\n      return\n        /* \"@openzeppelin/contracts/access/Ownable.sol\":1831:1932  function renounceOwnership() public virtual onlyOwner {... */\n    tag_13:\n      callvalue\n      dup1\n      iszero\n      tag_79\n      jumpi\n      0x00\n      dup1\n      revert\n    tag_79:\n      pop\n      tag_80\n      tag_81\n      jump\t// in\n    tag_80:\n      stop\n        /* \"Receipts.sol\":650:744  function getMessageSender() external view returns (address) {... */\n    tag_14:\n      callvalue\n      dup1\n      iszero\n      tag_82\n      jumpi\n      0x00\n      dup1\n      revert\n    tag_82:\n      pop\n      tag_83\n      tag_84\n      jump\t// in\n    tag_83:\n      mload(0x40)\n      tag_85\n      swap2\n      swap1\n      tag_43\n      jump\t// in\n    tag_85:\n      mload(0x40)\n      dup1\n      swap2\n      sub\n      swap1\n      return\n        /* \"@openzeppelin/contracts/access/Ownable.sol\":1201:1286  function owner() public view virtual returns (address) {... */\n    tag_15:\n      callvalue\n      dup1\n      iszero\n      tag_86\n      jumpi\n      0x00\n      dup1\n      revert\n    tag_86:\n      pop\n      tag_87\n      tag_88\n      jump\t// in\n    tag_87:\n      mload(0x40)\n      tag_89\n      swap2\n      swap1\n      tag_43\n      jump\t// in\n    tag_89:\n      mload(0x40)\n      dup1\n      swap2\n      sub\n      swap1\n      return\n        /* \"erc721a/contracts/ERC721A.sol\":10208:10310  function symbol() public view virtual override returns (string memory) {... */\n    tag_16:\n      callvalue\n      dup1\n      iszero\n      tag_90\n      jumpi\n      0x00\n      dup1\n      revert\n    tag_90:\n      pop\n      tag_91\n      tag_92\n      jump\t// in\n    tag_91:\n      mload(0x40)\n      tag_93\n      swap2\n      swap1\n      tag_36\n      jump\t// in\n    tag_93:\n      mload(0x40)\n      dup1\n      swap2\n      sub\n      swap1\n      return\n        /* \"erc721a/contracts/ERC721A.sol\":16901:17132  function setApprovalForAll(address operator, bool approved) public virtual override {... */\n    tag_17:\n      callvalue\n      dup1\n      iszero\n      tag_94\n      jumpi\n      0x00\n      dup1\n      revert\n    tag_94:\n      pop\n      tag_95\n      0x04\n      dup1\n      calldatasize\n      sub\n      dup2\n      add\n      swap1\n      tag_96\n      swap2\n      swap1\n      tag_97\n      jump\t// in\n    tag_96:\n      tag_98\n      jump\t// in\n    tag_95:\n      stop\n        /* \"erc721a/contracts/ERC721A.sol\":23526:23922  function safeTransferFrom(... */\n    tag_18:\n      tag_99\n      0x04\n      dup1\n      calldatasize\n      sub\n      dup2\n      add\n      swap1\n      tag_100\n      swap2\n      swap1\n      tag_101\n      jump\t// in\n    tag_100:\n      tag_102\n      jump\t// in\n    tag_99:\n      stop\n        /* \"erc721a/contracts/ERC721A.sol\":10411:10724  function tokenURI(uint256 tokenId) public view virtual override returns (string memory) {... */\n    tag_19:\n      callvalue\n      dup1\n      iszero\n      tag_103\n      jumpi\n      0x00\n      dup1\n      revert\n    tag_103:\n      pop\n      tag_104\n      0x04\n      dup1\n      calldatasize\n      sub\n      dup2\n      add\n      swap1\n      tag_105\n      swap2\n      swap1\n      tag_40\n      jump\t// in\n    tag_105:\n      tag_106\n      jump\t// in\n    tag_104:\n      mload(0x40)\n      tag_107\n      swap2\n      swap1\n      tag_36\n      jump\t// in\n    tag_107:\n      mload(0x40)\n      dup1\n      swap2\n      sub\n      swap1\n      return\n        /* \"erc721a/contracts/ERC721A.sol\":17282:17444  function isApprovedForAll(address owner, address operator) public view virtual override returns (bool) {... */\n    tag_20:\n      callvalue\n      dup1\n      iszero\n      tag_108\n      jumpi\n      0x00\n      dup1\n      revert\n    tag_108:\n      pop\n      tag_109\n      0x04\n      dup1\n      calldatasize\n      sub\n      dup2\n      add\n      swap1\n      tag_110\n      swap2\n      swap1\n      tag_111\n      jump\t// in\n    tag_110:\n      tag_112\n      jump\t// in\n    tag_109:\n      mload(0x40)\n      tag_113\n      swap2\n      swap1\n      tag_31\n      jump\t// in\n    tag_113:\n      mload(0x40)\n      dup1\n      swap2\n      sub\n      swap1\n      return\n        /* \"@openzeppelin/contracts/access/Ownable.sol\":2081:2279  function transferOwnership(address newOwner) public virtual onlyOwner {... */\n    tag_21:\n      callvalue\n      dup1\n      iszero\n      tag_114\n      jumpi\n      0x00\n      dup1\n      revert\n    tag_114:\n      pop\n      tag_115\n      0x04\n      dup1\n      calldatasize\n      sub\n      dup2\n      add\n      swap1\n      tag_116\n      swap2\n      swap1\n      tag_63\n      jump\t// in\n    tag_116:\n      tag_117\n      jump\t// in\n    tag_115:\n      stop\n        /* \"erc721a/contracts/ERC721A.sol\":9155:9785  function supportsInterface(bytes4 interfaceId) public view virtual override returns (bool) {... */\n    tag_29:\n        /* \"erc721a/contracts/ERC721A.sol\":9240:9244  bool */\n      0x00\n        /* \"erc721a/contracts/ERC721A.sol\":9573:9583  0x01ffc9a7 */\n      0x01ffc9a7\n        /* \"erc721a/contracts/ERC721A.sol\":9558:9583  interfaceId == 0x01ffc9a7 */\n      0xe0\n      shl\n        /* \"erc721a/contracts/ERC721A.sol\":9558:9569  interfaceId */\n      dup3\n        /* \"erc721a/contracts/ERC721A.sol\":9558:9583  interfaceId == 0x01ffc9a7 */\n      not(0xffffffffffffffffffffffffffffffffffffffffffffffffffffffff)\n      and\n      eq\n        /* \"erc721a/contracts/ERC721A.sol\":9558:9659  interfaceId == 0x01ffc9a7 || // ERC165 interface ID for ERC165.... */\n      dup1\n      tag_119\n      jumpi\n      pop\n        /* \"erc721a/contracts/ERC721A.sol\":9649:9659  0x80ac58cd */\n      0x80ac58cd\n        /* \"erc721a/contracts/ERC721A.sol\":9634:9659  interfaceId == 0x80ac58cd */\n      0xe0\n      shl\n        /* \"erc721a/contracts/ERC721A.sol\":9634:9645  interfaceId */\n      dup3\n        /* \"erc721a/contracts/ERC721A.sol\":9634:9659  interfaceId == 0x80ac58cd */\n      not(0xffffffffffffffffffffffffffffffffffffffffffffffffffffffff)\n      and\n      eq\n        /* \"erc721a/contracts/ERC721A.sol\":9558:9659  interfaceId == 0x01ffc9a7 || // ERC165 interface ID for ERC165.... */\n    tag_119:\n        /* \"erc721a/contracts/ERC721A.sol\":9558:9735  interfaceId == 0x01ffc9a7 || // ERC165 interface ID for ERC165.... */\n      dup1\n      tag_120\n      jumpi\n      pop\n        /* \"erc721a/contracts/ERC721A.sol\":9725:9735  0x5b5e139f */\n      0x5b5e139f\n        /* \"erc721a/contracts/ERC721A.sol\":9710:9735  interfaceId == 0x5b5e139f */\n      0xe0\n      shl\n        /* \"erc721a/contracts/ERC721A.sol\":9710:9721  interfaceId */\n      dup3\n        /* \"erc721a/contracts/ERC721A.sol\":9710:9735  interfaceId == 0x5b5e139f */\n      not(0xffffffffffffffffffffffffffffffffffffffffffffffffffffffff)\n      and\n      eq\n        /* \"erc721a/contracts/ERC721A.sol\":9558:9735  interfaceId == 0x01ffc9a7 || // ERC165 interface ID for ERC165.... */\n    tag_120:\n        /* \"erc721a/contracts/ERC721A.sol\":9539:9735  return... */\n      swap1\n      pop\n        /* \"erc721a/contracts/ERC721A.sol\":9155:9785  function supportsInterface(bytes4 interfaceId) public view virtual override returns (bool) {... */\n      swap2\n      swap1\n      pop\n      jump\t// out\n        /* \"erc721a/contracts/ERC721A.sol\":10039:10137  function name() public view virtual override returns (string memory) {... */\n    tag_34:\n        /* \"erc721a/contracts/ERC721A.sol\":10093:10106  string memory */\n      0x60\n        /* \"erc721a/contracts/ERC721A.sol\":10125:10130  _name */\n      0x02\n        /* \"erc721a/contracts/ERC721A.sol\":10118:10130  return _name */\n      dup1\n      sload\n      tag_122\n      swap1\n      tag_123\n      jump\t// in\n    tag_122:\n      dup1\n      0x1f\n      add\n      0x20\n      dup1\n      swap2\n      div\n      mul\n      0x20\n      add\n      mload(0x40)\n      swap1\n      dup2\n      add\n      0x40\n      mstore\n      dup1\n      swap3\n      swap2\n      swap1\n      dup2\n      dup2\n      mstore\n      0x20\n      add\n      dup3\n      dup1\n      sload\n      tag_124\n      swap1\n      tag_123\n      jump\t// in\n    tag_124:\n      dup1\n      iszero\n      tag_125\n      jumpi\n      dup1\n      0x1f\n      lt\n      tag_126\n      jumpi\n      0x0100\n      dup1\n      dup4\n      sload\n      div\n      mul\n      dup4\n      mstore\n      swap2\n      0x20\n      add\n      swap2\n      jump(tag_125)\n    tag_126:\n      dup3\n      add\n      swap2\n      swap1\n      0x00\n      mstore\n      keccak256(0x00, 0x20)\n      swap1\n    tag_127:\n      dup2\n      sload\n      dup2\n      mstore\n      swap1\n      0x01\n      add\n      swap1\n      0x20\n      add\n      dup1\n      dup4\n      gt\n      tag_127\n      jumpi\n      dup3\n      swap1\n      sub\n      0x1f\n      and\n      dup3\n      add\n      swap2\n    tag_125:\n      pop\n      pop\n      pop\n      pop\n      pop\n      swap1\n      pop\n        /* \"erc721a/contracts/ERC721A.sol\":10039:10137  function name() public view virtual override returns (string memory) {... */\n      swap1\n      jump\t// out\n        /* \"erc721a/contracts/ERC721A.sol\":16360:16574  function getApproved(uint256 tokenId) public view virtual override returns (address) {... */\n    tag_41:\n        /* \"erc721a/contracts/ERC721A.sol\":16436:16443  address */\n      0x00\n        /* \"erc721a/contracts/ERC721A.sol\":16460:16476  _exists(tokenId) */\n      tag_129\n        /* \"erc721a/contracts/ERC721A.sol\":16468:16475  tokenId */\n      dup3\n        /* \"erc721a/contracts/ERC721A.sol\":16460:16467  _exists */\n      tag_130\n        /* \"erc721a/contracts/ERC721A.sol\":16460:16476  _exists(tokenId) */\n      jump\t// in\n    tag_129:\n        /* \"erc721a/contracts/ERC721A.sol\":16455:16519  if (!_exists(tokenId)) revert ApprovalQueryForNonexistentToken() */\n      tag_131\n      jumpi\n        /* \"erc721a/contracts/ERC721A.sol\":16485:16519  ApprovalQueryForNonexistentToken() */\n      mload(0x40)\n      0xcf4700e400000000000000000000000000000000000000000000000000000000\n      dup2\n      mstore\n      0x04\n      add\n      mload(0x40)\n      dup1\n      swap2\n      sub\n      swap1\n      revert\n        /* \"erc721a/contracts/ERC721A.sol\":16455:16519  if (!_exists(tokenId)) revert ApprovalQueryForNonexistentToken() */\n    tag_131:\n        /* \"erc721a/contracts/ERC721A.sol\":16537:16552  _tokenApprovals */\n      0x06\n        /* \"erc721a/contracts/ERC721A.sol\":16537:16561  _tokenApprovals[tokenId] */\n      0x00\n        /* \"erc721a/contracts/ERC721A.sol\":16553:16560  tokenId */\n      dup4\n        /* \"erc721a/contracts/ERC721A.sol\":16537:16561  _tokenApprovals[tokenId] */\n      dup2\n      mstore\n      0x20\n      add\n      swap1\n      dup2\n      mstore\n      0x20\n      add\n      0x00\n      keccak256\n        /* \"erc721a/contracts/ERC721A.sol\":16537:16567  _tokenApprovals[tokenId].value */\n      0x00\n      add\n      0x00\n      swap1\n      sload\n      swap1\n      0x0100\n      exp\n      swap1\n      div\n      0xffffffffffffffffffffffffffffffffffffffff\n      and\n        /* \"erc721a/contracts/ERC721A.sol\":16530:16567  return _tokenApprovals[tokenId].value */\n      swap1\n      pop\n        /* \"erc721a/contracts/ERC721A.sol\":16360:16574  function getApproved(uint256 tokenId) public view virtual override returns (address) {... */\n      swap2\n      swap1\n      pop\n      jump\t// out\n        /* \"erc721a/contracts/ERC721A.sol\":15812:16210  function approve(address to, uint256 tokenId) public payable virtual override {... */\n    tag_47:\n        /* \"erc721a/contracts/ERC721A.sol\":15900:15913  address owner */\n      0x00\n        /* \"erc721a/contracts/ERC721A.sol\":15916:15932  ownerOf(tokenId) */\n      tag_133\n        /* \"erc721a/contracts/ERC721A.sol\":15924:15931  tokenId */\n      dup3\n        /* \"erc721a/contracts/ERC721A.sol\":15916:15923  ownerOf */\n      tag_72\n        /* \"erc721a/contracts/ERC721A.sol\":15916:15932  ownerOf(tokenId) */\n      jump\t// in\n    tag_133:\n        /* \"erc721a/contracts/ERC721A.sol\":15900:15932  address owner = ownerOf(tokenId) */\n      swap1\n      pop\n        /* \"erc721a/contracts/ERC721A.sol\":15970:15975  owner */\n      dup1\n        /* \"erc721a/contracts/ERC721A.sol\":15947:15975  _msgSenderERC721A() != owner */\n      0xffffffffffffffffffffffffffffffffffffffff\n      and\n        /* \"erc721a/contracts/ERC721A.sol\":15947:15966  _msgSenderERC721A() */\n      tag_134\n        /* \"erc721a/contracts/ERC721A.sol\":15947:15964  _msgSenderERC721A */\n      tag_135\n        /* \"erc721a/contracts/ERC721A.sol\":15947:15966  _msgSenderERC721A() */\n      jump\t// in\n    tag_134:\n        /* \"erc721a/contracts/ERC721A.sol\":15947:15975  _msgSenderERC721A() != owner */\n      0xffffffffffffffffffffffffffffffffffffffff\n      and\n      eq\n        /* \"erc721a/contracts/ERC721A.sol\":15943:16115  if (_msgSenderERC721A() != owner)... */\n      tag_136\n      jumpi\n        /* \"erc721a/contracts/ERC721A.sol\":15994:16038  isApprovedForAll(owner, _msgSenderERC721A()) */\n      tag_137\n        /* \"erc721a/contracts/ERC721A.sol\":16011:16016  owner */\n      dup2\n        /* \"erc721a/contracts/ERC721A.sol\":16018:16037  _msgSenderERC721A() */\n      tag_138\n        /* \"erc721a/contracts/ERC721A.sol\":16018:16035  _msgSenderERC721A */\n      tag_135\n        /* \"erc721a/contracts/ERC721A.sol\":16018:16037  _msgSenderERC721A() */\n      jump\t// in\n    tag_138:\n        /* \"erc721a/contracts/ERC721A.sol\":15994:16010  isApprovedForAll */\n      tag_112\n        /* \"erc721a/contracts/ERC721A.sol\":15994:16038  isApprovedForAll(owner, _msgSenderERC721A()) */\n      jump\t// in\n    tag_137:\n        /* \"erc721a/contracts/ERC721A.sol\":15989:16115  if (!isApprovedForAll(owner, _msgSenderERC721A())) {... */\n      tag_139\n      jumpi\n        /* \"erc721a/contracts/ERC721A.sol\":16065:16100  ApprovalCallerNotOwnerNorApproved() */\n      mload(0x40)\n      0xcfb3b94200000000000000000000000000000000000000000000000000000000\n      dup2\n      mstore\n      0x04\n      add\n      mload(0x40)\n      dup1\n      swap2\n      sub\n      swap1\n      revert\n        /* \"erc721a/contracts/ERC721A.sol\":15989:16115  if (!isApprovedForAll(owner, _msgSenderERC721A())) {... */\n    tag_139:\n        /* \"erc721a/contracts/ERC721A.sol\":15943:16115  if (_msgSenderERC721A() != owner)... */\n    tag_136:\n        /* \"erc721a/contracts/ERC721A.sol\":16158:16160  to */\n      dup3\n        /* \"erc721a/contracts/ERC721A.sol\":16125:16140  _tokenApprovals */\n      0x06\n        /* \"erc721a/contracts/ERC721A.sol\":16125:16149  _tokenApprovals[tokenId] */\n      0x00\n        /* \"erc721a/contracts/ERC721A.sol\":16141:16148  tokenId */\n      dup5\n        /* \"erc721a/contracts/ERC721A.sol\":16125:16149  _tokenApprovals[tokenId] */\n      dup2\n      mstore\n      0x20\n      add\n      swap1\n      dup2\n      mstore\n      0x20\n      add\n      0x00\n      keccak256\n        /* \"erc721a/contracts/ERC721A.sol\":16125:16155  _tokenApprovals[tokenId].value */\n      0x00\n      add\n      0x00\n        /* \"erc721a/contracts/ERC721A.sol\":16125:16160  _tokenApprovals[tokenId].value = to */\n      0x0100\n      exp\n      dup2\n      sload\n      dup2\n      0xffffffffffffffffffffffffffffffffffffffff\n      mul\n      not\n      and\n      swap1\n      dup4\n      0xffffffffffffffffffffffffffffffffffffffff\n      and\n      mul\n      or\n      swap1\n      sstore\n      pop\n        /* \"erc721a/contracts/ERC721A.sol\":16195:16202  tokenId */\n      dup2\n        /* \"erc721a/contracts/ERC721A.sol\":16191:16193  to */\n      dup4\n        /* \"erc721a/contracts/ERC721A.sol\":16175:16203  Approval(owner, to, tokenId) */\n      0xffffffffffffffffffffffffffffffffffffffff\n      and\n        /* \"erc721a/contracts/ERC721A.sol\":16184:16189  owner */\n      dup3\n        /* \"erc721a/contracts/ERC721A.sol\":16175:16203  Approval(owner, to, tokenId) */\n      0xffffffffffffffffffffffffffffffffffffffff\n      and\n      0x8c5be1e5ebec7d5bd14f71427d1e84f3dd0314c0f7b2291e5b200ac8c7c3b925\n      mload(0x40)\n      mload(0x40)\n      dup1\n      swap2\n      sub\n      swap1\n      log4\n        /* \"erc721a/contracts/ERC721A.sol\":15890:16210  {... */\n      pop\n        /* \"erc721a/contracts/ERC721A.sol\":15812:16210  function approve(address to, uint256 tokenId) public payable virtual override {... */\n      pop\n      pop\n      jump\t// out\n        /* \"erc721a/contracts/ERC721A.sol\":5894:6211  function totalSupply() public view virtual override returns (uint256) {... */\n    tag_50:\n        /* \"erc721a/contracts/ERC721A.sol\":5955:5962  uint256 */\n      0x00\n        /* \"erc721a/contracts/ERC721A.sol\":6179:6194  _startTokenId() */\n      tag_141\n        /* \"erc721a/contracts/ERC721A.sol\":6179:6192  _startTokenId */\n      tag_142\n        /* \"erc721a/contracts/ERC721A.sol\":6179:6194  _startTokenId() */\n      jump\t// in\n    tag_141:\n        /* \"erc721a/contracts/ERC721A.sol\":6164:6176  _burnCounter */\n      sload(0x01)\n        /* \"erc721a/contracts/ERC721A.sol\":6148:6161  _currentIndex */\n      sload(0x00)\n        /* \"erc721a/contracts/ERC721A.sol\":6148:6176  _currentIndex - _burnCounter */\n      sub\n        /* \"erc721a/contracts/ERC721A.sol\":6148:6194  _currentIndex - _burnCounter - _startTokenId() */\n      sub\n        /* \"erc721a/contracts/ERC721A.sol\":6141:6194  return _currentIndex - _burnCounter - _startTokenId() */\n      swap1\n      pop\n        /* \"erc721a/contracts/ERC721A.sol\":5894:6211  function totalSupply() public view virtual override returns (uint256) {... */\n      swap1\n      jump\t// out\n        /* \"erc721a/contracts/ERC721A.sol\":19903:22667  function transferFrom(... */\n    tag_56:\n        /* \"erc721a/contracts/ERC721A.sol\":20040:20067  uint256 prevOwnershipPacked */\n      0x00\n        /* \"erc721a/contracts/ERC721A.sol\":20070:20097  _packedOwnershipOf(tokenId) */\n      tag_144\n        /* \"erc721a/contracts/ERC721A.sol\":20089:20096  tokenId */\n      dup3\n        /* \"erc721a/contracts/ERC721A.sol\":20070:20088  _packedOwnershipOf */\n      tag_145\n        /* \"erc721a/contracts/ERC721A.sol\":20070:20097  _packedOwnershipOf(tokenId) */\n      jump\t// in\n    tag_144:\n        /* \"erc721a/contracts/ERC721A.sol\":20040:20097  uint256 prevOwnershipPacked = _packedOwnershipOf(tokenId) */\n      swap1\n      pop\n        /* \"erc721a/contracts/ERC721A.sol\":20153:20157  from */\n      dup4\n        /* \"erc721a/contracts/ERC721A.sol\":20112:20157  address(uint160(prevOwnershipPacked)) != from */\n      0xffffffffffffffffffffffffffffffffffffffff\n      and\n        /* \"erc721a/contracts/ERC721A.sol\":20128:20147  prevOwnershipPacked */\n      dup2\n        /* \"erc721a/contracts/ERC721A.sol\":20112:20157  address(uint160(prevOwnershipPacked)) != from */\n      0xffffffffffffffffffffffffffffffffffffffff\n      and\n      eq\n        /* \"erc721a/contracts/ERC721A.sol\":20108:20194  if (address(uint160(prevOwnershipPacked)) != from) revert TransferFromIncorrectOwner() */\n      tag_146\n      jumpi\n        /* \"erc721a/contracts/ERC721A.sol\":20166:20194  TransferFromIncorrectOwner() */\n      mload(0x40)\n      0xa114810000000000000000000000000000000000000000000000000000000000\n      dup2\n      mstore\n      0x04\n      add\n      mload(0x40)\n      dup1\n      swap2\n      sub\n      swap1\n      revert\n        /* \"erc721a/contracts/ERC721A.sol\":20108:20194  if (address(uint160(prevOwnershipPacked)) != from) revert TransferFromIncorrectOwner() */\n    tag_146:\n        /* \"erc721a/contracts/ERC721A.sol\":20206:20233  uint256 approvedAddressSlot */\n      0x00\n        /* \"erc721a/contracts/ERC721A.sol\":20235:20258  address approvedAddress */\n      dup1\n        /* \"erc721a/contracts/ERC721A.sol\":20262:20297  _getApprovedSlotAndAddress(tokenId) */\n      tag_147\n        /* \"erc721a/contracts/ERC721A.sol\":20289:20296  tokenId */\n      dup5\n        /* \"erc721a/contracts/ERC721A.sol\":20262:20288  _getApprovedSlotAndAddress */\n      tag_148\n        /* \"erc721a/contracts/ERC721A.sol\":20262:20297  _getApprovedSlotAndAddress(tokenId) */\n      jump\t// in\n    tag_147:\n        /* \"erc721a/contracts/ERC721A.sol\":20205:20297  (uint256 approvedAddressSlot, address approvedAddress) = _getApprovedSlotAndAddress(tokenId) */\n      swap2\n      pop\n      swap2\n      pop\n        /* \"erc721a/contracts/ERC721A.sol\":20394:20462  _isSenderApprovedOrOwner(approvedAddress, from, _msgSenderERC721A()) */\n      tag_149\n        /* \"erc721a/contracts/ERC721A.sol\":20419:20434  approvedAddress */\n      dup2\n        /* \"erc721a/contracts/ERC721A.sol\":20436:20440  from */\n      dup8\n        /* \"erc721a/contracts/ERC721A.sol\":20442:20461  _msgSenderERC721A() */\n      tag_150\n        /* \"erc721a/contracts/ERC721A.sol\":20442:20459  _msgSenderERC721A */\n      tag_135\n        /* \"erc721a/contracts/ERC721A.sol\":20442:20461  _msgSenderERC721A() */\n      jump\t// in\n    tag_150:\n        /* \"erc721a/contracts/ERC721A.sol\":20394:20418  _isSenderApprovedOrOwner */\n      tag_151\n        /* \"erc721a/contracts/ERC721A.sol\":20394:20462  _isSenderApprovedOrOwner(approvedAddress, from, _msgSenderERC721A()) */\n      jump\t// in\n    tag_149:\n        /* \"erc721a/contracts/ERC721A.sol\":20389:20568  if (!_isSenderApprovedOrOwner(approvedAddress, from, _msgSenderERC721A()))... */\n      tag_152\n      jumpi\n        /* \"erc721a/contracts/ERC721A.sol\":20481:20524  isApprovedForAll(from, _msgSenderERC721A()) */\n      tag_153\n        /* \"erc721a/contracts/ERC721A.sol\":20498:20502  from */\n      dup7\n        /* \"erc721a/contracts/ERC721A.sol\":20504:20523  _msgSenderERC721A() */\n      tag_154\n        /* \"erc721a/contracts/ERC721A.sol\":20504:20521  _msgSenderERC721A */\n      tag_135\n        /* \"erc721a/contracts/ERC721A.sol\":20504:20523  _msgSenderERC721A() */\n      jump\t// in\n    tag_154:\n        /* \"erc721a/contracts/ERC721A.sol\":20481:20497  isApprovedForAll */\n      tag_112\n        /* \"erc721a/contracts/ERC721A.sol\":20481:20524  isApprovedForAll(from, _msgSenderERC721A()) */\n      jump\t// in\n    tag_153:\n        /* \"erc721a/contracts/ERC721A.sol\":20476:20568  if (!isApprovedForAll(from, _msgSenderERC721A())) revert TransferCallerNotOwnerNorApproved() */\n      tag_155\n      jumpi\n        /* \"erc721a/contracts/ERC721A.sol\":20533:20568  TransferCallerNotOwnerNorApproved() */\n      mload(0x40)\n      0x59c896be00000000000000000000000000000000000000000000000000000000\n      dup2\n      mstore\n      0x04\n      add\n      mload(0x40)\n      dup1\n      swap2\n      sub\n      swap1\n      revert\n        /* \"erc721a/contracts/ERC721A.sol\":20476:20568  if (!isApprovedForAll(from, _msgSenderERC721A())) revert TransferCallerNotOwnerNorApproved() */\n    tag_155:\n        /* \"erc721a/contracts/ERC721A.sol\":20389:20568  if (!_isSenderApprovedOrOwner(approvedAddress, from, _msgSenderERC721A()))... */\n    tag_152:\n        /* \"erc721a/contracts/ERC721A.sol\":20597:20598  0 */\n      0x00\n        /* \"erc721a/contracts/ERC721A.sol\":20583:20599  to == address(0) */\n      0xffffffffffffffffffffffffffffffffffffffff\n      and\n        /* \"erc721a/contracts/ERC721A.sol\":20583:20585  to */\n      dup6\n        /* \"erc721a/contracts/ERC721A.sol\":20583:20599  to == address(0) */\n      0xffffffffffffffffffffffffffffffffffffffff\n      and\n      sub\n        /* \"erc721a/contracts/ERC721A.sol\":20579:20631  if (to == address(0)) revert TransferToZeroAddress() */\n      tag_156\n      jumpi\n        /* \"erc721a/contracts/ERC721A.sol\":20608:20631  TransferToZeroAddress() */\n      mload(0x40)\n      0xea553b3400000000000000000000000000000000000000000000000000000000\n      dup2\n      mstore\n      0x04\n      add\n      mload(0x40)\n      dup1\n      swap2\n      sub\n      swap1\n      revert\n        /* \"erc721a/contracts/ERC721A.sol\":20579:20631  if (to == address(0)) revert TransferToZeroAddress() */\n    tag_156:\n        /* \"erc721a/contracts/ERC721A.sol\":20642:20685  _beforeTokenTransfers(from, to, tokenId, 1) */\n      tag_157\n        /* \"erc721a/contracts/ERC721A.sol\":20664:20668  from */\n      dup7\n        /* \"erc721a/contracts/ERC721A.sol\":20670:20672  to */\n      dup7\n        /* \"erc721a/contracts/ERC721A.sol\":20674:20681  tokenId */\n      dup7\n        /* \"erc721a/contracts/ERC721A.sol\":20683:20684  1 */\n      0x01\n        /* \"erc721a/contracts/ERC721A.sol\":20642:20663  _beforeTokenTransfers */\n      tag_158\n        /* \"erc721a/contracts/ERC721A.sol\":20642:20685  _beforeTokenTransfers(from, to, tokenId, 1) */\n      jump\t// in\n    tag_157:\n        /* \"erc721a/contracts/ERC721A.sol\":20774:20789  approvedAddress */\n      dup1\n        /* \"erc721a/contracts/ERC721A.sol\":20771:20928  if approvedAddress {... */\n      iszero\n      tag_159\n      jumpi\n        /* \"erc721a/contracts/ERC721A.sol\":20912:20913  0 */\n      0x00\n        /* \"erc721a/contracts/ERC721A.sol\":20891:20910  approvedAddressSlot */\n      dup3\n        /* \"erc721a/contracts/ERC721A.sol\":20884:20914  sstore(approvedAddressSlot, 0) */\n      sstore\n        /* \"erc721a/contracts/ERC721A.sol\":20771:20928  if approvedAddress {... */\n    tag_159:\n        /* \"erc721a/contracts/ERC721A.sol\":21300:21318  _packedAddressData */\n      0x05\n        /* \"erc721a/contracts/ERC721A.sol\":21300:21324  _packedAddressData[from] */\n      0x00\n        /* \"erc721a/contracts/ERC721A.sol\":21319:21323  from */\n      dup8\n        /* \"erc721a/contracts/ERC721A.sol\":21300:21324  _packedAddressData[from] */\n      0xffffffffffffffffffffffffffffffffffffffff\n      and\n      0xffffffffffffffffffffffffffffffffffffffff\n      and\n      dup2\n      mstore\n      0x20\n      add\n      swap1\n      dup2\n      mstore\n      0x20\n      add\n      0x00\n      keccak256\n      0x00\n        /* \"erc721a/contracts/ERC721A.sol\":21298:21324  --_packedAddressData[from] */\n      dup2\n      sload\n      0x01\n      swap1\n      sub\n      swap2\n      swap1\n      pop\n      dup2\n      swap1\n      sstore\n      pop\n        /* \"erc721a/contracts/ERC721A.sol\":21368:21386  _packedAddressData */\n      0x05\n        /* \"erc721a/contracts/ERC721A.sol\":21368:21390  _packedAddressData[to] */\n      0x00\n        /* \"erc721a/contracts/ERC721A.sol\":21387:21389  to */\n      dup7\n        /* \"erc721a/contracts/ERC721A.sol\":21368:21390  _packedAddressData[to] */\n      0xffffffffffffffffffffffffffffffffffffffff\n      and\n      0xffffffffffffffffffffffffffffffffffffffff\n      and\n      dup2\n      mstore\n      0x20\n      add\n      swap1\n      dup2\n      mstore\n      0x20\n      add\n      0x00\n      keccak256\n      0x00\n        /* \"erc721a/contracts/ERC721A.sol\":21366:21390  ++_packedAddressData[to] */\n      dup2\n      sload\n      0x01\n      add\n      swap2\n      swap1\n      pop\n      dup2\n      swap1\n      sstore\n      pop\n        /* \"erc721a/contracts/ERC721A.sol\":21683:21826  _packOwnershipData(... */\n      tag_160\n        /* \"erc721a/contracts/ERC721A.sol\":21719:21721  to */\n      dup6\n        /* \"erc721a/contracts/ERC721A.sol\":21767:21812  _nextExtraData(from, to, prevOwnershipPacked) */\n      tag_161\n        /* \"erc721a/contracts/ERC721A.sol\":21782:21786  from */\n      dup9\n        /* \"erc721a/contracts/ERC721A.sol\":21788:21790  to */\n      dup9\n        /* \"erc721a/contracts/ERC721A.sol\":21792:21811  prevOwnershipPacked */\n      dup8\n        /* \"erc721a/contracts/ERC721A.sol\":21767:21781  _nextExtraData */\n      tag_162\n        /* \"erc721a/contracts/ERC721A.sol\":21767:21812  _nextExtraData(from, to, prevOwnershipPacked) */\n      jump\t// in\n    tag_161:\n        /* \"erc721a/contracts/ERC721A.sol\":2392:2400  1 << 225 */\n      0x0200000000000000000000000000000000000000000000000000000000\n        /* \"erc721a/contracts/ERC721A.sol\":21739:21812  _BITMASK_NEXT_INITIALIZED | _nextExtraData(from, to, prevOwnershipPacked) */\n      or\n        /* \"erc721a/contracts/ERC721A.sol\":21683:21701  _packOwnershipData */\n      tag_163\n        /* \"erc721a/contracts/ERC721A.sol\":21683:21826  _packOwnershipData(... */\n      jump\t// in\n    tag_160:\n        /* \"erc721a/contracts/ERC721A.sol\":21654:21671  _packedOwnerships */\n      0x04\n        /* \"erc721a/contracts/ERC721A.sol\":21654:21680  _packedOwnerships[tokenId] */\n      0x00\n        /* \"erc721a/contracts/ERC721A.sol\":21672:21679  tokenId */\n      dup7\n        /* \"erc721a/contracts/ERC721A.sol\":21654:21680  _packedOwnerships[tokenId] */\n      dup2\n      mstore\n      0x20\n      add\n      swap1\n      dup2\n      mstore\n      0x20\n      add\n      0x00\n      keccak256\n        /* \"erc721a/contracts/ERC721A.sol\":21654:21826  _packedOwnerships[tokenId] = _packOwnershipData(... */\n      dup2\n      swap1\n      sstore\n      pop\n        /* \"erc721a/contracts/ERC721A.sol\":21994:21995  0 */\n      0x00\n        /* \"erc721a/contracts/ERC721A.sol\":2392:2400  1 << 225 */\n      0x0200000000000000000000000000000000000000000000000000000000\n        /* \"erc721a/contracts/ERC721A.sol\":21943:21962  prevOwnershipPacked */\n      dup5\n        /* \"erc721a/contracts/ERC721A.sol\":21943:21990  prevOwnershipPacked & _BITMASK_NEXT_INITIALIZED */\n      and\n        /* \"erc721a/contracts/ERC721A.sol\":21943:21995  prevOwnershipPacked & _BITMASK_NEXT_INITIALIZED == 0 */\n      sub\n        /* \"erc721a/contracts/ERC721A.sol\":21939:22556  if (prevOwnershipPacked & _BITMASK_NEXT_INITIALIZED == 0) {... */\n      tag_164\n      jumpi\n        /* \"erc721a/contracts/ERC721A.sol\":22015:22034  uint256 nextTokenId */\n      0x00\n        /* \"erc721a/contracts/ERC721A.sol\":22047:22048  1 */\n      0x01\n        /* \"erc721a/contracts/ERC721A.sol\":22037:22044  tokenId */\n      dup6\n        /* \"erc721a/contracts/ERC721A.sol\":22037:22048  tokenId + 1 */\n      add\n        /* \"erc721a/contracts/ERC721A.sol\":22015:22048  uint256 nextTokenId = tokenId + 1 */\n      swap1\n      pop\n        /* \"erc721a/contracts/ERC721A.sol\":22202:22203  0 */\n      0x00\n        /* \"erc721a/contracts/ERC721A.sol\":22168:22185  _packedOwnerships */\n      0x04\n        /* \"erc721a/contracts/ERC721A.sol\":22168:22198  _packedOwnerships[nextTokenId] */\n      0x00\n        /* \"erc721a/contracts/ERC721A.sol\":22186:22197  nextTokenId */\n      dup4\n        /* \"erc721a/contracts/ERC721A.sol\":22168:22198  _packedOwnerships[nextTokenId] */\n      dup2\n      mstore\n      0x20\n      add\n      swap1\n      dup2\n      mstore\n      0x20\n      add\n      0x00\n      keccak256\n      sload\n        /* \"erc721a/contracts/ERC721A.sol\":22168:22203  _packedOwnerships[nextTokenId] == 0 */\n      sub\n        /* \"erc721a/contracts/ERC721A.sol\":22164:22542  if (_packedOwnerships[nextTokenId] == 0) {... */\n      tag_165\n      jumpi\n        /* \"erc721a/contracts/ERC721A.sol\":22304:22317  _currentIndex */\n      sload(0x00)\n        /* \"erc721a/contracts/ERC721A.sol\":22289:22300  nextTokenId */\n      dup2\n        /* \"erc721a/contracts/ERC721A.sol\":22289:22317  nextTokenId != _currentIndex */\n      eq\n        /* \"erc721a/contracts/ERC721A.sol\":22285:22524  if (nextTokenId != _currentIndex) {... */\n      tag_166\n      jumpi\n        /* \"erc721a/contracts/ERC721A.sol\":22482:22501  prevOwnershipPacked */\n      dup4\n        /* \"erc721a/contracts/ERC721A.sol\":22449:22466  _packedOwnerships */\n      0x04\n        /* \"erc721a/contracts/ERC721A.sol\":22449:22479  _packedOwnerships[nextTokenId] */\n      0x00\n        /* \"erc721a/contracts/ERC721A.sol\":22467:22478  nextTokenId */\n      dup4\n        /* \"erc721a/contracts/ERC721A.sol\":22449:22479  _packedOwnerships[nextTokenId] */\n      dup2\n      mstore\n      0x20\n      add\n      swap1\n      dup2\n      mstore\n      0x20\n      add\n      0x00\n      keccak256\n        /* \"erc721a/contracts/ERC721A.sol\":22449:22501  _packedOwnerships[nextTokenId] = prevOwnershipPacked */\n      dup2\n      swap1\n      sstore\n      pop\n        /* \"erc721a/contracts/ERC721A.sol\":22285:22524  if (nextTokenId != _currentIndex) {... */\n    tag_166:\n        /* \"erc721a/contracts/ERC721A.sol\":22164:22542  if (_packedOwnerships[nextTokenId] == 0) {... */\n    tag_165:\n        /* \"erc721a/contracts/ERC721A.sol\":21997:22556  {... */\n      pop\n        /* \"erc721a/contracts/ERC721A.sol\":21939:22556  if (prevOwnershipPacked & _BITMASK_NEXT_INITIALIZED == 0) {... */\n    tag_164:\n        /* \"erc721a/contracts/ERC721A.sol\":22600:22607  tokenId */\n      dup4\n        /* \"erc721a/contracts/ERC721A.sol\":22596:22598  to */\n      dup6\n        /* \"erc721a/contracts/ERC721A.sol\":22581:22608  Transfer(from, to, tokenId) */\n      0xffffffffffffffffffffffffffffffffffffffff\n      and\n        /* \"erc721a/contracts/ERC721A.sol\":22590:22594  from */\n      dup8\n        /* \"erc721a/contracts/ERC721A.sol\":22581:22608  Transfer(from, to, tokenId) */\n      0xffffffffffffffffffffffffffffffffffffffff\n      and\n      0xddf252ad1be2c89b69c2b068fc378daa952ba7f163c4a11628f55a4df523b3ef\n      mload(0x40)\n      mload(0x40)\n      dup1\n      swap2\n      sub\n      swap1\n      log4\n        /* \"erc721a/contracts/ERC721A.sol\":22618:22660  _afterTokenTransfers(from, to, tokenId, 1) */\n      tag_167\n        /* \"erc721a/contracts/ERC721A.sol\":22639:22643  from */\n      dup7\n        /* \"erc721a/contracts/ERC721A.sol\":22645:22647  to */\n      dup7\n        /* \"erc721a/contracts/ERC721A.sol\":22649:22656  tokenId */\n      dup7\n        /* \"erc721a/contracts/ERC721A.sol\":22658:22659  1 */\n      0x01\n        /* \"erc721a/contracts/ERC721A.sol\":22618:22638  _afterTokenTransfers */\n      tag_168\n        /* \"erc721a/contracts/ERC721A.sol\":22618:22660  _afterTokenTransfers(from, to, tokenId, 1) */\n      jump\t// in\n    tag_167:\n        /* \"erc721a/contracts/ERC721A.sol\":20030:22667  {... */\n      pop\n      pop\n      pop\n        /* \"erc721a/contracts/ERC721A.sol\":19903:22667  function transferFrom(... */\n      pop\n      pop\n      pop\n      jump\t// out\n        /* \"erc721a/contracts/ERC721A.sol\":22758:22945  function safeTransferFrom(... */\n    tag_59:\n        /* \"erc721a/contracts/ERC721A.sol\":22899:22938  safeTransferFrom(from, to, tokenId, '') */\n      tag_170\n        /* \"erc721a/contracts/ERC721A.sol\":22916:22920  from */\n      dup4\n        /* \"erc721a/contracts/ERC721A.sol\":22922:22924  to */\n      dup4\n        /* \"erc721a/contracts/ERC721A.sol\":22926:22933  tokenId */\n      dup4\n        /* \"erc721a/contracts/ERC721A.sol\":22899:22938  safeTransferFrom(from, to, tokenId, '') */\n      mload(0x40)\n      dup1\n      0x20\n      add\n      0x40\n      mstore\n      dup1\n      0x00\n      dup2\n      mstore\n      pop\n        /* \"erc721a/contracts/ERC721A.sol\":22899:22915  safeTransferFrom */\n      tag_102\n        /* \"erc721a/contracts/ERC721A.sol\":22899:22938  safeTransferFrom(from, to, tokenId, '') */\n      jump\t// in\n    tag_170:\n        /* \"erc721a/contracts/ERC721A.sol\":22758:22945  function safeTransferFrom(... */\n      pop\n      pop\n      pop\n      jump\t// out\n        /* \"Receipts.sol\":394:515  function setEditionContract(address contractAddress) public onlyOwner {... */\n    tag_64:\n        /* \"@openzeppelin/contracts/access/Ownable.sol\":1094:1107  _checkOwner() */\n      tag_172\n        /* \"@openzeppelin/contracts/access/Ownable.sol\":1094:1105  _checkOwner */\n      tag_173\n        /* \"@openzeppelin/contracts/access/Ownable.sol\":1094:1107  _checkOwner() */\n      jump\t// in\n    tag_172:\n        /* \"Receipts.sol\":493:508  contractAddress */\n      dup1\n        /* \"Receipts.sol\":474:490  _editionContract */\n      0x09\n      0x00\n        /* \"Receipts.sol\":474:508  _editionContract = contractAddress */\n      0x0100\n      exp\n      dup2\n      sload\n      dup2\n      0xffffffffffffffffffffffffffffffffffffffff\n      mul\n      not\n      and\n      swap1\n      dup4\n      0xffffffffffffffffffffffffffffffffffffffff\n      and\n      mul\n      or\n      swap1\n      sstore\n      pop\n        /* \"Receipts.sol\":394:515  function setEditionContract(address contractAddress) public onlyOwner {... */\n      pop\n      jump\t// out\n        /* \"Receipts.sol\":750:874  function getCanvasMessageSender() external view returns (address) {... */\n    tag_67:\n        /* \"Receipts.sol\":807:814  address */\n      0x00\n        /* \"Receipts.sol\":833:848  _canvasContract */\n      0x0b\n      0x00\n      swap1\n      sload\n      swap1\n      0x0100\n      exp\n      swap1\n      div\n      0xffffffffffffffffffffffffffffffffffffffff\n      and\n        /* \"Receipts.sol\":833:865  _canvasContract.getMessageSender */\n      0xffffffffffffffffffffffffffffffffffffffff\n      and\n      0x76167a89\n        /* \"Receipts.sol\":833:867  _canvasContract.getMessageSender() */\n      mload(0x40)\n      dup2\n      0xffffffff\n      and\n      0xe0\n      shl\n      dup2\n      mstore\n      0x04\n      add\n      0x20\n      mload(0x40)\n      dup1\n      dup4\n      sub\n      dup2\n      dup7\n      gas\n      staticcall\n      iszero\n      dup1\n      iszero\n      tag_177\n      jumpi\n      returndatasize\n      0x00\n      dup1\n      returndatacopy\n      revert(0x00, returndatasize)\n    tag_177:\n      pop\n      pop\n      pop\n      pop\n      mload(0x40)\n      returndatasize\n      not(0x1f)\n      0x1f\n      dup3\n      add\n      and\n      dup3\n      add\n      dup1\n      0x40\n      mstore\n      pop\n      dup2\n      add\n      swap1\n      tag_178\n      swap2\n      swap1\n      tag_179\n      jump\t// in\n    tag_178:\n        /* \"Receipts.sol\":826:867  return _canvasContract.getMessageSender() */\n      swap1\n      pop\n        /* \"Receipts.sol\":750:874  function getCanvasMessageSender() external view returns (address) {... */\n      swap1\n      jump\t// out\n        /* \"erc721a/contracts/ERC721A.sol\":11391:11541  function ownerOf(uint256 tokenId) public view virtual override returns (address) {... */\n    tag_72:\n        /* \"erc721a/contracts/ERC721A.sol\":11463:11470  address */\n      0x00\n        /* \"erc721a/contracts/ERC721A.sol\":11505:11532  _packedOwnershipOf(tokenId) */\n      tag_181\n        /* \"erc721a/contracts/ERC721A.sol\":11524:11531  tokenId */\n      dup3\n        /* \"erc721a/contracts/ERC721A.sol\":11505:11523  _packedOwnershipOf */\n      tag_145\n        /* \"erc721a/contracts/ERC721A.sol\":11505:11532  _packedOwnershipOf(tokenId) */\n      jump\t// in\n    tag_181:\n        /* \"erc721a/contracts/ERC721A.sol\":11482:11534  return address(uint160(_packedOwnershipOf(tokenId))) */\n      swap1\n      pop\n        /* \"erc721a/contracts/ERC721A.sol\":11391:11541  function ownerOf(uint256 tokenId) public view virtual override returns (address) {... */\n      swap2\n      swap1\n      pop\n      jump\t// out\n        /* \"erc721a/contracts/ERC721A.sol\":7045:7275  function balanceOf(address owner) public view virtual override returns (uint256) {... */\n    tag_77:\n        /* \"erc721a/contracts/ERC721A.sol\":7117:7124  uint256 */\n      0x00\n        /* \"erc721a/contracts/ERC721A.sol\":7157:7158  0 */\n      dup1\n        /* \"erc721a/contracts/ERC721A.sol\":7140:7159  owner == address(0) */\n      0xffffffffffffffffffffffffffffffffffffffff\n      and\n        /* \"erc721a/contracts/ERC721A.sol\":7140:7145  owner */\n      dup3\n        /* \"erc721a/contracts/ERC721A.sol\":7140:7159  owner == address(0) */\n      0xffffffffffffffffffffffffffffffffffffffff\n      and\n      sub\n        /* \"erc721a/contracts/ERC721A.sol\":7136:7196  if (owner == address(0)) revert BalanceQueryForZeroAddress() */\n      tag_183\n      jumpi\n        /* \"erc721a/contracts/ERC721A.sol\":7168:7196  BalanceQueryForZeroAddress() */\n      mload(0x40)\n      0x8f4eb60400000000000000000000000000000000000000000000000000000000\n      dup2\n      mstore\n      0x04\n      add\n      mload(0x40)\n      dup1\n      swap2\n      sub\n      swap1\n      revert\n        /* \"erc721a/contracts/ERC721A.sol\":7136:7196  if (owner == address(0)) revert BalanceQueryForZeroAddress() */\n    tag_183:\n        /* \"erc721a/contracts/ERC721A.sol\":1360:1373  (1 << 64) - 1 */\n      0xffffffffffffffff\n        /* \"erc721a/contracts/ERC721A.sol\":7213:7231  _packedAddressData */\n      0x05\n        /* \"erc721a/contracts/ERC721A.sol\":7213:7238  _packedAddressData[owner] */\n      0x00\n        /* \"erc721a/contracts/ERC721A.sol\":7232:7237  owner */\n      dup5\n        /* \"erc721a/contracts/ERC721A.sol\":7213:7238  _packedAddressData[owner] */\n      0xffffffffffffffffffffffffffffffffffffffff\n      and\n      0xffffffffffffffffffffffffffffffffffffffff\n      and\n      dup2\n      mstore\n      0x20\n      add\n      swap1\n      dup2\n      mstore\n      0x20\n      add\n      0x00\n      keccak256\n      sload\n        /* \"erc721a/contracts/ERC721A.sol\":7213:7268  _packedAddressData[owner] & _BITMASK_ADDRESS_DATA_ENTRY */\n      and\n        /* \"erc721a/contracts/ERC721A.sol\":7206:7268  return _packedAddressData[owner] & _BITMASK_ADDRESS_DATA_ENTRY */\n      swap1\n      pop\n        /* \"erc721a/contracts/ERC721A.sol\":7045:7275  function balanceOf(address owner) public view virtual override returns (uint256) {... */\n      swap2\n      swap1\n      pop\n      jump\t// out\n        /* \"@openzeppelin/contracts/access/Ownable.sol\":1831:1932  function renounceOwnership() public virtual onlyOwner {... */\n    tag_81:\n        /* \"@openzeppelin/contracts/access/Ownable.sol\":1094:1107  _checkOwner() */\n      tag_185\n        /* \"@openzeppelin/contracts/access/Ownable.sol\":1094:1105  _checkOwner */\n      tag_173\n        /* \"@openzeppelin/contracts/access/Ownable.sol\":1094:1107  _checkOwner() */\n      jump\t// in\n    tag_185:\n        /* \"@openzeppelin/contracts/access/Ownable.sol\":1895:1925  _transferOwnership(address(0)) */\n      tag_187\n        /* \"@openzeppelin/contracts/access/Ownable.sol\":1922:1923  0 */\n      0x00\n        /* \"@openzeppelin/contracts/access/Ownable.sol\":1895:1913  _transferOwnership */\n      tag_188\n        /* \"@openzeppelin/contracts/access/Ownable.sol\":1895:1925  _transferOwnership(address(0)) */\n      jump\t// in\n    tag_187:\n        /* \"@openzeppelin/contracts/access/Ownable.sol\":1831:1932  function renounceOwnership() public virtual onlyOwner {... */\n      jump\t// out\n        /* \"Receipts.sol\":650:744  function getMessageSender() external view returns (address) {... */\n    tag_84:\n        /* \"Receipts.sol\":701:708  address */\n      0x00\n        /* \"Receipts.sol\":727:737  msg.sender */\n      caller\n        /* \"Receipts.sol\":720:737  return msg.sender */\n      swap1\n      pop\n        /* \"Receipts.sol\":650:744  function getMessageSender() external view returns (address) {... */\n      swap1\n      jump\t// out\n        /* \"@openzeppelin/contracts/access/Ownable.sol\":1201:1286  function owner() public view virtual returns (address) {... */\n    tag_88:\n        /* \"@openzeppelin/contracts/access/Ownable.sol\":1247:1254  address */\n      0x00\n        /* \"@openzeppelin/contracts/access/Ownable.sol\":1273:1279  _owner */\n      0x08\n      0x00\n      swap1\n      sload\n      swap1\n      0x0100\n      exp\n      swap1\n      div\n      0xffffffffffffffffffffffffffffffffffffffff\n      and\n        /* \"@openzeppelin/contracts/access/Ownable.sol\":1266:1279  return _owner */\n      swap1\n      pop\n        /* \"@openzeppelin/contracts/access/Ownable.sol\":1201:1286  function owner() public view virtual returns (address) {... */\n      swap1\n      jump\t// out\n        /* \"erc721a/contracts/ERC721A.sol\":10208:10310  function symbol() public view virtual override returns (string memory) {... */\n    tag_92:\n        /* \"erc721a/contracts/ERC721A.sol\":10264:10277  string memory */\n      0x60\n        /* \"erc721a/contracts/ERC721A.sol\":10296:10303  _symbol */\n      0x03\n        /* \"erc721a/contracts/ERC721A.sol\":10289:10303  return _symbol */\n      dup1\n      sload\n      tag_192\n      swap1\n      tag_123\n      jump\t// in\n    tag_192:\n      dup1\n      0x1f\n      add\n      0x20\n      dup1\n      swap2\n      div\n      mul\n      0x20\n      add\n      mload(0x40)\n      swap1\n      dup2\n      add\n      0x40\n      mstore\n      dup1\n      swap3\n      swap2\n      swap1\n      dup2\n      dup2\n      mstore\n      0x20\n      add\n      dup3\n      dup1\n      sload\n      tag_193\n      swap1\n      tag_123\n      jump\t// in\n    tag_193:\n      dup1\n      iszero\n      tag_194\n      jumpi\n      dup1\n      0x1f\n      lt\n      tag_195\n      jumpi\n      0x0100\n      dup1\n      dup4\n      sload\n      div\n      mul\n      dup4\n      mstore\n      swap2\n      0x20\n      add\n      swap2\n      jump(tag_194)\n    tag_195:\n      dup3\n      add\n      swap2\n      swap1\n      0x00\n      mstore\n      keccak256(0x00, 0x20)\n      swap1\n    tag_196:\n      dup2\n      sload\n      dup2\n      mstore\n      swap1\n      0x01\n      add\n      swap1\n      0x20\n      add\n      dup1\n      dup4\n      gt\n      tag_196\n      jumpi\n      dup3\n      swap1\n      sub\n      0x1f\n      and\n      dup3\n      add\n      swap2\n    tag_194:\n      pop\n      pop\n      pop\n      pop\n      pop\n      swap1\n      pop\n        /* \"erc721a/contracts/ERC721A.sol\":10208:10310  function symbol() public view virtual override returns (string memory) {... */\n      swap1\n      jump\t// out\n        /* \"erc721a/contracts/ERC721A.sol\":16901:17132  function setApprovalForAll(address operator, bool approved) public virtual override {... */\n    tag_98:\n        /* \"erc721a/contracts/ERC721A.sol\":17047:17055  approved */\n      dup1\n        /* \"erc721a/contracts/ERC721A.sol\":16995:17013  _operatorApprovals */\n      0x07\n        /* \"erc721a/contracts/ERC721A.sol\":16995:17034  _operatorApprovals[_msgSenderERC721A()] */\n      0x00\n        /* \"erc721a/contracts/ERC721A.sol\":17014:17033  _msgSenderERC721A() */\n      tag_198\n        /* \"erc721a/contracts/ERC721A.sol\":17014:17031  _msgSenderERC721A */\n      tag_135\n        /* \"erc721a/contracts/ERC721A.sol\":17014:17033  _msgSenderERC721A() */\n      jump\t// in\n    tag_198:\n        /* \"erc721a/contracts/ERC721A.sol\":16995:17034  _operatorApprovals[_msgSenderERC721A()] */\n      0xffffffffffffffffffffffffffffffffffffffff\n      and\n      0xffffffffffffffffffffffffffffffffffffffff\n      and\n      dup2\n      mstore\n      0x20\n      add\n      swap1\n      dup2\n      mstore\n      0x20\n      add\n      0x00\n      keccak256\n        /* \"erc721a/contracts/ERC721A.sol\":16995:17044  _operatorApprovals[_msgSenderERC721A()][operator] */\n      0x00\n        /* \"erc721a/contracts/ERC721A.sol\":17035:17043  operator */\n      dup5\n        /* \"erc721a/contracts/ERC721A.sol\":16995:17044  _operatorApprovals[_msgSenderERC721A()][operator] */\n      0xffffffffffffffffffffffffffffffffffffffff\n      and\n      0xffffffffffffffffffffffffffffffffffffffff\n      and\n      dup2\n      mstore\n      0x20\n      add\n      swap1\n      dup2\n      mstore\n      0x20\n      add\n      0x00\n      keccak256\n      0x00\n        /* \"erc721a/contracts/ERC721A.sol\":16995:17055  _operatorApprovals[_msgSenderERC721A()][operator] = approved */\n      0x0100\n      exp\n      dup2\n      sload\n      dup2\n      0xff\n      mul\n      not\n      and\n      swap1\n      dup4\n      iszero\n      iszero\n      mul\n      or\n      swap1\n      sstore\n      pop\n        /* \"erc721a/contracts/ERC721A.sol\":17106:17114  operator */\n      dup2\n        /* \"erc721a/contracts/ERC721A.sol\":17070:17125  ApprovalForAll(_msgSenderERC721A(), operator, approved) */\n      0xffffffffffffffffffffffffffffffffffffffff\n      and\n        /* \"erc721a/contracts/ERC721A.sol\":17085:17104  _msgSenderERC721A() */\n      tag_199\n        /* \"erc721a/contracts/ERC721A.sol\":17085:17102  _msgSenderERC721A */\n      tag_135\n        /* \"erc721a/contracts/ERC721A.sol\":17085:17104  _msgSenderERC721A() */\n      jump\t// in\n    tag_199:\n        /* \"erc721a/contracts/ERC721A.sol\":17070:17125  ApprovalForAll(_msgSenderERC721A(), operator, approved) */\n      0xffffffffffffffffffffffffffffffffffffffff\n      and\n      0x17307eab39ab6107e8899845ad3d59bd9653f200f220920489ca2b5937696c31\n        /* \"erc721a/contracts/ERC721A.sol\":17116:17124  approved */\n      dup4\n        /* \"erc721a/contracts/ERC721A.sol\":17070:17125  ApprovalForAll(_msgSenderERC721A(), operator, approved) */\n      mload(0x40)\n      tag_200\n      swap2\n      swap1\n      tag_31\n      jump\t// in\n    tag_200:\n      mload(0x40)\n      dup1\n      swap2\n      sub\n      swap1\n      log3\n        /* \"erc721a/contracts/ERC721A.sol\":16901:17132  function setApprovalForAll(address operator, bool approved) public virtual override {... */\n      pop\n      pop\n      jump\t// out\n        /* \"erc721a/contracts/ERC721A.sol\":23526:23922  function safeTransferFrom(... */\n    tag_102:\n        /* \"erc721a/contracts/ERC721A.sol\":23695:23726  transferFrom(from, to, tokenId) */\n      tag_202\n        /* \"erc721a/contracts/ERC721A.sol\":23708:23712  from */\n      dup5\n        /* \"erc721a/contracts/ERC721A.sol\":23714:23716  to */\n      dup5\n        /* \"erc721a/contracts/ERC721A.sol\":23718:23725  tokenId */\n      dup5\n        /* \"erc721a/contracts/ERC721A.sol\":23695:23707  transferFrom */\n      tag_56\n        /* \"erc721a/contracts/ERC721A.sol\":23695:23726  transferFrom(from, to, tokenId) */\n      jump\t// in\n    tag_202:\n        /* \"erc721a/contracts/ERC721A.sol\":23758:23759  0 */\n      0x00\n        /* \"erc721a/contracts/ERC721A.sol\":23740:23742  to */\n      dup4\n        /* \"erc721a/contracts/ERC721A.sol\":23740:23754  to.code.length */\n      0xffffffffffffffffffffffffffffffffffffffff\n      and\n      extcodesize\n        /* \"erc721a/contracts/ERC721A.sol\":23740:23759  to.code.length != 0 */\n      eq\n        /* \"erc721a/contracts/ERC721A.sol\":23736:23916  if (to.code.length != 0)... */\n      tag_203\n      jumpi\n        /* \"erc721a/contracts/ERC721A.sol\":23778:23834  _checkContractOnERC721Received(from, to, tokenId, _data) */\n      tag_204\n        /* \"erc721a/contracts/ERC721A.sol\":23809:23813  from */\n      dup5\n        /* \"erc721a/contracts/ERC721A.sol\":23815:23817  to */\n      dup5\n        /* \"erc721a/contracts/ERC721A.sol\":23819:23826  tokenId */\n      dup5\n        /* \"erc721a/contracts/ERC721A.sol\":23828:23833  _data */\n      dup5\n        /* \"erc721a/contracts/ERC721A.sol\":23778:23808  _checkContractOnERC721Received */\n      tag_205\n        /* \"erc721a/contracts/ERC721A.sol\":23778:23834  _checkContractOnERC721Received(from, to, tokenId, _data) */\n      jump\t// in\n    tag_204:\n        /* \"erc721a/contracts/ERC721A.sol\":23773:23916  if (!_checkContractOnERC721Received(from, to, tokenId, _data)) {... */\n      tag_206\n      jumpi\n        /* \"erc721a/contracts/ERC721A.sol\":23861:23901  TransferToNonERC721ReceiverImplementer() */\n      mload(0x40)\n      0xd1a57ed600000000000000000000000000000000000000000000000000000000\n      dup2\n      mstore\n      0x04\n      add\n      mload(0x40)\n      dup1\n      swap2\n      sub\n      swap1\n      revert\n        /* \"erc721a/contracts/ERC721A.sol\":23773:23916  if (!_checkContractOnERC721Received(from, to, tokenId, _data)) {... */\n    tag_206:\n        /* \"erc721a/contracts/ERC721A.sol\":23736:23916  if (to.code.length != 0)... */\n    tag_203:\n        /* \"erc721a/contracts/ERC721A.sol\":23526:23922  function safeTransferFrom(... */\n      pop\n      pop\n      pop\n      pop\n      jump\t// out\n        /* \"erc721a/contracts/ERC721A.sol\":10411:10724  function tokenURI(uint256 tokenId) public view virtual override returns (string memory) {... */\n    tag_106:\n        /* \"erc721a/contracts/ERC721A.sol\":10484:10497  string memory */\n      0x60\n        /* \"erc721a/contracts/ERC721A.sol\":10514:10530  _exists(tokenId) */\n      tag_208\n        /* \"erc721a/contracts/ERC721A.sol\":10522:10529  tokenId */\n      dup3\n        /* \"erc721a/contracts/ERC721A.sol\":10514:10521  _exists */\n      tag_130\n        /* \"erc721a/contracts/ERC721A.sol\":10514:10530  _exists(tokenId) */\n      jump\t// in\n    tag_208:\n        /* \"erc721a/contracts/ERC721A.sol\":10509:10568  if (!_exists(tokenId)) revert URIQueryForNonexistentToken() */\n      tag_209\n      jumpi\n        /* \"erc721a/contracts/ERC721A.sol\":10539:10568  URIQueryForNonexistentToken() */\n      mload(0x40)\n      0xa14c4b5000000000000000000000000000000000000000000000000000000000\n      dup2\n      mstore\n      0x04\n      add\n      mload(0x40)\n      dup1\n      swap2\n      sub\n      swap1\n      revert\n        /* \"erc721a/contracts/ERC721A.sol\":10509:10568  if (!_exists(tokenId)) revert URIQueryForNonexistentToken() */\n    tag_209:\n        /* \"erc721a/contracts/ERC721A.sol\":10579:10600  string memory baseURI */\n      0x00\n        /* \"erc721a/contracts/ERC721A.sol\":10603:10613  _baseURI() */\n      tag_210\n        /* \"erc721a/contracts/ERC721A.sol\":10603:10611  _baseURI */\n      tag_211\n        /* \"erc721a/contracts/ERC721A.sol\":10603:10613  _baseURI() */\n      jump\t// in\n    tag_210:\n        /* \"erc721a/contracts/ERC721A.sol\":10579:10613  string memory baseURI = _baseURI() */\n      swap1\n      pop\n        /* \"erc721a/contracts/ERC721A.sol\":10655:10656  0 */\n      0x00\n        /* \"erc721a/contracts/ERC721A.sol\":10636:10643  baseURI */\n      dup2\n        /* \"erc721a/contracts/ERC721A.sol\":10630:10651  bytes(baseURI).length */\n      mload\n        /* \"erc721a/contracts/ERC721A.sol\":10630:10656  bytes(baseURI).length != 0 */\n      sub\n        /* \"erc721a/contracts/ERC721A.sol\":10630:10717  bytes(baseURI).length != 0 ? string(abi.encodePacked(baseURI, _toString(tokenId))) : '' */\n      tag_212\n      jumpi\n      mload(0x40)\n      dup1\n      0x20\n      add\n      0x40\n      mstore\n      dup1\n      0x00\n      dup2\n      mstore\n      pop\n      jump(tag_213)\n    tag_212:\n        /* \"erc721a/contracts/ERC721A.sol\":10683:10690  baseURI */\n      dup1\n        /* \"erc721a/contracts/ERC721A.sol\":10692:10710  _toString(tokenId) */\n      tag_214\n        /* \"erc721a/contracts/ERC721A.sol\":10702:10709  tokenId */\n      dup5\n        /* \"erc721a/contracts/ERC721A.sol\":10692:10701  _toString */\n      tag_215\n        /* \"erc721a/contracts/ERC721A.sol\":10692:10710  _toString(tokenId) */\n      jump\t// in\n    tag_214:\n        /* \"erc721a/contracts/ERC721A.sol\":10666:10711  abi.encodePacked(baseURI, _toString(tokenId)) */\n      add(0x20, mload(0x40))\n      tag_216\n      swap3\n      swap2\n      swap1\n      tag_217\n      jump\t// in\n    tag_216:\n      mload(0x40)\n      0x20\n      dup2\n      dup4\n      sub\n      sub\n      dup2\n      mstore\n      swap1\n      0x40\n      mstore\n        /* \"erc721a/contracts/ERC721A.sol\":10630:10717  bytes(baseURI).length != 0 ? string(abi.encodePacked(baseURI, _toString(tokenId))) : '' */\n    tag_213:\n        /* \"erc721a/contracts/ERC721A.sol\":10623:10717  return bytes(baseURI).length != 0 ? string(abi.encodePacked(baseURI, _toString(tokenId))) : '' */\n      swap2\n      pop\n      pop\n        /* \"erc721a/contracts/ERC721A.sol\":10411:10724  function tokenURI(uint256 tokenId) public view virtual override returns (string memory) {... */\n      swap2\n      swap1\n      pop\n      jump\t// out\n        /* \"erc721a/contracts/ERC721A.sol\":17282:17444  function isApprovedForAll(address owner, address operator) public view virtual override returns (bool) {... */\n    tag_112:\n        /* \"erc721a/contracts/ERC721A.sol\":17379:17383  bool */\n      0x00\n        /* \"erc721a/contracts/ERC721A.sol\":17402:17420  _operatorApprovals */\n      0x07\n        /* \"erc721a/contracts/ERC721A.sol\":17402:17427  _operatorApprovals[owner] */\n      0x00\n        /* \"erc721a/contracts/ERC721A.sol\":17421:17426  owner */\n      dup5\n        /* \"erc721a/contracts/ERC721A.sol\":17402:17427  _operatorApprovals[owner] */\n      0xffffffffffffffffffffffffffffffffffffffff\n      and\n      0xffffffffffffffffffffffffffffffffffffffff\n      and\n      dup2\n      mstore\n      0x20\n      add\n      swap1\n      dup2\n      mstore\n      0x20\n      add\n      0x00\n      keccak256\n        /* \"erc721a/contracts/ERC721A.sol\":17402:17437  _operatorApprovals[owner][operator] */\n      0x00\n        /* \"erc721a/contracts/ERC721A.sol\":17428:17436  operator */\n      dup4\n        /* \"erc721a/contracts/ERC721A.sol\":17402:17437  _operatorApprovals[owner][operator] */\n      0xffffffffffffffffffffffffffffffffffffffff\n      and\n      0xffffffffffffffffffffffffffffffffffffffff\n      and\n      dup2\n      mstore\n      0x20\n      add\n      swap1\n      dup2\n      mstore\n      0x20\n      add\n      0x00\n      keccak256\n      0x00\n      swap1\n      sload\n      swap1\n      0x0100\n      exp\n      swap1\n      div\n      0xff\n      and\n        /* \"erc721a/contracts/ERC721A.sol\":17395:17437  return _operatorApprovals[owner][operator] */\n      swap1\n      pop\n        /* \"erc721a/contracts/ERC721A.sol\":17282:17444  function isApprovedForAll(address owner, address operator) public view virtual override returns (bool) {... */\n      swap3\n      swap2\n      pop\n      pop\n      jump\t// out\n        /* \"@openzeppelin/contracts/access/Ownable.sol\":2081:2279  function transferOwnership(address newOwner) public virtual onlyOwner {... */\n    tag_117:\n        /* \"@openzeppelin/contracts/access/Ownable.sol\":1094:1107  _checkOwner() */\n      tag_220\n        /* \"@openzeppelin/contracts/access/Ownable.sol\":1094:1105  _checkOwner */\n      tag_173\n        /* \"@openzeppelin/contracts/access/Ownable.sol\":1094:1107  _checkOwner() */\n      jump\t// in\n    tag_220:\n        /* \"@openzeppelin/contracts/access/Ownable.sol\":2189:2190  0 */\n      0x00\n        /* \"@openzeppelin/contracts/access/Ownable.sol\":2169:2191  newOwner != address(0) */\n      0xffffffffffffffffffffffffffffffffffffffff\n      and\n        /* \"@openzeppelin/contracts/access/Ownable.sol\":2169:2177  newOwner */\n      dup2\n        /* \"@openzeppelin/contracts/access/Ownable.sol\":2169:2191  newOwner != address(0) */\n      0xffffffffffffffffffffffffffffffffffffffff\n      and\n      sub\n        /* \"@openzeppelin/contracts/access/Ownable.sol\":2161:2234  require(newOwner != address(0), \"Ownable: new owner is the zero address\") */\n      tag_222\n      jumpi\n      mload(0x40)\n      0x08c379a000000000000000000000000000000000000000000000000000000000\n      dup2\n      mstore\n      0x04\n      add\n      tag_223\n      swap1\n      tag_224\n      jump\t// in\n    tag_223:\n      mload(0x40)\n      dup1\n      swap2\n      sub\n      swap1\n      revert\n    tag_222:\n        /* \"@openzeppelin/contracts/access/Ownable.sol\":2244:2272  _transferOwnership(newOwner) */\n      tag_225\n        /* \"@openzeppelin/contracts/access/Ownable.sol\":2263:2271  newOwner */\n      dup2\n        /* \"@openzeppelin/contracts/access/Ownable.sol\":2244:2262  _transferOwnership */\n      tag_188\n        /* \"@openzeppelin/contracts/access/Ownable.sol\":2244:2272  _transferOwnership(newOwner) */\n      jump\t// in\n    tag_225:\n        /* \"@openzeppelin/contracts/access/Ownable.sol\":2081:2279  function transferOwnership(address newOwner) public virtual onlyOwner {... */\n      pop\n      jump\t// out\n        /* \"erc721a/contracts/ERC721A.sol\":17693:17970  function _exists(uint256 tokenId) internal view virtual returns (bool) {... */\n    tag_130:\n        /* \"erc721a/contracts/ERC721A.sol\":17758:17762  bool */\n      0x00\n        /* \"erc721a/contracts/ERC721A.sol\":17812:17819  tokenId */\n      dup2\n        /* \"erc721a/contracts/ERC721A.sol\":17793:17808  _startTokenId() */\n      tag_227\n        /* \"erc721a/contracts/ERC721A.sol\":17793:17806  _startTokenId */\n      tag_142\n        /* \"erc721a/contracts/ERC721A.sol\":17793:17808  _startTokenId() */\n      jump\t// in\n    tag_227:\n        /* \"erc721a/contracts/ERC721A.sol\":17793:17819  _startTokenId() <= tokenId */\n      gt\n      iszero\n        /* \"erc721a/contracts/ERC721A.sol\":17793:17858  _startTokenId() <= tokenId &&... */\n      dup1\n      iszero\n      tag_228\n      jumpi\n      pop\n        /* \"erc721a/contracts/ERC721A.sol\":17845:17858  _currentIndex */\n      sload(0x00)\n        /* \"erc721a/contracts/ERC721A.sol\":17835:17842  tokenId */\n      dup3\n        /* \"erc721a/contracts/ERC721A.sol\":17835:17858  tokenId < _currentIndex */\n      lt\n        /* \"erc721a/contracts/ERC721A.sol\":17793:17858  _startTokenId() <= tokenId &&... */\n    tag_228:\n        /* \"erc721a/contracts/ERC721A.sol\":17793:17944  _startTokenId() <= tokenId &&... */\n      dup1\n      iszero\n      tag_229\n      jumpi\n      pop\n        /* \"erc721a/contracts/ERC721A.sol\":17943:17944  0 */\n      0x00\n        /* \"erc721a/contracts/ERC721A.sol\":2118:2126  1 << 224 */\n      0x0100000000000000000000000000000000000000000000000000000000\n        /* \"erc721a/contracts/ERC721A.sol\":17895:17912  _packedOwnerships */\n      0x04\n        /* \"erc721a/contracts/ERC721A.sol\":17895:17921  _packedOwnerships[tokenId] */\n      0x00\n        /* \"erc721a/contracts/ERC721A.sol\":17913:17920  tokenId */\n      dup6\n        /* \"erc721a/contracts/ERC721A.sol\":17895:17921  _packedOwnerships[tokenId] */\n      dup2\n      mstore\n      0x20\n      add\n      swap1\n      dup2\n      mstore\n      0x20\n      add\n      0x00\n      keccak256\n      sload\n        /* \"erc721a/contracts/ERC721A.sol\":17895:17939  _packedOwnerships[tokenId] & _BITMASK_BURNED */\n      and\n        /* \"erc721a/contracts/ERC721A.sol\":17895:17944  _packedOwnerships[tokenId] & _BITMASK_BURNED == 0 */\n      eq\n        /* \"erc721a/contracts/ERC721A.sol\":17793:17944  _startTokenId() <= tokenId &&... */\n    tag_229:\n        /* \"erc721a/contracts/ERC721A.sol\":17774:17944  return... */\n      swap1\n      pop\n        /* \"erc721a/contracts/ERC721A.sol\":17693:17970  function _exists(uint256 tokenId) internal view virtual returns (bool) {... */\n      swap2\n      swap1\n      pop\n      jump\t// out\n        /* \"erc721a/contracts/ERC721A.sol\":39437:39540  function _msgSenderERC721A() internal view virtual returns (address) {... */\n    tag_135:\n        /* \"erc721a/contracts/ERC721A.sol\":39497:39504  address */\n      0x00\n        /* \"erc721a/contracts/ERC721A.sol\":39523:39533  msg.sender */\n      caller\n        /* \"erc721a/contracts/ERC721A.sol\":39516:39533  return msg.sender */\n      swap1\n      pop\n        /* \"erc721a/contracts/ERC721A.sol\":39437:39540  function _msgSenderERC721A() internal view virtual returns (address) {... */\n      swap1\n      jump\t// out\n        /* \"erc721a/contracts/ERC721A.sol\":5426:5516  function _startTokenId() internal view virtual returns (uint256) {... */\n    tag_142:\n        /* \"erc721a/contracts/ERC721A.sol\":5482:5489  uint256 */\n      0x00\n        /* \"erc721a/contracts/ERC721A.sol\":5426:5516  function _startTokenId() internal view virtual returns (uint256) {... */\n      swap1\n      jump\t// out\n        /* \"erc721a/contracts/ERC721A.sol\":12515:13764  function _packedOwnershipOf(uint256 tokenId) private view returns (uint256) {... */\n    tag_145:\n        /* \"erc721a/contracts/ERC721A.sol\":12582:12589  uint256 */\n      0x00\n        /* \"erc721a/contracts/ERC721A.sol\":12601:12613  uint256 curr */\n      dup1\n        /* \"erc721a/contracts/ERC721A.sol\":12616:12623  tokenId */\n      dup3\n        /* \"erc721a/contracts/ERC721A.sol\":12601:12623  uint256 curr = tokenId */\n      swap1\n      pop\n        /* \"erc721a/contracts/ERC721A.sol\":12681:12685  curr */\n      dup1\n        /* \"erc721a/contracts/ERC721A.sol\":12662:12677  _startTokenId() */\n      tag_233\n        /* \"erc721a/contracts/ERC721A.sol\":12662:12675  _startTokenId */\n      tag_142\n        /* \"erc721a/contracts/ERC721A.sol\":12662:12677  _startTokenId() */\n      jump\t// in\n    tag_233:\n        /* \"erc721a/contracts/ERC721A.sol\":12662:12685  _startTokenId() <= curr */\n      gt\n        /* \"erc721a/contracts/ERC721A.sol\":12658:13700  if (_startTokenId() <= curr)... */\n      tag_234\n      jumpi\n        /* \"erc721a/contracts/ERC721A.sol\":12714:12727  _currentIndex */\n      sload(0x00)\n        /* \"erc721a/contracts/ERC721A.sol\":12707:12711  curr */\n      dup2\n        /* \"erc721a/contracts/ERC721A.sol\":12707:12727  curr < _currentIndex */\n      lt\n        /* \"erc721a/contracts/ERC721A.sol\":12703:13700  if (curr < _currentIndex) {... */\n      iszero\n      tag_235\n      jumpi\n        /* \"erc721a/contracts/ERC721A.sol\":12751:12765  uint256 packed */\n      0x00\n        /* \"erc721a/contracts/ERC721A.sol\":12768:12785  _packedOwnerships */\n      0x04\n        /* \"erc721a/contracts/ERC721A.sol\":12768:12791  _packedOwnerships[curr] */\n      0x00\n        /* \"erc721a/contracts/ERC721A.sol\":12786:12790  curr */\n      dup4\n        /* \"erc721a/contracts/ERC721A.sol\":12768:12791  _packedOwnerships[curr] */\n      dup2\n      mstore\n      0x20\n      add\n      swap1\n      dup2\n      mstore\n      0x20\n      add\n      0x00\n      keccak256\n      sload\n        /* \"erc721a/contracts/ERC721A.sol\":12751:12791  uint256 packed = _packedOwnerships[curr] */\n      swap1\n      pop\n        /* \"erc721a/contracts/ERC721A.sol\":12883:12884  0 */\n      0x00\n        /* \"erc721a/contracts/ERC721A.sol\":2118:2126  1 << 224 */\n      0x0100000000000000000000000000000000000000000000000000000000\n        /* \"erc721a/contracts/ERC721A.sol\":12855:12861  packed */\n      dup3\n        /* \"erc721a/contracts/ERC721A.sol\":12855:12879  packed & _BITMASK_BURNED */\n      and\n        /* \"erc721a/contracts/ERC721A.sol\":12855:12884  packed & _BITMASK_BURNED == 0 */\n      sub\n        /* \"erc721a/contracts/ERC721A.sol\":12851:13682  if (packed & _BITMASK_BURNED == 0) {... */\n      tag_236\n      jumpi\n        /* \"erc721a/contracts/ERC721A.sol\":13510:13621  while (packed == 0) {... */\n    tag_237:\n        /* \"erc721a/contracts/ERC721A.sol\":13527:13528  0 */\n      0x00\n        /* \"erc721a/contracts/ERC721A.sol\":13517:13523  packed */\n      dup2\n        /* \"erc721a/contracts/ERC721A.sol\":13517:13528  packed == 0 */\n      sub\n        /* \"erc721a/contracts/ERC721A.sol\":13510:13621  while (packed == 0) {... */\n      tag_238\n      jumpi\n        /* \"erc721a/contracts/ERC721A.sol\":13569:13586  _packedOwnerships */\n      0x04\n        /* \"erc721a/contracts/ERC721A.sol\":13569:13594  _packedOwnerships[--curr] */\n      0x00\n        /* \"erc721a/contracts/ERC721A.sol\":13587:13593  --curr */\n      dup4\n      0x01\n      swap1\n      sub\n      swap4\n      pop\n      dup4\n        /* \"erc721a/contracts/ERC721A.sol\":13569:13594  _packedOwnerships[--curr] */\n      dup2\n      mstore\n      0x20\n      add\n      swap1\n      dup2\n      mstore\n      0x20\n      add\n      0x00\n      keccak256\n      sload\n        /* \"erc721a/contracts/ERC721A.sol\":13560:13594  packed = _packedOwnerships[--curr] */\n      swap1\n      pop\n        /* \"erc721a/contracts/ERC721A.sol\":13510:13621  while (packed == 0) {... */\n      jump(tag_237)\n    tag_238:\n        /* \"erc721a/contracts/ERC721A.sol\":13653:13659  packed */\n      dup1\n        /* \"erc721a/contracts/ERC721A.sol\":13646:13659  return packed */\n      swap3\n      pop\n      pop\n      pop\n      jump(tag_232)\n        /* \"erc721a/contracts/ERC721A.sol\":12851:13682  if (packed & _BITMASK_BURNED == 0) {... */\n    tag_236:\n        /* \"erc721a/contracts/ERC721A.sol\":12729:13700  {... */\n      pop\n        /* \"erc721a/contracts/ERC721A.sol\":12703:13700  if (curr < _currentIndex) {... */\n    tag_235:\n        /* \"erc721a/contracts/ERC721A.sol\":12658:13700  if (_startTokenId() <= curr)... */\n    tag_234:\n        /* \"erc721a/contracts/ERC721A.sol\":13726:13757  OwnerQueryForNonexistentToken() */\n      mload(0x40)\n      0xdf2d9b4200000000000000000000000000000000000000000000000000000000\n      dup2\n      mstore\n      0x04\n      add\n      mload(0x40)\n      dup1\n      swap2\n      sub\n      swap1\n      revert\n        /* \"erc721a/contracts/ERC721A.sol\":12515:13764  function _packedOwnershipOf(uint256 tokenId) private view returns (uint256) {... */\n    tag_232:\n      swap2\n      swap1\n      pop\n      jump\t// out\n        /* \"erc721a/contracts/ERC721A.sol\":18828:19302  function _getApprovedSlotAndAddress(uint256 tokenId)... */\n    tag_148:\n        /* \"erc721a/contracts/ERC721A.sol\":18927:18954  uint256 approvedAddressSlot */\n      0x00\n        /* \"erc721a/contracts/ERC721A.sol\":18956:18979  address approvedAddress */\n      dup1\n        /* \"erc721a/contracts/ERC721A.sol\":18995:19033  TokenApprovalRef storage tokenApproval */\n      0x00\n        /* \"erc721a/contracts/ERC721A.sol\":19036:19051  _tokenApprovals */\n      0x06\n        /* \"erc721a/contracts/ERC721A.sol\":19036:19060  _tokenApprovals[tokenId] */\n      0x00\n        /* \"erc721a/contracts/ERC721A.sol\":19052:19059  tokenId */\n      dup6\n        /* \"erc721a/contracts/ERC721A.sol\":19036:19060  _tokenApprovals[tokenId] */\n      dup2\n      mstore\n      0x20\n      add\n      swap1\n      dup2\n      mstore\n      0x20\n      add\n      0x00\n      keccak256\n        /* \"erc721a/contracts/ERC721A.sol\":18995:19060  TokenApprovalRef storage tokenApproval = _tokenApprovals[tokenId] */\n      swap1\n      pop\n        /* \"erc721a/contracts/ERC721A.sol\":19210:19228  tokenApproval.slot */\n      dup1\n        /* \"erc721a/contracts/ERC721A.sol\":19187:19228  approvedAddressSlot := tokenApproval.slot */\n      swap3\n      pop\n        /* \"erc721a/contracts/ERC721A.sol\":19266:19285  approvedAddressSlot */\n      dup3\n        /* \"erc721a/contracts/ERC721A.sol\":19260:19286  sload(approvedAddressSlot) */\n      sload\n        /* \"erc721a/contracts/ERC721A.sol\":19241:19286  approvedAddress := sload(approvedAddressSlot) */\n      swap2\n      pop\n        /* \"erc721a/contracts/ERC721A.sol\":19173:19296  {... */\n      pop\n        /* \"erc721a/contracts/ERC721A.sol\":18828:19302  function _getApprovedSlotAndAddress(uint256 tokenId)... */\n      swap2\n      pop\n      swap2\n      jump\t// out\n        /* \"erc721a/contracts/ERC721A.sol\":18074:18720  function _isSenderApprovedOrOwner(... */\n    tag_151:\n        /* \"erc721a/contracts/ERC721A.sol\":18219:18230  bool result */\n      0x00\n        /* \"erc721a/contracts/ERC721A.sol\":18381:18397  _BITMASK_ADDRESS */\n      0xffffffffffffffffffffffffffffffffffffffff\n        /* \"erc721a/contracts/ERC721A.sol\":18374:18379  owner */\n      dup4\n        /* \"erc721a/contracts/ERC721A.sol\":18370:18398  and(owner, _BITMASK_ADDRESS) */\n      and\n        /* \"erc721a/contracts/ERC721A.sol\":18361:18398  owner := and(owner, _BITMASK_ADDRESS) */\n      swap3\n      pop\n        /* \"erc721a/contracts/ERC721A.sol\":18539:18555  _BITMASK_ADDRESS */\n      0xffffffffffffffffffffffffffffffffffffffff\n        /* \"erc721a/contracts/ERC721A.sol\":18528:18537  msgSender */\n      dup3\n        /* \"erc721a/contracts/ERC721A.sol\":18524:18556  and(msgSender, _BITMASK_ADDRESS) */\n      and\n        /* \"erc721a/contracts/ERC721A.sol\":18511:18556  msgSender := and(msgSender, _BITMASK_ADDRESS) */\n      swap2\n      pop\n        /* \"erc721a/contracts/ERC721A.sol\":18687:18702  approvedAddress */\n      dup4\n        /* \"erc721a/contracts/ERC721A.sol\":18676:18685  msgSender */\n      dup3\n        /* \"erc721a/contracts/ERC721A.sol\":18673:18703  eq(msgSender, approvedAddress) */\n      eq\n        /* \"erc721a/contracts/ERC721A.sol\":18665:18670  owner */\n      dup4\n        /* \"erc721a/contracts/ERC721A.sol\":18654:18663  msgSender */\n      dup4\n        /* \"erc721a/contracts/ERC721A.sol\":18651:18671  eq(msgSender, owner) */\n      eq\n        /* \"erc721a/contracts/ERC721A.sol\":18648:18704  or(eq(msgSender, owner), eq(msgSender, approvedAddress)) */\n      or\n        /* \"erc721a/contracts/ERC721A.sol\":18638:18704  result := or(eq(msgSender, owner), eq(msgSender, approvedAddress)) */\n      swap1\n      pop\n        /* \"erc721a/contracts/ERC721A.sol\":18074:18720  function _isSenderApprovedOrOwner(... */\n      swap4\n      swap3\n      pop\n      pop\n      pop\n      jump\t// out\n        /* \"erc721a/contracts/ERC721A.sol\":24566:24720  function _beforeTokenTransfers(... */\n    tag_158:\n      pop\n      pop\n      pop\n      pop\n      jump\t// out\n        /* \"erc721a/contracts/ERC721A.sol\":38764:39068  function _nextExtraData(... */\n    tag_162:\n        /* \"erc721a/contracts/ERC721A.sol\":38895:38902  uint256 */\n      0x00\n        /* \"erc721a/contracts/ERC721A.sol\":38914:38930  uint24 extraData */\n      dup1\n        /* \"erc721a/contracts/ERC721A.sol\":2513:2516  232 */\n      0xe8\n        /* \"erc721a/contracts/ERC721A.sol\":38940:38959  prevOwnershipPacked */\n      dup4\n        /* \"erc721a/contracts/ERC721A.sol\":38940:38981  prevOwnershipPacked >> _BITPOS_EXTRA_DATA */\n      swap1\n      shr\n        /* \"erc721a/contracts/ERC721A.sol\":38914:38982  uint24 extraData = uint24(prevOwnershipPacked >> _BITPOS_EXTRA_DATA) */\n      swap1\n      pop\n        /* \"erc721a/contracts/ERC721A.sol\":2513:2516  232 */\n      0xe8\n        /* \"erc721a/contracts/ERC721A.sol\":39007:39038  _extraData(from, to, extraData) */\n      tag_243\n        /* \"erc721a/contracts/ERC721A.sol\":39018:39022  from */\n      dup7\n        /* \"erc721a/contracts/ERC721A.sol\":39024:39026  to */\n      dup7\n        /* \"erc721a/contracts/ERC721A.sol\":39028:39037  extraData */\n      dup5\n        /* \"erc721a/contracts/ERC721A.sol\":39007:39017  _extraData */\n      tag_244\n        /* \"erc721a/contracts/ERC721A.sol\":39007:39038  _extraData(from, to, extraData) */\n      jump\t// in\n    tag_243:\n        /* \"erc721a/contracts/ERC721A.sol\":38999:39039  uint256(_extraData(from, to, extraData)) */\n      0xffffff\n      and\n        /* \"erc721a/contracts/ERC721A.sol\":38999:39061  uint256(_extraData(from, to, extraData)) << _BITPOS_EXTRA_DATA */\n      swap1\n      shl\n        /* \"erc721a/contracts/ERC721A.sol\":38992:39061  return uint256(_extraData(from, to, extraData)) << _BITPOS_EXTRA_DATA */\n      swap2\n      pop\n      pop\n        /* \"erc721a/contracts/ERC721A.sol\":38764:39068  function _nextExtraData(... */\n      swap4\n      swap3\n      pop\n      pop\n      pop\n      jump\t// out\n        /* \"erc721a/contracts/ERC721A.sol\":14297:14740  function _packOwnershipData(address owner, uint256 flags) private view returns (uint256 result) {... */\n    tag_163:\n        /* \"erc721a/contracts/ERC721A.sol\":14377:14391  uint256 result */\n      0x00\n        /* \"erc721a/contracts/ERC721A.sol\":14542:14558  _BITMASK_ADDRESS */\n      0xffffffffffffffffffffffffffffffffffffffff\n        /* \"erc721a/contracts/ERC721A.sol\":14535:14540  owner */\n      dup4\n        /* \"erc721a/contracts/ERC721A.sol\":14531:14559  and(owner, _BITMASK_ADDRESS) */\n      and\n        /* \"erc721a/contracts/ERC721A.sol\":14522:14559  owner := and(owner, _BITMASK_ADDRESS) */\n      swap3\n      pop\n        /* \"erc721a/contracts/ERC721A.sol\":14717:14722  flags */\n      dup2\n        /* \"erc721a/contracts/ERC721A.sol\":14703:14714  timestamp() */\n      timestamp\n        /* \"erc721a/contracts/ERC721A.sol\":14678:14701  _BITPOS_START_TIMESTAMP */\n      0xa0\n        /* \"erc721a/contracts/ERC721A.sol\":14674:14715  shl(_BITPOS_START_TIMESTAMP, timestamp()) */\n      shl\n        /* \"erc721a/contracts/ERC721A.sol\":14671:14723  or(shl(_BITPOS_START_TIMESTAMP, timestamp()), flags) */\n      or\n        /* \"erc721a/contracts/ERC721A.sol\":14664:14669  owner */\n      dup4\n        /* \"erc721a/contracts/ERC721A.sol\":14661:14724  or(owner, or(shl(_BITPOS_START_TIMESTAMP, timestamp()), flags)) */\n      or\n        /* \"erc721a/contracts/ERC721A.sol\":14651:14724  result := or(owner, or(shl(_BITPOS_START_TIMESTAMP, timestamp()), flags)) */\n      swap1\n      pop\n        /* \"erc721a/contracts/ERC721A.sol\":14297:14740  function _packOwnershipData(address owner, uint256 flags) private view returns (uint256 result) {... */\n      swap3\n      swap2\n      pop\n      pop\n      jump\t// out\n        /* \"erc721a/contracts/ERC721A.sol\":25367:25520  function _afterTokenTransfers(... */\n    tag_168:\n      pop\n      pop\n      pop\n      pop\n      jump\t// out\n        /* \"@openzeppelin/contracts/access/Ownable.sol\":1359:1489  function _checkOwner() internal view virtual {... */\n    tag_173:\n        /* \"@openzeppelin/contracts/access/Ownable.sol\":1433:1445  _msgSender() */\n      tag_248\n        /* \"@openzeppelin/contracts/access/Ownable.sol\":1433:1443  _msgSender */\n      tag_249\n        /* \"@openzeppelin/contracts/access/Ownable.sol\":1433:1445  _msgSender() */\n      jump\t// in\n    tag_248:\n        /* \"@openzeppelin/contracts/access/Ownable.sol\":1422:1445  owner() == _msgSender() */\n      0xffffffffffffffffffffffffffffffffffffffff\n      and\n        /* \"@openzeppelin/contracts/access/Ownable.sol\":1422:1429  owner() */\n      tag_250\n        /* \"@openzeppelin/contracts/access/Ownable.sol\":1422:1427  owner */\n      tag_88\n        /* \"@openzeppelin/contracts/access/Ownable.sol\":1422:1429  owner() */\n      jump\t// in\n    tag_250:\n        /* \"@openzeppelin/contracts/access/Ownable.sol\":1422:1445  owner() == _msgSender() */\n      0xffffffffffffffffffffffffffffffffffffffff\n      and\n      eq\n        /* \"@openzeppelin/contracts/access/Ownable.sol\":1414:1482  require(owner() == _msgSender(), \"Ownable: caller is not the owner\") */\n      tag_251\n      jumpi\n      mload(0x40)\n      0x08c379a000000000000000000000000000000000000000000000000000000000\n      dup2\n      mstore\n      0x04\n      add\n      tag_252\n      swap1\n      tag_253\n      jump\t// in\n    tag_252:\n      mload(0x40)\n      dup1\n      swap2\n      sub\n      swap1\n      revert\n    tag_251:\n        /* \"@openzeppelin/contracts/access/Ownable.sol\":1359:1489  function _checkOwner() internal view virtual {... */\n      jump\t// out\n        /* \"@openzeppelin/contracts/access/Ownable.sol\":2433:2620  function _transferOwnership(address newOwner) internal virtual {... */\n    tag_188:\n        /* \"@openzeppelin/contracts/access/Ownable.sol\":2506:2522  address oldOwner */\n      0x00\n        /* \"@openzeppelin/contracts/access/Ownable.sol\":2525:2531  _owner */\n      0x08\n      0x00\n      swap1\n      sload\n      swap1\n      0x0100\n      exp\n      swap1\n      div\n      0xffffffffffffffffffffffffffffffffffffffff\n      and\n        /* \"@openzeppelin/contracts/access/Ownable.sol\":2506:2531  address oldOwner = _owner */\n      swap1\n      pop\n        /* \"@openzeppelin/contracts/access/Ownable.sol\":2550:2558  newOwner */\n      dup2\n        /* \"@openzeppelin/contracts/access/Ownable.sol\":2541:2547  _owner */\n      0x08\n      0x00\n        /* \"@openzeppelin/contracts/access/Ownable.sol\":2541:2558  _owner = newOwner */\n      0x0100\n      exp\n      dup2\n      sload\n      dup2\n      0xffffffffffffffffffffffffffffffffffffffff\n      mul\n      not\n      and\n      swap1\n      dup4\n      0xffffffffffffffffffffffffffffffffffffffff\n      and\n      mul\n      or\n      swap1\n      sstore\n      pop\n        /* \"@openzeppelin/contracts/access/Ownable.sol\":2604:2612  newOwner */\n      dup2\n        /* \"@openzeppelin/contracts/access/Ownable.sol\":2573:2613  OwnershipTransferred(oldOwner, newOwner) */\n      0xffffffffffffffffffffffffffffffffffffffff\n      and\n        /* \"@openzeppelin/contracts/access/Ownable.sol\":2594:2602  oldOwner */\n      dup2\n        /* \"@openzeppelin/contracts/access/Ownable.sol\":2573:2613  OwnershipTransferred(oldOwner, newOwner) */\n      0xffffffffffffffffffffffffffffffffffffffff\n      and\n      0x8be0079c531659141344cd1fd0a4f28419497f9722a3daafe3b4186f6b6457e0\n      mload(0x40)\n      mload(0x40)\n      dup1\n      swap2\n      sub\n      swap1\n      log3\n        /* \"@openzeppelin/contracts/access/Ownable.sol\":2496:2620  {... */\n      pop\n        /* \"@openzeppelin/contracts/access/Ownable.sol\":2433:2620  function _transferOwnership(address newOwner) internal virtual {... */\n      pop\n      jump\t// out\n        /* \"erc721a/contracts/ERC721A.sol\":25948:26645  function _checkContractOnERC721Received(... */\n    tag_205:\n        /* \"erc721a/contracts/ERC721A.sol\":26106:26110  bool */\n      0x00\n        /* \"erc721a/contracts/ERC721A.sol\":26151:26153  to */\n      dup4\n        /* \"erc721a/contracts/ERC721A.sol\":26126:26171  ERC721A__IERC721Receiver(to).onERC721Received */\n      0xffffffffffffffffffffffffffffffffffffffff\n      and\n      0x150b7a02\n        /* \"erc721a/contracts/ERC721A.sol\":26172:26191  _msgSenderERC721A() */\n      tag_256\n        /* \"erc721a/contracts/ERC721A.sol\":26172:26189  _msgSenderERC721A */\n      tag_135\n        /* \"erc721a/contracts/ERC721A.sol\":26172:26191  _msgSenderERC721A() */\n      jump\t// in\n    tag_256:\n        /* \"erc721a/contracts/ERC721A.sol\":26193:26197  from */\n      dup8\n        /* \"erc721a/contracts/ERC721A.sol\":26199:26206  tokenId */\n      dup7\n        /* \"erc721a/contracts/ERC721A.sol\":26208:26213  _data */\n      dup7\n        /* \"erc721a/contracts/ERC721A.sol\":26126:26214  ERC721A__IERC721Receiver(to).onERC721Received(_msgSenderERC721A(), from, tokenId, _data) */\n      mload(0x40)\n      dup6\n      0xffffffff\n      and\n      0xe0\n      shl\n      dup2\n      mstore\n      0x04\n      add\n      tag_257\n      swap5\n      swap4\n      swap3\n      swap2\n      swap1\n      tag_258\n      jump\t// in\n    tag_257:\n      0x20\n      mload(0x40)\n      dup1\n      dup4\n      sub\n      dup2\n      0x00\n      dup8\n      gas\n      call\n      swap3\n      pop\n      pop\n      pop\n      dup1\n      iszero\n      tag_259\n      jumpi\n      pop\n      mload(0x40)\n      returndatasize\n      not(0x1f)\n      0x1f\n      dup3\n      add\n      and\n      dup3\n      add\n      dup1\n      0x40\n      mstore\n      pop\n      dup2\n      add\n      swap1\n      tag_260\n      swap2\n      swap1\n      tag_261\n      jump\t// in\n    tag_260:\n      0x01\n    tag_259:\n        /* \"erc721a/contracts/ERC721A.sol\":26122:26639  try ERC721A__IERC721Receiver(to).onERC721Received(_msgSenderERC721A(), from, tokenId, _data) returns (... */\n      tag_262\n      jumpi\n      returndatasize\n      dup1\n      0x00\n      dup2\n      eq\n      tag_267\n      jumpi\n      mload(0x40)\n      swap2\n      pop\n      and(add(returndatasize, 0x3f), not(0x1f))\n      dup3\n      add\n      0x40\n      mstore\n      returndatasize\n      dup3\n      mstore\n      returndatasize\n      0x00\n      0x20\n      dup5\n      add\n      returndatacopy\n      jump(tag_266)\n    tag_267:\n      0x60\n      swap2\n      pop\n    tag_266:\n      pop\n        /* \"erc721a/contracts/ERC721A.sol\":26421:26422  0 */\n      0x00\n        /* \"erc721a/contracts/ERC721A.sol\":26404:26410  reason */\n      dup2\n        /* \"erc721a/contracts/ERC721A.sol\":26404:26417  reason.length */\n      mload\n        /* \"erc721a/contracts/ERC721A.sol\":26404:26422  reason.length == 0 */\n      sub\n        /* \"erc721a/contracts/ERC721A.sol\":26400:26629  if (reason.length == 0) {... */\n      tag_268\n      jumpi\n        /* \"erc721a/contracts/ERC721A.sol\":26449:26489  TransferToNonERC721ReceiverImplementer() */\n      mload(0x40)\n      0xd1a57ed600000000000000000000000000000000000000000000000000000000\n      dup2\n      mstore\n      0x04\n      add\n      mload(0x40)\n      dup1\n      swap2\n      sub\n      swap1\n      revert\n        /* \"erc721a/contracts/ERC721A.sol\":26400:26629  if (reason.length == 0) {... */\n    tag_268:\n        /* \"erc721a/contracts/ERC721A.sol\":26589:26595  reason */\n      dup1\n        /* \"erc721a/contracts/ERC721A.sol\":26583:26596  mload(reason) */\n      mload\n        /* \"erc721a/contracts/ERC721A.sol\":26574:26580  reason */\n      dup2\n        /* \"erc721a/contracts/ERC721A.sol\":26570:26572  32 */\n      0x20\n        /* \"erc721a/contracts/ERC721A.sol\":26566:26581  add(32, reason) */\n      add\n        /* \"erc721a/contracts/ERC721A.sol\":26559:26597  revert(add(32, reason), mload(reason)) */\n      revert\n        /* \"erc721a/contracts/ERC721A.sol\":26122:26639  try ERC721A__IERC721Receiver(to).onERC721Received(_msgSenderERC721A(), from, tokenId, _data) returns (... */\n    tag_262:\n        /* \"erc721a/contracts/ERC721A.sol\":26292:26346  ERC721A__IERC721Receiver(to).onERC721Received.selector */\n      shl(0xe0, 0x150b7a02)\n        /* \"erc721a/contracts/ERC721A.sol\":26282:26346  retval == ERC721A__IERC721Receiver(to).onERC721Received.selector */\n      not(0xffffffffffffffffffffffffffffffffffffffffffffffffffffffff)\n      and\n        /* \"erc721a/contracts/ERC721A.sol\":26282:26288  retval */\n      dup2\n        /* \"erc721a/contracts/ERC721A.sol\":26282:26346  retval == ERC721A__IERC721Receiver(to).onERC721Received.selector */\n      not(0xffffffffffffffffffffffffffffffffffffffffffffffffffffffff)\n      and\n      eq\n        /* \"erc721a/contracts/ERC721A.sol\":26275:26346  return retval == ERC721A__IERC721Receiver(to).onERC721Received.selector */\n      swap2\n      pop\n      pop\n        /* \"erc721a/contracts/ERC721A.sol\":25948:26645  function _checkContractOnERC721Received(... */\n      swap5\n      swap4\n      pop\n      pop\n      pop\n      pop\n      jump\t// out\n        /* \"erc721a/contracts/ERC721A.sol\":10969:11061  function _baseURI() internal view virtual returns (string memory) {... */\n    tag_211:\n        /* \"erc721a/contracts/ERC721A.sol\":11020:11033  string memory */\n      0x60\n        /* \"erc721a/contracts/ERC721A.sol\":11045:11054  return '' */\n      mload(0x40)\n      dup1\n      0x20\n      add\n      0x40\n      mstore\n      dup1\n      0x00\n      dup2\n      mstore\n      pop\n      swap1\n      pop\n        /* \"erc721a/contracts/ERC721A.sol\":10969:11061  function _baseURI() internal view virtual returns (string memory) {... */\n      swap1\n      jump\t// out\n        /* \"erc721a/contracts/ERC721A.sol\":39637:41345  function _toString(uint256 value) internal pure virtual returns (string memory str) {... */\n    tag_215:\n        /* \"erc721a/contracts/ERC721A.sol\":39702:39719  string memory str */\n      0x60\n        /* \"erc721a/contracts/ERC721A.sol\":40130:40134  0xa0 */\n      0xa0\n        /* \"erc721a/contracts/ERC721A.sol\":40123:40127  0x40 */\n      0x40\n        /* \"erc721a/contracts/ERC721A.sol\":40117:40128  mload(0x40) */\n      mload\n        /* \"erc721a/contracts/ERC721A.sol\":40113:40135  add(mload(0x40), 0xa0) */\n      add\n        /* \"erc721a/contracts/ERC721A.sol\":40220:40221  m */\n      dup1\n        /* \"erc721a/contracts/ERC721A.sol\":40214:40218  0x40 */\n      0x40\n        /* \"erc721a/contracts/ERC721A.sol\":40207:40222  mstore(0x40, m) */\n      mstore\n        /* \"erc721a/contracts/ERC721A.sol\":40293:40297  0x20 */\n      0x20\n        /* \"erc721a/contracts/ERC721A.sol\":40290:40291  m */\n      dup2\n        /* \"erc721a/contracts/ERC721A.sol\":40286:40298  sub(m, 0x20) */\n      sub\n        /* \"erc721a/contracts/ERC721A.sol\":40279:40298  str := sub(m, 0x20) */\n      swap2\n      pop\n        /* \"erc721a/contracts/ERC721A.sol\":40373:40374  0 */\n      0x00\n        /* \"erc721a/contracts/ERC721A.sol\":40368:40371  str */\n      dup3\n        /* \"erc721a/contracts/ERC721A.sol\":40361:40375  mstore(str, 0) */\n      mstore\n        /* \"erc721a/contracts/ERC721A.sol\":40474:40477  str */\n      dup2\n        /* \"erc721a/contracts/ERC721A.sol\":40708:40713  value */\n      dup4\n        /* \"erc721a/contracts/ERC721A.sol\":40690:41109  for { let temp := value } 1 {} {... */\n    tag_273:\n        /* \"erc721a/contracts/ERC721A.sol\":40716:40717  1 */\n      0x01\n        /* \"erc721a/contracts/ERC721A.sol\":40690:41109  for { let temp := value } 1 {} {... */\n      iszero\n      tag_275\n      jumpi\n        /* \"erc721a/contracts/ERC721A.sol\":40755:40756  1 */\n      0x01\n        /* \"erc721a/contracts/ERC721A.sol\":40750:40753  str */\n      dup5\n        /* \"erc721a/contracts/ERC721A.sol\":40746:40757  sub(str, 1) */\n      sub\n        /* \"erc721a/contracts/ERC721A.sol\":40739:40757  str := sub(str, 1) */\n      swap4\n      pop\n        /* \"erc721a/contracts/ERC721A.sol\":40923:40925  10 */\n      0x0a\n        /* \"erc721a/contracts/ERC721A.sol\":40917:40921  temp */\n      dup2\n        /* \"erc721a/contracts/ERC721A.sol\":40913:40926  mod(temp, 10) */\n      mod\n        /* \"erc721a/contracts/ERC721A.sol\":40909:40911  48 */\n      0x30\n        /* \"erc721a/contracts/ERC721A.sol\":40905:40927  add(48, mod(temp, 10)) */\n      add\n        /* \"erc721a/contracts/ERC721A.sol\":40900:40903  str */\n      dup5\n        /* \"erc721a/contracts/ERC721A.sol\":40892:40928  mstore8(str, add(48, mod(temp, 10))) */\n      mstore8\n        /* \"erc721a/contracts/ERC721A.sol\":41015:41017  10 */\n      0x0a\n        /* \"erc721a/contracts/ERC721A.sol\":41009:41013  temp */\n      dup2\n        /* \"erc721a/contracts/ERC721A.sol\":41005:41018  div(temp, 10) */\n      div\n        /* \"erc721a/contracts/ERC721A.sol\":40997:41018  temp := div(temp, 10) */\n      swap1\n      pop\n        /* \"erc721a/contracts/ERC721A.sol\":41080:41084  temp */\n      dup1\n        /* \"erc721a/contracts/ERC721A.sol\":40690:41109  for { let temp := value } 1 {} {... */\n      tag_273\n        /* \"erc721a/contracts/ERC721A.sol\":41070:41095  if iszero(temp) { break } */\n      jumpi\n        /* \"erc721a/contracts/ERC721A.sol\":40690:41109  for { let temp := value } 1 {} {... */\n    tag_275:\n        /* \"erc721a/contracts/ERC721A.sol\":40694:40715  { let temp := value } */\n      pop\n        /* \"erc721a/contracts/ERC721A.sol\":41146:41149  str */\n      dup3\n        /* \"erc721a/contracts/ERC721A.sol\":41141:41144  end */\n      dup2\n        /* \"erc721a/contracts/ERC721A.sol\":41137:41150  sub(end, str) */\n      sub\n        /* \"erc721a/contracts/ERC721A.sol\":41259:41263  0x20 */\n      0x20\n        /* \"erc721a/contracts/ERC721A.sol\":41254:41257  str */\n      dup5\n        /* \"erc721a/contracts/ERC721A.sol\":41250:41264  sub(str, 0x20) */\n      sub\n        /* \"erc721a/contracts/ERC721A.sol\":41243:41264  str := sub(str, 0x20) */\n      swap4\n      pop\n        /* \"erc721a/contracts/ERC721A.sol\":41322:41328  length */\n      dup1\n        /* \"erc721a/contracts/ERC721A.sol\":41317:41320  str */\n      dup5\n        /* \"erc721a/contracts/ERC721A.sol\":41310:41329  mstore(str, length) */\n      mstore\n        /* \"erc721a/contracts/ERC721A.sol\":39740:41339  {... */\n      pop\n      pop\n      pop\n        /* \"erc721a/contracts/ERC721A.sol\":39637:41345  function _toString(uint256 value) internal pure virtual returns (string memory str) {... */\n      swap2\n      swap1\n      pop\n      jump\t// out\n        /* \"erc721a/contracts/ERC721A.sol\":38475:38618  function _extraData(... */\n    tag_244:\n        /* \"erc721a/contracts/ERC721A.sol\":38608:38614  uint24 */\n      0x00\n        /* \"erc721a/contracts/ERC721A.sol\":38475:38618  function _extraData(... */\n      swap4\n      swap3\n      pop\n      pop\n      pop\n      jump\t// out\n        /* \"@openzeppelin/contracts/utils/Context.sol\":640:736  function _msgSender() internal view virtual returns (address) {... */\n    tag_249:\n        /* \"@openzeppelin/contracts/utils/Context.sol\":693:700  address */\n      0x00\n        /* \"@openzeppelin/contracts/utils/Context.sol\":719:729  msg.sender */\n      caller\n        /* \"@openzeppelin/contracts/utils/Context.sol\":712:729  return msg.sender */\n      swap1\n      pop\n        /* \"@openzeppelin/contracts/utils/Context.sol\":640:736  function _msgSender() internal view virtual returns (address) {... */\n      swap1\n      jump\t// out\n        /* \"#utility.yul\":7:82   */\n    tag_279:\n        /* \"#utility.yul\":40:46   */\n      0x00\n        /* \"#utility.yul\":73:75   */\n      0x40\n        /* \"#utility.yul\":67:76   */\n      mload\n        /* \"#utility.yul\":57:76   */\n      swap1\n      pop\n        /* \"#utility.yul\":7:82   */\n      swap1\n      jump\t// out\n        /* \"#utility.yul\":88:205   */\n    tag_280:\n        /* \"#utility.yul\":197:198   */\n      0x00\n        /* \"#utility.yul\":194:195   */\n      dup1\n        /* \"#utility.yul\":187:199   */\n      revert\n        /* \"#utility.yul\":211:328   */\n    tag_281:\n        /* \"#utility.yul\":320:321   */\n      0x00\n        /* \"#utility.yul\":317:318   */\n      dup1\n        /* \"#utility.yul\":310:322   */\n      revert\n        /* \"#utility.yul\":334:483   */\n    tag_282:\n        /* \"#utility.yul\":370:377   */\n      0x00\n        /* \"#utility.yul\":410:476   */\n      0xffffffff00000000000000000000000000000000000000000000000000000000\n        /* \"#utility.yul\":403:408   */\n      dup3\n        /* \"#utility.yul\":399:477   */\n      and\n        /* \"#utility.yul\":388:477   */\n      swap1\n      pop\n        /* \"#utility.yul\":334:483   */\n      swap2\n      swap1\n      pop\n      jump\t// out\n        /* \"#utility.yul\":489:609   */\n    tag_283:\n        /* \"#utility.yul\":561:584   */\n      tag_330\n        /* \"#utility.yul\":578:583   */\n      dup2\n        /* \"#utility.yul\":561:584   */\n      tag_282\n      jump\t// in\n    tag_330:\n        /* \"#utility.yul\":554:559   */\n      dup2\n        /* \"#utility.yul\":551:585   */\n      eq\n        /* \"#utility.yul\":541:603   */\n      tag_331\n      jumpi\n        /* \"#utility.yul\":599:600   */\n      0x00\n        /* \"#utility.yul\":596:597   */\n      dup1\n        /* \"#utility.yul\":589:601   */\n      revert\n        /* \"#utility.yul\":541:603   */\n    tag_331:\n        /* \"#utility.yul\":489:609   */\n      pop\n      jump\t// out\n        /* \"#utility.yul\":615:752   */\n    tag_284:\n        /* \"#utility.yul\":660:665   */\n      0x00\n        /* \"#utility.yul\":698:704   */\n      dup2\n        /* \"#utility.yul\":685:705   */\n      calldataload\n        /* \"#utility.yul\":676:705   */\n      swap1\n      pop\n        /* \"#utility.yul\":714:746   */\n      tag_333\n        /* \"#utility.yul\":740:745   */\n      dup2\n        /* \"#utility.yul\":714:746   */\n      tag_283\n      jump\t// in\n    tag_333:\n        /* \"#utility.yul\":615:752   */\n      swap3\n      swap2\n      pop\n      pop\n      jump\t// out\n        /* \"#utility.yul\":758:1085   */\n    tag_28:\n        /* \"#utility.yul\":816:822   */\n      0x00\n        /* \"#utility.yul\":865:867   */\n      0x20\n        /* \"#utility.yul\":853:862   */\n      dup3\n        /* \"#utility.yul\":844:851   */\n      dup5\n        /* \"#utility.yul\":840:863   */\n      sub\n        /* \"#utility.yul\":836:868   */\n      slt\n        /* \"#utility.yul\":833:952   */\n      iszero\n      tag_335\n      jumpi\n        /* \"#utility.yul\":871:950   */\n      tag_336\n      tag_280\n      jump\t// in\n    tag_336:\n        /* \"#utility.yul\":833:952   */\n    tag_335:\n        /* \"#utility.yul\":991:992   */\n      0x00\n        /* \"#utility.yul\":1016:1068   */\n      tag_337\n        /* \"#utility.yul\":1060:1067   */\n      dup5\n        /* \"#utility.yul\":1051:1057   */\n      dup3\n        /* \"#utility.yul\":1040:1049   */\n      dup6\n        /* \"#utility.yul\":1036:1058   */\n      add\n        /* \"#utility.yul\":1016:1068   */\n      tag_284\n      jump\t// in\n    tag_337:\n        /* \"#utility.yul\":1006:1068   */\n      swap2\n      pop\n        /* \"#utility.yul\":962:1078   */\n      pop\n        /* \"#utility.yul\":758:1085   */\n      swap3\n      swap2\n      pop\n      pop\n      jump\t// out\n        /* \"#utility.yul\":1091:1181   */\n    tag_285:\n        /* \"#utility.yul\":1125:1132   */\n      0x00\n        /* \"#utility.yul\":1168:1173   */\n      dup2\n        /* \"#utility.yul\":1161:1174   */\n      iszero\n        /* \"#utility.yul\":1154:1175   */\n      iszero\n        /* \"#utility.yul\":1143:1175   */\n      swap1\n      pop\n        /* \"#utility.yul\":1091:1181   */\n      swap2\n      swap1\n      pop\n      jump\t// out\n        /* \"#utility.yul\":1187:1296   */\n    tag_286:\n        /* \"#utility.yul\":1268:1289   */\n      tag_340\n        /* \"#utility.yul\":1283:1288   */\n      dup2\n        /* \"#utility.yul\":1268:1289   */\n      tag_285\n      jump\t// in\n    tag_340:\n        /* \"#utility.yul\":1263:1266   */\n      dup3\n        /* \"#utility.yul\":1256:1290   */\n      mstore\n        /* \"#utility.yul\":1187:1296   */\n      pop\n      pop\n      jump\t// out\n        /* \"#utility.yul\":1302:1512   */\n    tag_31:\n        /* \"#utility.yul\":1389:1393   */\n      0x00\n        /* \"#utility.yul\":1427:1429   */\n      0x20\n        /* \"#utility.yul\":1416:1425   */\n      dup3\n        /* \"#utility.yul\":1412:1430   */\n      add\n        /* \"#utility.yul\":1404:1430   */\n      swap1\n      pop\n        /* \"#utility.yul\":1440:1505   */\n      tag_342\n        /* \"#utility.yul\":1502:1503   */\n      0x00\n        /* \"#utility.yul\":1491:1500   */\n      dup4\n        /* \"#utility.yul\":1487:1504   */\n      add\n        /* \"#utility.yul\":1478:1484   */\n      dup5\n        /* \"#utility.yul\":1440:1505   */\n      tag_286\n      jump\t// in\n    tag_342:\n        /* \"#utility.yul\":1302:1512   */\n      swap3\n      swap2\n      pop\n      pop\n      jump\t// out\n        /* \"#utility.yul\":1518:1617   */\n    tag_287:\n        /* \"#utility.yul\":1570:1576   */\n      0x00\n        /* \"#utility.yul\":1604:1609   */\n      dup2\n        /* \"#utility.yul\":1598:1610   */\n      mload\n        /* \"#utility.yul\":1588:1610   */\n      swap1\n      pop\n        /* \"#utility.yul\":1518:1617   */\n      swap2\n      swap1\n      pop\n      jump\t// out\n        /* \"#utility.yul\":1623:1792   */\n    tag_288:\n        /* \"#utility.yul\":1707:1718   */\n      0x00\n        /* \"#utility.yul\":1741:1747   */\n      dup3\n        /* \"#utility.yul\":1736:1739   */\n      dup3\n        /* \"#utility.yul\":1729:1748   */\n      mstore\n        /* \"#utility.yul\":1781:1785   */\n      0x20\n        /* \"#utility.yul\":1776:1779   */\n      dup3\n        /* \"#utility.yul\":1772:1786   */\n      add\n        /* \"#utility.yul\":1757:1786   */\n      swap1\n      pop\n        /* \"#utility.yul\":1623:1792   */\n      swap3\n      swap2\n      pop\n      pop\n      jump\t// out\n        /* \"#utility.yul\":1798:2044   */\n    tag_289:\n        /* \"#utility.yul\":1879:1880   */\n      0x00\n        /* \"#utility.yul\":1889:2002   */\n    tag_346:\n        /* \"#utility.yul\":1903:1909   */\n      dup4\n        /* \"#utility.yul\":1900:1901   */\n      dup2\n        /* \"#utility.yul\":1897:1910   */\n      lt\n        /* \"#utility.yul\":1889:2002   */\n      iszero\n      tag_348\n      jumpi\n        /* \"#utility.yul\":1988:1989   */\n      dup1\n        /* \"#utility.yul\":1983:1986   */\n      dup3\n        /* \"#utility.yul\":1979:1990   */\n      add\n        /* \"#utility.yul\":1973:1991   */\n      mload\n        /* \"#utility.yul\":1969:1970   */\n      dup2\n        /* \"#utility.yul\":1964:1967   */\n      dup5\n        /* \"#utility.yul\":1960:1971   */\n      add\n        /* \"#utility.yul\":1953:1992   */\n      mstore\n        /* \"#utility.yul\":1925:1927   */\n      0x20\n        /* \"#utility.yul\":1922:1923   */\n      dup2\n        /* \"#utility.yul\":1918:1928   */\n      add\n        /* \"#utility.yul\":1913:1928   */\n      swap1\n      pop\n        /* \"#utility.yul\":1889:2002   */\n      jump(tag_346)\n    tag_348:\n        /* \"#utility.yul\":2036:2037   */\n      0x00\n        /* \"#utility.yul\":2027:2033   */\n      dup5\n        /* \"#utility.yul\":2022:2025   */\n      dup5\n        /* \"#utility.yul\":2018:2034   */\n      add\n        /* \"#utility.yul\":2011:2038   */\n      mstore\n        /* \"#utility.yul\":1860:2044   */\n      pop\n        /* \"#utility.yul\":1798:2044   */\n      pop\n      pop\n      pop\n      jump\t// out\n        /* \"#utility.yul\":2050:2152   */\n    tag_290:\n        /* \"#utility.yul\":2091:2097   */\n      0x00\n        /* \"#utility.yul\":2142:2144   */\n      0x1f\n        /* \"#utility.yul\":2138:2145   */\n      not\n        /* \"#utility.yul\":2133:2135   */\n      0x1f\n        /* \"#utility.yul\":2126:2131   */\n      dup4\n        /* \"#utility.yul\":2122:2136   */\n      add\n        /* \"#utility.yul\":2118:2146   */\n      and\n        /* \"#utility.yul\":2108:2146   */\n      swap1\n      pop\n        /* \"#utility.yul\":2050:2152   */\n      swap2\n      swap1\n      pop\n      jump\t// out\n        /* \"#utility.yul\":2158:2535   */\n    tag_291:\n        /* \"#utility.yul\":2246:2249   */\n      0x00\n        /* \"#utility.yul\":2274:2313   */\n      tag_351\n        /* \"#utility.yul\":2307:2312   */\n      dup3\n        /* \"#utility.yul\":2274:2313   */\n      tag_287\n      jump\t// in\n    tag_351:\n        /* \"#utility.yul\":2329:2400   */\n      tag_352\n        /* \"#utility.yul\":2393:2399   */\n      dup2\n        /* \"#utility.yul\":2388:2391   */\n      dup6\n        /* \"#utility.yul\":2329:2400   */\n      tag_288\n      jump\t// in\n    tag_352:\n        /* \"#utility.yul\":2322:2400   */\n      swap4\n      pop\n        /* \"#utility.yul\":2409:2474   */\n      tag_353\n        /* \"#utility.yul\":2467:2473   */\n      dup2\n        /* \"#utility.yul\":2462:2465   */\n      dup6\n        /* \"#utility.yul\":2455:2459   */\n      0x20\n        /* \"#utility.yul\":2448:2453   */\n      dup7\n        /* \"#utility.yul\":2444:2460   */\n      add\n        /* \"#utility.yul\":2409:2474   */\n      tag_289\n      jump\t// in\n    tag_353:\n        /* \"#utility.yul\":2499:2528   */\n      tag_354\n        /* \"#utility.yul\":2521:2527   */\n      dup2\n        /* \"#utility.yul\":2499:2528   */\n      tag_290\n      jump\t// in\n    tag_354:\n        /* \"#utility.yul\":2494:2497   */\n      dup5\n        /* \"#utility.yul\":2490:2529   */\n      add\n        /* \"#utility.yul\":2483:2529   */\n      swap2\n      pop\n        /* \"#utility.yul\":2250:2535   */\n      pop\n        /* \"#utility.yul\":2158:2535   */\n      swap3\n      swap2\n      pop\n      pop\n      jump\t// out\n        /* \"#utility.yul\":2541:2854   */\n    tag_36:\n        /* \"#utility.yul\":2654:2658   */\n      0x00\n        /* \"#utility.yul\":2692:2694   */\n      0x20\n        /* \"#utility.yul\":2681:2690   */\n      dup3\n        /* \"#utility.yul\":2677:2695   */\n      add\n        /* \"#utility.yul\":2669:2695   */\n      swap1\n      pop\n        /* \"#utility.yul\":2741:2750   */\n      dup2\n        /* \"#utility.yul\":2735:2739   */\n      dup2\n        /* \"#utility.yul\":2731:2751   */\n      sub\n        /* \"#utility.yul\":2727:2728   */\n      0x00\n        /* \"#utility.yul\":2716:2725   */\n      dup4\n        /* \"#utility.yul\":2712:2729   */\n      add\n        /* \"#utility.yul\":2705:2752   */\n      mstore\n        /* \"#utility.yul\":2769:2847   */\n      tag_356\n        /* \"#utility.yul\":2842:2846   */\n      dup2\n        /* \"#utility.yul\":2833:2839   */\n      dup5\n        /* \"#utility.yul\":2769:2847   */\n      tag_291\n      jump\t// in\n    tag_356:\n        /* \"#utility.yul\":2761:2847   */\n      swap1\n      pop\n        /* \"#utility.yul\":2541:2854   */\n      swap3\n      swap2\n      pop\n      pop\n      jump\t// out\n        /* \"#utility.yul\":2860:2937   */\n    tag_292:\n        /* \"#utility.yul\":2897:2904   */\n      0x00\n        /* \"#utility.yul\":2926:2931   */\n      dup2\n        /* \"#utility.yul\":2915:2931   */\n      swap1\n      pop\n        /* \"#utility.yul\":2860:2937   */\n      swap2\n      swap1\n      pop\n      jump\t// out\n        /* \"#utility.yul\":2943:3065   */\n    tag_293:\n        /* \"#utility.yul\":3016:3040   */\n      tag_359\n        /* \"#utility.yul\":3034:3039   */\n      dup2\n        /* \"#utility.yul\":3016:3040   */\n      tag_292\n      jump\t// in\n    tag_359:\n        /* \"#utility.yul\":3009:3014   */\n      dup2\n        /* \"#utility.yul\":3006:3041   */\n      eq\n        /* \"#utility.yul\":2996:3059   */\n      tag_360\n      jumpi\n        /* \"#utility.yul\":3055:3056   */\n      0x00\n        /* \"#utility.yul\":3052:3053   */\n      dup1\n        /* \"#utility.yul\":3045:3057   */\n      revert\n        /* \"#utility.yul\":2996:3059   */\n    tag_360:\n        /* \"#utility.yul\":2943:3065   */\n      pop\n      jump\t// out\n        /* \"#utility.yul\":3071:3210   */\n    tag_294:\n        /* \"#utility.yul\":3117:3122   */\n      0x00\n        /* \"#utility.yul\":3155:3161   */\n      dup2\n        /* \"#utility.yul\":3142:3162   */\n      calldataload\n        /* \"#utility.yul\":3133:3162   */\n      swap1\n      pop\n        /* \"#utility.yul\":3171:3204   */\n      tag_362\n        /* \"#utility.yul\":3198:3203   */\n      dup2\n        /* \"#utility.yul\":3171:3204   */\n      tag_293\n      jump\t// in\n    tag_362:\n        /* \"#utility.yul\":3071:3210   */\n      swap3\n      swap2\n      pop\n      pop\n      jump\t// out\n        /* \"#utility.yul\":3216:3545   */\n    tag_40:\n        /* \"#utility.yul\":3275:3281   */\n      0x00\n        /* \"#utility.yul\":3324:3326   */\n      0x20\n        /* \"#utility.yul\":3312:3321   */\n      dup3\n        /* \"#utility.yul\":3303:3310   */\n      dup5\n        /* \"#utility.yul\":3299:3322   */\n      sub\n        /* \"#utility.yul\":3295:3327   */\n      slt\n        /* \"#utility.yul\":3292:3411   */\n      iszero\n      tag_364\n      jumpi\n        /* \"#utility.yul\":3330:3409   */\n      tag_365\n      tag_280\n      jump\t// in\n    tag_365:\n        /* \"#utility.yul\":3292:3411   */\n    tag_364:\n        /* \"#utility.yul\":3450:3451   */\n      0x00\n        /* \"#utility.yul\":3475:3528   */\n      tag_366\n        /* \"#utility.yul\":3520:3527   */\n      dup5\n        /* \"#utility.yul\":3511:3517   */\n      dup3\n        /* \"#utility.yul\":3500:3509   */\n      dup6\n        /* \"#utility.yul\":3496:3518   */\n      add\n        /* \"#utility.yul\":3475:3528   */\n      tag_294\n      jump\t// in\n    tag_366:\n        /* \"#utility.yul\":3465:3528   */\n      swap2\n      pop\n        /* \"#utility.yul\":3421:3538   */\n      pop\n        /* \"#utility.yul\":3216:3545   */\n      swap3\n      swap2\n      pop\n      pop\n      jump\t// out\n        /* \"#utility.yul\":3551:3677   */\n    tag_295:\n        /* \"#utility.yul\":3588:3595   */\n      0x00\n        /* \"#utility.yul\":3628:3670   */\n      0xffffffffffffffffffffffffffffffffffffffff\n        /* \"#utility.yul\":3621:3626   */\n      dup3\n        /* \"#utility.yul\":3617:3671   */\n      and\n        /* \"#utility.yul\":3606:3671   */\n      swap1\n      pop\n        /* \"#utility.yul\":3551:3677   */\n      swap2\n      swap1\n      pop\n      jump\t// out\n        /* \"#utility.yul\":3683:3779   */\n    tag_296:\n        /* \"#utility.yul\":3720:3727   */\n      0x00\n        /* \"#utility.yul\":3749:3773   */\n      tag_369\n        /* \"#utility.yul\":3767:3772   */\n      dup3\n        /* \"#utility.yul\":3749:3773   */\n      tag_295\n      jump\t// in\n    tag_369:\n        /* \"#utility.yul\":3738:3773   */\n      swap1\n      pop\n        /* \"#utility.yul\":3683:3779   */\n      swap2\n      swap1\n      pop\n      jump\t// out\n        /* \"#utility.yul\":3785:3903   */\n    tag_297:\n        /* \"#utility.yul\":3872:3896   */\n      tag_371\n        /* \"#utility.yul\":3890:3895   */\n      dup2\n        /* \"#utility.yul\":3872:3896   */\n      tag_296\n      jump\t// in\n    tag_371:\n        /* \"#utility.yul\":3867:3870   */\n      dup3\n        /* \"#utility.yul\":3860:3897   */\n      mstore\n        /* \"#utility.yul\":3785:3903   */\n      pop\n      pop\n      jump\t// out\n        /* \"#utility.yul\":3909:4131   */\n    tag_43:\n        /* \"#utility.yul\":4002:4006   */\n      0x00\n        /* \"#utility.yul\":4040:4042   */\n      0x20\n        /* \"#utility.yul\":4029:4038   */\n      dup3\n        /* \"#utility.yul\":4025:4043   */\n      add\n        /* \"#utility.yul\":4017:4043   */\n      swap1\n      pop\n        /* \"#utility.yul\":4053:4124   */\n      tag_373\n        /* \"#utility.yul\":4121:4122   */\n      0x00\n        /* \"#utility.yul\":4110:4119   */\n      dup4\n        /* \"#utility.yul\":4106:4123   */\n      add\n        /* \"#utility.yul\":4097:4103   */\n      dup5\n        /* \"#utility.yul\":4053:4124   */\n      tag_297\n      jump\t// in\n    tag_373:\n        /* \"#utility.yul\":3909:4131   */\n      swap3\n      swap2\n      pop\n      pop\n      jump\t// out\n        /* \"#utility.yul\":4137:4259   */\n    tag_298:\n        /* \"#utility.yul\":4210:4234   */\n      tag_375\n        /* \"#utility.yul\":4228:4233   */\n      dup2\n        /* \"#utility.yul\":4210:4234   */\n      tag_296\n      jump\t// in\n    tag_375:\n        /* \"#utility.yul\":4203:4208   */\n      dup2\n        /* \"#utility.yul\":4200:4235   */\n      eq\n        /* \"#utility.yul\":4190:4253   */\n      tag_376\n      jumpi\n        /* \"#utility.yul\":4249:4250   */\n      0x00\n        /* \"#utility.yul\":4246:4247   */\n      dup1\n        /* \"#utility.yul\":4239:4251   */\n      revert\n        /* \"#utility.yul\":4190:4253   */\n    tag_376:\n        /* \"#utility.yul\":4137:4259   */\n      pop\n      jump\t// out\n        /* \"#utility.yul\":4265:4404   */\n    tag_299:\n        /* \"#utility.yul\":4311:4316   */\n      0x00\n        /* \"#utility.yul\":4349:4355   */\n      dup2\n        /* \"#utility.yul\":4336:4356   */\n      calldataload\n        /* \"#utility.yul\":4327:4356   */\n      swap1\n      pop\n        /* \"#utility.yul\":4365:4398   */\n      tag_378\n        /* \"#utility.yul\":4392:4397   */\n      dup2\n        /* \"#utility.yul\":4365:4398   */\n      tag_298\n      jump\t// in\n    tag_378:\n        /* \"#utility.yul\":4265:4404   */\n      swap3\n      swap2\n      pop\n      pop\n      jump\t// out\n        /* \"#utility.yul\":4410:4884   */\n    tag_46:\n        /* \"#utility.yul\":4478:4484   */\n      0x00\n        /* \"#utility.yul\":4486:4492   */\n      dup1\n        /* \"#utility.yul\":4535:4537   */\n      0x40\n        /* \"#utility.yul\":4523:4532   */\n      dup4\n        /* \"#utility.yul\":4514:4521   */\n      dup6\n        /* \"#utility.yul\":4510:4533   */\n      sub\n        /* \"#utility.yul\":4506:4538   */\n      slt\n        /* \"#utility.yul\":4503:4622   */\n      iszero\n      tag_380\n      jumpi\n        /* \"#utility.yul\":4541:4620   */\n      tag_381\n      tag_280\n      jump\t// in\n    tag_381:\n        /* \"#utility.yul\":4503:4622   */\n    tag_380:\n        /* \"#utility.yul\":4661:4662   */\n      0x00\n        /* \"#utility.yul\":4686:4739   */\n      tag_382\n        /* \"#utility.yul\":4731:4738   */\n      dup6\n        /* \"#utility.yul\":4722:4728   */\n      dup3\n        /* \"#utility.yul\":4711:4720   */\n      dup7\n        /* \"#utility.yul\":4707:4729   */\n      add\n        /* \"#utility.yul\":4686:4739   */\n      tag_299\n      jump\t// in\n    tag_382:\n        /* \"#utility.yul\":4676:4739   */\n      swap3\n      pop\n        /* \"#utility.yul\":4632:4749   */\n      pop\n        /* \"#utility.yul\":4788:4790   */\n      0x20\n        /* \"#utility.yul\":4814:4867   */\n      tag_383\n        /* \"#utility.yul\":4859:4866   */\n      dup6\n        /* \"#utility.yul\":4850:4856   */\n      dup3\n        /* \"#utility.yul\":4839:4848   */\n      dup7\n        /* \"#utility.yul\":4835:4857   */\n      add\n        /* \"#utility.yul\":4814:4867   */\n      tag_294\n      jump\t// in\n    tag_383:\n        /* \"#utility.yul\":4804:4867   */\n      swap2\n      pop\n        /* \"#utility.yul\":4759:4877   */\n      pop\n        /* \"#utility.yul\":4410:4884   */\n      swap3\n      pop\n      swap3\n      swap1\n      pop\n      jump\t// out\n        /* \"#utility.yul\":4890:5008   */\n    tag_300:\n        /* \"#utility.yul\":4977:5001   */\n      tag_385\n        /* \"#utility.yul\":4995:5000   */\n      dup2\n        /* \"#utility.yul\":4977:5001   */\n      tag_292\n      jump\t// in\n    tag_385:\n        /* \"#utility.yul\":4972:4975   */\n      dup3\n        /* \"#utility.yul\":4965:5002   */\n      mstore\n        /* \"#utility.yul\":4890:5008   */\n      pop\n      pop\n      jump\t// out\n        /* \"#utility.yul\":5014:5236   */\n    tag_52:\n        /* \"#utility.yul\":5107:5111   */\n      0x00\n        /* \"#utility.yul\":5145:5147   */\n      0x20\n        /* \"#utility.yul\":5134:5143   */\n      dup3\n        /* \"#utility.yul\":5130:5148   */\n      add\n        /* \"#utility.yul\":5122:5148   */\n      swap1\n      pop\n        /* \"#utility.yul\":5158:5229   */\n      tag_387\n        /* \"#utility.yul\":5226:5227   */\n      0x00\n        /* \"#utility.yul\":5215:5224   */\n      dup4\n        /* \"#utility.yul\":5211:5228   */\n      add\n        /* \"#utility.yul\":5202:5208   */\n      dup5\n        /* \"#utility.yul\":5158:5229   */\n      tag_300\n      jump\t// in\n    tag_387:\n        /* \"#utility.yul\":5014:5236   */\n      swap3\n      swap2\n      pop\n      pop\n      jump\t// out\n        /* \"#utility.yul\":5242:5861   */\n    tag_55:\n        /* \"#utility.yul\":5319:5325   */\n      0x00\n        /* \"#utility.yul\":5327:5333   */\n      dup1\n        /* \"#utility.yul\":5335:5341   */\n      0x00\n        /* \"#utility.yul\":5384:5386   */\n      0x60\n        /* \"#utility.yul\":5372:5381   */\n      dup5\n        /* \"#utility.yul\":5363:5370   */\n      dup7\n        /* \"#utility.yul\":5359:5382   */\n      sub\n        /* \"#utility.yul\":5355:5387   */\n      slt\n        /* \"#utility.yul\":5352:5471   */\n      iszero\n      tag_389\n      jumpi\n        /* \"#utility.yul\":5390:5469   */\n      tag_390\n      tag_280\n      jump\t// in\n    tag_390:\n        /* \"#utility.yul\":5352:5471   */\n    tag_389:\n        /* \"#utility.yul\":5510:5511   */\n      0x00\n        /* \"#utility.yul\":5535:5588   */\n      tag_391\n        /* \"#utility.yul\":5580:5587   */\n      dup7\n        /* \"#utility.yul\":5571:5577   */\n      dup3\n        /* \"#utility.yul\":5560:5569   */\n      dup8\n        /* \"#utility.yul\":5556:5578   */\n      add\n        /* \"#utility.yul\":5535:5588   */\n      tag_299\n      jump\t// in\n    tag_391:\n        /* \"#utility.yul\":5525:5588   */\n      swap4\n      pop\n        /* \"#utility.yul\":5481:5598   */\n      pop\n        /* \"#utility.yul\":5637:5639   */\n      0x20\n        /* \"#utility.yul\":5663:5716   */\n      tag_392\n        /* \"#utility.yul\":5708:5715   */\n      dup7\n        /* \"#utility.yul\":5699:5705   */\n      dup3\n        /* \"#utility.yul\":5688:5697   */\n      dup8\n        /* \"#utility.yul\":5684:5706   */\n      add\n        /* \"#utility.yul\":5663:5716   */\n      tag_299\n      jump\t// in\n    tag_392:\n        /* \"#utility.yul\":5653:5716   */\n      swap3\n      pop\n        /* \"#utility.yul\":5608:5726   */\n      pop\n        /* \"#utility.yul\":5765:5767   */\n      0x40\n        /* \"#utility.yul\":5791:5844   */\n      tag_393\n        /* \"#utility.yul\":5836:5843   */\n      dup7\n        /* \"#utility.yul\":5827:5833   */\n      dup3\n        /* \"#utility.yul\":5816:5825   */\n      dup8\n        /* \"#utility.yul\":5812:5834   */\n      add\n        /* \"#utility.yul\":5791:5844   */\n      tag_294\n      jump\t// in\n    tag_393:\n        /* \"#utility.yul\":5781:5844   */\n      swap2\n      pop\n        /* \"#utility.yul\":5736:5854   */\n      pop\n        /* \"#utility.yul\":5242:5861   */\n      swap3\n      pop\n      swap3\n      pop\n      swap3\n      jump\t// out\n        /* \"#utility.yul\":5867:6196   */\n    tag_63:\n        /* \"#utility.yul\":5926:5932   */\n      0x00\n        /* \"#utility.yul\":5975:5977   */\n      0x20\n        /* \"#utility.yul\":5963:5972   */\n      dup3\n        /* \"#utility.yul\":5954:5961   */\n      dup5\n        /* \"#utility.yul\":5950:5973   */\n      sub\n        /* \"#utility.yul\":5946:5978   */\n      slt\n        /* \"#utility.yul\":5943:6062   */\n      iszero\n      tag_395\n      jumpi\n        /* \"#utility.yul\":5981:6060   */\n      tag_396\n      tag_280\n      jump\t// in\n    tag_396:\n        /* \"#utility.yul\":5943:6062   */\n    tag_395:\n        /* \"#utility.yul\":6101:6102   */\n      0x00\n        /* \"#utility.yul\":6126:6179   */\n      tag_397\n        /* \"#utility.yul\":6171:6178   */\n      dup5\n        /* \"#utility.yul\":6162:6168   */\n      dup3\n        /* \"#utility.yul\":6151:6160   */\n      dup6\n        /* \"#utility.yul\":6147:6169   */\n      add\n        /* \"#utility.yul\":6126:6179   */\n      tag_299\n      jump\t// in\n    tag_397:\n        /* \"#utility.yul\":6116:6179   */\n      swap2\n      pop\n        /* \"#utility.yul\":6072:6189   */\n      pop\n        /* \"#utility.yul\":5867:6196   */\n      swap3\n      swap2\n      pop\n      pop\n      jump\t// out\n        /* \"#utility.yul\":6202:6318   */\n    tag_301:\n        /* \"#utility.yul\":6272:6293   */\n      tag_399\n        /* \"#utility.yul\":6287:6292   */\n      dup2\n        /* \"#utility.yul\":6272:6293   */\n      tag_285\n      jump\t// in\n    tag_399:\n        /* \"#utility.yul\":6265:6270   */\n      dup2\n        /* \"#utility.yul\":6262:6294   */\n      eq\n        /* \"#utility.yul\":6252:6312   */\n      tag_400\n      jumpi\n        /* \"#utility.yul\":6308:6309   */\n      0x00\n        /* \"#utility.yul\":6305:6306   */\n      dup1\n        /* \"#utility.yul\":6298:6310   */\n      revert\n        /* \"#utility.yul\":6252:6312   */\n    tag_400:\n        /* \"#utility.yul\":6202:6318   */\n      pop\n      jump\t// out\n        /* \"#utility.yul\":6324:6457   */\n    tag_302:\n        /* \"#utility.yul\":6367:6372   */\n      0x00\n        /* \"#utility.yul\":6405:6411   */\n      dup2\n        /* \"#utility.yul\":6392:6412   */\n      calldataload\n        /* \"#utility.yul\":6383:6412   */\n      swap1\n      pop\n        /* \"#utility.yul\":6421:6451   */\n      tag_402\n        /* \"#utility.yul\":6445:6450   */\n      dup2\n        /* \"#utility.yul\":6421:6451   */\n      tag_301\n      jump\t// in\n    tag_402:\n        /* \"#utility.yul\":6324:6457   */\n      swap3\n      swap2\n      pop\n      pop\n      jump\t// out\n        /* \"#utility.yul\":6463:6931   */\n    tag_97:\n        /* \"#utility.yul\":6528:6534   */\n      0x00\n        /* \"#utility.yul\":6536:6542   */\n      dup1\n        /* \"#utility.yul\":6585:6587   */\n      0x40\n        /* \"#utility.yul\":6573:6582   */\n      dup4\n        /* \"#utility.yul\":6564:6571   */\n      dup6\n        /* \"#utility.yul\":6560:6583   */\n      sub\n        /* \"#utility.yul\":6556:6588   */\n      slt\n        /* \"#utility.yul\":6553:6672   */\n      iszero\n      tag_404\n      jumpi\n        /* \"#utility.yul\":6591:6670   */\n      tag_405\n      tag_280\n      jump\t// in\n    tag_405:\n        /* \"#utility.yul\":6553:6672   */\n    tag_404:\n        /* \"#utility.yul\":6711:6712   */\n      0x00\n        /* \"#utility.yul\":6736:6789   */\n      tag_406\n        /* \"#utility.yul\":6781:6788   */\n      dup6\n        /* \"#utility.yul\":6772:6778   */\n      dup3\n        /* \"#utility.yul\":6761:6770   */\n      dup7\n        /* \"#utility.yul\":6757:6779   */\n      add\n        /* \"#utility.yul\":6736:6789   */\n      tag_299\n      jump\t// in\n    tag_406:\n        /* \"#utility.yul\":6726:6789   */\n      swap3\n      pop\n        /* \"#utility.yul\":6682:6799   */\n      pop\n        /* \"#utility.yul\":6838:6840   */\n      0x20\n        /* \"#utility.yul\":6864:6914   */\n      tag_407\n        /* \"#utility.yul\":6906:6913   */\n      dup6\n        /* \"#utility.yul\":6897:6903   */\n      dup3\n        /* \"#utility.yul\":6886:6895   */\n      dup7\n        /* \"#utility.yul\":6882:6904   */\n      add\n        /* \"#utility.yul\":6864:6914   */\n      tag_302\n      jump\t// in\n    tag_407:\n        /* \"#utility.yul\":6854:6914   */\n      swap2\n      pop\n        /* \"#utility.yul\":6809:6924   */\n      pop\n        /* \"#utility.yul\":6463:6931   */\n      swap3\n      pop\n      swap3\n      swap1\n      pop\n      jump\t// out\n        /* \"#utility.yul\":6937:7054   */\n    tag_303:\n        /* \"#utility.yul\":7046:7047   */\n      0x00\n        /* \"#utility.yul\":7043:7044   */\n      dup1\n        /* \"#utility.yul\":7036:7048   */\n      revert\n        /* \"#utility.yul\":7060:7177   */\n    tag_304:\n        /* \"#utility.yul\":7169:7170   */\n      0x00\n        /* \"#utility.yul\":7166:7167   */\n      dup1\n        /* \"#utility.yul\":7159:7171   */\n      revert\n        /* \"#utility.yul\":7183:7363   */\n    tag_305:\n        /* \"#utility.yul\":7231:7308   */\n      0x4e487b7100000000000000000000000000000000000000000000000000000000\n        /* \"#utility.yul\":7228:7229   */\n      0x00\n        /* \"#utility.yul\":7221:7309   */\n      mstore\n        /* \"#utility.yul\":7328:7332   */\n      0x41\n        /* \"#utility.yul\":7325:7326   */\n      0x04\n        /* \"#utility.yul\":7318:7333   */\n      mstore\n        /* \"#utility.yul\":7352:7356   */\n      0x24\n        /* \"#utility.yul\":7349:7350   */\n      0x00\n        /* \"#utility.yul\":7342:7357   */\n      revert\n        /* \"#utility.yul\":7369:7650   */\n    tag_306:\n        /* \"#utility.yul\":7452:7479   */\n      tag_412\n        /* \"#utility.yul\":7474:7478   */\n      dup3\n        /* \"#utility.yul\":7452:7479   */\n      tag_290\n      jump\t// in\n    tag_412:\n        /* \"#utility.yul\":7444:7450   */\n      dup2\n        /* \"#utility.yul\":7440:7480   */\n      add\n        /* \"#utility.yul\":7582:7588   */\n      dup2\n        /* \"#utility.yul\":7570:7580   */\n      dup2\n        /* \"#utility.yul\":7567:7589   */\n      lt\n        /* \"#utility.yul\":7546:7564   */\n      0xffffffffffffffff\n        /* \"#utility.yul\":7534:7544   */\n      dup3\n        /* \"#utility.yul\":7531:7565   */\n      gt\n        /* \"#utility.yul\":7528:7590   */\n      or\n        /* \"#utility.yul\":7525:7613   */\n      iszero\n      tag_413\n      jumpi\n        /* \"#utility.yul\":7593:7611   */\n      tag_414\n      tag_305\n      jump\t// in\n    tag_414:\n        /* \"#utility.yul\":7525:7613   */\n    tag_413:\n        /* \"#utility.yul\":7633:7643   */\n      dup1\n        /* \"#utility.yul\":7629:7631   */\n      0x40\n        /* \"#utility.yul\":7622:7644   */\n      mstore\n        /* \"#utility.yul\":7412:7650   */\n      pop\n        /* \"#utility.yul\":7369:7650   */\n      pop\n      pop\n      jump\t// out\n        /* \"#utility.yul\":7656:7785   */\n    tag_307:\n        /* \"#utility.yul\":7690:7696   */\n      0x00\n        /* \"#utility.yul\":7717:7737   */\n      tag_416\n      tag_279\n      jump\t// in\n    tag_416:\n        /* \"#utility.yul\":7707:7737   */\n      swap1\n      pop\n        /* \"#utility.yul\":7746:7779   */\n      tag_417\n        /* \"#utility.yul\":7774:7778   */\n      dup3\n        /* \"#utility.yul\":7766:7772   */\n      dup3\n        /* \"#utility.yul\":7746:7779   */\n      tag_306\n      jump\t// in\n    tag_417:\n        /* \"#utility.yul\":7656:7785   */\n      swap2\n      swap1\n      pop\n      jump\t// out\n        /* \"#utility.yul\":7791:8098   */\n    tag_308:\n        /* \"#utility.yul\":7852:7856   */\n      0x00\n        /* \"#utility.yul\":7942:7960   */\n      0xffffffffffffffff\n        /* \"#utility.yul\":7934:7940   */\n      dup3\n        /* \"#utility.yul\":7931:7961   */\n      gt\n        /* \"#utility.yul\":7928:7984   */\n      iszero\n      tag_419\n      jumpi\n        /* \"#utility.yul\":7964:7982   */\n      tag_420\n      tag_305\n      jump\t// in\n    tag_420:\n        /* \"#utility.yul\":7928:7984   */\n    tag_419:\n        /* \"#utility.yul\":8002:8031   */\n      tag_421\n        /* \"#utility.yul\":8024:8030   */\n      dup3\n        /* \"#utility.yul\":8002:8031   */\n      tag_290\n      jump\t// in\n    tag_421:\n        /* \"#utility.yul\":7994:8031   */\n      swap1\n      pop\n        /* \"#utility.yul\":8086:8090   */\n      0x20\n        /* \"#utility.yul\":8080:8084   */\n      dup2\n        /* \"#utility.yul\":8076:8091   */\n      add\n        /* \"#utility.yul\":8068:8091   */\n      swap1\n      pop\n        /* \"#utility.yul\":7791:8098   */\n      swap2\n      swap1\n      pop\n      jump\t// out\n        /* \"#utility.yul\":8104:8250   */\n    tag_309:\n        /* \"#utility.yul\":8201:8207   */\n      dup3\n        /* \"#utility.yul\":8196:8199   */\n      dup2\n        /* \"#utility.yul\":8191:8194   */\n      dup4\n        /* \"#utility.yul\":8178:8208   */\n      calldatacopy\n        /* \"#utility.yul\":8242:8243   */\n      0x00\n        /* \"#utility.yul\":8233:8239   */\n      dup4\n        /* \"#utility.yul\":8228:8231   */\n      dup4\n        /* \"#utility.yul\":8224:8240   */\n      add\n        /* \"#utility.yul\":8217:8244   */\n      mstore\n        /* \"#utility.yul\":8104:8250   */\n      pop\n      pop\n      pop\n      jump\t// out\n        /* \"#utility.yul\":8256:8679   */\n    tag_310:\n        /* \"#utility.yul\":8333:8338   */\n      0x00\n        /* \"#utility.yul\":8358:8423   */\n      tag_424\n        /* \"#utility.yul\":8374:8422   */\n      tag_425\n        /* \"#utility.yul\":8415:8421   */\n      dup5\n        /* \"#utility.yul\":8374:8422   */\n      tag_308\n      jump\t// in\n    tag_425:\n        /* \"#utility.yul\":8358:8423   */\n      tag_307\n      jump\t// in\n    tag_424:\n        /* \"#utility.yul\":8349:8423   */\n      swap1\n      pop\n        /* \"#utility.yul\":8446:8452   */\n      dup3\n        /* \"#utility.yul\":8439:8444   */\n      dup2\n        /* \"#utility.yul\":8432:8453   */\n      mstore\n        /* \"#utility.yul\":8484:8488   */\n      0x20\n        /* \"#utility.yul\":8477:8482   */\n      dup2\n        /* \"#utility.yul\":8473:8489   */\n      add\n        /* \"#utility.yul\":8522:8525   */\n      dup5\n        /* \"#utility.yul\":8513:8519   */\n      dup5\n        /* \"#utility.yul\":8508:8511   */\n      dup5\n        /* \"#utility.yul\":8504:8520   */\n      add\n        /* \"#utility.yul\":8501:8526   */\n      gt\n        /* \"#utility.yul\":8498:8610   */\n      iszero\n      tag_426\n      jumpi\n        /* \"#utility.yul\":8529:8608   */\n      tag_427\n      tag_304\n      jump\t// in\n    tag_427:\n        /* \"#utility.yul\":8498:8610   */\n    tag_426:\n        /* \"#utility.yul\":8619:8673   */\n      tag_428\n        /* \"#utility.yul\":8666:8672   */\n      dup5\n        /* \"#utility.yul\":8661:8664   */\n      dup3\n        /* \"#utility.yul\":8656:8659   */\n      dup6\n        /* \"#utility.yul\":8619:8673   */\n      tag_309\n      jump\t// in\n    tag_428:\n        /* \"#utility.yul\":8339:8679   */\n      pop\n        /* \"#utility.yul\":8256:8679   */\n      swap4\n      swap3\n      pop\n      pop\n      pop\n      jump\t// out\n        /* \"#utility.yul\":8698:9036   */\n    tag_311:\n        /* \"#utility.yul\":8753:8758   */\n      0x00\n        /* \"#utility.yul\":8802:8805   */\n      dup3\n        /* \"#utility.yul\":8795:8799   */\n      0x1f\n        /* \"#utility.yul\":8787:8793   */\n      dup4\n        /* \"#utility.yul\":8783:8800   */\n      add\n        /* \"#utility.yul\":8779:8806   */\n      slt\n        /* \"#utility.yul\":8769:8891   */\n      tag_430\n      jumpi\n        /* \"#utility.yul\":8810:8889   */\n      tag_431\n      tag_303\n      jump\t// in\n    tag_431:\n        /* \"#utility.yul\":8769:8891   */\n    tag_430:\n        /* \"#utility.yul\":8927:8933   */\n      dup2\n        /* \"#utility.yul\":8914:8934   */\n      calldataload\n        /* \"#utility.yul\":8952:9030   */\n      tag_432\n        /* \"#utility.yul\":9026:9029   */\n      dup5\n        /* \"#utility.yul\":9018:9024   */\n      dup3\n        /* \"#utility.yul\":9011:9015   */\n      0x20\n        /* \"#utility.yul\":9003:9009   */\n      dup7\n        /* \"#utility.yul\":8999:9016   */\n      add\n        /* \"#utility.yul\":8952:9030   */\n      tag_310\n      jump\t// in\n    tag_432:\n        /* \"#utility.yul\":8943:9030   */\n      swap2\n      pop\n        /* \"#utility.yul\":8759:9036   */\n      pop\n        /* \"#utility.yul\":8698:9036   */\n      swap3\n      swap2\n      pop\n      pop\n      jump\t// out\n        /* \"#utility.yul\":9042:9985   */\n    tag_101:\n        /* \"#utility.yul\":9137:9143   */\n      0x00\n        /* \"#utility.yul\":9145:9151   */\n      dup1\n        /* \"#utility.yul\":9153:9159   */\n      0x00\n        /* \"#utility.yul\":9161:9167   */\n      dup1\n        /* \"#utility.yul\":9210:9213   */\n      0x80\n        /* \"#utility.yul\":9198:9207   */\n      dup6\n        /* \"#utility.yul\":9189:9196   */\n      dup8\n        /* \"#utility.yul\":9185:9208   */\n      sub\n        /* \"#utility.yul\":9181:9214   */\n      slt\n        /* \"#utility.yul\":9178:9298   */\n      iszero\n      tag_434\n      jumpi\n        /* \"#utility.yul\":9217:9296   */\n      tag_435\n      tag_280\n      jump\t// in\n    tag_435:\n        /* \"#utility.yul\":9178:9298   */\n    tag_434:\n        /* \"#utility.yul\":9337:9338   */\n      0x00\n        /* \"#utility.yul\":9362:9415   */\n      tag_436\n        /* \"#utility.yul\":9407:9414   */\n      dup8\n        /* \"#utility.yul\":9398:9404   */\n      dup3\n        /* \"#utility.yul\":9387:9396   */\n      dup9\n        /* \"#utility.yul\":9383:9405   */\n      add\n        /* \"#utility.yul\":9362:9415   */\n      tag_299\n      jump\t// in\n    tag_436:\n        /* \"#utility.yul\":9352:9415   */\n      swap5\n      pop\n        /* \"#utility.yul\":9308:9425   */\n      pop\n        /* \"#utility.yul\":9464:9466   */\n      0x20\n        /* \"#utility.yul\":9490:9543   */\n      tag_437\n        /* \"#utility.yul\":9535:9542   */\n      dup8\n        /* \"#utility.yul\":9526:9532   */\n      dup3\n        /* \"#utility.yul\":9515:9524   */\n      dup9\n        /* \"#utility.yul\":9511:9533   */\n      add\n        /* \"#utility.yul\":9490:9543   */\n      tag_299\n      jump\t// in\n    tag_437:\n        /* \"#utility.yul\":9480:9543   */\n      swap4\n      pop\n        /* \"#utility.yul\":9435:9553   */\n      pop\n        /* \"#utility.yul\":9592:9594   */\n      0x40\n        /* \"#utility.yul\":9618:9671   */\n      tag_438\n        /* \"#utility.yul\":9663:9670   */\n      dup8\n        /* \"#utility.yul\":9654:9660   */\n      dup3\n        /* \"#utility.yul\":9643:9652   */\n      dup9\n        /* \"#utility.yul\":9639:9661   */\n      add\n        /* \"#utility.yul\":9618:9671   */\n      tag_294\n      jump\t// in\n    tag_438:\n        /* \"#utility.yul\":9608:9671   */\n      swap3\n      pop\n        /* \"#utility.yul\":9563:9681   */\n      pop\n        /* \"#utility.yul\":9748:9750   */\n      0x60\n        /* \"#utility.yul\":9737:9746   */\n      dup6\n        /* \"#utility.yul\":9733:9751   */\n      add\n        /* \"#utility.yul\":9720:9752   */\n      calldataload\n        /* \"#utility.yul\":9779:9797   */\n      0xffffffffffffffff\n        /* \"#utility.yul\":9771:9777   */\n      dup2\n        /* \"#utility.yul\":9768:9798   */\n      gt\n        /* \"#utility.yul\":9765:9882   */\n      iszero\n      tag_439\n      jumpi\n        /* \"#utility.yul\":9801:9880   */\n      tag_440\n      tag_281\n      jump\t// in\n    tag_440:\n        /* \"#utility.yul\":9765:9882   */\n    tag_439:\n        /* \"#utility.yul\":9906:9968   */\n      tag_441\n        /* \"#utility.yul\":9960:9967   */\n      dup8\n        /* \"#utility.yul\":9951:9957   */\n      dup3\n        /* \"#utility.yul\":9940:9949   */\n      dup9\n        /* \"#utility.yul\":9936:9958   */\n      add\n        /* \"#utility.yul\":9906:9968   */\n      tag_311\n      jump\t// in\n    tag_441:\n        /* \"#utility.yul\":9896:9968   */\n      swap2\n      pop\n        /* \"#utility.yul\":9691:9978   */\n      pop\n        /* \"#utility.yul\":9042:9985   */\n      swap3\n      swap6\n      swap2\n      swap5\n      pop\n      swap3\n      pop\n      jump\t// out\n        /* \"#utility.yul\":9991:10465   */\n    tag_111:\n        /* \"#utility.yul\":10059:10065   */\n      0x00\n        /* \"#utility.yul\":10067:10073   */\n      dup1\n        /* \"#utility.yul\":10116:10118   */\n      0x40\n        /* \"#utility.yul\":10104:10113   */\n      dup4\n        /* \"#utility.yul\":10095:10102   */\n      dup6\n        /* \"#utility.yul\":10091:10114   */\n      sub\n        /* \"#utility.yul\":10087:10119   */\n      slt\n        /* \"#utility.yul\":10084:10203   */\n      iszero\n      tag_443\n      jumpi\n        /* \"#utility.yul\":10122:10201   */\n      tag_444\n      tag_280\n      jump\t// in\n    tag_444:\n        /* \"#utility.yul\":10084:10203   */\n    tag_443:\n        /* \"#utility.yul\":10242:10243   */\n      0x00\n        /* \"#utility.yul\":10267:10320   */\n      tag_445\n        /* \"#utility.yul\":10312:10319   */\n      dup6\n        /* \"#utility.yul\":10303:10309   */\n      dup3\n        /* \"#utility.yul\":10292:10301   */\n      dup7\n        /* \"#utility.yul\":10288:10310   */\n      add\n        /* \"#utility.yul\":10267:10320   */\n      tag_299\n      jump\t// in\n    tag_445:\n        /* \"#utility.yul\":10257:10320   */\n      swap3\n      pop\n        /* \"#utility.yul\":10213:10330   */\n      pop\n        /* \"#utility.yul\":10369:10371   */\n      0x20\n        /* \"#utility.yul\":10395:10448   */\n      tag_446\n        /* \"#utility.yul\":10440:10447   */\n      dup6\n        /* \"#utility.yul\":10431:10437   */\n      dup3\n        /* \"#utility.yul\":10420:10429   */\n      dup7\n        /* \"#utility.yul\":10416:10438   */\n      add\n        /* \"#utility.yul\":10395:10448   */\n      tag_299\n      jump\t// in\n    tag_446:\n        /* \"#utility.yul\":10385:10448   */\n      swap2\n      pop\n        /* \"#utility.yul\":10340:10458   */\n      pop\n        /* \"#utility.yul\":9991:10465   */\n      swap3\n      pop\n      swap3\n      swap1\n      pop\n      jump\t// out\n        /* \"#utility.yul\":10471:10651   */\n    tag_312:\n        /* \"#utility.yul\":10519:10596   */\n      0x4e487b7100000000000000000000000000000000000000000000000000000000\n        /* \"#utility.yul\":10516:10517   */\n      0x00\n        /* \"#utility.yul\":10509:10597   */\n      mstore\n        /* \"#utility.yul\":10616:10620   */\n      0x22\n        /* \"#utility.yul\":10613:10614   */\n      0x04\n        /* \"#utility.yul\":10606:10621   */\n      mstore\n        /* \"#utility.yul\":10640:10644   */\n      0x24\n        /* \"#utility.yul\":10637:10638   */\n      0x00\n        /* \"#utility.yul\":10630:10645   */\n      revert\n        /* \"#utility.yul\":10657:10977   */\n    tag_123:\n        /* \"#utility.yul\":10701:10707   */\n      0x00\n        /* \"#utility.yul\":10738:10739   */\n      0x02\n        /* \"#utility.yul\":10732:10736   */\n      dup3\n        /* \"#utility.yul\":10728:10740   */\n      div\n        /* \"#utility.yul\":10718:10740   */\n      swap1\n      pop\n        /* \"#utility.yul\":10785:10786   */\n      0x01\n        /* \"#utility.yul\":10779:10783   */\n      dup3\n        /* \"#utility.yul\":10775:10787   */\n      and\n        /* \"#utility.yul\":10806:10824   */\n      dup1\n        /* \"#utility.yul\":10796:10877   */\n      tag_449\n      jumpi\n        /* \"#utility.yul\":10862:10866   */\n      0x7f\n        /* \"#utility.yul\":10854:10860   */\n      dup3\n        /* \"#utility.yul\":10850:10867   */\n      and\n        /* \"#utility.yul\":10840:10867   */\n      swap2\n      pop\n        /* \"#utility.yul\":10796:10877   */\n    tag_449:\n        /* \"#utility.yul\":10924:10926   */\n      0x20\n        /* \"#utility.yul\":10916:10922   */\n      dup3\n        /* \"#utility.yul\":10913:10927   */\n      lt\n        /* \"#utility.yul\":10893:10911   */\n      dup2\n        /* \"#utility.yul\":10890:10928   */\n      sub\n        /* \"#utility.yul\":10887:10971   */\n      tag_450\n      jumpi\n        /* \"#utility.yul\":10943:10961   */\n      tag_451\n      tag_312\n      jump\t// in\n    tag_451:\n        /* \"#utility.yul\":10887:10971   */\n    tag_450:\n        /* \"#utility.yul\":10708:10977   */\n      pop\n        /* \"#utility.yul\":10657:10977   */\n      swap2\n      swap1\n      pop\n      jump\t// out\n        /* \"#utility.yul\":10983:11126   */\n    tag_313:\n        /* \"#utility.yul\":11040:11045   */\n      0x00\n        /* \"#utility.yul\":11071:11077   */\n      dup2\n        /* \"#utility.yul\":11065:11078   */\n      mload\n        /* \"#utility.yul\":11056:11078   */\n      swap1\n      pop\n        /* \"#utility.yul\":11087:11120   */\n      tag_453\n        /* \"#utility.yul\":11114:11119   */\n      dup2\n        /* \"#utility.yul\":11087:11120   */\n      tag_298\n      jump\t// in\n    tag_453:\n        /* \"#utility.yul\":10983:11126   */\n      swap3\n      swap2\n      pop\n      pop\n      jump\t// out\n        /* \"#utility.yul\":11132:11483   */\n    tag_179:\n        /* \"#utility.yul\":11202:11208   */\n      0x00\n        /* \"#utility.yul\":11251:11253   */\n      0x20\n        /* \"#utility.yul\":11239:11248   */\n      dup3\n        /* \"#utility.yul\":11230:11237   */\n      dup5\n        /* \"#utility.yul\":11226:11249   */\n      sub\n        /* \"#utility.yul\":11222:11254   */\n      slt\n        /* \"#utility.yul\":11219:11338   */\n      iszero\n      tag_455\n      jumpi\n        /* \"#utility.yul\":11257:11336   */\n      tag_456\n      tag_280\n      jump\t// in\n    tag_456:\n        /* \"#utility.yul\":11219:11338   */\n    tag_455:\n        /* \"#utility.yul\":11377:11378   */\n      0x00\n        /* \"#utility.yul\":11402:11466   */\n      tag_457\n        /* \"#utility.yul\":11458:11465   */\n      dup5\n        /* \"#utility.yul\":11449:11455   */\n      dup3\n        /* \"#utility.yul\":11438:11447   */\n      dup6\n        /* \"#utility.yul\":11434:11456   */\n      add\n        /* \"#utility.yul\":11402:11466   */\n      tag_313\n      jump\t// in\n    tag_457:\n        /* \"#utility.yul\":11392:11466   */\n      swap2\n      pop\n        /* \"#utility.yul\":11348:11476   */\n      pop\n        /* \"#utility.yul\":11132:11483   */\n      swap3\n      swap2\n      pop\n      pop\n      jump\t// out\n        /* \"#utility.yul\":11489:11637   */\n    tag_314:\n        /* \"#utility.yul\":11591:11602   */\n      0x00\n        /* \"#utility.yul\":11628:11631   */\n      dup2\n        /* \"#utility.yul\":11613:11631   */\n      swap1\n      pop\n        /* \"#utility.yul\":11489:11637   */\n      swap3\n      swap2\n      pop\n      pop\n      jump\t// out\n        /* \"#utility.yul\":11643:12033   */\n    tag_315:\n        /* \"#utility.yul\":11749:11752   */\n      0x00\n        /* \"#utility.yul\":11777:11816   */\n      tag_460\n        /* \"#utility.yul\":11810:11815   */\n      dup3\n        /* \"#utility.yul\":11777:11816   */\n      tag_287\n      jump\t// in\n    tag_460:\n        /* \"#utility.yul\":11832:11921   */\n      tag_461\n        /* \"#utility.yul\":11914:11920   */\n      dup2\n        /* \"#utility.yul\":11909:11912   */\n      dup6\n        /* \"#utility.yul\":11832:11921   */\n      tag_314\n      jump\t// in\n    tag_461:\n        /* \"#utility.yul\":11825:11921   */\n      swap4\n      pop\n        /* \"#utility.yul\":11930:11995   */\n      tag_462\n        /* \"#utility.yul\":11988:11994   */\n      dup2\n        /* \"#utility.yul\":11983:11986   */\n      dup6\n        /* \"#utility.yul\":11976:11980   */\n      0x20\n        /* \"#utility.yul\":11969:11974   */\n      dup7\n        /* \"#utility.yul\":11965:11981   */\n      add\n        /* \"#utility.yul\":11930:11995   */\n      tag_289\n      jump\t// in\n    tag_462:\n        /* \"#utility.yul\":12020:12026   */\n      dup1\n        /* \"#utility.yul\":12015:12018   */\n      dup5\n        /* \"#utility.yul\":12011:12027   */\n      add\n        /* \"#utility.yul\":12004:12027   */\n      swap2\n      pop\n        /* \"#utility.yul\":11753:12033   */\n      pop\n        /* \"#utility.yul\":11643:12033   */\n      swap3\n      swap2\n      pop\n      pop\n      jump\t// out\n        /* \"#utility.yul\":12039:12474   */\n    tag_217:\n        /* \"#utility.yul\":12219:12222   */\n      0x00\n        /* \"#utility.yul\":12241:12336   */\n      tag_464\n        /* \"#utility.yul\":12332:12335   */\n      dup3\n        /* \"#utility.yul\":12323:12329   */\n      dup6\n        /* \"#utility.yul\":12241:12336   */\n      tag_315\n      jump\t// in\n    tag_464:\n        /* \"#utility.yul\":12234:12336   */\n      swap2\n      pop\n        /* \"#utility.yul\":12353:12448   */\n      tag_465\n        /* \"#utility.yul\":12444:12447   */\n      dup3\n        /* \"#utility.yul\":12435:12441   */\n      dup5\n        /* \"#utility.yul\":12353:12448   */\n      tag_315\n      jump\t// in\n    tag_465:\n        /* \"#utility.yul\":12346:12448   */\n      swap2\n      pop\n        /* \"#utility.yul\":12465:12468   */\n      dup2\n        /* \"#utility.yul\":12458:12468   */\n      swap1\n      pop\n        /* \"#utility.yul\":12039:12474   */\n      swap4\n      swap3\n      pop\n      pop\n      pop\n      jump\t// out\n        /* \"#utility.yul\":12480:12705   */\n    tag_316:\n        /* \"#utility.yul\":12620:12654   */\n      0x4f776e61626c653a206e6577206f776e657220697320746865207a65726f2061\n        /* \"#utility.yul\":12616:12617   */\n      0x00\n        /* \"#utility.yul\":12608:12614   */\n      dup3\n        /* \"#utility.yul\":12604:12618   */\n      add\n        /* \"#utility.yul\":12597:12655   */\n      mstore\n        /* \"#utility.yul\":12689:12697   */\n      0x6464726573730000000000000000000000000000000000000000000000000000\n        /* \"#utility.yul\":12684:12686   */\n      0x20\n        /* \"#utility.yul\":12676:12682   */\n      dup3\n        /* \"#utility.yul\":12672:12687   */\n      add\n        /* \"#utility.yul\":12665:12698   */\n      mstore\n        /* \"#utility.yul\":12480:12705   */\n      pop\n      jump\t// out\n        /* \"#utility.yul\":12711:13077   */\n    tag_317:\n        /* \"#utility.yul\":12853:12856   */\n      0x00\n        /* \"#utility.yul\":12874:12941   */\n      tag_468\n        /* \"#utility.yul\":12938:12940   */\n      0x26\n        /* \"#utility.yul\":12933:12936   */\n      dup4\n        /* \"#utility.yul\":12874:12941   */\n      tag_288\n      jump\t// in\n    tag_468:\n        /* \"#utility.yul\":12867:12941   */\n      swap2\n      pop\n        /* \"#utility.yul\":12950:13043   */\n      tag_469\n        /* \"#utility.yul\":13039:13042   */\n      dup3\n        /* \"#utility.yul\":12950:13043   */\n      tag_316\n      jump\t// in\n    tag_469:\n        /* \"#utility.yul\":13068:13070   */\n      0x40\n        /* \"#utility.yul\":13063:13066   */\n      dup3\n        /* \"#utility.yul\":13059:13071   */\n      add\n        /* \"#utility.yul\":13052:13071   */\n      swap1\n      pop\n        /* \"#utility.yul\":12711:13077   */\n      swap2\n      swap1\n      pop\n      jump\t// out\n        /* \"#utility.yul\":13083:13502   */\n    tag_224:\n        /* \"#utility.yul\":13249:13253   */\n      0x00\n        /* \"#utility.yul\":13287:13289   */\n      0x20\n        /* \"#utility.yul\":13276:13285   */\n      dup3\n        /* \"#utility.yul\":13272:13290   */\n      add\n        /* \"#utility.yul\":13264:13290   */\n      swap1\n      pop\n        /* \"#utility.yul\":13336:13345   */\n      dup2\n        /* \"#utility.yul\":13330:13334   */\n      dup2\n        /* \"#utility.yul\":13326:13346   */\n      sub\n        /* \"#utility.yul\":13322:13323   */\n      0x00\n        /* \"#utility.yul\":13311:13320   */\n      dup4\n        /* \"#utility.yul\":13307:13324   */\n      add\n        /* \"#utility.yul\":13300:13347   */\n      mstore\n        /* \"#utility.yul\":13364:13495   */\n      tag_471\n        /* \"#utility.yul\":13490:13494   */\n      dup2\n        /* \"#utility.yul\":13364:13495   */\n      tag_317\n      jump\t// in\n    tag_471:\n        /* \"#utility.yul\":13356:13495   */\n      swap1\n      pop\n        /* \"#utility.yul\":13083:13502   */\n      swap2\n      swap1\n      pop\n      jump\t// out\n        /* \"#utility.yul\":13508:13690   */\n    tag_318:\n        /* \"#utility.yul\":13648:13682   */\n      0x4f776e61626c653a2063616c6c6572206973206e6f7420746865206f776e6572\n        /* \"#utility.yul\":13644:13645   */\n      0x00\n        /* \"#utility.yul\":13636:13642   */\n      dup3\n        /* \"#utility.yul\":13632:13646   */\n      add\n        /* \"#utility.yul\":13625:13683   */\n      mstore\n        /* \"#utility.yul\":13508:13690   */\n      pop\n      jump\t// out\n        /* \"#utility.yul\":13696:14062   */\n    tag_319:\n        /* \"#utility.yul\":13838:13841   */\n      0x00\n        /* \"#utility.yul\":13859:13926   */\n      tag_474\n        /* \"#utility.yul\":13923:13925   */\n      0x20\n        /* \"#utility.yul\":13918:13921   */\n      dup4\n        /* \"#utility.yul\":13859:13926   */\n      tag_288\n      jump\t// in\n    tag_474:\n        /* \"#utility.yul\":13852:13926   */\n      swap2\n      pop\n        /* \"#utility.yul\":13935:14028   */\n      tag_475\n        /* \"#utility.yul\":14024:14027   */\n      dup3\n        /* \"#utility.yul\":13935:14028   */\n      tag_318\n      jump\t// in\n    tag_475:\n        /* \"#utility.yul\":14053:14055   */\n      0x20\n        /* \"#utility.yul\":14048:14051   */\n      dup3\n        /* \"#utility.yul\":14044:14056   */\n      add\n        /* \"#utility.yul\":14037:14056   */\n      swap1\n      pop\n        /* \"#utility.yul\":13696:14062   */\n      swap2\n      swap1\n      pop\n      jump\t// out\n        /* \"#utility.yul\":14068:14487   */\n    tag_253:\n        /* \"#utility.yul\":14234:14238   */\n      0x00\n        /* \"#utility.yul\":14272:14274   */\n      0x20\n        /* \"#utility.yul\":14261:14270   */\n      dup3\n        /* \"#utility.yul\":14257:14275   */\n      add\n        /* \"#utility.yul\":14249:14275   */\n      swap1\n      pop\n        /* \"#utility.yul\":14321:14330   */\n      dup2\n        /* \"#utility.yul\":14315:14319   */\n      dup2\n        /* \"#utility.yul\":14311:14331   */\n      sub\n        /* \"#utility.yul\":14307:14308   */\n      0x00\n        /* \"#utility.yul\":14296:14305   */\n      dup4\n        /* \"#utility.yul\":14292:14309   */\n      add\n        /* \"#utility.yul\":14285:14332   */\n      mstore\n        /* \"#utility.yul\":14349:14480   */\n      tag_477\n        /* \"#utility.yul\":14475:14479   */\n      dup2\n        /* \"#utility.yul\":14349:14480   */\n      tag_319\n      jump\t// in\n    tag_477:\n        /* \"#utility.yul\":14341:14480   */\n      swap1\n      pop\n        /* \"#utility.yul\":14068:14487   */\n      swap2\n      swap1\n      pop\n      jump\t// out\n        /* \"#utility.yul\":14493:14591   */\n    tag_320:\n        /* \"#utility.yul\":14544:14550   */\n      0x00\n        /* \"#utility.yul\":14578:14583   */\n      dup2\n        /* \"#utility.yul\":14572:14584   */\n      mload\n        /* \"#utility.yul\":14562:14584   */\n      swap1\n      pop\n        /* \"#utility.yul\":14493:14591   */\n      swap2\n      swap1\n      pop\n      jump\t// out\n        /* \"#utility.yul\":14597:14765   */\n    tag_321:\n        /* \"#utility.yul\":14680:14691   */\n      0x00\n        /* \"#utility.yul\":14714:14720   */\n      dup3\n        /* \"#utility.yul\":14709:14712   */\n      dup3\n        /* \"#utility.yul\":14702:14721   */\n      mstore\n        /* \"#utility.yul\":14754:14758   */\n      0x20\n        /* \"#utility.yul\":14749:14752   */\n      dup3\n        /* \"#utility.yul\":14745:14759   */\n      add\n        /* \"#utility.yul\":14730:14759   */\n      swap1\n      pop\n        /* \"#utility.yul\":14597:14765   */\n      swap3\n      swap2\n      pop\n      pop\n      jump\t// out\n        /* \"#utility.yul\":14771:15144   */\n    tag_322:\n        /* \"#utility.yul\":14857:14860   */\n      0x00\n        /* \"#utility.yul\":14885:14923   */\n      tag_481\n        /* \"#utility.yul\":14917:14922   */\n      dup3\n        /* \"#utility.yul\":14885:14923   */\n      tag_320\n      jump\t// in\n    tag_481:\n        /* \"#utility.yul\":14939:15009   */\n      tag_482\n        /* \"#utility.yul\":15002:15008   */\n      dup2\n        /* \"#utility.yul\":14997:15000   */\n      dup6\n        /* \"#utility.yul\":14939:15009   */\n      tag_321\n      jump\t// in\n    tag_482:\n        /* \"#utility.yul\":14932:15009   */\n      swap4\n      pop\n        /* \"#utility.yul\":15018:15083   */\n      tag_483\n        /* \"#utility.yul\":15076:15082   */\n      dup2\n        /* \"#utility.yul\":15071:15074   */\n      dup6\n        /* \"#utility.yul\":15064:15068   */\n      0x20\n        /* \"#utility.yul\":15057:15062   */\n      dup7\n        /* \"#utility.yul\":15053:15069   */\n      add\n        /* \"#utility.yul\":15018:15083   */\n      tag_289\n      jump\t// in\n    tag_483:\n        /* \"#utility.yul\":15108:15137   */\n      tag_484\n        /* \"#utility.yul\":15130:15136   */\n      dup2\n        /* \"#utility.yul\":15108:15137   */\n      tag_290\n      jump\t// in\n    tag_484:\n        /* \"#utility.yul\":15103:15106   */\n      dup5\n        /* \"#utility.yul\":15099:15138   */\n      add\n        /* \"#utility.yul\":15092:15138   */\n      swap2\n      pop\n        /* \"#utility.yul\":14861:15144   */\n      pop\n        /* \"#utility.yul\":14771:15144   */\n      swap3\n      swap2\n      pop\n      pop\n      jump\t// out\n        /* \"#utility.yul\":15150:15790   */\n    tag_258:\n        /* \"#utility.yul\":15345:15349   */\n      0x00\n        /* \"#utility.yul\":15383:15386   */\n      0x80\n        /* \"#utility.yul\":15372:15381   */\n      dup3\n        /* \"#utility.yul\":15368:15387   */\n      add\n        /* \"#utility.yul\":15360:15387   */\n      swap1\n      pop\n        /* \"#utility.yul\":15397:15468   */\n      tag_486\n        /* \"#utility.yul\":15465:15466   */\n      0x00\n        /* \"#utility.yul\":15454:15463   */\n      dup4\n        /* \"#utility.yul\":15450:15467   */\n      add\n        /* \"#utility.yul\":15441:15447   */\n      dup8\n        /* \"#utility.yul\":15397:15468   */\n      tag_297\n      jump\t// in\n    tag_486:\n        /* \"#utility.yul\":15478:15550   */\n      tag_487\n        /* \"#utility.yul\":15546:15548   */\n      0x20\n        /* \"#utility.yul\":15535:15544   */\n      dup4\n        /* \"#utility.yul\":15531:15549   */\n      add\n        /* \"#utility.yul\":15522:15528   */\n      dup7\n        /* \"#utility.yul\":15478:15550   */\n      tag_297\n      jump\t// in\n    tag_487:\n        /* \"#utility.yul\":15560:15632   */\n      tag_488\n        /* \"#utility.yul\":15628:15630   */\n      0x40\n        /* \"#utility.yul\":15617:15626   */\n      dup4\n        /* \"#utility.yul\":15613:15631   */\n      add\n        /* \"#utility.yul\":15604:15610   */\n      dup6\n        /* \"#utility.yul\":15560:15632   */\n      tag_300\n      jump\t// in\n    tag_488:\n        /* \"#utility.yul\":15679:15688   */\n      dup2\n        /* \"#utility.yul\":15673:15677   */\n      dup2\n        /* \"#utility.yul\":15669:15689   */\n      sub\n        /* \"#utility.yul\":15664:15666   */\n      0x60\n        /* \"#utility.yul\":15653:15662   */\n      dup4\n        /* \"#utility.yul\":15649:15667   */\n      add\n        /* \"#utility.yul\":15642:15690   */\n      mstore\n        /* \"#utility.yul\":15707:15783   */\n      tag_489\n        /* \"#utility.yul\":15778:15782   */\n      dup2\n        /* \"#utility.yul\":15769:15775   */\n      dup5\n        /* \"#utility.yul\":15707:15783   */\n      tag_322\n      jump\t// in\n    tag_489:\n        /* \"#utility.yul\":15699:15783   */\n      swap1\n      pop\n        /* \"#utility.yul\":15150:15790   */\n      swap6\n      swap5\n      pop\n      pop\n      pop\n      pop\n      pop\n      jump\t// out\n        /* \"#utility.yul\":15796:15937   */\n    tag_323:\n        /* \"#utility.yul\":15852:15857   */\n      0x00\n        /* \"#utility.yul\":15883:15889   */\n      dup2\n        /* \"#utility.yul\":15877:15890   */\n      mload\n        /* \"#utility.yul\":15868:15890   */\n      swap1\n      pop\n        /* \"#utility.yul\":15899:15931   */\n      tag_491\n        /* \"#utility.yul\":15925:15930   */\n      dup2\n        /* \"#utility.yul\":15899:15931   */\n      tag_283\n      jump\t// in\n    tag_491:\n        /* \"#utility.yul\":15796:15937   */\n      swap3\n      swap2\n      pop\n      pop\n      jump\t// out\n        /* \"#utility.yul\":15943:16292   */\n    tag_261:\n        /* \"#utility.yul\":16012:16018   */\n      0x00\n        /* \"#utility.yul\":16061:16063   */\n      0x20\n        /* \"#utility.yul\":16049:16058   */\n      dup3\n        /* \"#utility.yul\":16040:16047   */\n      dup5\n        /* \"#utility.yul\":16036:16059   */\n      sub\n        /* \"#utility.yul\":16032:16064   */\n      slt\n        /* \"#utility.yul\":16029:16148   */\n      iszero\n      tag_493\n      jumpi\n        /* \"#utility.yul\":16067:16146   */\n      tag_494\n      tag_280\n      jump\t// in\n    tag_494:\n        /* \"#utility.yul\":16029:16148   */\n    tag_493:\n        /* \"#utility.yul\":16187:16188   */\n      0x00\n        /* \"#utility.yul\":16212:16275   */\n      tag_495\n        /* \"#utility.yul\":16267:16274   */\n      dup5\n        /* \"#utility.yul\":16258:16264   */\n      dup3\n        /* \"#utility.yul\":16247:16256   */\n      dup6\n        /* \"#utility.yul\":16243:16265   */\n      add\n        /* \"#utility.yul\":16212:16275   */\n      tag_323\n      jump\t// in\n    tag_495:\n        /* \"#utility.yul\":16202:16275   */\n      swap2\n      pop\n        /* \"#utility.yul\":16158:16285   */\n      pop\n        /* \"#utility.yul\":15943:16292   */\n      swap3\n      swap2\n      pop\n      pop\n      jump\t// out\n\n    auxdata: 0xa26469706673582212204ee2da5fbdb5b5176944990713f63fc444072f5a46de9c1895e62ae13dccf68f64736f6c63430008120033\n}\n",
				"bytecode": {
					"linkReferences": {},
					"object": "60806040527343d218197e8c5fbc0527769821503660861c7045600a60006101000a81548173ffffffffffffffffffffffffffffffffffffffff021916908373ffffffffffffffffffffffffffffffffffffffff160217905550600a60009054906101000a900473ffffffffffffffffffffffffffffffffffffffff16600b60006101000a81548173ffffffffffffffffffffffffffffffffffffffff021916908373ffffffffffffffffffffffffffffffffffffffff160217905550348015620000c957600080fd5b506040518060400160405280601881526020017f55494e54532050524f4f46204f462042524f41444341535400000000000000008152506040518060400160405280600381526020017f504f4200000000000000000000000000000000000000000000000000000000008152508160029081620001479190620004e5565b508060039081620001599190620004e5565b506200016a6200019860201b60201c565b600081905550505062000192620001866200019d60201b60201c565b620001a560201b60201c565b620005cc565b600090565b600033905090565b6000600860009054906101000a900473ffffffffffffffffffffffffffffffffffffffff16905081600860006101000a81548173ffffffffffffffffffffffffffffffffffffffff021916908373ffffffffffffffffffffffffffffffffffffffff1602179055508173ffffffffffffffffffffffffffffffffffffffff168173ffffffffffffffffffffffffffffffffffffffff167f8be0079c531659141344cd1fd0a4f28419497f9722a3daafe3b4186f6b6457e060405160405180910390a35050565b600081519050919050565b7f4e487b7100000000000000000000000000000000000000000000000000000000600052604160045260246000fd5b7f4e487b7100000000000000000000000000000000000000000000000000000000600052602260045260246000fd5b60006002820490506001821680620002ed57607f821691505b602082108103620003035762000302620002a5565b5b50919050565b60008190508160005260206000209050919050565b60006020601f8301049050919050565b600082821b905092915050565b6000600883026200036d7fffffffffffffffffffffffffffffffffffffffffffffffffffffffffffffffff826200032e565b6200037986836200032e565b95508019841693508086168417925050509392505050565b6000819050919050565b6000819050919050565b6000620003c6620003c0620003ba8462000391565b6200039b565b62000391565b9050919050565b6000819050919050565b620003e283620003a5565b620003fa620003f182620003cd565b8484546200033b565b825550505050565b600090565b6200041162000402565b6200041e818484620003d7565b505050565b5b8181101562000446576200043a60008262000407565b60018101905062000424565b5050565b601f82111562000495576200045f8162000309565b6200046a846200031e565b810160208510156200047a578190505b6200049262000489856200031e565b83018262000423565b50505b505050565b600082821c905092915050565b6000620004ba600019846008026200049a565b1980831691505092915050565b6000620004d58383620004a7565b9150826002028217905092915050565b620004f0826200026b565b67ffffffffffffffff8111156200050c576200050b62000276565b5b620005188254620002d4565b620005258282856200044a565b600060209050601f8311600181146200055d576000841562000548578287015190505b620005548582620004c7565b865550620005c4565b601f1984166200056d8662000309565b60005b82811015620005975784890151825560018201915060208501945060208101905062000570565b86831015620005b75784890151620005b3601f891682620004a7565b8355505b6001600288020188555050505b505050505050565b611e7080620005dc6000396000f3fe60806040526004361061011f5760003560e01c806370a08231116100a0578063a22cb46511610064578063a22cb465146103ae578063b88d4fde146103d7578063c87b56dd146103f3578063e985e9c514610430578063f2fde38b1461046d5761011f565b806370a08231146102d9578063715018a61461031657806376167a891461032d5780638da5cb5b1461035857806395d89b41146103835761011f565b806323b872dd116100e757806323b872dd1461021057806342842e0e1461022c578063433f7b8b1461024857806343e0231e146102715780636352211e1461029c5761011f565b806301ffc9a71461012457806306fdde0314610161578063081812fc1461018c578063095ea7b3146101c957806318160ddd146101e5575b600080fd5b34801561013057600080fd5b5061014b60048036038101906101469190611609565b610496565b6040516101589190611651565b60405180910390f35b34801561016d57600080fd5b50610176610528565b60405161018391906116fc565b60405180910390f35b34801561019857600080fd5b506101b360048036038101906101ae9190611754565b6105ba565b6040516101c091906117c2565b60405180910390f35b6101e360048036038101906101de9190611809565b610639565b005b3480156101f157600080fd5b506101fa61077d565b6040516102079190611858565b60405180910390f35b61022a60048036038101906102259190611873565b610794565b005b61024660048036038101906102419190611873565b610ab6565b005b34801561025457600080fd5b5061026f600480360381019061026a91906118c6565b610ad6565b005b34801561027d57600080fd5b50610286610b22565b60405161029391906117c2565b60405180910390f35b3480156102a857600080fd5b506102c360048036038101906102be9190611754565b610bba565b6040516102d091906117c2565b60405180910390f35b3480156102e557600080fd5b5061030060048036038101906102fb91906118c6565b610bcc565b60405161030d9190611858565b60405180910390f35b34801561032257600080fd5b5061032b610c84565b005b34801561033957600080fd5b50610342610c98565b60405161034f91906117c2565b60405180910390f35b34801561036457600080fd5b5061036d610ca0565b60405161037a91906117c2565b60405180910390f35b34801561038f57600080fd5b50610398610cca565b6040516103a591906116fc565b60405180910390f35b3480156103ba57600080fd5b506103d560048036038101906103d0919061191f565b610d5c565b005b6103f160048036038101906103ec9190611a94565b610e67565b005b3480156103ff57600080fd5b5061041a60048036038101906104159190611754565b610eda565b60405161042791906116fc565b60405180910390f35b34801561043c57600080fd5b5061045760048036038101906104529190611b17565b610f78565b6040516104649190611651565b60405180910390f35b34801561047957600080fd5b50610494600480360381019061048f91906118c6565b61100c565b005b60006301ffc9a760e01b827bffffffffffffffffffffffffffffffffffffffffffffffffffffffff191614806104f157506380ac58cd60e01b827bffffffffffffffffffffffffffffffffffffffffffffffffffffffff1916145b806105215750635b5e139f60e01b827bffffffffffffffffffffffffffffffffffffffffffffffffffffffff1916145b9050919050565b60606002805461053790611b86565b80601f016020809104026020016040519081016040528092919081815260200182805461056390611b86565b80156105b05780601f10610585576101008083540402835291602001916105b0565b820191906000526020600020905b81548152906001019060200180831161059357829003601f168201915b5050505050905090565b60006105c58261108f565b6105fb576040517fcf4700e400000000000000000000000000000000000000000000000000000000815260040160405180910390fd5b6006600083815260200190815260200160002060000160009054906101000a900473ffffffffffffffffffffffffffffffffffffffff169050919050565b600061064482610bba565b90508073ffffffffffffffffffffffffffffffffffffffff166106656110ee565b73ffffffffffffffffffffffffffffffffffffffff16146106c8576106918161068c6110ee565b610f78565b6106c7576040517fcfb3b94200000000000000000000000000000000000000000000000000000000815260040160405180910390fd5b5b826006600084815260200190815260200160002060000160006101000a81548173ffffffffffffffffffffffffffffffffffffffff021916908373ffffffffffffffffffffffffffffffffffffffff160217905550818373ffffffffffffffffffffffffffffffffffffffff168273ffffffffffffffffffffffffffffffffffffffff167f8c5be1e5ebec7d5bd14f71427d1e84f3dd0314c0f7b2291e5b200ac8c7c3b92560405160405180910390a4505050565b60006107876110f6565b6001546000540303905090565b600061079f826110fb565b90508373ffffffffffffffffffffffffffffffffffffffff168173ffffffffffffffffffffffffffffffffffffffff1614610806576040517fa114810000000000000000000000000000000000000000000000000000000000815260040160405180910390fd5b600080610812846111c7565b9150915061082881876108236110ee565b6111ee565b6108745761083d866108386110ee565b610f78565b610873576040517f59c896be00000000000000000000000000000000000000000000000000000000815260040160405180910390fd5b5b600073ffffffffffffffffffffffffffffffffffffffff168573ffffffffffffffffffffffffffffffffffffffff16036108da576040517fea553b3400000000000000000000000000000000000000000000000000000000815260040160405180910390fd5b6108e78686866001611232565b80156108f257600082555b600560008773ffffffffffffffffffffffffffffffffffffffff1673ffffffffffffffffffffffffffffffffffffffff168152602001908152602001600020600081546001900391905081905550600560008673ffffffffffffffffffffffffffffffffffffffff1673ffffffffffffffffffffffffffffffffffffffff16815260200190815260200160002060008154600101919050819055506109c08561099c888887611238565b7c020000000000000000000000000000000000000000000000000000000017611260565b600460008681526020019081526020016000208190555060007c0200000000000000000000000000000000000000000000000000000000841603610a465760006001850190506000600460008381526020019081526020016000205403610a44576000548114610a43578360046000838152602001908152602001600020819055505b5b505b838573ffffffffffffffffffffffffffffffffffffffff168773ffffffffffffffffffffffffffffffffffffffff167fddf252ad1be2c89b69c2b068fc378daa952ba7f163c4a11628f55a4df523b3ef60405160405180910390a4610aae868686600161128b565b505050505050565b610ad183838360405180602001604052806000815250610e67565b505050565b610ade611291565b80600960006101000a81548173ffffffffffffffffffffffffffffffffffffffff021916908373ffffffffffffffffffffffffffffffffffffffff16021790555050565b6000600b60009054906101000a900473ffffffffffffffffffffffffffffffffffffffff1673ffffffffffffffffffffffffffffffffffffffff166376167a896040518163ffffffff1660e01b8152600401602060405180830381865afa158015610b91573d6000803e3d6000fd5b505050506040513d601f19601f82011682018060405250810190610bb59190611bcc565b905090565b6000610bc5826110fb565b9050919050565b60008073ffffffffffffffffffffffffffffffffffffffff168273ffffffffffffffffffffffffffffffffffffffff1603610c33576040517f8f4eb60400000000000000000000000000000000000000000000000000000000815260040160405180910390fd5b67ffffffffffffffff600560008473ffffffffffffffffffffffffffffffffffffffff1673ffffffffffffffffffffffffffffffffffffffff16815260200190815260200160002054169050919050565b610c8c611291565b610c96600061130f565b565b600033905090565b6000600860009054906101000a900473ffffffffffffffffffffffffffffffffffffffff16905090565b606060038054610cd990611b86565b80601f0160208091040260200160405190810160405280929190818152602001828054610d0590611b86565b8015610d525780601f10610d2757610100808354040283529160200191610d52565b820191906000526020600020905b815481529060010190602001808311610d3557829003601f168201915b5050505050905090565b8060076000610d696110ee565b73ffffffffffffffffffffffffffffffffffffffff1673ffffffffffffffffffffffffffffffffffffffff16815260200190815260200160002060008473ffffffffffffffffffffffffffffffffffffffff1673ffffffffffffffffffffffffffffffffffffffff16815260200190815260200160002060006101000a81548160ff0219169083151502179055508173ffffffffffffffffffffffffffffffffffffffff16610e166110ee565b73ffffffffffffffffffffffffffffffffffffffff167f17307eab39ab6107e8899845ad3d59bd9653f200f220920489ca2b5937696c3183604051610e5b9190611651565b60405180910390a35050565b610e72848484610794565b60008373ffffffffffffffffffffffffffffffffffffffff163b14610ed457610e9d848484846113d5565b610ed3576040517fd1a57ed600000000000000000000000000000000000000000000000000000000815260040160405180910390fd5b5b50505050565b6060610ee58261108f565b610f1b576040517fa14c4b5000000000000000000000000000000000000000000000000000000000815260040160405180910390fd5b6000610f25611525565b90506000815103610f455760405180602001604052806000815250610f70565b80610f4f8461153c565b604051602001610f60929190611c35565b6040516020818303038152906040525b915050919050565b6000600760008473ffffffffffffffffffffffffffffffffffffffff1673ffffffffffffffffffffffffffffffffffffffff16815260200190815260200160002060008373ffffffffffffffffffffffffffffffffffffffff1673ffffffffffffffffffffffffffffffffffffffff16815260200190815260200160002060009054906101000a900460ff16905092915050565b611014611291565b600073ffffffffffffffffffffffffffffffffffffffff168173ffffffffffffffffffffffffffffffffffffffff1603611083576040517f08c379a000000000000000000000000000000000000000000000000000000000815260040161107a90611ccb565b60405180910390fd5b61108c8161130f565b50565b60008161109a6110f6565b111580156110a9575060005482105b80156110e7575060007c0100000000000000000000000000000000000000000000000000000000600460008581526020019081526020016000205416145b9050919050565b600033905090565b600090565b6000808290508061110a6110f6565b116111905760005481101561118f5760006004600083815260200190815260200160002054905060007c010000000000000000000000000000000000000000000000000000000082160361118d575b60008103611183576004600083600190039350838152602001908152602001600020549050611159565b80925050506111c2565b505b5b6040517fdf2d9b4200000000000000000000000000000000000000000000000000000000815260040160405180910390fd5b919050565b60008060006006600085815260200190815260200160002090508092508254915050915091565b600073ffffffffffffffffffffffffffffffffffffffff8316925073ffffffffffffffffffffffffffffffffffffffff821691508382148383141790509392505050565b50505050565b60008060e883901c905060e861124f86868461158c565b62ffffff16901b9150509392505050565b600073ffffffffffffffffffffffffffffffffffffffff83169250814260a01b178317905092915050565b50505050565b611299611595565b73ffffffffffffffffffffffffffffffffffffffff166112b7610ca0565b73ffffffffffffffffffffffffffffffffffffffff161461130d576040517f08c379a000000000000000000000000000000000000000000000000000000000815260040161130490611d37565b60405180910390fd5b565b6000600860009054906101000a900473ffffffffffffffffffffffffffffffffffffffff16905081600860006101000a81548173ffffffffffffffffffffffffffffffffffffffff021916908373ffffffffffffffffffffffffffffffffffffffff1602179055508173ffffffffffffffffffffffffffffffffffffffff168173ffffffffffffffffffffffffffffffffffffffff167f8be0079c531659141344cd1fd0a4f28419497f9722a3daafe3b4186f6b6457e060405160405180910390a35050565b60008373ffffffffffffffffffffffffffffffffffffffff1663150b7a026113fb6110ee565b8786866040518563ffffffff1660e01b815260040161141d9493929190611dac565b6020604051808303816000875af192505050801561145957506040513d601f19601f820116820180604052508101906114569190611e0d565b60015b6114d2573d8060008114611489576040519150601f19603f3d011682016040523d82523d6000602084013e61148e565b606091505b5060008151036114ca576040517fd1a57ed600000000000000000000000000000000000000000000000000000000815260040160405180910390fd5b805181602001fd5b63150b7a0260e01b7bffffffffffffffffffffffffffffffffffffffffffffffffffffffff1916817bffffffffffffffffffffffffffffffffffffffffffffffffffffffff191614915050949350505050565b606060405180602001604052806000815250905090565b606060a060405101806040526020810391506000825281835b60011561157757600184039350600a81066030018453600a8104905080611555575b50828103602084039350808452505050919050565b60009392505050565b600033905090565b6000604051905090565b600080fd5b600080fd5b60007fffffffff0000000000000000000000000000000000000000000000000000000082169050919050565b6115e6816115b1565b81146115f157600080fd5b50565b600081359050611603816115dd565b92915050565b60006020828403121561161f5761161e6115a7565b5b600061162d848285016115f4565b91505092915050565b60008115159050919050565b61164b81611636565b82525050565b60006020820190506116666000830184611642565b92915050565b600081519050919050565b600082825260208201905092915050565b60005b838110156116a657808201518184015260208101905061168b565b60008484015250505050565b6000601f19601f8301169050919050565b60006116ce8261166c565b6116d88185611677565b93506116e8818560208601611688565b6116f1816116b2565b840191505092915050565b6000602082019050818103600083015261171681846116c3565b905092915050565b6000819050919050565b6117318161171e565b811461173c57600080fd5b50565b60008135905061174e81611728565b92915050565b60006020828403121561176a576117696115a7565b5b60006117788482850161173f565b91505092915050565b600073ffffffffffffffffffffffffffffffffffffffff82169050919050565b60006117ac82611781565b9050919050565b6117bc816117a1565b82525050565b60006020820190506117d760008301846117b3565b92915050565b6117e6816117a1565b81146117f157600080fd5b50565b600081359050611803816117dd565b92915050565b600080604083850312156118205761181f6115a7565b5b600061182e858286016117f4565b925050602061183f8582860161173f565b9150509250929050565b6118528161171e565b82525050565b600060208201905061186d6000830184611849565b92915050565b60008060006060848603121561188c5761188b6115a7565b5b600061189a868287016117f4565b93505060206118ab868287016117f4565b92505060406118bc8682870161173f565b9150509250925092565b6000602082840312156118dc576118db6115a7565b5b60006118ea848285016117f4565b91505092915050565b6118fc81611636565b811461190757600080fd5b50565b600081359050611919816118f3565b92915050565b60008060408385031215611936576119356115a7565b5b6000611944858286016117f4565b92505060206119558582860161190a565b9150509250929050565b600080fd5b600080fd5b7f4e487b7100000000000000000000000000000000000000000000000000000000600052604160045260246000fd5b6119a1826116b2565b810181811067ffffffffffffffff821117156119c0576119bf611969565b5b80604052505050565b60006119d361159d565b90506119df8282611998565b919050565b600067ffffffffffffffff8211156119ff576119fe611969565b5b611a08826116b2565b9050602081019050919050565b82818337600083830152505050565b6000611a37611a32846119e4565b6119c9565b905082815260208101848484011115611a5357611a52611964565b5b611a5e848285611a15565b509392505050565b600082601f830112611a7b57611a7a61195f565b5b8135611a8b848260208601611a24565b91505092915050565b60008060008060808587031215611aae57611aad6115a7565b5b6000611abc878288016117f4565b9450506020611acd878288016117f4565b9350506040611ade8782880161173f565b925050606085013567ffffffffffffffff811115611aff57611afe6115ac565b5b611b0b87828801611a66565b91505092959194509250565b60008060408385031215611b2e57611b2d6115a7565b5b6000611b3c858286016117f4565b9250506020611b4d858286016117f4565b9150509250929050565b7f4e487b7100000000000000000000000000000000000000000000000000000000600052602260045260246000fd5b60006002820490506001821680611b9e57607f821691505b602082108103611bb157611bb0611b57565b5b50919050565b600081519050611bc6816117dd565b92915050565b600060208284031215611be257611be16115a7565b5b6000611bf084828501611bb7565b91505092915050565b600081905092915050565b6000611c0f8261166c565b611c198185611bf9565b9350611c29818560208601611688565b80840191505092915050565b6000611c418285611c04565b9150611c4d8284611c04565b91508190509392505050565b7f4f776e61626c653a206e6577206f776e657220697320746865207a65726f206160008201527f6464726573730000000000000000000000000000000000000000000000000000602082015250565b6000611cb5602683611677565b9150611cc082611c59565b604082019050919050565b60006020820190508181036000830152611ce481611ca8565b9050919050565b7f4f776e61626c653a2063616c6c6572206973206e6f7420746865206f776e6572600082015250565b6000611d21602083611677565b9150611d2c82611ceb565b602082019050919050565b60006020820190508181036000830152611d5081611d14565b9050919050565b600081519050919050565b600082825260208201905092915050565b6000611d7e82611d57565b611d888185611d62565b9350611d98818560208601611688565b611da1816116b2565b840191505092915050565b6000608082019050611dc160008301876117b3565b611dce60208301866117b3565b611ddb6040830185611849565b8181036060830152611ded8184611d73565b905095945050505050565b600081519050611e07816115dd565b92915050565b600060208284031215611e2357611e226115a7565b5b6000611e3184828501611df8565b9150509291505056fea26469706673582212204ee2da5fbdb5b5176944990713f63fc444072f5a46de9c1895e62ae13dccf68f64736f6c63430008120033",
					"opcodes": "PUSH1 0x80 PUSH1 0x40 MSTORE PUSH20 0x43D218197E8C5FBC0527769821503660861C7045 PUSH1 0xA PUSH1 0x0 PUSH2 0x100 EXP DUP2 SLOAD DUP2 PUSH20 0xFFFFFFFFFFFFFFFFFFFFFFFFFFFFFFFFFFFFFFFF MUL NOT AND SWAP1 DUP4 PUSH20 0xFFFFFFFFFFFFFFFFFFFFFFFFFFFFFFFFFFFFFFFF AND MUL OR SWAP1 SSTORE POP PUSH1 0xA PUSH1 0x0 SWAP1 SLOAD SWAP1 PUSH2 0x100 EXP SWAP1 DIV PUSH20 0xFFFFFFFFFFFFFFFFFFFFFFFFFFFFFFFFFFFFFFFF AND PUSH1 0xB PUSH1 0x0 PUSH2 0x100 EXP DUP2 SLOAD DUP2 PUSH20 0xFFFFFFFFFFFFFFFFFFFFFFFFFFFFFFFFFFFFFFFF MUL NOT AND SWAP1 DUP4 PUSH20 0xFFFFFFFFFFFFFFFFFFFFFFFFFFFFFFFFFFFFFFFF AND MUL OR SWAP1 SSTORE POP CALLVALUE DUP1 ISZERO PUSH3 0xC9 JUMPI PUSH1 0x0 DUP1 REVERT JUMPDEST POP PUSH1 0x40 MLOAD DUP1 PUSH1 0x40 ADD PUSH1 0x40 MSTORE DUP1 PUSH1 0x18 DUP2 MSTORE PUSH1 0x20 ADD PUSH32 0x55494E54532050524F4F46204F462042524F4144434153540000000000000000 DUP2 MSTORE POP PUSH1 0x40 MLOAD DUP1 PUSH1 0x40 ADD PUSH1 0x40 MSTORE DUP1 PUSH1 0x3 DUP2 MSTORE PUSH1 0x20 ADD PUSH32 0x504F420000000000000000000000000000000000000000000000000000000000 DUP2 MSTORE POP DUP2 PUSH1 0x2 SWAP1 DUP2 PUSH3 0x147 SWAP2 SWAP1 PUSH3 0x4E5 JUMP JUMPDEST POP DUP1 PUSH1 0x3 SWAP1 DUP2 PUSH3 0x159 SWAP2 SWAP1 PUSH3 0x4E5 JUMP JUMPDEST POP PUSH3 0x16A PUSH3 0x198 PUSH1 0x20 SHL PUSH1 0x20 SHR JUMP JUMPDEST PUSH1 0x0 DUP2 SWAP1 SSTORE POP POP POP PUSH3 0x192 PUSH3 0x186 PUSH3 0x19D PUSH1 0x20 SHL PUSH1 0x20 SHR JUMP JUMPDEST PUSH3 0x1A5 PUSH1 0x20 SHL PUSH1 0x20 SHR JUMP JUMPDEST PUSH3 0x5CC JUMP JUMPDEST PUSH1 0x0 SWAP1 JUMP JUMPDEST PUSH1 0x0 CALLER SWAP1 POP SWAP1 JUMP JUMPDEST PUSH1 0x0 PUSH1 0x8 PUSH1 0x0 SWAP1 SLOAD SWAP1 PUSH2 0x100 EXP SWAP1 DIV PUSH20 0xFFFFFFFFFFFFFFFFFFFFFFFFFFFFFFFFFFFFFFFF AND SWAP1 POP DUP2 PUSH1 0x8 PUSH1 0x0 PUSH2 0x100 EXP DUP2 SLOAD DUP2 PUSH20 0xFFFFFFFFFFFFFFFFFFFFFFFFFFFFFFFFFFFFFFFF MUL NOT AND SWAP1 DUP4 PUSH20 0xFFFFFFFFFFFFFFFFFFFFFFFFFFFFFFFFFFFFFFFF AND MUL OR SWAP1 SSTORE POP DUP2 PUSH20 0xFFFFFFFFFFFFFFFFFFFFFFFFFFFFFFFFFFFFFFFF AND DUP2 PUSH20 0xFFFFFFFFFFFFFFFFFFFFFFFFFFFFFFFFFFFFFFFF AND PUSH32 0x8BE0079C531659141344CD1FD0A4F28419497F9722A3DAAFE3B4186F6B6457E0 PUSH1 0x40 MLOAD PUSH1 0x40 MLOAD DUP1 SWAP2 SUB SWAP1 LOG3 POP POP JUMP JUMPDEST PUSH1 0x0 DUP2 MLOAD SWAP1 POP SWAP2 SWAP1 POP JUMP JUMPDEST PUSH32 0x4E487B7100000000000000000000000000000000000000000000000000000000 PUSH1 0x0 MSTORE PUSH1 0x41 PUSH1 0x4 MSTORE PUSH1 0x24 PUSH1 0x0 REVERT JUMPDEST PUSH32 0x4E487B7100000000000000000000000000000000000000000000000000000000 PUSH1 0x0 MSTORE PUSH1 0x22 PUSH1 0x4 MSTORE PUSH1 0x24 PUSH1 0x0 REVERT JUMPDEST PUSH1 0x0 PUSH1 0x2 DUP3 DIV SWAP1 POP PUSH1 0x1 DUP3 AND DUP1 PUSH3 0x2ED JUMPI PUSH1 0x7F DUP3 AND SWAP2 POP JUMPDEST PUSH1 0x20 DUP3 LT DUP2 SUB PUSH3 0x303 JUMPI PUSH3 0x302 PUSH3 0x2A5 JUMP JUMPDEST JUMPDEST POP SWAP2 SWAP1 POP JUMP JUMPDEST PUSH1 0x0 DUP2 SWAP1 POP DUP2 PUSH1 0x0 MSTORE PUSH1 0x20 PUSH1 0x0 KECCAK256 SWAP1 POP SWAP2 SWAP1 POP JUMP JUMPDEST PUSH1 0x0 PUSH1 0x20 PUSH1 0x1F DUP4 ADD DIV SWAP1 POP SWAP2 SWAP1 POP JUMP JUMPDEST PUSH1 0x0 DUP3 DUP3 SHL SWAP1 POP SWAP3 SWAP2 POP POP JUMP JUMPDEST PUSH1 0x0 PUSH1 0x8 DUP4 MUL PUSH3 0x36D PUSH32 0xFFFFFFFFFFFFFFFFFFFFFFFFFFFFFFFFFFFFFFFFFFFFFFFFFFFFFFFFFFFFFFFF DUP3 PUSH3 0x32E JUMP JUMPDEST PUSH3 0x379 DUP7 DUP4 PUSH3 0x32E JUMP JUMPDEST SWAP6 POP DUP1 NOT DUP5 AND SWAP4 POP DUP1 DUP7 AND DUP5 OR SWAP3 POP POP POP SWAP4 SWAP3 POP POP POP JUMP JUMPDEST PUSH1 0x0 DUP2 SWAP1 POP SWAP2 SWAP1 POP JUMP JUMPDEST PUSH1 0x0 DUP2 SWAP1 POP SWAP2 SWAP1 POP JUMP JUMPDEST PUSH1 0x0 PUSH3 0x3C6 PUSH3 0x3C0 PUSH3 0x3BA DUP5 PUSH3 0x391 JUMP JUMPDEST PUSH3 0x39B JUMP JUMPDEST PUSH3 0x391 JUMP JUMPDEST SWAP1 POP SWAP2 SWAP1 POP JUMP JUMPDEST PUSH1 0x0 DUP2 SWAP1 POP SWAP2 SWAP1 POP JUMP JUMPDEST PUSH3 0x3E2 DUP4 PUSH3 0x3A5 JUMP JUMPDEST PUSH3 0x3FA PUSH3 0x3F1 DUP3 PUSH3 0x3CD JUMP JUMPDEST DUP5 DUP5 SLOAD PUSH3 0x33B JUMP JUMPDEST DUP3 SSTORE POP POP POP POP JUMP JUMPDEST PUSH1 0x0 SWAP1 JUMP JUMPDEST PUSH3 0x411 PUSH3 0x402 JUMP JUMPDEST PUSH3 0x41E DUP2 DUP5 DUP5 PUSH3 0x3D7 JUMP JUMPDEST POP POP POP JUMP JUMPDEST JUMPDEST DUP2 DUP2 LT ISZERO PUSH3 0x446 JUMPI PUSH3 0x43A PUSH1 0x0 DUP3 PUSH3 0x407 JUMP JUMPDEST PUSH1 0x1 DUP2 ADD SWAP1 POP PUSH3 0x424 JUMP JUMPDEST POP POP JUMP JUMPDEST PUSH1 0x1F DUP3 GT ISZERO PUSH3 0x495 JUMPI PUSH3 0x45F DUP2 PUSH3 0x309 JUMP JUMPDEST PUSH3 0x46A DUP5 PUSH3 0x31E JUMP JUMPDEST DUP2 ADD PUSH1 0x20 DUP6 LT ISZERO PUSH3 0x47A JUMPI DUP2 SWAP1 POP JUMPDEST PUSH3 0x492 PUSH3 0x489 DUP6 PUSH3 0x31E JUMP JUMPDEST DUP4 ADD DUP3 PUSH3 0x423 JUMP JUMPDEST POP POP JUMPDEST POP POP POP JUMP JUMPDEST PUSH1 0x0 DUP3 DUP3 SHR SWAP1 POP SWAP3 SWAP2 POP POP JUMP JUMPDEST PUSH1 0x0 PUSH3 0x4BA PUSH1 0x0 NOT DUP5 PUSH1 0x8 MUL PUSH3 0x49A JUMP JUMPDEST NOT DUP1 DUP4 AND SWAP2 POP POP SWAP3 SWAP2 POP POP JUMP JUMPDEST PUSH1 0x0 PUSH3 0x4D5 DUP4 DUP4 PUSH3 0x4A7 JUMP JUMPDEST SWAP2 POP DUP3 PUSH1 0x2 MUL DUP3 OR SWAP1 POP SWAP3 SWAP2 POP POP JUMP JUMPDEST PUSH3 0x4F0 DUP3 PUSH3 0x26B JUMP JUMPDEST PUSH8 0xFFFFFFFFFFFFFFFF DUP2 GT ISZERO PUSH3 0x50C JUMPI PUSH3 0x50B PUSH3 0x276 JUMP JUMPDEST JUMPDEST PUSH3 0x518 DUP3 SLOAD PUSH3 0x2D4 JUMP JUMPDEST PUSH3 0x525 DUP3 DUP3 DUP6 PUSH3 0x44A JUMP JUMPDEST PUSH1 0x0 PUSH1 0x20 SWAP1 POP PUSH1 0x1F DUP4 GT PUSH1 0x1 DUP2 EQ PUSH3 0x55D JUMPI PUSH1 0x0 DUP5 ISZERO PUSH3 0x548 JUMPI DUP3 DUP8 ADD MLOAD SWAP1 POP JUMPDEST PUSH3 0x554 DUP6 DUP3 PUSH3 0x4C7 JUMP JUMPDEST DUP7 SSTORE POP PUSH3 0x5C4 JUMP JUMPDEST PUSH1 0x1F NOT DUP5 AND PUSH3 0x56D DUP7 PUSH3 0x309 JUMP JUMPDEST PUSH1 0x0 JUMPDEST DUP3 DUP2 LT ISZERO PUSH3 0x597 JUMPI DUP5 DUP10 ADD MLOAD DUP3 SSTORE PUSH1 0x1 DUP3 ADD SWAP2 POP PUSH1 0x20 DUP6 ADD SWAP5 POP PUSH1 0x20 DUP2 ADD SWAP1 POP PUSH3 0x570 JUMP JUMPDEST DUP7 DUP4 LT ISZERO PUSH3 0x5B7 JUMPI DUP5 DUP10 ADD MLOAD PUSH3 0x5B3 PUSH1 0x1F DUP10 AND DUP3 PUSH3 0x4A7 JUMP JUMPDEST DUP4 SSTORE POP JUMPDEST PUSH1 0x1 PUSH1 0x2 DUP9 MUL ADD DUP9 SSTORE POP POP POP JUMPDEST POP POP POP POP POP POP JUMP JUMPDEST PUSH2 0x1E70 DUP1 PUSH3 0x5DC PUSH1 0x0 CODECOPY PUSH1 0x0 RETURN INVALID PUSH1 0x80 PUSH1 0x40 MSTORE PUSH1 0x4 CALLDATASIZE LT PUSH2 0x11F JUMPI PUSH1 0x0 CALLDATALOAD PUSH1 0xE0 SHR DUP1 PUSH4 0x70A08231 GT PUSH2 0xA0 JUMPI DUP1 PUSH4 0xA22CB465 GT PUSH2 0x64 JUMPI DUP1 PUSH4 0xA22CB465 EQ PUSH2 0x3AE JUMPI DUP1 PUSH4 0xB88D4FDE EQ PUSH2 0x3D7 JUMPI DUP1 PUSH4 0xC87B56DD EQ PUSH2 0x3F3 JUMPI DUP1 PUSH4 0xE985E9C5 EQ PUSH2 0x430 JUMPI DUP1 PUSH4 0xF2FDE38B EQ PUSH2 0x46D JUMPI PUSH2 0x11F JUMP JUMPDEST DUP1 PUSH4 0x70A08231 EQ PUSH2 0x2D9 JUMPI DUP1 PUSH4 0x715018A6 EQ PUSH2 0x316 JUMPI DUP1 PUSH4 0x76167A89 EQ PUSH2 0x32D JUMPI DUP1 PUSH4 0x8DA5CB5B EQ PUSH2 0x358 JUMPI DUP1 PUSH4 0x95D89B41 EQ PUSH2 0x383 JUMPI PUSH2 0x11F JUMP JUMPDEST DUP1 PUSH4 0x23B872DD GT PUSH2 0xE7 JUMPI DUP1 PUSH4 0x23B872DD EQ PUSH2 0x210 JUMPI DUP1 PUSH4 0x42842E0E EQ PUSH2 0x22C JUMPI DUP1 PUSH4 0x433F7B8B EQ PUSH2 0x248 JUMPI DUP1 PUSH4 0x43E0231E EQ PUSH2 0x271 JUMPI DUP1 PUSH4 0x6352211E EQ PUSH2 0x29C JUMPI PUSH2 0x11F JUMP JUMPDEST DUP1 PUSH4 0x1FFC9A7 EQ PUSH2 0x124 JUMPI DUP1 PUSH4 0x6FDDE03 EQ PUSH2 0x161 JUMPI DUP1 PUSH4 0x81812FC EQ PUSH2 0x18C JUMPI DUP1 PUSH4 0x95EA7B3 EQ PUSH2 0x1C9 JUMPI DUP1 PUSH4 0x18160DDD EQ PUSH2 0x1E5 JUMPI JUMPDEST PUSH1 0x0 DUP1 REVERT JUMPDEST CALLVALUE DUP1 ISZERO PUSH2 0x130 JUMPI PUSH1 0x0 DUP1 REVERT JUMPDEST POP PUSH2 0x14B PUSH1 0x4 DUP1 CALLDATASIZE SUB DUP2 ADD SWAP1 PUSH2 0x146 SWAP2 SWAP1 PUSH2 0x1609 JUMP JUMPDEST PUSH2 0x496 JUMP JUMPDEST PUSH1 0x40 MLOAD PUSH2 0x158 SWAP2 SWAP1 PUSH2 0x1651 JUMP JUMPDEST PUSH1 0x40 MLOAD DUP1 SWAP2 SUB SWAP1 RETURN JUMPDEST CALLVALUE DUP1 ISZERO PUSH2 0x16D JUMPI PUSH1 0x0 DUP1 REVERT JUMPDEST POP PUSH2 0x176 PUSH2 0x528 JUMP JUMPDEST PUSH1 0x40 MLOAD PUSH2 0x183 SWAP2 SWAP1 PUSH2 0x16FC JUMP JUMPDEST PUSH1 0x40 MLOAD DUP1 SWAP2 SUB SWAP1 RETURN JUMPDEST CALLVALUE DUP1 ISZERO PUSH2 0x198 JUMPI PUSH1 0x0 DUP1 REVERT JUMPDEST POP PUSH2 0x1B3 PUSH1 0x4 DUP1 CALLDATASIZE SUB DUP2 ADD SWAP1 PUSH2 0x1AE SWAP2 SWAP1 PUSH2 0x1754 JUMP JUMPDEST PUSH2 0x5BA JUMP JUMPDEST PUSH1 0x40 MLOAD PUSH2 0x1C0 SWAP2 SWAP1 PUSH2 0x17C2 JUMP JUMPDEST PUSH1 0x40 MLOAD DUP1 SWAP2 SUB SWAP1 RETURN JUMPDEST PUSH2 0x1E3 PUSH1 0x4 DUP1 CALLDATASIZE SUB DUP2 ADD SWAP1 PUSH2 0x1DE SWAP2 SWAP1 PUSH2 0x1809 JUMP JUMPDEST PUSH2 0x639 JUMP JUMPDEST STOP JUMPDEST CALLVALUE DUP1 ISZERO PUSH2 0x1F1 JUMPI PUSH1 0x0 DUP1 REVERT JUMPDEST POP PUSH2 0x1FA PUSH2 0x77D JUMP JUMPDEST PUSH1 0x40 MLOAD PUSH2 0x207 SWAP2 SWAP1 PUSH2 0x1858 JUMP JUMPDEST PUSH1 0x40 MLOAD DUP1 SWAP2 SUB SWAP1 RETURN JUMPDEST PUSH2 0x22A PUSH1 0x4 DUP1 CALLDATASIZE SUB DUP2 ADD SWAP1 PUSH2 0x225 SWAP2 SWAP1 PUSH2 0x1873 JUMP JUMPDEST PUSH2 0x794 JUMP JUMPDEST STOP JUMPDEST PUSH2 0x246 PUSH1 0x4 DUP1 CALLDATASIZE SUB DUP2 ADD SWAP1 PUSH2 0x241 SWAP2 SWAP1 PUSH2 0x1873 JUMP JUMPDEST PUSH2 0xAB6 JUMP JUMPDEST STOP JUMPDEST CALLVALUE DUP1 ISZERO PUSH2 0x254 JUMPI PUSH1 0x0 DUP1 REVERT JUMPDEST POP PUSH2 0x26F PUSH1 0x4 DUP1 CALLDATASIZE SUB DUP2 ADD SWAP1 PUSH2 0x26A SWAP2 SWAP1 PUSH2 0x18C6 JUMP JUMPDEST PUSH2 0xAD6 JUMP JUMPDEST STOP JUMPDEST CALLVALUE DUP1 ISZERO PUSH2 0x27D JUMPI PUSH1 0x0 DUP1 REVERT JUMPDEST POP PUSH2 0x286 PUSH2 0xB22 JUMP JUMPDEST PUSH1 0x40 MLOAD PUSH2 0x293 SWAP2 SWAP1 PUSH2 0x17C2 JUMP JUMPDEST PUSH1 0x40 MLOAD DUP1 SWAP2 SUB SWAP1 RETURN JUMPDEST CALLVALUE DUP1 ISZERO PUSH2 0x2A8 JUMPI PUSH1 0x0 DUP1 REVERT JUMPDEST POP PUSH2 0x2C3 PUSH1 0x4 DUP1 CALLDATASIZE SUB DUP2 ADD SWAP1 PUSH2 0x2BE SWAP2 SWAP1 PUSH2 0x1754 JUMP JUMPDEST PUSH2 0xBBA JUMP JUMPDEST PUSH1 0x40 MLOAD PUSH2 0x2D0 SWAP2 SWAP1 PUSH2 0x17C2 JUMP JUMPDEST PUSH1 0x40 MLOAD DUP1 SWAP2 SUB SWAP1 RETURN JUMPDEST CALLVALUE DUP1 ISZERO PUSH2 0x2E5 JUMPI PUSH1 0x0 DUP1 REVERT JUMPDEST POP PUSH2 0x300 PUSH1 0x4 DUP1 CALLDATASIZE SUB DUP2 ADD SWAP1 PUSH2 0x2FB SWAP2 SWAP1 PUSH2 0x18C6 JUMP JUMPDEST PUSH2 0xBCC JUMP JUMPDEST PUSH1 0x40 MLOAD PUSH2 0x30D SWAP2 SWAP1 PUSH2 0x1858 JUMP JUMPDEST PUSH1 0x40 MLOAD DUP1 SWAP2 SUB SWAP1 RETURN JUMPDEST CALLVALUE DUP1 ISZERO PUSH2 0x322 JUMPI PUSH1 0x0 DUP1 REVERT JUMPDEST POP PUSH2 0x32B PUSH2 0xC84 JUMP JUMPDEST STOP JUMPDEST CALLVALUE DUP1 ISZERO PUSH2 0x339 JUMPI PUSH1 0x0 DUP1 REVERT JUMPDEST POP PUSH2 0x342 PUSH2 0xC98 JUMP JUMPDEST PUSH1 0x40 MLOAD PUSH2 0x34F SWAP2 SWAP1 PUSH2 0x17C2 JUMP JUMPDEST PUSH1 0x40 MLOAD DUP1 SWAP2 SUB SWAP1 RETURN JUMPDEST CALLVALUE DUP1 ISZERO PUSH2 0x364 JUMPI PUSH1 0x0 DUP1 REVERT JUMPDEST POP PUSH2 0x36D PUSH2 0xCA0 JUMP JUMPDEST PUSH1 0x40 MLOAD PUSH2 0x37A SWAP2 SWAP1 PUSH2 0x17C2 JUMP JUMPDEST PUSH1 0x40 MLOAD DUP1 SWAP2 SUB SWAP1 RETURN JUMPDEST CALLVALUE DUP1 ISZERO PUSH2 0x38F JUMPI PUSH1 0x0 DUP1 REVERT JUMPDEST POP PUSH2 0x398 PUSH2 0xCCA JUMP JUMPDEST PUSH1 0x40 MLOAD PUSH2 0x3A5 SWAP2 SWAP1 PUSH2 0x16FC JUMP JUMPDEST PUSH1 0x40 MLOAD DUP1 SWAP2 SUB SWAP1 RETURN JUMPDEST CALLVALUE DUP1 ISZERO PUSH2 0x3BA JUMPI PUSH1 0x0 DUP1 REVERT JUMPDEST POP PUSH2 0x3D5 PUSH1 0x4 DUP1 CALLDATASIZE SUB DUP2 ADD SWAP1 PUSH2 0x3D0 SWAP2 SWAP1 PUSH2 0x191F JUMP JUMPDEST PUSH2 0xD5C JUMP JUMPDEST STOP JUMPDEST PUSH2 0x3F1 PUSH1 0x4 DUP1 CALLDATASIZE SUB DUP2 ADD SWAP1 PUSH2 0x3EC SWAP2 SWAP1 PUSH2 0x1A94 JUMP JUMPDEST PUSH2 0xE67 JUMP JUMPDEST STOP JUMPDEST CALLVALUE DUP1 ISZERO PUSH2 0x3FF JUMPI PUSH1 0x0 DUP1 REVERT JUMPDEST POP PUSH2 0x41A PUSH1 0x4 DUP1 CALLDATASIZE SUB DUP2 ADD SWAP1 PUSH2 0x415 SWAP2 SWAP1 PUSH2 0x1754 JUMP JUMPDEST PUSH2 0xEDA JUMP JUMPDEST PUSH1 0x40 MLOAD PUSH2 0x427 SWAP2 SWAP1 PUSH2 0x16FC JUMP JUMPDEST PUSH1 0x40 MLOAD DUP1 SWAP2 SUB SWAP1 RETURN JUMPDEST CALLVALUE DUP1 ISZERO PUSH2 0x43C JUMPI PUSH1 0x0 DUP1 REVERT JUMPDEST POP PUSH2 0x457 PUSH1 0x4 DUP1 CALLDATASIZE SUB DUP2 ADD SWAP1 PUSH2 0x452 SWAP2 SWAP1 PUSH2 0x1B17 JUMP JUMPDEST PUSH2 0xF78 JUMP JUMPDEST PUSH1 0x40 MLOAD PUSH2 0x464 SWAP2 SWAP1 PUSH2 0x1651 JUMP JUMPDEST PUSH1 0x40 MLOAD DUP1 SWAP2 SUB SWAP1 RETURN JUMPDEST CALLVALUE DUP1 ISZERO PUSH2 0x479 JUMPI PUSH1 0x0 DUP1 REVERT JUMPDEST POP PUSH2 0x494 PUSH1 0x4 DUP1 CALLDATASIZE SUB DUP2 ADD SWAP1 PUSH2 0x48F SWAP2 SWAP1 PUSH2 0x18C6 JUMP JUMPDEST PUSH2 0x100C JUMP JUMPDEST STOP JUMPDEST PUSH1 0x0 PUSH4 0x1FFC9A7 PUSH1 0xE0 SHL DUP3 PUSH28 0xFFFFFFFFFFFFFFFFFFFFFFFFFFFFFFFFFFFFFFFFFFFFFFFFFFFFFFFF NOT AND EQ DUP1 PUSH2 0x4F1 JUMPI POP PUSH4 0x80AC58CD PUSH1 0xE0 SHL DUP3 PUSH28 0xFFFFFFFFFFFFFFFFFFFFFFFFFFFFFFFFFFFFFFFFFFFFFFFFFFFFFFFF NOT AND EQ JUMPDEST DUP1 PUSH2 0x521 JUMPI POP PUSH4 0x5B5E139F PUSH1 0xE0 SHL DUP3 PUSH28 0xFFFFFFFFFFFFFFFFFFFFFFFFFFFFFFFFFFFFFFFFFFFFFFFFFFFFFFFF NOT AND EQ JUMPDEST SWAP1 POP SWAP2 SWAP1 POP JUMP JUMPDEST PUSH1 0x60 PUSH1 0x2 DUP1 SLOAD PUSH2 0x537 SWAP1 PUSH2 0x1B86 JUMP JUMPDEST DUP1 PUSH1 0x1F ADD PUSH1 0x20 DUP1 SWAP2 DIV MUL PUSH1 0x20 ADD PUSH1 0x40 MLOAD SWAP1 DUP2 ADD PUSH1 0x40 MSTORE DUP1 SWAP3 SWAP2 SWAP1 DUP2 DUP2 MSTORE PUSH1 0x20 ADD DUP3 DUP1 SLOAD PUSH2 0x563 SWAP1 PUSH2 0x1B86 JUMP JUMPDEST DUP1 ISZERO PUSH2 0x5B0 JUMPI DUP1 PUSH1 0x1F LT PUSH2 0x585 JUMPI PUSH2 0x100 DUP1 DUP4 SLOAD DIV MUL DUP4 MSTORE SWAP2 PUSH1 0x20 ADD SWAP2 PUSH2 0x5B0 JUMP JUMPDEST DUP3 ADD SWAP2 SWAP1 PUSH1 0x0 MSTORE PUSH1 0x20 PUSH1 0x0 KECCAK256 SWAP1 JUMPDEST DUP2 SLOAD DUP2 MSTORE SWAP1 PUSH1 0x1 ADD SWAP1 PUSH1 0x20 ADD DUP1 DUP4 GT PUSH2 0x593 JUMPI DUP3 SWAP1 SUB PUSH1 0x1F AND DUP3 ADD SWAP2 JUMPDEST POP POP POP POP POP SWAP1 POP SWAP1 JUMP JUMPDEST PUSH1 0x0 PUSH2 0x5C5 DUP3 PUSH2 0x108F JUMP JUMPDEST PUSH2 0x5FB JUMPI PUSH1 0x40 MLOAD PUSH32 0xCF4700E400000000000000000000000000000000000000000000000000000000 DUP2 MSTORE PUSH1 0x4 ADD PUSH1 0x40 MLOAD DUP1 SWAP2 SUB SWAP1 REVERT JUMPDEST PUSH1 0x6 PUSH1 0x0 DUP4 DUP2 MSTORE PUSH1 0x20 ADD SWAP1 DUP2 MSTORE PUSH1 0x20 ADD PUSH1 0x0 KECCAK256 PUSH1 0x0 ADD PUSH1 0x0 SWAP1 SLOAD SWAP1 PUSH2 0x100 EXP SWAP1 DIV PUSH20 0xFFFFFFFFFFFFFFFFFFFFFFFFFFFFFFFFFFFFFFFF AND SWAP1 POP SWAP2 SWAP1 POP JUMP JUMPDEST PUSH1 0x0 PUSH2 0x644 DUP3 PUSH2 0xBBA JUMP JUMPDEST SWAP1 POP DUP1 PUSH20 0xFFFFFFFFFFFFFFFFFFFFFFFFFFFFFFFFFFFFFFFF AND PUSH2 0x665 PUSH2 0x10EE JUMP JUMPDEST PUSH20 0xFFFFFFFFFFFFFFFFFFFFFFFFFFFFFFFFFFFFFFFF AND EQ PUSH2 0x6C8 JUMPI PUSH2 0x691 DUP2 PUSH2 0x68C PUSH2 0x10EE JUMP JUMPDEST PUSH2 0xF78 JUMP JUMPDEST PUSH2 0x6C7 JUMPI PUSH1 0x40 MLOAD PUSH32 0xCFB3B94200000000000000000000000000000000000000000000000000000000 DUP2 MSTORE PUSH1 0x4 ADD PUSH1 0x40 MLOAD DUP1 SWAP2 SUB SWAP1 REVERT JUMPDEST JUMPDEST DUP3 PUSH1 0x6 PUSH1 0x0 DUP5 DUP2 MSTORE PUSH1 0x20 ADD SWAP1 DUP2 MSTORE PUSH1 0x20 ADD PUSH1 0x0 KECCAK256 PUSH1 0x0 ADD PUSH1 0x0 PUSH2 0x100 EXP DUP2 SLOAD DUP2 PUSH20 0xFFFFFFFFFFFFFFFFFFFFFFFFFFFFFFFFFFFFFFFF MUL NOT AND SWAP1 DUP4 PUSH20 0xFFFFFFFFFFFFFFFFFFFFFFFFFFFFFFFFFFFFFFFF AND MUL OR SWAP1 SSTORE POP DUP2 DUP4 PUSH20 0xFFFFFFFFFFFFFFFFFFFFFFFFFFFFFFFFFFFFFFFF AND DUP3 PUSH20 0xFFFFFFFFFFFFFFFFFFFFFFFFFFFFFFFFFFFFFFFF AND PUSH32 0x8C5BE1E5EBEC7D5BD14F71427D1E84F3DD0314C0F7B2291E5B200AC8C7C3B925 PUSH1 0x40 MLOAD PUSH1 0x40 MLOAD DUP1 SWAP2 SUB SWAP1 LOG4 POP POP POP JUMP JUMPDEST PUSH1 0x0 PUSH2 0x787 PUSH2 0x10F6 JUMP JUMPDEST PUSH1 0x1 SLOAD PUSH1 0x0 SLOAD SUB SUB SWAP1 POP SWAP1 JUMP JUMPDEST PUSH1 0x0 PUSH2 0x79F DUP3 PUSH2 0x10FB JUMP JUMPDEST SWAP1 POP DUP4 PUSH20 0xFFFFFFFFFFFFFFFFFFFFFFFFFFFFFFFFFFFFFFFF AND DUP2 PUSH20 0xFFFFFFFFFFFFFFFFFFFFFFFFFFFFFFFFFFFFFFFF AND EQ PUSH2 0x806 JUMPI PUSH1 0x40 MLOAD PUSH32 0xA114810000000000000000000000000000000000000000000000000000000000 DUP2 MSTORE PUSH1 0x4 ADD PUSH1 0x40 MLOAD DUP1 SWAP2 SUB SWAP1 REVERT JUMPDEST PUSH1 0x0 DUP1 PUSH2 0x812 DUP5 PUSH2 0x11C7 JUMP JUMPDEST SWAP2 POP SWAP2 POP PUSH2 0x828 DUP2 DUP8 PUSH2 0x823 PUSH2 0x10EE JUMP JUMPDEST PUSH2 0x11EE JUMP JUMPDEST PUSH2 0x874 JUMPI PUSH2 0x83D DUP7 PUSH2 0x838 PUSH2 0x10EE JUMP JUMPDEST PUSH2 0xF78 JUMP JUMPDEST PUSH2 0x873 JUMPI PUSH1 0x40 MLOAD PUSH32 0x59C896BE00000000000000000000000000000000000000000000000000000000 DUP2 MSTORE PUSH1 0x4 ADD PUSH1 0x40 MLOAD DUP1 SWAP2 SUB SWAP1 REVERT JUMPDEST JUMPDEST PUSH1 0x0 PUSH20 0xFFFFFFFFFFFFFFFFFFFFFFFFFFFFFFFFFFFFFFFF AND DUP6 PUSH20 0xFFFFFFFFFFFFFFFFFFFFFFFFFFFFFFFFFFFFFFFF AND SUB PUSH2 0x8DA JUMPI PUSH1 0x40 MLOAD PUSH32 0xEA553B3400000000000000000000000000000000000000000000000000000000 DUP2 MSTORE PUSH1 0x4 ADD PUSH1 0x40 MLOAD DUP1 SWAP2 SUB SWAP1 REVERT JUMPDEST PUSH2 0x8E7 DUP7 DUP7 DUP7 PUSH1 0x1 PUSH2 0x1232 JUMP JUMPDEST DUP1 ISZERO PUSH2 0x8F2 JUMPI PUSH1 0x0 DUP3 SSTORE JUMPDEST PUSH1 0x5 PUSH1 0x0 DUP8 PUSH20 0xFFFFFFFFFFFFFFFFFFFFFFFFFFFFFFFFFFFFFFFF AND PUSH20 0xFFFFFFFFFFFFFFFFFFFFFFFFFFFFFFFFFFFFFFFF AND DUP2 MSTORE PUSH1 0x20 ADD SWAP1 DUP2 MSTORE PUSH1 0x20 ADD PUSH1 0x0 KECCAK256 PUSH1 0x0 DUP2 SLOAD PUSH1 0x1 SWAP1 SUB SWAP2 SWAP1 POP DUP2 SWAP1 SSTORE POP PUSH1 0x5 PUSH1 0x0 DUP7 PUSH20 0xFFFFFFFFFFFFFFFFFFFFFFFFFFFFFFFFFFFFFFFF AND PUSH20 0xFFFFFFFFFFFFFFFFFFFFFFFFFFFFFFFFFFFFFFFF AND DUP2 MSTORE PUSH1 0x20 ADD SWAP1 DUP2 MSTORE PUSH1 0x20 ADD PUSH1 0x0 KECCAK256 PUSH1 0x0 DUP2 SLOAD PUSH1 0x1 ADD SWAP2 SWAP1 POP DUP2 SWAP1 SSTORE POP PUSH2 0x9C0 DUP6 PUSH2 0x99C DUP9 DUP9 DUP8 PUSH2 0x1238 JUMP JUMPDEST PUSH29 0x200000000000000000000000000000000000000000000000000000000 OR PUSH2 0x1260 JUMP JUMPDEST PUSH1 0x4 PUSH1 0x0 DUP7 DUP2 MSTORE PUSH1 0x20 ADD SWAP1 DUP2 MSTORE PUSH1 0x20 ADD PUSH1 0x0 KECCAK256 DUP2 SWAP1 SSTORE POP PUSH1 0x0 PUSH29 0x200000000000000000000000000000000000000000000000000000000 DUP5 AND SUB PUSH2 0xA46 JUMPI PUSH1 0x0 PUSH1 0x1 DUP6 ADD SWAP1 POP PUSH1 0x0 PUSH1 0x4 PUSH1 0x0 DUP4 DUP2 MSTORE PUSH1 0x20 ADD SWAP1 DUP2 MSTORE PUSH1 0x20 ADD PUSH1 0x0 KECCAK256 SLOAD SUB PUSH2 0xA44 JUMPI PUSH1 0x0 SLOAD DUP2 EQ PUSH2 0xA43 JUMPI DUP4 PUSH1 0x4 PUSH1 0x0 DUP4 DUP2 MSTORE PUSH1 0x20 ADD SWAP1 DUP2 MSTORE PUSH1 0x20 ADD PUSH1 0x0 KECCAK256 DUP2 SWAP1 SSTORE POP JUMPDEST JUMPDEST POP JUMPDEST DUP4 DUP6 PUSH20 0xFFFFFFFFFFFFFFFFFFFFFFFFFFFFFFFFFFFFFFFF AND DUP8 PUSH20 0xFFFFFFFFFFFFFFFFFFFFFFFFFFFFFFFFFFFFFFFF AND PUSH32 0xDDF252AD1BE2C89B69C2B068FC378DAA952BA7F163C4A11628F55A4DF523B3EF PUSH1 0x40 MLOAD PUSH1 0x40 MLOAD DUP1 SWAP2 SUB SWAP1 LOG4 PUSH2 0xAAE DUP7 DUP7 DUP7 PUSH1 0x1 PUSH2 0x128B JUMP JUMPDEST POP POP POP POP POP POP JUMP JUMPDEST PUSH2 0xAD1 DUP4 DUP4 DUP4 PUSH1 0x40 MLOAD DUP1 PUSH1 0x20 ADD PUSH1 0x40 MSTORE DUP1 PUSH1 0x0 DUP2 MSTORE POP PUSH2 0xE67 JUMP JUMPDEST POP POP POP JUMP JUMPDEST PUSH2 0xADE PUSH2 0x1291 JUMP JUMPDEST DUP1 PUSH1 0x9 PUSH1 0x0 PUSH2 0x100 EXP DUP2 SLOAD DUP2 PUSH20 0xFFFFFFFFFFFFFFFFFFFFFFFFFFFFFFFFFFFFFFFF MUL NOT AND SWAP1 DUP4 PUSH20 0xFFFFFFFFFFFFFFFFFFFFFFFFFFFFFFFFFFFFFFFF AND MUL OR SWAP1 SSTORE POP POP JUMP JUMPDEST PUSH1 0x0 PUSH1 0xB PUSH1 0x0 SWAP1 SLOAD SWAP1 PUSH2 0x100 EXP SWAP1 DIV PUSH20 0xFFFFFFFFFFFFFFFFFFFFFFFFFFFFFFFFFFFFFFFF AND PUSH20 0xFFFFFFFFFFFFFFFFFFFFFFFFFFFFFFFFFFFFFFFF AND PUSH4 0x76167A89 PUSH1 0x40 MLOAD DUP2 PUSH4 0xFFFFFFFF AND PUSH1 0xE0 SHL DUP2 MSTORE PUSH1 0x4 ADD PUSH1 0x20 PUSH1 0x40 MLOAD DUP1 DUP4 SUB DUP2 DUP7 GAS STATICCALL ISZERO DUP1 ISZERO PUSH2 0xB91 JUMPI RETURNDATASIZE PUSH1 0x0 DUP1 RETURNDATACOPY RETURNDATASIZE PUSH1 0x0 REVERT JUMPDEST POP POP POP POP PUSH1 0x40 MLOAD RETURNDATASIZE PUSH1 0x1F NOT PUSH1 0x1F DUP3 ADD AND DUP3 ADD DUP1 PUSH1 0x40 MSTORE POP DUP2 ADD SWAP1 PUSH2 0xBB5 SWAP2 SWAP1 PUSH2 0x1BCC JUMP JUMPDEST SWAP1 POP SWAP1 JUMP JUMPDEST PUSH1 0x0 PUSH2 0xBC5 DUP3 PUSH2 0x10FB JUMP JUMPDEST SWAP1 POP SWAP2 SWAP1 POP JUMP JUMPDEST PUSH1 0x0 DUP1 PUSH20 0xFFFFFFFFFFFFFFFFFFFFFFFFFFFFFFFFFFFFFFFF AND DUP3 PUSH20 0xFFFFFFFFFFFFFFFFFFFFFFFFFFFFFFFFFFFFFFFF AND SUB PUSH2 0xC33 JUMPI PUSH1 0x40 MLOAD PUSH32 0x8F4EB60400000000000000000000000000000000000000000000000000000000 DUP2 MSTORE PUSH1 0x4 ADD PUSH1 0x40 MLOAD DUP1 SWAP2 SUB SWAP1 REVERT JUMPDEST PUSH8 0xFFFFFFFFFFFFFFFF PUSH1 0x5 PUSH1 0x0 DUP5 PUSH20 0xFFFFFFFFFFFFFFFFFFFFFFFFFFFFFFFFFFFFFFFF AND PUSH20 0xFFFFFFFFFFFFFFFFFFFFFFFFFFFFFFFFFFFFFFFF AND DUP2 MSTORE PUSH1 0x20 ADD SWAP1 DUP2 MSTORE PUSH1 0x20 ADD PUSH1 0x0 KECCAK256 SLOAD AND SWAP1 POP SWAP2 SWAP1 POP JUMP JUMPDEST PUSH2 0xC8C PUSH2 0x1291 JUMP JUMPDEST PUSH2 0xC96 PUSH1 0x0 PUSH2 0x130F JUMP JUMPDEST JUMP JUMPDEST PUSH1 0x0 CALLER SWAP1 POP SWAP1 JUMP JUMPDEST PUSH1 0x0 PUSH1 0x8 PUSH1 0x0 SWAP1 SLOAD SWAP1 PUSH2 0x100 EXP SWAP1 DIV PUSH20 0xFFFFFFFFFFFFFFFFFFFFFFFFFFFFFFFFFFFFFFFF AND SWAP1 POP SWAP1 JUMP JUMPDEST PUSH1 0x60 PUSH1 0x3 DUP1 SLOAD PUSH2 0xCD9 SWAP1 PUSH2 0x1B86 JUMP JUMPDEST DUP1 PUSH1 0x1F ADD PUSH1 0x20 DUP1 SWAP2 DIV MUL PUSH1 0x20 ADD PUSH1 0x40 MLOAD SWAP1 DUP2 ADD PUSH1 0x40 MSTORE DUP1 SWAP3 SWAP2 SWAP1 DUP2 DUP2 MSTORE PUSH1 0x20 ADD DUP3 DUP1 SLOAD PUSH2 0xD05 SWAP1 PUSH2 0x1B86 JUMP JUMPDEST DUP1 ISZERO PUSH2 0xD52 JUMPI DUP1 PUSH1 0x1F LT PUSH2 0xD27 JUMPI PUSH2 0x100 DUP1 DUP4 SLOAD DIV MUL DUP4 MSTORE SWAP2 PUSH1 0x20 ADD SWAP2 PUSH2 0xD52 JUMP JUMPDEST DUP3 ADD SWAP2 SWAP1 PUSH1 0x0 MSTORE PUSH1 0x20 PUSH1 0x0 KECCAK256 SWAP1 JUMPDEST DUP2 SLOAD DUP2 MSTORE SWAP1 PUSH1 0x1 ADD SWAP1 PUSH1 0x20 ADD DUP1 DUP4 GT PUSH2 0xD35 JUMPI DUP3 SWAP1 SUB PUSH1 0x1F AND DUP3 ADD SWAP2 JUMPDEST POP POP POP POP POP SWAP1 POP SWAP1 JUMP JUMPDEST DUP1 PUSH1 0x7 PUSH1 0x0 PUSH2 0xD69 PUSH2 0x10EE JUMP JUMPDEST PUSH20 0xFFFFFFFFFFFFFFFFFFFFFFFFFFFFFFFFFFFFFFFF AND PUSH20 0xFFFFFFFFFFFFFFFFFFFFFFFFFFFFFFFFFFFFFFFF AND DUP2 MSTORE PUSH1 0x20 ADD SWAP1 DUP2 MSTORE PUSH1 0x20 ADD PUSH1 0x0 KECCAK256 PUSH1 0x0 DUP5 PUSH20 0xFFFFFFFFFFFFFFFFFFFFFFFFFFFFFFFFFFFFFFFF AND PUSH20 0xFFFFFFFFFFFFFFFFFFFFFFFFFFFFFFFFFFFFFFFF AND DUP2 MSTORE PUSH1 0x20 ADD SWAP1 DUP2 MSTORE PUSH1 0x20 ADD PUSH1 0x0 KECCAK256 PUSH1 0x0 PUSH2 0x100 EXP DUP2 SLOAD DUP2 PUSH1 0xFF MUL NOT AND SWAP1 DUP4 ISZERO ISZERO MUL OR SWAP1 SSTORE POP DUP2 PUSH20 0xFFFFFFFFFFFFFFFFFFFFFFFFFFFFFFFFFFFFFFFF AND PUSH2 0xE16 PUSH2 0x10EE JUMP JUMPDEST PUSH20 0xFFFFFFFFFFFFFFFFFFFFFFFFFFFFFFFFFFFFFFFF AND PUSH32 0x17307EAB39AB6107E8899845AD3D59BD9653F200F220920489CA2B5937696C31 DUP4 PUSH1 0x40 MLOAD PUSH2 0xE5B SWAP2 SWAP1 PUSH2 0x1651 JUMP JUMPDEST PUSH1 0x40 MLOAD DUP1 SWAP2 SUB SWAP1 LOG3 POP POP JUMP JUMPDEST PUSH2 0xE72 DUP5 DUP5 DUP5 PUSH2 0x794 JUMP JUMPDEST PUSH1 0x0 DUP4 PUSH20 0xFFFFFFFFFFFFFFFFFFFFFFFFFFFFFFFFFFFFFFFF AND EXTCODESIZE EQ PUSH2 0xED4 JUMPI PUSH2 0xE9D DUP5 DUP5 DUP5 DUP5 PUSH2 0x13D5 JUMP JUMPDEST PUSH2 0xED3 JUMPI PUSH1 0x40 MLOAD PUSH32 0xD1A57ED600000000000000000000000000000000000000000000000000000000 DUP2 MSTORE PUSH1 0x4 ADD PUSH1 0x40 MLOAD DUP1 SWAP2 SUB SWAP1 REVERT JUMPDEST JUMPDEST POP POP POP POP JUMP JUMPDEST PUSH1 0x60 PUSH2 0xEE5 DUP3 PUSH2 0x108F JUMP JUMPDEST PUSH2 0xF1B JUMPI PUSH1 0x40 MLOAD PUSH32 0xA14C4B5000000000000000000000000000000000000000000000000000000000 DUP2 MSTORE PUSH1 0x4 ADD PUSH1 0x40 MLOAD DUP1 SWAP2 SUB SWAP1 REVERT JUMPDEST PUSH1 0x0 PUSH2 0xF25 PUSH2 0x1525 JUMP JUMPDEST SWAP1 POP PUSH1 0x0 DUP2 MLOAD SUB PUSH2 0xF45 JUMPI PUSH1 0x40 MLOAD DUP1 PUSH1 0x20 ADD PUSH1 0x40 MSTORE DUP1 PUSH1 0x0 DUP2 MSTORE POP PUSH2 0xF70 JUMP JUMPDEST DUP1 PUSH2 0xF4F DUP5 PUSH2 0x153C JUMP JUMPDEST PUSH1 0x40 MLOAD PUSH1 0x20 ADD PUSH2 0xF60 SWAP3 SWAP2 SWAP1 PUSH2 0x1C35 JUMP JUMPDEST PUSH1 0x40 MLOAD PUSH1 0x20 DUP2 DUP4 SUB SUB DUP2 MSTORE SWAP1 PUSH1 0x40 MSTORE JUMPDEST SWAP2 POP POP SWAP2 SWAP1 POP JUMP JUMPDEST PUSH1 0x0 PUSH1 0x7 PUSH1 0x0 DUP5 PUSH20 0xFFFFFFFFFFFFFFFFFFFFFFFFFFFFFFFFFFFFFFFF AND PUSH20 0xFFFFFFFFFFFFFFFFFFFFFFFFFFFFFFFFFFFFFFFF AND DUP2 MSTORE PUSH1 0x20 ADD SWAP1 DUP2 MSTORE PUSH1 0x20 ADD PUSH1 0x0 KECCAK256 PUSH1 0x0 DUP4 PUSH20 0xFFFFFFFFFFFFFFFFFFFFFFFFFFFFFFFFFFFFFFFF AND PUSH20 0xFFFFFFFFFFFFFFFFFFFFFFFFFFFFFFFFFFFFFFFF AND DUP2 MSTORE PUSH1 0x20 ADD SWAP1 DUP2 MSTORE PUSH1 0x20 ADD PUSH1 0x0 KECCAK256 PUSH1 0x0 SWAP1 SLOAD SWAP1 PUSH2 0x100 EXP SWAP1 DIV PUSH1 0xFF AND SWAP1 POP SWAP3 SWAP2 POP POP JUMP JUMPDEST PUSH2 0x1014 PUSH2 0x1291 JUMP JUMPDEST PUSH1 0x0 PUSH20 0xFFFFFFFFFFFFFFFFFFFFFFFFFFFFFFFFFFFFFFFF AND DUP2 PUSH20 0xFFFFFFFFFFFFFFFFFFFFFFFFFFFFFFFFFFFFFFFF AND SUB PUSH2 0x1083 JUMPI PUSH1 0x40 MLOAD PUSH32 0x8C379A000000000000000000000000000000000000000000000000000000000 DUP2 MSTORE PUSH1 0x4 ADD PUSH2 0x107A SWAP1 PUSH2 0x1CCB JUMP JUMPDEST PUSH1 0x40 MLOAD DUP1 SWAP2 SUB SWAP1 REVERT JUMPDEST PUSH2 0x108C DUP2 PUSH2 0x130F JUMP JUMPDEST POP JUMP JUMPDEST PUSH1 0x0 DUP2 PUSH2 0x109A PUSH2 0x10F6 JUMP JUMPDEST GT ISZERO DUP1 ISZERO PUSH2 0x10A9 JUMPI POP PUSH1 0x0 SLOAD DUP3 LT JUMPDEST DUP1 ISZERO PUSH2 0x10E7 JUMPI POP PUSH1 0x0 PUSH29 0x100000000000000000000000000000000000000000000000000000000 PUSH1 0x4 PUSH1 0x0 DUP6 DUP2 MSTORE PUSH1 0x20 ADD SWAP1 DUP2 MSTORE PUSH1 0x20 ADD PUSH1 0x0 KECCAK256 SLOAD AND EQ JUMPDEST SWAP1 POP SWAP2 SWAP1 POP JUMP JUMPDEST PUSH1 0x0 CALLER SWAP1 POP SWAP1 JUMP JUMPDEST PUSH1 0x0 SWAP1 JUMP JUMPDEST PUSH1 0x0 DUP1 DUP3 SWAP1 POP DUP1 PUSH2 0x110A PUSH2 0x10F6 JUMP JUMPDEST GT PUSH2 0x1190 JUMPI PUSH1 0x0 SLOAD DUP2 LT ISZERO PUSH2 0x118F JUMPI PUSH1 0x0 PUSH1 0x4 PUSH1 0x0 DUP4 DUP2 MSTORE PUSH1 0x20 ADD SWAP1 DUP2 MSTORE PUSH1 0x20 ADD PUSH1 0x0 KECCAK256 SLOAD SWAP1 POP PUSH1 0x0 PUSH29 0x100000000000000000000000000000000000000000000000000000000 DUP3 AND SUB PUSH2 0x118D JUMPI JUMPDEST PUSH1 0x0 DUP2 SUB PUSH2 0x1183 JUMPI PUSH1 0x4 PUSH1 0x0 DUP4 PUSH1 0x1 SWAP1 SUB SWAP4 POP DUP4 DUP2 MSTORE PUSH1 0x20 ADD SWAP1 DUP2 MSTORE PUSH1 0x20 ADD PUSH1 0x0 KECCAK256 SLOAD SWAP1 POP PUSH2 0x1159 JUMP JUMPDEST DUP1 SWAP3 POP POP POP PUSH2 0x11C2 JUMP JUMPDEST POP JUMPDEST JUMPDEST PUSH1 0x40 MLOAD PUSH32 0xDF2D9B4200000000000000000000000000000000000000000000000000000000 DUP2 MSTORE PUSH1 0x4 ADD PUSH1 0x40 MLOAD DUP1 SWAP2 SUB SWAP1 REVERT JUMPDEST SWAP2 SWAP1 POP JUMP JUMPDEST PUSH1 0x0 DUP1 PUSH1 0x0 PUSH1 0x6 PUSH1 0x0 DUP6 DUP2 MSTORE PUSH1 0x20 ADD SWAP1 DUP2 MSTORE PUSH1 0x20 ADD PUSH1 0x0 KECCAK256 SWAP1 POP DUP1 SWAP3 POP DUP3 SLOAD SWAP2 POP POP SWAP2 POP SWAP2 JUMP JUMPDEST PUSH1 0x0 PUSH20 0xFFFFFFFFFFFFFFFFFFFFFFFFFFFFFFFFFFFFFFFF DUP4 AND SWAP3 POP PUSH20 0xFFFFFFFFFFFFFFFFFFFFFFFFFFFFFFFFFFFFFFFF DUP3 AND SWAP2 POP DUP4 DUP3 EQ DUP4 DUP4 EQ OR SWAP1 POP SWAP4 SWAP3 POP POP POP JUMP JUMPDEST POP POP POP POP JUMP JUMPDEST PUSH1 0x0 DUP1 PUSH1 0xE8 DUP4 SWAP1 SHR SWAP1 POP PUSH1 0xE8 PUSH2 0x124F DUP7 DUP7 DUP5 PUSH2 0x158C JUMP JUMPDEST PUSH3 0xFFFFFF AND SWAP1 SHL SWAP2 POP POP SWAP4 SWAP3 POP POP POP JUMP JUMPDEST PUSH1 0x0 PUSH20 0xFFFFFFFFFFFFFFFFFFFFFFFFFFFFFFFFFFFFFFFF DUP4 AND SWAP3 POP DUP2 TIMESTAMP PUSH1 0xA0 SHL OR DUP4 OR SWAP1 POP SWAP3 SWAP2 POP POP JUMP JUMPDEST POP POP POP POP JUMP JUMPDEST PUSH2 0x1299 PUSH2 0x1595 JUMP JUMPDEST PUSH20 0xFFFFFFFFFFFFFFFFFFFFFFFFFFFFFFFFFFFFFFFF AND PUSH2 0x12B7 PUSH2 0xCA0 JUMP JUMPDEST PUSH20 0xFFFFFFFFFFFFFFFFFFFFFFFFFFFFFFFFFFFFFFFF AND EQ PUSH2 0x130D JUMPI PUSH1 0x40 MLOAD PUSH32 0x8C379A000000000000000000000000000000000000000000000000000000000 DUP2 MSTORE PUSH1 0x4 ADD PUSH2 0x1304 SWAP1 PUSH2 0x1D37 JUMP JUMPDEST PUSH1 0x40 MLOAD DUP1 SWAP2 SUB SWAP1 REVERT JUMPDEST JUMP JUMPDEST PUSH1 0x0 PUSH1 0x8 PUSH1 0x0 SWAP1 SLOAD SWAP1 PUSH2 0x100 EXP SWAP1 DIV PUSH20 0xFFFFFFFFFFFFFFFFFFFFFFFFFFFFFFFFFFFFFFFF AND SWAP1 POP DUP2 PUSH1 0x8 PUSH1 0x0 PUSH2 0x100 EXP DUP2 SLOAD DUP2 PUSH20 0xFFFFFFFFFFFFFFFFFFFFFFFFFFFFFFFFFFFFFFFF MUL NOT AND SWAP1 DUP4 PUSH20 0xFFFFFFFFFFFFFFFFFFFFFFFFFFFFFFFFFFFFFFFF AND MUL OR SWAP1 SSTORE POP DUP2 PUSH20 0xFFFFFFFFFFFFFFFFFFFFFFFFFFFFFFFFFFFFFFFF AND DUP2 PUSH20 0xFFFFFFFFFFFFFFFFFFFFFFFFFFFFFFFFFFFFFFFF AND PUSH32 0x8BE0079C531659141344CD1FD0A4F28419497F9722A3DAAFE3B4186F6B6457E0 PUSH1 0x40 MLOAD PUSH1 0x40 MLOAD DUP1 SWAP2 SUB SWAP1 LOG3 POP POP JUMP JUMPDEST PUSH1 0x0 DUP4 PUSH20 0xFFFFFFFFFFFFFFFFFFFFFFFFFFFFFFFFFFFFFFFF AND PUSH4 0x150B7A02 PUSH2 0x13FB PUSH2 0x10EE JUMP JUMPDEST DUP8 DUP7 DUP7 PUSH1 0x40 MLOAD DUP6 PUSH4 0xFFFFFFFF AND PUSH1 0xE0 SHL DUP2 MSTORE PUSH1 0x4 ADD PUSH2 0x141D SWAP5 SWAP4 SWAP3 SWAP2 SWAP1 PUSH2 0x1DAC JUMP JUMPDEST PUSH1 0x20 PUSH1 0x40 MLOAD DUP1 DUP4 SUB DUP2 PUSH1 0x0 DUP8 GAS CALL SWAP3 POP POP POP DUP1 ISZERO PUSH2 0x1459 JUMPI POP PUSH1 0x40 MLOAD RETURNDATASIZE PUSH1 0x1F NOT PUSH1 0x1F DUP3 ADD AND DUP3 ADD DUP1 PUSH1 0x40 MSTORE POP DUP2 ADD SWAP1 PUSH2 0x1456 SWAP2 SWAP1 PUSH2 0x1E0D JUMP JUMPDEST PUSH1 0x1 JUMPDEST PUSH2 0x14D2 JUMPI RETURNDATASIZE DUP1 PUSH1 0x0 DUP2 EQ PUSH2 0x1489 JUMPI PUSH1 0x40 MLOAD SWAP2 POP PUSH1 0x1F NOT PUSH1 0x3F RETURNDATASIZE ADD AND DUP3 ADD PUSH1 0x40 MSTORE RETURNDATASIZE DUP3 MSTORE RETURNDATASIZE PUSH1 0x0 PUSH1 0x20 DUP5 ADD RETURNDATACOPY PUSH2 0x148E JUMP JUMPDEST PUSH1 0x60 SWAP2 POP JUMPDEST POP PUSH1 0x0 DUP2 MLOAD SUB PUSH2 0x14CA JUMPI PUSH1 0x40 MLOAD PUSH32 0xD1A57ED600000000000000000000000000000000000000000000000000000000 DUP2 MSTORE PUSH1 0x4 ADD PUSH1 0x40 MLOAD DUP1 SWAP2 SUB SWAP1 REVERT JUMPDEST DUP1 MLOAD DUP2 PUSH1 0x20 ADD REVERT JUMPDEST PUSH4 0x150B7A02 PUSH1 0xE0 SHL PUSH28 0xFFFFFFFFFFFFFFFFFFFFFFFFFFFFFFFFFFFFFFFFFFFFFFFFFFFFFFFF NOT AND DUP2 PUSH28 0xFFFFFFFFFFFFFFFFFFFFFFFFFFFFFFFFFFFFFFFFFFFFFFFFFFFFFFFF NOT AND EQ SWAP2 POP POP SWAP5 SWAP4 POP POP POP POP JUMP JUMPDEST PUSH1 0x60 PUSH1 0x40 MLOAD DUP1 PUSH1 0x20 ADD PUSH1 0x40 MSTORE DUP1 PUSH1 0x0 DUP2 MSTORE POP SWAP1 POP SWAP1 JUMP JUMPDEST PUSH1 0x60 PUSH1 0xA0 PUSH1 0x40 MLOAD ADD DUP1 PUSH1 0x40 MSTORE PUSH1 0x20 DUP2 SUB SWAP2 POP PUSH1 0x0 DUP3 MSTORE DUP2 DUP4 JUMPDEST PUSH1 0x1 ISZERO PUSH2 0x1577 JUMPI PUSH1 0x1 DUP5 SUB SWAP4 POP PUSH1 0xA DUP2 MOD PUSH1 0x30 ADD DUP5 MSTORE8 PUSH1 0xA DUP2 DIV SWAP1 POP DUP1 PUSH2 0x1555 JUMPI JUMPDEST POP DUP3 DUP2 SUB PUSH1 0x20 DUP5 SUB SWAP4 POP DUP1 DUP5 MSTORE POP POP POP SWAP2 SWAP1 POP JUMP JUMPDEST PUSH1 0x0 SWAP4 SWAP3 POP POP POP JUMP JUMPDEST PUSH1 0x0 CALLER SWAP1 POP SWAP1 JUMP JUMPDEST PUSH1 0x0 PUSH1 0x40 MLOAD SWAP1 POP SWAP1 JUMP JUMPDEST PUSH1 0x0 DUP1 REVERT JUMPDEST PUSH1 0x0 DUP1 REVERT JUMPDEST PUSH1 0x0 PUSH32 0xFFFFFFFF00000000000000000000000000000000000000000000000000000000 DUP3 AND SWAP1 POP SWAP2 SWAP1 POP JUMP JUMPDEST PUSH2 0x15E6 DUP2 PUSH2 0x15B1 JUMP JUMPDEST DUP2 EQ PUSH2 0x15F1 JUMPI PUSH1 0x0 DUP1 REVERT JUMPDEST POP JUMP JUMPDEST PUSH1 0x0 DUP2 CALLDATALOAD SWAP1 POP PUSH2 0x1603 DUP2 PUSH2 0x15DD JUMP JUMPDEST SWAP3 SWAP2 POP POP JUMP JUMPDEST PUSH1 0x0 PUSH1 0x20 DUP3 DUP5 SUB SLT ISZERO PUSH2 0x161F JUMPI PUSH2 0x161E PUSH2 0x15A7 JUMP JUMPDEST JUMPDEST PUSH1 0x0 PUSH2 0x162D DUP5 DUP3 DUP6 ADD PUSH2 0x15F4 JUMP JUMPDEST SWAP2 POP POP SWAP3 SWAP2 POP POP JUMP JUMPDEST PUSH1 0x0 DUP2 ISZERO ISZERO SWAP1 POP SWAP2 SWAP1 POP JUMP JUMPDEST PUSH2 0x164B DUP2 PUSH2 0x1636 JUMP JUMPDEST DUP3 MSTORE POP POP JUMP JUMPDEST PUSH1 0x0 PUSH1 0x20 DUP3 ADD SWAP1 POP PUSH2 0x1666 PUSH1 0x0 DUP4 ADD DUP5 PUSH2 0x1642 JUMP JUMPDEST SWAP3 SWAP2 POP POP JUMP JUMPDEST PUSH1 0x0 DUP2 MLOAD SWAP1 POP SWAP2 SWAP1 POP JUMP JUMPDEST PUSH1 0x0 DUP3 DUP3 MSTORE PUSH1 0x20 DUP3 ADD SWAP1 POP SWAP3 SWAP2 POP POP JUMP JUMPDEST PUSH1 0x0 JUMPDEST DUP4 DUP2 LT ISZERO PUSH2 0x16A6 JUMPI DUP1 DUP3 ADD MLOAD DUP2 DUP5 ADD MSTORE PUSH1 0x20 DUP2 ADD SWAP1 POP PUSH2 0x168B JUMP JUMPDEST PUSH1 0x0 DUP5 DUP5 ADD MSTORE POP POP POP POP JUMP JUMPDEST PUSH1 0x0 PUSH1 0x1F NOT PUSH1 0x1F DUP4 ADD AND SWAP1 POP SWAP2 SWAP1 POP JUMP JUMPDEST PUSH1 0x0 PUSH2 0x16CE DUP3 PUSH2 0x166C JUMP JUMPDEST PUSH2 0x16D8 DUP2 DUP6 PUSH2 0x1677 JUMP JUMPDEST SWAP4 POP PUSH2 0x16E8 DUP2 DUP6 PUSH1 0x20 DUP7 ADD PUSH2 0x1688 JUMP JUMPDEST PUSH2 0x16F1 DUP2 PUSH2 0x16B2 JUMP JUMPDEST DUP5 ADD SWAP2 POP POP SWAP3 SWAP2 POP POP JUMP JUMPDEST PUSH1 0x0 PUSH1 0x20 DUP3 ADD SWAP1 POP DUP2 DUP2 SUB PUSH1 0x0 DUP4 ADD MSTORE PUSH2 0x1716 DUP2 DUP5 PUSH2 0x16C3 JUMP JUMPDEST SWAP1 POP SWAP3 SWAP2 POP POP JUMP JUMPDEST PUSH1 0x0 DUP2 SWAP1 POP SWAP2 SWAP1 POP JUMP JUMPDEST PUSH2 0x1731 DUP2 PUSH2 0x171E JUMP JUMPDEST DUP2 EQ PUSH2 0x173C JUMPI PUSH1 0x0 DUP1 REVERT JUMPDEST POP JUMP JUMPDEST PUSH1 0x0 DUP2 CALLDATALOAD SWAP1 POP PUSH2 0x174E DUP2 PUSH2 0x1728 JUMP JUMPDEST SWAP3 SWAP2 POP POP JUMP JUMPDEST PUSH1 0x0 PUSH1 0x20 DUP3 DUP5 SUB SLT ISZERO PUSH2 0x176A JUMPI PUSH2 0x1769 PUSH2 0x15A7 JUMP JUMPDEST JUMPDEST PUSH1 0x0 PUSH2 0x1778 DUP5 DUP3 DUP6 ADD PUSH2 0x173F JUMP JUMPDEST SWAP2 POP POP SWAP3 SWAP2 POP POP JUMP JUMPDEST PUSH1 0x0 PUSH20 0xFFFFFFFFFFFFFFFFFFFFFFFFFFFFFFFFFFFFFFFF DUP3 AND SWAP1 POP SWAP2 SWAP1 POP JUMP JUMPDEST PUSH1 0x0 PUSH2 0x17AC DUP3 PUSH2 0x1781 JUMP JUMPDEST SWAP1 POP SWAP2 SWAP1 POP JUMP JUMPDEST PUSH2 0x17BC DUP2 PUSH2 0x17A1 JUMP JUMPDEST DUP3 MSTORE POP POP JUMP JUMPDEST PUSH1 0x0 PUSH1 0x20 DUP3 ADD SWAP1 POP PUSH2 0x17D7 PUSH1 0x0 DUP4 ADD DUP5 PUSH2 0x17B3 JUMP JUMPDEST SWAP3 SWAP2 POP POP JUMP JUMPDEST PUSH2 0x17E6 DUP2 PUSH2 0x17A1 JUMP JUMPDEST DUP2 EQ PUSH2 0x17F1 JUMPI PUSH1 0x0 DUP1 REVERT JUMPDEST POP JUMP JUMPDEST PUSH1 0x0 DUP2 CALLDATALOAD SWAP1 POP PUSH2 0x1803 DUP2 PUSH2 0x17DD JUMP JUMPDEST SWAP3 SWAP2 POP POP JUMP JUMPDEST PUSH1 0x0 DUP1 PUSH1 0x40 DUP4 DUP6 SUB SLT ISZERO PUSH2 0x1820 JUMPI PUSH2 0x181F PUSH2 0x15A7 JUMP JUMPDEST JUMPDEST PUSH1 0x0 PUSH2 0x182E DUP6 DUP3 DUP7 ADD PUSH2 0x17F4 JUMP JUMPDEST SWAP3 POP POP PUSH1 0x20 PUSH2 0x183F DUP6 DUP3 DUP7 ADD PUSH2 0x173F JUMP JUMPDEST SWAP2 POP POP SWAP3 POP SWAP3 SWAP1 POP JUMP JUMPDEST PUSH2 0x1852 DUP2 PUSH2 0x171E JUMP JUMPDEST DUP3 MSTORE POP POP JUMP JUMPDEST PUSH1 0x0 PUSH1 0x20 DUP3 ADD SWAP1 POP PUSH2 0x186D PUSH1 0x0 DUP4 ADD DUP5 PUSH2 0x1849 JUMP JUMPDEST SWAP3 SWAP2 POP POP JUMP JUMPDEST PUSH1 0x0 DUP1 PUSH1 0x0 PUSH1 0x60 DUP5 DUP7 SUB SLT ISZERO PUSH2 0x188C JUMPI PUSH2 0x188B PUSH2 0x15A7 JUMP JUMPDEST JUMPDEST PUSH1 0x0 PUSH2 0x189A DUP7 DUP3 DUP8 ADD PUSH2 0x17F4 JUMP JUMPDEST SWAP4 POP POP PUSH1 0x20 PUSH2 0x18AB DUP7 DUP3 DUP8 ADD PUSH2 0x17F4 JUMP JUMPDEST SWAP3 POP POP PUSH1 0x40 PUSH2 0x18BC DUP7 DUP3 DUP8 ADD PUSH2 0x173F JUMP JUMPDEST SWAP2 POP POP SWAP3 POP SWAP3 POP SWAP3 JUMP JUMPDEST PUSH1 0x0 PUSH1 0x20 DUP3 DUP5 SUB SLT ISZERO PUSH2 0x18DC JUMPI PUSH2 0x18DB PUSH2 0x15A7 JUMP JUMPDEST JUMPDEST PUSH1 0x0 PUSH2 0x18EA DUP5 DUP3 DUP6 ADD PUSH2 0x17F4 JUMP JUMPDEST SWAP2 POP POP SWAP3 SWAP2 POP POP JUMP JUMPDEST PUSH2 0x18FC DUP2 PUSH2 0x1636 JUMP JUMPDEST DUP2 EQ PUSH2 0x1907 JUMPI PUSH1 0x0 DUP1 REVERT JUMPDEST POP JUMP JUMPDEST PUSH1 0x0 DUP2 CALLDATALOAD SWAP1 POP PUSH2 0x1919 DUP2 PUSH2 0x18F3 JUMP JUMPDEST SWAP3 SWAP2 POP POP JUMP JUMPDEST PUSH1 0x0 DUP1 PUSH1 0x40 DUP4 DUP6 SUB SLT ISZERO PUSH2 0x1936 JUMPI PUSH2 0x1935 PUSH2 0x15A7 JUMP JUMPDEST JUMPDEST PUSH1 0x0 PUSH2 0x1944 DUP6 DUP3 DUP7 ADD PUSH2 0x17F4 JUMP JUMPDEST SWAP3 POP POP PUSH1 0x20 PUSH2 0x1955 DUP6 DUP3 DUP7 ADD PUSH2 0x190A JUMP JUMPDEST SWAP2 POP POP SWAP3 POP SWAP3 SWAP1 POP JUMP JUMPDEST PUSH1 0x0 DUP1 REVERT JUMPDEST PUSH1 0x0 DUP1 REVERT JUMPDEST PUSH32 0x4E487B7100000000000000000000000000000000000000000000000000000000 PUSH1 0x0 MSTORE PUSH1 0x41 PUSH1 0x4 MSTORE PUSH1 0x24 PUSH1 0x0 REVERT JUMPDEST PUSH2 0x19A1 DUP3 PUSH2 0x16B2 JUMP JUMPDEST DUP2 ADD DUP2 DUP2 LT PUSH8 0xFFFFFFFFFFFFFFFF DUP3 GT OR ISZERO PUSH2 0x19C0 JUMPI PUSH2 0x19BF PUSH2 0x1969 JUMP JUMPDEST JUMPDEST DUP1 PUSH1 0x40 MSTORE POP POP POP JUMP JUMPDEST PUSH1 0x0 PUSH2 0x19D3 PUSH2 0x159D JUMP JUMPDEST SWAP1 POP PUSH2 0x19DF DUP3 DUP3 PUSH2 0x1998 JUMP JUMPDEST SWAP2 SWAP1 POP JUMP JUMPDEST PUSH1 0x0 PUSH8 0xFFFFFFFFFFFFFFFF DUP3 GT ISZERO PUSH2 0x19FF JUMPI PUSH2 0x19FE PUSH2 0x1969 JUMP JUMPDEST JUMPDEST PUSH2 0x1A08 DUP3 PUSH2 0x16B2 JUMP JUMPDEST SWAP1 POP PUSH1 0x20 DUP2 ADD SWAP1 POP SWAP2 SWAP1 POP JUMP JUMPDEST DUP3 DUP2 DUP4 CALLDATACOPY PUSH1 0x0 DUP4 DUP4 ADD MSTORE POP POP POP JUMP JUMPDEST PUSH1 0x0 PUSH2 0x1A37 PUSH2 0x1A32 DUP5 PUSH2 0x19E4 JUMP JUMPDEST PUSH2 0x19C9 JUMP JUMPDEST SWAP1 POP DUP3 DUP2 MSTORE PUSH1 0x20 DUP2 ADD DUP5 DUP5 DUP5 ADD GT ISZERO PUSH2 0x1A53 JUMPI PUSH2 0x1A52 PUSH2 0x1964 JUMP JUMPDEST JUMPDEST PUSH2 0x1A5E DUP5 DUP3 DUP6 PUSH2 0x1A15 JUMP JUMPDEST POP SWAP4 SWAP3 POP POP POP JUMP JUMPDEST PUSH1 0x0 DUP3 PUSH1 0x1F DUP4 ADD SLT PUSH2 0x1A7B JUMPI PUSH2 0x1A7A PUSH2 0x195F JUMP JUMPDEST JUMPDEST DUP2 CALLDATALOAD PUSH2 0x1A8B DUP5 DUP3 PUSH1 0x20 DUP7 ADD PUSH2 0x1A24 JUMP JUMPDEST SWAP2 POP POP SWAP3 SWAP2 POP POP JUMP JUMPDEST PUSH1 0x0 DUP1 PUSH1 0x0 DUP1 PUSH1 0x80 DUP6 DUP8 SUB SLT ISZERO PUSH2 0x1AAE JUMPI PUSH2 0x1AAD PUSH2 0x15A7 JUMP JUMPDEST JUMPDEST PUSH1 0x0 PUSH2 0x1ABC DUP8 DUP3 DUP9 ADD PUSH2 0x17F4 JUMP JUMPDEST SWAP5 POP POP PUSH1 0x20 PUSH2 0x1ACD DUP8 DUP3 DUP9 ADD PUSH2 0x17F4 JUMP JUMPDEST SWAP4 POP POP PUSH1 0x40 PUSH2 0x1ADE DUP8 DUP3 DUP9 ADD PUSH2 0x173F JUMP JUMPDEST SWAP3 POP POP PUSH1 0x60 DUP6 ADD CALLDATALOAD PUSH8 0xFFFFFFFFFFFFFFFF DUP2 GT ISZERO PUSH2 0x1AFF JUMPI PUSH2 0x1AFE PUSH2 0x15AC JUMP JUMPDEST JUMPDEST PUSH2 0x1B0B DUP8 DUP3 DUP9 ADD PUSH2 0x1A66 JUMP JUMPDEST SWAP2 POP POP SWAP3 SWAP6 SWAP2 SWAP5 POP SWAP3 POP JUMP JUMPDEST PUSH1 0x0 DUP1 PUSH1 0x40 DUP4 DUP6 SUB SLT ISZERO PUSH2 0x1B2E JUMPI PUSH2 0x1B2D PUSH2 0x15A7 JUMP JUMPDEST JUMPDEST PUSH1 0x0 PUSH2 0x1B3C DUP6 DUP3 DUP7 ADD PUSH2 0x17F4 JUMP JUMPDEST SWAP3 POP POP PUSH1 0x20 PUSH2 0x1B4D DUP6 DUP3 DUP7 ADD PUSH2 0x17F4 JUMP JUMPDEST SWAP2 POP POP SWAP3 POP SWAP3 SWAP1 POP JUMP JUMPDEST PUSH32 0x4E487B7100000000000000000000000000000000000000000000000000000000 PUSH1 0x0 MSTORE PUSH1 0x22 PUSH1 0x4 MSTORE PUSH1 0x24 PUSH1 0x0 REVERT JUMPDEST PUSH1 0x0 PUSH1 0x2 DUP3 DIV SWAP1 POP PUSH1 0x1 DUP3 AND DUP1 PUSH2 0x1B9E JUMPI PUSH1 0x7F DUP3 AND SWAP2 POP JUMPDEST PUSH1 0x20 DUP3 LT DUP2 SUB PUSH2 0x1BB1 JUMPI PUSH2 0x1BB0 PUSH2 0x1B57 JUMP JUMPDEST JUMPDEST POP SWAP2 SWAP1 POP JUMP JUMPDEST PUSH1 0x0 DUP2 MLOAD SWAP1 POP PUSH2 0x1BC6 DUP2 PUSH2 0x17DD JUMP JUMPDEST SWAP3 SWAP2 POP POP JUMP JUMPDEST PUSH1 0x0 PUSH1 0x20 DUP3 DUP5 SUB SLT ISZERO PUSH2 0x1BE2 JUMPI PUSH2 0x1BE1 PUSH2 0x15A7 JUMP JUMPDEST JUMPDEST PUSH1 0x0 PUSH2 0x1BF0 DUP5 DUP3 DUP6 ADD PUSH2 0x1BB7 JUMP JUMPDEST SWAP2 POP POP SWAP3 SWAP2 POP POP JUMP JUMPDEST PUSH1 0x0 DUP2 SWAP1 POP SWAP3 SWAP2 POP POP JUMP JUMPDEST PUSH1 0x0 PUSH2 0x1C0F DUP3 PUSH2 0x166C JUMP JUMPDEST PUSH2 0x1C19 DUP2 DUP6 PUSH2 0x1BF9 JUMP JUMPDEST SWAP4 POP PUSH2 0x1C29 DUP2 DUP6 PUSH1 0x20 DUP7 ADD PUSH2 0x1688 JUMP JUMPDEST DUP1 DUP5 ADD SWAP2 POP POP SWAP3 SWAP2 POP POP JUMP JUMPDEST PUSH1 0x0 PUSH2 0x1C41 DUP3 DUP6 PUSH2 0x1C04 JUMP JUMPDEST SWAP2 POP PUSH2 0x1C4D DUP3 DUP5 PUSH2 0x1C04 JUMP JUMPDEST SWAP2 POP DUP2 SWAP1 POP SWAP4 SWAP3 POP POP POP JUMP JUMPDEST PUSH32 0x4F776E61626C653A206E6577206F776E657220697320746865207A65726F2061 PUSH1 0x0 DUP3 ADD MSTORE PUSH32 0x6464726573730000000000000000000000000000000000000000000000000000 PUSH1 0x20 DUP3 ADD MSTORE POP JUMP JUMPDEST PUSH1 0x0 PUSH2 0x1CB5 PUSH1 0x26 DUP4 PUSH2 0x1677 JUMP JUMPDEST SWAP2 POP PUSH2 0x1CC0 DUP3 PUSH2 0x1C59 JUMP JUMPDEST PUSH1 0x40 DUP3 ADD SWAP1 POP SWAP2 SWAP1 POP JUMP JUMPDEST PUSH1 0x0 PUSH1 0x20 DUP3 ADD SWAP1 POP DUP2 DUP2 SUB PUSH1 0x0 DUP4 ADD MSTORE PUSH2 0x1CE4 DUP2 PUSH2 0x1CA8 JUMP JUMPDEST SWAP1 POP SWAP2 SWAP1 POP JUMP JUMPDEST PUSH32 0x4F776E61626C653A2063616C6C6572206973206E6F7420746865206F776E6572 PUSH1 0x0 DUP3 ADD MSTORE POP JUMP JUMPDEST PUSH1 0x0 PUSH2 0x1D21 PUSH1 0x20 DUP4 PUSH2 0x1677 JUMP JUMPDEST SWAP2 POP PUSH2 0x1D2C DUP3 PUSH2 0x1CEB JUMP JUMPDEST PUSH1 0x20 DUP3 ADD SWAP1 POP SWAP2 SWAP1 POP JUMP JUMPDEST PUSH1 0x0 PUSH1 0x20 DUP3 ADD SWAP1 POP DUP2 DUP2 SUB PUSH1 0x0 DUP4 ADD MSTORE PUSH2 0x1D50 DUP2 PUSH2 0x1D14 JUMP JUMPDEST SWAP1 POP SWAP2 SWAP1 POP JUMP JUMPDEST PUSH1 0x0 DUP2 MLOAD SWAP1 POP SWAP2 SWAP1 POP JUMP JUMPDEST PUSH1 0x0 DUP3 DUP3 MSTORE PUSH1 0x20 DUP3 ADD SWAP1 POP SWAP3 SWAP2 POP POP JUMP JUMPDEST PUSH1 0x0 PUSH2 0x1D7E DUP3 PUSH2 0x1D57 JUMP JUMPDEST PUSH2 0x1D88 DUP2 DUP6 PUSH2 0x1D62 JUMP JUMPDEST SWAP4 POP PUSH2 0x1D98 DUP2 DUP6 PUSH1 0x20 DUP7 ADD PUSH2 0x1688 JUMP JUMPDEST PUSH2 0x1DA1 DUP2 PUSH2 0x16B2 JUMP JUMPDEST DUP5 ADD SWAP2 POP POP SWAP3 SWAP2 POP POP JUMP JUMPDEST PUSH1 0x0 PUSH1 0x80 DUP3 ADD SWAP1 POP PUSH2 0x1DC1 PUSH1 0x0 DUP4 ADD DUP8 PUSH2 0x17B3 JUMP JUMPDEST PUSH2 0x1DCE PUSH1 0x20 DUP4 ADD DUP7 PUSH2 0x17B3 JUMP JUMPDEST PUSH2 0x1DDB PUSH1 0x40 DUP4 ADD DUP6 PUSH2 0x1849 JUMP JUMPDEST DUP2 DUP2 SUB PUSH1 0x60 DUP4 ADD MSTORE PUSH2 0x1DED DUP2 DUP5 PUSH2 0x1D73 JUMP JUMPDEST SWAP1 POP SWAP6 SWAP5 POP POP POP POP POP JUMP JUMPDEST PUSH1 0x0 DUP2 MLOAD SWAP1 POP PUSH2 0x1E07 DUP2 PUSH2 0x15DD JUMP JUMPDEST SWAP3 SWAP2 POP POP JUMP JUMPDEST PUSH1 0x0 PUSH1 0x20 DUP3 DUP5 SUB SLT ISZERO PUSH2 0x1E23 JUMPI PUSH2 0x1E22 PUSH2 0x15A7 JUMP JUMPDEST JUMPDEST PUSH1 0x0 PUSH2 0x1E31 DUP5 DUP3 DUP6 ADD PUSH2 0x1DF8 JUMP JUMPDEST SWAP2 POP POP SWAP3 SWAP2 POP POP JUMP INVALID LOG2 PUSH5 0x6970667358 0x22 SLT KECCAK256 0x4E 0xE2 0xDA 0x5F 0xBD 0xB5 0xB5 OR PUSH10 0x44990713F63FC444072F GAS CHAINID 0xDE SWAP13 XOR SWAP6 0xE6 0x2A 0xE1 RETURNDATASIZE 0xCC 0xF6 DUP16 PUSH5 0x736F6C6343 STOP ADDMOD SLT STOP CALLER "
				},
				"gasEstimates": {
					"creation": {
						"codeDepositCost": "1558400",
						"executionCost": "infinite",
						"totalCost": "infinite"
					},
					"external": {
						"approve(address,uint256)": "infinite",
						"balanceOf(address)": "2905",
						"getApproved(uint256)": "7381",
						"getCanvasMessageSender()": "infinite",
						"getMessageSender()": "452",
						"isApprovedForAll(address,address)": "infinite",
						"name()": "infinite",
						"owner()": "2611",
						"ownerOf(uint256)": "infinite",
						"renounceOwnership()": "30443",
						"safeTransferFrom(address,address,uint256)": "infinite",
						"safeTransferFrom(address,address,uint256,bytes)": "infinite",
						"setApprovalForAll(address,bool)": "infinite",
						"setEditionContract(address)": "27053",
						"supportsInterface(bytes4)": "745",
						"symbol()": "infinite",
						"tokenURI(uint256)": "5534",
						"totalSupply()": "4688",
						"transferFrom(address,address,uint256)": "infinite",
						"transferOwnership(address)": "30854"
					}
				},
				"methodIdentifiers": {
					"approve(address,uint256)": "095ea7b3",
					"balanceOf(address)": "70a08231",
					"getApproved(uint256)": "081812fc",
					"getCanvasMessageSender()": "43e0231e",
					"getMessageSender()": "76167a89",
					"isApprovedForAll(address,address)": "e985e9c5",
					"name()": "06fdde03",
					"owner()": "8da5cb5b",
					"ownerOf(uint256)": "6352211e",
					"renounceOwnership()": "715018a6",
					"safeTransferFrom(address,address,uint256)": "42842e0e",
					"safeTransferFrom(address,address,uint256,bytes)": "b88d4fde",
					"setApprovalForAll(address,bool)": "a22cb465",
					"setEditionContract(address)": "433f7b8b",
					"supportsInterface(bytes4)": "01ffc9a7",
					"symbol()": "95d89b41",
					"tokenURI(uint256)": "c87b56dd",
					"totalSupply()": "18160ddd",
					"transferFrom(address,address,uint256)": "23b872dd",
					"transferOwnership(address)": "f2fde38b"
				}
			},
			"storageLayout": {
				"storage": [
					{
						"astId": 291,
						"contract": "Receipts.sol:UintsProofOfBroadcast",
						"label": "_currentIndex",
						"offset": 0,
						"slot": "0",
						"type": "t_uint256"
					},
					{
						"astId": 293,
						"contract": "Receipts.sol:UintsProofOfBroadcast",
						"label": "_burnCounter",
						"offset": 0,
						"slot": "1",
						"type": "t_uint256"
					},
					{
						"astId": 295,
						"contract": "Receipts.sol:UintsProofOfBroadcast",
						"label": "_name",
						"offset": 0,
						"slot": "2",
						"type": "t_string_storage"
					},
					{
						"astId": 297,
						"contract": "Receipts.sol:UintsProofOfBroadcast",
						"label": "_symbol",
						"offset": 0,
						"slot": "3",
						"type": "t_string_storage"
					},
					{
						"astId": 301,
						"contract": "Receipts.sol:UintsProofOfBroadcast",
						"label": "_packedOwnerships",
						"offset": 0,
						"slot": "4",
						"type": "t_mapping(t_uint256,t_uint256)"
					},
					{
						"astId": 305,
						"contract": "Receipts.sol:UintsProofOfBroadcast",
						"label": "_packedAddressData",
						"offset": 0,
						"slot": "5",
						"type": "t_mapping(t_address,t_uint256)"
					},
					{
						"astId": 310,
						"contract": "Receipts.sol:UintsProofOfBroadcast",
						"label": "_tokenApprovals",
						"offset": 0,
						"slot": "6",
						"type": "t_mapping(t_uint256,t_struct(TokenApprovalRef)223_storage)"
					},
					{
						"astId": 316,
						"contract": "Receipts.sol:UintsProofOfBroadcast",
						"label": "_operatorApprovals",
						"offset": 0,
						"slot": "7",
						"type": "t_mapping(t_address,t_mapping(t_address,t_bool))"
					},
					{
						"astId": 7,
						"contract": "Receipts.sol:UintsProofOfBroadcast",
						"label": "_owner",
						"offset": 0,
						"slot": "8",
						"type": "t_address"
					},
					{
						"astId": 150,
						"contract": "Receipts.sol:UintsProofOfBroadcast",
						"label": "_editionContract",
						"offset": 0,
						"slot": "9",
						"type": "t_address"
					},
					{
						"astId": 173,
						"contract": "Receipts.sol:UintsProofOfBroadcast",
						"label": "_canvasAddress",
						"offset": 0,
						"slot": "10",
						"type": "t_address"
					},
					{
						"astId": 179,
						"contract": "Receipts.sol:UintsProofOfBroadcast",
						"label": "_canvasContract",
						"offset": 0,
						"slot": "11",
						"type": "t_contract(ICanvas)144"
					}
				],
				"types": {
					"t_address": {
						"encoding": "inplace",
						"label": "address",
						"numberOfBytes": "20"
					},
					"t_bool": {
						"encoding": "inplace",
						"label": "bool",
						"numberOfBytes": "1"
					},
					"t_contract(ICanvas)144": {
						"encoding": "inplace",
						"label": "contract ICanvas",
						"numberOfBytes": "20"
					},
					"t_mapping(t_address,t_bool)": {
						"encoding": "mapping",
						"key": "t_address",
						"label": "mapping(address => bool)",
						"numberOfBytes": "32",
						"value": "t_bool"
					},
					"t_mapping(t_address,t_mapping(t_address,t_bool))": {
						"encoding": "mapping",
						"key": "t_address",
						"label": "mapping(address => mapping(address => bool))",
						"numberOfBytes": "32",
						"value": "t_mapping(t_address,t_bool)"
					},
					"t_mapping(t_address,t_uint256)": {
						"encoding": "mapping",
						"key": "t_address",
						"label": "mapping(address => uint256)",
						"numberOfBytes": "32",
						"value": "t_uint256"
					},
					"t_mapping(t_uint256,t_struct(TokenApprovalRef)223_storage)": {
						"encoding": "mapping",
						"key": "t_uint256",
						"label": "mapping(uint256 => struct ERC721A.TokenApprovalRef)",
						"numberOfBytes": "32",
						"value": "t_struct(TokenApprovalRef)223_storage"
					},
					"t_mapping(t_uint256,t_uint256)": {
						"encoding": "mapping",
						"key": "t_uint256",
						"label": "mapping(uint256 => uint256)",
						"numberOfBytes": "32",
						"value": "t_uint256"
					},
					"t_string_storage": {
						"encoding": "bytes",
						"label": "string",
						"numberOfBytes": "32"
					},
					"t_struct(TokenApprovalRef)223_storage": {
						"encoding": "inplace",
						"label": "struct ERC721A.TokenApprovalRef",
						"members": [
							{
								"astId": 222,
								"contract": "Receipts.sol:UintsProofOfBroadcast",
								"label": "value",
								"offset": 0,
								"slot": "0",
								"type": "t_address"
							}
						],
						"numberOfBytes": "32"
					},
					"t_uint256": {
						"encoding": "inplace",
						"label": "uint256",
						"numberOfBytes": "32"
					}
				}
			},
			"userdoc": {
				"errors": {
					"ApprovalCallerNotOwnerNorApproved()": [
						{
							"notice": "The caller must own the token or be an approved operator."
						}
					],
					"ApprovalQueryForNonexistentToken()": [
						{
							"notice": "The token does not exist."
						}
					],
					"BalanceQueryForZeroAddress()": [
						{
							"notice": "Cannot query the balance for the zero address."
						}
					],
					"MintERC2309QuantityExceedsLimit()": [
						{
							"notice": "The `quantity` minted with ERC2309 exceeds the safety limit."
						}
					],
					"MintToZeroAddress()": [
						{
							"notice": "Cannot mint to the zero address."
						}
					],
					"MintZeroQuantity()": [
						{
							"notice": "The quantity of tokens minted must be more than zero."
						}
					],
					"OwnerQueryForNonexistentToken()": [
						{
							"notice": "The token does not exist."
						}
					],
					"OwnershipNotInitializedForExtraData()": [
						{
							"notice": "The `extraData` cannot be set on an unintialized ownership slot."
						}
					],
					"TransferCallerNotOwnerNorApproved()": [
						{
							"notice": "The caller must own the token or be an approved operator."
						}
					],
					"TransferFromIncorrectOwner()": [
						{
							"notice": "The token must be owned by `from`."
						}
					],
					"TransferToNonERC721ReceiverImplementer()": [
						{
							"notice": "Cannot safely transfer to a contract that does not implement the ERC721Receiver interface."
						}
					],
					"TransferToZeroAddress()": [
						{
							"notice": "Cannot transfer to the zero address."
						}
					],
					"URIQueryForNonexistentToken()": [
						{
							"notice": "The token does not exist."
						}
					]
				},
				"kind": "user",
				"methods": {},
				"version": 1
			}
		}
	}
}