{
	"data": {
		"bytecode": {
			"linkReferences": {},
			"object": "6080604052600f60009054906101000a900473ffffffffffffffffffffffffffffffffffffffff16601160006101000a81548173ffffffffffffffffffffffffffffffffffffffff021916908373ffffffffffffffffffffffffffffffffffffffff160217905550601060009054906101000a900473ffffffffffffffffffffffffffffffffffffffff16601260006101000a81548173ffffffffffffffffffffffffffffffffffffffff021916908373ffffffffffffffffffffffffffffffffffffffff160217905550348015620000d757600080fd5b506040518060400160405280600d81526020017f55494e54532045646974696f6e000000000000000000000000000000000000008152506040518060400160405280600781526020017f55494e54534544000000000000000000000000000000000000000000000000008152508160029081620001559190620004f7565b508060039081620001679190620004f7565b5062000178620001a660201b60201c565b6000819055505050620001a062000194620001af60201b60201c565b620001b760201b60201c565b620005de565b60006001905090565b600033905090565b6000600860009054906101000a900473ffffffffffffffffffffffffffffffffffffffff16905081600860006101000a81548173ffffffffffffffffffffffffffffffffffffffff021916908373ffffffffffffffffffffffffffffffffffffffff1602179055508173ffffffffffffffffffffffffffffffffffffffff168173ffffffffffffffffffffffffffffffffffffffff167f8be0079c531659141344cd1fd0a4f28419497f9722a3daafe3b4186f6b6457e060405160405180910390a35050565b600081519050919050565b7f4e487b7100000000000000000000000000000000000000000000000000000000600052604160045260246000fd5b7f4e487b7100000000000000000000000000000000000000000000000000000000600052602260045260246000fd5b60006002820490506001821680620002ff57607f821691505b602082108103620003155762000314620002b7565b5b50919050565b60008190508160005260206000209050919050565b60006020601f8301049050919050565b600082821b905092915050565b6000600883026200037f7fffffffffffffffffffffffffffffffffffffffffffffffffffffffffffffffff8262000340565b6200038b868362000340565b95508019841693508086168417925050509392505050565b6000819050919050565b6000819050919050565b6000620003d8620003d2620003cc84620003a3565b620003ad565b620003a3565b9050919050565b6000819050919050565b620003f483620003b7565b6200040c6200040382620003df565b8484546200034d565b825550505050565b600090565b6200042362000414565b62000430818484620003e9565b505050565b5b8181101562000458576200044c60008262000419565b60018101905062000436565b5050565b601f821115620004a75762000471816200031b565b6200047c8462000330565b810160208510156200048c578190505b620004a46200049b8562000330565b83018262000435565b50505b505050565b600082821c905092915050565b6000620004cc60001984600802620004ac565b1980831691505092915050565b6000620004e78383620004b9565b9150826002028217905092915050565b62000502826200027d565b67ffffffffffffffff8111156200051e576200051d62000288565b5b6200052a8254620002e6565b620005378282856200045c565b600060209050601f8311600181146200056f57600084156200055a578287015190505b620005668582620004d9565b865550620005d6565b601f1984166200057f866200031b565b60005b82811015620005a95784890151825560018201915060208501945060208101905062000582565b86831015620005c95784890151620005c5601f891682620004b9565b8355505b6001600288020188555050505b505050505050565b61596180620005ee6000396000f3fe60806040526004361061020f5760003560e01c806370a0823111610118578063a3b04a1f116100a0578063bed919711161006f578063bed9197114610742578063c87b56dd1461076b578063ddaf39bc146107a8578063e985e9c5146107bf578063f2fde38b146107fc5761020f565b8063a3b04a1f146106a7578063aaf4389a146106be578063b88d4fde146106e9578063bd11f69d146107055761020f565b80638f2fc60b116100e75780638f2fc60b146105c457806395d89b41146105ed5780639f9f385914610618578063a0712d6814610655578063a22cb4651461067e5761020f565b806370a082311461051a578063715018a6146105575780637708b2d91461056e5780638da5cb5b146105995761020f565b80632a55205a1161019b5780633886bbcf1161016a5780633886bbcf146104565780633ccfd60b1461048157806342842e0e146104985780635c27905c146104b45780636352211e146104dd5761020f565b80632a55205a1461039b5780632be09561146103d957806332783e5b146103f0578063354098c11461042d5761020f565b8063095ea7b3116101e2578063095ea7b3146102e45780630f7ee879146103005780630fd519021461033d57806318160ddd1461035457806323b872dd1461037f5761020f565b806301ffc9a714610214578063060f8c041461025157806306fdde031461027c578063081812fc146102a7575b600080fd5b34801561022057600080fd5b5061023b60048036038101906102369190612b52565b610825565b6040516102489190612b9a565b60405180910390f35b34801561025d57600080fd5b50610266610847565b6040516102739190612bd8565b60405180910390f35b34801561028857600080fd5b50610291610861565b60405161029e9190612c83565b60405180910390f35b3480156102b357600080fd5b506102ce60048036038101906102c99190612cdb565b6108f3565b6040516102db9190612d49565b60405180910390f35b6102fe60048036038101906102f99190612d90565b610972565b005b34801561030c57600080fd5b5061032760048036038101906103229190612cdb565b610ab6565b6040516103349190612b9a565b60405180910390f35b34801561034957600080fd5b50610352610ad6565b005b34801561036057600080fd5b50610369610b2c565b6040516103769190612ddf565b60405180910390f35b61039960048036038101906103949190612dfa565b610b43565b005b3480156103a757600080fd5b506103c260048036038101906103bd9190612e4d565b610e65565b6040516103d0929190612e8d565b60405180910390f35b3480156103e557600080fd5b506103ee61104f565b005b3480156103fc57600080fd5b5061041760048036038101906104129190612feb565b6110c7565b6040516104249190612c83565b60405180910390f35b34801561043957600080fd5b50610454600480360381019061044f9190613034565b6110f0565b005b34801561046257600080fd5b5061046b61117d565b6040516104789190612bd8565b60405180910390f35b34801561048d57600080fd5b50610496611197565b005b6104b260048036038101906104ad9190612dfa565b6111df565b005b3480156104c057600080fd5b506104db60048036038101906104d69190613150565b6111ff565b005b3480156104e957600080fd5b5061050460048036038101906104ff9190612cdb565b6115aa565b6040516105119190612d49565b60405180910390f35b34801561052657600080fd5b50610541600480360381019061053c9190613034565b6115bc565b60405161054e9190612ddf565b60405180910390f35b34801561056357600080fd5b5061056c611674565b005b34801561057a57600080fd5b50610583611688565b6040516105909190612c83565b60405180910390f35b3480156105a557600080fd5b506105ae6116f1565b6040516105bb9190612d49565b60405180910390f35b3480156105d057600080fd5b506105eb60048036038101906105e691906131e7565b61171b565b005b3480156105f957600080fd5b50610602611731565b60405161060f9190612c83565b60405180910390f35b34801561062457600080fd5b5061063f600480360381019061063a9190612cdb565b6117c3565b60405161064c9190612ddf565b60405180910390f35b34801561066157600080fd5b5061067c60048036038101906106779190612cdb565b611868565b005b34801561068a57600080fd5b506106a560048036038101906106a09190613253565b611a39565b005b3480156106b357600080fd5b506106bc611b44565b005b3480156106ca57600080fd5b506106d3611b9a565b6040516106e09190612ddf565b60405180910390f35b61070360048036038101906106fe9190613334565b611ba0565b005b34801561071157600080fd5b5061072c60048036038101906107279190612cdb565b611c13565b604051610739919061340c565b60405180910390f35b34801561074e57600080fd5b5061076960048036038101906107649190613034565b611cb3565b005b34801561077757600080fd5b50610792600480360381019061078d9190612cdb565b611d40565b60405161079f9190612c83565b60405180910390f35b3480156107b457600080fd5b506107bd611dbd565b005b3480156107cb57600080fd5b506107e660048036038101906107e1919061342e565b611e13565b6040516107f39190612b9a565b60405180910390f35b34801561080857600080fd5b50610823600480360381019061081e9190613034565b611ea7565b005b600061083082611f2a565b80610840575061083f82611fbc565b5b9050919050565b600b60089054906101000a900467ffffffffffffffff1681565b6060600280546108709061349d565b80601f016020809104026020016040519081016040528092919081815260200182805461089c9061349d565b80156108e95780601f106108be576101008083540402835291602001916108e9565b820191906000526020600020905b8154815290600101906020018083116108cc57829003601f168201915b5050505050905090565b60006108fe82612036565b610934576040517fcf4700e400000000000000000000000000000000000000000000000000000000815260040160405180910390fd5b6006600083815260200190815260200160002060000160009054906101000a900473ffffffffffffffffffffffffffffffffffffffff169050919050565b600061097d826115aa565b90508073ffffffffffffffffffffffffffffffffffffffff1661099e612095565b73ffffffffffffffffffffffffffffffffffffffff1614610a01576109ca816109c5612095565b611e13565b610a00576040517fcfb3b94200000000000000000000000000000000000000000000000000000000815260040160405180910390fd5b5b826006600084815260200190815260200160002060000160006101000a81548173ffffffffffffffffffffffffffffffffffffffff021916908373ffffffffffffffffffffffffffffffffffffffff160217905550818373ffffffffffffffffffffffffffffffffffffffff168273ffffffffffffffffffffffffffffffffffffffff167f8c5be1e5ebec7d5bd14f71427d1e84f3dd0314c0f7b2291e5b200ac8c7c3b92560405160405180910390a4505050565b600e6020528060005260406000206000915054906101000a900460ff1681565b6000600190505b6041811015610b2957610b16816040518060600160405280600060ff16815260200160ff80168152602001600060ff16815250836111ff565b8080610b21906134fd565b915050610add565b50565b6000610b3661209d565b6001546000540303905090565b6000610b4e826120a6565b90508373ffffffffffffffffffffffffffffffffffffffff168173ffffffffffffffffffffffffffffffffffffffff1614610bb5576040517fa114810000000000000000000000000000000000000000000000000000000000815260040160405180910390fd5b600080610bc184612172565b91509150610bd78187610bd2612095565b612199565b610c2357610bec86610be7612095565b611e13565b610c22576040517f59c896be00000000000000000000000000000000000000000000000000000000815260040160405180910390fd5b5b600073ffffffffffffffffffffffffffffffffffffffff168573ffffffffffffffffffffffffffffffffffffffff1603610c89576040517fea553b3400000000000000000000000000000000000000000000000000000000815260040160405180910390fd5b610c9686868660016121dd565b8015610ca157600082555b600560008773ffffffffffffffffffffffffffffffffffffffff1673ffffffffffffffffffffffffffffffffffffffff168152602001908152602001600020600081546001900391905081905550600560008673ffffffffffffffffffffffffffffffffffffffff1673ffffffffffffffffffffffffffffffffffffffff1681526020019081526020016000206000815460010191905081905550610d6f85610d4b8888876121e3565b7c02000000000000000000000000000000000000000000000000000000001761220b565b600460008681526020019081526020016000208190555060007c0200000000000000000000000000000000000000000000000000000000841603610df55760006001850190506000600460008381526020019081526020016000205403610df3576000548114610df2578360046000838152602001908152602001600020819055505b5b505b838573ffffffffffffffffffffffffffffffffffffffff168773ffffffffffffffffffffffffffffffffffffffff167fddf252ad1be2c89b69c2b068fc378daa952ba7f163c4a11628f55a4df523b3ef60405160405180910390a4610e5d8686866001612236565b505050505050565b6000806000600a60008681526020019081526020016000206040518060400160405290816000820160009054906101000a900473ffffffffffffffffffffffffffffffffffffffff1673ffffffffffffffffffffffffffffffffffffffff1673ffffffffffffffffffffffffffffffffffffffff1681526020016000820160149054906101000a90046bffffffffffffffffffffffff166bffffffffffffffffffffffff166bffffffffffffffffffffffff16815250509050600073ffffffffffffffffffffffffffffffffffffffff16816000015173ffffffffffffffffffffffffffffffffffffffff1603610ffa5760096040518060400160405290816000820160009054906101000a900473ffffffffffffffffffffffffffffffffffffffff1673ffffffffffffffffffffffffffffffffffffffff1673ffffffffffffffffffffffffffffffffffffffff1681526020016000820160149054906101000a90046bffffffffffffffffffffffff166bffffffffffffffffffffffff166bffffffffffffffffffffffff168152505090505b600061100461223c565b6bffffffffffffffffffffffff1682602001516bffffffffffffffffffffffff16866110309190613545565b61103a91906135b6565b90508160000151819350935050509250929050565b611057612246565b620151804261106691906135e7565b600b60006101000a81548167ffffffffffffffff021916908367ffffffffffffffff1602179055506202a3004261109d91906135e7565b600b60086101000a81548167ffffffffffffffff021916908367ffffffffffffffff160217905550565b6060816040516020016110da9190614a1c565b6040516020818303038152906040529050919050565b6110f8612246565b80600f60006101000a81548173ffffffffffffffffffffffffffffffffffffffff021916908373ffffffffffffffffffffffffffffffffffffffff16021790555080601160006101000a81548173ffffffffffffffffffffffffffffffffffffffff021916908373ffffffffffffffffffffffffffffffffffffffff16021790555050565b600b60009054906101000a900467ffffffffffffffff1681565b61119f612246565b3373ffffffffffffffffffffffffffffffffffffffff166108fc479081150290604051600060405180830381858888f193505050506111dd57600080fd5b565b6111fa83838360405180602001604052806000815250611ba0565b505050565b60008311801561120f5750604183105b61124e576040517f08c379a000000000000000000000000000000000000000000000000000000000815260040161124590614a95565b60405180910390fd5b3373ffffffffffffffffffffffffffffffffffffffff16601160009054906101000a900473ffffffffffffffffffffffffffffffffffffffff1673ffffffffffffffffffffffffffffffffffffffff16636352211e836040518263ffffffff1660e01b81526004016112c09190612ddf565b602060405180830381865afa1580156112dd573d6000803e3d6000fd5b505050506040513d601f19601f820116820180604052508101906113019190614aca565b73ffffffffffffffffffffffffffffffffffffffff1614611357576040517f08c379a000000000000000000000000000000000000000000000000000000000815260040161134e90614b43565b60405180910390fd5b60001515600e600083815260200190815260200160002060009054906101000a900460ff161515146113be576040517f08c379a00000000000000000000000000000000000000000000000000000000081526004016113b590614baf565b60405180910390fd5b60006113c9336115bc565b11611409576040517f08c379a000000000000000000000000000000000000000000000000000000000815260040161140090614c41565b60405180910390fd5b600061142f8360006003811061142257611421614c61565b5b602002015160ff166122c4565b6114538460016003811061144657611445614c61565b5b602002015160ff166122c4565b6114778560026003811061146a57611469614c61565b5b602002015160ff166122c4565b60405160200161148993929190614d74565b604051602081830303815290604052905080600d600086815260200190815260200160002090816114ba9190614f7d565b50601260009054906101000a900473ffffffffffffffffffffffffffffffffffffffff1673ffffffffffffffffffffffffffffffffffffffff166310b4b0386001600c5461150891906135e7565b86843387426040518763ffffffff1660e01b815260040161152e9695949392919061504f565b600060405180830381600087803b15801561154857600080fd5b505af115801561155c573d6000803e3d6000fd5b50505050600c6000815480929190611573906134fd565b91905055506001600e600084815260200190815260200160002060006101000a81548160ff02191690831515021790555050505050565b60006115b5826120a6565b9050919050565b60008073ffffffffffffffffffffffffffffffffffffffff168273ffffffffffffffffffffffffffffffffffffffff1603611623576040517f8f4eb60400000000000000000000000000000000000000000000000000000000815260040160405180910390fd5b67ffffffffffffffff600560008473ffffffffffffffffffffffffffffffffffffffff1673ffffffffffffffffffffffffffffffffffffffff16815260200190815260200160002054169050919050565b61167c612246565b6116866000612314565b565b60606000600190505b60418110156116ed57816116a4826122c4565b600d60008481526020019081526020016000206040516020016116c993929190615233565b604051602081830303815290604052915080806116e5906134fd565b915050611691565b5090565b6000600860009054906101000a900473ffffffffffffffffffffffffffffffffffffffff16905090565b611723612246565b61172d82826123da565b5050565b6060600380546117409061349d565b80601f016020809104026020016040519081016040528092919081815260200182805461176c9061349d565b80156117b95780601f1061178e576101008083540402835291602001916117b9565b820191906000526020600020905b81548152906001019060200180831161179c57829003601f168201915b5050505050905090565b6000601160009054906101000a900473ffffffffffffffffffffffffffffffffffffffff1673ffffffffffffffffffffffffffffffffffffffff16630ff4c916836040518263ffffffff1660e01b81526004016118209190612ddf565b602060405180830381865afa15801561183d573d6000803e3d6000fd5b505050506040513d601f19601f82011682018060405250810190611861919061529a565b9050919050565b600b60009054906101000a900467ffffffffffffffff1667ffffffffffffffff164210156119ca576000601160009054906101000a900473ffffffffffffffffffffffffffffffffffffffff1673ffffffffffffffffffffffffffffffffffffffff166370a08231336040518263ffffffff1660e01b81526004016118ed9190612d49565b602060405180830381865afa15801561190a573d6000803e3d6000fd5b505050506040513d601f19601f8201168201806040525081019061192e919061529a565b1161196e576040517f08c379a000000000000000000000000000000000000000000000000000000000815260040161196590615339565b60405180910390fd5b60068161197b9190613545565b600b60088282829054906101000a900467ffffffffffffffff1661199f9190615359565b92506101000a81548167ffffffffffffffff021916908367ffffffffffffffff160217905550611a2d565b600b60089054906101000a900467ffffffffffffffff1667ffffffffffffffff164210611a2c576040517f08c379a0000000000000000000000000000000000000000000000000000000008152600401611a23906153e1565b60405180910390fd5b5b611a368161256f565b50565b8060076000611a46612095565b73ffffffffffffffffffffffffffffffffffffffff1673ffffffffffffffffffffffffffffffffffffffff16815260200190815260200160002060008473ffffffffffffffffffffffffffffffffffffffff1673ffffffffffffffffffffffffffffffffffffffff16815260200190815260200160002060006101000a81548160ff0219169083151502179055508173ffffffffffffffffffffffffffffffffffffffff16611af3612095565b73ffffffffffffffffffffffffffffffffffffffff167f17307eab39ab6107e8899845ad3d59bd9653f200f220920489ca2b5937696c3183604051611b389190612b9a565b60405180910390a35050565b6000600190505b6041811015611b9757611b8481604051806060016040528060ff80168152602001600060ff168152602001600060ff16815250836111ff565b8080611b8f906134fd565b915050611b4b565b50565b600c5481565b611bab848484610b43565b60008373ffffffffffffffffffffffffffffffffffffffff163b14611c0d57611bd6848484846125ed565b611c0c576040517fd1a57ed600000000000000000000000000000000000000000000000000000000815260040160405180910390fd5b5b50505050565b600d6020528060005260406000206000915090508054611c329061349d565b80601f0160208091040260200160405190810160405280929190818152602001828054611c5e9061349d565b8015611cab5780601f10611c8057610100808354040283529160200191611cab565b820191906000526020600020905b815481529060010190602001808311611c8e57829003601f168201915b505050505081565b611cbb612246565b80601060006101000a81548173ffffffffffffffffffffffffffffffffffffffff021916908373ffffffffffffffffffffffffffffffffffffffff16021790555080601260006101000a81548173ffffffffffffffffffffffffffffffffffffffff021916908373ffffffffffffffffffffffffffffffffffffffff16021790555050565b60606000611d54611d4f611688565b6110c7565b90506000611d61846122c4565b611d6a8361273d565b604051602001611d7b92919061557d565b6040516020818303038152906040529050611d958161273d565b604051602001611da5919061560e565b60405160208183030381529060405292505050919050565b6000600190505b6041811015611e1057611dfd816040518060600160405280600060ff168152602001600060ff16815260200160ff8016815250836111ff565b8080611e08906134fd565b915050611dc4565b50565b6000600760008473ffffffffffffffffffffffffffffffffffffffff1673ffffffffffffffffffffffffffffffffffffffff16815260200190815260200160002060008373ffffffffffffffffffffffffffffffffffffffff1673ffffffffffffffffffffffffffffffffffffffff16815260200190815260200160002060009054906101000a900460ff16905092915050565b611eaf612246565b600073ffffffffffffffffffffffffffffffffffffffff168173ffffffffffffffffffffffffffffffffffffffff1603611f1e576040517f08c379a0000000000000000000000000000000000000000000000000000000008152600401611f15906156a2565b60405180910390fd5b611f2781612314565b50565b60006301ffc9a760e01b827bffffffffffffffffffffffffffffffffffffffffffffffffffffffff19161480611f8557506380ac58cd60e01b827bffffffffffffffffffffffffffffffffffffffffffffffffffffffff1916145b80611fb55750635b5e139f60e01b827bffffffffffffffffffffffffffffffffffffffffffffffffffffffff1916145b9050919050565b60007f2a55205a000000000000000000000000000000000000000000000000000000007bffffffffffffffffffffffffffffffffffffffffffffffffffffffff1916827bffffffffffffffffffffffffffffffffffffffffffffffffffffffff1916148061202f575061202e826128a0565b5b9050919050565b60008161204161209d565b11158015612050575060005482105b801561208e575060007c0100000000000000000000000000000000000000000000000000000000600460008581526020019081526020016000205416145b9050919050565b600033905090565b60006001905090565b600080829050806120b561209d565b1161213b5760005481101561213a5760006004600083815260200190815260200160002054905060007c0100000000000000000000000000000000000000000000000000000000821603612138575b6000810361212e576004600083600190039350838152602001908152602001600020549050612104565b809250505061216d565b505b5b6040517fdf2d9b4200000000000000000000000000000000000000000000000000000000815260040160405180910390fd5b919050565b60008060006006600085815260200190815260200160002090508092508254915050915091565b600073ffffffffffffffffffffffffffffffffffffffff8316925073ffffffffffffffffffffffffffffffffffffffff821691508382148383141790509392505050565b50505050565b60008060e883901c905060e86121fa86868461290a565b62ffffff16901b9150509392505050565b600073ffffffffffffffffffffffffffffffffffffffff83169250814260a01b178317905092915050565b50505050565b6000612710905090565b61224e612913565b73ffffffffffffffffffffffffffffffffffffffff1661226c6116f1565b73ffffffffffffffffffffffffffffffffffffffff16146122c2576040517f08c379a00000000000000000000000000000000000000000000000000000000081526004016122b99061570e565b60405180910390fd5b565b606060a060405101806040526020810391506000825281835b6001156122ff57600184039350600a81066030018453600a81049050806122dd575b50828103602084039350808452505050919050565b6000600860009054906101000a900473ffffffffffffffffffffffffffffffffffffffff16905081600860006101000a81548173ffffffffffffffffffffffffffffffffffffffff021916908373ffffffffffffffffffffffffffffffffffffffff1602179055508173ffffffffffffffffffffffffffffffffffffffff168173ffffffffffffffffffffffffffffffffffffffff167f8be0079c531659141344cd1fd0a4f28419497f9722a3daafe3b4186f6b6457e060405160405180910390a35050565b6123e261223c565b6bffffffffffffffffffffffff16816bffffffffffffffffffffffff161115612440576040517f08c379a0000000000000000000000000000000000000000000000000000000008152600401612437906157a0565b60405180910390fd5b600073ffffffffffffffffffffffffffffffffffffffff168273ffffffffffffffffffffffffffffffffffffffff16036124af576040517f08c379a00000000000000000000000000000000000000000000000000000000081526004016124a69061580c565b60405180910390fd5b60405180604001604052808373ffffffffffffffffffffffffffffffffffffffff168152602001826bffffffffffffffffffffffff16815250600960008201518160000160006101000a81548173ffffffffffffffffffffffffffffffffffffffff021916908373ffffffffffffffffffffffffffffffffffffffff16021790555060208201518160000160146101000a8154816bffffffffffffffffffffffff02191690836bffffffffffffffffffffffff1602179055509050505050565b601e8111156125df576000601e8261258791906135b6565b90506000601e83612598919061582c565b905060005b828110156125c3576125b033601e61291b565b80806125bb906134fd565b91505061259d565b5060008111156125d8576125d7338261291b565b5b50506125ea565b6125e9338261291b565b5b50565b60008373ffffffffffffffffffffffffffffffffffffffff1663150b7a02612613612095565b8786866040518563ffffffff1660e01b8152600401612635949392919061585d565b6020604051808303816000875af192505050801561267157506040513d601f19601f8201168201806040525081019061266e91906158be565b60015b6126ea573d80600081146126a1576040519150601f19603f3d011682016040523d82523d6000602084013e6126a6565b606091505b5060008151036126e2576040517fd1a57ed600000000000000000000000000000000000000000000000000000000815260040160405180910390fd5b805181602001fd5b63150b7a0260e01b7bffffffffffffffffffffffffffffffffffffffffffffffffffffffff1916817bffffffffffffffffffffffffffffffffffffffffffffffffffffffff191614915050949350505050565b6060600082510361275f5760405180602001604052806000815250905061289b565b60006040518060600160405280604081526020016158ec604091399050600060036002855161278e91906135e7565b61279891906135b6565b60046127a49190613545565b67ffffffffffffffff8111156127bd576127bc612ec0565b5b6040519080825280601f01601f1916602001820160405280156127ef5781602001600182028036833780820191505090505b509050600182016020820185865187015b8082101561285b576003820191508151603f8160121c168501518453600184019350603f81600c1c168501518453600184019350603f8160061c168501518453600184019350603f8116850151845360018401935050612800565b5050600386510660018114612877576002811461288a57612892565b603d6001830353603d6002830353612892565b603d60018303535b50505080925050505b919050565b60007f01ffc9a7000000000000000000000000000000000000000000000000000000007bffffffffffffffffffffffffffffffffffffffffffffffffffffffff1916827bffffffffffffffffffffffffffffffffffffffffffffffffffffffff1916149050919050565b60009392505050565b600033905090565b6000805490506000820361295b576040517fb562e8dd00000000000000000000000000000000000000000000000000000000815260040160405180910390fd5b61296860008483856121dd565b600160406001901b178202600560008573ffffffffffffffffffffffffffffffffffffffff1673ffffffffffffffffffffffffffffffffffffffff168152602001908152602001600020600082825401925050819055506129df836129d060008660006121e3565b6129d985612ad6565b1761220b565b6004600083815260200190815260200160002081905550600080838301905073ffffffffffffffffffffffffffffffffffffffff85169150828260007fddf252ad1be2c89b69c2b068fc378daa952ba7f163c4a11628f55a4df523b3ef600080a4600183015b818114612a8057808360007fddf252ad1be2c89b69c2b068fc378daa952ba7f163c4a11628f55a4df523b3ef600080a4600181019050612a45565b5060008203612abb576040517f2e07630000000000000000000000000000000000000000000000000000000000815260040160405180910390fd5b806000819055505050612ad16000848385612236565b505050565b60006001821460e11b9050919050565b6000604051905090565b600080fd5b600080fd5b60007fffffffff0000000000000000000000000000000000000000000000000000000082169050919050565b612b2f81612afa565b8114612b3a57600080fd5b50565b600081359050612b4c81612b26565b92915050565b600060208284031215612b6857612b67612af0565b5b6000612b7684828501612b3d565b91505092915050565b60008115159050919050565b612b9481612b7f565b82525050565b6000602082019050612baf6000830184612b8b565b92915050565b600067ffffffffffffffff82169050919050565b612bd281612bb5565b82525050565b6000602082019050612bed6000830184612bc9565b92915050565b600081519050919050565b600082825260208201905092915050565b60005b83811015612c2d578082015181840152602081019050612c12565b60008484015250505050565b6000601f19601f8301169050919050565b6000612c5582612bf3565b612c5f8185612bfe565b9350612c6f818560208601612c0f565b612c7881612c39565b840191505092915050565b60006020820190508181036000830152612c9d8184612c4a565b905092915050565b6000819050919050565b612cb881612ca5565b8114612cc357600080fd5b50565b600081359050612cd581612caf565b92915050565b600060208284031215612cf157612cf0612af0565b5b6000612cff84828501612cc6565b91505092915050565b600073ffffffffffffffffffffffffffffffffffffffff82169050919050565b6000612d3382612d08565b9050919050565b612d4381612d28565b82525050565b6000602082019050612d5e6000830184612d3a565b92915050565b612d6d81612d28565b8114612d7857600080fd5b50565b600081359050612d8a81612d64565b92915050565b60008060408385031215612da757612da6612af0565b5b6000612db585828601612d7b565b9250506020612dc685828601612cc6565b9150509250929050565b612dd981612ca5565b82525050565b6000602082019050612df46000830184612dd0565b92915050565b600080600060608486031215612e1357612e12612af0565b5b6000612e2186828701612d7b565b9350506020612e3286828701612d7b565b9250506040612e4386828701612cc6565b9150509250925092565b60008060408385031215612e6457612e63612af0565b5b6000612e7285828601612cc6565b9250506020612e8385828601612cc6565b9150509250929050565b6000604082019050612ea26000830185612d3a565b612eaf6020830184612dd0565b9392505050565b600080fd5b600080fd5b7f4e487b7100000000000000000000000000000000000000000000000000000000600052604160045260246000fd5b612ef882612c39565b810181811067ffffffffffffffff82111715612f1757612f16612ec0565b5b80604052505050565b6000612f2a612ae6565b9050612f368282612eef565b919050565b600067ffffffffffffffff821115612f5657612f55612ec0565b5b612f5f82612c39565b9050602081019050919050565b82818337600083830152505050565b6000612f8e612f8984612f3b565b612f20565b905082815260208101848484011115612faa57612fa9612ebb565b5b612fb5848285612f6c565b509392505050565b600082601f830112612fd257612fd1612eb6565b5b8135612fe2848260208601612f7b565b91505092915050565b60006020828403121561300157613000612af0565b5b600082013567ffffffffffffffff81111561301f5761301e612af5565b5b61302b84828501612fbd565b91505092915050565b60006020828403121561304a57613049612af0565b5b600061305884828501612d7b565b91505092915050565b600067ffffffffffffffff82111561307c5761307b612ec0565b5b602082029050919050565b600080fd5b600060ff82169050919050565b6130a28161308c565b81146130ad57600080fd5b50565b6000813590506130bf81613099565b92915050565b60006130d86130d384613061565b612f20565b905080602084028301858111156130f2576130f1613087565b5b835b8181101561311b578061310788826130b0565b8452602084019350506020810190506130f4565b5050509392505050565b600082601f83011261313a57613139612eb6565b5b60036131478482856130c5565b91505092915050565b600080600060a0848603121561316957613168612af0565b5b600061317786828701612cc6565b935050602061318886828701613125565b925050608061319986828701612cc6565b9150509250925092565b60006bffffffffffffffffffffffff82169050919050565b6131c4816131a3565b81146131cf57600080fd5b50565b6000813590506131e1816131bb565b92915050565b600080604083850312156131fe576131fd612af0565b5b600061320c85828601612d7b565b925050602061321d858286016131d2565b9150509250929050565b61323081612b7f565b811461323b57600080fd5b50565b60008135905061324d81613227565b92915050565b6000806040838503121561326a57613269612af0565b5b600061327885828601612d7b565b92505060206132898582860161323e565b9150509250929050565b600067ffffffffffffffff8211156132ae576132ad612ec0565b5b6132b782612c39565b9050602081019050919050565b60006132d76132d284613293565b612f20565b9050828152602081018484840111156132f3576132f2612ebb565b5b6132fe848285612f6c565b509392505050565b600082601f83011261331b5761331a612eb6565b5b813561332b8482602086016132c4565b91505092915050565b6000806000806080858703121561334e5761334d612af0565b5b600061335c87828801612d7b565b945050602061336d87828801612d7b565b935050604061337e87828801612cc6565b925050606085013567ffffffffffffffff81111561339f5761339e612af5565b5b6133ab87828801613306565b91505092959194509250565b600081519050919050565b600082825260208201905092915050565b60006133de826133b7565b6133e881856133c2565b93506133f8818560208601612c0f565b61340181612c39565b840191505092915050565b6000602082019050818103600083015261342681846133d3565b905092915050565b6000806040838503121561344557613444612af0565b5b600061345385828601612d7b565b925050602061346485828601612d7b565b9150509250929050565b7f4e487b7100000000000000000000000000000000000000000000000000000000600052602260045260246000fd5b600060028204905060018216806134b557607f821691505b6020821081036134c8576134c761346e565b5b50919050565b7f4e487b7100000000000000000000000000000000000000000000000000000000600052601160045260246000fd5b600061350882612ca5565b91507fffffffffffffffffffffffffffffffffffffffffffffffffffffffffffffffff820361353a576135396134ce565b5b600182019050919050565b600061355082612ca5565b915061355b83612ca5565b925082820261356981612ca5565b915082820484148315176135805761357f6134ce565b5b5092915050565b7f4e487b7100000000000000000000000000000000000000000000000000000000600052601260045260246000fd5b60006135c182612ca5565b91506135cc83612ca5565b9250826135dc576135db613587565b5b828204905092915050565b60006135f282612ca5565b91506135fd83612ca5565b9250828201905080821115613615576136146134ce565b5b92915050565b600081905092915050565b7f3c7376672077696474683d2238343022206865696768743d223834302220766960008201527f6577426f783d22302030203134203134222066696c6c3d226e6f6e652220786d60208201527f6c6e733d22687474703a2f2f7777772e77332e6f72672f323030302f7376672260408201527f3e3c726563742077696474683d22313422206865696768743d2231342220666960608201527f6c6c3d2223304330433043222f3e3c6720636c6173733d2274696c6573223e3c60808201527f726563742069643d2270312220783d22332220793d2233222066696c6c3d222360a08201527f666666222f3e3c726563742069643d2270322220783d22342220793d2233222060c08201527f66696c6c3d2223666666222f3e3c726563742069643d2270332220783d22352260e08201527f20793d2233222066696c6c3d2223666666222f3e3c726563742069643d2270346101008201527f2220783d22362220793d2233222066696c6c3d2223666666222f3e3c726563746101208201527f2069643d2270352220783d22372220793d2233222066696c6c3d2223666666226101408201527f2f3e3c726563742069643d2270362220783d22382220793d2233222066696c6c6101608201527f3d2223666666222f3e3c726563742069643d2270372220783d22392220793d226101808201527f33222066696c6c3d2223666666222f3e3c726563742069643d2270382220783d6101a08201527f2231302220793d2233222066696c6c3d2223666666222f3e3c726563742069646101c08201527f3d2270392220783d22332220793d2234222066696c6c3d2223666666222f3e3c6101e08201527f726563742069643d227031302220783d22342220793d2234222066696c6c3d226102008201527f23666666222f3e3c726563742069643d227031312220783d22352220793d22346102208201527f222066696c6c3d2223666666222f3e3c726563742069643d227031322220783d6102408201527f22362220793d2234222066696c6c3d2223666666222f3e3c726563742069643d6102608201527f227031332220783d22372220793d2234222066696c6c3d2223666666222f3e3c6102808201527f726563742069643d227031342220783d22382220793d2234222066696c6c3d226102a08201527f23666666222f3e3c726563742069643d227031352220783d22392220793d22346102c08201527f222066696c6c3d2223666666222f3e3c726563742069643d227031362220783d6102e08201527f2231302220793d2234222066696c6c3d2223666666222f3e3c726563742069646103008201527f3d227031372220783d22332220793d2235222066696c6c3d2223666666222f3e6103208201527f3c726563742069643d227031382220783d22342220793d2235222066696c6c3d6103408201527f2223666666222f3e3c726563742069643d227031392220783d22352220793d226103608201527f35222066696c6c3d2223666666222f3e3c726563742069643d227032302220786103808201527f3d22362220793d2235222066696c6c3d2223666666222f3e3c726563742069646103a08201527f3d227032312220783d22372220793d2235222066696c6c3d2223666666222f3e6103c08201527f3c726563742069643d227032322220783d22382220793d2235222066696c6c3d6103e08201527f2223666666222f3e3c726563742069643d227032332220783d22392220793d226104008201527f35222066696c6c3d2223666666222f3e3c726563742069643d227032342220786104208201527f3d2231302220793d2235222066696c6c3d2223666666222f3e3c7265637420696104408201527f643d227032352220783d22332220793d2236222066696c6c3d2223666666222f6104608201527f3e3c726563742069643d227032362220783d22342220793d2236222066696c6c6104808201527f3d2223666666222f3e3c726563742069643d227032372220783d22352220793d6104a08201527f2236222066696c6c3d2223666666222f3e3c726563742069643d2270323822206104c08201527f783d22362220793d2236222066696c6c3d2223666666222f3e3c7265637420696104e08201527f643d227032392220783d22372220793d2236222066696c6c3d2223666666222f6105008201527f3e3c726563742069643d227033302220783d22382220793d2236222066696c6c6105208201527f3d2223666666222f3e3c726563742069643d227033312220783d22392220793d6105408201527f2236222066696c6c3d2223666666222f3e3c726563742069643d2270333222206105608201527f783d2231302220793d2236222066696c6c3d2223666666222f3e3c72656374206105808201527f69643d227033332220783d22332220793d2237222066696c6c3d2223666666226105a08201527f2f3e3c726563742069643d227033342220783d22342220793d2237222066696c6105c08201527f6c3d2223666666222f3e3c726563742069643d227033352220783d22352220796105e08201527f3d2237222066696c6c3d2223666666222f3e3c726563742069643d22703336226106008201527f20783d22362220793d2237222066696c6c3d2223666666222f3e3c72656374206106208201527f69643d227033372220783d22372220793d2237222066696c6c3d2223666666226106408201527f2f3e3c726563742069643d227033382220783d22382220793d2237222066696c6106608201527f6c3d2223666666222f3e3c726563742069643d227033392220783d22392220796106808201527f3d2237222066696c6c3d2223666666222f3e3c726563742069643d22703430226106a08201527f20783d2231302220793d2237222066696c6c3d2223666666222f3e3c726563746106c08201527f2069643d227034312220783d22332220793d2238222066696c6c3d22236666666106e08201527f222f3e3c726563742069643d227034322220783d22342220793d2238222066696107008201527f6c6c3d2223666666222f3e3c726563742069643d227034332220783d223522206107208201527f793d2238222066696c6c3d2223666666222f3e3c726563742069643d227034346107408201527f2220783d22362220793d2238222066696c6c3d2223666666222f3e3c726563746107608201527f2069643d227034352220783d22372220793d2238222066696c6c3d22236666666107808201527f222f3e3c726563742069643d227034362220783d22382220793d2238222066696107a08201527f6c6c3d2223666666222f3e3c726563742069643d227034372220783d223922206107c08201527f793d2238222066696c6c3d2223666666222f3e3c726563742069643d227034386107e08201527f2220783d2231302220793d2238222066696c6c3d2223666666222f3e3c7265636108008201527f742069643d227034392220783d22332220793d2239222066696c6c3d222366666108208201527f66222f3e3c726563742069643d227035302220783d22342220793d22392220666108408201527f696c6c3d2223666666222f3e3c726563742069643d227035312220783d2235226108608201527f20793d2239222066696c6c3d2223666666222f3e3c726563742069643d2270356108808201527f322220783d22362220793d2239222066696c6c3d2223666666222f3e3c7265636108a08201527f742069643d227035332220783d22372220793d2239222066696c6c3d222366666108c08201527f66222f3e3c726563742069643d227035342220783d22382220793d22392220666108e08201527f696c6c3d2223666666222f3e3c726563742069643d227035352220783d2239226109008201527f20793d2239222066696c6c3d2223666666222f3e3c726563742069643d2270356109208201527f362220783d2231302220793d2239222066696c6c3d2223666666222f3e3c72656109408201527f63742069643d227035372220783d22332220793d223130222066696c6c3d22236109608201527f666666222f3e3c726563742069643d227035382220783d22342220793d2231306109808201527f222066696c6c3d2223666666222f3e3c726563742069643d227035392220783d6109a08201527f22352220793d223130222066696c6c3d2223666666222f3e3c726563742069646109c08201527f3d227036302220783d22362220793d223130222066696c6c3d2223666666222f6109e08201527f3e3c726563742069643d227036312220783d22372220793d223130222066696c610a008201527f6c3d2223666666222f3e3c726563742069643d227036322220783d2238222079610a208201527f3d223130222066696c6c3d2223666666222f3e3c726563742069643d22703633610a408201527f2220783d22392220793d223130222066696c6c3d2223666666222f3e3c726563610a608201527f742069643d227036342220783d2231302220793d223130222066696c6c3d2223610a808201527f666666222f3e3c2f673e3c6720636c6173733d2267726964223e3c6c696e6520610aa08201527f78313d22312e303035222079313d222d322e3138353537652d3130222078323d610ac08201527f22312e303035222079323d223134222f3e3c6c696e652078313d22322e303035610ae08201527f222079313d222d322e3138353537652d3130222078323d22322e303035222079610b008201527f323d223134222f3e3c6c696e652078313d22332e303035222079313d222d322e610b208201527f3138353537652d3130222078323d22332e303035222079323d223134222f3e3c610b408201527f6c696e652078313d22342e303035222079313d222d322e3138353537652d3130610b608201527f222078323d22342e303035222079323d223134222f3e3c6c696e652078313d22610b808201527f352e303035222079313d222d322e3138353537652d3130222078323d22352e30610ba08201527f3035222079323d223134222f3e3c6c696e652078313d22362e30303522207931610bc08201527f3d222d322e3138353537652d3130222078323d22362e303035222079323d2231610be08201527f34222f3e3c6c696e652078313d22372e303035222079313d222d322e31383535610c008201527f37652d3130222078323d22372e303035222079323d223134222f3e3c6c696e65610c208201527f2078313d22382e303035222079313d222d322e3138353537652d313022207832610c408201527f3d22382e303035222079323d223134222f3e3c6c696e652078313d22392e3030610c608201527f35222079313d222d322e3138353537652d3130222078323d22392e3030352220610c808201527f79323d223134222f3e3c6c696e652078313d2231302e303035222079313d222d610ca08201527f322e3138353537652d3130222078323d2231302e303035222079323d22313422610cc08201527f2f3e3c6c696e652078313d2231312e303035222079313d222d322e3138353537610ce08201527f652d3130222078323d2231312e303035222079323d223134222f3e3c6c696e65610d008201527f2078313d2231322e303035222079313d222d322e3138353537652d3130222078610d208201527f323d2231322e303035222079323d223134222f3e3c6c696e652078313d223133610d408201527f2e303035222079313d222d322e3138353537652d3130222078323d2231332e30610d608201527f3035222079323d223134222f3e3c6c696e652078313d223134222079313d2231610d808201527f2e303035222079323d22312e303035222f3e3c6c696e652078313d2231342220610da08201527f79313d22322e303035222079323d22322e303035222f3e3c6c696e652078313d610dc08201527f223134222079313d22332e303035222079323d22332e303035222f3e3c6c696e610de08201527f652078313d223134222079313d22342e303035222079323d22342e303035222f610e008201527f3e3c6c696e652078313d223134222079313d22352e303035222079323d22352e610e208201527f303035222f3e3c6c696e652078313d223134222079313d22362e303035222079610e408201527f323d22362e303035222f3e3c6c696e652078313d223134222079313d22372e30610e608201527f3035222079323d22372e303035222f3e3c6c696e652078313d22313422207931610e808201527f3d22382e303035222079323d22382e303035222f3e3c6c696e652078313d2231610ea08201527f34222079313d22392e303035222079323d22392e303035222f3e3c6c696e6520610ec08201527f78313d223134222079313d2231302e303035222079323d2231302e303035222f610ee08201527f3e3c6c696e652078313d223134222079313d2231312e303035222079323d2231610f008201527f312e303035222f3e3c6c696e652078313d223134222079313d2231322e303035610f208201527f222079323d2231322e303035222f3e3c6c696e652078313d223134222079313d610f408201527f2231332e303035222079323d2231332e303035222f3e3c2f673e3c7374796c65610f608201527f3e2e74696c657320726563747b77696474683a3170783b6865696768743a3170610f808201527f783b7d2e677269647b7374726f6b653a233232323b7374726f6b652d77696474610fa08201527f683a2e30313b7d00000000000000000000000000000000000000000000000000610fc082015250565b6000614988610fc78361361b565b915061499382613626565b610fc782019050919050565b60006149aa82612bf3565b6149b4818561361b565b93506149c4818560208601612c0f565b80840191505092915050565b7f3c2f7374796c653e3c2f7376673e000000000000000000000000000000000000600082015250565b6000614a06600e8361361b565b9150614a11826149d0565b600e82019050919050565b6000614a278261497a565b9150614a33828461499f565b9150614a3e826149f9565b915081905092915050565b7f496e76616c696420706f736974696f6e00000000000000000000000000000000600082015250565b6000614a7f601083612bfe565b9150614a8a82614a49565b602082019050919050565b60006020820190508181036000830152614aae81614a72565b9050919050565b600081519050614ac481612d64565b92915050565b600060208284031215614ae057614adf612af0565b5b6000614aee84828501614ab5565b91505092915050565b7f55494e5453206e6f74206f776e65640000000000000000000000000000000000600082015250565b6000614b2d600f83612bfe565b9150614b3882614af7565b602082019050919050565b60006020820190508181036000830152614b5c81614b20565b9050919050565b7f55494e545320616c726561647920757365640000000000000000000000000000600082015250565b6000614b99601283612bfe565b9150614ba482614b63565b602082019050919050565b60006020820190508181036000830152614bc881614b8c565b9050919050565b7f4d757374206f776e206174206c6561737420312055494e54532045646974696f60008201527f6e00000000000000000000000000000000000000000000000000000000000000602082015250565b6000614c2b602183612bfe565b9150614c3682614bcf565b604082019050919050565b60006020820190508181036000830152614c5a81614c1e565b9050919050565b7f4e487b7100000000000000000000000000000000000000000000000000000000600052603260045260246000fd5b7f5247422800000000000000000000000000000000000000000000000000000000600082015250565b6000614cc660048361361b565b9150614cd182614c90565b600482019050919050565b7f2c00000000000000000000000000000000000000000000000000000000000000600082015250565b6000614d1260018361361b565b9150614d1d82614cdc565b600182019050919050565b7f2900000000000000000000000000000000000000000000000000000000000000600082015250565b6000614d5e60018361361b565b9150614d6982614d28565b600182019050919050565b6000614d7f82614cb9565b9150614d8b828661499f565b9150614d9682614d05565b9150614da2828561499f565b9150614dad82614d05565b9150614db9828461499f565b9150614dc482614d51565b9150819050949350505050565b60008190508160005260206000209050919050565b60006020601f8301049050919050565b600082821b905092915050565b600060088302614e337fffffffffffffffffffffffffffffffffffffffffffffffffffffffffffffffff82614df6565b614e3d8683614df6565b95508019841693508086168417925050509392505050565b6000819050919050565b6000614e7a614e75614e7084612ca5565b614e55565b612ca5565b9050919050565b6000819050919050565b614e9483614e5f565b614ea8614ea082614e81565b848454614e03565b825550505050565b600090565b614ebd614eb0565b614ec8818484614e8b565b505050565b5b81811015614eec57614ee1600082614eb5565b600181019050614ece565b5050565b601f821115614f3157614f0281614dd1565b614f0b84614de6565b81016020851015614f1a578190505b614f2e614f2685614de6565b830182614ecd565b50505b505050565b600082821c905092915050565b6000614f5460001984600802614f36565b1980831691505092915050565b6000614f6d8383614f43565b9150826002028217905092915050565b614f86826133b7565b67ffffffffffffffff811115614f9f57614f9e612ec0565b5b614fa9825461349d565b614fb4828285614ef0565b600060209050601f831160018114614fe75760008415614fd5578287015190505b614fdf8582614f61565b865550615047565b601f198416614ff586614dd1565b60005b8281101561501d57848901518255600182019150602085019450602081019050614ff8565b8683101561503a5784890151615036601f891682614f43565b8355505b6001600288020188555050505b505050505050565b600060c0820190506150646000830189612dd0565b6150716020830188612dd0565b81810360408301526150838187612c4a565b90506150926060830186612d3a565b61509f6080830185612dd0565b6150ac60a0830184612dd0565b979650505050505050565b7f2370000000000000000000000000000000000000000000000000000000000000600082015250565b60006150ed60028361361b565b91506150f8826150b7565b600282019050919050565b7f7b66696c6c3a0000000000000000000000000000000000000000000000000000600082015250565b600061513960068361361b565b915061514482615103565b600682019050919050565b60008190508160005260206000209050919050565b600081546151718161349d565b61517b818661361b565b9450600182166000811461519657600181146151ab576151de565b60ff19831686528115158202860193506151de565b6151b48561514f565b60005b838110156151d6578154818901526001820191506020810190506151b7565b838801955050505b50505092915050565b7f7d00000000000000000000000000000000000000000000000000000000000000600082015250565b600061521d60018361361b565b9150615228826151e7565b600182019050919050565b600061523f828661499f565b915061524a826150e0565b9150615256828561499f565b91506152618261512c565b915061526d8284615164565b915061527882615210565b9150819050949350505050565b60008151905061529481612caf565b92915050565b6000602082840312156152b0576152af612af0565b5b60006152be84828501615285565b91505092915050565b7f4d757374206f776e2055494e545320647572696e672070726976617465206d6960008201527f6e74207068617365000000000000000000000000000000000000000000000000602082015250565b6000615323602883612bfe565b915061532e826152c7565b604082019050919050565b6000602082019050818103600083015261535281615316565b9050919050565b600061536482612bb5565b915061536f83612bb5565b9250828203905067ffffffffffffffff81111561538f5761538e6134ce565b5b92915050565b7f4d696e742068617320636c6f7365640000000000000000000000000000000000600082015250565b60006153cb600f83612bfe565b91506153d682615395565b602082019050919050565b600060208201905081810360008301526153fa816153be565b9050919050565b7f7b226e616d65223a202255494e54532045646974696f6e200000000000000000600082015250565b600061543760188361361b565b915061544282615401565b601882019050919050565b7f222c20226465736372697074696f6e223a202255494e54532045646974696f6e60008201527f2067697665732055494e545320686f6c646572732074686520706f776572207460208201527f6f206d616b65207570646174657320746f206f6e2d636861696e20617274776f60408201527f726b2e222c2022696d616765223a2022646174613a696d6167652f7376672b7860608201527f6d6c3b6261736536342c00000000000000000000000000000000000000000000608082015250565b600061551b608a8361361b565b91506155268261544d565b608a82019050919050565b7f227d000000000000000000000000000000000000000000000000000000000000600082015250565b600061556760028361361b565b915061557282615531565b600282019050919050565b60006155888261542a565b9150615594828561499f565b915061559f8261550e565b91506155ab828461499f565b91506155b68261555a565b91508190509392505050565b7f646174613a6170706c69636174696f6e2f6a736f6e3b6261736536342c000000600082015250565b60006155f8601d8361361b565b9150615603826155c2565b601d82019050919050565b6000615619826155eb565b9150615625828461499f565b915081905092915050565b7f4f776e61626c653a206e6577206f776e657220697320746865207a65726f206160008201527f6464726573730000000000000000000000000000000000000000000000000000602082015250565b600061568c602683612bfe565b915061569782615630565b604082019050919050565b600060208201905081810360008301526156bb8161567f565b9050919050565b7f4f776e61626c653a2063616c6c6572206973206e6f7420746865206f776e6572600082015250565b60006156f8602083612bfe565b9150615703826156c2565b602082019050919050565b60006020820190508181036000830152615727816156eb565b9050919050565b7f455243323938313a20726f79616c7479206665652077696c6c2065786365656460008201527f2073616c65507269636500000000000000000000000000000000000000000000602082015250565b600061578a602a83612bfe565b91506157958261572e565b604082019050919050565b600060208201905081810360008301526157b98161577d565b9050919050565b7f455243323938313a20696e76616c696420726563656976657200000000000000600082015250565b60006157f6601983612bfe565b9150615801826157c0565b602082019050919050565b60006020820190508181036000830152615825816157e9565b9050919050565b600061583782612ca5565b915061584283612ca5565b92508261585257615851613587565b5b828206905092915050565b60006080820190506158726000830187612d3a565b61587f6020830186612d3a565b61588c6040830185612dd0565b818103606083015261589e81846133d3565b905095945050505050565b6000815190506158b881612b26565b92915050565b6000602082840312156158d4576158d3612af0565b5b60006158e2848285016158a9565b9150509291505056fe4142434445464748494a4b4c4d4e4f505152535455565758595a6162636465666768696a6b6c6d6e6f707172737475767778797a303132333435363738392b2fa26469706673582212209734f0aa97791f350ad327ff3e983ed38d8c5db408a212f0d47c67eab4d4062064736f6c63430008120033",
			"opcodes": "PUSH1 0x80 PUSH1 0x40 MSTORE PUSH1 0xF PUSH1 0x0 SWAP1 SLOAD SWAP1 PUSH2 0x100 EXP SWAP1 DIV PUSH20 0xFFFFFFFFFFFFFFFFFFFFFFFFFFFFFFFFFFFFFFFF AND PUSH1 0x11 PUSH1 0x0 PUSH2 0x100 EXP DUP2 SLOAD DUP2 PUSH20 0xFFFFFFFFFFFFFFFFFFFFFFFFFFFFFFFFFFFFFFFF MUL NOT AND SWAP1 DUP4 PUSH20 0xFFFFFFFFFFFFFFFFFFFFFFFFFFFFFFFFFFFFFFFF AND MUL OR SWAP1 SSTORE POP PUSH1 0x10 PUSH1 0x0 SWAP1 SLOAD SWAP1 PUSH2 0x100 EXP SWAP1 DIV PUSH20 0xFFFFFFFFFFFFFFFFFFFFFFFFFFFFFFFFFFFFFFFF AND PUSH1 0x12 PUSH1 0x0 PUSH2 0x100 EXP DUP2 SLOAD DUP2 PUSH20 0xFFFFFFFFFFFFFFFFFFFFFFFFFFFFFFFFFFFFFFFF MUL NOT AND SWAP1 DUP4 PUSH20 0xFFFFFFFFFFFFFFFFFFFFFFFFFFFFFFFFFFFFFFFF AND MUL OR SWAP1 SSTORE POP CALLVALUE DUP1 ISZERO PUSH3 0xD7 JUMPI PUSH1 0x0 DUP1 REVERT JUMPDEST POP PUSH1 0x40 MLOAD DUP1 PUSH1 0x40 ADD PUSH1 0x40 MSTORE DUP1 PUSH1 0xD DUP2 MSTORE PUSH1 0x20 ADD PUSH32 0x55494E54532045646974696F6E00000000000000000000000000000000000000 DUP2 MSTORE POP PUSH1 0x40 MLOAD DUP1 PUSH1 0x40 ADD PUSH1 0x40 MSTORE DUP1 PUSH1 0x7 DUP2 MSTORE PUSH1 0x20 ADD PUSH32 0x55494E5453454400000000000000000000000000000000000000000000000000 DUP2 MSTORE POP DUP2 PUSH1 0x2 SWAP1 DUP2 PUSH3 0x155 SWAP2 SWAP1 PUSH3 0x4F7 JUMP JUMPDEST POP DUP1 PUSH1 0x3 SWAP1 DUP2 PUSH3 0x167 SWAP2 SWAP1 PUSH3 0x4F7 JUMP JUMPDEST POP PUSH3 0x178 PUSH3 0x1A6 PUSH1 0x20 SHL PUSH1 0x20 SHR JUMP JUMPDEST PUSH1 0x0 DUP2 SWAP1 SSTORE POP POP POP PUSH3 0x1A0 PUSH3 0x194 PUSH3 0x1AF PUSH1 0x20 SHL PUSH1 0x20 SHR JUMP JUMPDEST PUSH3 0x1B7 PUSH1 0x20 SHL PUSH1 0x20 SHR JUMP JUMPDEST PUSH3 0x5DE JUMP JUMPDEST PUSH1 0x0 PUSH1 0x1 SWAP1 POP SWAP1 JUMP JUMPDEST PUSH1 0x0 CALLER SWAP1 POP SWAP1 JUMP JUMPDEST PUSH1 0x0 PUSH1 0x8 PUSH1 0x0 SWAP1 SLOAD SWAP1 PUSH2 0x100 EXP SWAP1 DIV PUSH20 0xFFFFFFFFFFFFFFFFFFFFFFFFFFFFFFFFFFFFFFFF AND SWAP1 POP DUP2 PUSH1 0x8 PUSH1 0x0 PUSH2 0x100 EXP DUP2 SLOAD DUP2 PUSH20 0xFFFFFFFFFFFFFFFFFFFFFFFFFFFFFFFFFFFFFFFF MUL NOT AND SWAP1 DUP4 PUSH20 0xFFFFFFFFFFFFFFFFFFFFFFFFFFFFFFFFFFFFFFFF AND MUL OR SWAP1 SSTORE POP DUP2 PUSH20 0xFFFFFFFFFFFFFFFFFFFFFFFFFFFFFFFFFFFFFFFF AND DUP2 PUSH20 0xFFFFFFFFFFFFFFFFFFFFFFFFFFFFFFFFFFFFFFFF AND PUSH32 0x8BE0079C531659141344CD1FD0A4F28419497F9722A3DAAFE3B4186F6B6457E0 PUSH1 0x40 MLOAD PUSH1 0x40 MLOAD DUP1 SWAP2 SUB SWAP1 LOG3 POP POP JUMP JUMPDEST PUSH1 0x0 DUP2 MLOAD SWAP1 POP SWAP2 SWAP1 POP JUMP JUMPDEST PUSH32 0x4E487B7100000000000000000000000000000000000000000000000000000000 PUSH1 0x0 MSTORE PUSH1 0x41 PUSH1 0x4 MSTORE PUSH1 0x24 PUSH1 0x0 REVERT JUMPDEST PUSH32 0x4E487B7100000000000000000000000000000000000000000000000000000000 PUSH1 0x0 MSTORE PUSH1 0x22 PUSH1 0x4 MSTORE PUSH1 0x24 PUSH1 0x0 REVERT JUMPDEST PUSH1 0x0 PUSH1 0x2 DUP3 DIV SWAP1 POP PUSH1 0x1 DUP3 AND DUP1 PUSH3 0x2FF JUMPI PUSH1 0x7F DUP3 AND SWAP2 POP JUMPDEST PUSH1 0x20 DUP3 LT DUP2 SUB PUSH3 0x315 JUMPI PUSH3 0x314 PUSH3 0x2B7 JUMP JUMPDEST JUMPDEST POP SWAP2 SWAP1 POP JUMP JUMPDEST PUSH1 0x0 DUP2 SWAP1 POP DUP2 PUSH1 0x0 MSTORE PUSH1 0x20 PUSH1 0x0 KECCAK256 SWAP1 POP SWAP2 SWAP1 POP JUMP JUMPDEST PUSH1 0x0 PUSH1 0x20 PUSH1 0x1F DUP4 ADD DIV SWAP1 POP SWAP2 SWAP1 POP JUMP JUMPDEST PUSH1 0x0 DUP3 DUP3 SHL SWAP1 POP SWAP3 SWAP2 POP POP JUMP JUMPDEST PUSH1 0x0 PUSH1 0x8 DUP4 MUL PUSH3 0x37F PUSH32 0xFFFFFFFFFFFFFFFFFFFFFFFFFFFFFFFFFFFFFFFFFFFFFFFFFFFFFFFFFFFFFFFF DUP3 PUSH3 0x340 JUMP JUMPDEST PUSH3 0x38B DUP7 DUP4 PUSH3 0x340 JUMP JUMPDEST SWAP6 POP DUP1 NOT DUP5 AND SWAP4 POP DUP1 DUP7 AND DUP5 OR SWAP3 POP POP POP SWAP4 SWAP3 POP POP POP JUMP JUMPDEST PUSH1 0x0 DUP2 SWAP1 POP SWAP2 SWAP1 POP JUMP JUMPDEST PUSH1 0x0 DUP2 SWAP1 POP SWAP2 SWAP1 POP JUMP JUMPDEST PUSH1 0x0 PUSH3 0x3D8 PUSH3 0x3D2 PUSH3 0x3CC DUP5 PUSH3 0x3A3 JUMP JUMPDEST PUSH3 0x3AD JUMP JUMPDEST PUSH3 0x3A3 JUMP JUMPDEST SWAP1 POP SWAP2 SWAP1 POP JUMP JUMPDEST PUSH1 0x0 DUP2 SWAP1 POP SWAP2 SWAP1 POP JUMP JUMPDEST PUSH3 0x3F4 DUP4 PUSH3 0x3B7 JUMP JUMPDEST PUSH3 0x40C PUSH3 0x403 DUP3 PUSH3 0x3DF JUMP JUMPDEST DUP5 DUP5 SLOAD PUSH3 0x34D JUMP JUMPDEST DUP3 SSTORE POP POP POP POP JUMP JUMPDEST PUSH1 0x0 SWAP1 JUMP JUMPDEST PUSH3 0x423 PUSH3 0x414 JUMP JUMPDEST PUSH3 0x430 DUP2 DUP5 DUP5 PUSH3 0x3E9 JUMP JUMPDEST POP POP POP JUMP JUMPDEST JUMPDEST DUP2 DUP2 LT ISZERO PUSH3 0x458 JUMPI PUSH3 0x44C PUSH1 0x0 DUP3 PUSH3 0x419 JUMP JUMPDEST PUSH1 0x1 DUP2 ADD SWAP1 POP PUSH3 0x436 JUMP JUMPDEST POP POP JUMP JUMPDEST PUSH1 0x1F DUP3 GT ISZERO PUSH3 0x4A7 JUMPI PUSH3 0x471 DUP2 PUSH3 0x31B JUMP JUMPDEST PUSH3 0x47C DUP5 PUSH3 0x330 JUMP JUMPDEST DUP2 ADD PUSH1 0x20 DUP6 LT ISZERO PUSH3 0x48C JUMPI DUP2 SWAP1 POP JUMPDEST PUSH3 0x4A4 PUSH3 0x49B DUP6 PUSH3 0x330 JUMP JUMPDEST DUP4 ADD DUP3 PUSH3 0x435 JUMP JUMPDEST POP POP JUMPDEST POP POP POP JUMP JUMPDEST PUSH1 0x0 DUP3 DUP3 SHR SWAP1 POP SWAP3 SWAP2 POP POP JUMP JUMPDEST PUSH1 0x0 PUSH3 0x4CC PUSH1 0x0 NOT DUP5 PUSH1 0x8 MUL PUSH3 0x4AC JUMP JUMPDEST NOT DUP1 DUP4 AND SWAP2 POP POP SWAP3 SWAP2 POP POP JUMP JUMPDEST PUSH1 0x0 PUSH3 0x4E7 DUP4 DUP4 PUSH3 0x4B9 JUMP JUMPDEST SWAP2 POP DUP3 PUSH1 0x2 MUL DUP3 OR SWAP1 POP SWAP3 SWAP2 POP POP JUMP JUMPDEST PUSH3 0x502 DUP3 PUSH3 0x27D JUMP JUMPDEST PUSH8 0xFFFFFFFFFFFFFFFF DUP2 GT ISZERO PUSH3 0x51E JUMPI PUSH3 0x51D PUSH3 0x288 JUMP JUMPDEST JUMPDEST PUSH3 0x52A DUP3 SLOAD PUSH3 0x2E6 JUMP JUMPDEST PUSH3 0x537 DUP3 DUP3 DUP6 PUSH3 0x45C JUMP JUMPDEST PUSH1 0x0 PUSH1 0x20 SWAP1 POP PUSH1 0x1F DUP4 GT PUSH1 0x1 DUP2 EQ PUSH3 0x56F JUMPI PUSH1 0x0 DUP5 ISZERO PUSH3 0x55A JUMPI DUP3 DUP8 ADD MLOAD SWAP1 POP JUMPDEST PUSH3 0x566 DUP6 DUP3 PUSH3 0x4D9 JUMP JUMPDEST DUP7 SSTORE POP PUSH3 0x5D6 JUMP JUMPDEST PUSH1 0x1F NOT DUP5 AND PUSH3 0x57F DUP7 PUSH3 0x31B JUMP JUMPDEST PUSH1 0x0 JUMPDEST DUP3 DUP2 LT ISZERO PUSH3 0x5A9 JUMPI DUP5 DUP10 ADD MLOAD DUP3 SSTORE PUSH1 0x1 DUP3 ADD SWAP2 POP PUSH1 0x20 DUP6 ADD SWAP5 POP PUSH1 0x20 DUP2 ADD SWAP1 POP PUSH3 0x582 JUMP JUMPDEST DUP7 DUP4 LT ISZERO PUSH3 0x5C9 JUMPI DUP5 DUP10 ADD MLOAD PUSH3 0x5C5 PUSH1 0x1F DUP10 AND DUP3 PUSH3 0x4B9 JUMP JUMPDEST DUP4 SSTORE POP JUMPDEST PUSH1 0x1 PUSH1 0x2 DUP9 MUL ADD DUP9 SSTORE POP POP POP JUMPDEST POP POP POP POP POP POP JUMP JUMPDEST PUSH2 0x5961 DUP1 PUSH3 0x5EE PUSH1 0x0 CODECOPY PUSH1 0x0 RETURN INVALID PUSH1 0x80 PUSH1 0x40 MSTORE PUSH1 0x4 CALLDATASIZE LT PUSH2 0x20F JUMPI PUSH1 0x0 CALLDATALOAD PUSH1 0xE0 SHR DUP1 PUSH4 0x70A08231 GT PUSH2 0x118 JUMPI DUP1 PUSH4 0xA3B04A1F GT PUSH2 0xA0 JUMPI DUP1 PUSH4 0xBED91971 GT PUSH2 0x6F JUMPI DUP1 PUSH4 0xBED91971 EQ PUSH2 0x742 JUMPI DUP1 PUSH4 0xC87B56DD EQ PUSH2 0x76B JUMPI DUP1 PUSH4 0xDDAF39BC EQ PUSH2 0x7A8 JUMPI DUP1 PUSH4 0xE985E9C5 EQ PUSH2 0x7BF JUMPI DUP1 PUSH4 0xF2FDE38B EQ PUSH2 0x7FC JUMPI PUSH2 0x20F JUMP JUMPDEST DUP1 PUSH4 0xA3B04A1F EQ PUSH2 0x6A7 JUMPI DUP1 PUSH4 0xAAF4389A EQ PUSH2 0x6BE JUMPI DUP1 PUSH4 0xB88D4FDE EQ PUSH2 0x6E9 JUMPI DUP1 PUSH4 0xBD11F69D EQ PUSH2 0x705 JUMPI PUSH2 0x20F JUMP JUMPDEST DUP1 PUSH4 0x8F2FC60B GT PUSH2 0xE7 JUMPI DUP1 PUSH4 0x8F2FC60B EQ PUSH2 0x5C4 JUMPI DUP1 PUSH4 0x95D89B41 EQ PUSH2 0x5ED JUMPI DUP1 PUSH4 0x9F9F3859 EQ PUSH2 0x618 JUMPI DUP1 PUSH4 0xA0712D68 EQ PUSH2 0x655 JUMPI DUP1 PUSH4 0xA22CB465 EQ PUSH2 0x67E JUMPI PUSH2 0x20F JUMP JUMPDEST DUP1 PUSH4 0x70A08231 EQ PUSH2 0x51A JUMPI DUP1 PUSH4 0x715018A6 EQ PUSH2 0x557 JUMPI DUP1 PUSH4 0x7708B2D9 EQ PUSH2 0x56E JUMPI DUP1 PUSH4 0x8DA5CB5B EQ PUSH2 0x599 JUMPI PUSH2 0x20F JUMP JUMPDEST DUP1 PUSH4 0x2A55205A GT PUSH2 0x19B JUMPI DUP1 PUSH4 0x3886BBCF GT PUSH2 0x16A JUMPI DUP1 PUSH4 0x3886BBCF EQ PUSH2 0x456 JUMPI DUP1 PUSH4 0x3CCFD60B EQ PUSH2 0x481 JUMPI DUP1 PUSH4 0x42842E0E EQ PUSH2 0x498 JUMPI DUP1 PUSH4 0x5C27905C EQ PUSH2 0x4B4 JUMPI DUP1 PUSH4 0x6352211E EQ PUSH2 0x4DD JUMPI PUSH2 0x20F JUMP JUMPDEST DUP1 PUSH4 0x2A55205A EQ PUSH2 0x39B JUMPI DUP1 PUSH4 0x2BE09561 EQ PUSH2 0x3D9 JUMPI DUP1 PUSH4 0x32783E5B EQ PUSH2 0x3F0 JUMPI DUP1 PUSH4 0x354098C1 EQ PUSH2 0x42D JUMPI PUSH2 0x20F JUMP JUMPDEST DUP1 PUSH4 0x95EA7B3 GT PUSH2 0x1E2 JUMPI DUP1 PUSH4 0x95EA7B3 EQ PUSH2 0x2E4 JUMPI DUP1 PUSH4 0xF7EE879 EQ PUSH2 0x300 JUMPI DUP1 PUSH4 0xFD51902 EQ PUSH2 0x33D JUMPI DUP1 PUSH4 0x18160DDD EQ PUSH2 0x354 JUMPI DUP1 PUSH4 0x23B872DD EQ PUSH2 0x37F JUMPI PUSH2 0x20F JUMP JUMPDEST DUP1 PUSH4 0x1FFC9A7 EQ PUSH2 0x214 JUMPI DUP1 PUSH4 0x60F8C04 EQ PUSH2 0x251 JUMPI DUP1 PUSH4 0x6FDDE03 EQ PUSH2 0x27C JUMPI DUP1 PUSH4 0x81812FC EQ PUSH2 0x2A7 JUMPI JUMPDEST PUSH1 0x0 DUP1 REVERT JUMPDEST CALLVALUE DUP1 ISZERO PUSH2 0x220 JUMPI PUSH1 0x0 DUP1 REVERT JUMPDEST POP PUSH2 0x23B PUSH1 0x4 DUP1 CALLDATASIZE SUB DUP2 ADD SWAP1 PUSH2 0x236 SWAP2 SWAP1 PUSH2 0x2B52 JUMP JUMPDEST PUSH2 0x825 JUMP JUMPDEST PUSH1 0x40 MLOAD PUSH2 0x248 SWAP2 SWAP1 PUSH2 0x2B9A JUMP JUMPDEST PUSH1 0x40 MLOAD DUP1 SWAP2 SUB SWAP1 RETURN JUMPDEST CALLVALUE DUP1 ISZERO PUSH2 0x25D JUMPI PUSH1 0x0 DUP1 REVERT JUMPDEST POP PUSH2 0x266 PUSH2 0x847 JUMP JUMPDEST PUSH1 0x40 MLOAD PUSH2 0x273 SWAP2 SWAP1 PUSH2 0x2BD8 JUMP JUMPDEST PUSH1 0x40 MLOAD DUP1 SWAP2 SUB SWAP1 RETURN JUMPDEST CALLVALUE DUP1 ISZERO PUSH2 0x288 JUMPI PUSH1 0x0 DUP1 REVERT JUMPDEST POP PUSH2 0x291 PUSH2 0x861 JUMP JUMPDEST PUSH1 0x40 MLOAD PUSH2 0x29E SWAP2 SWAP1 PUSH2 0x2C83 JUMP JUMPDEST PUSH1 0x40 MLOAD DUP1 SWAP2 SUB SWAP1 RETURN JUMPDEST CALLVALUE DUP1 ISZERO PUSH2 0x2B3 JUMPI PUSH1 0x0 DUP1 REVERT JUMPDEST POP PUSH2 0x2CE PUSH1 0x4 DUP1 CALLDATASIZE SUB DUP2 ADD SWAP1 PUSH2 0x2C9 SWAP2 SWAP1 PUSH2 0x2CDB JUMP JUMPDEST PUSH2 0x8F3 JUMP JUMPDEST PUSH1 0x40 MLOAD PUSH2 0x2DB SWAP2 SWAP1 PUSH2 0x2D49 JUMP JUMPDEST PUSH1 0x40 MLOAD DUP1 SWAP2 SUB SWAP1 RETURN JUMPDEST PUSH2 0x2FE PUSH1 0x4 DUP1 CALLDATASIZE SUB DUP2 ADD SWAP1 PUSH2 0x2F9 SWAP2 SWAP1 PUSH2 0x2D90 JUMP JUMPDEST PUSH2 0x972 JUMP JUMPDEST STOP JUMPDEST CALLVALUE DUP1 ISZERO PUSH2 0x30C JUMPI PUSH1 0x0 DUP1 REVERT JUMPDEST POP PUSH2 0x327 PUSH1 0x4 DUP1 CALLDATASIZE SUB DUP2 ADD SWAP1 PUSH2 0x322 SWAP2 SWAP1 PUSH2 0x2CDB JUMP JUMPDEST PUSH2 0xAB6 JUMP JUMPDEST PUSH1 0x40 MLOAD PUSH2 0x334 SWAP2 SWAP1 PUSH2 0x2B9A JUMP JUMPDEST PUSH1 0x40 MLOAD DUP1 SWAP2 SUB SWAP1 RETURN JUMPDEST CALLVALUE DUP1 ISZERO PUSH2 0x349 JUMPI PUSH1 0x0 DUP1 REVERT JUMPDEST POP PUSH2 0x352 PUSH2 0xAD6 JUMP JUMPDEST STOP JUMPDEST CALLVALUE DUP1 ISZERO PUSH2 0x360 JUMPI PUSH1 0x0 DUP1 REVERT JUMPDEST POP PUSH2 0x369 PUSH2 0xB2C JUMP JUMPDEST PUSH1 0x40 MLOAD PUSH2 0x376 SWAP2 SWAP1 PUSH2 0x2DDF JUMP JUMPDEST PUSH1 0x40 MLOAD DUP1 SWAP2 SUB SWAP1 RETURN JUMPDEST PUSH2 0x399 PUSH1 0x4 DUP1 CALLDATASIZE SUB DUP2 ADD SWAP1 PUSH2 0x394 SWAP2 SWAP1 PUSH2 0x2DFA JUMP JUMPDEST PUSH2 0xB43 JUMP JUMPDEST STOP JUMPDEST CALLVALUE DUP1 ISZERO PUSH2 0x3A7 JUMPI PUSH1 0x0 DUP1 REVERT JUMPDEST POP PUSH2 0x3C2 PUSH1 0x4 DUP1 CALLDATASIZE SUB DUP2 ADD SWAP1 PUSH2 0x3BD SWAP2 SWAP1 PUSH2 0x2E4D JUMP JUMPDEST PUSH2 0xE65 JUMP JUMPDEST PUSH1 0x40 MLOAD PUSH2 0x3D0 SWAP3 SWAP2 SWAP1 PUSH2 0x2E8D JUMP JUMPDEST PUSH1 0x40 MLOAD DUP1 SWAP2 SUB SWAP1 RETURN JUMPDEST CALLVALUE DUP1 ISZERO PUSH2 0x3E5 JUMPI PUSH1 0x0 DUP1 REVERT JUMPDEST POP PUSH2 0x3EE PUSH2 0x104F JUMP JUMPDEST STOP JUMPDEST CALLVALUE DUP1 ISZERO PUSH2 0x3FC JUMPI PUSH1 0x0 DUP1 REVERT JUMPDEST POP PUSH2 0x417 PUSH1 0x4 DUP1 CALLDATASIZE SUB DUP2 ADD SWAP1 PUSH2 0x412 SWAP2 SWAP1 PUSH2 0x2FEB JUMP JUMPDEST PUSH2 0x10C7 JUMP JUMPDEST PUSH1 0x40 MLOAD PUSH2 0x424 SWAP2 SWAP1 PUSH2 0x2C83 JUMP JUMPDEST PUSH1 0x40 MLOAD DUP1 SWAP2 SUB SWAP1 RETURN JUMPDEST CALLVALUE DUP1 ISZERO PUSH2 0x439 JUMPI PUSH1 0x0 DUP1 REVERT JUMPDEST POP PUSH2 0x454 PUSH1 0x4 DUP1 CALLDATASIZE SUB DUP2 ADD SWAP1 PUSH2 0x44F SWAP2 SWAP1 PUSH2 0x3034 JUMP JUMPDEST PUSH2 0x10F0 JUMP JUMPDEST STOP JUMPDEST CALLVALUE DUP1 ISZERO PUSH2 0x462 JUMPI PUSH1 0x0 DUP1 REVERT JUMPDEST POP PUSH2 0x46B PUSH2 0x117D JUMP JUMPDEST PUSH1 0x40 MLOAD PUSH2 0x478 SWAP2 SWAP1 PUSH2 0x2BD8 JUMP JUMPDEST PUSH1 0x40 MLOAD DUP1 SWAP2 SUB SWAP1 RETURN JUMPDEST CALLVALUE DUP1 ISZERO PUSH2 0x48D JUMPI PUSH1 0x0 DUP1 REVERT JUMPDEST POP PUSH2 0x496 PUSH2 0x1197 JUMP JUMPDEST STOP JUMPDEST PUSH2 0x4B2 PUSH1 0x4 DUP1 CALLDATASIZE SUB DUP2 ADD SWAP1 PUSH2 0x4AD SWAP2 SWAP1 PUSH2 0x2DFA JUMP JUMPDEST PUSH2 0x11DF JUMP JUMPDEST STOP JUMPDEST CALLVALUE DUP1 ISZERO PUSH2 0x4C0 JUMPI PUSH1 0x0 DUP1 REVERT JUMPDEST POP PUSH2 0x4DB PUSH1 0x4 DUP1 CALLDATASIZE SUB DUP2 ADD SWAP1 PUSH2 0x4D6 SWAP2 SWAP1 PUSH2 0x3150 JUMP JUMPDEST PUSH2 0x11FF JUMP JUMPDEST STOP JUMPDEST CALLVALUE DUP1 ISZERO PUSH2 0x4E9 JUMPI PUSH1 0x0 DUP1 REVERT JUMPDEST POP PUSH2 0x504 PUSH1 0x4 DUP1 CALLDATASIZE SUB DUP2 ADD SWAP1 PUSH2 0x4FF SWAP2 SWAP1 PUSH2 0x2CDB JUMP JUMPDEST PUSH2 0x15AA JUMP JUMPDEST PUSH1 0x40 MLOAD PUSH2 0x511 SWAP2 SWAP1 PUSH2 0x2D49 JUMP JUMPDEST PUSH1 0x40 MLOAD DUP1 SWAP2 SUB SWAP1 RETURN JUMPDEST CALLVALUE DUP1 ISZERO PUSH2 0x526 JUMPI PUSH1 0x0 DUP1 REVERT JUMPDEST POP PUSH2 0x541 PUSH1 0x4 DUP1 CALLDATASIZE SUB DUP2 ADD SWAP1 PUSH2 0x53C SWAP2 SWAP1 PUSH2 0x3034 JUMP JUMPDEST PUSH2 0x15BC JUMP JUMPDEST PUSH1 0x40 MLOAD PUSH2 0x54E SWAP2 SWAP1 PUSH2 0x2DDF JUMP JUMPDEST PUSH1 0x40 MLOAD DUP1 SWAP2 SUB SWAP1 RETURN JUMPDEST CALLVALUE DUP1 ISZERO PUSH2 0x563 JUMPI PUSH1 0x0 DUP1 REVERT JUMPDEST POP PUSH2 0x56C PUSH2 0x1674 JUMP JUMPDEST STOP JUMPDEST CALLVALUE DUP1 ISZERO PUSH2 0x57A JUMPI PUSH1 0x0 DUP1 REVERT JUMPDEST POP PUSH2 0x583 PUSH2 0x1688 JUMP JUMPDEST PUSH1 0x40 MLOAD PUSH2 0x590 SWAP2 SWAP1 PUSH2 0x2C83 JUMP JUMPDEST PUSH1 0x40 MLOAD DUP1 SWAP2 SUB SWAP1 RETURN JUMPDEST CALLVALUE DUP1 ISZERO PUSH2 0x5A5 JUMPI PUSH1 0x0 DUP1 REVERT JUMPDEST POP PUSH2 0x5AE PUSH2 0x16F1 JUMP JUMPDEST PUSH1 0x40 MLOAD PUSH2 0x5BB SWAP2 SWAP1 PUSH2 0x2D49 JUMP JUMPDEST PUSH1 0x40 MLOAD DUP1 SWAP2 SUB SWAP1 RETURN JUMPDEST CALLVALUE DUP1 ISZERO PUSH2 0x5D0 JUMPI PUSH1 0x0 DUP1 REVERT JUMPDEST POP PUSH2 0x5EB PUSH1 0x4 DUP1 CALLDATASIZE SUB DUP2 ADD SWAP1 PUSH2 0x5E6 SWAP2 SWAP1 PUSH2 0x31E7 JUMP JUMPDEST PUSH2 0x171B JUMP JUMPDEST STOP JUMPDEST CALLVALUE DUP1 ISZERO PUSH2 0x5F9 JUMPI PUSH1 0x0 DUP1 REVERT JUMPDEST POP PUSH2 0x602 PUSH2 0x1731 JUMP JUMPDEST PUSH1 0x40 MLOAD PUSH2 0x60F SWAP2 SWAP1 PUSH2 0x2C83 JUMP JUMPDEST PUSH1 0x40 MLOAD DUP1 SWAP2 SUB SWAP1 RETURN JUMPDEST CALLVALUE DUP1 ISZERO PUSH2 0x624 JUMPI PUSH1 0x0 DUP1 REVERT JUMPDEST POP PUSH2 0x63F PUSH1 0x4 DUP1 CALLDATASIZE SUB DUP2 ADD SWAP1 PUSH2 0x63A SWAP2 SWAP1 PUSH2 0x2CDB JUMP JUMPDEST PUSH2 0x17C3 JUMP JUMPDEST PUSH1 0x40 MLOAD PUSH2 0x64C SWAP2 SWAP1 PUSH2 0x2DDF JUMP JUMPDEST PUSH1 0x40 MLOAD DUP1 SWAP2 SUB SWAP1 RETURN JUMPDEST CALLVALUE DUP1 ISZERO PUSH2 0x661 JUMPI PUSH1 0x0 DUP1 REVERT JUMPDEST POP PUSH2 0x67C PUSH1 0x4 DUP1 CALLDATASIZE SUB DUP2 ADD SWAP1 PUSH2 0x677 SWAP2 SWAP1 PUSH2 0x2CDB JUMP JUMPDEST PUSH2 0x1868 JUMP JUMPDEST STOP JUMPDEST CALLVALUE DUP1 ISZERO PUSH2 0x68A JUMPI PUSH1 0x0 DUP1 REVERT JUMPDEST POP PUSH2 0x6A5 PUSH1 0x4 DUP1 CALLDATASIZE SUB DUP2 ADD SWAP1 PUSH2 0x6A0 SWAP2 SWAP1 PUSH2 0x3253 JUMP JUMPDEST PUSH2 0x1A39 JUMP JUMPDEST STOP JUMPDEST CALLVALUE DUP1 ISZERO PUSH2 0x6B3 JUMPI PUSH1 0x0 DUP1 REVERT JUMPDEST POP PUSH2 0x6BC PUSH2 0x1B44 JUMP JUMPDEST STOP JUMPDEST CALLVALUE DUP1 ISZERO PUSH2 0x6CA JUMPI PUSH1 0x0 DUP1 REVERT JUMPDEST POP PUSH2 0x6D3 PUSH2 0x1B9A JUMP JUMPDEST PUSH1 0x40 MLOAD PUSH2 0x6E0 SWAP2 SWAP1 PUSH2 0x2DDF JUMP JUMPDEST PUSH1 0x40 MLOAD DUP1 SWAP2 SUB SWAP1 RETURN JUMPDEST PUSH2 0x703 PUSH1 0x4 DUP1 CALLDATASIZE SUB DUP2 ADD SWAP1 PUSH2 0x6FE SWAP2 SWAP1 PUSH2 0x3334 JUMP JUMPDEST PUSH2 0x1BA0 JUMP JUMPDEST STOP JUMPDEST CALLVALUE DUP1 ISZERO PUSH2 0x711 JUMPI PUSH1 0x0 DUP1 REVERT JUMPDEST POP PUSH2 0x72C PUSH1 0x4 DUP1 CALLDATASIZE SUB DUP2 ADD SWAP1 PUSH2 0x727 SWAP2 SWAP1 PUSH2 0x2CDB JUMP JUMPDEST PUSH2 0x1C13 JUMP JUMPDEST PUSH1 0x40 MLOAD PUSH2 0x739 SWAP2 SWAP1 PUSH2 0x340C JUMP JUMPDEST PUSH1 0x40 MLOAD DUP1 SWAP2 SUB SWAP1 RETURN JUMPDEST CALLVALUE DUP1 ISZERO PUSH2 0x74E JUMPI PUSH1 0x0 DUP1 REVERT JUMPDEST POP PUSH2 0x769 PUSH1 0x4 DUP1 CALLDATASIZE SUB DUP2 ADD SWAP1 PUSH2 0x764 SWAP2 SWAP1 PUSH2 0x3034 JUMP JUMPDEST PUSH2 0x1CB3 JUMP JUMPDEST STOP JUMPDEST CALLVALUE DUP1 ISZERO PUSH2 0x777 JUMPI PUSH1 0x0 DUP1 REVERT JUMPDEST POP PUSH2 0x792 PUSH1 0x4 DUP1 CALLDATASIZE SUB DUP2 ADD SWAP1 PUSH2 0x78D SWAP2 SWAP1 PUSH2 0x2CDB JUMP JUMPDEST PUSH2 0x1D40 JUMP JUMPDEST PUSH1 0x40 MLOAD PUSH2 0x79F SWAP2 SWAP1 PUSH2 0x2C83 JUMP JUMPDEST PUSH1 0x40 MLOAD DUP1 SWAP2 SUB SWAP1 RETURN JUMPDEST CALLVALUE DUP1 ISZERO PUSH2 0x7B4 JUMPI PUSH1 0x0 DUP1 REVERT JUMPDEST POP PUSH2 0x7BD PUSH2 0x1DBD JUMP JUMPDEST STOP JUMPDEST CALLVALUE DUP1 ISZERO PUSH2 0x7CB JUMPI PUSH1 0x0 DUP1 REVERT JUMPDEST POP PUSH2 0x7E6 PUSH1 0x4 DUP1 CALLDATASIZE SUB DUP2 ADD SWAP1 PUSH2 0x7E1 SWAP2 SWAP1 PUSH2 0x342E JUMP JUMPDEST PUSH2 0x1E13 JUMP JUMPDEST PUSH1 0x40 MLOAD PUSH2 0x7F3 SWAP2 SWAP1 PUSH2 0x2B9A JUMP JUMPDEST PUSH1 0x40 MLOAD DUP1 SWAP2 SUB SWAP1 RETURN JUMPDEST CALLVALUE DUP1 ISZERO PUSH2 0x808 JUMPI PUSH1 0x0 DUP1 REVERT JUMPDEST POP PUSH2 0x823 PUSH1 0x4 DUP1 CALLDATASIZE SUB DUP2 ADD SWAP1 PUSH2 0x81E SWAP2 SWAP1 PUSH2 0x3034 JUMP JUMPDEST PUSH2 0x1EA7 JUMP JUMPDEST STOP JUMPDEST PUSH1 0x0 PUSH2 0x830 DUP3 PUSH2 0x1F2A JUMP JUMPDEST DUP1 PUSH2 0x840 JUMPI POP PUSH2 0x83F DUP3 PUSH2 0x1FBC JUMP JUMPDEST JUMPDEST SWAP1 POP SWAP2 SWAP1 POP JUMP JUMPDEST PUSH1 0xB PUSH1 0x8 SWAP1 SLOAD SWAP1 PUSH2 0x100 EXP SWAP1 DIV PUSH8 0xFFFFFFFFFFFFFFFF AND DUP2 JUMP JUMPDEST PUSH1 0x60 PUSH1 0x2 DUP1 SLOAD PUSH2 0x870 SWAP1 PUSH2 0x349D JUMP JUMPDEST DUP1 PUSH1 0x1F ADD PUSH1 0x20 DUP1 SWAP2 DIV MUL PUSH1 0x20 ADD PUSH1 0x40 MLOAD SWAP1 DUP2 ADD PUSH1 0x40 MSTORE DUP1 SWAP3 SWAP2 SWAP1 DUP2 DUP2 MSTORE PUSH1 0x20 ADD DUP3 DUP1 SLOAD PUSH2 0x89C SWAP1 PUSH2 0x349D JUMP JUMPDEST DUP1 ISZERO PUSH2 0x8E9 JUMPI DUP1 PUSH1 0x1F LT PUSH2 0x8BE JUMPI PUSH2 0x100 DUP1 DUP4 SLOAD DIV MUL DUP4 MSTORE SWAP2 PUSH1 0x20 ADD SWAP2 PUSH2 0x8E9 JUMP JUMPDEST DUP3 ADD SWAP2 SWAP1 PUSH1 0x0 MSTORE PUSH1 0x20 PUSH1 0x0 KECCAK256 SWAP1 JUMPDEST DUP2 SLOAD DUP2 MSTORE SWAP1 PUSH1 0x1 ADD SWAP1 PUSH1 0x20 ADD DUP1 DUP4 GT PUSH2 0x8CC JUMPI DUP3 SWAP1 SUB PUSH1 0x1F AND DUP3 ADD SWAP2 JUMPDEST POP POP POP POP POP SWAP1 POP SWAP1 JUMP JUMPDEST PUSH1 0x0 PUSH2 0x8FE DUP3 PUSH2 0x2036 JUMP JUMPDEST PUSH2 0x934 JUMPI PUSH1 0x40 MLOAD PUSH32 0xCF4700E400000000000000000000000000000000000000000000000000000000 DUP2 MSTORE PUSH1 0x4 ADD PUSH1 0x40 MLOAD DUP1 SWAP2 SUB SWAP1 REVERT JUMPDEST PUSH1 0x6 PUSH1 0x0 DUP4 DUP2 MSTORE PUSH1 0x20 ADD SWAP1 DUP2 MSTORE PUSH1 0x20 ADD PUSH1 0x0 KECCAK256 PUSH1 0x0 ADD PUSH1 0x0 SWAP1 SLOAD SWAP1 PUSH2 0x100 EXP SWAP1 DIV PUSH20 0xFFFFFFFFFFFFFFFFFFFFFFFFFFFFFFFFFFFFFFFF AND SWAP1 POP SWAP2 SWAP1 POP JUMP JUMPDEST PUSH1 0x0 PUSH2 0x97D DUP3 PUSH2 0x15AA JUMP JUMPDEST SWAP1 POP DUP1 PUSH20 0xFFFFFFFFFFFFFFFFFFFFFFFFFFFFFFFFFFFFFFFF AND PUSH2 0x99E PUSH2 0x2095 JUMP JUMPDEST PUSH20 0xFFFFFFFFFFFFFFFFFFFFFFFFFFFFFFFFFFFFFFFF AND EQ PUSH2 0xA01 JUMPI PUSH2 0x9CA DUP2 PUSH2 0x9C5 PUSH2 0x2095 JUMP JUMPDEST PUSH2 0x1E13 JUMP JUMPDEST PUSH2 0xA00 JUMPI PUSH1 0x40 MLOAD PUSH32 0xCFB3B94200000000000000000000000000000000000000000000000000000000 DUP2 MSTORE PUSH1 0x4 ADD PUSH1 0x40 MLOAD DUP1 SWAP2 SUB SWAP1 REVERT JUMPDEST JUMPDEST DUP3 PUSH1 0x6 PUSH1 0x0 DUP5 DUP2 MSTORE PUSH1 0x20 ADD SWAP1 DUP2 MSTORE PUSH1 0x20 ADD PUSH1 0x0 KECCAK256 PUSH1 0x0 ADD PUSH1 0x0 PUSH2 0x100 EXP DUP2 SLOAD DUP2 PUSH20 0xFFFFFFFFFFFFFFFFFFFFFFFFFFFFFFFFFFFFFFFF MUL NOT AND SWAP1 DUP4 PUSH20 0xFFFFFFFFFFFFFFFFFFFFFFFFFFFFFFFFFFFFFFFF AND MUL OR SWAP1 SSTORE POP DUP2 DUP4 PUSH20 0xFFFFFFFFFFFFFFFFFFFFFFFFFFFFFFFFFFFFFFFF AND DUP3 PUSH20 0xFFFFFFFFFFFFFFFFFFFFFFFFFFFFFFFFFFFFFFFF AND PUSH32 0x8C5BE1E5EBEC7D5BD14F71427D1E84F3DD0314C0F7B2291E5B200AC8C7C3B925 PUSH1 0x40 MLOAD PUSH1 0x40 MLOAD DUP1 SWAP2 SUB SWAP1 LOG4 POP POP POP JUMP JUMPDEST PUSH1 0xE PUSH1 0x20 MSTORE DUP1 PUSH1 0x0 MSTORE PUSH1 0x40 PUSH1 0x0 KECCAK256 PUSH1 0x0 SWAP2 POP SLOAD SWAP1 PUSH2 0x100 EXP SWAP1 DIV PUSH1 0xFF AND DUP2 JUMP JUMPDEST PUSH1 0x0 PUSH1 0x1 SWAP1 POP JUMPDEST PUSH1 0x41 DUP2 LT ISZERO PUSH2 0xB29 JUMPI PUSH2 0xB16 DUP2 PUSH1 0x40 MLOAD DUP1 PUSH1 0x60 ADD PUSH1 0x40 MSTORE DUP1 PUSH1 0x0 PUSH1 0xFF AND DUP2 MSTORE PUSH1 0x20 ADD PUSH1 0xFF DUP1 AND DUP2 MSTORE PUSH1 0x20 ADD PUSH1 0x0 PUSH1 0xFF AND DUP2 MSTORE POP DUP4 PUSH2 0x11FF JUMP JUMPDEST DUP1 DUP1 PUSH2 0xB21 SWAP1 PUSH2 0x34FD JUMP JUMPDEST SWAP2 POP POP PUSH2 0xADD JUMP JUMPDEST POP JUMP JUMPDEST PUSH1 0x0 PUSH2 0xB36 PUSH2 0x209D JUMP JUMPDEST PUSH1 0x1 SLOAD PUSH1 0x0 SLOAD SUB SUB SWAP1 POP SWAP1 JUMP JUMPDEST PUSH1 0x0 PUSH2 0xB4E DUP3 PUSH2 0x20A6 JUMP JUMPDEST SWAP1 POP DUP4 PUSH20 0xFFFFFFFFFFFFFFFFFFFFFFFFFFFFFFFFFFFFFFFF AND DUP2 PUSH20 0xFFFFFFFFFFFFFFFFFFFFFFFFFFFFFFFFFFFFFFFF AND EQ PUSH2 0xBB5 JUMPI PUSH1 0x40 MLOAD PUSH32 0xA114810000000000000000000000000000000000000000000000000000000000 DUP2 MSTORE PUSH1 0x4 ADD PUSH1 0x40 MLOAD DUP1 SWAP2 SUB SWAP1 REVERT JUMPDEST PUSH1 0x0 DUP1 PUSH2 0xBC1 DUP5 PUSH2 0x2172 JUMP JUMPDEST SWAP2 POP SWAP2 POP PUSH2 0xBD7 DUP2 DUP8 PUSH2 0xBD2 PUSH2 0x2095 JUMP JUMPDEST PUSH2 0x2199 JUMP JUMPDEST PUSH2 0xC23 JUMPI PUSH2 0xBEC DUP7 PUSH2 0xBE7 PUSH2 0x2095 JUMP JUMPDEST PUSH2 0x1E13 JUMP JUMPDEST PUSH2 0xC22 JUMPI PUSH1 0x40 MLOAD PUSH32 0x59C896BE00000000000000000000000000000000000000000000000000000000 DUP2 MSTORE PUSH1 0x4 ADD PUSH1 0x40 MLOAD DUP1 SWAP2 SUB SWAP1 REVERT JUMPDEST JUMPDEST PUSH1 0x0 PUSH20 0xFFFFFFFFFFFFFFFFFFFFFFFFFFFFFFFFFFFFFFFF AND DUP6 PUSH20 0xFFFFFFFFFFFFFFFFFFFFFFFFFFFFFFFFFFFFFFFF AND SUB PUSH2 0xC89 JUMPI PUSH1 0x40 MLOAD PUSH32 0xEA553B3400000000000000000000000000000000000000000000000000000000 DUP2 MSTORE PUSH1 0x4 ADD PUSH1 0x40 MLOAD DUP1 SWAP2 SUB SWAP1 REVERT JUMPDEST PUSH2 0xC96 DUP7 DUP7 DUP7 PUSH1 0x1 PUSH2 0x21DD JUMP JUMPDEST DUP1 ISZERO PUSH2 0xCA1 JUMPI PUSH1 0x0 DUP3 SSTORE JUMPDEST PUSH1 0x5 PUSH1 0x0 DUP8 PUSH20 0xFFFFFFFFFFFFFFFFFFFFFFFFFFFFFFFFFFFFFFFF AND PUSH20 0xFFFFFFFFFFFFFFFFFFFFFFFFFFFFFFFFFFFFFFFF AND DUP2 MSTORE PUSH1 0x20 ADD SWAP1 DUP2 MSTORE PUSH1 0x20 ADD PUSH1 0x0 KECCAK256 PUSH1 0x0 DUP2 SLOAD PUSH1 0x1 SWAP1 SUB SWAP2 SWAP1 POP DUP2 SWAP1 SSTORE POP PUSH1 0x5 PUSH1 0x0 DUP7 PUSH20 0xFFFFFFFFFFFFFFFFFFFFFFFFFFFFFFFFFFFFFFFF AND PUSH20 0xFFFFFFFFFFFFFFFFFFFFFFFFFFFFFFFFFFFFFFFF AND DUP2 MSTORE PUSH1 0x20 ADD SWAP1 DUP2 MSTORE PUSH1 0x20 ADD PUSH1 0x0 KECCAK256 PUSH1 0x0 DUP2 SLOAD PUSH1 0x1 ADD SWAP2 SWAP1 POP DUP2 SWAP1 SSTORE POP PUSH2 0xD6F DUP6 PUSH2 0xD4B DUP9 DUP9 DUP8 PUSH2 0x21E3 JUMP JUMPDEST PUSH29 0x200000000000000000000000000000000000000000000000000000000 OR PUSH2 0x220B JUMP JUMPDEST PUSH1 0x4 PUSH1 0x0 DUP7 DUP2 MSTORE PUSH1 0x20 ADD SWAP1 DUP2 MSTORE PUSH1 0x20 ADD PUSH1 0x0 KECCAK256 DUP2 SWAP1 SSTORE POP PUSH1 0x0 PUSH29 0x200000000000000000000000000000000000000000000000000000000 DUP5 AND SUB PUSH2 0xDF5 JUMPI PUSH1 0x0 PUSH1 0x1 DUP6 ADD SWAP1 POP PUSH1 0x0 PUSH1 0x4 PUSH1 0x0 DUP4 DUP2 MSTORE PUSH1 0x20 ADD SWAP1 DUP2 MSTORE PUSH1 0x20 ADD PUSH1 0x0 KECCAK256 SLOAD SUB PUSH2 0xDF3 JUMPI PUSH1 0x0 SLOAD DUP2 EQ PUSH2 0xDF2 JUMPI DUP4 PUSH1 0x4 PUSH1 0x0 DUP4 DUP2 MSTORE PUSH1 0x20 ADD SWAP1 DUP2 MSTORE PUSH1 0x20 ADD PUSH1 0x0 KECCAK256 DUP2 SWAP1 SSTORE POP JUMPDEST JUMPDEST POP JUMPDEST DUP4 DUP6 PUSH20 0xFFFFFFFFFFFFFFFFFFFFFFFFFFFFFFFFFFFFFFFF AND DUP8 PUSH20 0xFFFFFFFFFFFFFFFFFFFFFFFFFFFFFFFFFFFFFFFF AND PUSH32 0xDDF252AD1BE2C89B69C2B068FC378DAA952BA7F163C4A11628F55A4DF523B3EF PUSH1 0x40 MLOAD PUSH1 0x40 MLOAD DUP1 SWAP2 SUB SWAP1 LOG4 PUSH2 0xE5D DUP7 DUP7 DUP7 PUSH1 0x1 PUSH2 0x2236 JUMP JUMPDEST POP POP POP POP POP POP JUMP JUMPDEST PUSH1 0x0 DUP1 PUSH1 0x0 PUSH1 0xA PUSH1 0x0 DUP7 DUP2 MSTORE PUSH1 0x20 ADD SWAP1 DUP2 MSTORE PUSH1 0x20 ADD PUSH1 0x0 KECCAK256 PUSH1 0x40 MLOAD DUP1 PUSH1 0x40 ADD PUSH1 0x40 MSTORE SWAP1 DUP2 PUSH1 0x0 DUP3 ADD PUSH1 0x0 SWAP1 SLOAD SWAP1 PUSH2 0x100 EXP SWAP1 DIV PUSH20 0xFFFFFFFFFFFFFFFFFFFFFFFFFFFFFFFFFFFFFFFF AND PUSH20 0xFFFFFFFFFFFFFFFFFFFFFFFFFFFFFFFFFFFFFFFF AND PUSH20 0xFFFFFFFFFFFFFFFFFFFFFFFFFFFFFFFFFFFFFFFF AND DUP2 MSTORE PUSH1 0x20 ADD PUSH1 0x0 DUP3 ADD PUSH1 0x14 SWAP1 SLOAD SWAP1 PUSH2 0x100 EXP SWAP1 DIV PUSH12 0xFFFFFFFFFFFFFFFFFFFFFFFF AND PUSH12 0xFFFFFFFFFFFFFFFFFFFFFFFF AND PUSH12 0xFFFFFFFFFFFFFFFFFFFFFFFF AND DUP2 MSTORE POP POP SWAP1 POP PUSH1 0x0 PUSH20 0xFFFFFFFFFFFFFFFFFFFFFFFFFFFFFFFFFFFFFFFF AND DUP2 PUSH1 0x0 ADD MLOAD PUSH20 0xFFFFFFFFFFFFFFFFFFFFFFFFFFFFFFFFFFFFFFFF AND SUB PUSH2 0xFFA JUMPI PUSH1 0x9 PUSH1 0x40 MLOAD DUP1 PUSH1 0x40 ADD PUSH1 0x40 MSTORE SWAP1 DUP2 PUSH1 0x0 DUP3 ADD PUSH1 0x0 SWAP1 SLOAD SWAP1 PUSH2 0x100 EXP SWAP1 DIV PUSH20 0xFFFFFFFFFFFFFFFFFFFFFFFFFFFFFFFFFFFFFFFF AND PUSH20 0xFFFFFFFFFFFFFFFFFFFFFFFFFFFFFFFFFFFFFFFF AND PUSH20 0xFFFFFFFFFFFFFFFFFFFFFFFFFFFFFFFFFFFFFFFF AND DUP2 MSTORE PUSH1 0x20 ADD PUSH1 0x0 DUP3 ADD PUSH1 0x14 SWAP1 SLOAD SWAP1 PUSH2 0x100 EXP SWAP1 DIV PUSH12 0xFFFFFFFFFFFFFFFFFFFFFFFF AND PUSH12 0xFFFFFFFFFFFFFFFFFFFFFFFF AND PUSH12 0xFFFFFFFFFFFFFFFFFFFFFFFF AND DUP2 MSTORE POP POP SWAP1 POP JUMPDEST PUSH1 0x0 PUSH2 0x1004 PUSH2 0x223C JUMP JUMPDEST PUSH12 0xFFFFFFFFFFFFFFFFFFFFFFFF AND DUP3 PUSH1 0x20 ADD MLOAD PUSH12 0xFFFFFFFFFFFFFFFFFFFFFFFF AND DUP7 PUSH2 0x1030 SWAP2 SWAP1 PUSH2 0x3545 JUMP JUMPDEST PUSH2 0x103A SWAP2 SWAP1 PUSH2 0x35B6 JUMP JUMPDEST SWAP1 POP DUP2 PUSH1 0x0 ADD MLOAD DUP2 SWAP4 POP SWAP4 POP POP POP SWAP3 POP SWAP3 SWAP1 POP JUMP JUMPDEST PUSH2 0x1057 PUSH2 0x2246 JUMP JUMPDEST PUSH3 0x15180 TIMESTAMP PUSH2 0x1066 SWAP2 SWAP1 PUSH2 0x35E7 JUMP JUMPDEST PUSH1 0xB PUSH1 0x0 PUSH2 0x100 EXP DUP2 SLOAD DUP2 PUSH8 0xFFFFFFFFFFFFFFFF MUL NOT AND SWAP1 DUP4 PUSH8 0xFFFFFFFFFFFFFFFF AND MUL OR SWAP1 SSTORE POP PUSH3 0x2A300 TIMESTAMP PUSH2 0x109D SWAP2 SWAP1 PUSH2 0x35E7 JUMP JUMPDEST PUSH1 0xB PUSH1 0x8 PUSH2 0x100 EXP DUP2 SLOAD DUP2 PUSH8 0xFFFFFFFFFFFFFFFF MUL NOT AND SWAP1 DUP4 PUSH8 0xFFFFFFFFFFFFFFFF AND MUL OR SWAP1 SSTORE POP JUMP JUMPDEST PUSH1 0x60 DUP2 PUSH1 0x40 MLOAD PUSH1 0x20 ADD PUSH2 0x10DA SWAP2 SWAP1 PUSH2 0x4A1C JUMP JUMPDEST PUSH1 0x40 MLOAD PUSH1 0x20 DUP2 DUP4 SUB SUB DUP2 MSTORE SWAP1 PUSH1 0x40 MSTORE SWAP1 POP SWAP2 SWAP1 POP JUMP JUMPDEST PUSH2 0x10F8 PUSH2 0x2246 JUMP JUMPDEST DUP1 PUSH1 0xF PUSH1 0x0 PUSH2 0x100 EXP DUP2 SLOAD DUP2 PUSH20 0xFFFFFFFFFFFFFFFFFFFFFFFFFFFFFFFFFFFFFFFF MUL NOT AND SWAP1 DUP4 PUSH20 0xFFFFFFFFFFFFFFFFFFFFFFFFFFFFFFFFFFFFFFFF AND MUL OR SWAP1 SSTORE POP DUP1 PUSH1 0x11 PUSH1 0x0 PUSH2 0x100 EXP DUP2 SLOAD DUP2 PUSH20 0xFFFFFFFFFFFFFFFFFFFFFFFFFFFFFFFFFFFFFFFF MUL NOT AND SWAP1 DUP4 PUSH20 0xFFFFFFFFFFFFFFFFFFFFFFFFFFFFFFFFFFFFFFFF AND MUL OR SWAP1 SSTORE POP POP JUMP JUMPDEST PUSH1 0xB PUSH1 0x0 SWAP1 SLOAD SWAP1 PUSH2 0x100 EXP SWAP1 DIV PUSH8 0xFFFFFFFFFFFFFFFF AND DUP2 JUMP JUMPDEST PUSH2 0x119F PUSH2 0x2246 JUMP JUMPDEST CALLER PUSH20 0xFFFFFFFFFFFFFFFFFFFFFFFFFFFFFFFFFFFFFFFF AND PUSH2 0x8FC SELFBALANCE SWAP1 DUP2 ISZERO MUL SWAP1 PUSH1 0x40 MLOAD PUSH1 0x0 PUSH1 0x40 MLOAD DUP1 DUP4 SUB DUP2 DUP6 DUP9 DUP9 CALL SWAP4 POP POP POP POP PUSH2 0x11DD JUMPI PUSH1 0x0 DUP1 REVERT JUMPDEST JUMP JUMPDEST PUSH2 0x11FA DUP4 DUP4 DUP4 PUSH1 0x40 MLOAD DUP1 PUSH1 0x20 ADD PUSH1 0x40 MSTORE DUP1 PUSH1 0x0 DUP2 MSTORE POP PUSH2 0x1BA0 JUMP JUMPDEST POP POP POP JUMP JUMPDEST PUSH1 0x0 DUP4 GT DUP1 ISZERO PUSH2 0x120F JUMPI POP PUSH1 0x41 DUP4 LT JUMPDEST PUSH2 0x124E JUMPI PUSH1 0x40 MLOAD PUSH32 0x8C379A000000000000000000000000000000000000000000000000000000000 DUP2 MSTORE PUSH1 0x4 ADD PUSH2 0x1245 SWAP1 PUSH2 0x4A95 JUMP JUMPDEST PUSH1 0x40 MLOAD DUP1 SWAP2 SUB SWAP1 REVERT JUMPDEST CALLER PUSH20 0xFFFFFFFFFFFFFFFFFFFFFFFFFFFFFFFFFFFFFFFF AND PUSH1 0x11 PUSH1 0x0 SWAP1 SLOAD SWAP1 PUSH2 0x100 EXP SWAP1 DIV PUSH20 0xFFFFFFFFFFFFFFFFFFFFFFFFFFFFFFFFFFFFFFFF AND PUSH20 0xFFFFFFFFFFFFFFFFFFFFFFFFFFFFFFFFFFFFFFFF AND PUSH4 0x6352211E DUP4 PUSH1 0x40 MLOAD DUP3 PUSH4 0xFFFFFFFF AND PUSH1 0xE0 SHL DUP2 MSTORE PUSH1 0x4 ADD PUSH2 0x12C0 SWAP2 SWAP1 PUSH2 0x2DDF JUMP JUMPDEST PUSH1 0x20 PUSH1 0x40 MLOAD DUP1 DUP4 SUB DUP2 DUP7 GAS STATICCALL ISZERO DUP1 ISZERO PUSH2 0x12DD JUMPI RETURNDATASIZE PUSH1 0x0 DUP1 RETURNDATACOPY RETURNDATASIZE PUSH1 0x0 REVERT JUMPDEST POP POP POP POP PUSH1 0x40 MLOAD RETURNDATASIZE PUSH1 0x1F NOT PUSH1 0x1F DUP3 ADD AND DUP3 ADD DUP1 PUSH1 0x40 MSTORE POP DUP2 ADD SWAP1 PUSH2 0x1301 SWAP2 SWAP1 PUSH2 0x4ACA JUMP JUMPDEST PUSH20 0xFFFFFFFFFFFFFFFFFFFFFFFFFFFFFFFFFFFFFFFF AND EQ PUSH2 0x1357 JUMPI PUSH1 0x40 MLOAD PUSH32 0x8C379A000000000000000000000000000000000000000000000000000000000 DUP2 MSTORE PUSH1 0x4 ADD PUSH2 0x134E SWAP1 PUSH2 0x4B43 JUMP JUMPDEST PUSH1 0x40 MLOAD DUP1 SWAP2 SUB SWAP1 REVERT JUMPDEST PUSH1 0x0 ISZERO ISZERO PUSH1 0xE PUSH1 0x0 DUP4 DUP2 MSTORE PUSH1 0x20 ADD SWAP1 DUP2 MSTORE PUSH1 0x20 ADD PUSH1 0x0 KECCAK256 PUSH1 0x0 SWAP1 SLOAD SWAP1 PUSH2 0x100 EXP SWAP1 DIV PUSH1 0xFF AND ISZERO ISZERO EQ PUSH2 0x13BE JUMPI PUSH1 0x40 MLOAD PUSH32 0x8C379A000000000000000000000000000000000000000000000000000000000 DUP2 MSTORE PUSH1 0x4 ADD PUSH2 0x13B5 SWAP1 PUSH2 0x4BAF JUMP JUMPDEST PUSH1 0x40 MLOAD DUP1 SWAP2 SUB SWAP1 REVERT JUMPDEST PUSH1 0x0 PUSH2 0x13C9 CALLER PUSH2 0x15BC JUMP JUMPDEST GT PUSH2 0x1409 JUMPI PUSH1 0x40 MLOAD PUSH32 0x8C379A000000000000000000000000000000000000000000000000000000000 DUP2 MSTORE PUSH1 0x4 ADD PUSH2 0x1400 SWAP1 PUSH2 0x4C41 JUMP JUMPDEST PUSH1 0x40 MLOAD DUP1 SWAP2 SUB SWAP1 REVERT JUMPDEST PUSH1 0x0 PUSH2 0x142F DUP4 PUSH1 0x0 PUSH1 0x3 DUP2 LT PUSH2 0x1422 JUMPI PUSH2 0x1421 PUSH2 0x4C61 JUMP JUMPDEST JUMPDEST PUSH1 0x20 MUL ADD MLOAD PUSH1 0xFF AND PUSH2 0x22C4 JUMP JUMPDEST PUSH2 0x1453 DUP5 PUSH1 0x1 PUSH1 0x3 DUP2 LT PUSH2 0x1446 JUMPI PUSH2 0x1445 PUSH2 0x4C61 JUMP JUMPDEST JUMPDEST PUSH1 0x20 MUL ADD MLOAD PUSH1 0xFF AND PUSH2 0x22C4 JUMP JUMPDEST PUSH2 0x1477 DUP6 PUSH1 0x2 PUSH1 0x3 DUP2 LT PUSH2 0x146A JUMPI PUSH2 0x1469 PUSH2 0x4C61 JUMP JUMPDEST JUMPDEST PUSH1 0x20 MUL ADD MLOAD PUSH1 0xFF AND PUSH2 0x22C4 JUMP JUMPDEST PUSH1 0x40 MLOAD PUSH1 0x20 ADD PUSH2 0x1489 SWAP4 SWAP3 SWAP2 SWAP1 PUSH2 0x4D74 JUMP JUMPDEST PUSH1 0x40 MLOAD PUSH1 0x20 DUP2 DUP4 SUB SUB DUP2 MSTORE SWAP1 PUSH1 0x40 MSTORE SWAP1 POP DUP1 PUSH1 0xD PUSH1 0x0 DUP7 DUP2 MSTORE PUSH1 0x20 ADD SWAP1 DUP2 MSTORE PUSH1 0x20 ADD PUSH1 0x0 KECCAK256 SWAP1 DUP2 PUSH2 0x14BA SWAP2 SWAP1 PUSH2 0x4F7D JUMP JUMPDEST POP PUSH1 0x12 PUSH1 0x0 SWAP1 SLOAD SWAP1 PUSH2 0x100 EXP SWAP1 DIV PUSH20 0xFFFFFFFFFFFFFFFFFFFFFFFFFFFFFFFFFFFFFFFF AND PUSH20 0xFFFFFFFFFFFFFFFFFFFFFFFFFFFFFFFFFFFFFFFF AND PUSH4 0x10B4B038 PUSH1 0x1 PUSH1 0xC SLOAD PUSH2 0x1508 SWAP2 SWAP1 PUSH2 0x35E7 JUMP JUMPDEST DUP7 DUP5 CALLER DUP8 TIMESTAMP PUSH1 0x40 MLOAD DUP8 PUSH4 0xFFFFFFFF AND PUSH1 0xE0 SHL DUP2 MSTORE PUSH1 0x4 ADD PUSH2 0x152E SWAP7 SWAP6 SWAP5 SWAP4 SWAP3 SWAP2 SWAP1 PUSH2 0x504F JUMP JUMPDEST PUSH1 0x0 PUSH1 0x40 MLOAD DUP1 DUP4 SUB DUP2 PUSH1 0x0 DUP8 DUP1 EXTCODESIZE ISZERO DUP1 ISZERO PUSH2 0x1548 JUMPI PUSH1 0x0 DUP1 REVERT JUMPDEST POP GAS CALL ISZERO DUP1 ISZERO PUSH2 0x155C JUMPI RETURNDATASIZE PUSH1 0x0 DUP1 RETURNDATACOPY RETURNDATASIZE PUSH1 0x0 REVERT JUMPDEST POP POP POP POP PUSH1 0xC PUSH1 0x0 DUP2 SLOAD DUP1 SWAP3 SWAP2 SWAP1 PUSH2 0x1573 SWAP1 PUSH2 0x34FD JUMP JUMPDEST SWAP2 SWAP1 POP SSTORE POP PUSH1 0x1 PUSH1 0xE PUSH1 0x0 DUP5 DUP2 MSTORE PUSH1 0x20 ADD SWAP1 DUP2 MSTORE PUSH1 0x20 ADD PUSH1 0x0 KECCAK256 PUSH1 0x0 PUSH2 0x100 EXP DUP2 SLOAD DUP2 PUSH1 0xFF MUL NOT AND SWAP1 DUP4 ISZERO ISZERO MUL OR SWAP1 SSTORE POP POP POP POP POP JUMP JUMPDEST PUSH1 0x0 PUSH2 0x15B5 DUP3 PUSH2 0x20A6 JUMP JUMPDEST SWAP1 POP SWAP2 SWAP1 POP JUMP JUMPDEST PUSH1 0x0 DUP1 PUSH20 0xFFFFFFFFFFFFFFFFFFFFFFFFFFFFFFFFFFFFFFFF AND DUP3 PUSH20 0xFFFFFFFFFFFFFFFFFFFFFFFFFFFFFFFFFFFFFFFF AND SUB PUSH2 0x1623 JUMPI PUSH1 0x40 MLOAD PUSH32 0x8F4EB60400000000000000000000000000000000000000000000000000000000 DUP2 MSTORE PUSH1 0x4 ADD PUSH1 0x40 MLOAD DUP1 SWAP2 SUB SWAP1 REVERT JUMPDEST PUSH8 0xFFFFFFFFFFFFFFFF PUSH1 0x5 PUSH1 0x0 DUP5 PUSH20 0xFFFFFFFFFFFFFFFFFFFFFFFFFFFFFFFFFFFFFFFF AND PUSH20 0xFFFFFFFFFFFFFFFFFFFFFFFFFFFFFFFFFFFFFFFF AND DUP2 MSTORE PUSH1 0x20 ADD SWAP1 DUP2 MSTORE PUSH1 0x20 ADD PUSH1 0x0 KECCAK256 SLOAD AND SWAP1 POP SWAP2 SWAP1 POP JUMP JUMPDEST PUSH2 0x167C PUSH2 0x2246 JUMP JUMPDEST PUSH2 0x1686 PUSH1 0x0 PUSH2 0x2314 JUMP JUMPDEST JUMP JUMPDEST PUSH1 0x60 PUSH1 0x0 PUSH1 0x1 SWAP1 POP JUMPDEST PUSH1 0x41 DUP2 LT ISZERO PUSH2 0x16ED JUMPI DUP2 PUSH2 0x16A4 DUP3 PUSH2 0x22C4 JUMP JUMPDEST PUSH1 0xD PUSH1 0x0 DUP5 DUP2 MSTORE PUSH1 0x20 ADD SWAP1 DUP2 MSTORE PUSH1 0x20 ADD PUSH1 0x0 KECCAK256 PUSH1 0x40 MLOAD PUSH1 0x20 ADD PUSH2 0x16C9 SWAP4 SWAP3 SWAP2 SWAP1 PUSH2 0x5233 JUMP JUMPDEST PUSH1 0x40 MLOAD PUSH1 0x20 DUP2 DUP4 SUB SUB DUP2 MSTORE SWAP1 PUSH1 0x40 MSTORE SWAP2 POP DUP1 DUP1 PUSH2 0x16E5 SWAP1 PUSH2 0x34FD JUMP JUMPDEST SWAP2 POP POP PUSH2 0x1691 JUMP JUMPDEST POP SWAP1 JUMP JUMPDEST PUSH1 0x0 PUSH1 0x8 PUSH1 0x0 SWAP1 SLOAD SWAP1 PUSH2 0x100 EXP SWAP1 DIV PUSH20 0xFFFFFFFFFFFFFFFFFFFFFFFFFFFFFFFFFFFFFFFF AND SWAP1 POP SWAP1 JUMP JUMPDEST PUSH2 0x1723 PUSH2 0x2246 JUMP JUMPDEST PUSH2 0x172D DUP3 DUP3 PUSH2 0x23DA JUMP JUMPDEST POP POP JUMP JUMPDEST PUSH1 0x60 PUSH1 0x3 DUP1 SLOAD PUSH2 0x1740 SWAP1 PUSH2 0x349D JUMP JUMPDEST DUP1 PUSH1 0x1F ADD PUSH1 0x20 DUP1 SWAP2 DIV MUL PUSH1 0x20 ADD PUSH1 0x40 MLOAD SWAP1 DUP2 ADD PUSH1 0x40 MSTORE DUP1 SWAP3 SWAP2 SWAP1 DUP2 DUP2 MSTORE PUSH1 0x20 ADD DUP3 DUP1 SLOAD PUSH2 0x176C SWAP1 PUSH2 0x349D JUMP JUMPDEST DUP1 ISZERO PUSH2 0x17B9 JUMPI DUP1 PUSH1 0x1F LT PUSH2 0x178E JUMPI PUSH2 0x100 DUP1 DUP4 SLOAD DIV MUL DUP4 MSTORE SWAP2 PUSH1 0x20 ADD SWAP2 PUSH2 0x17B9 JUMP JUMPDEST DUP3 ADD SWAP2 SWAP1 PUSH1 0x0 MSTORE PUSH1 0x20 PUSH1 0x0 KECCAK256 SWAP1 JUMPDEST DUP2 SLOAD DUP2 MSTORE SWAP1 PUSH1 0x1 ADD SWAP1 PUSH1 0x20 ADD DUP1 DUP4 GT PUSH2 0x179C JUMPI DUP3 SWAP1 SUB PUSH1 0x1F AND DUP3 ADD SWAP2 JUMPDEST POP POP POP POP POP SWAP1 POP SWAP1 JUMP JUMPDEST PUSH1 0x0 PUSH1 0x11 PUSH1 0x0 SWAP1 SLOAD SWAP1 PUSH2 0x100 EXP SWAP1 DIV PUSH20 0xFFFFFFFFFFFFFFFFFFFFFFFFFFFFFFFFFFFFFFFF AND PUSH20 0xFFFFFFFFFFFFFFFFFFFFFFFFFFFFFFFFFFFFFFFF AND PUSH4 0xFF4C916 DUP4 PUSH1 0x40 MLOAD DUP3 PUSH4 0xFFFFFFFF AND PUSH1 0xE0 SHL DUP2 MSTORE PUSH1 0x4 ADD PUSH2 0x1820 SWAP2 SWAP1 PUSH2 0x2DDF JUMP JUMPDEST PUSH1 0x20 PUSH1 0x40 MLOAD DUP1 DUP4 SUB DUP2 DUP7 GAS STATICCALL ISZERO DUP1 ISZERO PUSH2 0x183D JUMPI RETURNDATASIZE PUSH1 0x0 DUP1 RETURNDATACOPY RETURNDATASIZE PUSH1 0x0 REVERT JUMPDEST POP POP POP POP PUSH1 0x40 MLOAD RETURNDATASIZE PUSH1 0x1F NOT PUSH1 0x1F DUP3 ADD AND DUP3 ADD DUP1 PUSH1 0x40 MSTORE POP DUP2 ADD SWAP1 PUSH2 0x1861 SWAP2 SWAP1 PUSH2 0x529A JUMP JUMPDEST SWAP1 POP SWAP2 SWAP1 POP JUMP JUMPDEST PUSH1 0xB PUSH1 0x0 SWAP1 SLOAD SWAP1 PUSH2 0x100 EXP SWAP1 DIV PUSH8 0xFFFFFFFFFFFFFFFF AND PUSH8 0xFFFFFFFFFFFFFFFF AND TIMESTAMP LT ISZERO PUSH2 0x19CA JUMPI PUSH1 0x0 PUSH1 0x11 PUSH1 0x0 SWAP1 SLOAD SWAP1 PUSH2 0x100 EXP SWAP1 DIV PUSH20 0xFFFFFFFFFFFFFFFFFFFFFFFFFFFFFFFFFFFFFFFF AND PUSH20 0xFFFFFFFFFFFFFFFFFFFFFFFFFFFFFFFFFFFFFFFF AND PUSH4 0x70A08231 CALLER PUSH1 0x40 MLOAD DUP3 PUSH4 0xFFFFFFFF AND PUSH1 0xE0 SHL DUP2 MSTORE PUSH1 0x4 ADD PUSH2 0x18ED SWAP2 SWAP1 PUSH2 0x2D49 JUMP JUMPDEST PUSH1 0x20 PUSH1 0x40 MLOAD DUP1 DUP4 SUB DUP2 DUP7 GAS STATICCALL ISZERO DUP1 ISZERO PUSH2 0x190A JUMPI RETURNDATASIZE PUSH1 0x0 DUP1 RETURNDATACOPY RETURNDATASIZE PUSH1 0x0 REVERT JUMPDEST POP POP POP POP PUSH1 0x40 MLOAD RETURNDATASIZE PUSH1 0x1F NOT PUSH1 0x1F DUP3 ADD AND DUP3 ADD DUP1 PUSH1 0x40 MSTORE POP DUP2 ADD SWAP1 PUSH2 0x192E SWAP2 SWAP1 PUSH2 0x529A JUMP JUMPDEST GT PUSH2 0x196E JUMPI PUSH1 0x40 MLOAD PUSH32 0x8C379A000000000000000000000000000000000000000000000000000000000 DUP2 MSTORE PUSH1 0x4 ADD PUSH2 0x1965 SWAP1 PUSH2 0x5339 JUMP JUMPDEST PUSH1 0x40 MLOAD DUP1 SWAP2 SUB SWAP1 REVERT JUMPDEST PUSH1 0x6 DUP2 PUSH2 0x197B SWAP2 SWAP1 PUSH2 0x3545 JUMP JUMPDEST PUSH1 0xB PUSH1 0x8 DUP3 DUP3 DUP3 SWAP1 SLOAD SWAP1 PUSH2 0x100 EXP SWAP1 DIV PUSH8 0xFFFFFFFFFFFFFFFF AND PUSH2 0x199F SWAP2 SWAP1 PUSH2 0x5359 JUMP JUMPDEST SWAP3 POP PUSH2 0x100 EXP DUP2 SLOAD DUP2 PUSH8 0xFFFFFFFFFFFFFFFF MUL NOT AND SWAP1 DUP4 PUSH8 0xFFFFFFFFFFFFFFFF AND MUL OR SWAP1 SSTORE POP PUSH2 0x1A2D JUMP JUMPDEST PUSH1 0xB PUSH1 0x8 SWAP1 SLOAD SWAP1 PUSH2 0x100 EXP SWAP1 DIV PUSH8 0xFFFFFFFFFFFFFFFF AND PUSH8 0xFFFFFFFFFFFFFFFF AND TIMESTAMP LT PUSH2 0x1A2C JUMPI PUSH1 0x40 MLOAD PUSH32 0x8C379A000000000000000000000000000000000000000000000000000000000 DUP2 MSTORE PUSH1 0x4 ADD PUSH2 0x1A23 SWAP1 PUSH2 0x53E1 JUMP JUMPDEST PUSH1 0x40 MLOAD DUP1 SWAP2 SUB SWAP1 REVERT JUMPDEST JUMPDEST PUSH2 0x1A36 DUP2 PUSH2 0x256F JUMP JUMPDEST POP JUMP JUMPDEST DUP1 PUSH1 0x7 PUSH1 0x0 PUSH2 0x1A46 PUSH2 0x2095 JUMP JUMPDEST PUSH20 0xFFFFFFFFFFFFFFFFFFFFFFFFFFFFFFFFFFFFFFFF AND PUSH20 0xFFFFFFFFFFFFFFFFFFFFFFFFFFFFFFFFFFFFFFFF AND DUP2 MSTORE PUSH1 0x20 ADD SWAP1 DUP2 MSTORE PUSH1 0x20 ADD PUSH1 0x0 KECCAK256 PUSH1 0x0 DUP5 PUSH20 0xFFFFFFFFFFFFFFFFFFFFFFFFFFFFFFFFFFFFFFFF AND PUSH20 0xFFFFFFFFFFFFFFFFFFFFFFFFFFFFFFFFFFFFFFFF AND DUP2 MSTORE PUSH1 0x20 ADD SWAP1 DUP2 MSTORE PUSH1 0x20 ADD PUSH1 0x0 KECCAK256 PUSH1 0x0 PUSH2 0x100 EXP DUP2 SLOAD DUP2 PUSH1 0xFF MUL NOT AND SWAP1 DUP4 ISZERO ISZERO MUL OR SWAP1 SSTORE POP DUP2 PUSH20 0xFFFFFFFFFFFFFFFFFFFFFFFFFFFFFFFFFFFFFFFF AND PUSH2 0x1AF3 PUSH2 0x2095 JUMP JUMPDEST PUSH20 0xFFFFFFFFFFFFFFFFFFFFFFFFFFFFFFFFFFFFFFFF AND PUSH32 0x17307EAB39AB6107E8899845AD3D59BD9653F200F220920489CA2B5937696C31 DUP4 PUSH1 0x40 MLOAD PUSH2 0x1B38 SWAP2 SWAP1 PUSH2 0x2B9A JUMP JUMPDEST PUSH1 0x40 MLOAD DUP1 SWAP2 SUB SWAP1 LOG3 POP POP JUMP JUMPDEST PUSH1 0x0 PUSH1 0x1 SWAP1 POP JUMPDEST PUSH1 0x41 DUP2 LT ISZERO PUSH2 0x1B97 JUMPI PUSH2 0x1B84 DUP2 PUSH1 0x40 MLOAD DUP1 PUSH1 0x60 ADD PUSH1 0x40 MSTORE DUP1 PUSH1 0xFF DUP1 AND DUP2 MSTORE PUSH1 0x20 ADD PUSH1 0x0 PUSH1 0xFF AND DUP2 MSTORE PUSH1 0x20 ADD PUSH1 0x0 PUSH1 0xFF AND DUP2 MSTORE POP DUP4 PUSH2 0x11FF JUMP JUMPDEST DUP1 DUP1 PUSH2 0x1B8F SWAP1 PUSH2 0x34FD JUMP JUMPDEST SWAP2 POP POP PUSH2 0x1B4B JUMP JUMPDEST POP JUMP JUMPDEST PUSH1 0xC SLOAD DUP2 JUMP JUMPDEST PUSH2 0x1BAB DUP5 DUP5 DUP5 PUSH2 0xB43 JUMP JUMPDEST PUSH1 0x0 DUP4 PUSH20 0xFFFFFFFFFFFFFFFFFFFFFFFFFFFFFFFFFFFFFFFF AND EXTCODESIZE EQ PUSH2 0x1C0D JUMPI PUSH2 0x1BD6 DUP5 DUP5 DUP5 DUP5 PUSH2 0x25ED JUMP JUMPDEST PUSH2 0x1C0C JUMPI PUSH1 0x40 MLOAD PUSH32 0xD1A57ED600000000000000000000000000000000000000000000000000000000 DUP2 MSTORE PUSH1 0x4 ADD PUSH1 0x40 MLOAD DUP1 SWAP2 SUB SWAP1 REVERT JUMPDEST JUMPDEST POP POP POP POP JUMP JUMPDEST PUSH1 0xD PUSH1 0x20 MSTORE DUP1 PUSH1 0x0 MSTORE PUSH1 0x40 PUSH1 0x0 KECCAK256 PUSH1 0x0 SWAP2 POP SWAP1 POP DUP1 SLOAD PUSH2 0x1C32 SWAP1 PUSH2 0x349D JUMP JUMPDEST DUP1 PUSH1 0x1F ADD PUSH1 0x20 DUP1 SWAP2 DIV MUL PUSH1 0x20 ADD PUSH1 0x40 MLOAD SWAP1 DUP2 ADD PUSH1 0x40 MSTORE DUP1 SWAP3 SWAP2 SWAP1 DUP2 DUP2 MSTORE PUSH1 0x20 ADD DUP3 DUP1 SLOAD PUSH2 0x1C5E SWAP1 PUSH2 0x349D JUMP JUMPDEST DUP1 ISZERO PUSH2 0x1CAB JUMPI DUP1 PUSH1 0x1F LT PUSH2 0x1C80 JUMPI PUSH2 0x100 DUP1 DUP4 SLOAD DIV MUL DUP4 MSTORE SWAP2 PUSH1 0x20 ADD SWAP2 PUSH2 0x1CAB JUMP JUMPDEST DUP3 ADD SWAP2 SWAP1 PUSH1 0x0 MSTORE PUSH1 0x20 PUSH1 0x0 KECCAK256 SWAP1 JUMPDEST DUP2 SLOAD DUP2 MSTORE SWAP1 PUSH1 0x1 ADD SWAP1 PUSH1 0x20 ADD DUP1 DUP4 GT PUSH2 0x1C8E JUMPI DUP3 SWAP1 SUB PUSH1 0x1F AND DUP3 ADD SWAP2 JUMPDEST POP POP POP POP POP DUP2 JUMP JUMPDEST PUSH2 0x1CBB PUSH2 0x2246 JUMP JUMPDEST DUP1 PUSH1 0x10 PUSH1 0x0 PUSH2 0x100 EXP DUP2 SLOAD DUP2 PUSH20 0xFFFFFFFFFFFFFFFFFFFFFFFFFFFFFFFFFFFFFFFF MUL NOT AND SWAP1 DUP4 PUSH20 0xFFFFFFFFFFFFFFFFFFFFFFFFFFFFFFFFFFFFFFFF AND MUL OR SWAP1 SSTORE POP DUP1 PUSH1 0x12 PUSH1 0x0 PUSH2 0x100 EXP DUP2 SLOAD DUP2 PUSH20 0xFFFFFFFFFFFFFFFFFFFFFFFFFFFFFFFFFFFFFFFF MUL NOT AND SWAP1 DUP4 PUSH20 0xFFFFFFFFFFFFFFFFFFFFFFFFFFFFFFFFFFFFFFFF AND MUL OR SWAP1 SSTORE POP POP JUMP JUMPDEST PUSH1 0x60 PUSH1 0x0 PUSH2 0x1D54 PUSH2 0x1D4F PUSH2 0x1688 JUMP JUMPDEST PUSH2 0x10C7 JUMP JUMPDEST SWAP1 POP PUSH1 0x0 PUSH2 0x1D61 DUP5 PUSH2 0x22C4 JUMP JUMPDEST PUSH2 0x1D6A DUP4 PUSH2 0x273D JUMP JUMPDEST PUSH1 0x40 MLOAD PUSH1 0x20 ADD PUSH2 0x1D7B SWAP3 SWAP2 SWAP1 PUSH2 0x557D JUMP JUMPDEST PUSH1 0x40 MLOAD PUSH1 0x20 DUP2 DUP4 SUB SUB DUP2 MSTORE SWAP1 PUSH1 0x40 MSTORE SWAP1 POP PUSH2 0x1D95 DUP2 PUSH2 0x273D JUMP JUMPDEST PUSH1 0x40 MLOAD PUSH1 0x20 ADD PUSH2 0x1DA5 SWAP2 SWAP1 PUSH2 0x560E JUMP JUMPDEST PUSH1 0x40 MLOAD PUSH1 0x20 DUP2 DUP4 SUB SUB DUP2 MSTORE SWAP1 PUSH1 0x40 MSTORE SWAP3 POP POP POP SWAP2 SWAP1 POP JUMP JUMPDEST PUSH1 0x0 PUSH1 0x1 SWAP1 POP JUMPDEST PUSH1 0x41 DUP2 LT ISZERO PUSH2 0x1E10 JUMPI PUSH2 0x1DFD DUP2 PUSH1 0x40 MLOAD DUP1 PUSH1 0x60 ADD PUSH1 0x40 MSTORE DUP1 PUSH1 0x0 PUSH1 0xFF AND DUP2 MSTORE PUSH1 0x20 ADD PUSH1 0x0 PUSH1 0xFF AND DUP2 MSTORE PUSH1 0x20 ADD PUSH1 0xFF DUP1 AND DUP2 MSTORE POP DUP4 PUSH2 0x11FF JUMP JUMPDEST DUP1 DUP1 PUSH2 0x1E08 SWAP1 PUSH2 0x34FD JUMP JUMPDEST SWAP2 POP POP PUSH2 0x1DC4 JUMP JUMPDEST POP JUMP JUMPDEST PUSH1 0x0 PUSH1 0x7 PUSH1 0x0 DUP5 PUSH20 0xFFFFFFFFFFFFFFFFFFFFFFFFFFFFFFFFFFFFFFFF AND PUSH20 0xFFFFFFFFFFFFFFFFFFFFFFFFFFFFFFFFFFFFFFFF AND DUP2 MSTORE PUSH1 0x20 ADD SWAP1 DUP2 MSTORE PUSH1 0x20 ADD PUSH1 0x0 KECCAK256 PUSH1 0x0 DUP4 PUSH20 0xFFFFFFFFFFFFFFFFFFFFFFFFFFFFFFFFFFFFFFFF AND PUSH20 0xFFFFFFFFFFFFFFFFFFFFFFFFFFFFFFFFFFFFFFFF AND DUP2 MSTORE PUSH1 0x20 ADD SWAP1 DUP2 MSTORE PUSH1 0x20 ADD PUSH1 0x0 KECCAK256 PUSH1 0x0 SWAP1 SLOAD SWAP1 PUSH2 0x100 EXP SWAP1 DIV PUSH1 0xFF AND SWAP1 POP SWAP3 SWAP2 POP POP JUMP JUMPDEST PUSH2 0x1EAF PUSH2 0x2246 JUMP JUMPDEST PUSH1 0x0 PUSH20 0xFFFFFFFFFFFFFFFFFFFFFFFFFFFFFFFFFFFFFFFF AND DUP2 PUSH20 0xFFFFFFFFFFFFFFFFFFFFFFFFFFFFFFFFFFFFFFFF AND SUB PUSH2 0x1F1E JUMPI PUSH1 0x40 MLOAD PUSH32 0x8C379A000000000000000000000000000000000000000000000000000000000 DUP2 MSTORE PUSH1 0x4 ADD PUSH2 0x1F15 SWAP1 PUSH2 0x56A2 JUMP JUMPDEST PUSH1 0x40 MLOAD DUP1 SWAP2 SUB SWAP1 REVERT JUMPDEST PUSH2 0x1F27 DUP2 PUSH2 0x2314 JUMP JUMPDEST POP JUMP JUMPDEST PUSH1 0x0 PUSH4 0x1FFC9A7 PUSH1 0xE0 SHL DUP3 PUSH28 0xFFFFFFFFFFFFFFFFFFFFFFFFFFFFFFFFFFFFFFFFFFFFFFFFFFFFFFFF NOT AND EQ DUP1 PUSH2 0x1F85 JUMPI POP PUSH4 0x80AC58CD PUSH1 0xE0 SHL DUP3 PUSH28 0xFFFFFFFFFFFFFFFFFFFFFFFFFFFFFFFFFFFFFFFFFFFFFFFFFFFFFFFF NOT AND EQ JUMPDEST DUP1 PUSH2 0x1FB5 JUMPI POP PUSH4 0x5B5E139F PUSH1 0xE0 SHL DUP3 PUSH28 0xFFFFFFFFFFFFFFFFFFFFFFFFFFFFFFFFFFFFFFFFFFFFFFFFFFFFFFFF NOT AND EQ JUMPDEST SWAP1 POP SWAP2 SWAP1 POP JUMP JUMPDEST PUSH1 0x0 PUSH32 0x2A55205A00000000000000000000000000000000000000000000000000000000 PUSH28 0xFFFFFFFFFFFFFFFFFFFFFFFFFFFFFFFFFFFFFFFFFFFFFFFFFFFFFFFF NOT AND DUP3 PUSH28 0xFFFFFFFFFFFFFFFFFFFFFFFFFFFFFFFFFFFFFFFFFFFFFFFFFFFFFFFF NOT AND EQ DUP1 PUSH2 0x202F JUMPI POP PUSH2 0x202E DUP3 PUSH2 0x28A0 JUMP JUMPDEST JUMPDEST SWAP1 POP SWAP2 SWAP1 POP JUMP JUMPDEST PUSH1 0x0 DUP2 PUSH2 0x2041 PUSH2 0x209D JUMP JUMPDEST GT ISZERO DUP1 ISZERO PUSH2 0x2050 JUMPI POP PUSH1 0x0 SLOAD DUP3 LT JUMPDEST DUP1 ISZERO PUSH2 0x208E JUMPI POP PUSH1 0x0 PUSH29 0x100000000000000000000000000000000000000000000000000000000 PUSH1 0x4 PUSH1 0x0 DUP6 DUP2 MSTORE PUSH1 0x20 ADD SWAP1 DUP2 MSTORE PUSH1 0x20 ADD PUSH1 0x0 KECCAK256 SLOAD AND EQ JUMPDEST SWAP1 POP SWAP2 SWAP1 POP JUMP JUMPDEST PUSH1 0x0 CALLER SWAP1 POP SWAP1 JUMP JUMPDEST PUSH1 0x0 PUSH1 0x1 SWAP1 POP SWAP1 JUMP JUMPDEST PUSH1 0x0 DUP1 DUP3 SWAP1 POP DUP1 PUSH2 0x20B5 PUSH2 0x209D JUMP JUMPDEST GT PUSH2 0x213B JUMPI PUSH1 0x0 SLOAD DUP2 LT ISZERO PUSH2 0x213A JUMPI PUSH1 0x0 PUSH1 0x4 PUSH1 0x0 DUP4 DUP2 MSTORE PUSH1 0x20 ADD SWAP1 DUP2 MSTORE PUSH1 0x20 ADD PUSH1 0x0 KECCAK256 SLOAD SWAP1 POP PUSH1 0x0 PUSH29 0x100000000000000000000000000000000000000000000000000000000 DUP3 AND SUB PUSH2 0x2138 JUMPI JUMPDEST PUSH1 0x0 DUP2 SUB PUSH2 0x212E JUMPI PUSH1 0x4 PUSH1 0x0 DUP4 PUSH1 0x1 SWAP1 SUB SWAP4 POP DUP4 DUP2 MSTORE PUSH1 0x20 ADD SWAP1 DUP2 MSTORE PUSH1 0x20 ADD PUSH1 0x0 KECCAK256 SLOAD SWAP1 POP PUSH2 0x2104 JUMP JUMPDEST DUP1 SWAP3 POP POP POP PUSH2 0x216D JUMP JUMPDEST POP JUMPDEST JUMPDEST PUSH1 0x40 MLOAD PUSH32 0xDF2D9B4200000000000000000000000000000000000000000000000000000000 DUP2 MSTORE PUSH1 0x4 ADD PUSH1 0x40 MLOAD DUP1 SWAP2 SUB SWAP1 REVERT JUMPDEST SWAP2 SWAP1 POP JUMP JUMPDEST PUSH1 0x0 DUP1 PUSH1 0x0 PUSH1 0x6 PUSH1 0x0 DUP6 DUP2 MSTORE PUSH1 0x20 ADD SWAP1 DUP2 MSTORE PUSH1 0x20 ADD PUSH1 0x0 KECCAK256 SWAP1 POP DUP1 SWAP3 POP DUP3 SLOAD SWAP2 POP POP SWAP2 POP SWAP2 JUMP JUMPDEST PUSH1 0x0 PUSH20 0xFFFFFFFFFFFFFFFFFFFFFFFFFFFFFFFFFFFFFFFF DUP4 AND SWAP3 POP PUSH20 0xFFFFFFFFFFFFFFFFFFFFFFFFFFFFFFFFFFFFFFFF DUP3 AND SWAP2 POP DUP4 DUP3 EQ DUP4 DUP4 EQ OR SWAP1 POP SWAP4 SWAP3 POP POP POP JUMP JUMPDEST POP POP POP POP JUMP JUMPDEST PUSH1 0x0 DUP1 PUSH1 0xE8 DUP4 SWAP1 SHR SWAP1 POP PUSH1 0xE8 PUSH2 0x21FA DUP7 DUP7 DUP5 PUSH2 0x290A JUMP JUMPDEST PUSH3 0xFFFFFF AND SWAP1 SHL SWAP2 POP POP SWAP4 SWAP3 POP POP POP JUMP JUMPDEST PUSH1 0x0 PUSH20 0xFFFFFFFFFFFFFFFFFFFFFFFFFFFFFFFFFFFFFFFF DUP4 AND SWAP3 POP DUP2 TIMESTAMP PUSH1 0xA0 SHL OR DUP4 OR SWAP1 POP SWAP3 SWAP2 POP POP JUMP JUMPDEST POP POP POP POP JUMP JUMPDEST PUSH1 0x0 PUSH2 0x2710 SWAP1 POP SWAP1 JUMP JUMPDEST PUSH2 0x224E PUSH2 0x2913 JUMP JUMPDEST PUSH20 0xFFFFFFFFFFFFFFFFFFFFFFFFFFFFFFFFFFFFFFFF AND PUSH2 0x226C PUSH2 0x16F1 JUMP JUMPDEST PUSH20 0xFFFFFFFFFFFFFFFFFFFFFFFFFFFFFFFFFFFFFFFF AND EQ PUSH2 0x22C2 JUMPI PUSH1 0x40 MLOAD PUSH32 0x8C379A000000000000000000000000000000000000000000000000000000000 DUP2 MSTORE PUSH1 0x4 ADD PUSH2 0x22B9 SWAP1 PUSH2 0x570E JUMP JUMPDEST PUSH1 0x40 MLOAD DUP1 SWAP2 SUB SWAP1 REVERT JUMPDEST JUMP JUMPDEST PUSH1 0x60 PUSH1 0xA0 PUSH1 0x40 MLOAD ADD DUP1 PUSH1 0x40 MSTORE PUSH1 0x20 DUP2 SUB SWAP2 POP PUSH1 0x0 DUP3 MSTORE DUP2 DUP4 JUMPDEST PUSH1 0x1 ISZERO PUSH2 0x22FF JUMPI PUSH1 0x1 DUP5 SUB SWAP4 POP PUSH1 0xA DUP2 MOD PUSH1 0x30 ADD DUP5 MSTORE8 PUSH1 0xA DUP2 DIV SWAP1 POP DUP1 PUSH2 0x22DD JUMPI JUMPDEST POP DUP3 DUP2 SUB PUSH1 0x20 DUP5 SUB SWAP4 POP DUP1 DUP5 MSTORE POP POP POP SWAP2 SWAP1 POP JUMP JUMPDEST PUSH1 0x0 PUSH1 0x8 PUSH1 0x0 SWAP1 SLOAD SWAP1 PUSH2 0x100 EXP SWAP1 DIV PUSH20 0xFFFFFFFFFFFFFFFFFFFFFFFFFFFFFFFFFFFFFFFF AND SWAP1 POP DUP2 PUSH1 0x8 PUSH1 0x0 PUSH2 0x100 EXP DUP2 SLOAD DUP2 PUSH20 0xFFFFFFFFFFFFFFFFFFFFFFFFFFFFFFFFFFFFFFFF MUL NOT AND SWAP1 DUP4 PUSH20 0xFFFFFFFFFFFFFFFFFFFFFFFFFFFFFFFFFFFFFFFF AND MUL OR SWAP1 SSTORE POP DUP2 PUSH20 0xFFFFFFFFFFFFFFFFFFFFFFFFFFFFFFFFFFFFFFFF AND DUP2 PUSH20 0xFFFFFFFFFFFFFFFFFFFFFFFFFFFFFFFFFFFFFFFF AND PUSH32 0x8BE0079C531659141344CD1FD0A4F28419497F9722A3DAAFE3B4186F6B6457E0 PUSH1 0x40 MLOAD PUSH1 0x40 MLOAD DUP1 SWAP2 SUB SWAP1 LOG3 POP POP JUMP JUMPDEST PUSH2 0x23E2 PUSH2 0x223C JUMP JUMPDEST PUSH12 0xFFFFFFFFFFFFFFFFFFFFFFFF AND DUP2 PUSH12 0xFFFFFFFFFFFFFFFFFFFFFFFF AND GT ISZERO PUSH2 0x2440 JUMPI PUSH1 0x40 MLOAD PUSH32 0x8C379A000000000000000000000000000000000000000000000000000000000 DUP2 MSTORE PUSH1 0x4 ADD PUSH2 0x2437 SWAP1 PUSH2 0x57A0 JUMP JUMPDEST PUSH1 0x40 MLOAD DUP1 SWAP2 SUB SWAP1 REVERT JUMPDEST PUSH1 0x0 PUSH20 0xFFFFFFFFFFFFFFFFFFFFFFFFFFFFFFFFFFFFFFFF AND DUP3 PUSH20 0xFFFFFFFFFFFFFFFFFFFFFFFFFFFFFFFFFFFFFFFF AND SUB PUSH2 0x24AF JUMPI PUSH1 0x40 MLOAD PUSH32 0x8C379A000000000000000000000000000000000000000000000000000000000 DUP2 MSTORE PUSH1 0x4 ADD PUSH2 0x24A6 SWAP1 PUSH2 0x580C JUMP JUMPDEST PUSH1 0x40 MLOAD DUP1 SWAP2 SUB SWAP1 REVERT JUMPDEST PUSH1 0x40 MLOAD DUP1 PUSH1 0x40 ADD PUSH1 0x40 MSTORE DUP1 DUP4 PUSH20 0xFFFFFFFFFFFFFFFFFFFFFFFFFFFFFFFFFFFFFFFF AND DUP2 MSTORE PUSH1 0x20 ADD DUP3 PUSH12 0xFFFFFFFFFFFFFFFFFFFFFFFF AND DUP2 MSTORE POP PUSH1 0x9 PUSH1 0x0 DUP3 ADD MLOAD DUP2 PUSH1 0x0 ADD PUSH1 0x0 PUSH2 0x100 EXP DUP2 SLOAD DUP2 PUSH20 0xFFFFFFFFFFFFFFFFFFFFFFFFFFFFFFFFFFFFFFFF MUL NOT AND SWAP1 DUP4 PUSH20 0xFFFFFFFFFFFFFFFFFFFFFFFFFFFFFFFFFFFFFFFF AND MUL OR SWAP1 SSTORE POP PUSH1 0x20 DUP3 ADD MLOAD DUP2 PUSH1 0x0 ADD PUSH1 0x14 PUSH2 0x100 EXP DUP2 SLOAD DUP2 PUSH12 0xFFFFFFFFFFFFFFFFFFFFFFFF MUL NOT AND SWAP1 DUP4 PUSH12 0xFFFFFFFFFFFFFFFFFFFFFFFF AND MUL OR SWAP1 SSTORE POP SWAP1 POP POP POP POP JUMP JUMPDEST PUSH1 0x1E DUP2 GT ISZERO PUSH2 0x25DF JUMPI PUSH1 0x0 PUSH1 0x1E DUP3 PUSH2 0x2587 SWAP2 SWAP1 PUSH2 0x35B6 JUMP JUMPDEST SWAP1 POP PUSH1 0x0 PUSH1 0x1E DUP4 PUSH2 0x2598 SWAP2 SWAP1 PUSH2 0x582C JUMP JUMPDEST SWAP1 POP PUSH1 0x0 JUMPDEST DUP3 DUP2 LT ISZERO PUSH2 0x25C3 JUMPI PUSH2 0x25B0 CALLER PUSH1 0x1E PUSH2 0x291B JUMP JUMPDEST DUP1 DUP1 PUSH2 0x25BB SWAP1 PUSH2 0x34FD JUMP JUMPDEST SWAP2 POP POP PUSH2 0x259D JUMP JUMPDEST POP PUSH1 0x0 DUP2 GT ISZERO PUSH2 0x25D8 JUMPI PUSH2 0x25D7 CALLER DUP3 PUSH2 0x291B JUMP JUMPDEST JUMPDEST POP POP PUSH2 0x25EA JUMP JUMPDEST PUSH2 0x25E9 CALLER DUP3 PUSH2 0x291B JUMP JUMPDEST JUMPDEST POP JUMP JUMPDEST PUSH1 0x0 DUP4 PUSH20 0xFFFFFFFFFFFFFFFFFFFFFFFFFFFFFFFFFFFFFFFF AND PUSH4 0x150B7A02 PUSH2 0x2613 PUSH2 0x2095 JUMP JUMPDEST DUP8 DUP7 DUP7 PUSH1 0x40 MLOAD DUP6 PUSH4 0xFFFFFFFF AND PUSH1 0xE0 SHL DUP2 MSTORE PUSH1 0x4 ADD PUSH2 0x2635 SWAP5 SWAP4 SWAP3 SWAP2 SWAP1 PUSH2 0x585D JUMP JUMPDEST PUSH1 0x20 PUSH1 0x40 MLOAD DUP1 DUP4 SUB DUP2 PUSH1 0x0 DUP8 GAS CALL SWAP3 POP POP POP DUP1 ISZERO PUSH2 0x2671 JUMPI POP PUSH1 0x40 MLOAD RETURNDATASIZE PUSH1 0x1F NOT PUSH1 0x1F DUP3 ADD AND DUP3 ADD DUP1 PUSH1 0x40 MSTORE POP DUP2 ADD SWAP1 PUSH2 0x266E SWAP2 SWAP1 PUSH2 0x58BE JUMP JUMPDEST PUSH1 0x1 JUMPDEST PUSH2 0x26EA JUMPI RETURNDATASIZE DUP1 PUSH1 0x0 DUP2 EQ PUSH2 0x26A1 JUMPI PUSH1 0x40 MLOAD SWAP2 POP PUSH1 0x1F NOT PUSH1 0x3F RETURNDATASIZE ADD AND DUP3 ADD PUSH1 0x40 MSTORE RETURNDATASIZE DUP3 MSTORE RETURNDATASIZE PUSH1 0x0 PUSH1 0x20 DUP5 ADD RETURNDATACOPY PUSH2 0x26A6 JUMP JUMPDEST PUSH1 0x60 SWAP2 POP JUMPDEST POP PUSH1 0x0 DUP2 MLOAD SUB PUSH2 0x26E2 JUMPI PUSH1 0x40 MLOAD PUSH32 0xD1A57ED600000000000000000000000000000000000000000000000000000000 DUP2 MSTORE PUSH1 0x4 ADD PUSH1 0x40 MLOAD DUP1 SWAP2 SUB SWAP1 REVERT JUMPDEST DUP1 MLOAD DUP2 PUSH1 0x20 ADD REVERT JUMPDEST PUSH4 0x150B7A02 PUSH1 0xE0 SHL PUSH28 0xFFFFFFFFFFFFFFFFFFFFFFFFFFFFFFFFFFFFFFFFFFFFFFFFFFFFFFFF NOT AND DUP2 PUSH28 0xFFFFFFFFFFFFFFFFFFFFFFFFFFFFFFFFFFFFFFFFFFFFFFFFFFFFFFFF NOT AND EQ SWAP2 POP POP SWAP5 SWAP4 POP POP POP POP JUMP JUMPDEST PUSH1 0x60 PUSH1 0x0 DUP3 MLOAD SUB PUSH2 0x275F JUMPI PUSH1 0x40 MLOAD DUP1 PUSH1 0x20 ADD PUSH1 0x40 MSTORE DUP1 PUSH1 0x0 DUP2 MSTORE POP SWAP1 POP PUSH2 0x289B JUMP JUMPDEST PUSH1 0x0 PUSH1 0x40 MLOAD DUP1 PUSH1 0x60 ADD PUSH1 0x40 MSTORE DUP1 PUSH1 0x40 DUP2 MSTORE PUSH1 0x20 ADD PUSH2 0x58EC PUSH1 0x40 SWAP2 CODECOPY SWAP1 POP PUSH1 0x0 PUSH1 0x3 PUSH1 0x2 DUP6 MLOAD PUSH2 0x278E SWAP2 SWAP1 PUSH2 0x35E7 JUMP JUMPDEST PUSH2 0x2798 SWAP2 SWAP1 PUSH2 0x35B6 JUMP JUMPDEST PUSH1 0x4 PUSH2 0x27A4 SWAP2 SWAP1 PUSH2 0x3545 JUMP JUMPDEST PUSH8 0xFFFFFFFFFFFFFFFF DUP2 GT ISZERO PUSH2 0x27BD JUMPI PUSH2 0x27BC PUSH2 0x2EC0 JUMP JUMPDEST JUMPDEST PUSH1 0x40 MLOAD SWAP1 DUP1 DUP3 MSTORE DUP1 PUSH1 0x1F ADD PUSH1 0x1F NOT AND PUSH1 0x20 ADD DUP3 ADD PUSH1 0x40 MSTORE DUP1 ISZERO PUSH2 0x27EF JUMPI DUP2 PUSH1 0x20 ADD PUSH1 0x1 DUP3 MUL DUP1 CALLDATASIZE DUP4 CALLDATACOPY DUP1 DUP3 ADD SWAP2 POP POP SWAP1 POP JUMPDEST POP SWAP1 POP PUSH1 0x1 DUP3 ADD PUSH1 0x20 DUP3 ADD DUP6 DUP7 MLOAD DUP8 ADD JUMPDEST DUP1 DUP3 LT ISZERO PUSH2 0x285B JUMPI PUSH1 0x3 DUP3 ADD SWAP2 POP DUP2 MLOAD PUSH1 0x3F DUP2 PUSH1 0x12 SHR AND DUP6 ADD MLOAD DUP5 MSTORE8 PUSH1 0x1 DUP5 ADD SWAP4 POP PUSH1 0x3F DUP2 PUSH1 0xC SHR AND DUP6 ADD MLOAD DUP5 MSTORE8 PUSH1 0x1 DUP5 ADD SWAP4 POP PUSH1 0x3F DUP2 PUSH1 0x6 SHR AND DUP6 ADD MLOAD DUP5 MSTORE8 PUSH1 0x1 DUP5 ADD SWAP4 POP PUSH1 0x3F DUP2 AND DUP6 ADD MLOAD DUP5 MSTORE8 PUSH1 0x1 DUP5 ADD SWAP4 POP POP PUSH2 0x2800 JUMP JUMPDEST POP POP PUSH1 0x3 DUP7 MLOAD MOD PUSH1 0x1 DUP2 EQ PUSH2 0x2877 JUMPI PUSH1 0x2 DUP2 EQ PUSH2 0x288A JUMPI PUSH2 0x2892 JUMP JUMPDEST PUSH1 0x3D PUSH1 0x1 DUP4 SUB MSTORE8 PUSH1 0x3D PUSH1 0x2 DUP4 SUB MSTORE8 PUSH2 0x2892 JUMP JUMPDEST PUSH1 0x3D PUSH1 0x1 DUP4 SUB MSTORE8 JUMPDEST POP POP POP DUP1 SWAP3 POP POP POP JUMPDEST SWAP2 SWAP1 POP JUMP JUMPDEST PUSH1 0x0 PUSH32 0x1FFC9A700000000000000000000000000000000000000000000000000000000 PUSH28 0xFFFFFFFFFFFFFFFFFFFFFFFFFFFFFFFFFFFFFFFFFFFFFFFFFFFFFFFF NOT AND DUP3 PUSH28 0xFFFFFFFFFFFFFFFFFFFFFFFFFFFFFFFFFFFFFFFFFFFFFFFFFFFFFFFF NOT AND EQ SWAP1 POP SWAP2 SWAP1 POP JUMP JUMPDEST PUSH1 0x0 SWAP4 SWAP3 POP POP POP JUMP JUMPDEST PUSH1 0x0 CALLER SWAP1 POP SWAP1 JUMP JUMPDEST PUSH1 0x0 DUP1 SLOAD SWAP1 POP PUSH1 0x0 DUP3 SUB PUSH2 0x295B JUMPI PUSH1 0x40 MLOAD PUSH32 0xB562E8DD00000000000000000000000000000000000000000000000000000000 DUP2 MSTORE PUSH1 0x4 ADD PUSH1 0x40 MLOAD DUP1 SWAP2 SUB SWAP1 REVERT JUMPDEST PUSH2 0x2968 PUSH1 0x0 DUP5 DUP4 DUP6 PUSH2 0x21DD JUMP JUMPDEST PUSH1 0x1 PUSH1 0x40 PUSH1 0x1 SWAP1 SHL OR DUP3 MUL PUSH1 0x5 PUSH1 0x0 DUP6 PUSH20 0xFFFFFFFFFFFFFFFFFFFFFFFFFFFFFFFFFFFFFFFF AND PUSH20 0xFFFFFFFFFFFFFFFFFFFFFFFFFFFFFFFFFFFFFFFF AND DUP2 MSTORE PUSH1 0x20 ADD SWAP1 DUP2 MSTORE PUSH1 0x20 ADD PUSH1 0x0 KECCAK256 PUSH1 0x0 DUP3 DUP3 SLOAD ADD SWAP3 POP POP DUP2 SWAP1 SSTORE POP PUSH2 0x29DF DUP4 PUSH2 0x29D0 PUSH1 0x0 DUP7 PUSH1 0x0 PUSH2 0x21E3 JUMP JUMPDEST PUSH2 0x29D9 DUP6 PUSH2 0x2AD6 JUMP JUMPDEST OR PUSH2 0x220B JUMP JUMPDEST PUSH1 0x4 PUSH1 0x0 DUP4 DUP2 MSTORE PUSH1 0x20 ADD SWAP1 DUP2 MSTORE PUSH1 0x20 ADD PUSH1 0x0 KECCAK256 DUP2 SWAP1 SSTORE POP PUSH1 0x0 DUP1 DUP4 DUP4 ADD SWAP1 POP PUSH20 0xFFFFFFFFFFFFFFFFFFFFFFFFFFFFFFFFFFFFFFFF DUP6 AND SWAP2 POP DUP3 DUP3 PUSH1 0x0 PUSH32 0xDDF252AD1BE2C89B69C2B068FC378DAA952BA7F163C4A11628F55A4DF523B3EF PUSH1 0x0 DUP1 LOG4 PUSH1 0x1 DUP4 ADD JUMPDEST DUP2 DUP2 EQ PUSH2 0x2A80 JUMPI DUP1 DUP4 PUSH1 0x0 PUSH32 0xDDF252AD1BE2C89B69C2B068FC378DAA952BA7F163C4A11628F55A4DF523B3EF PUSH1 0x0 DUP1 LOG4 PUSH1 0x1 DUP2 ADD SWAP1 POP PUSH2 0x2A45 JUMP JUMPDEST POP PUSH1 0x0 DUP3 SUB PUSH2 0x2ABB JUMPI PUSH1 0x40 MLOAD PUSH32 0x2E07630000000000000000000000000000000000000000000000000000000000 DUP2 MSTORE PUSH1 0x4 ADD PUSH1 0x40 MLOAD DUP1 SWAP2 SUB SWAP1 REVERT JUMPDEST DUP1 PUSH1 0x0 DUP2 SWAP1 SSTORE POP POP POP PUSH2 0x2AD1 PUSH1 0x0 DUP5 DUP4 DUP6 PUSH2 0x2236 JUMP JUMPDEST POP POP POP JUMP JUMPDEST PUSH1 0x0 PUSH1 0x1 DUP3 EQ PUSH1 0xE1 SHL SWAP1 POP SWAP2 SWAP1 POP JUMP JUMPDEST PUSH1 0x0 PUSH1 0x40 MLOAD SWAP1 POP SWAP1 JUMP JUMPDEST PUSH1 0x0 DUP1 REVERT JUMPDEST PUSH1 0x0 DUP1 REVERT JUMPDEST PUSH1 0x0 PUSH32 0xFFFFFFFF00000000000000000000000000000000000000000000000000000000 DUP3 AND SWAP1 POP SWAP2 SWAP1 POP JUMP JUMPDEST PUSH2 0x2B2F DUP2 PUSH2 0x2AFA JUMP JUMPDEST DUP2 EQ PUSH2 0x2B3A JUMPI PUSH1 0x0 DUP1 REVERT JUMPDEST POP JUMP JUMPDEST PUSH1 0x0 DUP2 CALLDATALOAD SWAP1 POP PUSH2 0x2B4C DUP2 PUSH2 0x2B26 JUMP JUMPDEST SWAP3 SWAP2 POP POP JUMP JUMPDEST PUSH1 0x0 PUSH1 0x20 DUP3 DUP5 SUB SLT ISZERO PUSH2 0x2B68 JUMPI PUSH2 0x2B67 PUSH2 0x2AF0 JUMP JUMPDEST JUMPDEST PUSH1 0x0 PUSH2 0x2B76 DUP5 DUP3 DUP6 ADD PUSH2 0x2B3D JUMP JUMPDEST SWAP2 POP POP SWAP3 SWAP2 POP POP JUMP JUMPDEST PUSH1 0x0 DUP2 ISZERO ISZERO SWAP1 POP SWAP2 SWAP1 POP JUMP JUMPDEST PUSH2 0x2B94 DUP2 PUSH2 0x2B7F JUMP JUMPDEST DUP3 MSTORE POP POP JUMP JUMPDEST PUSH1 0x0 PUSH1 0x20 DUP3 ADD SWAP1 POP PUSH2 0x2BAF PUSH1 0x0 DUP4 ADD DUP5 PUSH2 0x2B8B JUMP JUMPDEST SWAP3 SWAP2 POP POP JUMP JUMPDEST PUSH1 0x0 PUSH8 0xFFFFFFFFFFFFFFFF DUP3 AND SWAP1 POP SWAP2 SWAP1 POP JUMP JUMPDEST PUSH2 0x2BD2 DUP2 PUSH2 0x2BB5 JUMP JUMPDEST DUP3 MSTORE POP POP JUMP JUMPDEST PUSH1 0x0 PUSH1 0x20 DUP3 ADD SWAP1 POP PUSH2 0x2BED PUSH1 0x0 DUP4 ADD DUP5 PUSH2 0x2BC9 JUMP JUMPDEST SWAP3 SWAP2 POP POP JUMP JUMPDEST PUSH1 0x0 DUP2 MLOAD SWAP1 POP SWAP2 SWAP1 POP JUMP JUMPDEST PUSH1 0x0 DUP3 DUP3 MSTORE PUSH1 0x20 DUP3 ADD SWAP1 POP SWAP3 SWAP2 POP POP JUMP JUMPDEST PUSH1 0x0 JUMPDEST DUP4 DUP2 LT ISZERO PUSH2 0x2C2D JUMPI DUP1 DUP3 ADD MLOAD DUP2 DUP5 ADD MSTORE PUSH1 0x20 DUP2 ADD SWAP1 POP PUSH2 0x2C12 JUMP JUMPDEST PUSH1 0x0 DUP5 DUP5 ADD MSTORE POP POP POP POP JUMP JUMPDEST PUSH1 0x0 PUSH1 0x1F NOT PUSH1 0x1F DUP4 ADD AND SWAP1 POP SWAP2 SWAP1 POP JUMP JUMPDEST PUSH1 0x0 PUSH2 0x2C55 DUP3 PUSH2 0x2BF3 JUMP JUMPDEST PUSH2 0x2C5F DUP2 DUP6 PUSH2 0x2BFE JUMP JUMPDEST SWAP4 POP PUSH2 0x2C6F DUP2 DUP6 PUSH1 0x20 DUP7 ADD PUSH2 0x2C0F JUMP JUMPDEST PUSH2 0x2C78 DUP2 PUSH2 0x2C39 JUMP JUMPDEST DUP5 ADD SWAP2 POP POP SWAP3 SWAP2 POP POP JUMP JUMPDEST PUSH1 0x0 PUSH1 0x20 DUP3 ADD SWAP1 POP DUP2 DUP2 SUB PUSH1 0x0 DUP4 ADD MSTORE PUSH2 0x2C9D DUP2 DUP5 PUSH2 0x2C4A JUMP JUMPDEST SWAP1 POP SWAP3 SWAP2 POP POP JUMP JUMPDEST PUSH1 0x0 DUP2 SWAP1 POP SWAP2 SWAP1 POP JUMP JUMPDEST PUSH2 0x2CB8 DUP2 PUSH2 0x2CA5 JUMP JUMPDEST DUP2 EQ PUSH2 0x2CC3 JUMPI PUSH1 0x0 DUP1 REVERT JUMPDEST POP JUMP JUMPDEST PUSH1 0x0 DUP2 CALLDATALOAD SWAP1 POP PUSH2 0x2CD5 DUP2 PUSH2 0x2CAF JUMP JUMPDEST SWAP3 SWAP2 POP POP JUMP JUMPDEST PUSH1 0x0 PUSH1 0x20 DUP3 DUP5 SUB SLT ISZERO PUSH2 0x2CF1 JUMPI PUSH2 0x2CF0 PUSH2 0x2AF0 JUMP JUMPDEST JUMPDEST PUSH1 0x0 PUSH2 0x2CFF DUP5 DUP3 DUP6 ADD PUSH2 0x2CC6 JUMP JUMPDEST SWAP2 POP POP SWAP3 SWAP2 POP POP JUMP JUMPDEST PUSH1 0x0 PUSH20 0xFFFFFFFFFFFFFFFFFFFFFFFFFFFFFFFFFFFFFFFF DUP3 AND SWAP1 POP SWAP2 SWAP1 POP JUMP JUMPDEST PUSH1 0x0 PUSH2 0x2D33 DUP3 PUSH2 0x2D08 JUMP JUMPDEST SWAP1 POP SWAP2 SWAP1 POP JUMP JUMPDEST PUSH2 0x2D43 DUP2 PUSH2 0x2D28 JUMP JUMPDEST DUP3 MSTORE POP POP JUMP JUMPDEST PUSH1 0x0 PUSH1 0x20 DUP3 ADD SWAP1 POP PUSH2 0x2D5E PUSH1 0x0 DUP4 ADD DUP5 PUSH2 0x2D3A JUMP JUMPDEST SWAP3 SWAP2 POP POP JUMP JUMPDEST PUSH2 0x2D6D DUP2 PUSH2 0x2D28 JUMP JUMPDEST DUP2 EQ PUSH2 0x2D78 JUMPI PUSH1 0x0 DUP1 REVERT JUMPDEST POP JUMP JUMPDEST PUSH1 0x0 DUP2 CALLDATALOAD SWAP1 POP PUSH2 0x2D8A DUP2 PUSH2 0x2D64 JUMP JUMPDEST SWAP3 SWAP2 POP POP JUMP JUMPDEST PUSH1 0x0 DUP1 PUSH1 0x40 DUP4 DUP6 SUB SLT ISZERO PUSH2 0x2DA7 JUMPI PUSH2 0x2DA6 PUSH2 0x2AF0 JUMP JUMPDEST JUMPDEST PUSH1 0x0 PUSH2 0x2DB5 DUP6 DUP3 DUP7 ADD PUSH2 0x2D7B JUMP JUMPDEST SWAP3 POP POP PUSH1 0x20 PUSH2 0x2DC6 DUP6 DUP3 DUP7 ADD PUSH2 0x2CC6 JUMP JUMPDEST SWAP2 POP POP SWAP3 POP SWAP3 SWAP1 POP JUMP JUMPDEST PUSH2 0x2DD9 DUP2 PUSH2 0x2CA5 JUMP JUMPDEST DUP3 MSTORE POP POP JUMP JUMPDEST PUSH1 0x0 PUSH1 0x20 DUP3 ADD SWAP1 POP PUSH2 0x2DF4 PUSH1 0x0 DUP4 ADD DUP5 PUSH2 0x2DD0 JUMP JUMPDEST SWAP3 SWAP2 POP POP JUMP JUMPDEST PUSH1 0x0 DUP1 PUSH1 0x0 PUSH1 0x60 DUP5 DUP7 SUB SLT ISZERO PUSH2 0x2E13 JUMPI PUSH2 0x2E12 PUSH2 0x2AF0 JUMP JUMPDEST JUMPDEST PUSH1 0x0 PUSH2 0x2E21 DUP7 DUP3 DUP8 ADD PUSH2 0x2D7B JUMP JUMPDEST SWAP4 POP POP PUSH1 0x20 PUSH2 0x2E32 DUP7 DUP3 DUP8 ADD PUSH2 0x2D7B JUMP JUMPDEST SWAP3 POP POP PUSH1 0x40 PUSH2 0x2E43 DUP7 DUP3 DUP8 ADD PUSH2 0x2CC6 JUMP JUMPDEST SWAP2 POP POP SWAP3 POP SWAP3 POP SWAP3 JUMP JUMPDEST PUSH1 0x0 DUP1 PUSH1 0x40 DUP4 DUP6 SUB SLT ISZERO PUSH2 0x2E64 JUMPI PUSH2 0x2E63 PUSH2 0x2AF0 JUMP JUMPDEST JUMPDEST PUSH1 0x0 PUSH2 0x2E72 DUP6 DUP3 DUP7 ADD PUSH2 0x2CC6 JUMP JUMPDEST SWAP3 POP POP PUSH1 0x20 PUSH2 0x2E83 DUP6 DUP3 DUP7 ADD PUSH2 0x2CC6 JUMP JUMPDEST SWAP2 POP POP SWAP3 POP SWAP3 SWAP1 POP JUMP JUMPDEST PUSH1 0x0 PUSH1 0x40 DUP3 ADD SWAP1 POP PUSH2 0x2EA2 PUSH1 0x0 DUP4 ADD DUP6 PUSH2 0x2D3A JUMP JUMPDEST PUSH2 0x2EAF PUSH1 0x20 DUP4 ADD DUP5 PUSH2 0x2DD0 JUMP JUMPDEST SWAP4 SWAP3 POP POP POP JUMP JUMPDEST PUSH1 0x0 DUP1 REVERT JUMPDEST PUSH1 0x0 DUP1 REVERT JUMPDEST PUSH32 0x4E487B7100000000000000000000000000000000000000000000000000000000 PUSH1 0x0 MSTORE PUSH1 0x41 PUSH1 0x4 MSTORE PUSH1 0x24 PUSH1 0x0 REVERT JUMPDEST PUSH2 0x2EF8 DUP3 PUSH2 0x2C39 JUMP JUMPDEST DUP2 ADD DUP2 DUP2 LT PUSH8 0xFFFFFFFFFFFFFFFF DUP3 GT OR ISZERO PUSH2 0x2F17 JUMPI PUSH2 0x2F16 PUSH2 0x2EC0 JUMP JUMPDEST JUMPDEST DUP1 PUSH1 0x40 MSTORE POP POP POP JUMP JUMPDEST PUSH1 0x0 PUSH2 0x2F2A PUSH2 0x2AE6 JUMP JUMPDEST SWAP1 POP PUSH2 0x2F36 DUP3 DUP3 PUSH2 0x2EEF JUMP JUMPDEST SWAP2 SWAP1 POP JUMP JUMPDEST PUSH1 0x0 PUSH8 0xFFFFFFFFFFFFFFFF DUP3 GT ISZERO PUSH2 0x2F56 JUMPI PUSH2 0x2F55 PUSH2 0x2EC0 JUMP JUMPDEST JUMPDEST PUSH2 0x2F5F DUP3 PUSH2 0x2C39 JUMP JUMPDEST SWAP1 POP PUSH1 0x20 DUP2 ADD SWAP1 POP SWAP2 SWAP1 POP JUMP JUMPDEST DUP3 DUP2 DUP4 CALLDATACOPY PUSH1 0x0 DUP4 DUP4 ADD MSTORE POP POP POP JUMP JUMPDEST PUSH1 0x0 PUSH2 0x2F8E PUSH2 0x2F89 DUP5 PUSH2 0x2F3B JUMP JUMPDEST PUSH2 0x2F20 JUMP JUMPDEST SWAP1 POP DUP3 DUP2 MSTORE PUSH1 0x20 DUP2 ADD DUP5 DUP5 DUP5 ADD GT ISZERO PUSH2 0x2FAA JUMPI PUSH2 0x2FA9 PUSH2 0x2EBB JUMP JUMPDEST JUMPDEST PUSH2 0x2FB5 DUP5 DUP3 DUP6 PUSH2 0x2F6C JUMP JUMPDEST POP SWAP4 SWAP3 POP POP POP JUMP JUMPDEST PUSH1 0x0 DUP3 PUSH1 0x1F DUP4 ADD SLT PUSH2 0x2FD2 JUMPI PUSH2 0x2FD1 PUSH2 0x2EB6 JUMP JUMPDEST JUMPDEST DUP2 CALLDATALOAD PUSH2 0x2FE2 DUP5 DUP3 PUSH1 0x20 DUP7 ADD PUSH2 0x2F7B JUMP JUMPDEST SWAP2 POP POP SWAP3 SWAP2 POP POP JUMP JUMPDEST PUSH1 0x0 PUSH1 0x20 DUP3 DUP5 SUB SLT ISZERO PUSH2 0x3001 JUMPI PUSH2 0x3000 PUSH2 0x2AF0 JUMP JUMPDEST JUMPDEST PUSH1 0x0 DUP3 ADD CALLDATALOAD PUSH8 0xFFFFFFFFFFFFFFFF DUP2 GT ISZERO PUSH2 0x301F JUMPI PUSH2 0x301E PUSH2 0x2AF5 JUMP JUMPDEST JUMPDEST PUSH2 0x302B DUP5 DUP3 DUP6 ADD PUSH2 0x2FBD JUMP JUMPDEST SWAP2 POP POP SWAP3 SWAP2 POP POP JUMP JUMPDEST PUSH1 0x0 PUSH1 0x20 DUP3 DUP5 SUB SLT ISZERO PUSH2 0x304A JUMPI PUSH2 0x3049 PUSH2 0x2AF0 JUMP JUMPDEST JUMPDEST PUSH1 0x0 PUSH2 0x3058 DUP5 DUP3 DUP6 ADD PUSH2 0x2D7B JUMP JUMPDEST SWAP2 POP POP SWAP3 SWAP2 POP POP JUMP JUMPDEST PUSH1 0x0 PUSH8 0xFFFFFFFFFFFFFFFF DUP3 GT ISZERO PUSH2 0x307C JUMPI PUSH2 0x307B PUSH2 0x2EC0 JUMP JUMPDEST JUMPDEST PUSH1 0x20 DUP3 MUL SWAP1 POP SWAP2 SWAP1 POP JUMP JUMPDEST PUSH1 0x0 DUP1 REVERT JUMPDEST PUSH1 0x0 PUSH1 0xFF DUP3 AND SWAP1 POP SWAP2 SWAP1 POP JUMP JUMPDEST PUSH2 0x30A2 DUP2 PUSH2 0x308C JUMP JUMPDEST DUP2 EQ PUSH2 0x30AD JUMPI PUSH1 0x0 DUP1 REVERT JUMPDEST POP JUMP JUMPDEST PUSH1 0x0 DUP2 CALLDATALOAD SWAP1 POP PUSH2 0x30BF DUP2 PUSH2 0x3099 JUMP JUMPDEST SWAP3 SWAP2 POP POP JUMP JUMPDEST PUSH1 0x0 PUSH2 0x30D8 PUSH2 0x30D3 DUP5 PUSH2 0x3061 JUMP JUMPDEST PUSH2 0x2F20 JUMP JUMPDEST SWAP1 POP DUP1 PUSH1 0x20 DUP5 MUL DUP4 ADD DUP6 DUP2 GT ISZERO PUSH2 0x30F2 JUMPI PUSH2 0x30F1 PUSH2 0x3087 JUMP JUMPDEST JUMPDEST DUP4 JUMPDEST DUP2 DUP2 LT ISZERO PUSH2 0x311B JUMPI DUP1 PUSH2 0x3107 DUP9 DUP3 PUSH2 0x30B0 JUMP JUMPDEST DUP5 MSTORE PUSH1 0x20 DUP5 ADD SWAP4 POP POP PUSH1 0x20 DUP2 ADD SWAP1 POP PUSH2 0x30F4 JUMP JUMPDEST POP POP POP SWAP4 SWAP3 POP POP POP JUMP JUMPDEST PUSH1 0x0 DUP3 PUSH1 0x1F DUP4 ADD SLT PUSH2 0x313A JUMPI PUSH2 0x3139 PUSH2 0x2EB6 JUMP JUMPDEST JUMPDEST PUSH1 0x3 PUSH2 0x3147 DUP5 DUP3 DUP6 PUSH2 0x30C5 JUMP JUMPDEST SWAP2 POP POP SWAP3 SWAP2 POP POP JUMP JUMPDEST PUSH1 0x0 DUP1 PUSH1 0x0 PUSH1 0xA0 DUP5 DUP7 SUB SLT ISZERO PUSH2 0x3169 JUMPI PUSH2 0x3168 PUSH2 0x2AF0 JUMP JUMPDEST JUMPDEST PUSH1 0x0 PUSH2 0x3177 DUP7 DUP3 DUP8 ADD PUSH2 0x2CC6 JUMP JUMPDEST SWAP4 POP POP PUSH1 0x20 PUSH2 0x3188 DUP7 DUP3 DUP8 ADD PUSH2 0x3125 JUMP JUMPDEST SWAP3 POP POP PUSH1 0x80 PUSH2 0x3199 DUP7 DUP3 DUP8 ADD PUSH2 0x2CC6 JUMP JUMPDEST SWAP2 POP POP SWAP3 POP SWAP3 POP SWAP3 JUMP JUMPDEST PUSH1 0x0 PUSH12 0xFFFFFFFFFFFFFFFFFFFFFFFF DUP3 AND SWAP1 POP SWAP2 SWAP1 POP JUMP JUMPDEST PUSH2 0x31C4 DUP2 PUSH2 0x31A3 JUMP JUMPDEST DUP2 EQ PUSH2 0x31CF JUMPI PUSH1 0x0 DUP1 REVERT JUMPDEST POP JUMP JUMPDEST PUSH1 0x0 DUP2 CALLDATALOAD SWAP1 POP PUSH2 0x31E1 DUP2 PUSH2 0x31BB JUMP JUMPDEST SWAP3 SWAP2 POP POP JUMP JUMPDEST PUSH1 0x0 DUP1 PUSH1 0x40 DUP4 DUP6 SUB SLT ISZERO PUSH2 0x31FE JUMPI PUSH2 0x31FD PUSH2 0x2AF0 JUMP JUMPDEST JUMPDEST PUSH1 0x0 PUSH2 0x320C DUP6 DUP3 DUP7 ADD PUSH2 0x2D7B JUMP JUMPDEST SWAP3 POP POP PUSH1 0x20 PUSH2 0x321D DUP6 DUP3 DUP7 ADD PUSH2 0x31D2 JUMP JUMPDEST SWAP2 POP POP SWAP3 POP SWAP3 SWAP1 POP JUMP JUMPDEST PUSH2 0x3230 DUP2 PUSH2 0x2B7F JUMP JUMPDEST DUP2 EQ PUSH2 0x323B JUMPI PUSH1 0x0 DUP1 REVERT JUMPDEST POP JUMP JUMPDEST PUSH1 0x0 DUP2 CALLDATALOAD SWAP1 POP PUSH2 0x324D DUP2 PUSH2 0x3227 JUMP JUMPDEST SWAP3 SWAP2 POP POP JUMP JUMPDEST PUSH1 0x0 DUP1 PUSH1 0x40 DUP4 DUP6 SUB SLT ISZERO PUSH2 0x326A JUMPI PUSH2 0x3269 PUSH2 0x2AF0 JUMP JUMPDEST JUMPDEST PUSH1 0x0 PUSH2 0x3278 DUP6 DUP3 DUP7 ADD PUSH2 0x2D7B JUMP JUMPDEST SWAP3 POP POP PUSH1 0x20 PUSH2 0x3289 DUP6 DUP3 DUP7 ADD PUSH2 0x323E JUMP JUMPDEST SWAP2 POP POP SWAP3 POP SWAP3 SWAP1 POP JUMP JUMPDEST PUSH1 0x0 PUSH8 0xFFFFFFFFFFFFFFFF DUP3 GT ISZERO PUSH2 0x32AE JUMPI PUSH2 0x32AD PUSH2 0x2EC0 JUMP JUMPDEST JUMPDEST PUSH2 0x32B7 DUP3 PUSH2 0x2C39 JUMP JUMPDEST SWAP1 POP PUSH1 0x20 DUP2 ADD SWAP1 POP SWAP2 SWAP1 POP JUMP JUMPDEST PUSH1 0x0 PUSH2 0x32D7 PUSH2 0x32D2 DUP5 PUSH2 0x3293 JUMP JUMPDEST PUSH2 0x2F20 JUMP JUMPDEST SWAP1 POP DUP3 DUP2 MSTORE PUSH1 0x20 DUP2 ADD DUP5 DUP5 DUP5 ADD GT ISZERO PUSH2 0x32F3 JUMPI PUSH2 0x32F2 PUSH2 0x2EBB JUMP JUMPDEST JUMPDEST PUSH2 0x32FE DUP5 DUP3 DUP6 PUSH2 0x2F6C JUMP JUMPDEST POP SWAP4 SWAP3 POP POP POP JUMP JUMPDEST PUSH1 0x0 DUP3 PUSH1 0x1F DUP4 ADD SLT PUSH2 0x331B JUMPI PUSH2 0x331A PUSH2 0x2EB6 JUMP JUMPDEST JUMPDEST DUP2 CALLDATALOAD PUSH2 0x332B DUP5 DUP3 PUSH1 0x20 DUP7 ADD PUSH2 0x32C4 JUMP JUMPDEST SWAP2 POP POP SWAP3 SWAP2 POP POP JUMP JUMPDEST PUSH1 0x0 DUP1 PUSH1 0x0 DUP1 PUSH1 0x80 DUP6 DUP8 SUB SLT ISZERO PUSH2 0x334E JUMPI PUSH2 0x334D PUSH2 0x2AF0 JUMP JUMPDEST JUMPDEST PUSH1 0x0 PUSH2 0x335C DUP8 DUP3 DUP9 ADD PUSH2 0x2D7B JUMP JUMPDEST SWAP5 POP POP PUSH1 0x20 PUSH2 0x336D DUP8 DUP3 DUP9 ADD PUSH2 0x2D7B JUMP JUMPDEST SWAP4 POP POP PUSH1 0x40 PUSH2 0x337E DUP8 DUP3 DUP9 ADD PUSH2 0x2CC6 JUMP JUMPDEST SWAP3 POP POP PUSH1 0x60 DUP6 ADD CALLDATALOAD PUSH8 0xFFFFFFFFFFFFFFFF DUP2 GT ISZERO PUSH2 0x339F JUMPI PUSH2 0x339E PUSH2 0x2AF5 JUMP JUMPDEST JUMPDEST PUSH2 0x33AB DUP8 DUP3 DUP9 ADD PUSH2 0x3306 JUMP JUMPDEST SWAP2 POP POP SWAP3 SWAP6 SWAP2 SWAP5 POP SWAP3 POP JUMP JUMPDEST PUSH1 0x0 DUP2 MLOAD SWAP1 POP SWAP2 SWAP1 POP JUMP JUMPDEST PUSH1 0x0 DUP3 DUP3 MSTORE PUSH1 0x20 DUP3 ADD SWAP1 POP SWAP3 SWAP2 POP POP JUMP JUMPDEST PUSH1 0x0 PUSH2 0x33DE DUP3 PUSH2 0x33B7 JUMP JUMPDEST PUSH2 0x33E8 DUP2 DUP6 PUSH2 0x33C2 JUMP JUMPDEST SWAP4 POP PUSH2 0x33F8 DUP2 DUP6 PUSH1 0x20 DUP7 ADD PUSH2 0x2C0F JUMP JUMPDEST PUSH2 0x3401 DUP2 PUSH2 0x2C39 JUMP JUMPDEST DUP5 ADD SWAP2 POP POP SWAP3 SWAP2 POP POP JUMP JUMPDEST PUSH1 0x0 PUSH1 0x20 DUP3 ADD SWAP1 POP DUP2 DUP2 SUB PUSH1 0x0 DUP4 ADD MSTORE PUSH2 0x3426 DUP2 DUP5 PUSH2 0x33D3 JUMP JUMPDEST SWAP1 POP SWAP3 SWAP2 POP POP JUMP JUMPDEST PUSH1 0x0 DUP1 PUSH1 0x40 DUP4 DUP6 SUB SLT ISZERO PUSH2 0x3445 JUMPI PUSH2 0x3444 PUSH2 0x2AF0 JUMP JUMPDEST JUMPDEST PUSH1 0x0 PUSH2 0x3453 DUP6 DUP3 DUP7 ADD PUSH2 0x2D7B JUMP JUMPDEST SWAP3 POP POP PUSH1 0x20 PUSH2 0x3464 DUP6 DUP3 DUP7 ADD PUSH2 0x2D7B JUMP JUMPDEST SWAP2 POP POP SWAP3 POP SWAP3 SWAP1 POP JUMP JUMPDEST PUSH32 0x4E487B7100000000000000000000000000000000000000000000000000000000 PUSH1 0x0 MSTORE PUSH1 0x22 PUSH1 0x4 MSTORE PUSH1 0x24 PUSH1 0x0 REVERT JUMPDEST PUSH1 0x0 PUSH1 0x2 DUP3 DIV SWAP1 POP PUSH1 0x1 DUP3 AND DUP1 PUSH2 0x34B5 JUMPI PUSH1 0x7F DUP3 AND SWAP2 POP JUMPDEST PUSH1 0x20 DUP3 LT DUP2 SUB PUSH2 0x34C8 JUMPI PUSH2 0x34C7 PUSH2 0x346E JUMP JUMPDEST JUMPDEST POP SWAP2 SWAP1 POP JUMP JUMPDEST PUSH32 0x4E487B7100000000000000000000000000000000000000000000000000000000 PUSH1 0x0 MSTORE PUSH1 0x11 PUSH1 0x4 MSTORE PUSH1 0x24 PUSH1 0x0 REVERT JUMPDEST PUSH1 0x0 PUSH2 0x3508 DUP3 PUSH2 0x2CA5 JUMP JUMPDEST SWAP2 POP PUSH32 0xFFFFFFFFFFFFFFFFFFFFFFFFFFFFFFFFFFFFFFFFFFFFFFFFFFFFFFFFFFFFFFFF DUP3 SUB PUSH2 0x353A JUMPI PUSH2 0x3539 PUSH2 0x34CE JUMP JUMPDEST JUMPDEST PUSH1 0x1 DUP3 ADD SWAP1 POP SWAP2 SWAP1 POP JUMP JUMPDEST PUSH1 0x0 PUSH2 0x3550 DUP3 PUSH2 0x2CA5 JUMP JUMPDEST SWAP2 POP PUSH2 0x355B DUP4 PUSH2 0x2CA5 JUMP JUMPDEST SWAP3 POP DUP3 DUP3 MUL PUSH2 0x3569 DUP2 PUSH2 0x2CA5 JUMP JUMPDEST SWAP2 POP DUP3 DUP3 DIV DUP5 EQ DUP4 ISZERO OR PUSH2 0x3580 JUMPI PUSH2 0x357F PUSH2 0x34CE JUMP JUMPDEST JUMPDEST POP SWAP3 SWAP2 POP POP JUMP JUMPDEST PUSH32 0x4E487B7100000000000000000000000000000000000000000000000000000000 PUSH1 0x0 MSTORE PUSH1 0x12 PUSH1 0x4 MSTORE PUSH1 0x24 PUSH1 0x0 REVERT JUMPDEST PUSH1 0x0 PUSH2 0x35C1 DUP3 PUSH2 0x2CA5 JUMP JUMPDEST SWAP2 POP PUSH2 0x35CC DUP4 PUSH2 0x2CA5 JUMP JUMPDEST SWAP3 POP DUP3 PUSH2 0x35DC JUMPI PUSH2 0x35DB PUSH2 0x3587 JUMP JUMPDEST JUMPDEST DUP3 DUP3 DIV SWAP1 POP SWAP3 SWAP2 POP POP JUMP JUMPDEST PUSH1 0x0 PUSH2 0x35F2 DUP3 PUSH2 0x2CA5 JUMP JUMPDEST SWAP2 POP PUSH2 0x35FD DUP4 PUSH2 0x2CA5 JUMP JUMPDEST SWAP3 POP DUP3 DUP3 ADD SWAP1 POP DUP1 DUP3 GT ISZERO PUSH2 0x3615 JUMPI PUSH2 0x3614 PUSH2 0x34CE JUMP JUMPDEST JUMPDEST SWAP3 SWAP2 POP POP JUMP JUMPDEST PUSH1 0x0 DUP2 SWAP1 POP SWAP3 SWAP2 POP POP JUMP JUMPDEST PUSH32 0x3C7376672077696474683D2238343022206865696768743D2238343022207669 PUSH1 0x0 DUP3 ADD MSTORE PUSH32 0x6577426F783D22302030203134203134222066696C6C3D226E6F6E652220786D PUSH1 0x20 DUP3 ADD MSTORE PUSH32 0x6C6E733D22687474703A2F2F7777772E77332E6F72672F323030302F73766722 PUSH1 0x40 DUP3 ADD MSTORE PUSH32 0x3E3C726563742077696474683D22313422206865696768743D22313422206669 PUSH1 0x60 DUP3 ADD MSTORE PUSH32 0x6C6C3D2223304330433043222F3E3C6720636C6173733D2274696C6573223E3C PUSH1 0x80 DUP3 ADD MSTORE PUSH32 0x726563742069643D2270312220783D22332220793D2233222066696C6C3D2223 PUSH1 0xA0 DUP3 ADD MSTORE PUSH32 0x666666222F3E3C726563742069643D2270322220783D22342220793D22332220 PUSH1 0xC0 DUP3 ADD MSTORE PUSH32 0x66696C6C3D2223666666222F3E3C726563742069643D2270332220783D223522 PUSH1 0xE0 DUP3 ADD MSTORE PUSH32 0x20793D2233222066696C6C3D2223666666222F3E3C726563742069643D227034 PUSH2 0x100 DUP3 ADD MSTORE PUSH32 0x2220783D22362220793D2233222066696C6C3D2223666666222F3E3C72656374 PUSH2 0x120 DUP3 ADD MSTORE PUSH32 0x2069643D2270352220783D22372220793D2233222066696C6C3D222366666622 PUSH2 0x140 DUP3 ADD MSTORE PUSH32 0x2F3E3C726563742069643D2270362220783D22382220793D2233222066696C6C PUSH2 0x160 DUP3 ADD MSTORE PUSH32 0x3D2223666666222F3E3C726563742069643D2270372220783D22392220793D22 PUSH2 0x180 DUP3 ADD MSTORE PUSH32 0x33222066696C6C3D2223666666222F3E3C726563742069643D2270382220783D PUSH2 0x1A0 DUP3 ADD MSTORE PUSH32 0x2231302220793D2233222066696C6C3D2223666666222F3E3C72656374206964 PUSH2 0x1C0 DUP3 ADD MSTORE PUSH32 0x3D2270392220783D22332220793D2234222066696C6C3D2223666666222F3E3C PUSH2 0x1E0 DUP3 ADD MSTORE PUSH32 0x726563742069643D227031302220783D22342220793D2234222066696C6C3D22 PUSH2 0x200 DUP3 ADD MSTORE PUSH32 0x23666666222F3E3C726563742069643D227031312220783D22352220793D2234 PUSH2 0x220 DUP3 ADD MSTORE PUSH32 0x222066696C6C3D2223666666222F3E3C726563742069643D227031322220783D PUSH2 0x240 DUP3 ADD MSTORE PUSH32 0x22362220793D2234222066696C6C3D2223666666222F3E3C726563742069643D PUSH2 0x260 DUP3 ADD MSTORE PUSH32 0x227031332220783D22372220793D2234222066696C6C3D2223666666222F3E3C PUSH2 0x280 DUP3 ADD MSTORE PUSH32 0x726563742069643D227031342220783D22382220793D2234222066696C6C3D22 PUSH2 0x2A0 DUP3 ADD MSTORE PUSH32 0x23666666222F3E3C726563742069643D227031352220783D22392220793D2234 PUSH2 0x2C0 DUP3 ADD MSTORE PUSH32 0x222066696C6C3D2223666666222F3E3C726563742069643D227031362220783D PUSH2 0x2E0 DUP3 ADD MSTORE PUSH32 0x2231302220793D2234222066696C6C3D2223666666222F3E3C72656374206964 PUSH2 0x300 DUP3 ADD MSTORE PUSH32 0x3D227031372220783D22332220793D2235222066696C6C3D2223666666222F3E PUSH2 0x320 DUP3 ADD MSTORE PUSH32 0x3C726563742069643D227031382220783D22342220793D2235222066696C6C3D PUSH2 0x340 DUP3 ADD MSTORE PUSH32 0x2223666666222F3E3C726563742069643D227031392220783D22352220793D22 PUSH2 0x360 DUP3 ADD MSTORE PUSH32 0x35222066696C6C3D2223666666222F3E3C726563742069643D22703230222078 PUSH2 0x380 DUP3 ADD MSTORE PUSH32 0x3D22362220793D2235222066696C6C3D2223666666222F3E3C72656374206964 PUSH2 0x3A0 DUP3 ADD MSTORE PUSH32 0x3D227032312220783D22372220793D2235222066696C6C3D2223666666222F3E PUSH2 0x3C0 DUP3 ADD MSTORE PUSH32 0x3C726563742069643D227032322220783D22382220793D2235222066696C6C3D PUSH2 0x3E0 DUP3 ADD MSTORE PUSH32 0x2223666666222F3E3C726563742069643D227032332220783D22392220793D22 PUSH2 0x400 DUP3 ADD MSTORE PUSH32 0x35222066696C6C3D2223666666222F3E3C726563742069643D22703234222078 PUSH2 0x420 DUP3 ADD MSTORE PUSH32 0x3D2231302220793D2235222066696C6C3D2223666666222F3E3C726563742069 PUSH2 0x440 DUP3 ADD MSTORE PUSH32 0x643D227032352220783D22332220793D2236222066696C6C3D2223666666222F PUSH2 0x460 DUP3 ADD MSTORE PUSH32 0x3E3C726563742069643D227032362220783D22342220793D2236222066696C6C PUSH2 0x480 DUP3 ADD MSTORE PUSH32 0x3D2223666666222F3E3C726563742069643D227032372220783D22352220793D PUSH2 0x4A0 DUP3 ADD MSTORE PUSH32 0x2236222066696C6C3D2223666666222F3E3C726563742069643D227032382220 PUSH2 0x4C0 DUP3 ADD MSTORE PUSH32 0x783D22362220793D2236222066696C6C3D2223666666222F3E3C726563742069 PUSH2 0x4E0 DUP3 ADD MSTORE PUSH32 0x643D227032392220783D22372220793D2236222066696C6C3D2223666666222F PUSH2 0x500 DUP3 ADD MSTORE PUSH32 0x3E3C726563742069643D227033302220783D22382220793D2236222066696C6C PUSH2 0x520 DUP3 ADD MSTORE PUSH32 0x3D2223666666222F3E3C726563742069643D227033312220783D22392220793D PUSH2 0x540 DUP3 ADD MSTORE PUSH32 0x2236222066696C6C3D2223666666222F3E3C726563742069643D227033322220 PUSH2 0x560 DUP3 ADD MSTORE PUSH32 0x783D2231302220793D2236222066696C6C3D2223666666222F3E3C7265637420 PUSH2 0x580 DUP3 ADD MSTORE PUSH32 0x69643D227033332220783D22332220793D2237222066696C6C3D222366666622 PUSH2 0x5A0 DUP3 ADD MSTORE PUSH32 0x2F3E3C726563742069643D227033342220783D22342220793D2237222066696C PUSH2 0x5C0 DUP3 ADD MSTORE PUSH32 0x6C3D2223666666222F3E3C726563742069643D227033352220783D2235222079 PUSH2 0x5E0 DUP3 ADD MSTORE PUSH32 0x3D2237222066696C6C3D2223666666222F3E3C726563742069643D2270333622 PUSH2 0x600 DUP3 ADD MSTORE PUSH32 0x20783D22362220793D2237222066696C6C3D2223666666222F3E3C7265637420 PUSH2 0x620 DUP3 ADD MSTORE PUSH32 0x69643D227033372220783D22372220793D2237222066696C6C3D222366666622 PUSH2 0x640 DUP3 ADD MSTORE PUSH32 0x2F3E3C726563742069643D227033382220783D22382220793D2237222066696C PUSH2 0x660 DUP3 ADD MSTORE PUSH32 0x6C3D2223666666222F3E3C726563742069643D227033392220783D2239222079 PUSH2 0x680 DUP3 ADD MSTORE PUSH32 0x3D2237222066696C6C3D2223666666222F3E3C726563742069643D2270343022 PUSH2 0x6A0 DUP3 ADD MSTORE PUSH32 0x20783D2231302220793D2237222066696C6C3D2223666666222F3E3C72656374 PUSH2 0x6C0 DUP3 ADD MSTORE PUSH32 0x2069643D227034312220783D22332220793D2238222066696C6C3D2223666666 PUSH2 0x6E0 DUP3 ADD MSTORE PUSH32 0x222F3E3C726563742069643D227034322220783D22342220793D223822206669 PUSH2 0x700 DUP3 ADD MSTORE PUSH32 0x6C6C3D2223666666222F3E3C726563742069643D227034332220783D22352220 PUSH2 0x720 DUP3 ADD MSTORE PUSH32 0x793D2238222066696C6C3D2223666666222F3E3C726563742069643D22703434 PUSH2 0x740 DUP3 ADD MSTORE PUSH32 0x2220783D22362220793D2238222066696C6C3D2223666666222F3E3C72656374 PUSH2 0x760 DUP3 ADD MSTORE PUSH32 0x2069643D227034352220783D22372220793D2238222066696C6C3D2223666666 PUSH2 0x780 DUP3 ADD MSTORE PUSH32 0x222F3E3C726563742069643D227034362220783D22382220793D223822206669 PUSH2 0x7A0 DUP3 ADD MSTORE PUSH32 0x6C6C3D2223666666222F3E3C726563742069643D227034372220783D22392220 PUSH2 0x7C0 DUP3 ADD MSTORE PUSH32 0x793D2238222066696C6C3D2223666666222F3E3C726563742069643D22703438 PUSH2 0x7E0 DUP3 ADD MSTORE PUSH32 0x2220783D2231302220793D2238222066696C6C3D2223666666222F3E3C726563 PUSH2 0x800 DUP3 ADD MSTORE PUSH32 0x742069643D227034392220783D22332220793D2239222066696C6C3D22236666 PUSH2 0x820 DUP3 ADD MSTORE PUSH32 0x66222F3E3C726563742069643D227035302220783D22342220793D2239222066 PUSH2 0x840 DUP3 ADD MSTORE PUSH32 0x696C6C3D2223666666222F3E3C726563742069643D227035312220783D223522 PUSH2 0x860 DUP3 ADD MSTORE PUSH32 0x20793D2239222066696C6C3D2223666666222F3E3C726563742069643D227035 PUSH2 0x880 DUP3 ADD MSTORE PUSH32 0x322220783D22362220793D2239222066696C6C3D2223666666222F3E3C726563 PUSH2 0x8A0 DUP3 ADD MSTORE PUSH32 0x742069643D227035332220783D22372220793D2239222066696C6C3D22236666 PUSH2 0x8C0 DUP3 ADD MSTORE PUSH32 0x66222F3E3C726563742069643D227035342220783D22382220793D2239222066 PUSH2 0x8E0 DUP3 ADD MSTORE PUSH32 0x696C6C3D2223666666222F3E3C726563742069643D227035352220783D223922 PUSH2 0x900 DUP3 ADD MSTORE PUSH32 0x20793D2239222066696C6C3D2223666666222F3E3C726563742069643D227035 PUSH2 0x920 DUP3 ADD MSTORE PUSH32 0x362220783D2231302220793D2239222066696C6C3D2223666666222F3E3C7265 PUSH2 0x940 DUP3 ADD MSTORE PUSH32 0x63742069643D227035372220783D22332220793D223130222066696C6C3D2223 PUSH2 0x960 DUP3 ADD MSTORE PUSH32 0x666666222F3E3C726563742069643D227035382220783D22342220793D223130 PUSH2 0x980 DUP3 ADD MSTORE PUSH32 0x222066696C6C3D2223666666222F3E3C726563742069643D227035392220783D PUSH2 0x9A0 DUP3 ADD MSTORE PUSH32 0x22352220793D223130222066696C6C3D2223666666222F3E3C72656374206964 PUSH2 0x9C0 DUP3 ADD MSTORE PUSH32 0x3D227036302220783D22362220793D223130222066696C6C3D2223666666222F PUSH2 0x9E0 DUP3 ADD MSTORE PUSH32 0x3E3C726563742069643D227036312220783D22372220793D223130222066696C PUSH2 0xA00 DUP3 ADD MSTORE PUSH32 0x6C3D2223666666222F3E3C726563742069643D227036322220783D2238222079 PUSH2 0xA20 DUP3 ADD MSTORE PUSH32 0x3D223130222066696C6C3D2223666666222F3E3C726563742069643D22703633 PUSH2 0xA40 DUP3 ADD MSTORE PUSH32 0x2220783D22392220793D223130222066696C6C3D2223666666222F3E3C726563 PUSH2 0xA60 DUP3 ADD MSTORE PUSH32 0x742069643D227036342220783D2231302220793D223130222066696C6C3D2223 PUSH2 0xA80 DUP3 ADD MSTORE PUSH32 0x666666222F3E3C2F673E3C6720636C6173733D2267726964223E3C6C696E6520 PUSH2 0xAA0 DUP3 ADD MSTORE PUSH32 0x78313D22312E303035222079313D222D322E3138353537652D3130222078323D PUSH2 0xAC0 DUP3 ADD MSTORE PUSH32 0x22312E303035222079323D223134222F3E3C6C696E652078313D22322E303035 PUSH2 0xAE0 DUP3 ADD MSTORE PUSH32 0x222079313D222D322E3138353537652D3130222078323D22322E303035222079 PUSH2 0xB00 DUP3 ADD MSTORE PUSH32 0x323D223134222F3E3C6C696E652078313D22332E303035222079313D222D322E PUSH2 0xB20 DUP3 ADD MSTORE PUSH32 0x3138353537652D3130222078323D22332E303035222079323D223134222F3E3C PUSH2 0xB40 DUP3 ADD MSTORE PUSH32 0x6C696E652078313D22342E303035222079313D222D322E3138353537652D3130 PUSH2 0xB60 DUP3 ADD MSTORE PUSH32 0x222078323D22342E303035222079323D223134222F3E3C6C696E652078313D22 PUSH2 0xB80 DUP3 ADD MSTORE PUSH32 0x352E303035222079313D222D322E3138353537652D3130222078323D22352E30 PUSH2 0xBA0 DUP3 ADD MSTORE PUSH32 0x3035222079323D223134222F3E3C6C696E652078313D22362E30303522207931 PUSH2 0xBC0 DUP3 ADD MSTORE PUSH32 0x3D222D322E3138353537652D3130222078323D22362E303035222079323D2231 PUSH2 0xBE0 DUP3 ADD MSTORE PUSH32 0x34222F3E3C6C696E652078313D22372E303035222079313D222D322E31383535 PUSH2 0xC00 DUP3 ADD MSTORE PUSH32 0x37652D3130222078323D22372E303035222079323D223134222F3E3C6C696E65 PUSH2 0xC20 DUP3 ADD MSTORE PUSH32 0x2078313D22382E303035222079313D222D322E3138353537652D313022207832 PUSH2 0xC40 DUP3 ADD MSTORE PUSH32 0x3D22382E303035222079323D223134222F3E3C6C696E652078313D22392E3030 PUSH2 0xC60 DUP3 ADD MSTORE PUSH32 0x35222079313D222D322E3138353537652D3130222078323D22392E3030352220 PUSH2 0xC80 DUP3 ADD MSTORE PUSH32 0x79323D223134222F3E3C6C696E652078313D2231302E303035222079313D222D PUSH2 0xCA0 DUP3 ADD MSTORE PUSH32 0x322E3138353537652D3130222078323D2231302E303035222079323D22313422 PUSH2 0xCC0 DUP3 ADD MSTORE PUSH32 0x2F3E3C6C696E652078313D2231312E303035222079313D222D322E3138353537 PUSH2 0xCE0 DUP3 ADD MSTORE PUSH32 0x652D3130222078323D2231312E303035222079323D223134222F3E3C6C696E65 PUSH2 0xD00 DUP3 ADD MSTORE PUSH32 0x2078313D2231322E303035222079313D222D322E3138353537652D3130222078 PUSH2 0xD20 DUP3 ADD MSTORE PUSH32 0x323D2231322E303035222079323D223134222F3E3C6C696E652078313D223133 PUSH2 0xD40 DUP3 ADD MSTORE PUSH32 0x2E303035222079313D222D322E3138353537652D3130222078323D2231332E30 PUSH2 0xD60 DUP3 ADD MSTORE PUSH32 0x3035222079323D223134222F3E3C6C696E652078313D223134222079313D2231 PUSH2 0xD80 DUP3 ADD MSTORE PUSH32 0x2E303035222079323D22312E303035222F3E3C6C696E652078313D2231342220 PUSH2 0xDA0 DUP3 ADD MSTORE PUSH32 0x79313D22322E303035222079323D22322E303035222F3E3C6C696E652078313D PUSH2 0xDC0 DUP3 ADD MSTORE PUSH32 0x223134222079313D22332E303035222079323D22332E303035222F3E3C6C696E PUSH2 0xDE0 DUP3 ADD MSTORE PUSH32 0x652078313D223134222079313D22342E303035222079323D22342E303035222F PUSH2 0xE00 DUP3 ADD MSTORE PUSH32 0x3E3C6C696E652078313D223134222079313D22352E303035222079323D22352E PUSH2 0xE20 DUP3 ADD MSTORE PUSH32 0x303035222F3E3C6C696E652078313D223134222079313D22362E303035222079 PUSH2 0xE40 DUP3 ADD MSTORE PUSH32 0x323D22362E303035222F3E3C6C696E652078313D223134222079313D22372E30 PUSH2 0xE60 DUP3 ADD MSTORE PUSH32 0x3035222079323D22372E303035222F3E3C6C696E652078313D22313422207931 PUSH2 0xE80 DUP3 ADD MSTORE PUSH32 0x3D22382E303035222079323D22382E303035222F3E3C6C696E652078313D2231 PUSH2 0xEA0 DUP3 ADD MSTORE PUSH32 0x34222079313D22392E303035222079323D22392E303035222F3E3C6C696E6520 PUSH2 0xEC0 DUP3 ADD MSTORE PUSH32 0x78313D223134222079313D2231302E303035222079323D2231302E303035222F PUSH2 0xEE0 DUP3 ADD MSTORE PUSH32 0x3E3C6C696E652078313D223134222079313D2231312E303035222079323D2231 PUSH2 0xF00 DUP3 ADD MSTORE PUSH32 0x312E303035222F3E3C6C696E652078313D223134222079313D2231322E303035 PUSH2 0xF20 DUP3 ADD MSTORE PUSH32 0x222079323D2231322E303035222F3E3C6C696E652078313D223134222079313D PUSH2 0xF40 DUP3 ADD MSTORE PUSH32 0x2231332E303035222079323D2231332E303035222F3E3C2F673E3C7374796C65 PUSH2 0xF60 DUP3 ADD MSTORE PUSH32 0x3E2E74696C657320726563747B77696474683A3170783B6865696768743A3170 PUSH2 0xF80 DUP3 ADD MSTORE PUSH32 0x783B7D2E677269647B7374726F6B653A233232323B7374726F6B652D77696474 PUSH2 0xFA0 DUP3 ADD MSTORE PUSH32 0x683A2E30313B7D00000000000000000000000000000000000000000000000000 PUSH2 0xFC0 DUP3 ADD MSTORE POP JUMP JUMPDEST PUSH1 0x0 PUSH2 0x4988 PUSH2 0xFC7 DUP4 PUSH2 0x361B JUMP JUMPDEST SWAP2 POP PUSH2 0x4993 DUP3 PUSH2 0x3626 JUMP JUMPDEST PUSH2 0xFC7 DUP3 ADD SWAP1 POP SWAP2 SWAP1 POP JUMP JUMPDEST PUSH1 0x0 PUSH2 0x49AA DUP3 PUSH2 0x2BF3 JUMP JUMPDEST PUSH2 0x49B4 DUP2 DUP6 PUSH2 0x361B JUMP JUMPDEST SWAP4 POP PUSH2 0x49C4 DUP2 DUP6 PUSH1 0x20 DUP7 ADD PUSH2 0x2C0F JUMP JUMPDEST DUP1 DUP5 ADD SWAP2 POP POP SWAP3 SWAP2 POP POP JUMP JUMPDEST PUSH32 0x3C2F7374796C653E3C2F7376673E000000000000000000000000000000000000 PUSH1 0x0 DUP3 ADD MSTORE POP JUMP JUMPDEST PUSH1 0x0 PUSH2 0x4A06 PUSH1 0xE DUP4 PUSH2 0x361B JUMP JUMPDEST SWAP2 POP PUSH2 0x4A11 DUP3 PUSH2 0x49D0 JUMP JUMPDEST PUSH1 0xE DUP3 ADD SWAP1 POP SWAP2 SWAP1 POP JUMP JUMPDEST PUSH1 0x0 PUSH2 0x4A27 DUP3 PUSH2 0x497A JUMP JUMPDEST SWAP2 POP PUSH2 0x4A33 DUP3 DUP5 PUSH2 0x499F JUMP JUMPDEST SWAP2 POP PUSH2 0x4A3E DUP3 PUSH2 0x49F9 JUMP JUMPDEST SWAP2 POP DUP2 SWAP1 POP SWAP3 SWAP2 POP POP JUMP JUMPDEST PUSH32 0x496E76616C696420706F736974696F6E00000000000000000000000000000000 PUSH1 0x0 DUP3 ADD MSTORE POP JUMP JUMPDEST PUSH1 0x0 PUSH2 0x4A7F PUSH1 0x10 DUP4 PUSH2 0x2BFE JUMP JUMPDEST SWAP2 POP PUSH2 0x4A8A DUP3 PUSH2 0x4A49 JUMP JUMPDEST PUSH1 0x20 DUP3 ADD SWAP1 POP SWAP2 SWAP1 POP JUMP JUMPDEST PUSH1 0x0 PUSH1 0x20 DUP3 ADD SWAP1 POP DUP2 DUP2 SUB PUSH1 0x0 DUP4 ADD MSTORE PUSH2 0x4AAE DUP2 PUSH2 0x4A72 JUMP JUMPDEST SWAP1 POP SWAP2 SWAP1 POP JUMP JUMPDEST PUSH1 0x0 DUP2 MLOAD SWAP1 POP PUSH2 0x4AC4 DUP2 PUSH2 0x2D64 JUMP JUMPDEST SWAP3 SWAP2 POP POP JUMP JUMPDEST PUSH1 0x0 PUSH1 0x20 DUP3 DUP5 SUB SLT ISZERO PUSH2 0x4AE0 JUMPI PUSH2 0x4ADF PUSH2 0x2AF0 JUMP JUMPDEST JUMPDEST PUSH1 0x0 PUSH2 0x4AEE DUP5 DUP3 DUP6 ADD PUSH2 0x4AB5 JUMP JUMPDEST SWAP2 POP POP SWAP3 SWAP2 POP POP JUMP JUMPDEST PUSH32 0x55494E5453206E6F74206F776E65640000000000000000000000000000000000 PUSH1 0x0 DUP3 ADD MSTORE POP JUMP JUMPDEST PUSH1 0x0 PUSH2 0x4B2D PUSH1 0xF DUP4 PUSH2 0x2BFE JUMP JUMPDEST SWAP2 POP PUSH2 0x4B38 DUP3 PUSH2 0x4AF7 JUMP JUMPDEST PUSH1 0x20 DUP3 ADD SWAP1 POP SWAP2 SWAP1 POP JUMP JUMPDEST PUSH1 0x0 PUSH1 0x20 DUP3 ADD SWAP1 POP DUP2 DUP2 SUB PUSH1 0x0 DUP4 ADD MSTORE PUSH2 0x4B5C DUP2 PUSH2 0x4B20 JUMP JUMPDEST SWAP1 POP SWAP2 SWAP1 POP JUMP JUMPDEST PUSH32 0x55494E545320616C726561647920757365640000000000000000000000000000 PUSH1 0x0 DUP3 ADD MSTORE POP JUMP JUMPDEST PUSH1 0x0 PUSH2 0x4B99 PUSH1 0x12 DUP4 PUSH2 0x2BFE JUMP JUMPDEST SWAP2 POP PUSH2 0x4BA4 DUP3 PUSH2 0x4B63 JUMP JUMPDEST PUSH1 0x20 DUP3 ADD SWAP1 POP SWAP2 SWAP1 POP JUMP JUMPDEST PUSH1 0x0 PUSH1 0x20 DUP3 ADD SWAP1 POP DUP2 DUP2 SUB PUSH1 0x0 DUP4 ADD MSTORE PUSH2 0x4BC8 DUP2 PUSH2 0x4B8C JUMP JUMPDEST SWAP1 POP SWAP2 SWAP1 POP JUMP JUMPDEST PUSH32 0x4D757374206F776E206174206C6561737420312055494E54532045646974696F PUSH1 0x0 DUP3 ADD MSTORE PUSH32 0x6E00000000000000000000000000000000000000000000000000000000000000 PUSH1 0x20 DUP3 ADD MSTORE POP JUMP JUMPDEST PUSH1 0x0 PUSH2 0x4C2B PUSH1 0x21 DUP4 PUSH2 0x2BFE JUMP JUMPDEST SWAP2 POP PUSH2 0x4C36 DUP3 PUSH2 0x4BCF JUMP JUMPDEST PUSH1 0x40 DUP3 ADD SWAP1 POP SWAP2 SWAP1 POP JUMP JUMPDEST PUSH1 0x0 PUSH1 0x20 DUP3 ADD SWAP1 POP DUP2 DUP2 SUB PUSH1 0x0 DUP4 ADD MSTORE PUSH2 0x4C5A DUP2 PUSH2 0x4C1E JUMP JUMPDEST SWAP1 POP SWAP2 SWAP1 POP JUMP JUMPDEST PUSH32 0x4E487B7100000000000000000000000000000000000000000000000000000000 PUSH1 0x0 MSTORE PUSH1 0x32 PUSH1 0x4 MSTORE PUSH1 0x24 PUSH1 0x0 REVERT JUMPDEST PUSH32 0x5247422800000000000000000000000000000000000000000000000000000000 PUSH1 0x0 DUP3 ADD MSTORE POP JUMP JUMPDEST PUSH1 0x0 PUSH2 0x4CC6 PUSH1 0x4 DUP4 PUSH2 0x361B JUMP JUMPDEST SWAP2 POP PUSH2 0x4CD1 DUP3 PUSH2 0x4C90 JUMP JUMPDEST PUSH1 0x4 DUP3 ADD SWAP1 POP SWAP2 SWAP1 POP JUMP JUMPDEST PUSH32 0x2C00000000000000000000000000000000000000000000000000000000000000 PUSH1 0x0 DUP3 ADD MSTORE POP JUMP JUMPDEST PUSH1 0x0 PUSH2 0x4D12 PUSH1 0x1 DUP4 PUSH2 0x361B JUMP JUMPDEST SWAP2 POP PUSH2 0x4D1D DUP3 PUSH2 0x4CDC JUMP JUMPDEST PUSH1 0x1 DUP3 ADD SWAP1 POP SWAP2 SWAP1 POP JUMP JUMPDEST PUSH32 0x2900000000000000000000000000000000000000000000000000000000000000 PUSH1 0x0 DUP3 ADD MSTORE POP JUMP JUMPDEST PUSH1 0x0 PUSH2 0x4D5E PUSH1 0x1 DUP4 PUSH2 0x361B JUMP JUMPDEST SWAP2 POP PUSH2 0x4D69 DUP3 PUSH2 0x4D28 JUMP JUMPDEST PUSH1 0x1 DUP3 ADD SWAP1 POP SWAP2 SWAP1 POP JUMP JUMPDEST PUSH1 0x0 PUSH2 0x4D7F DUP3 PUSH2 0x4CB9 JUMP JUMPDEST SWAP2 POP PUSH2 0x4D8B DUP3 DUP7 PUSH2 0x499F JUMP JUMPDEST SWAP2 POP PUSH2 0x4D96 DUP3 PUSH2 0x4D05 JUMP JUMPDEST SWAP2 POP PUSH2 0x4DA2 DUP3 DUP6 PUSH2 0x499F JUMP JUMPDEST SWAP2 POP PUSH2 0x4DAD DUP3 PUSH2 0x4D05 JUMP JUMPDEST SWAP2 POP PUSH2 0x4DB9 DUP3 DUP5 PUSH2 0x499F JUMP JUMPDEST SWAP2 POP PUSH2 0x4DC4 DUP3 PUSH2 0x4D51 JUMP JUMPDEST SWAP2 POP DUP2 SWAP1 POP SWAP5 SWAP4 POP POP POP POP JUMP JUMPDEST PUSH1 0x0 DUP2 SWAP1 POP DUP2 PUSH1 0x0 MSTORE PUSH1 0x20 PUSH1 0x0 KECCAK256 SWAP1 POP SWAP2 SWAP1 POP JUMP JUMPDEST PUSH1 0x0 PUSH1 0x20 PUSH1 0x1F DUP4 ADD DIV SWAP1 POP SWAP2 SWAP1 POP JUMP JUMPDEST PUSH1 0x0 DUP3 DUP3 SHL SWAP1 POP SWAP3 SWAP2 POP POP JUMP JUMPDEST PUSH1 0x0 PUSH1 0x8 DUP4 MUL PUSH2 0x4E33 PUSH32 0xFFFFFFFFFFFFFFFFFFFFFFFFFFFFFFFFFFFFFFFFFFFFFFFFFFFFFFFFFFFFFFFF DUP3 PUSH2 0x4DF6 JUMP JUMPDEST PUSH2 0x4E3D DUP7 DUP4 PUSH2 0x4DF6 JUMP JUMPDEST SWAP6 POP DUP1 NOT DUP5 AND SWAP4 POP DUP1 DUP7 AND DUP5 OR SWAP3 POP POP POP SWAP4 SWAP3 POP POP POP JUMP JUMPDEST PUSH1 0x0 DUP2 SWAP1 POP SWAP2 SWAP1 POP JUMP JUMPDEST PUSH1 0x0 PUSH2 0x4E7A PUSH2 0x4E75 PUSH2 0x4E70 DUP5 PUSH2 0x2CA5 JUMP JUMPDEST PUSH2 0x4E55 JUMP JUMPDEST PUSH2 0x2CA5 JUMP JUMPDEST SWAP1 POP SWAP2 SWAP1 POP JUMP JUMPDEST PUSH1 0x0 DUP2 SWAP1 POP SWAP2 SWAP1 POP JUMP JUMPDEST PUSH2 0x4E94 DUP4 PUSH2 0x4E5F JUMP JUMPDEST PUSH2 0x4EA8 PUSH2 0x4EA0 DUP3 PUSH2 0x4E81 JUMP JUMPDEST DUP5 DUP5 SLOAD PUSH2 0x4E03 JUMP JUMPDEST DUP3 SSTORE POP POP POP POP JUMP JUMPDEST PUSH1 0x0 SWAP1 JUMP JUMPDEST PUSH2 0x4EBD PUSH2 0x4EB0 JUMP JUMPDEST PUSH2 0x4EC8 DUP2 DUP5 DUP5 PUSH2 0x4E8B JUMP JUMPDEST POP POP POP JUMP JUMPDEST JUMPDEST DUP2 DUP2 LT ISZERO PUSH2 0x4EEC JUMPI PUSH2 0x4EE1 PUSH1 0x0 DUP3 PUSH2 0x4EB5 JUMP JUMPDEST PUSH1 0x1 DUP2 ADD SWAP1 POP PUSH2 0x4ECE JUMP JUMPDEST POP POP JUMP JUMPDEST PUSH1 0x1F DUP3 GT ISZERO PUSH2 0x4F31 JUMPI PUSH2 0x4F02 DUP2 PUSH2 0x4DD1 JUMP JUMPDEST PUSH2 0x4F0B DUP5 PUSH2 0x4DE6 JUMP JUMPDEST DUP2 ADD PUSH1 0x20 DUP6 LT ISZERO PUSH2 0x4F1A JUMPI DUP2 SWAP1 POP JUMPDEST PUSH2 0x4F2E PUSH2 0x4F26 DUP6 PUSH2 0x4DE6 JUMP JUMPDEST DUP4 ADD DUP3 PUSH2 0x4ECD JUMP JUMPDEST POP POP JUMPDEST POP POP POP JUMP JUMPDEST PUSH1 0x0 DUP3 DUP3 SHR SWAP1 POP SWAP3 SWAP2 POP POP JUMP JUMPDEST PUSH1 0x0 PUSH2 0x4F54 PUSH1 0x0 NOT DUP5 PUSH1 0x8 MUL PUSH2 0x4F36 JUMP JUMPDEST NOT DUP1 DUP4 AND SWAP2 POP POP SWAP3 SWAP2 POP POP JUMP JUMPDEST PUSH1 0x0 PUSH2 0x4F6D DUP4 DUP4 PUSH2 0x4F43 JUMP JUMPDEST SWAP2 POP DUP3 PUSH1 0x2 MUL DUP3 OR SWAP1 POP SWAP3 SWAP2 POP POP JUMP JUMPDEST PUSH2 0x4F86 DUP3 PUSH2 0x33B7 JUMP JUMPDEST PUSH8 0xFFFFFFFFFFFFFFFF DUP2 GT ISZERO PUSH2 0x4F9F JUMPI PUSH2 0x4F9E PUSH2 0x2EC0 JUMP JUMPDEST JUMPDEST PUSH2 0x4FA9 DUP3 SLOAD PUSH2 0x349D JUMP JUMPDEST PUSH2 0x4FB4 DUP3 DUP3 DUP6 PUSH2 0x4EF0 JUMP JUMPDEST PUSH1 0x0 PUSH1 0x20 SWAP1 POP PUSH1 0x1F DUP4 GT PUSH1 0x1 DUP2 EQ PUSH2 0x4FE7 JUMPI PUSH1 0x0 DUP5 ISZERO PUSH2 0x4FD5 JUMPI DUP3 DUP8 ADD MLOAD SWAP1 POP JUMPDEST PUSH2 0x4FDF DUP6 DUP3 PUSH2 0x4F61 JUMP JUMPDEST DUP7 SSTORE POP PUSH2 0x5047 JUMP JUMPDEST PUSH1 0x1F NOT DUP5 AND PUSH2 0x4FF5 DUP7 PUSH2 0x4DD1 JUMP JUMPDEST PUSH1 0x0 JUMPDEST DUP3 DUP2 LT ISZERO PUSH2 0x501D JUMPI DUP5 DUP10 ADD MLOAD DUP3 SSTORE PUSH1 0x1 DUP3 ADD SWAP2 POP PUSH1 0x20 DUP6 ADD SWAP5 POP PUSH1 0x20 DUP2 ADD SWAP1 POP PUSH2 0x4FF8 JUMP JUMPDEST DUP7 DUP4 LT ISZERO PUSH2 0x503A JUMPI DUP5 DUP10 ADD MLOAD PUSH2 0x5036 PUSH1 0x1F DUP10 AND DUP3 PUSH2 0x4F43 JUMP JUMPDEST DUP4 SSTORE POP JUMPDEST PUSH1 0x1 PUSH1 0x2 DUP9 MUL ADD DUP9 SSTORE POP POP POP JUMPDEST POP POP POP POP POP POP JUMP JUMPDEST PUSH1 0x0 PUSH1 0xC0 DUP3 ADD SWAP1 POP PUSH2 0x5064 PUSH1 0x0 DUP4 ADD DUP10 PUSH2 0x2DD0 JUMP JUMPDEST PUSH2 0x5071 PUSH1 0x20 DUP4 ADD DUP9 PUSH2 0x2DD0 JUMP JUMPDEST DUP2 DUP2 SUB PUSH1 0x40 DUP4 ADD MSTORE PUSH2 0x5083 DUP2 DUP8 PUSH2 0x2C4A JUMP JUMPDEST SWAP1 POP PUSH2 0x5092 PUSH1 0x60 DUP4 ADD DUP7 PUSH2 0x2D3A JUMP JUMPDEST PUSH2 0x509F PUSH1 0x80 DUP4 ADD DUP6 PUSH2 0x2DD0 JUMP JUMPDEST PUSH2 0x50AC PUSH1 0xA0 DUP4 ADD DUP5 PUSH2 0x2DD0 JUMP JUMPDEST SWAP8 SWAP7 POP POP POP POP POP POP POP JUMP JUMPDEST PUSH32 0x2370000000000000000000000000000000000000000000000000000000000000 PUSH1 0x0 DUP3 ADD MSTORE POP JUMP JUMPDEST PUSH1 0x0 PUSH2 0x50ED PUSH1 0x2 DUP4 PUSH2 0x361B JUMP JUMPDEST SWAP2 POP PUSH2 0x50F8 DUP3 PUSH2 0x50B7 JUMP JUMPDEST PUSH1 0x2 DUP3 ADD SWAP1 POP SWAP2 SWAP1 POP JUMP JUMPDEST PUSH32 0x7B66696C6C3A0000000000000000000000000000000000000000000000000000 PUSH1 0x0 DUP3 ADD MSTORE POP JUMP JUMPDEST PUSH1 0x0 PUSH2 0x5139 PUSH1 0x6 DUP4 PUSH2 0x361B JUMP JUMPDEST SWAP2 POP PUSH2 0x5144 DUP3 PUSH2 0x5103 JUMP JUMPDEST PUSH1 0x6 DUP3 ADD SWAP1 POP SWAP2 SWAP1 POP JUMP JUMPDEST PUSH1 0x0 DUP2 SWAP1 POP DUP2 PUSH1 0x0 MSTORE PUSH1 0x20 PUSH1 0x0 KECCAK256 SWAP1 POP SWAP2 SWAP1 POP JUMP JUMPDEST PUSH1 0x0 DUP2 SLOAD PUSH2 0x5171 DUP2 PUSH2 0x349D JUMP JUMPDEST PUSH2 0x517B DUP2 DUP7 PUSH2 0x361B JUMP JUMPDEST SWAP5 POP PUSH1 0x1 DUP3 AND PUSH1 0x0 DUP2 EQ PUSH2 0x5196 JUMPI PUSH1 0x1 DUP2 EQ PUSH2 0x51AB JUMPI PUSH2 0x51DE JUMP JUMPDEST PUSH1 0xFF NOT DUP4 AND DUP7 MSTORE DUP2 ISZERO ISZERO DUP3 MUL DUP7 ADD SWAP4 POP PUSH2 0x51DE JUMP JUMPDEST PUSH2 0x51B4 DUP6 PUSH2 0x514F JUMP JUMPDEST PUSH1 0x0 JUMPDEST DUP4 DUP2 LT ISZERO PUSH2 0x51D6 JUMPI DUP2 SLOAD DUP2 DUP10 ADD MSTORE PUSH1 0x1 DUP3 ADD SWAP2 POP PUSH1 0x20 DUP2 ADD SWAP1 POP PUSH2 0x51B7 JUMP JUMPDEST DUP4 DUP9 ADD SWAP6 POP POP POP JUMPDEST POP POP POP SWAP3 SWAP2 POP POP JUMP JUMPDEST PUSH32 0x7D00000000000000000000000000000000000000000000000000000000000000 PUSH1 0x0 DUP3 ADD MSTORE POP JUMP JUMPDEST PUSH1 0x0 PUSH2 0x521D PUSH1 0x1 DUP4 PUSH2 0x361B JUMP JUMPDEST SWAP2 POP PUSH2 0x5228 DUP3 PUSH2 0x51E7 JUMP JUMPDEST PUSH1 0x1 DUP3 ADD SWAP1 POP SWAP2 SWAP1 POP JUMP JUMPDEST PUSH1 0x0 PUSH2 0x523F DUP3 DUP7 PUSH2 0x499F JUMP JUMPDEST SWAP2 POP PUSH2 0x524A DUP3 PUSH2 0x50E0 JUMP JUMPDEST SWAP2 POP PUSH2 0x5256 DUP3 DUP6 PUSH2 0x499F JUMP JUMPDEST SWAP2 POP PUSH2 0x5261 DUP3 PUSH2 0x512C JUMP JUMPDEST SWAP2 POP PUSH2 0x526D DUP3 DUP5 PUSH2 0x5164 JUMP JUMPDEST SWAP2 POP PUSH2 0x5278 DUP3 PUSH2 0x5210 JUMP JUMPDEST SWAP2 POP DUP2 SWAP1 POP SWAP5 SWAP4 POP POP POP POP JUMP JUMPDEST PUSH1 0x0 DUP2 MLOAD SWAP1 POP PUSH2 0x5294 DUP2 PUSH2 0x2CAF JUMP JUMPDEST SWAP3 SWAP2 POP POP JUMP JUMPDEST PUSH1 0x0 PUSH1 0x20 DUP3 DUP5 SUB SLT ISZERO PUSH2 0x52B0 JUMPI PUSH2 0x52AF PUSH2 0x2AF0 JUMP JUMPDEST JUMPDEST PUSH1 0x0 PUSH2 0x52BE DUP5 DUP3 DUP6 ADD PUSH2 0x5285 JUMP JUMPDEST SWAP2 POP POP SWAP3 SWAP2 POP POP JUMP JUMPDEST PUSH32 0x4D757374206F776E2055494E545320647572696E672070726976617465206D69 PUSH1 0x0 DUP3 ADD MSTORE PUSH32 0x6E74207068617365000000000000000000000000000000000000000000000000 PUSH1 0x20 DUP3 ADD MSTORE POP JUMP JUMPDEST PUSH1 0x0 PUSH2 0x5323 PUSH1 0x28 DUP4 PUSH2 0x2BFE JUMP JUMPDEST SWAP2 POP PUSH2 0x532E DUP3 PUSH2 0x52C7 JUMP JUMPDEST PUSH1 0x40 DUP3 ADD SWAP1 POP SWAP2 SWAP1 POP JUMP JUMPDEST PUSH1 0x0 PUSH1 0x20 DUP3 ADD SWAP1 POP DUP2 DUP2 SUB PUSH1 0x0 DUP4 ADD MSTORE PUSH2 0x5352 DUP2 PUSH2 0x5316 JUMP JUMPDEST SWAP1 POP SWAP2 SWAP1 POP JUMP JUMPDEST PUSH1 0x0 PUSH2 0x5364 DUP3 PUSH2 0x2BB5 JUMP JUMPDEST SWAP2 POP PUSH2 0x536F DUP4 PUSH2 0x2BB5 JUMP JUMPDEST SWAP3 POP DUP3 DUP3 SUB SWAP1 POP PUSH8 0xFFFFFFFFFFFFFFFF DUP2 GT ISZERO PUSH2 0x538F JUMPI PUSH2 0x538E PUSH2 0x34CE JUMP JUMPDEST JUMPDEST SWAP3 SWAP2 POP POP JUMP JUMPDEST PUSH32 0x4D696E742068617320636C6F7365640000000000000000000000000000000000 PUSH1 0x0 DUP3 ADD MSTORE POP JUMP JUMPDEST PUSH1 0x0 PUSH2 0x53CB PUSH1 0xF DUP4 PUSH2 0x2BFE JUMP JUMPDEST SWAP2 POP PUSH2 0x53D6 DUP3 PUSH2 0x5395 JUMP JUMPDEST PUSH1 0x20 DUP3 ADD SWAP1 POP SWAP2 SWAP1 POP JUMP JUMPDEST PUSH1 0x0 PUSH1 0x20 DUP3 ADD SWAP1 POP DUP2 DUP2 SUB PUSH1 0x0 DUP4 ADD MSTORE PUSH2 0x53FA DUP2 PUSH2 0x53BE JUMP JUMPDEST SWAP1 POP SWAP2 SWAP1 POP JUMP JUMPDEST PUSH32 0x7B226E616D65223A202255494E54532045646974696F6E200000000000000000 PUSH1 0x0 DUP3 ADD MSTORE POP JUMP JUMPDEST PUSH1 0x0 PUSH2 0x5437 PUSH1 0x18 DUP4 PUSH2 0x361B JUMP JUMPDEST SWAP2 POP PUSH2 0x5442 DUP3 PUSH2 0x5401 JUMP JUMPDEST PUSH1 0x18 DUP3 ADD SWAP1 POP SWAP2 SWAP1 POP JUMP JUMPDEST PUSH32 0x222C20226465736372697074696F6E223A202255494E54532045646974696F6E PUSH1 0x0 DUP3 ADD MSTORE PUSH32 0x2067697665732055494E545320686F6C646572732074686520706F7765722074 PUSH1 0x20 DUP3 ADD MSTORE PUSH32 0x6F206D616B65207570646174657320746F206F6E2D636861696E20617274776F PUSH1 0x40 DUP3 ADD MSTORE PUSH32 0x726B2E222C2022696D616765223A2022646174613A696D6167652F7376672B78 PUSH1 0x60 DUP3 ADD MSTORE PUSH32 0x6D6C3B6261736536342C00000000000000000000000000000000000000000000 PUSH1 0x80 DUP3 ADD MSTORE POP JUMP JUMPDEST PUSH1 0x0 PUSH2 0x551B PUSH1 0x8A DUP4 PUSH2 0x361B JUMP JUMPDEST SWAP2 POP PUSH2 0x5526 DUP3 PUSH2 0x544D JUMP JUMPDEST PUSH1 0x8A DUP3 ADD SWAP1 POP SWAP2 SWAP1 POP JUMP JUMPDEST PUSH32 0x227D000000000000000000000000000000000000000000000000000000000000 PUSH1 0x0 DUP3 ADD MSTORE POP JUMP JUMPDEST PUSH1 0x0 PUSH2 0x5567 PUSH1 0x2 DUP4 PUSH2 0x361B JUMP JUMPDEST SWAP2 POP PUSH2 0x5572 DUP3 PUSH2 0x5531 JUMP JUMPDEST PUSH1 0x2 DUP3 ADD SWAP1 POP SWAP2 SWAP1 POP JUMP JUMPDEST PUSH1 0x0 PUSH2 0x5588 DUP3 PUSH2 0x542A JUMP JUMPDEST SWAP2 POP PUSH2 0x5594 DUP3 DUP6 PUSH2 0x499F JUMP JUMPDEST SWAP2 POP PUSH2 0x559F DUP3 PUSH2 0x550E JUMP JUMPDEST SWAP2 POP PUSH2 0x55AB DUP3 DUP5 PUSH2 0x499F JUMP JUMPDEST SWAP2 POP PUSH2 0x55B6 DUP3 PUSH2 0x555A JUMP JUMPDEST SWAP2 POP DUP2 SWAP1 POP SWAP4 SWAP3 POP POP POP JUMP JUMPDEST PUSH32 0x646174613A6170706C69636174696F6E2F6A736F6E3B6261736536342C000000 PUSH1 0x0 DUP3 ADD MSTORE POP JUMP JUMPDEST PUSH1 0x0 PUSH2 0x55F8 PUSH1 0x1D DUP4 PUSH2 0x361B JUMP JUMPDEST SWAP2 POP PUSH2 0x5603 DUP3 PUSH2 0x55C2 JUMP JUMPDEST PUSH1 0x1D DUP3 ADD SWAP1 POP SWAP2 SWAP1 POP JUMP JUMPDEST PUSH1 0x0 PUSH2 0x5619 DUP3 PUSH2 0x55EB JUMP JUMPDEST SWAP2 POP PUSH2 0x5625 DUP3 DUP5 PUSH2 0x499F JUMP JUMPDEST SWAP2 POP DUP2 SWAP1 POP SWAP3 SWAP2 POP POP JUMP JUMPDEST PUSH32 0x4F776E61626C653A206E6577206F776E657220697320746865207A65726F2061 PUSH1 0x0 DUP3 ADD MSTORE PUSH32 0x6464726573730000000000000000000000000000000000000000000000000000 PUSH1 0x20 DUP3 ADD MSTORE POP JUMP JUMPDEST PUSH1 0x0 PUSH2 0x568C PUSH1 0x26 DUP4 PUSH2 0x2BFE JUMP JUMPDEST SWAP2 POP PUSH2 0x5697 DUP3 PUSH2 0x5630 JUMP JUMPDEST PUSH1 0x40 DUP3 ADD SWAP1 POP SWAP2 SWAP1 POP JUMP JUMPDEST PUSH1 0x0 PUSH1 0x20 DUP3 ADD SWAP1 POP DUP2 DUP2 SUB PUSH1 0x0 DUP4 ADD MSTORE PUSH2 0x56BB DUP2 PUSH2 0x567F JUMP JUMPDEST SWAP1 POP SWAP2 SWAP1 POP JUMP JUMPDEST PUSH32 0x4F776E61626C653A2063616C6C6572206973206E6F7420746865206F776E6572 PUSH1 0x0 DUP3 ADD MSTORE POP JUMP JUMPDEST PUSH1 0x0 PUSH2 0x56F8 PUSH1 0x20 DUP4 PUSH2 0x2BFE JUMP JUMPDEST SWAP2 POP PUSH2 0x5703 DUP3 PUSH2 0x56C2 JUMP JUMPDEST PUSH1 0x20 DUP3 ADD SWAP1 POP SWAP2 SWAP1 POP JUMP JUMPDEST PUSH1 0x0 PUSH1 0x20 DUP3 ADD SWAP1 POP DUP2 DUP2 SUB PUSH1 0x0 DUP4 ADD MSTORE PUSH2 0x5727 DUP2 PUSH2 0x56EB JUMP JUMPDEST SWAP1 POP SWAP2 SWAP1 POP JUMP JUMPDEST PUSH32 0x455243323938313A20726F79616C7479206665652077696C6C20657863656564 PUSH1 0x0 DUP3 ADD MSTORE PUSH32 0x2073616C65507269636500000000000000000000000000000000000000000000 PUSH1 0x20 DUP3 ADD MSTORE POP JUMP JUMPDEST PUSH1 0x0 PUSH2 0x578A PUSH1 0x2A DUP4 PUSH2 0x2BFE JUMP JUMPDEST SWAP2 POP PUSH2 0x5795 DUP3 PUSH2 0x572E JUMP JUMPDEST PUSH1 0x40 DUP3 ADD SWAP1 POP SWAP2 SWAP1 POP JUMP JUMPDEST PUSH1 0x0 PUSH1 0x20 DUP3 ADD SWAP1 POP DUP2 DUP2 SUB PUSH1 0x0 DUP4 ADD MSTORE PUSH2 0x57B9 DUP2 PUSH2 0x577D JUMP JUMPDEST SWAP1 POP SWAP2 SWAP1 POP JUMP JUMPDEST PUSH32 0x455243323938313A20696E76616C696420726563656976657200000000000000 PUSH1 0x0 DUP3 ADD MSTORE POP JUMP JUMPDEST PUSH1 0x0 PUSH2 0x57F6 PUSH1 0x19 DUP4 PUSH2 0x2BFE JUMP JUMPDEST SWAP2 POP PUSH2 0x5801 DUP3 PUSH2 0x57C0 JUMP JUMPDEST PUSH1 0x20 DUP3 ADD SWAP1 POP SWAP2 SWAP1 POP JUMP JUMPDEST PUSH1 0x0 PUSH1 0x20 DUP3 ADD SWAP1 POP DUP2 DUP2 SUB PUSH1 0x0 DUP4 ADD MSTORE PUSH2 0x5825 DUP2 PUSH2 0x57E9 JUMP JUMPDEST SWAP1 POP SWAP2 SWAP1 POP JUMP JUMPDEST PUSH1 0x0 PUSH2 0x5837 DUP3 PUSH2 0x2CA5 JUMP JUMPDEST SWAP2 POP PUSH2 0x5842 DUP4 PUSH2 0x2CA5 JUMP JUMPDEST SWAP3 POP DUP3 PUSH2 0x5852 JUMPI PUSH2 0x5851 PUSH2 0x3587 JUMP JUMPDEST JUMPDEST DUP3 DUP3 MOD SWAP1 POP SWAP3 SWAP2 POP POP JUMP JUMPDEST PUSH1 0x0 PUSH1 0x80 DUP3 ADD SWAP1 POP PUSH2 0x5872 PUSH1 0x0 DUP4 ADD DUP8 PUSH2 0x2D3A JUMP JUMPDEST PUSH2 0x587F PUSH1 0x20 DUP4 ADD DUP7 PUSH2 0x2D3A JUMP JUMPDEST PUSH2 0x588C PUSH1 0x40 DUP4 ADD DUP6 PUSH2 0x2DD0 JUMP JUMPDEST DUP2 DUP2 SUB PUSH1 0x60 DUP4 ADD MSTORE PUSH2 0x589E DUP2 DUP5 PUSH2 0x33D3 JUMP JUMPDEST SWAP1 POP SWAP6 SWAP5 POP POP POP POP POP JUMP JUMPDEST PUSH1 0x0 DUP2 MLOAD SWAP1 POP PUSH2 0x58B8 DUP2 PUSH2 0x2B26 JUMP JUMPDEST SWAP3 SWAP2 POP POP JUMP JUMPDEST PUSH1 0x0 PUSH1 0x20 DUP3 DUP5 SUB SLT ISZERO PUSH2 0x58D4 JUMPI PUSH2 0x58D3 PUSH2 0x2AF0 JUMP JUMPDEST JUMPDEST PUSH1 0x0 PUSH2 0x58E2 DUP5 DUP3 DUP6 ADD PUSH2 0x58A9 JUMP JUMPDEST SWAP2 POP POP SWAP3 SWAP2 POP POP JUMP INVALID COINBASE TIMESTAMP NUMBER PREVRANDAO GASLIMIT CHAINID SELFBALANCE BASEFEE 0x49 0x4A 0x4B 0x4C 0x4D 0x4E 0x4F POP MLOAD MSTORE MSTORE8 SLOAD SSTORE JUMP JUMPI PC MSIZE GAS PUSH2 0x6263 PUSH5 0x6566676869 PUSH11 0x6B6C6D6E6F707172737475 PUSH23 0x7778797A303132333435363738392B2FA2646970667358 0x22 SLT KECCAK256 SWAP8 CALLVALUE CREATE 0xAA SWAP8 PUSH26 0x1F350AD327FF3E983ED38D8C5DB408A212F0D47C67EAB4D40620 PUSH5 0x736F6C6343 STOP ADDMOD SLT STOP CALLER "
		},
		"gasEstimates": {
			"creation": {
				"codeDepositCost": "4576200",
				"executionCost": "infinite",
				"totalCost": "infinite"
			},
			"external": {
				"approve(address,uint256)": "infinite",
				"balanceOf(address)": "2928",
				"changeAllColorsToBlue()": "infinite",
				"changeAllColorsToGreen()": "infinite",
				"changeAllColorsToRed()": "infinite",
				"changeColor(uint256,uint8[3],uint256)": "infinite",
				"changeCounter()": "2496",
				"checkValueOfUints(uint256)": "infinite",
				"colors(uint256)": "infinite",
				"getApproved(uint256)": "7434",
				"getCurrentStyles()": "infinite",
				"isApprovedForAll(address,address)": "infinite",
				"mint(uint256)": "infinite",
				"name()": "infinite",
				"owner()": "2634",
				"ownerOf(uint256)": "infinite",
				"renderSvg(string)": "infinite",
				"renounceOwnership()": "30466",
				"royaltyInfo(uint256,uint256)": "infinite",
				"safeTransferFrom(address,address,uint256)": "infinite",
				"safeTransferFrom(address,address,uint256,bytes)": "infinite",
				"setApprovalForAll(address,bool)": "infinite",
				"setChangesContract(address)": "51297",
				"setRoyalty(address,uint96)": "51780",
				"setUintsContract(address)": "51365",
				"startMint()": "infinite",
				"stopPrivateMintTime()": "2516",
				"stopPublicMintTime()": "2590",
				"supportsInterface(bytes4)": "989",
				"symbol()": "infinite",
				"tokenURI(uint256)": "infinite",
				"totalSupply()": "4696",
				"transferFrom(address,address,uint256)": "infinite",
				"transferOwnership(address)": "30876",
				"usedTokens(uint256)": "2864",
				"withdraw()": "infinite"
			},
			"internal": {
				"_startTokenId()": "23",
				"batchMint(uint256)": "infinite"
			}
		},
		"methodIdentifiers": {
			"approve(address,uint256)": "095ea7b3",
			"balanceOf(address)": "70a08231",
			"changeAllColorsToBlue()": "ddaf39bc",
			"changeAllColorsToGreen()": "0fd51902",
			"changeAllColorsToRed()": "a3b04a1f",
			"changeColor(uint256,uint8[3],uint256)": "5c27905c",
			"changeCounter()": "aaf4389a",
			"checkValueOfUints(uint256)": "9f9f3859",
			"colors(uint256)": "bd11f69d",
			"getApproved(uint256)": "081812fc",
			"getCurrentStyles()": "7708b2d9",
			"isApprovedForAll(address,address)": "e985e9c5",
			"mint(uint256)": "a0712d68",
			"name()": "06fdde03",
			"owner()": "8da5cb5b",
			"ownerOf(uint256)": "6352211e",
			"renderSvg(string)": "32783e5b",
			"renounceOwnership()": "715018a6",
			"royaltyInfo(uint256,uint256)": "2a55205a",
			"safeTransferFrom(address,address,uint256)": "42842e0e",
			"safeTransferFrom(address,address,uint256,bytes)": "b88d4fde",
			"setApprovalForAll(address,bool)": "a22cb465",
			"setChangesContract(address)": "bed91971",
			"setRoyalty(address,uint96)": "8f2fc60b",
			"setUintsContract(address)": "354098c1",
			"startMint()": "2be09561",
			"stopPrivateMintTime()": "3886bbcf",
			"stopPublicMintTime()": "060f8c04",
			"supportsInterface(bytes4)": "01ffc9a7",
			"symbol()": "95d89b41",
			"tokenURI(uint256)": "c87b56dd",
			"totalSupply()": "18160ddd",
			"transferFrom(address,address,uint256)": "23b872dd",
			"transferOwnership(address)": "f2fde38b",
			"usedTokens(uint256)": "0f7ee879",
			"withdraw()": "3ccfd60b"
		}
	},
	"abi": [
		{
			"inputs": [],
			"stateMutability": "nonpayable",
			"type": "constructor"
		},
		{
			"inputs": [],
			"name": "ApprovalCallerNotOwnerNorApproved",
			"type": "error"
		},
		{
			"inputs": [],
			"name": "ApprovalQueryForNonexistentToken",
			"type": "error"
		},
		{
			"inputs": [],
			"name": "BalanceQueryForZeroAddress",
			"type": "error"
		},
		{
			"inputs": [],
			"name": "MintERC2309QuantityExceedsLimit",
			"type": "error"
		},
		{
			"inputs": [],
			"name": "MintToZeroAddress",
			"type": "error"
		},
		{
			"inputs": [],
			"name": "MintZeroQuantity",
			"type": "error"
		},
		{
			"inputs": [],
			"name": "OwnerQueryForNonexistentToken",
			"type": "error"
		},
		{
			"inputs": [],
			"name": "OwnershipNotInitializedForExtraData",
			"type": "error"
		},
		{
			"inputs": [],
			"name": "TransferCallerNotOwnerNorApproved",
			"type": "error"
		},
		{
			"inputs": [],
			"name": "TransferFromIncorrectOwner",
			"type": "error"
		},
		{
			"inputs": [],
			"name": "TransferToNonERC721ReceiverImplementer",
			"type": "error"
		},
		{
			"inputs": [],
			"name": "TransferToZeroAddress",
			"type": "error"
		},
		{
			"inputs": [],
			"name": "URIQueryForNonexistentToken",
			"type": "error"
		},
		{
			"anonymous": false,
			"inputs": [
				{
					"indexed": true,
					"internalType": "address",
					"name": "owner",
					"type": "address"
				},
				{
					"indexed": true,
					"internalType": "address",
					"name": "approved",
					"type": "address"
				},
				{
					"indexed": true,
					"internalType": "uint256",
					"name": "tokenId",
					"type": "uint256"
				}
			],
			"name": "Approval",
			"type": "event"
		},
		{
			"anonymous": false,
			"inputs": [
				{
					"indexed": true,
					"internalType": "address",
					"name": "owner",
					"type": "address"
				},
				{
					"indexed": true,
					"internalType": "address",
					"name": "operator",
					"type": "address"
				},
				{
					"indexed": false,
					"internalType": "bool",
					"name": "approved",
					"type": "bool"
				}
			],
			"name": "ApprovalForAll",
			"type": "event"
		},
		{
			"anonymous": false,
			"inputs": [
				{
					"indexed": true,
					"internalType": "uint256",
					"name": "fromTokenId",
					"type": "uint256"
				},
				{
					"indexed": false,
					"internalType": "uint256",
					"name": "toTokenId",
					"type": "uint256"
				},
				{
					"indexed": true,
					"internalType": "address",
					"name": "from",
					"type": "address"
				},
				{
					"indexed": true,
					"internalType": "address",
					"name": "to",
					"type": "address"
				}
			],
			"name": "ConsecutiveTransfer",
			"type": "event"
		},
		{
			"anonymous": false,
			"inputs": [
				{
					"indexed": true,
					"internalType": "address",
					"name": "previousOwner",
					"type": "address"
				},
				{
					"indexed": true,
					"internalType": "address",
					"name": "newOwner",
					"type": "address"
				}
			],
			"name": "OwnershipTransferred",
			"type": "event"
		},
		{
			"anonymous": false,
			"inputs": [
				{
					"indexed": true,
					"internalType": "address",
					"name": "from",
					"type": "address"
				},
				{
					"indexed": true,
					"internalType": "address",
					"name": "to",
					"type": "address"
				},
				{
					"indexed": true,
					"internalType": "uint256",
					"name": "tokenId",
					"type": "uint256"
				}
			],
			"name": "Transfer",
			"type": "event"
		},
		{
			"inputs": [
				{
					"internalType": "address",
					"name": "to",
					"type": "address"
				},
				{
					"internalType": "uint256",
					"name": "tokenId",
					"type": "uint256"
				}
			],
			"name": "approve",
			"outputs": [],
			"stateMutability": "payable",
			"type": "function"
		},
		{
			"inputs": [
				{
					"internalType": "address",
					"name": "owner",
					"type": "address"
				}
			],
			"name": "balanceOf",
			"outputs": [
				{
					"internalType": "uint256",
					"name": "",
					"type": "uint256"
				}
			],
			"stateMutability": "view",
			"type": "function"
		},
		{
			"inputs": [],
			"name": "changeAllColorsToBlue",
			"outputs": [],
			"stateMutability": "nonpayable",
			"type": "function"
		},
		{
			"inputs": [],
			"name": "changeAllColorsToGreen",
			"outputs": [],
			"stateMutability": "nonpayable",
			"type": "function"
		},
		{
			"inputs": [],
			"name": "changeAllColorsToRed",
			"outputs": [],
			"stateMutability": "nonpayable",
			"type": "function"
		},
		{
			"inputs": [
				{
					"internalType": "uint256",
					"name": "position",
					"type": "uint256"
				},
				{
					"internalType": "uint8[3]",
					"name": "rgbColors",
					"type": "uint8[3]"
				},
				{
					"internalType": "uint256",
					"name": "uintsId",
					"type": "uint256"
				}
			],
			"name": "changeColor",
			"outputs": [],
			"stateMutability": "nonpayable",
			"type": "function"
		},
		{
			"inputs": [],
			"name": "changeCounter",
			"outputs": [
				{
					"internalType": "uint256",
					"name": "",
					"type": "uint256"
				}
			],
			"stateMutability": "view",
			"type": "function"
		},
		{
			"inputs": [
				{
					"internalType": "uint256",
					"name": "tokenId",
					"type": "uint256"
				}
			],
			"name": "checkValueOfUints",
			"outputs": [
				{
					"internalType": "uint256",
					"name": "",
					"type": "uint256"
				}
			],
			"stateMutability": "view",
			"type": "function"
		},
		{
			"inputs": [
				{
					"internalType": "uint256",
					"name": "",
					"type": "uint256"
				}
			],
			"name": "colors",
			"outputs": [
				{
					"internalType": "bytes",
					"name": "",
					"type": "bytes"
				}
			],
			"stateMutability": "view",
			"type": "function"
		},
		{
			"inputs": [
				{
					"internalType": "uint256",
					"name": "tokenId",
					"type": "uint256"
				}
			],
			"name": "getApproved",
			"outputs": [
				{
					"internalType": "address",
					"name": "",
					"type": "address"
				}
			],
			"stateMutability": "view",
			"type": "function"
		},
		{
			"inputs": [],
			"name": "getCurrentStyles",
			"outputs": [
				{
					"internalType": "string",
					"name": "styles",
					"type": "string"
				}
			],
			"stateMutability": "view",
			"type": "function"
		},
		{
			"inputs": [
				{
					"internalType": "address",
					"name": "owner",
					"type": "address"
				},
				{
					"internalType": "address",
					"name": "operator",
					"type": "address"
				}
			],
			"name": "isApprovedForAll",
			"outputs": [
				{
					"internalType": "bool",
					"name": "",
					"type": "bool"
				}
			],
			"stateMutability": "view",
			"type": "function"
		},
		{
			"inputs": [
				{
					"internalType": "uint256",
					"name": "quantity",
					"type": "uint256"
				}
			],
			"name": "mint",
			"outputs": [],
			"stateMutability": "nonpayable",
			"type": "function"
		},
		{
			"inputs": [],
			"name": "name",
			"outputs": [
				{
					"internalType": "string",
					"name": "",
					"type": "string"
				}
			],
			"stateMutability": "view",
			"type": "function"
		},
		{
			"inputs": [],
			"name": "owner",
			"outputs": [
				{
					"internalType": "address",
					"name": "",
					"type": "address"
				}
			],
			"stateMutability": "view",
			"type": "function"
		},
		{
			"inputs": [
				{
					"internalType": "uint256",
					"name": "tokenId",
					"type": "uint256"
				}
			],
			"name": "ownerOf",
			"outputs": [
				{
					"internalType": "address",
					"name": "",
					"type": "address"
				}
			],
			"stateMutability": "view",
			"type": "function"
		},
		{
			"inputs": [
				{
					"internalType": "string",
					"name": "styles",
					"type": "string"
				}
			],
			"name": "renderSvg",
			"outputs": [
				{
					"internalType": "string",
					"name": "",
					"type": "string"
				}
			],
			"stateMutability": "pure",
			"type": "function"
		},
		{
			"inputs": [],
			"name": "renounceOwnership",
			"outputs": [],
			"stateMutability": "nonpayable",
			"type": "function"
		},
		{
			"inputs": [
				{
					"internalType": "uint256",
					"name": "_tokenId",
					"type": "uint256"
				},
				{
					"internalType": "uint256",
					"name": "_salePrice",
					"type": "uint256"
				}
			],
			"name": "royaltyInfo",
			"outputs": [
				{
					"internalType": "address",
					"name": "",
					"type": "address"
				},
				{
					"internalType": "uint256",
					"name": "",
					"type": "uint256"
				}
			],
			"stateMutability": "view",
			"type": "function"
		},
		{
			"inputs": [
				{
					"internalType": "address",
					"name": "from",
					"type": "address"
				},
				{
					"internalType": "address",
					"name": "to",
					"type": "address"
				},
				{
					"internalType": "uint256",
					"name": "tokenId",
					"type": "uint256"
				}
			],
			"name": "safeTransferFrom",
			"outputs": [],
			"stateMutability": "payable",
			"type": "function"
		},
		{
			"inputs": [
				{
					"internalType": "address",
					"name": "from",
					"type": "address"
				},
				{
					"internalType": "address",
					"name": "to",
					"type": "address"
				},
				{
					"internalType": "uint256",
					"name": "tokenId",
					"type": "uint256"
				},
				{
					"internalType": "bytes",
					"name": "_data",
					"type": "bytes"
				}
			],
			"name": "safeTransferFrom",
			"outputs": [],
			"stateMutability": "payable",
			"type": "function"
		},
		{
			"inputs": [
				{
					"internalType": "address",
					"name": "operator",
					"type": "address"
				},
				{
					"internalType": "bool",
					"name": "approved",
					"type": "bool"
				}
			],
			"name": "setApprovalForAll",
			"outputs": [],
			"stateMutability": "nonpayable",
			"type": "function"
		},
		{
			"inputs": [
				{
					"internalType": "address",
					"name": "contractAddress",
					"type": "address"
				}
			],
			"name": "setChangesContract",
			"outputs": [],
			"stateMutability": "nonpayable",
			"type": "function"
		},
		{
			"inputs": [
				{
					"internalType": "address",
					"name": "wallet",
					"type": "address"
				},
				{
					"internalType": "uint96",
					"name": "fee",
					"type": "uint96"
				}
			],
			"name": "setRoyalty",
			"outputs": [],
			"stateMutability": "nonpayable",
			"type": "function"
		},
		{
			"inputs": [
				{
					"internalType": "address",
					"name": "contractAddress",
					"type": "address"
				}
			],
			"name": "setUintsContract",
			"outputs": [],
			"stateMutability": "nonpayable",
			"type": "function"
		},
		{
			"inputs": [],
			"name": "startMint",
			"outputs": [],
			"stateMutability": "nonpayable",
			"type": "function"
		},
		{
			"inputs": [],
			"name": "stopPrivateMintTime",
			"outputs": [
				{
					"internalType": "uint64",
					"name": "",
					"type": "uint64"
				}
			],
			"stateMutability": "view",
			"type": "function"
		},
		{
			"inputs": [],
			"name": "stopPublicMintTime",
			"outputs": [
				{
					"internalType": "uint64",
					"name": "",
					"type": "uint64"
				}
			],
			"stateMutability": "view",
			"type": "function"
		},
		{
			"inputs": [
				{
					"internalType": "bytes4",
					"name": "interfaceId",
					"type": "bytes4"
				}
			],
			"name": "supportsInterface",
			"outputs": [
				{
					"internalType": "bool",
					"name": "",
					"type": "bool"
				}
			],
			"stateMutability": "view",
			"type": "function"
		},
		{
			"inputs": [],
			"name": "symbol",
			"outputs": [
				{
					"internalType": "string",
					"name": "",
					"type": "string"
				}
			],
			"stateMutability": "view",
			"type": "function"
		},
		{
			"inputs": [
				{
					"internalType": "uint256",
					"name": "tokenId",
					"type": "uint256"
				}
			],
			"name": "tokenURI",
			"outputs": [
				{
					"internalType": "string",
					"name": "result",
					"type": "string"
				}
			],
			"stateMutability": "view",
			"type": "function"
		},
		{
			"inputs": [],
			"name": "totalSupply",
			"outputs": [
				{
					"internalType": "uint256",
					"name": "",
					"type": "uint256"
				}
			],
			"stateMutability": "view",
			"type": "function"
		},
		{
			"inputs": [
				{
					"internalType": "address",
					"name": "from",
					"type": "address"
				},
				{
					"internalType": "address",
					"name": "to",
					"type": "address"
				},
				{
					"internalType": "uint256",
					"name": "tokenId",
					"type": "uint256"
				}
			],
			"name": "transferFrom",
			"outputs": [],
			"stateMutability": "payable",
			"type": "function"
		},
		{
			"inputs": [
				{
					"internalType": "address",
					"name": "newOwner",
					"type": "address"
				}
			],
			"name": "transferOwnership",
			"outputs": [],
			"stateMutability": "nonpayable",
			"type": "function"
		},
		{
			"inputs": [
				{
					"internalType": "uint256",
					"name": "",
					"type": "uint256"
				}
			],
			"name": "usedTokens",
			"outputs": [
				{
					"internalType": "bool",
					"name": "",
					"type": "bool"
				}
			],
			"stateMutability": "view",
			"type": "function"
		},
		{
			"inputs": [],
			"name": "withdraw",
			"outputs": [],
			"stateMutability": "nonpayable",
			"type": "function"
		}
	]
}