{
	"data": {
		"bytecode": {
			"linkReferences": {},
			"object": "61257a610053600b82828239805160001a607314610046577f4e487b7100000000000000000000000000000000000000000000000000000000600052600060045260246000fd5b30600052607381538281f3fe73000000000000000000000000000000000000000030146080604052600436106100355760003560e01c8063154680291461003a575b600080fd5b610054600480360381019061004f9190610a7c565b61006a565b6040516100619190610b3b565b60405180910390f35b606060405180610c400160405280610c19815260200161192c610c199139905060006100ad836000600381106100a3576100a2610b5d565b5b602002015161038c565b6100ce846001600381106100c4576100c3610b5d565b5b602002015161038c565b6100ef856002600381106100e5576100e4610b5d565b5b602002015161038c565b60405160200161010193929190610cac565b604051602081830303815290604052905060008403156103615760006101268561038c565b51905060006101358683610514565b905060018203610176578261014f6003836060015161064b565b604051602001610160929190610d09565b604051602081830303815290604052925061035e565b600282036101e7578261018e6002836040015161064b565b60405160200161019f929190610d09565b6040516020818303038152906040529250826101c06003836060015161064b565b6040516020016101d1929190610d09565b604051602081830303815290604052925061035d565b6003820361028a57826101ff6001836020015161064b565b604051602001610210929190610d09565b6040516020818303038152906040529250826102316002836040015161064b565b604051602001610242929190610d09565b6040516020818303038152906040529250826102636003836060015161064b565b604051602001610274929190610d09565b604051602081830303815290604052925061035c565b6004820361035b57826102a26000836000015161064b565b6040516020016102b3929190610d09565b6040516020818303038152906040529250826102d46001836020015161064b565b6040516020016102e5929190610d09565b6040516020818303038152906040529250826103066002836040015161064b565b604051602001610317929190610d09565b6040516020818303038152906040529250826103386003836060015161064b565b604051602001610349929190610d09565b60405160208183030381529060405292505b5b5b5b50505b8181604051602001610374929190610d79565b60405160208183030381529060405291505092915050565b6060600082036103d3576040518060400160405280600181526020017f3000000000000000000000000000000000000000000000000000000000000000815250905061050f565b600082905060005b600082146104055780806103ee90610dd7565b915050600a826103fe9190610e4e565b91506103db565b60008167ffffffffffffffff8111156104215761042061094b565b5b6040519080825280601f01601f1916602001820160405280156104535781602001600182028036833780820191505090505b50905060008290505b60008614610507576001816104719190610e7f565b90506000600a80886104839190610e4e565b61048d9190610eb3565b876104989190610e7f565b60306104a49190610f02565b905060008160f81b9050808484815181106104c2576104c1610b5d565b5b60200101907effffffffffffffffffffffffffffffffffffffffffffffffffffffffffffff1916908160001a905350600a886104fe9190610e4e565b9750505061045c565b819450505050505b919050565b61051c6108c8565b600182036105335782816060018181525050610645565b6002820361056c57600a836105489190610e4e565b816040018181525050600a8361055e9190610f37565b816060018181525050610644565b600382036105c7576064836105819190610e4e565b816020018181525050600a6064846105999190610f37565b6105a39190610e4e565b816040018181525050600a836105b99190610f37565b816060018181525050610643565b60048203610642576103e8836105dd9190610e4e565b81600001818152505060646103e8846105f69190610f37565b6106009190610e4e565b816020018181525050600a6064846106189190610f37565b6106229190610e4e565b816040018181525050600a836106389190610f37565b8160600181815250505b5b5b5b92915050565b606060006106588461038c565b9050600083036106945780818283848560405160200161067d9695949392919061117c565b6040516020818303038152906040529150506108c2565b600183036106c65780816040516020016106af9291906112a4565b6040516020818303038152906040529150506108c2565b600283036106fe5780818283846040516020016106e7959493929190611340565b6040516020818303038152906040529150506108c2565b6003830361073657808182838460405160200161071f9594939291906113f9565b6040516020818303038152906040529150506108c2565b6004830361076c578081828360405160200161075594939291906114b2565b6040516020818303038152906040529150506108c2565b600583036107a457808182838460405160200161078d959493929190611548565b6040516020818303038152906040529150506108c2565b600683036107de578081828384856040516020016107c796959493929190611601565b6040516020818303038152906040529150506108c2565b60078303610812578081826040516020016107fb939291906116dd565b6040516020818303038152906040529150506108c2565b6008830361084e57808182838485866040516020016108379796959493929190611750565b6040516020818303038152906040529150506108c2565b60098303610888578081828384856040516020016108719695949392919061184f565b6040516020818303038152906040529150506108c2565b6040518060400160405280600581526020017f6572726f720000000000000000000000000000000000000000000000000000008152509150505b92915050565b6040518060800160405280600081526020016000815260200160008152602001600081525090565b6000604051905090565b600080fd5b6000819050919050565b610912816108ff565b811461091d57600080fd5b50565b60008135905061092f81610909565b92915050565b600080fd5b6000601f19601f8301169050919050565b7f4e487b7100000000000000000000000000000000000000000000000000000000600052604160045260246000fd5b6109838261093a565b810181811067ffffffffffffffff821117156109a2576109a161094b565b5b80604052505050565b60006109b56108f0565b90506109c1828261097a565b919050565b600067ffffffffffffffff8211156109e1576109e061094b565b5b602082029050919050565b600080fd5b6000610a046109ff846109c6565b6109ab565b90508060208402830185811115610a1e57610a1d6109ec565b5b835b81811015610a475780610a338882610920565b845260208401935050602081019050610a20565b5050509392505050565b600082601f830112610a6657610a65610935565b5b6003610a738482856109f1565b91505092915050565b60008060808385031215610a9357610a926108fa565b5b6000610aa185828601610920565b9250506020610ab285828601610a51565b9150509250929050565b600081519050919050565b600082825260208201905092915050565b60005b83811015610af6578082015181840152602081019050610adb565b60008484015250505050565b6000610b0d82610abc565b610b178185610ac7565b9350610b27818560208601610ad8565b610b308161093a565b840191505092915050565b60006020820190508181036000830152610b558184610b02565b905092915050565b7f4e487b7100000000000000000000000000000000000000000000000000000000600052603260045260246000fd5b600081905092915050565b7f2a7b66696c6c3a72676228000000000000000000000000000000000000000000600082015250565b6000610bcd600b83610b8c565b9150610bd882610b97565b600b82019050919050565b6000610bee82610abc565b610bf88185610b8c565b9350610c08818560208601610ad8565b80840191505092915050565b7f2c00000000000000000000000000000000000000000000000000000000000000600082015250565b6000610c4a600183610b8c565b9150610c5582610c14565b600182019050919050565b7f297d2362677b66696c6c3a233043304330437d00000000000000000000000000600082015250565b6000610c96601383610b8c565b9150610ca182610c60565b601382019050919050565b6000610cb782610bc0565b9150610cc38286610be3565b9150610cce82610c3d565b9150610cda8285610be3565b9150610ce582610c3d565b9150610cf18284610be3565b9150610cfc82610c89565b9150819050949350505050565b6000610d158285610be3565b9150610d218284610be3565b91508190509392505050565b7f3c2f7374796c653e3c2f7376673e000000000000000000000000000000000000600082015250565b6000610d63600e83610b8c565b9150610d6e82610d2d565b600e82019050919050565b6000610d858285610be3565b9150610d918284610be3565b9150610d9c82610d56565b91508190509392505050565b7f4e487b7100000000000000000000000000000000000000000000000000000000600052601160045260246000fd5b6000610de2826108ff565b91507fffffffffffffffffffffffffffffffffffffffffffffffffffffffffffffffff8203610e1457610e13610da8565b5b600182019050919050565b7f4e487b7100000000000000000000000000000000000000000000000000000000600052601260045260246000fd5b6000610e59826108ff565b9150610e64836108ff565b925082610e7457610e73610e1f565b5b828204905092915050565b6000610e8a826108ff565b9150610e95836108ff565b9250828203905081811115610ead57610eac610da8565b5b92915050565b6000610ebe826108ff565b9150610ec9836108ff565b9250828202610ed7816108ff565b91508282048414831517610eee57610eed610da8565b5b5092915050565b600060ff82169050919050565b6000610f0d82610ef5565b9150610f1883610ef5565b9250828201905060ff811115610f3157610f30610da8565b5b92915050565b6000610f42826108ff565b9150610f4d836108ff565b925082610f5d57610f5c610e1f565b5b828206905092915050565b7f2370000000000000000000000000000000000000000000000000000000000000600082015250565b6000610f9e600283610b8c565b9150610fa982610f68565b600282019050919050565b7f312c000000000000000000000000000000000000000000000000000000000000600082015250565b6000610fea600283610b8c565b9150610ff582610fb4565b600282019050919050565b7f322c000000000000000000000000000000000000000000000000000000000000600082015250565b6000611036600283610b8c565b915061104182611000565b600282019050919050565b7f332c000000000000000000000000000000000000000000000000000000000000600082015250565b6000611082600283610b8c565b915061108d8261104c565b600282019050919050565b7f352c000000000000000000000000000000000000000000000000000000000000600082015250565b60006110ce600283610b8c565b91506110d982611098565b600282019050919050565b7f362c000000000000000000000000000000000000000000000000000000000000600082015250565b600061111a600283610b8c565b9150611125826110e4565b600282019050919050565b7f37207b66696c6c2d6f7061636974793a317d0000000000000000000000000000600082015250565b6000611166601283610b8c565b915061117182611130565b601282019050919050565b600061118782610f91565b91506111938289610be3565b915061119e82610fdd565b91506111a982610f91565b91506111b58288610be3565b91506111c082611029565b91506111cb82610f91565b91506111d78287610be3565b91506111e282611075565b91506111ed82610f91565b91506111f98286610be3565b9150611204826110c1565b915061120f82610f91565b915061121b8285610be3565b91506112268261110d565b915061123182610f91565b915061123d8284610be3565b915061124882611159565b9150819050979650505050505050565b7f36207b66696c6c2d6f7061636974793a317d0000000000000000000000000000600082015250565b600061128e601283610b8c565b915061129982611258565b601282019050919050565b60006112af82610f91565b91506112bb8285610be3565b91506112c682611075565b91506112d182610f91565b91506112dd8284610be3565b91506112e882611281565b91508190509392505050565b7f342c000000000000000000000000000000000000000000000000000000000000600082015250565b600061132a600283610b8c565b9150611335826112f4565b600282019050919050565b600061134b82610f91565b91506113578288610be3565b915061136282610fdd565b915061136d82610f91565b91506113798287610be3565b915061138482611075565b915061138f82610f91565b915061139b8286610be3565b91506113a68261131d565b91506113b182610f91565b91506113bd8285610be3565b91506113c8826110c1565b91506113d382610f91565b91506113df8284610be3565b91506113ea82611159565b91508190509695505050505050565b600061140482610f91565b91506114108288610be3565b915061141b82610fdd565b915061142682610f91565b91506114328287610be3565b915061143d82611075565b915061144882610f91565b91506114548286610be3565b915061145f8261131d565b915061146a82610f91565b91506114768285610be3565b91506114818261110d565b915061148c82610f91565b91506114988284610be3565b91506114a382611159565b91508190509695505050505050565b60006114bd82610f91565b91506114c98287610be3565b91506114d482611029565b91506114df82610f91565b91506114eb8286610be3565b91506114f682611075565b915061150182610f91565b915061150d8285610be3565b91506115188261131d565b915061152382610f91565b915061152f8284610be3565b915061153a82611281565b915081905095945050505050565b600061155382610f91565b915061155f8288610be3565b915061156a82610fdd565b915061157582610f91565b91506115818287610be3565b915061158c82611029565b915061159782610f91565b91506115a38286610be3565b91506115ae8261131d565b91506115b982610f91565b91506115c58285610be3565b91506115d08261110d565b91506115db82610f91565b91506115e78284610be3565b91506115f282611159565b91508190509695505050505050565b600061160c82610f91565b91506116188289610be3565b915061162382610fdd565b915061162e82610f91565b915061163a8288610be3565b915061164582611029565b915061165082610f91565b915061165c8287610be3565b91506116678261131d565b915061167282610f91565b915061167e8286610be3565b9150611689826110c1565b915061169482610f91565b91506116a08285610be3565b91506116ab8261110d565b91506116b682610f91565b91506116c28284610be3565b91506116cd82611159565b9150819050979650505050505050565b60006116e882610f91565b91506116f48286610be3565b91506116ff82610fdd565b915061170a82610f91565b91506117168285610be3565b915061172182611075565b915061172c82610f91565b91506117388284610be3565b915061174382611281565b9150819050949350505050565b600061175b82610f91565b9150611767828a610be3565b915061177282610fdd565b915061177d82610f91565b91506117898289610be3565b915061179482611029565b915061179f82610f91565b91506117ab8288610be3565b91506117b682611075565b91506117c182610f91565b91506117cd8287610be3565b91506117d88261131d565b91506117e382610f91565b91506117ef8286610be3565b91506117fa826110c1565b915061180582610f91565b91506118118285610be3565b915061181c8261110d565b915061182782610f91565b91506118338284610be3565b915061183e82611159565b915081905098975050505050505050565b600061185a82610f91565b91506118668289610be3565b915061187182610fdd565b915061187c82610f91565b91506118888288610be3565b915061189382611029565b915061189e82610f91565b91506118aa8287610be3565b91506118b582611075565b91506118c082610f91565b91506118cc8286610be3565b91506118d78261131d565b91506118e282610f91565b91506118ee8285610be3565b91506118f98261110d565b915061190482610f91565b91506119108284610be3565b915061191b82611159565b915081905097965050505050505056fe3c7376672076696577426f783d223020302033303020333030222066696c6c3d226e6f6e652220786d6c6e733d22687474703a2f2f7777772e77332e6f72672f323030302f737667223e3c726563742069643d226267222077696474683d2233303022206865696768743d22333030222066696c6c3d2223304330433043222f3e3c706174682069643d227030312220643d224d313030203131394c313033203132324c313030203132354c3830203132354c3737203132324c3830203131394c313030203131395a222066696c6c3d227768697465222066696c6c2d6f7061636974793d22302e3035222f3e3c706174682069643d227030322220643d224d3733203132364c3736203132334c373920313236563134364c3736203134394c373320313436563132365a222066696c6c3d227768697465222066696c6c2d6f7061636974793d22302e3035222f3e3c706174682069643d227030332220643d224d313031203132364c313034203132334c31303720313236563134364c313034203134394c31303120313436563132365a222066696c6c3d227768697465222066696c6c2d6f7061636974793d22302e3035222f3e3c706174682069643d227030342220643d224d313030203134374c313033203135304c313030203135334c3830203135334c3737203135304c3830203134374c313030203134375a222066696c6c3d227768697465222066696c6c2d6f7061636974793d22302e3035222f3e3c706174682069643d227030352220643d224d3733203135344c3736203135314c373920313534563137344c3736203137374c373320313734563135345a222066696c6c3d227768697465222066696c6c2d6f7061636974793d22302e3035222f3e3c706174682069643d227030362220643d224d313031203135344c313034203135314c31303720313534563137344c313034203137374c31303120313734563135345a222066696c6c3d227768697465222066696c6c2d6f7061636974793d22302e3035222f3e3c706174682069643d227030372220643d224d313030203137354c313033203137384c313030203138314c3830203138314c3737203137384c3830203137354c313030203137355a222066696c6c3d227768697465222066696c6c2d6f7061636974793d22302e3035222f3e3c706174682069643d227031312220643d224d313430203131394c313433203132324c313430203132354c313230203132354c313137203132324c313230203131394c313430203131395a222066696c6c3d227768697465222066696c6c2d6f7061636974793d22302e3035222f3e3c706174682069643d227031322220643d224d313133203132364c313136203132334c31313920313236563134364c313136203134394c31313320313436563132365a222066696c6c3d227768697465222066696c6c2d6f7061636974793d22302e3035222f3e3c706174682069643d227031332220643d224d313431203132364c313434203132334c31343720313236563134364c313434203134394c31343120313436563132365a222066696c6c3d227768697465222066696c6c2d6f7061636974793d22302e3035222f3e3c706174682069643d227031342220643d224d313430203134374c313433203135304c313430203135334c313230203135334c313137203135304c313230203134374c313430203134375a222066696c6c3d227768697465222066696c6c2d6f7061636974793d22302e3035222f3e3c706174682069643d227031352220643d224d313133203135344c313136203135314c31313920313534563137344c313136203137374c31313320313734563135345a222066696c6c3d227768697465222066696c6c2d6f7061636974793d22302e3035222f3e3c706174682069643d227031362220643d224d313431203135344c313434203135314c31343720313534563137344c313434203137374c31343120313734563135345a222066696c6c3d227768697465222066696c6c2d6f7061636974793d22302e3035222f3e3c706174682069643d227031372220643d224d313430203137354c313433203137384c313430203138314c313230203138314c313137203137384c313230203137354c313430203137355a222066696c6c3d227768697465222066696c6c2d6f7061636974793d22302e3035222f3e3c706174682069643d227032312220643d224d313830203131394c313833203132324c313830203132354c313630203132354c313537203132324c313630203131394c313830203131395a222066696c6c3d227768697465222066696c6c2d6f7061636974793d22302e3035222f3e3c706174682069643d227032322220643d224d313533203132364c313536203132334c31353920313236563134364c313536203134394c31353320313436563132365a222066696c6c3d227768697465222066696c6c2d6f7061636974793d22302e3035222f3e3c706174682069643d227032332220643d224d313831203132364c313834203132334c31383720313236563134364c313834203134394c31383120313436563132365a222066696c6c3d227768697465222066696c6c2d6f7061636974793d22302e3035222f3e3c706174682069643d227032342220643d224d313830203134374c313833203135304c313830203135334c313630203135334c313537203135304c313630203134374c313830203134375a222066696c6c3d227768697465222066696c6c2d6f7061636974793d22302e3035222f3e3c706174682069643d227032352220643d224d313533203135344c313536203135314c31353920313534563137344c313536203137374c31353320313734563135345a222066696c6c3d227768697465222066696c6c2d6f7061636974793d22302e3035222f3e3c706174682069643d227032362220643d224d313831203135344c313834203135314c31383720313534563137344c313834203137374c31383120313734563135345a222066696c6c3d227768697465222066696c6c2d6f7061636974793d22302e3035222f3e3c706174682069643d227032372220643d224d313830203137354c313833203137384c313830203138314c313630203138314c313537203137384c313630203137354c313830203137355a222066696c6c3d227768697465222066696c6c2d6f7061636974793d22302e3035222f3e3c706174682069643d227033312220643d224d323230203131394c323233203132324c323230203132354c323030203132354c313937203132324c323030203131394c323230203131395a222066696c6c3d227768697465222066696c6c2d6f7061636974793d22302e3035222f3e3c706174682069643d227033322220643d224d313933203132364c313936203132334c31393920313236563134364c313936203134394c31393320313436563132365a222066696c6c3d227768697465222066696c6c2d6f7061636974793d22302e3035222f3e3c706174682069643d227033332220643d224d323231203132364c323234203132334c32323720313236563134364c323234203134394c32323120313436563132365a222066696c6c3d227768697465222066696c6c2d6f7061636974793d22302e3035222f3e3c706174682069643d227033342220643d224d323230203134374c323233203135304c323230203135334c323030203135334c313937203135304c323030203134374c323230203134375a222066696c6c3d227768697465222066696c6c2d6f7061636974793d22302e3035222f3e3c706174682069643d227033352220643d224d313933203135344c313936203135314c31393920313534563137344c313936203137374c31393320313734563135345a222066696c6c3d227768697465222066696c6c2d6f7061636974793d22302e3035222f3e3c706174682069643d227033362220643d224d323231203135344c323234203135314c32323720313534563137344c323234203137374c32323120313734563135345a222066696c6c3d227768697465222066696c6c2d6f7061636974793d22302e3035222f3e3c706174682069643d227033372220643d224d323230203137354c323233203137384c323230203138314c323030203138314c313937203137384c323030203137354c323230203137355a222066696c6c3d227768697465222066696c6c2d6f7061636974793d22302e3035222f3e3c7374796c653ea2646970667358221220580216207fddcc61e6df6705d6e009ce0ee96f122403f59768db84001be0b62764736f6c63430008120033",
			"opcodes": "PUSH2 0x257A PUSH2 0x53 PUSH1 0xB DUP3 DUP3 DUP3 CODECOPY DUP1 MLOAD PUSH1 0x0 BYTE PUSH1 0x73 EQ PUSH2 0x46 JUMPI PUSH32 0x4E487B7100000000000000000000000000000000000000000000000000000000 PUSH1 0x0 MSTORE PUSH1 0x0 PUSH1 0x4 MSTORE PUSH1 0x24 PUSH1 0x0 REVERT JUMPDEST ADDRESS PUSH1 0x0 MSTORE PUSH1 0x73 DUP2 MSTORE8 DUP3 DUP2 RETURN INVALID PUSH20 0x0 ADDRESS EQ PUSH1 0x80 PUSH1 0x40 MSTORE PUSH1 0x4 CALLDATASIZE LT PUSH2 0x35 JUMPI PUSH1 0x0 CALLDATALOAD PUSH1 0xE0 SHR DUP1 PUSH4 0x15468029 EQ PUSH2 0x3A JUMPI JUMPDEST PUSH1 0x0 DUP1 REVERT JUMPDEST PUSH2 0x54 PUSH1 0x4 DUP1 CALLDATASIZE SUB DUP2 ADD SWAP1 PUSH2 0x4F SWAP2 SWAP1 PUSH2 0xA7C JUMP JUMPDEST PUSH2 0x6A JUMP JUMPDEST PUSH1 0x40 MLOAD PUSH2 0x61 SWAP2 SWAP1 PUSH2 0xB3B JUMP JUMPDEST PUSH1 0x40 MLOAD DUP1 SWAP2 SUB SWAP1 RETURN JUMPDEST PUSH1 0x60 PUSH1 0x40 MLOAD DUP1 PUSH2 0xC40 ADD PUSH1 0x40 MSTORE DUP1 PUSH2 0xC19 DUP2 MSTORE PUSH1 0x20 ADD PUSH2 0x192C PUSH2 0xC19 SWAP2 CODECOPY SWAP1 POP PUSH1 0x0 PUSH2 0xAD DUP4 PUSH1 0x0 PUSH1 0x3 DUP2 LT PUSH2 0xA3 JUMPI PUSH2 0xA2 PUSH2 0xB5D JUMP JUMPDEST JUMPDEST PUSH1 0x20 MUL ADD MLOAD PUSH2 0x38C JUMP JUMPDEST PUSH2 0xCE DUP5 PUSH1 0x1 PUSH1 0x3 DUP2 LT PUSH2 0xC4 JUMPI PUSH2 0xC3 PUSH2 0xB5D JUMP JUMPDEST JUMPDEST PUSH1 0x20 MUL ADD MLOAD PUSH2 0x38C JUMP JUMPDEST PUSH2 0xEF DUP6 PUSH1 0x2 PUSH1 0x3 DUP2 LT PUSH2 0xE5 JUMPI PUSH2 0xE4 PUSH2 0xB5D JUMP JUMPDEST JUMPDEST PUSH1 0x20 MUL ADD MLOAD PUSH2 0x38C JUMP JUMPDEST PUSH1 0x40 MLOAD PUSH1 0x20 ADD PUSH2 0x101 SWAP4 SWAP3 SWAP2 SWAP1 PUSH2 0xCAC JUMP JUMPDEST PUSH1 0x40 MLOAD PUSH1 0x20 DUP2 DUP4 SUB SUB DUP2 MSTORE SWAP1 PUSH1 0x40 MSTORE SWAP1 POP PUSH1 0x0 DUP5 SUB ISZERO PUSH2 0x361 JUMPI PUSH1 0x0 PUSH2 0x126 DUP6 PUSH2 0x38C JUMP JUMPDEST MLOAD SWAP1 POP PUSH1 0x0 PUSH2 0x135 DUP7 DUP4 PUSH2 0x514 JUMP JUMPDEST SWAP1 POP PUSH1 0x1 DUP3 SUB PUSH2 0x176 JUMPI DUP3 PUSH2 0x14F PUSH1 0x3 DUP4 PUSH1 0x60 ADD MLOAD PUSH2 0x64B JUMP JUMPDEST PUSH1 0x40 MLOAD PUSH1 0x20 ADD PUSH2 0x160 SWAP3 SWAP2 SWAP1 PUSH2 0xD09 JUMP JUMPDEST PUSH1 0x40 MLOAD PUSH1 0x20 DUP2 DUP4 SUB SUB DUP2 MSTORE SWAP1 PUSH1 0x40 MSTORE SWAP3 POP PUSH2 0x35E JUMP JUMPDEST PUSH1 0x2 DUP3 SUB PUSH2 0x1E7 JUMPI DUP3 PUSH2 0x18E PUSH1 0x2 DUP4 PUSH1 0x40 ADD MLOAD PUSH2 0x64B JUMP JUMPDEST PUSH1 0x40 MLOAD PUSH1 0x20 ADD PUSH2 0x19F SWAP3 SWAP2 SWAP1 PUSH2 0xD09 JUMP JUMPDEST PUSH1 0x40 MLOAD PUSH1 0x20 DUP2 DUP4 SUB SUB DUP2 MSTORE SWAP1 PUSH1 0x40 MSTORE SWAP3 POP DUP3 PUSH2 0x1C0 PUSH1 0x3 DUP4 PUSH1 0x60 ADD MLOAD PUSH2 0x64B JUMP JUMPDEST PUSH1 0x40 MLOAD PUSH1 0x20 ADD PUSH2 0x1D1 SWAP3 SWAP2 SWAP1 PUSH2 0xD09 JUMP JUMPDEST PUSH1 0x40 MLOAD PUSH1 0x20 DUP2 DUP4 SUB SUB DUP2 MSTORE SWAP1 PUSH1 0x40 MSTORE SWAP3 POP PUSH2 0x35D JUMP JUMPDEST PUSH1 0x3 DUP3 SUB PUSH2 0x28A JUMPI DUP3 PUSH2 0x1FF PUSH1 0x1 DUP4 PUSH1 0x20 ADD MLOAD PUSH2 0x64B JUMP JUMPDEST PUSH1 0x40 MLOAD PUSH1 0x20 ADD PUSH2 0x210 SWAP3 SWAP2 SWAP1 PUSH2 0xD09 JUMP JUMPDEST PUSH1 0x40 MLOAD PUSH1 0x20 DUP2 DUP4 SUB SUB DUP2 MSTORE SWAP1 PUSH1 0x40 MSTORE SWAP3 POP DUP3 PUSH2 0x231 PUSH1 0x2 DUP4 PUSH1 0x40 ADD MLOAD PUSH2 0x64B JUMP JUMPDEST PUSH1 0x40 MLOAD PUSH1 0x20 ADD PUSH2 0x242 SWAP3 SWAP2 SWAP1 PUSH2 0xD09 JUMP JUMPDEST PUSH1 0x40 MLOAD PUSH1 0x20 DUP2 DUP4 SUB SUB DUP2 MSTORE SWAP1 PUSH1 0x40 MSTORE SWAP3 POP DUP3 PUSH2 0x263 PUSH1 0x3 DUP4 PUSH1 0x60 ADD MLOAD PUSH2 0x64B JUMP JUMPDEST PUSH1 0x40 MLOAD PUSH1 0x20 ADD PUSH2 0x274 SWAP3 SWAP2 SWAP1 PUSH2 0xD09 JUMP JUMPDEST PUSH1 0x40 MLOAD PUSH1 0x20 DUP2 DUP4 SUB SUB DUP2 MSTORE SWAP1 PUSH1 0x40 MSTORE SWAP3 POP PUSH2 0x35C JUMP JUMPDEST PUSH1 0x4 DUP3 SUB PUSH2 0x35B JUMPI DUP3 PUSH2 0x2A2 PUSH1 0x0 DUP4 PUSH1 0x0 ADD MLOAD PUSH2 0x64B JUMP JUMPDEST PUSH1 0x40 MLOAD PUSH1 0x20 ADD PUSH2 0x2B3 SWAP3 SWAP2 SWAP1 PUSH2 0xD09 JUMP JUMPDEST PUSH1 0x40 MLOAD PUSH1 0x20 DUP2 DUP4 SUB SUB DUP2 MSTORE SWAP1 PUSH1 0x40 MSTORE SWAP3 POP DUP3 PUSH2 0x2D4 PUSH1 0x1 DUP4 PUSH1 0x20 ADD MLOAD PUSH2 0x64B JUMP JUMPDEST PUSH1 0x40 MLOAD PUSH1 0x20 ADD PUSH2 0x2E5 SWAP3 SWAP2 SWAP1 PUSH2 0xD09 JUMP JUMPDEST PUSH1 0x40 MLOAD PUSH1 0x20 DUP2 DUP4 SUB SUB DUP2 MSTORE SWAP1 PUSH1 0x40 MSTORE SWAP3 POP DUP3 PUSH2 0x306 PUSH1 0x2 DUP4 PUSH1 0x40 ADD MLOAD PUSH2 0x64B JUMP JUMPDEST PUSH1 0x40 MLOAD PUSH1 0x20 ADD PUSH2 0x317 SWAP3 SWAP2 SWAP1 PUSH2 0xD09 JUMP JUMPDEST PUSH1 0x40 MLOAD PUSH1 0x20 DUP2 DUP4 SUB SUB DUP2 MSTORE SWAP1 PUSH1 0x40 MSTORE SWAP3 POP DUP3 PUSH2 0x338 PUSH1 0x3 DUP4 PUSH1 0x60 ADD MLOAD PUSH2 0x64B JUMP JUMPDEST PUSH1 0x40 MLOAD PUSH1 0x20 ADD PUSH2 0x349 SWAP3 SWAP2 SWAP1 PUSH2 0xD09 JUMP JUMPDEST PUSH1 0x40 MLOAD PUSH1 0x20 DUP2 DUP4 SUB SUB DUP2 MSTORE SWAP1 PUSH1 0x40 MSTORE SWAP3 POP JUMPDEST JUMPDEST JUMPDEST JUMPDEST POP POP JUMPDEST DUP2 DUP2 PUSH1 0x40 MLOAD PUSH1 0x20 ADD PUSH2 0x374 SWAP3 SWAP2 SWAP1 PUSH2 0xD79 JUMP JUMPDEST PUSH1 0x40 MLOAD PUSH1 0x20 DUP2 DUP4 SUB SUB DUP2 MSTORE SWAP1 PUSH1 0x40 MSTORE SWAP2 POP POP SWAP3 SWAP2 POP POP JUMP JUMPDEST PUSH1 0x60 PUSH1 0x0 DUP3 SUB PUSH2 0x3D3 JUMPI PUSH1 0x40 MLOAD DUP1 PUSH1 0x40 ADD PUSH1 0x40 MSTORE DUP1 PUSH1 0x1 DUP2 MSTORE PUSH1 0x20 ADD PUSH32 0x3000000000000000000000000000000000000000000000000000000000000000 DUP2 MSTORE POP SWAP1 POP PUSH2 0x50F JUMP JUMPDEST PUSH1 0x0 DUP3 SWAP1 POP PUSH1 0x0 JUMPDEST PUSH1 0x0 DUP3 EQ PUSH2 0x405 JUMPI DUP1 DUP1 PUSH2 0x3EE SWAP1 PUSH2 0xDD7 JUMP JUMPDEST SWAP2 POP POP PUSH1 0xA DUP3 PUSH2 0x3FE SWAP2 SWAP1 PUSH2 0xE4E JUMP JUMPDEST SWAP2 POP PUSH2 0x3DB JUMP JUMPDEST PUSH1 0x0 DUP2 PUSH8 0xFFFFFFFFFFFFFFFF DUP2 GT ISZERO PUSH2 0x421 JUMPI PUSH2 0x420 PUSH2 0x94B JUMP JUMPDEST JUMPDEST PUSH1 0x40 MLOAD SWAP1 DUP1 DUP3 MSTORE DUP1 PUSH1 0x1F ADD PUSH1 0x1F NOT AND PUSH1 0x20 ADD DUP3 ADD PUSH1 0x40 MSTORE DUP1 ISZERO PUSH2 0x453 JUMPI DUP2 PUSH1 0x20 ADD PUSH1 0x1 DUP3 MUL DUP1 CALLDATASIZE DUP4 CALLDATACOPY DUP1 DUP3 ADD SWAP2 POP POP SWAP1 POP JUMPDEST POP SWAP1 POP PUSH1 0x0 DUP3 SWAP1 POP JUMPDEST PUSH1 0x0 DUP7 EQ PUSH2 0x507 JUMPI PUSH1 0x1 DUP2 PUSH2 0x471 SWAP2 SWAP1 PUSH2 0xE7F JUMP JUMPDEST SWAP1 POP PUSH1 0x0 PUSH1 0xA DUP1 DUP9 PUSH2 0x483 SWAP2 SWAP1 PUSH2 0xE4E JUMP JUMPDEST PUSH2 0x48D SWAP2 SWAP1 PUSH2 0xEB3 JUMP JUMPDEST DUP8 PUSH2 0x498 SWAP2 SWAP1 PUSH2 0xE7F JUMP JUMPDEST PUSH1 0x30 PUSH2 0x4A4 SWAP2 SWAP1 PUSH2 0xF02 JUMP JUMPDEST SWAP1 POP PUSH1 0x0 DUP2 PUSH1 0xF8 SHL SWAP1 POP DUP1 DUP5 DUP5 DUP2 MLOAD DUP2 LT PUSH2 0x4C2 JUMPI PUSH2 0x4C1 PUSH2 0xB5D JUMP JUMPDEST JUMPDEST PUSH1 0x20 ADD ADD SWAP1 PUSH31 0xFFFFFFFFFFFFFFFFFFFFFFFFFFFFFFFFFFFFFFFFFFFFFFFFFFFFFFFFFFFFFF NOT AND SWAP1 DUP2 PUSH1 0x0 BYTE SWAP1 MSTORE8 POP PUSH1 0xA DUP9 PUSH2 0x4FE SWAP2 SWAP1 PUSH2 0xE4E JUMP JUMPDEST SWAP8 POP POP POP PUSH2 0x45C JUMP JUMPDEST DUP2 SWAP5 POP POP POP POP POP JUMPDEST SWAP2 SWAP1 POP JUMP JUMPDEST PUSH2 0x51C PUSH2 0x8C8 JUMP JUMPDEST PUSH1 0x1 DUP3 SUB PUSH2 0x533 JUMPI DUP3 DUP2 PUSH1 0x60 ADD DUP2 DUP2 MSTORE POP POP PUSH2 0x645 JUMP JUMPDEST PUSH1 0x2 DUP3 SUB PUSH2 0x56C JUMPI PUSH1 0xA DUP4 PUSH2 0x548 SWAP2 SWAP1 PUSH2 0xE4E JUMP JUMPDEST DUP2 PUSH1 0x40 ADD DUP2 DUP2 MSTORE POP POP PUSH1 0xA DUP4 PUSH2 0x55E SWAP2 SWAP1 PUSH2 0xF37 JUMP JUMPDEST DUP2 PUSH1 0x60 ADD DUP2 DUP2 MSTORE POP POP PUSH2 0x644 JUMP JUMPDEST PUSH1 0x3 DUP3 SUB PUSH2 0x5C7 JUMPI PUSH1 0x64 DUP4 PUSH2 0x581 SWAP2 SWAP1 PUSH2 0xE4E JUMP JUMPDEST DUP2 PUSH1 0x20 ADD DUP2 DUP2 MSTORE POP POP PUSH1 0xA PUSH1 0x64 DUP5 PUSH2 0x599 SWAP2 SWAP1 PUSH2 0xF37 JUMP JUMPDEST PUSH2 0x5A3 SWAP2 SWAP1 PUSH2 0xE4E JUMP JUMPDEST DUP2 PUSH1 0x40 ADD DUP2 DUP2 MSTORE POP POP PUSH1 0xA DUP4 PUSH2 0x5B9 SWAP2 SWAP1 PUSH2 0xF37 JUMP JUMPDEST DUP2 PUSH1 0x60 ADD DUP2 DUP2 MSTORE POP POP PUSH2 0x643 JUMP JUMPDEST PUSH1 0x4 DUP3 SUB PUSH2 0x642 JUMPI PUSH2 0x3E8 DUP4 PUSH2 0x5DD SWAP2 SWAP1 PUSH2 0xE4E JUMP JUMPDEST DUP2 PUSH1 0x0 ADD DUP2 DUP2 MSTORE POP POP PUSH1 0x64 PUSH2 0x3E8 DUP5 PUSH2 0x5F6 SWAP2 SWAP1 PUSH2 0xF37 JUMP JUMPDEST PUSH2 0x600 SWAP2 SWAP1 PUSH2 0xE4E JUMP JUMPDEST DUP2 PUSH1 0x20 ADD DUP2 DUP2 MSTORE POP POP PUSH1 0xA PUSH1 0x64 DUP5 PUSH2 0x618 SWAP2 SWAP1 PUSH2 0xF37 JUMP JUMPDEST PUSH2 0x622 SWAP2 SWAP1 PUSH2 0xE4E JUMP JUMPDEST DUP2 PUSH1 0x40 ADD DUP2 DUP2 MSTORE POP POP PUSH1 0xA DUP4 PUSH2 0x638 SWAP2 SWAP1 PUSH2 0xF37 JUMP JUMPDEST DUP2 PUSH1 0x60 ADD DUP2 DUP2 MSTORE POP POP JUMPDEST JUMPDEST JUMPDEST JUMPDEST SWAP3 SWAP2 POP POP JUMP JUMPDEST PUSH1 0x60 PUSH1 0x0 PUSH2 0x658 DUP5 PUSH2 0x38C JUMP JUMPDEST SWAP1 POP PUSH1 0x0 DUP4 SUB PUSH2 0x694 JUMPI DUP1 DUP2 DUP3 DUP4 DUP5 DUP6 PUSH1 0x40 MLOAD PUSH1 0x20 ADD PUSH2 0x67D SWAP7 SWAP6 SWAP5 SWAP4 SWAP3 SWAP2 SWAP1 PUSH2 0x117C JUMP JUMPDEST PUSH1 0x40 MLOAD PUSH1 0x20 DUP2 DUP4 SUB SUB DUP2 MSTORE SWAP1 PUSH1 0x40 MSTORE SWAP2 POP POP PUSH2 0x8C2 JUMP JUMPDEST PUSH1 0x1 DUP4 SUB PUSH2 0x6C6 JUMPI DUP1 DUP2 PUSH1 0x40 MLOAD PUSH1 0x20 ADD PUSH2 0x6AF SWAP3 SWAP2 SWAP1 PUSH2 0x12A4 JUMP JUMPDEST PUSH1 0x40 MLOAD PUSH1 0x20 DUP2 DUP4 SUB SUB DUP2 MSTORE SWAP1 PUSH1 0x40 MSTORE SWAP2 POP POP PUSH2 0x8C2 JUMP JUMPDEST PUSH1 0x2 DUP4 SUB PUSH2 0x6FE JUMPI DUP1 DUP2 DUP3 DUP4 DUP5 PUSH1 0x40 MLOAD PUSH1 0x20 ADD PUSH2 0x6E7 SWAP6 SWAP5 SWAP4 SWAP3 SWAP2 SWAP1 PUSH2 0x1340 JUMP JUMPDEST PUSH1 0x40 MLOAD PUSH1 0x20 DUP2 DUP4 SUB SUB DUP2 MSTORE SWAP1 PUSH1 0x40 MSTORE SWAP2 POP POP PUSH2 0x8C2 JUMP JUMPDEST PUSH1 0x3 DUP4 SUB PUSH2 0x736 JUMPI DUP1 DUP2 DUP3 DUP4 DUP5 PUSH1 0x40 MLOAD PUSH1 0x20 ADD PUSH2 0x71F SWAP6 SWAP5 SWAP4 SWAP3 SWAP2 SWAP1 PUSH2 0x13F9 JUMP JUMPDEST PUSH1 0x40 MLOAD PUSH1 0x20 DUP2 DUP4 SUB SUB DUP2 MSTORE SWAP1 PUSH1 0x40 MSTORE SWAP2 POP POP PUSH2 0x8C2 JUMP JUMPDEST PUSH1 0x4 DUP4 SUB PUSH2 0x76C JUMPI DUP1 DUP2 DUP3 DUP4 PUSH1 0x40 MLOAD PUSH1 0x20 ADD PUSH2 0x755 SWAP5 SWAP4 SWAP3 SWAP2 SWAP1 PUSH2 0x14B2 JUMP JUMPDEST PUSH1 0x40 MLOAD PUSH1 0x20 DUP2 DUP4 SUB SUB DUP2 MSTORE SWAP1 PUSH1 0x40 MSTORE SWAP2 POP POP PUSH2 0x8C2 JUMP JUMPDEST PUSH1 0x5 DUP4 SUB PUSH2 0x7A4 JUMPI DUP1 DUP2 DUP3 DUP4 DUP5 PUSH1 0x40 MLOAD PUSH1 0x20 ADD PUSH2 0x78D SWAP6 SWAP5 SWAP4 SWAP3 SWAP2 SWAP1 PUSH2 0x1548 JUMP JUMPDEST PUSH1 0x40 MLOAD PUSH1 0x20 DUP2 DUP4 SUB SUB DUP2 MSTORE SWAP1 PUSH1 0x40 MSTORE SWAP2 POP POP PUSH2 0x8C2 JUMP JUMPDEST PUSH1 0x6 DUP4 SUB PUSH2 0x7DE JUMPI DUP1 DUP2 DUP3 DUP4 DUP5 DUP6 PUSH1 0x40 MLOAD PUSH1 0x20 ADD PUSH2 0x7C7 SWAP7 SWAP6 SWAP5 SWAP4 SWAP3 SWAP2 SWAP1 PUSH2 0x1601 JUMP JUMPDEST PUSH1 0x40 MLOAD PUSH1 0x20 DUP2 DUP4 SUB SUB DUP2 MSTORE SWAP1 PUSH1 0x40 MSTORE SWAP2 POP POP PUSH2 0x8C2 JUMP JUMPDEST PUSH1 0x7 DUP4 SUB PUSH2 0x812 JUMPI DUP1 DUP2 DUP3 PUSH1 0x40 MLOAD PUSH1 0x20 ADD PUSH2 0x7FB SWAP4 SWAP3 SWAP2 SWAP1 PUSH2 0x16DD JUMP JUMPDEST PUSH1 0x40 MLOAD PUSH1 0x20 DUP2 DUP4 SUB SUB DUP2 MSTORE SWAP1 PUSH1 0x40 MSTORE SWAP2 POP POP PUSH2 0x8C2 JUMP JUMPDEST PUSH1 0x8 DUP4 SUB PUSH2 0x84E JUMPI DUP1 DUP2 DUP3 DUP4 DUP5 DUP6 DUP7 PUSH1 0x40 MLOAD PUSH1 0x20 ADD PUSH2 0x837 SWAP8 SWAP7 SWAP6 SWAP5 SWAP4 SWAP3 SWAP2 SWAP1 PUSH2 0x1750 JUMP JUMPDEST PUSH1 0x40 MLOAD PUSH1 0x20 DUP2 DUP4 SUB SUB DUP2 MSTORE SWAP1 PUSH1 0x40 MSTORE SWAP2 POP POP PUSH2 0x8C2 JUMP JUMPDEST PUSH1 0x9 DUP4 SUB PUSH2 0x888 JUMPI DUP1 DUP2 DUP3 DUP4 DUP5 DUP6 PUSH1 0x40 MLOAD PUSH1 0x20 ADD PUSH2 0x871 SWAP7 SWAP6 SWAP5 SWAP4 SWAP3 SWAP2 SWAP1 PUSH2 0x184F JUMP JUMPDEST PUSH1 0x40 MLOAD PUSH1 0x20 DUP2 DUP4 SUB SUB DUP2 MSTORE SWAP1 PUSH1 0x40 MSTORE SWAP2 POP POP PUSH2 0x8C2 JUMP JUMPDEST PUSH1 0x40 MLOAD DUP1 PUSH1 0x40 ADD PUSH1 0x40 MSTORE DUP1 PUSH1 0x5 DUP2 MSTORE PUSH1 0x20 ADD PUSH32 0x6572726F72000000000000000000000000000000000000000000000000000000 DUP2 MSTORE POP SWAP2 POP POP JUMPDEST SWAP3 SWAP2 POP POP JUMP JUMPDEST PUSH1 0x40 MLOAD DUP1 PUSH1 0x80 ADD PUSH1 0x40 MSTORE DUP1 PUSH1 0x0 DUP2 MSTORE PUSH1 0x20 ADD PUSH1 0x0 DUP2 MSTORE PUSH1 0x20 ADD PUSH1 0x0 DUP2 MSTORE PUSH1 0x20 ADD PUSH1 0x0 DUP2 MSTORE POP SWAP1 JUMP JUMPDEST PUSH1 0x0 PUSH1 0x40 MLOAD SWAP1 POP SWAP1 JUMP JUMPDEST PUSH1 0x0 DUP1 REVERT JUMPDEST PUSH1 0x0 DUP2 SWAP1 POP SWAP2 SWAP1 POP JUMP JUMPDEST PUSH2 0x912 DUP2 PUSH2 0x8FF JUMP JUMPDEST DUP2 EQ PUSH2 0x91D JUMPI PUSH1 0x0 DUP1 REVERT JUMPDEST POP JUMP JUMPDEST PUSH1 0x0 DUP2 CALLDATALOAD SWAP1 POP PUSH2 0x92F DUP2 PUSH2 0x909 JUMP JUMPDEST SWAP3 SWAP2 POP POP JUMP JUMPDEST PUSH1 0x0 DUP1 REVERT JUMPDEST PUSH1 0x0 PUSH1 0x1F NOT PUSH1 0x1F DUP4 ADD AND SWAP1 POP SWAP2 SWAP1 POP JUMP JUMPDEST PUSH32 0x4E487B7100000000000000000000000000000000000000000000000000000000 PUSH1 0x0 MSTORE PUSH1 0x41 PUSH1 0x4 MSTORE PUSH1 0x24 PUSH1 0x0 REVERT JUMPDEST PUSH2 0x983 DUP3 PUSH2 0x93A JUMP JUMPDEST DUP2 ADD DUP2 DUP2 LT PUSH8 0xFFFFFFFFFFFFFFFF DUP3 GT OR ISZERO PUSH2 0x9A2 JUMPI PUSH2 0x9A1 PUSH2 0x94B JUMP JUMPDEST JUMPDEST DUP1 PUSH1 0x40 MSTORE POP POP POP JUMP JUMPDEST PUSH1 0x0 PUSH2 0x9B5 PUSH2 0x8F0 JUMP JUMPDEST SWAP1 POP PUSH2 0x9C1 DUP3 DUP3 PUSH2 0x97A JUMP JUMPDEST SWAP2 SWAP1 POP JUMP JUMPDEST PUSH1 0x0 PUSH8 0xFFFFFFFFFFFFFFFF DUP3 GT ISZERO PUSH2 0x9E1 JUMPI PUSH2 0x9E0 PUSH2 0x94B JUMP JUMPDEST JUMPDEST PUSH1 0x20 DUP3 MUL SWAP1 POP SWAP2 SWAP1 POP JUMP JUMPDEST PUSH1 0x0 DUP1 REVERT JUMPDEST PUSH1 0x0 PUSH2 0xA04 PUSH2 0x9FF DUP5 PUSH2 0x9C6 JUMP JUMPDEST PUSH2 0x9AB JUMP JUMPDEST SWAP1 POP DUP1 PUSH1 0x20 DUP5 MUL DUP4 ADD DUP6 DUP2 GT ISZERO PUSH2 0xA1E JUMPI PUSH2 0xA1D PUSH2 0x9EC JUMP JUMPDEST JUMPDEST DUP4 JUMPDEST DUP2 DUP2 LT ISZERO PUSH2 0xA47 JUMPI DUP1 PUSH2 0xA33 DUP9 DUP3 PUSH2 0x920 JUMP JUMPDEST DUP5 MSTORE PUSH1 0x20 DUP5 ADD SWAP4 POP POP PUSH1 0x20 DUP2 ADD SWAP1 POP PUSH2 0xA20 JUMP JUMPDEST POP POP POP SWAP4 SWAP3 POP POP POP JUMP JUMPDEST PUSH1 0x0 DUP3 PUSH1 0x1F DUP4 ADD SLT PUSH2 0xA66 JUMPI PUSH2 0xA65 PUSH2 0x935 JUMP JUMPDEST JUMPDEST PUSH1 0x3 PUSH2 0xA73 DUP5 DUP3 DUP6 PUSH2 0x9F1 JUMP JUMPDEST SWAP2 POP POP SWAP3 SWAP2 POP POP JUMP JUMPDEST PUSH1 0x0 DUP1 PUSH1 0x80 DUP4 DUP6 SUB SLT ISZERO PUSH2 0xA93 JUMPI PUSH2 0xA92 PUSH2 0x8FA JUMP JUMPDEST JUMPDEST PUSH1 0x0 PUSH2 0xAA1 DUP6 DUP3 DUP7 ADD PUSH2 0x920 JUMP JUMPDEST SWAP3 POP POP PUSH1 0x20 PUSH2 0xAB2 DUP6 DUP3 DUP7 ADD PUSH2 0xA51 JUMP JUMPDEST SWAP2 POP POP SWAP3 POP SWAP3 SWAP1 POP JUMP JUMPDEST PUSH1 0x0 DUP2 MLOAD SWAP1 POP SWAP2 SWAP1 POP JUMP JUMPDEST PUSH1 0x0 DUP3 DUP3 MSTORE PUSH1 0x20 DUP3 ADD SWAP1 POP SWAP3 SWAP2 POP POP JUMP JUMPDEST PUSH1 0x0 JUMPDEST DUP4 DUP2 LT ISZERO PUSH2 0xAF6 JUMPI DUP1 DUP3 ADD MLOAD DUP2 DUP5 ADD MSTORE PUSH1 0x20 DUP2 ADD SWAP1 POP PUSH2 0xADB JUMP JUMPDEST PUSH1 0x0 DUP5 DUP5 ADD MSTORE POP POP POP POP JUMP JUMPDEST PUSH1 0x0 PUSH2 0xB0D DUP3 PUSH2 0xABC JUMP JUMPDEST PUSH2 0xB17 DUP2 DUP6 PUSH2 0xAC7 JUMP JUMPDEST SWAP4 POP PUSH2 0xB27 DUP2 DUP6 PUSH1 0x20 DUP7 ADD PUSH2 0xAD8 JUMP JUMPDEST PUSH2 0xB30 DUP2 PUSH2 0x93A JUMP JUMPDEST DUP5 ADD SWAP2 POP POP SWAP3 SWAP2 POP POP JUMP JUMPDEST PUSH1 0x0 PUSH1 0x20 DUP3 ADD SWAP1 POP DUP2 DUP2 SUB PUSH1 0x0 DUP4 ADD MSTORE PUSH2 0xB55 DUP2 DUP5 PUSH2 0xB02 JUMP JUMPDEST SWAP1 POP SWAP3 SWAP2 POP POP JUMP JUMPDEST PUSH32 0x4E487B7100000000000000000000000000000000000000000000000000000000 PUSH1 0x0 MSTORE PUSH1 0x32 PUSH1 0x4 MSTORE PUSH1 0x24 PUSH1 0x0 REVERT JUMPDEST PUSH1 0x0 DUP2 SWAP1 POP SWAP3 SWAP2 POP POP JUMP JUMPDEST PUSH32 0x2A7B66696C6C3A72676228000000000000000000000000000000000000000000 PUSH1 0x0 DUP3 ADD MSTORE POP JUMP JUMPDEST PUSH1 0x0 PUSH2 0xBCD PUSH1 0xB DUP4 PUSH2 0xB8C JUMP JUMPDEST SWAP2 POP PUSH2 0xBD8 DUP3 PUSH2 0xB97 JUMP JUMPDEST PUSH1 0xB DUP3 ADD SWAP1 POP SWAP2 SWAP1 POP JUMP JUMPDEST PUSH1 0x0 PUSH2 0xBEE DUP3 PUSH2 0xABC JUMP JUMPDEST PUSH2 0xBF8 DUP2 DUP6 PUSH2 0xB8C JUMP JUMPDEST SWAP4 POP PUSH2 0xC08 DUP2 DUP6 PUSH1 0x20 DUP7 ADD PUSH2 0xAD8 JUMP JUMPDEST DUP1 DUP5 ADD SWAP2 POP POP SWAP3 SWAP2 POP POP JUMP JUMPDEST PUSH32 0x2C00000000000000000000000000000000000000000000000000000000000000 PUSH1 0x0 DUP3 ADD MSTORE POP JUMP JUMPDEST PUSH1 0x0 PUSH2 0xC4A PUSH1 0x1 DUP4 PUSH2 0xB8C JUMP JUMPDEST SWAP2 POP PUSH2 0xC55 DUP3 PUSH2 0xC14 JUMP JUMPDEST PUSH1 0x1 DUP3 ADD SWAP1 POP SWAP2 SWAP1 POP JUMP JUMPDEST PUSH32 0x297D2362677B66696C6C3A233043304330437D00000000000000000000000000 PUSH1 0x0 DUP3 ADD MSTORE POP JUMP JUMPDEST PUSH1 0x0 PUSH2 0xC96 PUSH1 0x13 DUP4 PUSH2 0xB8C JUMP JUMPDEST SWAP2 POP PUSH2 0xCA1 DUP3 PUSH2 0xC60 JUMP JUMPDEST PUSH1 0x13 DUP3 ADD SWAP1 POP SWAP2 SWAP1 POP JUMP JUMPDEST PUSH1 0x0 PUSH2 0xCB7 DUP3 PUSH2 0xBC0 JUMP JUMPDEST SWAP2 POP PUSH2 0xCC3 DUP3 DUP7 PUSH2 0xBE3 JUMP JUMPDEST SWAP2 POP PUSH2 0xCCE DUP3 PUSH2 0xC3D JUMP JUMPDEST SWAP2 POP PUSH2 0xCDA DUP3 DUP6 PUSH2 0xBE3 JUMP JUMPDEST SWAP2 POP PUSH2 0xCE5 DUP3 PUSH2 0xC3D JUMP JUMPDEST SWAP2 POP PUSH2 0xCF1 DUP3 DUP5 PUSH2 0xBE3 JUMP JUMPDEST SWAP2 POP PUSH2 0xCFC DUP3 PUSH2 0xC89 JUMP JUMPDEST SWAP2 POP DUP2 SWAP1 POP SWAP5 SWAP4 POP POP POP POP JUMP JUMPDEST PUSH1 0x0 PUSH2 0xD15 DUP3 DUP6 PUSH2 0xBE3 JUMP JUMPDEST SWAP2 POP PUSH2 0xD21 DUP3 DUP5 PUSH2 0xBE3 JUMP JUMPDEST SWAP2 POP DUP2 SWAP1 POP SWAP4 SWAP3 POP POP POP JUMP JUMPDEST PUSH32 0x3C2F7374796C653E3C2F7376673E000000000000000000000000000000000000 PUSH1 0x0 DUP3 ADD MSTORE POP JUMP JUMPDEST PUSH1 0x0 PUSH2 0xD63 PUSH1 0xE DUP4 PUSH2 0xB8C JUMP JUMPDEST SWAP2 POP PUSH2 0xD6E DUP3 PUSH2 0xD2D JUMP JUMPDEST PUSH1 0xE DUP3 ADD SWAP1 POP SWAP2 SWAP1 POP JUMP JUMPDEST PUSH1 0x0 PUSH2 0xD85 DUP3 DUP6 PUSH2 0xBE3 JUMP JUMPDEST SWAP2 POP PUSH2 0xD91 DUP3 DUP5 PUSH2 0xBE3 JUMP JUMPDEST SWAP2 POP PUSH2 0xD9C DUP3 PUSH2 0xD56 JUMP JUMPDEST SWAP2 POP DUP2 SWAP1 POP SWAP4 SWAP3 POP POP POP JUMP JUMPDEST PUSH32 0x4E487B7100000000000000000000000000000000000000000000000000000000 PUSH1 0x0 MSTORE PUSH1 0x11 PUSH1 0x4 MSTORE PUSH1 0x24 PUSH1 0x0 REVERT JUMPDEST PUSH1 0x0 PUSH2 0xDE2 DUP3 PUSH2 0x8FF JUMP JUMPDEST SWAP2 POP PUSH32 0xFFFFFFFFFFFFFFFFFFFFFFFFFFFFFFFFFFFFFFFFFFFFFFFFFFFFFFFFFFFFFFFF DUP3 SUB PUSH2 0xE14 JUMPI PUSH2 0xE13 PUSH2 0xDA8 JUMP JUMPDEST JUMPDEST PUSH1 0x1 DUP3 ADD SWAP1 POP SWAP2 SWAP1 POP JUMP JUMPDEST PUSH32 0x4E487B7100000000000000000000000000000000000000000000000000000000 PUSH1 0x0 MSTORE PUSH1 0x12 PUSH1 0x4 MSTORE PUSH1 0x24 PUSH1 0x0 REVERT JUMPDEST PUSH1 0x0 PUSH2 0xE59 DUP3 PUSH2 0x8FF JUMP JUMPDEST SWAP2 POP PUSH2 0xE64 DUP4 PUSH2 0x8FF JUMP JUMPDEST SWAP3 POP DUP3 PUSH2 0xE74 JUMPI PUSH2 0xE73 PUSH2 0xE1F JUMP JUMPDEST JUMPDEST DUP3 DUP3 DIV SWAP1 POP SWAP3 SWAP2 POP POP JUMP JUMPDEST PUSH1 0x0 PUSH2 0xE8A DUP3 PUSH2 0x8FF JUMP JUMPDEST SWAP2 POP PUSH2 0xE95 DUP4 PUSH2 0x8FF JUMP JUMPDEST SWAP3 POP DUP3 DUP3 SUB SWAP1 POP DUP2 DUP2 GT ISZERO PUSH2 0xEAD JUMPI PUSH2 0xEAC PUSH2 0xDA8 JUMP JUMPDEST JUMPDEST SWAP3 SWAP2 POP POP JUMP JUMPDEST PUSH1 0x0 PUSH2 0xEBE DUP3 PUSH2 0x8FF JUMP JUMPDEST SWAP2 POP PUSH2 0xEC9 DUP4 PUSH2 0x8FF JUMP JUMPDEST SWAP3 POP DUP3 DUP3 MUL PUSH2 0xED7 DUP2 PUSH2 0x8FF JUMP JUMPDEST SWAP2 POP DUP3 DUP3 DIV DUP5 EQ DUP4 ISZERO OR PUSH2 0xEEE JUMPI PUSH2 0xEED PUSH2 0xDA8 JUMP JUMPDEST JUMPDEST POP SWAP3 SWAP2 POP POP JUMP JUMPDEST PUSH1 0x0 PUSH1 0xFF DUP3 AND SWAP1 POP SWAP2 SWAP1 POP JUMP JUMPDEST PUSH1 0x0 PUSH2 0xF0D DUP3 PUSH2 0xEF5 JUMP JUMPDEST SWAP2 POP PUSH2 0xF18 DUP4 PUSH2 0xEF5 JUMP JUMPDEST SWAP3 POP DUP3 DUP3 ADD SWAP1 POP PUSH1 0xFF DUP2 GT ISZERO PUSH2 0xF31 JUMPI PUSH2 0xF30 PUSH2 0xDA8 JUMP JUMPDEST JUMPDEST SWAP3 SWAP2 POP POP JUMP JUMPDEST PUSH1 0x0 PUSH2 0xF42 DUP3 PUSH2 0x8FF JUMP JUMPDEST SWAP2 POP PUSH2 0xF4D DUP4 PUSH2 0x8FF JUMP JUMPDEST SWAP3 POP DUP3 PUSH2 0xF5D JUMPI PUSH2 0xF5C PUSH2 0xE1F JUMP JUMPDEST JUMPDEST DUP3 DUP3 MOD SWAP1 POP SWAP3 SWAP2 POP POP JUMP JUMPDEST PUSH32 0x2370000000000000000000000000000000000000000000000000000000000000 PUSH1 0x0 DUP3 ADD MSTORE POP JUMP JUMPDEST PUSH1 0x0 PUSH2 0xF9E PUSH1 0x2 DUP4 PUSH2 0xB8C JUMP JUMPDEST SWAP2 POP PUSH2 0xFA9 DUP3 PUSH2 0xF68 JUMP JUMPDEST PUSH1 0x2 DUP3 ADD SWAP1 POP SWAP2 SWAP1 POP JUMP JUMPDEST PUSH32 0x312C000000000000000000000000000000000000000000000000000000000000 PUSH1 0x0 DUP3 ADD MSTORE POP JUMP JUMPDEST PUSH1 0x0 PUSH2 0xFEA PUSH1 0x2 DUP4 PUSH2 0xB8C JUMP JUMPDEST SWAP2 POP PUSH2 0xFF5 DUP3 PUSH2 0xFB4 JUMP JUMPDEST PUSH1 0x2 DUP3 ADD SWAP1 POP SWAP2 SWAP1 POP JUMP JUMPDEST PUSH32 0x322C000000000000000000000000000000000000000000000000000000000000 PUSH1 0x0 DUP3 ADD MSTORE POP JUMP JUMPDEST PUSH1 0x0 PUSH2 0x1036 PUSH1 0x2 DUP4 PUSH2 0xB8C JUMP JUMPDEST SWAP2 POP PUSH2 0x1041 DUP3 PUSH2 0x1000 JUMP JUMPDEST PUSH1 0x2 DUP3 ADD SWAP1 POP SWAP2 SWAP1 POP JUMP JUMPDEST PUSH32 0x332C000000000000000000000000000000000000000000000000000000000000 PUSH1 0x0 DUP3 ADD MSTORE POP JUMP JUMPDEST PUSH1 0x0 PUSH2 0x1082 PUSH1 0x2 DUP4 PUSH2 0xB8C JUMP JUMPDEST SWAP2 POP PUSH2 0x108D DUP3 PUSH2 0x104C JUMP JUMPDEST PUSH1 0x2 DUP3 ADD SWAP1 POP SWAP2 SWAP1 POP JUMP JUMPDEST PUSH32 0x352C000000000000000000000000000000000000000000000000000000000000 PUSH1 0x0 DUP3 ADD MSTORE POP JUMP JUMPDEST PUSH1 0x0 PUSH2 0x10CE PUSH1 0x2 DUP4 PUSH2 0xB8C JUMP JUMPDEST SWAP2 POP PUSH2 0x10D9 DUP3 PUSH2 0x1098 JUMP JUMPDEST PUSH1 0x2 DUP3 ADD SWAP1 POP SWAP2 SWAP1 POP JUMP JUMPDEST PUSH32 0x362C000000000000000000000000000000000000000000000000000000000000 PUSH1 0x0 DUP3 ADD MSTORE POP JUMP JUMPDEST PUSH1 0x0 PUSH2 0x111A PUSH1 0x2 DUP4 PUSH2 0xB8C JUMP JUMPDEST SWAP2 POP PUSH2 0x1125 DUP3 PUSH2 0x10E4 JUMP JUMPDEST PUSH1 0x2 DUP3 ADD SWAP1 POP SWAP2 SWAP1 POP JUMP JUMPDEST PUSH32 0x37207B66696C6C2D6F7061636974793A317D0000000000000000000000000000 PUSH1 0x0 DUP3 ADD MSTORE POP JUMP JUMPDEST PUSH1 0x0 PUSH2 0x1166 PUSH1 0x12 DUP4 PUSH2 0xB8C JUMP JUMPDEST SWAP2 POP PUSH2 0x1171 DUP3 PUSH2 0x1130 JUMP JUMPDEST PUSH1 0x12 DUP3 ADD SWAP1 POP SWAP2 SWAP1 POP JUMP JUMPDEST PUSH1 0x0 PUSH2 0x1187 DUP3 PUSH2 0xF91 JUMP JUMPDEST SWAP2 POP PUSH2 0x1193 DUP3 DUP10 PUSH2 0xBE3 JUMP JUMPDEST SWAP2 POP PUSH2 0x119E DUP3 PUSH2 0xFDD JUMP JUMPDEST SWAP2 POP PUSH2 0x11A9 DUP3 PUSH2 0xF91 JUMP JUMPDEST SWAP2 POP PUSH2 0x11B5 DUP3 DUP9 PUSH2 0xBE3 JUMP JUMPDEST SWAP2 POP PUSH2 0x11C0 DUP3 PUSH2 0x1029 JUMP JUMPDEST SWAP2 POP PUSH2 0x11CB DUP3 PUSH2 0xF91 JUMP JUMPDEST SWAP2 POP PUSH2 0x11D7 DUP3 DUP8 PUSH2 0xBE3 JUMP JUMPDEST SWAP2 POP PUSH2 0x11E2 DUP3 PUSH2 0x1075 JUMP JUMPDEST SWAP2 POP PUSH2 0x11ED DUP3 PUSH2 0xF91 JUMP JUMPDEST SWAP2 POP PUSH2 0x11F9 DUP3 DUP7 PUSH2 0xBE3 JUMP JUMPDEST SWAP2 POP PUSH2 0x1204 DUP3 PUSH2 0x10C1 JUMP JUMPDEST SWAP2 POP PUSH2 0x120F DUP3 PUSH2 0xF91 JUMP JUMPDEST SWAP2 POP PUSH2 0x121B DUP3 DUP6 PUSH2 0xBE3 JUMP JUMPDEST SWAP2 POP PUSH2 0x1226 DUP3 PUSH2 0x110D JUMP JUMPDEST SWAP2 POP PUSH2 0x1231 DUP3 PUSH2 0xF91 JUMP JUMPDEST SWAP2 POP PUSH2 0x123D DUP3 DUP5 PUSH2 0xBE3 JUMP JUMPDEST SWAP2 POP PUSH2 0x1248 DUP3 PUSH2 0x1159 JUMP JUMPDEST SWAP2 POP DUP2 SWAP1 POP SWAP8 SWAP7 POP POP POP POP POP POP POP JUMP JUMPDEST PUSH32 0x36207B66696C6C2D6F7061636974793A317D0000000000000000000000000000 PUSH1 0x0 DUP3 ADD MSTORE POP JUMP JUMPDEST PUSH1 0x0 PUSH2 0x128E PUSH1 0x12 DUP4 PUSH2 0xB8C JUMP JUMPDEST SWAP2 POP PUSH2 0x1299 DUP3 PUSH2 0x1258 JUMP JUMPDEST PUSH1 0x12 DUP3 ADD SWAP1 POP SWAP2 SWAP1 POP JUMP JUMPDEST PUSH1 0x0 PUSH2 0x12AF DUP3 PUSH2 0xF91 JUMP JUMPDEST SWAP2 POP PUSH2 0x12BB DUP3 DUP6 PUSH2 0xBE3 JUMP JUMPDEST SWAP2 POP PUSH2 0x12C6 DUP3 PUSH2 0x1075 JUMP JUMPDEST SWAP2 POP PUSH2 0x12D1 DUP3 PUSH2 0xF91 JUMP JUMPDEST SWAP2 POP PUSH2 0x12DD DUP3 DUP5 PUSH2 0xBE3 JUMP JUMPDEST SWAP2 POP PUSH2 0x12E8 DUP3 PUSH2 0x1281 JUMP JUMPDEST SWAP2 POP DUP2 SWAP1 POP SWAP4 SWAP3 POP POP POP JUMP JUMPDEST PUSH32 0x342C000000000000000000000000000000000000000000000000000000000000 PUSH1 0x0 DUP3 ADD MSTORE POP JUMP JUMPDEST PUSH1 0x0 PUSH2 0x132A PUSH1 0x2 DUP4 PUSH2 0xB8C JUMP JUMPDEST SWAP2 POP PUSH2 0x1335 DUP3 PUSH2 0x12F4 JUMP JUMPDEST PUSH1 0x2 DUP3 ADD SWAP1 POP SWAP2 SWAP1 POP JUMP JUMPDEST PUSH1 0x0 PUSH2 0x134B DUP3 PUSH2 0xF91 JUMP JUMPDEST SWAP2 POP PUSH2 0x1357 DUP3 DUP9 PUSH2 0xBE3 JUMP JUMPDEST SWAP2 POP PUSH2 0x1362 DUP3 PUSH2 0xFDD JUMP JUMPDEST SWAP2 POP PUSH2 0x136D DUP3 PUSH2 0xF91 JUMP JUMPDEST SWAP2 POP PUSH2 0x1379 DUP3 DUP8 PUSH2 0xBE3 JUMP JUMPDEST SWAP2 POP PUSH2 0x1384 DUP3 PUSH2 0x1075 JUMP JUMPDEST SWAP2 POP PUSH2 0x138F DUP3 PUSH2 0xF91 JUMP JUMPDEST SWAP2 POP PUSH2 0x139B DUP3 DUP7 PUSH2 0xBE3 JUMP JUMPDEST SWAP2 POP PUSH2 0x13A6 DUP3 PUSH2 0x131D JUMP JUMPDEST SWAP2 POP PUSH2 0x13B1 DUP3 PUSH2 0xF91 JUMP JUMPDEST SWAP2 POP PUSH2 0x13BD DUP3 DUP6 PUSH2 0xBE3 JUMP JUMPDEST SWAP2 POP PUSH2 0x13C8 DUP3 PUSH2 0x10C1 JUMP JUMPDEST SWAP2 POP PUSH2 0x13D3 DUP3 PUSH2 0xF91 JUMP JUMPDEST SWAP2 POP PUSH2 0x13DF DUP3 DUP5 PUSH2 0xBE3 JUMP JUMPDEST SWAP2 POP PUSH2 0x13EA DUP3 PUSH2 0x1159 JUMP JUMPDEST SWAP2 POP DUP2 SWAP1 POP SWAP7 SWAP6 POP POP POP POP POP POP JUMP JUMPDEST PUSH1 0x0 PUSH2 0x1404 DUP3 PUSH2 0xF91 JUMP JUMPDEST SWAP2 POP PUSH2 0x1410 DUP3 DUP9 PUSH2 0xBE3 JUMP JUMPDEST SWAP2 POP PUSH2 0x141B DUP3 PUSH2 0xFDD JUMP JUMPDEST SWAP2 POP PUSH2 0x1426 DUP3 PUSH2 0xF91 JUMP JUMPDEST SWAP2 POP PUSH2 0x1432 DUP3 DUP8 PUSH2 0xBE3 JUMP JUMPDEST SWAP2 POP PUSH2 0x143D DUP3 PUSH2 0x1075 JUMP JUMPDEST SWAP2 POP PUSH2 0x1448 DUP3 PUSH2 0xF91 JUMP JUMPDEST SWAP2 POP PUSH2 0x1454 DUP3 DUP7 PUSH2 0xBE3 JUMP JUMPDEST SWAP2 POP PUSH2 0x145F DUP3 PUSH2 0x131D JUMP JUMPDEST SWAP2 POP PUSH2 0x146A DUP3 PUSH2 0xF91 JUMP JUMPDEST SWAP2 POP PUSH2 0x1476 DUP3 DUP6 PUSH2 0xBE3 JUMP JUMPDEST SWAP2 POP PUSH2 0x1481 DUP3 PUSH2 0x110D JUMP JUMPDEST SWAP2 POP PUSH2 0x148C DUP3 PUSH2 0xF91 JUMP JUMPDEST SWAP2 POP PUSH2 0x1498 DUP3 DUP5 PUSH2 0xBE3 JUMP JUMPDEST SWAP2 POP PUSH2 0x14A3 DUP3 PUSH2 0x1159 JUMP JUMPDEST SWAP2 POP DUP2 SWAP1 POP SWAP7 SWAP6 POP POP POP POP POP POP JUMP JUMPDEST PUSH1 0x0 PUSH2 0x14BD DUP3 PUSH2 0xF91 JUMP JUMPDEST SWAP2 POP PUSH2 0x14C9 DUP3 DUP8 PUSH2 0xBE3 JUMP JUMPDEST SWAP2 POP PUSH2 0x14D4 DUP3 PUSH2 0x1029 JUMP JUMPDEST SWAP2 POP PUSH2 0x14DF DUP3 PUSH2 0xF91 JUMP JUMPDEST SWAP2 POP PUSH2 0x14EB DUP3 DUP7 PUSH2 0xBE3 JUMP JUMPDEST SWAP2 POP PUSH2 0x14F6 DUP3 PUSH2 0x1075 JUMP JUMPDEST SWAP2 POP PUSH2 0x1501 DUP3 PUSH2 0xF91 JUMP JUMPDEST SWAP2 POP PUSH2 0x150D DUP3 DUP6 PUSH2 0xBE3 JUMP JUMPDEST SWAP2 POP PUSH2 0x1518 DUP3 PUSH2 0x131D JUMP JUMPDEST SWAP2 POP PUSH2 0x1523 DUP3 PUSH2 0xF91 JUMP JUMPDEST SWAP2 POP PUSH2 0x152F DUP3 DUP5 PUSH2 0xBE3 JUMP JUMPDEST SWAP2 POP PUSH2 0x153A DUP3 PUSH2 0x1281 JUMP JUMPDEST SWAP2 POP DUP2 SWAP1 POP SWAP6 SWAP5 POP POP POP POP POP JUMP JUMPDEST PUSH1 0x0 PUSH2 0x1553 DUP3 PUSH2 0xF91 JUMP JUMPDEST SWAP2 POP PUSH2 0x155F DUP3 DUP9 PUSH2 0xBE3 JUMP JUMPDEST SWAP2 POP PUSH2 0x156A DUP3 PUSH2 0xFDD JUMP JUMPDEST SWAP2 POP PUSH2 0x1575 DUP3 PUSH2 0xF91 JUMP JUMPDEST SWAP2 POP PUSH2 0x1581 DUP3 DUP8 PUSH2 0xBE3 JUMP JUMPDEST SWAP2 POP PUSH2 0x158C DUP3 PUSH2 0x1029 JUMP JUMPDEST SWAP2 POP PUSH2 0x1597 DUP3 PUSH2 0xF91 JUMP JUMPDEST SWAP2 POP PUSH2 0x15A3 DUP3 DUP7 PUSH2 0xBE3 JUMP JUMPDEST SWAP2 POP PUSH2 0x15AE DUP3 PUSH2 0x131D JUMP JUMPDEST SWAP2 POP PUSH2 0x15B9 DUP3 PUSH2 0xF91 JUMP JUMPDEST SWAP2 POP PUSH2 0x15C5 DUP3 DUP6 PUSH2 0xBE3 JUMP JUMPDEST SWAP2 POP PUSH2 0x15D0 DUP3 PUSH2 0x110D JUMP JUMPDEST SWAP2 POP PUSH2 0x15DB DUP3 PUSH2 0xF91 JUMP JUMPDEST SWAP2 POP PUSH2 0x15E7 DUP3 DUP5 PUSH2 0xBE3 JUMP JUMPDEST SWAP2 POP PUSH2 0x15F2 DUP3 PUSH2 0x1159 JUMP JUMPDEST SWAP2 POP DUP2 SWAP1 POP SWAP7 SWAP6 POP POP POP POP POP POP JUMP JUMPDEST PUSH1 0x0 PUSH2 0x160C DUP3 PUSH2 0xF91 JUMP JUMPDEST SWAP2 POP PUSH2 0x1618 DUP3 DUP10 PUSH2 0xBE3 JUMP JUMPDEST SWAP2 POP PUSH2 0x1623 DUP3 PUSH2 0xFDD JUMP JUMPDEST SWAP2 POP PUSH2 0x162E DUP3 PUSH2 0xF91 JUMP JUMPDEST SWAP2 POP PUSH2 0x163A DUP3 DUP9 PUSH2 0xBE3 JUMP JUMPDEST SWAP2 POP PUSH2 0x1645 DUP3 PUSH2 0x1029 JUMP JUMPDEST SWAP2 POP PUSH2 0x1650 DUP3 PUSH2 0xF91 JUMP JUMPDEST SWAP2 POP PUSH2 0x165C DUP3 DUP8 PUSH2 0xBE3 JUMP JUMPDEST SWAP2 POP PUSH2 0x1667 DUP3 PUSH2 0x131D JUMP JUMPDEST SWAP2 POP PUSH2 0x1672 DUP3 PUSH2 0xF91 JUMP JUMPDEST SWAP2 POP PUSH2 0x167E DUP3 DUP7 PUSH2 0xBE3 JUMP JUMPDEST SWAP2 POP PUSH2 0x1689 DUP3 PUSH2 0x10C1 JUMP JUMPDEST SWAP2 POP PUSH2 0x1694 DUP3 PUSH2 0xF91 JUMP JUMPDEST SWAP2 POP PUSH2 0x16A0 DUP3 DUP6 PUSH2 0xBE3 JUMP JUMPDEST SWAP2 POP PUSH2 0x16AB DUP3 PUSH2 0x110D JUMP JUMPDEST SWAP2 POP PUSH2 0x16B6 DUP3 PUSH2 0xF91 JUMP JUMPDEST SWAP2 POP PUSH2 0x16C2 DUP3 DUP5 PUSH2 0xBE3 JUMP JUMPDEST SWAP2 POP PUSH2 0x16CD DUP3 PUSH2 0x1159 JUMP JUMPDEST SWAP2 POP DUP2 SWAP1 POP SWAP8 SWAP7 POP POP POP POP POP POP POP JUMP JUMPDEST PUSH1 0x0 PUSH2 0x16E8 DUP3 PUSH2 0xF91 JUMP JUMPDEST SWAP2 POP PUSH2 0x16F4 DUP3 DUP7 PUSH2 0xBE3 JUMP JUMPDEST SWAP2 POP PUSH2 0x16FF DUP3 PUSH2 0xFDD JUMP JUMPDEST SWAP2 POP PUSH2 0x170A DUP3 PUSH2 0xF91 JUMP JUMPDEST SWAP2 POP PUSH2 0x1716 DUP3 DUP6 PUSH2 0xBE3 JUMP JUMPDEST SWAP2 POP PUSH2 0x1721 DUP3 PUSH2 0x1075 JUMP JUMPDEST SWAP2 POP PUSH2 0x172C DUP3 PUSH2 0xF91 JUMP JUMPDEST SWAP2 POP PUSH2 0x1738 DUP3 DUP5 PUSH2 0xBE3 JUMP JUMPDEST SWAP2 POP PUSH2 0x1743 DUP3 PUSH2 0x1281 JUMP JUMPDEST SWAP2 POP DUP2 SWAP1 POP SWAP5 SWAP4 POP POP POP POP JUMP JUMPDEST PUSH1 0x0 PUSH2 0x175B DUP3 PUSH2 0xF91 JUMP JUMPDEST SWAP2 POP PUSH2 0x1767 DUP3 DUP11 PUSH2 0xBE3 JUMP JUMPDEST SWAP2 POP PUSH2 0x1772 DUP3 PUSH2 0xFDD JUMP JUMPDEST SWAP2 POP PUSH2 0x177D DUP3 PUSH2 0xF91 JUMP JUMPDEST SWAP2 POP PUSH2 0x1789 DUP3 DUP10 PUSH2 0xBE3 JUMP JUMPDEST SWAP2 POP PUSH2 0x1794 DUP3 PUSH2 0x1029 JUMP JUMPDEST SWAP2 POP PUSH2 0x179F DUP3 PUSH2 0xF91 JUMP JUMPDEST SWAP2 POP PUSH2 0x17AB DUP3 DUP9 PUSH2 0xBE3 JUMP JUMPDEST SWAP2 POP PUSH2 0x17B6 DUP3 PUSH2 0x1075 JUMP JUMPDEST SWAP2 POP PUSH2 0x17C1 DUP3 PUSH2 0xF91 JUMP JUMPDEST SWAP2 POP PUSH2 0x17CD DUP3 DUP8 PUSH2 0xBE3 JUMP JUMPDEST SWAP2 POP PUSH2 0x17D8 DUP3 PUSH2 0x131D JUMP JUMPDEST SWAP2 POP PUSH2 0x17E3 DUP3 PUSH2 0xF91 JUMP JUMPDEST SWAP2 POP PUSH2 0x17EF DUP3 DUP7 PUSH2 0xBE3 JUMP JUMPDEST SWAP2 POP PUSH2 0x17FA DUP3 PUSH2 0x10C1 JUMP JUMPDEST SWAP2 POP PUSH2 0x1805 DUP3 PUSH2 0xF91 JUMP JUMPDEST SWAP2 POP PUSH2 0x1811 DUP3 DUP6 PUSH2 0xBE3 JUMP JUMPDEST SWAP2 POP PUSH2 0x181C DUP3 PUSH2 0x110D JUMP JUMPDEST SWAP2 POP PUSH2 0x1827 DUP3 PUSH2 0xF91 JUMP JUMPDEST SWAP2 POP PUSH2 0x1833 DUP3 DUP5 PUSH2 0xBE3 JUMP JUMPDEST SWAP2 POP PUSH2 0x183E DUP3 PUSH2 0x1159 JUMP JUMPDEST SWAP2 POP DUP2 SWAP1 POP SWAP9 SWAP8 POP POP POP POP POP POP POP POP JUMP JUMPDEST PUSH1 0x0 PUSH2 0x185A DUP3 PUSH2 0xF91 JUMP JUMPDEST SWAP2 POP PUSH2 0x1866 DUP3 DUP10 PUSH2 0xBE3 JUMP JUMPDEST SWAP2 POP PUSH2 0x1871 DUP3 PUSH2 0xFDD JUMP JUMPDEST SWAP2 POP PUSH2 0x187C DUP3 PUSH2 0xF91 JUMP JUMPDEST SWAP2 POP PUSH2 0x1888 DUP3 DUP9 PUSH2 0xBE3 JUMP JUMPDEST SWAP2 POP PUSH2 0x1893 DUP3 PUSH2 0x1029 JUMP JUMPDEST SWAP2 POP PUSH2 0x189E DUP3 PUSH2 0xF91 JUMP JUMPDEST SWAP2 POP PUSH2 0x18AA DUP3 DUP8 PUSH2 0xBE3 JUMP JUMPDEST SWAP2 POP PUSH2 0x18B5 DUP3 PUSH2 0x1075 JUMP JUMPDEST SWAP2 POP PUSH2 0x18C0 DUP3 PUSH2 0xF91 JUMP JUMPDEST SWAP2 POP PUSH2 0x18CC DUP3 DUP7 PUSH2 0xBE3 JUMP JUMPDEST SWAP2 POP PUSH2 0x18D7 DUP3 PUSH2 0x131D JUMP JUMPDEST SWAP2 POP PUSH2 0x18E2 DUP3 PUSH2 0xF91 JUMP JUMPDEST SWAP2 POP PUSH2 0x18EE DUP3 DUP6 PUSH2 0xBE3 JUMP JUMPDEST SWAP2 POP PUSH2 0x18F9 DUP3 PUSH2 0x110D JUMP JUMPDEST SWAP2 POP PUSH2 0x1904 DUP3 PUSH2 0xF91 JUMP JUMPDEST SWAP2 POP PUSH2 0x1910 DUP3 DUP5 PUSH2 0xBE3 JUMP JUMPDEST SWAP2 POP PUSH2 0x191B DUP3 PUSH2 0x1159 JUMP JUMPDEST SWAP2 POP DUP2 SWAP1 POP SWAP8 SWAP7 POP POP POP POP POP POP POP JUMP INVALID EXTCODECOPY PUSH20 0x76672076696577426F783D223020302033303020 CALLER ADDRESS ADDRESS 0x22 KECCAK256 PUSH7 0x696C6C3D226E6F PUSH15 0x652220786D6C6E733D22687474703A 0x2F 0x2F PUSH24 0x77772E77332E6F72672F323030302F737667223E3C726563 PUSH21 0x2069643D226267222077696474683D223330302220 PUSH9 0x65696768743D223330 ADDRESS 0x22 KECCAK256 PUSH7 0x696C6C3D222330 NUMBER ADDRESS NUMBER ADDRESS NUMBER 0x22 0x2F RETURNDATACOPY EXTCODECOPY PUSH17 0x6174682069643D227030312220643D224D BALANCE ADDRESS ADDRESS KECCAK256 BALANCE BALANCE CODECOPY 0x4C BALANCE ADDRESS CALLER KECCAK256 BALANCE ORIGIN ORIGIN 0x4C BALANCE ADDRESS ADDRESS KECCAK256 BALANCE ORIGIN CALLDATALOAD 0x4C CODESIZE ADDRESS KECCAK256 BALANCE ORIGIN CALLDATALOAD 0x4C CALLDATACOPY CALLDATACOPY KECCAK256 BALANCE ORIGIN ORIGIN 0x4C CODESIZE ADDRESS KECCAK256 BALANCE BALANCE CODECOPY 0x4C BALANCE ADDRESS ADDRESS KECCAK256 BALANCE BALANCE CODECOPY GAS 0x22 KECCAK256 PUSH7 0x696C6C3D227768 PUSH10 0x7465222066696C6C2D6F PUSH17 0x61636974793D22302E3035222F3E3C7061 PUSH21 0x682069643D227030322220643D224D373320313236 0x4C CALLDATACOPY CALLDATASIZE KECCAK256 BALANCE ORIGIN CALLER 0x4C CALLDATACOPY CODECOPY KECCAK256 BALANCE ORIGIN CALLDATASIZE JUMP BALANCE CALLVALUE CALLDATASIZE 0x4C CALLDATACOPY CALLDATASIZE KECCAK256 BALANCE CALLVALUE CODECOPY 0x4C CALLDATACOPY CALLER KECCAK256 BALANCE CALLVALUE CALLDATASIZE JUMP BALANCE ORIGIN CALLDATASIZE GAS 0x22 KECCAK256 PUSH7 0x696C6C3D227768 PUSH10 0x7465222066696C6C2D6F PUSH17 0x61636974793D22302E3035222F3E3C7061 PUSH21 0x682069643D227030332220643D224D313031203132 CALLDATASIZE 0x4C BALANCE ADDRESS CALLVALUE KECCAK256 BALANCE ORIGIN CALLER 0x4C BALANCE ADDRESS CALLDATACOPY KECCAK256 BALANCE ORIGIN CALLDATASIZE JUMP BALANCE CALLVALUE CALLDATASIZE 0x4C BALANCE ADDRESS CALLVALUE KECCAK256 BALANCE CALLVALUE CODECOPY 0x4C BALANCE ADDRESS BALANCE KECCAK256 BALANCE CALLVALUE CALLDATASIZE JUMP BALANCE ORIGIN CALLDATASIZE GAS 0x22 KECCAK256 PUSH7 0x696C6C3D227768 PUSH10 0x7465222066696C6C2D6F PUSH17 0x61636974793D22302E3035222F3E3C7061 PUSH21 0x682069643D227030342220643D224D313030203134 CALLDATACOPY 0x4C BALANCE ADDRESS CALLER KECCAK256 BALANCE CALLDATALOAD ADDRESS 0x4C BALANCE ADDRESS ADDRESS KECCAK256 BALANCE CALLDATALOAD CALLER 0x4C CODESIZE ADDRESS KECCAK256 BALANCE CALLDATALOAD CALLER 0x4C CALLDATACOPY CALLDATACOPY KECCAK256 BALANCE CALLDATALOAD ADDRESS 0x4C CODESIZE ADDRESS KECCAK256 BALANCE CALLVALUE CALLDATACOPY 0x4C BALANCE ADDRESS ADDRESS KECCAK256 BALANCE CALLVALUE CALLDATACOPY GAS 0x22 KECCAK256 PUSH7 0x696C6C3D227768 PUSH10 0x7465222066696C6C2D6F PUSH17 0x61636974793D22302E3035222F3E3C7061 PUSH21 0x682069643D227030352220643D224D373320313534 0x4C CALLDATACOPY CALLDATASIZE KECCAK256 BALANCE CALLDATALOAD BALANCE 0x4C CALLDATACOPY CODECOPY KECCAK256 BALANCE CALLDATALOAD CALLVALUE JUMP BALANCE CALLDATACOPY CALLVALUE 0x4C CALLDATACOPY CALLDATASIZE KECCAK256 BALANCE CALLDATACOPY CALLDATACOPY 0x4C CALLDATACOPY CALLER KECCAK256 BALANCE CALLDATACOPY CALLVALUE JUMP BALANCE CALLDATALOAD CALLVALUE GAS 0x22 KECCAK256 PUSH7 0x696C6C3D227768 PUSH10 0x7465222066696C6C2D6F PUSH17 0x61636974793D22302E3035222F3E3C7061 PUSH21 0x682069643D227030362220643D224D313031203135 CALLVALUE 0x4C BALANCE ADDRESS CALLVALUE KECCAK256 BALANCE CALLDATALOAD BALANCE 0x4C BALANCE ADDRESS CALLDATACOPY KECCAK256 BALANCE CALLDATALOAD CALLVALUE JUMP BALANCE CALLDATACOPY CALLVALUE 0x4C BALANCE ADDRESS CALLVALUE KECCAK256 BALANCE CALLDATACOPY CALLDATACOPY 0x4C BALANCE ADDRESS BALANCE KECCAK256 BALANCE CALLDATACOPY CALLVALUE JUMP BALANCE CALLDATALOAD CALLVALUE GAS 0x22 KECCAK256 PUSH7 0x696C6C3D227768 PUSH10 0x7465222066696C6C2D6F PUSH17 0x61636974793D22302E3035222F3E3C7061 PUSH21 0x682069643D227030372220643D224D313030203137 CALLDATALOAD 0x4C BALANCE ADDRESS CALLER KECCAK256 BALANCE CALLDATACOPY CODESIZE 0x4C BALANCE ADDRESS ADDRESS KECCAK256 BALANCE CODESIZE BALANCE 0x4C CODESIZE ADDRESS KECCAK256 BALANCE CODESIZE BALANCE 0x4C CALLDATACOPY CALLDATACOPY KECCAK256 BALANCE CALLDATACOPY CODESIZE 0x4C CODESIZE ADDRESS KECCAK256 BALANCE CALLDATACOPY CALLDATALOAD 0x4C BALANCE ADDRESS ADDRESS KECCAK256 BALANCE CALLDATACOPY CALLDATALOAD GAS 0x22 KECCAK256 PUSH7 0x696C6C3D227768 PUSH10 0x7465222066696C6C2D6F PUSH17 0x61636974793D22302E3035222F3E3C7061 PUSH21 0x682069643D227031312220643D224D313430203131 CODECOPY 0x4C BALANCE CALLVALUE CALLER KECCAK256 BALANCE ORIGIN ORIGIN 0x4C BALANCE CALLVALUE ADDRESS KECCAK256 BALANCE ORIGIN CALLDATALOAD 0x4C BALANCE ORIGIN ADDRESS KECCAK256 BALANCE ORIGIN CALLDATALOAD 0x4C BALANCE BALANCE CALLDATACOPY KECCAK256 BALANCE ORIGIN ORIGIN 0x4C BALANCE ORIGIN ADDRESS KECCAK256 BALANCE BALANCE CODECOPY 0x4C BALANCE CALLVALUE ADDRESS KECCAK256 BALANCE BALANCE CODECOPY GAS 0x22 KECCAK256 PUSH7 0x696C6C3D227768 PUSH10 0x7465222066696C6C2D6F PUSH17 0x61636974793D22302E3035222F3E3C7061 PUSH21 0x682069643D227031322220643D224D313133203132 CALLDATASIZE 0x4C BALANCE BALANCE CALLDATASIZE KECCAK256 BALANCE ORIGIN CALLER 0x4C BALANCE BALANCE CODECOPY KECCAK256 BALANCE ORIGIN CALLDATASIZE JUMP BALANCE CALLVALUE CALLDATASIZE 0x4C BALANCE BALANCE CALLDATASIZE KECCAK256 BALANCE CALLVALUE CODECOPY 0x4C BALANCE BALANCE CALLER KECCAK256 BALANCE CALLVALUE CALLDATASIZE JUMP BALANCE ORIGIN CALLDATASIZE GAS 0x22 KECCAK256 PUSH7 0x696C6C3D227768 PUSH10 0x7465222066696C6C2D6F PUSH17 0x61636974793D22302E3035222F3E3C7061 PUSH21 0x682069643D227031332220643D224D313431203132 CALLDATASIZE 0x4C BALANCE CALLVALUE CALLVALUE KECCAK256 BALANCE ORIGIN CALLER 0x4C BALANCE CALLVALUE CALLDATACOPY KECCAK256 BALANCE ORIGIN CALLDATASIZE JUMP BALANCE CALLVALUE CALLDATASIZE 0x4C BALANCE CALLVALUE CALLVALUE KECCAK256 BALANCE CALLVALUE CODECOPY 0x4C BALANCE CALLVALUE BALANCE KECCAK256 BALANCE CALLVALUE CALLDATASIZE JUMP BALANCE ORIGIN CALLDATASIZE GAS 0x22 KECCAK256 PUSH7 0x696C6C3D227768 PUSH10 0x7465222066696C6C2D6F PUSH17 0x61636974793D22302E3035222F3E3C7061 PUSH21 0x682069643D227031342220643D224D313430203134 CALLDATACOPY 0x4C BALANCE CALLVALUE CALLER KECCAK256 BALANCE CALLDATALOAD ADDRESS 0x4C BALANCE CALLVALUE ADDRESS KECCAK256 BALANCE CALLDATALOAD CALLER 0x4C BALANCE ORIGIN ADDRESS KECCAK256 BALANCE CALLDATALOAD CALLER 0x4C BALANCE BALANCE CALLDATACOPY KECCAK256 BALANCE CALLDATALOAD ADDRESS 0x4C BALANCE ORIGIN ADDRESS KECCAK256 BALANCE CALLVALUE CALLDATACOPY 0x4C BALANCE CALLVALUE ADDRESS KECCAK256 BALANCE CALLVALUE CALLDATACOPY GAS 0x22 KECCAK256 PUSH7 0x696C6C3D227768 PUSH10 0x7465222066696C6C2D6F PUSH17 0x61636974793D22302E3035222F3E3C7061 PUSH21 0x682069643D227031352220643D224D313133203135 CALLVALUE 0x4C BALANCE BALANCE CALLDATASIZE KECCAK256 BALANCE CALLDATALOAD BALANCE 0x4C BALANCE BALANCE CODECOPY KECCAK256 BALANCE CALLDATALOAD CALLVALUE JUMP BALANCE CALLDATACOPY CALLVALUE 0x4C BALANCE BALANCE CALLDATASIZE KECCAK256 BALANCE CALLDATACOPY CALLDATACOPY 0x4C BALANCE BALANCE CALLER KECCAK256 BALANCE CALLDATACOPY CALLVALUE JUMP BALANCE CALLDATALOAD CALLVALUE GAS 0x22 KECCAK256 PUSH7 0x696C6C3D227768 PUSH10 0x7465222066696C6C2D6F PUSH17 0x61636974793D22302E3035222F3E3C7061 PUSH21 0x682069643D227031362220643D224D313431203135 CALLVALUE 0x4C BALANCE CALLVALUE CALLVALUE KECCAK256 BALANCE CALLDATALOAD BALANCE 0x4C BALANCE CALLVALUE CALLDATACOPY KECCAK256 BALANCE CALLDATALOAD CALLVALUE JUMP BALANCE CALLDATACOPY CALLVALUE 0x4C BALANCE CALLVALUE CALLVALUE KECCAK256 BALANCE CALLDATACOPY CALLDATACOPY 0x4C BALANCE CALLVALUE BALANCE KECCAK256 BALANCE CALLDATACOPY CALLVALUE JUMP BALANCE CALLDATALOAD CALLVALUE GAS 0x22 KECCAK256 PUSH7 0x696C6C3D227768 PUSH10 0x7465222066696C6C2D6F PUSH17 0x61636974793D22302E3035222F3E3C7061 PUSH21 0x682069643D227031372220643D224D313430203137 CALLDATALOAD 0x4C BALANCE CALLVALUE CALLER KECCAK256 BALANCE CALLDATACOPY CODESIZE 0x4C BALANCE CALLVALUE ADDRESS KECCAK256 BALANCE CODESIZE BALANCE 0x4C BALANCE ORIGIN ADDRESS KECCAK256 BALANCE CODESIZE BALANCE 0x4C BALANCE BALANCE CALLDATACOPY KECCAK256 BALANCE CALLDATACOPY CODESIZE 0x4C BALANCE ORIGIN ADDRESS KECCAK256 BALANCE CALLDATACOPY CALLDATALOAD 0x4C BALANCE CALLVALUE ADDRESS KECCAK256 BALANCE CALLDATACOPY CALLDATALOAD GAS 0x22 KECCAK256 PUSH7 0x696C6C3D227768 PUSH10 0x7465222066696C6C2D6F PUSH17 0x61636974793D22302E3035222F3E3C7061 PUSH21 0x682069643D227032312220643D224D313830203131 CODECOPY 0x4C BALANCE CODESIZE CALLER KECCAK256 BALANCE ORIGIN ORIGIN 0x4C BALANCE CODESIZE ADDRESS KECCAK256 BALANCE ORIGIN CALLDATALOAD 0x4C BALANCE CALLDATASIZE ADDRESS KECCAK256 BALANCE ORIGIN CALLDATALOAD 0x4C BALANCE CALLDATALOAD CALLDATACOPY KECCAK256 BALANCE ORIGIN ORIGIN 0x4C BALANCE CALLDATASIZE ADDRESS KECCAK256 BALANCE BALANCE CODECOPY 0x4C BALANCE CODESIZE ADDRESS KECCAK256 BALANCE BALANCE CODECOPY GAS 0x22 KECCAK256 PUSH7 0x696C6C3D227768 PUSH10 0x7465222066696C6C2D6F PUSH17 0x61636974793D22302E3035222F3E3C7061 PUSH21 0x682069643D227032322220643D224D313533203132 CALLDATASIZE 0x4C BALANCE CALLDATALOAD CALLDATASIZE KECCAK256 BALANCE ORIGIN CALLER 0x4C BALANCE CALLDATALOAD CODECOPY KECCAK256 BALANCE ORIGIN CALLDATASIZE JUMP BALANCE CALLVALUE CALLDATASIZE 0x4C BALANCE CALLDATALOAD CALLDATASIZE KECCAK256 BALANCE CALLVALUE CODECOPY 0x4C BALANCE CALLDATALOAD CALLER KECCAK256 BALANCE CALLVALUE CALLDATASIZE JUMP BALANCE ORIGIN CALLDATASIZE GAS 0x22 KECCAK256 PUSH7 0x696C6C3D227768 PUSH10 0x7465222066696C6C2D6F PUSH17 0x61636974793D22302E3035222F3E3C7061 PUSH21 0x682069643D227032332220643D224D313831203132 CALLDATASIZE 0x4C BALANCE CODESIZE CALLVALUE KECCAK256 BALANCE ORIGIN CALLER 0x4C BALANCE CODESIZE CALLDATACOPY KECCAK256 BALANCE ORIGIN CALLDATASIZE JUMP BALANCE CALLVALUE CALLDATASIZE 0x4C BALANCE CODESIZE CALLVALUE KECCAK256 BALANCE CALLVALUE CODECOPY 0x4C BALANCE CODESIZE BALANCE KECCAK256 BALANCE CALLVALUE CALLDATASIZE JUMP BALANCE ORIGIN CALLDATASIZE GAS 0x22 KECCAK256 PUSH7 0x696C6C3D227768 PUSH10 0x7465222066696C6C2D6F PUSH17 0x61636974793D22302E3035222F3E3C7061 PUSH21 0x682069643D227032342220643D224D313830203134 CALLDATACOPY 0x4C BALANCE CODESIZE CALLER KECCAK256 BALANCE CALLDATALOAD ADDRESS 0x4C BALANCE CODESIZE ADDRESS KECCAK256 BALANCE CALLDATALOAD CALLER 0x4C BALANCE CALLDATASIZE ADDRESS KECCAK256 BALANCE CALLDATALOAD CALLER 0x4C BALANCE CALLDATALOAD CALLDATACOPY KECCAK256 BALANCE CALLDATALOAD ADDRESS 0x4C BALANCE CALLDATASIZE ADDRESS KECCAK256 BALANCE CALLVALUE CALLDATACOPY 0x4C BALANCE CODESIZE ADDRESS KECCAK256 BALANCE CALLVALUE CALLDATACOPY GAS 0x22 KECCAK256 PUSH7 0x696C6C3D227768 PUSH10 0x7465222066696C6C2D6F PUSH17 0x61636974793D22302E3035222F3E3C7061 PUSH21 0x682069643D227032352220643D224D313533203135 CALLVALUE 0x4C BALANCE CALLDATALOAD CALLDATASIZE KECCAK256 BALANCE CALLDATALOAD BALANCE 0x4C BALANCE CALLDATALOAD CODECOPY KECCAK256 BALANCE CALLDATALOAD CALLVALUE JUMP BALANCE CALLDATACOPY CALLVALUE 0x4C BALANCE CALLDATALOAD CALLDATASIZE KECCAK256 BALANCE CALLDATACOPY CALLDATACOPY 0x4C BALANCE CALLDATALOAD CALLER KECCAK256 BALANCE CALLDATACOPY CALLVALUE JUMP BALANCE CALLDATALOAD CALLVALUE GAS 0x22 KECCAK256 PUSH7 0x696C6C3D227768 PUSH10 0x7465222066696C6C2D6F PUSH17 0x61636974793D22302E3035222F3E3C7061 PUSH21 0x682069643D227032362220643D224D313831203135 CALLVALUE 0x4C BALANCE CODESIZE CALLVALUE KECCAK256 BALANCE CALLDATALOAD BALANCE 0x4C BALANCE CODESIZE CALLDATACOPY KECCAK256 BALANCE CALLDATALOAD CALLVALUE JUMP BALANCE CALLDATACOPY CALLVALUE 0x4C BALANCE CODESIZE CALLVALUE KECCAK256 BALANCE CALLDATACOPY CALLDATACOPY 0x4C BALANCE CODESIZE BALANCE KECCAK256 BALANCE CALLDATACOPY CALLVALUE JUMP BALANCE CALLDATALOAD CALLVALUE GAS 0x22 KECCAK256 PUSH7 0x696C6C3D227768 PUSH10 0x7465222066696C6C2D6F PUSH17 0x61636974793D22302E3035222F3E3C7061 PUSH21 0x682069643D227032372220643D224D313830203137 CALLDATALOAD 0x4C BALANCE CODESIZE CALLER KECCAK256 BALANCE CALLDATACOPY CODESIZE 0x4C BALANCE CODESIZE ADDRESS KECCAK256 BALANCE CODESIZE BALANCE 0x4C BALANCE CALLDATASIZE ADDRESS KECCAK256 BALANCE CODESIZE BALANCE 0x4C BALANCE CALLDATALOAD CALLDATACOPY KECCAK256 BALANCE CALLDATACOPY CODESIZE 0x4C BALANCE CALLDATASIZE ADDRESS KECCAK256 BALANCE CALLDATACOPY CALLDATALOAD 0x4C BALANCE CODESIZE ADDRESS KECCAK256 BALANCE CALLDATACOPY CALLDATALOAD GAS 0x22 KECCAK256 PUSH7 0x696C6C3D227768 PUSH10 0x7465222066696C6C2D6F PUSH17 0x61636974793D22302E3035222F3E3C7061 PUSH21 0x682069643D227033312220643D224D323230203131 CODECOPY 0x4C ORIGIN ORIGIN CALLER KECCAK256 BALANCE ORIGIN ORIGIN 0x4C ORIGIN ORIGIN ADDRESS KECCAK256 BALANCE ORIGIN CALLDATALOAD 0x4C ORIGIN ADDRESS ADDRESS KECCAK256 BALANCE ORIGIN CALLDATALOAD 0x4C BALANCE CODECOPY CALLDATACOPY KECCAK256 BALANCE ORIGIN ORIGIN 0x4C ORIGIN ADDRESS ADDRESS KECCAK256 BALANCE BALANCE CODECOPY 0x4C ORIGIN ORIGIN ADDRESS KECCAK256 BALANCE BALANCE CODECOPY GAS 0x22 KECCAK256 PUSH7 0x696C6C3D227768 PUSH10 0x7465222066696C6C2D6F PUSH17 0x61636974793D22302E3035222F3E3C7061 PUSH21 0x682069643D227033322220643D224D313933203132 CALLDATASIZE 0x4C BALANCE CODECOPY CALLDATASIZE KECCAK256 BALANCE ORIGIN CALLER 0x4C BALANCE CODECOPY CODECOPY KECCAK256 BALANCE ORIGIN CALLDATASIZE JUMP BALANCE CALLVALUE CALLDATASIZE 0x4C BALANCE CODECOPY CALLDATASIZE KECCAK256 BALANCE CALLVALUE CODECOPY 0x4C BALANCE CODECOPY CALLER KECCAK256 BALANCE CALLVALUE CALLDATASIZE JUMP BALANCE ORIGIN CALLDATASIZE GAS 0x22 KECCAK256 PUSH7 0x696C6C3D227768 PUSH10 0x7465222066696C6C2D6F PUSH17 0x61636974793D22302E3035222F3E3C7061 PUSH21 0x682069643D227033332220643D224D323231203132 CALLDATASIZE 0x4C ORIGIN ORIGIN CALLVALUE KECCAK256 BALANCE ORIGIN CALLER 0x4C ORIGIN ORIGIN CALLDATACOPY KECCAK256 BALANCE ORIGIN CALLDATASIZE JUMP BALANCE CALLVALUE CALLDATASIZE 0x4C ORIGIN ORIGIN CALLVALUE KECCAK256 BALANCE CALLVALUE CODECOPY 0x4C ORIGIN ORIGIN BALANCE KECCAK256 BALANCE CALLVALUE CALLDATASIZE JUMP BALANCE ORIGIN CALLDATASIZE GAS 0x22 KECCAK256 PUSH7 0x696C6C3D227768 PUSH10 0x7465222066696C6C2D6F PUSH17 0x61636974793D22302E3035222F3E3C7061 PUSH21 0x682069643D227033342220643D224D323230203134 CALLDATACOPY 0x4C ORIGIN ORIGIN CALLER KECCAK256 BALANCE CALLDATALOAD ADDRESS 0x4C ORIGIN ORIGIN ADDRESS KECCAK256 BALANCE CALLDATALOAD CALLER 0x4C ORIGIN ADDRESS ADDRESS KECCAK256 BALANCE CALLDATALOAD CALLER 0x4C BALANCE CODECOPY CALLDATACOPY KECCAK256 BALANCE CALLDATALOAD ADDRESS 0x4C ORIGIN ADDRESS ADDRESS KECCAK256 BALANCE CALLVALUE CALLDATACOPY 0x4C ORIGIN ORIGIN ADDRESS KECCAK256 BALANCE CALLVALUE CALLDATACOPY GAS 0x22 KECCAK256 PUSH7 0x696C6C3D227768 PUSH10 0x7465222066696C6C2D6F PUSH17 0x61636974793D22302E3035222F3E3C7061 PUSH21 0x682069643D227033352220643D224D313933203135 CALLVALUE 0x4C BALANCE CODECOPY CALLDATASIZE KECCAK256 BALANCE CALLDATALOAD BALANCE 0x4C BALANCE CODECOPY CODECOPY KECCAK256 BALANCE CALLDATALOAD CALLVALUE JUMP BALANCE CALLDATACOPY CALLVALUE 0x4C BALANCE CODECOPY CALLDATASIZE KECCAK256 BALANCE CALLDATACOPY CALLDATACOPY 0x4C BALANCE CODECOPY CALLER KECCAK256 BALANCE CALLDATACOPY CALLVALUE JUMP BALANCE CALLDATALOAD CALLVALUE GAS 0x22 KECCAK256 PUSH7 0x696C6C3D227768 PUSH10 0x7465222066696C6C2D6F PUSH17 0x61636974793D22302E3035222F3E3C7061 PUSH21 0x682069643D227033362220643D224D323231203135 CALLVALUE 0x4C ORIGIN ORIGIN CALLVALUE KECCAK256 BALANCE CALLDATALOAD BALANCE 0x4C ORIGIN ORIGIN CALLDATACOPY KECCAK256 BALANCE CALLDATALOAD CALLVALUE JUMP BALANCE CALLDATACOPY CALLVALUE 0x4C ORIGIN ORIGIN CALLVALUE KECCAK256 BALANCE CALLDATACOPY CALLDATACOPY 0x4C ORIGIN ORIGIN BALANCE KECCAK256 BALANCE CALLDATACOPY CALLVALUE JUMP BALANCE CALLDATALOAD CALLVALUE GAS 0x22 KECCAK256 PUSH7 0x696C6C3D227768 PUSH10 0x7465222066696C6C2D6F PUSH17 0x61636974793D22302E3035222F3E3C7061 PUSH21 0x682069643D227033372220643D224D323230203137 CALLDATALOAD 0x4C ORIGIN ORIGIN CALLER KECCAK256 BALANCE CALLDATACOPY CODESIZE 0x4C ORIGIN ORIGIN ADDRESS KECCAK256 BALANCE CODESIZE BALANCE 0x4C ORIGIN ADDRESS ADDRESS KECCAK256 BALANCE CODESIZE BALANCE 0x4C BALANCE CODECOPY CALLDATACOPY KECCAK256 BALANCE CALLDATACOPY CODESIZE 0x4C ORIGIN ADDRESS ADDRESS KECCAK256 BALANCE CALLDATACOPY CALLDATALOAD 0x4C ORIGIN ORIGIN ADDRESS KECCAK256 BALANCE CALLDATACOPY CALLDATALOAD GAS 0x22 KECCAK256 PUSH7 0x696C6C3D227768 PUSH10 0x7465222066696C6C2D6F PUSH17 0x61636974793D22302E3035222F3E3C7374 PUSH26 0x6C653EA2646970667358221220580216207FDDCC61E6DF6705D6 0xE0 MULMOD 0xCE 0xE 0xE9 PUSH16 0x122403F59768DB84001BE0B62764736F PUSH13 0x63430008120033000000000000 "
		},
		"gasEstimates": {
			"creation": {
				"codeDepositCost": "1918800",
				"executionCost": "2055",
				"totalCost": "1920855"
			},
			"external": {
				"renderSvg(uint256,uint256[3])": "infinite"
			},
			"internal": {
				"getNumberStyle(uint256,uint256)": "infinite",
				"getNumbers(uint256,uint256)": "infinite"
			}
		},
		"methodIdentifiers": {
			"renderSvg(uint256,uint256[3])": "15468029"
		}
	},
	"abi": [
		{
			"inputs": [
				{
					"internalType": "uint256",
					"name": "value",
					"type": "uint256"
				},
				{
					"internalType": "uint256[3]",
					"name": "rgbs",
					"type": "uint256[3]"
				}
			],
			"name": "renderSvg",
			"outputs": [
				{
					"internalType": "string",
					"name": "svg",
					"type": "string"
				}
			],
			"stateMutability": "pure",
			"type": "function"
		}
	]
}