{
	"data": {
		"bytecode": {
			"linkReferences": {},
			"object": "60806040523480156200001157600080fd5b506040518060400160405280600981526020017f506978656c5465737400000000000000000000000000000000000000000000008152506040518060400160405280600381526020017f50584c000000000000000000000000000000000000000000000000000000000081525081600290816200008f91906200033f565b508060039081620000a191906200033f565b50620000b2620000c060201b60201c565b600081905550505062000426565b600090565b600081519050919050565b7f4e487b7100000000000000000000000000000000000000000000000000000000600052604160045260246000fd5b7f4e487b7100000000000000000000000000000000000000000000000000000000600052602260045260246000fd5b600060028204905060018216806200014757607f821691505b6020821081036200015d576200015c620000ff565b5b50919050565b60008190508160005260206000209050919050565b60006020601f8301049050919050565b600082821b905092915050565b600060088302620001c77fffffffffffffffffffffffffffffffffffffffffffffffffffffffffffffffff8262000188565b620001d3868362000188565b95508019841693508086168417925050509392505050565b6000819050919050565b6000819050919050565b6000620002206200021a6200021484620001eb565b620001f5565b620001eb565b9050919050565b6000819050919050565b6200023c83620001ff565b620002546200024b8262000227565b84845462000195565b825550505050565b600090565b6200026b6200025c565b6200027881848462000231565b505050565b5b81811015620002a0576200029460008262000261565b6001810190506200027e565b5050565b601f821115620002ef57620002b98162000163565b620002c48462000178565b81016020851015620002d4578190505b620002ec620002e38562000178565b8301826200027d565b50505b505050565b600082821c905092915050565b60006200031460001984600802620002f4565b1980831691505092915050565b60006200032f838362000301565b9150826002028217905092915050565b6200034a82620000c5565b67ffffffffffffffff811115620003665762000365620000d0565b5b6200037282546200012e565b6200037f828285620002a4565b600060209050601f831160018114620003b75760008415620003a2578287015190505b620003ae858262000321565b8655506200041e565b601f198416620003c78662000163565b60005b82811015620003f157848901518255600182019150602085019450602081019050620003ca565b868310156200041157848901516200040d601f89168262000301565b8355505b6001600288020188555050505b505050505050565b6141a680620004366000396000f3fe6080604052600436106101405760003560e01c806359af38d3116100b6578063b3d3d37e1161006f578063b3d3d37e14610421578063b88d4fde14610438578063c87b56dd14610454578063d6565a2d14610491578063dd6d30c1146104d1578063e985e9c5146104fc57610140565b806359af38d3146102ff5780636352211e1461032857806370a082311461036557806395d89b41146103a2578063a22cb465146103cd578063ad7fa0d3146103f657610140565b806318160ddd1161010857806318160ddd1461021d57806323b872dd1461024857806336f3a665146102645780633c1d7cb71461028f57806342842e0e146102a657806346a739df146102c257610140565b806301ffc9a71461014557806306fdde0314610182578063081812fc146101ad578063095ea7b3146101ea5780630ced863714610206575b600080fd5b34801561015157600080fd5b5061016c60048036038101906101679190611bc9565b610539565b6040516101799190611c11565b60405180910390f35b34801561018e57600080fd5b506101976105cb565b6040516101a49190611cbc565b60405180910390f35b3480156101b957600080fd5b506101d460048036038101906101cf9190611d14565b61065d565b6040516101e19190611d82565b60405180910390f35b61020460048036038101906101ff9190611dc9565b6106dc565b005b34801561021257600080fd5b5061021b610820565b005b34801561022957600080fd5b5061023261082d565b60405161023f9190611e18565b60405180910390f35b610262600480360381019061025d9190611e33565b610844565b005b34801561027057600080fd5b50610279610b66565b6040516102869190611e18565b60405180910390f35b34801561029b57600080fd5b506102a4610b6c565b005b6102c060048036038101906102bb9190611e33565b610bce565b005b3480156102ce57600080fd5b506102e960048036038101906102e49190611d14565b610bee565b6040516102f69190611cbc565b60405180910390f35b34801561030b57600080fd5b5061032660048036038101906103219190611fbc565b610cef565b005b34801561033457600080fd5b5061034f600480360381019061034a9190611d14565b610daf565b60405161035c9190611d82565b60405180910390f35b34801561037157600080fd5b5061038c60048036038101906103879190611ffc565b610dc1565b6040516103999190611e18565b60405180910390f35b3480156103ae57600080fd5b506103b7610e79565b6040516103c49190611cbc565b60405180910390f35b3480156103d957600080fd5b506103f460048036038101906103ef9190612055565b610f0b565b005b34801561040257600080fd5b5061040b611016565b6040516104189190611cbc565b60405180910390f35b34801561042d57600080fd5b5061043661102d565b005b610452600480360381019061044d919061214a565b611178565b005b34801561046057600080fd5b5061047b60048036038101906104769190611d14565b6111eb565b6040516104889190611cbc565b60405180910390f35b34801561049d57600080fd5b506104b860048036038101906104b39190611d14565b611260565b6040516104c894939291906121cd565b60405180910390f35b3480156104dd57600080fd5b506104e6611338565b6040516104f39190611e18565b60405180910390f35b34801561050857600080fd5b50610523600480360381019061051e9190612219565b61133e565b6040516105309190611c11565b60405180910390f35b60006301ffc9a760e01b827bffffffffffffffffffffffffffffffffffffffffffffffffffffffff1916148061059457506380ac58cd60e01b827bffffffffffffffffffffffffffffffffffffffffffffffffffffffff1916145b806105c45750635b5e139f60e01b827bffffffffffffffffffffffffffffffffffffffffffffffffffffffff1916145b9050919050565b6060600280546105da90612288565b80601f016020809104026020016040519081016040528092919081815260200182805461060690612288565b80156106535780601f1061062857610100808354040283529160200191610653565b820191906000526020600020905b81548152906001019060200180831161063657829003601f168201915b5050505050905090565b6000610668826113d2565b61069e576040517fcf4700e400000000000000000000000000000000000000000000000000000000815260040160405180910390fd5b6006600083815260200190815260200160002060000160009054906101000a900473ffffffffffffffffffffffffffffffffffffffff169050919050565b60006106e782610daf565b90508073ffffffffffffffffffffffffffffffffffffffff16610708611431565b73ffffffffffffffffffffffffffffffffffffffff161461076b576107348161072f611431565b61133e565b61076a576040517fcfb3b94200000000000000000000000000000000000000000000000000000000815260040160405180910390fd5b5b826006600084815260200190815260200160002060000160006101000a81548173ffffffffffffffffffffffffffffffffffffffff021916908373ffffffffffffffffffffffffffffffffffffffff160217905550818373ffffffffffffffffffffffffffffffffffffffff168273ffffffffffffffffffffffffffffffffffffffff167f8c5be1e5ebec7d5bd14f71427d1e84f3dd0314c0f7b2291e5b200ac8c7c3b92560405160405180910390a4505050565b61082b336001611439565b565b60006108376115f4565b6001546000540303905090565b600061084f826115f9565b90508373ffffffffffffffffffffffffffffffffffffffff168173ffffffffffffffffffffffffffffffffffffffff16146108b6576040517fa114810000000000000000000000000000000000000000000000000000000000815260040160405180910390fd5b6000806108c2846116c5565b915091506108d881876108d3611431565b6116ec565b610924576108ed866108e8611431565b61133e565b610923576040517f59c896be00000000000000000000000000000000000000000000000000000000815260040160405180910390fd5b5b600073ffffffffffffffffffffffffffffffffffffffff168573ffffffffffffffffffffffffffffffffffffffff160361098a576040517fea553b3400000000000000000000000000000000000000000000000000000000815260040160405180910390fd5b6109978686866001611730565b80156109a257600082555b600560008773ffffffffffffffffffffffffffffffffffffffff1673ffffffffffffffffffffffffffffffffffffffff168152602001908152602001600020600081546001900391905081905550600560008673ffffffffffffffffffffffffffffffffffffffff1673ffffffffffffffffffffffffffffffffffffffff1681526020019081526020016000206000815460010191905081905550610a7085610a4c888887611736565b7c02000000000000000000000000000000000000000000000000000000001761175e565b600460008681526020019081526020016000208190555060007c0200000000000000000000000000000000000000000000000000000000841603610af65760006001850190506000600460008381526020019081526020016000205403610af4576000548114610af3578360046000838152602001908152602001600020819055505b5b505b838573ffffffffffffffffffffffffffffffffffffffff168773ffffffffffffffffffffffffffffffffffffffff167fddf252ad1be2c89b69c2b068fc378daa952ba7f163c4a11628f55a4df523b3ef60405160405180910390a4610b5e8686866001611789565b505050505050565b600b5481565b6000600190505b6052811015610bcb57610bb881604051806060016040528060ff42610b9891906122e8565b8152602001848152602001606485610bb09190612348565b815250610cef565b8080610bc39061237c565b915050610b73565b50565b610be983838360405180602001604052806000815250611178565b505050565b6060600082118015610c025750600b548211155b610c41576040517f08c379a0000000000000000000000000000000000000000000000000000000008152600401610c3890612410565b60405180910390fd5b610ce8600960008481526020019081526020016000206003018054610c6590612288565b80601f0160208091040260200160405190810160405280929190818152602001828054610c9190612288565b8015610cde5780601f10610cb357610100808354040283529160200191610cde565b820191906000526020600020905b815481529060010190602001808311610cc157829003601f168201915b505050505061178f565b9050919050565b610d1081600060038110610d0657610d05612430565b5b60200201516117d8565b610d3182600160038110610d2757610d26612430565b5b60200201516117d8565b610d5283600260038110610d4857610d47612430565b5b60200201516117d8565b604051602001610d649392919061257f565b604051602081830303815290604052600860008481526020019081526020016000209081610d929190612788565b50600a6000815480929190610da69061237c565b91905055505050565b6000610dba826115f9565b9050919050565b60008073ffffffffffffffffffffffffffffffffffffffff168273ffffffffffffffffffffffffffffffffffffffff1603610e28576040517f8f4eb60400000000000000000000000000000000000000000000000000000000815260040160405180910390fd5b67ffffffffffffffff600560008473ffffffffffffffffffffffffffffffffffffffff1673ffffffffffffffffffffffffffffffffffffffff16815260200190815260200160002054169050919050565b606060038054610e8890612288565b80601f0160208091040260200160405190810160405280929190818152602001828054610eb490612288565b8015610f015780601f10610ed657610100808354040283529160200191610f01565b820191906000526020600020905b815481529060010190602001808311610ee457829003601f168201915b5050505050905090565b8060076000610f18611431565b73ffffffffffffffffffffffffffffffffffffffff1673ffffffffffffffffffffffffffffffffffffffff16815260200190815260200160002060008473ffffffffffffffffffffffffffffffffffffffff1673ffffffffffffffffffffffffffffffffffffffff16815260200190815260200160002060006101000a81548160ff0219169083151502179055508173ffffffffffffffffffffffffffffffffffffffff16610fc5611431565b73ffffffffffffffffffffffffffffffffffffffff167f17307eab39ab6107e8899845ad3d59bd9653f200f220920489ca2b5937696c318360405161100a9190611c11565b60405180910390a35050565b6060611028611023611828565b61178f565b905090565b60096000600b54815260200190815260200160002060010154600a5411611089576040517f08c379a0000000000000000000000000000000000000000000000000000000008152600401611080906128cc565b60405180910390fd5b60405180608001604052803373ffffffffffffffffffffffffffffffffffffffff168152602001600a5481526020014281526020016110c6611828565b815250600960006001600b546110dc9190612348565b815260200190815260200160002060008201518160000160006101000a81548173ffffffffffffffffffffffffffffffffffffffff021916908373ffffffffffffffffffffffffffffffffffffffff1602179055506020820151816001015560408201518160020155606082015181600301908161115a9190612788565b50905050600b60008154809291906111719061237c565b9190505550565b611183848484610844565b60008373ffffffffffffffffffffffffffffffffffffffff163b146111e5576111ae84848484611891565b6111e4576040517fd1a57ed600000000000000000000000000000000000000000000000000000000815260040160405180910390fd5b5b50505050565b606060006111f7611016565b90506000611204846117d8565b61120d836119e1565b60405160200161121e929190612a1c565b6040516020818303038152906040529050611238816119e1565b6040516020016112489190612aad565b60405160208183030381529060405292505050919050565b60096020528060005260406000206000915090508060000160009054906101000a900473ffffffffffffffffffffffffffffffffffffffff16908060010154908060020154908060030180546112b590612288565b80601f01602080910402602001604051908101604052809291908181526020018280546112e190612288565b801561132e5780601f106113035761010080835404028352916020019161132e565b820191906000526020600020905b81548152906001019060200180831161131157829003601f168201915b5050505050905084565b600a5481565b6000600760008473ffffffffffffffffffffffffffffffffffffffff1673ffffffffffffffffffffffffffffffffffffffff16815260200190815260200160002060008373ffffffffffffffffffffffffffffffffffffffff1673ffffffffffffffffffffffffffffffffffffffff16815260200190815260200160002060009054906101000a900460ff16905092915050565b6000816113dd6115f4565b111580156113ec575060005482105b801561142a575060007c0100000000000000000000000000000000000000000000000000000000600460008581526020019081526020016000205416145b9050919050565b600033905090565b60008054905060008203611479576040517fb562e8dd00000000000000000000000000000000000000000000000000000000815260040160405180910390fd5b6114866000848385611730565b600160406001901b178202600560008573ffffffffffffffffffffffffffffffffffffffff1673ffffffffffffffffffffffffffffffffffffffff168152602001908152602001600020600082825401925050819055506114fd836114ee6000866000611736565b6114f785611b44565b1761175e565b6004600083815260200190815260200160002081905550600080838301905073ffffffffffffffffffffffffffffffffffffffff85169150828260007fddf252ad1be2c89b69c2b068fc378daa952ba7f163c4a11628f55a4df523b3ef600080a4600183015b81811461159e57808360007fddf252ad1be2c89b69c2b068fc378daa952ba7f163c4a11628f55a4df523b3ef600080a4600181019050611563565b50600082036115d9576040517f2e07630000000000000000000000000000000000000000000000000000000000815260040160405180910390fd5b8060008190555050506115ef6000848385611789565b505050565b600090565b600080829050806116086115f4565b1161168e5760005481101561168d5760006004600083815260200190815260200160002054905060007c010000000000000000000000000000000000000000000000000000000082160361168b575b60008103611681576004600083600190039350838152602001908152602001600020549050611657565b80925050506116c0565b505b5b6040517fdf2d9b4200000000000000000000000000000000000000000000000000000000815260040160405180910390fd5b919050565b60008060006006600085815260200190815260200160002090508092508254915050915091565b600073ffffffffffffffffffffffffffffffffffffffff8316925073ffffffffffffffffffffffffffffffffffffffff821691508382148383141790509392505050565b50505050565b60008060e883901c905060e861174d868684611b54565b62ffffff16901b9150509392505050565b600073ffffffffffffffffffffffffffffffffffffffff83169250814260a01b178317905092915050565b50505050565b60606040518061130001604052806112d78152602001612e9a6112d79139905080826040516020016117c2929190612b1b565b6040516020818303038152906040529050919050565b606060a060405101806040526020810391506000825281835b60011561181357600184039350600a81066030018453600a81049050806117f1575b50828103602084039350808452505050919050565b60606000600190505b605281101561188d5781611844826117d8565b6008600084815260200190815260200160002060405160200161186993929190612cb1565b604051602081830303815290604052915080806118859061237c565b915050611831565b5090565b60008373ffffffffffffffffffffffffffffffffffffffff1663150b7a026118b7611431565b8786866040518563ffffffff1660e01b81526004016118d99493929190612d58565b6020604051808303816000875af192505050801561191557506040513d601f19601f820116820180604052508101906119129190612db9565b60015b61198e573d8060008114611945576040519150601f19603f3d011682016040523d82523d6000602084013e61194a565b606091505b506000815103611986576040517fd1a57ed600000000000000000000000000000000000000000000000000000000815260040160405180910390fd5b805181602001fd5b63150b7a0260e01b7bffffffffffffffffffffffffffffffffffffffffffffffffffffffff1916817bffffffffffffffffffffffffffffffffffffffffffffffffffffffff191614915050949350505050565b60606000825103611a0357604051806020016040528060008152509050611b3f565b6000604051806060016040528060408152602001612e5a6040913990506000600360028551611a329190612348565b611a3c9190612de6565b6004611a489190612e17565b67ffffffffffffffff811115611a6157611a60611e8b565b5b6040519080825280601f01601f191660200182016040528015611a935781602001600182028036833780820191505090505b509050600182016020820185865187015b80821015611aff576003820191508151603f8160121c168501518453600184019350603f81600c1c168501518453600184019350603f8160061c168501518453600184019350603f8116850151845360018401935050611aa4565b5050600386510660018114611b1b5760028114611b2e57611b36565b603d6001830353603d6002830353611b36565b603d60018303535b50505080925050505b919050565b60006001821460e11b9050919050565b60009392505050565b6000604051905090565b600080fd5b600080fd5b60007fffffffff0000000000000000000000000000000000000000000000000000000082169050919050565b611ba681611b71565b8114611bb157600080fd5b50565b600081359050611bc381611b9d565b92915050565b600060208284031215611bdf57611bde611b67565b5b6000611bed84828501611bb4565b91505092915050565b60008115159050919050565b611c0b81611bf6565b82525050565b6000602082019050611c266000830184611c02565b92915050565b600081519050919050565b600082825260208201905092915050565b60005b83811015611c66578082015181840152602081019050611c4b565b60008484015250505050565b6000601f19601f8301169050919050565b6000611c8e82611c2c565b611c988185611c37565b9350611ca8818560208601611c48565b611cb181611c72565b840191505092915050565b60006020820190508181036000830152611cd68184611c83565b905092915050565b6000819050919050565b611cf181611cde565b8114611cfc57600080fd5b50565b600081359050611d0e81611ce8565b92915050565b600060208284031215611d2a57611d29611b67565b5b6000611d3884828501611cff565b91505092915050565b600073ffffffffffffffffffffffffffffffffffffffff82169050919050565b6000611d6c82611d41565b9050919050565b611d7c81611d61565b82525050565b6000602082019050611d976000830184611d73565b92915050565b611da681611d61565b8114611db157600080fd5b50565b600081359050611dc381611d9d565b92915050565b60008060408385031215611de057611ddf611b67565b5b6000611dee85828601611db4565b9250506020611dff85828601611cff565b9150509250929050565b611e1281611cde565b82525050565b6000602082019050611e2d6000830184611e09565b92915050565b600080600060608486031215611e4c57611e4b611b67565b5b6000611e5a86828701611db4565b9350506020611e6b86828701611db4565b9250506040611e7c86828701611cff565b9150509250925092565b600080fd5b7f4e487b7100000000000000000000000000000000000000000000000000000000600052604160045260246000fd5b611ec382611c72565b810181811067ffffffffffffffff82111715611ee257611ee1611e8b565b5b80604052505050565b6000611ef5611b5d565b9050611f018282611eba565b919050565b600067ffffffffffffffff821115611f2157611f20611e8b565b5b602082029050919050565b600080fd5b6000611f44611f3f84611f06565b611eeb565b90508060208402830185811115611f5e57611f5d611f2c565b5b835b81811015611f875780611f738882611cff565b845260208401935050602081019050611f60565b5050509392505050565b600082601f830112611fa657611fa5611e86565b5b6003611fb3848285611f31565b91505092915050565b60008060808385031215611fd357611fd2611b67565b5b6000611fe185828601611cff565b9250506020611ff285828601611f91565b9150509250929050565b60006020828403121561201257612011611b67565b5b600061202084828501611db4565b91505092915050565b61203281611bf6565b811461203d57600080fd5b50565b60008135905061204f81612029565b92915050565b6000806040838503121561206c5761206b611b67565b5b600061207a85828601611db4565b925050602061208b85828601612040565b9150509250929050565b600080fd5b600067ffffffffffffffff8211156120b5576120b4611e8b565b5b6120be82611c72565b9050602081019050919050565b82818337600083830152505050565b60006120ed6120e88461209a565b611eeb565b90508281526020810184848401111561210957612108612095565b5b6121148482856120cb565b509392505050565b600082601f83011261213157612130611e86565b5b81356121418482602086016120da565b91505092915050565b6000806000806080858703121561216457612163611b67565b5b600061217287828801611db4565b945050602061218387828801611db4565b935050604061219487828801611cff565b925050606085013567ffffffffffffffff8111156121b5576121b4611b6c565b5b6121c18782880161211c565b91505092959194509250565b60006080820190506121e26000830187611d73565b6121ef6020830186611e09565b6121fc6040830185611e09565b818103606083015261220e8184611c83565b905095945050505050565b600080604083850312156122305761222f611b67565b5b600061223e85828601611db4565b925050602061224f85828601611db4565b9150509250929050565b7f4e487b7100000000000000000000000000000000000000000000000000000000600052602260045260246000fd5b600060028204905060018216806122a057607f821691505b6020821081036122b3576122b2612259565b5b50919050565b7f4e487b7100000000000000000000000000000000000000000000000000000000600052601260045260246000fd5b60006122f382611cde565b91506122fe83611cde565b92508261230e5761230d6122b9565b5b828206905092915050565b7f4e487b7100000000000000000000000000000000000000000000000000000000600052601160045260246000fd5b600061235382611cde565b915061235e83611cde565b925082820190508082111561237657612375612319565b5b92915050565b600061238782611cde565b91507fffffffffffffffffffffffffffffffffffffffffffffffffffffffffffffffff82036123b9576123b8612319565b5b600182019050919050565b7f536e617073686f7420646f6573206e6f74206578697374000000000000000000600082015250565b60006123fa601783611c37565b9150612405826123c4565b602082019050919050565b60006020820190508181036000830152612429816123ed565b9050919050565b7f4e487b7100000000000000000000000000000000000000000000000000000000600052603260045260246000fd5b600081905092915050565b7f7267622800000000000000000000000000000000000000000000000000000000600082015250565b60006124a060048361245f565b91506124ab8261246a565b600482019050919050565b60006124c182611c2c565b6124cb818561245f565b93506124db818560208601611c48565b80840191505092915050565b7f2c00000000000000000000000000000000000000000000000000000000000000600082015250565b600061251d60018361245f565b9150612528826124e7565b600182019050919050565b7f2900000000000000000000000000000000000000000000000000000000000000600082015250565b600061256960018361245f565b915061257482612533565b600182019050919050565b600061258a82612493565b915061259682866124b6565b91506125a182612510565b91506125ad82856124b6565b91506125b882612510565b91506125c482846124b6565b91506125cf8261255c565b9150819050949350505050565b60008190508160005260206000209050919050565b60006020601f8301049050919050565b600082821b905092915050565b60006008830261263e7fffffffffffffffffffffffffffffffffffffffffffffffffffffffffffffffff82612601565b6126488683612601565b95508019841693508086168417925050509392505050565b6000819050919050565b600061268561268061267b84611cde565b612660565b611cde565b9050919050565b6000819050919050565b61269f8361266a565b6126b36126ab8261268c565b84845461260e565b825550505050565b600090565b6126c86126bb565b6126d3818484612696565b505050565b5b818110156126f7576126ec6000826126c0565b6001810190506126d9565b5050565b601f82111561273c5761270d816125dc565b612716846125f1565b81016020851015612725578190505b612739612731856125f1565b8301826126d8565b50505b505050565b600082821c905092915050565b600061275f60001984600802612741565b1980831691505092915050565b6000612778838361274e565b9150826002028217905092915050565b61279182611c2c565b67ffffffffffffffff8111156127aa576127a9611e8b565b5b6127b48254612288565b6127bf8282856126fb565b600060209050601f8311600181146127f257600084156127e0578287015190505b6127ea858261276c565b865550612852565b601f198416612800866125dc565b60005b8281101561282857848901518255600182019150602085019450602081019050612803565b868310156128455784890151612841601f89168261274e565b8355505b6001600288020188555050505b505050505050565b7f536e617073686f7420616c72656164792074616b656e20666f7220746869732060008201527f76657273696f6e206f6620617274000000000000000000000000000000000000602082015250565b60006128b6602e83611c37565b91506128c18261285a565b604082019050919050565b600060208201905081810360008301526128e5816128a9565b9050919050565b7f7b226e616d65223a2022506978656c5465737420000000000000000000000000600082015250565b600061292260148361245f565b915061292d826128ec565b601482019050919050565b7f222c20226465736372697074696f6e223a20225468697320697320612074657360008201527f74222c2022696d616765223a2022646174613a696d6167652f7376672b786d6c60208201527f3b6261736536342c000000000000000000000000000000000000000000000000604082015250565b60006129ba60488361245f565b91506129c582612938565b604882019050919050565b7f227d000000000000000000000000000000000000000000000000000000000000600082015250565b6000612a0660028361245f565b9150612a11826129d0565b600282019050919050565b6000612a2782612915565b9150612a3382856124b6565b9150612a3e826129ad565b9150612a4a82846124b6565b9150612a55826129f9565b91508190509392505050565b7f646174613a6170706c69636174696f6e2f6a736f6e3b6261736536342c000000600082015250565b6000612a97601d8361245f565b9150612aa282612a61565b601d82019050919050565b6000612ab882612a8a565b9150612ac482846124b6565b915081905092915050565b7f3c2f7374796c653e3c2f7376673e000000000000000000000000000000000000600082015250565b6000612b05600e8361245f565b9150612b1082612acf565b600e82019050919050565b6000612b2782856124b6565b9150612b3382846124b6565b9150612b3e82612af8565b91508190509392505050565b7f2370000000000000000000000000000000000000000000000000000000000000600082015250565b6000612b8060028361245f565b9150612b8b82612b4a565b600282019050919050565b7f7b66696c6c3a0000000000000000000000000000000000000000000000000000600082015250565b6000612bcc60068361245f565b9150612bd782612b96565b600682019050919050565b60008154612bef81612288565b612bf9818661245f565b94506001821660008114612c145760018114612c2957612c5c565b60ff1983168652811515820286019350612c5c565b612c32856125dc565b60005b83811015612c5457815481890152600182019150602081019050612c35565b838801955050505b50505092915050565b7f7d00000000000000000000000000000000000000000000000000000000000000600082015250565b6000612c9b60018361245f565b9150612ca682612c65565b600182019050919050565b6000612cbd82866124b6565b9150612cc882612b73565b9150612cd482856124b6565b9150612cdf82612bbf565b9150612ceb8284612be2565b9150612cf682612c8e565b9150819050949350505050565b600081519050919050565b600082825260208201905092915050565b6000612d2a82612d03565b612d348185612d0e565b9350612d44818560208601611c48565b612d4d81611c72565b840191505092915050565b6000608082019050612d6d6000830187611d73565b612d7a6020830186611d73565b612d876040830185611e09565b8181036060830152612d998184612d1f565b905095945050505050565b600081519050612db381611b9d565b92915050565b600060208284031215612dcf57612dce611b67565b5b6000612ddd84828501612da4565b91505092915050565b6000612df182611cde565b9150612dfc83611cde565b925082612e0c57612e0b6122b9565b5b828204905092915050565b6000612e2282611cde565b9150612e2d83611cde565b9250828202612e3b81611cde565b91508282048414831517612e5257612e51612319565b5b509291505056fe4142434445464748494a4b4c4d4e4f505152535455565758595a6162636465666768696a6b6c6d6e6f707172737475767778797a303132333435363738392b2f3c7376672077696474683d2238303022206865696768743d22383030222076696577426f783d223020302031352031352220786d6c6e733d22687474703a2f2f7777772e77332e6f72672f323030302f737667223e3c726563742077696474683d22313522206865696768743d223135222066696c6c3d2223304330433043222f3e3c6720636c6173733d2274696c6573223e3c726563742069643d2270312220783d22332220793d2233222066696c6c3d2223666666222f3e3c726563742069643d2270322220783d22342220793d2233222066696c6c3d2223666666222f3e3c726563742069643d2270332220783d22352220793d2233222066696c6c3d2223666666222f3e3c726563742069643d2270342220783d22362220793d2233222066696c6c3d2223666666222f3e3c726563742069643d2270352220783d22372220793d2233222066696c6c3d2223666666222f3e3c726563742069643d2270362220783d22382220793d2233222066696c6c3d2223666666222f3e3c726563742069643d2270372220783d22392220793d2233222066696c6c3d2223666666222f3e3c726563742069643d2270382220783d2231302220793d2233222066696c6c3d2223666666222f3e3c726563742069643d2270392220783d2231312220793d2233222066696c6c3d2223666666222f3e3c726563742069643d227031302220783d22332220793d2234222066696c6c3d2223666666222f3e3c726563742069643d227031312220783d22342220793d2234222066696c6c3d2223666666222f3e3c726563742069643d227031322220783d22352220793d2234222066696c6c3d2223666666222f3e3c726563742069643d227031332220783d22362220793d2234222066696c6c3d2223666666222f3e3c726563742069643d227031342220783d22372220793d2234222066696c6c3d2223666666222f3e3c726563742069643d227031352220783d22382220793d2234222066696c6c3d2223666666222f3e3c726563742069643d227031362220783d22392220793d2234222066696c6c3d2223666666222f3e3c726563742069643d227031372220783d2231302220793d2234222066696c6c3d2223666666222f3e3c726563742069643d227031382220783d2231312220793d2234222066696c6c3d2223666666222f3e3c726563742069643d227031392220783d22332220793d2235222066696c6c3d2223666666222f3e3c726563742069643d227032302220783d22342220793d2235222066696c6c3d2223666666222f3e3c726563742069643d227032312220783d22352220793d2235222066696c6c3d2223666666222f3e3c726563742069643d227032322220783d22362220793d2235222066696c6c3d2223666666222f3e3c726563742069643d227032332220783d22372220793d2235222066696c6c3d2223666666222f3e3c726563742069643d227032342220783d22382220793d2235222066696c6c3d2223666666222f3e3c726563742069643d227032352220783d22392220793d2235222066696c6c3d2223666666222f3e3c726563742069643d227032362220783d2231302220793d2235222066696c6c3d2223666666222f3e3c726563742069643d227032372220783d2231312220793d2235222066696c6c3d2223666666222f3e3c726563742069643d227032382220783d22332220793d2236222066696c6c3d2223666666222f3e3c726563742069643d227032392220783d22342220793d2236222066696c6c3d2223666666222f3e3c726563742069643d227033302220783d22352220793d2236222066696c6c3d2223666666222f3e3c726563742069643d227033312220783d22362220793d2236222066696c6c3d2223666666222f3e3c726563742069643d227033322220783d22372220793d2236222066696c6c3d2223666666222f3e3c726563742069643d227033332220783d22382220793d2236222066696c6c3d2223666666222f3e3c726563742069643d227033342220783d22392220793d2236222066696c6c3d2223666666222f3e3c726563742069643d227033352220783d2231302220793d2236222066696c6c3d2223666666222f3e3c726563742069643d227033362220783d2231312220793d2236222066696c6c3d2223666666222f3e3c726563742069643d227033372220783d22332220793d2237222066696c6c3d2223666666222f3e3c726563742069643d227033382220783d22342220793d2237222066696c6c3d2223666666222f3e3c726563742069643d227033392220783d22352220793d2237222066696c6c3d2223666666222f3e3c726563742069643d227034302220783d22362220793d2237222066696c6c3d2223666666222f3e3c726563742069643d227034312220783d22372220793d2237222066696c6c3d2223666666222f3e3c726563742069643d227034322220783d22382220793d2237222066696c6c3d2223666666222f3e3c726563742069643d227034332220783d22392220793d2237222066696c6c3d2223666666222f3e3c726563742069643d227034342220783d2231302220793d2237222066696c6c3d2223666666222f3e3c726563742069643d227034352220783d2231312220793d2237222066696c6c3d2223666666222f3e3c726563742069643d227034362220783d22332220793d2238222066696c6c3d2223666666222f3e3c726563742069643d227034372220783d22342220793d2238222066696c6c3d2223666666222f3e3c726563742069643d227034382220783d22352220793d2238222066696c6c3d2223666666222f3e3c726563742069643d227034392220783d22362220793d2238222066696c6c3d2223666666222f3e3c726563742069643d227035302220783d22372220793d2238222066696c6c3d2223666666222f3e3c726563742069643d227035312220783d22382220793d2238222066696c6c3d2223666666222f3e3c726563742069643d227035322220783d22392220793d2238222066696c6c3d2223666666222f3e3c726563742069643d227035332220783d2231302220793d2238222066696c6c3d2223666666222f3e3c726563742069643d227035342220783d2231312220793d2238222066696c6c3d2223666666222f3e3c726563742069643d227035352220783d22332220793d2239222066696c6c3d2223666666222f3e3c726563742069643d227035362220783d22342220793d2239222066696c6c3d2223666666222f3e3c726563742069643d227035372220783d22352220793d2239222066696c6c3d2223666666222f3e3c726563742069643d227035382220783d22362220793d2239222066696c6c3d2223666666222f3e3c726563742069643d227035392220783d22372220793d2239222066696c6c3d2223666666222f3e3c726563742069643d227036302220783d22382220793d2239222066696c6c3d2223666666222f3e3c726563742069643d227036312220783d22392220793d2239222066696c6c3d2223666666222f3e3c726563742069643d227036322220783d2231302220793d2239222066696c6c3d2223666666222f3e3c726563742069643d227036332220783d2231312220793d2239222066696c6c3d2223666666222f3e3c726563742069643d227036342220783d22332220793d223130222066696c6c3d2223666666222f3e3c726563742069643d227036352220783d22342220793d223130222066696c6c3d2223666666222f3e3c726563742069643d227036362220783d22352220793d223130222066696c6c3d2223666666222f3e3c726563742069643d227036372220783d22362220793d223130222066696c6c3d2223666666222f3e3c726563742069643d227036382220783d22372220793d223130222066696c6c3d2223666666222f3e3c726563742069643d227036392220783d22382220793d223130222066696c6c3d2223666666222f3e3c726563742069643d227037302220783d22392220793d223130222066696c6c3d2223666666222f3e3c726563742069643d227037312220783d2231302220793d223130222066696c6c3d2223666666222f3e3c726563742069643d227037322220783d2231312220793d223130222066696c6c3d2223666666222f3e3c726563742069643d227037332220783d22332220793d223131222066696c6c3d2223666666222f3e3c726563742069643d227037342220783d22342220793d223131222066696c6c3d2223666666222f3e3c726563742069643d227037352220783d22352220793d223131222066696c6c3d2223666666222f3e3c726563742069643d227037362220783d22362220793d223131222066696c6c3d2223666666222f3e3c726563742069643d227037372220783d22372220793d223131222066696c6c3d2223666666222f3e3c726563742069643d227037382220783d22382220793d223131222066696c6c3d2223666666222f3e3c726563742069643d227037392220783d22392220793d223131222066696c6c3d2223666666222f3e3c726563742069643d227038302220783d2231302220793d223131222066696c6c3d2223666666222f3e3c726563742069643d227038312220783d2231312220793d223131222066696c6c3d2223666666222f3e3c2f673e3c6720636c6173733d2267726964223e3c6c696e652078313d22312e303035222079313d222d322e3138353537652d3130222078323d22312e303035222079323d223135222f3e3c6c696e652078313d22322e303035222079313d222d322e3138353537652d3130222078323d22322e303035222079323d223135222f3e3c6c696e652078313d22332e303035222079313d222d322e3138353537652d3130222078323d22332e303035222079323d223135222f3e3c6c696e652078313d22342e303035222079313d222d322e3138353537652d3130222078323d22342e303035222079323d223135222f3e3c6c696e652078313d22352e303035222079313d222d322e3138353537652d3130222078323d22352e303035222079323d223135222f3e3c6c696e652078313d22362e303035222079313d222d322e3138353537652d3130222078323d22362e303035222079323d223135222f3e3c6c696e652078313d22372e303035222079313d222d322e3138353537652d3130222078323d22372e303035222079323d223135222f3e3c6c696e652078313d22382e303035222079313d222d322e3138353537652d3130222078323d22382e303035222079323d223135222f3e3c6c696e652078313d22392e303035222079313d222d322e3138353537652d3130222078323d22392e303035222079323d223135222f3e3c6c696e652078313d2231302e303035222079313d222d322e3138353537652d3130222078323d2231302e303035222079323d223135222f3e3c6c696e652078313d2231312e303035222079313d222d322e3138353537652d3130222078323d2231312e303035222079323d223135222f3e3c6c696e652078313d2231322e303035222079313d222d322e3138353537652d3130222078323d2231322e303035222079323d223135222f3e3c6c696e652078313d2231332e303035222079313d222d322e3138353537652d3130222078323d2231332e303035222079323d223135222f3e3c6c696e652078313d2231342e303035222079313d222d322e3138353537652d3130222078323d2231342e303035222079323d223135222f3e3c6c696e652078313d223135222079313d22312e303035222079323d22312e303035222f3e3c6c696e652078313d223135222079313d22322e303035222079323d22322e303035222f3e3c6c696e652078313d223135222079313d22332e303035222079323d22332e303035222f3e3c6c696e652078313d223135222079313d22342e303035222079323d22342e303035222f3e3c6c696e652078313d223135222079313d22352e303035222079323d22352e303035222f3e3c6c696e652078313d223135222079313d22362e303035222079323d22362e303035222f3e3c6c696e652078313d223135222079313d22372e303035222079323d22372e303035222f3e3c6c696e652078313d223135222079313d22382e303035222079323d22382e303035222f3e3c6c696e652078313d223135222079313d22392e303035222079323d22392e303035222f3e3c6c696e652078313d223135222079313d2231302e303035222079323d2231302e303035222f3e3c6c696e652078313d223135222079313d2231312e303035222079323d2231312e303035222f3e3c6c696e652078313d223135222079313d2231322e303035222079323d2231322e303035222f3e3c6c696e652078313d223135222079313d2231332e303035222079323d2231332e303035222f3e3c6c696e652078313d223135222079313d2231342e303035222079323d2231342e303035222f3e3c2f673e3c7374796c653e2e74696c657320726563747b77696474683a3170783b6865696768743a3170783b7d2e677269647b7374726f6b653a233232323b7374726f6b652d77696474683a2e30313b7da26469706673582212201cde4e12b7298137132e35fbd3d8e38720446a38bb3286ceae1621421dc6b15764736f6c63430008120033",
			"opcodes": "PUSH1 0x80 PUSH1 0x40 MSTORE CALLVALUE DUP1 ISZERO PUSH3 0x11 JUMPI PUSH1 0x0 DUP1 REVERT JUMPDEST POP PUSH1 0x40 MLOAD DUP1 PUSH1 0x40 ADD PUSH1 0x40 MSTORE DUP1 PUSH1 0x9 DUP2 MSTORE PUSH1 0x20 ADD PUSH32 0x506978656C546573740000000000000000000000000000000000000000000000 DUP2 MSTORE POP PUSH1 0x40 MLOAD DUP1 PUSH1 0x40 ADD PUSH1 0x40 MSTORE DUP1 PUSH1 0x3 DUP2 MSTORE PUSH1 0x20 ADD PUSH32 0x50584C0000000000000000000000000000000000000000000000000000000000 DUP2 MSTORE POP DUP2 PUSH1 0x2 SWAP1 DUP2 PUSH3 0x8F SWAP2 SWAP1 PUSH3 0x33F JUMP JUMPDEST POP DUP1 PUSH1 0x3 SWAP1 DUP2 PUSH3 0xA1 SWAP2 SWAP1 PUSH3 0x33F JUMP JUMPDEST POP PUSH3 0xB2 PUSH3 0xC0 PUSH1 0x20 SHL PUSH1 0x20 SHR JUMP JUMPDEST PUSH1 0x0 DUP2 SWAP1 SSTORE POP POP POP PUSH3 0x426 JUMP JUMPDEST PUSH1 0x0 SWAP1 JUMP JUMPDEST PUSH1 0x0 DUP2 MLOAD SWAP1 POP SWAP2 SWAP1 POP JUMP JUMPDEST PUSH32 0x4E487B7100000000000000000000000000000000000000000000000000000000 PUSH1 0x0 MSTORE PUSH1 0x41 PUSH1 0x4 MSTORE PUSH1 0x24 PUSH1 0x0 REVERT JUMPDEST PUSH32 0x4E487B7100000000000000000000000000000000000000000000000000000000 PUSH1 0x0 MSTORE PUSH1 0x22 PUSH1 0x4 MSTORE PUSH1 0x24 PUSH1 0x0 REVERT JUMPDEST PUSH1 0x0 PUSH1 0x2 DUP3 DIV SWAP1 POP PUSH1 0x1 DUP3 AND DUP1 PUSH3 0x147 JUMPI PUSH1 0x7F DUP3 AND SWAP2 POP JUMPDEST PUSH1 0x20 DUP3 LT DUP2 SUB PUSH3 0x15D JUMPI PUSH3 0x15C PUSH3 0xFF JUMP JUMPDEST JUMPDEST POP SWAP2 SWAP1 POP JUMP JUMPDEST PUSH1 0x0 DUP2 SWAP1 POP DUP2 PUSH1 0x0 MSTORE PUSH1 0x20 PUSH1 0x0 KECCAK256 SWAP1 POP SWAP2 SWAP1 POP JUMP JUMPDEST PUSH1 0x0 PUSH1 0x20 PUSH1 0x1F DUP4 ADD DIV SWAP1 POP SWAP2 SWAP1 POP JUMP JUMPDEST PUSH1 0x0 DUP3 DUP3 SHL SWAP1 POP SWAP3 SWAP2 POP POP JUMP JUMPDEST PUSH1 0x0 PUSH1 0x8 DUP4 MUL PUSH3 0x1C7 PUSH32 0xFFFFFFFFFFFFFFFFFFFFFFFFFFFFFFFFFFFFFFFFFFFFFFFFFFFFFFFFFFFFFFFF DUP3 PUSH3 0x188 JUMP JUMPDEST PUSH3 0x1D3 DUP7 DUP4 PUSH3 0x188 JUMP JUMPDEST SWAP6 POP DUP1 NOT DUP5 AND SWAP4 POP DUP1 DUP7 AND DUP5 OR SWAP3 POP POP POP SWAP4 SWAP3 POP POP POP JUMP JUMPDEST PUSH1 0x0 DUP2 SWAP1 POP SWAP2 SWAP1 POP JUMP JUMPDEST PUSH1 0x0 DUP2 SWAP1 POP SWAP2 SWAP1 POP JUMP JUMPDEST PUSH1 0x0 PUSH3 0x220 PUSH3 0x21A PUSH3 0x214 DUP5 PUSH3 0x1EB JUMP JUMPDEST PUSH3 0x1F5 JUMP JUMPDEST PUSH3 0x1EB JUMP JUMPDEST SWAP1 POP SWAP2 SWAP1 POP JUMP JUMPDEST PUSH1 0x0 DUP2 SWAP1 POP SWAP2 SWAP1 POP JUMP JUMPDEST PUSH3 0x23C DUP4 PUSH3 0x1FF JUMP JUMPDEST PUSH3 0x254 PUSH3 0x24B DUP3 PUSH3 0x227 JUMP JUMPDEST DUP5 DUP5 SLOAD PUSH3 0x195 JUMP JUMPDEST DUP3 SSTORE POP POP POP POP JUMP JUMPDEST PUSH1 0x0 SWAP1 JUMP JUMPDEST PUSH3 0x26B PUSH3 0x25C JUMP JUMPDEST PUSH3 0x278 DUP2 DUP5 DUP5 PUSH3 0x231 JUMP JUMPDEST POP POP POP JUMP JUMPDEST JUMPDEST DUP2 DUP2 LT ISZERO PUSH3 0x2A0 JUMPI PUSH3 0x294 PUSH1 0x0 DUP3 PUSH3 0x261 JUMP JUMPDEST PUSH1 0x1 DUP2 ADD SWAP1 POP PUSH3 0x27E JUMP JUMPDEST POP POP JUMP JUMPDEST PUSH1 0x1F DUP3 GT ISZERO PUSH3 0x2EF JUMPI PUSH3 0x2B9 DUP2 PUSH3 0x163 JUMP JUMPDEST PUSH3 0x2C4 DUP5 PUSH3 0x178 JUMP JUMPDEST DUP2 ADD PUSH1 0x20 DUP6 LT ISZERO PUSH3 0x2D4 JUMPI DUP2 SWAP1 POP JUMPDEST PUSH3 0x2EC PUSH3 0x2E3 DUP6 PUSH3 0x178 JUMP JUMPDEST DUP4 ADD DUP3 PUSH3 0x27D JUMP JUMPDEST POP POP JUMPDEST POP POP POP JUMP JUMPDEST PUSH1 0x0 DUP3 DUP3 SHR SWAP1 POP SWAP3 SWAP2 POP POP JUMP JUMPDEST PUSH1 0x0 PUSH3 0x314 PUSH1 0x0 NOT DUP5 PUSH1 0x8 MUL PUSH3 0x2F4 JUMP JUMPDEST NOT DUP1 DUP4 AND SWAP2 POP POP SWAP3 SWAP2 POP POP JUMP JUMPDEST PUSH1 0x0 PUSH3 0x32F DUP4 DUP4 PUSH3 0x301 JUMP JUMPDEST SWAP2 POP DUP3 PUSH1 0x2 MUL DUP3 OR SWAP1 POP SWAP3 SWAP2 POP POP JUMP JUMPDEST PUSH3 0x34A DUP3 PUSH3 0xC5 JUMP JUMPDEST PUSH8 0xFFFFFFFFFFFFFFFF DUP2 GT ISZERO PUSH3 0x366 JUMPI PUSH3 0x365 PUSH3 0xD0 JUMP JUMPDEST JUMPDEST PUSH3 0x372 DUP3 SLOAD PUSH3 0x12E JUMP JUMPDEST PUSH3 0x37F DUP3 DUP3 DUP6 PUSH3 0x2A4 JUMP JUMPDEST PUSH1 0x0 PUSH1 0x20 SWAP1 POP PUSH1 0x1F DUP4 GT PUSH1 0x1 DUP2 EQ PUSH3 0x3B7 JUMPI PUSH1 0x0 DUP5 ISZERO PUSH3 0x3A2 JUMPI DUP3 DUP8 ADD MLOAD SWAP1 POP JUMPDEST PUSH3 0x3AE DUP6 DUP3 PUSH3 0x321 JUMP JUMPDEST DUP7 SSTORE POP PUSH3 0x41E JUMP JUMPDEST PUSH1 0x1F NOT DUP5 AND PUSH3 0x3C7 DUP7 PUSH3 0x163 JUMP JUMPDEST PUSH1 0x0 JUMPDEST DUP3 DUP2 LT ISZERO PUSH3 0x3F1 JUMPI DUP5 DUP10 ADD MLOAD DUP3 SSTORE PUSH1 0x1 DUP3 ADD SWAP2 POP PUSH1 0x20 DUP6 ADD SWAP5 POP PUSH1 0x20 DUP2 ADD SWAP1 POP PUSH3 0x3CA JUMP JUMPDEST DUP7 DUP4 LT ISZERO PUSH3 0x411 JUMPI DUP5 DUP10 ADD MLOAD PUSH3 0x40D PUSH1 0x1F DUP10 AND DUP3 PUSH3 0x301 JUMP JUMPDEST DUP4 SSTORE POP JUMPDEST PUSH1 0x1 PUSH1 0x2 DUP9 MUL ADD DUP9 SSTORE POP POP POP JUMPDEST POP POP POP POP POP POP JUMP JUMPDEST PUSH2 0x41A6 DUP1 PUSH3 0x436 PUSH1 0x0 CODECOPY PUSH1 0x0 RETURN INVALID PUSH1 0x80 PUSH1 0x40 MSTORE PUSH1 0x4 CALLDATASIZE LT PUSH2 0x140 JUMPI PUSH1 0x0 CALLDATALOAD PUSH1 0xE0 SHR DUP1 PUSH4 0x59AF38D3 GT PUSH2 0xB6 JUMPI DUP1 PUSH4 0xB3D3D37E GT PUSH2 0x6F JUMPI DUP1 PUSH4 0xB3D3D37E EQ PUSH2 0x421 JUMPI DUP1 PUSH4 0xB88D4FDE EQ PUSH2 0x438 JUMPI DUP1 PUSH4 0xC87B56DD EQ PUSH2 0x454 JUMPI DUP1 PUSH4 0xD6565A2D EQ PUSH2 0x491 JUMPI DUP1 PUSH4 0xDD6D30C1 EQ PUSH2 0x4D1 JUMPI DUP1 PUSH4 0xE985E9C5 EQ PUSH2 0x4FC JUMPI PUSH2 0x140 JUMP JUMPDEST DUP1 PUSH4 0x59AF38D3 EQ PUSH2 0x2FF JUMPI DUP1 PUSH4 0x6352211E EQ PUSH2 0x328 JUMPI DUP1 PUSH4 0x70A08231 EQ PUSH2 0x365 JUMPI DUP1 PUSH4 0x95D89B41 EQ PUSH2 0x3A2 JUMPI DUP1 PUSH4 0xA22CB465 EQ PUSH2 0x3CD JUMPI DUP1 PUSH4 0xAD7FA0D3 EQ PUSH2 0x3F6 JUMPI PUSH2 0x140 JUMP JUMPDEST DUP1 PUSH4 0x18160DDD GT PUSH2 0x108 JUMPI DUP1 PUSH4 0x18160DDD EQ PUSH2 0x21D JUMPI DUP1 PUSH4 0x23B872DD EQ PUSH2 0x248 JUMPI DUP1 PUSH4 0x36F3A665 EQ PUSH2 0x264 JUMPI DUP1 PUSH4 0x3C1D7CB7 EQ PUSH2 0x28F JUMPI DUP1 PUSH4 0x42842E0E EQ PUSH2 0x2A6 JUMPI DUP1 PUSH4 0x46A739DF EQ PUSH2 0x2C2 JUMPI PUSH2 0x140 JUMP JUMPDEST DUP1 PUSH4 0x1FFC9A7 EQ PUSH2 0x145 JUMPI DUP1 PUSH4 0x6FDDE03 EQ PUSH2 0x182 JUMPI DUP1 PUSH4 0x81812FC EQ PUSH2 0x1AD JUMPI DUP1 PUSH4 0x95EA7B3 EQ PUSH2 0x1EA JUMPI DUP1 PUSH4 0xCED8637 EQ PUSH2 0x206 JUMPI JUMPDEST PUSH1 0x0 DUP1 REVERT JUMPDEST CALLVALUE DUP1 ISZERO PUSH2 0x151 JUMPI PUSH1 0x0 DUP1 REVERT JUMPDEST POP PUSH2 0x16C PUSH1 0x4 DUP1 CALLDATASIZE SUB DUP2 ADD SWAP1 PUSH2 0x167 SWAP2 SWAP1 PUSH2 0x1BC9 JUMP JUMPDEST PUSH2 0x539 JUMP JUMPDEST PUSH1 0x40 MLOAD PUSH2 0x179 SWAP2 SWAP1 PUSH2 0x1C11 JUMP JUMPDEST PUSH1 0x40 MLOAD DUP1 SWAP2 SUB SWAP1 RETURN JUMPDEST CALLVALUE DUP1 ISZERO PUSH2 0x18E JUMPI PUSH1 0x0 DUP1 REVERT JUMPDEST POP PUSH2 0x197 PUSH2 0x5CB JUMP JUMPDEST PUSH1 0x40 MLOAD PUSH2 0x1A4 SWAP2 SWAP1 PUSH2 0x1CBC JUMP JUMPDEST PUSH1 0x40 MLOAD DUP1 SWAP2 SUB SWAP1 RETURN JUMPDEST CALLVALUE DUP1 ISZERO PUSH2 0x1B9 JUMPI PUSH1 0x0 DUP1 REVERT JUMPDEST POP PUSH2 0x1D4 PUSH1 0x4 DUP1 CALLDATASIZE SUB DUP2 ADD SWAP1 PUSH2 0x1CF SWAP2 SWAP1 PUSH2 0x1D14 JUMP JUMPDEST PUSH2 0x65D JUMP JUMPDEST PUSH1 0x40 MLOAD PUSH2 0x1E1 SWAP2 SWAP1 PUSH2 0x1D82 JUMP JUMPDEST PUSH1 0x40 MLOAD DUP1 SWAP2 SUB SWAP1 RETURN JUMPDEST PUSH2 0x204 PUSH1 0x4 DUP1 CALLDATASIZE SUB DUP2 ADD SWAP1 PUSH2 0x1FF SWAP2 SWAP1 PUSH2 0x1DC9 JUMP JUMPDEST PUSH2 0x6DC JUMP JUMPDEST STOP JUMPDEST CALLVALUE DUP1 ISZERO PUSH2 0x212 JUMPI PUSH1 0x0 DUP1 REVERT JUMPDEST POP PUSH2 0x21B PUSH2 0x820 JUMP JUMPDEST STOP JUMPDEST CALLVALUE DUP1 ISZERO PUSH2 0x229 JUMPI PUSH1 0x0 DUP1 REVERT JUMPDEST POP PUSH2 0x232 PUSH2 0x82D JUMP JUMPDEST PUSH1 0x40 MLOAD PUSH2 0x23F SWAP2 SWAP1 PUSH2 0x1E18 JUMP JUMPDEST PUSH1 0x40 MLOAD DUP1 SWAP2 SUB SWAP1 RETURN JUMPDEST PUSH2 0x262 PUSH1 0x4 DUP1 CALLDATASIZE SUB DUP2 ADD SWAP1 PUSH2 0x25D SWAP2 SWAP1 PUSH2 0x1E33 JUMP JUMPDEST PUSH2 0x844 JUMP JUMPDEST STOP JUMPDEST CALLVALUE DUP1 ISZERO PUSH2 0x270 JUMPI PUSH1 0x0 DUP1 REVERT JUMPDEST POP PUSH2 0x279 PUSH2 0xB66 JUMP JUMPDEST PUSH1 0x40 MLOAD PUSH2 0x286 SWAP2 SWAP1 PUSH2 0x1E18 JUMP JUMPDEST PUSH1 0x40 MLOAD DUP1 SWAP2 SUB SWAP1 RETURN JUMPDEST CALLVALUE DUP1 ISZERO PUSH2 0x29B JUMPI PUSH1 0x0 DUP1 REVERT JUMPDEST POP PUSH2 0x2A4 PUSH2 0xB6C JUMP JUMPDEST STOP JUMPDEST PUSH2 0x2C0 PUSH1 0x4 DUP1 CALLDATASIZE SUB DUP2 ADD SWAP1 PUSH2 0x2BB SWAP2 SWAP1 PUSH2 0x1E33 JUMP JUMPDEST PUSH2 0xBCE JUMP JUMPDEST STOP JUMPDEST CALLVALUE DUP1 ISZERO PUSH2 0x2CE JUMPI PUSH1 0x0 DUP1 REVERT JUMPDEST POP PUSH2 0x2E9 PUSH1 0x4 DUP1 CALLDATASIZE SUB DUP2 ADD SWAP1 PUSH2 0x2E4 SWAP2 SWAP1 PUSH2 0x1D14 JUMP JUMPDEST PUSH2 0xBEE JUMP JUMPDEST PUSH1 0x40 MLOAD PUSH2 0x2F6 SWAP2 SWAP1 PUSH2 0x1CBC JUMP JUMPDEST PUSH1 0x40 MLOAD DUP1 SWAP2 SUB SWAP1 RETURN JUMPDEST CALLVALUE DUP1 ISZERO PUSH2 0x30B JUMPI PUSH1 0x0 DUP1 REVERT JUMPDEST POP PUSH2 0x326 PUSH1 0x4 DUP1 CALLDATASIZE SUB DUP2 ADD SWAP1 PUSH2 0x321 SWAP2 SWAP1 PUSH2 0x1FBC JUMP JUMPDEST PUSH2 0xCEF JUMP JUMPDEST STOP JUMPDEST CALLVALUE DUP1 ISZERO PUSH2 0x334 JUMPI PUSH1 0x0 DUP1 REVERT JUMPDEST POP PUSH2 0x34F PUSH1 0x4 DUP1 CALLDATASIZE SUB DUP2 ADD SWAP1 PUSH2 0x34A SWAP2 SWAP1 PUSH2 0x1D14 JUMP JUMPDEST PUSH2 0xDAF JUMP JUMPDEST PUSH1 0x40 MLOAD PUSH2 0x35C SWAP2 SWAP1 PUSH2 0x1D82 JUMP JUMPDEST PUSH1 0x40 MLOAD DUP1 SWAP2 SUB SWAP1 RETURN JUMPDEST CALLVALUE DUP1 ISZERO PUSH2 0x371 JUMPI PUSH1 0x0 DUP1 REVERT JUMPDEST POP PUSH2 0x38C PUSH1 0x4 DUP1 CALLDATASIZE SUB DUP2 ADD SWAP1 PUSH2 0x387 SWAP2 SWAP1 PUSH2 0x1FFC JUMP JUMPDEST PUSH2 0xDC1 JUMP JUMPDEST PUSH1 0x40 MLOAD PUSH2 0x399 SWAP2 SWAP1 PUSH2 0x1E18 JUMP JUMPDEST PUSH1 0x40 MLOAD DUP1 SWAP2 SUB SWAP1 RETURN JUMPDEST CALLVALUE DUP1 ISZERO PUSH2 0x3AE JUMPI PUSH1 0x0 DUP1 REVERT JUMPDEST POP PUSH2 0x3B7 PUSH2 0xE79 JUMP JUMPDEST PUSH1 0x40 MLOAD PUSH2 0x3C4 SWAP2 SWAP1 PUSH2 0x1CBC JUMP JUMPDEST PUSH1 0x40 MLOAD DUP1 SWAP2 SUB SWAP1 RETURN JUMPDEST CALLVALUE DUP1 ISZERO PUSH2 0x3D9 JUMPI PUSH1 0x0 DUP1 REVERT JUMPDEST POP PUSH2 0x3F4 PUSH1 0x4 DUP1 CALLDATASIZE SUB DUP2 ADD SWAP1 PUSH2 0x3EF SWAP2 SWAP1 PUSH2 0x2055 JUMP JUMPDEST PUSH2 0xF0B JUMP JUMPDEST STOP JUMPDEST CALLVALUE DUP1 ISZERO PUSH2 0x402 JUMPI PUSH1 0x0 DUP1 REVERT JUMPDEST POP PUSH2 0x40B PUSH2 0x1016 JUMP JUMPDEST PUSH1 0x40 MLOAD PUSH2 0x418 SWAP2 SWAP1 PUSH2 0x1CBC JUMP JUMPDEST PUSH1 0x40 MLOAD DUP1 SWAP2 SUB SWAP1 RETURN JUMPDEST CALLVALUE DUP1 ISZERO PUSH2 0x42D JUMPI PUSH1 0x0 DUP1 REVERT JUMPDEST POP PUSH2 0x436 PUSH2 0x102D JUMP JUMPDEST STOP JUMPDEST PUSH2 0x452 PUSH1 0x4 DUP1 CALLDATASIZE SUB DUP2 ADD SWAP1 PUSH2 0x44D SWAP2 SWAP1 PUSH2 0x214A JUMP JUMPDEST PUSH2 0x1178 JUMP JUMPDEST STOP JUMPDEST CALLVALUE DUP1 ISZERO PUSH2 0x460 JUMPI PUSH1 0x0 DUP1 REVERT JUMPDEST POP PUSH2 0x47B PUSH1 0x4 DUP1 CALLDATASIZE SUB DUP2 ADD SWAP1 PUSH2 0x476 SWAP2 SWAP1 PUSH2 0x1D14 JUMP JUMPDEST PUSH2 0x11EB JUMP JUMPDEST PUSH1 0x40 MLOAD PUSH2 0x488 SWAP2 SWAP1 PUSH2 0x1CBC JUMP JUMPDEST PUSH1 0x40 MLOAD DUP1 SWAP2 SUB SWAP1 RETURN JUMPDEST CALLVALUE DUP1 ISZERO PUSH2 0x49D JUMPI PUSH1 0x0 DUP1 REVERT JUMPDEST POP PUSH2 0x4B8 PUSH1 0x4 DUP1 CALLDATASIZE SUB DUP2 ADD SWAP1 PUSH2 0x4B3 SWAP2 SWAP1 PUSH2 0x1D14 JUMP JUMPDEST PUSH2 0x1260 JUMP JUMPDEST PUSH1 0x40 MLOAD PUSH2 0x4C8 SWAP5 SWAP4 SWAP3 SWAP2 SWAP1 PUSH2 0x21CD JUMP JUMPDEST PUSH1 0x40 MLOAD DUP1 SWAP2 SUB SWAP1 RETURN JUMPDEST CALLVALUE DUP1 ISZERO PUSH2 0x4DD JUMPI PUSH1 0x0 DUP1 REVERT JUMPDEST POP PUSH2 0x4E6 PUSH2 0x1338 JUMP JUMPDEST PUSH1 0x40 MLOAD PUSH2 0x4F3 SWAP2 SWAP1 PUSH2 0x1E18 JUMP JUMPDEST PUSH1 0x40 MLOAD DUP1 SWAP2 SUB SWAP1 RETURN JUMPDEST CALLVALUE DUP1 ISZERO PUSH2 0x508 JUMPI PUSH1 0x0 DUP1 REVERT JUMPDEST POP PUSH2 0x523 PUSH1 0x4 DUP1 CALLDATASIZE SUB DUP2 ADD SWAP1 PUSH2 0x51E SWAP2 SWAP1 PUSH2 0x2219 JUMP JUMPDEST PUSH2 0x133E JUMP JUMPDEST PUSH1 0x40 MLOAD PUSH2 0x530 SWAP2 SWAP1 PUSH2 0x1C11 JUMP JUMPDEST PUSH1 0x40 MLOAD DUP1 SWAP2 SUB SWAP1 RETURN JUMPDEST PUSH1 0x0 PUSH4 0x1FFC9A7 PUSH1 0xE0 SHL DUP3 PUSH28 0xFFFFFFFFFFFFFFFFFFFFFFFFFFFFFFFFFFFFFFFFFFFFFFFFFFFFFFFF NOT AND EQ DUP1 PUSH2 0x594 JUMPI POP PUSH4 0x80AC58CD PUSH1 0xE0 SHL DUP3 PUSH28 0xFFFFFFFFFFFFFFFFFFFFFFFFFFFFFFFFFFFFFFFFFFFFFFFFFFFFFFFF NOT AND EQ JUMPDEST DUP1 PUSH2 0x5C4 JUMPI POP PUSH4 0x5B5E139F PUSH1 0xE0 SHL DUP3 PUSH28 0xFFFFFFFFFFFFFFFFFFFFFFFFFFFFFFFFFFFFFFFFFFFFFFFFFFFFFFFF NOT AND EQ JUMPDEST SWAP1 POP SWAP2 SWAP1 POP JUMP JUMPDEST PUSH1 0x60 PUSH1 0x2 DUP1 SLOAD PUSH2 0x5DA SWAP1 PUSH2 0x2288 JUMP JUMPDEST DUP1 PUSH1 0x1F ADD PUSH1 0x20 DUP1 SWAP2 DIV MUL PUSH1 0x20 ADD PUSH1 0x40 MLOAD SWAP1 DUP2 ADD PUSH1 0x40 MSTORE DUP1 SWAP3 SWAP2 SWAP1 DUP2 DUP2 MSTORE PUSH1 0x20 ADD DUP3 DUP1 SLOAD PUSH2 0x606 SWAP1 PUSH2 0x2288 JUMP JUMPDEST DUP1 ISZERO PUSH2 0x653 JUMPI DUP1 PUSH1 0x1F LT PUSH2 0x628 JUMPI PUSH2 0x100 DUP1 DUP4 SLOAD DIV MUL DUP4 MSTORE SWAP2 PUSH1 0x20 ADD SWAP2 PUSH2 0x653 JUMP JUMPDEST DUP3 ADD SWAP2 SWAP1 PUSH1 0x0 MSTORE PUSH1 0x20 PUSH1 0x0 KECCAK256 SWAP1 JUMPDEST DUP2 SLOAD DUP2 MSTORE SWAP1 PUSH1 0x1 ADD SWAP1 PUSH1 0x20 ADD DUP1 DUP4 GT PUSH2 0x636 JUMPI DUP3 SWAP1 SUB PUSH1 0x1F AND DUP3 ADD SWAP2 JUMPDEST POP POP POP POP POP SWAP1 POP SWAP1 JUMP JUMPDEST PUSH1 0x0 PUSH2 0x668 DUP3 PUSH2 0x13D2 JUMP JUMPDEST PUSH2 0x69E JUMPI PUSH1 0x40 MLOAD PUSH32 0xCF4700E400000000000000000000000000000000000000000000000000000000 DUP2 MSTORE PUSH1 0x4 ADD PUSH1 0x40 MLOAD DUP1 SWAP2 SUB SWAP1 REVERT JUMPDEST PUSH1 0x6 PUSH1 0x0 DUP4 DUP2 MSTORE PUSH1 0x20 ADD SWAP1 DUP2 MSTORE PUSH1 0x20 ADD PUSH1 0x0 KECCAK256 PUSH1 0x0 ADD PUSH1 0x0 SWAP1 SLOAD SWAP1 PUSH2 0x100 EXP SWAP1 DIV PUSH20 0xFFFFFFFFFFFFFFFFFFFFFFFFFFFFFFFFFFFFFFFF AND SWAP1 POP SWAP2 SWAP1 POP JUMP JUMPDEST PUSH1 0x0 PUSH2 0x6E7 DUP3 PUSH2 0xDAF JUMP JUMPDEST SWAP1 POP DUP1 PUSH20 0xFFFFFFFFFFFFFFFFFFFFFFFFFFFFFFFFFFFFFFFF AND PUSH2 0x708 PUSH2 0x1431 JUMP JUMPDEST PUSH20 0xFFFFFFFFFFFFFFFFFFFFFFFFFFFFFFFFFFFFFFFF AND EQ PUSH2 0x76B JUMPI PUSH2 0x734 DUP2 PUSH2 0x72F PUSH2 0x1431 JUMP JUMPDEST PUSH2 0x133E JUMP JUMPDEST PUSH2 0x76A JUMPI PUSH1 0x40 MLOAD PUSH32 0xCFB3B94200000000000000000000000000000000000000000000000000000000 DUP2 MSTORE PUSH1 0x4 ADD PUSH1 0x40 MLOAD DUP1 SWAP2 SUB SWAP1 REVERT JUMPDEST JUMPDEST DUP3 PUSH1 0x6 PUSH1 0x0 DUP5 DUP2 MSTORE PUSH1 0x20 ADD SWAP1 DUP2 MSTORE PUSH1 0x20 ADD PUSH1 0x0 KECCAK256 PUSH1 0x0 ADD PUSH1 0x0 PUSH2 0x100 EXP DUP2 SLOAD DUP2 PUSH20 0xFFFFFFFFFFFFFFFFFFFFFFFFFFFFFFFFFFFFFFFF MUL NOT AND SWAP1 DUP4 PUSH20 0xFFFFFFFFFFFFFFFFFFFFFFFFFFFFFFFFFFFFFFFF AND MUL OR SWAP1 SSTORE POP DUP2 DUP4 PUSH20 0xFFFFFFFFFFFFFFFFFFFFFFFFFFFFFFFFFFFFFFFF AND DUP3 PUSH20 0xFFFFFFFFFFFFFFFFFFFFFFFFFFFFFFFFFFFFFFFF AND PUSH32 0x8C5BE1E5EBEC7D5BD14F71427D1E84F3DD0314C0F7B2291E5B200AC8C7C3B925 PUSH1 0x40 MLOAD PUSH1 0x40 MLOAD DUP1 SWAP2 SUB SWAP1 LOG4 POP POP POP JUMP JUMPDEST PUSH2 0x82B CALLER PUSH1 0x1 PUSH2 0x1439 JUMP JUMPDEST JUMP JUMPDEST PUSH1 0x0 PUSH2 0x837 PUSH2 0x15F4 JUMP JUMPDEST PUSH1 0x1 SLOAD PUSH1 0x0 SLOAD SUB SUB SWAP1 POP SWAP1 JUMP JUMPDEST PUSH1 0x0 PUSH2 0x84F DUP3 PUSH2 0x15F9 JUMP JUMPDEST SWAP1 POP DUP4 PUSH20 0xFFFFFFFFFFFFFFFFFFFFFFFFFFFFFFFFFFFFFFFF AND DUP2 PUSH20 0xFFFFFFFFFFFFFFFFFFFFFFFFFFFFFFFFFFFFFFFF AND EQ PUSH2 0x8B6 JUMPI PUSH1 0x40 MLOAD PUSH32 0xA114810000000000000000000000000000000000000000000000000000000000 DUP2 MSTORE PUSH1 0x4 ADD PUSH1 0x40 MLOAD DUP1 SWAP2 SUB SWAP1 REVERT JUMPDEST PUSH1 0x0 DUP1 PUSH2 0x8C2 DUP5 PUSH2 0x16C5 JUMP JUMPDEST SWAP2 POP SWAP2 POP PUSH2 0x8D8 DUP2 DUP8 PUSH2 0x8D3 PUSH2 0x1431 JUMP JUMPDEST PUSH2 0x16EC JUMP JUMPDEST PUSH2 0x924 JUMPI PUSH2 0x8ED DUP7 PUSH2 0x8E8 PUSH2 0x1431 JUMP JUMPDEST PUSH2 0x133E JUMP JUMPDEST PUSH2 0x923 JUMPI PUSH1 0x40 MLOAD PUSH32 0x59C896BE00000000000000000000000000000000000000000000000000000000 DUP2 MSTORE PUSH1 0x4 ADD PUSH1 0x40 MLOAD DUP1 SWAP2 SUB SWAP1 REVERT JUMPDEST JUMPDEST PUSH1 0x0 PUSH20 0xFFFFFFFFFFFFFFFFFFFFFFFFFFFFFFFFFFFFFFFF AND DUP6 PUSH20 0xFFFFFFFFFFFFFFFFFFFFFFFFFFFFFFFFFFFFFFFF AND SUB PUSH2 0x98A JUMPI PUSH1 0x40 MLOAD PUSH32 0xEA553B3400000000000000000000000000000000000000000000000000000000 DUP2 MSTORE PUSH1 0x4 ADD PUSH1 0x40 MLOAD DUP1 SWAP2 SUB SWAP1 REVERT JUMPDEST PUSH2 0x997 DUP7 DUP7 DUP7 PUSH1 0x1 PUSH2 0x1730 JUMP JUMPDEST DUP1 ISZERO PUSH2 0x9A2 JUMPI PUSH1 0x0 DUP3 SSTORE JUMPDEST PUSH1 0x5 PUSH1 0x0 DUP8 PUSH20 0xFFFFFFFFFFFFFFFFFFFFFFFFFFFFFFFFFFFFFFFF AND PUSH20 0xFFFFFFFFFFFFFFFFFFFFFFFFFFFFFFFFFFFFFFFF AND DUP2 MSTORE PUSH1 0x20 ADD SWAP1 DUP2 MSTORE PUSH1 0x20 ADD PUSH1 0x0 KECCAK256 PUSH1 0x0 DUP2 SLOAD PUSH1 0x1 SWAP1 SUB SWAP2 SWAP1 POP DUP2 SWAP1 SSTORE POP PUSH1 0x5 PUSH1 0x0 DUP7 PUSH20 0xFFFFFFFFFFFFFFFFFFFFFFFFFFFFFFFFFFFFFFFF AND PUSH20 0xFFFFFFFFFFFFFFFFFFFFFFFFFFFFFFFFFFFFFFFF AND DUP2 MSTORE PUSH1 0x20 ADD SWAP1 DUP2 MSTORE PUSH1 0x20 ADD PUSH1 0x0 KECCAK256 PUSH1 0x0 DUP2 SLOAD PUSH1 0x1 ADD SWAP2 SWAP1 POP DUP2 SWAP1 SSTORE POP PUSH2 0xA70 DUP6 PUSH2 0xA4C DUP9 DUP9 DUP8 PUSH2 0x1736 JUMP JUMPDEST PUSH29 0x200000000000000000000000000000000000000000000000000000000 OR PUSH2 0x175E JUMP JUMPDEST PUSH1 0x4 PUSH1 0x0 DUP7 DUP2 MSTORE PUSH1 0x20 ADD SWAP1 DUP2 MSTORE PUSH1 0x20 ADD PUSH1 0x0 KECCAK256 DUP2 SWAP1 SSTORE POP PUSH1 0x0 PUSH29 0x200000000000000000000000000000000000000000000000000000000 DUP5 AND SUB PUSH2 0xAF6 JUMPI PUSH1 0x0 PUSH1 0x1 DUP6 ADD SWAP1 POP PUSH1 0x0 PUSH1 0x4 PUSH1 0x0 DUP4 DUP2 MSTORE PUSH1 0x20 ADD SWAP1 DUP2 MSTORE PUSH1 0x20 ADD PUSH1 0x0 KECCAK256 SLOAD SUB PUSH2 0xAF4 JUMPI PUSH1 0x0 SLOAD DUP2 EQ PUSH2 0xAF3 JUMPI DUP4 PUSH1 0x4 PUSH1 0x0 DUP4 DUP2 MSTORE PUSH1 0x20 ADD SWAP1 DUP2 MSTORE PUSH1 0x20 ADD PUSH1 0x0 KECCAK256 DUP2 SWAP1 SSTORE POP JUMPDEST JUMPDEST POP JUMPDEST DUP4 DUP6 PUSH20 0xFFFFFFFFFFFFFFFFFFFFFFFFFFFFFFFFFFFFFFFF AND DUP8 PUSH20 0xFFFFFFFFFFFFFFFFFFFFFFFFFFFFFFFFFFFFFFFF AND PUSH32 0xDDF252AD1BE2C89B69C2B068FC378DAA952BA7F163C4A11628F55A4DF523B3EF PUSH1 0x40 MLOAD PUSH1 0x40 MLOAD DUP1 SWAP2 SUB SWAP1 LOG4 PUSH2 0xB5E DUP7 DUP7 DUP7 PUSH1 0x1 PUSH2 0x1789 JUMP JUMPDEST POP POP POP POP POP POP JUMP JUMPDEST PUSH1 0xB SLOAD DUP2 JUMP JUMPDEST PUSH1 0x0 PUSH1 0x1 SWAP1 POP JUMPDEST PUSH1 0x52 DUP2 LT ISZERO PUSH2 0xBCB JUMPI PUSH2 0xBB8 DUP2 PUSH1 0x40 MLOAD DUP1 PUSH1 0x60 ADD PUSH1 0x40 MSTORE DUP1 PUSH1 0xFF TIMESTAMP PUSH2 0xB98 SWAP2 SWAP1 PUSH2 0x22E8 JUMP JUMPDEST DUP2 MSTORE PUSH1 0x20 ADD DUP5 DUP2 MSTORE PUSH1 0x20 ADD PUSH1 0x64 DUP6 PUSH2 0xBB0 SWAP2 SWAP1 PUSH2 0x2348 JUMP JUMPDEST DUP2 MSTORE POP PUSH2 0xCEF JUMP JUMPDEST DUP1 DUP1 PUSH2 0xBC3 SWAP1 PUSH2 0x237C JUMP JUMPDEST SWAP2 POP POP PUSH2 0xB73 JUMP JUMPDEST POP JUMP JUMPDEST PUSH2 0xBE9 DUP4 DUP4 DUP4 PUSH1 0x40 MLOAD DUP1 PUSH1 0x20 ADD PUSH1 0x40 MSTORE DUP1 PUSH1 0x0 DUP2 MSTORE POP PUSH2 0x1178 JUMP JUMPDEST POP POP POP JUMP JUMPDEST PUSH1 0x60 PUSH1 0x0 DUP3 GT DUP1 ISZERO PUSH2 0xC02 JUMPI POP PUSH1 0xB SLOAD DUP3 GT ISZERO JUMPDEST PUSH2 0xC41 JUMPI PUSH1 0x40 MLOAD PUSH32 0x8C379A000000000000000000000000000000000000000000000000000000000 DUP2 MSTORE PUSH1 0x4 ADD PUSH2 0xC38 SWAP1 PUSH2 0x2410 JUMP JUMPDEST PUSH1 0x40 MLOAD DUP1 SWAP2 SUB SWAP1 REVERT JUMPDEST PUSH2 0xCE8 PUSH1 0x9 PUSH1 0x0 DUP5 DUP2 MSTORE PUSH1 0x20 ADD SWAP1 DUP2 MSTORE PUSH1 0x20 ADD PUSH1 0x0 KECCAK256 PUSH1 0x3 ADD DUP1 SLOAD PUSH2 0xC65 SWAP1 PUSH2 0x2288 JUMP JUMPDEST DUP1 PUSH1 0x1F ADD PUSH1 0x20 DUP1 SWAP2 DIV MUL PUSH1 0x20 ADD PUSH1 0x40 MLOAD SWAP1 DUP2 ADD PUSH1 0x40 MSTORE DUP1 SWAP3 SWAP2 SWAP1 DUP2 DUP2 MSTORE PUSH1 0x20 ADD DUP3 DUP1 SLOAD PUSH2 0xC91 SWAP1 PUSH2 0x2288 JUMP JUMPDEST DUP1 ISZERO PUSH2 0xCDE JUMPI DUP1 PUSH1 0x1F LT PUSH2 0xCB3 JUMPI PUSH2 0x100 DUP1 DUP4 SLOAD DIV MUL DUP4 MSTORE SWAP2 PUSH1 0x20 ADD SWAP2 PUSH2 0xCDE JUMP JUMPDEST DUP3 ADD SWAP2 SWAP1 PUSH1 0x0 MSTORE PUSH1 0x20 PUSH1 0x0 KECCAK256 SWAP1 JUMPDEST DUP2 SLOAD DUP2 MSTORE SWAP1 PUSH1 0x1 ADD SWAP1 PUSH1 0x20 ADD DUP1 DUP4 GT PUSH2 0xCC1 JUMPI DUP3 SWAP1 SUB PUSH1 0x1F AND DUP3 ADD SWAP2 JUMPDEST POP POP POP POP POP PUSH2 0x178F JUMP JUMPDEST SWAP1 POP SWAP2 SWAP1 POP JUMP JUMPDEST PUSH2 0xD10 DUP2 PUSH1 0x0 PUSH1 0x3 DUP2 LT PUSH2 0xD06 JUMPI PUSH2 0xD05 PUSH2 0x2430 JUMP JUMPDEST JUMPDEST PUSH1 0x20 MUL ADD MLOAD PUSH2 0x17D8 JUMP JUMPDEST PUSH2 0xD31 DUP3 PUSH1 0x1 PUSH1 0x3 DUP2 LT PUSH2 0xD27 JUMPI PUSH2 0xD26 PUSH2 0x2430 JUMP JUMPDEST JUMPDEST PUSH1 0x20 MUL ADD MLOAD PUSH2 0x17D8 JUMP JUMPDEST PUSH2 0xD52 DUP4 PUSH1 0x2 PUSH1 0x3 DUP2 LT PUSH2 0xD48 JUMPI PUSH2 0xD47 PUSH2 0x2430 JUMP JUMPDEST JUMPDEST PUSH1 0x20 MUL ADD MLOAD PUSH2 0x17D8 JUMP JUMPDEST PUSH1 0x40 MLOAD PUSH1 0x20 ADD PUSH2 0xD64 SWAP4 SWAP3 SWAP2 SWAP1 PUSH2 0x257F JUMP JUMPDEST PUSH1 0x40 MLOAD PUSH1 0x20 DUP2 DUP4 SUB SUB DUP2 MSTORE SWAP1 PUSH1 0x40 MSTORE PUSH1 0x8 PUSH1 0x0 DUP5 DUP2 MSTORE PUSH1 0x20 ADD SWAP1 DUP2 MSTORE PUSH1 0x20 ADD PUSH1 0x0 KECCAK256 SWAP1 DUP2 PUSH2 0xD92 SWAP2 SWAP1 PUSH2 0x2788 JUMP JUMPDEST POP PUSH1 0xA PUSH1 0x0 DUP2 SLOAD DUP1 SWAP3 SWAP2 SWAP1 PUSH2 0xDA6 SWAP1 PUSH2 0x237C JUMP JUMPDEST SWAP2 SWAP1 POP SSTORE POP POP POP JUMP JUMPDEST PUSH1 0x0 PUSH2 0xDBA DUP3 PUSH2 0x15F9 JUMP JUMPDEST SWAP1 POP SWAP2 SWAP1 POP JUMP JUMPDEST PUSH1 0x0 DUP1 PUSH20 0xFFFFFFFFFFFFFFFFFFFFFFFFFFFFFFFFFFFFFFFF AND DUP3 PUSH20 0xFFFFFFFFFFFFFFFFFFFFFFFFFFFFFFFFFFFFFFFF AND SUB PUSH2 0xE28 JUMPI PUSH1 0x40 MLOAD PUSH32 0x8F4EB60400000000000000000000000000000000000000000000000000000000 DUP2 MSTORE PUSH1 0x4 ADD PUSH1 0x40 MLOAD DUP1 SWAP2 SUB SWAP1 REVERT JUMPDEST PUSH8 0xFFFFFFFFFFFFFFFF PUSH1 0x5 PUSH1 0x0 DUP5 PUSH20 0xFFFFFFFFFFFFFFFFFFFFFFFFFFFFFFFFFFFFFFFF AND PUSH20 0xFFFFFFFFFFFFFFFFFFFFFFFFFFFFFFFFFFFFFFFF AND DUP2 MSTORE PUSH1 0x20 ADD SWAP1 DUP2 MSTORE PUSH1 0x20 ADD PUSH1 0x0 KECCAK256 SLOAD AND SWAP1 POP SWAP2 SWAP1 POP JUMP JUMPDEST PUSH1 0x60 PUSH1 0x3 DUP1 SLOAD PUSH2 0xE88 SWAP1 PUSH2 0x2288 JUMP JUMPDEST DUP1 PUSH1 0x1F ADD PUSH1 0x20 DUP1 SWAP2 DIV MUL PUSH1 0x20 ADD PUSH1 0x40 MLOAD SWAP1 DUP2 ADD PUSH1 0x40 MSTORE DUP1 SWAP3 SWAP2 SWAP1 DUP2 DUP2 MSTORE PUSH1 0x20 ADD DUP3 DUP1 SLOAD PUSH2 0xEB4 SWAP1 PUSH2 0x2288 JUMP JUMPDEST DUP1 ISZERO PUSH2 0xF01 JUMPI DUP1 PUSH1 0x1F LT PUSH2 0xED6 JUMPI PUSH2 0x100 DUP1 DUP4 SLOAD DIV MUL DUP4 MSTORE SWAP2 PUSH1 0x20 ADD SWAP2 PUSH2 0xF01 JUMP JUMPDEST DUP3 ADD SWAP2 SWAP1 PUSH1 0x0 MSTORE PUSH1 0x20 PUSH1 0x0 KECCAK256 SWAP1 JUMPDEST DUP2 SLOAD DUP2 MSTORE SWAP1 PUSH1 0x1 ADD SWAP1 PUSH1 0x20 ADD DUP1 DUP4 GT PUSH2 0xEE4 JUMPI DUP3 SWAP1 SUB PUSH1 0x1F AND DUP3 ADD SWAP2 JUMPDEST POP POP POP POP POP SWAP1 POP SWAP1 JUMP JUMPDEST DUP1 PUSH1 0x7 PUSH1 0x0 PUSH2 0xF18 PUSH2 0x1431 JUMP JUMPDEST PUSH20 0xFFFFFFFFFFFFFFFFFFFFFFFFFFFFFFFFFFFFFFFF AND PUSH20 0xFFFFFFFFFFFFFFFFFFFFFFFFFFFFFFFFFFFFFFFF AND DUP2 MSTORE PUSH1 0x20 ADD SWAP1 DUP2 MSTORE PUSH1 0x20 ADD PUSH1 0x0 KECCAK256 PUSH1 0x0 DUP5 PUSH20 0xFFFFFFFFFFFFFFFFFFFFFFFFFFFFFFFFFFFFFFFF AND PUSH20 0xFFFFFFFFFFFFFFFFFFFFFFFFFFFFFFFFFFFFFFFF AND DUP2 MSTORE PUSH1 0x20 ADD SWAP1 DUP2 MSTORE PUSH1 0x20 ADD PUSH1 0x0 KECCAK256 PUSH1 0x0 PUSH2 0x100 EXP DUP2 SLOAD DUP2 PUSH1 0xFF MUL NOT AND SWAP1 DUP4 ISZERO ISZERO MUL OR SWAP1 SSTORE POP DUP2 PUSH20 0xFFFFFFFFFFFFFFFFFFFFFFFFFFFFFFFFFFFFFFFF AND PUSH2 0xFC5 PUSH2 0x1431 JUMP JUMPDEST PUSH20 0xFFFFFFFFFFFFFFFFFFFFFFFFFFFFFFFFFFFFFFFF AND PUSH32 0x17307EAB39AB6107E8899845AD3D59BD9653F200F220920489CA2B5937696C31 DUP4 PUSH1 0x40 MLOAD PUSH2 0x100A SWAP2 SWAP1 PUSH2 0x1C11 JUMP JUMPDEST PUSH1 0x40 MLOAD DUP1 SWAP2 SUB SWAP1 LOG3 POP POP JUMP JUMPDEST PUSH1 0x60 PUSH2 0x1028 PUSH2 0x1023 PUSH2 0x1828 JUMP JUMPDEST PUSH2 0x178F JUMP JUMPDEST SWAP1 POP SWAP1 JUMP JUMPDEST PUSH1 0x9 PUSH1 0x0 PUSH1 0xB SLOAD DUP2 MSTORE PUSH1 0x20 ADD SWAP1 DUP2 MSTORE PUSH1 0x20 ADD PUSH1 0x0 KECCAK256 PUSH1 0x1 ADD SLOAD PUSH1 0xA SLOAD GT PUSH2 0x1089 JUMPI PUSH1 0x40 MLOAD PUSH32 0x8C379A000000000000000000000000000000000000000000000000000000000 DUP2 MSTORE PUSH1 0x4 ADD PUSH2 0x1080 SWAP1 PUSH2 0x28CC JUMP JUMPDEST PUSH1 0x40 MLOAD DUP1 SWAP2 SUB SWAP1 REVERT JUMPDEST PUSH1 0x40 MLOAD DUP1 PUSH1 0x80 ADD PUSH1 0x40 MSTORE DUP1 CALLER PUSH20 0xFFFFFFFFFFFFFFFFFFFFFFFFFFFFFFFFFFFFFFFF AND DUP2 MSTORE PUSH1 0x20 ADD PUSH1 0xA SLOAD DUP2 MSTORE PUSH1 0x20 ADD TIMESTAMP DUP2 MSTORE PUSH1 0x20 ADD PUSH2 0x10C6 PUSH2 0x1828 JUMP JUMPDEST DUP2 MSTORE POP PUSH1 0x9 PUSH1 0x0 PUSH1 0x1 PUSH1 0xB SLOAD PUSH2 0x10DC SWAP2 SWAP1 PUSH2 0x2348 JUMP JUMPDEST DUP2 MSTORE PUSH1 0x20 ADD SWAP1 DUP2 MSTORE PUSH1 0x20 ADD PUSH1 0x0 KECCAK256 PUSH1 0x0 DUP3 ADD MLOAD DUP2 PUSH1 0x0 ADD PUSH1 0x0 PUSH2 0x100 EXP DUP2 SLOAD DUP2 PUSH20 0xFFFFFFFFFFFFFFFFFFFFFFFFFFFFFFFFFFFFFFFF MUL NOT AND SWAP1 DUP4 PUSH20 0xFFFFFFFFFFFFFFFFFFFFFFFFFFFFFFFFFFFFFFFF AND MUL OR SWAP1 SSTORE POP PUSH1 0x20 DUP3 ADD MLOAD DUP2 PUSH1 0x1 ADD SSTORE PUSH1 0x40 DUP3 ADD MLOAD DUP2 PUSH1 0x2 ADD SSTORE PUSH1 0x60 DUP3 ADD MLOAD DUP2 PUSH1 0x3 ADD SWAP1 DUP2 PUSH2 0x115A SWAP2 SWAP1 PUSH2 0x2788 JUMP JUMPDEST POP SWAP1 POP POP PUSH1 0xB PUSH1 0x0 DUP2 SLOAD DUP1 SWAP3 SWAP2 SWAP1 PUSH2 0x1171 SWAP1 PUSH2 0x237C JUMP JUMPDEST SWAP2 SWAP1 POP SSTORE POP JUMP JUMPDEST PUSH2 0x1183 DUP5 DUP5 DUP5 PUSH2 0x844 JUMP JUMPDEST PUSH1 0x0 DUP4 PUSH20 0xFFFFFFFFFFFFFFFFFFFFFFFFFFFFFFFFFFFFFFFF AND EXTCODESIZE EQ PUSH2 0x11E5 JUMPI PUSH2 0x11AE DUP5 DUP5 DUP5 DUP5 PUSH2 0x1891 JUMP JUMPDEST PUSH2 0x11E4 JUMPI PUSH1 0x40 MLOAD PUSH32 0xD1A57ED600000000000000000000000000000000000000000000000000000000 DUP2 MSTORE PUSH1 0x4 ADD PUSH1 0x40 MLOAD DUP1 SWAP2 SUB SWAP1 REVERT JUMPDEST JUMPDEST POP POP POP POP JUMP JUMPDEST PUSH1 0x60 PUSH1 0x0 PUSH2 0x11F7 PUSH2 0x1016 JUMP JUMPDEST SWAP1 POP PUSH1 0x0 PUSH2 0x1204 DUP5 PUSH2 0x17D8 JUMP JUMPDEST PUSH2 0x120D DUP4 PUSH2 0x19E1 JUMP JUMPDEST PUSH1 0x40 MLOAD PUSH1 0x20 ADD PUSH2 0x121E SWAP3 SWAP2 SWAP1 PUSH2 0x2A1C JUMP JUMPDEST PUSH1 0x40 MLOAD PUSH1 0x20 DUP2 DUP4 SUB SUB DUP2 MSTORE SWAP1 PUSH1 0x40 MSTORE SWAP1 POP PUSH2 0x1238 DUP2 PUSH2 0x19E1 JUMP JUMPDEST PUSH1 0x40 MLOAD PUSH1 0x20 ADD PUSH2 0x1248 SWAP2 SWAP1 PUSH2 0x2AAD JUMP JUMPDEST PUSH1 0x40 MLOAD PUSH1 0x20 DUP2 DUP4 SUB SUB DUP2 MSTORE SWAP1 PUSH1 0x40 MSTORE SWAP3 POP POP POP SWAP2 SWAP1 POP JUMP JUMPDEST PUSH1 0x9 PUSH1 0x20 MSTORE DUP1 PUSH1 0x0 MSTORE PUSH1 0x40 PUSH1 0x0 KECCAK256 PUSH1 0x0 SWAP2 POP SWAP1 POP DUP1 PUSH1 0x0 ADD PUSH1 0x0 SWAP1 SLOAD SWAP1 PUSH2 0x100 EXP SWAP1 DIV PUSH20 0xFFFFFFFFFFFFFFFFFFFFFFFFFFFFFFFFFFFFFFFF AND SWAP1 DUP1 PUSH1 0x1 ADD SLOAD SWAP1 DUP1 PUSH1 0x2 ADD SLOAD SWAP1 DUP1 PUSH1 0x3 ADD DUP1 SLOAD PUSH2 0x12B5 SWAP1 PUSH2 0x2288 JUMP JUMPDEST DUP1 PUSH1 0x1F ADD PUSH1 0x20 DUP1 SWAP2 DIV MUL PUSH1 0x20 ADD PUSH1 0x40 MLOAD SWAP1 DUP2 ADD PUSH1 0x40 MSTORE DUP1 SWAP3 SWAP2 SWAP1 DUP2 DUP2 MSTORE PUSH1 0x20 ADD DUP3 DUP1 SLOAD PUSH2 0x12E1 SWAP1 PUSH2 0x2288 JUMP JUMPDEST DUP1 ISZERO PUSH2 0x132E JUMPI DUP1 PUSH1 0x1F LT PUSH2 0x1303 JUMPI PUSH2 0x100 DUP1 DUP4 SLOAD DIV MUL DUP4 MSTORE SWAP2 PUSH1 0x20 ADD SWAP2 PUSH2 0x132E JUMP JUMPDEST DUP3 ADD SWAP2 SWAP1 PUSH1 0x0 MSTORE PUSH1 0x20 PUSH1 0x0 KECCAK256 SWAP1 JUMPDEST DUP2 SLOAD DUP2 MSTORE SWAP1 PUSH1 0x1 ADD SWAP1 PUSH1 0x20 ADD DUP1 DUP4 GT PUSH2 0x1311 JUMPI DUP3 SWAP1 SUB PUSH1 0x1F AND DUP3 ADD SWAP2 JUMPDEST POP POP POP POP POP SWAP1 POP DUP5 JUMP JUMPDEST PUSH1 0xA SLOAD DUP2 JUMP JUMPDEST PUSH1 0x0 PUSH1 0x7 PUSH1 0x0 DUP5 PUSH20 0xFFFFFFFFFFFFFFFFFFFFFFFFFFFFFFFFFFFFFFFF AND PUSH20 0xFFFFFFFFFFFFFFFFFFFFFFFFFFFFFFFFFFFFFFFF AND DUP2 MSTORE PUSH1 0x20 ADD SWAP1 DUP2 MSTORE PUSH1 0x20 ADD PUSH1 0x0 KECCAK256 PUSH1 0x0 DUP4 PUSH20 0xFFFFFFFFFFFFFFFFFFFFFFFFFFFFFFFFFFFFFFFF AND PUSH20 0xFFFFFFFFFFFFFFFFFFFFFFFFFFFFFFFFFFFFFFFF AND DUP2 MSTORE PUSH1 0x20 ADD SWAP1 DUP2 MSTORE PUSH1 0x20 ADD PUSH1 0x0 KECCAK256 PUSH1 0x0 SWAP1 SLOAD SWAP1 PUSH2 0x100 EXP SWAP1 DIV PUSH1 0xFF AND SWAP1 POP SWAP3 SWAP2 POP POP JUMP JUMPDEST PUSH1 0x0 DUP2 PUSH2 0x13DD PUSH2 0x15F4 JUMP JUMPDEST GT ISZERO DUP1 ISZERO PUSH2 0x13EC JUMPI POP PUSH1 0x0 SLOAD DUP3 LT JUMPDEST DUP1 ISZERO PUSH2 0x142A JUMPI POP PUSH1 0x0 PUSH29 0x100000000000000000000000000000000000000000000000000000000 PUSH1 0x4 PUSH1 0x0 DUP6 DUP2 MSTORE PUSH1 0x20 ADD SWAP1 DUP2 MSTORE PUSH1 0x20 ADD PUSH1 0x0 KECCAK256 SLOAD AND EQ JUMPDEST SWAP1 POP SWAP2 SWAP1 POP JUMP JUMPDEST PUSH1 0x0 CALLER SWAP1 POP SWAP1 JUMP JUMPDEST PUSH1 0x0 DUP1 SLOAD SWAP1 POP PUSH1 0x0 DUP3 SUB PUSH2 0x1479 JUMPI PUSH1 0x40 MLOAD PUSH32 0xB562E8DD00000000000000000000000000000000000000000000000000000000 DUP2 MSTORE PUSH1 0x4 ADD PUSH1 0x40 MLOAD DUP1 SWAP2 SUB SWAP1 REVERT JUMPDEST PUSH2 0x1486 PUSH1 0x0 DUP5 DUP4 DUP6 PUSH2 0x1730 JUMP JUMPDEST PUSH1 0x1 PUSH1 0x40 PUSH1 0x1 SWAP1 SHL OR DUP3 MUL PUSH1 0x5 PUSH1 0x0 DUP6 PUSH20 0xFFFFFFFFFFFFFFFFFFFFFFFFFFFFFFFFFFFFFFFF AND PUSH20 0xFFFFFFFFFFFFFFFFFFFFFFFFFFFFFFFFFFFFFFFF AND DUP2 MSTORE PUSH1 0x20 ADD SWAP1 DUP2 MSTORE PUSH1 0x20 ADD PUSH1 0x0 KECCAK256 PUSH1 0x0 DUP3 DUP3 SLOAD ADD SWAP3 POP POP DUP2 SWAP1 SSTORE POP PUSH2 0x14FD DUP4 PUSH2 0x14EE PUSH1 0x0 DUP7 PUSH1 0x0 PUSH2 0x1736 JUMP JUMPDEST PUSH2 0x14F7 DUP6 PUSH2 0x1B44 JUMP JUMPDEST OR PUSH2 0x175E JUMP JUMPDEST PUSH1 0x4 PUSH1 0x0 DUP4 DUP2 MSTORE PUSH1 0x20 ADD SWAP1 DUP2 MSTORE PUSH1 0x20 ADD PUSH1 0x0 KECCAK256 DUP2 SWAP1 SSTORE POP PUSH1 0x0 DUP1 DUP4 DUP4 ADD SWAP1 POP PUSH20 0xFFFFFFFFFFFFFFFFFFFFFFFFFFFFFFFFFFFFFFFF DUP6 AND SWAP2 POP DUP3 DUP3 PUSH1 0x0 PUSH32 0xDDF252AD1BE2C89B69C2B068FC378DAA952BA7F163C4A11628F55A4DF523B3EF PUSH1 0x0 DUP1 LOG4 PUSH1 0x1 DUP4 ADD JUMPDEST DUP2 DUP2 EQ PUSH2 0x159E JUMPI DUP1 DUP4 PUSH1 0x0 PUSH32 0xDDF252AD1BE2C89B69C2B068FC378DAA952BA7F163C4A11628F55A4DF523B3EF PUSH1 0x0 DUP1 LOG4 PUSH1 0x1 DUP2 ADD SWAP1 POP PUSH2 0x1563 JUMP JUMPDEST POP PUSH1 0x0 DUP3 SUB PUSH2 0x15D9 JUMPI PUSH1 0x40 MLOAD PUSH32 0x2E07630000000000000000000000000000000000000000000000000000000000 DUP2 MSTORE PUSH1 0x4 ADD PUSH1 0x40 MLOAD DUP1 SWAP2 SUB SWAP1 REVERT JUMPDEST DUP1 PUSH1 0x0 DUP2 SWAP1 SSTORE POP POP POP PUSH2 0x15EF PUSH1 0x0 DUP5 DUP4 DUP6 PUSH2 0x1789 JUMP JUMPDEST POP POP POP JUMP JUMPDEST PUSH1 0x0 SWAP1 JUMP JUMPDEST PUSH1 0x0 DUP1 DUP3 SWAP1 POP DUP1 PUSH2 0x1608 PUSH2 0x15F4 JUMP JUMPDEST GT PUSH2 0x168E JUMPI PUSH1 0x0 SLOAD DUP2 LT ISZERO PUSH2 0x168D JUMPI PUSH1 0x0 PUSH1 0x4 PUSH1 0x0 DUP4 DUP2 MSTORE PUSH1 0x20 ADD SWAP1 DUP2 MSTORE PUSH1 0x20 ADD PUSH1 0x0 KECCAK256 SLOAD SWAP1 POP PUSH1 0x0 PUSH29 0x100000000000000000000000000000000000000000000000000000000 DUP3 AND SUB PUSH2 0x168B JUMPI JUMPDEST PUSH1 0x0 DUP2 SUB PUSH2 0x1681 JUMPI PUSH1 0x4 PUSH1 0x0 DUP4 PUSH1 0x1 SWAP1 SUB SWAP4 POP DUP4 DUP2 MSTORE PUSH1 0x20 ADD SWAP1 DUP2 MSTORE PUSH1 0x20 ADD PUSH1 0x0 KECCAK256 SLOAD SWAP1 POP PUSH2 0x1657 JUMP JUMPDEST DUP1 SWAP3 POP POP POP PUSH2 0x16C0 JUMP JUMPDEST POP JUMPDEST JUMPDEST PUSH1 0x40 MLOAD PUSH32 0xDF2D9B4200000000000000000000000000000000000000000000000000000000 DUP2 MSTORE PUSH1 0x4 ADD PUSH1 0x40 MLOAD DUP1 SWAP2 SUB SWAP1 REVERT JUMPDEST SWAP2 SWAP1 POP JUMP JUMPDEST PUSH1 0x0 DUP1 PUSH1 0x0 PUSH1 0x6 PUSH1 0x0 DUP6 DUP2 MSTORE PUSH1 0x20 ADD SWAP1 DUP2 MSTORE PUSH1 0x20 ADD PUSH1 0x0 KECCAK256 SWAP1 POP DUP1 SWAP3 POP DUP3 SLOAD SWAP2 POP POP SWAP2 POP SWAP2 JUMP JUMPDEST PUSH1 0x0 PUSH20 0xFFFFFFFFFFFFFFFFFFFFFFFFFFFFFFFFFFFFFFFF DUP4 AND SWAP3 POP PUSH20 0xFFFFFFFFFFFFFFFFFFFFFFFFFFFFFFFFFFFFFFFF DUP3 AND SWAP2 POP DUP4 DUP3 EQ DUP4 DUP4 EQ OR SWAP1 POP SWAP4 SWAP3 POP POP POP JUMP JUMPDEST POP POP POP POP JUMP JUMPDEST PUSH1 0x0 DUP1 PUSH1 0xE8 DUP4 SWAP1 SHR SWAP1 POP PUSH1 0xE8 PUSH2 0x174D DUP7 DUP7 DUP5 PUSH2 0x1B54 JUMP JUMPDEST PUSH3 0xFFFFFF AND SWAP1 SHL SWAP2 POP POP SWAP4 SWAP3 POP POP POP JUMP JUMPDEST PUSH1 0x0 PUSH20 0xFFFFFFFFFFFFFFFFFFFFFFFFFFFFFFFFFFFFFFFF DUP4 AND SWAP3 POP DUP2 TIMESTAMP PUSH1 0xA0 SHL OR DUP4 OR SWAP1 POP SWAP3 SWAP2 POP POP JUMP JUMPDEST POP POP POP POP JUMP JUMPDEST PUSH1 0x60 PUSH1 0x40 MLOAD DUP1 PUSH2 0x1300 ADD PUSH1 0x40 MSTORE DUP1 PUSH2 0x12D7 DUP2 MSTORE PUSH1 0x20 ADD PUSH2 0x2E9A PUSH2 0x12D7 SWAP2 CODECOPY SWAP1 POP DUP1 DUP3 PUSH1 0x40 MLOAD PUSH1 0x20 ADD PUSH2 0x17C2 SWAP3 SWAP2 SWAP1 PUSH2 0x2B1B JUMP JUMPDEST PUSH1 0x40 MLOAD PUSH1 0x20 DUP2 DUP4 SUB SUB DUP2 MSTORE SWAP1 PUSH1 0x40 MSTORE SWAP1 POP SWAP2 SWAP1 POP JUMP JUMPDEST PUSH1 0x60 PUSH1 0xA0 PUSH1 0x40 MLOAD ADD DUP1 PUSH1 0x40 MSTORE PUSH1 0x20 DUP2 SUB SWAP2 POP PUSH1 0x0 DUP3 MSTORE DUP2 DUP4 JUMPDEST PUSH1 0x1 ISZERO PUSH2 0x1813 JUMPI PUSH1 0x1 DUP5 SUB SWAP4 POP PUSH1 0xA DUP2 MOD PUSH1 0x30 ADD DUP5 MSTORE8 PUSH1 0xA DUP2 DIV SWAP1 POP DUP1 PUSH2 0x17F1 JUMPI JUMPDEST POP DUP3 DUP2 SUB PUSH1 0x20 DUP5 SUB SWAP4 POP DUP1 DUP5 MSTORE POP POP POP SWAP2 SWAP1 POP JUMP JUMPDEST PUSH1 0x60 PUSH1 0x0 PUSH1 0x1 SWAP1 POP JUMPDEST PUSH1 0x52 DUP2 LT ISZERO PUSH2 0x188D JUMPI DUP2 PUSH2 0x1844 DUP3 PUSH2 0x17D8 JUMP JUMPDEST PUSH1 0x8 PUSH1 0x0 DUP5 DUP2 MSTORE PUSH1 0x20 ADD SWAP1 DUP2 MSTORE PUSH1 0x20 ADD PUSH1 0x0 KECCAK256 PUSH1 0x40 MLOAD PUSH1 0x20 ADD PUSH2 0x1869 SWAP4 SWAP3 SWAP2 SWAP1 PUSH2 0x2CB1 JUMP JUMPDEST PUSH1 0x40 MLOAD PUSH1 0x20 DUP2 DUP4 SUB SUB DUP2 MSTORE SWAP1 PUSH1 0x40 MSTORE SWAP2 POP DUP1 DUP1 PUSH2 0x1885 SWAP1 PUSH2 0x237C JUMP JUMPDEST SWAP2 POP POP PUSH2 0x1831 JUMP JUMPDEST POP SWAP1 JUMP JUMPDEST PUSH1 0x0 DUP4 PUSH20 0xFFFFFFFFFFFFFFFFFFFFFFFFFFFFFFFFFFFFFFFF AND PUSH4 0x150B7A02 PUSH2 0x18B7 PUSH2 0x1431 JUMP JUMPDEST DUP8 DUP7 DUP7 PUSH1 0x40 MLOAD DUP6 PUSH4 0xFFFFFFFF AND PUSH1 0xE0 SHL DUP2 MSTORE PUSH1 0x4 ADD PUSH2 0x18D9 SWAP5 SWAP4 SWAP3 SWAP2 SWAP1 PUSH2 0x2D58 JUMP JUMPDEST PUSH1 0x20 PUSH1 0x40 MLOAD DUP1 DUP4 SUB DUP2 PUSH1 0x0 DUP8 GAS CALL SWAP3 POP POP POP DUP1 ISZERO PUSH2 0x1915 JUMPI POP PUSH1 0x40 MLOAD RETURNDATASIZE PUSH1 0x1F NOT PUSH1 0x1F DUP3 ADD AND DUP3 ADD DUP1 PUSH1 0x40 MSTORE POP DUP2 ADD SWAP1 PUSH2 0x1912 SWAP2 SWAP1 PUSH2 0x2DB9 JUMP JUMPDEST PUSH1 0x1 JUMPDEST PUSH2 0x198E JUMPI RETURNDATASIZE DUP1 PUSH1 0x0 DUP2 EQ PUSH2 0x1945 JUMPI PUSH1 0x40 MLOAD SWAP2 POP PUSH1 0x1F NOT PUSH1 0x3F RETURNDATASIZE ADD AND DUP3 ADD PUSH1 0x40 MSTORE RETURNDATASIZE DUP3 MSTORE RETURNDATASIZE PUSH1 0x0 PUSH1 0x20 DUP5 ADD RETURNDATACOPY PUSH2 0x194A JUMP JUMPDEST PUSH1 0x60 SWAP2 POP JUMPDEST POP PUSH1 0x0 DUP2 MLOAD SUB PUSH2 0x1986 JUMPI PUSH1 0x40 MLOAD PUSH32 0xD1A57ED600000000000000000000000000000000000000000000000000000000 DUP2 MSTORE PUSH1 0x4 ADD PUSH1 0x40 MLOAD DUP1 SWAP2 SUB SWAP1 REVERT JUMPDEST DUP1 MLOAD DUP2 PUSH1 0x20 ADD REVERT JUMPDEST PUSH4 0x150B7A02 PUSH1 0xE0 SHL PUSH28 0xFFFFFFFFFFFFFFFFFFFFFFFFFFFFFFFFFFFFFFFFFFFFFFFFFFFFFFFF NOT AND DUP2 PUSH28 0xFFFFFFFFFFFFFFFFFFFFFFFFFFFFFFFFFFFFFFFFFFFFFFFFFFFFFFFF NOT AND EQ SWAP2 POP POP SWAP5 SWAP4 POP POP POP POP JUMP JUMPDEST PUSH1 0x60 PUSH1 0x0 DUP3 MLOAD SUB PUSH2 0x1A03 JUMPI PUSH1 0x40 MLOAD DUP1 PUSH1 0x20 ADD PUSH1 0x40 MSTORE DUP1 PUSH1 0x0 DUP2 MSTORE POP SWAP1 POP PUSH2 0x1B3F JUMP JUMPDEST PUSH1 0x0 PUSH1 0x40 MLOAD DUP1 PUSH1 0x60 ADD PUSH1 0x40 MSTORE DUP1 PUSH1 0x40 DUP2 MSTORE PUSH1 0x20 ADD PUSH2 0x2E5A PUSH1 0x40 SWAP2 CODECOPY SWAP1 POP PUSH1 0x0 PUSH1 0x3 PUSH1 0x2 DUP6 MLOAD PUSH2 0x1A32 SWAP2 SWAP1 PUSH2 0x2348 JUMP JUMPDEST PUSH2 0x1A3C SWAP2 SWAP1 PUSH2 0x2DE6 JUMP JUMPDEST PUSH1 0x4 PUSH2 0x1A48 SWAP2 SWAP1 PUSH2 0x2E17 JUMP JUMPDEST PUSH8 0xFFFFFFFFFFFFFFFF DUP2 GT ISZERO PUSH2 0x1A61 JUMPI PUSH2 0x1A60 PUSH2 0x1E8B JUMP JUMPDEST JUMPDEST PUSH1 0x40 MLOAD SWAP1 DUP1 DUP3 MSTORE DUP1 PUSH1 0x1F ADD PUSH1 0x1F NOT AND PUSH1 0x20 ADD DUP3 ADD PUSH1 0x40 MSTORE DUP1 ISZERO PUSH2 0x1A93 JUMPI DUP2 PUSH1 0x20 ADD PUSH1 0x1 DUP3 MUL DUP1 CALLDATASIZE DUP4 CALLDATACOPY DUP1 DUP3 ADD SWAP2 POP POP SWAP1 POP JUMPDEST POP SWAP1 POP PUSH1 0x1 DUP3 ADD PUSH1 0x20 DUP3 ADD DUP6 DUP7 MLOAD DUP8 ADD JUMPDEST DUP1 DUP3 LT ISZERO PUSH2 0x1AFF JUMPI PUSH1 0x3 DUP3 ADD SWAP2 POP DUP2 MLOAD PUSH1 0x3F DUP2 PUSH1 0x12 SHR AND DUP6 ADD MLOAD DUP5 MSTORE8 PUSH1 0x1 DUP5 ADD SWAP4 POP PUSH1 0x3F DUP2 PUSH1 0xC SHR AND DUP6 ADD MLOAD DUP5 MSTORE8 PUSH1 0x1 DUP5 ADD SWAP4 POP PUSH1 0x3F DUP2 PUSH1 0x6 SHR AND DUP6 ADD MLOAD DUP5 MSTORE8 PUSH1 0x1 DUP5 ADD SWAP4 POP PUSH1 0x3F DUP2 AND DUP6 ADD MLOAD DUP5 MSTORE8 PUSH1 0x1 DUP5 ADD SWAP4 POP POP PUSH2 0x1AA4 JUMP JUMPDEST POP POP PUSH1 0x3 DUP7 MLOAD MOD PUSH1 0x1 DUP2 EQ PUSH2 0x1B1B JUMPI PUSH1 0x2 DUP2 EQ PUSH2 0x1B2E JUMPI PUSH2 0x1B36 JUMP JUMPDEST PUSH1 0x3D PUSH1 0x1 DUP4 SUB MSTORE8 PUSH1 0x3D PUSH1 0x2 DUP4 SUB MSTORE8 PUSH2 0x1B36 JUMP JUMPDEST PUSH1 0x3D PUSH1 0x1 DUP4 SUB MSTORE8 JUMPDEST POP POP POP DUP1 SWAP3 POP POP POP JUMPDEST SWAP2 SWAP1 POP JUMP JUMPDEST PUSH1 0x0 PUSH1 0x1 DUP3 EQ PUSH1 0xE1 SHL SWAP1 POP SWAP2 SWAP1 POP JUMP JUMPDEST PUSH1 0x0 SWAP4 SWAP3 POP POP POP JUMP JUMPDEST PUSH1 0x0 PUSH1 0x40 MLOAD SWAP1 POP SWAP1 JUMP JUMPDEST PUSH1 0x0 DUP1 REVERT JUMPDEST PUSH1 0x0 DUP1 REVERT JUMPDEST PUSH1 0x0 PUSH32 0xFFFFFFFF00000000000000000000000000000000000000000000000000000000 DUP3 AND SWAP1 POP SWAP2 SWAP1 POP JUMP JUMPDEST PUSH2 0x1BA6 DUP2 PUSH2 0x1B71 JUMP JUMPDEST DUP2 EQ PUSH2 0x1BB1 JUMPI PUSH1 0x0 DUP1 REVERT JUMPDEST POP JUMP JUMPDEST PUSH1 0x0 DUP2 CALLDATALOAD SWAP1 POP PUSH2 0x1BC3 DUP2 PUSH2 0x1B9D JUMP JUMPDEST SWAP3 SWAP2 POP POP JUMP JUMPDEST PUSH1 0x0 PUSH1 0x20 DUP3 DUP5 SUB SLT ISZERO PUSH2 0x1BDF JUMPI PUSH2 0x1BDE PUSH2 0x1B67 JUMP JUMPDEST JUMPDEST PUSH1 0x0 PUSH2 0x1BED DUP5 DUP3 DUP6 ADD PUSH2 0x1BB4 JUMP JUMPDEST SWAP2 POP POP SWAP3 SWAP2 POP POP JUMP JUMPDEST PUSH1 0x0 DUP2 ISZERO ISZERO SWAP1 POP SWAP2 SWAP1 POP JUMP JUMPDEST PUSH2 0x1C0B DUP2 PUSH2 0x1BF6 JUMP JUMPDEST DUP3 MSTORE POP POP JUMP JUMPDEST PUSH1 0x0 PUSH1 0x20 DUP3 ADD SWAP1 POP PUSH2 0x1C26 PUSH1 0x0 DUP4 ADD DUP5 PUSH2 0x1C02 JUMP JUMPDEST SWAP3 SWAP2 POP POP JUMP JUMPDEST PUSH1 0x0 DUP2 MLOAD SWAP1 POP SWAP2 SWAP1 POP JUMP JUMPDEST PUSH1 0x0 DUP3 DUP3 MSTORE PUSH1 0x20 DUP3 ADD SWAP1 POP SWAP3 SWAP2 POP POP JUMP JUMPDEST PUSH1 0x0 JUMPDEST DUP4 DUP2 LT ISZERO PUSH2 0x1C66 JUMPI DUP1 DUP3 ADD MLOAD DUP2 DUP5 ADD MSTORE PUSH1 0x20 DUP2 ADD SWAP1 POP PUSH2 0x1C4B JUMP JUMPDEST PUSH1 0x0 DUP5 DUP5 ADD MSTORE POP POP POP POP JUMP JUMPDEST PUSH1 0x0 PUSH1 0x1F NOT PUSH1 0x1F DUP4 ADD AND SWAP1 POP SWAP2 SWAP1 POP JUMP JUMPDEST PUSH1 0x0 PUSH2 0x1C8E DUP3 PUSH2 0x1C2C JUMP JUMPDEST PUSH2 0x1C98 DUP2 DUP6 PUSH2 0x1C37 JUMP JUMPDEST SWAP4 POP PUSH2 0x1CA8 DUP2 DUP6 PUSH1 0x20 DUP7 ADD PUSH2 0x1C48 JUMP JUMPDEST PUSH2 0x1CB1 DUP2 PUSH2 0x1C72 JUMP JUMPDEST DUP5 ADD SWAP2 POP POP SWAP3 SWAP2 POP POP JUMP JUMPDEST PUSH1 0x0 PUSH1 0x20 DUP3 ADD SWAP1 POP DUP2 DUP2 SUB PUSH1 0x0 DUP4 ADD MSTORE PUSH2 0x1CD6 DUP2 DUP5 PUSH2 0x1C83 JUMP JUMPDEST SWAP1 POP SWAP3 SWAP2 POP POP JUMP JUMPDEST PUSH1 0x0 DUP2 SWAP1 POP SWAP2 SWAP1 POP JUMP JUMPDEST PUSH2 0x1CF1 DUP2 PUSH2 0x1CDE JUMP JUMPDEST DUP2 EQ PUSH2 0x1CFC JUMPI PUSH1 0x0 DUP1 REVERT JUMPDEST POP JUMP JUMPDEST PUSH1 0x0 DUP2 CALLDATALOAD SWAP1 POP PUSH2 0x1D0E DUP2 PUSH2 0x1CE8 JUMP JUMPDEST SWAP3 SWAP2 POP POP JUMP JUMPDEST PUSH1 0x0 PUSH1 0x20 DUP3 DUP5 SUB SLT ISZERO PUSH2 0x1D2A JUMPI PUSH2 0x1D29 PUSH2 0x1B67 JUMP JUMPDEST JUMPDEST PUSH1 0x0 PUSH2 0x1D38 DUP5 DUP3 DUP6 ADD PUSH2 0x1CFF JUMP JUMPDEST SWAP2 POP POP SWAP3 SWAP2 POP POP JUMP JUMPDEST PUSH1 0x0 PUSH20 0xFFFFFFFFFFFFFFFFFFFFFFFFFFFFFFFFFFFFFFFF DUP3 AND SWAP1 POP SWAP2 SWAP1 POP JUMP JUMPDEST PUSH1 0x0 PUSH2 0x1D6C DUP3 PUSH2 0x1D41 JUMP JUMPDEST SWAP1 POP SWAP2 SWAP1 POP JUMP JUMPDEST PUSH2 0x1D7C DUP2 PUSH2 0x1D61 JUMP JUMPDEST DUP3 MSTORE POP POP JUMP JUMPDEST PUSH1 0x0 PUSH1 0x20 DUP3 ADD SWAP1 POP PUSH2 0x1D97 PUSH1 0x0 DUP4 ADD DUP5 PUSH2 0x1D73 JUMP JUMPDEST SWAP3 SWAP2 POP POP JUMP JUMPDEST PUSH2 0x1DA6 DUP2 PUSH2 0x1D61 JUMP JUMPDEST DUP2 EQ PUSH2 0x1DB1 JUMPI PUSH1 0x0 DUP1 REVERT JUMPDEST POP JUMP JUMPDEST PUSH1 0x0 DUP2 CALLDATALOAD SWAP1 POP PUSH2 0x1DC3 DUP2 PUSH2 0x1D9D JUMP JUMPDEST SWAP3 SWAP2 POP POP JUMP JUMPDEST PUSH1 0x0 DUP1 PUSH1 0x40 DUP4 DUP6 SUB SLT ISZERO PUSH2 0x1DE0 JUMPI PUSH2 0x1DDF PUSH2 0x1B67 JUMP JUMPDEST JUMPDEST PUSH1 0x0 PUSH2 0x1DEE DUP6 DUP3 DUP7 ADD PUSH2 0x1DB4 JUMP JUMPDEST SWAP3 POP POP PUSH1 0x20 PUSH2 0x1DFF DUP6 DUP3 DUP7 ADD PUSH2 0x1CFF JUMP JUMPDEST SWAP2 POP POP SWAP3 POP SWAP3 SWAP1 POP JUMP JUMPDEST PUSH2 0x1E12 DUP2 PUSH2 0x1CDE JUMP JUMPDEST DUP3 MSTORE POP POP JUMP JUMPDEST PUSH1 0x0 PUSH1 0x20 DUP3 ADD SWAP1 POP PUSH2 0x1E2D PUSH1 0x0 DUP4 ADD DUP5 PUSH2 0x1E09 JUMP JUMPDEST SWAP3 SWAP2 POP POP JUMP JUMPDEST PUSH1 0x0 DUP1 PUSH1 0x0 PUSH1 0x60 DUP5 DUP7 SUB SLT ISZERO PUSH2 0x1E4C JUMPI PUSH2 0x1E4B PUSH2 0x1B67 JUMP JUMPDEST JUMPDEST PUSH1 0x0 PUSH2 0x1E5A DUP7 DUP3 DUP8 ADD PUSH2 0x1DB4 JUMP JUMPDEST SWAP4 POP POP PUSH1 0x20 PUSH2 0x1E6B DUP7 DUP3 DUP8 ADD PUSH2 0x1DB4 JUMP JUMPDEST SWAP3 POP POP PUSH1 0x40 PUSH2 0x1E7C DUP7 DUP3 DUP8 ADD PUSH2 0x1CFF JUMP JUMPDEST SWAP2 POP POP SWAP3 POP SWAP3 POP SWAP3 JUMP JUMPDEST PUSH1 0x0 DUP1 REVERT JUMPDEST PUSH32 0x4E487B7100000000000000000000000000000000000000000000000000000000 PUSH1 0x0 MSTORE PUSH1 0x41 PUSH1 0x4 MSTORE PUSH1 0x24 PUSH1 0x0 REVERT JUMPDEST PUSH2 0x1EC3 DUP3 PUSH2 0x1C72 JUMP JUMPDEST DUP2 ADD DUP2 DUP2 LT PUSH8 0xFFFFFFFFFFFFFFFF DUP3 GT OR ISZERO PUSH2 0x1EE2 JUMPI PUSH2 0x1EE1 PUSH2 0x1E8B JUMP JUMPDEST JUMPDEST DUP1 PUSH1 0x40 MSTORE POP POP POP JUMP JUMPDEST PUSH1 0x0 PUSH2 0x1EF5 PUSH2 0x1B5D JUMP JUMPDEST SWAP1 POP PUSH2 0x1F01 DUP3 DUP3 PUSH2 0x1EBA JUMP JUMPDEST SWAP2 SWAP1 POP JUMP JUMPDEST PUSH1 0x0 PUSH8 0xFFFFFFFFFFFFFFFF DUP3 GT ISZERO PUSH2 0x1F21 JUMPI PUSH2 0x1F20 PUSH2 0x1E8B JUMP JUMPDEST JUMPDEST PUSH1 0x20 DUP3 MUL SWAP1 POP SWAP2 SWAP1 POP JUMP JUMPDEST PUSH1 0x0 DUP1 REVERT JUMPDEST PUSH1 0x0 PUSH2 0x1F44 PUSH2 0x1F3F DUP5 PUSH2 0x1F06 JUMP JUMPDEST PUSH2 0x1EEB JUMP JUMPDEST SWAP1 POP DUP1 PUSH1 0x20 DUP5 MUL DUP4 ADD DUP6 DUP2 GT ISZERO PUSH2 0x1F5E JUMPI PUSH2 0x1F5D PUSH2 0x1F2C JUMP JUMPDEST JUMPDEST DUP4 JUMPDEST DUP2 DUP2 LT ISZERO PUSH2 0x1F87 JUMPI DUP1 PUSH2 0x1F73 DUP9 DUP3 PUSH2 0x1CFF JUMP JUMPDEST DUP5 MSTORE PUSH1 0x20 DUP5 ADD SWAP4 POP POP PUSH1 0x20 DUP2 ADD SWAP1 POP PUSH2 0x1F60 JUMP JUMPDEST POP POP POP SWAP4 SWAP3 POP POP POP JUMP JUMPDEST PUSH1 0x0 DUP3 PUSH1 0x1F DUP4 ADD SLT PUSH2 0x1FA6 JUMPI PUSH2 0x1FA5 PUSH2 0x1E86 JUMP JUMPDEST JUMPDEST PUSH1 0x3 PUSH2 0x1FB3 DUP5 DUP3 DUP6 PUSH2 0x1F31 JUMP JUMPDEST SWAP2 POP POP SWAP3 SWAP2 POP POP JUMP JUMPDEST PUSH1 0x0 DUP1 PUSH1 0x80 DUP4 DUP6 SUB SLT ISZERO PUSH2 0x1FD3 JUMPI PUSH2 0x1FD2 PUSH2 0x1B67 JUMP JUMPDEST JUMPDEST PUSH1 0x0 PUSH2 0x1FE1 DUP6 DUP3 DUP7 ADD PUSH2 0x1CFF JUMP JUMPDEST SWAP3 POP POP PUSH1 0x20 PUSH2 0x1FF2 DUP6 DUP3 DUP7 ADD PUSH2 0x1F91 JUMP JUMPDEST SWAP2 POP POP SWAP3 POP SWAP3 SWAP1 POP JUMP JUMPDEST PUSH1 0x0 PUSH1 0x20 DUP3 DUP5 SUB SLT ISZERO PUSH2 0x2012 JUMPI PUSH2 0x2011 PUSH2 0x1B67 JUMP JUMPDEST JUMPDEST PUSH1 0x0 PUSH2 0x2020 DUP5 DUP3 DUP6 ADD PUSH2 0x1DB4 JUMP JUMPDEST SWAP2 POP POP SWAP3 SWAP2 POP POP JUMP JUMPDEST PUSH2 0x2032 DUP2 PUSH2 0x1BF6 JUMP JUMPDEST DUP2 EQ PUSH2 0x203D JUMPI PUSH1 0x0 DUP1 REVERT JUMPDEST POP JUMP JUMPDEST PUSH1 0x0 DUP2 CALLDATALOAD SWAP1 POP PUSH2 0x204F DUP2 PUSH2 0x2029 JUMP JUMPDEST SWAP3 SWAP2 POP POP JUMP JUMPDEST PUSH1 0x0 DUP1 PUSH1 0x40 DUP4 DUP6 SUB SLT ISZERO PUSH2 0x206C JUMPI PUSH2 0x206B PUSH2 0x1B67 JUMP JUMPDEST JUMPDEST PUSH1 0x0 PUSH2 0x207A DUP6 DUP3 DUP7 ADD PUSH2 0x1DB4 JUMP JUMPDEST SWAP3 POP POP PUSH1 0x20 PUSH2 0x208B DUP6 DUP3 DUP7 ADD PUSH2 0x2040 JUMP JUMPDEST SWAP2 POP POP SWAP3 POP SWAP3 SWAP1 POP JUMP JUMPDEST PUSH1 0x0 DUP1 REVERT JUMPDEST PUSH1 0x0 PUSH8 0xFFFFFFFFFFFFFFFF DUP3 GT ISZERO PUSH2 0x20B5 JUMPI PUSH2 0x20B4 PUSH2 0x1E8B JUMP JUMPDEST JUMPDEST PUSH2 0x20BE DUP3 PUSH2 0x1C72 JUMP JUMPDEST SWAP1 POP PUSH1 0x20 DUP2 ADD SWAP1 POP SWAP2 SWAP1 POP JUMP JUMPDEST DUP3 DUP2 DUP4 CALLDATACOPY PUSH1 0x0 DUP4 DUP4 ADD MSTORE POP POP POP JUMP JUMPDEST PUSH1 0x0 PUSH2 0x20ED PUSH2 0x20E8 DUP5 PUSH2 0x209A JUMP JUMPDEST PUSH2 0x1EEB JUMP JUMPDEST SWAP1 POP DUP3 DUP2 MSTORE PUSH1 0x20 DUP2 ADD DUP5 DUP5 DUP5 ADD GT ISZERO PUSH2 0x2109 JUMPI PUSH2 0x2108 PUSH2 0x2095 JUMP JUMPDEST JUMPDEST PUSH2 0x2114 DUP5 DUP3 DUP6 PUSH2 0x20CB JUMP JUMPDEST POP SWAP4 SWAP3 POP POP POP JUMP JUMPDEST PUSH1 0x0 DUP3 PUSH1 0x1F DUP4 ADD SLT PUSH2 0x2131 JUMPI PUSH2 0x2130 PUSH2 0x1E86 JUMP JUMPDEST JUMPDEST DUP2 CALLDATALOAD PUSH2 0x2141 DUP5 DUP3 PUSH1 0x20 DUP7 ADD PUSH2 0x20DA JUMP JUMPDEST SWAP2 POP POP SWAP3 SWAP2 POP POP JUMP JUMPDEST PUSH1 0x0 DUP1 PUSH1 0x0 DUP1 PUSH1 0x80 DUP6 DUP8 SUB SLT ISZERO PUSH2 0x2164 JUMPI PUSH2 0x2163 PUSH2 0x1B67 JUMP JUMPDEST JUMPDEST PUSH1 0x0 PUSH2 0x2172 DUP8 DUP3 DUP9 ADD PUSH2 0x1DB4 JUMP JUMPDEST SWAP5 POP POP PUSH1 0x20 PUSH2 0x2183 DUP8 DUP3 DUP9 ADD PUSH2 0x1DB4 JUMP JUMPDEST SWAP4 POP POP PUSH1 0x40 PUSH2 0x2194 DUP8 DUP3 DUP9 ADD PUSH2 0x1CFF JUMP JUMPDEST SWAP3 POP POP PUSH1 0x60 DUP6 ADD CALLDATALOAD PUSH8 0xFFFFFFFFFFFFFFFF DUP2 GT ISZERO PUSH2 0x21B5 JUMPI PUSH2 0x21B4 PUSH2 0x1B6C JUMP JUMPDEST JUMPDEST PUSH2 0x21C1 DUP8 DUP3 DUP9 ADD PUSH2 0x211C JUMP JUMPDEST SWAP2 POP POP SWAP3 SWAP6 SWAP2 SWAP5 POP SWAP3 POP JUMP JUMPDEST PUSH1 0x0 PUSH1 0x80 DUP3 ADD SWAP1 POP PUSH2 0x21E2 PUSH1 0x0 DUP4 ADD DUP8 PUSH2 0x1D73 JUMP JUMPDEST PUSH2 0x21EF PUSH1 0x20 DUP4 ADD DUP7 PUSH2 0x1E09 JUMP JUMPDEST PUSH2 0x21FC PUSH1 0x40 DUP4 ADD DUP6 PUSH2 0x1E09 JUMP JUMPDEST DUP2 DUP2 SUB PUSH1 0x60 DUP4 ADD MSTORE PUSH2 0x220E DUP2 DUP5 PUSH2 0x1C83 JUMP JUMPDEST SWAP1 POP SWAP6 SWAP5 POP POP POP POP POP JUMP JUMPDEST PUSH1 0x0 DUP1 PUSH1 0x40 DUP4 DUP6 SUB SLT ISZERO PUSH2 0x2230 JUMPI PUSH2 0x222F PUSH2 0x1B67 JUMP JUMPDEST JUMPDEST PUSH1 0x0 PUSH2 0x223E DUP6 DUP3 DUP7 ADD PUSH2 0x1DB4 JUMP JUMPDEST SWAP3 POP POP PUSH1 0x20 PUSH2 0x224F DUP6 DUP3 DUP7 ADD PUSH2 0x1DB4 JUMP JUMPDEST SWAP2 POP POP SWAP3 POP SWAP3 SWAP1 POP JUMP JUMPDEST PUSH32 0x4E487B7100000000000000000000000000000000000000000000000000000000 PUSH1 0x0 MSTORE PUSH1 0x22 PUSH1 0x4 MSTORE PUSH1 0x24 PUSH1 0x0 REVERT JUMPDEST PUSH1 0x0 PUSH1 0x2 DUP3 DIV SWAP1 POP PUSH1 0x1 DUP3 AND DUP1 PUSH2 0x22A0 JUMPI PUSH1 0x7F DUP3 AND SWAP2 POP JUMPDEST PUSH1 0x20 DUP3 LT DUP2 SUB PUSH2 0x22B3 JUMPI PUSH2 0x22B2 PUSH2 0x2259 JUMP JUMPDEST JUMPDEST POP SWAP2 SWAP1 POP JUMP JUMPDEST PUSH32 0x4E487B7100000000000000000000000000000000000000000000000000000000 PUSH1 0x0 MSTORE PUSH1 0x12 PUSH1 0x4 MSTORE PUSH1 0x24 PUSH1 0x0 REVERT JUMPDEST PUSH1 0x0 PUSH2 0x22F3 DUP3 PUSH2 0x1CDE JUMP JUMPDEST SWAP2 POP PUSH2 0x22FE DUP4 PUSH2 0x1CDE JUMP JUMPDEST SWAP3 POP DUP3 PUSH2 0x230E JUMPI PUSH2 0x230D PUSH2 0x22B9 JUMP JUMPDEST JUMPDEST DUP3 DUP3 MOD SWAP1 POP SWAP3 SWAP2 POP POP JUMP JUMPDEST PUSH32 0x4E487B7100000000000000000000000000000000000000000000000000000000 PUSH1 0x0 MSTORE PUSH1 0x11 PUSH1 0x4 MSTORE PUSH1 0x24 PUSH1 0x0 REVERT JUMPDEST PUSH1 0x0 PUSH2 0x2353 DUP3 PUSH2 0x1CDE JUMP JUMPDEST SWAP2 POP PUSH2 0x235E DUP4 PUSH2 0x1CDE JUMP JUMPDEST SWAP3 POP DUP3 DUP3 ADD SWAP1 POP DUP1 DUP3 GT ISZERO PUSH2 0x2376 JUMPI PUSH2 0x2375 PUSH2 0x2319 JUMP JUMPDEST JUMPDEST SWAP3 SWAP2 POP POP JUMP JUMPDEST PUSH1 0x0 PUSH2 0x2387 DUP3 PUSH2 0x1CDE JUMP JUMPDEST SWAP2 POP PUSH32 0xFFFFFFFFFFFFFFFFFFFFFFFFFFFFFFFFFFFFFFFFFFFFFFFFFFFFFFFFFFFFFFFF DUP3 SUB PUSH2 0x23B9 JUMPI PUSH2 0x23B8 PUSH2 0x2319 JUMP JUMPDEST JUMPDEST PUSH1 0x1 DUP3 ADD SWAP1 POP SWAP2 SWAP1 POP JUMP JUMPDEST PUSH32 0x536E617073686F7420646F6573206E6F74206578697374000000000000000000 PUSH1 0x0 DUP3 ADD MSTORE POP JUMP JUMPDEST PUSH1 0x0 PUSH2 0x23FA PUSH1 0x17 DUP4 PUSH2 0x1C37 JUMP JUMPDEST SWAP2 POP PUSH2 0x2405 DUP3 PUSH2 0x23C4 JUMP JUMPDEST PUSH1 0x20 DUP3 ADD SWAP1 POP SWAP2 SWAP1 POP JUMP JUMPDEST PUSH1 0x0 PUSH1 0x20 DUP3 ADD SWAP1 POP DUP2 DUP2 SUB PUSH1 0x0 DUP4 ADD MSTORE PUSH2 0x2429 DUP2 PUSH2 0x23ED JUMP JUMPDEST SWAP1 POP SWAP2 SWAP1 POP JUMP JUMPDEST PUSH32 0x4E487B7100000000000000000000000000000000000000000000000000000000 PUSH1 0x0 MSTORE PUSH1 0x32 PUSH1 0x4 MSTORE PUSH1 0x24 PUSH1 0x0 REVERT JUMPDEST PUSH1 0x0 DUP2 SWAP1 POP SWAP3 SWAP2 POP POP JUMP JUMPDEST PUSH32 0x7267622800000000000000000000000000000000000000000000000000000000 PUSH1 0x0 DUP3 ADD MSTORE POP JUMP JUMPDEST PUSH1 0x0 PUSH2 0x24A0 PUSH1 0x4 DUP4 PUSH2 0x245F JUMP JUMPDEST SWAP2 POP PUSH2 0x24AB DUP3 PUSH2 0x246A JUMP JUMPDEST PUSH1 0x4 DUP3 ADD SWAP1 POP SWAP2 SWAP1 POP JUMP JUMPDEST PUSH1 0x0 PUSH2 0x24C1 DUP3 PUSH2 0x1C2C JUMP JUMPDEST PUSH2 0x24CB DUP2 DUP6 PUSH2 0x245F JUMP JUMPDEST SWAP4 POP PUSH2 0x24DB DUP2 DUP6 PUSH1 0x20 DUP7 ADD PUSH2 0x1C48 JUMP JUMPDEST DUP1 DUP5 ADD SWAP2 POP POP SWAP3 SWAP2 POP POP JUMP JUMPDEST PUSH32 0x2C00000000000000000000000000000000000000000000000000000000000000 PUSH1 0x0 DUP3 ADD MSTORE POP JUMP JUMPDEST PUSH1 0x0 PUSH2 0x251D PUSH1 0x1 DUP4 PUSH2 0x245F JUMP JUMPDEST SWAP2 POP PUSH2 0x2528 DUP3 PUSH2 0x24E7 JUMP JUMPDEST PUSH1 0x1 DUP3 ADD SWAP1 POP SWAP2 SWAP1 POP JUMP JUMPDEST PUSH32 0x2900000000000000000000000000000000000000000000000000000000000000 PUSH1 0x0 DUP3 ADD MSTORE POP JUMP JUMPDEST PUSH1 0x0 PUSH2 0x2569 PUSH1 0x1 DUP4 PUSH2 0x245F JUMP JUMPDEST SWAP2 POP PUSH2 0x2574 DUP3 PUSH2 0x2533 JUMP JUMPDEST PUSH1 0x1 DUP3 ADD SWAP1 POP SWAP2 SWAP1 POP JUMP JUMPDEST PUSH1 0x0 PUSH2 0x258A DUP3 PUSH2 0x2493 JUMP JUMPDEST SWAP2 POP PUSH2 0x2596 DUP3 DUP7 PUSH2 0x24B6 JUMP JUMPDEST SWAP2 POP PUSH2 0x25A1 DUP3 PUSH2 0x2510 JUMP JUMPDEST SWAP2 POP PUSH2 0x25AD DUP3 DUP6 PUSH2 0x24B6 JUMP JUMPDEST SWAP2 POP PUSH2 0x25B8 DUP3 PUSH2 0x2510 JUMP JUMPDEST SWAP2 POP PUSH2 0x25C4 DUP3 DUP5 PUSH2 0x24B6 JUMP JUMPDEST SWAP2 POP PUSH2 0x25CF DUP3 PUSH2 0x255C JUMP JUMPDEST SWAP2 POP DUP2 SWAP1 POP SWAP5 SWAP4 POP POP POP POP JUMP JUMPDEST PUSH1 0x0 DUP2 SWAP1 POP DUP2 PUSH1 0x0 MSTORE PUSH1 0x20 PUSH1 0x0 KECCAK256 SWAP1 POP SWAP2 SWAP1 POP JUMP JUMPDEST PUSH1 0x0 PUSH1 0x20 PUSH1 0x1F DUP4 ADD DIV SWAP1 POP SWAP2 SWAP1 POP JUMP JUMPDEST PUSH1 0x0 DUP3 DUP3 SHL SWAP1 POP SWAP3 SWAP2 POP POP JUMP JUMPDEST PUSH1 0x0 PUSH1 0x8 DUP4 MUL PUSH2 0x263E PUSH32 0xFFFFFFFFFFFFFFFFFFFFFFFFFFFFFFFFFFFFFFFFFFFFFFFFFFFFFFFFFFFFFFFF DUP3 PUSH2 0x2601 JUMP JUMPDEST PUSH2 0x2648 DUP7 DUP4 PUSH2 0x2601 JUMP JUMPDEST SWAP6 POP DUP1 NOT DUP5 AND SWAP4 POP DUP1 DUP7 AND DUP5 OR SWAP3 POP POP POP SWAP4 SWAP3 POP POP POP JUMP JUMPDEST PUSH1 0x0 DUP2 SWAP1 POP SWAP2 SWAP1 POP JUMP JUMPDEST PUSH1 0x0 PUSH2 0x2685 PUSH2 0x2680 PUSH2 0x267B DUP5 PUSH2 0x1CDE JUMP JUMPDEST PUSH2 0x2660 JUMP JUMPDEST PUSH2 0x1CDE JUMP JUMPDEST SWAP1 POP SWAP2 SWAP1 POP JUMP JUMPDEST PUSH1 0x0 DUP2 SWAP1 POP SWAP2 SWAP1 POP JUMP JUMPDEST PUSH2 0x269F DUP4 PUSH2 0x266A JUMP JUMPDEST PUSH2 0x26B3 PUSH2 0x26AB DUP3 PUSH2 0x268C JUMP JUMPDEST DUP5 DUP5 SLOAD PUSH2 0x260E JUMP JUMPDEST DUP3 SSTORE POP POP POP POP JUMP JUMPDEST PUSH1 0x0 SWAP1 JUMP JUMPDEST PUSH2 0x26C8 PUSH2 0x26BB JUMP JUMPDEST PUSH2 0x26D3 DUP2 DUP5 DUP5 PUSH2 0x2696 JUMP JUMPDEST POP POP POP JUMP JUMPDEST JUMPDEST DUP2 DUP2 LT ISZERO PUSH2 0x26F7 JUMPI PUSH2 0x26EC PUSH1 0x0 DUP3 PUSH2 0x26C0 JUMP JUMPDEST PUSH1 0x1 DUP2 ADD SWAP1 POP PUSH2 0x26D9 JUMP JUMPDEST POP POP JUMP JUMPDEST PUSH1 0x1F DUP3 GT ISZERO PUSH2 0x273C JUMPI PUSH2 0x270D DUP2 PUSH2 0x25DC JUMP JUMPDEST PUSH2 0x2716 DUP5 PUSH2 0x25F1 JUMP JUMPDEST DUP2 ADD PUSH1 0x20 DUP6 LT ISZERO PUSH2 0x2725 JUMPI DUP2 SWAP1 POP JUMPDEST PUSH2 0x2739 PUSH2 0x2731 DUP6 PUSH2 0x25F1 JUMP JUMPDEST DUP4 ADD DUP3 PUSH2 0x26D8 JUMP JUMPDEST POP POP JUMPDEST POP POP POP JUMP JUMPDEST PUSH1 0x0 DUP3 DUP3 SHR SWAP1 POP SWAP3 SWAP2 POP POP JUMP JUMPDEST PUSH1 0x0 PUSH2 0x275F PUSH1 0x0 NOT DUP5 PUSH1 0x8 MUL PUSH2 0x2741 JUMP JUMPDEST NOT DUP1 DUP4 AND SWAP2 POP POP SWAP3 SWAP2 POP POP JUMP JUMPDEST PUSH1 0x0 PUSH2 0x2778 DUP4 DUP4 PUSH2 0x274E JUMP JUMPDEST SWAP2 POP DUP3 PUSH1 0x2 MUL DUP3 OR SWAP1 POP SWAP3 SWAP2 POP POP JUMP JUMPDEST PUSH2 0x2791 DUP3 PUSH2 0x1C2C JUMP JUMPDEST PUSH8 0xFFFFFFFFFFFFFFFF DUP2 GT ISZERO PUSH2 0x27AA JUMPI PUSH2 0x27A9 PUSH2 0x1E8B JUMP JUMPDEST JUMPDEST PUSH2 0x27B4 DUP3 SLOAD PUSH2 0x2288 JUMP JUMPDEST PUSH2 0x27BF DUP3 DUP3 DUP6 PUSH2 0x26FB JUMP JUMPDEST PUSH1 0x0 PUSH1 0x20 SWAP1 POP PUSH1 0x1F DUP4 GT PUSH1 0x1 DUP2 EQ PUSH2 0x27F2 JUMPI PUSH1 0x0 DUP5 ISZERO PUSH2 0x27E0 JUMPI DUP3 DUP8 ADD MLOAD SWAP1 POP JUMPDEST PUSH2 0x27EA DUP6 DUP3 PUSH2 0x276C JUMP JUMPDEST DUP7 SSTORE POP PUSH2 0x2852 JUMP JUMPDEST PUSH1 0x1F NOT DUP5 AND PUSH2 0x2800 DUP7 PUSH2 0x25DC JUMP JUMPDEST PUSH1 0x0 JUMPDEST DUP3 DUP2 LT ISZERO PUSH2 0x2828 JUMPI DUP5 DUP10 ADD MLOAD DUP3 SSTORE PUSH1 0x1 DUP3 ADD SWAP2 POP PUSH1 0x20 DUP6 ADD SWAP5 POP PUSH1 0x20 DUP2 ADD SWAP1 POP PUSH2 0x2803 JUMP JUMPDEST DUP7 DUP4 LT ISZERO PUSH2 0x2845 JUMPI DUP5 DUP10 ADD MLOAD PUSH2 0x2841 PUSH1 0x1F DUP10 AND DUP3 PUSH2 0x274E JUMP JUMPDEST DUP4 SSTORE POP JUMPDEST PUSH1 0x1 PUSH1 0x2 DUP9 MUL ADD DUP9 SSTORE POP POP POP JUMPDEST POP POP POP POP POP POP JUMP JUMPDEST PUSH32 0x536E617073686F7420616C72656164792074616B656E20666F72207468697320 PUSH1 0x0 DUP3 ADD MSTORE PUSH32 0x76657273696F6E206F6620617274000000000000000000000000000000000000 PUSH1 0x20 DUP3 ADD MSTORE POP JUMP JUMPDEST PUSH1 0x0 PUSH2 0x28B6 PUSH1 0x2E DUP4 PUSH2 0x1C37 JUMP JUMPDEST SWAP2 POP PUSH2 0x28C1 DUP3 PUSH2 0x285A JUMP JUMPDEST PUSH1 0x40 DUP3 ADD SWAP1 POP SWAP2 SWAP1 POP JUMP JUMPDEST PUSH1 0x0 PUSH1 0x20 DUP3 ADD SWAP1 POP DUP2 DUP2 SUB PUSH1 0x0 DUP4 ADD MSTORE PUSH2 0x28E5 DUP2 PUSH2 0x28A9 JUMP JUMPDEST SWAP1 POP SWAP2 SWAP1 POP JUMP JUMPDEST PUSH32 0x7B226E616D65223A2022506978656C5465737420000000000000000000000000 PUSH1 0x0 DUP3 ADD MSTORE POP JUMP JUMPDEST PUSH1 0x0 PUSH2 0x2922 PUSH1 0x14 DUP4 PUSH2 0x245F JUMP JUMPDEST SWAP2 POP PUSH2 0x292D DUP3 PUSH2 0x28EC JUMP JUMPDEST PUSH1 0x14 DUP3 ADD SWAP1 POP SWAP2 SWAP1 POP JUMP JUMPDEST PUSH32 0x222C20226465736372697074696F6E223A202254686973206973206120746573 PUSH1 0x0 DUP3 ADD MSTORE PUSH32 0x74222C2022696D616765223A2022646174613A696D6167652F7376672B786D6C PUSH1 0x20 DUP3 ADD MSTORE PUSH32 0x3B6261736536342C000000000000000000000000000000000000000000000000 PUSH1 0x40 DUP3 ADD MSTORE POP JUMP JUMPDEST PUSH1 0x0 PUSH2 0x29BA PUSH1 0x48 DUP4 PUSH2 0x245F JUMP JUMPDEST SWAP2 POP PUSH2 0x29C5 DUP3 PUSH2 0x2938 JUMP JUMPDEST PUSH1 0x48 DUP3 ADD SWAP1 POP SWAP2 SWAP1 POP JUMP JUMPDEST PUSH32 0x227D000000000000000000000000000000000000000000000000000000000000 PUSH1 0x0 DUP3 ADD MSTORE POP JUMP JUMPDEST PUSH1 0x0 PUSH2 0x2A06 PUSH1 0x2 DUP4 PUSH2 0x245F JUMP JUMPDEST SWAP2 POP PUSH2 0x2A11 DUP3 PUSH2 0x29D0 JUMP JUMPDEST PUSH1 0x2 DUP3 ADD SWAP1 POP SWAP2 SWAP1 POP JUMP JUMPDEST PUSH1 0x0 PUSH2 0x2A27 DUP3 PUSH2 0x2915 JUMP JUMPDEST SWAP2 POP PUSH2 0x2A33 DUP3 DUP6 PUSH2 0x24B6 JUMP JUMPDEST SWAP2 POP PUSH2 0x2A3E DUP3 PUSH2 0x29AD JUMP JUMPDEST SWAP2 POP PUSH2 0x2A4A DUP3 DUP5 PUSH2 0x24B6 JUMP JUMPDEST SWAP2 POP PUSH2 0x2A55 DUP3 PUSH2 0x29F9 JUMP JUMPDEST SWAP2 POP DUP2 SWAP1 POP SWAP4 SWAP3 POP POP POP JUMP JUMPDEST PUSH32 0x646174613A6170706C69636174696F6E2F6A736F6E3B6261736536342C000000 PUSH1 0x0 DUP3 ADD MSTORE POP JUMP JUMPDEST PUSH1 0x0 PUSH2 0x2A97 PUSH1 0x1D DUP4 PUSH2 0x245F JUMP JUMPDEST SWAP2 POP PUSH2 0x2AA2 DUP3 PUSH2 0x2A61 JUMP JUMPDEST PUSH1 0x1D DUP3 ADD SWAP1 POP SWAP2 SWAP1 POP JUMP JUMPDEST PUSH1 0x0 PUSH2 0x2AB8 DUP3 PUSH2 0x2A8A JUMP JUMPDEST SWAP2 POP PUSH2 0x2AC4 DUP3 DUP5 PUSH2 0x24B6 JUMP JUMPDEST SWAP2 POP DUP2 SWAP1 POP SWAP3 SWAP2 POP POP JUMP JUMPDEST PUSH32 0x3C2F7374796C653E3C2F7376673E000000000000000000000000000000000000 PUSH1 0x0 DUP3 ADD MSTORE POP JUMP JUMPDEST PUSH1 0x0 PUSH2 0x2B05 PUSH1 0xE DUP4 PUSH2 0x245F JUMP JUMPDEST SWAP2 POP PUSH2 0x2B10 DUP3 PUSH2 0x2ACF JUMP JUMPDEST PUSH1 0xE DUP3 ADD SWAP1 POP SWAP2 SWAP1 POP JUMP JUMPDEST PUSH1 0x0 PUSH2 0x2B27 DUP3 DUP6 PUSH2 0x24B6 JUMP JUMPDEST SWAP2 POP PUSH2 0x2B33 DUP3 DUP5 PUSH2 0x24B6 JUMP JUMPDEST SWAP2 POP PUSH2 0x2B3E DUP3 PUSH2 0x2AF8 JUMP JUMPDEST SWAP2 POP DUP2 SWAP1 POP SWAP4 SWAP3 POP POP POP JUMP JUMPDEST PUSH32 0x2370000000000000000000000000000000000000000000000000000000000000 PUSH1 0x0 DUP3 ADD MSTORE POP JUMP JUMPDEST PUSH1 0x0 PUSH2 0x2B80 PUSH1 0x2 DUP4 PUSH2 0x245F JUMP JUMPDEST SWAP2 POP PUSH2 0x2B8B DUP3 PUSH2 0x2B4A JUMP JUMPDEST PUSH1 0x2 DUP3 ADD SWAP1 POP SWAP2 SWAP1 POP JUMP JUMPDEST PUSH32 0x7B66696C6C3A0000000000000000000000000000000000000000000000000000 PUSH1 0x0 DUP3 ADD MSTORE POP JUMP JUMPDEST PUSH1 0x0 PUSH2 0x2BCC PUSH1 0x6 DUP4 PUSH2 0x245F JUMP JUMPDEST SWAP2 POP PUSH2 0x2BD7 DUP3 PUSH2 0x2B96 JUMP JUMPDEST PUSH1 0x6 DUP3 ADD SWAP1 POP SWAP2 SWAP1 POP JUMP JUMPDEST PUSH1 0x0 DUP2 SLOAD PUSH2 0x2BEF DUP2 PUSH2 0x2288 JUMP JUMPDEST PUSH2 0x2BF9 DUP2 DUP7 PUSH2 0x245F JUMP JUMPDEST SWAP5 POP PUSH1 0x1 DUP3 AND PUSH1 0x0 DUP2 EQ PUSH2 0x2C14 JUMPI PUSH1 0x1 DUP2 EQ PUSH2 0x2C29 JUMPI PUSH2 0x2C5C JUMP JUMPDEST PUSH1 0xFF NOT DUP4 AND DUP7 MSTORE DUP2 ISZERO ISZERO DUP3 MUL DUP7 ADD SWAP4 POP PUSH2 0x2C5C JUMP JUMPDEST PUSH2 0x2C32 DUP6 PUSH2 0x25DC JUMP JUMPDEST PUSH1 0x0 JUMPDEST DUP4 DUP2 LT ISZERO PUSH2 0x2C54 JUMPI DUP2 SLOAD DUP2 DUP10 ADD MSTORE PUSH1 0x1 DUP3 ADD SWAP2 POP PUSH1 0x20 DUP2 ADD SWAP1 POP PUSH2 0x2C35 JUMP JUMPDEST DUP4 DUP9 ADD SWAP6 POP POP POP JUMPDEST POP POP POP SWAP3 SWAP2 POP POP JUMP JUMPDEST PUSH32 0x7D00000000000000000000000000000000000000000000000000000000000000 PUSH1 0x0 DUP3 ADD MSTORE POP JUMP JUMPDEST PUSH1 0x0 PUSH2 0x2C9B PUSH1 0x1 DUP4 PUSH2 0x245F JUMP JUMPDEST SWAP2 POP PUSH2 0x2CA6 DUP3 PUSH2 0x2C65 JUMP JUMPDEST PUSH1 0x1 DUP3 ADD SWAP1 POP SWAP2 SWAP1 POP JUMP JUMPDEST PUSH1 0x0 PUSH2 0x2CBD DUP3 DUP7 PUSH2 0x24B6 JUMP JUMPDEST SWAP2 POP PUSH2 0x2CC8 DUP3 PUSH2 0x2B73 JUMP JUMPDEST SWAP2 POP PUSH2 0x2CD4 DUP3 DUP6 PUSH2 0x24B6 JUMP JUMPDEST SWAP2 POP PUSH2 0x2CDF DUP3 PUSH2 0x2BBF JUMP JUMPDEST SWAP2 POP PUSH2 0x2CEB DUP3 DUP5 PUSH2 0x2BE2 JUMP JUMPDEST SWAP2 POP PUSH2 0x2CF6 DUP3 PUSH2 0x2C8E JUMP JUMPDEST SWAP2 POP DUP2 SWAP1 POP SWAP5 SWAP4 POP POP POP POP JUMP JUMPDEST PUSH1 0x0 DUP2 MLOAD SWAP1 POP SWAP2 SWAP1 POP JUMP JUMPDEST PUSH1 0x0 DUP3 DUP3 MSTORE PUSH1 0x20 DUP3 ADD SWAP1 POP SWAP3 SWAP2 POP POP JUMP JUMPDEST PUSH1 0x0 PUSH2 0x2D2A DUP3 PUSH2 0x2D03 JUMP JUMPDEST PUSH2 0x2D34 DUP2 DUP6 PUSH2 0x2D0E JUMP JUMPDEST SWAP4 POP PUSH2 0x2D44 DUP2 DUP6 PUSH1 0x20 DUP7 ADD PUSH2 0x1C48 JUMP JUMPDEST PUSH2 0x2D4D DUP2 PUSH2 0x1C72 JUMP JUMPDEST DUP5 ADD SWAP2 POP POP SWAP3 SWAP2 POP POP JUMP JUMPDEST PUSH1 0x0 PUSH1 0x80 DUP3 ADD SWAP1 POP PUSH2 0x2D6D PUSH1 0x0 DUP4 ADD DUP8 PUSH2 0x1D73 JUMP JUMPDEST PUSH2 0x2D7A PUSH1 0x20 DUP4 ADD DUP7 PUSH2 0x1D73 JUMP JUMPDEST PUSH2 0x2D87 PUSH1 0x40 DUP4 ADD DUP6 PUSH2 0x1E09 JUMP JUMPDEST DUP2 DUP2 SUB PUSH1 0x60 DUP4 ADD MSTORE PUSH2 0x2D99 DUP2 DUP5 PUSH2 0x2D1F JUMP JUMPDEST SWAP1 POP SWAP6 SWAP5 POP POP POP POP POP JUMP JUMPDEST PUSH1 0x0 DUP2 MLOAD SWAP1 POP PUSH2 0x2DB3 DUP2 PUSH2 0x1B9D JUMP JUMPDEST SWAP3 SWAP2 POP POP JUMP JUMPDEST PUSH1 0x0 PUSH1 0x20 DUP3 DUP5 SUB SLT ISZERO PUSH2 0x2DCF JUMPI PUSH2 0x2DCE PUSH2 0x1B67 JUMP JUMPDEST JUMPDEST PUSH1 0x0 PUSH2 0x2DDD DUP5 DUP3 DUP6 ADD PUSH2 0x2DA4 JUMP JUMPDEST SWAP2 POP POP SWAP3 SWAP2 POP POP JUMP JUMPDEST PUSH1 0x0 PUSH2 0x2DF1 DUP3 PUSH2 0x1CDE JUMP JUMPDEST SWAP2 POP PUSH2 0x2DFC DUP4 PUSH2 0x1CDE JUMP JUMPDEST SWAP3 POP DUP3 PUSH2 0x2E0C JUMPI PUSH2 0x2E0B PUSH2 0x22B9 JUMP JUMPDEST JUMPDEST DUP3 DUP3 DIV SWAP1 POP SWAP3 SWAP2 POP POP JUMP JUMPDEST PUSH1 0x0 PUSH2 0x2E22 DUP3 PUSH2 0x1CDE JUMP JUMPDEST SWAP2 POP PUSH2 0x2E2D DUP4 PUSH2 0x1CDE JUMP JUMPDEST SWAP3 POP DUP3 DUP3 MUL PUSH2 0x2E3B DUP2 PUSH2 0x1CDE JUMP JUMPDEST SWAP2 POP DUP3 DUP3 DIV DUP5 EQ DUP4 ISZERO OR PUSH2 0x2E52 JUMPI PUSH2 0x2E51 PUSH2 0x2319 JUMP JUMPDEST JUMPDEST POP SWAP3 SWAP2 POP POP JUMP INVALID COINBASE TIMESTAMP NUMBER PREVRANDAO GASLIMIT CHAINID SELFBALANCE BASEFEE 0x49 0x4A 0x4B 0x4C 0x4D 0x4E 0x4F POP MLOAD MSTORE MSTORE8 SLOAD SSTORE JUMP JUMPI PC MSIZE GAS PUSH2 0x6263 PUSH5 0x6566676869 PUSH11 0x6B6C6D6E6F707172737475 PUSH23 0x7778797A303132333435363738392B2F3C737667207769 PUSH5 0x74683D2238 ADDRESS ADDRESS 0x22 KECCAK256 PUSH9 0x65696768743D223830 ADDRESS 0x22 KECCAK256 PUSH23 0x696577426F783D223020302031352031352220786D6C6E PUSH20 0x3D22687474703A2F2F7777772E77332E6F72672F ORIGIN ADDRESS ADDRESS ADDRESS 0x2F PUSH20 0x7667223E3C726563742077696474683D22313522 KECCAK256 PUSH9 0x65696768743D223135 0x22 KECCAK256 PUSH7 0x696C6C3D222330 NUMBER ADDRESS NUMBER ADDRESS NUMBER 0x22 0x2F RETURNDATACOPY EXTCODECOPY PUSH8 0x20636C6173733D22 PUSH21 0x696C6573223E3C726563742069643D227031222078 RETURNDATASIZE 0x22 CALLER 0x22 KECCAK256 PUSH26 0x3D2233222066696C6C3D2223666666222F3E3C72656374206964 RETURNDATASIZE 0x22 PUSH17 0x322220783D22342220793D223322206669 PUSH13 0x6C3D2223666666222F3E3C7265 PUSH4 0x74206964 RETURNDATASIZE 0x22 PUSH17 0x332220783D22352220793D223322206669 PUSH13 0x6C3D2223666666222F3E3C7265 PUSH4 0x74206964 RETURNDATASIZE 0x22 PUSH17 0x342220783D22362220793D223322206669 PUSH13 0x6C3D2223666666222F3E3C7265 PUSH4 0x74206964 RETURNDATASIZE 0x22 PUSH17 0x352220783D22372220793D223322206669 PUSH13 0x6C3D2223666666222F3E3C7265 PUSH4 0x74206964 RETURNDATASIZE 0x22 PUSH17 0x362220783D22382220793D223322206669 PUSH13 0x6C3D2223666666222F3E3C7265 PUSH4 0x74206964 RETURNDATASIZE 0x22 PUSH17 0x372220783D22392220793D223322206669 PUSH13 0x6C3D2223666666222F3E3C7265 PUSH4 0x74206964 RETURNDATASIZE 0x22 PUSH17 0x382220783D2231302220793D2233222066 PUSH10 0x6C6C3D2223666666222F RETURNDATACOPY EXTCODECOPY PUSH19 0x6563742069643D2270392220783D2231312220 PUSH26 0x3D2233222066696C6C3D2223666666222F3E3C72656374206964 RETURNDATASIZE 0x22 PUSH17 0x31302220783D22332220793D2234222066 PUSH10 0x6C6C3D2223666666222F RETURNDATACOPY EXTCODECOPY PUSH19 0x6563742069643D227031312220783D22342220 PUSH26 0x3D2234222066696C6C3D2223666666222F3E3C72656374206964 RETURNDATASIZE 0x22 PUSH17 0x31322220783D22352220793D2234222066 PUSH10 0x6C6C3D2223666666222F RETURNDATACOPY EXTCODECOPY PUSH19 0x6563742069643D227031332220783D22362220 PUSH26 0x3D2234222066696C6C3D2223666666222F3E3C72656374206964 RETURNDATASIZE 0x22 PUSH17 0x31342220783D22372220793D2234222066 PUSH10 0x6C6C3D2223666666222F RETURNDATACOPY EXTCODECOPY PUSH19 0x6563742069643D227031352220783D22382220 PUSH26 0x3D2234222066696C6C3D2223666666222F3E3C72656374206964 RETURNDATASIZE 0x22 PUSH17 0x31362220783D22392220793D2234222066 PUSH10 0x6C6C3D2223666666222F RETURNDATACOPY EXTCODECOPY PUSH19 0x6563742069643D227031372220783D22313022 KECCAK256 PUSH26 0x3D2234222066696C6C3D2223666666222F3E3C72656374206964 RETURNDATASIZE 0x22 PUSH17 0x31382220783D2231312220793D22342220 PUSH7 0x696C6C3D222366 PUSH7 0x66222F3E3C7265 PUSH4 0x74206964 RETURNDATASIZE 0x22 PUSH17 0x31392220783D22332220793D2235222066 PUSH10 0x6C6C3D2223666666222F RETURNDATACOPY EXTCODECOPY PUSH19 0x6563742069643D227032302220783D22342220 PUSH26 0x3D2235222066696C6C3D2223666666222F3E3C72656374206964 RETURNDATASIZE 0x22 PUSH17 0x32312220783D22352220793D2235222066 PUSH10 0x6C6C3D2223666666222F RETURNDATACOPY EXTCODECOPY PUSH19 0x6563742069643D227032322220783D22362220 PUSH26 0x3D2235222066696C6C3D2223666666222F3E3C72656374206964 RETURNDATASIZE 0x22 PUSH17 0x32332220783D22372220793D2235222066 PUSH10 0x6C6C3D2223666666222F RETURNDATACOPY EXTCODECOPY PUSH19 0x6563742069643D227032342220783D22382220 PUSH26 0x3D2235222066696C6C3D2223666666222F3E3C72656374206964 RETURNDATASIZE 0x22 PUSH17 0x32352220783D22392220793D2235222066 PUSH10 0x6C6C3D2223666666222F RETURNDATACOPY EXTCODECOPY PUSH19 0x6563742069643D227032362220783D22313022 KECCAK256 PUSH26 0x3D2235222066696C6C3D2223666666222F3E3C72656374206964 RETURNDATASIZE 0x22 PUSH17 0x32372220783D2231312220793D22352220 PUSH7 0x696C6C3D222366 PUSH7 0x66222F3E3C7265 PUSH4 0x74206964 RETURNDATASIZE 0x22 PUSH17 0x32382220783D22332220793D2236222066 PUSH10 0x6C6C3D2223666666222F RETURNDATACOPY EXTCODECOPY PUSH19 0x6563742069643D227032392220783D22342220 PUSH26 0x3D2236222066696C6C3D2223666666222F3E3C72656374206964 RETURNDATASIZE 0x22 PUSH17 0x33302220783D22352220793D2236222066 PUSH10 0x6C6C3D2223666666222F RETURNDATACOPY EXTCODECOPY PUSH19 0x6563742069643D227033312220783D22362220 PUSH26 0x3D2236222066696C6C3D2223666666222F3E3C72656374206964 RETURNDATASIZE 0x22 PUSH17 0x33322220783D22372220793D2236222066 PUSH10 0x6C6C3D2223666666222F RETURNDATACOPY EXTCODECOPY PUSH19 0x6563742069643D227033332220783D22382220 PUSH26 0x3D2236222066696C6C3D2223666666222F3E3C72656374206964 RETURNDATASIZE 0x22 PUSH17 0x33342220783D22392220793D2236222066 PUSH10 0x6C6C3D2223666666222F RETURNDATACOPY EXTCODECOPY PUSH19 0x6563742069643D227033352220783D22313022 KECCAK256 PUSH26 0x3D2236222066696C6C3D2223666666222F3E3C72656374206964 RETURNDATASIZE 0x22 PUSH17 0x33362220783D2231312220793D22362220 PUSH7 0x696C6C3D222366 PUSH7 0x66222F3E3C7265 PUSH4 0x74206964 RETURNDATASIZE 0x22 PUSH17 0x33372220783D22332220793D2237222066 PUSH10 0x6C6C3D2223666666222F RETURNDATACOPY EXTCODECOPY PUSH19 0x6563742069643D227033382220783D22342220 PUSH26 0x3D2237222066696C6C3D2223666666222F3E3C72656374206964 RETURNDATASIZE 0x22 PUSH17 0x33392220783D22352220793D2237222066 PUSH10 0x6C6C3D2223666666222F RETURNDATACOPY EXTCODECOPY PUSH19 0x6563742069643D227034302220783D22362220 PUSH26 0x3D2237222066696C6C3D2223666666222F3E3C72656374206964 RETURNDATASIZE 0x22 PUSH17 0x34312220783D22372220793D2237222066 PUSH10 0x6C6C3D2223666666222F RETURNDATACOPY EXTCODECOPY PUSH19 0x6563742069643D227034322220783D22382220 PUSH26 0x3D2237222066696C6C3D2223666666222F3E3C72656374206964 RETURNDATASIZE 0x22 PUSH17 0x34332220783D22392220793D2237222066 PUSH10 0x6C6C3D2223666666222F RETURNDATACOPY EXTCODECOPY PUSH19 0x6563742069643D227034342220783D22313022 KECCAK256 PUSH26 0x3D2237222066696C6C3D2223666666222F3E3C72656374206964 RETURNDATASIZE 0x22 PUSH17 0x34352220783D2231312220793D22372220 PUSH7 0x696C6C3D222366 PUSH7 0x66222F3E3C7265 PUSH4 0x74206964 RETURNDATASIZE 0x22 PUSH17 0x34362220783D22332220793D2238222066 PUSH10 0x6C6C3D2223666666222F RETURNDATACOPY EXTCODECOPY PUSH19 0x6563742069643D227034372220783D22342220 PUSH26 0x3D2238222066696C6C3D2223666666222F3E3C72656374206964 RETURNDATASIZE 0x22 PUSH17 0x34382220783D22352220793D2238222066 PUSH10 0x6C6C3D2223666666222F RETURNDATACOPY EXTCODECOPY PUSH19 0x6563742069643D227034392220783D22362220 PUSH26 0x3D2238222066696C6C3D2223666666222F3E3C72656374206964 RETURNDATASIZE 0x22 PUSH17 0x35302220783D22372220793D2238222066 PUSH10 0x6C6C3D2223666666222F RETURNDATACOPY EXTCODECOPY PUSH19 0x6563742069643D227035312220783D22382220 PUSH26 0x3D2238222066696C6C3D2223666666222F3E3C72656374206964 RETURNDATASIZE 0x22 PUSH17 0x35322220783D22392220793D2238222066 PUSH10 0x6C6C3D2223666666222F RETURNDATACOPY EXTCODECOPY PUSH19 0x6563742069643D227035332220783D22313022 KECCAK256 PUSH26 0x3D2238222066696C6C3D2223666666222F3E3C72656374206964 RETURNDATASIZE 0x22 PUSH17 0x35342220783D2231312220793D22382220 PUSH7 0x696C6C3D222366 PUSH7 0x66222F3E3C7265 PUSH4 0x74206964 RETURNDATASIZE 0x22 PUSH17 0x35352220783D22332220793D2239222066 PUSH10 0x6C6C3D2223666666222F RETURNDATACOPY EXTCODECOPY PUSH19 0x6563742069643D227035362220783D22342220 PUSH26 0x3D2239222066696C6C3D2223666666222F3E3C72656374206964 RETURNDATASIZE 0x22 PUSH17 0x35372220783D22352220793D2239222066 PUSH10 0x6C6C3D2223666666222F RETURNDATACOPY EXTCODECOPY PUSH19 0x6563742069643D227035382220783D22362220 PUSH26 0x3D2239222066696C6C3D2223666666222F3E3C72656374206964 RETURNDATASIZE 0x22 PUSH17 0x35392220783D22372220793D2239222066 PUSH10 0x6C6C3D2223666666222F RETURNDATACOPY EXTCODECOPY PUSH19 0x6563742069643D227036302220783D22382220 PUSH26 0x3D2239222066696C6C3D2223666666222F3E3C72656374206964 RETURNDATASIZE 0x22 PUSH17 0x36312220783D22392220793D2239222066 PUSH10 0x6C6C3D2223666666222F RETURNDATACOPY EXTCODECOPY PUSH19 0x6563742069643D227036322220783D22313022 KECCAK256 PUSH26 0x3D2239222066696C6C3D2223666666222F3E3C72656374206964 RETURNDATASIZE 0x22 PUSH17 0x36332220783D2231312220793D22392220 PUSH7 0x696C6C3D222366 PUSH7 0x66222F3E3C7265 PUSH4 0x74206964 RETURNDATASIZE 0x22 PUSH17 0x36342220783D22332220793D2231302220 PUSH7 0x696C6C3D222366 PUSH7 0x66222F3E3C7265 PUSH4 0x74206964 RETURNDATASIZE 0x22 PUSH17 0x36352220783D22342220793D2231302220 PUSH7 0x696C6C3D222366 PUSH7 0x66222F3E3C7265 PUSH4 0x74206964 RETURNDATASIZE 0x22 PUSH17 0x36362220783D22352220793D2231302220 PUSH7 0x696C6C3D222366 PUSH7 0x66222F3E3C7265 PUSH4 0x74206964 RETURNDATASIZE 0x22 PUSH17 0x36372220783D22362220793D2231302220 PUSH7 0x696C6C3D222366 PUSH7 0x66222F3E3C7265 PUSH4 0x74206964 RETURNDATASIZE 0x22 PUSH17 0x36382220783D22372220793D2231302220 PUSH7 0x696C6C3D222366 PUSH7 0x66222F3E3C7265 PUSH4 0x74206964 RETURNDATASIZE 0x22 PUSH17 0x36392220783D22382220793D2231302220 PUSH7 0x696C6C3D222366 PUSH7 0x66222F3E3C7265 PUSH4 0x74206964 RETURNDATASIZE 0x22 PUSH17 0x37302220783D22392220793D2231302220 PUSH7 0x696C6C3D222366 PUSH7 0x66222F3E3C7265 PUSH4 0x74206964 RETURNDATASIZE 0x22 PUSH17 0x37312220783D2231302220793D22313022 KECCAK256 PUSH7 0x696C6C3D222366 PUSH7 0x66222F3E3C7265 PUSH4 0x74206964 RETURNDATASIZE 0x22 PUSH17 0x37322220783D2231312220793D22313022 KECCAK256 PUSH7 0x696C6C3D222366 PUSH7 0x66222F3E3C7265 PUSH4 0x74206964 RETURNDATASIZE 0x22 PUSH17 0x37332220783D22332220793D2231312220 PUSH7 0x696C6C3D222366 PUSH7 0x66222F3E3C7265 PUSH4 0x74206964 RETURNDATASIZE 0x22 PUSH17 0x37342220783D22342220793D2231312220 PUSH7 0x696C6C3D222366 PUSH7 0x66222F3E3C7265 PUSH4 0x74206964 RETURNDATASIZE 0x22 PUSH17 0x37352220783D22352220793D2231312220 PUSH7 0x696C6C3D222366 PUSH7 0x66222F3E3C7265 PUSH4 0x74206964 RETURNDATASIZE 0x22 PUSH17 0x37362220783D22362220793D2231312220 PUSH7 0x696C6C3D222366 PUSH7 0x66222F3E3C7265 PUSH4 0x74206964 RETURNDATASIZE 0x22 PUSH17 0x37372220783D22372220793D2231312220 PUSH7 0x696C6C3D222366 PUSH7 0x66222F3E3C7265 PUSH4 0x74206964 RETURNDATASIZE 0x22 PUSH17 0x37382220783D22382220793D2231312220 PUSH7 0x696C6C3D222366 PUSH7 0x66222F3E3C7265 PUSH4 0x74206964 RETURNDATASIZE 0x22 PUSH17 0x37392220783D22392220793D2231312220 PUSH7 0x696C6C3D222366 PUSH7 0x66222F3E3C7265 PUSH4 0x74206964 RETURNDATASIZE 0x22 PUSH17 0x38302220783D2231302220793D22313122 KECCAK256 PUSH7 0x696C6C3D222366 PUSH7 0x66222F3E3C7265 PUSH4 0x74206964 RETURNDATASIZE 0x22 PUSH17 0x38312220783D2231312220793D22313122 KECCAK256 PUSH7 0x696C6C3D222366 PUSH7 0x66222F3E3C2F67 RETURNDATACOPY EXTCODECOPY PUSH8 0x20636C6173733D22 PUSH8 0x726964223E3C6C69 PUSH15 0x652078313D22312E30303522207931 RETURNDATASIZE 0x22 0x2D ORIGIN 0x2E BALANCE CODESIZE CALLDATALOAD CALLDATALOAD CALLDATACOPY PUSH6 0x2D3130222078 ORIGIN RETURNDATASIZE 0x22 BALANCE 0x2E ADDRESS ADDRESS CALLDATALOAD 0x22 KECCAK256 PUSH26 0x323D223135222F3E3C6C696E652078313D22322E303035222079 BALANCE RETURNDATASIZE 0x22 0x2D ORIGIN 0x2E BALANCE CODESIZE CALLDATALOAD CALLDATALOAD CALLDATACOPY PUSH6 0x2D3130222078 ORIGIN RETURNDATASIZE 0x22 ORIGIN 0x2E ADDRESS ADDRESS CALLDATALOAD 0x22 KECCAK256 PUSH26 0x323D223135222F3E3C6C696E652078313D22332E303035222079 BALANCE RETURNDATASIZE 0x22 0x2D ORIGIN 0x2E BALANCE CODESIZE CALLDATALOAD CALLDATALOAD CALLDATACOPY PUSH6 0x2D3130222078 ORIGIN RETURNDATASIZE 0x22 CALLER 0x2E ADDRESS ADDRESS CALLDATALOAD 0x22 KECCAK256 PUSH26 0x323D223135222F3E3C6C696E652078313D22342E303035222079 BALANCE RETURNDATASIZE 0x22 0x2D ORIGIN 0x2E BALANCE CODESIZE CALLDATALOAD CALLDATALOAD CALLDATACOPY PUSH6 0x2D3130222078 ORIGIN RETURNDATASIZE 0x22 CALLVALUE 0x2E ADDRESS ADDRESS CALLDATALOAD 0x22 KECCAK256 PUSH26 0x323D223135222F3E3C6C696E652078313D22352E303035222079 BALANCE RETURNDATASIZE 0x22 0x2D ORIGIN 0x2E BALANCE CODESIZE CALLDATALOAD CALLDATALOAD CALLDATACOPY PUSH6 0x2D3130222078 ORIGIN RETURNDATASIZE 0x22 CALLDATALOAD 0x2E ADDRESS ADDRESS CALLDATALOAD 0x22 KECCAK256 PUSH26 0x323D223135222F3E3C6C696E652078313D22362E303035222079 BALANCE RETURNDATASIZE 0x22 0x2D ORIGIN 0x2E BALANCE CODESIZE CALLDATALOAD CALLDATALOAD CALLDATACOPY PUSH6 0x2D3130222078 ORIGIN RETURNDATASIZE 0x22 CALLDATASIZE 0x2E ADDRESS ADDRESS CALLDATALOAD 0x22 KECCAK256 PUSH26 0x323D223135222F3E3C6C696E652078313D22372E303035222079 BALANCE RETURNDATASIZE 0x22 0x2D ORIGIN 0x2E BALANCE CODESIZE CALLDATALOAD CALLDATALOAD CALLDATACOPY PUSH6 0x2D3130222078 ORIGIN RETURNDATASIZE 0x22 CALLDATACOPY 0x2E ADDRESS ADDRESS CALLDATALOAD 0x22 KECCAK256 PUSH26 0x323D223135222F3E3C6C696E652078313D22382E303035222079 BALANCE RETURNDATASIZE 0x22 0x2D ORIGIN 0x2E BALANCE CODESIZE CALLDATALOAD CALLDATALOAD CALLDATACOPY PUSH6 0x2D3130222078 ORIGIN RETURNDATASIZE 0x22 CODESIZE 0x2E ADDRESS ADDRESS CALLDATALOAD 0x22 KECCAK256 PUSH26 0x323D223135222F3E3C6C696E652078313D22392E303035222079 BALANCE RETURNDATASIZE 0x22 0x2D ORIGIN 0x2E BALANCE CODESIZE CALLDATALOAD CALLDATALOAD CALLDATACOPY PUSH6 0x2D3130222078 ORIGIN RETURNDATASIZE 0x22 CODECOPY 0x2E ADDRESS ADDRESS CALLDATALOAD 0x22 KECCAK256 PUSH26 0x323D223135222F3E3C6C696E652078313D2231302E3030352220 PUSH26 0x313D222D322E3138353537652D3130222078323D2231302E3030 CALLDATALOAD 0x22 KECCAK256 PUSH26 0x323D223135222F3E3C6C696E652078313D2231312E3030352220 PUSH26 0x313D222D322E3138353537652D3130222078323D2231312E3030 CALLDATALOAD 0x22 KECCAK256 PUSH26 0x323D223135222F3E3C6C696E652078313D2231322E3030352220 PUSH26 0x313D222D322E3138353537652D3130222078323D2231322E3030 CALLDATALOAD 0x22 KECCAK256 PUSH26 0x323D223135222F3E3C6C696E652078313D2231332E3030352220 PUSH26 0x313D222D322E3138353537652D3130222078323D2231332E3030 CALLDATALOAD 0x22 KECCAK256 PUSH26 0x323D223135222F3E3C6C696E652078313D2231342E3030352220 PUSH26 0x313D222D322E3138353537652D3130222078323D2231342E3030 CALLDATALOAD 0x22 KECCAK256 PUSH26 0x323D223135222F3E3C6C696E652078313D223135222079313D22 BALANCE 0x2E ADDRESS ADDRESS CALLDATALOAD 0x22 KECCAK256 PUSH26 0x323D22312E303035222F3E3C6C696E652078313D223135222079 BALANCE RETURNDATASIZE 0x22 ORIGIN 0x2E ADDRESS ADDRESS CALLDATALOAD 0x22 KECCAK256 PUSH26 0x323D22322E303035222F3E3C6C696E652078313D223135222079 BALANCE RETURNDATASIZE 0x22 CALLER 0x2E ADDRESS ADDRESS CALLDATALOAD 0x22 KECCAK256 PUSH26 0x323D22332E303035222F3E3C6C696E652078313D223135222079 BALANCE RETURNDATASIZE 0x22 CALLVALUE 0x2E ADDRESS ADDRESS CALLDATALOAD 0x22 KECCAK256 PUSH26 0x323D22342E303035222F3E3C6C696E652078313D223135222079 BALANCE RETURNDATASIZE 0x22 CALLDATALOAD 0x2E ADDRESS ADDRESS CALLDATALOAD 0x22 KECCAK256 PUSH26 0x323D22352E303035222F3E3C6C696E652078313D223135222079 BALANCE RETURNDATASIZE 0x22 CALLDATASIZE 0x2E ADDRESS ADDRESS CALLDATALOAD 0x22 KECCAK256 PUSH26 0x323D22362E303035222F3E3C6C696E652078313D223135222079 BALANCE RETURNDATASIZE 0x22 CALLDATACOPY 0x2E ADDRESS ADDRESS CALLDATALOAD 0x22 KECCAK256 PUSH26 0x323D22372E303035222F3E3C6C696E652078313D223135222079 BALANCE RETURNDATASIZE 0x22 CODESIZE 0x2E ADDRESS ADDRESS CALLDATALOAD 0x22 KECCAK256 PUSH26 0x323D22382E303035222F3E3C6C696E652078313D223135222079 BALANCE RETURNDATASIZE 0x22 CODECOPY 0x2E ADDRESS ADDRESS CALLDATALOAD 0x22 KECCAK256 PUSH26 0x323D22392E303035222F3E3C6C696E652078313D223135222079 BALANCE RETURNDATASIZE 0x22 BALANCE ADDRESS 0x2E ADDRESS ADDRESS CALLDATALOAD 0x22 KECCAK256 PUSH26 0x323D2231302E303035222F3E3C6C696E652078313D2231352220 PUSH26 0x313D2231312E303035222079323D2231312E303035222F3E3C6C PUSH10 0x6E652078313D22313522 KECCAK256 PUSH26 0x313D2231322E303035222079323D2231322E303035222F3E3C6C PUSH10 0x6E652078313D22313522 KECCAK256 PUSH26 0x313D2231332E303035222079323D2231332E303035222F3E3C6C PUSH10 0x6E652078313D22313522 KECCAK256 PUSH26 0x313D2231342E303035222079323D2231342E303035222F3E3C2F PUSH8 0x3E3C7374796C653E 0x2E PUSH21 0x696C657320726563747B77696474683A3170783B68 PUSH6 0x696768743A31 PUSH17 0x783B7D2E677269647B7374726F6B653A23 ORIGIN ORIGIN ORIGIN EXTCODESIZE PUSH20 0x74726F6B652D77696474683A2E30313B7DA26469 PUSH17 0x6673582212201CDE4E12B7298137132E35 0xFB 0xD3 0xD8 0xE3 DUP8 KECCAK256 PREVRANDAO PUSH11 0x38BB3286CEAE1621421DC6 0xB1 JUMPI PUSH5 0x736F6C6343 STOP ADDMOD SLT STOP CALLER "
		},
		"gasEstimates": {
			"creation": {
				"codeDepositCost": "3361200",
				"executionCost": "infinite",
				"totalCost": "infinite"
			},
			"external": {
				"approve(address,uint256)": "infinite",
				"assign81Tiles()": "infinite",
				"assignTile(uint256,uint256[3])": "infinite",
				"balanceOf(address)": "2949",
				"getApproved(uint256)": "7381",
				"getCurrentArt()": "infinite",
				"getSnapshotSvg(uint256)": "infinite",
				"isApprovedForAll(address,address)": "infinite",
				"mintOne()": "73429",
				"name()": "infinite",
				"ownerOf(uint256)": "infinite",
				"safeTransferFrom(address,address,uint256)": "infinite",
				"safeTransferFrom(address,address,uint256,bytes)": "infinite",
				"setApprovalForAll(address,bool)": "infinite",
				"snapshotCounter()": "2496",
				"snapshots(uint256)": "infinite",
				"supportsInterface(bytes4)": "745",
				"symbol()": "infinite",
				"takeSnapshot()": "infinite",
				"tokenURI(uint256)": "infinite",
				"totalSupply()": "4599",
				"transferFrom(address,address,uint256)": "infinite",
				"versionCounter()": "2539"
			},
			"internal": {
				"getCurrentStyles()": "infinite",
				"renderSvg(string memory)": "infinite"
			}
		},
		"methodIdentifiers": {
			"approve(address,uint256)": "095ea7b3",
			"assign81Tiles()": "3c1d7cb7",
			"assignTile(uint256,uint256[3])": "59af38d3",
			"balanceOf(address)": "70a08231",
			"getApproved(uint256)": "081812fc",
			"getCurrentArt()": "ad7fa0d3",
			"getSnapshotSvg(uint256)": "46a739df",
			"isApprovedForAll(address,address)": "e985e9c5",
			"mintOne()": "0ced8637",
			"name()": "06fdde03",
			"ownerOf(uint256)": "6352211e",
			"safeTransferFrom(address,address,uint256)": "42842e0e",
			"safeTransferFrom(address,address,uint256,bytes)": "b88d4fde",
			"setApprovalForAll(address,bool)": "a22cb465",
			"snapshotCounter()": "36f3a665",
			"snapshots(uint256)": "d6565a2d",
			"supportsInterface(bytes4)": "01ffc9a7",
			"symbol()": "95d89b41",
			"takeSnapshot()": "b3d3d37e",
			"tokenURI(uint256)": "c87b56dd",
			"totalSupply()": "18160ddd",
			"transferFrom(address,address,uint256)": "23b872dd",
			"versionCounter()": "dd6d30c1"
		}
	},
	"abi": [
		{
			"inputs": [],
			"stateMutability": "nonpayable",
			"type": "constructor"
		},
		{
			"inputs": [],
			"name": "ApprovalCallerNotOwnerNorApproved",
			"type": "error"
		},
		{
			"inputs": [],
			"name": "ApprovalQueryForNonexistentToken",
			"type": "error"
		},
		{
			"inputs": [],
			"name": "BalanceQueryForZeroAddress",
			"type": "error"
		},
		{
			"inputs": [],
			"name": "MintERC2309QuantityExceedsLimit",
			"type": "error"
		},
		{
			"inputs": [],
			"name": "MintToZeroAddress",
			"type": "error"
		},
		{
			"inputs": [],
			"name": "MintZeroQuantity",
			"type": "error"
		},
		{
			"inputs": [],
			"name": "OwnerQueryForNonexistentToken",
			"type": "error"
		},
		{
			"inputs": [],
			"name": "OwnershipNotInitializedForExtraData",
			"type": "error"
		},
		{
			"inputs": [],
			"name": "TransferCallerNotOwnerNorApproved",
			"type": "error"
		},
		{
			"inputs": [],
			"name": "TransferFromIncorrectOwner",
			"type": "error"
		},
		{
			"inputs": [],
			"name": "TransferToNonERC721ReceiverImplementer",
			"type": "error"
		},
		{
			"inputs": [],
			"name": "TransferToZeroAddress",
			"type": "error"
		},
		{
			"inputs": [],
			"name": "URIQueryForNonexistentToken",
			"type": "error"
		},
		{
			"anonymous": false,
			"inputs": [
				{
					"indexed": true,
					"internalType": "address",
					"name": "owner",
					"type": "address"
				},
				{
					"indexed": true,
					"internalType": "address",
					"name": "approved",
					"type": "address"
				},
				{
					"indexed": true,
					"internalType": "uint256",
					"name": "tokenId",
					"type": "uint256"
				}
			],
			"name": "Approval",
			"type": "event"
		},
		{
			"anonymous": false,
			"inputs": [
				{
					"indexed": true,
					"internalType": "address",
					"name": "owner",
					"type": "address"
				},
				{
					"indexed": true,
					"internalType": "address",
					"name": "operator",
					"type": "address"
				},
				{
					"indexed": false,
					"internalType": "bool",
					"name": "approved",
					"type": "bool"
				}
			],
			"name": "ApprovalForAll",
			"type": "event"
		},
		{
			"anonymous": false,
			"inputs": [
				{
					"indexed": true,
					"internalType": "uint256",
					"name": "fromTokenId",
					"type": "uint256"
				},
				{
					"indexed": false,
					"internalType": "uint256",
					"name": "toTokenId",
					"type": "uint256"
				},
				{
					"indexed": true,
					"internalType": "address",
					"name": "from",
					"type": "address"
				},
				{
					"indexed": true,
					"internalType": "address",
					"name": "to",
					"type": "address"
				}
			],
			"name": "ConsecutiveTransfer",
			"type": "event"
		},
		{
			"anonymous": false,
			"inputs": [
				{
					"indexed": true,
					"internalType": "address",
					"name": "from",
					"type": "address"
				},
				{
					"indexed": true,
					"internalType": "address",
					"name": "to",
					"type": "address"
				},
				{
					"indexed": true,
					"internalType": "uint256",
					"name": "tokenId",
					"type": "uint256"
				}
			],
			"name": "Transfer",
			"type": "event"
		},
		{
			"inputs": [
				{
					"internalType": "address",
					"name": "to",
					"type": "address"
				},
				{
					"internalType": "uint256",
					"name": "tokenId",
					"type": "uint256"
				}
			],
			"name": "approve",
			"outputs": [],
			"stateMutability": "payable",
			"type": "function"
		},
		{
			"inputs": [],
			"name": "assign81Tiles",
			"outputs": [],
			"stateMutability": "nonpayable",
			"type": "function"
		},
		{
			"inputs": [
				{
					"internalType": "uint256",
					"name": "tileId",
					"type": "uint256"
				},
				{
					"internalType": "uint256[3]",
					"name": "colors",
					"type": "uint256[3]"
				}
			],
			"name": "assignTile",
			"outputs": [],
			"stateMutability": "nonpayable",
			"type": "function"
		},
		{
			"inputs": [
				{
					"internalType": "address",
					"name": "owner",
					"type": "address"
				}
			],
			"name": "balanceOf",
			"outputs": [
				{
					"internalType": "uint256",
					"name": "",
					"type": "uint256"
				}
			],
			"stateMutability": "view",
			"type": "function"
		},
		{
			"inputs": [
				{
					"internalType": "uint256",
					"name": "tokenId",
					"type": "uint256"
				}
			],
			"name": "getApproved",
			"outputs": [
				{
					"internalType": "address",
					"name": "",
					"type": "address"
				}
			],
			"stateMutability": "view",
			"type": "function"
		},
		{
			"inputs": [],
			"name": "getCurrentArt",
			"outputs": [
				{
					"internalType": "string",
					"name": "",
					"type": "string"
				}
			],
			"stateMutability": "view",
			"type": "function"
		},
		{
			"inputs": [
				{
					"internalType": "uint256",
					"name": "snapId",
					"type": "uint256"
				}
			],
			"name": "getSnapshotSvg",
			"outputs": [
				{
					"internalType": "string",
					"name": "",
					"type": "string"
				}
			],
			"stateMutability": "view",
			"type": "function"
		},
		{
			"inputs": [
				{
					"internalType": "address",
					"name": "owner",
					"type": "address"
				},
				{
					"internalType": "address",
					"name": "operator",
					"type": "address"
				}
			],
			"name": "isApprovedForAll",
			"outputs": [
				{
					"internalType": "bool",
					"name": "",
					"type": "bool"
				}
			],
			"stateMutability": "view",
			"type": "function"
		},
		{
			"inputs": [],
			"name": "mintOne",
			"outputs": [],
			"stateMutability": "nonpayable",
			"type": "function"
		},
		{
			"inputs": [],
			"name": "name",
			"outputs": [
				{
					"internalType": "string",
					"name": "",
					"type": "string"
				}
			],
			"stateMutability": "view",
			"type": "function"
		},
		{
			"inputs": [
				{
					"internalType": "uint256",
					"name": "tokenId",
					"type": "uint256"
				}
			],
			"name": "ownerOf",
			"outputs": [
				{
					"internalType": "address",
					"name": "",
					"type": "address"
				}
			],
			"stateMutability": "view",
			"type": "function"
		},
		{
			"inputs": [
				{
					"internalType": "address",
					"name": "from",
					"type": "address"
				},
				{
					"internalType": "address",
					"name": "to",
					"type": "address"
				},
				{
					"internalType": "uint256",
					"name": "tokenId",
					"type": "uint256"
				}
			],
			"name": "safeTransferFrom",
			"outputs": [],
			"stateMutability": "payable",
			"type": "function"
		},
		{
			"inputs": [
				{
					"internalType": "address",
					"name": "from",
					"type": "address"
				},
				{
					"internalType": "address",
					"name": "to",
					"type": "address"
				},
				{
					"internalType": "uint256",
					"name": "tokenId",
					"type": "uint256"
				},
				{
					"internalType": "bytes",
					"name": "_data",
					"type": "bytes"
				}
			],
			"name": "safeTransferFrom",
			"outputs": [],
			"stateMutability": "payable",
			"type": "function"
		},
		{
			"inputs": [
				{
					"internalType": "address",
					"name": "operator",
					"type": "address"
				},
				{
					"internalType": "bool",
					"name": "approved",
					"type": "bool"
				}
			],
			"name": "setApprovalForAll",
			"outputs": [],
			"stateMutability": "nonpayable",
			"type": "function"
		},
		{
			"inputs": [],
			"name": "snapshotCounter",
			"outputs": [
				{
					"internalType": "uint256",
					"name": "",
					"type": "uint256"
				}
			],
			"stateMutability": "view",
			"type": "function"
		},
		{
			"inputs": [
				{
					"internalType": "uint256",
					"name": "",
					"type": "uint256"
				}
			],
			"name": "snapshots",
			"outputs": [
				{
					"internalType": "address",
					"name": "initiator",
					"type": "address"
				},
				{
					"internalType": "uint256",
					"name": "artVersion",
					"type": "uint256"
				},
				{
					"internalType": "uint256",
					"name": "timestamp",
					"type": "uint256"
				},
				{
					"internalType": "string",
					"name": "canvasStyles",
					"type": "string"
				}
			],
			"stateMutability": "view",
			"type": "function"
		},
		{
			"inputs": [
				{
					"internalType": "bytes4",
					"name": "interfaceId",
					"type": "bytes4"
				}
			],
			"name": "supportsInterface",
			"outputs": [
				{
					"internalType": "bool",
					"name": "",
					"type": "bool"
				}
			],
			"stateMutability": "view",
			"type": "function"
		},
		{
			"inputs": [],
			"name": "symbol",
			"outputs": [
				{
					"internalType": "string",
					"name": "",
					"type": "string"
				}
			],
			"stateMutability": "view",
			"type": "function"
		},
		{
			"inputs": [],
			"name": "takeSnapshot",
			"outputs": [],
			"stateMutability": "nonpayable",
			"type": "function"
		},
		{
			"inputs": [
				{
					"internalType": "uint256",
					"name": "tokenId",
					"type": "uint256"
				}
			],
			"name": "tokenURI",
			"outputs": [
				{
					"internalType": "string",
					"name": "result",
					"type": "string"
				}
			],
			"stateMutability": "view",
			"type": "function"
		},
		{
			"inputs": [],
			"name": "totalSupply",
			"outputs": [
				{
					"internalType": "uint256",
					"name": "",
					"type": "uint256"
				}
			],
			"stateMutability": "view",
			"type": "function"
		},
		{
			"inputs": [
				{
					"internalType": "address",
					"name": "from",
					"type": "address"
				},
				{
					"internalType": "address",
					"name": "to",
					"type": "address"
				},
				{
					"internalType": "uint256",
					"name": "tokenId",
					"type": "uint256"
				}
			],
			"name": "transferFrom",
			"outputs": [],
			"stateMutability": "payable",
			"type": "function"
		},
		{
			"inputs": [],
			"name": "versionCounter",
			"outputs": [
				{
					"internalType": "uint256",
					"name": "",
					"type": "uint256"
				}
			],
			"stateMutability": "view",
			"type": "function"
		}
	]
}