{
	"data": {
		"bytecode": {
			"linkReferences": {},
			"object": "608060405260006009556000600a60006101000a81548160ff0219169083151502179055503480156200003157600080fd5b506040518060400160405280600581526020017f55494e54530000000000000000000000000000000000000000000000000000008152506040518060400160405280600581526020017f55494e54530000000000000000000000000000000000000000000000000000008152508160029081620000af919062000451565b508060039081620000c1919062000451565b50620000d26200010060201b60201c565b6000819055505050620000fa620000ee6200010960201b60201c565b6200011160201b60201c565b62000538565b60006001905090565b600033905090565b6000600860009054906101000a900473ffffffffffffffffffffffffffffffffffffffff16905081600860006101000a81548173ffffffffffffffffffffffffffffffffffffffff021916908373ffffffffffffffffffffffffffffffffffffffff1602179055508173ffffffffffffffffffffffffffffffffffffffff168173ffffffffffffffffffffffffffffffffffffffff167f8be0079c531659141344cd1fd0a4f28419497f9722a3daafe3b4186f6b6457e060405160405180910390a35050565b600081519050919050565b7f4e487b7100000000000000000000000000000000000000000000000000000000600052604160045260246000fd5b7f4e487b7100000000000000000000000000000000000000000000000000000000600052602260045260246000fd5b600060028204905060018216806200025957607f821691505b6020821081036200026f576200026e62000211565b5b50919050565b60008190508160005260206000209050919050565b60006020601f8301049050919050565b600082821b905092915050565b600060088302620002d97fffffffffffffffffffffffffffffffffffffffffffffffffffffffffffffffff826200029a565b620002e586836200029a565b95508019841693508086168417925050509392505050565b6000819050919050565b6000819050919050565b6000620003326200032c6200032684620002fd565b62000307565b620002fd565b9050919050565b6000819050919050565b6200034e8362000311565b620003666200035d8262000339565b848454620002a7565b825550505050565b600090565b6200037d6200036e565b6200038a81848462000343565b505050565b5b81811015620003b257620003a660008262000373565b60018101905062000390565b5050565b601f8211156200040157620003cb8162000275565b620003d6846200028a565b81016020851015620003e6578190505b620003fe620003f5856200028a565b8301826200038f565b50505b505050565b600082821c905092915050565b6000620004266000198460080262000406565b1980831691505092915050565b600062000441838362000413565b9150826002028217905092915050565b6200045c82620001d7565b67ffffffffffffffff811115620004785762000477620001e2565b5b62000484825462000240565b62000491828285620003b6565b600060209050601f831160018114620004c95760008415620004b4578287015190505b620004c0858262000433565b86555062000530565b601f198416620004d98662000275565b60005b828110156200050357848901518255600182019150602085019450602081019050620004dc565b868310156200052357848901516200051f601f89168262000413565b8355505b6001600288020188555050505b505050505050565b615f6c80620005486000396000f3fe6080604052600436106101cd5760003560e01c80637c928fe9116100f7578063a6c56c7911610095578063d1d18f5011610064578063d1d18f501461060f578063d8c718a81461064c578063e985e9c514610675578063f2fde38b146106b2576101cd565b8063a6c56c7914610574578063b88d4fde1461059f578063b8be6e98146105bb578063c87b56dd146105d2576101cd565b80639659867e116100d15780639659867e146104d9578063a035b1fe14610504578063a0712d681461052f578063a22cb4651461054b576101cd565b80637c928fe91461045a5780638da5cb5b1461048357806395d89b41146104ae576101cd565b806323b872dd1161016f57806342842e0e1161013e57806342842e0e146103ad5780636352211e146103c957806370a0823114610406578063715018a614610443576101cd565b806323b872dd1461032657806325e514c61461034257806337c5fa0d1461036b5780633ccfd60b14610396576101cd565b8063095ea7b3116101ab578063095ea7b3146102775780630ff4c9161461029357806318160ddd146102d057806321cf7ecf146102fb576101cd565b806301ffc9a7146101d257806306fdde031461020f578063081812fc1461023a575b600080fd5b3480156101de57600080fd5b506101f960048036038101906101f491906132e6565b6106db565b604051610206919061332e565b60405180910390f35b34801561021b57600080fd5b5061022461076d565b60405161023191906133d9565b60405180910390f35b34801561024657600080fd5b50610261600480360381019061025c9190613431565b6107ff565b60405161026e919061349f565b60405180910390f35b610291600480360381019061028c91906134e6565b61087e565b005b34801561029f57600080fd5b506102ba60048036038101906102b59190613431565b6109c2565b6040516102c79190613535565b60405180910390f35b3480156102dc57600080fd5b506102e5610a22565b6040516102f29190613535565b60405180910390f35b34801561030757600080fd5b50610310610a39565b60405161031d9190613535565b60405180910390f35b610340600480360381019061033b9190613550565b610a3f565b005b34801561034e57600080fd5b50610369600480360381019061036491906136eb565b610d61565b005b34801561037757600080fd5b506103806110bb565b60405161038d919061332e565b60405180910390f35b3480156103a257600080fd5b506103ab6110ce565b005b6103c760048036038101906103c29190613550565b611116565b005b3480156103d557600080fd5b506103f060048036038101906103eb9190613431565b611136565b6040516103fd919061349f565b60405180910390f35b34801561041257600080fd5b5061042d60048036038101906104289190613734565b611148565b60405161043a9190613535565b60405180910390f35b34801561044f57600080fd5b50610458611200565b005b34801561046657600080fd5b50610481600480360381019061047c9190613431565b611214565b005b34801561048f57600080fd5b506104986112f9565b6040516104a5919061349f565b60405180910390f35b3480156104ba57600080fd5b506104c3611323565b6040516104d091906133d9565b60405180910390f35b3480156104e557600080fd5b506104ee6113b5565b6040516104fb9190613535565b60405180910390f35b34801561051057600080fd5b506105196113c4565b6040516105269190613535565b60405180910390f35b61054960048036038101906105449190613431565b6113ca565b005b34801561055757600080fd5b50610572600480360381019061056d919061378d565b611427565b005b34801561058057600080fd5b50610589611532565b6040516105969190613535565b60405180910390f35b6105b960048036038101906105b49190613882565b611544565b005b3480156105c757600080fd5b506105d06115b7565b005b3480156105de57600080fd5b506105f960048036038101906105f49190613431565b6115eb565b60405161060691906133d9565b60405180910390f35b34801561061b57600080fd5b5061063660048036038101906106319190613734565b61169f565b6040516106439190613535565b60405180910390f35b34801561065857600080fd5b50610673600480360381019061066e9190613960565b6116e8565b005b34801561068157600080fd5b5061069c600480360381019061069791906139c0565b611782565b6040516106a9919061332e565b60405180910390f35b3480156106be57600080fd5b506106d960048036038101906106d49190613734565b611816565b005b60006301ffc9a760e01b827bffffffffffffffffffffffffffffffffffffffffffffffffffffffff1916148061073657506380ac58cd60e01b827bffffffffffffffffffffffffffffffffffffffffffffffffffffffff1916145b806107665750635b5e139f60e01b827bffffffffffffffffffffffffffffffffffffffffffffffffffffffff1916145b9050919050565b60606002805461077c90613a2f565b80601f01602080910402602001604051908101604052809291908181526020018280546107a890613a2f565b80156107f55780601f106107ca576101008083540402835291602001916107f5565b820191906000526020600020905b8154815290600101906020018083116107d857829003601f168201915b5050505050905090565b600061080a82611899565b610840576040517fcf4700e400000000000000000000000000000000000000000000000000000000815260040160405180910390fd5b6006600083815260200190815260200160002060000160009054906101000a900473ffffffffffffffffffffffffffffffffffffffff169050919050565b600061088982611136565b90508073ffffffffffffffffffffffffffffffffffffffff166108aa6118f8565b73ffffffffffffffffffffffffffffffffffffffff161461090d576108d6816108d16118f8565b611782565b61090c576040517fcfb3b94200000000000000000000000000000000000000000000000000000000815260040160405180910390fd5b5b826006600084815260200190815260200160002060000160006101000a81548173ffffffffffffffffffffffffffffffffffffffff021916908373ffffffffffffffffffffffffffffffffffffffff160217905550818373ffffffffffffffffffffffffffffffffffffffff168273ffffffffffffffffffffffffffffffffffffffff167f8c5be1e5ebec7d5bd14f71427d1e84f3dd0314c0f7b2291e5b200ac8c7c3b92560405160405180910390a4505050565b60006109cd82611899565b6109da5760009050610a1d565b6000600c6000848152602001908152602001600020541115610a1157600c6000838152602001908152602001600020549050610a1d565b610a1a82611900565b90505b919050565b6000610a2c611a41565b6001546000540303905090565b600b5481565b6000610a4a82611a4a565b90508373ffffffffffffffffffffffffffffffffffffffff168173ffffffffffffffffffffffffffffffffffffffff1614610ab1576040517fa114810000000000000000000000000000000000000000000000000000000000815260040160405180910390fd5b600080610abd84611b16565b91509150610ad38187610ace6118f8565b611b3d565b610b1f57610ae886610ae36118f8565b611782565b610b1e576040517f59c896be00000000000000000000000000000000000000000000000000000000815260040160405180910390fd5b5b600073ffffffffffffffffffffffffffffffffffffffff168573ffffffffffffffffffffffffffffffffffffffff1603610b85576040517fea553b3400000000000000000000000000000000000000000000000000000000815260040160405180910390fd5b610b928686866001611b81565b8015610b9d57600082555b600560008773ffffffffffffffffffffffffffffffffffffffff1673ffffffffffffffffffffffffffffffffffffffff168152602001908152602001600020600081546001900391905081905550600560008673ffffffffffffffffffffffffffffffffffffffff1673ffffffffffffffffffffffffffffffffffffffff1681526020019081526020016000206000815460010191905081905550610c6b85610c47888887611b87565b7c020000000000000000000000000000000000000000000000000000000017611baf565b600460008681526020019081526020016000208190555060007c0200000000000000000000000000000000000000000000000000000000841603610cf15760006001850190506000600460008381526020019081526020016000205403610cef576000548114610cee578360046000838152602001908152602001600020819055505b5b505b838573ffffffffffffffffffffffffffffffffffffffff168773ffffffffffffffffffffffffffffffffffffffff167fddf252ad1be2c89b69c2b068fc378daa952ba7f163c4a11628f55a4df523b3ef60405160405180910390a4610d598686866001611bda565b505050505050565b600a60009054906101000a900460ff16610db0576040517f08c379a0000000000000000000000000000000000000000000000000000000008152600401610da790613aac565b60405180910390fd5b600080600090505b8251811015610e94573373ffffffffffffffffffffffffffffffffffffffff16610dfb848381518110610dee57610ded613acc565b5b6020026020010151611136565b73ffffffffffffffffffffffffffffffffffffffff1614610e51576040517f08c379a0000000000000000000000000000000000000000000000000000000008152600401610e4890613b47565b60405180910390fd5b610e74838281518110610e6757610e66613acc565b5b60200260200101516109c2565b82610e7f9190613b96565b91508080610e8c90613bca565b915050610db8565b5061270f811115610eda576040517f08c379a0000000000000000000000000000000000000000000000000000000008152600401610ed190613c5e565b60405180910390fd5b6000600190505b8251811015610fd757610f0d838281518110610f0057610eff613acc565b5b6020026020010151611be0565b6000600c6000858481518110610f2657610f25613acc565b5b60200260200101518152602001908152602001600020819055506000600d6000858481518110610f5957610f58613acc565b5b60200260200101518152602001908152602001600020819055507ff8e1a15aba9398e019f0b49df1a4fde98ee17ae345cb5f6b5e2c27f5033e8ce7838281518110610fa757610fa6613acc565b5b6020026020010151604051610fbc9190613535565b60405180910390a18080610fcf90613bca565b915050610ee1565b5080600c600084600081518110610ff157610ff0613acc565b5b60200260200101518152602001908152602001600020819055506110338260008151811061102257611021613acc565b5b602002602001015160016004611bee565b600d60008460008151811061104b5761104a613acc565b5b60200260200101518152602001908152602001600020819055507ff8e1a15aba9398e019f0b49df1a4fde98ee17ae345cb5f6b5e2c27f5033e8ce78260008151811061109a57611099613acc565b5b60200260200101516040516110af9190613535565b60405180910390a15050565b600a60009054906101000a900460ff1681565b6110d6611c62565b3373ffffffffffffffffffffffffffffffffffffffff166108fc479081150290604051600060405180830381858888f1935050505061111457600080fd5b565b61113183838360405180602001604052806000815250611544565b505050565b600061114182611a4a565b9050919050565b60008073ffffffffffffffffffffffffffffffffffffffff168273ffffffffffffffffffffffffffffffffffffffff16036111af576040517f8f4eb60400000000000000000000000000000000000000000000000000000000815260040160405180910390fd5b67ffffffffffffffff600560008473ffffffffffffffffffffffffffffffffffffffff1673ffffffffffffffffffffffffffffffffffffffff16815260200190815260200160002054169050919050565b611208611c62565b6112126000611ce0565b565b600e60003373ffffffffffffffffffffffffffffffffffffffff1673ffffffffffffffffffffffffffffffffffffffff16815260200190815260200160002054811115611296576040517f08c379a000000000000000000000000000000000000000000000000000000000815260040161128d90613cca565b60405180910390fd5b6112a03382611da6565b80600e60003373ffffffffffffffffffffffffffffffffffffffff1673ffffffffffffffffffffffffffffffffffffffff16815260200190815260200160002060008282546112ef9190613cea565b9250508190555050565b6000600860009054906101000a900473ffffffffffffffffffffffffffffffffffffffff16905090565b60606003805461133290613a2f565b80601f016020809104026020016040519081016040528092919081815260200182805461135e90613a2f565b80156113ab5780601f10611380576101008083540402835291602001916113ab565b820191906000526020600020905b81548152906001019060200180831161138e57829003601f168201915b5050505050905090565b60006113bf611ef2565b905090565b60095481565b600954816113d89190613d1e565b34101561141a576040517f08c379a000000000000000000000000000000000000000000000000000000000815260040161141190613dac565b60405180910390fd5b6114243382611da6565b50565b80600760006114346118f8565b73ffffffffffffffffffffffffffffffffffffffff1673ffffffffffffffffffffffffffffffffffffffff16815260200190815260200160002060008473ffffffffffffffffffffffffffffffffffffffff1673ffffffffffffffffffffffffffffffffffffffff16815260200190815260200160002060006101000a81548160ff0219169083151502179055508173ffffffffffffffffffffffffffffffffffffffff166114e16118f8565b73ffffffffffffffffffffffffffffffffffffffff167f17307eab39ab6107e8899845ad3d59bd9653f200f220920489ca2b5937696c3183604051611526919061332e565b60405180910390a35050565b600061153f600b54611f05565b905090565b61154f848484610a3f565b60008373ffffffffffffffffffffffffffffffffffffffff163b146115b15761157a84848484611f40565b6115b0576040517fd1a57ed600000000000000000000000000000000000000000000000000000000815260040160405180910390fd5b5b50505050565b6115bf611c62565b600a60009054906101000a900460ff1615600a60006101000a81548160ff021916908315150217905550565b60606000806000600c600086815260200190815260200160002054111561162b57600c600085815260200190815260200160002054905060009150611677565b6000600c600086815260200190815260200160002054148015611654575061165284611899565b155b15611666576000905060019150611676565b61166f84611900565b9050600091505b5b6116968482600d60008881526020019081526020016000205485612090565b92505050919050565b6000600e60008373ffffffffffffffffffffffffffffffffffffffff1673ffffffffffffffffffffffffffffffffffffffff168152602001908152602001600020549050919050565b6116f0611c62565b60005b8383905081101561177c5781600e600086868581811061171657611715613acc565b5b905060200201602081019061172b9190613734565b73ffffffffffffffffffffffffffffffffffffffff1673ffffffffffffffffffffffffffffffffffffffff16815260200190815260200160002081905550808061177490613bca565b9150506116f3565b50505050565b6000600760008473ffffffffffffffffffffffffffffffffffffffff1673ffffffffffffffffffffffffffffffffffffffff16815260200190815260200160002060008373ffffffffffffffffffffffffffffffffffffffff1673ffffffffffffffffffffffffffffffffffffffff16815260200190815260200160002060009054906101000a900460ff16905092915050565b61181e611c62565b600073ffffffffffffffffffffffffffffffffffffffff168173ffffffffffffffffffffffffffffffffffffffff160361188d576040517f08c379a000000000000000000000000000000000000000000000000000000000815260040161188490613e3e565b60405180910390fd5b61189681611ce0565b50565b6000816118a4611a41565b111580156118b3575060005482105b80156118f1575060007c0100000000000000000000000000000000000000000000000000000000600460008581526020019081526020016000205416145b9050919050565b600033905090565b60006103e8821015611920576119198260016033611bee565b9050611a3c565b6107d082101561193e57611937826001602e611bee565b9050611a3b565b610bb882101561195c576119558260016029611bee565b9050611a3a565b610fa082101561197a576119738260016024611bee565b9050611a39565b61138882101561199857611991826001601f611bee565b9050611a38565b6117708210156119b6576119af826001601a611bee565b9050611a37565b611b588210156119d4576119cd8260016015611bee565b9050611a36565b611f408210156119f2576119eb8260016010611bee565b9050611a35565b612328821015611a1057611a09826001600b611bee565b9050611a34565b612710821015611a2e57611a278260016006611bee565b9050611a33565b600190505b5b5b5b5b5b5b5b5b5b919050565b60006001905090565b60008082905080611a59611a41565b11611adf57600054811015611ade5760006004600083815260200190815260200160002054905060007c0100000000000000000000000000000000000000000000000000000000821603611adc575b60008103611ad2576004600083600190039350838152602001908152602001600020549050611aa8565b8092505050611b11565b505b5b6040517fdf2d9b4200000000000000000000000000000000000000000000000000000000815260040160405180910390fd5b919050565b60008060006006600085815260200190815260200160002090508092508254915050915091565b600073ffffffffffffffffffffffffffffffffffffffff8316925073ffffffffffffffffffffffffffffffffffffffff821691508382148383141790509392505050565b50505050565b60008060e883901c905060e8611b9e8686846121e8565b62ffffff16901b9150509392505050565b600073ffffffffffffffffffffffffffffffffffffffff83169250814260a01b178317905092915050565b50505050565b611beb8160006121f1565b50565b6000808383611bfd9190613cea565b90506001816107e787611c109190613b96565b604051602001611c209190613e7f565b6040516020818303038152906040528051906020012060001c611c439190613ec9565b84611c4e9190613cea565b611c589190613cea565b9150509392505050565b611c6a612443565b73ffffffffffffffffffffffffffffffffffffffff16611c886112f9565b73ffffffffffffffffffffffffffffffffffffffff1614611cde576040517f08c379a0000000000000000000000000000000000000000000000000000000008152600401611cd590613f46565b60405180910390fd5b565b6000600860009054906101000a900473ffffffffffffffffffffffffffffffffffffffff16905081600860006101000a81548173ffffffffffffffffffffffffffffffffffffffff021916908373ffffffffffffffffffffffffffffffffffffffff1602179055508173ffffffffffffffffffffffffffffffffffffffff168173ffffffffffffffffffffffffffffffffffffffff167f8be0079c531659141344cd1fd0a4f28419497f9722a3daafe3b4186f6b6457e060405160405180910390a35050565b6000611db0611ef2565b90506103e88110611e7f576000611dc8600b5461244b565b11611e08576040517f08c379a0000000000000000000000000000000000000000000000000000000008152600401611dff90613fb2565b60405180910390fd5b61138881108015611e2657506113888282611e239190613b96565b10155b15611e7a576201518042611e3a9190613b96565b600b819055507ff5b316bf09d21e0058eb23be118a6b81bd52674b4cb843e0f446b986ce22433e600b54604051611e719190613535565b60405180910390a15b611ee3565b6103e88282611e8e9190613b96565b10611ee2576201518042611ea29190613b96565b600b819055507ff5b316bf09d21e0058eb23be118a6b81bd52674b4cb843e0f446b986ce22433e600b54604051611ed99190613535565b60405180910390a15b5b611eed8383612471565b505050565b6000611efc611a41565b60005403905090565b6000603c611f128361244b565b10611f3657603c4283611f259190613cea565b611f2f9190613fd2565b9050611f3b565b600090505b919050565b60008373ffffffffffffffffffffffffffffffffffffffff1663150b7a02611f666118f8565b8786866040518563ffffffff1660e01b8152600401611f889493929190614058565b6020604051808303816000875af1925050508015611fc457506040513d601f19601f82011682018060405250810190611fc191906140b9565b60015b61203d573d8060008114611ff4576040519150601f19603f3d011682016040523d82523d6000602084013e611ff9565b606091505b506000815103612035576040517fd1a57ed600000000000000000000000000000000000000000000000000000000815260040160405180910390fd5b805181602001fd5b63150b7a0260e01b7bffffffffffffffffffffffffffffffffffffffffffffffffffffffff1916817bffffffffffffffffffffffffffffffffffffffffffffffffffffffff191614915050949350505050565b6060600061209e868561262c565b9050606083156120ea576120b187612713565b6120c36120be888561289b565b612bbd565b6040516020016120d492919061429e565b60405160208183030381529060405290506121b4565b6120f387612713565b6120fc87612713565b61210d6121088a612d20565b612713565b61211688612d51565b6121378660006003811061212d5761212c613acc565b5b6020020151612713565b6121588760016003811061214e5761214d613acc565b5b6020020151612713565b6121798860026003811061216f5761216e613acc565b5b6020020151612713565b61218b6121868e8b61289b565b612bbd565b6040516020016121a2989796959493929190614601565b60405160208183030381529060405290505b6121bd81612bbd565b6040516020016121cd9190614722565b60405160208183030381529060405292505050949350505050565b60009392505050565b60006121fc83611a4a565b9050600081905060008061220f86611b16565b9150915084156122785761222b81846122266118f8565b611b3d565b612277576122408361223b6118f8565b611782565b612276576040517f59c896be00000000000000000000000000000000000000000000000000000000815260040160405180910390fd5b5b5b612286836000886001611b81565b801561229157600082555b600160806001901b03600560008573ffffffffffffffffffffffffffffffffffffffff1673ffffffffffffffffffffffffffffffffffffffff16815260200190815260200160002060008282540192505081905550612339836122f685600088611b87565b7c02000000000000000000000000000000000000000000000000000000007c01000000000000000000000000000000000000000000000000000000001717611baf565b600460008881526020019081526020016000208190555060007c02000000000000000000000000000000000000000000000000000000008516036123bf57600060018701905060006004600083815260200190815260200160002054036123bd5760005481146123bc578460046000838152602001908152602001600020819055505b5b505b85600073ffffffffffffffffffffffffffffffffffffffff168473ffffffffffffffffffffffffffffffffffffffff167fddf252ad1be2c89b69c2b068fc378daa952ba7f163c4a11628f55a4df523b3ef60405160405180910390a4612429836000886001611bda565b600160008154809291906001019190505550505050505050565b600033905090565b60008142116124675742826124609190613cea565b905061246c565b600090505b919050565b600080549050600082036124b1576040517fb562e8dd00000000000000000000000000000000000000000000000000000000815260040160405180910390fd5b6124be6000848385611b81565b600160406001901b178202600560008573ffffffffffffffffffffffffffffffffffffffff1673ffffffffffffffffffffffffffffffffffffffff16815260200190815260200160002060008282540192505081905550612535836125266000866000611b87565b61252f85612e6c565b17611baf565b6004600083815260200190815260200160002081905550600080838301905073ffffffffffffffffffffffffffffffffffffffff85169150828260007fddf252ad1be2c89b69c2b068fc378daa952ba7f163c4a11628f55a4df523b3ef600080a4600183015b8181146125d657808360007fddf252ad1be2c89b69c2b068fc378daa952ba7f163c4a11628f55a4df523b3ef600080a460018101905061259b565b5060008203612611576040517f2e07630000000000000000000000000000000000000000000000000000000000815260040160405180910390fd5b8060008190555050506126276000848385611bda565b505050565b612634613230565b60008211156126ce5760005b60038110156126c8576001816126569190613b96565b830361267f5760ff82826003811061267157612670613acc565b5b6020020181815250506126b5565b612698818561268e9190613b96565b6000610100611bee565b8282600381106126ab576126aa613acc565b5b6020020181815250505b80806126c090613bca565b915050612640565b5061270d565b60005b600381101561270b5760ff8282600381106126ef576126ee613acc565b5b602002018181525050808061270390613bca565b9150506126d1565b505b92915050565b60606000820361275a576040518060400160405280600181526020017f30000000000000000000000000000000000000000000000000000000000000008152509050612896565b600082905060005b6000821461278c57808061277590613bca565b915050600a826127859190613fd2565b9150612762565b60008167ffffffffffffffff8111156127a8576127a76135a8565b5b6040519080825280601f01601f1916602001820160405280156127da5781602001600182028036833780820191505090505b50905060008290505b6000861461288e576001816127f89190613cea565b90506000600a808861280a9190613fd2565b6128149190613d1e565b8761281f9190613cea565b603061282b9190614751565b905060008160f81b90508084848151811061284957612848613acc565b5b60200101907effffffffffffffffffffffffffffffffffffffffffffffffffffffffffffff1916908160001a905350600a886128859190613fd2565b975050506127e3565b819450505050505b919050565b606060405180610c400160405280610c19815260200161531e610c199139905060006128de836000600381106128d4576128d3613acc565b5b6020020151612713565b6128ff846001600381106128f5576128f4613acc565b5b6020020151612713565b6129208560026003811061291657612915613acc565b5b6020020151612713565b6040516020016129329392919061481e565b60405160208183030381529060405290506000840315612b9257600061295785612713565b51905060006129668683612e7c565b9050600182036129a7578261298060038360600151612fb3565b60405160200161299192919061487b565b6040516020818303038152906040529250612b8f565b60028203612a1857826129bf60028360400151612fb3565b6040516020016129d092919061487b565b6040516020818303038152906040529250826129f160038360600151612fb3565b604051602001612a0292919061487b565b6040516020818303038152906040529250612b8e565b60038203612abb5782612a3060018360200151612fb3565b604051602001612a4192919061487b565b604051602081830303815290604052925082612a6260028360400151612fb3565b604051602001612a7392919061487b565b604051602081830303815290604052925082612a9460038360600151612fb3565b604051602001612aa592919061487b565b6040516020818303038152906040529250612b8d565b60048203612b8c5782612ad360008360000151612fb3565b604051602001612ae492919061487b565b604051602081830303815290604052925082612b0560018360200151612fb3565b604051602001612b1692919061487b565b604051602081830303815290604052925082612b3760028360400151612fb3565b604051602001612b4892919061487b565b604051602081830303815290604052925082612b6960038360600151612fb3565b604051602001612b7a92919061487b565b60405160208183030381529060405292505b5b5b5b50505b8181604051602001612ba59291906148eb565b60405160208183030381529060405291505092915050565b60606000825103612bdf57604051806020016040528060008152509050612d1b565b60006040518060600160405280604081526020016152de6040913990506000600360028551612c0e9190613b96565b612c189190613fd2565b6004612c249190613d1e565b67ffffffffffffffff811115612c3d57612c3c6135a8565b5b6040519080825280601f01601f191660200182016040528015612c6f5781602001600182028036833780820191505090505b509050600182016020820185865187015b80821015612cdb576003820191508151603f8160121c168501518453600184019350603f81600c1c168501518453600184019350603f8160061c168501518453600184019350603f8116850151845360018401935050612c80565b5050600386510660018114612cf75760028114612d0a57612d12565b603d6001830353603d6002830353612d12565b603d60018303535b50505080925050505b919050565b60006103e88211612d345760019050612d4c565b6113888211612d465760029050612d4b565b600390505b5b919050565b6060600060405180608001604052806040518060400160405280600581526020017f576869746500000000000000000000000000000000000000000000000000000081525081526020016040518060400160405280600381526020017f526564000000000000000000000000000000000000000000000000000000000081525081526020016040518060400160405280600581526020017f477265656e00000000000000000000000000000000000000000000000000000081525081526020016040518060400160405280600481526020017f426c7565000000000000000000000000000000000000000000000000000000008152508152509050808360048110612e5f57612e5e613acc565b5b6020020151915050919050565b60006001821460e11b9050919050565b612e84613252565b60018203612e9b5782816060018181525050612fad565b60028203612ed457600a83612eb09190613fd2565b816040018181525050600a83612ec69190613ec9565b816060018181525050612fac565b60038203612f2f57606483612ee99190613fd2565b816020018181525050600a606484612f019190613ec9565b612f0b9190613fd2565b816040018181525050600a83612f219190613ec9565b816060018181525050612fab565b60048203612faa576103e883612f459190613fd2565b81600001818152505060646103e884612f5e9190613ec9565b612f689190613fd2565b816020018181525050600a606484612f809190613ec9565b612f8a9190613fd2565b816040018181525050600a83612fa09190613ec9565b8160600181815250505b5b5b5b92915050565b60606000612fc084612713565b905060008303612ffc57808182838485604051602001612fe596959493929190614b2e565b60405160208183030381529060405291505061322a565b6001830361302e578081604051602001613017929190614c56565b60405160208183030381529060405291505061322a565b6002830361306657808182838460405160200161304f959493929190614cf2565b60405160208183030381529060405291505061322a565b6003830361309e578081828384604051602001613087959493929190614dab565b60405160208183030381529060405291505061322a565b600483036130d457808182836040516020016130bd9493929190614e64565b60405160208183030381529060405291505061322a565b6005830361310c5780818283846040516020016130f5959493929190614efa565b60405160208183030381529060405291505061322a565b600683036131465780818283848560405160200161312f96959493929190614fb3565b60405160208183030381529060405291505061322a565b6007830361317a578081826040516020016131639392919061508f565b60405160208183030381529060405291505061322a565b600883036131b6578081828384858660405160200161319f9796959493929190615102565b60405160208183030381529060405291505061322a565b600983036131f0578081828384856040516020016131d996959493929190615201565b60405160208183030381529060405291505061322a565b6040518060400160405280600581526020017f6572726f720000000000000000000000000000000000000000000000000000008152509150505b92915050565b6040518060600160405280600390602082028036833780820191505090505090565b6040518060800160405280600081526020016000815260200160008152602001600081525090565b6000604051905090565b600080fd5b600080fd5b60007fffffffff0000000000000000000000000000000000000000000000000000000082169050919050565b6132c38161328e565b81146132ce57600080fd5b50565b6000813590506132e0816132ba565b92915050565b6000602082840312156132fc576132fb613284565b5b600061330a848285016132d1565b91505092915050565b60008115159050919050565b61332881613313565b82525050565b6000602082019050613343600083018461331f565b92915050565b600081519050919050565b600082825260208201905092915050565b60005b83811015613383578082015181840152602081019050613368565b60008484015250505050565b6000601f19601f8301169050919050565b60006133ab82613349565b6133b58185613354565b93506133c5818560208601613365565b6133ce8161338f565b840191505092915050565b600060208201905081810360008301526133f381846133a0565b905092915050565b6000819050919050565b61340e816133fb565b811461341957600080fd5b50565b60008135905061342b81613405565b92915050565b60006020828403121561344757613446613284565b5b60006134558482850161341c565b91505092915050565b600073ffffffffffffffffffffffffffffffffffffffff82169050919050565b60006134898261345e565b9050919050565b6134998161347e565b82525050565b60006020820190506134b46000830184613490565b92915050565b6134c38161347e565b81146134ce57600080fd5b50565b6000813590506134e0816134ba565b92915050565b600080604083850312156134fd576134fc613284565b5b600061350b858286016134d1565b925050602061351c8582860161341c565b9150509250929050565b61352f816133fb565b82525050565b600060208201905061354a6000830184613526565b92915050565b60008060006060848603121561356957613568613284565b5b6000613577868287016134d1565b9350506020613588868287016134d1565b92505060406135998682870161341c565b9150509250925092565b600080fd5b7f4e487b7100000000000000000000000000000000000000000000000000000000600052604160045260246000fd5b6135e08261338f565b810181811067ffffffffffffffff821117156135ff576135fe6135a8565b5b80604052505050565b600061361261327a565b905061361e82826135d7565b919050565b600067ffffffffffffffff82111561363e5761363d6135a8565b5b602082029050602081019050919050565b600080fd5b600061366761366284613623565b613608565b9050808382526020820190506020840283018581111561368a5761368961364f565b5b835b818110156136b3578061369f888261341c565b84526020840193505060208101905061368c565b5050509392505050565b600082601f8301126136d2576136d16135a3565b5b81356136e2848260208601613654565b91505092915050565b60006020828403121561370157613700613284565b5b600082013567ffffffffffffffff81111561371f5761371e613289565b5b61372b848285016136bd565b91505092915050565b60006020828403121561374a57613749613284565b5b6000613758848285016134d1565b91505092915050565b61376a81613313565b811461377557600080fd5b50565b60008135905061378781613761565b92915050565b600080604083850312156137a4576137a3613284565b5b60006137b2858286016134d1565b92505060206137c385828601613778565b9150509250929050565b600080fd5b600067ffffffffffffffff8211156137ed576137ec6135a8565b5b6137f68261338f565b9050602081019050919050565b82818337600083830152505050565b6000613825613820846137d2565b613608565b905082815260208101848484011115613841576138406137cd565b5b61384c848285613803565b509392505050565b600082601f830112613869576138686135a3565b5b8135613879848260208601613812565b91505092915050565b6000806000806080858703121561389c5761389b613284565b5b60006138aa878288016134d1565b94505060206138bb878288016134d1565b93505060406138cc8782880161341c565b925050606085013567ffffffffffffffff8111156138ed576138ec613289565b5b6138f987828801613854565b91505092959194509250565b600080fd5b60008083601f8401126139205761391f6135a3565b5b8235905067ffffffffffffffff81111561393d5761393c613905565b5b6020830191508360208202830111156139595761395861364f565b5b9250929050565b60008060006040848603121561397957613978613284565b5b600084013567ffffffffffffffff81111561399757613996613289565b5b6139a38682870161390a565b935093505060206139b68682870161341c565b9150509250925092565b600080604083850312156139d7576139d6613284565b5b60006139e5858286016134d1565b92505060206139f6858286016134d1565b9150509250929050565b7f4e487b7100000000000000000000000000000000000000000000000000000000600052602260045260246000fd5b60006002820490506001821680613a4757607f821691505b602082108103613a5a57613a59613a00565b5b50919050565b7f636f6d62696e696e67206e6f7420616374697665000000000000000000000000600082015250565b6000613a96601483613354565b9150613aa182613a60565b602082019050919050565b60006020820190508181036000830152613ac581613a89565b9050919050565b7f4e487b7100000000000000000000000000000000000000000000000000000000600052603260045260246000fd5b7f6d757374206f776e20616c6c20746f6b656e7300000000000000000000000000600082015250565b6000613b31601383613354565b9150613b3c82613afb565b602082019050919050565b60006020820190508181036000830152613b6081613b24565b9050919050565b7f4e487b7100000000000000000000000000000000000000000000000000000000600052601160045260246000fd5b6000613ba1826133fb565b9150613bac836133fb565b9250828201905080821115613bc457613bc3613b67565b5b92915050565b6000613bd5826133fb565b91507fffffffffffffffffffffffffffffffffffffffffffffffffffffffffffffffff8203613c0757613c06613b67565b5b600182019050919050565b7f73756d206d7573742062652039393939206f72206c6573730000000000000000600082015250565b6000613c48601883613354565b9150613c5382613c12565b602082019050919050565b60006020820190508181036000830152613c7781613c3b565b9050919050565b7f6e6f7420656e6f7567682066726565206d696e74730000000000000000000000600082015250565b6000613cb4601583613354565b9150613cbf82613c7e565b602082019050919050565b60006020820190508181036000830152613ce381613ca7565b9050919050565b6000613cf5826133fb565b9150613d00836133fb565b9250828203905081811115613d1857613d17613b67565b5b92915050565b6000613d29826133fb565b9150613d34836133fb565b9250828202613d42816133fb565b91508282048414831517613d5957613d58613b67565b5b5092915050565b7f6e6f7420656e6f75676820657468000000000000000000000000000000000000600082015250565b6000613d96600e83613354565b9150613da182613d60565b602082019050919050565b60006020820190508181036000830152613dc581613d89565b9050919050565b7f4f776e61626c653a206e6577206f776e657220697320746865207a65726f206160008201527f6464726573730000000000000000000000000000000000000000000000000000602082015250565b6000613e28602683613354565b9150613e3382613dcc565b604082019050919050565b60006020820190508181036000830152613e5781613e1b565b9050919050565b6000819050919050565b613e79613e74826133fb565b613e5e565b82525050565b6000613e8b8284613e68565b60208201915081905092915050565b7f4e487b7100000000000000000000000000000000000000000000000000000000600052601260045260246000fd5b6000613ed4826133fb565b9150613edf836133fb565b925082613eef57613eee613e9a565b5b828206905092915050565b7f4f776e61626c653a2063616c6c6572206973206e6f7420746865206f776e6572600082015250565b6000613f30602083613354565b9150613f3b82613efa565b602082019050919050565b60006020820190508181036000830152613f5f81613f23565b9050919050565b7f6d696e7420697320636c6f736564000000000000000000000000000000000000600082015250565b6000613f9c600e83613354565b9150613fa782613f66565b602082019050919050565b60006020820190508181036000830152613fcb81613f8f565b9050919050565b6000613fdd826133fb565b9150613fe8836133fb565b925082613ff857613ff7613e9a565b5b828204905092915050565b600081519050919050565b600082825260208201905092915050565b600061402a82614003565b614034818561400e565b9350614044818560208601613365565b61404d8161338f565b840191505092915050565b600060808201905061406d6000830187613490565b61407a6020830186613490565b6140876040830185613526565b8181036060830152614099818461401f565b905095945050505050565b6000815190506140b3816132ba565b92915050565b6000602082840312156140cf576140ce613284565b5b60006140dd848285016140a4565b91505092915050565b600081905092915050565b7f7b226e616d65223a202255494e54532000000000000000000000000000000000600082015250565b60006141276010836140e6565b9150614132826140f1565b601082019050919050565b600061414882613349565b61415281856140e6565b9350614162818560208601613365565b80840191505092915050565b7f205b4255524e45445d222c20226465736372697074696f6e223a20224e756d6260008201527f65727320617265206172742c20616e642077652061726520617274697374732e60208201527f222c202261747472696275746573223a5b7b2274726169745f74797065223a2060408201527f224275726e6564222c202276616c7565223a2022596573227d5d2c2022696d6160608201527f6765223a2022646174613a696d6167652f7376672b786d6c3b6261736536342c608082015250565b600061423c60a0836140e6565b91506142478261416e565b60a082019050919050565b7f227d000000000000000000000000000000000000000000000000000000000000600082015250565b60006142886002836140e6565b915061429382614252565b600282019050919050565b60006142a98261411a565b91506142b5828561413d565b91506142c08261422f565b91506142cc828461413d565b91506142d78261427b565b91508190509392505050565b7f222c20226465736372697074696f6e223a20224e756d6265727320617265206160008201527f72742c20616e642077652061726520617274697374732e222c2022617474726960208201527f6275746573223a5b7b2274726169745f74797065223a20224e756d626572222c60408201527f20226d61785f76616c7565223a20393939392c202276616c7565223a20000000606082015250565b600061438b607d836140e6565b9150614396826142e3565b607d82019050919050565b7f7d2c7b22646973706c61795f74797065223a20226e756d626572222c2022747260008201527f6169745f74797065223a20224d696e74205068617365222c202276616c75652260208201527f3a20000000000000000000000000000000000000000000000000000000000000604082015250565b60006144236042836140e6565b915061442e826143a1565b604282019050919050565b7f7d2c7b2274726169745f74797065223a20224275726e6564222c202276616c7560008201527f65223a20224e6f227d2c7b2274726169745f74797065223a202242617365204360208201527f6f6c6f72222c202276616c7565223a2022000000000000000000000000000000604082015250565b60006144bb6051836140e6565b91506144c682614439565b605182019050919050565b7f227d2c7b2274726169745f74797065223a2022436f6c6f72222c202276616c7560008201527f65223a2022524742280000000000000000000000000000000000000000000000602082015250565b600061452d6029836140e6565b9150614538826144d1565b602982019050919050565b7f2c00000000000000000000000000000000000000000000000000000000000000600082015250565b60006145796001836140e6565b915061458482614543565b600182019050919050565b7f29227d5d2c2022696d616765223a2022646174613a696d6167652f7376672b7860008201527f6d6c3b6261736536342c00000000000000000000000000000000000000000000602082015250565b60006145eb602a836140e6565b91506145f68261458f565b602a82019050919050565b600061460c8261411a565b9150614618828b61413d565b91506146238261437e565b915061462f828a61413d565b915061463a82614416565b9150614646828961413d565b9150614651826144ae565b915061465d828861413d565b915061466882614520565b9150614674828761413d565b915061467f8261456c565b915061468b828661413d565b91506146968261456c565b91506146a2828561413d565b91506146ad826145de565b91506146b9828461413d565b91506146c48261427b565b91508190509998505050505050505050565b7f646174613a6170706c69636174696f6e2f6a736f6e3b6261736536342c000000600082015250565b600061470c601d836140e6565b9150614717826146d6565b601d82019050919050565b600061472d826146ff565b9150614739828461413d565b915081905092915050565b600060ff82169050919050565b600061475c82614744565b915061476783614744565b9250828201905060ff8111156147805761477f613b67565b5b92915050565b7f2a7b66696c6c3a72676228000000000000000000000000000000000000000000600082015250565b60006147bc600b836140e6565b91506147c782614786565b600b82019050919050565b7f297d2362677b66696c6c3a233043304330437d00000000000000000000000000600082015250565b60006148086013836140e6565b9150614813826147d2565b601382019050919050565b6000614829826147af565b9150614835828661413d565b91506148408261456c565b915061484c828561413d565b91506148578261456c565b9150614863828461413d565b915061486e826147fb565b9150819050949350505050565b6000614887828561413d565b9150614893828461413d565b91508190509392505050565b7f3c2f7374796c653e3c2f7376673e000000000000000000000000000000000000600082015250565b60006148d5600e836140e6565b91506148e08261489f565b600e82019050919050565b60006148f7828561413d565b9150614903828461413d565b915061490e826148c8565b91508190509392505050565b7f2370000000000000000000000000000000000000000000000000000000000000600082015250565b60006149506002836140e6565b915061495b8261491a565b600282019050919050565b7f312c000000000000000000000000000000000000000000000000000000000000600082015250565b600061499c6002836140e6565b91506149a782614966565b600282019050919050565b7f322c000000000000000000000000000000000000000000000000000000000000600082015250565b60006149e86002836140e6565b91506149f3826149b2565b600282019050919050565b7f332c000000000000000000000000000000000000000000000000000000000000600082015250565b6000614a346002836140e6565b9150614a3f826149fe565b600282019050919050565b7f352c000000000000000000000000000000000000000000000000000000000000600082015250565b6000614a806002836140e6565b9150614a8b82614a4a565b600282019050919050565b7f362c000000000000000000000000000000000000000000000000000000000000600082015250565b6000614acc6002836140e6565b9150614ad782614a96565b600282019050919050565b7f37207b66696c6c2d6f7061636974793a317d0000000000000000000000000000600082015250565b6000614b186012836140e6565b9150614b2382614ae2565b601282019050919050565b6000614b3982614943565b9150614b45828961413d565b9150614b508261498f565b9150614b5b82614943565b9150614b67828861413d565b9150614b72826149db565b9150614b7d82614943565b9150614b89828761413d565b9150614b9482614a27565b9150614b9f82614943565b9150614bab828661413d565b9150614bb682614a73565b9150614bc182614943565b9150614bcd828561413d565b9150614bd882614abf565b9150614be382614943565b9150614bef828461413d565b9150614bfa82614b0b565b9150819050979650505050505050565b7f36207b66696c6c2d6f7061636974793a317d0000000000000000000000000000600082015250565b6000614c406012836140e6565b9150614c4b82614c0a565b601282019050919050565b6000614c6182614943565b9150614c6d828561413d565b9150614c7882614a27565b9150614c8382614943565b9150614c8f828461413d565b9150614c9a82614c33565b91508190509392505050565b7f342c000000000000000000000000000000000000000000000000000000000000600082015250565b6000614cdc6002836140e6565b9150614ce782614ca6565b600282019050919050565b6000614cfd82614943565b9150614d09828861413d565b9150614d148261498f565b9150614d1f82614943565b9150614d2b828761413d565b9150614d3682614a27565b9150614d4182614943565b9150614d4d828661413d565b9150614d5882614ccf565b9150614d6382614943565b9150614d6f828561413d565b9150614d7a82614a73565b9150614d8582614943565b9150614d91828461413d565b9150614d9c82614b0b565b91508190509695505050505050565b6000614db682614943565b9150614dc2828861413d565b9150614dcd8261498f565b9150614dd882614943565b9150614de4828761413d565b9150614def82614a27565b9150614dfa82614943565b9150614e06828661413d565b9150614e1182614ccf565b9150614e1c82614943565b9150614e28828561413d565b9150614e3382614abf565b9150614e3e82614943565b9150614e4a828461413d565b9150614e5582614b0b565b91508190509695505050505050565b6000614e6f82614943565b9150614e7b828761413d565b9150614e86826149db565b9150614e9182614943565b9150614e9d828661413d565b9150614ea882614a27565b9150614eb382614943565b9150614ebf828561413d565b9150614eca82614ccf565b9150614ed582614943565b9150614ee1828461413d565b9150614eec82614c33565b915081905095945050505050565b6000614f0582614943565b9150614f11828861413d565b9150614f1c8261498f565b9150614f2782614943565b9150614f33828761413d565b9150614f3e826149db565b9150614f4982614943565b9150614f55828661413d565b9150614f6082614ccf565b9150614f6b82614943565b9150614f77828561413d565b9150614f8282614abf565b9150614f8d82614943565b9150614f99828461413d565b9150614fa482614b0b565b91508190509695505050505050565b6000614fbe82614943565b9150614fca828961413d565b9150614fd58261498f565b9150614fe082614943565b9150614fec828861413d565b9150614ff7826149db565b915061500282614943565b915061500e828761413d565b915061501982614ccf565b915061502482614943565b9150615030828661413d565b915061503b82614a73565b915061504682614943565b9150615052828561413d565b915061505d82614abf565b915061506882614943565b9150615074828461413d565b915061507f82614b0b565b9150819050979650505050505050565b600061509a82614943565b91506150a6828661413d565b91506150b18261498f565b91506150bc82614943565b91506150c8828561413d565b91506150d382614a27565b91506150de82614943565b91506150ea828461413d565b91506150f582614c33565b9150819050949350505050565b600061510d82614943565b9150615119828a61413d565b91506151248261498f565b915061512f82614943565b915061513b828961413d565b9150615146826149db565b915061515182614943565b915061515d828861413d565b915061516882614a27565b915061517382614943565b915061517f828761413d565b915061518a82614ccf565b915061519582614943565b91506151a1828661413d565b91506151ac82614a73565b91506151b782614943565b91506151c3828561413d565b91506151ce82614abf565b91506151d982614943565b91506151e5828461413d565b91506151f082614b0b565b915081905098975050505050505050565b600061520c82614943565b9150615218828961413d565b91506152238261498f565b915061522e82614943565b915061523a828861413d565b9150615245826149db565b915061525082614943565b915061525c828761413d565b915061526782614a27565b915061527282614943565b915061527e828661413d565b915061528982614ccf565b915061529482614943565b91506152a0828561413d565b91506152ab82614abf565b91506152b682614943565b91506152c2828461413d565b91506152cd82614b0b565b915081905097965050505050505056fe4142434445464748494a4b4c4d4e4f505152535455565758595a6162636465666768696a6b6c6d6e6f707172737475767778797a303132333435363738392b2f3c7376672076696577426f783d223020302033303020333030222066696c6c3d226e6f6e652220786d6c6e733d22687474703a2f2f7777772e77332e6f72672f323030302f737667223e3c726563742069643d226267222077696474683d2233303022206865696768743d22333030222066696c6c3d2223304330433043222f3e3c706174682069643d227030312220643d224d313030203131394c313033203132324c313030203132354c3830203132354c3737203132324c3830203131394c313030203131395a222066696c6c3d227768697465222066696c6c2d6f7061636974793d22302e3035222f3e3c706174682069643d227030322220643d224d3733203132364c3736203132334c373920313236563134364c3736203134394c373320313436563132365a222066696c6c3d227768697465222066696c6c2d6f7061636974793d22302e3035222f3e3c706174682069643d227030332220643d224d313031203132364c313034203132334c31303720313236563134364c313034203134394c31303120313436563132365a222066696c6c3d227768697465222066696c6c2d6f7061636974793d22302e3035222f3e3c706174682069643d227030342220643d224d313030203134374c313033203135304c313030203135334c3830203135334c3737203135304c3830203134374c313030203134375a222066696c6c3d227768697465222066696c6c2d6f7061636974793d22302e3035222f3e3c706174682069643d227030352220643d224d3733203135344c3736203135314c373920313534563137344c3736203137374c373320313734563135345a222066696c6c3d227768697465222066696c6c2d6f7061636974793d22302e3035222f3e3c706174682069643d227030362220643d224d313031203135344c313034203135314c31303720313534563137344c313034203137374c31303120313734563135345a222066696c6c3d227768697465222066696c6c2d6f7061636974793d22302e3035222f3e3c706174682069643d227030372220643d224d313030203137354c313033203137384c313030203138314c3830203138314c3737203137384c3830203137354c313030203137355a222066696c6c3d227768697465222066696c6c2d6f7061636974793d22302e3035222f3e3c706174682069643d227031312220643d224d313430203131394c313433203132324c313430203132354c313230203132354c313137203132324c313230203131394c313430203131395a222066696c6c3d227768697465222066696c6c2d6f7061636974793d22302e3035222f3e3c706174682069643d227031322220643d224d313133203132364c313136203132334c31313920313236563134364c313136203134394c31313320313436563132365a222066696c6c3d227768697465222066696c6c2d6f7061636974793d22302e3035222f3e3c706174682069643d227031332220643d224d313431203132364c313434203132334c31343720313236563134364c313434203134394c31343120313436563132365a222066696c6c3d227768697465222066696c6c2d6f7061636974793d22302e3035222f3e3c706174682069643d227031342220643d224d313430203134374c313433203135304c313430203135334c313230203135334c313137203135304c313230203134374c313430203134375a222066696c6c3d227768697465222066696c6c2d6f7061636974793d22302e3035222f3e3c706174682069643d227031352220643d224d313133203135344c313136203135314c31313920313534563137344c313136203137374c31313320313734563135345a222066696c6c3d227768697465222066696c6c2d6f7061636974793d22302e3035222f3e3c706174682069643d227031362220643d224d313431203135344c313434203135314c31343720313534563137344c313434203137374c31343120313734563135345a222066696c6c3d227768697465222066696c6c2d6f7061636974793d22302e3035222f3e3c706174682069643d227031372220643d224d313430203137354c313433203137384c313430203138314c313230203138314c313137203137384c313230203137354c313430203137355a222066696c6c3d227768697465222066696c6c2d6f7061636974793d22302e3035222f3e3c706174682069643d227032312220643d224d313830203131394c313833203132324c313830203132354c313630203132354c313537203132324c313630203131394c313830203131395a222066696c6c3d227768697465222066696c6c2d6f7061636974793d22302e3035222f3e3c706174682069643d227032322220643d224d313533203132364c313536203132334c31353920313236563134364c313536203134394c31353320313436563132365a222066696c6c3d227768697465222066696c6c2d6f7061636974793d22302e3035222f3e3c706174682069643d227032332220643d224d313831203132364c313834203132334c31383720313236563134364c313834203134394c31383120313436563132365a222066696c6c3d227768697465222066696c6c2d6f7061636974793d22302e3035222f3e3c706174682069643d227032342220643d224d313830203134374c313833203135304c313830203135334c313630203135334c313537203135304c313630203134374c313830203134375a222066696c6c3d227768697465222066696c6c2d6f7061636974793d22302e3035222f3e3c706174682069643d227032352220643d224d313533203135344c313536203135314c31353920313534563137344c313536203137374c31353320313734563135345a222066696c6c3d227768697465222066696c6c2d6f7061636974793d22302e3035222f3e3c706174682069643d227032362220643d224d313831203135344c313834203135314c31383720313534563137344c313834203137374c31383120313734563135345a222066696c6c3d227768697465222066696c6c2d6f7061636974793d22302e3035222f3e3c706174682069643d227032372220643d224d313830203137354c313833203137384c313830203138314c313630203138314c313537203137384c313630203137354c313830203137355a222066696c6c3d227768697465222066696c6c2d6f7061636974793d22302e3035222f3e3c706174682069643d227033312220643d224d323230203131394c323233203132324c323230203132354c323030203132354c313937203132324c323030203131394c323230203131395a222066696c6c3d227768697465222066696c6c2d6f7061636974793d22302e3035222f3e3c706174682069643d227033322220643d224d313933203132364c313936203132334c31393920313236563134364c313936203134394c31393320313436563132365a222066696c6c3d227768697465222066696c6c2d6f7061636974793d22302e3035222f3e3c706174682069643d227033332220643d224d323231203132364c323234203132334c32323720313236563134364c323234203134394c32323120313436563132365a222066696c6c3d227768697465222066696c6c2d6f7061636974793d22302e3035222f3e3c706174682069643d227033342220643d224d323230203134374c323233203135304c323230203135334c323030203135334c313937203135304c323030203134374c323230203134375a222066696c6c3d227768697465222066696c6c2d6f7061636974793d22302e3035222f3e3c706174682069643d227033352220643d224d313933203135344c313936203135314c31393920313534563137344c313936203137374c31393320313734563135345a222066696c6c3d227768697465222066696c6c2d6f7061636974793d22302e3035222f3e3c706174682069643d227033362220643d224d323231203135344c323234203135314c32323720313534563137344c323234203137374c32323120313734563135345a222066696c6c3d227768697465222066696c6c2d6f7061636974793d22302e3035222f3e3c706174682069643d227033372220643d224d323230203137354c323233203137384c323230203138314c323030203138314c313937203137384c323030203137354c323230203137355a222066696c6c3d227768697465222066696c6c2d6f7061636974793d22302e3035222f3e3c7374796c653ea264697066735822122049f7e0addd076f781dc776fa0bcdc2b826e33b910aea82e63bfc894dd31d7d7264736f6c63430008120033",
			"opcodes": "PUSH1 0x80 PUSH1 0x40 MSTORE PUSH1 0x0 PUSH1 0x9 SSTORE PUSH1 0x0 PUSH1 0xA PUSH1 0x0 PUSH2 0x100 EXP DUP2 SLOAD DUP2 PUSH1 0xFF MUL NOT AND SWAP1 DUP4 ISZERO ISZERO MUL OR SWAP1 SSTORE POP CALLVALUE DUP1 ISZERO PUSH3 0x31 JUMPI PUSH1 0x0 DUP1 REVERT JUMPDEST POP PUSH1 0x40 MLOAD DUP1 PUSH1 0x40 ADD PUSH1 0x40 MSTORE DUP1 PUSH1 0x5 DUP2 MSTORE PUSH1 0x20 ADD PUSH32 0x55494E5453000000000000000000000000000000000000000000000000000000 DUP2 MSTORE POP PUSH1 0x40 MLOAD DUP1 PUSH1 0x40 ADD PUSH1 0x40 MSTORE DUP1 PUSH1 0x5 DUP2 MSTORE PUSH1 0x20 ADD PUSH32 0x55494E5453000000000000000000000000000000000000000000000000000000 DUP2 MSTORE POP DUP2 PUSH1 0x2 SWAP1 DUP2 PUSH3 0xAF SWAP2 SWAP1 PUSH3 0x451 JUMP JUMPDEST POP DUP1 PUSH1 0x3 SWAP1 DUP2 PUSH3 0xC1 SWAP2 SWAP1 PUSH3 0x451 JUMP JUMPDEST POP PUSH3 0xD2 PUSH3 0x100 PUSH1 0x20 SHL PUSH1 0x20 SHR JUMP JUMPDEST PUSH1 0x0 DUP2 SWAP1 SSTORE POP POP POP PUSH3 0xFA PUSH3 0xEE PUSH3 0x109 PUSH1 0x20 SHL PUSH1 0x20 SHR JUMP JUMPDEST PUSH3 0x111 PUSH1 0x20 SHL PUSH1 0x20 SHR JUMP JUMPDEST PUSH3 0x538 JUMP JUMPDEST PUSH1 0x0 PUSH1 0x1 SWAP1 POP SWAP1 JUMP JUMPDEST PUSH1 0x0 CALLER SWAP1 POP SWAP1 JUMP JUMPDEST PUSH1 0x0 PUSH1 0x8 PUSH1 0x0 SWAP1 SLOAD SWAP1 PUSH2 0x100 EXP SWAP1 DIV PUSH20 0xFFFFFFFFFFFFFFFFFFFFFFFFFFFFFFFFFFFFFFFF AND SWAP1 POP DUP2 PUSH1 0x8 PUSH1 0x0 PUSH2 0x100 EXP DUP2 SLOAD DUP2 PUSH20 0xFFFFFFFFFFFFFFFFFFFFFFFFFFFFFFFFFFFFFFFF MUL NOT AND SWAP1 DUP4 PUSH20 0xFFFFFFFFFFFFFFFFFFFFFFFFFFFFFFFFFFFFFFFF AND MUL OR SWAP1 SSTORE POP DUP2 PUSH20 0xFFFFFFFFFFFFFFFFFFFFFFFFFFFFFFFFFFFFFFFF AND DUP2 PUSH20 0xFFFFFFFFFFFFFFFFFFFFFFFFFFFFFFFFFFFFFFFF AND PUSH32 0x8BE0079C531659141344CD1FD0A4F28419497F9722A3DAAFE3B4186F6B6457E0 PUSH1 0x40 MLOAD PUSH1 0x40 MLOAD DUP1 SWAP2 SUB SWAP1 LOG3 POP POP JUMP JUMPDEST PUSH1 0x0 DUP2 MLOAD SWAP1 POP SWAP2 SWAP1 POP JUMP JUMPDEST PUSH32 0x4E487B7100000000000000000000000000000000000000000000000000000000 PUSH1 0x0 MSTORE PUSH1 0x41 PUSH1 0x4 MSTORE PUSH1 0x24 PUSH1 0x0 REVERT JUMPDEST PUSH32 0x4E487B7100000000000000000000000000000000000000000000000000000000 PUSH1 0x0 MSTORE PUSH1 0x22 PUSH1 0x4 MSTORE PUSH1 0x24 PUSH1 0x0 REVERT JUMPDEST PUSH1 0x0 PUSH1 0x2 DUP3 DIV SWAP1 POP PUSH1 0x1 DUP3 AND DUP1 PUSH3 0x259 JUMPI PUSH1 0x7F DUP3 AND SWAP2 POP JUMPDEST PUSH1 0x20 DUP3 LT DUP2 SUB PUSH3 0x26F JUMPI PUSH3 0x26E PUSH3 0x211 JUMP JUMPDEST JUMPDEST POP SWAP2 SWAP1 POP JUMP JUMPDEST PUSH1 0x0 DUP2 SWAP1 POP DUP2 PUSH1 0x0 MSTORE PUSH1 0x20 PUSH1 0x0 KECCAK256 SWAP1 POP SWAP2 SWAP1 POP JUMP JUMPDEST PUSH1 0x0 PUSH1 0x20 PUSH1 0x1F DUP4 ADD DIV SWAP1 POP SWAP2 SWAP1 POP JUMP JUMPDEST PUSH1 0x0 DUP3 DUP3 SHL SWAP1 POP SWAP3 SWAP2 POP POP JUMP JUMPDEST PUSH1 0x0 PUSH1 0x8 DUP4 MUL PUSH3 0x2D9 PUSH32 0xFFFFFFFFFFFFFFFFFFFFFFFFFFFFFFFFFFFFFFFFFFFFFFFFFFFFFFFFFFFFFFFF DUP3 PUSH3 0x29A JUMP JUMPDEST PUSH3 0x2E5 DUP7 DUP4 PUSH3 0x29A JUMP JUMPDEST SWAP6 POP DUP1 NOT DUP5 AND SWAP4 POP DUP1 DUP7 AND DUP5 OR SWAP3 POP POP POP SWAP4 SWAP3 POP POP POP JUMP JUMPDEST PUSH1 0x0 DUP2 SWAP1 POP SWAP2 SWAP1 POP JUMP JUMPDEST PUSH1 0x0 DUP2 SWAP1 POP SWAP2 SWAP1 POP JUMP JUMPDEST PUSH1 0x0 PUSH3 0x332 PUSH3 0x32C PUSH3 0x326 DUP5 PUSH3 0x2FD JUMP JUMPDEST PUSH3 0x307 JUMP JUMPDEST PUSH3 0x2FD JUMP JUMPDEST SWAP1 POP SWAP2 SWAP1 POP JUMP JUMPDEST PUSH1 0x0 DUP2 SWAP1 POP SWAP2 SWAP1 POP JUMP JUMPDEST PUSH3 0x34E DUP4 PUSH3 0x311 JUMP JUMPDEST PUSH3 0x366 PUSH3 0x35D DUP3 PUSH3 0x339 JUMP JUMPDEST DUP5 DUP5 SLOAD PUSH3 0x2A7 JUMP JUMPDEST DUP3 SSTORE POP POP POP POP JUMP JUMPDEST PUSH1 0x0 SWAP1 JUMP JUMPDEST PUSH3 0x37D PUSH3 0x36E JUMP JUMPDEST PUSH3 0x38A DUP2 DUP5 DUP5 PUSH3 0x343 JUMP JUMPDEST POP POP POP JUMP JUMPDEST JUMPDEST DUP2 DUP2 LT ISZERO PUSH3 0x3B2 JUMPI PUSH3 0x3A6 PUSH1 0x0 DUP3 PUSH3 0x373 JUMP JUMPDEST PUSH1 0x1 DUP2 ADD SWAP1 POP PUSH3 0x390 JUMP JUMPDEST POP POP JUMP JUMPDEST PUSH1 0x1F DUP3 GT ISZERO PUSH3 0x401 JUMPI PUSH3 0x3CB DUP2 PUSH3 0x275 JUMP JUMPDEST PUSH3 0x3D6 DUP5 PUSH3 0x28A JUMP JUMPDEST DUP2 ADD PUSH1 0x20 DUP6 LT ISZERO PUSH3 0x3E6 JUMPI DUP2 SWAP1 POP JUMPDEST PUSH3 0x3FE PUSH3 0x3F5 DUP6 PUSH3 0x28A JUMP JUMPDEST DUP4 ADD DUP3 PUSH3 0x38F JUMP JUMPDEST POP POP JUMPDEST POP POP POP JUMP JUMPDEST PUSH1 0x0 DUP3 DUP3 SHR SWAP1 POP SWAP3 SWAP2 POP POP JUMP JUMPDEST PUSH1 0x0 PUSH3 0x426 PUSH1 0x0 NOT DUP5 PUSH1 0x8 MUL PUSH3 0x406 JUMP JUMPDEST NOT DUP1 DUP4 AND SWAP2 POP POP SWAP3 SWAP2 POP POP JUMP JUMPDEST PUSH1 0x0 PUSH3 0x441 DUP4 DUP4 PUSH3 0x413 JUMP JUMPDEST SWAP2 POP DUP3 PUSH1 0x2 MUL DUP3 OR SWAP1 POP SWAP3 SWAP2 POP POP JUMP JUMPDEST PUSH3 0x45C DUP3 PUSH3 0x1D7 JUMP JUMPDEST PUSH8 0xFFFFFFFFFFFFFFFF DUP2 GT ISZERO PUSH3 0x478 JUMPI PUSH3 0x477 PUSH3 0x1E2 JUMP JUMPDEST JUMPDEST PUSH3 0x484 DUP3 SLOAD PUSH3 0x240 JUMP JUMPDEST PUSH3 0x491 DUP3 DUP3 DUP6 PUSH3 0x3B6 JUMP JUMPDEST PUSH1 0x0 PUSH1 0x20 SWAP1 POP PUSH1 0x1F DUP4 GT PUSH1 0x1 DUP2 EQ PUSH3 0x4C9 JUMPI PUSH1 0x0 DUP5 ISZERO PUSH3 0x4B4 JUMPI DUP3 DUP8 ADD MLOAD SWAP1 POP JUMPDEST PUSH3 0x4C0 DUP6 DUP3 PUSH3 0x433 JUMP JUMPDEST DUP7 SSTORE POP PUSH3 0x530 JUMP JUMPDEST PUSH1 0x1F NOT DUP5 AND PUSH3 0x4D9 DUP7 PUSH3 0x275 JUMP JUMPDEST PUSH1 0x0 JUMPDEST DUP3 DUP2 LT ISZERO PUSH3 0x503 JUMPI DUP5 DUP10 ADD MLOAD DUP3 SSTORE PUSH1 0x1 DUP3 ADD SWAP2 POP PUSH1 0x20 DUP6 ADD SWAP5 POP PUSH1 0x20 DUP2 ADD SWAP1 POP PUSH3 0x4DC JUMP JUMPDEST DUP7 DUP4 LT ISZERO PUSH3 0x523 JUMPI DUP5 DUP10 ADD MLOAD PUSH3 0x51F PUSH1 0x1F DUP10 AND DUP3 PUSH3 0x413 JUMP JUMPDEST DUP4 SSTORE POP JUMPDEST PUSH1 0x1 PUSH1 0x2 DUP9 MUL ADD DUP9 SSTORE POP POP POP JUMPDEST POP POP POP POP POP POP JUMP JUMPDEST PUSH2 0x5F6C DUP1 PUSH3 0x548 PUSH1 0x0 CODECOPY PUSH1 0x0 RETURN INVALID PUSH1 0x80 PUSH1 0x40 MSTORE PUSH1 0x4 CALLDATASIZE LT PUSH2 0x1CD JUMPI PUSH1 0x0 CALLDATALOAD PUSH1 0xE0 SHR DUP1 PUSH4 0x7C928FE9 GT PUSH2 0xF7 JUMPI DUP1 PUSH4 0xA6C56C79 GT PUSH2 0x95 JUMPI DUP1 PUSH4 0xD1D18F50 GT PUSH2 0x64 JUMPI DUP1 PUSH4 0xD1D18F50 EQ PUSH2 0x60F JUMPI DUP1 PUSH4 0xD8C718A8 EQ PUSH2 0x64C JUMPI DUP1 PUSH4 0xE985E9C5 EQ PUSH2 0x675 JUMPI DUP1 PUSH4 0xF2FDE38B EQ PUSH2 0x6B2 JUMPI PUSH2 0x1CD JUMP JUMPDEST DUP1 PUSH4 0xA6C56C79 EQ PUSH2 0x574 JUMPI DUP1 PUSH4 0xB88D4FDE EQ PUSH2 0x59F JUMPI DUP1 PUSH4 0xB8BE6E98 EQ PUSH2 0x5BB JUMPI DUP1 PUSH4 0xC87B56DD EQ PUSH2 0x5D2 JUMPI PUSH2 0x1CD JUMP JUMPDEST DUP1 PUSH4 0x9659867E GT PUSH2 0xD1 JUMPI DUP1 PUSH4 0x9659867E EQ PUSH2 0x4D9 JUMPI DUP1 PUSH4 0xA035B1FE EQ PUSH2 0x504 JUMPI DUP1 PUSH4 0xA0712D68 EQ PUSH2 0x52F JUMPI DUP1 PUSH4 0xA22CB465 EQ PUSH2 0x54B JUMPI PUSH2 0x1CD JUMP JUMPDEST DUP1 PUSH4 0x7C928FE9 EQ PUSH2 0x45A JUMPI DUP1 PUSH4 0x8DA5CB5B EQ PUSH2 0x483 JUMPI DUP1 PUSH4 0x95D89B41 EQ PUSH2 0x4AE JUMPI PUSH2 0x1CD JUMP JUMPDEST DUP1 PUSH4 0x23B872DD GT PUSH2 0x16F JUMPI DUP1 PUSH4 0x42842E0E GT PUSH2 0x13E JUMPI DUP1 PUSH4 0x42842E0E EQ PUSH2 0x3AD JUMPI DUP1 PUSH4 0x6352211E EQ PUSH2 0x3C9 JUMPI DUP1 PUSH4 0x70A08231 EQ PUSH2 0x406 JUMPI DUP1 PUSH4 0x715018A6 EQ PUSH2 0x443 JUMPI PUSH2 0x1CD JUMP JUMPDEST DUP1 PUSH4 0x23B872DD EQ PUSH2 0x326 JUMPI DUP1 PUSH4 0x25E514C6 EQ PUSH2 0x342 JUMPI DUP1 PUSH4 0x37C5FA0D EQ PUSH2 0x36B JUMPI DUP1 PUSH4 0x3CCFD60B EQ PUSH2 0x396 JUMPI PUSH2 0x1CD JUMP JUMPDEST DUP1 PUSH4 0x95EA7B3 GT PUSH2 0x1AB JUMPI DUP1 PUSH4 0x95EA7B3 EQ PUSH2 0x277 JUMPI DUP1 PUSH4 0xFF4C916 EQ PUSH2 0x293 JUMPI DUP1 PUSH4 0x18160DDD EQ PUSH2 0x2D0 JUMPI DUP1 PUSH4 0x21CF7ECF EQ PUSH2 0x2FB JUMPI PUSH2 0x1CD JUMP JUMPDEST DUP1 PUSH4 0x1FFC9A7 EQ PUSH2 0x1D2 JUMPI DUP1 PUSH4 0x6FDDE03 EQ PUSH2 0x20F JUMPI DUP1 PUSH4 0x81812FC EQ PUSH2 0x23A JUMPI JUMPDEST PUSH1 0x0 DUP1 REVERT JUMPDEST CALLVALUE DUP1 ISZERO PUSH2 0x1DE JUMPI PUSH1 0x0 DUP1 REVERT JUMPDEST POP PUSH2 0x1F9 PUSH1 0x4 DUP1 CALLDATASIZE SUB DUP2 ADD SWAP1 PUSH2 0x1F4 SWAP2 SWAP1 PUSH2 0x32E6 JUMP JUMPDEST PUSH2 0x6DB JUMP JUMPDEST PUSH1 0x40 MLOAD PUSH2 0x206 SWAP2 SWAP1 PUSH2 0x332E JUMP JUMPDEST PUSH1 0x40 MLOAD DUP1 SWAP2 SUB SWAP1 RETURN JUMPDEST CALLVALUE DUP1 ISZERO PUSH2 0x21B JUMPI PUSH1 0x0 DUP1 REVERT JUMPDEST POP PUSH2 0x224 PUSH2 0x76D JUMP JUMPDEST PUSH1 0x40 MLOAD PUSH2 0x231 SWAP2 SWAP1 PUSH2 0x33D9 JUMP JUMPDEST PUSH1 0x40 MLOAD DUP1 SWAP2 SUB SWAP1 RETURN JUMPDEST CALLVALUE DUP1 ISZERO PUSH2 0x246 JUMPI PUSH1 0x0 DUP1 REVERT JUMPDEST POP PUSH2 0x261 PUSH1 0x4 DUP1 CALLDATASIZE SUB DUP2 ADD SWAP1 PUSH2 0x25C SWAP2 SWAP1 PUSH2 0x3431 JUMP JUMPDEST PUSH2 0x7FF JUMP JUMPDEST PUSH1 0x40 MLOAD PUSH2 0x26E SWAP2 SWAP1 PUSH2 0x349F JUMP JUMPDEST PUSH1 0x40 MLOAD DUP1 SWAP2 SUB SWAP1 RETURN JUMPDEST PUSH2 0x291 PUSH1 0x4 DUP1 CALLDATASIZE SUB DUP2 ADD SWAP1 PUSH2 0x28C SWAP2 SWAP1 PUSH2 0x34E6 JUMP JUMPDEST PUSH2 0x87E JUMP JUMPDEST STOP JUMPDEST CALLVALUE DUP1 ISZERO PUSH2 0x29F JUMPI PUSH1 0x0 DUP1 REVERT JUMPDEST POP PUSH2 0x2BA PUSH1 0x4 DUP1 CALLDATASIZE SUB DUP2 ADD SWAP1 PUSH2 0x2B5 SWAP2 SWAP1 PUSH2 0x3431 JUMP JUMPDEST PUSH2 0x9C2 JUMP JUMPDEST PUSH1 0x40 MLOAD PUSH2 0x2C7 SWAP2 SWAP1 PUSH2 0x3535 JUMP JUMPDEST PUSH1 0x40 MLOAD DUP1 SWAP2 SUB SWAP1 RETURN JUMPDEST CALLVALUE DUP1 ISZERO PUSH2 0x2DC JUMPI PUSH1 0x0 DUP1 REVERT JUMPDEST POP PUSH2 0x2E5 PUSH2 0xA22 JUMP JUMPDEST PUSH1 0x40 MLOAD PUSH2 0x2F2 SWAP2 SWAP1 PUSH2 0x3535 JUMP JUMPDEST PUSH1 0x40 MLOAD DUP1 SWAP2 SUB SWAP1 RETURN JUMPDEST CALLVALUE DUP1 ISZERO PUSH2 0x307 JUMPI PUSH1 0x0 DUP1 REVERT JUMPDEST POP PUSH2 0x310 PUSH2 0xA39 JUMP JUMPDEST PUSH1 0x40 MLOAD PUSH2 0x31D SWAP2 SWAP1 PUSH2 0x3535 JUMP JUMPDEST PUSH1 0x40 MLOAD DUP1 SWAP2 SUB SWAP1 RETURN JUMPDEST PUSH2 0x340 PUSH1 0x4 DUP1 CALLDATASIZE SUB DUP2 ADD SWAP1 PUSH2 0x33B SWAP2 SWAP1 PUSH2 0x3550 JUMP JUMPDEST PUSH2 0xA3F JUMP JUMPDEST STOP JUMPDEST CALLVALUE DUP1 ISZERO PUSH2 0x34E JUMPI PUSH1 0x0 DUP1 REVERT JUMPDEST POP PUSH2 0x369 PUSH1 0x4 DUP1 CALLDATASIZE SUB DUP2 ADD SWAP1 PUSH2 0x364 SWAP2 SWAP1 PUSH2 0x36EB JUMP JUMPDEST PUSH2 0xD61 JUMP JUMPDEST STOP JUMPDEST CALLVALUE DUP1 ISZERO PUSH2 0x377 JUMPI PUSH1 0x0 DUP1 REVERT JUMPDEST POP PUSH2 0x380 PUSH2 0x10BB JUMP JUMPDEST PUSH1 0x40 MLOAD PUSH2 0x38D SWAP2 SWAP1 PUSH2 0x332E JUMP JUMPDEST PUSH1 0x40 MLOAD DUP1 SWAP2 SUB SWAP1 RETURN JUMPDEST CALLVALUE DUP1 ISZERO PUSH2 0x3A2 JUMPI PUSH1 0x0 DUP1 REVERT JUMPDEST POP PUSH2 0x3AB PUSH2 0x10CE JUMP JUMPDEST STOP JUMPDEST PUSH2 0x3C7 PUSH1 0x4 DUP1 CALLDATASIZE SUB DUP2 ADD SWAP1 PUSH2 0x3C2 SWAP2 SWAP1 PUSH2 0x3550 JUMP JUMPDEST PUSH2 0x1116 JUMP JUMPDEST STOP JUMPDEST CALLVALUE DUP1 ISZERO PUSH2 0x3D5 JUMPI PUSH1 0x0 DUP1 REVERT JUMPDEST POP PUSH2 0x3F0 PUSH1 0x4 DUP1 CALLDATASIZE SUB DUP2 ADD SWAP1 PUSH2 0x3EB SWAP2 SWAP1 PUSH2 0x3431 JUMP JUMPDEST PUSH2 0x1136 JUMP JUMPDEST PUSH1 0x40 MLOAD PUSH2 0x3FD SWAP2 SWAP1 PUSH2 0x349F JUMP JUMPDEST PUSH1 0x40 MLOAD DUP1 SWAP2 SUB SWAP1 RETURN JUMPDEST CALLVALUE DUP1 ISZERO PUSH2 0x412 JUMPI PUSH1 0x0 DUP1 REVERT JUMPDEST POP PUSH2 0x42D PUSH1 0x4 DUP1 CALLDATASIZE SUB DUP2 ADD SWAP1 PUSH2 0x428 SWAP2 SWAP1 PUSH2 0x3734 JUMP JUMPDEST PUSH2 0x1148 JUMP JUMPDEST PUSH1 0x40 MLOAD PUSH2 0x43A SWAP2 SWAP1 PUSH2 0x3535 JUMP JUMPDEST PUSH1 0x40 MLOAD DUP1 SWAP2 SUB SWAP1 RETURN JUMPDEST CALLVALUE DUP1 ISZERO PUSH2 0x44F JUMPI PUSH1 0x0 DUP1 REVERT JUMPDEST POP PUSH2 0x458 PUSH2 0x1200 JUMP JUMPDEST STOP JUMPDEST CALLVALUE DUP1 ISZERO PUSH2 0x466 JUMPI PUSH1 0x0 DUP1 REVERT JUMPDEST POP PUSH2 0x481 PUSH1 0x4 DUP1 CALLDATASIZE SUB DUP2 ADD SWAP1 PUSH2 0x47C SWAP2 SWAP1 PUSH2 0x3431 JUMP JUMPDEST PUSH2 0x1214 JUMP JUMPDEST STOP JUMPDEST CALLVALUE DUP1 ISZERO PUSH2 0x48F JUMPI PUSH1 0x0 DUP1 REVERT JUMPDEST POP PUSH2 0x498 PUSH2 0x12F9 JUMP JUMPDEST PUSH1 0x40 MLOAD PUSH2 0x4A5 SWAP2 SWAP1 PUSH2 0x349F JUMP JUMPDEST PUSH1 0x40 MLOAD DUP1 SWAP2 SUB SWAP1 RETURN JUMPDEST CALLVALUE DUP1 ISZERO PUSH2 0x4BA JUMPI PUSH1 0x0 DUP1 REVERT JUMPDEST POP PUSH2 0x4C3 PUSH2 0x1323 JUMP JUMPDEST PUSH1 0x40 MLOAD PUSH2 0x4D0 SWAP2 SWAP1 PUSH2 0x33D9 JUMP JUMPDEST PUSH1 0x40 MLOAD DUP1 SWAP2 SUB SWAP1 RETURN JUMPDEST CALLVALUE DUP1 ISZERO PUSH2 0x4E5 JUMPI PUSH1 0x0 DUP1 REVERT JUMPDEST POP PUSH2 0x4EE PUSH2 0x13B5 JUMP JUMPDEST PUSH1 0x40 MLOAD PUSH2 0x4FB SWAP2 SWAP1 PUSH2 0x3535 JUMP JUMPDEST PUSH1 0x40 MLOAD DUP1 SWAP2 SUB SWAP1 RETURN JUMPDEST CALLVALUE DUP1 ISZERO PUSH2 0x510 JUMPI PUSH1 0x0 DUP1 REVERT JUMPDEST POP PUSH2 0x519 PUSH2 0x13C4 JUMP JUMPDEST PUSH1 0x40 MLOAD PUSH2 0x526 SWAP2 SWAP1 PUSH2 0x3535 JUMP JUMPDEST PUSH1 0x40 MLOAD DUP1 SWAP2 SUB SWAP1 RETURN JUMPDEST PUSH2 0x549 PUSH1 0x4 DUP1 CALLDATASIZE SUB DUP2 ADD SWAP1 PUSH2 0x544 SWAP2 SWAP1 PUSH2 0x3431 JUMP JUMPDEST PUSH2 0x13CA JUMP JUMPDEST STOP JUMPDEST CALLVALUE DUP1 ISZERO PUSH2 0x557 JUMPI PUSH1 0x0 DUP1 REVERT JUMPDEST POP PUSH2 0x572 PUSH1 0x4 DUP1 CALLDATASIZE SUB DUP2 ADD SWAP1 PUSH2 0x56D SWAP2 SWAP1 PUSH2 0x378D JUMP JUMPDEST PUSH2 0x1427 JUMP JUMPDEST STOP JUMPDEST CALLVALUE DUP1 ISZERO PUSH2 0x580 JUMPI PUSH1 0x0 DUP1 REVERT JUMPDEST POP PUSH2 0x589 PUSH2 0x1532 JUMP JUMPDEST PUSH1 0x40 MLOAD PUSH2 0x596 SWAP2 SWAP1 PUSH2 0x3535 JUMP JUMPDEST PUSH1 0x40 MLOAD DUP1 SWAP2 SUB SWAP1 RETURN JUMPDEST PUSH2 0x5B9 PUSH1 0x4 DUP1 CALLDATASIZE SUB DUP2 ADD SWAP1 PUSH2 0x5B4 SWAP2 SWAP1 PUSH2 0x3882 JUMP JUMPDEST PUSH2 0x1544 JUMP JUMPDEST STOP JUMPDEST CALLVALUE DUP1 ISZERO PUSH2 0x5C7 JUMPI PUSH1 0x0 DUP1 REVERT JUMPDEST POP PUSH2 0x5D0 PUSH2 0x15B7 JUMP JUMPDEST STOP JUMPDEST CALLVALUE DUP1 ISZERO PUSH2 0x5DE JUMPI PUSH1 0x0 DUP1 REVERT JUMPDEST POP PUSH2 0x5F9 PUSH1 0x4 DUP1 CALLDATASIZE SUB DUP2 ADD SWAP1 PUSH2 0x5F4 SWAP2 SWAP1 PUSH2 0x3431 JUMP JUMPDEST PUSH2 0x15EB JUMP JUMPDEST PUSH1 0x40 MLOAD PUSH2 0x606 SWAP2 SWAP1 PUSH2 0x33D9 JUMP JUMPDEST PUSH1 0x40 MLOAD DUP1 SWAP2 SUB SWAP1 RETURN JUMPDEST CALLVALUE DUP1 ISZERO PUSH2 0x61B JUMPI PUSH1 0x0 DUP1 REVERT JUMPDEST POP PUSH2 0x636 PUSH1 0x4 DUP1 CALLDATASIZE SUB DUP2 ADD SWAP1 PUSH2 0x631 SWAP2 SWAP1 PUSH2 0x3734 JUMP JUMPDEST PUSH2 0x169F JUMP JUMPDEST PUSH1 0x40 MLOAD PUSH2 0x643 SWAP2 SWAP1 PUSH2 0x3535 JUMP JUMPDEST PUSH1 0x40 MLOAD DUP1 SWAP2 SUB SWAP1 RETURN JUMPDEST CALLVALUE DUP1 ISZERO PUSH2 0x658 JUMPI PUSH1 0x0 DUP1 REVERT JUMPDEST POP PUSH2 0x673 PUSH1 0x4 DUP1 CALLDATASIZE SUB DUP2 ADD SWAP1 PUSH2 0x66E SWAP2 SWAP1 PUSH2 0x3960 JUMP JUMPDEST PUSH2 0x16E8 JUMP JUMPDEST STOP JUMPDEST CALLVALUE DUP1 ISZERO PUSH2 0x681 JUMPI PUSH1 0x0 DUP1 REVERT JUMPDEST POP PUSH2 0x69C PUSH1 0x4 DUP1 CALLDATASIZE SUB DUP2 ADD SWAP1 PUSH2 0x697 SWAP2 SWAP1 PUSH2 0x39C0 JUMP JUMPDEST PUSH2 0x1782 JUMP JUMPDEST PUSH1 0x40 MLOAD PUSH2 0x6A9 SWAP2 SWAP1 PUSH2 0x332E JUMP JUMPDEST PUSH1 0x40 MLOAD DUP1 SWAP2 SUB SWAP1 RETURN JUMPDEST CALLVALUE DUP1 ISZERO PUSH2 0x6BE JUMPI PUSH1 0x0 DUP1 REVERT JUMPDEST POP PUSH2 0x6D9 PUSH1 0x4 DUP1 CALLDATASIZE SUB DUP2 ADD SWAP1 PUSH2 0x6D4 SWAP2 SWAP1 PUSH2 0x3734 JUMP JUMPDEST PUSH2 0x1816 JUMP JUMPDEST STOP JUMPDEST PUSH1 0x0 PUSH4 0x1FFC9A7 PUSH1 0xE0 SHL DUP3 PUSH28 0xFFFFFFFFFFFFFFFFFFFFFFFFFFFFFFFFFFFFFFFFFFFFFFFFFFFFFFFF NOT AND EQ DUP1 PUSH2 0x736 JUMPI POP PUSH4 0x80AC58CD PUSH1 0xE0 SHL DUP3 PUSH28 0xFFFFFFFFFFFFFFFFFFFFFFFFFFFFFFFFFFFFFFFFFFFFFFFFFFFFFFFF NOT AND EQ JUMPDEST DUP1 PUSH2 0x766 JUMPI POP PUSH4 0x5B5E139F PUSH1 0xE0 SHL DUP3 PUSH28 0xFFFFFFFFFFFFFFFFFFFFFFFFFFFFFFFFFFFFFFFFFFFFFFFFFFFFFFFF NOT AND EQ JUMPDEST SWAP1 POP SWAP2 SWAP1 POP JUMP JUMPDEST PUSH1 0x60 PUSH1 0x2 DUP1 SLOAD PUSH2 0x77C SWAP1 PUSH2 0x3A2F JUMP JUMPDEST DUP1 PUSH1 0x1F ADD PUSH1 0x20 DUP1 SWAP2 DIV MUL PUSH1 0x20 ADD PUSH1 0x40 MLOAD SWAP1 DUP2 ADD PUSH1 0x40 MSTORE DUP1 SWAP3 SWAP2 SWAP1 DUP2 DUP2 MSTORE PUSH1 0x20 ADD DUP3 DUP1 SLOAD PUSH2 0x7A8 SWAP1 PUSH2 0x3A2F JUMP JUMPDEST DUP1 ISZERO PUSH2 0x7F5 JUMPI DUP1 PUSH1 0x1F LT PUSH2 0x7CA JUMPI PUSH2 0x100 DUP1 DUP4 SLOAD DIV MUL DUP4 MSTORE SWAP2 PUSH1 0x20 ADD SWAP2 PUSH2 0x7F5 JUMP JUMPDEST DUP3 ADD SWAP2 SWAP1 PUSH1 0x0 MSTORE PUSH1 0x20 PUSH1 0x0 KECCAK256 SWAP1 JUMPDEST DUP2 SLOAD DUP2 MSTORE SWAP1 PUSH1 0x1 ADD SWAP1 PUSH1 0x20 ADD DUP1 DUP4 GT PUSH2 0x7D8 JUMPI DUP3 SWAP1 SUB PUSH1 0x1F AND DUP3 ADD SWAP2 JUMPDEST POP POP POP POP POP SWAP1 POP SWAP1 JUMP JUMPDEST PUSH1 0x0 PUSH2 0x80A DUP3 PUSH2 0x1899 JUMP JUMPDEST PUSH2 0x840 JUMPI PUSH1 0x40 MLOAD PUSH32 0xCF4700E400000000000000000000000000000000000000000000000000000000 DUP2 MSTORE PUSH1 0x4 ADD PUSH1 0x40 MLOAD DUP1 SWAP2 SUB SWAP1 REVERT JUMPDEST PUSH1 0x6 PUSH1 0x0 DUP4 DUP2 MSTORE PUSH1 0x20 ADD SWAP1 DUP2 MSTORE PUSH1 0x20 ADD PUSH1 0x0 KECCAK256 PUSH1 0x0 ADD PUSH1 0x0 SWAP1 SLOAD SWAP1 PUSH2 0x100 EXP SWAP1 DIV PUSH20 0xFFFFFFFFFFFFFFFFFFFFFFFFFFFFFFFFFFFFFFFF AND SWAP1 POP SWAP2 SWAP1 POP JUMP JUMPDEST PUSH1 0x0 PUSH2 0x889 DUP3 PUSH2 0x1136 JUMP JUMPDEST SWAP1 POP DUP1 PUSH20 0xFFFFFFFFFFFFFFFFFFFFFFFFFFFFFFFFFFFFFFFF AND PUSH2 0x8AA PUSH2 0x18F8 JUMP JUMPDEST PUSH20 0xFFFFFFFFFFFFFFFFFFFFFFFFFFFFFFFFFFFFFFFF AND EQ PUSH2 0x90D JUMPI PUSH2 0x8D6 DUP2 PUSH2 0x8D1 PUSH2 0x18F8 JUMP JUMPDEST PUSH2 0x1782 JUMP JUMPDEST PUSH2 0x90C JUMPI PUSH1 0x40 MLOAD PUSH32 0xCFB3B94200000000000000000000000000000000000000000000000000000000 DUP2 MSTORE PUSH1 0x4 ADD PUSH1 0x40 MLOAD DUP1 SWAP2 SUB SWAP1 REVERT JUMPDEST JUMPDEST DUP3 PUSH1 0x6 PUSH1 0x0 DUP5 DUP2 MSTORE PUSH1 0x20 ADD SWAP1 DUP2 MSTORE PUSH1 0x20 ADD PUSH1 0x0 KECCAK256 PUSH1 0x0 ADD PUSH1 0x0 PUSH2 0x100 EXP DUP2 SLOAD DUP2 PUSH20 0xFFFFFFFFFFFFFFFFFFFFFFFFFFFFFFFFFFFFFFFF MUL NOT AND SWAP1 DUP4 PUSH20 0xFFFFFFFFFFFFFFFFFFFFFFFFFFFFFFFFFFFFFFFF AND MUL OR SWAP1 SSTORE POP DUP2 DUP4 PUSH20 0xFFFFFFFFFFFFFFFFFFFFFFFFFFFFFFFFFFFFFFFF AND DUP3 PUSH20 0xFFFFFFFFFFFFFFFFFFFFFFFFFFFFFFFFFFFFFFFF AND PUSH32 0x8C5BE1E5EBEC7D5BD14F71427D1E84F3DD0314C0F7B2291E5B200AC8C7C3B925 PUSH1 0x40 MLOAD PUSH1 0x40 MLOAD DUP1 SWAP2 SUB SWAP1 LOG4 POP POP POP JUMP JUMPDEST PUSH1 0x0 PUSH2 0x9CD DUP3 PUSH2 0x1899 JUMP JUMPDEST PUSH2 0x9DA JUMPI PUSH1 0x0 SWAP1 POP PUSH2 0xA1D JUMP JUMPDEST PUSH1 0x0 PUSH1 0xC PUSH1 0x0 DUP5 DUP2 MSTORE PUSH1 0x20 ADD SWAP1 DUP2 MSTORE PUSH1 0x20 ADD PUSH1 0x0 KECCAK256 SLOAD GT ISZERO PUSH2 0xA11 JUMPI PUSH1 0xC PUSH1 0x0 DUP4 DUP2 MSTORE PUSH1 0x20 ADD SWAP1 DUP2 MSTORE PUSH1 0x20 ADD PUSH1 0x0 KECCAK256 SLOAD SWAP1 POP PUSH2 0xA1D JUMP JUMPDEST PUSH2 0xA1A DUP3 PUSH2 0x1900 JUMP JUMPDEST SWAP1 POP JUMPDEST SWAP2 SWAP1 POP JUMP JUMPDEST PUSH1 0x0 PUSH2 0xA2C PUSH2 0x1A41 JUMP JUMPDEST PUSH1 0x1 SLOAD PUSH1 0x0 SLOAD SUB SUB SWAP1 POP SWAP1 JUMP JUMPDEST PUSH1 0xB SLOAD DUP2 JUMP JUMPDEST PUSH1 0x0 PUSH2 0xA4A DUP3 PUSH2 0x1A4A JUMP JUMPDEST SWAP1 POP DUP4 PUSH20 0xFFFFFFFFFFFFFFFFFFFFFFFFFFFFFFFFFFFFFFFF AND DUP2 PUSH20 0xFFFFFFFFFFFFFFFFFFFFFFFFFFFFFFFFFFFFFFFF AND EQ PUSH2 0xAB1 JUMPI PUSH1 0x40 MLOAD PUSH32 0xA114810000000000000000000000000000000000000000000000000000000000 DUP2 MSTORE PUSH1 0x4 ADD PUSH1 0x40 MLOAD DUP1 SWAP2 SUB SWAP1 REVERT JUMPDEST PUSH1 0x0 DUP1 PUSH2 0xABD DUP5 PUSH2 0x1B16 JUMP JUMPDEST SWAP2 POP SWAP2 POP PUSH2 0xAD3 DUP2 DUP8 PUSH2 0xACE PUSH2 0x18F8 JUMP JUMPDEST PUSH2 0x1B3D JUMP JUMPDEST PUSH2 0xB1F JUMPI PUSH2 0xAE8 DUP7 PUSH2 0xAE3 PUSH2 0x18F8 JUMP JUMPDEST PUSH2 0x1782 JUMP JUMPDEST PUSH2 0xB1E JUMPI PUSH1 0x40 MLOAD PUSH32 0x59C896BE00000000000000000000000000000000000000000000000000000000 DUP2 MSTORE PUSH1 0x4 ADD PUSH1 0x40 MLOAD DUP1 SWAP2 SUB SWAP1 REVERT JUMPDEST JUMPDEST PUSH1 0x0 PUSH20 0xFFFFFFFFFFFFFFFFFFFFFFFFFFFFFFFFFFFFFFFF AND DUP6 PUSH20 0xFFFFFFFFFFFFFFFFFFFFFFFFFFFFFFFFFFFFFFFF AND SUB PUSH2 0xB85 JUMPI PUSH1 0x40 MLOAD PUSH32 0xEA553B3400000000000000000000000000000000000000000000000000000000 DUP2 MSTORE PUSH1 0x4 ADD PUSH1 0x40 MLOAD DUP1 SWAP2 SUB SWAP1 REVERT JUMPDEST PUSH2 0xB92 DUP7 DUP7 DUP7 PUSH1 0x1 PUSH2 0x1B81 JUMP JUMPDEST DUP1 ISZERO PUSH2 0xB9D JUMPI PUSH1 0x0 DUP3 SSTORE JUMPDEST PUSH1 0x5 PUSH1 0x0 DUP8 PUSH20 0xFFFFFFFFFFFFFFFFFFFFFFFFFFFFFFFFFFFFFFFF AND PUSH20 0xFFFFFFFFFFFFFFFFFFFFFFFFFFFFFFFFFFFFFFFF AND DUP2 MSTORE PUSH1 0x20 ADD SWAP1 DUP2 MSTORE PUSH1 0x20 ADD PUSH1 0x0 KECCAK256 PUSH1 0x0 DUP2 SLOAD PUSH1 0x1 SWAP1 SUB SWAP2 SWAP1 POP DUP2 SWAP1 SSTORE POP PUSH1 0x5 PUSH1 0x0 DUP7 PUSH20 0xFFFFFFFFFFFFFFFFFFFFFFFFFFFFFFFFFFFFFFFF AND PUSH20 0xFFFFFFFFFFFFFFFFFFFFFFFFFFFFFFFFFFFFFFFF AND DUP2 MSTORE PUSH1 0x20 ADD SWAP1 DUP2 MSTORE PUSH1 0x20 ADD PUSH1 0x0 KECCAK256 PUSH1 0x0 DUP2 SLOAD PUSH1 0x1 ADD SWAP2 SWAP1 POP DUP2 SWAP1 SSTORE POP PUSH2 0xC6B DUP6 PUSH2 0xC47 DUP9 DUP9 DUP8 PUSH2 0x1B87 JUMP JUMPDEST PUSH29 0x200000000000000000000000000000000000000000000000000000000 OR PUSH2 0x1BAF JUMP JUMPDEST PUSH1 0x4 PUSH1 0x0 DUP7 DUP2 MSTORE PUSH1 0x20 ADD SWAP1 DUP2 MSTORE PUSH1 0x20 ADD PUSH1 0x0 KECCAK256 DUP2 SWAP1 SSTORE POP PUSH1 0x0 PUSH29 0x200000000000000000000000000000000000000000000000000000000 DUP5 AND SUB PUSH2 0xCF1 JUMPI PUSH1 0x0 PUSH1 0x1 DUP6 ADD SWAP1 POP PUSH1 0x0 PUSH1 0x4 PUSH1 0x0 DUP4 DUP2 MSTORE PUSH1 0x20 ADD SWAP1 DUP2 MSTORE PUSH1 0x20 ADD PUSH1 0x0 KECCAK256 SLOAD SUB PUSH2 0xCEF JUMPI PUSH1 0x0 SLOAD DUP2 EQ PUSH2 0xCEE JUMPI DUP4 PUSH1 0x4 PUSH1 0x0 DUP4 DUP2 MSTORE PUSH1 0x20 ADD SWAP1 DUP2 MSTORE PUSH1 0x20 ADD PUSH1 0x0 KECCAK256 DUP2 SWAP1 SSTORE POP JUMPDEST JUMPDEST POP JUMPDEST DUP4 DUP6 PUSH20 0xFFFFFFFFFFFFFFFFFFFFFFFFFFFFFFFFFFFFFFFF AND DUP8 PUSH20 0xFFFFFFFFFFFFFFFFFFFFFFFFFFFFFFFFFFFFFFFF AND PUSH32 0xDDF252AD1BE2C89B69C2B068FC378DAA952BA7F163C4A11628F55A4DF523B3EF PUSH1 0x40 MLOAD PUSH1 0x40 MLOAD DUP1 SWAP2 SUB SWAP1 LOG4 PUSH2 0xD59 DUP7 DUP7 DUP7 PUSH1 0x1 PUSH2 0x1BDA JUMP JUMPDEST POP POP POP POP POP POP JUMP JUMPDEST PUSH1 0xA PUSH1 0x0 SWAP1 SLOAD SWAP1 PUSH2 0x100 EXP SWAP1 DIV PUSH1 0xFF AND PUSH2 0xDB0 JUMPI PUSH1 0x40 MLOAD PUSH32 0x8C379A000000000000000000000000000000000000000000000000000000000 DUP2 MSTORE PUSH1 0x4 ADD PUSH2 0xDA7 SWAP1 PUSH2 0x3AAC JUMP JUMPDEST PUSH1 0x40 MLOAD DUP1 SWAP2 SUB SWAP1 REVERT JUMPDEST PUSH1 0x0 DUP1 PUSH1 0x0 SWAP1 POP JUMPDEST DUP3 MLOAD DUP2 LT ISZERO PUSH2 0xE94 JUMPI CALLER PUSH20 0xFFFFFFFFFFFFFFFFFFFFFFFFFFFFFFFFFFFFFFFF AND PUSH2 0xDFB DUP5 DUP4 DUP2 MLOAD DUP2 LT PUSH2 0xDEE JUMPI PUSH2 0xDED PUSH2 0x3ACC JUMP JUMPDEST JUMPDEST PUSH1 0x20 MUL PUSH1 0x20 ADD ADD MLOAD PUSH2 0x1136 JUMP JUMPDEST PUSH20 0xFFFFFFFFFFFFFFFFFFFFFFFFFFFFFFFFFFFFFFFF AND EQ PUSH2 0xE51 JUMPI PUSH1 0x40 MLOAD PUSH32 0x8C379A000000000000000000000000000000000000000000000000000000000 DUP2 MSTORE PUSH1 0x4 ADD PUSH2 0xE48 SWAP1 PUSH2 0x3B47 JUMP JUMPDEST PUSH1 0x40 MLOAD DUP1 SWAP2 SUB SWAP1 REVERT JUMPDEST PUSH2 0xE74 DUP4 DUP3 DUP2 MLOAD DUP2 LT PUSH2 0xE67 JUMPI PUSH2 0xE66 PUSH2 0x3ACC JUMP JUMPDEST JUMPDEST PUSH1 0x20 MUL PUSH1 0x20 ADD ADD MLOAD PUSH2 0x9C2 JUMP JUMPDEST DUP3 PUSH2 0xE7F SWAP2 SWAP1 PUSH2 0x3B96 JUMP JUMPDEST SWAP2 POP DUP1 DUP1 PUSH2 0xE8C SWAP1 PUSH2 0x3BCA JUMP JUMPDEST SWAP2 POP POP PUSH2 0xDB8 JUMP JUMPDEST POP PUSH2 0x270F DUP2 GT ISZERO PUSH2 0xEDA JUMPI PUSH1 0x40 MLOAD PUSH32 0x8C379A000000000000000000000000000000000000000000000000000000000 DUP2 MSTORE PUSH1 0x4 ADD PUSH2 0xED1 SWAP1 PUSH2 0x3C5E JUMP JUMPDEST PUSH1 0x40 MLOAD DUP1 SWAP2 SUB SWAP1 REVERT JUMPDEST PUSH1 0x0 PUSH1 0x1 SWAP1 POP JUMPDEST DUP3 MLOAD DUP2 LT ISZERO PUSH2 0xFD7 JUMPI PUSH2 0xF0D DUP4 DUP3 DUP2 MLOAD DUP2 LT PUSH2 0xF00 JUMPI PUSH2 0xEFF PUSH2 0x3ACC JUMP JUMPDEST JUMPDEST PUSH1 0x20 MUL PUSH1 0x20 ADD ADD MLOAD PUSH2 0x1BE0 JUMP JUMPDEST PUSH1 0x0 PUSH1 0xC PUSH1 0x0 DUP6 DUP5 DUP2 MLOAD DUP2 LT PUSH2 0xF26 JUMPI PUSH2 0xF25 PUSH2 0x3ACC JUMP JUMPDEST JUMPDEST PUSH1 0x20 MUL PUSH1 0x20 ADD ADD MLOAD DUP2 MSTORE PUSH1 0x20 ADD SWAP1 DUP2 MSTORE PUSH1 0x20 ADD PUSH1 0x0 KECCAK256 DUP2 SWAP1 SSTORE POP PUSH1 0x0 PUSH1 0xD PUSH1 0x0 DUP6 DUP5 DUP2 MLOAD DUP2 LT PUSH2 0xF59 JUMPI PUSH2 0xF58 PUSH2 0x3ACC JUMP JUMPDEST JUMPDEST PUSH1 0x20 MUL PUSH1 0x20 ADD ADD MLOAD DUP2 MSTORE PUSH1 0x20 ADD SWAP1 DUP2 MSTORE PUSH1 0x20 ADD PUSH1 0x0 KECCAK256 DUP2 SWAP1 SSTORE POP PUSH32 0xF8E1A15ABA9398E019F0B49DF1A4FDE98EE17AE345CB5F6B5E2C27F5033E8CE7 DUP4 DUP3 DUP2 MLOAD DUP2 LT PUSH2 0xFA7 JUMPI PUSH2 0xFA6 PUSH2 0x3ACC JUMP JUMPDEST JUMPDEST PUSH1 0x20 MUL PUSH1 0x20 ADD ADD MLOAD PUSH1 0x40 MLOAD PUSH2 0xFBC SWAP2 SWAP1 PUSH2 0x3535 JUMP JUMPDEST PUSH1 0x40 MLOAD DUP1 SWAP2 SUB SWAP1 LOG1 DUP1 DUP1 PUSH2 0xFCF SWAP1 PUSH2 0x3BCA JUMP JUMPDEST SWAP2 POP POP PUSH2 0xEE1 JUMP JUMPDEST POP DUP1 PUSH1 0xC PUSH1 0x0 DUP5 PUSH1 0x0 DUP2 MLOAD DUP2 LT PUSH2 0xFF1 JUMPI PUSH2 0xFF0 PUSH2 0x3ACC JUMP JUMPDEST JUMPDEST PUSH1 0x20 MUL PUSH1 0x20 ADD ADD MLOAD DUP2 MSTORE PUSH1 0x20 ADD SWAP1 DUP2 MSTORE PUSH1 0x20 ADD PUSH1 0x0 KECCAK256 DUP2 SWAP1 SSTORE POP PUSH2 0x1033 DUP3 PUSH1 0x0 DUP2 MLOAD DUP2 LT PUSH2 0x1022 JUMPI PUSH2 0x1021 PUSH2 0x3ACC JUMP JUMPDEST JUMPDEST PUSH1 0x20 MUL PUSH1 0x20 ADD ADD MLOAD PUSH1 0x1 PUSH1 0x4 PUSH2 0x1BEE JUMP JUMPDEST PUSH1 0xD PUSH1 0x0 DUP5 PUSH1 0x0 DUP2 MLOAD DUP2 LT PUSH2 0x104B JUMPI PUSH2 0x104A PUSH2 0x3ACC JUMP JUMPDEST JUMPDEST PUSH1 0x20 MUL PUSH1 0x20 ADD ADD MLOAD DUP2 MSTORE PUSH1 0x20 ADD SWAP1 DUP2 MSTORE PUSH1 0x20 ADD PUSH1 0x0 KECCAK256 DUP2 SWAP1 SSTORE POP PUSH32 0xF8E1A15ABA9398E019F0B49DF1A4FDE98EE17AE345CB5F6B5E2C27F5033E8CE7 DUP3 PUSH1 0x0 DUP2 MLOAD DUP2 LT PUSH2 0x109A JUMPI PUSH2 0x1099 PUSH2 0x3ACC JUMP JUMPDEST JUMPDEST PUSH1 0x20 MUL PUSH1 0x20 ADD ADD MLOAD PUSH1 0x40 MLOAD PUSH2 0x10AF SWAP2 SWAP1 PUSH2 0x3535 JUMP JUMPDEST PUSH1 0x40 MLOAD DUP1 SWAP2 SUB SWAP1 LOG1 POP POP JUMP JUMPDEST PUSH1 0xA PUSH1 0x0 SWAP1 SLOAD SWAP1 PUSH2 0x100 EXP SWAP1 DIV PUSH1 0xFF AND DUP2 JUMP JUMPDEST PUSH2 0x10D6 PUSH2 0x1C62 JUMP JUMPDEST CALLER PUSH20 0xFFFFFFFFFFFFFFFFFFFFFFFFFFFFFFFFFFFFFFFF AND PUSH2 0x8FC SELFBALANCE SWAP1 DUP2 ISZERO MUL SWAP1 PUSH1 0x40 MLOAD PUSH1 0x0 PUSH1 0x40 MLOAD DUP1 DUP4 SUB DUP2 DUP6 DUP9 DUP9 CALL SWAP4 POP POP POP POP PUSH2 0x1114 JUMPI PUSH1 0x0 DUP1 REVERT JUMPDEST JUMP JUMPDEST PUSH2 0x1131 DUP4 DUP4 DUP4 PUSH1 0x40 MLOAD DUP1 PUSH1 0x20 ADD PUSH1 0x40 MSTORE DUP1 PUSH1 0x0 DUP2 MSTORE POP PUSH2 0x1544 JUMP JUMPDEST POP POP POP JUMP JUMPDEST PUSH1 0x0 PUSH2 0x1141 DUP3 PUSH2 0x1A4A JUMP JUMPDEST SWAP1 POP SWAP2 SWAP1 POP JUMP JUMPDEST PUSH1 0x0 DUP1 PUSH20 0xFFFFFFFFFFFFFFFFFFFFFFFFFFFFFFFFFFFFFFFF AND DUP3 PUSH20 0xFFFFFFFFFFFFFFFFFFFFFFFFFFFFFFFFFFFFFFFF AND SUB PUSH2 0x11AF JUMPI PUSH1 0x40 MLOAD PUSH32 0x8F4EB60400000000000000000000000000000000000000000000000000000000 DUP2 MSTORE PUSH1 0x4 ADD PUSH1 0x40 MLOAD DUP1 SWAP2 SUB SWAP1 REVERT JUMPDEST PUSH8 0xFFFFFFFFFFFFFFFF PUSH1 0x5 PUSH1 0x0 DUP5 PUSH20 0xFFFFFFFFFFFFFFFFFFFFFFFFFFFFFFFFFFFFFFFF AND PUSH20 0xFFFFFFFFFFFFFFFFFFFFFFFFFFFFFFFFFFFFFFFF AND DUP2 MSTORE PUSH1 0x20 ADD SWAP1 DUP2 MSTORE PUSH1 0x20 ADD PUSH1 0x0 KECCAK256 SLOAD AND SWAP1 POP SWAP2 SWAP1 POP JUMP JUMPDEST PUSH2 0x1208 PUSH2 0x1C62 JUMP JUMPDEST PUSH2 0x1212 PUSH1 0x0 PUSH2 0x1CE0 JUMP JUMPDEST JUMP JUMPDEST PUSH1 0xE PUSH1 0x0 CALLER PUSH20 0xFFFFFFFFFFFFFFFFFFFFFFFFFFFFFFFFFFFFFFFF AND PUSH20 0xFFFFFFFFFFFFFFFFFFFFFFFFFFFFFFFFFFFFFFFF AND DUP2 MSTORE PUSH1 0x20 ADD SWAP1 DUP2 MSTORE PUSH1 0x20 ADD PUSH1 0x0 KECCAK256 SLOAD DUP2 GT ISZERO PUSH2 0x1296 JUMPI PUSH1 0x40 MLOAD PUSH32 0x8C379A000000000000000000000000000000000000000000000000000000000 DUP2 MSTORE PUSH1 0x4 ADD PUSH2 0x128D SWAP1 PUSH2 0x3CCA JUMP JUMPDEST PUSH1 0x40 MLOAD DUP1 SWAP2 SUB SWAP1 REVERT JUMPDEST PUSH2 0x12A0 CALLER DUP3 PUSH2 0x1DA6 JUMP JUMPDEST DUP1 PUSH1 0xE PUSH1 0x0 CALLER PUSH20 0xFFFFFFFFFFFFFFFFFFFFFFFFFFFFFFFFFFFFFFFF AND PUSH20 0xFFFFFFFFFFFFFFFFFFFFFFFFFFFFFFFFFFFFFFFF AND DUP2 MSTORE PUSH1 0x20 ADD SWAP1 DUP2 MSTORE PUSH1 0x20 ADD PUSH1 0x0 KECCAK256 PUSH1 0x0 DUP3 DUP3 SLOAD PUSH2 0x12EF SWAP2 SWAP1 PUSH2 0x3CEA JUMP JUMPDEST SWAP3 POP POP DUP2 SWAP1 SSTORE POP POP JUMP JUMPDEST PUSH1 0x0 PUSH1 0x8 PUSH1 0x0 SWAP1 SLOAD SWAP1 PUSH2 0x100 EXP SWAP1 DIV PUSH20 0xFFFFFFFFFFFFFFFFFFFFFFFFFFFFFFFFFFFFFFFF AND SWAP1 POP SWAP1 JUMP JUMPDEST PUSH1 0x60 PUSH1 0x3 DUP1 SLOAD PUSH2 0x1332 SWAP1 PUSH2 0x3A2F JUMP JUMPDEST DUP1 PUSH1 0x1F ADD PUSH1 0x20 DUP1 SWAP2 DIV MUL PUSH1 0x20 ADD PUSH1 0x40 MLOAD SWAP1 DUP2 ADD PUSH1 0x40 MSTORE DUP1 SWAP3 SWAP2 SWAP1 DUP2 DUP2 MSTORE PUSH1 0x20 ADD DUP3 DUP1 SLOAD PUSH2 0x135E SWAP1 PUSH2 0x3A2F JUMP JUMPDEST DUP1 ISZERO PUSH2 0x13AB JUMPI DUP1 PUSH1 0x1F LT PUSH2 0x1380 JUMPI PUSH2 0x100 DUP1 DUP4 SLOAD DIV MUL DUP4 MSTORE SWAP2 PUSH1 0x20 ADD SWAP2 PUSH2 0x13AB JUMP JUMPDEST DUP3 ADD SWAP2 SWAP1 PUSH1 0x0 MSTORE PUSH1 0x20 PUSH1 0x0 KECCAK256 SWAP1 JUMPDEST DUP2 SLOAD DUP2 MSTORE SWAP1 PUSH1 0x1 ADD SWAP1 PUSH1 0x20 ADD DUP1 DUP4 GT PUSH2 0x138E JUMPI DUP3 SWAP1 SUB PUSH1 0x1F AND DUP3 ADD SWAP2 JUMPDEST POP POP POP POP POP SWAP1 POP SWAP1 JUMP JUMPDEST PUSH1 0x0 PUSH2 0x13BF PUSH2 0x1EF2 JUMP JUMPDEST SWAP1 POP SWAP1 JUMP JUMPDEST PUSH1 0x9 SLOAD DUP2 JUMP JUMPDEST PUSH1 0x9 SLOAD DUP2 PUSH2 0x13D8 SWAP2 SWAP1 PUSH2 0x3D1E JUMP JUMPDEST CALLVALUE LT ISZERO PUSH2 0x141A JUMPI PUSH1 0x40 MLOAD PUSH32 0x8C379A000000000000000000000000000000000000000000000000000000000 DUP2 MSTORE PUSH1 0x4 ADD PUSH2 0x1411 SWAP1 PUSH2 0x3DAC JUMP JUMPDEST PUSH1 0x40 MLOAD DUP1 SWAP2 SUB SWAP1 REVERT JUMPDEST PUSH2 0x1424 CALLER DUP3 PUSH2 0x1DA6 JUMP JUMPDEST POP JUMP JUMPDEST DUP1 PUSH1 0x7 PUSH1 0x0 PUSH2 0x1434 PUSH2 0x18F8 JUMP JUMPDEST PUSH20 0xFFFFFFFFFFFFFFFFFFFFFFFFFFFFFFFFFFFFFFFF AND PUSH20 0xFFFFFFFFFFFFFFFFFFFFFFFFFFFFFFFFFFFFFFFF AND DUP2 MSTORE PUSH1 0x20 ADD SWAP1 DUP2 MSTORE PUSH1 0x20 ADD PUSH1 0x0 KECCAK256 PUSH1 0x0 DUP5 PUSH20 0xFFFFFFFFFFFFFFFFFFFFFFFFFFFFFFFFFFFFFFFF AND PUSH20 0xFFFFFFFFFFFFFFFFFFFFFFFFFFFFFFFFFFFFFFFF AND DUP2 MSTORE PUSH1 0x20 ADD SWAP1 DUP2 MSTORE PUSH1 0x20 ADD PUSH1 0x0 KECCAK256 PUSH1 0x0 PUSH2 0x100 EXP DUP2 SLOAD DUP2 PUSH1 0xFF MUL NOT AND SWAP1 DUP4 ISZERO ISZERO MUL OR SWAP1 SSTORE POP DUP2 PUSH20 0xFFFFFFFFFFFFFFFFFFFFFFFFFFFFFFFFFFFFFFFF AND PUSH2 0x14E1 PUSH2 0x18F8 JUMP JUMPDEST PUSH20 0xFFFFFFFFFFFFFFFFFFFFFFFFFFFFFFFFFFFFFFFF AND PUSH32 0x17307EAB39AB6107E8899845AD3D59BD9653F200F220920489CA2B5937696C31 DUP4 PUSH1 0x40 MLOAD PUSH2 0x1526 SWAP2 SWAP1 PUSH2 0x332E JUMP JUMPDEST PUSH1 0x40 MLOAD DUP1 SWAP2 SUB SWAP1 LOG3 POP POP JUMP JUMPDEST PUSH1 0x0 PUSH2 0x153F PUSH1 0xB SLOAD PUSH2 0x1F05 JUMP JUMPDEST SWAP1 POP SWAP1 JUMP JUMPDEST PUSH2 0x154F DUP5 DUP5 DUP5 PUSH2 0xA3F JUMP JUMPDEST PUSH1 0x0 DUP4 PUSH20 0xFFFFFFFFFFFFFFFFFFFFFFFFFFFFFFFFFFFFFFFF AND EXTCODESIZE EQ PUSH2 0x15B1 JUMPI PUSH2 0x157A DUP5 DUP5 DUP5 DUP5 PUSH2 0x1F40 JUMP JUMPDEST PUSH2 0x15B0 JUMPI PUSH1 0x40 MLOAD PUSH32 0xD1A57ED600000000000000000000000000000000000000000000000000000000 DUP2 MSTORE PUSH1 0x4 ADD PUSH1 0x40 MLOAD DUP1 SWAP2 SUB SWAP1 REVERT JUMPDEST JUMPDEST POP POP POP POP JUMP JUMPDEST PUSH2 0x15BF PUSH2 0x1C62 JUMP JUMPDEST PUSH1 0xA PUSH1 0x0 SWAP1 SLOAD SWAP1 PUSH2 0x100 EXP SWAP1 DIV PUSH1 0xFF AND ISZERO PUSH1 0xA PUSH1 0x0 PUSH2 0x100 EXP DUP2 SLOAD DUP2 PUSH1 0xFF MUL NOT AND SWAP1 DUP4 ISZERO ISZERO MUL OR SWAP1 SSTORE POP JUMP JUMPDEST PUSH1 0x60 PUSH1 0x0 DUP1 PUSH1 0x0 PUSH1 0xC PUSH1 0x0 DUP7 DUP2 MSTORE PUSH1 0x20 ADD SWAP1 DUP2 MSTORE PUSH1 0x20 ADD PUSH1 0x0 KECCAK256 SLOAD GT ISZERO PUSH2 0x162B JUMPI PUSH1 0xC PUSH1 0x0 DUP6 DUP2 MSTORE PUSH1 0x20 ADD SWAP1 DUP2 MSTORE PUSH1 0x20 ADD PUSH1 0x0 KECCAK256 SLOAD SWAP1 POP PUSH1 0x0 SWAP2 POP PUSH2 0x1677 JUMP JUMPDEST PUSH1 0x0 PUSH1 0xC PUSH1 0x0 DUP7 DUP2 MSTORE PUSH1 0x20 ADD SWAP1 DUP2 MSTORE PUSH1 0x20 ADD PUSH1 0x0 KECCAK256 SLOAD EQ DUP1 ISZERO PUSH2 0x1654 JUMPI POP PUSH2 0x1652 DUP5 PUSH2 0x1899 JUMP JUMPDEST ISZERO JUMPDEST ISZERO PUSH2 0x1666 JUMPI PUSH1 0x0 SWAP1 POP PUSH1 0x1 SWAP2 POP PUSH2 0x1676 JUMP JUMPDEST PUSH2 0x166F DUP5 PUSH2 0x1900 JUMP JUMPDEST SWAP1 POP PUSH1 0x0 SWAP2 POP JUMPDEST JUMPDEST PUSH2 0x1696 DUP5 DUP3 PUSH1 0xD PUSH1 0x0 DUP9 DUP2 MSTORE PUSH1 0x20 ADD SWAP1 DUP2 MSTORE PUSH1 0x20 ADD PUSH1 0x0 KECCAK256 SLOAD DUP6 PUSH2 0x2090 JUMP JUMPDEST SWAP3 POP POP POP SWAP2 SWAP1 POP JUMP JUMPDEST PUSH1 0x0 PUSH1 0xE PUSH1 0x0 DUP4 PUSH20 0xFFFFFFFFFFFFFFFFFFFFFFFFFFFFFFFFFFFFFFFF AND PUSH20 0xFFFFFFFFFFFFFFFFFFFFFFFFFFFFFFFFFFFFFFFF AND DUP2 MSTORE PUSH1 0x20 ADD SWAP1 DUP2 MSTORE PUSH1 0x20 ADD PUSH1 0x0 KECCAK256 SLOAD SWAP1 POP SWAP2 SWAP1 POP JUMP JUMPDEST PUSH2 0x16F0 PUSH2 0x1C62 JUMP JUMPDEST PUSH1 0x0 JUMPDEST DUP4 DUP4 SWAP1 POP DUP2 LT ISZERO PUSH2 0x177C JUMPI DUP2 PUSH1 0xE PUSH1 0x0 DUP7 DUP7 DUP6 DUP2 DUP2 LT PUSH2 0x1716 JUMPI PUSH2 0x1715 PUSH2 0x3ACC JUMP JUMPDEST JUMPDEST SWAP1 POP PUSH1 0x20 MUL ADD PUSH1 0x20 DUP2 ADD SWAP1 PUSH2 0x172B SWAP2 SWAP1 PUSH2 0x3734 JUMP JUMPDEST PUSH20 0xFFFFFFFFFFFFFFFFFFFFFFFFFFFFFFFFFFFFFFFF AND PUSH20 0xFFFFFFFFFFFFFFFFFFFFFFFFFFFFFFFFFFFFFFFF AND DUP2 MSTORE PUSH1 0x20 ADD SWAP1 DUP2 MSTORE PUSH1 0x20 ADD PUSH1 0x0 KECCAK256 DUP2 SWAP1 SSTORE POP DUP1 DUP1 PUSH2 0x1774 SWAP1 PUSH2 0x3BCA JUMP JUMPDEST SWAP2 POP POP PUSH2 0x16F3 JUMP JUMPDEST POP POP POP POP JUMP JUMPDEST PUSH1 0x0 PUSH1 0x7 PUSH1 0x0 DUP5 PUSH20 0xFFFFFFFFFFFFFFFFFFFFFFFFFFFFFFFFFFFFFFFF AND PUSH20 0xFFFFFFFFFFFFFFFFFFFFFFFFFFFFFFFFFFFFFFFF AND DUP2 MSTORE PUSH1 0x20 ADD SWAP1 DUP2 MSTORE PUSH1 0x20 ADD PUSH1 0x0 KECCAK256 PUSH1 0x0 DUP4 PUSH20 0xFFFFFFFFFFFFFFFFFFFFFFFFFFFFFFFFFFFFFFFF AND PUSH20 0xFFFFFFFFFFFFFFFFFFFFFFFFFFFFFFFFFFFFFFFF AND DUP2 MSTORE PUSH1 0x20 ADD SWAP1 DUP2 MSTORE PUSH1 0x20 ADD PUSH1 0x0 KECCAK256 PUSH1 0x0 SWAP1 SLOAD SWAP1 PUSH2 0x100 EXP SWAP1 DIV PUSH1 0xFF AND SWAP1 POP SWAP3 SWAP2 POP POP JUMP JUMPDEST PUSH2 0x181E PUSH2 0x1C62 JUMP JUMPDEST PUSH1 0x0 PUSH20 0xFFFFFFFFFFFFFFFFFFFFFFFFFFFFFFFFFFFFFFFF AND DUP2 PUSH20 0xFFFFFFFFFFFFFFFFFFFFFFFFFFFFFFFFFFFFFFFF AND SUB PUSH2 0x188D JUMPI PUSH1 0x40 MLOAD PUSH32 0x8C379A000000000000000000000000000000000000000000000000000000000 DUP2 MSTORE PUSH1 0x4 ADD PUSH2 0x1884 SWAP1 PUSH2 0x3E3E JUMP JUMPDEST PUSH1 0x40 MLOAD DUP1 SWAP2 SUB SWAP1 REVERT JUMPDEST PUSH2 0x1896 DUP2 PUSH2 0x1CE0 JUMP JUMPDEST POP JUMP JUMPDEST PUSH1 0x0 DUP2 PUSH2 0x18A4 PUSH2 0x1A41 JUMP JUMPDEST GT ISZERO DUP1 ISZERO PUSH2 0x18B3 JUMPI POP PUSH1 0x0 SLOAD DUP3 LT JUMPDEST DUP1 ISZERO PUSH2 0x18F1 JUMPI POP PUSH1 0x0 PUSH29 0x100000000000000000000000000000000000000000000000000000000 PUSH1 0x4 PUSH1 0x0 DUP6 DUP2 MSTORE PUSH1 0x20 ADD SWAP1 DUP2 MSTORE PUSH1 0x20 ADD PUSH1 0x0 KECCAK256 SLOAD AND EQ JUMPDEST SWAP1 POP SWAP2 SWAP1 POP JUMP JUMPDEST PUSH1 0x0 CALLER SWAP1 POP SWAP1 JUMP JUMPDEST PUSH1 0x0 PUSH2 0x3E8 DUP3 LT ISZERO PUSH2 0x1920 JUMPI PUSH2 0x1919 DUP3 PUSH1 0x1 PUSH1 0x33 PUSH2 0x1BEE JUMP JUMPDEST SWAP1 POP PUSH2 0x1A3C JUMP JUMPDEST PUSH2 0x7D0 DUP3 LT ISZERO PUSH2 0x193E JUMPI PUSH2 0x1937 DUP3 PUSH1 0x1 PUSH1 0x2E PUSH2 0x1BEE JUMP JUMPDEST SWAP1 POP PUSH2 0x1A3B JUMP JUMPDEST PUSH2 0xBB8 DUP3 LT ISZERO PUSH2 0x195C JUMPI PUSH2 0x1955 DUP3 PUSH1 0x1 PUSH1 0x29 PUSH2 0x1BEE JUMP JUMPDEST SWAP1 POP PUSH2 0x1A3A JUMP JUMPDEST PUSH2 0xFA0 DUP3 LT ISZERO PUSH2 0x197A JUMPI PUSH2 0x1973 DUP3 PUSH1 0x1 PUSH1 0x24 PUSH2 0x1BEE JUMP JUMPDEST SWAP1 POP PUSH2 0x1A39 JUMP JUMPDEST PUSH2 0x1388 DUP3 LT ISZERO PUSH2 0x1998 JUMPI PUSH2 0x1991 DUP3 PUSH1 0x1 PUSH1 0x1F PUSH2 0x1BEE JUMP JUMPDEST SWAP1 POP PUSH2 0x1A38 JUMP JUMPDEST PUSH2 0x1770 DUP3 LT ISZERO PUSH2 0x19B6 JUMPI PUSH2 0x19AF DUP3 PUSH1 0x1 PUSH1 0x1A PUSH2 0x1BEE JUMP JUMPDEST SWAP1 POP PUSH2 0x1A37 JUMP JUMPDEST PUSH2 0x1B58 DUP3 LT ISZERO PUSH2 0x19D4 JUMPI PUSH2 0x19CD DUP3 PUSH1 0x1 PUSH1 0x15 PUSH2 0x1BEE JUMP JUMPDEST SWAP1 POP PUSH2 0x1A36 JUMP JUMPDEST PUSH2 0x1F40 DUP3 LT ISZERO PUSH2 0x19F2 JUMPI PUSH2 0x19EB DUP3 PUSH1 0x1 PUSH1 0x10 PUSH2 0x1BEE JUMP JUMPDEST SWAP1 POP PUSH2 0x1A35 JUMP JUMPDEST PUSH2 0x2328 DUP3 LT ISZERO PUSH2 0x1A10 JUMPI PUSH2 0x1A09 DUP3 PUSH1 0x1 PUSH1 0xB PUSH2 0x1BEE JUMP JUMPDEST SWAP1 POP PUSH2 0x1A34 JUMP JUMPDEST PUSH2 0x2710 DUP3 LT ISZERO PUSH2 0x1A2E JUMPI PUSH2 0x1A27 DUP3 PUSH1 0x1 PUSH1 0x6 PUSH2 0x1BEE JUMP JUMPDEST SWAP1 POP PUSH2 0x1A33 JUMP JUMPDEST PUSH1 0x1 SWAP1 POP JUMPDEST JUMPDEST JUMPDEST JUMPDEST JUMPDEST JUMPDEST JUMPDEST JUMPDEST JUMPDEST JUMPDEST SWAP2 SWAP1 POP JUMP JUMPDEST PUSH1 0x0 PUSH1 0x1 SWAP1 POP SWAP1 JUMP JUMPDEST PUSH1 0x0 DUP1 DUP3 SWAP1 POP DUP1 PUSH2 0x1A59 PUSH2 0x1A41 JUMP JUMPDEST GT PUSH2 0x1ADF JUMPI PUSH1 0x0 SLOAD DUP2 LT ISZERO PUSH2 0x1ADE JUMPI PUSH1 0x0 PUSH1 0x4 PUSH1 0x0 DUP4 DUP2 MSTORE PUSH1 0x20 ADD SWAP1 DUP2 MSTORE PUSH1 0x20 ADD PUSH1 0x0 KECCAK256 SLOAD SWAP1 POP PUSH1 0x0 PUSH29 0x100000000000000000000000000000000000000000000000000000000 DUP3 AND SUB PUSH2 0x1ADC JUMPI JUMPDEST PUSH1 0x0 DUP2 SUB PUSH2 0x1AD2 JUMPI PUSH1 0x4 PUSH1 0x0 DUP4 PUSH1 0x1 SWAP1 SUB SWAP4 POP DUP4 DUP2 MSTORE PUSH1 0x20 ADD SWAP1 DUP2 MSTORE PUSH1 0x20 ADD PUSH1 0x0 KECCAK256 SLOAD SWAP1 POP PUSH2 0x1AA8 JUMP JUMPDEST DUP1 SWAP3 POP POP POP PUSH2 0x1B11 JUMP JUMPDEST POP JUMPDEST JUMPDEST PUSH1 0x40 MLOAD PUSH32 0xDF2D9B4200000000000000000000000000000000000000000000000000000000 DUP2 MSTORE PUSH1 0x4 ADD PUSH1 0x40 MLOAD DUP1 SWAP2 SUB SWAP1 REVERT JUMPDEST SWAP2 SWAP1 POP JUMP JUMPDEST PUSH1 0x0 DUP1 PUSH1 0x0 PUSH1 0x6 PUSH1 0x0 DUP6 DUP2 MSTORE PUSH1 0x20 ADD SWAP1 DUP2 MSTORE PUSH1 0x20 ADD PUSH1 0x0 KECCAK256 SWAP1 POP DUP1 SWAP3 POP DUP3 SLOAD SWAP2 POP POP SWAP2 POP SWAP2 JUMP JUMPDEST PUSH1 0x0 PUSH20 0xFFFFFFFFFFFFFFFFFFFFFFFFFFFFFFFFFFFFFFFF DUP4 AND SWAP3 POP PUSH20 0xFFFFFFFFFFFFFFFFFFFFFFFFFFFFFFFFFFFFFFFF DUP3 AND SWAP2 POP DUP4 DUP3 EQ DUP4 DUP4 EQ OR SWAP1 POP SWAP4 SWAP3 POP POP POP JUMP JUMPDEST POP POP POP POP JUMP JUMPDEST PUSH1 0x0 DUP1 PUSH1 0xE8 DUP4 SWAP1 SHR SWAP1 POP PUSH1 0xE8 PUSH2 0x1B9E DUP7 DUP7 DUP5 PUSH2 0x21E8 JUMP JUMPDEST PUSH3 0xFFFFFF AND SWAP1 SHL SWAP2 POP POP SWAP4 SWAP3 POP POP POP JUMP JUMPDEST PUSH1 0x0 PUSH20 0xFFFFFFFFFFFFFFFFFFFFFFFFFFFFFFFFFFFFFFFF DUP4 AND SWAP3 POP DUP2 TIMESTAMP PUSH1 0xA0 SHL OR DUP4 OR SWAP1 POP SWAP3 SWAP2 POP POP JUMP JUMPDEST POP POP POP POP JUMP JUMPDEST PUSH2 0x1BEB DUP2 PUSH1 0x0 PUSH2 0x21F1 JUMP JUMPDEST POP JUMP JUMPDEST PUSH1 0x0 DUP1 DUP4 DUP4 PUSH2 0x1BFD SWAP2 SWAP1 PUSH2 0x3CEA JUMP JUMPDEST SWAP1 POP PUSH1 0x1 DUP2 PUSH2 0x7E7 DUP8 PUSH2 0x1C10 SWAP2 SWAP1 PUSH2 0x3B96 JUMP JUMPDEST PUSH1 0x40 MLOAD PUSH1 0x20 ADD PUSH2 0x1C20 SWAP2 SWAP1 PUSH2 0x3E7F JUMP JUMPDEST PUSH1 0x40 MLOAD PUSH1 0x20 DUP2 DUP4 SUB SUB DUP2 MSTORE SWAP1 PUSH1 0x40 MSTORE DUP1 MLOAD SWAP1 PUSH1 0x20 ADD KECCAK256 PUSH1 0x0 SHR PUSH2 0x1C43 SWAP2 SWAP1 PUSH2 0x3EC9 JUMP JUMPDEST DUP5 PUSH2 0x1C4E SWAP2 SWAP1 PUSH2 0x3CEA JUMP JUMPDEST PUSH2 0x1C58 SWAP2 SWAP1 PUSH2 0x3CEA JUMP JUMPDEST SWAP2 POP POP SWAP4 SWAP3 POP POP POP JUMP JUMPDEST PUSH2 0x1C6A PUSH2 0x2443 JUMP JUMPDEST PUSH20 0xFFFFFFFFFFFFFFFFFFFFFFFFFFFFFFFFFFFFFFFF AND PUSH2 0x1C88 PUSH2 0x12F9 JUMP JUMPDEST PUSH20 0xFFFFFFFFFFFFFFFFFFFFFFFFFFFFFFFFFFFFFFFF AND EQ PUSH2 0x1CDE JUMPI PUSH1 0x40 MLOAD PUSH32 0x8C379A000000000000000000000000000000000000000000000000000000000 DUP2 MSTORE PUSH1 0x4 ADD PUSH2 0x1CD5 SWAP1 PUSH2 0x3F46 JUMP JUMPDEST PUSH1 0x40 MLOAD DUP1 SWAP2 SUB SWAP1 REVERT JUMPDEST JUMP JUMPDEST PUSH1 0x0 PUSH1 0x8 PUSH1 0x0 SWAP1 SLOAD SWAP1 PUSH2 0x100 EXP SWAP1 DIV PUSH20 0xFFFFFFFFFFFFFFFFFFFFFFFFFFFFFFFFFFFFFFFF AND SWAP1 POP DUP2 PUSH1 0x8 PUSH1 0x0 PUSH2 0x100 EXP DUP2 SLOAD DUP2 PUSH20 0xFFFFFFFFFFFFFFFFFFFFFFFFFFFFFFFFFFFFFFFF MUL NOT AND SWAP1 DUP4 PUSH20 0xFFFFFFFFFFFFFFFFFFFFFFFFFFFFFFFFFFFFFFFF AND MUL OR SWAP1 SSTORE POP DUP2 PUSH20 0xFFFFFFFFFFFFFFFFFFFFFFFFFFFFFFFFFFFFFFFF AND DUP2 PUSH20 0xFFFFFFFFFFFFFFFFFFFFFFFFFFFFFFFFFFFFFFFF AND PUSH32 0x8BE0079C531659141344CD1FD0A4F28419497F9722A3DAAFE3B4186F6B6457E0 PUSH1 0x40 MLOAD PUSH1 0x40 MLOAD DUP1 SWAP2 SUB SWAP1 LOG3 POP POP JUMP JUMPDEST PUSH1 0x0 PUSH2 0x1DB0 PUSH2 0x1EF2 JUMP JUMPDEST SWAP1 POP PUSH2 0x3E8 DUP2 LT PUSH2 0x1E7F JUMPI PUSH1 0x0 PUSH2 0x1DC8 PUSH1 0xB SLOAD PUSH2 0x244B JUMP JUMPDEST GT PUSH2 0x1E08 JUMPI PUSH1 0x40 MLOAD PUSH32 0x8C379A000000000000000000000000000000000000000000000000000000000 DUP2 MSTORE PUSH1 0x4 ADD PUSH2 0x1DFF SWAP1 PUSH2 0x3FB2 JUMP JUMPDEST PUSH1 0x40 MLOAD DUP1 SWAP2 SUB SWAP1 REVERT JUMPDEST PUSH2 0x1388 DUP2 LT DUP1 ISZERO PUSH2 0x1E26 JUMPI POP PUSH2 0x1388 DUP3 DUP3 PUSH2 0x1E23 SWAP2 SWAP1 PUSH2 0x3B96 JUMP JUMPDEST LT ISZERO JUMPDEST ISZERO PUSH2 0x1E7A JUMPI PUSH3 0x15180 TIMESTAMP PUSH2 0x1E3A SWAP2 SWAP1 PUSH2 0x3B96 JUMP JUMPDEST PUSH1 0xB DUP2 SWAP1 SSTORE POP PUSH32 0xF5B316BF09D21E0058EB23BE118A6B81BD52674B4CB843E0F446B986CE22433E PUSH1 0xB SLOAD PUSH1 0x40 MLOAD PUSH2 0x1E71 SWAP2 SWAP1 PUSH2 0x3535 JUMP JUMPDEST PUSH1 0x40 MLOAD DUP1 SWAP2 SUB SWAP1 LOG1 JUMPDEST PUSH2 0x1EE3 JUMP JUMPDEST PUSH2 0x3E8 DUP3 DUP3 PUSH2 0x1E8E SWAP2 SWAP1 PUSH2 0x3B96 JUMP JUMPDEST LT PUSH2 0x1EE2 JUMPI PUSH3 0x15180 TIMESTAMP PUSH2 0x1EA2 SWAP2 SWAP1 PUSH2 0x3B96 JUMP JUMPDEST PUSH1 0xB DUP2 SWAP1 SSTORE POP PUSH32 0xF5B316BF09D21E0058EB23BE118A6B81BD52674B4CB843E0F446B986CE22433E PUSH1 0xB SLOAD PUSH1 0x40 MLOAD PUSH2 0x1ED9 SWAP2 SWAP1 PUSH2 0x3535 JUMP JUMPDEST PUSH1 0x40 MLOAD DUP1 SWAP2 SUB SWAP1 LOG1 JUMPDEST JUMPDEST PUSH2 0x1EED DUP4 DUP4 PUSH2 0x2471 JUMP JUMPDEST POP POP POP JUMP JUMPDEST PUSH1 0x0 PUSH2 0x1EFC PUSH2 0x1A41 JUMP JUMPDEST PUSH1 0x0 SLOAD SUB SWAP1 POP SWAP1 JUMP JUMPDEST PUSH1 0x0 PUSH1 0x3C PUSH2 0x1F12 DUP4 PUSH2 0x244B JUMP JUMPDEST LT PUSH2 0x1F36 JUMPI PUSH1 0x3C TIMESTAMP DUP4 PUSH2 0x1F25 SWAP2 SWAP1 PUSH2 0x3CEA JUMP JUMPDEST PUSH2 0x1F2F SWAP2 SWAP1 PUSH2 0x3FD2 JUMP JUMPDEST SWAP1 POP PUSH2 0x1F3B JUMP JUMPDEST PUSH1 0x0 SWAP1 POP JUMPDEST SWAP2 SWAP1 POP JUMP JUMPDEST PUSH1 0x0 DUP4 PUSH20 0xFFFFFFFFFFFFFFFFFFFFFFFFFFFFFFFFFFFFFFFF AND PUSH4 0x150B7A02 PUSH2 0x1F66 PUSH2 0x18F8 JUMP JUMPDEST DUP8 DUP7 DUP7 PUSH1 0x40 MLOAD DUP6 PUSH4 0xFFFFFFFF AND PUSH1 0xE0 SHL DUP2 MSTORE PUSH1 0x4 ADD PUSH2 0x1F88 SWAP5 SWAP4 SWAP3 SWAP2 SWAP1 PUSH2 0x4058 JUMP JUMPDEST PUSH1 0x20 PUSH1 0x40 MLOAD DUP1 DUP4 SUB DUP2 PUSH1 0x0 DUP8 GAS CALL SWAP3 POP POP POP DUP1 ISZERO PUSH2 0x1FC4 JUMPI POP PUSH1 0x40 MLOAD RETURNDATASIZE PUSH1 0x1F NOT PUSH1 0x1F DUP3 ADD AND DUP3 ADD DUP1 PUSH1 0x40 MSTORE POP DUP2 ADD SWAP1 PUSH2 0x1FC1 SWAP2 SWAP1 PUSH2 0x40B9 JUMP JUMPDEST PUSH1 0x1 JUMPDEST PUSH2 0x203D JUMPI RETURNDATASIZE DUP1 PUSH1 0x0 DUP2 EQ PUSH2 0x1FF4 JUMPI PUSH1 0x40 MLOAD SWAP2 POP PUSH1 0x1F NOT PUSH1 0x3F RETURNDATASIZE ADD AND DUP3 ADD PUSH1 0x40 MSTORE RETURNDATASIZE DUP3 MSTORE RETURNDATASIZE PUSH1 0x0 PUSH1 0x20 DUP5 ADD RETURNDATACOPY PUSH2 0x1FF9 JUMP JUMPDEST PUSH1 0x60 SWAP2 POP JUMPDEST POP PUSH1 0x0 DUP2 MLOAD SUB PUSH2 0x2035 JUMPI PUSH1 0x40 MLOAD PUSH32 0xD1A57ED600000000000000000000000000000000000000000000000000000000 DUP2 MSTORE PUSH1 0x4 ADD PUSH1 0x40 MLOAD DUP1 SWAP2 SUB SWAP1 REVERT JUMPDEST DUP1 MLOAD DUP2 PUSH1 0x20 ADD REVERT JUMPDEST PUSH4 0x150B7A02 PUSH1 0xE0 SHL PUSH28 0xFFFFFFFFFFFFFFFFFFFFFFFFFFFFFFFFFFFFFFFFFFFFFFFFFFFFFFFF NOT AND DUP2 PUSH28 0xFFFFFFFFFFFFFFFFFFFFFFFFFFFFFFFFFFFFFFFFFFFFFFFFFFFFFFFF NOT AND EQ SWAP2 POP POP SWAP5 SWAP4 POP POP POP POP JUMP JUMPDEST PUSH1 0x60 PUSH1 0x0 PUSH2 0x209E DUP7 DUP6 PUSH2 0x262C JUMP JUMPDEST SWAP1 POP PUSH1 0x60 DUP4 ISZERO PUSH2 0x20EA JUMPI PUSH2 0x20B1 DUP8 PUSH2 0x2713 JUMP JUMPDEST PUSH2 0x20C3 PUSH2 0x20BE DUP9 DUP6 PUSH2 0x289B JUMP JUMPDEST PUSH2 0x2BBD JUMP JUMPDEST PUSH1 0x40 MLOAD PUSH1 0x20 ADD PUSH2 0x20D4 SWAP3 SWAP2 SWAP1 PUSH2 0x429E JUMP JUMPDEST PUSH1 0x40 MLOAD PUSH1 0x20 DUP2 DUP4 SUB SUB DUP2 MSTORE SWAP1 PUSH1 0x40 MSTORE SWAP1 POP PUSH2 0x21B4 JUMP JUMPDEST PUSH2 0x20F3 DUP8 PUSH2 0x2713 JUMP JUMPDEST PUSH2 0x20FC DUP8 PUSH2 0x2713 JUMP JUMPDEST PUSH2 0x210D PUSH2 0x2108 DUP11 PUSH2 0x2D20 JUMP JUMPDEST PUSH2 0x2713 JUMP JUMPDEST PUSH2 0x2116 DUP9 PUSH2 0x2D51 JUMP JUMPDEST PUSH2 0x2137 DUP7 PUSH1 0x0 PUSH1 0x3 DUP2 LT PUSH2 0x212D JUMPI PUSH2 0x212C PUSH2 0x3ACC JUMP JUMPDEST JUMPDEST PUSH1 0x20 MUL ADD MLOAD PUSH2 0x2713 JUMP JUMPDEST PUSH2 0x2158 DUP8 PUSH1 0x1 PUSH1 0x3 DUP2 LT PUSH2 0x214E JUMPI PUSH2 0x214D PUSH2 0x3ACC JUMP JUMPDEST JUMPDEST PUSH1 0x20 MUL ADD MLOAD PUSH2 0x2713 JUMP JUMPDEST PUSH2 0x2179 DUP9 PUSH1 0x2 PUSH1 0x3 DUP2 LT PUSH2 0x216F JUMPI PUSH2 0x216E PUSH2 0x3ACC JUMP JUMPDEST JUMPDEST PUSH1 0x20 MUL ADD MLOAD PUSH2 0x2713 JUMP JUMPDEST PUSH2 0x218B PUSH2 0x2186 DUP15 DUP12 PUSH2 0x289B JUMP JUMPDEST PUSH2 0x2BBD JUMP JUMPDEST PUSH1 0x40 MLOAD PUSH1 0x20 ADD PUSH2 0x21A2 SWAP9 SWAP8 SWAP7 SWAP6 SWAP5 SWAP4 SWAP3 SWAP2 SWAP1 PUSH2 0x4601 JUMP JUMPDEST PUSH1 0x40 MLOAD PUSH1 0x20 DUP2 DUP4 SUB SUB DUP2 MSTORE SWAP1 PUSH1 0x40 MSTORE SWAP1 POP JUMPDEST PUSH2 0x21BD DUP2 PUSH2 0x2BBD JUMP JUMPDEST PUSH1 0x40 MLOAD PUSH1 0x20 ADD PUSH2 0x21CD SWAP2 SWAP1 PUSH2 0x4722 JUMP JUMPDEST PUSH1 0x40 MLOAD PUSH1 0x20 DUP2 DUP4 SUB SUB DUP2 MSTORE SWAP1 PUSH1 0x40 MSTORE SWAP3 POP POP POP SWAP5 SWAP4 POP POP POP POP JUMP JUMPDEST PUSH1 0x0 SWAP4 SWAP3 POP POP POP JUMP JUMPDEST PUSH1 0x0 PUSH2 0x21FC DUP4 PUSH2 0x1A4A JUMP JUMPDEST SWAP1 POP PUSH1 0x0 DUP2 SWAP1 POP PUSH1 0x0 DUP1 PUSH2 0x220F DUP7 PUSH2 0x1B16 JUMP JUMPDEST SWAP2 POP SWAP2 POP DUP5 ISZERO PUSH2 0x2278 JUMPI PUSH2 0x222B DUP2 DUP5 PUSH2 0x2226 PUSH2 0x18F8 JUMP JUMPDEST PUSH2 0x1B3D JUMP JUMPDEST PUSH2 0x2277 JUMPI PUSH2 0x2240 DUP4 PUSH2 0x223B PUSH2 0x18F8 JUMP JUMPDEST PUSH2 0x1782 JUMP JUMPDEST PUSH2 0x2276 JUMPI PUSH1 0x40 MLOAD PUSH32 0x59C896BE00000000000000000000000000000000000000000000000000000000 DUP2 MSTORE PUSH1 0x4 ADD PUSH1 0x40 MLOAD DUP1 SWAP2 SUB SWAP1 REVERT JUMPDEST JUMPDEST JUMPDEST PUSH2 0x2286 DUP4 PUSH1 0x0 DUP9 PUSH1 0x1 PUSH2 0x1B81 JUMP JUMPDEST DUP1 ISZERO PUSH2 0x2291 JUMPI PUSH1 0x0 DUP3 SSTORE JUMPDEST PUSH1 0x1 PUSH1 0x80 PUSH1 0x1 SWAP1 SHL SUB PUSH1 0x5 PUSH1 0x0 DUP6 PUSH20 0xFFFFFFFFFFFFFFFFFFFFFFFFFFFFFFFFFFFFFFFF AND PUSH20 0xFFFFFFFFFFFFFFFFFFFFFFFFFFFFFFFFFFFFFFFF AND DUP2 MSTORE PUSH1 0x20 ADD SWAP1 DUP2 MSTORE PUSH1 0x20 ADD PUSH1 0x0 KECCAK256 PUSH1 0x0 DUP3 DUP3 SLOAD ADD SWAP3 POP POP DUP2 SWAP1 SSTORE POP PUSH2 0x2339 DUP4 PUSH2 0x22F6 DUP6 PUSH1 0x0 DUP9 PUSH2 0x1B87 JUMP JUMPDEST PUSH29 0x200000000000000000000000000000000000000000000000000000000 PUSH29 0x100000000000000000000000000000000000000000000000000000000 OR OR PUSH2 0x1BAF JUMP JUMPDEST PUSH1 0x4 PUSH1 0x0 DUP9 DUP2 MSTORE PUSH1 0x20 ADD SWAP1 DUP2 MSTORE PUSH1 0x20 ADD PUSH1 0x0 KECCAK256 DUP2 SWAP1 SSTORE POP PUSH1 0x0 PUSH29 0x200000000000000000000000000000000000000000000000000000000 DUP6 AND SUB PUSH2 0x23BF JUMPI PUSH1 0x0 PUSH1 0x1 DUP8 ADD SWAP1 POP PUSH1 0x0 PUSH1 0x4 PUSH1 0x0 DUP4 DUP2 MSTORE PUSH1 0x20 ADD SWAP1 DUP2 MSTORE PUSH1 0x20 ADD PUSH1 0x0 KECCAK256 SLOAD SUB PUSH2 0x23BD JUMPI PUSH1 0x0 SLOAD DUP2 EQ PUSH2 0x23BC JUMPI DUP5 PUSH1 0x4 PUSH1 0x0 DUP4 DUP2 MSTORE PUSH1 0x20 ADD SWAP1 DUP2 MSTORE PUSH1 0x20 ADD PUSH1 0x0 KECCAK256 DUP2 SWAP1 SSTORE POP JUMPDEST JUMPDEST POP JUMPDEST DUP6 PUSH1 0x0 PUSH20 0xFFFFFFFFFFFFFFFFFFFFFFFFFFFFFFFFFFFFFFFF AND DUP5 PUSH20 0xFFFFFFFFFFFFFFFFFFFFFFFFFFFFFFFFFFFFFFFF AND PUSH32 0xDDF252AD1BE2C89B69C2B068FC378DAA952BA7F163C4A11628F55A4DF523B3EF PUSH1 0x40 MLOAD PUSH1 0x40 MLOAD DUP1 SWAP2 SUB SWAP1 LOG4 PUSH2 0x2429 DUP4 PUSH1 0x0 DUP9 PUSH1 0x1 PUSH2 0x1BDA JUMP JUMPDEST PUSH1 0x1 PUSH1 0x0 DUP2 SLOAD DUP1 SWAP3 SWAP2 SWAP1 PUSH1 0x1 ADD SWAP2 SWAP1 POP SSTORE POP POP POP POP POP POP POP JUMP JUMPDEST PUSH1 0x0 CALLER SWAP1 POP SWAP1 JUMP JUMPDEST PUSH1 0x0 DUP2 TIMESTAMP GT PUSH2 0x2467 JUMPI TIMESTAMP DUP3 PUSH2 0x2460 SWAP2 SWAP1 PUSH2 0x3CEA JUMP JUMPDEST SWAP1 POP PUSH2 0x246C JUMP JUMPDEST PUSH1 0x0 SWAP1 POP JUMPDEST SWAP2 SWAP1 POP JUMP JUMPDEST PUSH1 0x0 DUP1 SLOAD SWAP1 POP PUSH1 0x0 DUP3 SUB PUSH2 0x24B1 JUMPI PUSH1 0x40 MLOAD PUSH32 0xB562E8DD00000000000000000000000000000000000000000000000000000000 DUP2 MSTORE PUSH1 0x4 ADD PUSH1 0x40 MLOAD DUP1 SWAP2 SUB SWAP1 REVERT JUMPDEST PUSH2 0x24BE PUSH1 0x0 DUP5 DUP4 DUP6 PUSH2 0x1B81 JUMP JUMPDEST PUSH1 0x1 PUSH1 0x40 PUSH1 0x1 SWAP1 SHL OR DUP3 MUL PUSH1 0x5 PUSH1 0x0 DUP6 PUSH20 0xFFFFFFFFFFFFFFFFFFFFFFFFFFFFFFFFFFFFFFFF AND PUSH20 0xFFFFFFFFFFFFFFFFFFFFFFFFFFFFFFFFFFFFFFFF AND DUP2 MSTORE PUSH1 0x20 ADD SWAP1 DUP2 MSTORE PUSH1 0x20 ADD PUSH1 0x0 KECCAK256 PUSH1 0x0 DUP3 DUP3 SLOAD ADD SWAP3 POP POP DUP2 SWAP1 SSTORE POP PUSH2 0x2535 DUP4 PUSH2 0x2526 PUSH1 0x0 DUP7 PUSH1 0x0 PUSH2 0x1B87 JUMP JUMPDEST PUSH2 0x252F DUP6 PUSH2 0x2E6C JUMP JUMPDEST OR PUSH2 0x1BAF JUMP JUMPDEST PUSH1 0x4 PUSH1 0x0 DUP4 DUP2 MSTORE PUSH1 0x20 ADD SWAP1 DUP2 MSTORE PUSH1 0x20 ADD PUSH1 0x0 KECCAK256 DUP2 SWAP1 SSTORE POP PUSH1 0x0 DUP1 DUP4 DUP4 ADD SWAP1 POP PUSH20 0xFFFFFFFFFFFFFFFFFFFFFFFFFFFFFFFFFFFFFFFF DUP6 AND SWAP2 POP DUP3 DUP3 PUSH1 0x0 PUSH32 0xDDF252AD1BE2C89B69C2B068FC378DAA952BA7F163C4A11628F55A4DF523B3EF PUSH1 0x0 DUP1 LOG4 PUSH1 0x1 DUP4 ADD JUMPDEST DUP2 DUP2 EQ PUSH2 0x25D6 JUMPI DUP1 DUP4 PUSH1 0x0 PUSH32 0xDDF252AD1BE2C89B69C2B068FC378DAA952BA7F163C4A11628F55A4DF523B3EF PUSH1 0x0 DUP1 LOG4 PUSH1 0x1 DUP2 ADD SWAP1 POP PUSH2 0x259B JUMP JUMPDEST POP PUSH1 0x0 DUP3 SUB PUSH2 0x2611 JUMPI PUSH1 0x40 MLOAD PUSH32 0x2E07630000000000000000000000000000000000000000000000000000000000 DUP2 MSTORE PUSH1 0x4 ADD PUSH1 0x40 MLOAD DUP1 SWAP2 SUB SWAP1 REVERT JUMPDEST DUP1 PUSH1 0x0 DUP2 SWAP1 SSTORE POP POP POP PUSH2 0x2627 PUSH1 0x0 DUP5 DUP4 DUP6 PUSH2 0x1BDA JUMP JUMPDEST POP POP POP JUMP JUMPDEST PUSH2 0x2634 PUSH2 0x3230 JUMP JUMPDEST PUSH1 0x0 DUP3 GT ISZERO PUSH2 0x26CE JUMPI PUSH1 0x0 JUMPDEST PUSH1 0x3 DUP2 LT ISZERO PUSH2 0x26C8 JUMPI PUSH1 0x1 DUP2 PUSH2 0x2656 SWAP2 SWAP1 PUSH2 0x3B96 JUMP JUMPDEST DUP4 SUB PUSH2 0x267F JUMPI PUSH1 0xFF DUP3 DUP3 PUSH1 0x3 DUP2 LT PUSH2 0x2671 JUMPI PUSH2 0x2670 PUSH2 0x3ACC JUMP JUMPDEST JUMPDEST PUSH1 0x20 MUL ADD DUP2 DUP2 MSTORE POP POP PUSH2 0x26B5 JUMP JUMPDEST PUSH2 0x2698 DUP2 DUP6 PUSH2 0x268E SWAP2 SWAP1 PUSH2 0x3B96 JUMP JUMPDEST PUSH1 0x0 PUSH2 0x100 PUSH2 0x1BEE JUMP JUMPDEST DUP3 DUP3 PUSH1 0x3 DUP2 LT PUSH2 0x26AB JUMPI PUSH2 0x26AA PUSH2 0x3ACC JUMP JUMPDEST JUMPDEST PUSH1 0x20 MUL ADD DUP2 DUP2 MSTORE POP POP JUMPDEST DUP1 DUP1 PUSH2 0x26C0 SWAP1 PUSH2 0x3BCA JUMP JUMPDEST SWAP2 POP POP PUSH2 0x2640 JUMP JUMPDEST POP PUSH2 0x270D JUMP JUMPDEST PUSH1 0x0 JUMPDEST PUSH1 0x3 DUP2 LT ISZERO PUSH2 0x270B JUMPI PUSH1 0xFF DUP3 DUP3 PUSH1 0x3 DUP2 LT PUSH2 0x26EF JUMPI PUSH2 0x26EE PUSH2 0x3ACC JUMP JUMPDEST JUMPDEST PUSH1 0x20 MUL ADD DUP2 DUP2 MSTORE POP POP DUP1 DUP1 PUSH2 0x2703 SWAP1 PUSH2 0x3BCA JUMP JUMPDEST SWAP2 POP POP PUSH2 0x26D1 JUMP JUMPDEST POP JUMPDEST SWAP3 SWAP2 POP POP JUMP JUMPDEST PUSH1 0x60 PUSH1 0x0 DUP3 SUB PUSH2 0x275A JUMPI PUSH1 0x40 MLOAD DUP1 PUSH1 0x40 ADD PUSH1 0x40 MSTORE DUP1 PUSH1 0x1 DUP2 MSTORE PUSH1 0x20 ADD PUSH32 0x3000000000000000000000000000000000000000000000000000000000000000 DUP2 MSTORE POP SWAP1 POP PUSH2 0x2896 JUMP JUMPDEST PUSH1 0x0 DUP3 SWAP1 POP PUSH1 0x0 JUMPDEST PUSH1 0x0 DUP3 EQ PUSH2 0x278C JUMPI DUP1 DUP1 PUSH2 0x2775 SWAP1 PUSH2 0x3BCA JUMP JUMPDEST SWAP2 POP POP PUSH1 0xA DUP3 PUSH2 0x2785 SWAP2 SWAP1 PUSH2 0x3FD2 JUMP JUMPDEST SWAP2 POP PUSH2 0x2762 JUMP JUMPDEST PUSH1 0x0 DUP2 PUSH8 0xFFFFFFFFFFFFFFFF DUP2 GT ISZERO PUSH2 0x27A8 JUMPI PUSH2 0x27A7 PUSH2 0x35A8 JUMP JUMPDEST JUMPDEST PUSH1 0x40 MLOAD SWAP1 DUP1 DUP3 MSTORE DUP1 PUSH1 0x1F ADD PUSH1 0x1F NOT AND PUSH1 0x20 ADD DUP3 ADD PUSH1 0x40 MSTORE DUP1 ISZERO PUSH2 0x27DA JUMPI DUP2 PUSH1 0x20 ADD PUSH1 0x1 DUP3 MUL DUP1 CALLDATASIZE DUP4 CALLDATACOPY DUP1 DUP3 ADD SWAP2 POP POP SWAP1 POP JUMPDEST POP SWAP1 POP PUSH1 0x0 DUP3 SWAP1 POP JUMPDEST PUSH1 0x0 DUP7 EQ PUSH2 0x288E JUMPI PUSH1 0x1 DUP2 PUSH2 0x27F8 SWAP2 SWAP1 PUSH2 0x3CEA JUMP JUMPDEST SWAP1 POP PUSH1 0x0 PUSH1 0xA DUP1 DUP9 PUSH2 0x280A SWAP2 SWAP1 PUSH2 0x3FD2 JUMP JUMPDEST PUSH2 0x2814 SWAP2 SWAP1 PUSH2 0x3D1E JUMP JUMPDEST DUP8 PUSH2 0x281F SWAP2 SWAP1 PUSH2 0x3CEA JUMP JUMPDEST PUSH1 0x30 PUSH2 0x282B SWAP2 SWAP1 PUSH2 0x4751 JUMP JUMPDEST SWAP1 POP PUSH1 0x0 DUP2 PUSH1 0xF8 SHL SWAP1 POP DUP1 DUP5 DUP5 DUP2 MLOAD DUP2 LT PUSH2 0x2849 JUMPI PUSH2 0x2848 PUSH2 0x3ACC JUMP JUMPDEST JUMPDEST PUSH1 0x20 ADD ADD SWAP1 PUSH31 0xFFFFFFFFFFFFFFFFFFFFFFFFFFFFFFFFFFFFFFFFFFFFFFFFFFFFFFFFFFFFFF NOT AND SWAP1 DUP2 PUSH1 0x0 BYTE SWAP1 MSTORE8 POP PUSH1 0xA DUP9 PUSH2 0x2885 SWAP2 SWAP1 PUSH2 0x3FD2 JUMP JUMPDEST SWAP8 POP POP POP PUSH2 0x27E3 JUMP JUMPDEST DUP2 SWAP5 POP POP POP POP POP JUMPDEST SWAP2 SWAP1 POP JUMP JUMPDEST PUSH1 0x60 PUSH1 0x40 MLOAD DUP1 PUSH2 0xC40 ADD PUSH1 0x40 MSTORE DUP1 PUSH2 0xC19 DUP2 MSTORE PUSH1 0x20 ADD PUSH2 0x531E PUSH2 0xC19 SWAP2 CODECOPY SWAP1 POP PUSH1 0x0 PUSH2 0x28DE DUP4 PUSH1 0x0 PUSH1 0x3 DUP2 LT PUSH2 0x28D4 JUMPI PUSH2 0x28D3 PUSH2 0x3ACC JUMP JUMPDEST JUMPDEST PUSH1 0x20 MUL ADD MLOAD PUSH2 0x2713 JUMP JUMPDEST PUSH2 0x28FF DUP5 PUSH1 0x1 PUSH1 0x3 DUP2 LT PUSH2 0x28F5 JUMPI PUSH2 0x28F4 PUSH2 0x3ACC JUMP JUMPDEST JUMPDEST PUSH1 0x20 MUL ADD MLOAD PUSH2 0x2713 JUMP JUMPDEST PUSH2 0x2920 DUP6 PUSH1 0x2 PUSH1 0x3 DUP2 LT PUSH2 0x2916 JUMPI PUSH2 0x2915 PUSH2 0x3ACC JUMP JUMPDEST JUMPDEST PUSH1 0x20 MUL ADD MLOAD PUSH2 0x2713 JUMP JUMPDEST PUSH1 0x40 MLOAD PUSH1 0x20 ADD PUSH2 0x2932 SWAP4 SWAP3 SWAP2 SWAP1 PUSH2 0x481E JUMP JUMPDEST PUSH1 0x40 MLOAD PUSH1 0x20 DUP2 DUP4 SUB SUB DUP2 MSTORE SWAP1 PUSH1 0x40 MSTORE SWAP1 POP PUSH1 0x0 DUP5 SUB ISZERO PUSH2 0x2B92 JUMPI PUSH1 0x0 PUSH2 0x2957 DUP6 PUSH2 0x2713 JUMP JUMPDEST MLOAD SWAP1 POP PUSH1 0x0 PUSH2 0x2966 DUP7 DUP4 PUSH2 0x2E7C JUMP JUMPDEST SWAP1 POP PUSH1 0x1 DUP3 SUB PUSH2 0x29A7 JUMPI DUP3 PUSH2 0x2980 PUSH1 0x3 DUP4 PUSH1 0x60 ADD MLOAD PUSH2 0x2FB3 JUMP JUMPDEST PUSH1 0x40 MLOAD PUSH1 0x20 ADD PUSH2 0x2991 SWAP3 SWAP2 SWAP1 PUSH2 0x487B JUMP JUMPDEST PUSH1 0x40 MLOAD PUSH1 0x20 DUP2 DUP4 SUB SUB DUP2 MSTORE SWAP1 PUSH1 0x40 MSTORE SWAP3 POP PUSH2 0x2B8F JUMP JUMPDEST PUSH1 0x2 DUP3 SUB PUSH2 0x2A18 JUMPI DUP3 PUSH2 0x29BF PUSH1 0x2 DUP4 PUSH1 0x40 ADD MLOAD PUSH2 0x2FB3 JUMP JUMPDEST PUSH1 0x40 MLOAD PUSH1 0x20 ADD PUSH2 0x29D0 SWAP3 SWAP2 SWAP1 PUSH2 0x487B JUMP JUMPDEST PUSH1 0x40 MLOAD PUSH1 0x20 DUP2 DUP4 SUB SUB DUP2 MSTORE SWAP1 PUSH1 0x40 MSTORE SWAP3 POP DUP3 PUSH2 0x29F1 PUSH1 0x3 DUP4 PUSH1 0x60 ADD MLOAD PUSH2 0x2FB3 JUMP JUMPDEST PUSH1 0x40 MLOAD PUSH1 0x20 ADD PUSH2 0x2A02 SWAP3 SWAP2 SWAP1 PUSH2 0x487B JUMP JUMPDEST PUSH1 0x40 MLOAD PUSH1 0x20 DUP2 DUP4 SUB SUB DUP2 MSTORE SWAP1 PUSH1 0x40 MSTORE SWAP3 POP PUSH2 0x2B8E JUMP JUMPDEST PUSH1 0x3 DUP3 SUB PUSH2 0x2ABB JUMPI DUP3 PUSH2 0x2A30 PUSH1 0x1 DUP4 PUSH1 0x20 ADD MLOAD PUSH2 0x2FB3 JUMP JUMPDEST PUSH1 0x40 MLOAD PUSH1 0x20 ADD PUSH2 0x2A41 SWAP3 SWAP2 SWAP1 PUSH2 0x487B JUMP JUMPDEST PUSH1 0x40 MLOAD PUSH1 0x20 DUP2 DUP4 SUB SUB DUP2 MSTORE SWAP1 PUSH1 0x40 MSTORE SWAP3 POP DUP3 PUSH2 0x2A62 PUSH1 0x2 DUP4 PUSH1 0x40 ADD MLOAD PUSH2 0x2FB3 JUMP JUMPDEST PUSH1 0x40 MLOAD PUSH1 0x20 ADD PUSH2 0x2A73 SWAP3 SWAP2 SWAP1 PUSH2 0x487B JUMP JUMPDEST PUSH1 0x40 MLOAD PUSH1 0x20 DUP2 DUP4 SUB SUB DUP2 MSTORE SWAP1 PUSH1 0x40 MSTORE SWAP3 POP DUP3 PUSH2 0x2A94 PUSH1 0x3 DUP4 PUSH1 0x60 ADD MLOAD PUSH2 0x2FB3 JUMP JUMPDEST PUSH1 0x40 MLOAD PUSH1 0x20 ADD PUSH2 0x2AA5 SWAP3 SWAP2 SWAP1 PUSH2 0x487B JUMP JUMPDEST PUSH1 0x40 MLOAD PUSH1 0x20 DUP2 DUP4 SUB SUB DUP2 MSTORE SWAP1 PUSH1 0x40 MSTORE SWAP3 POP PUSH2 0x2B8D JUMP JUMPDEST PUSH1 0x4 DUP3 SUB PUSH2 0x2B8C JUMPI DUP3 PUSH2 0x2AD3 PUSH1 0x0 DUP4 PUSH1 0x0 ADD MLOAD PUSH2 0x2FB3 JUMP JUMPDEST PUSH1 0x40 MLOAD PUSH1 0x20 ADD PUSH2 0x2AE4 SWAP3 SWAP2 SWAP1 PUSH2 0x487B JUMP JUMPDEST PUSH1 0x40 MLOAD PUSH1 0x20 DUP2 DUP4 SUB SUB DUP2 MSTORE SWAP1 PUSH1 0x40 MSTORE SWAP3 POP DUP3 PUSH2 0x2B05 PUSH1 0x1 DUP4 PUSH1 0x20 ADD MLOAD PUSH2 0x2FB3 JUMP JUMPDEST PUSH1 0x40 MLOAD PUSH1 0x20 ADD PUSH2 0x2B16 SWAP3 SWAP2 SWAP1 PUSH2 0x487B JUMP JUMPDEST PUSH1 0x40 MLOAD PUSH1 0x20 DUP2 DUP4 SUB SUB DUP2 MSTORE SWAP1 PUSH1 0x40 MSTORE SWAP3 POP DUP3 PUSH2 0x2B37 PUSH1 0x2 DUP4 PUSH1 0x40 ADD MLOAD PUSH2 0x2FB3 JUMP JUMPDEST PUSH1 0x40 MLOAD PUSH1 0x20 ADD PUSH2 0x2B48 SWAP3 SWAP2 SWAP1 PUSH2 0x487B JUMP JUMPDEST PUSH1 0x40 MLOAD PUSH1 0x20 DUP2 DUP4 SUB SUB DUP2 MSTORE SWAP1 PUSH1 0x40 MSTORE SWAP3 POP DUP3 PUSH2 0x2B69 PUSH1 0x3 DUP4 PUSH1 0x60 ADD MLOAD PUSH2 0x2FB3 JUMP JUMPDEST PUSH1 0x40 MLOAD PUSH1 0x20 ADD PUSH2 0x2B7A SWAP3 SWAP2 SWAP1 PUSH2 0x487B JUMP JUMPDEST PUSH1 0x40 MLOAD PUSH1 0x20 DUP2 DUP4 SUB SUB DUP2 MSTORE SWAP1 PUSH1 0x40 MSTORE SWAP3 POP JUMPDEST JUMPDEST JUMPDEST JUMPDEST POP POP JUMPDEST DUP2 DUP2 PUSH1 0x40 MLOAD PUSH1 0x20 ADD PUSH2 0x2BA5 SWAP3 SWAP2 SWAP1 PUSH2 0x48EB JUMP JUMPDEST PUSH1 0x40 MLOAD PUSH1 0x20 DUP2 DUP4 SUB SUB DUP2 MSTORE SWAP1 PUSH1 0x40 MSTORE SWAP2 POP POP SWAP3 SWAP2 POP POP JUMP JUMPDEST PUSH1 0x60 PUSH1 0x0 DUP3 MLOAD SUB PUSH2 0x2BDF JUMPI PUSH1 0x40 MLOAD DUP1 PUSH1 0x20 ADD PUSH1 0x40 MSTORE DUP1 PUSH1 0x0 DUP2 MSTORE POP SWAP1 POP PUSH2 0x2D1B JUMP JUMPDEST PUSH1 0x0 PUSH1 0x40 MLOAD DUP1 PUSH1 0x60 ADD PUSH1 0x40 MSTORE DUP1 PUSH1 0x40 DUP2 MSTORE PUSH1 0x20 ADD PUSH2 0x52DE PUSH1 0x40 SWAP2 CODECOPY SWAP1 POP PUSH1 0x0 PUSH1 0x3 PUSH1 0x2 DUP6 MLOAD PUSH2 0x2C0E SWAP2 SWAP1 PUSH2 0x3B96 JUMP JUMPDEST PUSH2 0x2C18 SWAP2 SWAP1 PUSH2 0x3FD2 JUMP JUMPDEST PUSH1 0x4 PUSH2 0x2C24 SWAP2 SWAP1 PUSH2 0x3D1E JUMP JUMPDEST PUSH8 0xFFFFFFFFFFFFFFFF DUP2 GT ISZERO PUSH2 0x2C3D JUMPI PUSH2 0x2C3C PUSH2 0x35A8 JUMP JUMPDEST JUMPDEST PUSH1 0x40 MLOAD SWAP1 DUP1 DUP3 MSTORE DUP1 PUSH1 0x1F ADD PUSH1 0x1F NOT AND PUSH1 0x20 ADD DUP3 ADD PUSH1 0x40 MSTORE DUP1 ISZERO PUSH2 0x2C6F JUMPI DUP2 PUSH1 0x20 ADD PUSH1 0x1 DUP3 MUL DUP1 CALLDATASIZE DUP4 CALLDATACOPY DUP1 DUP3 ADD SWAP2 POP POP SWAP1 POP JUMPDEST POP SWAP1 POP PUSH1 0x1 DUP3 ADD PUSH1 0x20 DUP3 ADD DUP6 DUP7 MLOAD DUP8 ADD JUMPDEST DUP1 DUP3 LT ISZERO PUSH2 0x2CDB JUMPI PUSH1 0x3 DUP3 ADD SWAP2 POP DUP2 MLOAD PUSH1 0x3F DUP2 PUSH1 0x12 SHR AND DUP6 ADD MLOAD DUP5 MSTORE8 PUSH1 0x1 DUP5 ADD SWAP4 POP PUSH1 0x3F DUP2 PUSH1 0xC SHR AND DUP6 ADD MLOAD DUP5 MSTORE8 PUSH1 0x1 DUP5 ADD SWAP4 POP PUSH1 0x3F DUP2 PUSH1 0x6 SHR AND DUP6 ADD MLOAD DUP5 MSTORE8 PUSH1 0x1 DUP5 ADD SWAP4 POP PUSH1 0x3F DUP2 AND DUP6 ADD MLOAD DUP5 MSTORE8 PUSH1 0x1 DUP5 ADD SWAP4 POP POP PUSH2 0x2C80 JUMP JUMPDEST POP POP PUSH1 0x3 DUP7 MLOAD MOD PUSH1 0x1 DUP2 EQ PUSH2 0x2CF7 JUMPI PUSH1 0x2 DUP2 EQ PUSH2 0x2D0A JUMPI PUSH2 0x2D12 JUMP JUMPDEST PUSH1 0x3D PUSH1 0x1 DUP4 SUB MSTORE8 PUSH1 0x3D PUSH1 0x2 DUP4 SUB MSTORE8 PUSH2 0x2D12 JUMP JUMPDEST PUSH1 0x3D PUSH1 0x1 DUP4 SUB MSTORE8 JUMPDEST POP POP POP DUP1 SWAP3 POP POP POP JUMPDEST SWAP2 SWAP1 POP JUMP JUMPDEST PUSH1 0x0 PUSH2 0x3E8 DUP3 GT PUSH2 0x2D34 JUMPI PUSH1 0x1 SWAP1 POP PUSH2 0x2D4C JUMP JUMPDEST PUSH2 0x1388 DUP3 GT PUSH2 0x2D46 JUMPI PUSH1 0x2 SWAP1 POP PUSH2 0x2D4B JUMP JUMPDEST PUSH1 0x3 SWAP1 POP JUMPDEST JUMPDEST SWAP2 SWAP1 POP JUMP JUMPDEST PUSH1 0x60 PUSH1 0x0 PUSH1 0x40 MLOAD DUP1 PUSH1 0x80 ADD PUSH1 0x40 MSTORE DUP1 PUSH1 0x40 MLOAD DUP1 PUSH1 0x40 ADD PUSH1 0x40 MSTORE DUP1 PUSH1 0x5 DUP2 MSTORE PUSH1 0x20 ADD PUSH32 0x5768697465000000000000000000000000000000000000000000000000000000 DUP2 MSTORE POP DUP2 MSTORE PUSH1 0x20 ADD PUSH1 0x40 MLOAD DUP1 PUSH1 0x40 ADD PUSH1 0x40 MSTORE DUP1 PUSH1 0x3 DUP2 MSTORE PUSH1 0x20 ADD PUSH32 0x5265640000000000000000000000000000000000000000000000000000000000 DUP2 MSTORE POP DUP2 MSTORE PUSH1 0x20 ADD PUSH1 0x40 MLOAD DUP1 PUSH1 0x40 ADD PUSH1 0x40 MSTORE DUP1 PUSH1 0x5 DUP2 MSTORE PUSH1 0x20 ADD PUSH32 0x477265656E000000000000000000000000000000000000000000000000000000 DUP2 MSTORE POP DUP2 MSTORE PUSH1 0x20 ADD PUSH1 0x40 MLOAD DUP1 PUSH1 0x40 ADD PUSH1 0x40 MSTORE DUP1 PUSH1 0x4 DUP2 MSTORE PUSH1 0x20 ADD PUSH32 0x426C756500000000000000000000000000000000000000000000000000000000 DUP2 MSTORE POP DUP2 MSTORE POP SWAP1 POP DUP1 DUP4 PUSH1 0x4 DUP2 LT PUSH2 0x2E5F JUMPI PUSH2 0x2E5E PUSH2 0x3ACC JUMP JUMPDEST JUMPDEST PUSH1 0x20 MUL ADD MLOAD SWAP2 POP POP SWAP2 SWAP1 POP JUMP JUMPDEST PUSH1 0x0 PUSH1 0x1 DUP3 EQ PUSH1 0xE1 SHL SWAP1 POP SWAP2 SWAP1 POP JUMP JUMPDEST PUSH2 0x2E84 PUSH2 0x3252 JUMP JUMPDEST PUSH1 0x1 DUP3 SUB PUSH2 0x2E9B JUMPI DUP3 DUP2 PUSH1 0x60 ADD DUP2 DUP2 MSTORE POP POP PUSH2 0x2FAD JUMP JUMPDEST PUSH1 0x2 DUP3 SUB PUSH2 0x2ED4 JUMPI PUSH1 0xA DUP4 PUSH2 0x2EB0 SWAP2 SWAP1 PUSH2 0x3FD2 JUMP JUMPDEST DUP2 PUSH1 0x40 ADD DUP2 DUP2 MSTORE POP POP PUSH1 0xA DUP4 PUSH2 0x2EC6 SWAP2 SWAP1 PUSH2 0x3EC9 JUMP JUMPDEST DUP2 PUSH1 0x60 ADD DUP2 DUP2 MSTORE POP POP PUSH2 0x2FAC JUMP JUMPDEST PUSH1 0x3 DUP3 SUB PUSH2 0x2F2F JUMPI PUSH1 0x64 DUP4 PUSH2 0x2EE9 SWAP2 SWAP1 PUSH2 0x3FD2 JUMP JUMPDEST DUP2 PUSH1 0x20 ADD DUP2 DUP2 MSTORE POP POP PUSH1 0xA PUSH1 0x64 DUP5 PUSH2 0x2F01 SWAP2 SWAP1 PUSH2 0x3EC9 JUMP JUMPDEST PUSH2 0x2F0B SWAP2 SWAP1 PUSH2 0x3FD2 JUMP JUMPDEST DUP2 PUSH1 0x40 ADD DUP2 DUP2 MSTORE POP POP PUSH1 0xA DUP4 PUSH2 0x2F21 SWAP2 SWAP1 PUSH2 0x3EC9 JUMP JUMPDEST DUP2 PUSH1 0x60 ADD DUP2 DUP2 MSTORE POP POP PUSH2 0x2FAB JUMP JUMPDEST PUSH1 0x4 DUP3 SUB PUSH2 0x2FAA JUMPI PUSH2 0x3E8 DUP4 PUSH2 0x2F45 SWAP2 SWAP1 PUSH2 0x3FD2 JUMP JUMPDEST DUP2 PUSH1 0x0 ADD DUP2 DUP2 MSTORE POP POP PUSH1 0x64 PUSH2 0x3E8 DUP5 PUSH2 0x2F5E SWAP2 SWAP1 PUSH2 0x3EC9 JUMP JUMPDEST PUSH2 0x2F68 SWAP2 SWAP1 PUSH2 0x3FD2 JUMP JUMPDEST DUP2 PUSH1 0x20 ADD DUP2 DUP2 MSTORE POP POP PUSH1 0xA PUSH1 0x64 DUP5 PUSH2 0x2F80 SWAP2 SWAP1 PUSH2 0x3EC9 JUMP JUMPDEST PUSH2 0x2F8A SWAP2 SWAP1 PUSH2 0x3FD2 JUMP JUMPDEST DUP2 PUSH1 0x40 ADD DUP2 DUP2 MSTORE POP POP PUSH1 0xA DUP4 PUSH2 0x2FA0 SWAP2 SWAP1 PUSH2 0x3EC9 JUMP JUMPDEST DUP2 PUSH1 0x60 ADD DUP2 DUP2 MSTORE POP POP JUMPDEST JUMPDEST JUMPDEST JUMPDEST SWAP3 SWAP2 POP POP JUMP JUMPDEST PUSH1 0x60 PUSH1 0x0 PUSH2 0x2FC0 DUP5 PUSH2 0x2713 JUMP JUMPDEST SWAP1 POP PUSH1 0x0 DUP4 SUB PUSH2 0x2FFC JUMPI DUP1 DUP2 DUP3 DUP4 DUP5 DUP6 PUSH1 0x40 MLOAD PUSH1 0x20 ADD PUSH2 0x2FE5 SWAP7 SWAP6 SWAP5 SWAP4 SWAP3 SWAP2 SWAP1 PUSH2 0x4B2E JUMP JUMPDEST PUSH1 0x40 MLOAD PUSH1 0x20 DUP2 DUP4 SUB SUB DUP2 MSTORE SWAP1 PUSH1 0x40 MSTORE SWAP2 POP POP PUSH2 0x322A JUMP JUMPDEST PUSH1 0x1 DUP4 SUB PUSH2 0x302E JUMPI DUP1 DUP2 PUSH1 0x40 MLOAD PUSH1 0x20 ADD PUSH2 0x3017 SWAP3 SWAP2 SWAP1 PUSH2 0x4C56 JUMP JUMPDEST PUSH1 0x40 MLOAD PUSH1 0x20 DUP2 DUP4 SUB SUB DUP2 MSTORE SWAP1 PUSH1 0x40 MSTORE SWAP2 POP POP PUSH2 0x322A JUMP JUMPDEST PUSH1 0x2 DUP4 SUB PUSH2 0x3066 JUMPI DUP1 DUP2 DUP3 DUP4 DUP5 PUSH1 0x40 MLOAD PUSH1 0x20 ADD PUSH2 0x304F SWAP6 SWAP5 SWAP4 SWAP3 SWAP2 SWAP1 PUSH2 0x4CF2 JUMP JUMPDEST PUSH1 0x40 MLOAD PUSH1 0x20 DUP2 DUP4 SUB SUB DUP2 MSTORE SWAP1 PUSH1 0x40 MSTORE SWAP2 POP POP PUSH2 0x322A JUMP JUMPDEST PUSH1 0x3 DUP4 SUB PUSH2 0x309E JUMPI DUP1 DUP2 DUP3 DUP4 DUP5 PUSH1 0x40 MLOAD PUSH1 0x20 ADD PUSH2 0x3087 SWAP6 SWAP5 SWAP4 SWAP3 SWAP2 SWAP1 PUSH2 0x4DAB JUMP JUMPDEST PUSH1 0x40 MLOAD PUSH1 0x20 DUP2 DUP4 SUB SUB DUP2 MSTORE SWAP1 PUSH1 0x40 MSTORE SWAP2 POP POP PUSH2 0x322A JUMP JUMPDEST PUSH1 0x4 DUP4 SUB PUSH2 0x30D4 JUMPI DUP1 DUP2 DUP3 DUP4 PUSH1 0x40 MLOAD PUSH1 0x20 ADD PUSH2 0x30BD SWAP5 SWAP4 SWAP3 SWAP2 SWAP1 PUSH2 0x4E64 JUMP JUMPDEST PUSH1 0x40 MLOAD PUSH1 0x20 DUP2 DUP4 SUB SUB DUP2 MSTORE SWAP1 PUSH1 0x40 MSTORE SWAP2 POP POP PUSH2 0x322A JUMP JUMPDEST PUSH1 0x5 DUP4 SUB PUSH2 0x310C JUMPI DUP1 DUP2 DUP3 DUP4 DUP5 PUSH1 0x40 MLOAD PUSH1 0x20 ADD PUSH2 0x30F5 SWAP6 SWAP5 SWAP4 SWAP3 SWAP2 SWAP1 PUSH2 0x4EFA JUMP JUMPDEST PUSH1 0x40 MLOAD PUSH1 0x20 DUP2 DUP4 SUB SUB DUP2 MSTORE SWAP1 PUSH1 0x40 MSTORE SWAP2 POP POP PUSH2 0x322A JUMP JUMPDEST PUSH1 0x6 DUP4 SUB PUSH2 0x3146 JUMPI DUP1 DUP2 DUP3 DUP4 DUP5 DUP6 PUSH1 0x40 MLOAD PUSH1 0x20 ADD PUSH2 0x312F SWAP7 SWAP6 SWAP5 SWAP4 SWAP3 SWAP2 SWAP1 PUSH2 0x4FB3 JUMP JUMPDEST PUSH1 0x40 MLOAD PUSH1 0x20 DUP2 DUP4 SUB SUB DUP2 MSTORE SWAP1 PUSH1 0x40 MSTORE SWAP2 POP POP PUSH2 0x322A JUMP JUMPDEST PUSH1 0x7 DUP4 SUB PUSH2 0x317A JUMPI DUP1 DUP2 DUP3 PUSH1 0x40 MLOAD PUSH1 0x20 ADD PUSH2 0x3163 SWAP4 SWAP3 SWAP2 SWAP1 PUSH2 0x508F JUMP JUMPDEST PUSH1 0x40 MLOAD PUSH1 0x20 DUP2 DUP4 SUB SUB DUP2 MSTORE SWAP1 PUSH1 0x40 MSTORE SWAP2 POP POP PUSH2 0x322A JUMP JUMPDEST PUSH1 0x8 DUP4 SUB PUSH2 0x31B6 JUMPI DUP1 DUP2 DUP3 DUP4 DUP5 DUP6 DUP7 PUSH1 0x40 MLOAD PUSH1 0x20 ADD PUSH2 0x319F SWAP8 SWAP7 SWAP6 SWAP5 SWAP4 SWAP3 SWAP2 SWAP1 PUSH2 0x5102 JUMP JUMPDEST PUSH1 0x40 MLOAD PUSH1 0x20 DUP2 DUP4 SUB SUB DUP2 MSTORE SWAP1 PUSH1 0x40 MSTORE SWAP2 POP POP PUSH2 0x322A JUMP JUMPDEST PUSH1 0x9 DUP4 SUB PUSH2 0x31F0 JUMPI DUP1 DUP2 DUP3 DUP4 DUP5 DUP6 PUSH1 0x40 MLOAD PUSH1 0x20 ADD PUSH2 0x31D9 SWAP7 SWAP6 SWAP5 SWAP4 SWAP3 SWAP2 SWAP1 PUSH2 0x5201 JUMP JUMPDEST PUSH1 0x40 MLOAD PUSH1 0x20 DUP2 DUP4 SUB SUB DUP2 MSTORE SWAP1 PUSH1 0x40 MSTORE SWAP2 POP POP PUSH2 0x322A JUMP JUMPDEST PUSH1 0x40 MLOAD DUP1 PUSH1 0x40 ADD PUSH1 0x40 MSTORE DUP1 PUSH1 0x5 DUP2 MSTORE PUSH1 0x20 ADD PUSH32 0x6572726F72000000000000000000000000000000000000000000000000000000 DUP2 MSTORE POP SWAP2 POP POP JUMPDEST SWAP3 SWAP2 POP POP JUMP JUMPDEST PUSH1 0x40 MLOAD DUP1 PUSH1 0x60 ADD PUSH1 0x40 MSTORE DUP1 PUSH1 0x3 SWAP1 PUSH1 0x20 DUP3 MUL DUP1 CALLDATASIZE DUP4 CALLDATACOPY DUP1 DUP3 ADD SWAP2 POP POP SWAP1 POP POP SWAP1 JUMP JUMPDEST PUSH1 0x40 MLOAD DUP1 PUSH1 0x80 ADD PUSH1 0x40 MSTORE DUP1 PUSH1 0x0 DUP2 MSTORE PUSH1 0x20 ADD PUSH1 0x0 DUP2 MSTORE PUSH1 0x20 ADD PUSH1 0x0 DUP2 MSTORE PUSH1 0x20 ADD PUSH1 0x0 DUP2 MSTORE POP SWAP1 JUMP JUMPDEST PUSH1 0x0 PUSH1 0x40 MLOAD SWAP1 POP SWAP1 JUMP JUMPDEST PUSH1 0x0 DUP1 REVERT JUMPDEST PUSH1 0x0 DUP1 REVERT JUMPDEST PUSH1 0x0 PUSH32 0xFFFFFFFF00000000000000000000000000000000000000000000000000000000 DUP3 AND SWAP1 POP SWAP2 SWAP1 POP JUMP JUMPDEST PUSH2 0x32C3 DUP2 PUSH2 0x328E JUMP JUMPDEST DUP2 EQ PUSH2 0x32CE JUMPI PUSH1 0x0 DUP1 REVERT JUMPDEST POP JUMP JUMPDEST PUSH1 0x0 DUP2 CALLDATALOAD SWAP1 POP PUSH2 0x32E0 DUP2 PUSH2 0x32BA JUMP JUMPDEST SWAP3 SWAP2 POP POP JUMP JUMPDEST PUSH1 0x0 PUSH1 0x20 DUP3 DUP5 SUB SLT ISZERO PUSH2 0x32FC JUMPI PUSH2 0x32FB PUSH2 0x3284 JUMP JUMPDEST JUMPDEST PUSH1 0x0 PUSH2 0x330A DUP5 DUP3 DUP6 ADD PUSH2 0x32D1 JUMP JUMPDEST SWAP2 POP POP SWAP3 SWAP2 POP POP JUMP JUMPDEST PUSH1 0x0 DUP2 ISZERO ISZERO SWAP1 POP SWAP2 SWAP1 POP JUMP JUMPDEST PUSH2 0x3328 DUP2 PUSH2 0x3313 JUMP JUMPDEST DUP3 MSTORE POP POP JUMP JUMPDEST PUSH1 0x0 PUSH1 0x20 DUP3 ADD SWAP1 POP PUSH2 0x3343 PUSH1 0x0 DUP4 ADD DUP5 PUSH2 0x331F JUMP JUMPDEST SWAP3 SWAP2 POP POP JUMP JUMPDEST PUSH1 0x0 DUP2 MLOAD SWAP1 POP SWAP2 SWAP1 POP JUMP JUMPDEST PUSH1 0x0 DUP3 DUP3 MSTORE PUSH1 0x20 DUP3 ADD SWAP1 POP SWAP3 SWAP2 POP POP JUMP JUMPDEST PUSH1 0x0 JUMPDEST DUP4 DUP2 LT ISZERO PUSH2 0x3383 JUMPI DUP1 DUP3 ADD MLOAD DUP2 DUP5 ADD MSTORE PUSH1 0x20 DUP2 ADD SWAP1 POP PUSH2 0x3368 JUMP JUMPDEST PUSH1 0x0 DUP5 DUP5 ADD MSTORE POP POP POP POP JUMP JUMPDEST PUSH1 0x0 PUSH1 0x1F NOT PUSH1 0x1F DUP4 ADD AND SWAP1 POP SWAP2 SWAP1 POP JUMP JUMPDEST PUSH1 0x0 PUSH2 0x33AB DUP3 PUSH2 0x3349 JUMP JUMPDEST PUSH2 0x33B5 DUP2 DUP6 PUSH2 0x3354 JUMP JUMPDEST SWAP4 POP PUSH2 0x33C5 DUP2 DUP6 PUSH1 0x20 DUP7 ADD PUSH2 0x3365 JUMP JUMPDEST PUSH2 0x33CE DUP2 PUSH2 0x338F JUMP JUMPDEST DUP5 ADD SWAP2 POP POP SWAP3 SWAP2 POP POP JUMP JUMPDEST PUSH1 0x0 PUSH1 0x20 DUP3 ADD SWAP1 POP DUP2 DUP2 SUB PUSH1 0x0 DUP4 ADD MSTORE PUSH2 0x33F3 DUP2 DUP5 PUSH2 0x33A0 JUMP JUMPDEST SWAP1 POP SWAP3 SWAP2 POP POP JUMP JUMPDEST PUSH1 0x0 DUP2 SWAP1 POP SWAP2 SWAP1 POP JUMP JUMPDEST PUSH2 0x340E DUP2 PUSH2 0x33FB JUMP JUMPDEST DUP2 EQ PUSH2 0x3419 JUMPI PUSH1 0x0 DUP1 REVERT JUMPDEST POP JUMP JUMPDEST PUSH1 0x0 DUP2 CALLDATALOAD SWAP1 POP PUSH2 0x342B DUP2 PUSH2 0x3405 JUMP JUMPDEST SWAP3 SWAP2 POP POP JUMP JUMPDEST PUSH1 0x0 PUSH1 0x20 DUP3 DUP5 SUB SLT ISZERO PUSH2 0x3447 JUMPI PUSH2 0x3446 PUSH2 0x3284 JUMP JUMPDEST JUMPDEST PUSH1 0x0 PUSH2 0x3455 DUP5 DUP3 DUP6 ADD PUSH2 0x341C JUMP JUMPDEST SWAP2 POP POP SWAP3 SWAP2 POP POP JUMP JUMPDEST PUSH1 0x0 PUSH20 0xFFFFFFFFFFFFFFFFFFFFFFFFFFFFFFFFFFFFFFFF DUP3 AND SWAP1 POP SWAP2 SWAP1 POP JUMP JUMPDEST PUSH1 0x0 PUSH2 0x3489 DUP3 PUSH2 0x345E JUMP JUMPDEST SWAP1 POP SWAP2 SWAP1 POP JUMP JUMPDEST PUSH2 0x3499 DUP2 PUSH2 0x347E JUMP JUMPDEST DUP3 MSTORE POP POP JUMP JUMPDEST PUSH1 0x0 PUSH1 0x20 DUP3 ADD SWAP1 POP PUSH2 0x34B4 PUSH1 0x0 DUP4 ADD DUP5 PUSH2 0x3490 JUMP JUMPDEST SWAP3 SWAP2 POP POP JUMP JUMPDEST PUSH2 0x34C3 DUP2 PUSH2 0x347E JUMP JUMPDEST DUP2 EQ PUSH2 0x34CE JUMPI PUSH1 0x0 DUP1 REVERT JUMPDEST POP JUMP JUMPDEST PUSH1 0x0 DUP2 CALLDATALOAD SWAP1 POP PUSH2 0x34E0 DUP2 PUSH2 0x34BA JUMP JUMPDEST SWAP3 SWAP2 POP POP JUMP JUMPDEST PUSH1 0x0 DUP1 PUSH1 0x40 DUP4 DUP6 SUB SLT ISZERO PUSH2 0x34FD JUMPI PUSH2 0x34FC PUSH2 0x3284 JUMP JUMPDEST JUMPDEST PUSH1 0x0 PUSH2 0x350B DUP6 DUP3 DUP7 ADD PUSH2 0x34D1 JUMP JUMPDEST SWAP3 POP POP PUSH1 0x20 PUSH2 0x351C DUP6 DUP3 DUP7 ADD PUSH2 0x341C JUMP JUMPDEST SWAP2 POP POP SWAP3 POP SWAP3 SWAP1 POP JUMP JUMPDEST PUSH2 0x352F DUP2 PUSH2 0x33FB JUMP JUMPDEST DUP3 MSTORE POP POP JUMP JUMPDEST PUSH1 0x0 PUSH1 0x20 DUP3 ADD SWAP1 POP PUSH2 0x354A PUSH1 0x0 DUP4 ADD DUP5 PUSH2 0x3526 JUMP JUMPDEST SWAP3 SWAP2 POP POP JUMP JUMPDEST PUSH1 0x0 DUP1 PUSH1 0x0 PUSH1 0x60 DUP5 DUP7 SUB SLT ISZERO PUSH2 0x3569 JUMPI PUSH2 0x3568 PUSH2 0x3284 JUMP JUMPDEST JUMPDEST PUSH1 0x0 PUSH2 0x3577 DUP7 DUP3 DUP8 ADD PUSH2 0x34D1 JUMP JUMPDEST SWAP4 POP POP PUSH1 0x20 PUSH2 0x3588 DUP7 DUP3 DUP8 ADD PUSH2 0x34D1 JUMP JUMPDEST SWAP3 POP POP PUSH1 0x40 PUSH2 0x3599 DUP7 DUP3 DUP8 ADD PUSH2 0x341C JUMP JUMPDEST SWAP2 POP POP SWAP3 POP SWAP3 POP SWAP3 JUMP JUMPDEST PUSH1 0x0 DUP1 REVERT JUMPDEST PUSH32 0x4E487B7100000000000000000000000000000000000000000000000000000000 PUSH1 0x0 MSTORE PUSH1 0x41 PUSH1 0x4 MSTORE PUSH1 0x24 PUSH1 0x0 REVERT JUMPDEST PUSH2 0x35E0 DUP3 PUSH2 0x338F JUMP JUMPDEST DUP2 ADD DUP2 DUP2 LT PUSH8 0xFFFFFFFFFFFFFFFF DUP3 GT OR ISZERO PUSH2 0x35FF JUMPI PUSH2 0x35FE PUSH2 0x35A8 JUMP JUMPDEST JUMPDEST DUP1 PUSH1 0x40 MSTORE POP POP POP JUMP JUMPDEST PUSH1 0x0 PUSH2 0x3612 PUSH2 0x327A JUMP JUMPDEST SWAP1 POP PUSH2 0x361E DUP3 DUP3 PUSH2 0x35D7 JUMP JUMPDEST SWAP2 SWAP1 POP JUMP JUMPDEST PUSH1 0x0 PUSH8 0xFFFFFFFFFFFFFFFF DUP3 GT ISZERO PUSH2 0x363E JUMPI PUSH2 0x363D PUSH2 0x35A8 JUMP JUMPDEST JUMPDEST PUSH1 0x20 DUP3 MUL SWAP1 POP PUSH1 0x20 DUP2 ADD SWAP1 POP SWAP2 SWAP1 POP JUMP JUMPDEST PUSH1 0x0 DUP1 REVERT JUMPDEST PUSH1 0x0 PUSH2 0x3667 PUSH2 0x3662 DUP5 PUSH2 0x3623 JUMP JUMPDEST PUSH2 0x3608 JUMP JUMPDEST SWAP1 POP DUP1 DUP4 DUP3 MSTORE PUSH1 0x20 DUP3 ADD SWAP1 POP PUSH1 0x20 DUP5 MUL DUP4 ADD DUP6 DUP2 GT ISZERO PUSH2 0x368A JUMPI PUSH2 0x3689 PUSH2 0x364F JUMP JUMPDEST JUMPDEST DUP4 JUMPDEST DUP2 DUP2 LT ISZERO PUSH2 0x36B3 JUMPI DUP1 PUSH2 0x369F DUP9 DUP3 PUSH2 0x341C JUMP JUMPDEST DUP5 MSTORE PUSH1 0x20 DUP5 ADD SWAP4 POP POP PUSH1 0x20 DUP2 ADD SWAP1 POP PUSH2 0x368C JUMP JUMPDEST POP POP POP SWAP4 SWAP3 POP POP POP JUMP JUMPDEST PUSH1 0x0 DUP3 PUSH1 0x1F DUP4 ADD SLT PUSH2 0x36D2 JUMPI PUSH2 0x36D1 PUSH2 0x35A3 JUMP JUMPDEST JUMPDEST DUP2 CALLDATALOAD PUSH2 0x36E2 DUP5 DUP3 PUSH1 0x20 DUP7 ADD PUSH2 0x3654 JUMP JUMPDEST SWAP2 POP POP SWAP3 SWAP2 POP POP JUMP JUMPDEST PUSH1 0x0 PUSH1 0x20 DUP3 DUP5 SUB SLT ISZERO PUSH2 0x3701 JUMPI PUSH2 0x3700 PUSH2 0x3284 JUMP JUMPDEST JUMPDEST PUSH1 0x0 DUP3 ADD CALLDATALOAD PUSH8 0xFFFFFFFFFFFFFFFF DUP2 GT ISZERO PUSH2 0x371F JUMPI PUSH2 0x371E PUSH2 0x3289 JUMP JUMPDEST JUMPDEST PUSH2 0x372B DUP5 DUP3 DUP6 ADD PUSH2 0x36BD JUMP JUMPDEST SWAP2 POP POP SWAP3 SWAP2 POP POP JUMP JUMPDEST PUSH1 0x0 PUSH1 0x20 DUP3 DUP5 SUB SLT ISZERO PUSH2 0x374A JUMPI PUSH2 0x3749 PUSH2 0x3284 JUMP JUMPDEST JUMPDEST PUSH1 0x0 PUSH2 0x3758 DUP5 DUP3 DUP6 ADD PUSH2 0x34D1 JUMP JUMPDEST SWAP2 POP POP SWAP3 SWAP2 POP POP JUMP JUMPDEST PUSH2 0x376A DUP2 PUSH2 0x3313 JUMP JUMPDEST DUP2 EQ PUSH2 0x3775 JUMPI PUSH1 0x0 DUP1 REVERT JUMPDEST POP JUMP JUMPDEST PUSH1 0x0 DUP2 CALLDATALOAD SWAP1 POP PUSH2 0x3787 DUP2 PUSH2 0x3761 JUMP JUMPDEST SWAP3 SWAP2 POP POP JUMP JUMPDEST PUSH1 0x0 DUP1 PUSH1 0x40 DUP4 DUP6 SUB SLT ISZERO PUSH2 0x37A4 JUMPI PUSH2 0x37A3 PUSH2 0x3284 JUMP JUMPDEST JUMPDEST PUSH1 0x0 PUSH2 0x37B2 DUP6 DUP3 DUP7 ADD PUSH2 0x34D1 JUMP JUMPDEST SWAP3 POP POP PUSH1 0x20 PUSH2 0x37C3 DUP6 DUP3 DUP7 ADD PUSH2 0x3778 JUMP JUMPDEST SWAP2 POP POP SWAP3 POP SWAP3 SWAP1 POP JUMP JUMPDEST PUSH1 0x0 DUP1 REVERT JUMPDEST PUSH1 0x0 PUSH8 0xFFFFFFFFFFFFFFFF DUP3 GT ISZERO PUSH2 0x37ED JUMPI PUSH2 0x37EC PUSH2 0x35A8 JUMP JUMPDEST JUMPDEST PUSH2 0x37F6 DUP3 PUSH2 0x338F JUMP JUMPDEST SWAP1 POP PUSH1 0x20 DUP2 ADD SWAP1 POP SWAP2 SWAP1 POP JUMP JUMPDEST DUP3 DUP2 DUP4 CALLDATACOPY PUSH1 0x0 DUP4 DUP4 ADD MSTORE POP POP POP JUMP JUMPDEST PUSH1 0x0 PUSH2 0x3825 PUSH2 0x3820 DUP5 PUSH2 0x37D2 JUMP JUMPDEST PUSH2 0x3608 JUMP JUMPDEST SWAP1 POP DUP3 DUP2 MSTORE PUSH1 0x20 DUP2 ADD DUP5 DUP5 DUP5 ADD GT ISZERO PUSH2 0x3841 JUMPI PUSH2 0x3840 PUSH2 0x37CD JUMP JUMPDEST JUMPDEST PUSH2 0x384C DUP5 DUP3 DUP6 PUSH2 0x3803 JUMP JUMPDEST POP SWAP4 SWAP3 POP POP POP JUMP JUMPDEST PUSH1 0x0 DUP3 PUSH1 0x1F DUP4 ADD SLT PUSH2 0x3869 JUMPI PUSH2 0x3868 PUSH2 0x35A3 JUMP JUMPDEST JUMPDEST DUP2 CALLDATALOAD PUSH2 0x3879 DUP5 DUP3 PUSH1 0x20 DUP7 ADD PUSH2 0x3812 JUMP JUMPDEST SWAP2 POP POP SWAP3 SWAP2 POP POP JUMP JUMPDEST PUSH1 0x0 DUP1 PUSH1 0x0 DUP1 PUSH1 0x80 DUP6 DUP8 SUB SLT ISZERO PUSH2 0x389C JUMPI PUSH2 0x389B PUSH2 0x3284 JUMP JUMPDEST JUMPDEST PUSH1 0x0 PUSH2 0x38AA DUP8 DUP3 DUP9 ADD PUSH2 0x34D1 JUMP JUMPDEST SWAP5 POP POP PUSH1 0x20 PUSH2 0x38BB DUP8 DUP3 DUP9 ADD PUSH2 0x34D1 JUMP JUMPDEST SWAP4 POP POP PUSH1 0x40 PUSH2 0x38CC DUP8 DUP3 DUP9 ADD PUSH2 0x341C JUMP JUMPDEST SWAP3 POP POP PUSH1 0x60 DUP6 ADD CALLDATALOAD PUSH8 0xFFFFFFFFFFFFFFFF DUP2 GT ISZERO PUSH2 0x38ED JUMPI PUSH2 0x38EC PUSH2 0x3289 JUMP JUMPDEST JUMPDEST PUSH2 0x38F9 DUP8 DUP3 DUP9 ADD PUSH2 0x3854 JUMP JUMPDEST SWAP2 POP POP SWAP3 SWAP6 SWAP2 SWAP5 POP SWAP3 POP JUMP JUMPDEST PUSH1 0x0 DUP1 REVERT JUMPDEST PUSH1 0x0 DUP1 DUP4 PUSH1 0x1F DUP5 ADD SLT PUSH2 0x3920 JUMPI PUSH2 0x391F PUSH2 0x35A3 JUMP JUMPDEST JUMPDEST DUP3 CALLDATALOAD SWAP1 POP PUSH8 0xFFFFFFFFFFFFFFFF DUP2 GT ISZERO PUSH2 0x393D JUMPI PUSH2 0x393C PUSH2 0x3905 JUMP JUMPDEST JUMPDEST PUSH1 0x20 DUP4 ADD SWAP2 POP DUP4 PUSH1 0x20 DUP3 MUL DUP4 ADD GT ISZERO PUSH2 0x3959 JUMPI PUSH2 0x3958 PUSH2 0x364F JUMP JUMPDEST JUMPDEST SWAP3 POP SWAP3 SWAP1 POP JUMP JUMPDEST PUSH1 0x0 DUP1 PUSH1 0x0 PUSH1 0x40 DUP5 DUP7 SUB SLT ISZERO PUSH2 0x3979 JUMPI PUSH2 0x3978 PUSH2 0x3284 JUMP JUMPDEST JUMPDEST PUSH1 0x0 DUP5 ADD CALLDATALOAD PUSH8 0xFFFFFFFFFFFFFFFF DUP2 GT ISZERO PUSH2 0x3997 JUMPI PUSH2 0x3996 PUSH2 0x3289 JUMP JUMPDEST JUMPDEST PUSH2 0x39A3 DUP7 DUP3 DUP8 ADD PUSH2 0x390A JUMP JUMPDEST SWAP4 POP SWAP4 POP POP PUSH1 0x20 PUSH2 0x39B6 DUP7 DUP3 DUP8 ADD PUSH2 0x341C JUMP JUMPDEST SWAP2 POP POP SWAP3 POP SWAP3 POP SWAP3 JUMP JUMPDEST PUSH1 0x0 DUP1 PUSH1 0x40 DUP4 DUP6 SUB SLT ISZERO PUSH2 0x39D7 JUMPI PUSH2 0x39D6 PUSH2 0x3284 JUMP JUMPDEST JUMPDEST PUSH1 0x0 PUSH2 0x39E5 DUP6 DUP3 DUP7 ADD PUSH2 0x34D1 JUMP JUMPDEST SWAP3 POP POP PUSH1 0x20 PUSH2 0x39F6 DUP6 DUP3 DUP7 ADD PUSH2 0x34D1 JUMP JUMPDEST SWAP2 POP POP SWAP3 POP SWAP3 SWAP1 POP JUMP JUMPDEST PUSH32 0x4E487B7100000000000000000000000000000000000000000000000000000000 PUSH1 0x0 MSTORE PUSH1 0x22 PUSH1 0x4 MSTORE PUSH1 0x24 PUSH1 0x0 REVERT JUMPDEST PUSH1 0x0 PUSH1 0x2 DUP3 DIV SWAP1 POP PUSH1 0x1 DUP3 AND DUP1 PUSH2 0x3A47 JUMPI PUSH1 0x7F DUP3 AND SWAP2 POP JUMPDEST PUSH1 0x20 DUP3 LT DUP2 SUB PUSH2 0x3A5A JUMPI PUSH2 0x3A59 PUSH2 0x3A00 JUMP JUMPDEST JUMPDEST POP SWAP2 SWAP1 POP JUMP JUMPDEST PUSH32 0x636F6D62696E696E67206E6F7420616374697665000000000000000000000000 PUSH1 0x0 DUP3 ADD MSTORE POP JUMP JUMPDEST PUSH1 0x0 PUSH2 0x3A96 PUSH1 0x14 DUP4 PUSH2 0x3354 JUMP JUMPDEST SWAP2 POP PUSH2 0x3AA1 DUP3 PUSH2 0x3A60 JUMP JUMPDEST PUSH1 0x20 DUP3 ADD SWAP1 POP SWAP2 SWAP1 POP JUMP JUMPDEST PUSH1 0x0 PUSH1 0x20 DUP3 ADD SWAP1 POP DUP2 DUP2 SUB PUSH1 0x0 DUP4 ADD MSTORE PUSH2 0x3AC5 DUP2 PUSH2 0x3A89 JUMP JUMPDEST SWAP1 POP SWAP2 SWAP1 POP JUMP JUMPDEST PUSH32 0x4E487B7100000000000000000000000000000000000000000000000000000000 PUSH1 0x0 MSTORE PUSH1 0x32 PUSH1 0x4 MSTORE PUSH1 0x24 PUSH1 0x0 REVERT JUMPDEST PUSH32 0x6D757374206F776E20616C6C20746F6B656E7300000000000000000000000000 PUSH1 0x0 DUP3 ADD MSTORE POP JUMP JUMPDEST PUSH1 0x0 PUSH2 0x3B31 PUSH1 0x13 DUP4 PUSH2 0x3354 JUMP JUMPDEST SWAP2 POP PUSH2 0x3B3C DUP3 PUSH2 0x3AFB JUMP JUMPDEST PUSH1 0x20 DUP3 ADD SWAP1 POP SWAP2 SWAP1 POP JUMP JUMPDEST PUSH1 0x0 PUSH1 0x20 DUP3 ADD SWAP1 POP DUP2 DUP2 SUB PUSH1 0x0 DUP4 ADD MSTORE PUSH2 0x3B60 DUP2 PUSH2 0x3B24 JUMP JUMPDEST SWAP1 POP SWAP2 SWAP1 POP JUMP JUMPDEST PUSH32 0x4E487B7100000000000000000000000000000000000000000000000000000000 PUSH1 0x0 MSTORE PUSH1 0x11 PUSH1 0x4 MSTORE PUSH1 0x24 PUSH1 0x0 REVERT JUMPDEST PUSH1 0x0 PUSH2 0x3BA1 DUP3 PUSH2 0x33FB JUMP JUMPDEST SWAP2 POP PUSH2 0x3BAC DUP4 PUSH2 0x33FB JUMP JUMPDEST SWAP3 POP DUP3 DUP3 ADD SWAP1 POP DUP1 DUP3 GT ISZERO PUSH2 0x3BC4 JUMPI PUSH2 0x3BC3 PUSH2 0x3B67 JUMP JUMPDEST JUMPDEST SWAP3 SWAP2 POP POP JUMP JUMPDEST PUSH1 0x0 PUSH2 0x3BD5 DUP3 PUSH2 0x33FB JUMP JUMPDEST SWAP2 POP PUSH32 0xFFFFFFFFFFFFFFFFFFFFFFFFFFFFFFFFFFFFFFFFFFFFFFFFFFFFFFFFFFFFFFFF DUP3 SUB PUSH2 0x3C07 JUMPI PUSH2 0x3C06 PUSH2 0x3B67 JUMP JUMPDEST JUMPDEST PUSH1 0x1 DUP3 ADD SWAP1 POP SWAP2 SWAP1 POP JUMP JUMPDEST PUSH32 0x73756D206D7573742062652039393939206F72206C6573730000000000000000 PUSH1 0x0 DUP3 ADD MSTORE POP JUMP JUMPDEST PUSH1 0x0 PUSH2 0x3C48 PUSH1 0x18 DUP4 PUSH2 0x3354 JUMP JUMPDEST SWAP2 POP PUSH2 0x3C53 DUP3 PUSH2 0x3C12 JUMP JUMPDEST PUSH1 0x20 DUP3 ADD SWAP1 POP SWAP2 SWAP1 POP JUMP JUMPDEST PUSH1 0x0 PUSH1 0x20 DUP3 ADD SWAP1 POP DUP2 DUP2 SUB PUSH1 0x0 DUP4 ADD MSTORE PUSH2 0x3C77 DUP2 PUSH2 0x3C3B JUMP JUMPDEST SWAP1 POP SWAP2 SWAP1 POP JUMP JUMPDEST PUSH32 0x6E6F7420656E6F7567682066726565206D696E74730000000000000000000000 PUSH1 0x0 DUP3 ADD MSTORE POP JUMP JUMPDEST PUSH1 0x0 PUSH2 0x3CB4 PUSH1 0x15 DUP4 PUSH2 0x3354 JUMP JUMPDEST SWAP2 POP PUSH2 0x3CBF DUP3 PUSH2 0x3C7E JUMP JUMPDEST PUSH1 0x20 DUP3 ADD SWAP1 POP SWAP2 SWAP1 POP JUMP JUMPDEST PUSH1 0x0 PUSH1 0x20 DUP3 ADD SWAP1 POP DUP2 DUP2 SUB PUSH1 0x0 DUP4 ADD MSTORE PUSH2 0x3CE3 DUP2 PUSH2 0x3CA7 JUMP JUMPDEST SWAP1 POP SWAP2 SWAP1 POP JUMP JUMPDEST PUSH1 0x0 PUSH2 0x3CF5 DUP3 PUSH2 0x33FB JUMP JUMPDEST SWAP2 POP PUSH2 0x3D00 DUP4 PUSH2 0x33FB JUMP JUMPDEST SWAP3 POP DUP3 DUP3 SUB SWAP1 POP DUP2 DUP2 GT ISZERO PUSH2 0x3D18 JUMPI PUSH2 0x3D17 PUSH2 0x3B67 JUMP JUMPDEST JUMPDEST SWAP3 SWAP2 POP POP JUMP JUMPDEST PUSH1 0x0 PUSH2 0x3D29 DUP3 PUSH2 0x33FB JUMP JUMPDEST SWAP2 POP PUSH2 0x3D34 DUP4 PUSH2 0x33FB JUMP JUMPDEST SWAP3 POP DUP3 DUP3 MUL PUSH2 0x3D42 DUP2 PUSH2 0x33FB JUMP JUMPDEST SWAP2 POP DUP3 DUP3 DIV DUP5 EQ DUP4 ISZERO OR PUSH2 0x3D59 JUMPI PUSH2 0x3D58 PUSH2 0x3B67 JUMP JUMPDEST JUMPDEST POP SWAP3 SWAP2 POP POP JUMP JUMPDEST PUSH32 0x6E6F7420656E6F75676820657468000000000000000000000000000000000000 PUSH1 0x0 DUP3 ADD MSTORE POP JUMP JUMPDEST PUSH1 0x0 PUSH2 0x3D96 PUSH1 0xE DUP4 PUSH2 0x3354 JUMP JUMPDEST SWAP2 POP PUSH2 0x3DA1 DUP3 PUSH2 0x3D60 JUMP JUMPDEST PUSH1 0x20 DUP3 ADD SWAP1 POP SWAP2 SWAP1 POP JUMP JUMPDEST PUSH1 0x0 PUSH1 0x20 DUP3 ADD SWAP1 POP DUP2 DUP2 SUB PUSH1 0x0 DUP4 ADD MSTORE PUSH2 0x3DC5 DUP2 PUSH2 0x3D89 JUMP JUMPDEST SWAP1 POP SWAP2 SWAP1 POP JUMP JUMPDEST PUSH32 0x4F776E61626C653A206E6577206F776E657220697320746865207A65726F2061 PUSH1 0x0 DUP3 ADD MSTORE PUSH32 0x6464726573730000000000000000000000000000000000000000000000000000 PUSH1 0x20 DUP3 ADD MSTORE POP JUMP JUMPDEST PUSH1 0x0 PUSH2 0x3E28 PUSH1 0x26 DUP4 PUSH2 0x3354 JUMP JUMPDEST SWAP2 POP PUSH2 0x3E33 DUP3 PUSH2 0x3DCC JUMP JUMPDEST PUSH1 0x40 DUP3 ADD SWAP1 POP SWAP2 SWAP1 POP JUMP JUMPDEST PUSH1 0x0 PUSH1 0x20 DUP3 ADD SWAP1 POP DUP2 DUP2 SUB PUSH1 0x0 DUP4 ADD MSTORE PUSH2 0x3E57 DUP2 PUSH2 0x3E1B JUMP JUMPDEST SWAP1 POP SWAP2 SWAP1 POP JUMP JUMPDEST PUSH1 0x0 DUP2 SWAP1 POP SWAP2 SWAP1 POP JUMP JUMPDEST PUSH2 0x3E79 PUSH2 0x3E74 DUP3 PUSH2 0x33FB JUMP JUMPDEST PUSH2 0x3E5E JUMP JUMPDEST DUP3 MSTORE POP POP JUMP JUMPDEST PUSH1 0x0 PUSH2 0x3E8B DUP3 DUP5 PUSH2 0x3E68 JUMP JUMPDEST PUSH1 0x20 DUP3 ADD SWAP2 POP DUP2 SWAP1 POP SWAP3 SWAP2 POP POP JUMP JUMPDEST PUSH32 0x4E487B7100000000000000000000000000000000000000000000000000000000 PUSH1 0x0 MSTORE PUSH1 0x12 PUSH1 0x4 MSTORE PUSH1 0x24 PUSH1 0x0 REVERT JUMPDEST PUSH1 0x0 PUSH2 0x3ED4 DUP3 PUSH2 0x33FB JUMP JUMPDEST SWAP2 POP PUSH2 0x3EDF DUP4 PUSH2 0x33FB JUMP JUMPDEST SWAP3 POP DUP3 PUSH2 0x3EEF JUMPI PUSH2 0x3EEE PUSH2 0x3E9A JUMP JUMPDEST JUMPDEST DUP3 DUP3 MOD SWAP1 POP SWAP3 SWAP2 POP POP JUMP JUMPDEST PUSH32 0x4F776E61626C653A2063616C6C6572206973206E6F7420746865206F776E6572 PUSH1 0x0 DUP3 ADD MSTORE POP JUMP JUMPDEST PUSH1 0x0 PUSH2 0x3F30 PUSH1 0x20 DUP4 PUSH2 0x3354 JUMP JUMPDEST SWAP2 POP PUSH2 0x3F3B DUP3 PUSH2 0x3EFA JUMP JUMPDEST PUSH1 0x20 DUP3 ADD SWAP1 POP SWAP2 SWAP1 POP JUMP JUMPDEST PUSH1 0x0 PUSH1 0x20 DUP3 ADD SWAP1 POP DUP2 DUP2 SUB PUSH1 0x0 DUP4 ADD MSTORE PUSH2 0x3F5F DUP2 PUSH2 0x3F23 JUMP JUMPDEST SWAP1 POP SWAP2 SWAP1 POP JUMP JUMPDEST PUSH32 0x6D696E7420697320636C6F736564000000000000000000000000000000000000 PUSH1 0x0 DUP3 ADD MSTORE POP JUMP JUMPDEST PUSH1 0x0 PUSH2 0x3F9C PUSH1 0xE DUP4 PUSH2 0x3354 JUMP JUMPDEST SWAP2 POP PUSH2 0x3FA7 DUP3 PUSH2 0x3F66 JUMP JUMPDEST PUSH1 0x20 DUP3 ADD SWAP1 POP SWAP2 SWAP1 POP JUMP JUMPDEST PUSH1 0x0 PUSH1 0x20 DUP3 ADD SWAP1 POP DUP2 DUP2 SUB PUSH1 0x0 DUP4 ADD MSTORE PUSH2 0x3FCB DUP2 PUSH2 0x3F8F JUMP JUMPDEST SWAP1 POP SWAP2 SWAP1 POP JUMP JUMPDEST PUSH1 0x0 PUSH2 0x3FDD DUP3 PUSH2 0x33FB JUMP JUMPDEST SWAP2 POP PUSH2 0x3FE8 DUP4 PUSH2 0x33FB JUMP JUMPDEST SWAP3 POP DUP3 PUSH2 0x3FF8 JUMPI PUSH2 0x3FF7 PUSH2 0x3E9A JUMP JUMPDEST JUMPDEST DUP3 DUP3 DIV SWAP1 POP SWAP3 SWAP2 POP POP JUMP JUMPDEST PUSH1 0x0 DUP2 MLOAD SWAP1 POP SWAP2 SWAP1 POP JUMP JUMPDEST PUSH1 0x0 DUP3 DUP3 MSTORE PUSH1 0x20 DUP3 ADD SWAP1 POP SWAP3 SWAP2 POP POP JUMP JUMPDEST PUSH1 0x0 PUSH2 0x402A DUP3 PUSH2 0x4003 JUMP JUMPDEST PUSH2 0x4034 DUP2 DUP6 PUSH2 0x400E JUMP JUMPDEST SWAP4 POP PUSH2 0x4044 DUP2 DUP6 PUSH1 0x20 DUP7 ADD PUSH2 0x3365 JUMP JUMPDEST PUSH2 0x404D DUP2 PUSH2 0x338F JUMP JUMPDEST DUP5 ADD SWAP2 POP POP SWAP3 SWAP2 POP POP JUMP JUMPDEST PUSH1 0x0 PUSH1 0x80 DUP3 ADD SWAP1 POP PUSH2 0x406D PUSH1 0x0 DUP4 ADD DUP8 PUSH2 0x3490 JUMP JUMPDEST PUSH2 0x407A PUSH1 0x20 DUP4 ADD DUP7 PUSH2 0x3490 JUMP JUMPDEST PUSH2 0x4087 PUSH1 0x40 DUP4 ADD DUP6 PUSH2 0x3526 JUMP JUMPDEST DUP2 DUP2 SUB PUSH1 0x60 DUP4 ADD MSTORE PUSH2 0x4099 DUP2 DUP5 PUSH2 0x401F JUMP JUMPDEST SWAP1 POP SWAP6 SWAP5 POP POP POP POP POP JUMP JUMPDEST PUSH1 0x0 DUP2 MLOAD SWAP1 POP PUSH2 0x40B3 DUP2 PUSH2 0x32BA JUMP JUMPDEST SWAP3 SWAP2 POP POP JUMP JUMPDEST PUSH1 0x0 PUSH1 0x20 DUP3 DUP5 SUB SLT ISZERO PUSH2 0x40CF JUMPI PUSH2 0x40CE PUSH2 0x3284 JUMP JUMPDEST JUMPDEST PUSH1 0x0 PUSH2 0x40DD DUP5 DUP3 DUP6 ADD PUSH2 0x40A4 JUMP JUMPDEST SWAP2 POP POP SWAP3 SWAP2 POP POP JUMP JUMPDEST PUSH1 0x0 DUP2 SWAP1 POP SWAP3 SWAP2 POP POP JUMP JUMPDEST PUSH32 0x7B226E616D65223A202255494E54532000000000000000000000000000000000 PUSH1 0x0 DUP3 ADD MSTORE POP JUMP JUMPDEST PUSH1 0x0 PUSH2 0x4127 PUSH1 0x10 DUP4 PUSH2 0x40E6 JUMP JUMPDEST SWAP2 POP PUSH2 0x4132 DUP3 PUSH2 0x40F1 JUMP JUMPDEST PUSH1 0x10 DUP3 ADD SWAP1 POP SWAP2 SWAP1 POP JUMP JUMPDEST PUSH1 0x0 PUSH2 0x4148 DUP3 PUSH2 0x3349 JUMP JUMPDEST PUSH2 0x4152 DUP2 DUP6 PUSH2 0x40E6 JUMP JUMPDEST SWAP4 POP PUSH2 0x4162 DUP2 DUP6 PUSH1 0x20 DUP7 ADD PUSH2 0x3365 JUMP JUMPDEST DUP1 DUP5 ADD SWAP2 POP POP SWAP3 SWAP2 POP POP JUMP JUMPDEST PUSH32 0x205B4255524E45445D222C20226465736372697074696F6E223A20224E756D62 PUSH1 0x0 DUP3 ADD MSTORE PUSH32 0x65727320617265206172742C20616E642077652061726520617274697374732E PUSH1 0x20 DUP3 ADD MSTORE PUSH32 0x222C202261747472696275746573223A5B7B2274726169745F74797065223A20 PUSH1 0x40 DUP3 ADD MSTORE PUSH32 0x224275726E6564222C202276616C7565223A2022596573227D5D2C2022696D61 PUSH1 0x60 DUP3 ADD MSTORE PUSH32 0x6765223A2022646174613A696D6167652F7376672B786D6C3B6261736536342C PUSH1 0x80 DUP3 ADD MSTORE POP JUMP JUMPDEST PUSH1 0x0 PUSH2 0x423C PUSH1 0xA0 DUP4 PUSH2 0x40E6 JUMP JUMPDEST SWAP2 POP PUSH2 0x4247 DUP3 PUSH2 0x416E JUMP JUMPDEST PUSH1 0xA0 DUP3 ADD SWAP1 POP SWAP2 SWAP1 POP JUMP JUMPDEST PUSH32 0x227D000000000000000000000000000000000000000000000000000000000000 PUSH1 0x0 DUP3 ADD MSTORE POP JUMP JUMPDEST PUSH1 0x0 PUSH2 0x4288 PUSH1 0x2 DUP4 PUSH2 0x40E6 JUMP JUMPDEST SWAP2 POP PUSH2 0x4293 DUP3 PUSH2 0x4252 JUMP JUMPDEST PUSH1 0x2 DUP3 ADD SWAP1 POP SWAP2 SWAP1 POP JUMP JUMPDEST PUSH1 0x0 PUSH2 0x42A9 DUP3 PUSH2 0x411A JUMP JUMPDEST SWAP2 POP PUSH2 0x42B5 DUP3 DUP6 PUSH2 0x413D JUMP JUMPDEST SWAP2 POP PUSH2 0x42C0 DUP3 PUSH2 0x422F JUMP JUMPDEST SWAP2 POP PUSH2 0x42CC DUP3 DUP5 PUSH2 0x413D JUMP JUMPDEST SWAP2 POP PUSH2 0x42D7 DUP3 PUSH2 0x427B JUMP JUMPDEST SWAP2 POP DUP2 SWAP1 POP SWAP4 SWAP3 POP POP POP JUMP JUMPDEST PUSH32 0x222C20226465736372697074696F6E223A20224E756D62657273206172652061 PUSH1 0x0 DUP3 ADD MSTORE PUSH32 0x72742C20616E642077652061726520617274697374732E222C20226174747269 PUSH1 0x20 DUP3 ADD MSTORE PUSH32 0x6275746573223A5B7B2274726169745F74797065223A20224E756D626572222C PUSH1 0x40 DUP3 ADD MSTORE PUSH32 0x20226D61785F76616C7565223A20393939392C202276616C7565223A20000000 PUSH1 0x60 DUP3 ADD MSTORE POP JUMP JUMPDEST PUSH1 0x0 PUSH2 0x438B PUSH1 0x7D DUP4 PUSH2 0x40E6 JUMP JUMPDEST SWAP2 POP PUSH2 0x4396 DUP3 PUSH2 0x42E3 JUMP JUMPDEST PUSH1 0x7D DUP3 ADD SWAP1 POP SWAP2 SWAP1 POP JUMP JUMPDEST PUSH32 0x7D2C7B22646973706C61795F74797065223A20226E756D626572222C20227472 PUSH1 0x0 DUP3 ADD MSTORE PUSH32 0x6169745F74797065223A20224D696E74205068617365222C202276616C756522 PUSH1 0x20 DUP3 ADD MSTORE PUSH32 0x3A20000000000000000000000000000000000000000000000000000000000000 PUSH1 0x40 DUP3 ADD MSTORE POP JUMP JUMPDEST PUSH1 0x0 PUSH2 0x4423 PUSH1 0x42 DUP4 PUSH2 0x40E6 JUMP JUMPDEST SWAP2 POP PUSH2 0x442E DUP3 PUSH2 0x43A1 JUMP JUMPDEST PUSH1 0x42 DUP3 ADD SWAP1 POP SWAP2 SWAP1 POP JUMP JUMPDEST PUSH32 0x7D2C7B2274726169745F74797065223A20224275726E6564222C202276616C75 PUSH1 0x0 DUP3 ADD MSTORE PUSH32 0x65223A20224E6F227D2C7B2274726169745F74797065223A2022426173652043 PUSH1 0x20 DUP3 ADD MSTORE PUSH32 0x6F6C6F72222C202276616C7565223A2022000000000000000000000000000000 PUSH1 0x40 DUP3 ADD MSTORE POP JUMP JUMPDEST PUSH1 0x0 PUSH2 0x44BB PUSH1 0x51 DUP4 PUSH2 0x40E6 JUMP JUMPDEST SWAP2 POP PUSH2 0x44C6 DUP3 PUSH2 0x4439 JUMP JUMPDEST PUSH1 0x51 DUP3 ADD SWAP1 POP SWAP2 SWAP1 POP JUMP JUMPDEST PUSH32 0x227D2C7B2274726169745F74797065223A2022436F6C6F72222C202276616C75 PUSH1 0x0 DUP3 ADD MSTORE PUSH32 0x65223A2022524742280000000000000000000000000000000000000000000000 PUSH1 0x20 DUP3 ADD MSTORE POP JUMP JUMPDEST PUSH1 0x0 PUSH2 0x452D PUSH1 0x29 DUP4 PUSH2 0x40E6 JUMP JUMPDEST SWAP2 POP PUSH2 0x4538 DUP3 PUSH2 0x44D1 JUMP JUMPDEST PUSH1 0x29 DUP3 ADD SWAP1 POP SWAP2 SWAP1 POP JUMP JUMPDEST PUSH32 0x2C00000000000000000000000000000000000000000000000000000000000000 PUSH1 0x0 DUP3 ADD MSTORE POP JUMP JUMPDEST PUSH1 0x0 PUSH2 0x4579 PUSH1 0x1 DUP4 PUSH2 0x40E6 JUMP JUMPDEST SWAP2 POP PUSH2 0x4584 DUP3 PUSH2 0x4543 JUMP JUMPDEST PUSH1 0x1 DUP3 ADD SWAP1 POP SWAP2 SWAP1 POP JUMP JUMPDEST PUSH32 0x29227D5D2C2022696D616765223A2022646174613A696D6167652F7376672B78 PUSH1 0x0 DUP3 ADD MSTORE PUSH32 0x6D6C3B6261736536342C00000000000000000000000000000000000000000000 PUSH1 0x20 DUP3 ADD MSTORE POP JUMP JUMPDEST PUSH1 0x0 PUSH2 0x45EB PUSH1 0x2A DUP4 PUSH2 0x40E6 JUMP JUMPDEST SWAP2 POP PUSH2 0x45F6 DUP3 PUSH2 0x458F JUMP JUMPDEST PUSH1 0x2A DUP3 ADD SWAP1 POP SWAP2 SWAP1 POP JUMP JUMPDEST PUSH1 0x0 PUSH2 0x460C DUP3 PUSH2 0x411A JUMP JUMPDEST SWAP2 POP PUSH2 0x4618 DUP3 DUP12 PUSH2 0x413D JUMP JUMPDEST SWAP2 POP PUSH2 0x4623 DUP3 PUSH2 0x437E JUMP JUMPDEST SWAP2 POP PUSH2 0x462F DUP3 DUP11 PUSH2 0x413D JUMP JUMPDEST SWAP2 POP PUSH2 0x463A DUP3 PUSH2 0x4416 JUMP JUMPDEST SWAP2 POP PUSH2 0x4646 DUP3 DUP10 PUSH2 0x413D JUMP JUMPDEST SWAP2 POP PUSH2 0x4651 DUP3 PUSH2 0x44AE JUMP JUMPDEST SWAP2 POP PUSH2 0x465D DUP3 DUP9 PUSH2 0x413D JUMP JUMPDEST SWAP2 POP PUSH2 0x4668 DUP3 PUSH2 0x4520 JUMP JUMPDEST SWAP2 POP PUSH2 0x4674 DUP3 DUP8 PUSH2 0x413D JUMP JUMPDEST SWAP2 POP PUSH2 0x467F DUP3 PUSH2 0x456C JUMP JUMPDEST SWAP2 POP PUSH2 0x468B DUP3 DUP7 PUSH2 0x413D JUMP JUMPDEST SWAP2 POP PUSH2 0x4696 DUP3 PUSH2 0x456C JUMP JUMPDEST SWAP2 POP PUSH2 0x46A2 DUP3 DUP6 PUSH2 0x413D JUMP JUMPDEST SWAP2 POP PUSH2 0x46AD DUP3 PUSH2 0x45DE JUMP JUMPDEST SWAP2 POP PUSH2 0x46B9 DUP3 DUP5 PUSH2 0x413D JUMP JUMPDEST SWAP2 POP PUSH2 0x46C4 DUP3 PUSH2 0x427B JUMP JUMPDEST SWAP2 POP DUP2 SWAP1 POP SWAP10 SWAP9 POP POP POP POP POP POP POP POP POP JUMP JUMPDEST PUSH32 0x646174613A6170706C69636174696F6E2F6A736F6E3B6261736536342C000000 PUSH1 0x0 DUP3 ADD MSTORE POP JUMP JUMPDEST PUSH1 0x0 PUSH2 0x470C PUSH1 0x1D DUP4 PUSH2 0x40E6 JUMP JUMPDEST SWAP2 POP PUSH2 0x4717 DUP3 PUSH2 0x46D6 JUMP JUMPDEST PUSH1 0x1D DUP3 ADD SWAP1 POP SWAP2 SWAP1 POP JUMP JUMPDEST PUSH1 0x0 PUSH2 0x472D DUP3 PUSH2 0x46FF JUMP JUMPDEST SWAP2 POP PUSH2 0x4739 DUP3 DUP5 PUSH2 0x413D JUMP JUMPDEST SWAP2 POP DUP2 SWAP1 POP SWAP3 SWAP2 POP POP JUMP JUMPDEST PUSH1 0x0 PUSH1 0xFF DUP3 AND SWAP1 POP SWAP2 SWAP1 POP JUMP JUMPDEST PUSH1 0x0 PUSH2 0x475C DUP3 PUSH2 0x4744 JUMP JUMPDEST SWAP2 POP PUSH2 0x4767 DUP4 PUSH2 0x4744 JUMP JUMPDEST SWAP3 POP DUP3 DUP3 ADD SWAP1 POP PUSH1 0xFF DUP2 GT ISZERO PUSH2 0x4780 JUMPI PUSH2 0x477F PUSH2 0x3B67 JUMP JUMPDEST JUMPDEST SWAP3 SWAP2 POP POP JUMP JUMPDEST PUSH32 0x2A7B66696C6C3A72676228000000000000000000000000000000000000000000 PUSH1 0x0 DUP3 ADD MSTORE POP JUMP JUMPDEST PUSH1 0x0 PUSH2 0x47BC PUSH1 0xB DUP4 PUSH2 0x40E6 JUMP JUMPDEST SWAP2 POP PUSH2 0x47C7 DUP3 PUSH2 0x4786 JUMP JUMPDEST PUSH1 0xB DUP3 ADD SWAP1 POP SWAP2 SWAP1 POP JUMP JUMPDEST PUSH32 0x297D2362677B66696C6C3A233043304330437D00000000000000000000000000 PUSH1 0x0 DUP3 ADD MSTORE POP JUMP JUMPDEST PUSH1 0x0 PUSH2 0x4808 PUSH1 0x13 DUP4 PUSH2 0x40E6 JUMP JUMPDEST SWAP2 POP PUSH2 0x4813 DUP3 PUSH2 0x47D2 JUMP JUMPDEST PUSH1 0x13 DUP3 ADD SWAP1 POP SWAP2 SWAP1 POP JUMP JUMPDEST PUSH1 0x0 PUSH2 0x4829 DUP3 PUSH2 0x47AF JUMP JUMPDEST SWAP2 POP PUSH2 0x4835 DUP3 DUP7 PUSH2 0x413D JUMP JUMPDEST SWAP2 POP PUSH2 0x4840 DUP3 PUSH2 0x456C JUMP JUMPDEST SWAP2 POP PUSH2 0x484C DUP3 DUP6 PUSH2 0x413D JUMP JUMPDEST SWAP2 POP PUSH2 0x4857 DUP3 PUSH2 0x456C JUMP JUMPDEST SWAP2 POP PUSH2 0x4863 DUP3 DUP5 PUSH2 0x413D JUMP JUMPDEST SWAP2 POP PUSH2 0x486E DUP3 PUSH2 0x47FB JUMP JUMPDEST SWAP2 POP DUP2 SWAP1 POP SWAP5 SWAP4 POP POP POP POP JUMP JUMPDEST PUSH1 0x0 PUSH2 0x4887 DUP3 DUP6 PUSH2 0x413D JUMP JUMPDEST SWAP2 POP PUSH2 0x4893 DUP3 DUP5 PUSH2 0x413D JUMP JUMPDEST SWAP2 POP DUP2 SWAP1 POP SWAP4 SWAP3 POP POP POP JUMP JUMPDEST PUSH32 0x3C2F7374796C653E3C2F7376673E000000000000000000000000000000000000 PUSH1 0x0 DUP3 ADD MSTORE POP JUMP JUMPDEST PUSH1 0x0 PUSH2 0x48D5 PUSH1 0xE DUP4 PUSH2 0x40E6 JUMP JUMPDEST SWAP2 POP PUSH2 0x48E0 DUP3 PUSH2 0x489F JUMP JUMPDEST PUSH1 0xE DUP3 ADD SWAP1 POP SWAP2 SWAP1 POP JUMP JUMPDEST PUSH1 0x0 PUSH2 0x48F7 DUP3 DUP6 PUSH2 0x413D JUMP JUMPDEST SWAP2 POP PUSH2 0x4903 DUP3 DUP5 PUSH2 0x413D JUMP JUMPDEST SWAP2 POP PUSH2 0x490E DUP3 PUSH2 0x48C8 JUMP JUMPDEST SWAP2 POP DUP2 SWAP1 POP SWAP4 SWAP3 POP POP POP JUMP JUMPDEST PUSH32 0x2370000000000000000000000000000000000000000000000000000000000000 PUSH1 0x0 DUP3 ADD MSTORE POP JUMP JUMPDEST PUSH1 0x0 PUSH2 0x4950 PUSH1 0x2 DUP4 PUSH2 0x40E6 JUMP JUMPDEST SWAP2 POP PUSH2 0x495B DUP3 PUSH2 0x491A JUMP JUMPDEST PUSH1 0x2 DUP3 ADD SWAP1 POP SWAP2 SWAP1 POP JUMP JUMPDEST PUSH32 0x312C000000000000000000000000000000000000000000000000000000000000 PUSH1 0x0 DUP3 ADD MSTORE POP JUMP JUMPDEST PUSH1 0x0 PUSH2 0x499C PUSH1 0x2 DUP4 PUSH2 0x40E6 JUMP JUMPDEST SWAP2 POP PUSH2 0x49A7 DUP3 PUSH2 0x4966 JUMP JUMPDEST PUSH1 0x2 DUP3 ADD SWAP1 POP SWAP2 SWAP1 POP JUMP JUMPDEST PUSH32 0x322C000000000000000000000000000000000000000000000000000000000000 PUSH1 0x0 DUP3 ADD MSTORE POP JUMP JUMPDEST PUSH1 0x0 PUSH2 0x49E8 PUSH1 0x2 DUP4 PUSH2 0x40E6 JUMP JUMPDEST SWAP2 POP PUSH2 0x49F3 DUP3 PUSH2 0x49B2 JUMP JUMPDEST PUSH1 0x2 DUP3 ADD SWAP1 POP SWAP2 SWAP1 POP JUMP JUMPDEST PUSH32 0x332C000000000000000000000000000000000000000000000000000000000000 PUSH1 0x0 DUP3 ADD MSTORE POP JUMP JUMPDEST PUSH1 0x0 PUSH2 0x4A34 PUSH1 0x2 DUP4 PUSH2 0x40E6 JUMP JUMPDEST SWAP2 POP PUSH2 0x4A3F DUP3 PUSH2 0x49FE JUMP JUMPDEST PUSH1 0x2 DUP3 ADD SWAP1 POP SWAP2 SWAP1 POP JUMP JUMPDEST PUSH32 0x352C000000000000000000000000000000000000000000000000000000000000 PUSH1 0x0 DUP3 ADD MSTORE POP JUMP JUMPDEST PUSH1 0x0 PUSH2 0x4A80 PUSH1 0x2 DUP4 PUSH2 0x40E6 JUMP JUMPDEST SWAP2 POP PUSH2 0x4A8B DUP3 PUSH2 0x4A4A JUMP JUMPDEST PUSH1 0x2 DUP3 ADD SWAP1 POP SWAP2 SWAP1 POP JUMP JUMPDEST PUSH32 0x362C000000000000000000000000000000000000000000000000000000000000 PUSH1 0x0 DUP3 ADD MSTORE POP JUMP JUMPDEST PUSH1 0x0 PUSH2 0x4ACC PUSH1 0x2 DUP4 PUSH2 0x40E6 JUMP JUMPDEST SWAP2 POP PUSH2 0x4AD7 DUP3 PUSH2 0x4A96 JUMP JUMPDEST PUSH1 0x2 DUP3 ADD SWAP1 POP SWAP2 SWAP1 POP JUMP JUMPDEST PUSH32 0x37207B66696C6C2D6F7061636974793A317D0000000000000000000000000000 PUSH1 0x0 DUP3 ADD MSTORE POP JUMP JUMPDEST PUSH1 0x0 PUSH2 0x4B18 PUSH1 0x12 DUP4 PUSH2 0x40E6 JUMP JUMPDEST SWAP2 POP PUSH2 0x4B23 DUP3 PUSH2 0x4AE2 JUMP JUMPDEST PUSH1 0x12 DUP3 ADD SWAP1 POP SWAP2 SWAP1 POP JUMP JUMPDEST PUSH1 0x0 PUSH2 0x4B39 DUP3 PUSH2 0x4943 JUMP JUMPDEST SWAP2 POP PUSH2 0x4B45 DUP3 DUP10 PUSH2 0x413D JUMP JUMPDEST SWAP2 POP PUSH2 0x4B50 DUP3 PUSH2 0x498F JUMP JUMPDEST SWAP2 POP PUSH2 0x4B5B DUP3 PUSH2 0x4943 JUMP JUMPDEST SWAP2 POP PUSH2 0x4B67 DUP3 DUP9 PUSH2 0x413D JUMP JUMPDEST SWAP2 POP PUSH2 0x4B72 DUP3 PUSH2 0x49DB JUMP JUMPDEST SWAP2 POP PUSH2 0x4B7D DUP3 PUSH2 0x4943 JUMP JUMPDEST SWAP2 POP PUSH2 0x4B89 DUP3 DUP8 PUSH2 0x413D JUMP JUMPDEST SWAP2 POP PUSH2 0x4B94 DUP3 PUSH2 0x4A27 JUMP JUMPDEST SWAP2 POP PUSH2 0x4B9F DUP3 PUSH2 0x4943 JUMP JUMPDEST SWAP2 POP PUSH2 0x4BAB DUP3 DUP7 PUSH2 0x413D JUMP JUMPDEST SWAP2 POP PUSH2 0x4BB6 DUP3 PUSH2 0x4A73 JUMP JUMPDEST SWAP2 POP PUSH2 0x4BC1 DUP3 PUSH2 0x4943 JUMP JUMPDEST SWAP2 POP PUSH2 0x4BCD DUP3 DUP6 PUSH2 0x413D JUMP JUMPDEST SWAP2 POP PUSH2 0x4BD8 DUP3 PUSH2 0x4ABF JUMP JUMPDEST SWAP2 POP PUSH2 0x4BE3 DUP3 PUSH2 0x4943 JUMP JUMPDEST SWAP2 POP PUSH2 0x4BEF DUP3 DUP5 PUSH2 0x413D JUMP JUMPDEST SWAP2 POP PUSH2 0x4BFA DUP3 PUSH2 0x4B0B JUMP JUMPDEST SWAP2 POP DUP2 SWAP1 POP SWAP8 SWAP7 POP POP POP POP POP POP POP JUMP JUMPDEST PUSH32 0x36207B66696C6C2D6F7061636974793A317D0000000000000000000000000000 PUSH1 0x0 DUP3 ADD MSTORE POP JUMP JUMPDEST PUSH1 0x0 PUSH2 0x4C40 PUSH1 0x12 DUP4 PUSH2 0x40E6 JUMP JUMPDEST SWAP2 POP PUSH2 0x4C4B DUP3 PUSH2 0x4C0A JUMP JUMPDEST PUSH1 0x12 DUP3 ADD SWAP1 POP SWAP2 SWAP1 POP JUMP JUMPDEST PUSH1 0x0 PUSH2 0x4C61 DUP3 PUSH2 0x4943 JUMP JUMPDEST SWAP2 POP PUSH2 0x4C6D DUP3 DUP6 PUSH2 0x413D JUMP JUMPDEST SWAP2 POP PUSH2 0x4C78 DUP3 PUSH2 0x4A27 JUMP JUMPDEST SWAP2 POP PUSH2 0x4C83 DUP3 PUSH2 0x4943 JUMP JUMPDEST SWAP2 POP PUSH2 0x4C8F DUP3 DUP5 PUSH2 0x413D JUMP JUMPDEST SWAP2 POP PUSH2 0x4C9A DUP3 PUSH2 0x4C33 JUMP JUMPDEST SWAP2 POP DUP2 SWAP1 POP SWAP4 SWAP3 POP POP POP JUMP JUMPDEST PUSH32 0x342C000000000000000000000000000000000000000000000000000000000000 PUSH1 0x0 DUP3 ADD MSTORE POP JUMP JUMPDEST PUSH1 0x0 PUSH2 0x4CDC PUSH1 0x2 DUP4 PUSH2 0x40E6 JUMP JUMPDEST SWAP2 POP PUSH2 0x4CE7 DUP3 PUSH2 0x4CA6 JUMP JUMPDEST PUSH1 0x2 DUP3 ADD SWAP1 POP SWAP2 SWAP1 POP JUMP JUMPDEST PUSH1 0x0 PUSH2 0x4CFD DUP3 PUSH2 0x4943 JUMP JUMPDEST SWAP2 POP PUSH2 0x4D09 DUP3 DUP9 PUSH2 0x413D JUMP JUMPDEST SWAP2 POP PUSH2 0x4D14 DUP3 PUSH2 0x498F JUMP JUMPDEST SWAP2 POP PUSH2 0x4D1F DUP3 PUSH2 0x4943 JUMP JUMPDEST SWAP2 POP PUSH2 0x4D2B DUP3 DUP8 PUSH2 0x413D JUMP JUMPDEST SWAP2 POP PUSH2 0x4D36 DUP3 PUSH2 0x4A27 JUMP JUMPDEST SWAP2 POP PUSH2 0x4D41 DUP3 PUSH2 0x4943 JUMP JUMPDEST SWAP2 POP PUSH2 0x4D4D DUP3 DUP7 PUSH2 0x413D JUMP JUMPDEST SWAP2 POP PUSH2 0x4D58 DUP3 PUSH2 0x4CCF JUMP JUMPDEST SWAP2 POP PUSH2 0x4D63 DUP3 PUSH2 0x4943 JUMP JUMPDEST SWAP2 POP PUSH2 0x4D6F DUP3 DUP6 PUSH2 0x413D JUMP JUMPDEST SWAP2 POP PUSH2 0x4D7A DUP3 PUSH2 0x4A73 JUMP JUMPDEST SWAP2 POP PUSH2 0x4D85 DUP3 PUSH2 0x4943 JUMP JUMPDEST SWAP2 POP PUSH2 0x4D91 DUP3 DUP5 PUSH2 0x413D JUMP JUMPDEST SWAP2 POP PUSH2 0x4D9C DUP3 PUSH2 0x4B0B JUMP JUMPDEST SWAP2 POP DUP2 SWAP1 POP SWAP7 SWAP6 POP POP POP POP POP POP JUMP JUMPDEST PUSH1 0x0 PUSH2 0x4DB6 DUP3 PUSH2 0x4943 JUMP JUMPDEST SWAP2 POP PUSH2 0x4DC2 DUP3 DUP9 PUSH2 0x413D JUMP JUMPDEST SWAP2 POP PUSH2 0x4DCD DUP3 PUSH2 0x498F JUMP JUMPDEST SWAP2 POP PUSH2 0x4DD8 DUP3 PUSH2 0x4943 JUMP JUMPDEST SWAP2 POP PUSH2 0x4DE4 DUP3 DUP8 PUSH2 0x413D JUMP JUMPDEST SWAP2 POP PUSH2 0x4DEF DUP3 PUSH2 0x4A27 JUMP JUMPDEST SWAP2 POP PUSH2 0x4DFA DUP3 PUSH2 0x4943 JUMP JUMPDEST SWAP2 POP PUSH2 0x4E06 DUP3 DUP7 PUSH2 0x413D JUMP JUMPDEST SWAP2 POP PUSH2 0x4E11 DUP3 PUSH2 0x4CCF JUMP JUMPDEST SWAP2 POP PUSH2 0x4E1C DUP3 PUSH2 0x4943 JUMP JUMPDEST SWAP2 POP PUSH2 0x4E28 DUP3 DUP6 PUSH2 0x413D JUMP JUMPDEST SWAP2 POP PUSH2 0x4E33 DUP3 PUSH2 0x4ABF JUMP JUMPDEST SWAP2 POP PUSH2 0x4E3E DUP3 PUSH2 0x4943 JUMP JUMPDEST SWAP2 POP PUSH2 0x4E4A DUP3 DUP5 PUSH2 0x413D JUMP JUMPDEST SWAP2 POP PUSH2 0x4E55 DUP3 PUSH2 0x4B0B JUMP JUMPDEST SWAP2 POP DUP2 SWAP1 POP SWAP7 SWAP6 POP POP POP POP POP POP JUMP JUMPDEST PUSH1 0x0 PUSH2 0x4E6F DUP3 PUSH2 0x4943 JUMP JUMPDEST SWAP2 POP PUSH2 0x4E7B DUP3 DUP8 PUSH2 0x413D JUMP JUMPDEST SWAP2 POP PUSH2 0x4E86 DUP3 PUSH2 0x49DB JUMP JUMPDEST SWAP2 POP PUSH2 0x4E91 DUP3 PUSH2 0x4943 JUMP JUMPDEST SWAP2 POP PUSH2 0x4E9D DUP3 DUP7 PUSH2 0x413D JUMP JUMPDEST SWAP2 POP PUSH2 0x4EA8 DUP3 PUSH2 0x4A27 JUMP JUMPDEST SWAP2 POP PUSH2 0x4EB3 DUP3 PUSH2 0x4943 JUMP JUMPDEST SWAP2 POP PUSH2 0x4EBF DUP3 DUP6 PUSH2 0x413D JUMP JUMPDEST SWAP2 POP PUSH2 0x4ECA DUP3 PUSH2 0x4CCF JUMP JUMPDEST SWAP2 POP PUSH2 0x4ED5 DUP3 PUSH2 0x4943 JUMP JUMPDEST SWAP2 POP PUSH2 0x4EE1 DUP3 DUP5 PUSH2 0x413D JUMP JUMPDEST SWAP2 POP PUSH2 0x4EEC DUP3 PUSH2 0x4C33 JUMP JUMPDEST SWAP2 POP DUP2 SWAP1 POP SWAP6 SWAP5 POP POP POP POP POP JUMP JUMPDEST PUSH1 0x0 PUSH2 0x4F05 DUP3 PUSH2 0x4943 JUMP JUMPDEST SWAP2 POP PUSH2 0x4F11 DUP3 DUP9 PUSH2 0x413D JUMP JUMPDEST SWAP2 POP PUSH2 0x4F1C DUP3 PUSH2 0x498F JUMP JUMPDEST SWAP2 POP PUSH2 0x4F27 DUP3 PUSH2 0x4943 JUMP JUMPDEST SWAP2 POP PUSH2 0x4F33 DUP3 DUP8 PUSH2 0x413D JUMP JUMPDEST SWAP2 POP PUSH2 0x4F3E DUP3 PUSH2 0x49DB JUMP JUMPDEST SWAP2 POP PUSH2 0x4F49 DUP3 PUSH2 0x4943 JUMP JUMPDEST SWAP2 POP PUSH2 0x4F55 DUP3 DUP7 PUSH2 0x413D JUMP JUMPDEST SWAP2 POP PUSH2 0x4F60 DUP3 PUSH2 0x4CCF JUMP JUMPDEST SWAP2 POP PUSH2 0x4F6B DUP3 PUSH2 0x4943 JUMP JUMPDEST SWAP2 POP PUSH2 0x4F77 DUP3 DUP6 PUSH2 0x413D JUMP JUMPDEST SWAP2 POP PUSH2 0x4F82 DUP3 PUSH2 0x4ABF JUMP JUMPDEST SWAP2 POP PUSH2 0x4F8D DUP3 PUSH2 0x4943 JUMP JUMPDEST SWAP2 POP PUSH2 0x4F99 DUP3 DUP5 PUSH2 0x413D JUMP JUMPDEST SWAP2 POP PUSH2 0x4FA4 DUP3 PUSH2 0x4B0B JUMP JUMPDEST SWAP2 POP DUP2 SWAP1 POP SWAP7 SWAP6 POP POP POP POP POP POP JUMP JUMPDEST PUSH1 0x0 PUSH2 0x4FBE DUP3 PUSH2 0x4943 JUMP JUMPDEST SWAP2 POP PUSH2 0x4FCA DUP3 DUP10 PUSH2 0x413D JUMP JUMPDEST SWAP2 POP PUSH2 0x4FD5 DUP3 PUSH2 0x498F JUMP JUMPDEST SWAP2 POP PUSH2 0x4FE0 DUP3 PUSH2 0x4943 JUMP JUMPDEST SWAP2 POP PUSH2 0x4FEC DUP3 DUP9 PUSH2 0x413D JUMP JUMPDEST SWAP2 POP PUSH2 0x4FF7 DUP3 PUSH2 0x49DB JUMP JUMPDEST SWAP2 POP PUSH2 0x5002 DUP3 PUSH2 0x4943 JUMP JUMPDEST SWAP2 POP PUSH2 0x500E DUP3 DUP8 PUSH2 0x413D JUMP JUMPDEST SWAP2 POP PUSH2 0x5019 DUP3 PUSH2 0x4CCF JUMP JUMPDEST SWAP2 POP PUSH2 0x5024 DUP3 PUSH2 0x4943 JUMP JUMPDEST SWAP2 POP PUSH2 0x5030 DUP3 DUP7 PUSH2 0x413D JUMP JUMPDEST SWAP2 POP PUSH2 0x503B DUP3 PUSH2 0x4A73 JUMP JUMPDEST SWAP2 POP PUSH2 0x5046 DUP3 PUSH2 0x4943 JUMP JUMPDEST SWAP2 POP PUSH2 0x5052 DUP3 DUP6 PUSH2 0x413D JUMP JUMPDEST SWAP2 POP PUSH2 0x505D DUP3 PUSH2 0x4ABF JUMP JUMPDEST SWAP2 POP PUSH2 0x5068 DUP3 PUSH2 0x4943 JUMP JUMPDEST SWAP2 POP PUSH2 0x5074 DUP3 DUP5 PUSH2 0x413D JUMP JUMPDEST SWAP2 POP PUSH2 0x507F DUP3 PUSH2 0x4B0B JUMP JUMPDEST SWAP2 POP DUP2 SWAP1 POP SWAP8 SWAP7 POP POP POP POP POP POP POP JUMP JUMPDEST PUSH1 0x0 PUSH2 0x509A DUP3 PUSH2 0x4943 JUMP JUMPDEST SWAP2 POP PUSH2 0x50A6 DUP3 DUP7 PUSH2 0x413D JUMP JUMPDEST SWAP2 POP PUSH2 0x50B1 DUP3 PUSH2 0x498F JUMP JUMPDEST SWAP2 POP PUSH2 0x50BC DUP3 PUSH2 0x4943 JUMP JUMPDEST SWAP2 POP PUSH2 0x50C8 DUP3 DUP6 PUSH2 0x413D JUMP JUMPDEST SWAP2 POP PUSH2 0x50D3 DUP3 PUSH2 0x4A27 JUMP JUMPDEST SWAP2 POP PUSH2 0x50DE DUP3 PUSH2 0x4943 JUMP JUMPDEST SWAP2 POP PUSH2 0x50EA DUP3 DUP5 PUSH2 0x413D JUMP JUMPDEST SWAP2 POP PUSH2 0x50F5 DUP3 PUSH2 0x4C33 JUMP JUMPDEST SWAP2 POP DUP2 SWAP1 POP SWAP5 SWAP4 POP POP POP POP JUMP JUMPDEST PUSH1 0x0 PUSH2 0x510D DUP3 PUSH2 0x4943 JUMP JUMPDEST SWAP2 POP PUSH2 0x5119 DUP3 DUP11 PUSH2 0x413D JUMP JUMPDEST SWAP2 POP PUSH2 0x5124 DUP3 PUSH2 0x498F JUMP JUMPDEST SWAP2 POP PUSH2 0x512F DUP3 PUSH2 0x4943 JUMP JUMPDEST SWAP2 POP PUSH2 0x513B DUP3 DUP10 PUSH2 0x413D JUMP JUMPDEST SWAP2 POP PUSH2 0x5146 DUP3 PUSH2 0x49DB JUMP JUMPDEST SWAP2 POP PUSH2 0x5151 DUP3 PUSH2 0x4943 JUMP JUMPDEST SWAP2 POP PUSH2 0x515D DUP3 DUP9 PUSH2 0x413D JUMP JUMPDEST SWAP2 POP PUSH2 0x5168 DUP3 PUSH2 0x4A27 JUMP JUMPDEST SWAP2 POP PUSH2 0x5173 DUP3 PUSH2 0x4943 JUMP JUMPDEST SWAP2 POP PUSH2 0x517F DUP3 DUP8 PUSH2 0x413D JUMP JUMPDEST SWAP2 POP PUSH2 0x518A DUP3 PUSH2 0x4CCF JUMP JUMPDEST SWAP2 POP PUSH2 0x5195 DUP3 PUSH2 0x4943 JUMP JUMPDEST SWAP2 POP PUSH2 0x51A1 DUP3 DUP7 PUSH2 0x413D JUMP JUMPDEST SWAP2 POP PUSH2 0x51AC DUP3 PUSH2 0x4A73 JUMP JUMPDEST SWAP2 POP PUSH2 0x51B7 DUP3 PUSH2 0x4943 JUMP JUMPDEST SWAP2 POP PUSH2 0x51C3 DUP3 DUP6 PUSH2 0x413D JUMP JUMPDEST SWAP2 POP PUSH2 0x51CE DUP3 PUSH2 0x4ABF JUMP JUMPDEST SWAP2 POP PUSH2 0x51D9 DUP3 PUSH2 0x4943 JUMP JUMPDEST SWAP2 POP PUSH2 0x51E5 DUP3 DUP5 PUSH2 0x413D JUMP JUMPDEST SWAP2 POP PUSH2 0x51F0 DUP3 PUSH2 0x4B0B JUMP JUMPDEST SWAP2 POP DUP2 SWAP1 POP SWAP9 SWAP8 POP POP POP POP POP POP POP POP JUMP JUMPDEST PUSH1 0x0 PUSH2 0x520C DUP3 PUSH2 0x4943 JUMP JUMPDEST SWAP2 POP PUSH2 0x5218 DUP3 DUP10 PUSH2 0x413D JUMP JUMPDEST SWAP2 POP PUSH2 0x5223 DUP3 PUSH2 0x498F JUMP JUMPDEST SWAP2 POP PUSH2 0x522E DUP3 PUSH2 0x4943 JUMP JUMPDEST SWAP2 POP PUSH2 0x523A DUP3 DUP9 PUSH2 0x413D JUMP JUMPDEST SWAP2 POP PUSH2 0x5245 DUP3 PUSH2 0x49DB JUMP JUMPDEST SWAP2 POP PUSH2 0x5250 DUP3 PUSH2 0x4943 JUMP JUMPDEST SWAP2 POP PUSH2 0x525C DUP3 DUP8 PUSH2 0x413D JUMP JUMPDEST SWAP2 POP PUSH2 0x5267 DUP3 PUSH2 0x4A27 JUMP JUMPDEST SWAP2 POP PUSH2 0x5272 DUP3 PUSH2 0x4943 JUMP JUMPDEST SWAP2 POP PUSH2 0x527E DUP3 DUP7 PUSH2 0x413D JUMP JUMPDEST SWAP2 POP PUSH2 0x5289 DUP3 PUSH2 0x4CCF JUMP JUMPDEST SWAP2 POP PUSH2 0x5294 DUP3 PUSH2 0x4943 JUMP JUMPDEST SWAP2 POP PUSH2 0x52A0 DUP3 DUP6 PUSH2 0x413D JUMP JUMPDEST SWAP2 POP PUSH2 0x52AB DUP3 PUSH2 0x4ABF JUMP JUMPDEST SWAP2 POP PUSH2 0x52B6 DUP3 PUSH2 0x4943 JUMP JUMPDEST SWAP2 POP PUSH2 0x52C2 DUP3 DUP5 PUSH2 0x413D JUMP JUMPDEST SWAP2 POP PUSH2 0x52CD DUP3 PUSH2 0x4B0B JUMP JUMPDEST SWAP2 POP DUP2 SWAP1 POP SWAP8 SWAP7 POP POP POP POP POP POP POP JUMP INVALID COINBASE TIMESTAMP NUMBER PREVRANDAO GASLIMIT CHAINID SELFBALANCE BASEFEE 0x49 0x4A 0x4B 0x4C 0x4D 0x4E 0x4F POP MLOAD MSTORE MSTORE8 SLOAD SSTORE JUMP JUMPI PC MSIZE GAS PUSH2 0x6263 PUSH5 0x6566676869 PUSH11 0x6B6C6D6E6F707172737475 PUSH23 0x7778797A303132333435363738392B2F3C737667207669 PUSH6 0x77426F783D22 ADDRESS KECCAK256 ADDRESS KECCAK256 CALLER ADDRESS ADDRESS KECCAK256 CALLER ADDRESS ADDRESS 0x22 KECCAK256 PUSH7 0x696C6C3D226E6F PUSH15 0x652220786D6C6E733D22687474703A 0x2F 0x2F PUSH24 0x77772E77332E6F72672F323030302F737667223E3C726563 PUSH21 0x2069643D226267222077696474683D223330302220 PUSH9 0x65696768743D223330 ADDRESS 0x22 KECCAK256 PUSH7 0x696C6C3D222330 NUMBER ADDRESS NUMBER ADDRESS NUMBER 0x22 0x2F RETURNDATACOPY EXTCODECOPY PUSH17 0x6174682069643D227030312220643D224D BALANCE ADDRESS ADDRESS KECCAK256 BALANCE BALANCE CODECOPY 0x4C BALANCE ADDRESS CALLER KECCAK256 BALANCE ORIGIN ORIGIN 0x4C BALANCE ADDRESS ADDRESS KECCAK256 BALANCE ORIGIN CALLDATALOAD 0x4C CODESIZE ADDRESS KECCAK256 BALANCE ORIGIN CALLDATALOAD 0x4C CALLDATACOPY CALLDATACOPY KECCAK256 BALANCE ORIGIN ORIGIN 0x4C CODESIZE ADDRESS KECCAK256 BALANCE BALANCE CODECOPY 0x4C BALANCE ADDRESS ADDRESS KECCAK256 BALANCE BALANCE CODECOPY GAS 0x22 KECCAK256 PUSH7 0x696C6C3D227768 PUSH10 0x7465222066696C6C2D6F PUSH17 0x61636974793D22302E3035222F3E3C7061 PUSH21 0x682069643D227030322220643D224D373320313236 0x4C CALLDATACOPY CALLDATASIZE KECCAK256 BALANCE ORIGIN CALLER 0x4C CALLDATACOPY CODECOPY KECCAK256 BALANCE ORIGIN CALLDATASIZE JUMP BALANCE CALLVALUE CALLDATASIZE 0x4C CALLDATACOPY CALLDATASIZE KECCAK256 BALANCE CALLVALUE CODECOPY 0x4C CALLDATACOPY CALLER KECCAK256 BALANCE CALLVALUE CALLDATASIZE JUMP BALANCE ORIGIN CALLDATASIZE GAS 0x22 KECCAK256 PUSH7 0x696C6C3D227768 PUSH10 0x7465222066696C6C2D6F PUSH17 0x61636974793D22302E3035222F3E3C7061 PUSH21 0x682069643D227030332220643D224D313031203132 CALLDATASIZE 0x4C BALANCE ADDRESS CALLVALUE KECCAK256 BALANCE ORIGIN CALLER 0x4C BALANCE ADDRESS CALLDATACOPY KECCAK256 BALANCE ORIGIN CALLDATASIZE JUMP BALANCE CALLVALUE CALLDATASIZE 0x4C BALANCE ADDRESS CALLVALUE KECCAK256 BALANCE CALLVALUE CODECOPY 0x4C BALANCE ADDRESS BALANCE KECCAK256 BALANCE CALLVALUE CALLDATASIZE JUMP BALANCE ORIGIN CALLDATASIZE GAS 0x22 KECCAK256 PUSH7 0x696C6C3D227768 PUSH10 0x7465222066696C6C2D6F PUSH17 0x61636974793D22302E3035222F3E3C7061 PUSH21 0x682069643D227030342220643D224D313030203134 CALLDATACOPY 0x4C BALANCE ADDRESS CALLER KECCAK256 BALANCE CALLDATALOAD ADDRESS 0x4C BALANCE ADDRESS ADDRESS KECCAK256 BALANCE CALLDATALOAD CALLER 0x4C CODESIZE ADDRESS KECCAK256 BALANCE CALLDATALOAD CALLER 0x4C CALLDATACOPY CALLDATACOPY KECCAK256 BALANCE CALLDATALOAD ADDRESS 0x4C CODESIZE ADDRESS KECCAK256 BALANCE CALLVALUE CALLDATACOPY 0x4C BALANCE ADDRESS ADDRESS KECCAK256 BALANCE CALLVALUE CALLDATACOPY GAS 0x22 KECCAK256 PUSH7 0x696C6C3D227768 PUSH10 0x7465222066696C6C2D6F PUSH17 0x61636974793D22302E3035222F3E3C7061 PUSH21 0x682069643D227030352220643D224D373320313534 0x4C CALLDATACOPY CALLDATASIZE KECCAK256 BALANCE CALLDATALOAD BALANCE 0x4C CALLDATACOPY CODECOPY KECCAK256 BALANCE CALLDATALOAD CALLVALUE JUMP BALANCE CALLDATACOPY CALLVALUE 0x4C CALLDATACOPY CALLDATASIZE KECCAK256 BALANCE CALLDATACOPY CALLDATACOPY 0x4C CALLDATACOPY CALLER KECCAK256 BALANCE CALLDATACOPY CALLVALUE JUMP BALANCE CALLDATALOAD CALLVALUE GAS 0x22 KECCAK256 PUSH7 0x696C6C3D227768 PUSH10 0x7465222066696C6C2D6F PUSH17 0x61636974793D22302E3035222F3E3C7061 PUSH21 0x682069643D227030362220643D224D313031203135 CALLVALUE 0x4C BALANCE ADDRESS CALLVALUE KECCAK256 BALANCE CALLDATALOAD BALANCE 0x4C BALANCE ADDRESS CALLDATACOPY KECCAK256 BALANCE CALLDATALOAD CALLVALUE JUMP BALANCE CALLDATACOPY CALLVALUE 0x4C BALANCE ADDRESS CALLVALUE KECCAK256 BALANCE CALLDATACOPY CALLDATACOPY 0x4C BALANCE ADDRESS BALANCE KECCAK256 BALANCE CALLDATACOPY CALLVALUE JUMP BALANCE CALLDATALOAD CALLVALUE GAS 0x22 KECCAK256 PUSH7 0x696C6C3D227768 PUSH10 0x7465222066696C6C2D6F PUSH17 0x61636974793D22302E3035222F3E3C7061 PUSH21 0x682069643D227030372220643D224D313030203137 CALLDATALOAD 0x4C BALANCE ADDRESS CALLER KECCAK256 BALANCE CALLDATACOPY CODESIZE 0x4C BALANCE ADDRESS ADDRESS KECCAK256 BALANCE CODESIZE BALANCE 0x4C CODESIZE ADDRESS KECCAK256 BALANCE CODESIZE BALANCE 0x4C CALLDATACOPY CALLDATACOPY KECCAK256 BALANCE CALLDATACOPY CODESIZE 0x4C CODESIZE ADDRESS KECCAK256 BALANCE CALLDATACOPY CALLDATALOAD 0x4C BALANCE ADDRESS ADDRESS KECCAK256 BALANCE CALLDATACOPY CALLDATALOAD GAS 0x22 KECCAK256 PUSH7 0x696C6C3D227768 PUSH10 0x7465222066696C6C2D6F PUSH17 0x61636974793D22302E3035222F3E3C7061 PUSH21 0x682069643D227031312220643D224D313430203131 CODECOPY 0x4C BALANCE CALLVALUE CALLER KECCAK256 BALANCE ORIGIN ORIGIN 0x4C BALANCE CALLVALUE ADDRESS KECCAK256 BALANCE ORIGIN CALLDATALOAD 0x4C BALANCE ORIGIN ADDRESS KECCAK256 BALANCE ORIGIN CALLDATALOAD 0x4C BALANCE BALANCE CALLDATACOPY KECCAK256 BALANCE ORIGIN ORIGIN 0x4C BALANCE ORIGIN ADDRESS KECCAK256 BALANCE BALANCE CODECOPY 0x4C BALANCE CALLVALUE ADDRESS KECCAK256 BALANCE BALANCE CODECOPY GAS 0x22 KECCAK256 PUSH7 0x696C6C3D227768 PUSH10 0x7465222066696C6C2D6F PUSH17 0x61636974793D22302E3035222F3E3C7061 PUSH21 0x682069643D227031322220643D224D313133203132 CALLDATASIZE 0x4C BALANCE BALANCE CALLDATASIZE KECCAK256 BALANCE ORIGIN CALLER 0x4C BALANCE BALANCE CODECOPY KECCAK256 BALANCE ORIGIN CALLDATASIZE JUMP BALANCE CALLVALUE CALLDATASIZE 0x4C BALANCE BALANCE CALLDATASIZE KECCAK256 BALANCE CALLVALUE CODECOPY 0x4C BALANCE BALANCE CALLER KECCAK256 BALANCE CALLVALUE CALLDATASIZE JUMP BALANCE ORIGIN CALLDATASIZE GAS 0x22 KECCAK256 PUSH7 0x696C6C3D227768 PUSH10 0x7465222066696C6C2D6F PUSH17 0x61636974793D22302E3035222F3E3C7061 PUSH21 0x682069643D227031332220643D224D313431203132 CALLDATASIZE 0x4C BALANCE CALLVALUE CALLVALUE KECCAK256 BALANCE ORIGIN CALLER 0x4C BALANCE CALLVALUE CALLDATACOPY KECCAK256 BALANCE ORIGIN CALLDATASIZE JUMP BALANCE CALLVALUE CALLDATASIZE 0x4C BALANCE CALLVALUE CALLVALUE KECCAK256 BALANCE CALLVALUE CODECOPY 0x4C BALANCE CALLVALUE BALANCE KECCAK256 BALANCE CALLVALUE CALLDATASIZE JUMP BALANCE ORIGIN CALLDATASIZE GAS 0x22 KECCAK256 PUSH7 0x696C6C3D227768 PUSH10 0x7465222066696C6C2D6F PUSH17 0x61636974793D22302E3035222F3E3C7061 PUSH21 0x682069643D227031342220643D224D313430203134 CALLDATACOPY 0x4C BALANCE CALLVALUE CALLER KECCAK256 BALANCE CALLDATALOAD ADDRESS 0x4C BALANCE CALLVALUE ADDRESS KECCAK256 BALANCE CALLDATALOAD CALLER 0x4C BALANCE ORIGIN ADDRESS KECCAK256 BALANCE CALLDATALOAD CALLER 0x4C BALANCE BALANCE CALLDATACOPY KECCAK256 BALANCE CALLDATALOAD ADDRESS 0x4C BALANCE ORIGIN ADDRESS KECCAK256 BALANCE CALLVALUE CALLDATACOPY 0x4C BALANCE CALLVALUE ADDRESS KECCAK256 BALANCE CALLVALUE CALLDATACOPY GAS 0x22 KECCAK256 PUSH7 0x696C6C3D227768 PUSH10 0x7465222066696C6C2D6F PUSH17 0x61636974793D22302E3035222F3E3C7061 PUSH21 0x682069643D227031352220643D224D313133203135 CALLVALUE 0x4C BALANCE BALANCE CALLDATASIZE KECCAK256 BALANCE CALLDATALOAD BALANCE 0x4C BALANCE BALANCE CODECOPY KECCAK256 BALANCE CALLDATALOAD CALLVALUE JUMP BALANCE CALLDATACOPY CALLVALUE 0x4C BALANCE BALANCE CALLDATASIZE KECCAK256 BALANCE CALLDATACOPY CALLDATACOPY 0x4C BALANCE BALANCE CALLER KECCAK256 BALANCE CALLDATACOPY CALLVALUE JUMP BALANCE CALLDATALOAD CALLVALUE GAS 0x22 KECCAK256 PUSH7 0x696C6C3D227768 PUSH10 0x7465222066696C6C2D6F PUSH17 0x61636974793D22302E3035222F3E3C7061 PUSH21 0x682069643D227031362220643D224D313431203135 CALLVALUE 0x4C BALANCE CALLVALUE CALLVALUE KECCAK256 BALANCE CALLDATALOAD BALANCE 0x4C BALANCE CALLVALUE CALLDATACOPY KECCAK256 BALANCE CALLDATALOAD CALLVALUE JUMP BALANCE CALLDATACOPY CALLVALUE 0x4C BALANCE CALLVALUE CALLVALUE KECCAK256 BALANCE CALLDATACOPY CALLDATACOPY 0x4C BALANCE CALLVALUE BALANCE KECCAK256 BALANCE CALLDATACOPY CALLVALUE JUMP BALANCE CALLDATALOAD CALLVALUE GAS 0x22 KECCAK256 PUSH7 0x696C6C3D227768 PUSH10 0x7465222066696C6C2D6F PUSH17 0x61636974793D22302E3035222F3E3C7061 PUSH21 0x682069643D227031372220643D224D313430203137 CALLDATALOAD 0x4C BALANCE CALLVALUE CALLER KECCAK256 BALANCE CALLDATACOPY CODESIZE 0x4C BALANCE CALLVALUE ADDRESS KECCAK256 BALANCE CODESIZE BALANCE 0x4C BALANCE ORIGIN ADDRESS KECCAK256 BALANCE CODESIZE BALANCE 0x4C BALANCE BALANCE CALLDATACOPY KECCAK256 BALANCE CALLDATACOPY CODESIZE 0x4C BALANCE ORIGIN ADDRESS KECCAK256 BALANCE CALLDATACOPY CALLDATALOAD 0x4C BALANCE CALLVALUE ADDRESS KECCAK256 BALANCE CALLDATACOPY CALLDATALOAD GAS 0x22 KECCAK256 PUSH7 0x696C6C3D227768 PUSH10 0x7465222066696C6C2D6F PUSH17 0x61636974793D22302E3035222F3E3C7061 PUSH21 0x682069643D227032312220643D224D313830203131 CODECOPY 0x4C BALANCE CODESIZE CALLER KECCAK256 BALANCE ORIGIN ORIGIN 0x4C BALANCE CODESIZE ADDRESS KECCAK256 BALANCE ORIGIN CALLDATALOAD 0x4C BALANCE CALLDATASIZE ADDRESS KECCAK256 BALANCE ORIGIN CALLDATALOAD 0x4C BALANCE CALLDATALOAD CALLDATACOPY KECCAK256 BALANCE ORIGIN ORIGIN 0x4C BALANCE CALLDATASIZE ADDRESS KECCAK256 BALANCE BALANCE CODECOPY 0x4C BALANCE CODESIZE ADDRESS KECCAK256 BALANCE BALANCE CODECOPY GAS 0x22 KECCAK256 PUSH7 0x696C6C3D227768 PUSH10 0x7465222066696C6C2D6F PUSH17 0x61636974793D22302E3035222F3E3C7061 PUSH21 0x682069643D227032322220643D224D313533203132 CALLDATASIZE 0x4C BALANCE CALLDATALOAD CALLDATASIZE KECCAK256 BALANCE ORIGIN CALLER 0x4C BALANCE CALLDATALOAD CODECOPY KECCAK256 BALANCE ORIGIN CALLDATASIZE JUMP BALANCE CALLVALUE CALLDATASIZE 0x4C BALANCE CALLDATALOAD CALLDATASIZE KECCAK256 BALANCE CALLVALUE CODECOPY 0x4C BALANCE CALLDATALOAD CALLER KECCAK256 BALANCE CALLVALUE CALLDATASIZE JUMP BALANCE ORIGIN CALLDATASIZE GAS 0x22 KECCAK256 PUSH7 0x696C6C3D227768 PUSH10 0x7465222066696C6C2D6F PUSH17 0x61636974793D22302E3035222F3E3C7061 PUSH21 0x682069643D227032332220643D224D313831203132 CALLDATASIZE 0x4C BALANCE CODESIZE CALLVALUE KECCAK256 BALANCE ORIGIN CALLER 0x4C BALANCE CODESIZE CALLDATACOPY KECCAK256 BALANCE ORIGIN CALLDATASIZE JUMP BALANCE CALLVALUE CALLDATASIZE 0x4C BALANCE CODESIZE CALLVALUE KECCAK256 BALANCE CALLVALUE CODECOPY 0x4C BALANCE CODESIZE BALANCE KECCAK256 BALANCE CALLVALUE CALLDATASIZE JUMP BALANCE ORIGIN CALLDATASIZE GAS 0x22 KECCAK256 PUSH7 0x696C6C3D227768 PUSH10 0x7465222066696C6C2D6F PUSH17 0x61636974793D22302E3035222F3E3C7061 PUSH21 0x682069643D227032342220643D224D313830203134 CALLDATACOPY 0x4C BALANCE CODESIZE CALLER KECCAK256 BALANCE CALLDATALOAD ADDRESS 0x4C BALANCE CODESIZE ADDRESS KECCAK256 BALANCE CALLDATALOAD CALLER 0x4C BALANCE CALLDATASIZE ADDRESS KECCAK256 BALANCE CALLDATALOAD CALLER 0x4C BALANCE CALLDATALOAD CALLDATACOPY KECCAK256 BALANCE CALLDATALOAD ADDRESS 0x4C BALANCE CALLDATASIZE ADDRESS KECCAK256 BALANCE CALLVALUE CALLDATACOPY 0x4C BALANCE CODESIZE ADDRESS KECCAK256 BALANCE CALLVALUE CALLDATACOPY GAS 0x22 KECCAK256 PUSH7 0x696C6C3D227768 PUSH10 0x7465222066696C6C2D6F PUSH17 0x61636974793D22302E3035222F3E3C7061 PUSH21 0x682069643D227032352220643D224D313533203135 CALLVALUE 0x4C BALANCE CALLDATALOAD CALLDATASIZE KECCAK256 BALANCE CALLDATALOAD BALANCE 0x4C BALANCE CALLDATALOAD CODECOPY KECCAK256 BALANCE CALLDATALOAD CALLVALUE JUMP BALANCE CALLDATACOPY CALLVALUE 0x4C BALANCE CALLDATALOAD CALLDATASIZE KECCAK256 BALANCE CALLDATACOPY CALLDATACOPY 0x4C BALANCE CALLDATALOAD CALLER KECCAK256 BALANCE CALLDATACOPY CALLVALUE JUMP BALANCE CALLDATALOAD CALLVALUE GAS 0x22 KECCAK256 PUSH7 0x696C6C3D227768 PUSH10 0x7465222066696C6C2D6F PUSH17 0x61636974793D22302E3035222F3E3C7061 PUSH21 0x682069643D227032362220643D224D313831203135 CALLVALUE 0x4C BALANCE CODESIZE CALLVALUE KECCAK256 BALANCE CALLDATALOAD BALANCE 0x4C BALANCE CODESIZE CALLDATACOPY KECCAK256 BALANCE CALLDATALOAD CALLVALUE JUMP BALANCE CALLDATACOPY CALLVALUE 0x4C BALANCE CODESIZE CALLVALUE KECCAK256 BALANCE CALLDATACOPY CALLDATACOPY 0x4C BALANCE CODESIZE BALANCE KECCAK256 BALANCE CALLDATACOPY CALLVALUE JUMP BALANCE CALLDATALOAD CALLVALUE GAS 0x22 KECCAK256 PUSH7 0x696C6C3D227768 PUSH10 0x7465222066696C6C2D6F PUSH17 0x61636974793D22302E3035222F3E3C7061 PUSH21 0x682069643D227032372220643D224D313830203137 CALLDATALOAD 0x4C BALANCE CODESIZE CALLER KECCAK256 BALANCE CALLDATACOPY CODESIZE 0x4C BALANCE CODESIZE ADDRESS KECCAK256 BALANCE CODESIZE BALANCE 0x4C BALANCE CALLDATASIZE ADDRESS KECCAK256 BALANCE CODESIZE BALANCE 0x4C BALANCE CALLDATALOAD CALLDATACOPY KECCAK256 BALANCE CALLDATACOPY CODESIZE 0x4C BALANCE CALLDATASIZE ADDRESS KECCAK256 BALANCE CALLDATACOPY CALLDATALOAD 0x4C BALANCE CODESIZE ADDRESS KECCAK256 BALANCE CALLDATACOPY CALLDATALOAD GAS 0x22 KECCAK256 PUSH7 0x696C6C3D227768 PUSH10 0x7465222066696C6C2D6F PUSH17 0x61636974793D22302E3035222F3E3C7061 PUSH21 0x682069643D227033312220643D224D323230203131 CODECOPY 0x4C ORIGIN ORIGIN CALLER KECCAK256 BALANCE ORIGIN ORIGIN 0x4C ORIGIN ORIGIN ADDRESS KECCAK256 BALANCE ORIGIN CALLDATALOAD 0x4C ORIGIN ADDRESS ADDRESS KECCAK256 BALANCE ORIGIN CALLDATALOAD 0x4C BALANCE CODECOPY CALLDATACOPY KECCAK256 BALANCE ORIGIN ORIGIN 0x4C ORIGIN ADDRESS ADDRESS KECCAK256 BALANCE BALANCE CODECOPY 0x4C ORIGIN ORIGIN ADDRESS KECCAK256 BALANCE BALANCE CODECOPY GAS 0x22 KECCAK256 PUSH7 0x696C6C3D227768 PUSH10 0x7465222066696C6C2D6F PUSH17 0x61636974793D22302E3035222F3E3C7061 PUSH21 0x682069643D227033322220643D224D313933203132 CALLDATASIZE 0x4C BALANCE CODECOPY CALLDATASIZE KECCAK256 BALANCE ORIGIN CALLER 0x4C BALANCE CODECOPY CODECOPY KECCAK256 BALANCE ORIGIN CALLDATASIZE JUMP BALANCE CALLVALUE CALLDATASIZE 0x4C BALANCE CODECOPY CALLDATASIZE KECCAK256 BALANCE CALLVALUE CODECOPY 0x4C BALANCE CODECOPY CALLER KECCAK256 BALANCE CALLVALUE CALLDATASIZE JUMP BALANCE ORIGIN CALLDATASIZE GAS 0x22 KECCAK256 PUSH7 0x696C6C3D227768 PUSH10 0x7465222066696C6C2D6F PUSH17 0x61636974793D22302E3035222F3E3C7061 PUSH21 0x682069643D227033332220643D224D323231203132 CALLDATASIZE 0x4C ORIGIN ORIGIN CALLVALUE KECCAK256 BALANCE ORIGIN CALLER 0x4C ORIGIN ORIGIN CALLDATACOPY KECCAK256 BALANCE ORIGIN CALLDATASIZE JUMP BALANCE CALLVALUE CALLDATASIZE 0x4C ORIGIN ORIGIN CALLVALUE KECCAK256 BALANCE CALLVALUE CODECOPY 0x4C ORIGIN ORIGIN BALANCE KECCAK256 BALANCE CALLVALUE CALLDATASIZE JUMP BALANCE ORIGIN CALLDATASIZE GAS 0x22 KECCAK256 PUSH7 0x696C6C3D227768 PUSH10 0x7465222066696C6C2D6F PUSH17 0x61636974793D22302E3035222F3E3C7061 PUSH21 0x682069643D227033342220643D224D323230203134 CALLDATACOPY 0x4C ORIGIN ORIGIN CALLER KECCAK256 BALANCE CALLDATALOAD ADDRESS 0x4C ORIGIN ORIGIN ADDRESS KECCAK256 BALANCE CALLDATALOAD CALLER 0x4C ORIGIN ADDRESS ADDRESS KECCAK256 BALANCE CALLDATALOAD CALLER 0x4C BALANCE CODECOPY CALLDATACOPY KECCAK256 BALANCE CALLDATALOAD ADDRESS 0x4C ORIGIN ADDRESS ADDRESS KECCAK256 BALANCE CALLVALUE CALLDATACOPY 0x4C ORIGIN ORIGIN ADDRESS KECCAK256 BALANCE CALLVALUE CALLDATACOPY GAS 0x22 KECCAK256 PUSH7 0x696C6C3D227768 PUSH10 0x7465222066696C6C2D6F PUSH17 0x61636974793D22302E3035222F3E3C7061 PUSH21 0x682069643D227033352220643D224D313933203135 CALLVALUE 0x4C BALANCE CODECOPY CALLDATASIZE KECCAK256 BALANCE CALLDATALOAD BALANCE 0x4C BALANCE CODECOPY CODECOPY KECCAK256 BALANCE CALLDATALOAD CALLVALUE JUMP BALANCE CALLDATACOPY CALLVALUE 0x4C BALANCE CODECOPY CALLDATASIZE KECCAK256 BALANCE CALLDATACOPY CALLDATACOPY 0x4C BALANCE CODECOPY CALLER KECCAK256 BALANCE CALLDATACOPY CALLVALUE JUMP BALANCE CALLDATALOAD CALLVALUE GAS 0x22 KECCAK256 PUSH7 0x696C6C3D227768 PUSH10 0x7465222066696C6C2D6F PUSH17 0x61636974793D22302E3035222F3E3C7061 PUSH21 0x682069643D227033362220643D224D323231203135 CALLVALUE 0x4C ORIGIN ORIGIN CALLVALUE KECCAK256 BALANCE CALLDATALOAD BALANCE 0x4C ORIGIN ORIGIN CALLDATACOPY KECCAK256 BALANCE CALLDATALOAD CALLVALUE JUMP BALANCE CALLDATACOPY CALLVALUE 0x4C ORIGIN ORIGIN CALLVALUE KECCAK256 BALANCE CALLDATACOPY CALLDATACOPY 0x4C ORIGIN ORIGIN BALANCE KECCAK256 BALANCE CALLDATACOPY CALLVALUE JUMP BALANCE CALLDATALOAD CALLVALUE GAS 0x22 KECCAK256 PUSH7 0x696C6C3D227768 PUSH10 0x7465222066696C6C2D6F PUSH17 0x61636974793D22302E3035222F3E3C7061 PUSH21 0x682069643D227033372220643D224D323230203137 CALLDATALOAD 0x4C ORIGIN ORIGIN CALLER KECCAK256 BALANCE CALLDATACOPY CODESIZE 0x4C ORIGIN ORIGIN ADDRESS KECCAK256 BALANCE CODESIZE BALANCE 0x4C ORIGIN ADDRESS ADDRESS KECCAK256 BALANCE CODESIZE BALANCE 0x4C BALANCE CODECOPY CALLDATACOPY KECCAK256 BALANCE CALLDATACOPY CODESIZE 0x4C ORIGIN ADDRESS ADDRESS KECCAK256 BALANCE CALLDATACOPY CALLDATALOAD 0x4C ORIGIN ORIGIN ADDRESS KECCAK256 BALANCE CALLDATACOPY CALLDATALOAD GAS 0x22 KECCAK256 PUSH7 0x696C6C3D227768 PUSH10 0x7465222066696C6C2D6F PUSH17 0x61636974793D22302E3035222F3E3C7374 PUSH26 0x6C653EA264697066735822122049F7E0ADDD076F781DC776FA0B 0xCD 0xC2 0xB8 0x26 0xE3 EXTCODESIZE SWAP2 EXP 0xEA DUP3 0xE6 EXTCODESIZE 0xFC DUP10 0x4D 0xD3 SAR PUSH30 0x7264736F6C63430008120033000000000000000000000000000000000000 "
		},
		"gasEstimates": {
			"creation": {
				"codeDepositCost": "4885600",
				"executionCost": "infinite",
				"totalCost": "infinite"
			},
			"external": {
				"addFreeMints(address[],uint256)": "infinite",
				"approve(address,uint256)": "infinite",
				"balanceOf(address)": "2971",
				"combine(uint256[])": "infinite",
				"finalMintingBlock()": "2541",
				"freeMint(uint256)": "infinite",
				"freeMintBalance(address)": "2885",
				"getApproved(uint256)": "7412",
				"getMinutesRemaining()": "infinite",
				"getValue(uint256)": "infinite",
				"isApprovedForAll(address,address)": "infinite",
				"isCombinable()": "2561",
				"mint(uint256)": "infinite",
				"mintCount()": "2558",
				"name()": "infinite",
				"owner()": "2590",
				"ownerOf(uint256)": "infinite",
				"price()": "2496",
				"renounceOwnership()": "30509",
				"safeTransferFrom(address,address,uint256)": "infinite",
				"safeTransferFrom(address,address,uint256,bytes)": "infinite",
				"setApprovalForAll(address,bool)": "infinite",
				"supportsInterface(bytes4)": "768",
				"symbol()": "infinite",
				"toggleCombinable()": "28903",
				"tokenURI(uint256)": "infinite",
				"totalSupply()": "4674",
				"transferFrom(address,address,uint256)": "infinite",
				"transferOwnership(address)": "30854",
				"withdraw()": "infinite"
			},
			"internal": {
				"_startTokenId()": "23",
				"handleMint(address,uint256)": "infinite"
			}
		},
		"methodIdentifiers": {
			"addFreeMints(address[],uint256)": "d8c718a8",
			"approve(address,uint256)": "095ea7b3",
			"balanceOf(address)": "70a08231",
			"combine(uint256[])": "25e514c6",
			"finalMintingBlock()": "21cf7ecf",
			"freeMint(uint256)": "7c928fe9",
			"freeMintBalance(address)": "d1d18f50",
			"getApproved(uint256)": "081812fc",
			"getMinutesRemaining()": "a6c56c79",
			"getValue(uint256)": "0ff4c916",
			"isApprovedForAll(address,address)": "e985e9c5",
			"isCombinable()": "37c5fa0d",
			"mint(uint256)": "a0712d68",
			"mintCount()": "9659867e",
			"name()": "06fdde03",
			"owner()": "8da5cb5b",
			"ownerOf(uint256)": "6352211e",
			"price()": "a035b1fe",
			"renounceOwnership()": "715018a6",
			"safeTransferFrom(address,address,uint256)": "42842e0e",
			"safeTransferFrom(address,address,uint256,bytes)": "b88d4fde",
			"setApprovalForAll(address,bool)": "a22cb465",
			"supportsInterface(bytes4)": "01ffc9a7",
			"symbol()": "95d89b41",
			"toggleCombinable()": "b8be6e98",
			"tokenURI(uint256)": "c87b56dd",
			"totalSupply()": "18160ddd",
			"transferFrom(address,address,uint256)": "23b872dd",
			"transferOwnership(address)": "f2fde38b",
			"withdraw()": "3ccfd60b"
		}
	},
	"abi": [
		{
			"inputs": [],
			"stateMutability": "nonpayable",
			"type": "constructor"
		},
		{
			"inputs": [],
			"name": "ApprovalCallerNotOwnerNorApproved",
			"type": "error"
		},
		{
			"inputs": [],
			"name": "ApprovalQueryForNonexistentToken",
			"type": "error"
		},
		{
			"inputs": [],
			"name": "BalanceQueryForZeroAddress",
			"type": "error"
		},
		{
			"inputs": [],
			"name": "MintERC2309QuantityExceedsLimit",
			"type": "error"
		},
		{
			"inputs": [],
			"name": "MintToZeroAddress",
			"type": "error"
		},
		{
			"inputs": [],
			"name": "MintZeroQuantity",
			"type": "error"
		},
		{
			"inputs": [],
			"name": "OwnerQueryForNonexistentToken",
			"type": "error"
		},
		{
			"inputs": [],
			"name": "OwnershipNotInitializedForExtraData",
			"type": "error"
		},
		{
			"inputs": [],
			"name": "TransferCallerNotOwnerNorApproved",
			"type": "error"
		},
		{
			"inputs": [],
			"name": "TransferFromIncorrectOwner",
			"type": "error"
		},
		{
			"inputs": [],
			"name": "TransferToNonERC721ReceiverImplementer",
			"type": "error"
		},
		{
			"inputs": [],
			"name": "TransferToZeroAddress",
			"type": "error"
		},
		{
			"inputs": [],
			"name": "URIQueryForNonexistentToken",
			"type": "error"
		},
		{
			"anonymous": false,
			"inputs": [
				{
					"indexed": true,
					"internalType": "address",
					"name": "owner",
					"type": "address"
				},
				{
					"indexed": true,
					"internalType": "address",
					"name": "approved",
					"type": "address"
				},
				{
					"indexed": true,
					"internalType": "uint256",
					"name": "tokenId",
					"type": "uint256"
				}
			],
			"name": "Approval",
			"type": "event"
		},
		{
			"anonymous": false,
			"inputs": [
				{
					"indexed": true,
					"internalType": "address",
					"name": "owner",
					"type": "address"
				},
				{
					"indexed": true,
					"internalType": "address",
					"name": "operator",
					"type": "address"
				},
				{
					"indexed": false,
					"internalType": "bool",
					"name": "approved",
					"type": "bool"
				}
			],
			"name": "ApprovalForAll",
			"type": "event"
		},
		{
			"anonymous": false,
			"inputs": [
				{
					"indexed": true,
					"internalType": "uint256",
					"name": "fromTokenId",
					"type": "uint256"
				},
				{
					"indexed": false,
					"internalType": "uint256",
					"name": "toTokenId",
					"type": "uint256"
				},
				{
					"indexed": true,
					"internalType": "address",
					"name": "from",
					"type": "address"
				},
				{
					"indexed": true,
					"internalType": "address",
					"name": "to",
					"type": "address"
				}
			],
			"name": "ConsecutiveTransfer",
			"type": "event"
		},
		{
			"anonymous": false,
			"inputs": [
				{
					"indexed": false,
					"internalType": "uint256",
					"name": "_finalBlock",
					"type": "uint256"
				}
			],
			"name": "CountdownExtended",
			"type": "event"
		},
		{
			"anonymous": false,
			"inputs": [
				{
					"indexed": false,
					"internalType": "uint256",
					"name": "_tokenId",
					"type": "uint256"
				}
			],
			"name": "MetadataUpdate",
			"type": "event"
		},
		{
			"anonymous": false,
			"inputs": [
				{
					"indexed": true,
					"internalType": "address",
					"name": "previousOwner",
					"type": "address"
				},
				{
					"indexed": true,
					"internalType": "address",
					"name": "newOwner",
					"type": "address"
				}
			],
			"name": "OwnershipTransferred",
			"type": "event"
		},
		{
			"anonymous": false,
			"inputs": [
				{
					"indexed": true,
					"internalType": "address",
					"name": "from",
					"type": "address"
				},
				{
					"indexed": true,
					"internalType": "address",
					"name": "to",
					"type": "address"
				},
				{
					"indexed": true,
					"internalType": "uint256",
					"name": "tokenId",
					"type": "uint256"
				}
			],
			"name": "Transfer",
			"type": "event"
		},
		{
			"inputs": [
				{
					"internalType": "address[]",
					"name": "addresses",
					"type": "address[]"
				},
				{
					"internalType": "uint256",
					"name": "quantity",
					"type": "uint256"
				}
			],
			"name": "addFreeMints",
			"outputs": [],
			"stateMutability": "nonpayable",
			"type": "function"
		},
		{
			"inputs": [
				{
					"internalType": "address",
					"name": "to",
					"type": "address"
				},
				{
					"internalType": "uint256",
					"name": "tokenId",
					"type": "uint256"
				}
			],
			"name": "approve",
			"outputs": [],
			"stateMutability": "payable",
			"type": "function"
		},
		{
			"inputs": [
				{
					"internalType": "address",
					"name": "owner",
					"type": "address"
				}
			],
			"name": "balanceOf",
			"outputs": [
				{
					"internalType": "uint256",
					"name": "",
					"type": "uint256"
				}
			],
			"stateMutability": "view",
			"type": "function"
		},
		{
			"inputs": [
				{
					"internalType": "uint256[]",
					"name": "tokens",
					"type": "uint256[]"
				}
			],
			"name": "combine",
			"outputs": [],
			"stateMutability": "nonpayable",
			"type": "function"
		},
		{
			"inputs": [],
			"name": "finalMintingBlock",
			"outputs": [
				{
					"internalType": "uint256",
					"name": "",
					"type": "uint256"
				}
			],
			"stateMutability": "view",
			"type": "function"
		},
		{
			"inputs": [
				{
					"internalType": "uint256",
					"name": "quantity",
					"type": "uint256"
				}
			],
			"name": "freeMint",
			"outputs": [],
			"stateMutability": "nonpayable",
			"type": "function"
		},
		{
			"inputs": [
				{
					"internalType": "address",
					"name": "addy",
					"type": "address"
				}
			],
			"name": "freeMintBalance",
			"outputs": [
				{
					"internalType": "uint256",
					"name": "",
					"type": "uint256"
				}
			],
			"stateMutability": "view",
			"type": "function"
		},
		{
			"inputs": [
				{
					"internalType": "uint256",
					"name": "tokenId",
					"type": "uint256"
				}
			],
			"name": "getApproved",
			"outputs": [
				{
					"internalType": "address",
					"name": "",
					"type": "address"
				}
			],
			"stateMutability": "view",
			"type": "function"
		},
		{
			"inputs": [],
			"name": "getMinutesRemaining",
			"outputs": [
				{
					"internalType": "uint256",
					"name": "",
					"type": "uint256"
				}
			],
			"stateMutability": "view",
			"type": "function"
		},
		{
			"inputs": [
				{
					"internalType": "uint256",
					"name": "tokenId",
					"type": "uint256"
				}
			],
			"name": "getValue",
			"outputs": [
				{
					"internalType": "uint256",
					"name": "",
					"type": "uint256"
				}
			],
			"stateMutability": "view",
			"type": "function"
		},
		{
			"inputs": [
				{
					"internalType": "address",
					"name": "owner",
					"type": "address"
				},
				{
					"internalType": "address",
					"name": "operator",
					"type": "address"
				}
			],
			"name": "isApprovedForAll",
			"outputs": [
				{
					"internalType": "bool",
					"name": "",
					"type": "bool"
				}
			],
			"stateMutability": "view",
			"type": "function"
		},
		{
			"inputs": [],
			"name": "isCombinable",
			"outputs": [
				{
					"internalType": "bool",
					"name": "",
					"type": "bool"
				}
			],
			"stateMutability": "view",
			"type": "function"
		},
		{
			"inputs": [
				{
					"internalType": "uint256",
					"name": "quantity",
					"type": "uint256"
				}
			],
			"name": "mint",
			"outputs": [],
			"stateMutability": "payable",
			"type": "function"
		},
		{
			"inputs": [],
			"name": "mintCount",
			"outputs": [
				{
					"internalType": "uint256",
					"name": "",
					"type": "uint256"
				}
			],
			"stateMutability": "view",
			"type": "function"
		},
		{
			"inputs": [],
			"name": "name",
			"outputs": [
				{
					"internalType": "string",
					"name": "",
					"type": "string"
				}
			],
			"stateMutability": "view",
			"type": "function"
		},
		{
			"inputs": [],
			"name": "owner",
			"outputs": [
				{
					"internalType": "address",
					"name": "",
					"type": "address"
				}
			],
			"stateMutability": "view",
			"type": "function"
		},
		{
			"inputs": [
				{
					"internalType": "uint256",
					"name": "tokenId",
					"type": "uint256"
				}
			],
			"name": "ownerOf",
			"outputs": [
				{
					"internalType": "address",
					"name": "",
					"type": "address"
				}
			],
			"stateMutability": "view",
			"type": "function"
		},
		{
			"inputs": [],
			"name": "price",
			"outputs": [
				{
					"internalType": "uint256",
					"name": "",
					"type": "uint256"
				}
			],
			"stateMutability": "view",
			"type": "function"
		},
		{
			"inputs": [],
			"name": "renounceOwnership",
			"outputs": [],
			"stateMutability": "nonpayable",
			"type": "function"
		},
		{
			"inputs": [
				{
					"internalType": "address",
					"name": "from",
					"type": "address"
				},
				{
					"internalType": "address",
					"name": "to",
					"type": "address"
				},
				{
					"internalType": "uint256",
					"name": "tokenId",
					"type": "uint256"
				}
			],
			"name": "safeTransferFrom",
			"outputs": [],
			"stateMutability": "payable",
			"type": "function"
		},
		{
			"inputs": [
				{
					"internalType": "address",
					"name": "from",
					"type": "address"
				},
				{
					"internalType": "address",
					"name": "to",
					"type": "address"
				},
				{
					"internalType": "uint256",
					"name": "tokenId",
					"type": "uint256"
				},
				{
					"internalType": "bytes",
					"name": "_data",
					"type": "bytes"
				}
			],
			"name": "safeTransferFrom",
			"outputs": [],
			"stateMutability": "payable",
			"type": "function"
		},
		{
			"inputs": [
				{
					"internalType": "address",
					"name": "operator",
					"type": "address"
				},
				{
					"internalType": "bool",
					"name": "approved",
					"type": "bool"
				}
			],
			"name": "setApprovalForAll",
			"outputs": [],
			"stateMutability": "nonpayable",
			"type": "function"
		},
		{
			"inputs": [
				{
					"internalType": "bytes4",
					"name": "interfaceId",
					"type": "bytes4"
				}
			],
			"name": "supportsInterface",
			"outputs": [
				{
					"internalType": "bool",
					"name": "",
					"type": "bool"
				}
			],
			"stateMutability": "view",
			"type": "function"
		},
		{
			"inputs": [],
			"name": "symbol",
			"outputs": [
				{
					"internalType": "string",
					"name": "",
					"type": "string"
				}
			],
			"stateMutability": "view",
			"type": "function"
		},
		{
			"inputs": [],
			"name": "toggleCombinable",
			"outputs": [],
			"stateMutability": "nonpayable",
			"type": "function"
		},
		{
			"inputs": [
				{
					"internalType": "uint256",
					"name": "tokenId",
					"type": "uint256"
				}
			],
			"name": "tokenURI",
			"outputs": [
				{
					"internalType": "string",
					"name": "",
					"type": "string"
				}
			],
			"stateMutability": "view",
			"type": "function"
		},
		{
			"inputs": [],
			"name": "totalSupply",
			"outputs": [
				{
					"internalType": "uint256",
					"name": "",
					"type": "uint256"
				}
			],
			"stateMutability": "view",
			"type": "function"
		},
		{
			"inputs": [
				{
					"internalType": "address",
					"name": "from",
					"type": "address"
				},
				{
					"internalType": "address",
					"name": "to",
					"type": "address"
				},
				{
					"internalType": "uint256",
					"name": "tokenId",
					"type": "uint256"
				}
			],
			"name": "transferFrom",
			"outputs": [],
			"stateMutability": "payable",
			"type": "function"
		},
		{
			"inputs": [
				{
					"internalType": "address",
					"name": "newOwner",
					"type": "address"
				}
			],
			"name": "transferOwnership",
			"outputs": [],
			"stateMutability": "nonpayable",
			"type": "function"
		},
		{
			"inputs": [],
			"name": "withdraw",
			"outputs": [],
			"stateMutability": "nonpayable",
			"type": "function"
		}
	]
}