{
	"data": {
		"bytecode": {
			"linkReferences": {},
			"object": "60806040523480156200001157600080fd5b506040518060400160405280601581526020017f55494e54532045646974696f6e204368616e67657300000000000000000000008152506040518060400160405280600881526020017f55494e545345444300000000000000000000000000000000000000000000000081525081600290816200008f919062000431565b508060039081620000a1919062000431565b50620000b2620000e060201b60201c565b6000819055505050620000da620000ce620000e960201b60201c565b620000f160201b60201c565b62000518565b60006001905090565b600033905090565b6000600860009054906101000a900473ffffffffffffffffffffffffffffffffffffffff16905081600860006101000a81548173ffffffffffffffffffffffffffffffffffffffff021916908373ffffffffffffffffffffffffffffffffffffffff1602179055508173ffffffffffffffffffffffffffffffffffffffff168173ffffffffffffffffffffffffffffffffffffffff167f8be0079c531659141344cd1fd0a4f28419497f9722a3daafe3b4186f6b6457e060405160405180910390a35050565b600081519050919050565b7f4e487b7100000000000000000000000000000000000000000000000000000000600052604160045260246000fd5b7f4e487b7100000000000000000000000000000000000000000000000000000000600052602260045260246000fd5b600060028204905060018216806200023957607f821691505b6020821081036200024f576200024e620001f1565b5b50919050565b60008190508160005260206000209050919050565b60006020601f8301049050919050565b600082821b905092915050565b600060088302620002b97fffffffffffffffffffffffffffffffffffffffffffffffffffffffffffffffff826200027a565b620002c586836200027a565b95508019841693508086168417925050509392505050565b6000819050919050565b6000819050919050565b6000620003126200030c6200030684620002dd565b620002e7565b620002dd565b9050919050565b6000819050919050565b6200032e83620002f1565b620003466200033d8262000319565b84845462000287565b825550505050565b600090565b6200035d6200034e565b6200036a81848462000323565b505050565b5b8181101562000392576200038660008262000353565b60018101905062000370565b5050565b601f821115620003e157620003ab8162000255565b620003b6846200026a565b81016020851015620003c6578190505b620003de620003d5856200026a565b8301826200036f565b50505b505050565b600082821c905092915050565b60006200040660001984600802620003e6565b1980831691505092915050565b6000620004218383620003f3565b9150826002028217905092915050565b6200043c82620001b7565b67ffffffffffffffff811115620004585762000457620001c2565b5b62000464825462000220565b6200047182828562000396565b600060209050601f831160018114620004a9576000841562000494578287015190505b620004a0858262000413565b86555062000510565b601f198416620004b98662000255565b60005b82811015620004e357848901518255600182019150602085019450602081019050620004bc565b86831015620005035784890151620004ff601f891682620003f3565b8355505b6001600288020188555050505b505050505050565b6142c380620005286000396000f3fe60806040526004361061012a5760003560e01c80636352211e116100ab578063a22cb4651161006f578063a22cb465146103a3578063b88d4fde146103cc578063c0074d68146103e8578063c87b56dd14610425578063e985e9c514610462578063f2fde38b1461049f5761012a565b80636352211e146102bc57806370a08231146102f9578063715018a6146103365780638da5cb5b1461034d57806395d89b41146103785761012a565b806318160ddd116100f257806318160ddd1461021957806323b872dd146102445780633ccfd60b1461026057806342842e0e14610277578063433f7b8b146102935761012a565b806301ffc9a71461012f57806306fdde031461016c578063081812fc14610197578063095ea7b3146101d457806310b4b038146101f0575b600080fd5b34801561013b57600080fd5b5061015660048036038101906101519190612027565b6104c8565b604051610163919061206f565b60405180910390f35b34801561017857600080fd5b5061018161055a565b60405161018e919061211a565b60405180910390f35b3480156101a357600080fd5b506101be60048036038101906101b99190612172565b6105ec565b6040516101cb91906121e0565b60405180910390f35b6101ee60048036038101906101e99190612227565b61066b565b005b3480156101fc57600080fd5b506102176004803603810190610212919061239c565b6107af565b005b34801561022557600080fd5b5061022e610930565b60405161023b9190612454565b60405180910390f35b61025e6004803603810190610259919061246f565b610947565b005b34801561026c57600080fd5b50610275610c69565b005b610291600480360381019061028c919061246f565b610cb1565b005b34801561029f57600080fd5b506102ba60048036038101906102b591906124c2565b610cd1565b005b3480156102c857600080fd5b506102e360048036038101906102de9190612172565b610d1d565b6040516102f091906121e0565b60405180910390f35b34801561030557600080fd5b50610320600480360381019061031b91906124c2565b610d2f565b60405161032d9190612454565b60405180910390f35b34801561034257600080fd5b5061034b610de7565b005b34801561035957600080fd5b50610362610dfb565b60405161036f91906121e0565b60405180910390f35b34801561038457600080fd5b5061038d610e25565b60405161039a919061211a565b60405180910390f35b3480156103af57600080fd5b506103ca60048036038101906103c5919061251b565b610eb7565b005b6103e660048036038101906103e191906125fc565b610fc2565b005b3480156103f457600080fd5b5061040f600480360381019061040a9190612745565b611035565b60405161041c919061211a565b60405180910390f35b34801561043157600080fd5b5061044c60048036038101906104479190612172565b6110ae565b604051610459919061211a565b60405180910390f35b34801561046e57600080fd5b506104896004803603810190610484919061278e565b611308565b604051610496919061206f565b60405180910390f35b3480156104ab57600080fd5b506104c660048036038101906104c191906124c2565b61139c565b005b60006301ffc9a760e01b827bffffffffffffffffffffffffffffffffffffffffffffffffffffffff1916148061052357506380ac58cd60e01b827bffffffffffffffffffffffffffffffffffffffffffffffffffffffff1916145b806105535750635b5e139f60e01b827bffffffffffffffffffffffffffffffffffffffffffffffffffffffff1916145b9050919050565b606060028054610569906127fd565b80601f0160208091040260200160405190810160405280929190818152602001828054610595906127fd565b80156105e25780601f106105b7576101008083540402835291602001916105e2565b820191906000526020600020905b8154815290600101906020018083116105c557829003601f168201915b5050505050905090565b60006105f78261141f565b61062d576040517fcf4700e400000000000000000000000000000000000000000000000000000000815260040160405180910390fd5b6006600083815260200190815260200160002060000160009054906101000a900473ffffffffffffffffffffffffffffffffffffffff169050919050565b600061067682610d1d565b90508073ffffffffffffffffffffffffffffffffffffffff1661069761147e565b73ffffffffffffffffffffffffffffffffffffffff16146106fa576106c3816106be61147e565b611308565b6106f9576040517fcfb3b94200000000000000000000000000000000000000000000000000000000815260040160405180910390fd5b5b826006600084815260200190815260200160002060000160006101000a81548173ffffffffffffffffffffffffffffffffffffffff021916908373ffffffffffffffffffffffffffffffffffffffff160217905550818373ffffffffffffffffffffffffffffffffffffffff168273ffffffffffffffffffffffffffffffffffffffff167f8c5be1e5ebec7d5bd14f71427d1e84f3dd0314c0f7b2291e5b200ac8c7c3b92560405160405180910390a4505050565b600a60009054906101000a900473ffffffffffffffffffffffffffffffffffffffff1673ffffffffffffffffffffffffffffffffffffffff163373ffffffffffffffffffffffffffffffffffffffff161461083f576040517f08c379a00000000000000000000000000000000000000000000000000000000081526004016108369061287a565b60405180910390fd5b6040518060c001604052808781526020018681526020018581526020018473ffffffffffffffffffffffffffffffffffffffff1681526020018381526020018281525060096000888152602001908152602001600020600082015181600001556020820151816001015560408201518160020190816108be9190612a46565b5060608201518160030160006101000a81548173ffffffffffffffffffffffffffffffffffffffff021916908373ffffffffffffffffffffffffffffffffffffffff1602179055506080820151816004015560a08201518160050155905050610928836001611486565b505050505050565b600061093a611641565b6001546000540303905090565b60006109528261164a565b90508373ffffffffffffffffffffffffffffffffffffffff168173ffffffffffffffffffffffffffffffffffffffff16146109b9576040517fa114810000000000000000000000000000000000000000000000000000000000815260040160405180910390fd5b6000806109c584611716565b915091506109db81876109d661147e565b61173d565b610a27576109f0866109eb61147e565b611308565b610a26576040517f59c896be00000000000000000000000000000000000000000000000000000000815260040160405180910390fd5b5b600073ffffffffffffffffffffffffffffffffffffffff168573ffffffffffffffffffffffffffffffffffffffff1603610a8d576040517fea553b3400000000000000000000000000000000000000000000000000000000815260040160405180910390fd5b610a9a8686866001611781565b8015610aa557600082555b600560008773ffffffffffffffffffffffffffffffffffffffff1673ffffffffffffffffffffffffffffffffffffffff168152602001908152602001600020600081546001900391905081905550600560008673ffffffffffffffffffffffffffffffffffffffff1673ffffffffffffffffffffffffffffffffffffffff1681526020019081526020016000206000815460010191905081905550610b7385610b4f888887611787565b7c0200000000000000000000000000000000000000000000000000000000176117af565b600460008681526020019081526020016000208190555060007c0200000000000000000000000000000000000000000000000000000000841603610bf95760006001850190506000600460008381526020019081526020016000205403610bf7576000548114610bf6578360046000838152602001908152602001600020819055505b5b505b838573ffffffffffffffffffffffffffffffffffffffff168773ffffffffffffffffffffffffffffffffffffffff167fddf252ad1be2c89b69c2b068fc378daa952ba7f163c4a11628f55a4df523b3ef60405160405180910390a4610c6186868660016117da565b505050505050565b610c716117e0565b3373ffffffffffffffffffffffffffffffffffffffff166108fc479081150290604051600060405180830381858888f19350505050610caf57600080fd5b565b610ccc83838360405180602001604052806000815250610fc2565b505050565b610cd96117e0565b80600a60006101000a81548173ffffffffffffffffffffffffffffffffffffffff021916908373ffffffffffffffffffffffffffffffffffffffff16021790555050565b6000610d288261164a565b9050919050565b60008073ffffffffffffffffffffffffffffffffffffffff168273ffffffffffffffffffffffffffffffffffffffff1603610d96576040517f8f4eb60400000000000000000000000000000000000000000000000000000000815260040160405180910390fd5b67ffffffffffffffff600560008473ffffffffffffffffffffffffffffffffffffffff1673ffffffffffffffffffffffffffffffffffffffff16815260200190815260200160002054169050919050565b610def6117e0565b610df9600061185e565b565b6000600860009054906101000a900473ffffffffffffffffffffffffffffffffffffffff16905090565b606060038054610e34906127fd565b80601f0160208091040260200160405190810160405280929190818152602001828054610e60906127fd565b8015610ead5780601f10610e8257610100808354040283529160200191610ead565b820191906000526020600020905b815481529060010190602001808311610e9057829003601f168201915b5050505050905090565b8060076000610ec461147e565b73ffffffffffffffffffffffffffffffffffffffff1673ffffffffffffffffffffffffffffffffffffffff16815260200190815260200160002060008473ffffffffffffffffffffffffffffffffffffffff1673ffffffffffffffffffffffffffffffffffffffff16815260200190815260200160002060006101000a81548160ff0219169083151502179055508173ffffffffffffffffffffffffffffffffffffffff16610f7161147e565b73ffffffffffffffffffffffffffffffffffffffff167f17307eab39ab6107e8899845ad3d59bd9653f200f220920489ca2b5937696c3183604051610fb6919061206f565b60405180910390a35050565b610fcd848484610947565b60008373ffffffffffffffffffffffffffffffffffffffff163b1461102f57610ff884848484611924565b61102e576040517fd1a57ed600000000000000000000000000000000000000000000000000000000815260040160405180910390fd5b5b50505050565b60606110448260000151611a74565b6110518360200151611a74565b83604001516110638560600151611ac4565b6110708660800151611a74565b61107d8760a00151611a74565b876040015160405160200161109897969594939291906134e9565b6040516020818303038152906040529050919050565b606060006111e8600960008581526020019081526020016000206040518060c001604052908160008201548152602001600182015481526020016002820180546110f7906127fd565b80601f0160208091040260200160405190810160405280929190818152602001828054611123906127fd565b80156111705780601f1061114557610100808354040283529160200191611170565b820191906000526020600020905b81548152906001019060200180831161115357829003601f168201915b505050505081526020016003820160009054906101000a900473ffffffffffffffffffffffffffffffffffffffff1673ffffffffffffffffffffffffffffffffffffffff1673ffffffffffffffffffffffffffffffffffffffff16815260200160048201548152602001600582015481525050611035565b905060006111f584611a74565b6112146009600087815260200190815260200160002060000154611a74565b6112336009600088815260200190815260200160002060010154611a74565b60096000888152602001908152602001600020600201611288600960008a815260200190815260200160002060030160009054906101000a900473ffffffffffffffffffffffffffffffffffffffff16611b32565b6112a7600960008b815260200190815260200160002060050154611a74565b6112b088611cf5565b6040516020016112c69796959493929190613a51565b60405160208183030381529060405290506112e081611cf5565b6040516020016112f09190613b65565b60405160208183030381529060405292505050919050565b6000600760008473ffffffffffffffffffffffffffffffffffffffff1673ffffffffffffffffffffffffffffffffffffffff16815260200190815260200160002060008373ffffffffffffffffffffffffffffffffffffffff1673ffffffffffffffffffffffffffffffffffffffff16815260200190815260200160002060009054906101000a900460ff16905092915050565b6113a46117e0565b600073ffffffffffffffffffffffffffffffffffffffff168173ffffffffffffffffffffffffffffffffffffffff1603611413576040517f08c379a000000000000000000000000000000000000000000000000000000000815260040161140a90613bf9565b60405180910390fd5b61141c8161185e565b50565b60008161142a611641565b11158015611439575060005482105b8015611477575060007c0100000000000000000000000000000000000000000000000000000000600460008581526020019081526020016000205416145b9050919050565b600033905090565b600080549050600082036114c6576040517fb562e8dd00000000000000000000000000000000000000000000000000000000815260040160405180910390fd5b6114d36000848385611781565b600160406001901b178202600560008573ffffffffffffffffffffffffffffffffffffffff1673ffffffffffffffffffffffffffffffffffffffff1681526020019081526020016000206000828254019250508190555061154a8361153b6000866000611787565b61154485611e58565b176117af565b6004600083815260200190815260200160002081905550600080838301905073ffffffffffffffffffffffffffffffffffffffff85169150828260007fddf252ad1be2c89b69c2b068fc378daa952ba7f163c4a11628f55a4df523b3ef600080a4600183015b8181146115eb57808360007fddf252ad1be2c89b69c2b068fc378daa952ba7f163c4a11628f55a4df523b3ef600080a46001810190506115b0565b5060008203611626576040517f2e07630000000000000000000000000000000000000000000000000000000000815260040160405180910390fd5b80600081905550505061163c60008483856117da565b505050565b60006001905090565b60008082905080611659611641565b116116df576000548110156116de5760006004600083815260200190815260200160002054905060007c01000000000000000000000000000000000000000000000000000000008216036116dc575b600081036116d25760046000836001900393508381526020019081526020016000205490506116a8565b8092505050611711565b505b5b6040517fdf2d9b4200000000000000000000000000000000000000000000000000000000815260040160405180910390fd5b919050565b60008060006006600085815260200190815260200160002090508092508254915050915091565b600073ffffffffffffffffffffffffffffffffffffffff8316925073ffffffffffffffffffffffffffffffffffffffff821691508382148383141790509392505050565b50505050565b60008060e883901c905060e861179e868684611e68565b62ffffff16901b9150509392505050565b600073ffffffffffffffffffffffffffffffffffffffff83169250814260a01b178317905092915050565b50505050565b6117e8611e71565b73ffffffffffffffffffffffffffffffffffffffff16611806610dfb565b73ffffffffffffffffffffffffffffffffffffffff161461185c576040517f08c379a000000000000000000000000000000000000000000000000000000000815260040161185390613c65565b60405180910390fd5b565b6000600860009054906101000a900473ffffffffffffffffffffffffffffffffffffffff16905081600860006101000a81548173ffffffffffffffffffffffffffffffffffffffff021916908373ffffffffffffffffffffffffffffffffffffffff1602179055508173ffffffffffffffffffffffffffffffffffffffff168173ffffffffffffffffffffffffffffffffffffffff167f8be0079c531659141344cd1fd0a4f28419497f9722a3daafe3b4186f6b6457e060405160405180910390a35050565b60008373ffffffffffffffffffffffffffffffffffffffff1663150b7a0261194a61147e565b8786866040518563ffffffff1660e01b815260040161196c9493929190613cda565b6020604051808303816000875af19250505080156119a857506040513d601f19601f820116820180604052508101906119a59190613d3b565b60015b611a21573d80600081146119d8576040519150601f19603f3d011682016040523d82523d6000602084013e6119dd565b606091505b506000815103611a19576040517fd1a57ed600000000000000000000000000000000000000000000000000000000815260040160405180910390fd5b805181602001fd5b63150b7a0260e01b7bffffffffffffffffffffffffffffffffffffffffffffffffffffffff1916817bffffffffffffffffffffffffffffffffffffffffffffffffffffffff191614915050949350505050565b606060a060405101806040526020810391506000825281835b600115611aaf57600184039350600a81066030018453600a8104905080611a8d575b50828103602084039350808452505050919050565b60606000611ad183611b32565b90506000815190506000600390506000600483611aee9190613d97565b9050611afc84600084611e79565b611b07858386611e79565b604051602001611b18929190613e63565b604051602081830303815290604052945050505050919050565b60606000602867ffffffffffffffff811115611b5157611b50612271565b5b6040519080825280601f01601f191660200182016040528015611b835781602001600182028036833780820191505090505b50905060005b6014811015611ceb576000816013611ba19190613d97565b6008611bad9190613e9d565b6002611bb99190614012565b8573ffffffffffffffffffffffffffffffffffffffff16611bda919061408c565b60f81b9050600060108260f81c611bf191906140ca565b60f81b905060008160f81c6010611c0891906140fb565b8360f81c611c169190614138565b60f81b9050611c2482611f75565b85856002611c329190613e9d565b81518110611c4357611c4261416d565b5b60200101907effffffffffffffffffffffffffffffffffffffffffffffffffffffffffffff1916908160001a905350611c7b81611f75565b856001866002611c8b9190613e9d565b611c95919061419c565b81518110611ca657611ca561416d565b5b60200101907effffffffffffffffffffffffffffffffffffffffffffffffffffffffffffff1916908160001a9053505050508080611ce3906141d0565b915050611b89565b5080915050919050565b60606000825103611d1757604051806020016040528060008152509050611e53565b600060405180606001604052806040815260200161424e6040913990506000600360028551611d46919061419c565b611d50919061408c565b6004611d5c9190613e9d565b67ffffffffffffffff811115611d7557611d74612271565b5b6040519080825280601f01601f191660200182016040528015611da75781602001600182028036833780820191505090505b509050600182016020820185865187015b80821015611e13576003820191508151603f8160121c168501518453600184019350603f81600c1c168501518453600184019350603f8160061c168501518453600184019350603f8116850151845360018401935050611db8565b5050600386510660018114611e2f5760028114611e4257611e4a565b603d6001830353603d6002830353611e4a565b603d60018303535b50505080925050505b919050565b60006001821460e11b9050919050565b60009392505050565b600033905090565b6060600084905060008484611e8e9190613d97565b67ffffffffffffffff811115611ea757611ea6612271565b5b6040519080825280601f01601f191660200182016040528015611ed95781602001600182028036833780820191505090505b50905060008590505b84811015611f6857828181518110611efd57611efc61416d565b5b602001015160f81c60f81b828783611f159190613d97565b81518110611f2657611f2561416d565b5b60200101907effffffffffffffffffffffffffffffffffffffffffffffffffffffffffffff1916908160001a9053508080611f60906141d0565b915050611ee2565b5080925050509392505050565b6000600a8260f81c60ff161015611fa05760308260f81c611f969190614218565b60f81b9050611fb6565b60578260f81c611fb09190614218565b60f81b90505b919050565b6000604051905090565b600080fd5b600080fd5b60007fffffffff0000000000000000000000000000000000000000000000000000000082169050919050565b61200481611fcf565b811461200f57600080fd5b50565b60008135905061202181611ffb565b92915050565b60006020828403121561203d5761203c611fc5565b5b600061204b84828501612012565b91505092915050565b60008115159050919050565b61206981612054565b82525050565b60006020820190506120846000830184612060565b92915050565b600081519050919050565b600082825260208201905092915050565b60005b838110156120c45780820151818401526020810190506120a9565b60008484015250505050565b6000601f19601f8301169050919050565b60006120ec8261208a565b6120f68185612095565b93506121068185602086016120a6565b61210f816120d0565b840191505092915050565b6000602082019050818103600083015261213481846120e1565b905092915050565b6000819050919050565b61214f8161213c565b811461215a57600080fd5b50565b60008135905061216c81612146565b92915050565b60006020828403121561218857612187611fc5565b5b60006121968482850161215d565b91505092915050565b600073ffffffffffffffffffffffffffffffffffffffff82169050919050565b60006121ca8261219f565b9050919050565b6121da816121bf565b82525050565b60006020820190506121f560008301846121d1565b92915050565b612204816121bf565b811461220f57600080fd5b50565b600081359050612221816121fb565b92915050565b6000806040838503121561223e5761223d611fc5565b5b600061224c85828601612212565b925050602061225d8582860161215d565b9150509250929050565b600080fd5b600080fd5b7f4e487b7100000000000000000000000000000000000000000000000000000000600052604160045260246000fd5b6122a9826120d0565b810181811067ffffffffffffffff821117156122c8576122c7612271565b5b80604052505050565b60006122db611fbb565b90506122e782826122a0565b919050565b600067ffffffffffffffff82111561230757612306612271565b5b612310826120d0565b9050602081019050919050565b82818337600083830152505050565b600061233f61233a846122ec565b6122d1565b90508281526020810184848401111561235b5761235a61226c565b5b61236684828561231d565b509392505050565b600082601f83011261238357612382612267565b5b813561239384826020860161232c565b91505092915050565b60008060008060008060c087890312156123b9576123b8611fc5565b5b60006123c789828a0161215d565b96505060206123d889828a0161215d565b955050604087013567ffffffffffffffff8111156123f9576123f8611fca565b5b61240589828a0161236e565b945050606061241689828a01612212565b935050608061242789828a0161215d565b92505060a061243889828a0161215d565b9150509295509295509295565b61244e8161213c565b82525050565b60006020820190506124696000830184612445565b92915050565b60008060006060848603121561248857612487611fc5565b5b600061249686828701612212565b93505060206124a786828701612212565b92505060406124b88682870161215d565b9150509250925092565b6000602082840312156124d8576124d7611fc5565b5b60006124e684828501612212565b91505092915050565b6124f881612054565b811461250357600080fd5b50565b600081359050612515816124ef565b92915050565b6000806040838503121561253257612531611fc5565b5b600061254085828601612212565b925050602061255185828601612506565b9150509250929050565b600067ffffffffffffffff82111561257657612575612271565b5b61257f826120d0565b9050602081019050919050565b600061259f61259a8461255b565b6122d1565b9050828152602081018484840111156125bb576125ba61226c565b5b6125c684828561231d565b509392505050565b600082601f8301126125e3576125e2612267565b5b81356125f384826020860161258c565b91505092915050565b6000806000806080858703121561261657612615611fc5565b5b600061262487828801612212565b945050602061263587828801612212565b93505060406126468782880161215d565b925050606085013567ffffffffffffffff81111561266757612666611fca565b5b612673878288016125ce565b91505092959194509250565b600080fd5b600080fd5b600060c0828403121561269f5761269e61267f565b5b6126a960c06122d1565b905060006126b98482850161215d565b60008301525060206126cd8482850161215d565b602083015250604082013567ffffffffffffffff8111156126f1576126f0612684565b5b6126fd8482850161236e565b604083015250606061271184828501612212565b60608301525060806127258482850161215d565b60808301525060a06127398482850161215d565b60a08301525092915050565b60006020828403121561275b5761275a611fc5565b5b600082013567ffffffffffffffff81111561277957612778611fca565b5b61278584828501612689565b91505092915050565b600080604083850312156127a5576127a4611fc5565b5b60006127b385828601612212565b92505060206127c485828601612212565b9150509250929050565b7f4e487b7100000000000000000000000000000000000000000000000000000000600052602260045260246000fd5b6000600282049050600182168061281557607f821691505b602082108103612828576128276127ce565b5b50919050565b7f556e617070726f766564206d696e74696e6720736f7572636500000000000000600082015250565b6000612864601983612095565b915061286f8261282e565b602082019050919050565b6000602082019050818103600083015261289381612857565b9050919050565b60008190508160005260206000209050919050565b60006020601f8301049050919050565b600082821b905092915050565b6000600883026128fc7fffffffffffffffffffffffffffffffffffffffffffffffffffffffffffffffff826128bf565b61290686836128bf565b95508019841693508086168417925050509392505050565b6000819050919050565b600061294361293e6129398461213c565b61291e565b61213c565b9050919050565b6000819050919050565b61295d83612928565b6129716129698261294a565b8484546128cc565b825550505050565b600090565b612986612979565b612991818484612954565b505050565b5b818110156129b5576129aa60008261297e565b600181019050612997565b5050565b601f8211156129fa576129cb8161289a565b6129d4846128af565b810160208510156129e3578190505b6129f76129ef856128af565b830182612996565b50505b505050565b600082821c905092915050565b6000612a1d600019846008026129ff565b1980831691505092915050565b6000612a368383612a0c565b9150826002028217905092915050565b612a4f8261208a565b67ffffffffffffffff811115612a6857612a67612271565b5b612a7282546127fd565b612a7d8282856129b9565b600060209050601f831160018114612ab05760008415612a9e578287015190505b612aa88582612a2a565b865550612b10565b601f198416612abe8661289a565b60005b82811015612ae657848901518255600182019150602085019450602081019050612ac1565b86831015612b035784890151612aff601f891682612a0c565b8355505b6001600288020188555050505b505050505050565b600081905092915050565b7f3c7376672077696474683d2239303022206865696768743d223930302220766960008201527f6577426f783d223020302033303020333030222066696c6c3d226e6f6e65222060208201527f786d6c6e733d22687474703a2f2f7777772e77332e6f72672f323030302f737660408201527f67223e3c726563742069643d226267222077696474683d22333030222068656960608201527f6768743d22333030222066696c6c3d2223306330633063222f3e3c726563742060808201527f636c6173733d226461726b2d7374726f6b652220783d2237352e352220793d2260a08201527f34352e35222077696474683d2231343922206865696768743d2232313122206660c08201527f696c6c3d227768697465222f3e3c672069643d226c6f676f223e3c706174682060e08201527f643d224d3134312e352035392e323838364c3134332035372e373838364c31346101008201527f342e352035392e323838365636392e323838394c3134332037302e3738394c316101208201527f34312e352036392e323838395635392e323838365a222f3e3c7061746820643d6101408201527f224d3135352e352035392e323838364c3135372035372e373838364c3135382e6101608201527f352035392e323838365636392e323838394c3135372037302e3738394c3135356101808201527f2e352036392e323838395635392e323838365a222f3e3c7061746820643d224d6101a08201527f3135352036392e373838374c3135362e352037312e323838374c3135352037326101c08201527f2e373838384c3134352037322e373838384c3134332e352037312e323838374c6101e08201527f3134352036392e373838374c3135352036392e373838375a222f3e3c2f673e3c6102008201527f6c696e6520636c6173733d226461726b2d7374726f6b65222078313d223838226102208201527f2079313d2238342e32333437222078323d22323132222079323d2238342e32336102408201527f3437222f3e3c6c696e6520636c6173733d226461726b2d7374726f6b652220786102608201527f313d223838222079313d223130332e363735222078323d22323132222079323d6102808201527f223130332e363735222f3e3c7465787420666f6e742d7765696768743d22626f6102a08201527f6c642220666f6e742d73697a653d2238223e3c747370616e20783d22313530226102c08201527f20793d2239362e39353836223e55494e5453204f45202d2050524f4f46204f466102e08201527f204348414e47453c2f747370616e3e3c2f746578743e3c7465787420666f6e746103008201527f2d73697a653d223132223e3c747370616e20783d223135302220793d223131396103208201527f2e323339223e230000000000000000000000000000000000000000000000000061034082015250565b6000612f4961034783612b18565b9150612f5482612b23565b61034782019050919050565b6000612f6b8261208a565b612f758185612b18565b9350612f858185602086016120a6565b80840191505092915050565b7f3c2f747370616e3e3c2f746578743e3c6c696e6520636c6173733d226461736860008201527f6c696e65206461726b2d7374726f6b65222078313d2238382e35222079313d2260208201527f3132352e343831222078323d223231312e35222079323d223132352e3438312260408201527f2f3e3c7465787420636c6173733d226c696e652d6974656d73223e3c7473706160608201527f6e20783d2238382220793d223134382e323733223e504f534954494f4e3a2000608082015250565b600061305f609f83612b18565b915061306a82612f91565b609f82019050919050565b7f3c2f747370616e3e3c747370616e20783d2238382220793d223136342e32373360008201527f223e434f4c4f523a200000000000000000000000000000000000000000000000602082015250565b60006130d1602983612b18565b91506130dc82613075565b602982019050919050565b7f3c2f747370616e3e3c747370616e20783d2238382220793d223138302e32373360008201527f223e4348414e4745442042593a20000000000000000000000000000000000000602082015250565b6000613143602e83612b18565b915061314e826130e7565b602e82019050919050565b7f3c2f747370616e3e3c747370616e20783d2238382220793d223139362e32373360008201527f223e55494e545320555345443a20230000000000000000000000000000000000602082015250565b60006131b5602f83612b18565b91506131c082613159565b602f82019050919050565b7f3c2f747370616e3e3c747370616e20783d2238382220793d223231322e32373360008201527f223e54494d455354414d503a2000000000000000000000000000000000000000602082015250565b6000613227602d83612b18565b9150613232826131cb565b602d82019050919050565b7f3c2f747370616e3e3c2f746578743e3c6c696e6520636c6173733d226461736860008201527f6c696e65206461726b2d7374726f6b65222078313d2238382e35222079313d2260208201527f3233322e373837222078323d223231312e35222079323d223233322e3738372260408201527f2f3e3c746578742069643d224e554d4245525320415245204152542c20414e4460608201527f2057452041524520415254495354532220666f6e742d73697a653d2235223e3c60808201527f747370616e20783d223135302220793d223234352e353131223e4e554d42455260a08201527f5320415245204152542c20414e442057452041524520415254495354533c2f7460c08201527f7370616e3e3c2f746578743e3c7374796c653e2362677b66696c6c3a0000000060e082015250565b600061337d60fc83612b18565b91506133888261323d565b60fc82019050919050565b7f7d236c6f676f20706174687b66696c6c3a233063306330637d2e646173686c6960008201527f6e657b7374726f6b652d6c696e656361703a7371756172653b7374726f6b652d60208201527f6461736861727261793a3220343b7d746578747b666f6e742d66616d696c793a60408201527f73616e732d73657269663b66696c6c3a233063306330633b746578742d616e6360608201527f686f723a6d6964646c657d2e6c696e652d6974656d737b666f6e742d73697a6560808201527f3a3870783b746578742d616e63686f723a73746172747d2e6461726b2d73747260a08201527f6f6b657b7374726f6b653a233063306330637d3c2f7374796c653e3c2f73766760c08201527f3e0000000000000000000000000000000000000000000000000000000000000060e082015250565b60006134d360e183612b18565b91506134de82613393565b60e182019050919050565b60006134f482612f3b565b9150613500828a612f60565b915061350b82613052565b91506135178289612f60565b9150613522826130c4565b915061352e8288612f60565b915061353982613136565b91506135458287612f60565b9150613550826131a8565b915061355c8286612f60565b91506135678261321a565b91506135738285612f60565b915061357e82613370565b915061358a8284612f60565b9150613595826134c6565b915081905098975050505050505050565b7f7b226e616d65223a202255494e54532045646974696f6e204368616e67652000600082015250565b60006135dc601f83612b18565b91506135e7826135a6565b601f82019050919050565b7f222c20226465736372697074696f6e223a202255494e54532045646974696f6e60008201527f204368616e676573206172652072656365697074732067656e6572617465642060208201527f6279206d616b696e672061206368616e676520746f207468652055494e54532060408201527f45646974696f6e206172742e222c200000000000000000000000000000000000606082015250565b600061369a606f83612b18565b91506136a5826135f2565b606f82019050919050565b7f2261747472696275746573223a205b7b22646973706c61795f74797065223a2060008201527f226e756d626572222c202274726169745f74797065223a20224368616e67652060208201527f6e756d626572222c202276616c7565223a200000000000000000000000000000604082015250565b6000613732605283612b18565b915061373d826136b0565b605282019050919050565b7f7d2c7b22646973706c61795f74797065223a20226e756d626572222c2022747260008201527f6169745f74797065223a2022506f736974696f6e222c202276616c7565223a20602082015250565b60006137a4604083612b18565b91506137af82613748565b604082019050919050565b7f7d2c7b2274726169745f74797065223a2022436f6c6f72222c202276616c756560008201527f223a202200000000000000000000000000000000000000000000000000000000602082015250565b6000613816602483612b18565b9150613821826137ba565b602482019050919050565b60008154613839816127fd565b6138438186612b18565b9450600182166000811461385e5760018114613873576138a6565b60ff19831686528115158202860193506138a6565b61387c8561289a565b60005b8381101561389e5781548189015260018201915060208101905061387f565b838801955050505b50505092915050565b7f227d2c7b2274726169745f74797065223a20224368616e676564206279222c2060008201527f2276616c7565223a202230780000000000000000000000000000000000000000602082015250565b600061390b602c83612b18565b9150613916826138af565b602c82019050919050565b7f227d2c7b22646973706c61795f74797065223a202264617465222c202274726160008201527f69745f74797065223a202244617465222c202276616c7565223a200000000000602082015250565b600061397d603b83612b18565b915061398882613921565b603b82019050919050565b7f7d5d2c2022696d616765223a2022646174613a696d6167652f7376672b786d6c60008201527f3b6261736536342c000000000000000000000000000000000000000000000000602082015250565b60006139ef602883612b18565b91506139fa82613993565b602882019050919050565b7f227d000000000000000000000000000000000000000000000000000000000000600082015250565b6000613a3b600283612b18565b9150613a4682613a05565b600282019050919050565b6000613a5c826135cf565b9150613a68828a612f60565b9150613a738261368d565b9150613a7e82613725565b9150613a8a8289612f60565b9150613a9582613797565b9150613aa18288612f60565b9150613aac82613809565b9150613ab8828761382c565b9150613ac3826138fe565b9150613acf8286612f60565b9150613ada82613970565b9150613ae68285612f60565b9150613af1826139e2565b9150613afd8284612f60565b9150613b0882613a2e565b915081905098975050505050505050565b7f646174613a6170706c69636174696f6e2f6a736f6e3b6261736536342c000000600082015250565b6000613b4f601d83612b18565b9150613b5a82613b19565b601d82019050919050565b6000613b7082613b42565b9150613b7c8284612f60565b915081905092915050565b7f4f776e61626c653a206e6577206f776e657220697320746865207a65726f206160008201527f6464726573730000000000000000000000000000000000000000000000000000602082015250565b6000613be3602683612095565b9150613bee82613b87565b604082019050919050565b60006020820190508181036000830152613c1281613bd6565b9050919050565b7f4f776e61626c653a2063616c6c6572206973206e6f7420746865206f776e6572600082015250565b6000613c4f602083612095565b9150613c5a82613c19565b602082019050919050565b60006020820190508181036000830152613c7e81613c42565b9050919050565b600081519050919050565b600082825260208201905092915050565b6000613cac82613c85565b613cb68185613c90565b9350613cc68185602086016120a6565b613ccf816120d0565b840191505092915050565b6000608082019050613cef60008301876121d1565b613cfc60208301866121d1565b613d096040830185612445565b8181036060830152613d1b8184613ca1565b905095945050505050565b600081519050613d3581611ffb565b92915050565b600060208284031215613d5157613d50611fc5565b5b6000613d5f84828501613d26565b91505092915050565b7f4e487b7100000000000000000000000000000000000000000000000000000000600052601160045260246000fd5b6000613da28261213c565b9150613dad8361213c565b9250828203905081811115613dc557613dc4613d68565b5b92915050565b7f3078000000000000000000000000000000000000000000000000000000000000600082015250565b6000613e01600283612b18565b9150613e0c82613dcb565b600282019050919050565b7f2e2e2e0000000000000000000000000000000000000000000000000000000000600082015250565b6000613e4d600383612b18565b9150613e5882613e17565b600382019050919050565b6000613e6e82613df4565b9150613e7a8285612f60565b9150613e8582613e40565b9150613e918284612f60565b91508190509392505050565b6000613ea88261213c565b9150613eb38361213c565b9250828202613ec18161213c565b91508282048414831517613ed857613ed7613d68565b5b5092915050565b60008160011c9050919050565b6000808291508390505b6001851115613f3657808604811115613f1257613f11613d68565b5b6001851615613f215780820291505b8081029050613f2f85613edf565b9450613ef6565b94509492505050565b600082613f4f576001905061400b565b81613f5d576000905061400b565b8160018114613f735760028114613f7d57613fac565b600191505061400b565b60ff841115613f8f57613f8e613d68565b5b8360020a915084821115613fa657613fa5613d68565b5b5061400b565b5060208310610133831016604e8410600b8410161715613fe15782820a905083811115613fdc57613fdb613d68565b5b61400b565b613fee8484846001613eec565b9250905081840481111561400557614004613d68565b5b81810290505b9392505050565b600061401d8261213c565b91506140288361213c565b92506140557fffffffffffffffffffffffffffffffffffffffffffffffffffffffffffffffff8484613f3f565b905092915050565b7f4e487b7100000000000000000000000000000000000000000000000000000000600052601260045260246000fd5b60006140978261213c565b91506140a28361213c565b9250826140b2576140b161405d565b5b828204905092915050565b600060ff82169050919050565b60006140d5826140bd565b91506140e0836140bd565b9250826140f0576140ef61405d565b5b828204905092915050565b6000614106826140bd565b9150614111836140bd565b925082820261411f816140bd565b915080821461413157614130613d68565b5b5092915050565b6000614143826140bd565b915061414e836140bd565b9250828203905060ff81111561416757614166613d68565b5b92915050565b7f4e487b7100000000000000000000000000000000000000000000000000000000600052603260045260246000fd5b60006141a78261213c565b91506141b28361213c565b92508282019050808211156141ca576141c9613d68565b5b92915050565b60006141db8261213c565b91507fffffffffffffffffffffffffffffffffffffffffffffffffffffffffffffffff820361420d5761420c613d68565b5b600182019050919050565b6000614223826140bd565b915061422e836140bd565b9250828201905060ff81111561424757614246613d68565b5b9291505056fe4142434445464748494a4b4c4d4e4f505152535455565758595a6162636465666768696a6b6c6d6e6f707172737475767778797a303132333435363738392b2fa264697066735822122075e94733c880387ff610ed5526e67521d306c9c9f3a810c434361fe7dd24fb6e64736f6c63430008120033",
			"opcodes": "PUSH1 0x80 PUSH1 0x40 MSTORE CALLVALUE DUP1 ISZERO PUSH3 0x11 JUMPI PUSH1 0x0 DUP1 REVERT JUMPDEST POP PUSH1 0x40 MLOAD DUP1 PUSH1 0x40 ADD PUSH1 0x40 MSTORE DUP1 PUSH1 0x15 DUP2 MSTORE PUSH1 0x20 ADD PUSH32 0x55494E54532045646974696F6E204368616E6765730000000000000000000000 DUP2 MSTORE POP PUSH1 0x40 MLOAD DUP1 PUSH1 0x40 ADD PUSH1 0x40 MSTORE DUP1 PUSH1 0x8 DUP2 MSTORE PUSH1 0x20 ADD PUSH32 0x55494E5453454443000000000000000000000000000000000000000000000000 DUP2 MSTORE POP DUP2 PUSH1 0x2 SWAP1 DUP2 PUSH3 0x8F SWAP2 SWAP1 PUSH3 0x431 JUMP JUMPDEST POP DUP1 PUSH1 0x3 SWAP1 DUP2 PUSH3 0xA1 SWAP2 SWAP1 PUSH3 0x431 JUMP JUMPDEST POP PUSH3 0xB2 PUSH3 0xE0 PUSH1 0x20 SHL PUSH1 0x20 SHR JUMP JUMPDEST PUSH1 0x0 DUP2 SWAP1 SSTORE POP POP POP PUSH3 0xDA PUSH3 0xCE PUSH3 0xE9 PUSH1 0x20 SHL PUSH1 0x20 SHR JUMP JUMPDEST PUSH3 0xF1 PUSH1 0x20 SHL PUSH1 0x20 SHR JUMP JUMPDEST PUSH3 0x518 JUMP JUMPDEST PUSH1 0x0 PUSH1 0x1 SWAP1 POP SWAP1 JUMP JUMPDEST PUSH1 0x0 CALLER SWAP1 POP SWAP1 JUMP JUMPDEST PUSH1 0x0 PUSH1 0x8 PUSH1 0x0 SWAP1 SLOAD SWAP1 PUSH2 0x100 EXP SWAP1 DIV PUSH20 0xFFFFFFFFFFFFFFFFFFFFFFFFFFFFFFFFFFFFFFFF AND SWAP1 POP DUP2 PUSH1 0x8 PUSH1 0x0 PUSH2 0x100 EXP DUP2 SLOAD DUP2 PUSH20 0xFFFFFFFFFFFFFFFFFFFFFFFFFFFFFFFFFFFFFFFF MUL NOT AND SWAP1 DUP4 PUSH20 0xFFFFFFFFFFFFFFFFFFFFFFFFFFFFFFFFFFFFFFFF AND MUL OR SWAP1 SSTORE POP DUP2 PUSH20 0xFFFFFFFFFFFFFFFFFFFFFFFFFFFFFFFFFFFFFFFF AND DUP2 PUSH20 0xFFFFFFFFFFFFFFFFFFFFFFFFFFFFFFFFFFFFFFFF AND PUSH32 0x8BE0079C531659141344CD1FD0A4F28419497F9722A3DAAFE3B4186F6B6457E0 PUSH1 0x40 MLOAD PUSH1 0x40 MLOAD DUP1 SWAP2 SUB SWAP1 LOG3 POP POP JUMP JUMPDEST PUSH1 0x0 DUP2 MLOAD SWAP1 POP SWAP2 SWAP1 POP JUMP JUMPDEST PUSH32 0x4E487B7100000000000000000000000000000000000000000000000000000000 PUSH1 0x0 MSTORE PUSH1 0x41 PUSH1 0x4 MSTORE PUSH1 0x24 PUSH1 0x0 REVERT JUMPDEST PUSH32 0x4E487B7100000000000000000000000000000000000000000000000000000000 PUSH1 0x0 MSTORE PUSH1 0x22 PUSH1 0x4 MSTORE PUSH1 0x24 PUSH1 0x0 REVERT JUMPDEST PUSH1 0x0 PUSH1 0x2 DUP3 DIV SWAP1 POP PUSH1 0x1 DUP3 AND DUP1 PUSH3 0x239 JUMPI PUSH1 0x7F DUP3 AND SWAP2 POP JUMPDEST PUSH1 0x20 DUP3 LT DUP2 SUB PUSH3 0x24F JUMPI PUSH3 0x24E PUSH3 0x1F1 JUMP JUMPDEST JUMPDEST POP SWAP2 SWAP1 POP JUMP JUMPDEST PUSH1 0x0 DUP2 SWAP1 POP DUP2 PUSH1 0x0 MSTORE PUSH1 0x20 PUSH1 0x0 KECCAK256 SWAP1 POP SWAP2 SWAP1 POP JUMP JUMPDEST PUSH1 0x0 PUSH1 0x20 PUSH1 0x1F DUP4 ADD DIV SWAP1 POP SWAP2 SWAP1 POP JUMP JUMPDEST PUSH1 0x0 DUP3 DUP3 SHL SWAP1 POP SWAP3 SWAP2 POP POP JUMP JUMPDEST PUSH1 0x0 PUSH1 0x8 DUP4 MUL PUSH3 0x2B9 PUSH32 0xFFFFFFFFFFFFFFFFFFFFFFFFFFFFFFFFFFFFFFFFFFFFFFFFFFFFFFFFFFFFFFFF DUP3 PUSH3 0x27A JUMP JUMPDEST PUSH3 0x2C5 DUP7 DUP4 PUSH3 0x27A JUMP JUMPDEST SWAP6 POP DUP1 NOT DUP5 AND SWAP4 POP DUP1 DUP7 AND DUP5 OR SWAP3 POP POP POP SWAP4 SWAP3 POP POP POP JUMP JUMPDEST PUSH1 0x0 DUP2 SWAP1 POP SWAP2 SWAP1 POP JUMP JUMPDEST PUSH1 0x0 DUP2 SWAP1 POP SWAP2 SWAP1 POP JUMP JUMPDEST PUSH1 0x0 PUSH3 0x312 PUSH3 0x30C PUSH3 0x306 DUP5 PUSH3 0x2DD JUMP JUMPDEST PUSH3 0x2E7 JUMP JUMPDEST PUSH3 0x2DD JUMP JUMPDEST SWAP1 POP SWAP2 SWAP1 POP JUMP JUMPDEST PUSH1 0x0 DUP2 SWAP1 POP SWAP2 SWAP1 POP JUMP JUMPDEST PUSH3 0x32E DUP4 PUSH3 0x2F1 JUMP JUMPDEST PUSH3 0x346 PUSH3 0x33D DUP3 PUSH3 0x319 JUMP JUMPDEST DUP5 DUP5 SLOAD PUSH3 0x287 JUMP JUMPDEST DUP3 SSTORE POP POP POP POP JUMP JUMPDEST PUSH1 0x0 SWAP1 JUMP JUMPDEST PUSH3 0x35D PUSH3 0x34E JUMP JUMPDEST PUSH3 0x36A DUP2 DUP5 DUP5 PUSH3 0x323 JUMP JUMPDEST POP POP POP JUMP JUMPDEST JUMPDEST DUP2 DUP2 LT ISZERO PUSH3 0x392 JUMPI PUSH3 0x386 PUSH1 0x0 DUP3 PUSH3 0x353 JUMP JUMPDEST PUSH1 0x1 DUP2 ADD SWAP1 POP PUSH3 0x370 JUMP JUMPDEST POP POP JUMP JUMPDEST PUSH1 0x1F DUP3 GT ISZERO PUSH3 0x3E1 JUMPI PUSH3 0x3AB DUP2 PUSH3 0x255 JUMP JUMPDEST PUSH3 0x3B6 DUP5 PUSH3 0x26A JUMP JUMPDEST DUP2 ADD PUSH1 0x20 DUP6 LT ISZERO PUSH3 0x3C6 JUMPI DUP2 SWAP1 POP JUMPDEST PUSH3 0x3DE PUSH3 0x3D5 DUP6 PUSH3 0x26A JUMP JUMPDEST DUP4 ADD DUP3 PUSH3 0x36F JUMP JUMPDEST POP POP JUMPDEST POP POP POP JUMP JUMPDEST PUSH1 0x0 DUP3 DUP3 SHR SWAP1 POP SWAP3 SWAP2 POP POP JUMP JUMPDEST PUSH1 0x0 PUSH3 0x406 PUSH1 0x0 NOT DUP5 PUSH1 0x8 MUL PUSH3 0x3E6 JUMP JUMPDEST NOT DUP1 DUP4 AND SWAP2 POP POP SWAP3 SWAP2 POP POP JUMP JUMPDEST PUSH1 0x0 PUSH3 0x421 DUP4 DUP4 PUSH3 0x3F3 JUMP JUMPDEST SWAP2 POP DUP3 PUSH1 0x2 MUL DUP3 OR SWAP1 POP SWAP3 SWAP2 POP POP JUMP JUMPDEST PUSH3 0x43C DUP3 PUSH3 0x1B7 JUMP JUMPDEST PUSH8 0xFFFFFFFFFFFFFFFF DUP2 GT ISZERO PUSH3 0x458 JUMPI PUSH3 0x457 PUSH3 0x1C2 JUMP JUMPDEST JUMPDEST PUSH3 0x464 DUP3 SLOAD PUSH3 0x220 JUMP JUMPDEST PUSH3 0x471 DUP3 DUP3 DUP6 PUSH3 0x396 JUMP JUMPDEST PUSH1 0x0 PUSH1 0x20 SWAP1 POP PUSH1 0x1F DUP4 GT PUSH1 0x1 DUP2 EQ PUSH3 0x4A9 JUMPI PUSH1 0x0 DUP5 ISZERO PUSH3 0x494 JUMPI DUP3 DUP8 ADD MLOAD SWAP1 POP JUMPDEST PUSH3 0x4A0 DUP6 DUP3 PUSH3 0x413 JUMP JUMPDEST DUP7 SSTORE POP PUSH3 0x510 JUMP JUMPDEST PUSH1 0x1F NOT DUP5 AND PUSH3 0x4B9 DUP7 PUSH3 0x255 JUMP JUMPDEST PUSH1 0x0 JUMPDEST DUP3 DUP2 LT ISZERO PUSH3 0x4E3 JUMPI DUP5 DUP10 ADD MLOAD DUP3 SSTORE PUSH1 0x1 DUP3 ADD SWAP2 POP PUSH1 0x20 DUP6 ADD SWAP5 POP PUSH1 0x20 DUP2 ADD SWAP1 POP PUSH3 0x4BC JUMP JUMPDEST DUP7 DUP4 LT ISZERO PUSH3 0x503 JUMPI DUP5 DUP10 ADD MLOAD PUSH3 0x4FF PUSH1 0x1F DUP10 AND DUP3 PUSH3 0x3F3 JUMP JUMPDEST DUP4 SSTORE POP JUMPDEST PUSH1 0x1 PUSH1 0x2 DUP9 MUL ADD DUP9 SSTORE POP POP POP JUMPDEST POP POP POP POP POP POP JUMP JUMPDEST PUSH2 0x42C3 DUP1 PUSH3 0x528 PUSH1 0x0 CODECOPY PUSH1 0x0 RETURN INVALID PUSH1 0x80 PUSH1 0x40 MSTORE PUSH1 0x4 CALLDATASIZE LT PUSH2 0x12A JUMPI PUSH1 0x0 CALLDATALOAD PUSH1 0xE0 SHR DUP1 PUSH4 0x6352211E GT PUSH2 0xAB JUMPI DUP1 PUSH4 0xA22CB465 GT PUSH2 0x6F JUMPI DUP1 PUSH4 0xA22CB465 EQ PUSH2 0x3A3 JUMPI DUP1 PUSH4 0xB88D4FDE EQ PUSH2 0x3CC JUMPI DUP1 PUSH4 0xC0074D68 EQ PUSH2 0x3E8 JUMPI DUP1 PUSH4 0xC87B56DD EQ PUSH2 0x425 JUMPI DUP1 PUSH4 0xE985E9C5 EQ PUSH2 0x462 JUMPI DUP1 PUSH4 0xF2FDE38B EQ PUSH2 0x49F JUMPI PUSH2 0x12A JUMP JUMPDEST DUP1 PUSH4 0x6352211E EQ PUSH2 0x2BC JUMPI DUP1 PUSH4 0x70A08231 EQ PUSH2 0x2F9 JUMPI DUP1 PUSH4 0x715018A6 EQ PUSH2 0x336 JUMPI DUP1 PUSH4 0x8DA5CB5B EQ PUSH2 0x34D JUMPI DUP1 PUSH4 0x95D89B41 EQ PUSH2 0x378 JUMPI PUSH2 0x12A JUMP JUMPDEST DUP1 PUSH4 0x18160DDD GT PUSH2 0xF2 JUMPI DUP1 PUSH4 0x18160DDD EQ PUSH2 0x219 JUMPI DUP1 PUSH4 0x23B872DD EQ PUSH2 0x244 JUMPI DUP1 PUSH4 0x3CCFD60B EQ PUSH2 0x260 JUMPI DUP1 PUSH4 0x42842E0E EQ PUSH2 0x277 JUMPI DUP1 PUSH4 0x433F7B8B EQ PUSH2 0x293 JUMPI PUSH2 0x12A JUMP JUMPDEST DUP1 PUSH4 0x1FFC9A7 EQ PUSH2 0x12F JUMPI DUP1 PUSH4 0x6FDDE03 EQ PUSH2 0x16C JUMPI DUP1 PUSH4 0x81812FC EQ PUSH2 0x197 JUMPI DUP1 PUSH4 0x95EA7B3 EQ PUSH2 0x1D4 JUMPI DUP1 PUSH4 0x10B4B038 EQ PUSH2 0x1F0 JUMPI JUMPDEST PUSH1 0x0 DUP1 REVERT JUMPDEST CALLVALUE DUP1 ISZERO PUSH2 0x13B JUMPI PUSH1 0x0 DUP1 REVERT JUMPDEST POP PUSH2 0x156 PUSH1 0x4 DUP1 CALLDATASIZE SUB DUP2 ADD SWAP1 PUSH2 0x151 SWAP2 SWAP1 PUSH2 0x2027 JUMP JUMPDEST PUSH2 0x4C8 JUMP JUMPDEST PUSH1 0x40 MLOAD PUSH2 0x163 SWAP2 SWAP1 PUSH2 0x206F JUMP JUMPDEST PUSH1 0x40 MLOAD DUP1 SWAP2 SUB SWAP1 RETURN JUMPDEST CALLVALUE DUP1 ISZERO PUSH2 0x178 JUMPI PUSH1 0x0 DUP1 REVERT JUMPDEST POP PUSH2 0x181 PUSH2 0x55A JUMP JUMPDEST PUSH1 0x40 MLOAD PUSH2 0x18E SWAP2 SWAP1 PUSH2 0x211A JUMP JUMPDEST PUSH1 0x40 MLOAD DUP1 SWAP2 SUB SWAP1 RETURN JUMPDEST CALLVALUE DUP1 ISZERO PUSH2 0x1A3 JUMPI PUSH1 0x0 DUP1 REVERT JUMPDEST POP PUSH2 0x1BE PUSH1 0x4 DUP1 CALLDATASIZE SUB DUP2 ADD SWAP1 PUSH2 0x1B9 SWAP2 SWAP1 PUSH2 0x2172 JUMP JUMPDEST PUSH2 0x5EC JUMP JUMPDEST PUSH1 0x40 MLOAD PUSH2 0x1CB SWAP2 SWAP1 PUSH2 0x21E0 JUMP JUMPDEST PUSH1 0x40 MLOAD DUP1 SWAP2 SUB SWAP1 RETURN JUMPDEST PUSH2 0x1EE PUSH1 0x4 DUP1 CALLDATASIZE SUB DUP2 ADD SWAP1 PUSH2 0x1E9 SWAP2 SWAP1 PUSH2 0x2227 JUMP JUMPDEST PUSH2 0x66B JUMP JUMPDEST STOP JUMPDEST CALLVALUE DUP1 ISZERO PUSH2 0x1FC JUMPI PUSH1 0x0 DUP1 REVERT JUMPDEST POP PUSH2 0x217 PUSH1 0x4 DUP1 CALLDATASIZE SUB DUP2 ADD SWAP1 PUSH2 0x212 SWAP2 SWAP1 PUSH2 0x239C JUMP JUMPDEST PUSH2 0x7AF JUMP JUMPDEST STOP JUMPDEST CALLVALUE DUP1 ISZERO PUSH2 0x225 JUMPI PUSH1 0x0 DUP1 REVERT JUMPDEST POP PUSH2 0x22E PUSH2 0x930 JUMP JUMPDEST PUSH1 0x40 MLOAD PUSH2 0x23B SWAP2 SWAP1 PUSH2 0x2454 JUMP JUMPDEST PUSH1 0x40 MLOAD DUP1 SWAP2 SUB SWAP1 RETURN JUMPDEST PUSH2 0x25E PUSH1 0x4 DUP1 CALLDATASIZE SUB DUP2 ADD SWAP1 PUSH2 0x259 SWAP2 SWAP1 PUSH2 0x246F JUMP JUMPDEST PUSH2 0x947 JUMP JUMPDEST STOP JUMPDEST CALLVALUE DUP1 ISZERO PUSH2 0x26C JUMPI PUSH1 0x0 DUP1 REVERT JUMPDEST POP PUSH2 0x275 PUSH2 0xC69 JUMP JUMPDEST STOP JUMPDEST PUSH2 0x291 PUSH1 0x4 DUP1 CALLDATASIZE SUB DUP2 ADD SWAP1 PUSH2 0x28C SWAP2 SWAP1 PUSH2 0x246F JUMP JUMPDEST PUSH2 0xCB1 JUMP JUMPDEST STOP JUMPDEST CALLVALUE DUP1 ISZERO PUSH2 0x29F JUMPI PUSH1 0x0 DUP1 REVERT JUMPDEST POP PUSH2 0x2BA PUSH1 0x4 DUP1 CALLDATASIZE SUB DUP2 ADD SWAP1 PUSH2 0x2B5 SWAP2 SWAP1 PUSH2 0x24C2 JUMP JUMPDEST PUSH2 0xCD1 JUMP JUMPDEST STOP JUMPDEST CALLVALUE DUP1 ISZERO PUSH2 0x2C8 JUMPI PUSH1 0x0 DUP1 REVERT JUMPDEST POP PUSH2 0x2E3 PUSH1 0x4 DUP1 CALLDATASIZE SUB DUP2 ADD SWAP1 PUSH2 0x2DE SWAP2 SWAP1 PUSH2 0x2172 JUMP JUMPDEST PUSH2 0xD1D JUMP JUMPDEST PUSH1 0x40 MLOAD PUSH2 0x2F0 SWAP2 SWAP1 PUSH2 0x21E0 JUMP JUMPDEST PUSH1 0x40 MLOAD DUP1 SWAP2 SUB SWAP1 RETURN JUMPDEST CALLVALUE DUP1 ISZERO PUSH2 0x305 JUMPI PUSH1 0x0 DUP1 REVERT JUMPDEST POP PUSH2 0x320 PUSH1 0x4 DUP1 CALLDATASIZE SUB DUP2 ADD SWAP1 PUSH2 0x31B SWAP2 SWAP1 PUSH2 0x24C2 JUMP JUMPDEST PUSH2 0xD2F JUMP JUMPDEST PUSH1 0x40 MLOAD PUSH2 0x32D SWAP2 SWAP1 PUSH2 0x2454 JUMP JUMPDEST PUSH1 0x40 MLOAD DUP1 SWAP2 SUB SWAP1 RETURN JUMPDEST CALLVALUE DUP1 ISZERO PUSH2 0x342 JUMPI PUSH1 0x0 DUP1 REVERT JUMPDEST POP PUSH2 0x34B PUSH2 0xDE7 JUMP JUMPDEST STOP JUMPDEST CALLVALUE DUP1 ISZERO PUSH2 0x359 JUMPI PUSH1 0x0 DUP1 REVERT JUMPDEST POP PUSH2 0x362 PUSH2 0xDFB JUMP JUMPDEST PUSH1 0x40 MLOAD PUSH2 0x36F SWAP2 SWAP1 PUSH2 0x21E0 JUMP JUMPDEST PUSH1 0x40 MLOAD DUP1 SWAP2 SUB SWAP1 RETURN JUMPDEST CALLVALUE DUP1 ISZERO PUSH2 0x384 JUMPI PUSH1 0x0 DUP1 REVERT JUMPDEST POP PUSH2 0x38D PUSH2 0xE25 JUMP JUMPDEST PUSH1 0x40 MLOAD PUSH2 0x39A SWAP2 SWAP1 PUSH2 0x211A JUMP JUMPDEST PUSH1 0x40 MLOAD DUP1 SWAP2 SUB SWAP1 RETURN JUMPDEST CALLVALUE DUP1 ISZERO PUSH2 0x3AF JUMPI PUSH1 0x0 DUP1 REVERT JUMPDEST POP PUSH2 0x3CA PUSH1 0x4 DUP1 CALLDATASIZE SUB DUP2 ADD SWAP1 PUSH2 0x3C5 SWAP2 SWAP1 PUSH2 0x251B JUMP JUMPDEST PUSH2 0xEB7 JUMP JUMPDEST STOP JUMPDEST PUSH2 0x3E6 PUSH1 0x4 DUP1 CALLDATASIZE SUB DUP2 ADD SWAP1 PUSH2 0x3E1 SWAP2 SWAP1 PUSH2 0x25FC JUMP JUMPDEST PUSH2 0xFC2 JUMP JUMPDEST STOP JUMPDEST CALLVALUE DUP1 ISZERO PUSH2 0x3F4 JUMPI PUSH1 0x0 DUP1 REVERT JUMPDEST POP PUSH2 0x40F PUSH1 0x4 DUP1 CALLDATASIZE SUB DUP2 ADD SWAP1 PUSH2 0x40A SWAP2 SWAP1 PUSH2 0x2745 JUMP JUMPDEST PUSH2 0x1035 JUMP JUMPDEST PUSH1 0x40 MLOAD PUSH2 0x41C SWAP2 SWAP1 PUSH2 0x211A JUMP JUMPDEST PUSH1 0x40 MLOAD DUP1 SWAP2 SUB SWAP1 RETURN JUMPDEST CALLVALUE DUP1 ISZERO PUSH2 0x431 JUMPI PUSH1 0x0 DUP1 REVERT JUMPDEST POP PUSH2 0x44C PUSH1 0x4 DUP1 CALLDATASIZE SUB DUP2 ADD SWAP1 PUSH2 0x447 SWAP2 SWAP1 PUSH2 0x2172 JUMP JUMPDEST PUSH2 0x10AE JUMP JUMPDEST PUSH1 0x40 MLOAD PUSH2 0x459 SWAP2 SWAP1 PUSH2 0x211A JUMP JUMPDEST PUSH1 0x40 MLOAD DUP1 SWAP2 SUB SWAP1 RETURN JUMPDEST CALLVALUE DUP1 ISZERO PUSH2 0x46E JUMPI PUSH1 0x0 DUP1 REVERT JUMPDEST POP PUSH2 0x489 PUSH1 0x4 DUP1 CALLDATASIZE SUB DUP2 ADD SWAP1 PUSH2 0x484 SWAP2 SWAP1 PUSH2 0x278E JUMP JUMPDEST PUSH2 0x1308 JUMP JUMPDEST PUSH1 0x40 MLOAD PUSH2 0x496 SWAP2 SWAP1 PUSH2 0x206F JUMP JUMPDEST PUSH1 0x40 MLOAD DUP1 SWAP2 SUB SWAP1 RETURN JUMPDEST CALLVALUE DUP1 ISZERO PUSH2 0x4AB JUMPI PUSH1 0x0 DUP1 REVERT JUMPDEST POP PUSH2 0x4C6 PUSH1 0x4 DUP1 CALLDATASIZE SUB DUP2 ADD SWAP1 PUSH2 0x4C1 SWAP2 SWAP1 PUSH2 0x24C2 JUMP JUMPDEST PUSH2 0x139C JUMP JUMPDEST STOP JUMPDEST PUSH1 0x0 PUSH4 0x1FFC9A7 PUSH1 0xE0 SHL DUP3 PUSH28 0xFFFFFFFFFFFFFFFFFFFFFFFFFFFFFFFFFFFFFFFFFFFFFFFFFFFFFFFF NOT AND EQ DUP1 PUSH2 0x523 JUMPI POP PUSH4 0x80AC58CD PUSH1 0xE0 SHL DUP3 PUSH28 0xFFFFFFFFFFFFFFFFFFFFFFFFFFFFFFFFFFFFFFFFFFFFFFFFFFFFFFFF NOT AND EQ JUMPDEST DUP1 PUSH2 0x553 JUMPI POP PUSH4 0x5B5E139F PUSH1 0xE0 SHL DUP3 PUSH28 0xFFFFFFFFFFFFFFFFFFFFFFFFFFFFFFFFFFFFFFFFFFFFFFFFFFFFFFFF NOT AND EQ JUMPDEST SWAP1 POP SWAP2 SWAP1 POP JUMP JUMPDEST PUSH1 0x60 PUSH1 0x2 DUP1 SLOAD PUSH2 0x569 SWAP1 PUSH2 0x27FD JUMP JUMPDEST DUP1 PUSH1 0x1F ADD PUSH1 0x20 DUP1 SWAP2 DIV MUL PUSH1 0x20 ADD PUSH1 0x40 MLOAD SWAP1 DUP2 ADD PUSH1 0x40 MSTORE DUP1 SWAP3 SWAP2 SWAP1 DUP2 DUP2 MSTORE PUSH1 0x20 ADD DUP3 DUP1 SLOAD PUSH2 0x595 SWAP1 PUSH2 0x27FD JUMP JUMPDEST DUP1 ISZERO PUSH2 0x5E2 JUMPI DUP1 PUSH1 0x1F LT PUSH2 0x5B7 JUMPI PUSH2 0x100 DUP1 DUP4 SLOAD DIV MUL DUP4 MSTORE SWAP2 PUSH1 0x20 ADD SWAP2 PUSH2 0x5E2 JUMP JUMPDEST DUP3 ADD SWAP2 SWAP1 PUSH1 0x0 MSTORE PUSH1 0x20 PUSH1 0x0 KECCAK256 SWAP1 JUMPDEST DUP2 SLOAD DUP2 MSTORE SWAP1 PUSH1 0x1 ADD SWAP1 PUSH1 0x20 ADD DUP1 DUP4 GT PUSH2 0x5C5 JUMPI DUP3 SWAP1 SUB PUSH1 0x1F AND DUP3 ADD SWAP2 JUMPDEST POP POP POP POP POP SWAP1 POP SWAP1 JUMP JUMPDEST PUSH1 0x0 PUSH2 0x5F7 DUP3 PUSH2 0x141F JUMP JUMPDEST PUSH2 0x62D JUMPI PUSH1 0x40 MLOAD PUSH32 0xCF4700E400000000000000000000000000000000000000000000000000000000 DUP2 MSTORE PUSH1 0x4 ADD PUSH1 0x40 MLOAD DUP1 SWAP2 SUB SWAP1 REVERT JUMPDEST PUSH1 0x6 PUSH1 0x0 DUP4 DUP2 MSTORE PUSH1 0x20 ADD SWAP1 DUP2 MSTORE PUSH1 0x20 ADD PUSH1 0x0 KECCAK256 PUSH1 0x0 ADD PUSH1 0x0 SWAP1 SLOAD SWAP1 PUSH2 0x100 EXP SWAP1 DIV PUSH20 0xFFFFFFFFFFFFFFFFFFFFFFFFFFFFFFFFFFFFFFFF AND SWAP1 POP SWAP2 SWAP1 POP JUMP JUMPDEST PUSH1 0x0 PUSH2 0x676 DUP3 PUSH2 0xD1D JUMP JUMPDEST SWAP1 POP DUP1 PUSH20 0xFFFFFFFFFFFFFFFFFFFFFFFFFFFFFFFFFFFFFFFF AND PUSH2 0x697 PUSH2 0x147E JUMP JUMPDEST PUSH20 0xFFFFFFFFFFFFFFFFFFFFFFFFFFFFFFFFFFFFFFFF AND EQ PUSH2 0x6FA JUMPI PUSH2 0x6C3 DUP2 PUSH2 0x6BE PUSH2 0x147E JUMP JUMPDEST PUSH2 0x1308 JUMP JUMPDEST PUSH2 0x6F9 JUMPI PUSH1 0x40 MLOAD PUSH32 0xCFB3B94200000000000000000000000000000000000000000000000000000000 DUP2 MSTORE PUSH1 0x4 ADD PUSH1 0x40 MLOAD DUP1 SWAP2 SUB SWAP1 REVERT JUMPDEST JUMPDEST DUP3 PUSH1 0x6 PUSH1 0x0 DUP5 DUP2 MSTORE PUSH1 0x20 ADD SWAP1 DUP2 MSTORE PUSH1 0x20 ADD PUSH1 0x0 KECCAK256 PUSH1 0x0 ADD PUSH1 0x0 PUSH2 0x100 EXP DUP2 SLOAD DUP2 PUSH20 0xFFFFFFFFFFFFFFFFFFFFFFFFFFFFFFFFFFFFFFFF MUL NOT AND SWAP1 DUP4 PUSH20 0xFFFFFFFFFFFFFFFFFFFFFFFFFFFFFFFFFFFFFFFF AND MUL OR SWAP1 SSTORE POP DUP2 DUP4 PUSH20 0xFFFFFFFFFFFFFFFFFFFFFFFFFFFFFFFFFFFFFFFF AND DUP3 PUSH20 0xFFFFFFFFFFFFFFFFFFFFFFFFFFFFFFFFFFFFFFFF AND PUSH32 0x8C5BE1E5EBEC7D5BD14F71427D1E84F3DD0314C0F7B2291E5B200AC8C7C3B925 PUSH1 0x40 MLOAD PUSH1 0x40 MLOAD DUP1 SWAP2 SUB SWAP1 LOG4 POP POP POP JUMP JUMPDEST PUSH1 0xA PUSH1 0x0 SWAP1 SLOAD SWAP1 PUSH2 0x100 EXP SWAP1 DIV PUSH20 0xFFFFFFFFFFFFFFFFFFFFFFFFFFFFFFFFFFFFFFFF AND PUSH20 0xFFFFFFFFFFFFFFFFFFFFFFFFFFFFFFFFFFFFFFFF AND CALLER PUSH20 0xFFFFFFFFFFFFFFFFFFFFFFFFFFFFFFFFFFFFFFFF AND EQ PUSH2 0x83F JUMPI PUSH1 0x40 MLOAD PUSH32 0x8C379A000000000000000000000000000000000000000000000000000000000 DUP2 MSTORE PUSH1 0x4 ADD PUSH2 0x836 SWAP1 PUSH2 0x287A JUMP JUMPDEST PUSH1 0x40 MLOAD DUP1 SWAP2 SUB SWAP1 REVERT JUMPDEST PUSH1 0x40 MLOAD DUP1 PUSH1 0xC0 ADD PUSH1 0x40 MSTORE DUP1 DUP8 DUP2 MSTORE PUSH1 0x20 ADD DUP7 DUP2 MSTORE PUSH1 0x20 ADD DUP6 DUP2 MSTORE PUSH1 0x20 ADD DUP5 PUSH20 0xFFFFFFFFFFFFFFFFFFFFFFFFFFFFFFFFFFFFFFFF AND DUP2 MSTORE PUSH1 0x20 ADD DUP4 DUP2 MSTORE PUSH1 0x20 ADD DUP3 DUP2 MSTORE POP PUSH1 0x9 PUSH1 0x0 DUP9 DUP2 MSTORE PUSH1 0x20 ADD SWAP1 DUP2 MSTORE PUSH1 0x20 ADD PUSH1 0x0 KECCAK256 PUSH1 0x0 DUP3 ADD MLOAD DUP2 PUSH1 0x0 ADD SSTORE PUSH1 0x20 DUP3 ADD MLOAD DUP2 PUSH1 0x1 ADD SSTORE PUSH1 0x40 DUP3 ADD MLOAD DUP2 PUSH1 0x2 ADD SWAP1 DUP2 PUSH2 0x8BE SWAP2 SWAP1 PUSH2 0x2A46 JUMP JUMPDEST POP PUSH1 0x60 DUP3 ADD MLOAD DUP2 PUSH1 0x3 ADD PUSH1 0x0 PUSH2 0x100 EXP DUP2 SLOAD DUP2 PUSH20 0xFFFFFFFFFFFFFFFFFFFFFFFFFFFFFFFFFFFFFFFF MUL NOT AND SWAP1 DUP4 PUSH20 0xFFFFFFFFFFFFFFFFFFFFFFFFFFFFFFFFFFFFFFFF AND MUL OR SWAP1 SSTORE POP PUSH1 0x80 DUP3 ADD MLOAD DUP2 PUSH1 0x4 ADD SSTORE PUSH1 0xA0 DUP3 ADD MLOAD DUP2 PUSH1 0x5 ADD SSTORE SWAP1 POP POP PUSH2 0x928 DUP4 PUSH1 0x1 PUSH2 0x1486 JUMP JUMPDEST POP POP POP POP POP POP JUMP JUMPDEST PUSH1 0x0 PUSH2 0x93A PUSH2 0x1641 JUMP JUMPDEST PUSH1 0x1 SLOAD PUSH1 0x0 SLOAD SUB SUB SWAP1 POP SWAP1 JUMP JUMPDEST PUSH1 0x0 PUSH2 0x952 DUP3 PUSH2 0x164A JUMP JUMPDEST SWAP1 POP DUP4 PUSH20 0xFFFFFFFFFFFFFFFFFFFFFFFFFFFFFFFFFFFFFFFF AND DUP2 PUSH20 0xFFFFFFFFFFFFFFFFFFFFFFFFFFFFFFFFFFFFFFFF AND EQ PUSH2 0x9B9 JUMPI PUSH1 0x40 MLOAD PUSH32 0xA114810000000000000000000000000000000000000000000000000000000000 DUP2 MSTORE PUSH1 0x4 ADD PUSH1 0x40 MLOAD DUP1 SWAP2 SUB SWAP1 REVERT JUMPDEST PUSH1 0x0 DUP1 PUSH2 0x9C5 DUP5 PUSH2 0x1716 JUMP JUMPDEST SWAP2 POP SWAP2 POP PUSH2 0x9DB DUP2 DUP8 PUSH2 0x9D6 PUSH2 0x147E JUMP JUMPDEST PUSH2 0x173D JUMP JUMPDEST PUSH2 0xA27 JUMPI PUSH2 0x9F0 DUP7 PUSH2 0x9EB PUSH2 0x147E JUMP JUMPDEST PUSH2 0x1308 JUMP JUMPDEST PUSH2 0xA26 JUMPI PUSH1 0x40 MLOAD PUSH32 0x59C896BE00000000000000000000000000000000000000000000000000000000 DUP2 MSTORE PUSH1 0x4 ADD PUSH1 0x40 MLOAD DUP1 SWAP2 SUB SWAP1 REVERT JUMPDEST JUMPDEST PUSH1 0x0 PUSH20 0xFFFFFFFFFFFFFFFFFFFFFFFFFFFFFFFFFFFFFFFF AND DUP6 PUSH20 0xFFFFFFFFFFFFFFFFFFFFFFFFFFFFFFFFFFFFFFFF AND SUB PUSH2 0xA8D JUMPI PUSH1 0x40 MLOAD PUSH32 0xEA553B3400000000000000000000000000000000000000000000000000000000 DUP2 MSTORE PUSH1 0x4 ADD PUSH1 0x40 MLOAD DUP1 SWAP2 SUB SWAP1 REVERT JUMPDEST PUSH2 0xA9A DUP7 DUP7 DUP7 PUSH1 0x1 PUSH2 0x1781 JUMP JUMPDEST DUP1 ISZERO PUSH2 0xAA5 JUMPI PUSH1 0x0 DUP3 SSTORE JUMPDEST PUSH1 0x5 PUSH1 0x0 DUP8 PUSH20 0xFFFFFFFFFFFFFFFFFFFFFFFFFFFFFFFFFFFFFFFF AND PUSH20 0xFFFFFFFFFFFFFFFFFFFFFFFFFFFFFFFFFFFFFFFF AND DUP2 MSTORE PUSH1 0x20 ADD SWAP1 DUP2 MSTORE PUSH1 0x20 ADD PUSH1 0x0 KECCAK256 PUSH1 0x0 DUP2 SLOAD PUSH1 0x1 SWAP1 SUB SWAP2 SWAP1 POP DUP2 SWAP1 SSTORE POP PUSH1 0x5 PUSH1 0x0 DUP7 PUSH20 0xFFFFFFFFFFFFFFFFFFFFFFFFFFFFFFFFFFFFFFFF AND PUSH20 0xFFFFFFFFFFFFFFFFFFFFFFFFFFFFFFFFFFFFFFFF AND DUP2 MSTORE PUSH1 0x20 ADD SWAP1 DUP2 MSTORE PUSH1 0x20 ADD PUSH1 0x0 KECCAK256 PUSH1 0x0 DUP2 SLOAD PUSH1 0x1 ADD SWAP2 SWAP1 POP DUP2 SWAP1 SSTORE POP PUSH2 0xB73 DUP6 PUSH2 0xB4F DUP9 DUP9 DUP8 PUSH2 0x1787 JUMP JUMPDEST PUSH29 0x200000000000000000000000000000000000000000000000000000000 OR PUSH2 0x17AF JUMP JUMPDEST PUSH1 0x4 PUSH1 0x0 DUP7 DUP2 MSTORE PUSH1 0x20 ADD SWAP1 DUP2 MSTORE PUSH1 0x20 ADD PUSH1 0x0 KECCAK256 DUP2 SWAP1 SSTORE POP PUSH1 0x0 PUSH29 0x200000000000000000000000000000000000000000000000000000000 DUP5 AND SUB PUSH2 0xBF9 JUMPI PUSH1 0x0 PUSH1 0x1 DUP6 ADD SWAP1 POP PUSH1 0x0 PUSH1 0x4 PUSH1 0x0 DUP4 DUP2 MSTORE PUSH1 0x20 ADD SWAP1 DUP2 MSTORE PUSH1 0x20 ADD PUSH1 0x0 KECCAK256 SLOAD SUB PUSH2 0xBF7 JUMPI PUSH1 0x0 SLOAD DUP2 EQ PUSH2 0xBF6 JUMPI DUP4 PUSH1 0x4 PUSH1 0x0 DUP4 DUP2 MSTORE PUSH1 0x20 ADD SWAP1 DUP2 MSTORE PUSH1 0x20 ADD PUSH1 0x0 KECCAK256 DUP2 SWAP1 SSTORE POP JUMPDEST JUMPDEST POP JUMPDEST DUP4 DUP6 PUSH20 0xFFFFFFFFFFFFFFFFFFFFFFFFFFFFFFFFFFFFFFFF AND DUP8 PUSH20 0xFFFFFFFFFFFFFFFFFFFFFFFFFFFFFFFFFFFFFFFF AND PUSH32 0xDDF252AD1BE2C89B69C2B068FC378DAA952BA7F163C4A11628F55A4DF523B3EF PUSH1 0x40 MLOAD PUSH1 0x40 MLOAD DUP1 SWAP2 SUB SWAP1 LOG4 PUSH2 0xC61 DUP7 DUP7 DUP7 PUSH1 0x1 PUSH2 0x17DA JUMP JUMPDEST POP POP POP POP POP POP JUMP JUMPDEST PUSH2 0xC71 PUSH2 0x17E0 JUMP JUMPDEST CALLER PUSH20 0xFFFFFFFFFFFFFFFFFFFFFFFFFFFFFFFFFFFFFFFF AND PUSH2 0x8FC SELFBALANCE SWAP1 DUP2 ISZERO MUL SWAP1 PUSH1 0x40 MLOAD PUSH1 0x0 PUSH1 0x40 MLOAD DUP1 DUP4 SUB DUP2 DUP6 DUP9 DUP9 CALL SWAP4 POP POP POP POP PUSH2 0xCAF JUMPI PUSH1 0x0 DUP1 REVERT JUMPDEST JUMP JUMPDEST PUSH2 0xCCC DUP4 DUP4 DUP4 PUSH1 0x40 MLOAD DUP1 PUSH1 0x20 ADD PUSH1 0x40 MSTORE DUP1 PUSH1 0x0 DUP2 MSTORE POP PUSH2 0xFC2 JUMP JUMPDEST POP POP POP JUMP JUMPDEST PUSH2 0xCD9 PUSH2 0x17E0 JUMP JUMPDEST DUP1 PUSH1 0xA PUSH1 0x0 PUSH2 0x100 EXP DUP2 SLOAD DUP2 PUSH20 0xFFFFFFFFFFFFFFFFFFFFFFFFFFFFFFFFFFFFFFFF MUL NOT AND SWAP1 DUP4 PUSH20 0xFFFFFFFFFFFFFFFFFFFFFFFFFFFFFFFFFFFFFFFF AND MUL OR SWAP1 SSTORE POP POP JUMP JUMPDEST PUSH1 0x0 PUSH2 0xD28 DUP3 PUSH2 0x164A JUMP JUMPDEST SWAP1 POP SWAP2 SWAP1 POP JUMP JUMPDEST PUSH1 0x0 DUP1 PUSH20 0xFFFFFFFFFFFFFFFFFFFFFFFFFFFFFFFFFFFFFFFF AND DUP3 PUSH20 0xFFFFFFFFFFFFFFFFFFFFFFFFFFFFFFFFFFFFFFFF AND SUB PUSH2 0xD96 JUMPI PUSH1 0x40 MLOAD PUSH32 0x8F4EB60400000000000000000000000000000000000000000000000000000000 DUP2 MSTORE PUSH1 0x4 ADD PUSH1 0x40 MLOAD DUP1 SWAP2 SUB SWAP1 REVERT JUMPDEST PUSH8 0xFFFFFFFFFFFFFFFF PUSH1 0x5 PUSH1 0x0 DUP5 PUSH20 0xFFFFFFFFFFFFFFFFFFFFFFFFFFFFFFFFFFFFFFFF AND PUSH20 0xFFFFFFFFFFFFFFFFFFFFFFFFFFFFFFFFFFFFFFFF AND DUP2 MSTORE PUSH1 0x20 ADD SWAP1 DUP2 MSTORE PUSH1 0x20 ADD PUSH1 0x0 KECCAK256 SLOAD AND SWAP1 POP SWAP2 SWAP1 POP JUMP JUMPDEST PUSH2 0xDEF PUSH2 0x17E0 JUMP JUMPDEST PUSH2 0xDF9 PUSH1 0x0 PUSH2 0x185E JUMP JUMPDEST JUMP JUMPDEST PUSH1 0x0 PUSH1 0x8 PUSH1 0x0 SWAP1 SLOAD SWAP1 PUSH2 0x100 EXP SWAP1 DIV PUSH20 0xFFFFFFFFFFFFFFFFFFFFFFFFFFFFFFFFFFFFFFFF AND SWAP1 POP SWAP1 JUMP JUMPDEST PUSH1 0x60 PUSH1 0x3 DUP1 SLOAD PUSH2 0xE34 SWAP1 PUSH2 0x27FD JUMP JUMPDEST DUP1 PUSH1 0x1F ADD PUSH1 0x20 DUP1 SWAP2 DIV MUL PUSH1 0x20 ADD PUSH1 0x40 MLOAD SWAP1 DUP2 ADD PUSH1 0x40 MSTORE DUP1 SWAP3 SWAP2 SWAP1 DUP2 DUP2 MSTORE PUSH1 0x20 ADD DUP3 DUP1 SLOAD PUSH2 0xE60 SWAP1 PUSH2 0x27FD JUMP JUMPDEST DUP1 ISZERO PUSH2 0xEAD JUMPI DUP1 PUSH1 0x1F LT PUSH2 0xE82 JUMPI PUSH2 0x100 DUP1 DUP4 SLOAD DIV MUL DUP4 MSTORE SWAP2 PUSH1 0x20 ADD SWAP2 PUSH2 0xEAD JUMP JUMPDEST DUP3 ADD SWAP2 SWAP1 PUSH1 0x0 MSTORE PUSH1 0x20 PUSH1 0x0 KECCAK256 SWAP1 JUMPDEST DUP2 SLOAD DUP2 MSTORE SWAP1 PUSH1 0x1 ADD SWAP1 PUSH1 0x20 ADD DUP1 DUP4 GT PUSH2 0xE90 JUMPI DUP3 SWAP1 SUB PUSH1 0x1F AND DUP3 ADD SWAP2 JUMPDEST POP POP POP POP POP SWAP1 POP SWAP1 JUMP JUMPDEST DUP1 PUSH1 0x7 PUSH1 0x0 PUSH2 0xEC4 PUSH2 0x147E JUMP JUMPDEST PUSH20 0xFFFFFFFFFFFFFFFFFFFFFFFFFFFFFFFFFFFFFFFF AND PUSH20 0xFFFFFFFFFFFFFFFFFFFFFFFFFFFFFFFFFFFFFFFF AND DUP2 MSTORE PUSH1 0x20 ADD SWAP1 DUP2 MSTORE PUSH1 0x20 ADD PUSH1 0x0 KECCAK256 PUSH1 0x0 DUP5 PUSH20 0xFFFFFFFFFFFFFFFFFFFFFFFFFFFFFFFFFFFFFFFF AND PUSH20 0xFFFFFFFFFFFFFFFFFFFFFFFFFFFFFFFFFFFFFFFF AND DUP2 MSTORE PUSH1 0x20 ADD SWAP1 DUP2 MSTORE PUSH1 0x20 ADD PUSH1 0x0 KECCAK256 PUSH1 0x0 PUSH2 0x100 EXP DUP2 SLOAD DUP2 PUSH1 0xFF MUL NOT AND SWAP1 DUP4 ISZERO ISZERO MUL OR SWAP1 SSTORE POP DUP2 PUSH20 0xFFFFFFFFFFFFFFFFFFFFFFFFFFFFFFFFFFFFFFFF AND PUSH2 0xF71 PUSH2 0x147E JUMP JUMPDEST PUSH20 0xFFFFFFFFFFFFFFFFFFFFFFFFFFFFFFFFFFFFFFFF AND PUSH32 0x17307EAB39AB6107E8899845AD3D59BD9653F200F220920489CA2B5937696C31 DUP4 PUSH1 0x40 MLOAD PUSH2 0xFB6 SWAP2 SWAP1 PUSH2 0x206F JUMP JUMPDEST PUSH1 0x40 MLOAD DUP1 SWAP2 SUB SWAP1 LOG3 POP POP JUMP JUMPDEST PUSH2 0xFCD DUP5 DUP5 DUP5 PUSH2 0x947 JUMP JUMPDEST PUSH1 0x0 DUP4 PUSH20 0xFFFFFFFFFFFFFFFFFFFFFFFFFFFFFFFFFFFFFFFF AND EXTCODESIZE EQ PUSH2 0x102F JUMPI PUSH2 0xFF8 DUP5 DUP5 DUP5 DUP5 PUSH2 0x1924 JUMP JUMPDEST PUSH2 0x102E JUMPI PUSH1 0x40 MLOAD PUSH32 0xD1A57ED600000000000000000000000000000000000000000000000000000000 DUP2 MSTORE PUSH1 0x4 ADD PUSH1 0x40 MLOAD DUP1 SWAP2 SUB SWAP1 REVERT JUMPDEST JUMPDEST POP POP POP POP JUMP JUMPDEST PUSH1 0x60 PUSH2 0x1044 DUP3 PUSH1 0x0 ADD MLOAD PUSH2 0x1A74 JUMP JUMPDEST PUSH2 0x1051 DUP4 PUSH1 0x20 ADD MLOAD PUSH2 0x1A74 JUMP JUMPDEST DUP4 PUSH1 0x40 ADD MLOAD PUSH2 0x1063 DUP6 PUSH1 0x60 ADD MLOAD PUSH2 0x1AC4 JUMP JUMPDEST PUSH2 0x1070 DUP7 PUSH1 0x80 ADD MLOAD PUSH2 0x1A74 JUMP JUMPDEST PUSH2 0x107D DUP8 PUSH1 0xA0 ADD MLOAD PUSH2 0x1A74 JUMP JUMPDEST DUP8 PUSH1 0x40 ADD MLOAD PUSH1 0x40 MLOAD PUSH1 0x20 ADD PUSH2 0x1098 SWAP8 SWAP7 SWAP6 SWAP5 SWAP4 SWAP3 SWAP2 SWAP1 PUSH2 0x34E9 JUMP JUMPDEST PUSH1 0x40 MLOAD PUSH1 0x20 DUP2 DUP4 SUB SUB DUP2 MSTORE SWAP1 PUSH1 0x40 MSTORE SWAP1 POP SWAP2 SWAP1 POP JUMP JUMPDEST PUSH1 0x60 PUSH1 0x0 PUSH2 0x11E8 PUSH1 0x9 PUSH1 0x0 DUP6 DUP2 MSTORE PUSH1 0x20 ADD SWAP1 DUP2 MSTORE PUSH1 0x20 ADD PUSH1 0x0 KECCAK256 PUSH1 0x40 MLOAD DUP1 PUSH1 0xC0 ADD PUSH1 0x40 MSTORE SWAP1 DUP2 PUSH1 0x0 DUP3 ADD SLOAD DUP2 MSTORE PUSH1 0x20 ADD PUSH1 0x1 DUP3 ADD SLOAD DUP2 MSTORE PUSH1 0x20 ADD PUSH1 0x2 DUP3 ADD DUP1 SLOAD PUSH2 0x10F7 SWAP1 PUSH2 0x27FD JUMP JUMPDEST DUP1 PUSH1 0x1F ADD PUSH1 0x20 DUP1 SWAP2 DIV MUL PUSH1 0x20 ADD PUSH1 0x40 MLOAD SWAP1 DUP2 ADD PUSH1 0x40 MSTORE DUP1 SWAP3 SWAP2 SWAP1 DUP2 DUP2 MSTORE PUSH1 0x20 ADD DUP3 DUP1 SLOAD PUSH2 0x1123 SWAP1 PUSH2 0x27FD JUMP JUMPDEST DUP1 ISZERO PUSH2 0x1170 JUMPI DUP1 PUSH1 0x1F LT PUSH2 0x1145 JUMPI PUSH2 0x100 DUP1 DUP4 SLOAD DIV MUL DUP4 MSTORE SWAP2 PUSH1 0x20 ADD SWAP2 PUSH2 0x1170 JUMP JUMPDEST DUP3 ADD SWAP2 SWAP1 PUSH1 0x0 MSTORE PUSH1 0x20 PUSH1 0x0 KECCAK256 SWAP1 JUMPDEST DUP2 SLOAD DUP2 MSTORE SWAP1 PUSH1 0x1 ADD SWAP1 PUSH1 0x20 ADD DUP1 DUP4 GT PUSH2 0x1153 JUMPI DUP3 SWAP1 SUB PUSH1 0x1F AND DUP3 ADD SWAP2 JUMPDEST POP POP POP POP POP DUP2 MSTORE PUSH1 0x20 ADD PUSH1 0x3 DUP3 ADD PUSH1 0x0 SWAP1 SLOAD SWAP1 PUSH2 0x100 EXP SWAP1 DIV PUSH20 0xFFFFFFFFFFFFFFFFFFFFFFFFFFFFFFFFFFFFFFFF AND PUSH20 0xFFFFFFFFFFFFFFFFFFFFFFFFFFFFFFFFFFFFFFFF AND PUSH20 0xFFFFFFFFFFFFFFFFFFFFFFFFFFFFFFFFFFFFFFFF AND DUP2 MSTORE PUSH1 0x20 ADD PUSH1 0x4 DUP3 ADD SLOAD DUP2 MSTORE PUSH1 0x20 ADD PUSH1 0x5 DUP3 ADD SLOAD DUP2 MSTORE POP POP PUSH2 0x1035 JUMP JUMPDEST SWAP1 POP PUSH1 0x0 PUSH2 0x11F5 DUP5 PUSH2 0x1A74 JUMP JUMPDEST PUSH2 0x1214 PUSH1 0x9 PUSH1 0x0 DUP8 DUP2 MSTORE PUSH1 0x20 ADD SWAP1 DUP2 MSTORE PUSH1 0x20 ADD PUSH1 0x0 KECCAK256 PUSH1 0x0 ADD SLOAD PUSH2 0x1A74 JUMP JUMPDEST PUSH2 0x1233 PUSH1 0x9 PUSH1 0x0 DUP9 DUP2 MSTORE PUSH1 0x20 ADD SWAP1 DUP2 MSTORE PUSH1 0x20 ADD PUSH1 0x0 KECCAK256 PUSH1 0x1 ADD SLOAD PUSH2 0x1A74 JUMP JUMPDEST PUSH1 0x9 PUSH1 0x0 DUP9 DUP2 MSTORE PUSH1 0x20 ADD SWAP1 DUP2 MSTORE PUSH1 0x20 ADD PUSH1 0x0 KECCAK256 PUSH1 0x2 ADD PUSH2 0x1288 PUSH1 0x9 PUSH1 0x0 DUP11 DUP2 MSTORE PUSH1 0x20 ADD SWAP1 DUP2 MSTORE PUSH1 0x20 ADD PUSH1 0x0 KECCAK256 PUSH1 0x3 ADD PUSH1 0x0 SWAP1 SLOAD SWAP1 PUSH2 0x100 EXP SWAP1 DIV PUSH20 0xFFFFFFFFFFFFFFFFFFFFFFFFFFFFFFFFFFFFFFFF AND PUSH2 0x1B32 JUMP JUMPDEST PUSH2 0x12A7 PUSH1 0x9 PUSH1 0x0 DUP12 DUP2 MSTORE PUSH1 0x20 ADD SWAP1 DUP2 MSTORE PUSH1 0x20 ADD PUSH1 0x0 KECCAK256 PUSH1 0x5 ADD SLOAD PUSH2 0x1A74 JUMP JUMPDEST PUSH2 0x12B0 DUP9 PUSH2 0x1CF5 JUMP JUMPDEST PUSH1 0x40 MLOAD PUSH1 0x20 ADD PUSH2 0x12C6 SWAP8 SWAP7 SWAP6 SWAP5 SWAP4 SWAP3 SWAP2 SWAP1 PUSH2 0x3A51 JUMP JUMPDEST PUSH1 0x40 MLOAD PUSH1 0x20 DUP2 DUP4 SUB SUB DUP2 MSTORE SWAP1 PUSH1 0x40 MSTORE SWAP1 POP PUSH2 0x12E0 DUP2 PUSH2 0x1CF5 JUMP JUMPDEST PUSH1 0x40 MLOAD PUSH1 0x20 ADD PUSH2 0x12F0 SWAP2 SWAP1 PUSH2 0x3B65 JUMP JUMPDEST PUSH1 0x40 MLOAD PUSH1 0x20 DUP2 DUP4 SUB SUB DUP2 MSTORE SWAP1 PUSH1 0x40 MSTORE SWAP3 POP POP POP SWAP2 SWAP1 POP JUMP JUMPDEST PUSH1 0x0 PUSH1 0x7 PUSH1 0x0 DUP5 PUSH20 0xFFFFFFFFFFFFFFFFFFFFFFFFFFFFFFFFFFFFFFFF AND PUSH20 0xFFFFFFFFFFFFFFFFFFFFFFFFFFFFFFFFFFFFFFFF AND DUP2 MSTORE PUSH1 0x20 ADD SWAP1 DUP2 MSTORE PUSH1 0x20 ADD PUSH1 0x0 KECCAK256 PUSH1 0x0 DUP4 PUSH20 0xFFFFFFFFFFFFFFFFFFFFFFFFFFFFFFFFFFFFFFFF AND PUSH20 0xFFFFFFFFFFFFFFFFFFFFFFFFFFFFFFFFFFFFFFFF AND DUP2 MSTORE PUSH1 0x20 ADD SWAP1 DUP2 MSTORE PUSH1 0x20 ADD PUSH1 0x0 KECCAK256 PUSH1 0x0 SWAP1 SLOAD SWAP1 PUSH2 0x100 EXP SWAP1 DIV PUSH1 0xFF AND SWAP1 POP SWAP3 SWAP2 POP POP JUMP JUMPDEST PUSH2 0x13A4 PUSH2 0x17E0 JUMP JUMPDEST PUSH1 0x0 PUSH20 0xFFFFFFFFFFFFFFFFFFFFFFFFFFFFFFFFFFFFFFFF AND DUP2 PUSH20 0xFFFFFFFFFFFFFFFFFFFFFFFFFFFFFFFFFFFFFFFF AND SUB PUSH2 0x1413 JUMPI PUSH1 0x40 MLOAD PUSH32 0x8C379A000000000000000000000000000000000000000000000000000000000 DUP2 MSTORE PUSH1 0x4 ADD PUSH2 0x140A SWAP1 PUSH2 0x3BF9 JUMP JUMPDEST PUSH1 0x40 MLOAD DUP1 SWAP2 SUB SWAP1 REVERT JUMPDEST PUSH2 0x141C DUP2 PUSH2 0x185E JUMP JUMPDEST POP JUMP JUMPDEST PUSH1 0x0 DUP2 PUSH2 0x142A PUSH2 0x1641 JUMP JUMPDEST GT ISZERO DUP1 ISZERO PUSH2 0x1439 JUMPI POP PUSH1 0x0 SLOAD DUP3 LT JUMPDEST DUP1 ISZERO PUSH2 0x1477 JUMPI POP PUSH1 0x0 PUSH29 0x100000000000000000000000000000000000000000000000000000000 PUSH1 0x4 PUSH1 0x0 DUP6 DUP2 MSTORE PUSH1 0x20 ADD SWAP1 DUP2 MSTORE PUSH1 0x20 ADD PUSH1 0x0 KECCAK256 SLOAD AND EQ JUMPDEST SWAP1 POP SWAP2 SWAP1 POP JUMP JUMPDEST PUSH1 0x0 CALLER SWAP1 POP SWAP1 JUMP JUMPDEST PUSH1 0x0 DUP1 SLOAD SWAP1 POP PUSH1 0x0 DUP3 SUB PUSH2 0x14C6 JUMPI PUSH1 0x40 MLOAD PUSH32 0xB562E8DD00000000000000000000000000000000000000000000000000000000 DUP2 MSTORE PUSH1 0x4 ADD PUSH1 0x40 MLOAD DUP1 SWAP2 SUB SWAP1 REVERT JUMPDEST PUSH2 0x14D3 PUSH1 0x0 DUP5 DUP4 DUP6 PUSH2 0x1781 JUMP JUMPDEST PUSH1 0x1 PUSH1 0x40 PUSH1 0x1 SWAP1 SHL OR DUP3 MUL PUSH1 0x5 PUSH1 0x0 DUP6 PUSH20 0xFFFFFFFFFFFFFFFFFFFFFFFFFFFFFFFFFFFFFFFF AND PUSH20 0xFFFFFFFFFFFFFFFFFFFFFFFFFFFFFFFFFFFFFFFF AND DUP2 MSTORE PUSH1 0x20 ADD SWAP1 DUP2 MSTORE PUSH1 0x20 ADD PUSH1 0x0 KECCAK256 PUSH1 0x0 DUP3 DUP3 SLOAD ADD SWAP3 POP POP DUP2 SWAP1 SSTORE POP PUSH2 0x154A DUP4 PUSH2 0x153B PUSH1 0x0 DUP7 PUSH1 0x0 PUSH2 0x1787 JUMP JUMPDEST PUSH2 0x1544 DUP6 PUSH2 0x1E58 JUMP JUMPDEST OR PUSH2 0x17AF JUMP JUMPDEST PUSH1 0x4 PUSH1 0x0 DUP4 DUP2 MSTORE PUSH1 0x20 ADD SWAP1 DUP2 MSTORE PUSH1 0x20 ADD PUSH1 0x0 KECCAK256 DUP2 SWAP1 SSTORE POP PUSH1 0x0 DUP1 DUP4 DUP4 ADD SWAP1 POP PUSH20 0xFFFFFFFFFFFFFFFFFFFFFFFFFFFFFFFFFFFFFFFF DUP6 AND SWAP2 POP DUP3 DUP3 PUSH1 0x0 PUSH32 0xDDF252AD1BE2C89B69C2B068FC378DAA952BA7F163C4A11628F55A4DF523B3EF PUSH1 0x0 DUP1 LOG4 PUSH1 0x1 DUP4 ADD JUMPDEST DUP2 DUP2 EQ PUSH2 0x15EB JUMPI DUP1 DUP4 PUSH1 0x0 PUSH32 0xDDF252AD1BE2C89B69C2B068FC378DAA952BA7F163C4A11628F55A4DF523B3EF PUSH1 0x0 DUP1 LOG4 PUSH1 0x1 DUP2 ADD SWAP1 POP PUSH2 0x15B0 JUMP JUMPDEST POP PUSH1 0x0 DUP3 SUB PUSH2 0x1626 JUMPI PUSH1 0x40 MLOAD PUSH32 0x2E07630000000000000000000000000000000000000000000000000000000000 DUP2 MSTORE PUSH1 0x4 ADD PUSH1 0x40 MLOAD DUP1 SWAP2 SUB SWAP1 REVERT JUMPDEST DUP1 PUSH1 0x0 DUP2 SWAP1 SSTORE POP POP POP PUSH2 0x163C PUSH1 0x0 DUP5 DUP4 DUP6 PUSH2 0x17DA JUMP JUMPDEST POP POP POP JUMP JUMPDEST PUSH1 0x0 PUSH1 0x1 SWAP1 POP SWAP1 JUMP JUMPDEST PUSH1 0x0 DUP1 DUP3 SWAP1 POP DUP1 PUSH2 0x1659 PUSH2 0x1641 JUMP JUMPDEST GT PUSH2 0x16DF JUMPI PUSH1 0x0 SLOAD DUP2 LT ISZERO PUSH2 0x16DE JUMPI PUSH1 0x0 PUSH1 0x4 PUSH1 0x0 DUP4 DUP2 MSTORE PUSH1 0x20 ADD SWAP1 DUP2 MSTORE PUSH1 0x20 ADD PUSH1 0x0 KECCAK256 SLOAD SWAP1 POP PUSH1 0x0 PUSH29 0x100000000000000000000000000000000000000000000000000000000 DUP3 AND SUB PUSH2 0x16DC JUMPI JUMPDEST PUSH1 0x0 DUP2 SUB PUSH2 0x16D2 JUMPI PUSH1 0x4 PUSH1 0x0 DUP4 PUSH1 0x1 SWAP1 SUB SWAP4 POP DUP4 DUP2 MSTORE PUSH1 0x20 ADD SWAP1 DUP2 MSTORE PUSH1 0x20 ADD PUSH1 0x0 KECCAK256 SLOAD SWAP1 POP PUSH2 0x16A8 JUMP JUMPDEST DUP1 SWAP3 POP POP POP PUSH2 0x1711 JUMP JUMPDEST POP JUMPDEST JUMPDEST PUSH1 0x40 MLOAD PUSH32 0xDF2D9B4200000000000000000000000000000000000000000000000000000000 DUP2 MSTORE PUSH1 0x4 ADD PUSH1 0x40 MLOAD DUP1 SWAP2 SUB SWAP1 REVERT JUMPDEST SWAP2 SWAP1 POP JUMP JUMPDEST PUSH1 0x0 DUP1 PUSH1 0x0 PUSH1 0x6 PUSH1 0x0 DUP6 DUP2 MSTORE PUSH1 0x20 ADD SWAP1 DUP2 MSTORE PUSH1 0x20 ADD PUSH1 0x0 KECCAK256 SWAP1 POP DUP1 SWAP3 POP DUP3 SLOAD SWAP2 POP POP SWAP2 POP SWAP2 JUMP JUMPDEST PUSH1 0x0 PUSH20 0xFFFFFFFFFFFFFFFFFFFFFFFFFFFFFFFFFFFFFFFF DUP4 AND SWAP3 POP PUSH20 0xFFFFFFFFFFFFFFFFFFFFFFFFFFFFFFFFFFFFFFFF DUP3 AND SWAP2 POP DUP4 DUP3 EQ DUP4 DUP4 EQ OR SWAP1 POP SWAP4 SWAP3 POP POP POP JUMP JUMPDEST POP POP POP POP JUMP JUMPDEST PUSH1 0x0 DUP1 PUSH1 0xE8 DUP4 SWAP1 SHR SWAP1 POP PUSH1 0xE8 PUSH2 0x179E DUP7 DUP7 DUP5 PUSH2 0x1E68 JUMP JUMPDEST PUSH3 0xFFFFFF AND SWAP1 SHL SWAP2 POP POP SWAP4 SWAP3 POP POP POP JUMP JUMPDEST PUSH1 0x0 PUSH20 0xFFFFFFFFFFFFFFFFFFFFFFFFFFFFFFFFFFFFFFFF DUP4 AND SWAP3 POP DUP2 TIMESTAMP PUSH1 0xA0 SHL OR DUP4 OR SWAP1 POP SWAP3 SWAP2 POP POP JUMP JUMPDEST POP POP POP POP JUMP JUMPDEST PUSH2 0x17E8 PUSH2 0x1E71 JUMP JUMPDEST PUSH20 0xFFFFFFFFFFFFFFFFFFFFFFFFFFFFFFFFFFFFFFFF AND PUSH2 0x1806 PUSH2 0xDFB JUMP JUMPDEST PUSH20 0xFFFFFFFFFFFFFFFFFFFFFFFFFFFFFFFFFFFFFFFF AND EQ PUSH2 0x185C JUMPI PUSH1 0x40 MLOAD PUSH32 0x8C379A000000000000000000000000000000000000000000000000000000000 DUP2 MSTORE PUSH1 0x4 ADD PUSH2 0x1853 SWAP1 PUSH2 0x3C65 JUMP JUMPDEST PUSH1 0x40 MLOAD DUP1 SWAP2 SUB SWAP1 REVERT JUMPDEST JUMP JUMPDEST PUSH1 0x0 PUSH1 0x8 PUSH1 0x0 SWAP1 SLOAD SWAP1 PUSH2 0x100 EXP SWAP1 DIV PUSH20 0xFFFFFFFFFFFFFFFFFFFFFFFFFFFFFFFFFFFFFFFF AND SWAP1 POP DUP2 PUSH1 0x8 PUSH1 0x0 PUSH2 0x100 EXP DUP2 SLOAD DUP2 PUSH20 0xFFFFFFFFFFFFFFFFFFFFFFFFFFFFFFFFFFFFFFFF MUL NOT AND SWAP1 DUP4 PUSH20 0xFFFFFFFFFFFFFFFFFFFFFFFFFFFFFFFFFFFFFFFF AND MUL OR SWAP1 SSTORE POP DUP2 PUSH20 0xFFFFFFFFFFFFFFFFFFFFFFFFFFFFFFFFFFFFFFFF AND DUP2 PUSH20 0xFFFFFFFFFFFFFFFFFFFFFFFFFFFFFFFFFFFFFFFF AND PUSH32 0x8BE0079C531659141344CD1FD0A4F28419497F9722A3DAAFE3B4186F6B6457E0 PUSH1 0x40 MLOAD PUSH1 0x40 MLOAD DUP1 SWAP2 SUB SWAP1 LOG3 POP POP JUMP JUMPDEST PUSH1 0x0 DUP4 PUSH20 0xFFFFFFFFFFFFFFFFFFFFFFFFFFFFFFFFFFFFFFFF AND PUSH4 0x150B7A02 PUSH2 0x194A PUSH2 0x147E JUMP JUMPDEST DUP8 DUP7 DUP7 PUSH1 0x40 MLOAD DUP6 PUSH4 0xFFFFFFFF AND PUSH1 0xE0 SHL DUP2 MSTORE PUSH1 0x4 ADD PUSH2 0x196C SWAP5 SWAP4 SWAP3 SWAP2 SWAP1 PUSH2 0x3CDA JUMP JUMPDEST PUSH1 0x20 PUSH1 0x40 MLOAD DUP1 DUP4 SUB DUP2 PUSH1 0x0 DUP8 GAS CALL SWAP3 POP POP POP DUP1 ISZERO PUSH2 0x19A8 JUMPI POP PUSH1 0x40 MLOAD RETURNDATASIZE PUSH1 0x1F NOT PUSH1 0x1F DUP3 ADD AND DUP3 ADD DUP1 PUSH1 0x40 MSTORE POP DUP2 ADD SWAP1 PUSH2 0x19A5 SWAP2 SWAP1 PUSH2 0x3D3B JUMP JUMPDEST PUSH1 0x1 JUMPDEST PUSH2 0x1A21 JUMPI RETURNDATASIZE DUP1 PUSH1 0x0 DUP2 EQ PUSH2 0x19D8 JUMPI PUSH1 0x40 MLOAD SWAP2 POP PUSH1 0x1F NOT PUSH1 0x3F RETURNDATASIZE ADD AND DUP3 ADD PUSH1 0x40 MSTORE RETURNDATASIZE DUP3 MSTORE RETURNDATASIZE PUSH1 0x0 PUSH1 0x20 DUP5 ADD RETURNDATACOPY PUSH2 0x19DD JUMP JUMPDEST PUSH1 0x60 SWAP2 POP JUMPDEST POP PUSH1 0x0 DUP2 MLOAD SUB PUSH2 0x1A19 JUMPI PUSH1 0x40 MLOAD PUSH32 0xD1A57ED600000000000000000000000000000000000000000000000000000000 DUP2 MSTORE PUSH1 0x4 ADD PUSH1 0x40 MLOAD DUP1 SWAP2 SUB SWAP1 REVERT JUMPDEST DUP1 MLOAD DUP2 PUSH1 0x20 ADD REVERT JUMPDEST PUSH4 0x150B7A02 PUSH1 0xE0 SHL PUSH28 0xFFFFFFFFFFFFFFFFFFFFFFFFFFFFFFFFFFFFFFFFFFFFFFFFFFFFFFFF NOT AND DUP2 PUSH28 0xFFFFFFFFFFFFFFFFFFFFFFFFFFFFFFFFFFFFFFFFFFFFFFFFFFFFFFFF NOT AND EQ SWAP2 POP POP SWAP5 SWAP4 POP POP POP POP JUMP JUMPDEST PUSH1 0x60 PUSH1 0xA0 PUSH1 0x40 MLOAD ADD DUP1 PUSH1 0x40 MSTORE PUSH1 0x20 DUP2 SUB SWAP2 POP PUSH1 0x0 DUP3 MSTORE DUP2 DUP4 JUMPDEST PUSH1 0x1 ISZERO PUSH2 0x1AAF JUMPI PUSH1 0x1 DUP5 SUB SWAP4 POP PUSH1 0xA DUP2 MOD PUSH1 0x30 ADD DUP5 MSTORE8 PUSH1 0xA DUP2 DIV SWAP1 POP DUP1 PUSH2 0x1A8D JUMPI JUMPDEST POP DUP3 DUP2 SUB PUSH1 0x20 DUP5 SUB SWAP4 POP DUP1 DUP5 MSTORE POP POP POP SWAP2 SWAP1 POP JUMP JUMPDEST PUSH1 0x60 PUSH1 0x0 PUSH2 0x1AD1 DUP4 PUSH2 0x1B32 JUMP JUMPDEST SWAP1 POP PUSH1 0x0 DUP2 MLOAD SWAP1 POP PUSH1 0x0 PUSH1 0x3 SWAP1 POP PUSH1 0x0 PUSH1 0x4 DUP4 PUSH2 0x1AEE SWAP2 SWAP1 PUSH2 0x3D97 JUMP JUMPDEST SWAP1 POP PUSH2 0x1AFC DUP5 PUSH1 0x0 DUP5 PUSH2 0x1E79 JUMP JUMPDEST PUSH2 0x1B07 DUP6 DUP4 DUP7 PUSH2 0x1E79 JUMP JUMPDEST PUSH1 0x40 MLOAD PUSH1 0x20 ADD PUSH2 0x1B18 SWAP3 SWAP2 SWAP1 PUSH2 0x3E63 JUMP JUMPDEST PUSH1 0x40 MLOAD PUSH1 0x20 DUP2 DUP4 SUB SUB DUP2 MSTORE SWAP1 PUSH1 0x40 MSTORE SWAP5 POP POP POP POP POP SWAP2 SWAP1 POP JUMP JUMPDEST PUSH1 0x60 PUSH1 0x0 PUSH1 0x28 PUSH8 0xFFFFFFFFFFFFFFFF DUP2 GT ISZERO PUSH2 0x1B51 JUMPI PUSH2 0x1B50 PUSH2 0x2271 JUMP JUMPDEST JUMPDEST PUSH1 0x40 MLOAD SWAP1 DUP1 DUP3 MSTORE DUP1 PUSH1 0x1F ADD PUSH1 0x1F NOT AND PUSH1 0x20 ADD DUP3 ADD PUSH1 0x40 MSTORE DUP1 ISZERO PUSH2 0x1B83 JUMPI DUP2 PUSH1 0x20 ADD PUSH1 0x1 DUP3 MUL DUP1 CALLDATASIZE DUP4 CALLDATACOPY DUP1 DUP3 ADD SWAP2 POP POP SWAP1 POP JUMPDEST POP SWAP1 POP PUSH1 0x0 JUMPDEST PUSH1 0x14 DUP2 LT ISZERO PUSH2 0x1CEB JUMPI PUSH1 0x0 DUP2 PUSH1 0x13 PUSH2 0x1BA1 SWAP2 SWAP1 PUSH2 0x3D97 JUMP JUMPDEST PUSH1 0x8 PUSH2 0x1BAD SWAP2 SWAP1 PUSH2 0x3E9D JUMP JUMPDEST PUSH1 0x2 PUSH2 0x1BB9 SWAP2 SWAP1 PUSH2 0x4012 JUMP JUMPDEST DUP6 PUSH20 0xFFFFFFFFFFFFFFFFFFFFFFFFFFFFFFFFFFFFFFFF AND PUSH2 0x1BDA SWAP2 SWAP1 PUSH2 0x408C JUMP JUMPDEST PUSH1 0xF8 SHL SWAP1 POP PUSH1 0x0 PUSH1 0x10 DUP3 PUSH1 0xF8 SHR PUSH2 0x1BF1 SWAP2 SWAP1 PUSH2 0x40CA JUMP JUMPDEST PUSH1 0xF8 SHL SWAP1 POP PUSH1 0x0 DUP2 PUSH1 0xF8 SHR PUSH1 0x10 PUSH2 0x1C08 SWAP2 SWAP1 PUSH2 0x40FB JUMP JUMPDEST DUP4 PUSH1 0xF8 SHR PUSH2 0x1C16 SWAP2 SWAP1 PUSH2 0x4138 JUMP JUMPDEST PUSH1 0xF8 SHL SWAP1 POP PUSH2 0x1C24 DUP3 PUSH2 0x1F75 JUMP JUMPDEST DUP6 DUP6 PUSH1 0x2 PUSH2 0x1C32 SWAP2 SWAP1 PUSH2 0x3E9D JUMP JUMPDEST DUP2 MLOAD DUP2 LT PUSH2 0x1C43 JUMPI PUSH2 0x1C42 PUSH2 0x416D JUMP JUMPDEST JUMPDEST PUSH1 0x20 ADD ADD SWAP1 PUSH31 0xFFFFFFFFFFFFFFFFFFFFFFFFFFFFFFFFFFFFFFFFFFFFFFFFFFFFFFFFFFFFFF NOT AND SWAP1 DUP2 PUSH1 0x0 BYTE SWAP1 MSTORE8 POP PUSH2 0x1C7B DUP2 PUSH2 0x1F75 JUMP JUMPDEST DUP6 PUSH1 0x1 DUP7 PUSH1 0x2 PUSH2 0x1C8B SWAP2 SWAP1 PUSH2 0x3E9D JUMP JUMPDEST PUSH2 0x1C95 SWAP2 SWAP1 PUSH2 0x419C JUMP JUMPDEST DUP2 MLOAD DUP2 LT PUSH2 0x1CA6 JUMPI PUSH2 0x1CA5 PUSH2 0x416D JUMP JUMPDEST JUMPDEST PUSH1 0x20 ADD ADD SWAP1 PUSH31 0xFFFFFFFFFFFFFFFFFFFFFFFFFFFFFFFFFFFFFFFFFFFFFFFFFFFFFFFFFFFFFF NOT AND SWAP1 DUP2 PUSH1 0x0 BYTE SWAP1 MSTORE8 POP POP POP POP DUP1 DUP1 PUSH2 0x1CE3 SWAP1 PUSH2 0x41D0 JUMP JUMPDEST SWAP2 POP POP PUSH2 0x1B89 JUMP JUMPDEST POP DUP1 SWAP2 POP POP SWAP2 SWAP1 POP JUMP JUMPDEST PUSH1 0x60 PUSH1 0x0 DUP3 MLOAD SUB PUSH2 0x1D17 JUMPI PUSH1 0x40 MLOAD DUP1 PUSH1 0x20 ADD PUSH1 0x40 MSTORE DUP1 PUSH1 0x0 DUP2 MSTORE POP SWAP1 POP PUSH2 0x1E53 JUMP JUMPDEST PUSH1 0x0 PUSH1 0x40 MLOAD DUP1 PUSH1 0x60 ADD PUSH1 0x40 MSTORE DUP1 PUSH1 0x40 DUP2 MSTORE PUSH1 0x20 ADD PUSH2 0x424E PUSH1 0x40 SWAP2 CODECOPY SWAP1 POP PUSH1 0x0 PUSH1 0x3 PUSH1 0x2 DUP6 MLOAD PUSH2 0x1D46 SWAP2 SWAP1 PUSH2 0x419C JUMP JUMPDEST PUSH2 0x1D50 SWAP2 SWAP1 PUSH2 0x408C JUMP JUMPDEST PUSH1 0x4 PUSH2 0x1D5C SWAP2 SWAP1 PUSH2 0x3E9D JUMP JUMPDEST PUSH8 0xFFFFFFFFFFFFFFFF DUP2 GT ISZERO PUSH2 0x1D75 JUMPI PUSH2 0x1D74 PUSH2 0x2271 JUMP JUMPDEST JUMPDEST PUSH1 0x40 MLOAD SWAP1 DUP1 DUP3 MSTORE DUP1 PUSH1 0x1F ADD PUSH1 0x1F NOT AND PUSH1 0x20 ADD DUP3 ADD PUSH1 0x40 MSTORE DUP1 ISZERO PUSH2 0x1DA7 JUMPI DUP2 PUSH1 0x20 ADD PUSH1 0x1 DUP3 MUL DUP1 CALLDATASIZE DUP4 CALLDATACOPY DUP1 DUP3 ADD SWAP2 POP POP SWAP1 POP JUMPDEST POP SWAP1 POP PUSH1 0x1 DUP3 ADD PUSH1 0x20 DUP3 ADD DUP6 DUP7 MLOAD DUP8 ADD JUMPDEST DUP1 DUP3 LT ISZERO PUSH2 0x1E13 JUMPI PUSH1 0x3 DUP3 ADD SWAP2 POP DUP2 MLOAD PUSH1 0x3F DUP2 PUSH1 0x12 SHR AND DUP6 ADD MLOAD DUP5 MSTORE8 PUSH1 0x1 DUP5 ADD SWAP4 POP PUSH1 0x3F DUP2 PUSH1 0xC SHR AND DUP6 ADD MLOAD DUP5 MSTORE8 PUSH1 0x1 DUP5 ADD SWAP4 POP PUSH1 0x3F DUP2 PUSH1 0x6 SHR AND DUP6 ADD MLOAD DUP5 MSTORE8 PUSH1 0x1 DUP5 ADD SWAP4 POP PUSH1 0x3F DUP2 AND DUP6 ADD MLOAD DUP5 MSTORE8 PUSH1 0x1 DUP5 ADD SWAP4 POP POP PUSH2 0x1DB8 JUMP JUMPDEST POP POP PUSH1 0x3 DUP7 MLOAD MOD PUSH1 0x1 DUP2 EQ PUSH2 0x1E2F JUMPI PUSH1 0x2 DUP2 EQ PUSH2 0x1E42 JUMPI PUSH2 0x1E4A JUMP JUMPDEST PUSH1 0x3D PUSH1 0x1 DUP4 SUB MSTORE8 PUSH1 0x3D PUSH1 0x2 DUP4 SUB MSTORE8 PUSH2 0x1E4A JUMP JUMPDEST PUSH1 0x3D PUSH1 0x1 DUP4 SUB MSTORE8 JUMPDEST POP POP POP DUP1 SWAP3 POP POP POP JUMPDEST SWAP2 SWAP1 POP JUMP JUMPDEST PUSH1 0x0 PUSH1 0x1 DUP3 EQ PUSH1 0xE1 SHL SWAP1 POP SWAP2 SWAP1 POP JUMP JUMPDEST PUSH1 0x0 SWAP4 SWAP3 POP POP POP JUMP JUMPDEST PUSH1 0x0 CALLER SWAP1 POP SWAP1 JUMP JUMPDEST PUSH1 0x60 PUSH1 0x0 DUP5 SWAP1 POP PUSH1 0x0 DUP5 DUP5 PUSH2 0x1E8E SWAP2 SWAP1 PUSH2 0x3D97 JUMP JUMPDEST PUSH8 0xFFFFFFFFFFFFFFFF DUP2 GT ISZERO PUSH2 0x1EA7 JUMPI PUSH2 0x1EA6 PUSH2 0x2271 JUMP JUMPDEST JUMPDEST PUSH1 0x40 MLOAD SWAP1 DUP1 DUP3 MSTORE DUP1 PUSH1 0x1F ADD PUSH1 0x1F NOT AND PUSH1 0x20 ADD DUP3 ADD PUSH1 0x40 MSTORE DUP1 ISZERO PUSH2 0x1ED9 JUMPI DUP2 PUSH1 0x20 ADD PUSH1 0x1 DUP3 MUL DUP1 CALLDATASIZE DUP4 CALLDATACOPY DUP1 DUP3 ADD SWAP2 POP POP SWAP1 POP JUMPDEST POP SWAP1 POP PUSH1 0x0 DUP6 SWAP1 POP JUMPDEST DUP5 DUP2 LT ISZERO PUSH2 0x1F68 JUMPI DUP3 DUP2 DUP2 MLOAD DUP2 LT PUSH2 0x1EFD JUMPI PUSH2 0x1EFC PUSH2 0x416D JUMP JUMPDEST JUMPDEST PUSH1 0x20 ADD ADD MLOAD PUSH1 0xF8 SHR PUSH1 0xF8 SHL DUP3 DUP8 DUP4 PUSH2 0x1F15 SWAP2 SWAP1 PUSH2 0x3D97 JUMP JUMPDEST DUP2 MLOAD DUP2 LT PUSH2 0x1F26 JUMPI PUSH2 0x1F25 PUSH2 0x416D JUMP JUMPDEST JUMPDEST PUSH1 0x20 ADD ADD SWAP1 PUSH31 0xFFFFFFFFFFFFFFFFFFFFFFFFFFFFFFFFFFFFFFFFFFFFFFFFFFFFFFFFFFFFFF NOT AND SWAP1 DUP2 PUSH1 0x0 BYTE SWAP1 MSTORE8 POP DUP1 DUP1 PUSH2 0x1F60 SWAP1 PUSH2 0x41D0 JUMP JUMPDEST SWAP2 POP POP PUSH2 0x1EE2 JUMP JUMPDEST POP DUP1 SWAP3 POP POP POP SWAP4 SWAP3 POP POP POP JUMP JUMPDEST PUSH1 0x0 PUSH1 0xA DUP3 PUSH1 0xF8 SHR PUSH1 0xFF AND LT ISZERO PUSH2 0x1FA0 JUMPI PUSH1 0x30 DUP3 PUSH1 0xF8 SHR PUSH2 0x1F96 SWAP2 SWAP1 PUSH2 0x4218 JUMP JUMPDEST PUSH1 0xF8 SHL SWAP1 POP PUSH2 0x1FB6 JUMP JUMPDEST PUSH1 0x57 DUP3 PUSH1 0xF8 SHR PUSH2 0x1FB0 SWAP2 SWAP1 PUSH2 0x4218 JUMP JUMPDEST PUSH1 0xF8 SHL SWAP1 POP JUMPDEST SWAP2 SWAP1 POP JUMP JUMPDEST PUSH1 0x0 PUSH1 0x40 MLOAD SWAP1 POP SWAP1 JUMP JUMPDEST PUSH1 0x0 DUP1 REVERT JUMPDEST PUSH1 0x0 DUP1 REVERT JUMPDEST PUSH1 0x0 PUSH32 0xFFFFFFFF00000000000000000000000000000000000000000000000000000000 DUP3 AND SWAP1 POP SWAP2 SWAP1 POP JUMP JUMPDEST PUSH2 0x2004 DUP2 PUSH2 0x1FCF JUMP JUMPDEST DUP2 EQ PUSH2 0x200F JUMPI PUSH1 0x0 DUP1 REVERT JUMPDEST POP JUMP JUMPDEST PUSH1 0x0 DUP2 CALLDATALOAD SWAP1 POP PUSH2 0x2021 DUP2 PUSH2 0x1FFB JUMP JUMPDEST SWAP3 SWAP2 POP POP JUMP JUMPDEST PUSH1 0x0 PUSH1 0x20 DUP3 DUP5 SUB SLT ISZERO PUSH2 0x203D JUMPI PUSH2 0x203C PUSH2 0x1FC5 JUMP JUMPDEST JUMPDEST PUSH1 0x0 PUSH2 0x204B DUP5 DUP3 DUP6 ADD PUSH2 0x2012 JUMP JUMPDEST SWAP2 POP POP SWAP3 SWAP2 POP POP JUMP JUMPDEST PUSH1 0x0 DUP2 ISZERO ISZERO SWAP1 POP SWAP2 SWAP1 POP JUMP JUMPDEST PUSH2 0x2069 DUP2 PUSH2 0x2054 JUMP JUMPDEST DUP3 MSTORE POP POP JUMP JUMPDEST PUSH1 0x0 PUSH1 0x20 DUP3 ADD SWAP1 POP PUSH2 0x2084 PUSH1 0x0 DUP4 ADD DUP5 PUSH2 0x2060 JUMP JUMPDEST SWAP3 SWAP2 POP POP JUMP JUMPDEST PUSH1 0x0 DUP2 MLOAD SWAP1 POP SWAP2 SWAP1 POP JUMP JUMPDEST PUSH1 0x0 DUP3 DUP3 MSTORE PUSH1 0x20 DUP3 ADD SWAP1 POP SWAP3 SWAP2 POP POP JUMP JUMPDEST PUSH1 0x0 JUMPDEST DUP4 DUP2 LT ISZERO PUSH2 0x20C4 JUMPI DUP1 DUP3 ADD MLOAD DUP2 DUP5 ADD MSTORE PUSH1 0x20 DUP2 ADD SWAP1 POP PUSH2 0x20A9 JUMP JUMPDEST PUSH1 0x0 DUP5 DUP5 ADD MSTORE POP POP POP POP JUMP JUMPDEST PUSH1 0x0 PUSH1 0x1F NOT PUSH1 0x1F DUP4 ADD AND SWAP1 POP SWAP2 SWAP1 POP JUMP JUMPDEST PUSH1 0x0 PUSH2 0x20EC DUP3 PUSH2 0x208A JUMP JUMPDEST PUSH2 0x20F6 DUP2 DUP6 PUSH2 0x2095 JUMP JUMPDEST SWAP4 POP PUSH2 0x2106 DUP2 DUP6 PUSH1 0x20 DUP7 ADD PUSH2 0x20A6 JUMP JUMPDEST PUSH2 0x210F DUP2 PUSH2 0x20D0 JUMP JUMPDEST DUP5 ADD SWAP2 POP POP SWAP3 SWAP2 POP POP JUMP JUMPDEST PUSH1 0x0 PUSH1 0x20 DUP3 ADD SWAP1 POP DUP2 DUP2 SUB PUSH1 0x0 DUP4 ADD MSTORE PUSH2 0x2134 DUP2 DUP5 PUSH2 0x20E1 JUMP JUMPDEST SWAP1 POP SWAP3 SWAP2 POP POP JUMP JUMPDEST PUSH1 0x0 DUP2 SWAP1 POP SWAP2 SWAP1 POP JUMP JUMPDEST PUSH2 0x214F DUP2 PUSH2 0x213C JUMP JUMPDEST DUP2 EQ PUSH2 0x215A JUMPI PUSH1 0x0 DUP1 REVERT JUMPDEST POP JUMP JUMPDEST PUSH1 0x0 DUP2 CALLDATALOAD SWAP1 POP PUSH2 0x216C DUP2 PUSH2 0x2146 JUMP JUMPDEST SWAP3 SWAP2 POP POP JUMP JUMPDEST PUSH1 0x0 PUSH1 0x20 DUP3 DUP5 SUB SLT ISZERO PUSH2 0x2188 JUMPI PUSH2 0x2187 PUSH2 0x1FC5 JUMP JUMPDEST JUMPDEST PUSH1 0x0 PUSH2 0x2196 DUP5 DUP3 DUP6 ADD PUSH2 0x215D JUMP JUMPDEST SWAP2 POP POP SWAP3 SWAP2 POP POP JUMP JUMPDEST PUSH1 0x0 PUSH20 0xFFFFFFFFFFFFFFFFFFFFFFFFFFFFFFFFFFFFFFFF DUP3 AND SWAP1 POP SWAP2 SWAP1 POP JUMP JUMPDEST PUSH1 0x0 PUSH2 0x21CA DUP3 PUSH2 0x219F JUMP JUMPDEST SWAP1 POP SWAP2 SWAP1 POP JUMP JUMPDEST PUSH2 0x21DA DUP2 PUSH2 0x21BF JUMP JUMPDEST DUP3 MSTORE POP POP JUMP JUMPDEST PUSH1 0x0 PUSH1 0x20 DUP3 ADD SWAP1 POP PUSH2 0x21F5 PUSH1 0x0 DUP4 ADD DUP5 PUSH2 0x21D1 JUMP JUMPDEST SWAP3 SWAP2 POP POP JUMP JUMPDEST PUSH2 0x2204 DUP2 PUSH2 0x21BF JUMP JUMPDEST DUP2 EQ PUSH2 0x220F JUMPI PUSH1 0x0 DUP1 REVERT JUMPDEST POP JUMP JUMPDEST PUSH1 0x0 DUP2 CALLDATALOAD SWAP1 POP PUSH2 0x2221 DUP2 PUSH2 0x21FB JUMP JUMPDEST SWAP3 SWAP2 POP POP JUMP JUMPDEST PUSH1 0x0 DUP1 PUSH1 0x40 DUP4 DUP6 SUB SLT ISZERO PUSH2 0x223E JUMPI PUSH2 0x223D PUSH2 0x1FC5 JUMP JUMPDEST JUMPDEST PUSH1 0x0 PUSH2 0x224C DUP6 DUP3 DUP7 ADD PUSH2 0x2212 JUMP JUMPDEST SWAP3 POP POP PUSH1 0x20 PUSH2 0x225D DUP6 DUP3 DUP7 ADD PUSH2 0x215D JUMP JUMPDEST SWAP2 POP POP SWAP3 POP SWAP3 SWAP1 POP JUMP JUMPDEST PUSH1 0x0 DUP1 REVERT JUMPDEST PUSH1 0x0 DUP1 REVERT JUMPDEST PUSH32 0x4E487B7100000000000000000000000000000000000000000000000000000000 PUSH1 0x0 MSTORE PUSH1 0x41 PUSH1 0x4 MSTORE PUSH1 0x24 PUSH1 0x0 REVERT JUMPDEST PUSH2 0x22A9 DUP3 PUSH2 0x20D0 JUMP JUMPDEST DUP2 ADD DUP2 DUP2 LT PUSH8 0xFFFFFFFFFFFFFFFF DUP3 GT OR ISZERO PUSH2 0x22C8 JUMPI PUSH2 0x22C7 PUSH2 0x2271 JUMP JUMPDEST JUMPDEST DUP1 PUSH1 0x40 MSTORE POP POP POP JUMP JUMPDEST PUSH1 0x0 PUSH2 0x22DB PUSH2 0x1FBB JUMP JUMPDEST SWAP1 POP PUSH2 0x22E7 DUP3 DUP3 PUSH2 0x22A0 JUMP JUMPDEST SWAP2 SWAP1 POP JUMP JUMPDEST PUSH1 0x0 PUSH8 0xFFFFFFFFFFFFFFFF DUP3 GT ISZERO PUSH2 0x2307 JUMPI PUSH2 0x2306 PUSH2 0x2271 JUMP JUMPDEST JUMPDEST PUSH2 0x2310 DUP3 PUSH2 0x20D0 JUMP JUMPDEST SWAP1 POP PUSH1 0x20 DUP2 ADD SWAP1 POP SWAP2 SWAP1 POP JUMP JUMPDEST DUP3 DUP2 DUP4 CALLDATACOPY PUSH1 0x0 DUP4 DUP4 ADD MSTORE POP POP POP JUMP JUMPDEST PUSH1 0x0 PUSH2 0x233F PUSH2 0x233A DUP5 PUSH2 0x22EC JUMP JUMPDEST PUSH2 0x22D1 JUMP JUMPDEST SWAP1 POP DUP3 DUP2 MSTORE PUSH1 0x20 DUP2 ADD DUP5 DUP5 DUP5 ADD GT ISZERO PUSH2 0x235B JUMPI PUSH2 0x235A PUSH2 0x226C JUMP JUMPDEST JUMPDEST PUSH2 0x2366 DUP5 DUP3 DUP6 PUSH2 0x231D JUMP JUMPDEST POP SWAP4 SWAP3 POP POP POP JUMP JUMPDEST PUSH1 0x0 DUP3 PUSH1 0x1F DUP4 ADD SLT PUSH2 0x2383 JUMPI PUSH2 0x2382 PUSH2 0x2267 JUMP JUMPDEST JUMPDEST DUP2 CALLDATALOAD PUSH2 0x2393 DUP5 DUP3 PUSH1 0x20 DUP7 ADD PUSH2 0x232C JUMP JUMPDEST SWAP2 POP POP SWAP3 SWAP2 POP POP JUMP JUMPDEST PUSH1 0x0 DUP1 PUSH1 0x0 DUP1 PUSH1 0x0 DUP1 PUSH1 0xC0 DUP8 DUP10 SUB SLT ISZERO PUSH2 0x23B9 JUMPI PUSH2 0x23B8 PUSH2 0x1FC5 JUMP JUMPDEST JUMPDEST PUSH1 0x0 PUSH2 0x23C7 DUP10 DUP3 DUP11 ADD PUSH2 0x215D JUMP JUMPDEST SWAP7 POP POP PUSH1 0x20 PUSH2 0x23D8 DUP10 DUP3 DUP11 ADD PUSH2 0x215D JUMP JUMPDEST SWAP6 POP POP PUSH1 0x40 DUP8 ADD CALLDATALOAD PUSH8 0xFFFFFFFFFFFFFFFF DUP2 GT ISZERO PUSH2 0x23F9 JUMPI PUSH2 0x23F8 PUSH2 0x1FCA JUMP JUMPDEST JUMPDEST PUSH2 0x2405 DUP10 DUP3 DUP11 ADD PUSH2 0x236E JUMP JUMPDEST SWAP5 POP POP PUSH1 0x60 PUSH2 0x2416 DUP10 DUP3 DUP11 ADD PUSH2 0x2212 JUMP JUMPDEST SWAP4 POP POP PUSH1 0x80 PUSH2 0x2427 DUP10 DUP3 DUP11 ADD PUSH2 0x215D JUMP JUMPDEST SWAP3 POP POP PUSH1 0xA0 PUSH2 0x2438 DUP10 DUP3 DUP11 ADD PUSH2 0x215D JUMP JUMPDEST SWAP2 POP POP SWAP3 SWAP6 POP SWAP3 SWAP6 POP SWAP3 SWAP6 JUMP JUMPDEST PUSH2 0x244E DUP2 PUSH2 0x213C JUMP JUMPDEST DUP3 MSTORE POP POP JUMP JUMPDEST PUSH1 0x0 PUSH1 0x20 DUP3 ADD SWAP1 POP PUSH2 0x2469 PUSH1 0x0 DUP4 ADD DUP5 PUSH2 0x2445 JUMP JUMPDEST SWAP3 SWAP2 POP POP JUMP JUMPDEST PUSH1 0x0 DUP1 PUSH1 0x0 PUSH1 0x60 DUP5 DUP7 SUB SLT ISZERO PUSH2 0x2488 JUMPI PUSH2 0x2487 PUSH2 0x1FC5 JUMP JUMPDEST JUMPDEST PUSH1 0x0 PUSH2 0x2496 DUP7 DUP3 DUP8 ADD PUSH2 0x2212 JUMP JUMPDEST SWAP4 POP POP PUSH1 0x20 PUSH2 0x24A7 DUP7 DUP3 DUP8 ADD PUSH2 0x2212 JUMP JUMPDEST SWAP3 POP POP PUSH1 0x40 PUSH2 0x24B8 DUP7 DUP3 DUP8 ADD PUSH2 0x215D JUMP JUMPDEST SWAP2 POP POP SWAP3 POP SWAP3 POP SWAP3 JUMP JUMPDEST PUSH1 0x0 PUSH1 0x20 DUP3 DUP5 SUB SLT ISZERO PUSH2 0x24D8 JUMPI PUSH2 0x24D7 PUSH2 0x1FC5 JUMP JUMPDEST JUMPDEST PUSH1 0x0 PUSH2 0x24E6 DUP5 DUP3 DUP6 ADD PUSH2 0x2212 JUMP JUMPDEST SWAP2 POP POP SWAP3 SWAP2 POP POP JUMP JUMPDEST PUSH2 0x24F8 DUP2 PUSH2 0x2054 JUMP JUMPDEST DUP2 EQ PUSH2 0x2503 JUMPI PUSH1 0x0 DUP1 REVERT JUMPDEST POP JUMP JUMPDEST PUSH1 0x0 DUP2 CALLDATALOAD SWAP1 POP PUSH2 0x2515 DUP2 PUSH2 0x24EF JUMP JUMPDEST SWAP3 SWAP2 POP POP JUMP JUMPDEST PUSH1 0x0 DUP1 PUSH1 0x40 DUP4 DUP6 SUB SLT ISZERO PUSH2 0x2532 JUMPI PUSH2 0x2531 PUSH2 0x1FC5 JUMP JUMPDEST JUMPDEST PUSH1 0x0 PUSH2 0x2540 DUP6 DUP3 DUP7 ADD PUSH2 0x2212 JUMP JUMPDEST SWAP3 POP POP PUSH1 0x20 PUSH2 0x2551 DUP6 DUP3 DUP7 ADD PUSH2 0x2506 JUMP JUMPDEST SWAP2 POP POP SWAP3 POP SWAP3 SWAP1 POP JUMP JUMPDEST PUSH1 0x0 PUSH8 0xFFFFFFFFFFFFFFFF DUP3 GT ISZERO PUSH2 0x2576 JUMPI PUSH2 0x2575 PUSH2 0x2271 JUMP JUMPDEST JUMPDEST PUSH2 0x257F DUP3 PUSH2 0x20D0 JUMP JUMPDEST SWAP1 POP PUSH1 0x20 DUP2 ADD SWAP1 POP SWAP2 SWAP1 POP JUMP JUMPDEST PUSH1 0x0 PUSH2 0x259F PUSH2 0x259A DUP5 PUSH2 0x255B JUMP JUMPDEST PUSH2 0x22D1 JUMP JUMPDEST SWAP1 POP DUP3 DUP2 MSTORE PUSH1 0x20 DUP2 ADD DUP5 DUP5 DUP5 ADD GT ISZERO PUSH2 0x25BB JUMPI PUSH2 0x25BA PUSH2 0x226C JUMP JUMPDEST JUMPDEST PUSH2 0x25C6 DUP5 DUP3 DUP6 PUSH2 0x231D JUMP JUMPDEST POP SWAP4 SWAP3 POP POP POP JUMP JUMPDEST PUSH1 0x0 DUP3 PUSH1 0x1F DUP4 ADD SLT PUSH2 0x25E3 JUMPI PUSH2 0x25E2 PUSH2 0x2267 JUMP JUMPDEST JUMPDEST DUP2 CALLDATALOAD PUSH2 0x25F3 DUP5 DUP3 PUSH1 0x20 DUP7 ADD PUSH2 0x258C JUMP JUMPDEST SWAP2 POP POP SWAP3 SWAP2 POP POP JUMP JUMPDEST PUSH1 0x0 DUP1 PUSH1 0x0 DUP1 PUSH1 0x80 DUP6 DUP8 SUB SLT ISZERO PUSH2 0x2616 JUMPI PUSH2 0x2615 PUSH2 0x1FC5 JUMP JUMPDEST JUMPDEST PUSH1 0x0 PUSH2 0x2624 DUP8 DUP3 DUP9 ADD PUSH2 0x2212 JUMP JUMPDEST SWAP5 POP POP PUSH1 0x20 PUSH2 0x2635 DUP8 DUP3 DUP9 ADD PUSH2 0x2212 JUMP JUMPDEST SWAP4 POP POP PUSH1 0x40 PUSH2 0x2646 DUP8 DUP3 DUP9 ADD PUSH2 0x215D JUMP JUMPDEST SWAP3 POP POP PUSH1 0x60 DUP6 ADD CALLDATALOAD PUSH8 0xFFFFFFFFFFFFFFFF DUP2 GT ISZERO PUSH2 0x2667 JUMPI PUSH2 0x2666 PUSH2 0x1FCA JUMP JUMPDEST JUMPDEST PUSH2 0x2673 DUP8 DUP3 DUP9 ADD PUSH2 0x25CE JUMP JUMPDEST SWAP2 POP POP SWAP3 SWAP6 SWAP2 SWAP5 POP SWAP3 POP JUMP JUMPDEST PUSH1 0x0 DUP1 REVERT JUMPDEST PUSH1 0x0 DUP1 REVERT JUMPDEST PUSH1 0x0 PUSH1 0xC0 DUP3 DUP5 SUB SLT ISZERO PUSH2 0x269F JUMPI PUSH2 0x269E PUSH2 0x267F JUMP JUMPDEST JUMPDEST PUSH2 0x26A9 PUSH1 0xC0 PUSH2 0x22D1 JUMP JUMPDEST SWAP1 POP PUSH1 0x0 PUSH2 0x26B9 DUP5 DUP3 DUP6 ADD PUSH2 0x215D JUMP JUMPDEST PUSH1 0x0 DUP4 ADD MSTORE POP PUSH1 0x20 PUSH2 0x26CD DUP5 DUP3 DUP6 ADD PUSH2 0x215D JUMP JUMPDEST PUSH1 0x20 DUP4 ADD MSTORE POP PUSH1 0x40 DUP3 ADD CALLDATALOAD PUSH8 0xFFFFFFFFFFFFFFFF DUP2 GT ISZERO PUSH2 0x26F1 JUMPI PUSH2 0x26F0 PUSH2 0x2684 JUMP JUMPDEST JUMPDEST PUSH2 0x26FD DUP5 DUP3 DUP6 ADD PUSH2 0x236E JUMP JUMPDEST PUSH1 0x40 DUP4 ADD MSTORE POP PUSH1 0x60 PUSH2 0x2711 DUP5 DUP3 DUP6 ADD PUSH2 0x2212 JUMP JUMPDEST PUSH1 0x60 DUP4 ADD MSTORE POP PUSH1 0x80 PUSH2 0x2725 DUP5 DUP3 DUP6 ADD PUSH2 0x215D JUMP JUMPDEST PUSH1 0x80 DUP4 ADD MSTORE POP PUSH1 0xA0 PUSH2 0x2739 DUP5 DUP3 DUP6 ADD PUSH2 0x215D JUMP JUMPDEST PUSH1 0xA0 DUP4 ADD MSTORE POP SWAP3 SWAP2 POP POP JUMP JUMPDEST PUSH1 0x0 PUSH1 0x20 DUP3 DUP5 SUB SLT ISZERO PUSH2 0x275B JUMPI PUSH2 0x275A PUSH2 0x1FC5 JUMP JUMPDEST JUMPDEST PUSH1 0x0 DUP3 ADD CALLDATALOAD PUSH8 0xFFFFFFFFFFFFFFFF DUP2 GT ISZERO PUSH2 0x2779 JUMPI PUSH2 0x2778 PUSH2 0x1FCA JUMP JUMPDEST JUMPDEST PUSH2 0x2785 DUP5 DUP3 DUP6 ADD PUSH2 0x2689 JUMP JUMPDEST SWAP2 POP POP SWAP3 SWAP2 POP POP JUMP JUMPDEST PUSH1 0x0 DUP1 PUSH1 0x40 DUP4 DUP6 SUB SLT ISZERO PUSH2 0x27A5 JUMPI PUSH2 0x27A4 PUSH2 0x1FC5 JUMP JUMPDEST JUMPDEST PUSH1 0x0 PUSH2 0x27B3 DUP6 DUP3 DUP7 ADD PUSH2 0x2212 JUMP JUMPDEST SWAP3 POP POP PUSH1 0x20 PUSH2 0x27C4 DUP6 DUP3 DUP7 ADD PUSH2 0x2212 JUMP JUMPDEST SWAP2 POP POP SWAP3 POP SWAP3 SWAP1 POP JUMP JUMPDEST PUSH32 0x4E487B7100000000000000000000000000000000000000000000000000000000 PUSH1 0x0 MSTORE PUSH1 0x22 PUSH1 0x4 MSTORE PUSH1 0x24 PUSH1 0x0 REVERT JUMPDEST PUSH1 0x0 PUSH1 0x2 DUP3 DIV SWAP1 POP PUSH1 0x1 DUP3 AND DUP1 PUSH2 0x2815 JUMPI PUSH1 0x7F DUP3 AND SWAP2 POP JUMPDEST PUSH1 0x20 DUP3 LT DUP2 SUB PUSH2 0x2828 JUMPI PUSH2 0x2827 PUSH2 0x27CE JUMP JUMPDEST JUMPDEST POP SWAP2 SWAP1 POP JUMP JUMPDEST PUSH32 0x556E617070726F766564206D696E74696E6720736F7572636500000000000000 PUSH1 0x0 DUP3 ADD MSTORE POP JUMP JUMPDEST PUSH1 0x0 PUSH2 0x2864 PUSH1 0x19 DUP4 PUSH2 0x2095 JUMP JUMPDEST SWAP2 POP PUSH2 0x286F DUP3 PUSH2 0x282E JUMP JUMPDEST PUSH1 0x20 DUP3 ADD SWAP1 POP SWAP2 SWAP1 POP JUMP JUMPDEST PUSH1 0x0 PUSH1 0x20 DUP3 ADD SWAP1 POP DUP2 DUP2 SUB PUSH1 0x0 DUP4 ADD MSTORE PUSH2 0x2893 DUP2 PUSH2 0x2857 JUMP JUMPDEST SWAP1 POP SWAP2 SWAP1 POP JUMP JUMPDEST PUSH1 0x0 DUP2 SWAP1 POP DUP2 PUSH1 0x0 MSTORE PUSH1 0x20 PUSH1 0x0 KECCAK256 SWAP1 POP SWAP2 SWAP1 POP JUMP JUMPDEST PUSH1 0x0 PUSH1 0x20 PUSH1 0x1F DUP4 ADD DIV SWAP1 POP SWAP2 SWAP1 POP JUMP JUMPDEST PUSH1 0x0 DUP3 DUP3 SHL SWAP1 POP SWAP3 SWAP2 POP POP JUMP JUMPDEST PUSH1 0x0 PUSH1 0x8 DUP4 MUL PUSH2 0x28FC PUSH32 0xFFFFFFFFFFFFFFFFFFFFFFFFFFFFFFFFFFFFFFFFFFFFFFFFFFFFFFFFFFFFFFFF DUP3 PUSH2 0x28BF JUMP JUMPDEST PUSH2 0x2906 DUP7 DUP4 PUSH2 0x28BF JUMP JUMPDEST SWAP6 POP DUP1 NOT DUP5 AND SWAP4 POP DUP1 DUP7 AND DUP5 OR SWAP3 POP POP POP SWAP4 SWAP3 POP POP POP JUMP JUMPDEST PUSH1 0x0 DUP2 SWAP1 POP SWAP2 SWAP1 POP JUMP JUMPDEST PUSH1 0x0 PUSH2 0x2943 PUSH2 0x293E PUSH2 0x2939 DUP5 PUSH2 0x213C JUMP JUMPDEST PUSH2 0x291E JUMP JUMPDEST PUSH2 0x213C JUMP JUMPDEST SWAP1 POP SWAP2 SWAP1 POP JUMP JUMPDEST PUSH1 0x0 DUP2 SWAP1 POP SWAP2 SWAP1 POP JUMP JUMPDEST PUSH2 0x295D DUP4 PUSH2 0x2928 JUMP JUMPDEST PUSH2 0x2971 PUSH2 0x2969 DUP3 PUSH2 0x294A JUMP JUMPDEST DUP5 DUP5 SLOAD PUSH2 0x28CC JUMP JUMPDEST DUP3 SSTORE POP POP POP POP JUMP JUMPDEST PUSH1 0x0 SWAP1 JUMP JUMPDEST PUSH2 0x2986 PUSH2 0x2979 JUMP JUMPDEST PUSH2 0x2991 DUP2 DUP5 DUP5 PUSH2 0x2954 JUMP JUMPDEST POP POP POP JUMP JUMPDEST JUMPDEST DUP2 DUP2 LT ISZERO PUSH2 0x29B5 JUMPI PUSH2 0x29AA PUSH1 0x0 DUP3 PUSH2 0x297E JUMP JUMPDEST PUSH1 0x1 DUP2 ADD SWAP1 POP PUSH2 0x2997 JUMP JUMPDEST POP POP JUMP JUMPDEST PUSH1 0x1F DUP3 GT ISZERO PUSH2 0x29FA JUMPI PUSH2 0x29CB DUP2 PUSH2 0x289A JUMP JUMPDEST PUSH2 0x29D4 DUP5 PUSH2 0x28AF JUMP JUMPDEST DUP2 ADD PUSH1 0x20 DUP6 LT ISZERO PUSH2 0x29E3 JUMPI DUP2 SWAP1 POP JUMPDEST PUSH2 0x29F7 PUSH2 0x29EF DUP6 PUSH2 0x28AF JUMP JUMPDEST DUP4 ADD DUP3 PUSH2 0x2996 JUMP JUMPDEST POP POP JUMPDEST POP POP POP JUMP JUMPDEST PUSH1 0x0 DUP3 DUP3 SHR SWAP1 POP SWAP3 SWAP2 POP POP JUMP JUMPDEST PUSH1 0x0 PUSH2 0x2A1D PUSH1 0x0 NOT DUP5 PUSH1 0x8 MUL PUSH2 0x29FF JUMP JUMPDEST NOT DUP1 DUP4 AND SWAP2 POP POP SWAP3 SWAP2 POP POP JUMP JUMPDEST PUSH1 0x0 PUSH2 0x2A36 DUP4 DUP4 PUSH2 0x2A0C JUMP JUMPDEST SWAP2 POP DUP3 PUSH1 0x2 MUL DUP3 OR SWAP1 POP SWAP3 SWAP2 POP POP JUMP JUMPDEST PUSH2 0x2A4F DUP3 PUSH2 0x208A JUMP JUMPDEST PUSH8 0xFFFFFFFFFFFFFFFF DUP2 GT ISZERO PUSH2 0x2A68 JUMPI PUSH2 0x2A67 PUSH2 0x2271 JUMP JUMPDEST JUMPDEST PUSH2 0x2A72 DUP3 SLOAD PUSH2 0x27FD JUMP JUMPDEST PUSH2 0x2A7D DUP3 DUP3 DUP6 PUSH2 0x29B9 JUMP JUMPDEST PUSH1 0x0 PUSH1 0x20 SWAP1 POP PUSH1 0x1F DUP4 GT PUSH1 0x1 DUP2 EQ PUSH2 0x2AB0 JUMPI PUSH1 0x0 DUP5 ISZERO PUSH2 0x2A9E JUMPI DUP3 DUP8 ADD MLOAD SWAP1 POP JUMPDEST PUSH2 0x2AA8 DUP6 DUP3 PUSH2 0x2A2A JUMP JUMPDEST DUP7 SSTORE POP PUSH2 0x2B10 JUMP JUMPDEST PUSH1 0x1F NOT DUP5 AND PUSH2 0x2ABE DUP7 PUSH2 0x289A JUMP JUMPDEST PUSH1 0x0 JUMPDEST DUP3 DUP2 LT ISZERO PUSH2 0x2AE6 JUMPI DUP5 DUP10 ADD MLOAD DUP3 SSTORE PUSH1 0x1 DUP3 ADD SWAP2 POP PUSH1 0x20 DUP6 ADD SWAP5 POP PUSH1 0x20 DUP2 ADD SWAP1 POP PUSH2 0x2AC1 JUMP JUMPDEST DUP7 DUP4 LT ISZERO PUSH2 0x2B03 JUMPI DUP5 DUP10 ADD MLOAD PUSH2 0x2AFF PUSH1 0x1F DUP10 AND DUP3 PUSH2 0x2A0C JUMP JUMPDEST DUP4 SSTORE POP JUMPDEST PUSH1 0x1 PUSH1 0x2 DUP9 MUL ADD DUP9 SSTORE POP POP POP JUMPDEST POP POP POP POP POP POP JUMP JUMPDEST PUSH1 0x0 DUP2 SWAP1 POP SWAP3 SWAP2 POP POP JUMP JUMPDEST PUSH32 0x3C7376672077696474683D2239303022206865696768743D2239303022207669 PUSH1 0x0 DUP3 ADD MSTORE PUSH32 0x6577426F783D223020302033303020333030222066696C6C3D226E6F6E652220 PUSH1 0x20 DUP3 ADD MSTORE PUSH32 0x786D6C6E733D22687474703A2F2F7777772E77332E6F72672F323030302F7376 PUSH1 0x40 DUP3 ADD MSTORE PUSH32 0x67223E3C726563742069643D226267222077696474683D223330302220686569 PUSH1 0x60 DUP3 ADD MSTORE PUSH32 0x6768743D22333030222066696C6C3D2223306330633063222F3E3C7265637420 PUSH1 0x80 DUP3 ADD MSTORE PUSH32 0x636C6173733D226461726B2D7374726F6B652220783D2237352E352220793D22 PUSH1 0xA0 DUP3 ADD MSTORE PUSH32 0x34352E35222077696474683D2231343922206865696768743D22323131222066 PUSH1 0xC0 DUP3 ADD MSTORE PUSH32 0x696C6C3D227768697465222F3E3C672069643D226C6F676F223E3C7061746820 PUSH1 0xE0 DUP3 ADD MSTORE PUSH32 0x643D224D3134312E352035392E323838364C3134332035372E373838364C3134 PUSH2 0x100 DUP3 ADD MSTORE PUSH32 0x342E352035392E323838365636392E323838394C3134332037302E3738394C31 PUSH2 0x120 DUP3 ADD MSTORE PUSH32 0x34312E352036392E323838395635392E323838365A222F3E3C7061746820643D PUSH2 0x140 DUP3 ADD MSTORE PUSH32 0x224D3135352E352035392E323838364C3135372035372E373838364C3135382E PUSH2 0x160 DUP3 ADD MSTORE PUSH32 0x352035392E323838365636392E323838394C3135372037302E3738394C313535 PUSH2 0x180 DUP3 ADD MSTORE PUSH32 0x2E352036392E323838395635392E323838365A222F3E3C7061746820643D224D PUSH2 0x1A0 DUP3 ADD MSTORE PUSH32 0x3135352036392E373838374C3135362E352037312E323838374C313535203732 PUSH2 0x1C0 DUP3 ADD MSTORE PUSH32 0x2E373838384C3134352037322E373838384C3134332E352037312E323838374C PUSH2 0x1E0 DUP3 ADD MSTORE PUSH32 0x3134352036392E373838374C3135352036392E373838375A222F3E3C2F673E3C PUSH2 0x200 DUP3 ADD MSTORE PUSH32 0x6C696E6520636C6173733D226461726B2D7374726F6B65222078313D22383822 PUSH2 0x220 DUP3 ADD MSTORE PUSH32 0x2079313D2238342E32333437222078323D22323132222079323D2238342E3233 PUSH2 0x240 DUP3 ADD MSTORE PUSH32 0x3437222F3E3C6C696E6520636C6173733D226461726B2D7374726F6B65222078 PUSH2 0x260 DUP3 ADD MSTORE PUSH32 0x313D223838222079313D223130332E363735222078323D22323132222079323D PUSH2 0x280 DUP3 ADD MSTORE PUSH32 0x223130332E363735222F3E3C7465787420666F6E742D7765696768743D22626F PUSH2 0x2A0 DUP3 ADD MSTORE PUSH32 0x6C642220666F6E742D73697A653D2238223E3C747370616E20783D2231353022 PUSH2 0x2C0 DUP3 ADD MSTORE PUSH32 0x20793D2239362E39353836223E55494E5453204F45202D2050524F4F46204F46 PUSH2 0x2E0 DUP3 ADD MSTORE PUSH32 0x204348414E47453C2F747370616E3E3C2F746578743E3C7465787420666F6E74 PUSH2 0x300 DUP3 ADD MSTORE PUSH32 0x2D73697A653D223132223E3C747370616E20783D223135302220793D22313139 PUSH2 0x320 DUP3 ADD MSTORE PUSH32 0x2E323339223E2300000000000000000000000000000000000000000000000000 PUSH2 0x340 DUP3 ADD MSTORE POP JUMP JUMPDEST PUSH1 0x0 PUSH2 0x2F49 PUSH2 0x347 DUP4 PUSH2 0x2B18 JUMP JUMPDEST SWAP2 POP PUSH2 0x2F54 DUP3 PUSH2 0x2B23 JUMP JUMPDEST PUSH2 0x347 DUP3 ADD SWAP1 POP SWAP2 SWAP1 POP JUMP JUMPDEST PUSH1 0x0 PUSH2 0x2F6B DUP3 PUSH2 0x208A JUMP JUMPDEST PUSH2 0x2F75 DUP2 DUP6 PUSH2 0x2B18 JUMP JUMPDEST SWAP4 POP PUSH2 0x2F85 DUP2 DUP6 PUSH1 0x20 DUP7 ADD PUSH2 0x20A6 JUMP JUMPDEST DUP1 DUP5 ADD SWAP2 POP POP SWAP3 SWAP2 POP POP JUMP JUMPDEST PUSH32 0x3C2F747370616E3E3C2F746578743E3C6C696E6520636C6173733D2264617368 PUSH1 0x0 DUP3 ADD MSTORE PUSH32 0x6C696E65206461726B2D7374726F6B65222078313D2238382E35222079313D22 PUSH1 0x20 DUP3 ADD MSTORE PUSH32 0x3132352E343831222078323D223231312E35222079323D223132352E34383122 PUSH1 0x40 DUP3 ADD MSTORE PUSH32 0x2F3E3C7465787420636C6173733D226C696E652D6974656D73223E3C74737061 PUSH1 0x60 DUP3 ADD MSTORE PUSH32 0x6E20783D2238382220793D223134382E323733223E504F534954494F4E3A2000 PUSH1 0x80 DUP3 ADD MSTORE POP JUMP JUMPDEST PUSH1 0x0 PUSH2 0x305F PUSH1 0x9F DUP4 PUSH2 0x2B18 JUMP JUMPDEST SWAP2 POP PUSH2 0x306A DUP3 PUSH2 0x2F91 JUMP JUMPDEST PUSH1 0x9F DUP3 ADD SWAP1 POP SWAP2 SWAP1 POP JUMP JUMPDEST PUSH32 0x3C2F747370616E3E3C747370616E20783D2238382220793D223136342E323733 PUSH1 0x0 DUP3 ADD MSTORE PUSH32 0x223E434F4C4F523A200000000000000000000000000000000000000000000000 PUSH1 0x20 DUP3 ADD MSTORE POP JUMP JUMPDEST PUSH1 0x0 PUSH2 0x30D1 PUSH1 0x29 DUP4 PUSH2 0x2B18 JUMP JUMPDEST SWAP2 POP PUSH2 0x30DC DUP3 PUSH2 0x3075 JUMP JUMPDEST PUSH1 0x29 DUP3 ADD SWAP1 POP SWAP2 SWAP1 POP JUMP JUMPDEST PUSH32 0x3C2F747370616E3E3C747370616E20783D2238382220793D223138302E323733 PUSH1 0x0 DUP3 ADD MSTORE PUSH32 0x223E4348414E4745442042593A20000000000000000000000000000000000000 PUSH1 0x20 DUP3 ADD MSTORE POP JUMP JUMPDEST PUSH1 0x0 PUSH2 0x3143 PUSH1 0x2E DUP4 PUSH2 0x2B18 JUMP JUMPDEST SWAP2 POP PUSH2 0x314E DUP3 PUSH2 0x30E7 JUMP JUMPDEST PUSH1 0x2E DUP3 ADD SWAP1 POP SWAP2 SWAP1 POP JUMP JUMPDEST PUSH32 0x3C2F747370616E3E3C747370616E20783D2238382220793D223139362E323733 PUSH1 0x0 DUP3 ADD MSTORE PUSH32 0x223E55494E545320555345443A20230000000000000000000000000000000000 PUSH1 0x20 DUP3 ADD MSTORE POP JUMP JUMPDEST PUSH1 0x0 PUSH2 0x31B5 PUSH1 0x2F DUP4 PUSH2 0x2B18 JUMP JUMPDEST SWAP2 POP PUSH2 0x31C0 DUP3 PUSH2 0x3159 JUMP JUMPDEST PUSH1 0x2F DUP3 ADD SWAP1 POP SWAP2 SWAP1 POP JUMP JUMPDEST PUSH32 0x3C2F747370616E3E3C747370616E20783D2238382220793D223231322E323733 PUSH1 0x0 DUP3 ADD MSTORE PUSH32 0x223E54494D455354414D503A2000000000000000000000000000000000000000 PUSH1 0x20 DUP3 ADD MSTORE POP JUMP JUMPDEST PUSH1 0x0 PUSH2 0x3227 PUSH1 0x2D DUP4 PUSH2 0x2B18 JUMP JUMPDEST SWAP2 POP PUSH2 0x3232 DUP3 PUSH2 0x31CB JUMP JUMPDEST PUSH1 0x2D DUP3 ADD SWAP1 POP SWAP2 SWAP1 POP JUMP JUMPDEST PUSH32 0x3C2F747370616E3E3C2F746578743E3C6C696E6520636C6173733D2264617368 PUSH1 0x0 DUP3 ADD MSTORE PUSH32 0x6C696E65206461726B2D7374726F6B65222078313D2238382E35222079313D22 PUSH1 0x20 DUP3 ADD MSTORE PUSH32 0x3233322E373837222078323D223231312E35222079323D223233322E37383722 PUSH1 0x40 DUP3 ADD MSTORE PUSH32 0x2F3E3C746578742069643D224E554D4245525320415245204152542C20414E44 PUSH1 0x60 DUP3 ADD MSTORE PUSH32 0x2057452041524520415254495354532220666F6E742D73697A653D2235223E3C PUSH1 0x80 DUP3 ADD MSTORE PUSH32 0x747370616E20783D223135302220793D223234352E353131223E4E554D424552 PUSH1 0xA0 DUP3 ADD MSTORE PUSH32 0x5320415245204152542C20414E442057452041524520415254495354533C2F74 PUSH1 0xC0 DUP3 ADD MSTORE PUSH32 0x7370616E3E3C2F746578743E3C7374796C653E2362677B66696C6C3A00000000 PUSH1 0xE0 DUP3 ADD MSTORE POP JUMP JUMPDEST PUSH1 0x0 PUSH2 0x337D PUSH1 0xFC DUP4 PUSH2 0x2B18 JUMP JUMPDEST SWAP2 POP PUSH2 0x3388 DUP3 PUSH2 0x323D JUMP JUMPDEST PUSH1 0xFC DUP3 ADD SWAP1 POP SWAP2 SWAP1 POP JUMP JUMPDEST PUSH32 0x7D236C6F676F20706174687B66696C6C3A233063306330637D2E646173686C69 PUSH1 0x0 DUP3 ADD MSTORE PUSH32 0x6E657B7374726F6B652D6C696E656361703A7371756172653B7374726F6B652D PUSH1 0x20 DUP3 ADD MSTORE PUSH32 0x6461736861727261793A3220343B7D746578747B666F6E742D66616D696C793A PUSH1 0x40 DUP3 ADD MSTORE PUSH32 0x73616E732D73657269663B66696C6C3A233063306330633B746578742D616E63 PUSH1 0x60 DUP3 ADD MSTORE PUSH32 0x686F723A6D6964646C657D2E6C696E652D6974656D737B666F6E742D73697A65 PUSH1 0x80 DUP3 ADD MSTORE PUSH32 0x3A3870783B746578742D616E63686F723A73746172747D2E6461726B2D737472 PUSH1 0xA0 DUP3 ADD MSTORE PUSH32 0x6F6B657B7374726F6B653A233063306330637D3C2F7374796C653E3C2F737667 PUSH1 0xC0 DUP3 ADD MSTORE PUSH32 0x3E00000000000000000000000000000000000000000000000000000000000000 PUSH1 0xE0 DUP3 ADD MSTORE POP JUMP JUMPDEST PUSH1 0x0 PUSH2 0x34D3 PUSH1 0xE1 DUP4 PUSH2 0x2B18 JUMP JUMPDEST SWAP2 POP PUSH2 0x34DE DUP3 PUSH2 0x3393 JUMP JUMPDEST PUSH1 0xE1 DUP3 ADD SWAP1 POP SWAP2 SWAP1 POP JUMP JUMPDEST PUSH1 0x0 PUSH2 0x34F4 DUP3 PUSH2 0x2F3B JUMP JUMPDEST SWAP2 POP PUSH2 0x3500 DUP3 DUP11 PUSH2 0x2F60 JUMP JUMPDEST SWAP2 POP PUSH2 0x350B DUP3 PUSH2 0x3052 JUMP JUMPDEST SWAP2 POP PUSH2 0x3517 DUP3 DUP10 PUSH2 0x2F60 JUMP JUMPDEST SWAP2 POP PUSH2 0x3522 DUP3 PUSH2 0x30C4 JUMP JUMPDEST SWAP2 POP PUSH2 0x352E DUP3 DUP9 PUSH2 0x2F60 JUMP JUMPDEST SWAP2 POP PUSH2 0x3539 DUP3 PUSH2 0x3136 JUMP JUMPDEST SWAP2 POP PUSH2 0x3545 DUP3 DUP8 PUSH2 0x2F60 JUMP JUMPDEST SWAP2 POP PUSH2 0x3550 DUP3 PUSH2 0x31A8 JUMP JUMPDEST SWAP2 POP PUSH2 0x355C DUP3 DUP7 PUSH2 0x2F60 JUMP JUMPDEST SWAP2 POP PUSH2 0x3567 DUP3 PUSH2 0x321A JUMP JUMPDEST SWAP2 POP PUSH2 0x3573 DUP3 DUP6 PUSH2 0x2F60 JUMP JUMPDEST SWAP2 POP PUSH2 0x357E DUP3 PUSH2 0x3370 JUMP JUMPDEST SWAP2 POP PUSH2 0x358A DUP3 DUP5 PUSH2 0x2F60 JUMP JUMPDEST SWAP2 POP PUSH2 0x3595 DUP3 PUSH2 0x34C6 JUMP JUMPDEST SWAP2 POP DUP2 SWAP1 POP SWAP9 SWAP8 POP POP POP POP POP POP POP POP JUMP JUMPDEST PUSH32 0x7B226E616D65223A202255494E54532045646974696F6E204368616E67652000 PUSH1 0x0 DUP3 ADD MSTORE POP JUMP JUMPDEST PUSH1 0x0 PUSH2 0x35DC PUSH1 0x1F DUP4 PUSH2 0x2B18 JUMP JUMPDEST SWAP2 POP PUSH2 0x35E7 DUP3 PUSH2 0x35A6 JUMP JUMPDEST PUSH1 0x1F DUP3 ADD SWAP1 POP SWAP2 SWAP1 POP JUMP JUMPDEST PUSH32 0x222C20226465736372697074696F6E223A202255494E54532045646974696F6E PUSH1 0x0 DUP3 ADD MSTORE PUSH32 0x204368616E676573206172652072656365697074732067656E65726174656420 PUSH1 0x20 DUP3 ADD MSTORE PUSH32 0x6279206D616B696E672061206368616E676520746F207468652055494E545320 PUSH1 0x40 DUP3 ADD MSTORE PUSH32 0x45646974696F6E206172742E222C200000000000000000000000000000000000 PUSH1 0x60 DUP3 ADD MSTORE POP JUMP JUMPDEST PUSH1 0x0 PUSH2 0x369A PUSH1 0x6F DUP4 PUSH2 0x2B18 JUMP JUMPDEST SWAP2 POP PUSH2 0x36A5 DUP3 PUSH2 0x35F2 JUMP JUMPDEST PUSH1 0x6F DUP3 ADD SWAP1 POP SWAP2 SWAP1 POP JUMP JUMPDEST PUSH32 0x2261747472696275746573223A205B7B22646973706C61795F74797065223A20 PUSH1 0x0 DUP3 ADD MSTORE PUSH32 0x226E756D626572222C202274726169745F74797065223A20224368616E676520 PUSH1 0x20 DUP3 ADD MSTORE PUSH32 0x6E756D626572222C202276616C7565223A200000000000000000000000000000 PUSH1 0x40 DUP3 ADD MSTORE POP JUMP JUMPDEST PUSH1 0x0 PUSH2 0x3732 PUSH1 0x52 DUP4 PUSH2 0x2B18 JUMP JUMPDEST SWAP2 POP PUSH2 0x373D DUP3 PUSH2 0x36B0 JUMP JUMPDEST PUSH1 0x52 DUP3 ADD SWAP1 POP SWAP2 SWAP1 POP JUMP JUMPDEST PUSH32 0x7D2C7B22646973706C61795F74797065223A20226E756D626572222C20227472 PUSH1 0x0 DUP3 ADD MSTORE PUSH32 0x6169745F74797065223A2022506F736974696F6E222C202276616C7565223A20 PUSH1 0x20 DUP3 ADD MSTORE POP JUMP JUMPDEST PUSH1 0x0 PUSH2 0x37A4 PUSH1 0x40 DUP4 PUSH2 0x2B18 JUMP JUMPDEST SWAP2 POP PUSH2 0x37AF DUP3 PUSH2 0x3748 JUMP JUMPDEST PUSH1 0x40 DUP3 ADD SWAP1 POP SWAP2 SWAP1 POP JUMP JUMPDEST PUSH32 0x7D2C7B2274726169745F74797065223A2022436F6C6F72222C202276616C7565 PUSH1 0x0 DUP3 ADD MSTORE PUSH32 0x223A202200000000000000000000000000000000000000000000000000000000 PUSH1 0x20 DUP3 ADD MSTORE POP JUMP JUMPDEST PUSH1 0x0 PUSH2 0x3816 PUSH1 0x24 DUP4 PUSH2 0x2B18 JUMP JUMPDEST SWAP2 POP PUSH2 0x3821 DUP3 PUSH2 0x37BA JUMP JUMPDEST PUSH1 0x24 DUP3 ADD SWAP1 POP SWAP2 SWAP1 POP JUMP JUMPDEST PUSH1 0x0 DUP2 SLOAD PUSH2 0x3839 DUP2 PUSH2 0x27FD JUMP JUMPDEST PUSH2 0x3843 DUP2 DUP7 PUSH2 0x2B18 JUMP JUMPDEST SWAP5 POP PUSH1 0x1 DUP3 AND PUSH1 0x0 DUP2 EQ PUSH2 0x385E JUMPI PUSH1 0x1 DUP2 EQ PUSH2 0x3873 JUMPI PUSH2 0x38A6 JUMP JUMPDEST PUSH1 0xFF NOT DUP4 AND DUP7 MSTORE DUP2 ISZERO ISZERO DUP3 MUL DUP7 ADD SWAP4 POP PUSH2 0x38A6 JUMP JUMPDEST PUSH2 0x387C DUP6 PUSH2 0x289A JUMP JUMPDEST PUSH1 0x0 JUMPDEST DUP4 DUP2 LT ISZERO PUSH2 0x389E JUMPI DUP2 SLOAD DUP2 DUP10 ADD MSTORE PUSH1 0x1 DUP3 ADD SWAP2 POP PUSH1 0x20 DUP2 ADD SWAP1 POP PUSH2 0x387F JUMP JUMPDEST DUP4 DUP9 ADD SWAP6 POP POP POP JUMPDEST POP POP POP SWAP3 SWAP2 POP POP JUMP JUMPDEST PUSH32 0x227D2C7B2274726169745F74797065223A20224368616E676564206279222C20 PUSH1 0x0 DUP3 ADD MSTORE PUSH32 0x2276616C7565223A202230780000000000000000000000000000000000000000 PUSH1 0x20 DUP3 ADD MSTORE POP JUMP JUMPDEST PUSH1 0x0 PUSH2 0x390B PUSH1 0x2C DUP4 PUSH2 0x2B18 JUMP JUMPDEST SWAP2 POP PUSH2 0x3916 DUP3 PUSH2 0x38AF JUMP JUMPDEST PUSH1 0x2C DUP3 ADD SWAP1 POP SWAP2 SWAP1 POP JUMP JUMPDEST PUSH32 0x227D2C7B22646973706C61795F74797065223A202264617465222C2022747261 PUSH1 0x0 DUP3 ADD MSTORE PUSH32 0x69745F74797065223A202244617465222C202276616C7565223A200000000000 PUSH1 0x20 DUP3 ADD MSTORE POP JUMP JUMPDEST PUSH1 0x0 PUSH2 0x397D PUSH1 0x3B DUP4 PUSH2 0x2B18 JUMP JUMPDEST SWAP2 POP PUSH2 0x3988 DUP3 PUSH2 0x3921 JUMP JUMPDEST PUSH1 0x3B DUP3 ADD SWAP1 POP SWAP2 SWAP1 POP JUMP JUMPDEST PUSH32 0x7D5D2C2022696D616765223A2022646174613A696D6167652F7376672B786D6C PUSH1 0x0 DUP3 ADD MSTORE PUSH32 0x3B6261736536342C000000000000000000000000000000000000000000000000 PUSH1 0x20 DUP3 ADD MSTORE POP JUMP JUMPDEST PUSH1 0x0 PUSH2 0x39EF PUSH1 0x28 DUP4 PUSH2 0x2B18 JUMP JUMPDEST SWAP2 POP PUSH2 0x39FA DUP3 PUSH2 0x3993 JUMP JUMPDEST PUSH1 0x28 DUP3 ADD SWAP1 POP SWAP2 SWAP1 POP JUMP JUMPDEST PUSH32 0x227D000000000000000000000000000000000000000000000000000000000000 PUSH1 0x0 DUP3 ADD MSTORE POP JUMP JUMPDEST PUSH1 0x0 PUSH2 0x3A3B PUSH1 0x2 DUP4 PUSH2 0x2B18 JUMP JUMPDEST SWAP2 POP PUSH2 0x3A46 DUP3 PUSH2 0x3A05 JUMP JUMPDEST PUSH1 0x2 DUP3 ADD SWAP1 POP SWAP2 SWAP1 POP JUMP JUMPDEST PUSH1 0x0 PUSH2 0x3A5C DUP3 PUSH2 0x35CF JUMP JUMPDEST SWAP2 POP PUSH2 0x3A68 DUP3 DUP11 PUSH2 0x2F60 JUMP JUMPDEST SWAP2 POP PUSH2 0x3A73 DUP3 PUSH2 0x368D JUMP JUMPDEST SWAP2 POP PUSH2 0x3A7E DUP3 PUSH2 0x3725 JUMP JUMPDEST SWAP2 POP PUSH2 0x3A8A DUP3 DUP10 PUSH2 0x2F60 JUMP JUMPDEST SWAP2 POP PUSH2 0x3A95 DUP3 PUSH2 0x3797 JUMP JUMPDEST SWAP2 POP PUSH2 0x3AA1 DUP3 DUP9 PUSH2 0x2F60 JUMP JUMPDEST SWAP2 POP PUSH2 0x3AAC DUP3 PUSH2 0x3809 JUMP JUMPDEST SWAP2 POP PUSH2 0x3AB8 DUP3 DUP8 PUSH2 0x382C JUMP JUMPDEST SWAP2 POP PUSH2 0x3AC3 DUP3 PUSH2 0x38FE JUMP JUMPDEST SWAP2 POP PUSH2 0x3ACF DUP3 DUP7 PUSH2 0x2F60 JUMP JUMPDEST SWAP2 POP PUSH2 0x3ADA DUP3 PUSH2 0x3970 JUMP JUMPDEST SWAP2 POP PUSH2 0x3AE6 DUP3 DUP6 PUSH2 0x2F60 JUMP JUMPDEST SWAP2 POP PUSH2 0x3AF1 DUP3 PUSH2 0x39E2 JUMP JUMPDEST SWAP2 POP PUSH2 0x3AFD DUP3 DUP5 PUSH2 0x2F60 JUMP JUMPDEST SWAP2 POP PUSH2 0x3B08 DUP3 PUSH2 0x3A2E JUMP JUMPDEST SWAP2 POP DUP2 SWAP1 POP SWAP9 SWAP8 POP POP POP POP POP POP POP POP JUMP JUMPDEST PUSH32 0x646174613A6170706C69636174696F6E2F6A736F6E3B6261736536342C000000 PUSH1 0x0 DUP3 ADD MSTORE POP JUMP JUMPDEST PUSH1 0x0 PUSH2 0x3B4F PUSH1 0x1D DUP4 PUSH2 0x2B18 JUMP JUMPDEST SWAP2 POP PUSH2 0x3B5A DUP3 PUSH2 0x3B19 JUMP JUMPDEST PUSH1 0x1D DUP3 ADD SWAP1 POP SWAP2 SWAP1 POP JUMP JUMPDEST PUSH1 0x0 PUSH2 0x3B70 DUP3 PUSH2 0x3B42 JUMP JUMPDEST SWAP2 POP PUSH2 0x3B7C DUP3 DUP5 PUSH2 0x2F60 JUMP JUMPDEST SWAP2 POP DUP2 SWAP1 POP SWAP3 SWAP2 POP POP JUMP JUMPDEST PUSH32 0x4F776E61626C653A206E6577206F776E657220697320746865207A65726F2061 PUSH1 0x0 DUP3 ADD MSTORE PUSH32 0x6464726573730000000000000000000000000000000000000000000000000000 PUSH1 0x20 DUP3 ADD MSTORE POP JUMP JUMPDEST PUSH1 0x0 PUSH2 0x3BE3 PUSH1 0x26 DUP4 PUSH2 0x2095 JUMP JUMPDEST SWAP2 POP PUSH2 0x3BEE DUP3 PUSH2 0x3B87 JUMP JUMPDEST PUSH1 0x40 DUP3 ADD SWAP1 POP SWAP2 SWAP1 POP JUMP JUMPDEST PUSH1 0x0 PUSH1 0x20 DUP3 ADD SWAP1 POP DUP2 DUP2 SUB PUSH1 0x0 DUP4 ADD MSTORE PUSH2 0x3C12 DUP2 PUSH2 0x3BD6 JUMP JUMPDEST SWAP1 POP SWAP2 SWAP1 POP JUMP JUMPDEST PUSH32 0x4F776E61626C653A2063616C6C6572206973206E6F7420746865206F776E6572 PUSH1 0x0 DUP3 ADD MSTORE POP JUMP JUMPDEST PUSH1 0x0 PUSH2 0x3C4F PUSH1 0x20 DUP4 PUSH2 0x2095 JUMP JUMPDEST SWAP2 POP PUSH2 0x3C5A DUP3 PUSH2 0x3C19 JUMP JUMPDEST PUSH1 0x20 DUP3 ADD SWAP1 POP SWAP2 SWAP1 POP JUMP JUMPDEST PUSH1 0x0 PUSH1 0x20 DUP3 ADD SWAP1 POP DUP2 DUP2 SUB PUSH1 0x0 DUP4 ADD MSTORE PUSH2 0x3C7E DUP2 PUSH2 0x3C42 JUMP JUMPDEST SWAP1 POP SWAP2 SWAP1 POP JUMP JUMPDEST PUSH1 0x0 DUP2 MLOAD SWAP1 POP SWAP2 SWAP1 POP JUMP JUMPDEST PUSH1 0x0 DUP3 DUP3 MSTORE PUSH1 0x20 DUP3 ADD SWAP1 POP SWAP3 SWAP2 POP POP JUMP JUMPDEST PUSH1 0x0 PUSH2 0x3CAC DUP3 PUSH2 0x3C85 JUMP JUMPDEST PUSH2 0x3CB6 DUP2 DUP6 PUSH2 0x3C90 JUMP JUMPDEST SWAP4 POP PUSH2 0x3CC6 DUP2 DUP6 PUSH1 0x20 DUP7 ADD PUSH2 0x20A6 JUMP JUMPDEST PUSH2 0x3CCF DUP2 PUSH2 0x20D0 JUMP JUMPDEST DUP5 ADD SWAP2 POP POP SWAP3 SWAP2 POP POP JUMP JUMPDEST PUSH1 0x0 PUSH1 0x80 DUP3 ADD SWAP1 POP PUSH2 0x3CEF PUSH1 0x0 DUP4 ADD DUP8 PUSH2 0x21D1 JUMP JUMPDEST PUSH2 0x3CFC PUSH1 0x20 DUP4 ADD DUP7 PUSH2 0x21D1 JUMP JUMPDEST PUSH2 0x3D09 PUSH1 0x40 DUP4 ADD DUP6 PUSH2 0x2445 JUMP JUMPDEST DUP2 DUP2 SUB PUSH1 0x60 DUP4 ADD MSTORE PUSH2 0x3D1B DUP2 DUP5 PUSH2 0x3CA1 JUMP JUMPDEST SWAP1 POP SWAP6 SWAP5 POP POP POP POP POP JUMP JUMPDEST PUSH1 0x0 DUP2 MLOAD SWAP1 POP PUSH2 0x3D35 DUP2 PUSH2 0x1FFB JUMP JUMPDEST SWAP3 SWAP2 POP POP JUMP JUMPDEST PUSH1 0x0 PUSH1 0x20 DUP3 DUP5 SUB SLT ISZERO PUSH2 0x3D51 JUMPI PUSH2 0x3D50 PUSH2 0x1FC5 JUMP JUMPDEST JUMPDEST PUSH1 0x0 PUSH2 0x3D5F DUP5 DUP3 DUP6 ADD PUSH2 0x3D26 JUMP JUMPDEST SWAP2 POP POP SWAP3 SWAP2 POP POP JUMP JUMPDEST PUSH32 0x4E487B7100000000000000000000000000000000000000000000000000000000 PUSH1 0x0 MSTORE PUSH1 0x11 PUSH1 0x4 MSTORE PUSH1 0x24 PUSH1 0x0 REVERT JUMPDEST PUSH1 0x0 PUSH2 0x3DA2 DUP3 PUSH2 0x213C JUMP JUMPDEST SWAP2 POP PUSH2 0x3DAD DUP4 PUSH2 0x213C JUMP JUMPDEST SWAP3 POP DUP3 DUP3 SUB SWAP1 POP DUP2 DUP2 GT ISZERO PUSH2 0x3DC5 JUMPI PUSH2 0x3DC4 PUSH2 0x3D68 JUMP JUMPDEST JUMPDEST SWAP3 SWAP2 POP POP JUMP JUMPDEST PUSH32 0x3078000000000000000000000000000000000000000000000000000000000000 PUSH1 0x0 DUP3 ADD MSTORE POP JUMP JUMPDEST PUSH1 0x0 PUSH2 0x3E01 PUSH1 0x2 DUP4 PUSH2 0x2B18 JUMP JUMPDEST SWAP2 POP PUSH2 0x3E0C DUP3 PUSH2 0x3DCB JUMP JUMPDEST PUSH1 0x2 DUP3 ADD SWAP1 POP SWAP2 SWAP1 POP JUMP JUMPDEST PUSH32 0x2E2E2E0000000000000000000000000000000000000000000000000000000000 PUSH1 0x0 DUP3 ADD MSTORE POP JUMP JUMPDEST PUSH1 0x0 PUSH2 0x3E4D PUSH1 0x3 DUP4 PUSH2 0x2B18 JUMP JUMPDEST SWAP2 POP PUSH2 0x3E58 DUP3 PUSH2 0x3E17 JUMP JUMPDEST PUSH1 0x3 DUP3 ADD SWAP1 POP SWAP2 SWAP1 POP JUMP JUMPDEST PUSH1 0x0 PUSH2 0x3E6E DUP3 PUSH2 0x3DF4 JUMP JUMPDEST SWAP2 POP PUSH2 0x3E7A DUP3 DUP6 PUSH2 0x2F60 JUMP JUMPDEST SWAP2 POP PUSH2 0x3E85 DUP3 PUSH2 0x3E40 JUMP JUMPDEST SWAP2 POP PUSH2 0x3E91 DUP3 DUP5 PUSH2 0x2F60 JUMP JUMPDEST SWAP2 POP DUP2 SWAP1 POP SWAP4 SWAP3 POP POP POP JUMP JUMPDEST PUSH1 0x0 PUSH2 0x3EA8 DUP3 PUSH2 0x213C JUMP JUMPDEST SWAP2 POP PUSH2 0x3EB3 DUP4 PUSH2 0x213C JUMP JUMPDEST SWAP3 POP DUP3 DUP3 MUL PUSH2 0x3EC1 DUP2 PUSH2 0x213C JUMP JUMPDEST SWAP2 POP DUP3 DUP3 DIV DUP5 EQ DUP4 ISZERO OR PUSH2 0x3ED8 JUMPI PUSH2 0x3ED7 PUSH2 0x3D68 JUMP JUMPDEST JUMPDEST POP SWAP3 SWAP2 POP POP JUMP JUMPDEST PUSH1 0x0 DUP2 PUSH1 0x1 SHR SWAP1 POP SWAP2 SWAP1 POP JUMP JUMPDEST PUSH1 0x0 DUP1 DUP3 SWAP2 POP DUP4 SWAP1 POP JUMPDEST PUSH1 0x1 DUP6 GT ISZERO PUSH2 0x3F36 JUMPI DUP1 DUP7 DIV DUP2 GT ISZERO PUSH2 0x3F12 JUMPI PUSH2 0x3F11 PUSH2 0x3D68 JUMP JUMPDEST JUMPDEST PUSH1 0x1 DUP6 AND ISZERO PUSH2 0x3F21 JUMPI DUP1 DUP3 MUL SWAP2 POP JUMPDEST DUP1 DUP2 MUL SWAP1 POP PUSH2 0x3F2F DUP6 PUSH2 0x3EDF JUMP JUMPDEST SWAP5 POP PUSH2 0x3EF6 JUMP JUMPDEST SWAP5 POP SWAP5 SWAP3 POP POP POP JUMP JUMPDEST PUSH1 0x0 DUP3 PUSH2 0x3F4F JUMPI PUSH1 0x1 SWAP1 POP PUSH2 0x400B JUMP JUMPDEST DUP2 PUSH2 0x3F5D JUMPI PUSH1 0x0 SWAP1 POP PUSH2 0x400B JUMP JUMPDEST DUP2 PUSH1 0x1 DUP2 EQ PUSH2 0x3F73 JUMPI PUSH1 0x2 DUP2 EQ PUSH2 0x3F7D JUMPI PUSH2 0x3FAC JUMP JUMPDEST PUSH1 0x1 SWAP2 POP POP PUSH2 0x400B JUMP JUMPDEST PUSH1 0xFF DUP5 GT ISZERO PUSH2 0x3F8F JUMPI PUSH2 0x3F8E PUSH2 0x3D68 JUMP JUMPDEST JUMPDEST DUP4 PUSH1 0x2 EXP SWAP2 POP DUP5 DUP3 GT ISZERO PUSH2 0x3FA6 JUMPI PUSH2 0x3FA5 PUSH2 0x3D68 JUMP JUMPDEST JUMPDEST POP PUSH2 0x400B JUMP JUMPDEST POP PUSH1 0x20 DUP4 LT PUSH2 0x133 DUP4 LT AND PUSH1 0x4E DUP5 LT PUSH1 0xB DUP5 LT AND OR ISZERO PUSH2 0x3FE1 JUMPI DUP3 DUP3 EXP SWAP1 POP DUP4 DUP2 GT ISZERO PUSH2 0x3FDC JUMPI PUSH2 0x3FDB PUSH2 0x3D68 JUMP JUMPDEST JUMPDEST PUSH2 0x400B JUMP JUMPDEST PUSH2 0x3FEE DUP5 DUP5 DUP5 PUSH1 0x1 PUSH2 0x3EEC JUMP JUMPDEST SWAP3 POP SWAP1 POP DUP2 DUP5 DIV DUP2 GT ISZERO PUSH2 0x4005 JUMPI PUSH2 0x4004 PUSH2 0x3D68 JUMP JUMPDEST JUMPDEST DUP2 DUP2 MUL SWAP1 POP JUMPDEST SWAP4 SWAP3 POP POP POP JUMP JUMPDEST PUSH1 0x0 PUSH2 0x401D DUP3 PUSH2 0x213C JUMP JUMPDEST SWAP2 POP PUSH2 0x4028 DUP4 PUSH2 0x213C JUMP JUMPDEST SWAP3 POP PUSH2 0x4055 PUSH32 0xFFFFFFFFFFFFFFFFFFFFFFFFFFFFFFFFFFFFFFFFFFFFFFFFFFFFFFFFFFFFFFFF DUP5 DUP5 PUSH2 0x3F3F JUMP JUMPDEST SWAP1 POP SWAP3 SWAP2 POP POP JUMP JUMPDEST PUSH32 0x4E487B7100000000000000000000000000000000000000000000000000000000 PUSH1 0x0 MSTORE PUSH1 0x12 PUSH1 0x4 MSTORE PUSH1 0x24 PUSH1 0x0 REVERT JUMPDEST PUSH1 0x0 PUSH2 0x4097 DUP3 PUSH2 0x213C JUMP JUMPDEST SWAP2 POP PUSH2 0x40A2 DUP4 PUSH2 0x213C JUMP JUMPDEST SWAP3 POP DUP3 PUSH2 0x40B2 JUMPI PUSH2 0x40B1 PUSH2 0x405D JUMP JUMPDEST JUMPDEST DUP3 DUP3 DIV SWAP1 POP SWAP3 SWAP2 POP POP JUMP JUMPDEST PUSH1 0x0 PUSH1 0xFF DUP3 AND SWAP1 POP SWAP2 SWAP1 POP JUMP JUMPDEST PUSH1 0x0 PUSH2 0x40D5 DUP3 PUSH2 0x40BD JUMP JUMPDEST SWAP2 POP PUSH2 0x40E0 DUP4 PUSH2 0x40BD JUMP JUMPDEST SWAP3 POP DUP3 PUSH2 0x40F0 JUMPI PUSH2 0x40EF PUSH2 0x405D JUMP JUMPDEST JUMPDEST DUP3 DUP3 DIV SWAP1 POP SWAP3 SWAP2 POP POP JUMP JUMPDEST PUSH1 0x0 PUSH2 0x4106 DUP3 PUSH2 0x40BD JUMP JUMPDEST SWAP2 POP PUSH2 0x4111 DUP4 PUSH2 0x40BD JUMP JUMPDEST SWAP3 POP DUP3 DUP3 MUL PUSH2 0x411F DUP2 PUSH2 0x40BD JUMP JUMPDEST SWAP2 POP DUP1 DUP3 EQ PUSH2 0x4131 JUMPI PUSH2 0x4130 PUSH2 0x3D68 JUMP JUMPDEST JUMPDEST POP SWAP3 SWAP2 POP POP JUMP JUMPDEST PUSH1 0x0 PUSH2 0x4143 DUP3 PUSH2 0x40BD JUMP JUMPDEST SWAP2 POP PUSH2 0x414E DUP4 PUSH2 0x40BD JUMP JUMPDEST SWAP3 POP DUP3 DUP3 SUB SWAP1 POP PUSH1 0xFF DUP2 GT ISZERO PUSH2 0x4167 JUMPI PUSH2 0x4166 PUSH2 0x3D68 JUMP JUMPDEST JUMPDEST SWAP3 SWAP2 POP POP JUMP JUMPDEST PUSH32 0x4E487B7100000000000000000000000000000000000000000000000000000000 PUSH1 0x0 MSTORE PUSH1 0x32 PUSH1 0x4 MSTORE PUSH1 0x24 PUSH1 0x0 REVERT JUMPDEST PUSH1 0x0 PUSH2 0x41A7 DUP3 PUSH2 0x213C JUMP JUMPDEST SWAP2 POP PUSH2 0x41B2 DUP4 PUSH2 0x213C JUMP JUMPDEST SWAP3 POP DUP3 DUP3 ADD SWAP1 POP DUP1 DUP3 GT ISZERO PUSH2 0x41CA JUMPI PUSH2 0x41C9 PUSH2 0x3D68 JUMP JUMPDEST JUMPDEST SWAP3 SWAP2 POP POP JUMP JUMPDEST PUSH1 0x0 PUSH2 0x41DB DUP3 PUSH2 0x213C JUMP JUMPDEST SWAP2 POP PUSH32 0xFFFFFFFFFFFFFFFFFFFFFFFFFFFFFFFFFFFFFFFFFFFFFFFFFFFFFFFFFFFFFFFF DUP3 SUB PUSH2 0x420D JUMPI PUSH2 0x420C PUSH2 0x3D68 JUMP JUMPDEST JUMPDEST PUSH1 0x1 DUP3 ADD SWAP1 POP SWAP2 SWAP1 POP JUMP JUMPDEST PUSH1 0x0 PUSH2 0x4223 DUP3 PUSH2 0x40BD JUMP JUMPDEST SWAP2 POP PUSH2 0x422E DUP4 PUSH2 0x40BD JUMP JUMPDEST SWAP3 POP DUP3 DUP3 ADD SWAP1 POP PUSH1 0xFF DUP2 GT ISZERO PUSH2 0x4247 JUMPI PUSH2 0x4246 PUSH2 0x3D68 JUMP JUMPDEST JUMPDEST SWAP3 SWAP2 POP POP JUMP INVALID COINBASE TIMESTAMP NUMBER PREVRANDAO GASLIMIT CHAINID SELFBALANCE BASEFEE 0x49 0x4A 0x4B 0x4C 0x4D 0x4E 0x4F POP MLOAD MSTORE MSTORE8 SLOAD SSTORE JUMP JUMPI PC MSIZE GAS PUSH2 0x6263 PUSH5 0x6566676869 PUSH11 0x6B6C6D6E6F707172737475 PUSH23 0x7778797A303132333435363738392B2FA2646970667358 0x22 SLT KECCAK256 PUSH22 0xE94733C880387FF610ED5526E67521D306C9C9F3A810 0xC4 CALLVALUE CALLDATASIZE 0x1F 0xE7 0xDD 0x24 0xFB PUSH15 0x64736F6C6343000812003300000000 "
		},
		"gasEstimates": {
			"creation": {
				"codeDepositCost": "3418200",
				"executionCost": "infinite",
				"totalCost": "infinite"
			},
			"external": {
				"approve(address,uint256)": "infinite",
				"balanceOf(address)": "2927",
				"getApproved(uint256)": "7389",
				"isApprovedForAll(address,address)": "infinite",
				"mint(uint256,uint256,string,address,uint256,uint256)": "infinite",
				"name()": "infinite",
				"owner()": "2611",
				"ownerOf(uint256)": "infinite",
				"renderSvg((uint256,uint256,string,address,uint256,uint256))": "infinite",
				"renounceOwnership()": "30465",
				"safeTransferFrom(address,address,uint256)": "infinite",
				"safeTransferFrom(address,address,uint256,bytes)": "infinite",
				"setApprovalForAll(address,bool)": "infinite",
				"setEditionContract(address)": "27097",
				"supportsInterface(bytes4)": "745",
				"symbol()": "infinite",
				"tokenURI(uint256)": "infinite",
				"totalSupply()": "4607",
				"transferFrom(address,address,uint256)": "infinite",
				"transferOwnership(address)": "30876",
				"withdraw()": "infinite"
			},
			"internal": {
				"_startTokenId()": "23",
				"abbreviateAddress(address)": "infinite",
				"char(bytes1)": "infinite",
				"substring(string memory,uint256,uint256)": "infinite",
				"toAsciiString(address)": "infinite"
			}
		},
		"methodIdentifiers": {
			"approve(address,uint256)": "095ea7b3",
			"balanceOf(address)": "70a08231",
			"getApproved(uint256)": "081812fc",
			"isApprovedForAll(address,address)": "e985e9c5",
			"mint(uint256,uint256,string,address,uint256,uint256)": "10b4b038",
			"name()": "06fdde03",
			"owner()": "8da5cb5b",
			"ownerOf(uint256)": "6352211e",
			"renderSvg((uint256,uint256,string,address,uint256,uint256))": "c0074d68",
			"renounceOwnership()": "715018a6",
			"safeTransferFrom(address,address,uint256)": "42842e0e",
			"safeTransferFrom(address,address,uint256,bytes)": "b88d4fde",
			"setApprovalForAll(address,bool)": "a22cb465",
			"setEditionContract(address)": "433f7b8b",
			"supportsInterface(bytes4)": "01ffc9a7",
			"symbol()": "95d89b41",
			"tokenURI(uint256)": "c87b56dd",
			"totalSupply()": "18160ddd",
			"transferFrom(address,address,uint256)": "23b872dd",
			"transferOwnership(address)": "f2fde38b",
			"withdraw()": "3ccfd60b"
		}
	},
	"abi": [
		{
			"inputs": [],
			"stateMutability": "nonpayable",
			"type": "constructor"
		},
		{
			"inputs": [],
			"name": "ApprovalCallerNotOwnerNorApproved",
			"type": "error"
		},
		{
			"inputs": [],
			"name": "ApprovalQueryForNonexistentToken",
			"type": "error"
		},
		{
			"inputs": [],
			"name": "BalanceQueryForZeroAddress",
			"type": "error"
		},
		{
			"inputs": [],
			"name": "MintERC2309QuantityExceedsLimit",
			"type": "error"
		},
		{
			"inputs": [],
			"name": "MintToZeroAddress",
			"type": "error"
		},
		{
			"inputs": [],
			"name": "MintZeroQuantity",
			"type": "error"
		},
		{
			"inputs": [],
			"name": "OwnerQueryForNonexistentToken",
			"type": "error"
		},
		{
			"inputs": [],
			"name": "OwnershipNotInitializedForExtraData",
			"type": "error"
		},
		{
			"inputs": [],
			"name": "TransferCallerNotOwnerNorApproved",
			"type": "error"
		},
		{
			"inputs": [],
			"name": "TransferFromIncorrectOwner",
			"type": "error"
		},
		{
			"inputs": [],
			"name": "TransferToNonERC721ReceiverImplementer",
			"type": "error"
		},
		{
			"inputs": [],
			"name": "TransferToZeroAddress",
			"type": "error"
		},
		{
			"inputs": [],
			"name": "URIQueryForNonexistentToken",
			"type": "error"
		},
		{
			"anonymous": false,
			"inputs": [
				{
					"indexed": true,
					"internalType": "address",
					"name": "owner",
					"type": "address"
				},
				{
					"indexed": true,
					"internalType": "address",
					"name": "approved",
					"type": "address"
				},
				{
					"indexed": true,
					"internalType": "uint256",
					"name": "tokenId",
					"type": "uint256"
				}
			],
			"name": "Approval",
			"type": "event"
		},
		{
			"anonymous": false,
			"inputs": [
				{
					"indexed": true,
					"internalType": "address",
					"name": "owner",
					"type": "address"
				},
				{
					"indexed": true,
					"internalType": "address",
					"name": "operator",
					"type": "address"
				},
				{
					"indexed": false,
					"internalType": "bool",
					"name": "approved",
					"type": "bool"
				}
			],
			"name": "ApprovalForAll",
			"type": "event"
		},
		{
			"anonymous": false,
			"inputs": [
				{
					"indexed": true,
					"internalType": "uint256",
					"name": "fromTokenId",
					"type": "uint256"
				},
				{
					"indexed": false,
					"internalType": "uint256",
					"name": "toTokenId",
					"type": "uint256"
				},
				{
					"indexed": true,
					"internalType": "address",
					"name": "from",
					"type": "address"
				},
				{
					"indexed": true,
					"internalType": "address",
					"name": "to",
					"type": "address"
				}
			],
			"name": "ConsecutiveTransfer",
			"type": "event"
		},
		{
			"anonymous": false,
			"inputs": [
				{
					"indexed": true,
					"internalType": "address",
					"name": "previousOwner",
					"type": "address"
				},
				{
					"indexed": true,
					"internalType": "address",
					"name": "newOwner",
					"type": "address"
				}
			],
			"name": "OwnershipTransferred",
			"type": "event"
		},
		{
			"anonymous": false,
			"inputs": [
				{
					"indexed": true,
					"internalType": "address",
					"name": "from",
					"type": "address"
				},
				{
					"indexed": true,
					"internalType": "address",
					"name": "to",
					"type": "address"
				},
				{
					"indexed": true,
					"internalType": "uint256",
					"name": "tokenId",
					"type": "uint256"
				}
			],
			"name": "Transfer",
			"type": "event"
		},
		{
			"inputs": [
				{
					"internalType": "address",
					"name": "to",
					"type": "address"
				},
				{
					"internalType": "uint256",
					"name": "tokenId",
					"type": "uint256"
				}
			],
			"name": "approve",
			"outputs": [],
			"stateMutability": "payable",
			"type": "function"
		},
		{
			"inputs": [
				{
					"internalType": "address",
					"name": "owner",
					"type": "address"
				}
			],
			"name": "balanceOf",
			"outputs": [
				{
					"internalType": "uint256",
					"name": "",
					"type": "uint256"
				}
			],
			"stateMutability": "view",
			"type": "function"
		},
		{
			"inputs": [
				{
					"internalType": "uint256",
					"name": "tokenId",
					"type": "uint256"
				}
			],
			"name": "getApproved",
			"outputs": [
				{
					"internalType": "address",
					"name": "",
					"type": "address"
				}
			],
			"stateMutability": "view",
			"type": "function"
		},
		{
			"inputs": [
				{
					"internalType": "address",
					"name": "owner",
					"type": "address"
				},
				{
					"internalType": "address",
					"name": "operator",
					"type": "address"
				}
			],
			"name": "isApprovedForAll",
			"outputs": [
				{
					"internalType": "bool",
					"name": "",
					"type": "bool"
				}
			],
			"stateMutability": "view",
			"type": "function"
		},
		{
			"inputs": [
				{
					"internalType": "uint256",
					"name": "counter",
					"type": "uint256"
				},
				{
					"internalType": "uint256",
					"name": "position",
					"type": "uint256"
				},
				{
					"internalType": "string",
					"name": "color",
					"type": "string"
				},
				{
					"internalType": "address",
					"name": "initiator",
					"type": "address"
				},
				{
					"internalType": "uint256",
					"name": "uintsId",
					"type": "uint256"
				},
				{
					"internalType": "uint256",
					"name": "timestamp",
					"type": "uint256"
				}
			],
			"name": "mint",
			"outputs": [],
			"stateMutability": "nonpayable",
			"type": "function"
		},
		{
			"inputs": [],
			"name": "name",
			"outputs": [
				{
					"internalType": "string",
					"name": "",
					"type": "string"
				}
			],
			"stateMutability": "view",
			"type": "function"
		},
		{
			"inputs": [],
			"name": "owner",
			"outputs": [
				{
					"internalType": "address",
					"name": "",
					"type": "address"
				}
			],
			"stateMutability": "view",
			"type": "function"
		},
		{
			"inputs": [
				{
					"internalType": "uint256",
					"name": "tokenId",
					"type": "uint256"
				}
			],
			"name": "ownerOf",
			"outputs": [
				{
					"internalType": "address",
					"name": "",
					"type": "address"
				}
			],
			"stateMutability": "view",
			"type": "function"
		},
		{
			"inputs": [
				{
					"components": [
						{
							"internalType": "uint256",
							"name": "counter",
							"type": "uint256"
						},
						{
							"internalType": "uint256",
							"name": "position",
							"type": "uint256"
						},
						{
							"internalType": "string",
							"name": "color",
							"type": "string"
						},
						{
							"internalType": "address",
							"name": "initiator",
							"type": "address"
						},
						{
							"internalType": "uint256",
							"name": "uintsId",
							"type": "uint256"
						},
						{
							"internalType": "uint256",
							"name": "timestamp",
							"type": "uint256"
						}
					],
					"internalType": "struct UintsEditionChanges.Receipt",
					"name": "receipt",
					"type": "tuple"
				}
			],
			"name": "renderSvg",
			"outputs": [
				{
					"internalType": "string",
					"name": "",
					"type": "string"
				}
			],
			"stateMutability": "pure",
			"type": "function"
		},
		{
			"inputs": [],
			"name": "renounceOwnership",
			"outputs": [],
			"stateMutability": "nonpayable",
			"type": "function"
		},
		{
			"inputs": [
				{
					"internalType": "address",
					"name": "from",
					"type": "address"
				},
				{
					"internalType": "address",
					"name": "to",
					"type": "address"
				},
				{
					"internalType": "uint256",
					"name": "tokenId",
					"type": "uint256"
				}
			],
			"name": "safeTransferFrom",
			"outputs": [],
			"stateMutability": "payable",
			"type": "function"
		},
		{
			"inputs": [
				{
					"internalType": "address",
					"name": "from",
					"type": "address"
				},
				{
					"internalType": "address",
					"name": "to",
					"type": "address"
				},
				{
					"internalType": "uint256",
					"name": "tokenId",
					"type": "uint256"
				},
				{
					"internalType": "bytes",
					"name": "_data",
					"type": "bytes"
				}
			],
			"name": "safeTransferFrom",
			"outputs": [],
			"stateMutability": "payable",
			"type": "function"
		},
		{
			"inputs": [
				{
					"internalType": "address",
					"name": "operator",
					"type": "address"
				},
				{
					"internalType": "bool",
					"name": "approved",
					"type": "bool"
				}
			],
			"name": "setApprovalForAll",
			"outputs": [],
			"stateMutability": "nonpayable",
			"type": "function"
		},
		{
			"inputs": [
				{
					"internalType": "address",
					"name": "contractAddress",
					"type": "address"
				}
			],
			"name": "setEditionContract",
			"outputs": [],
			"stateMutability": "nonpayable",
			"type": "function"
		},
		{
			"inputs": [
				{
					"internalType": "bytes4",
					"name": "interfaceId",
					"type": "bytes4"
				}
			],
			"name": "supportsInterface",
			"outputs": [
				{
					"internalType": "bool",
					"name": "",
					"type": "bool"
				}
			],
			"stateMutability": "view",
			"type": "function"
		},
		{
			"inputs": [],
			"name": "symbol",
			"outputs": [
				{
					"internalType": "string",
					"name": "",
					"type": "string"
				}
			],
			"stateMutability": "view",
			"type": "function"
		},
		{
			"inputs": [
				{
					"internalType": "uint256",
					"name": "tokenId",
					"type": "uint256"
				}
			],
			"name": "tokenURI",
			"outputs": [
				{
					"internalType": "string",
					"name": "result",
					"type": "string"
				}
			],
			"stateMutability": "view",
			"type": "function"
		},
		{
			"inputs": [],
			"name": "totalSupply",
			"outputs": [
				{
					"internalType": "uint256",
					"name": "",
					"type": "uint256"
				}
			],
			"stateMutability": "view",
			"type": "function"
		},
		{
			"inputs": [
				{
					"internalType": "address",
					"name": "from",
					"type": "address"
				},
				{
					"internalType": "address",
					"name": "to",
					"type": "address"
				},
				{
					"internalType": "uint256",
					"name": "tokenId",
					"type": "uint256"
				}
			],
			"name": "transferFrom",
			"outputs": [],
			"stateMutability": "payable",
			"type": "function"
		},
		{
			"inputs": [
				{
					"internalType": "address",
					"name": "newOwner",
					"type": "address"
				}
			],
			"name": "transferOwnership",
			"outputs": [],
			"stateMutability": "nonpayable",
			"type": "function"
		},
		{
			"inputs": [],
			"name": "withdraw",
			"outputs": [],
			"stateMutability": "nonpayable",
			"type": "function"
		}
	]
}