{
	"data": {
		"bytecode": {
			"linkReferences": {},
			"object": "608060405273d9145cce52d386f254917e481eb44e9943f39138602060006101000a81548173ffffffffffffffffffffffffffffffffffffffff021916908373ffffffffffffffffffffffffffffffffffffffff160217905550602060009054906101000a900473ffffffffffffffffffffffffffffffffffffffff16602160006101000a81548173ffffffffffffffffffffffffffffffffffffffff021916908373ffffffffffffffffffffffffffffffffffffffff1602179055503480156100c857600080fd5b50613738806100d86000396000f3fe608060405234801561001057600080fd5b50600436106100f55760003560e01c806376167a891161009757806398265fac1161006657806398265fac1461028c578063a98f4666146102aa578063d18e81b3146102b4578063da51ba85146102d2576100f5565b806376167a89146102165780637641c510146102345780637fb03d2b14610252578063875cc7a81461026e576100f5565b806326e532db116100d357806326e532db1461017a5780634dcd342d146101aa5780636352211e146101c85780636b47ffd7146101f8576100f5565b806303a1d342146100fa578063057e30871461012c5780630ff4c9161461014a575b600080fd5b610114600480360381019061010f91906113ca565b6102ee565b60405161012393929190611406565b60405180910390f35b61013461031e565b604051610141919061143d565b60405180910390f35b610164600480360381019061015f91906113ca565b610324565b604051610171919061143d565b60405180910390f35b610194600480360381019061018f91906113ca565b6103c9565b6040516101a19190611473565b60405180910390f35b6101b26104dd565b6040516101bf919061151e565b60405180910390f35b6101e260048036038101906101dd91906113ca565b6106b6565b6040516101ef9190611581565b60405180910390f35b61020061075b565b60405161020d919061143d565b60405180910390f35b61021e610761565b60405161022b9190611581565b60405180910390f35b61023c610769565b604051610249919061143d565b60405180910390f35b61026c6004803603810190610267919061159c565b61076f565b005b61027661086b565b604051610283919061143d565b60405180910390f35b610294610871565b6040516102a1919061143d565b60405180910390f35b6102b26108a5565b005b6102bc61094b565b6040516102c9919061143d565b60405180910390f35b6102ec60048036038101906102e791906116c0565b610953565b005b600081600981106102fe57600080fd5b600302016000915090508060000154908060010154908060020154905083565b601e5481565b6000602160009054906101000a900473ffffffffffffffffffffffffffffffffffffffff1673ffffffffffffffffffffffffffffffffffffffff16630ff4c916836040518263ffffffff1660e01b8152600401610381919061143d565b602060405180830381865afa15801561039e573d6000803e3d6000fd5b505050506040513d601f19601f820116820180604052508101906103c29190611702565b9050919050565b6000602160009054906101000a900473ffffffffffffffffffffffffffffffffffffffff1673ffffffffffffffffffffffffffffffffffffffff16636352211e836040518263ffffffff1660e01b8152600401610426919061143d565b602060405180830381865afa158015610443573d6000803e3d6000fd5b505050506040513d601f19601f82011682018060405250810190610467919061175b565b73ffffffffffffffffffffffffffffffffffffffff163373ffffffffffffffffffffffffffffffffffffffff16146104d4576040517f08c379a00000000000000000000000000000000000000000000000000000000081526004016104cb906117d4565b60405180910390fd5b60019050919050565b6060600060405180602001604052806000815250905060005b6009811015610612578161052460008360098110610517576105166117f4565b5b60030201600001546109c3565b6105486000846009811061053b5761053a6117f4565b5b60030201600101546109c3565b61056c6000856009811061055f5761055e6117f4565b5b60030201600201546109c3565b61059060008660098110610583576105826117f4565b5b60030201600001546109c3565b6105b4600087600981106105a7576105a66117f4565b5b60030201600101546109c3565b6105d8600088600981106105cb576105ca6117f4565b5b60030201600201546109c3565b6040516020016105ee9796959493929190611943565b6040516020818303038152906040529150808061060a90611a2f565b9150506104f6565b50806106386000806009811061062b5761062a6117f4565b5b60030201600001546109c3565b61065c6000806009811061064f5761064e6117f4565b5b60030201600101546109c3565b61068060008060098110610673576106726117f4565b5b60030201600201546109c3565b6040516020016106939493929190611a77565b60405160208183030381529060405290506106b0601c5482610b4b565b91505090565b6000602160009054906101000a900473ffffffffffffffffffffffffffffffffffffffff1673ffffffffffffffffffffffffffffffffffffffff16636352211e836040518263ffffffff1660e01b8152600401610713919061143d565b602060405180830381865afa158015610730573d6000803e3d6000fd5b505050506040513d601f19601f82011682018060405250810190610754919061175b565b9050919050565b601d5481565b600033905090565b601c5481565b81601c8190555060006103e882101561078b57600f9050610830565b6107d082101561079e57601e905061082f565b610bb88210156107b157602d905061082e565b610fa08210156107c457603c905061082d565b6113888210156107d757604b905061082c565b6117708210156107ea57605a905061082b565b611b588210156107fd576069905061082a565b611f408210156108105760789050610829565b6123288210156108235760879050610828565b609690505b5b5b5b5b5b5b5b5b603c8161083d9190611ae1565b426108489190611b23565b601d81905550601e600081548092919061086190611a2f565b9190505550505050565b601b5481565b6000601d54421161089d57603c42601d5461088c9190611b57565b6108969190611bba565b90506108a2565b600090505b90565b6000604051806060016040528060ff81526020016000815260200160008152509050600060405180606001604052806000815260200160ff81526020016000815250905060006040518060600160405280600081526020016000815260200160ff815250905060005b60038110156109455761092084610953565b61092983610953565b61093282610953565b808061093d90611a2f565b91505061090e565b50505050565b600042905090565b806000601b546009811061096a576109696117f4565b5b600302016000820151816000015560208201518160010155604082015181600201559050506008601b5410156109b757601b60008154809291906109ad90611a2f565b91905055506109c0565b6000601b819055505b50565b606060008203610a0a576040518060400160405280600181526020017f30000000000000000000000000000000000000000000000000000000000000008152509050610b46565b600082905060005b60008214610a3c578080610a2590611a2f565b915050600a82610a359190611bba565b9150610a12565b60008167ffffffffffffffff811115610a5857610a576115e1565b5b6040519080825280601f01601f191660200182016040528015610a8a5781602001600182028036833780820191505090505b50905060008290505b60008614610b3e57600181610aa89190611b57565b90506000600a8088610aba9190611bba565b610ac49190611ae1565b87610acf9190611b57565b6030610adb9190611bf8565b905060008160f81b905080848481518110610af957610af86117f4565b5b60200101907effffffffffffffffffffffffffffffffffffffffffffffffffffffffffffff1916908160001a905350600a88610b359190611bba565b97505050610a93565b819450505050505b919050565b606060405180611060016040528061103581526020016126ce6110359139905060006040518060400160405280601f81526020017f222f3e3c2f673e3c7374796c653e2362677b66696c6c3a233043304330437d0081525090506000840315610df4576000610bb985610e21565b5190506000610bc88683610fa9565b905060018203610c095782610be2600383606001516110e0565b604051602001610bf3929190611c2d565b6040516020818303038152906040529250610df1565b60028203610c7a5782610c21600283604001516110e0565b604051602001610c32929190611c2d565b604051602081830303815290604052925082610c53600383606001516110e0565b604051602001610c64929190611c2d565b6040516020818303038152906040529250610df0565b60038203610d1d5782610c92600183602001516110e0565b604051602001610ca3929190611c2d565b604051602081830303815290604052925082610cc4600283604001516110e0565b604051602001610cd5929190611c2d565b604051602081830303815290604052925082610cf6600383606001516110e0565b604051602001610d07929190611c2d565b6040516020818303038152906040529250610def565b60048203610dee5782610d35600083600001516110e0565b604051602001610d46929190611c2d565b604051602081830303815290604052925082610d67600183602001516110e0565b604051602001610d78929190611c2d565b604051602081830303815290604052925082610d99600283604001516110e0565b604051602001610daa929190611c2d565b604051602081830303815290604052925082610dcb600383606001516110e0565b604051602001610ddc929190611c2d565b60405160208183030381529060405292505b5b5b5b50505b818382604051602001610e0993929190611c9d565b60405160208183030381529060405291505092915050565b606060008203610e68576040518060400160405280600181526020017f30000000000000000000000000000000000000000000000000000000000000008152509050610fa4565b600082905060005b60008214610e9a578080610e8390611a2f565b915050600a82610e939190611bba565b9150610e70565b60008167ffffffffffffffff811115610eb657610eb56115e1565b5b6040519080825280601f01601f191660200182016040528015610ee85781602001600182028036833780820191505090505b50905060008290505b60008614610f9c57600181610f069190611b57565b90506000600a8088610f189190611bba565b610f229190611ae1565b87610f2d9190611b57565b6030610f399190611bf8565b905060008160f81b905080848481518110610f5757610f566117f4565b5b60200101907effffffffffffffffffffffffffffffffffffffffffffffffffffffffffffff1916908160001a905350600a88610f939190611bba565b97505050610ef1565b819450505050505b919050565b610fb161135d565b60018203610fc857828160600181815250506110da565b6002820361100157600a83610fdd9190611bba565b816040018181525050600a83610ff39190611cd9565b8160600181815250506110d9565b6003820361105c576064836110169190611bba565b816020018181525050600a60648461102e9190611cd9565b6110389190611bba565b816040018181525050600a8361104e9190611cd9565b8160600181815250506110d8565b600482036110d7576103e8836110729190611bba565b81600001818152505060646103e88461108b9190611cd9565b6110959190611bba565b816020018181525050600a6064846110ad9190611cd9565b6110b79190611bba565b816040018181525050600a836110cd9190611cd9565b8160600181815250505b5b5b5b92915050565b606060006110ed84610e21565b9050600083036111295780818283848560405160200161111296959493929190611f1e565b604051602081830303815290604052915050611357565b6001830361115b578081604051602001611144929190612046565b604051602081830303815290604052915050611357565b6002830361119357808182838460405160200161117c9594939291906120e2565b604051602081830303815290604052915050611357565b600383036111cb5780818283846040516020016111b495949392919061219b565b604051602081830303815290604052915050611357565b6004830361120157808182836040516020016111ea9493929190612254565b604051602081830303815290604052915050611357565b600583036112395780818283846040516020016112229594939291906122ea565b604051602081830303815290604052915050611357565b600683036112735780818283848560405160200161125c969594939291906123a3565b604051602081830303815290604052915050611357565b600783036112a7578081826040516020016112909392919061247f565b604051602081830303815290604052915050611357565b600883036112e357808182838485866040516020016112cc97969594939291906124f2565b604051602081830303815290604052915050611357565b6009830361131d57808182838485604051602001611306969594939291906125f1565b604051602081830303815290604052915050611357565b6040518060400160405280600581526020017f6572726f720000000000000000000000000000000000000000000000000000008152509150505b92915050565b6040518060800160405280600081526020016000815260200160008152602001600081525090565b6000604051905090565b600080fd5b6000819050919050565b6113a781611394565b81146113b257600080fd5b50565b6000813590506113c48161139e565b92915050565b6000602082840312156113e0576113df61138f565b5b60006113ee848285016113b5565b91505092915050565b61140081611394565b82525050565b600060608201905061141b60008301866113f7565b61142860208301856113f7565b61143560408301846113f7565b949350505050565b600060208201905061145260008301846113f7565b92915050565b60008115159050919050565b61146d81611458565b82525050565b60006020820190506114886000830184611464565b92915050565b600081519050919050565b600082825260208201905092915050565b60005b838110156114c85780820151818401526020810190506114ad565b60008484015250505050565b6000601f19601f8301169050919050565b60006114f08261148e565b6114fa8185611499565b935061150a8185602086016114aa565b611513816114d4565b840191505092915050565b6000602082019050818103600083015261153881846114e5565b905092915050565b600073ffffffffffffffffffffffffffffffffffffffff82169050919050565b600061156b82611540565b9050919050565b61157b81611560565b82525050565b60006020820190506115966000830184611572565b92915050565b600080604083850312156115b3576115b261138f565b5b60006115c1858286016113b5565b92505060206115d2858286016113b5565b9150509250929050565b600080fd5b7f4e487b7100000000000000000000000000000000000000000000000000000000600052604160045260246000fd5b611619826114d4565b810181811067ffffffffffffffff82111715611638576116376115e1565b5b80604052505050565b600061164b611385565b90506116578282611610565b919050565b600060608284031215611672576116716115dc565b5b61167c6060611641565b9050600061168c848285016113b5565b60008301525060206116a0848285016113b5565b60208301525060406116b4848285016113b5565b60408301525092915050565b6000606082840312156116d6576116d561138f565b5b60006116e48482850161165c565b91505092915050565b6000815190506116fc8161139e565b92915050565b6000602082840312156117185761171761138f565b5b6000611726848285016116ed565b91505092915050565b61173881611560565b811461174357600080fd5b50565b6000815190506117558161172f565b92915050565b6000602082840312156117715761177061138f565b5b600061177f84828501611746565b91505092915050565b7f6e6f7420746865206f776e657200000000000000000000000000000000000000600082015250565b60006117be600d83611499565b91506117c982611788565b602082019050919050565b600060208201905081810360008301526117ed816117b1565b9050919050565b7f4e487b7100000000000000000000000000000000000000000000000000000000600052603260045260246000fd5b600081905092915050565b60006118398261148e565b6118438185611823565b93506118538185602086016114aa565b80840191505092915050565b7f7267622800000000000000000000000000000000000000000000000000000000600082015250565b6000611895600483611823565b91506118a08261185f565b600482019050919050565b7f2c00000000000000000000000000000000000000000000000000000000000000600082015250565b60006118e1600183611823565b91506118ec826118ab565b600182019050919050565b7f293b000000000000000000000000000000000000000000000000000000000000600082015250565b600061192d600283611823565b9150611938826118f7565b600282019050919050565b600061194f828a61182e565b915061195a82611888565b9150611966828961182e565b9150611971826118d4565b915061197d828861182e565b9150611988826118d4565b9150611994828761182e565b915061199f82611920565b91506119aa82611888565b91506119b6828661182e565b91506119c1826118d4565b91506119cd828561182e565b91506119d8826118d4565b91506119e4828461182e565b91506119ef82611920565b915081905098975050505050505050565b7f4e487b7100000000000000000000000000000000000000000000000000000000600052601160045260246000fd5b6000611a3a82611394565b91507fffffffffffffffffffffffffffffffffffffffffffffffffffffffffffffffff8203611a6c57611a6b611a00565b5b600182019050919050565b6000611a83828761182e565b9150611a8e82611888565b9150611a9a828661182e565b9150611aa5826118d4565b9150611ab1828561182e565b9150611abc826118d4565b9150611ac8828461182e565b9150611ad382611920565b915081905095945050505050565b6000611aec82611394565b9150611af783611394565b9250828202611b0581611394565b91508282048414831517611b1c57611b1b611a00565b5b5092915050565b6000611b2e82611394565b9150611b3983611394565b9250828201905080821115611b5157611b50611a00565b5b92915050565b6000611b6282611394565b9150611b6d83611394565b9250828203905081811115611b8557611b84611a00565b5b92915050565b7f4e487b7100000000000000000000000000000000000000000000000000000000600052601260045260246000fd5b6000611bc582611394565b9150611bd083611394565b925082611be057611bdf611b8b565b5b828204905092915050565b600060ff82169050919050565b6000611c0382611beb565b9150611c0e83611beb565b9250828201905060ff811115611c2757611c26611a00565b5b92915050565b6000611c39828561182e565b9150611c45828461182e565b91508190509392505050565b7f3c2f7374796c653e3c2f7376673e000000000000000000000000000000000000600082015250565b6000611c87600e83611823565b9150611c9282611c51565b600e82019050919050565b6000611ca9828661182e565b9150611cb5828561182e565b9150611cc1828461182e565b9150611ccc82611c7a565b9150819050949350505050565b6000611ce482611394565b9150611cef83611394565b925082611cff57611cfe611b8b565b5b828206905092915050565b7f2370000000000000000000000000000000000000000000000000000000000000600082015250565b6000611d40600283611823565b9150611d4b82611d0a565b600282019050919050565b7f312c000000000000000000000000000000000000000000000000000000000000600082015250565b6000611d8c600283611823565b9150611d9782611d56565b600282019050919050565b7f322c000000000000000000000000000000000000000000000000000000000000600082015250565b6000611dd8600283611823565b9150611de382611da2565b600282019050919050565b7f332c000000000000000000000000000000000000000000000000000000000000600082015250565b6000611e24600283611823565b9150611e2f82611dee565b600282019050919050565b7f352c000000000000000000000000000000000000000000000000000000000000600082015250565b6000611e70600283611823565b9150611e7b82611e3a565b600282019050919050565b7f362c000000000000000000000000000000000000000000000000000000000000600082015250565b6000611ebc600283611823565b9150611ec782611e86565b600282019050919050565b7f37207b66696c6c2d6f7061636974793a317d0000000000000000000000000000600082015250565b6000611f08601283611823565b9150611f1382611ed2565b601282019050919050565b6000611f2982611d33565b9150611f35828961182e565b9150611f4082611d7f565b9150611f4b82611d33565b9150611f57828861182e565b9150611f6282611dcb565b9150611f6d82611d33565b9150611f79828761182e565b9150611f8482611e17565b9150611f8f82611d33565b9150611f9b828661182e565b9150611fa682611e63565b9150611fb182611d33565b9150611fbd828561182e565b9150611fc882611eaf565b9150611fd382611d33565b9150611fdf828461182e565b9150611fea82611efb565b9150819050979650505050505050565b7f36207b66696c6c2d6f7061636974793a317d0000000000000000000000000000600082015250565b6000612030601283611823565b915061203b82611ffa565b601282019050919050565b600061205182611d33565b915061205d828561182e565b915061206882611e17565b915061207382611d33565b915061207f828461182e565b915061208a82612023565b91508190509392505050565b7f342c000000000000000000000000000000000000000000000000000000000000600082015250565b60006120cc600283611823565b91506120d782612096565b600282019050919050565b60006120ed82611d33565b91506120f9828861182e565b915061210482611d7f565b915061210f82611d33565b915061211b828761182e565b915061212682611e17565b915061213182611d33565b915061213d828661182e565b9150612148826120bf565b915061215382611d33565b915061215f828561182e565b915061216a82611e63565b915061217582611d33565b9150612181828461182e565b915061218c82611efb565b91508190509695505050505050565b60006121a682611d33565b91506121b2828861182e565b91506121bd82611d7f565b91506121c882611d33565b91506121d4828761182e565b91506121df82611e17565b91506121ea82611d33565b91506121f6828661182e565b9150612201826120bf565b915061220c82611d33565b9150612218828561182e565b915061222382611eaf565b915061222e82611d33565b915061223a828461182e565b915061224582611efb565b91508190509695505050505050565b600061225f82611d33565b915061226b828761182e565b915061227682611dcb565b915061228182611d33565b915061228d828661182e565b915061229882611e17565b91506122a382611d33565b91506122af828561182e565b91506122ba826120bf565b91506122c582611d33565b91506122d1828461182e565b91506122dc82612023565b915081905095945050505050565b60006122f582611d33565b9150612301828861182e565b915061230c82611d7f565b915061231782611d33565b9150612323828761182e565b915061232e82611dcb565b915061233982611d33565b9150612345828661182e565b9150612350826120bf565b915061235b82611d33565b9150612367828561182e565b915061237282611eaf565b915061237d82611d33565b9150612389828461182e565b915061239482611efb565b91508190509695505050505050565b60006123ae82611d33565b91506123ba828961182e565b91506123c582611d7f565b91506123d082611d33565b91506123dc828861182e565b91506123e782611dcb565b91506123f282611d33565b91506123fe828761182e565b9150612409826120bf565b915061241482611d33565b9150612420828661182e565b915061242b82611e63565b915061243682611d33565b9150612442828561182e565b915061244d82611eaf565b915061245882611d33565b9150612464828461182e565b915061246f82611efb565b9150819050979650505050505050565b600061248a82611d33565b9150612496828661182e565b91506124a182611d7f565b91506124ac82611d33565b91506124b8828561182e565b91506124c382611e17565b91506124ce82611d33565b91506124da828461182e565b91506124e582612023565b9150819050949350505050565b60006124fd82611d33565b9150612509828a61182e565b915061251482611d7f565b915061251f82611d33565b915061252b828961182e565b915061253682611dcb565b915061254182611d33565b915061254d828861182e565b915061255882611e17565b915061256382611d33565b915061256f828761182e565b915061257a826120bf565b915061258582611d33565b9150612591828661182e565b915061259c82611e63565b91506125a782611d33565b91506125b3828561182e565b91506125be82611eaf565b91506125c982611d33565b91506125d5828461182e565b91506125e082611efb565b915081905098975050505050505050565b60006125fc82611d33565b9150612608828961182e565b915061261382611d7f565b915061261e82611d33565b915061262a828861182e565b915061263582611dcb565b915061264082611d33565b915061264c828761182e565b915061265782611e17565b915061266282611d33565b915061266e828661182e565b9150612679826120bf565b915061268482611d33565b9150612690828561182e565b915061269b82611eaf565b91506126a682611d33565b91506126b2828461182e565b91506126bd82611efb565b915081905097965050505050505056fe3c7376672077696474683d2239303022206865696768743d22393030222076696577426f783d223020302033303020333030222066696c6c3d226e6f6e652220786d6c6e733d22687474703a2f2f7777772e77332e6f72672f323030302f737667223e3c726563742077696474683d2233303022206865696768743d22333030222066696c6c3d2223304330433043222f3e3c673e3c7061746820643d224d3636203130334832333356313937483636563130335a4d36372e35393035203130342e353933563139352e343037483233312e3431563130342e3539334836372e353930355a222f3e3c706174682069643d227030312220643d224d3130392e343431203132354c3131312e383233203132372e3431394c3130392e343431203132392e3833394c39332e35353838203132392e3833394c39312e31373634203132372e3431394c39332e35353838203132354c3130392e343431203132355a222066696c6c2d6f7061636974793d22302e3035222f3e3c706174682069643d227030322220643d224d3838203133302e3634354c39302e33383234203132382e3232364c39322e37363437203133302e363435563134362e3737344c39302e33383234203134392e3139344c3838203134362e373734563133302e3634355a222066696c6c2d6f7061636974793d22302e3035222f3e3c706174682069643d227030332220643d224d3131302e323335203133302e3634354c3131322e363138203132382e3232364c313135203133302e363435563134362e3737344c3131322e363138203134392e3139344c3131302e323335203134362e373734563133302e3634355a222066696c6c2d6f7061636974793d22302e3035222f3e3c706174682069643d227030342220643d224d3130392e343431203134372e3538314c3131312e383233203135304c3130392e343431203135322e3431394c39332e35353838203135322e3431394c39312e31373634203135304c39332e35353838203134372e3538314c3130392e343431203134372e3538315a222066696c6c2d6f7061636974793d22302e3035222f3e3c706174682069643d227030352220643d224d3838203135332e3232364c39302e33383234203135302e3830364c39322e37363437203135332e323236563136392e3335354c39302e33383234203137312e3737344c3838203136392e333535563135332e3232365a222066696c6c2d6f7061636974793d22302e3035222f3e3c706174682069643d227030362220643d224d3131302e323335203135332e3232364c3131322e363138203135302e3830364c313135203135332e323236563136392e3335354c3131322e363138203137312e3737344c3131302e323335203136392e333535563135332e3232365a222066696c6c2d6f7061636974793d22302e3035222f3e3c706174682069643d227030372220643d224d3130392e343431203137302e3136314c3131312e383233203137322e3538314c3130392e343431203137354c39332e35353838203137354c39312e31373634203137322e3538314c39332e35353838203137302e3136314c3130392e343431203137302e3136315a222066696c6c2d6f7061636974793d22302e3035222f3e3c706174682069643d227031312220643d224d3134312e343431203132354c3134332e383233203132372e3431394c3134312e343431203132392e3833394c3132352e353539203132392e3833394c3132332e313736203132372e3431394c3132352e353539203132354c3134312e343431203132355a222066696c6c2d6f7061636974793d22302e3035222f3e3c706174682069643d227031322220643d224d313230203133302e3634354c3132322e333832203132382e3232364c3132342e373635203133302e363435563134362e3737344c3132322e333832203134392e3139344c313230203134362e373734563133302e3634355a222066696c6c2d6f7061636974793d22302e3035222f3e3c706174682069643d227031332220643d224d3134322e323335203133302e3634354c3134342e363138203132382e3232364c313437203133302e363435563134362e3737344c3134342e363138203134392e3139344c3134322e323335203134362e373734563133302e3634355a222066696c6c2d6f7061636974793d22302e3035222f3e3c706174682069643d227031342220643d224d3134312e343431203134372e3538314c3134332e383233203135304c3134312e343431203135322e3431394c3132352e353539203135322e3431394c3132332e313736203135304c3132352e353539203134372e3538314c3134312e343431203134372e3538315a222066696c6c2d6f7061636974793d22302e3035222f3e3c706174682069643d227031352220643d224d313230203135332e3232364c3132322e333832203135302e3830364c3132342e373635203135332e323236563136392e3335354c3132322e333832203137312e3737344c313230203136392e333535563135332e3232365a222066696c6c2d6f7061636974793d22302e3035222f3e3c706174682069643d227031362220643d224d3134322e323335203135332e3232364c3134342e363138203135302e3830364c313437203135332e323236563136392e3335354c3134342e363138203137312e3737344c3134322e323335203136392e333535563135332e3232365a222066696c6c2d6f7061636974793d22302e3035222f3e3c706174682069643d227031372220643d224d3134312e343431203137302e3136314c3134332e383233203137322e3538314c3134312e343431203137354c3132352e353539203137354c3132332e313736203137322e3538314c3132352e353539203137302e3136314c3134312e343431203137302e3136315a222066696c6c2d6f7061636974793d22302e3035222f3e3c706174682069643d227032312220643d224d3137332e343431203132354c3137352e383233203132372e3431394c3137332e343431203132392e3833394c3135372e353539203132392e3833394c3135352e313736203132372e3431394c3135372e353539203132354c3137332e343431203132355a222066696c6c2d6f7061636974793d22302e3035222f3e3c706174682069643d227032322220643d224d313532203133302e3634354c3135342e333832203132382e3232364c3135362e373635203133302e363435563134362e3737344c3135342e333832203134392e3139344c313532203134362e373734563133302e3634355a222066696c6c2d6f7061636974793d22302e3035222f3e3c706174682069643d227032332220643d224d3137342e323335203133302e3634354c3137362e363138203132382e3232364c313739203133302e363435563134362e3737344c3137362e363138203134392e3139344c3137342e323335203134362e373734563133302e3634355a222066696c6c2d6f7061636974793d22302e3035222f3e3c706174682069643d227032342220643d224d3137332e343431203134372e3538314c3137352e383233203135304c3137332e343431203135322e3431394c3135372e353539203135322e3431394c3135352e313736203135304c3135372e353539203134372e3538314c3137332e343431203134372e3538315a222066696c6c2d6f7061636974793d22302e3035222f3e3c706174682069643d227032352220643d224d313532203135332e3232364c3135342e333832203135302e3830364c3135362e373635203135332e323236563136392e3335354c3135342e333832203137312e3737344c313532203136392e333535563135332e3232365a222066696c6c2d6f7061636974793d22302e3035222f3e3c706174682069643d227032362220643d224d3137342e323335203135332e3232364c3137362e363138203135302e3830364c313739203135332e323236563136392e3335354c3137362e363138203137312e3737344c3137342e323335203136392e333535563135332e3232365a222066696c6c2d6f7061636974793d22302e3035222f3e3c706174682069643d227032372220643d224d3137332e343431203137302e3136314c3137352e383233203137322e3538314c3137332e343431203137354c3135372e353539203137354c3135352e313736203137322e3538314c3135372e353539203137302e3136314c3137332e343431203137302e3136315a222066696c6c2d6f7061636974793d22302e3035222f3e3c706174682069643d227033312220643d224d3230352e343431203132354c3230372e383233203132372e3431394c3230352e343431203132392e3833394c3138392e353539203132392e3833394c3138372e313736203132372e3431394c3138392e353539203132354c3230352e343431203132355a222066696c6c2d6f7061636974793d22302e3035222f3e3c706174682069643d227033322220643d224d313834203133302e3634354c3138362e333832203132382e3232364c3138382e373635203133302e363435563134362e3737344c3138362e333832203134392e3139344c313834203134362e373734563133302e3634355a222066696c6c2d6f7061636974793d22302e3035222f3e3c706174682069643d227033332220643d224d3230362e323335203133302e3634354c3230382e363138203132382e3232364c323131203133302e363435563134362e3737344c3230382e363138203134392e3139344c3230362e323335203134362e373734563133302e3634355a222066696c6c2d6f7061636974793d22302e3035222f3e3c706174682069643d227033342220643d224d3230352e343431203134372e3538314c3230372e383233203135304c3230352e343431203135322e3431394c3138392e353539203135322e3431394c3138372e313736203135304c3138392e353539203134372e3538314c3230352e343431203134372e3538315a222066696c6c2d6f7061636974793d22302e3035222f3e3c706174682069643d227033352220643d224d313834203135332e3232364c3138362e333832203135302e3830364c3138382e373635203135332e323236563136392e3335354c3138362e333832203137312e3737344c313834203136392e333535563135332e3232365a222066696c6c2d6f7061636974793d22302e3035222f3e3c706174682069643d227033362220643d224d3230362e323335203135332e3232364c3230382e363138203135302e3830364c323131203135332e323236563136392e3335354c3230382e363138203137312e3737344c3230362e323335203136392e333535563135332e3232365a222066696c6c2d6f7061636974793d22302e3035222f3e3c706174682069643d227033372220643d224d3230352e343431203137302e3136314c3230372e383233203137322e3538314c3230352e343431203137354c3138392e353539203137354c3138372e313736203137322e3538314c3138392e353539203137302e3136314c3230352e343431203137302e3136315a222066696c6c2d6f7061636974793d22302e3035222f3e3c616e696d617465206174747269627574654e616d653d2266696c6c22206475723d223237732220726570656174436f756e743d22696e646566696e697465222076616c7565733d22a26469706673582212208f47c4ed1ecd8172e13b728d212dc9e1a0061507c4b2676f0dc206017a59f43464736f6c63430008120033",
			"opcodes": "PUSH1 0x80 PUSH1 0x40 MSTORE PUSH20 0xD9145CCE52D386F254917E481EB44E9943F39138 PUSH1 0x20 PUSH1 0x0 PUSH2 0x100 EXP DUP2 SLOAD DUP2 PUSH20 0xFFFFFFFFFFFFFFFFFFFFFFFFFFFFFFFFFFFFFFFF MUL NOT AND SWAP1 DUP4 PUSH20 0xFFFFFFFFFFFFFFFFFFFFFFFFFFFFFFFFFFFFFFFF AND MUL OR SWAP1 SSTORE POP PUSH1 0x20 PUSH1 0x0 SWAP1 SLOAD SWAP1 PUSH2 0x100 EXP SWAP1 DIV PUSH20 0xFFFFFFFFFFFFFFFFFFFFFFFFFFFFFFFFFFFFFFFF AND PUSH1 0x21 PUSH1 0x0 PUSH2 0x100 EXP DUP2 SLOAD DUP2 PUSH20 0xFFFFFFFFFFFFFFFFFFFFFFFFFFFFFFFFFFFFFFFF MUL NOT AND SWAP1 DUP4 PUSH20 0xFFFFFFFFFFFFFFFFFFFFFFFFFFFFFFFFFFFFFFFF AND MUL OR SWAP1 SSTORE POP CALLVALUE DUP1 ISZERO PUSH2 0xC8 JUMPI PUSH1 0x0 DUP1 REVERT JUMPDEST POP PUSH2 0x3738 DUP1 PUSH2 0xD8 PUSH1 0x0 CODECOPY PUSH1 0x0 RETURN INVALID PUSH1 0x80 PUSH1 0x40 MSTORE CALLVALUE DUP1 ISZERO PUSH2 0x10 JUMPI PUSH1 0x0 DUP1 REVERT JUMPDEST POP PUSH1 0x4 CALLDATASIZE LT PUSH2 0xF5 JUMPI PUSH1 0x0 CALLDATALOAD PUSH1 0xE0 SHR DUP1 PUSH4 0x76167A89 GT PUSH2 0x97 JUMPI DUP1 PUSH4 0x98265FAC GT PUSH2 0x66 JUMPI DUP1 PUSH4 0x98265FAC EQ PUSH2 0x28C JUMPI DUP1 PUSH4 0xA98F4666 EQ PUSH2 0x2AA JUMPI DUP1 PUSH4 0xD18E81B3 EQ PUSH2 0x2B4 JUMPI DUP1 PUSH4 0xDA51BA85 EQ PUSH2 0x2D2 JUMPI PUSH2 0xF5 JUMP JUMPDEST DUP1 PUSH4 0x76167A89 EQ PUSH2 0x216 JUMPI DUP1 PUSH4 0x7641C510 EQ PUSH2 0x234 JUMPI DUP1 PUSH4 0x7FB03D2B EQ PUSH2 0x252 JUMPI DUP1 PUSH4 0x875CC7A8 EQ PUSH2 0x26E JUMPI PUSH2 0xF5 JUMP JUMPDEST DUP1 PUSH4 0x26E532DB GT PUSH2 0xD3 JUMPI DUP1 PUSH4 0x26E532DB EQ PUSH2 0x17A JUMPI DUP1 PUSH4 0x4DCD342D EQ PUSH2 0x1AA JUMPI DUP1 PUSH4 0x6352211E EQ PUSH2 0x1C8 JUMPI DUP1 PUSH4 0x6B47FFD7 EQ PUSH2 0x1F8 JUMPI PUSH2 0xF5 JUMP JUMPDEST DUP1 PUSH4 0x3A1D342 EQ PUSH2 0xFA JUMPI DUP1 PUSH4 0x57E3087 EQ PUSH2 0x12C JUMPI DUP1 PUSH4 0xFF4C916 EQ PUSH2 0x14A JUMPI JUMPDEST PUSH1 0x0 DUP1 REVERT JUMPDEST PUSH2 0x114 PUSH1 0x4 DUP1 CALLDATASIZE SUB DUP2 ADD SWAP1 PUSH2 0x10F SWAP2 SWAP1 PUSH2 0x13CA JUMP JUMPDEST PUSH2 0x2EE JUMP JUMPDEST PUSH1 0x40 MLOAD PUSH2 0x123 SWAP4 SWAP3 SWAP2 SWAP1 PUSH2 0x1406 JUMP JUMPDEST PUSH1 0x40 MLOAD DUP1 SWAP2 SUB SWAP1 RETURN JUMPDEST PUSH2 0x134 PUSH2 0x31E JUMP JUMPDEST PUSH1 0x40 MLOAD PUSH2 0x141 SWAP2 SWAP1 PUSH2 0x143D JUMP JUMPDEST PUSH1 0x40 MLOAD DUP1 SWAP2 SUB SWAP1 RETURN JUMPDEST PUSH2 0x164 PUSH1 0x4 DUP1 CALLDATASIZE SUB DUP2 ADD SWAP1 PUSH2 0x15F SWAP2 SWAP1 PUSH2 0x13CA JUMP JUMPDEST PUSH2 0x324 JUMP JUMPDEST PUSH1 0x40 MLOAD PUSH2 0x171 SWAP2 SWAP1 PUSH2 0x143D JUMP JUMPDEST PUSH1 0x40 MLOAD DUP1 SWAP2 SUB SWAP1 RETURN JUMPDEST PUSH2 0x194 PUSH1 0x4 DUP1 CALLDATASIZE SUB DUP2 ADD SWAP1 PUSH2 0x18F SWAP2 SWAP1 PUSH2 0x13CA JUMP JUMPDEST PUSH2 0x3C9 JUMP JUMPDEST PUSH1 0x40 MLOAD PUSH2 0x1A1 SWAP2 SWAP1 PUSH2 0x1473 JUMP JUMPDEST PUSH1 0x40 MLOAD DUP1 SWAP2 SUB SWAP1 RETURN JUMPDEST PUSH2 0x1B2 PUSH2 0x4DD JUMP JUMPDEST PUSH1 0x40 MLOAD PUSH2 0x1BF SWAP2 SWAP1 PUSH2 0x151E JUMP JUMPDEST PUSH1 0x40 MLOAD DUP1 SWAP2 SUB SWAP1 RETURN JUMPDEST PUSH2 0x1E2 PUSH1 0x4 DUP1 CALLDATASIZE SUB DUP2 ADD SWAP1 PUSH2 0x1DD SWAP2 SWAP1 PUSH2 0x13CA JUMP JUMPDEST PUSH2 0x6B6 JUMP JUMPDEST PUSH1 0x40 MLOAD PUSH2 0x1EF SWAP2 SWAP1 PUSH2 0x1581 JUMP JUMPDEST PUSH1 0x40 MLOAD DUP1 SWAP2 SUB SWAP1 RETURN JUMPDEST PUSH2 0x200 PUSH2 0x75B JUMP JUMPDEST PUSH1 0x40 MLOAD PUSH2 0x20D SWAP2 SWAP1 PUSH2 0x143D JUMP JUMPDEST PUSH1 0x40 MLOAD DUP1 SWAP2 SUB SWAP1 RETURN JUMPDEST PUSH2 0x21E PUSH2 0x761 JUMP JUMPDEST PUSH1 0x40 MLOAD PUSH2 0x22B SWAP2 SWAP1 PUSH2 0x1581 JUMP JUMPDEST PUSH1 0x40 MLOAD DUP1 SWAP2 SUB SWAP1 RETURN JUMPDEST PUSH2 0x23C PUSH2 0x769 JUMP JUMPDEST PUSH1 0x40 MLOAD PUSH2 0x249 SWAP2 SWAP1 PUSH2 0x143D JUMP JUMPDEST PUSH1 0x40 MLOAD DUP1 SWAP2 SUB SWAP1 RETURN JUMPDEST PUSH2 0x26C PUSH1 0x4 DUP1 CALLDATASIZE SUB DUP2 ADD SWAP1 PUSH2 0x267 SWAP2 SWAP1 PUSH2 0x159C JUMP JUMPDEST PUSH2 0x76F JUMP JUMPDEST STOP JUMPDEST PUSH2 0x276 PUSH2 0x86B JUMP JUMPDEST PUSH1 0x40 MLOAD PUSH2 0x283 SWAP2 SWAP1 PUSH2 0x143D JUMP JUMPDEST PUSH1 0x40 MLOAD DUP1 SWAP2 SUB SWAP1 RETURN JUMPDEST PUSH2 0x294 PUSH2 0x871 JUMP JUMPDEST PUSH1 0x40 MLOAD PUSH2 0x2A1 SWAP2 SWAP1 PUSH2 0x143D JUMP JUMPDEST PUSH1 0x40 MLOAD DUP1 SWAP2 SUB SWAP1 RETURN JUMPDEST PUSH2 0x2B2 PUSH2 0x8A5 JUMP JUMPDEST STOP JUMPDEST PUSH2 0x2BC PUSH2 0x94B JUMP JUMPDEST PUSH1 0x40 MLOAD PUSH2 0x2C9 SWAP2 SWAP1 PUSH2 0x143D JUMP JUMPDEST PUSH1 0x40 MLOAD DUP1 SWAP2 SUB SWAP1 RETURN JUMPDEST PUSH2 0x2EC PUSH1 0x4 DUP1 CALLDATASIZE SUB DUP2 ADD SWAP1 PUSH2 0x2E7 SWAP2 SWAP1 PUSH2 0x16C0 JUMP JUMPDEST PUSH2 0x953 JUMP JUMPDEST STOP JUMPDEST PUSH1 0x0 DUP2 PUSH1 0x9 DUP2 LT PUSH2 0x2FE JUMPI PUSH1 0x0 DUP1 REVERT JUMPDEST PUSH1 0x3 MUL ADD PUSH1 0x0 SWAP2 POP SWAP1 POP DUP1 PUSH1 0x0 ADD SLOAD SWAP1 DUP1 PUSH1 0x1 ADD SLOAD SWAP1 DUP1 PUSH1 0x2 ADD SLOAD SWAP1 POP DUP4 JUMP JUMPDEST PUSH1 0x1E SLOAD DUP2 JUMP JUMPDEST PUSH1 0x0 PUSH1 0x21 PUSH1 0x0 SWAP1 SLOAD SWAP1 PUSH2 0x100 EXP SWAP1 DIV PUSH20 0xFFFFFFFFFFFFFFFFFFFFFFFFFFFFFFFFFFFFFFFF AND PUSH20 0xFFFFFFFFFFFFFFFFFFFFFFFFFFFFFFFFFFFFFFFF AND PUSH4 0xFF4C916 DUP4 PUSH1 0x40 MLOAD DUP3 PUSH4 0xFFFFFFFF AND PUSH1 0xE0 SHL DUP2 MSTORE PUSH1 0x4 ADD PUSH2 0x381 SWAP2 SWAP1 PUSH2 0x143D JUMP JUMPDEST PUSH1 0x20 PUSH1 0x40 MLOAD DUP1 DUP4 SUB DUP2 DUP7 GAS STATICCALL ISZERO DUP1 ISZERO PUSH2 0x39E JUMPI RETURNDATASIZE PUSH1 0x0 DUP1 RETURNDATACOPY RETURNDATASIZE PUSH1 0x0 REVERT JUMPDEST POP POP POP POP PUSH1 0x40 MLOAD RETURNDATASIZE PUSH1 0x1F NOT PUSH1 0x1F DUP3 ADD AND DUP3 ADD DUP1 PUSH1 0x40 MSTORE POP DUP2 ADD SWAP1 PUSH2 0x3C2 SWAP2 SWAP1 PUSH2 0x1702 JUMP JUMPDEST SWAP1 POP SWAP2 SWAP1 POP JUMP JUMPDEST PUSH1 0x0 PUSH1 0x21 PUSH1 0x0 SWAP1 SLOAD SWAP1 PUSH2 0x100 EXP SWAP1 DIV PUSH20 0xFFFFFFFFFFFFFFFFFFFFFFFFFFFFFFFFFFFFFFFF AND PUSH20 0xFFFFFFFFFFFFFFFFFFFFFFFFFFFFFFFFFFFFFFFF AND PUSH4 0x6352211E DUP4 PUSH1 0x40 MLOAD DUP3 PUSH4 0xFFFFFFFF AND PUSH1 0xE0 SHL DUP2 MSTORE PUSH1 0x4 ADD PUSH2 0x426 SWAP2 SWAP1 PUSH2 0x143D JUMP JUMPDEST PUSH1 0x20 PUSH1 0x40 MLOAD DUP1 DUP4 SUB DUP2 DUP7 GAS STATICCALL ISZERO DUP1 ISZERO PUSH2 0x443 JUMPI RETURNDATASIZE PUSH1 0x0 DUP1 RETURNDATACOPY RETURNDATASIZE PUSH1 0x0 REVERT JUMPDEST POP POP POP POP PUSH1 0x40 MLOAD RETURNDATASIZE PUSH1 0x1F NOT PUSH1 0x1F DUP3 ADD AND DUP3 ADD DUP1 PUSH1 0x40 MSTORE POP DUP2 ADD SWAP1 PUSH2 0x467 SWAP2 SWAP1 PUSH2 0x175B JUMP JUMPDEST PUSH20 0xFFFFFFFFFFFFFFFFFFFFFFFFFFFFFFFFFFFFFFFF AND CALLER PUSH20 0xFFFFFFFFFFFFFFFFFFFFFFFFFFFFFFFFFFFFFFFF AND EQ PUSH2 0x4D4 JUMPI PUSH1 0x40 MLOAD PUSH32 0x8C379A000000000000000000000000000000000000000000000000000000000 DUP2 MSTORE PUSH1 0x4 ADD PUSH2 0x4CB SWAP1 PUSH2 0x17D4 JUMP JUMPDEST PUSH1 0x40 MLOAD DUP1 SWAP2 SUB SWAP1 REVERT JUMPDEST PUSH1 0x1 SWAP1 POP SWAP2 SWAP1 POP JUMP JUMPDEST PUSH1 0x60 PUSH1 0x0 PUSH1 0x40 MLOAD DUP1 PUSH1 0x20 ADD PUSH1 0x40 MSTORE DUP1 PUSH1 0x0 DUP2 MSTORE POP SWAP1 POP PUSH1 0x0 JUMPDEST PUSH1 0x9 DUP2 LT ISZERO PUSH2 0x612 JUMPI DUP2 PUSH2 0x524 PUSH1 0x0 DUP4 PUSH1 0x9 DUP2 LT PUSH2 0x517 JUMPI PUSH2 0x516 PUSH2 0x17F4 JUMP JUMPDEST JUMPDEST PUSH1 0x3 MUL ADD PUSH1 0x0 ADD SLOAD PUSH2 0x9C3 JUMP JUMPDEST PUSH2 0x548 PUSH1 0x0 DUP5 PUSH1 0x9 DUP2 LT PUSH2 0x53B JUMPI PUSH2 0x53A PUSH2 0x17F4 JUMP JUMPDEST JUMPDEST PUSH1 0x3 MUL ADD PUSH1 0x1 ADD SLOAD PUSH2 0x9C3 JUMP JUMPDEST PUSH2 0x56C PUSH1 0x0 DUP6 PUSH1 0x9 DUP2 LT PUSH2 0x55F JUMPI PUSH2 0x55E PUSH2 0x17F4 JUMP JUMPDEST JUMPDEST PUSH1 0x3 MUL ADD PUSH1 0x2 ADD SLOAD PUSH2 0x9C3 JUMP JUMPDEST PUSH2 0x590 PUSH1 0x0 DUP7 PUSH1 0x9 DUP2 LT PUSH2 0x583 JUMPI PUSH2 0x582 PUSH2 0x17F4 JUMP JUMPDEST JUMPDEST PUSH1 0x3 MUL ADD PUSH1 0x0 ADD SLOAD PUSH2 0x9C3 JUMP JUMPDEST PUSH2 0x5B4 PUSH1 0x0 DUP8 PUSH1 0x9 DUP2 LT PUSH2 0x5A7 JUMPI PUSH2 0x5A6 PUSH2 0x17F4 JUMP JUMPDEST JUMPDEST PUSH1 0x3 MUL ADD PUSH1 0x1 ADD SLOAD PUSH2 0x9C3 JUMP JUMPDEST PUSH2 0x5D8 PUSH1 0x0 DUP9 PUSH1 0x9 DUP2 LT PUSH2 0x5CB JUMPI PUSH2 0x5CA PUSH2 0x17F4 JUMP JUMPDEST JUMPDEST PUSH1 0x3 MUL ADD PUSH1 0x2 ADD SLOAD PUSH2 0x9C3 JUMP JUMPDEST PUSH1 0x40 MLOAD PUSH1 0x20 ADD PUSH2 0x5EE SWAP8 SWAP7 SWAP6 SWAP5 SWAP4 SWAP3 SWAP2 SWAP1 PUSH2 0x1943 JUMP JUMPDEST PUSH1 0x40 MLOAD PUSH1 0x20 DUP2 DUP4 SUB SUB DUP2 MSTORE SWAP1 PUSH1 0x40 MSTORE SWAP2 POP DUP1 DUP1 PUSH2 0x60A SWAP1 PUSH2 0x1A2F JUMP JUMPDEST SWAP2 POP POP PUSH2 0x4F6 JUMP JUMPDEST POP DUP1 PUSH2 0x638 PUSH1 0x0 DUP1 PUSH1 0x9 DUP2 LT PUSH2 0x62B JUMPI PUSH2 0x62A PUSH2 0x17F4 JUMP JUMPDEST JUMPDEST PUSH1 0x3 MUL ADD PUSH1 0x0 ADD SLOAD PUSH2 0x9C3 JUMP JUMPDEST PUSH2 0x65C PUSH1 0x0 DUP1 PUSH1 0x9 DUP2 LT PUSH2 0x64F JUMPI PUSH2 0x64E PUSH2 0x17F4 JUMP JUMPDEST JUMPDEST PUSH1 0x3 MUL ADD PUSH1 0x1 ADD SLOAD PUSH2 0x9C3 JUMP JUMPDEST PUSH2 0x680 PUSH1 0x0 DUP1 PUSH1 0x9 DUP2 LT PUSH2 0x673 JUMPI PUSH2 0x672 PUSH2 0x17F4 JUMP JUMPDEST JUMPDEST PUSH1 0x3 MUL ADD PUSH1 0x2 ADD SLOAD PUSH2 0x9C3 JUMP JUMPDEST PUSH1 0x40 MLOAD PUSH1 0x20 ADD PUSH2 0x693 SWAP5 SWAP4 SWAP3 SWAP2 SWAP1 PUSH2 0x1A77 JUMP JUMPDEST PUSH1 0x40 MLOAD PUSH1 0x20 DUP2 DUP4 SUB SUB DUP2 MSTORE SWAP1 PUSH1 0x40 MSTORE SWAP1 POP PUSH2 0x6B0 PUSH1 0x1C SLOAD DUP3 PUSH2 0xB4B JUMP JUMPDEST SWAP2 POP POP SWAP1 JUMP JUMPDEST PUSH1 0x0 PUSH1 0x21 PUSH1 0x0 SWAP1 SLOAD SWAP1 PUSH2 0x100 EXP SWAP1 DIV PUSH20 0xFFFFFFFFFFFFFFFFFFFFFFFFFFFFFFFFFFFFFFFF AND PUSH20 0xFFFFFFFFFFFFFFFFFFFFFFFFFFFFFFFFFFFFFFFF AND PUSH4 0x6352211E DUP4 PUSH1 0x40 MLOAD DUP3 PUSH4 0xFFFFFFFF AND PUSH1 0xE0 SHL DUP2 MSTORE PUSH1 0x4 ADD PUSH2 0x713 SWAP2 SWAP1 PUSH2 0x143D JUMP JUMPDEST PUSH1 0x20 PUSH1 0x40 MLOAD DUP1 DUP4 SUB DUP2 DUP7 GAS STATICCALL ISZERO DUP1 ISZERO PUSH2 0x730 JUMPI RETURNDATASIZE PUSH1 0x0 DUP1 RETURNDATACOPY RETURNDATASIZE PUSH1 0x0 REVERT JUMPDEST POP POP POP POP PUSH1 0x40 MLOAD RETURNDATASIZE PUSH1 0x1F NOT PUSH1 0x1F DUP3 ADD AND DUP3 ADD DUP1 PUSH1 0x40 MSTORE POP DUP2 ADD SWAP1 PUSH2 0x754 SWAP2 SWAP1 PUSH2 0x175B JUMP JUMPDEST SWAP1 POP SWAP2 SWAP1 POP JUMP JUMPDEST PUSH1 0x1D SLOAD DUP2 JUMP JUMPDEST PUSH1 0x0 CALLER SWAP1 POP SWAP1 JUMP JUMPDEST PUSH1 0x1C SLOAD DUP2 JUMP JUMPDEST DUP2 PUSH1 0x1C DUP2 SWAP1 SSTORE POP PUSH1 0x0 PUSH2 0x3E8 DUP3 LT ISZERO PUSH2 0x78B JUMPI PUSH1 0xF SWAP1 POP PUSH2 0x830 JUMP JUMPDEST PUSH2 0x7D0 DUP3 LT ISZERO PUSH2 0x79E JUMPI PUSH1 0x1E SWAP1 POP PUSH2 0x82F JUMP JUMPDEST PUSH2 0xBB8 DUP3 LT ISZERO PUSH2 0x7B1 JUMPI PUSH1 0x2D SWAP1 POP PUSH2 0x82E JUMP JUMPDEST PUSH2 0xFA0 DUP3 LT ISZERO PUSH2 0x7C4 JUMPI PUSH1 0x3C SWAP1 POP PUSH2 0x82D JUMP JUMPDEST PUSH2 0x1388 DUP3 LT ISZERO PUSH2 0x7D7 JUMPI PUSH1 0x4B SWAP1 POP PUSH2 0x82C JUMP JUMPDEST PUSH2 0x1770 DUP3 LT ISZERO PUSH2 0x7EA JUMPI PUSH1 0x5A SWAP1 POP PUSH2 0x82B JUMP JUMPDEST PUSH2 0x1B58 DUP3 LT ISZERO PUSH2 0x7FD JUMPI PUSH1 0x69 SWAP1 POP PUSH2 0x82A JUMP JUMPDEST PUSH2 0x1F40 DUP3 LT ISZERO PUSH2 0x810 JUMPI PUSH1 0x78 SWAP1 POP PUSH2 0x829 JUMP JUMPDEST PUSH2 0x2328 DUP3 LT ISZERO PUSH2 0x823 JUMPI PUSH1 0x87 SWAP1 POP PUSH2 0x828 JUMP JUMPDEST PUSH1 0x96 SWAP1 POP JUMPDEST JUMPDEST JUMPDEST JUMPDEST JUMPDEST JUMPDEST JUMPDEST JUMPDEST JUMPDEST PUSH1 0x3C DUP2 PUSH2 0x83D SWAP2 SWAP1 PUSH2 0x1AE1 JUMP JUMPDEST TIMESTAMP PUSH2 0x848 SWAP2 SWAP1 PUSH2 0x1B23 JUMP JUMPDEST PUSH1 0x1D DUP2 SWAP1 SSTORE POP PUSH1 0x1E PUSH1 0x0 DUP2 SLOAD DUP1 SWAP3 SWAP2 SWAP1 PUSH2 0x861 SWAP1 PUSH2 0x1A2F JUMP JUMPDEST SWAP2 SWAP1 POP SSTORE POP POP POP POP JUMP JUMPDEST PUSH1 0x1B SLOAD DUP2 JUMP JUMPDEST PUSH1 0x0 PUSH1 0x1D SLOAD TIMESTAMP GT PUSH2 0x89D JUMPI PUSH1 0x3C TIMESTAMP PUSH1 0x1D SLOAD PUSH2 0x88C SWAP2 SWAP1 PUSH2 0x1B57 JUMP JUMPDEST PUSH2 0x896 SWAP2 SWAP1 PUSH2 0x1BBA JUMP JUMPDEST SWAP1 POP PUSH2 0x8A2 JUMP JUMPDEST PUSH1 0x0 SWAP1 POP JUMPDEST SWAP1 JUMP JUMPDEST PUSH1 0x0 PUSH1 0x40 MLOAD DUP1 PUSH1 0x60 ADD PUSH1 0x40 MSTORE DUP1 PUSH1 0xFF DUP2 MSTORE PUSH1 0x20 ADD PUSH1 0x0 DUP2 MSTORE PUSH1 0x20 ADD PUSH1 0x0 DUP2 MSTORE POP SWAP1 POP PUSH1 0x0 PUSH1 0x40 MLOAD DUP1 PUSH1 0x60 ADD PUSH1 0x40 MSTORE DUP1 PUSH1 0x0 DUP2 MSTORE PUSH1 0x20 ADD PUSH1 0xFF DUP2 MSTORE PUSH1 0x20 ADD PUSH1 0x0 DUP2 MSTORE POP SWAP1 POP PUSH1 0x0 PUSH1 0x40 MLOAD DUP1 PUSH1 0x60 ADD PUSH1 0x40 MSTORE DUP1 PUSH1 0x0 DUP2 MSTORE PUSH1 0x20 ADD PUSH1 0x0 DUP2 MSTORE PUSH1 0x20 ADD PUSH1 0xFF DUP2 MSTORE POP SWAP1 POP PUSH1 0x0 JUMPDEST PUSH1 0x3 DUP2 LT ISZERO PUSH2 0x945 JUMPI PUSH2 0x920 DUP5 PUSH2 0x953 JUMP JUMPDEST PUSH2 0x929 DUP4 PUSH2 0x953 JUMP JUMPDEST PUSH2 0x932 DUP3 PUSH2 0x953 JUMP JUMPDEST DUP1 DUP1 PUSH2 0x93D SWAP1 PUSH2 0x1A2F JUMP JUMPDEST SWAP2 POP POP PUSH2 0x90E JUMP JUMPDEST POP POP POP POP JUMP JUMPDEST PUSH1 0x0 TIMESTAMP SWAP1 POP SWAP1 JUMP JUMPDEST DUP1 PUSH1 0x0 PUSH1 0x1B SLOAD PUSH1 0x9 DUP2 LT PUSH2 0x96A JUMPI PUSH2 0x969 PUSH2 0x17F4 JUMP JUMPDEST JUMPDEST PUSH1 0x3 MUL ADD PUSH1 0x0 DUP3 ADD MLOAD DUP2 PUSH1 0x0 ADD SSTORE PUSH1 0x20 DUP3 ADD MLOAD DUP2 PUSH1 0x1 ADD SSTORE PUSH1 0x40 DUP3 ADD MLOAD DUP2 PUSH1 0x2 ADD SSTORE SWAP1 POP POP PUSH1 0x8 PUSH1 0x1B SLOAD LT ISZERO PUSH2 0x9B7 JUMPI PUSH1 0x1B PUSH1 0x0 DUP2 SLOAD DUP1 SWAP3 SWAP2 SWAP1 PUSH2 0x9AD SWAP1 PUSH2 0x1A2F JUMP JUMPDEST SWAP2 SWAP1 POP SSTORE POP PUSH2 0x9C0 JUMP JUMPDEST PUSH1 0x0 PUSH1 0x1B DUP2 SWAP1 SSTORE POP JUMPDEST POP JUMP JUMPDEST PUSH1 0x60 PUSH1 0x0 DUP3 SUB PUSH2 0xA0A JUMPI PUSH1 0x40 MLOAD DUP1 PUSH1 0x40 ADD PUSH1 0x40 MSTORE DUP1 PUSH1 0x1 DUP2 MSTORE PUSH1 0x20 ADD PUSH32 0x3000000000000000000000000000000000000000000000000000000000000000 DUP2 MSTORE POP SWAP1 POP PUSH2 0xB46 JUMP JUMPDEST PUSH1 0x0 DUP3 SWAP1 POP PUSH1 0x0 JUMPDEST PUSH1 0x0 DUP3 EQ PUSH2 0xA3C JUMPI DUP1 DUP1 PUSH2 0xA25 SWAP1 PUSH2 0x1A2F JUMP JUMPDEST SWAP2 POP POP PUSH1 0xA DUP3 PUSH2 0xA35 SWAP2 SWAP1 PUSH2 0x1BBA JUMP JUMPDEST SWAP2 POP PUSH2 0xA12 JUMP JUMPDEST PUSH1 0x0 DUP2 PUSH8 0xFFFFFFFFFFFFFFFF DUP2 GT ISZERO PUSH2 0xA58 JUMPI PUSH2 0xA57 PUSH2 0x15E1 JUMP JUMPDEST JUMPDEST PUSH1 0x40 MLOAD SWAP1 DUP1 DUP3 MSTORE DUP1 PUSH1 0x1F ADD PUSH1 0x1F NOT AND PUSH1 0x20 ADD DUP3 ADD PUSH1 0x40 MSTORE DUP1 ISZERO PUSH2 0xA8A JUMPI DUP2 PUSH1 0x20 ADD PUSH1 0x1 DUP3 MUL DUP1 CALLDATASIZE DUP4 CALLDATACOPY DUP1 DUP3 ADD SWAP2 POP POP SWAP1 POP JUMPDEST POP SWAP1 POP PUSH1 0x0 DUP3 SWAP1 POP JUMPDEST PUSH1 0x0 DUP7 EQ PUSH2 0xB3E JUMPI PUSH1 0x1 DUP2 PUSH2 0xAA8 SWAP2 SWAP1 PUSH2 0x1B57 JUMP JUMPDEST SWAP1 POP PUSH1 0x0 PUSH1 0xA DUP1 DUP9 PUSH2 0xABA SWAP2 SWAP1 PUSH2 0x1BBA JUMP JUMPDEST PUSH2 0xAC4 SWAP2 SWAP1 PUSH2 0x1AE1 JUMP JUMPDEST DUP8 PUSH2 0xACF SWAP2 SWAP1 PUSH2 0x1B57 JUMP JUMPDEST PUSH1 0x30 PUSH2 0xADB SWAP2 SWAP1 PUSH2 0x1BF8 JUMP JUMPDEST SWAP1 POP PUSH1 0x0 DUP2 PUSH1 0xF8 SHL SWAP1 POP DUP1 DUP5 DUP5 DUP2 MLOAD DUP2 LT PUSH2 0xAF9 JUMPI PUSH2 0xAF8 PUSH2 0x17F4 JUMP JUMPDEST JUMPDEST PUSH1 0x20 ADD ADD SWAP1 PUSH31 0xFFFFFFFFFFFFFFFFFFFFFFFFFFFFFFFFFFFFFFFFFFFFFFFFFFFFFFFFFFFFFF NOT AND SWAP1 DUP2 PUSH1 0x0 BYTE SWAP1 MSTORE8 POP PUSH1 0xA DUP9 PUSH2 0xB35 SWAP2 SWAP1 PUSH2 0x1BBA JUMP JUMPDEST SWAP8 POP POP POP PUSH2 0xA93 JUMP JUMPDEST DUP2 SWAP5 POP POP POP POP POP JUMPDEST SWAP2 SWAP1 POP JUMP JUMPDEST PUSH1 0x60 PUSH1 0x40 MLOAD DUP1 PUSH2 0x1060 ADD PUSH1 0x40 MSTORE DUP1 PUSH2 0x1035 DUP2 MSTORE PUSH1 0x20 ADD PUSH2 0x26CE PUSH2 0x1035 SWAP2 CODECOPY SWAP1 POP PUSH1 0x0 PUSH1 0x40 MLOAD DUP1 PUSH1 0x40 ADD PUSH1 0x40 MSTORE DUP1 PUSH1 0x1F DUP2 MSTORE PUSH1 0x20 ADD PUSH32 0x222F3E3C2F673E3C7374796C653E2362677B66696C6C3A233043304330437D00 DUP2 MSTORE POP SWAP1 POP PUSH1 0x0 DUP5 SUB ISZERO PUSH2 0xDF4 JUMPI PUSH1 0x0 PUSH2 0xBB9 DUP6 PUSH2 0xE21 JUMP JUMPDEST MLOAD SWAP1 POP PUSH1 0x0 PUSH2 0xBC8 DUP7 DUP4 PUSH2 0xFA9 JUMP JUMPDEST SWAP1 POP PUSH1 0x1 DUP3 SUB PUSH2 0xC09 JUMPI DUP3 PUSH2 0xBE2 PUSH1 0x3 DUP4 PUSH1 0x60 ADD MLOAD PUSH2 0x10E0 JUMP JUMPDEST PUSH1 0x40 MLOAD PUSH1 0x20 ADD PUSH2 0xBF3 SWAP3 SWAP2 SWAP1 PUSH2 0x1C2D JUMP JUMPDEST PUSH1 0x40 MLOAD PUSH1 0x20 DUP2 DUP4 SUB SUB DUP2 MSTORE SWAP1 PUSH1 0x40 MSTORE SWAP3 POP PUSH2 0xDF1 JUMP JUMPDEST PUSH1 0x2 DUP3 SUB PUSH2 0xC7A JUMPI DUP3 PUSH2 0xC21 PUSH1 0x2 DUP4 PUSH1 0x40 ADD MLOAD PUSH2 0x10E0 JUMP JUMPDEST PUSH1 0x40 MLOAD PUSH1 0x20 ADD PUSH2 0xC32 SWAP3 SWAP2 SWAP1 PUSH2 0x1C2D JUMP JUMPDEST PUSH1 0x40 MLOAD PUSH1 0x20 DUP2 DUP4 SUB SUB DUP2 MSTORE SWAP1 PUSH1 0x40 MSTORE SWAP3 POP DUP3 PUSH2 0xC53 PUSH1 0x3 DUP4 PUSH1 0x60 ADD MLOAD PUSH2 0x10E0 JUMP JUMPDEST PUSH1 0x40 MLOAD PUSH1 0x20 ADD PUSH2 0xC64 SWAP3 SWAP2 SWAP1 PUSH2 0x1C2D JUMP JUMPDEST PUSH1 0x40 MLOAD PUSH1 0x20 DUP2 DUP4 SUB SUB DUP2 MSTORE SWAP1 PUSH1 0x40 MSTORE SWAP3 POP PUSH2 0xDF0 JUMP JUMPDEST PUSH1 0x3 DUP3 SUB PUSH2 0xD1D JUMPI DUP3 PUSH2 0xC92 PUSH1 0x1 DUP4 PUSH1 0x20 ADD MLOAD PUSH2 0x10E0 JUMP JUMPDEST PUSH1 0x40 MLOAD PUSH1 0x20 ADD PUSH2 0xCA3 SWAP3 SWAP2 SWAP1 PUSH2 0x1C2D JUMP JUMPDEST PUSH1 0x40 MLOAD PUSH1 0x20 DUP2 DUP4 SUB SUB DUP2 MSTORE SWAP1 PUSH1 0x40 MSTORE SWAP3 POP DUP3 PUSH2 0xCC4 PUSH1 0x2 DUP4 PUSH1 0x40 ADD MLOAD PUSH2 0x10E0 JUMP JUMPDEST PUSH1 0x40 MLOAD PUSH1 0x20 ADD PUSH2 0xCD5 SWAP3 SWAP2 SWAP1 PUSH2 0x1C2D JUMP JUMPDEST PUSH1 0x40 MLOAD PUSH1 0x20 DUP2 DUP4 SUB SUB DUP2 MSTORE SWAP1 PUSH1 0x40 MSTORE SWAP3 POP DUP3 PUSH2 0xCF6 PUSH1 0x3 DUP4 PUSH1 0x60 ADD MLOAD PUSH2 0x10E0 JUMP JUMPDEST PUSH1 0x40 MLOAD PUSH1 0x20 ADD PUSH2 0xD07 SWAP3 SWAP2 SWAP1 PUSH2 0x1C2D JUMP JUMPDEST PUSH1 0x40 MLOAD PUSH1 0x20 DUP2 DUP4 SUB SUB DUP2 MSTORE SWAP1 PUSH1 0x40 MSTORE SWAP3 POP PUSH2 0xDEF JUMP JUMPDEST PUSH1 0x4 DUP3 SUB PUSH2 0xDEE JUMPI DUP3 PUSH2 0xD35 PUSH1 0x0 DUP4 PUSH1 0x0 ADD MLOAD PUSH2 0x10E0 JUMP JUMPDEST PUSH1 0x40 MLOAD PUSH1 0x20 ADD PUSH2 0xD46 SWAP3 SWAP2 SWAP1 PUSH2 0x1C2D JUMP JUMPDEST PUSH1 0x40 MLOAD PUSH1 0x20 DUP2 DUP4 SUB SUB DUP2 MSTORE SWAP1 PUSH1 0x40 MSTORE SWAP3 POP DUP3 PUSH2 0xD67 PUSH1 0x1 DUP4 PUSH1 0x20 ADD MLOAD PUSH2 0x10E0 JUMP JUMPDEST PUSH1 0x40 MLOAD PUSH1 0x20 ADD PUSH2 0xD78 SWAP3 SWAP2 SWAP1 PUSH2 0x1C2D JUMP JUMPDEST PUSH1 0x40 MLOAD PUSH1 0x20 DUP2 DUP4 SUB SUB DUP2 MSTORE SWAP1 PUSH1 0x40 MSTORE SWAP3 POP DUP3 PUSH2 0xD99 PUSH1 0x2 DUP4 PUSH1 0x40 ADD MLOAD PUSH2 0x10E0 JUMP JUMPDEST PUSH1 0x40 MLOAD PUSH1 0x20 ADD PUSH2 0xDAA SWAP3 SWAP2 SWAP1 PUSH2 0x1C2D JUMP JUMPDEST PUSH1 0x40 MLOAD PUSH1 0x20 DUP2 DUP4 SUB SUB DUP2 MSTORE SWAP1 PUSH1 0x40 MSTORE SWAP3 POP DUP3 PUSH2 0xDCB PUSH1 0x3 DUP4 PUSH1 0x60 ADD MLOAD PUSH2 0x10E0 JUMP JUMPDEST PUSH1 0x40 MLOAD PUSH1 0x20 ADD PUSH2 0xDDC SWAP3 SWAP2 SWAP1 PUSH2 0x1C2D JUMP JUMPDEST PUSH1 0x40 MLOAD PUSH1 0x20 DUP2 DUP4 SUB SUB DUP2 MSTORE SWAP1 PUSH1 0x40 MSTORE SWAP3 POP JUMPDEST JUMPDEST JUMPDEST JUMPDEST POP POP JUMPDEST DUP2 DUP4 DUP3 PUSH1 0x40 MLOAD PUSH1 0x20 ADD PUSH2 0xE09 SWAP4 SWAP3 SWAP2 SWAP1 PUSH2 0x1C9D JUMP JUMPDEST PUSH1 0x40 MLOAD PUSH1 0x20 DUP2 DUP4 SUB SUB DUP2 MSTORE SWAP1 PUSH1 0x40 MSTORE SWAP2 POP POP SWAP3 SWAP2 POP POP JUMP JUMPDEST PUSH1 0x60 PUSH1 0x0 DUP3 SUB PUSH2 0xE68 JUMPI PUSH1 0x40 MLOAD DUP1 PUSH1 0x40 ADD PUSH1 0x40 MSTORE DUP1 PUSH1 0x1 DUP2 MSTORE PUSH1 0x20 ADD PUSH32 0x3000000000000000000000000000000000000000000000000000000000000000 DUP2 MSTORE POP SWAP1 POP PUSH2 0xFA4 JUMP JUMPDEST PUSH1 0x0 DUP3 SWAP1 POP PUSH1 0x0 JUMPDEST PUSH1 0x0 DUP3 EQ PUSH2 0xE9A JUMPI DUP1 DUP1 PUSH2 0xE83 SWAP1 PUSH2 0x1A2F JUMP JUMPDEST SWAP2 POP POP PUSH1 0xA DUP3 PUSH2 0xE93 SWAP2 SWAP1 PUSH2 0x1BBA JUMP JUMPDEST SWAP2 POP PUSH2 0xE70 JUMP JUMPDEST PUSH1 0x0 DUP2 PUSH8 0xFFFFFFFFFFFFFFFF DUP2 GT ISZERO PUSH2 0xEB6 JUMPI PUSH2 0xEB5 PUSH2 0x15E1 JUMP JUMPDEST JUMPDEST PUSH1 0x40 MLOAD SWAP1 DUP1 DUP3 MSTORE DUP1 PUSH1 0x1F ADD PUSH1 0x1F NOT AND PUSH1 0x20 ADD DUP3 ADD PUSH1 0x40 MSTORE DUP1 ISZERO PUSH2 0xEE8 JUMPI DUP2 PUSH1 0x20 ADD PUSH1 0x1 DUP3 MUL DUP1 CALLDATASIZE DUP4 CALLDATACOPY DUP1 DUP3 ADD SWAP2 POP POP SWAP1 POP JUMPDEST POP SWAP1 POP PUSH1 0x0 DUP3 SWAP1 POP JUMPDEST PUSH1 0x0 DUP7 EQ PUSH2 0xF9C JUMPI PUSH1 0x1 DUP2 PUSH2 0xF06 SWAP2 SWAP1 PUSH2 0x1B57 JUMP JUMPDEST SWAP1 POP PUSH1 0x0 PUSH1 0xA DUP1 DUP9 PUSH2 0xF18 SWAP2 SWAP1 PUSH2 0x1BBA JUMP JUMPDEST PUSH2 0xF22 SWAP2 SWAP1 PUSH2 0x1AE1 JUMP JUMPDEST DUP8 PUSH2 0xF2D SWAP2 SWAP1 PUSH2 0x1B57 JUMP JUMPDEST PUSH1 0x30 PUSH2 0xF39 SWAP2 SWAP1 PUSH2 0x1BF8 JUMP JUMPDEST SWAP1 POP PUSH1 0x0 DUP2 PUSH1 0xF8 SHL SWAP1 POP DUP1 DUP5 DUP5 DUP2 MLOAD DUP2 LT PUSH2 0xF57 JUMPI PUSH2 0xF56 PUSH2 0x17F4 JUMP JUMPDEST JUMPDEST PUSH1 0x20 ADD ADD SWAP1 PUSH31 0xFFFFFFFFFFFFFFFFFFFFFFFFFFFFFFFFFFFFFFFFFFFFFFFFFFFFFFFFFFFFFF NOT AND SWAP1 DUP2 PUSH1 0x0 BYTE SWAP1 MSTORE8 POP PUSH1 0xA DUP9 PUSH2 0xF93 SWAP2 SWAP1 PUSH2 0x1BBA JUMP JUMPDEST SWAP8 POP POP POP PUSH2 0xEF1 JUMP JUMPDEST DUP2 SWAP5 POP POP POP POP POP JUMPDEST SWAP2 SWAP1 POP JUMP JUMPDEST PUSH2 0xFB1 PUSH2 0x135D JUMP JUMPDEST PUSH1 0x1 DUP3 SUB PUSH2 0xFC8 JUMPI DUP3 DUP2 PUSH1 0x60 ADD DUP2 DUP2 MSTORE POP POP PUSH2 0x10DA JUMP JUMPDEST PUSH1 0x2 DUP3 SUB PUSH2 0x1001 JUMPI PUSH1 0xA DUP4 PUSH2 0xFDD SWAP2 SWAP1 PUSH2 0x1BBA JUMP JUMPDEST DUP2 PUSH1 0x40 ADD DUP2 DUP2 MSTORE POP POP PUSH1 0xA DUP4 PUSH2 0xFF3 SWAP2 SWAP1 PUSH2 0x1CD9 JUMP JUMPDEST DUP2 PUSH1 0x60 ADD DUP2 DUP2 MSTORE POP POP PUSH2 0x10D9 JUMP JUMPDEST PUSH1 0x3 DUP3 SUB PUSH2 0x105C JUMPI PUSH1 0x64 DUP4 PUSH2 0x1016 SWAP2 SWAP1 PUSH2 0x1BBA JUMP JUMPDEST DUP2 PUSH1 0x20 ADD DUP2 DUP2 MSTORE POP POP PUSH1 0xA PUSH1 0x64 DUP5 PUSH2 0x102E SWAP2 SWAP1 PUSH2 0x1CD9 JUMP JUMPDEST PUSH2 0x1038 SWAP2 SWAP1 PUSH2 0x1BBA JUMP JUMPDEST DUP2 PUSH1 0x40 ADD DUP2 DUP2 MSTORE POP POP PUSH1 0xA DUP4 PUSH2 0x104E SWAP2 SWAP1 PUSH2 0x1CD9 JUMP JUMPDEST DUP2 PUSH1 0x60 ADD DUP2 DUP2 MSTORE POP POP PUSH2 0x10D8 JUMP JUMPDEST PUSH1 0x4 DUP3 SUB PUSH2 0x10D7 JUMPI PUSH2 0x3E8 DUP4 PUSH2 0x1072 SWAP2 SWAP1 PUSH2 0x1BBA JUMP JUMPDEST DUP2 PUSH1 0x0 ADD DUP2 DUP2 MSTORE POP POP PUSH1 0x64 PUSH2 0x3E8 DUP5 PUSH2 0x108B SWAP2 SWAP1 PUSH2 0x1CD9 JUMP JUMPDEST PUSH2 0x1095 SWAP2 SWAP1 PUSH2 0x1BBA JUMP JUMPDEST DUP2 PUSH1 0x20 ADD DUP2 DUP2 MSTORE POP POP PUSH1 0xA PUSH1 0x64 DUP5 PUSH2 0x10AD SWAP2 SWAP1 PUSH2 0x1CD9 JUMP JUMPDEST PUSH2 0x10B7 SWAP2 SWAP1 PUSH2 0x1BBA JUMP JUMPDEST DUP2 PUSH1 0x40 ADD DUP2 DUP2 MSTORE POP POP PUSH1 0xA DUP4 PUSH2 0x10CD SWAP2 SWAP1 PUSH2 0x1CD9 JUMP JUMPDEST DUP2 PUSH1 0x60 ADD DUP2 DUP2 MSTORE POP POP JUMPDEST JUMPDEST JUMPDEST JUMPDEST SWAP3 SWAP2 POP POP JUMP JUMPDEST PUSH1 0x60 PUSH1 0x0 PUSH2 0x10ED DUP5 PUSH2 0xE21 JUMP JUMPDEST SWAP1 POP PUSH1 0x0 DUP4 SUB PUSH2 0x1129 JUMPI DUP1 DUP2 DUP3 DUP4 DUP5 DUP6 PUSH1 0x40 MLOAD PUSH1 0x20 ADD PUSH2 0x1112 SWAP7 SWAP6 SWAP5 SWAP4 SWAP3 SWAP2 SWAP1 PUSH2 0x1F1E JUMP JUMPDEST PUSH1 0x40 MLOAD PUSH1 0x20 DUP2 DUP4 SUB SUB DUP2 MSTORE SWAP1 PUSH1 0x40 MSTORE SWAP2 POP POP PUSH2 0x1357 JUMP JUMPDEST PUSH1 0x1 DUP4 SUB PUSH2 0x115B JUMPI DUP1 DUP2 PUSH1 0x40 MLOAD PUSH1 0x20 ADD PUSH2 0x1144 SWAP3 SWAP2 SWAP1 PUSH2 0x2046 JUMP JUMPDEST PUSH1 0x40 MLOAD PUSH1 0x20 DUP2 DUP4 SUB SUB DUP2 MSTORE SWAP1 PUSH1 0x40 MSTORE SWAP2 POP POP PUSH2 0x1357 JUMP JUMPDEST PUSH1 0x2 DUP4 SUB PUSH2 0x1193 JUMPI DUP1 DUP2 DUP3 DUP4 DUP5 PUSH1 0x40 MLOAD PUSH1 0x20 ADD PUSH2 0x117C SWAP6 SWAP5 SWAP4 SWAP3 SWAP2 SWAP1 PUSH2 0x20E2 JUMP JUMPDEST PUSH1 0x40 MLOAD PUSH1 0x20 DUP2 DUP4 SUB SUB DUP2 MSTORE SWAP1 PUSH1 0x40 MSTORE SWAP2 POP POP PUSH2 0x1357 JUMP JUMPDEST PUSH1 0x3 DUP4 SUB PUSH2 0x11CB JUMPI DUP1 DUP2 DUP3 DUP4 DUP5 PUSH1 0x40 MLOAD PUSH1 0x20 ADD PUSH2 0x11B4 SWAP6 SWAP5 SWAP4 SWAP3 SWAP2 SWAP1 PUSH2 0x219B JUMP JUMPDEST PUSH1 0x40 MLOAD PUSH1 0x20 DUP2 DUP4 SUB SUB DUP2 MSTORE SWAP1 PUSH1 0x40 MSTORE SWAP2 POP POP PUSH2 0x1357 JUMP JUMPDEST PUSH1 0x4 DUP4 SUB PUSH2 0x1201 JUMPI DUP1 DUP2 DUP3 DUP4 PUSH1 0x40 MLOAD PUSH1 0x20 ADD PUSH2 0x11EA SWAP5 SWAP4 SWAP3 SWAP2 SWAP1 PUSH2 0x2254 JUMP JUMPDEST PUSH1 0x40 MLOAD PUSH1 0x20 DUP2 DUP4 SUB SUB DUP2 MSTORE SWAP1 PUSH1 0x40 MSTORE SWAP2 POP POP PUSH2 0x1357 JUMP JUMPDEST PUSH1 0x5 DUP4 SUB PUSH2 0x1239 JUMPI DUP1 DUP2 DUP3 DUP4 DUP5 PUSH1 0x40 MLOAD PUSH1 0x20 ADD PUSH2 0x1222 SWAP6 SWAP5 SWAP4 SWAP3 SWAP2 SWAP1 PUSH2 0x22EA JUMP JUMPDEST PUSH1 0x40 MLOAD PUSH1 0x20 DUP2 DUP4 SUB SUB DUP2 MSTORE SWAP1 PUSH1 0x40 MSTORE SWAP2 POP POP PUSH2 0x1357 JUMP JUMPDEST PUSH1 0x6 DUP4 SUB PUSH2 0x1273 JUMPI DUP1 DUP2 DUP3 DUP4 DUP5 DUP6 PUSH1 0x40 MLOAD PUSH1 0x20 ADD PUSH2 0x125C SWAP7 SWAP6 SWAP5 SWAP4 SWAP3 SWAP2 SWAP1 PUSH2 0x23A3 JUMP JUMPDEST PUSH1 0x40 MLOAD PUSH1 0x20 DUP2 DUP4 SUB SUB DUP2 MSTORE SWAP1 PUSH1 0x40 MSTORE SWAP2 POP POP PUSH2 0x1357 JUMP JUMPDEST PUSH1 0x7 DUP4 SUB PUSH2 0x12A7 JUMPI DUP1 DUP2 DUP3 PUSH1 0x40 MLOAD PUSH1 0x20 ADD PUSH2 0x1290 SWAP4 SWAP3 SWAP2 SWAP1 PUSH2 0x247F JUMP JUMPDEST PUSH1 0x40 MLOAD PUSH1 0x20 DUP2 DUP4 SUB SUB DUP2 MSTORE SWAP1 PUSH1 0x40 MSTORE SWAP2 POP POP PUSH2 0x1357 JUMP JUMPDEST PUSH1 0x8 DUP4 SUB PUSH2 0x12E3 JUMPI DUP1 DUP2 DUP3 DUP4 DUP5 DUP6 DUP7 PUSH1 0x40 MLOAD PUSH1 0x20 ADD PUSH2 0x12CC SWAP8 SWAP7 SWAP6 SWAP5 SWAP4 SWAP3 SWAP2 SWAP1 PUSH2 0x24F2 JUMP JUMPDEST PUSH1 0x40 MLOAD PUSH1 0x20 DUP2 DUP4 SUB SUB DUP2 MSTORE SWAP1 PUSH1 0x40 MSTORE SWAP2 POP POP PUSH2 0x1357 JUMP JUMPDEST PUSH1 0x9 DUP4 SUB PUSH2 0x131D JUMPI DUP1 DUP2 DUP3 DUP4 DUP5 DUP6 PUSH1 0x40 MLOAD PUSH1 0x20 ADD PUSH2 0x1306 SWAP7 SWAP6 SWAP5 SWAP4 SWAP3 SWAP2 SWAP1 PUSH2 0x25F1 JUMP JUMPDEST PUSH1 0x40 MLOAD PUSH1 0x20 DUP2 DUP4 SUB SUB DUP2 MSTORE SWAP1 PUSH1 0x40 MSTORE SWAP2 POP POP PUSH2 0x1357 JUMP JUMPDEST PUSH1 0x40 MLOAD DUP1 PUSH1 0x40 ADD PUSH1 0x40 MSTORE DUP1 PUSH1 0x5 DUP2 MSTORE PUSH1 0x20 ADD PUSH32 0x6572726F72000000000000000000000000000000000000000000000000000000 DUP2 MSTORE POP SWAP2 POP POP JUMPDEST SWAP3 SWAP2 POP POP JUMP JUMPDEST PUSH1 0x40 MLOAD DUP1 PUSH1 0x80 ADD PUSH1 0x40 MSTORE DUP1 PUSH1 0x0 DUP2 MSTORE PUSH1 0x20 ADD PUSH1 0x0 DUP2 MSTORE PUSH1 0x20 ADD PUSH1 0x0 DUP2 MSTORE PUSH1 0x20 ADD PUSH1 0x0 DUP2 MSTORE POP SWAP1 JUMP JUMPDEST PUSH1 0x0 PUSH1 0x40 MLOAD SWAP1 POP SWAP1 JUMP JUMPDEST PUSH1 0x0 DUP1 REVERT JUMPDEST PUSH1 0x0 DUP2 SWAP1 POP SWAP2 SWAP1 POP JUMP JUMPDEST PUSH2 0x13A7 DUP2 PUSH2 0x1394 JUMP JUMPDEST DUP2 EQ PUSH2 0x13B2 JUMPI PUSH1 0x0 DUP1 REVERT JUMPDEST POP JUMP JUMPDEST PUSH1 0x0 DUP2 CALLDATALOAD SWAP1 POP PUSH2 0x13C4 DUP2 PUSH2 0x139E JUMP JUMPDEST SWAP3 SWAP2 POP POP JUMP JUMPDEST PUSH1 0x0 PUSH1 0x20 DUP3 DUP5 SUB SLT ISZERO PUSH2 0x13E0 JUMPI PUSH2 0x13DF PUSH2 0x138F JUMP JUMPDEST JUMPDEST PUSH1 0x0 PUSH2 0x13EE DUP5 DUP3 DUP6 ADD PUSH2 0x13B5 JUMP JUMPDEST SWAP2 POP POP SWAP3 SWAP2 POP POP JUMP JUMPDEST PUSH2 0x1400 DUP2 PUSH2 0x1394 JUMP JUMPDEST DUP3 MSTORE POP POP JUMP JUMPDEST PUSH1 0x0 PUSH1 0x60 DUP3 ADD SWAP1 POP PUSH2 0x141B PUSH1 0x0 DUP4 ADD DUP7 PUSH2 0x13F7 JUMP JUMPDEST PUSH2 0x1428 PUSH1 0x20 DUP4 ADD DUP6 PUSH2 0x13F7 JUMP JUMPDEST PUSH2 0x1435 PUSH1 0x40 DUP4 ADD DUP5 PUSH2 0x13F7 JUMP JUMPDEST SWAP5 SWAP4 POP POP POP POP JUMP JUMPDEST PUSH1 0x0 PUSH1 0x20 DUP3 ADD SWAP1 POP PUSH2 0x1452 PUSH1 0x0 DUP4 ADD DUP5 PUSH2 0x13F7 JUMP JUMPDEST SWAP3 SWAP2 POP POP JUMP JUMPDEST PUSH1 0x0 DUP2 ISZERO ISZERO SWAP1 POP SWAP2 SWAP1 POP JUMP JUMPDEST PUSH2 0x146D DUP2 PUSH2 0x1458 JUMP JUMPDEST DUP3 MSTORE POP POP JUMP JUMPDEST PUSH1 0x0 PUSH1 0x20 DUP3 ADD SWAP1 POP PUSH2 0x1488 PUSH1 0x0 DUP4 ADD DUP5 PUSH2 0x1464 JUMP JUMPDEST SWAP3 SWAP2 POP POP JUMP JUMPDEST PUSH1 0x0 DUP2 MLOAD SWAP1 POP SWAP2 SWAP1 POP JUMP JUMPDEST PUSH1 0x0 DUP3 DUP3 MSTORE PUSH1 0x20 DUP3 ADD SWAP1 POP SWAP3 SWAP2 POP POP JUMP JUMPDEST PUSH1 0x0 JUMPDEST DUP4 DUP2 LT ISZERO PUSH2 0x14C8 JUMPI DUP1 DUP3 ADD MLOAD DUP2 DUP5 ADD MSTORE PUSH1 0x20 DUP2 ADD SWAP1 POP PUSH2 0x14AD JUMP JUMPDEST PUSH1 0x0 DUP5 DUP5 ADD MSTORE POP POP POP POP JUMP JUMPDEST PUSH1 0x0 PUSH1 0x1F NOT PUSH1 0x1F DUP4 ADD AND SWAP1 POP SWAP2 SWAP1 POP JUMP JUMPDEST PUSH1 0x0 PUSH2 0x14F0 DUP3 PUSH2 0x148E JUMP JUMPDEST PUSH2 0x14FA DUP2 DUP6 PUSH2 0x1499 JUMP JUMPDEST SWAP4 POP PUSH2 0x150A DUP2 DUP6 PUSH1 0x20 DUP7 ADD PUSH2 0x14AA JUMP JUMPDEST PUSH2 0x1513 DUP2 PUSH2 0x14D4 JUMP JUMPDEST DUP5 ADD SWAP2 POP POP SWAP3 SWAP2 POP POP JUMP JUMPDEST PUSH1 0x0 PUSH1 0x20 DUP3 ADD SWAP1 POP DUP2 DUP2 SUB PUSH1 0x0 DUP4 ADD MSTORE PUSH2 0x1538 DUP2 DUP5 PUSH2 0x14E5 JUMP JUMPDEST SWAP1 POP SWAP3 SWAP2 POP POP JUMP JUMPDEST PUSH1 0x0 PUSH20 0xFFFFFFFFFFFFFFFFFFFFFFFFFFFFFFFFFFFFFFFF DUP3 AND SWAP1 POP SWAP2 SWAP1 POP JUMP JUMPDEST PUSH1 0x0 PUSH2 0x156B DUP3 PUSH2 0x1540 JUMP JUMPDEST SWAP1 POP SWAP2 SWAP1 POP JUMP JUMPDEST PUSH2 0x157B DUP2 PUSH2 0x1560 JUMP JUMPDEST DUP3 MSTORE POP POP JUMP JUMPDEST PUSH1 0x0 PUSH1 0x20 DUP3 ADD SWAP1 POP PUSH2 0x1596 PUSH1 0x0 DUP4 ADD DUP5 PUSH2 0x1572 JUMP JUMPDEST SWAP3 SWAP2 POP POP JUMP JUMPDEST PUSH1 0x0 DUP1 PUSH1 0x40 DUP4 DUP6 SUB SLT ISZERO PUSH2 0x15B3 JUMPI PUSH2 0x15B2 PUSH2 0x138F JUMP JUMPDEST JUMPDEST PUSH1 0x0 PUSH2 0x15C1 DUP6 DUP3 DUP7 ADD PUSH2 0x13B5 JUMP JUMPDEST SWAP3 POP POP PUSH1 0x20 PUSH2 0x15D2 DUP6 DUP3 DUP7 ADD PUSH2 0x13B5 JUMP JUMPDEST SWAP2 POP POP SWAP3 POP SWAP3 SWAP1 POP JUMP JUMPDEST PUSH1 0x0 DUP1 REVERT JUMPDEST PUSH32 0x4E487B7100000000000000000000000000000000000000000000000000000000 PUSH1 0x0 MSTORE PUSH1 0x41 PUSH1 0x4 MSTORE PUSH1 0x24 PUSH1 0x0 REVERT JUMPDEST PUSH2 0x1619 DUP3 PUSH2 0x14D4 JUMP JUMPDEST DUP2 ADD DUP2 DUP2 LT PUSH8 0xFFFFFFFFFFFFFFFF DUP3 GT OR ISZERO PUSH2 0x1638 JUMPI PUSH2 0x1637 PUSH2 0x15E1 JUMP JUMPDEST JUMPDEST DUP1 PUSH1 0x40 MSTORE POP POP POP JUMP JUMPDEST PUSH1 0x0 PUSH2 0x164B PUSH2 0x1385 JUMP JUMPDEST SWAP1 POP PUSH2 0x1657 DUP3 DUP3 PUSH2 0x1610 JUMP JUMPDEST SWAP2 SWAP1 POP JUMP JUMPDEST PUSH1 0x0 PUSH1 0x60 DUP3 DUP5 SUB SLT ISZERO PUSH2 0x1672 JUMPI PUSH2 0x1671 PUSH2 0x15DC JUMP JUMPDEST JUMPDEST PUSH2 0x167C PUSH1 0x60 PUSH2 0x1641 JUMP JUMPDEST SWAP1 POP PUSH1 0x0 PUSH2 0x168C DUP5 DUP3 DUP6 ADD PUSH2 0x13B5 JUMP JUMPDEST PUSH1 0x0 DUP4 ADD MSTORE POP PUSH1 0x20 PUSH2 0x16A0 DUP5 DUP3 DUP6 ADD PUSH2 0x13B5 JUMP JUMPDEST PUSH1 0x20 DUP4 ADD MSTORE POP PUSH1 0x40 PUSH2 0x16B4 DUP5 DUP3 DUP6 ADD PUSH2 0x13B5 JUMP JUMPDEST PUSH1 0x40 DUP4 ADD MSTORE POP SWAP3 SWAP2 POP POP JUMP JUMPDEST PUSH1 0x0 PUSH1 0x60 DUP3 DUP5 SUB SLT ISZERO PUSH2 0x16D6 JUMPI PUSH2 0x16D5 PUSH2 0x138F JUMP JUMPDEST JUMPDEST PUSH1 0x0 PUSH2 0x16E4 DUP5 DUP3 DUP6 ADD PUSH2 0x165C JUMP JUMPDEST SWAP2 POP POP SWAP3 SWAP2 POP POP JUMP JUMPDEST PUSH1 0x0 DUP2 MLOAD SWAP1 POP PUSH2 0x16FC DUP2 PUSH2 0x139E JUMP JUMPDEST SWAP3 SWAP2 POP POP JUMP JUMPDEST PUSH1 0x0 PUSH1 0x20 DUP3 DUP5 SUB SLT ISZERO PUSH2 0x1718 JUMPI PUSH2 0x1717 PUSH2 0x138F JUMP JUMPDEST JUMPDEST PUSH1 0x0 PUSH2 0x1726 DUP5 DUP3 DUP6 ADD PUSH2 0x16ED JUMP JUMPDEST SWAP2 POP POP SWAP3 SWAP2 POP POP JUMP JUMPDEST PUSH2 0x1738 DUP2 PUSH2 0x1560 JUMP JUMPDEST DUP2 EQ PUSH2 0x1743 JUMPI PUSH1 0x0 DUP1 REVERT JUMPDEST POP JUMP JUMPDEST PUSH1 0x0 DUP2 MLOAD SWAP1 POP PUSH2 0x1755 DUP2 PUSH2 0x172F JUMP JUMPDEST SWAP3 SWAP2 POP POP JUMP JUMPDEST PUSH1 0x0 PUSH1 0x20 DUP3 DUP5 SUB SLT ISZERO PUSH2 0x1771 JUMPI PUSH2 0x1770 PUSH2 0x138F JUMP JUMPDEST JUMPDEST PUSH1 0x0 PUSH2 0x177F DUP5 DUP3 DUP6 ADD PUSH2 0x1746 JUMP JUMPDEST SWAP2 POP POP SWAP3 SWAP2 POP POP JUMP JUMPDEST PUSH32 0x6E6F7420746865206F776E657200000000000000000000000000000000000000 PUSH1 0x0 DUP3 ADD MSTORE POP JUMP JUMPDEST PUSH1 0x0 PUSH2 0x17BE PUSH1 0xD DUP4 PUSH2 0x1499 JUMP JUMPDEST SWAP2 POP PUSH2 0x17C9 DUP3 PUSH2 0x1788 JUMP JUMPDEST PUSH1 0x20 DUP3 ADD SWAP1 POP SWAP2 SWAP1 POP JUMP JUMPDEST PUSH1 0x0 PUSH1 0x20 DUP3 ADD SWAP1 POP DUP2 DUP2 SUB PUSH1 0x0 DUP4 ADD MSTORE PUSH2 0x17ED DUP2 PUSH2 0x17B1 JUMP JUMPDEST SWAP1 POP SWAP2 SWAP1 POP JUMP JUMPDEST PUSH32 0x4E487B7100000000000000000000000000000000000000000000000000000000 PUSH1 0x0 MSTORE PUSH1 0x32 PUSH1 0x4 MSTORE PUSH1 0x24 PUSH1 0x0 REVERT JUMPDEST PUSH1 0x0 DUP2 SWAP1 POP SWAP3 SWAP2 POP POP JUMP JUMPDEST PUSH1 0x0 PUSH2 0x1839 DUP3 PUSH2 0x148E JUMP JUMPDEST PUSH2 0x1843 DUP2 DUP6 PUSH2 0x1823 JUMP JUMPDEST SWAP4 POP PUSH2 0x1853 DUP2 DUP6 PUSH1 0x20 DUP7 ADD PUSH2 0x14AA JUMP JUMPDEST DUP1 DUP5 ADD SWAP2 POP POP SWAP3 SWAP2 POP POP JUMP JUMPDEST PUSH32 0x7267622800000000000000000000000000000000000000000000000000000000 PUSH1 0x0 DUP3 ADD MSTORE POP JUMP JUMPDEST PUSH1 0x0 PUSH2 0x1895 PUSH1 0x4 DUP4 PUSH2 0x1823 JUMP JUMPDEST SWAP2 POP PUSH2 0x18A0 DUP3 PUSH2 0x185F JUMP JUMPDEST PUSH1 0x4 DUP3 ADD SWAP1 POP SWAP2 SWAP1 POP JUMP JUMPDEST PUSH32 0x2C00000000000000000000000000000000000000000000000000000000000000 PUSH1 0x0 DUP3 ADD MSTORE POP JUMP JUMPDEST PUSH1 0x0 PUSH2 0x18E1 PUSH1 0x1 DUP4 PUSH2 0x1823 JUMP JUMPDEST SWAP2 POP PUSH2 0x18EC DUP3 PUSH2 0x18AB JUMP JUMPDEST PUSH1 0x1 DUP3 ADD SWAP1 POP SWAP2 SWAP1 POP JUMP JUMPDEST PUSH32 0x293B000000000000000000000000000000000000000000000000000000000000 PUSH1 0x0 DUP3 ADD MSTORE POP JUMP JUMPDEST PUSH1 0x0 PUSH2 0x192D PUSH1 0x2 DUP4 PUSH2 0x1823 JUMP JUMPDEST SWAP2 POP PUSH2 0x1938 DUP3 PUSH2 0x18F7 JUMP JUMPDEST PUSH1 0x2 DUP3 ADD SWAP1 POP SWAP2 SWAP1 POP JUMP JUMPDEST PUSH1 0x0 PUSH2 0x194F DUP3 DUP11 PUSH2 0x182E JUMP JUMPDEST SWAP2 POP PUSH2 0x195A DUP3 PUSH2 0x1888 JUMP JUMPDEST SWAP2 POP PUSH2 0x1966 DUP3 DUP10 PUSH2 0x182E JUMP JUMPDEST SWAP2 POP PUSH2 0x1971 DUP3 PUSH2 0x18D4 JUMP JUMPDEST SWAP2 POP PUSH2 0x197D DUP3 DUP9 PUSH2 0x182E JUMP JUMPDEST SWAP2 POP PUSH2 0x1988 DUP3 PUSH2 0x18D4 JUMP JUMPDEST SWAP2 POP PUSH2 0x1994 DUP3 DUP8 PUSH2 0x182E JUMP JUMPDEST SWAP2 POP PUSH2 0x199F DUP3 PUSH2 0x1920 JUMP JUMPDEST SWAP2 POP PUSH2 0x19AA DUP3 PUSH2 0x1888 JUMP JUMPDEST SWAP2 POP PUSH2 0x19B6 DUP3 DUP7 PUSH2 0x182E JUMP JUMPDEST SWAP2 POP PUSH2 0x19C1 DUP3 PUSH2 0x18D4 JUMP JUMPDEST SWAP2 POP PUSH2 0x19CD DUP3 DUP6 PUSH2 0x182E JUMP JUMPDEST SWAP2 POP PUSH2 0x19D8 DUP3 PUSH2 0x18D4 JUMP JUMPDEST SWAP2 POP PUSH2 0x19E4 DUP3 DUP5 PUSH2 0x182E JUMP JUMPDEST SWAP2 POP PUSH2 0x19EF DUP3 PUSH2 0x1920 JUMP JUMPDEST SWAP2 POP DUP2 SWAP1 POP SWAP9 SWAP8 POP POP POP POP POP POP POP POP JUMP JUMPDEST PUSH32 0x4E487B7100000000000000000000000000000000000000000000000000000000 PUSH1 0x0 MSTORE PUSH1 0x11 PUSH1 0x4 MSTORE PUSH1 0x24 PUSH1 0x0 REVERT JUMPDEST PUSH1 0x0 PUSH2 0x1A3A DUP3 PUSH2 0x1394 JUMP JUMPDEST SWAP2 POP PUSH32 0xFFFFFFFFFFFFFFFFFFFFFFFFFFFFFFFFFFFFFFFFFFFFFFFFFFFFFFFFFFFFFFFF DUP3 SUB PUSH2 0x1A6C JUMPI PUSH2 0x1A6B PUSH2 0x1A00 JUMP JUMPDEST JUMPDEST PUSH1 0x1 DUP3 ADD SWAP1 POP SWAP2 SWAP1 POP JUMP JUMPDEST PUSH1 0x0 PUSH2 0x1A83 DUP3 DUP8 PUSH2 0x182E JUMP JUMPDEST SWAP2 POP PUSH2 0x1A8E DUP3 PUSH2 0x1888 JUMP JUMPDEST SWAP2 POP PUSH2 0x1A9A DUP3 DUP7 PUSH2 0x182E JUMP JUMPDEST SWAP2 POP PUSH2 0x1AA5 DUP3 PUSH2 0x18D4 JUMP JUMPDEST SWAP2 POP PUSH2 0x1AB1 DUP3 DUP6 PUSH2 0x182E JUMP JUMPDEST SWAP2 POP PUSH2 0x1ABC DUP3 PUSH2 0x18D4 JUMP JUMPDEST SWAP2 POP PUSH2 0x1AC8 DUP3 DUP5 PUSH2 0x182E JUMP JUMPDEST SWAP2 POP PUSH2 0x1AD3 DUP3 PUSH2 0x1920 JUMP JUMPDEST SWAP2 POP DUP2 SWAP1 POP SWAP6 SWAP5 POP POP POP POP POP JUMP JUMPDEST PUSH1 0x0 PUSH2 0x1AEC DUP3 PUSH2 0x1394 JUMP JUMPDEST SWAP2 POP PUSH2 0x1AF7 DUP4 PUSH2 0x1394 JUMP JUMPDEST SWAP3 POP DUP3 DUP3 MUL PUSH2 0x1B05 DUP2 PUSH2 0x1394 JUMP JUMPDEST SWAP2 POP DUP3 DUP3 DIV DUP5 EQ DUP4 ISZERO OR PUSH2 0x1B1C JUMPI PUSH2 0x1B1B PUSH2 0x1A00 JUMP JUMPDEST JUMPDEST POP SWAP3 SWAP2 POP POP JUMP JUMPDEST PUSH1 0x0 PUSH2 0x1B2E DUP3 PUSH2 0x1394 JUMP JUMPDEST SWAP2 POP PUSH2 0x1B39 DUP4 PUSH2 0x1394 JUMP JUMPDEST SWAP3 POP DUP3 DUP3 ADD SWAP1 POP DUP1 DUP3 GT ISZERO PUSH2 0x1B51 JUMPI PUSH2 0x1B50 PUSH2 0x1A00 JUMP JUMPDEST JUMPDEST SWAP3 SWAP2 POP POP JUMP JUMPDEST PUSH1 0x0 PUSH2 0x1B62 DUP3 PUSH2 0x1394 JUMP JUMPDEST SWAP2 POP PUSH2 0x1B6D DUP4 PUSH2 0x1394 JUMP JUMPDEST SWAP3 POP DUP3 DUP3 SUB SWAP1 POP DUP2 DUP2 GT ISZERO PUSH2 0x1B85 JUMPI PUSH2 0x1B84 PUSH2 0x1A00 JUMP JUMPDEST JUMPDEST SWAP3 SWAP2 POP POP JUMP JUMPDEST PUSH32 0x4E487B7100000000000000000000000000000000000000000000000000000000 PUSH1 0x0 MSTORE PUSH1 0x12 PUSH1 0x4 MSTORE PUSH1 0x24 PUSH1 0x0 REVERT JUMPDEST PUSH1 0x0 PUSH2 0x1BC5 DUP3 PUSH2 0x1394 JUMP JUMPDEST SWAP2 POP PUSH2 0x1BD0 DUP4 PUSH2 0x1394 JUMP JUMPDEST SWAP3 POP DUP3 PUSH2 0x1BE0 JUMPI PUSH2 0x1BDF PUSH2 0x1B8B JUMP JUMPDEST JUMPDEST DUP3 DUP3 DIV SWAP1 POP SWAP3 SWAP2 POP POP JUMP JUMPDEST PUSH1 0x0 PUSH1 0xFF DUP3 AND SWAP1 POP SWAP2 SWAP1 POP JUMP JUMPDEST PUSH1 0x0 PUSH2 0x1C03 DUP3 PUSH2 0x1BEB JUMP JUMPDEST SWAP2 POP PUSH2 0x1C0E DUP4 PUSH2 0x1BEB JUMP JUMPDEST SWAP3 POP DUP3 DUP3 ADD SWAP1 POP PUSH1 0xFF DUP2 GT ISZERO PUSH2 0x1C27 JUMPI PUSH2 0x1C26 PUSH2 0x1A00 JUMP JUMPDEST JUMPDEST SWAP3 SWAP2 POP POP JUMP JUMPDEST PUSH1 0x0 PUSH2 0x1C39 DUP3 DUP6 PUSH2 0x182E JUMP JUMPDEST SWAP2 POP PUSH2 0x1C45 DUP3 DUP5 PUSH2 0x182E JUMP JUMPDEST SWAP2 POP DUP2 SWAP1 POP SWAP4 SWAP3 POP POP POP JUMP JUMPDEST PUSH32 0x3C2F7374796C653E3C2F7376673E000000000000000000000000000000000000 PUSH1 0x0 DUP3 ADD MSTORE POP JUMP JUMPDEST PUSH1 0x0 PUSH2 0x1C87 PUSH1 0xE DUP4 PUSH2 0x1823 JUMP JUMPDEST SWAP2 POP PUSH2 0x1C92 DUP3 PUSH2 0x1C51 JUMP JUMPDEST PUSH1 0xE DUP3 ADD SWAP1 POP SWAP2 SWAP1 POP JUMP JUMPDEST PUSH1 0x0 PUSH2 0x1CA9 DUP3 DUP7 PUSH2 0x182E JUMP JUMPDEST SWAP2 POP PUSH2 0x1CB5 DUP3 DUP6 PUSH2 0x182E JUMP JUMPDEST SWAP2 POP PUSH2 0x1CC1 DUP3 DUP5 PUSH2 0x182E JUMP JUMPDEST SWAP2 POP PUSH2 0x1CCC DUP3 PUSH2 0x1C7A JUMP JUMPDEST SWAP2 POP DUP2 SWAP1 POP SWAP5 SWAP4 POP POP POP POP JUMP JUMPDEST PUSH1 0x0 PUSH2 0x1CE4 DUP3 PUSH2 0x1394 JUMP JUMPDEST SWAP2 POP PUSH2 0x1CEF DUP4 PUSH2 0x1394 JUMP JUMPDEST SWAP3 POP DUP3 PUSH2 0x1CFF JUMPI PUSH2 0x1CFE PUSH2 0x1B8B JUMP JUMPDEST JUMPDEST DUP3 DUP3 MOD SWAP1 POP SWAP3 SWAP2 POP POP JUMP JUMPDEST PUSH32 0x2370000000000000000000000000000000000000000000000000000000000000 PUSH1 0x0 DUP3 ADD MSTORE POP JUMP JUMPDEST PUSH1 0x0 PUSH2 0x1D40 PUSH1 0x2 DUP4 PUSH2 0x1823 JUMP JUMPDEST SWAP2 POP PUSH2 0x1D4B DUP3 PUSH2 0x1D0A JUMP JUMPDEST PUSH1 0x2 DUP3 ADD SWAP1 POP SWAP2 SWAP1 POP JUMP JUMPDEST PUSH32 0x312C000000000000000000000000000000000000000000000000000000000000 PUSH1 0x0 DUP3 ADD MSTORE POP JUMP JUMPDEST PUSH1 0x0 PUSH2 0x1D8C PUSH1 0x2 DUP4 PUSH2 0x1823 JUMP JUMPDEST SWAP2 POP PUSH2 0x1D97 DUP3 PUSH2 0x1D56 JUMP JUMPDEST PUSH1 0x2 DUP3 ADD SWAP1 POP SWAP2 SWAP1 POP JUMP JUMPDEST PUSH32 0x322C000000000000000000000000000000000000000000000000000000000000 PUSH1 0x0 DUP3 ADD MSTORE POP JUMP JUMPDEST PUSH1 0x0 PUSH2 0x1DD8 PUSH1 0x2 DUP4 PUSH2 0x1823 JUMP JUMPDEST SWAP2 POP PUSH2 0x1DE3 DUP3 PUSH2 0x1DA2 JUMP JUMPDEST PUSH1 0x2 DUP3 ADD SWAP1 POP SWAP2 SWAP1 POP JUMP JUMPDEST PUSH32 0x332C000000000000000000000000000000000000000000000000000000000000 PUSH1 0x0 DUP3 ADD MSTORE POP JUMP JUMPDEST PUSH1 0x0 PUSH2 0x1E24 PUSH1 0x2 DUP4 PUSH2 0x1823 JUMP JUMPDEST SWAP2 POP PUSH2 0x1E2F DUP3 PUSH2 0x1DEE JUMP JUMPDEST PUSH1 0x2 DUP3 ADD SWAP1 POP SWAP2 SWAP1 POP JUMP JUMPDEST PUSH32 0x352C000000000000000000000000000000000000000000000000000000000000 PUSH1 0x0 DUP3 ADD MSTORE POP JUMP JUMPDEST PUSH1 0x0 PUSH2 0x1E70 PUSH1 0x2 DUP4 PUSH2 0x1823 JUMP JUMPDEST SWAP2 POP PUSH2 0x1E7B DUP3 PUSH2 0x1E3A JUMP JUMPDEST PUSH1 0x2 DUP3 ADD SWAP1 POP SWAP2 SWAP1 POP JUMP JUMPDEST PUSH32 0x362C000000000000000000000000000000000000000000000000000000000000 PUSH1 0x0 DUP3 ADD MSTORE POP JUMP JUMPDEST PUSH1 0x0 PUSH2 0x1EBC PUSH1 0x2 DUP4 PUSH2 0x1823 JUMP JUMPDEST SWAP2 POP PUSH2 0x1EC7 DUP3 PUSH2 0x1E86 JUMP JUMPDEST PUSH1 0x2 DUP3 ADD SWAP1 POP SWAP2 SWAP1 POP JUMP JUMPDEST PUSH32 0x37207B66696C6C2D6F7061636974793A317D0000000000000000000000000000 PUSH1 0x0 DUP3 ADD MSTORE POP JUMP JUMPDEST PUSH1 0x0 PUSH2 0x1F08 PUSH1 0x12 DUP4 PUSH2 0x1823 JUMP JUMPDEST SWAP2 POP PUSH2 0x1F13 DUP3 PUSH2 0x1ED2 JUMP JUMPDEST PUSH1 0x12 DUP3 ADD SWAP1 POP SWAP2 SWAP1 POP JUMP JUMPDEST PUSH1 0x0 PUSH2 0x1F29 DUP3 PUSH2 0x1D33 JUMP JUMPDEST SWAP2 POP PUSH2 0x1F35 DUP3 DUP10 PUSH2 0x182E JUMP JUMPDEST SWAP2 POP PUSH2 0x1F40 DUP3 PUSH2 0x1D7F JUMP JUMPDEST SWAP2 POP PUSH2 0x1F4B DUP3 PUSH2 0x1D33 JUMP JUMPDEST SWAP2 POP PUSH2 0x1F57 DUP3 DUP9 PUSH2 0x182E JUMP JUMPDEST SWAP2 POP PUSH2 0x1F62 DUP3 PUSH2 0x1DCB JUMP JUMPDEST SWAP2 POP PUSH2 0x1F6D DUP3 PUSH2 0x1D33 JUMP JUMPDEST SWAP2 POP PUSH2 0x1F79 DUP3 DUP8 PUSH2 0x182E JUMP JUMPDEST SWAP2 POP PUSH2 0x1F84 DUP3 PUSH2 0x1E17 JUMP JUMPDEST SWAP2 POP PUSH2 0x1F8F DUP3 PUSH2 0x1D33 JUMP JUMPDEST SWAP2 POP PUSH2 0x1F9B DUP3 DUP7 PUSH2 0x182E JUMP JUMPDEST SWAP2 POP PUSH2 0x1FA6 DUP3 PUSH2 0x1E63 JUMP JUMPDEST SWAP2 POP PUSH2 0x1FB1 DUP3 PUSH2 0x1D33 JUMP JUMPDEST SWAP2 POP PUSH2 0x1FBD DUP3 DUP6 PUSH2 0x182E JUMP JUMPDEST SWAP2 POP PUSH2 0x1FC8 DUP3 PUSH2 0x1EAF JUMP JUMPDEST SWAP2 POP PUSH2 0x1FD3 DUP3 PUSH2 0x1D33 JUMP JUMPDEST SWAP2 POP PUSH2 0x1FDF DUP3 DUP5 PUSH2 0x182E JUMP JUMPDEST SWAP2 POP PUSH2 0x1FEA DUP3 PUSH2 0x1EFB JUMP JUMPDEST SWAP2 POP DUP2 SWAP1 POP SWAP8 SWAP7 POP POP POP POP POP POP POP JUMP JUMPDEST PUSH32 0x36207B66696C6C2D6F7061636974793A317D0000000000000000000000000000 PUSH1 0x0 DUP3 ADD MSTORE POP JUMP JUMPDEST PUSH1 0x0 PUSH2 0x2030 PUSH1 0x12 DUP4 PUSH2 0x1823 JUMP JUMPDEST SWAP2 POP PUSH2 0x203B DUP3 PUSH2 0x1FFA JUMP JUMPDEST PUSH1 0x12 DUP3 ADD SWAP1 POP SWAP2 SWAP1 POP JUMP JUMPDEST PUSH1 0x0 PUSH2 0x2051 DUP3 PUSH2 0x1D33 JUMP JUMPDEST SWAP2 POP PUSH2 0x205D DUP3 DUP6 PUSH2 0x182E JUMP JUMPDEST SWAP2 POP PUSH2 0x2068 DUP3 PUSH2 0x1E17 JUMP JUMPDEST SWAP2 POP PUSH2 0x2073 DUP3 PUSH2 0x1D33 JUMP JUMPDEST SWAP2 POP PUSH2 0x207F DUP3 DUP5 PUSH2 0x182E JUMP JUMPDEST SWAP2 POP PUSH2 0x208A DUP3 PUSH2 0x2023 JUMP JUMPDEST SWAP2 POP DUP2 SWAP1 POP SWAP4 SWAP3 POP POP POP JUMP JUMPDEST PUSH32 0x342C000000000000000000000000000000000000000000000000000000000000 PUSH1 0x0 DUP3 ADD MSTORE POP JUMP JUMPDEST PUSH1 0x0 PUSH2 0x20CC PUSH1 0x2 DUP4 PUSH2 0x1823 JUMP JUMPDEST SWAP2 POP PUSH2 0x20D7 DUP3 PUSH2 0x2096 JUMP JUMPDEST PUSH1 0x2 DUP3 ADD SWAP1 POP SWAP2 SWAP1 POP JUMP JUMPDEST PUSH1 0x0 PUSH2 0x20ED DUP3 PUSH2 0x1D33 JUMP JUMPDEST SWAP2 POP PUSH2 0x20F9 DUP3 DUP9 PUSH2 0x182E JUMP JUMPDEST SWAP2 POP PUSH2 0x2104 DUP3 PUSH2 0x1D7F JUMP JUMPDEST SWAP2 POP PUSH2 0x210F DUP3 PUSH2 0x1D33 JUMP JUMPDEST SWAP2 POP PUSH2 0x211B DUP3 DUP8 PUSH2 0x182E JUMP JUMPDEST SWAP2 POP PUSH2 0x2126 DUP3 PUSH2 0x1E17 JUMP JUMPDEST SWAP2 POP PUSH2 0x2131 DUP3 PUSH2 0x1D33 JUMP JUMPDEST SWAP2 POP PUSH2 0x213D DUP3 DUP7 PUSH2 0x182E JUMP JUMPDEST SWAP2 POP PUSH2 0x2148 DUP3 PUSH2 0x20BF JUMP JUMPDEST SWAP2 POP PUSH2 0x2153 DUP3 PUSH2 0x1D33 JUMP JUMPDEST SWAP2 POP PUSH2 0x215F DUP3 DUP6 PUSH2 0x182E JUMP JUMPDEST SWAP2 POP PUSH2 0x216A DUP3 PUSH2 0x1E63 JUMP JUMPDEST SWAP2 POP PUSH2 0x2175 DUP3 PUSH2 0x1D33 JUMP JUMPDEST SWAP2 POP PUSH2 0x2181 DUP3 DUP5 PUSH2 0x182E JUMP JUMPDEST SWAP2 POP PUSH2 0x218C DUP3 PUSH2 0x1EFB JUMP JUMPDEST SWAP2 POP DUP2 SWAP1 POP SWAP7 SWAP6 POP POP POP POP POP POP JUMP JUMPDEST PUSH1 0x0 PUSH2 0x21A6 DUP3 PUSH2 0x1D33 JUMP JUMPDEST SWAP2 POP PUSH2 0x21B2 DUP3 DUP9 PUSH2 0x182E JUMP JUMPDEST SWAP2 POP PUSH2 0x21BD DUP3 PUSH2 0x1D7F JUMP JUMPDEST SWAP2 POP PUSH2 0x21C8 DUP3 PUSH2 0x1D33 JUMP JUMPDEST SWAP2 POP PUSH2 0x21D4 DUP3 DUP8 PUSH2 0x182E JUMP JUMPDEST SWAP2 POP PUSH2 0x21DF DUP3 PUSH2 0x1E17 JUMP JUMPDEST SWAP2 POP PUSH2 0x21EA DUP3 PUSH2 0x1D33 JUMP JUMPDEST SWAP2 POP PUSH2 0x21F6 DUP3 DUP7 PUSH2 0x182E JUMP JUMPDEST SWAP2 POP PUSH2 0x2201 DUP3 PUSH2 0x20BF JUMP JUMPDEST SWAP2 POP PUSH2 0x220C DUP3 PUSH2 0x1D33 JUMP JUMPDEST SWAP2 POP PUSH2 0x2218 DUP3 DUP6 PUSH2 0x182E JUMP JUMPDEST SWAP2 POP PUSH2 0x2223 DUP3 PUSH2 0x1EAF JUMP JUMPDEST SWAP2 POP PUSH2 0x222E DUP3 PUSH2 0x1D33 JUMP JUMPDEST SWAP2 POP PUSH2 0x223A DUP3 DUP5 PUSH2 0x182E JUMP JUMPDEST SWAP2 POP PUSH2 0x2245 DUP3 PUSH2 0x1EFB JUMP JUMPDEST SWAP2 POP DUP2 SWAP1 POP SWAP7 SWAP6 POP POP POP POP POP POP JUMP JUMPDEST PUSH1 0x0 PUSH2 0x225F DUP3 PUSH2 0x1D33 JUMP JUMPDEST SWAP2 POP PUSH2 0x226B DUP3 DUP8 PUSH2 0x182E JUMP JUMPDEST SWAP2 POP PUSH2 0x2276 DUP3 PUSH2 0x1DCB JUMP JUMPDEST SWAP2 POP PUSH2 0x2281 DUP3 PUSH2 0x1D33 JUMP JUMPDEST SWAP2 POP PUSH2 0x228D DUP3 DUP7 PUSH2 0x182E JUMP JUMPDEST SWAP2 POP PUSH2 0x2298 DUP3 PUSH2 0x1E17 JUMP JUMPDEST SWAP2 POP PUSH2 0x22A3 DUP3 PUSH2 0x1D33 JUMP JUMPDEST SWAP2 POP PUSH2 0x22AF DUP3 DUP6 PUSH2 0x182E JUMP JUMPDEST SWAP2 POP PUSH2 0x22BA DUP3 PUSH2 0x20BF JUMP JUMPDEST SWAP2 POP PUSH2 0x22C5 DUP3 PUSH2 0x1D33 JUMP JUMPDEST SWAP2 POP PUSH2 0x22D1 DUP3 DUP5 PUSH2 0x182E JUMP JUMPDEST SWAP2 POP PUSH2 0x22DC DUP3 PUSH2 0x2023 JUMP JUMPDEST SWAP2 POP DUP2 SWAP1 POP SWAP6 SWAP5 POP POP POP POP POP JUMP JUMPDEST PUSH1 0x0 PUSH2 0x22F5 DUP3 PUSH2 0x1D33 JUMP JUMPDEST SWAP2 POP PUSH2 0x2301 DUP3 DUP9 PUSH2 0x182E JUMP JUMPDEST SWAP2 POP PUSH2 0x230C DUP3 PUSH2 0x1D7F JUMP JUMPDEST SWAP2 POP PUSH2 0x2317 DUP3 PUSH2 0x1D33 JUMP JUMPDEST SWAP2 POP PUSH2 0x2323 DUP3 DUP8 PUSH2 0x182E JUMP JUMPDEST SWAP2 POP PUSH2 0x232E DUP3 PUSH2 0x1DCB JUMP JUMPDEST SWAP2 POP PUSH2 0x2339 DUP3 PUSH2 0x1D33 JUMP JUMPDEST SWAP2 POP PUSH2 0x2345 DUP3 DUP7 PUSH2 0x182E JUMP JUMPDEST SWAP2 POP PUSH2 0x2350 DUP3 PUSH2 0x20BF JUMP JUMPDEST SWAP2 POP PUSH2 0x235B DUP3 PUSH2 0x1D33 JUMP JUMPDEST SWAP2 POP PUSH2 0x2367 DUP3 DUP6 PUSH2 0x182E JUMP JUMPDEST SWAP2 POP PUSH2 0x2372 DUP3 PUSH2 0x1EAF JUMP JUMPDEST SWAP2 POP PUSH2 0x237D DUP3 PUSH2 0x1D33 JUMP JUMPDEST SWAP2 POP PUSH2 0x2389 DUP3 DUP5 PUSH2 0x182E JUMP JUMPDEST SWAP2 POP PUSH2 0x2394 DUP3 PUSH2 0x1EFB JUMP JUMPDEST SWAP2 POP DUP2 SWAP1 POP SWAP7 SWAP6 POP POP POP POP POP POP JUMP JUMPDEST PUSH1 0x0 PUSH2 0x23AE DUP3 PUSH2 0x1D33 JUMP JUMPDEST SWAP2 POP PUSH2 0x23BA DUP3 DUP10 PUSH2 0x182E JUMP JUMPDEST SWAP2 POP PUSH2 0x23C5 DUP3 PUSH2 0x1D7F JUMP JUMPDEST SWAP2 POP PUSH2 0x23D0 DUP3 PUSH2 0x1D33 JUMP JUMPDEST SWAP2 POP PUSH2 0x23DC DUP3 DUP9 PUSH2 0x182E JUMP JUMPDEST SWAP2 POP PUSH2 0x23E7 DUP3 PUSH2 0x1DCB JUMP JUMPDEST SWAP2 POP PUSH2 0x23F2 DUP3 PUSH2 0x1D33 JUMP JUMPDEST SWAP2 POP PUSH2 0x23FE DUP3 DUP8 PUSH2 0x182E JUMP JUMPDEST SWAP2 POP PUSH2 0x2409 DUP3 PUSH2 0x20BF JUMP JUMPDEST SWAP2 POP PUSH2 0x2414 DUP3 PUSH2 0x1D33 JUMP JUMPDEST SWAP2 POP PUSH2 0x2420 DUP3 DUP7 PUSH2 0x182E JUMP JUMPDEST SWAP2 POP PUSH2 0x242B DUP3 PUSH2 0x1E63 JUMP JUMPDEST SWAP2 POP PUSH2 0x2436 DUP3 PUSH2 0x1D33 JUMP JUMPDEST SWAP2 POP PUSH2 0x2442 DUP3 DUP6 PUSH2 0x182E JUMP JUMPDEST SWAP2 POP PUSH2 0x244D DUP3 PUSH2 0x1EAF JUMP JUMPDEST SWAP2 POP PUSH2 0x2458 DUP3 PUSH2 0x1D33 JUMP JUMPDEST SWAP2 POP PUSH2 0x2464 DUP3 DUP5 PUSH2 0x182E JUMP JUMPDEST SWAP2 POP PUSH2 0x246F DUP3 PUSH2 0x1EFB JUMP JUMPDEST SWAP2 POP DUP2 SWAP1 POP SWAP8 SWAP7 POP POP POP POP POP POP POP JUMP JUMPDEST PUSH1 0x0 PUSH2 0x248A DUP3 PUSH2 0x1D33 JUMP JUMPDEST SWAP2 POP PUSH2 0x2496 DUP3 DUP7 PUSH2 0x182E JUMP JUMPDEST SWAP2 POP PUSH2 0x24A1 DUP3 PUSH2 0x1D7F JUMP JUMPDEST SWAP2 POP PUSH2 0x24AC DUP3 PUSH2 0x1D33 JUMP JUMPDEST SWAP2 POP PUSH2 0x24B8 DUP3 DUP6 PUSH2 0x182E JUMP JUMPDEST SWAP2 POP PUSH2 0x24C3 DUP3 PUSH2 0x1E17 JUMP JUMPDEST SWAP2 POP PUSH2 0x24CE DUP3 PUSH2 0x1D33 JUMP JUMPDEST SWAP2 POP PUSH2 0x24DA DUP3 DUP5 PUSH2 0x182E JUMP JUMPDEST SWAP2 POP PUSH2 0x24E5 DUP3 PUSH2 0x2023 JUMP JUMPDEST SWAP2 POP DUP2 SWAP1 POP SWAP5 SWAP4 POP POP POP POP JUMP JUMPDEST PUSH1 0x0 PUSH2 0x24FD DUP3 PUSH2 0x1D33 JUMP JUMPDEST SWAP2 POP PUSH2 0x2509 DUP3 DUP11 PUSH2 0x182E JUMP JUMPDEST SWAP2 POP PUSH2 0x2514 DUP3 PUSH2 0x1D7F JUMP JUMPDEST SWAP2 POP PUSH2 0x251F DUP3 PUSH2 0x1D33 JUMP JUMPDEST SWAP2 POP PUSH2 0x252B DUP3 DUP10 PUSH2 0x182E JUMP JUMPDEST SWAP2 POP PUSH2 0x2536 DUP3 PUSH2 0x1DCB JUMP JUMPDEST SWAP2 POP PUSH2 0x2541 DUP3 PUSH2 0x1D33 JUMP JUMPDEST SWAP2 POP PUSH2 0x254D DUP3 DUP9 PUSH2 0x182E JUMP JUMPDEST SWAP2 POP PUSH2 0x2558 DUP3 PUSH2 0x1E17 JUMP JUMPDEST SWAP2 POP PUSH2 0x2563 DUP3 PUSH2 0x1D33 JUMP JUMPDEST SWAP2 POP PUSH2 0x256F DUP3 DUP8 PUSH2 0x182E JUMP JUMPDEST SWAP2 POP PUSH2 0x257A DUP3 PUSH2 0x20BF JUMP JUMPDEST SWAP2 POP PUSH2 0x2585 DUP3 PUSH2 0x1D33 JUMP JUMPDEST SWAP2 POP PUSH2 0x2591 DUP3 DUP7 PUSH2 0x182E JUMP JUMPDEST SWAP2 POP PUSH2 0x259C DUP3 PUSH2 0x1E63 JUMP JUMPDEST SWAP2 POP PUSH2 0x25A7 DUP3 PUSH2 0x1D33 JUMP JUMPDEST SWAP2 POP PUSH2 0x25B3 DUP3 DUP6 PUSH2 0x182E JUMP JUMPDEST SWAP2 POP PUSH2 0x25BE DUP3 PUSH2 0x1EAF JUMP JUMPDEST SWAP2 POP PUSH2 0x25C9 DUP3 PUSH2 0x1D33 JUMP JUMPDEST SWAP2 POP PUSH2 0x25D5 DUP3 DUP5 PUSH2 0x182E JUMP JUMPDEST SWAP2 POP PUSH2 0x25E0 DUP3 PUSH2 0x1EFB JUMP JUMPDEST SWAP2 POP DUP2 SWAP1 POP SWAP9 SWAP8 POP POP POP POP POP POP POP POP JUMP JUMPDEST PUSH1 0x0 PUSH2 0x25FC DUP3 PUSH2 0x1D33 JUMP JUMPDEST SWAP2 POP PUSH2 0x2608 DUP3 DUP10 PUSH2 0x182E JUMP JUMPDEST SWAP2 POP PUSH2 0x2613 DUP3 PUSH2 0x1D7F JUMP JUMPDEST SWAP2 POP PUSH2 0x261E DUP3 PUSH2 0x1D33 JUMP JUMPDEST SWAP2 POP PUSH2 0x262A DUP3 DUP9 PUSH2 0x182E JUMP JUMPDEST SWAP2 POP PUSH2 0x2635 DUP3 PUSH2 0x1DCB JUMP JUMPDEST SWAP2 POP PUSH2 0x2640 DUP3 PUSH2 0x1D33 JUMP JUMPDEST SWAP2 POP PUSH2 0x264C DUP3 DUP8 PUSH2 0x182E JUMP JUMPDEST SWAP2 POP PUSH2 0x2657 DUP3 PUSH2 0x1E17 JUMP JUMPDEST SWAP2 POP PUSH2 0x2662 DUP3 PUSH2 0x1D33 JUMP JUMPDEST SWAP2 POP PUSH2 0x266E DUP3 DUP7 PUSH2 0x182E JUMP JUMPDEST SWAP2 POP PUSH2 0x2679 DUP3 PUSH2 0x20BF JUMP JUMPDEST SWAP2 POP PUSH2 0x2684 DUP3 PUSH2 0x1D33 JUMP JUMPDEST SWAP2 POP PUSH2 0x2690 DUP3 DUP6 PUSH2 0x182E JUMP JUMPDEST SWAP2 POP PUSH2 0x269B DUP3 PUSH2 0x1EAF JUMP JUMPDEST SWAP2 POP PUSH2 0x26A6 DUP3 PUSH2 0x1D33 JUMP JUMPDEST SWAP2 POP PUSH2 0x26B2 DUP3 DUP5 PUSH2 0x182E JUMP JUMPDEST SWAP2 POP PUSH2 0x26BD DUP3 PUSH2 0x1EFB JUMP JUMPDEST SWAP2 POP DUP2 SWAP1 POP SWAP8 SWAP7 POP POP POP POP POP POP POP JUMP INVALID EXTCODECOPY PUSH20 0x76672077696474683D2239303022206865696768 PUSH21 0x3D22393030222076696577426F783D223020302033 ADDRESS ADDRESS KECCAK256 CALLER ADDRESS ADDRESS 0x22 KECCAK256 PUSH7 0x696C6C3D226E6F PUSH15 0x652220786D6C6E733D22687474703A 0x2F 0x2F PUSH24 0x77772E77332E6F72672F323030302F737667223E3C726563 PUSH21 0x2077696474683D2233303022206865696768743D22 CALLER ADDRESS ADDRESS 0x22 KECCAK256 PUSH7 0x696C6C3D222330 NUMBER ADDRESS NUMBER ADDRESS NUMBER 0x22 0x2F RETURNDATACOPY EXTCODECOPY PUSH8 0x3E3C706174682064 RETURNDATASIZE 0x22 0x4D CALLDATASIZE CALLDATASIZE KECCAK256 BALANCE ADDRESS CALLER BASEFEE ORIGIN CALLER CALLER JUMP BALANCE CODECOPY CALLDATACOPY BASEFEE CALLDATASIZE CALLDATASIZE JUMP BALANCE ADDRESS CALLER GAS 0x4D CALLDATASIZE CALLDATACOPY 0x2E CALLDATALOAD CODECOPY ADDRESS CALLDATALOAD KECCAK256 BALANCE ADDRESS CALLVALUE 0x2E CALLDATALOAD CODECOPY CALLER JUMP BALANCE CODECOPY CALLDATALOAD 0x2E CALLVALUE ADDRESS CALLDATACOPY BASEFEE ORIGIN CALLER BALANCE 0x2E CALLVALUE BALANCE JUMP BALANCE ADDRESS CALLVALUE 0x2E CALLDATALOAD CODECOPY CALLER BASEFEE CALLDATASIZE CALLDATACOPY 0x2E CALLDATALOAD CODECOPY ADDRESS CALLDATALOAD GAS 0x22 0x2F RETURNDATACOPY EXTCODECOPY PUSH17 0x6174682069643D227030312220643D224D BALANCE ADDRESS CODECOPY 0x2E CALLVALUE CALLVALUE BALANCE KECCAK256 BALANCE ORIGIN CALLDATALOAD 0x4C BALANCE BALANCE BALANCE 0x2E CODESIZE ORIGIN CALLER KECCAK256 BALANCE ORIGIN CALLDATACOPY 0x2E CALLVALUE BALANCE CODECOPY 0x4C BALANCE ADDRESS CODECOPY 0x2E CALLVALUE CALLVALUE BALANCE KECCAK256 BALANCE ORIGIN CODECOPY 0x2E CODESIZE CALLER CODECOPY 0x4C CODECOPY CALLER 0x2E CALLDATALOAD CALLDATALOAD CODESIZE CODESIZE KECCAK256 BALANCE ORIGIN CODECOPY 0x2E CODESIZE CALLER CODECOPY 0x4C CODECOPY BALANCE 0x2E BALANCE CALLDATACOPY CALLDATASIZE CALLVALUE KECCAK256 BALANCE ORIGIN CALLDATACOPY 0x2E CALLVALUE BALANCE CODECOPY 0x4C CODECOPY CALLER 0x2E CALLDATALOAD CALLDATALOAD CODESIZE CODESIZE KECCAK256 BALANCE ORIGIN CALLDATALOAD 0x4C BALANCE ADDRESS CODECOPY 0x2E CALLVALUE CALLVALUE BALANCE KECCAK256 BALANCE ORIGIN CALLDATALOAD GAS 0x22 KECCAK256 PUSH7 0x696C6C2D6F7061 PUSH4 0x6974793D 0x22 ADDRESS 0x2E ADDRESS CALLDATALOAD 0x22 0x2F RETURNDATACOPY EXTCODECOPY PUSH17 0x6174682069643D227030322220643D224D CODESIZE CODESIZE KECCAK256 BALANCE CALLER ADDRESS 0x2E CALLDATASIZE CALLVALUE CALLDATALOAD 0x4C CODECOPY ADDRESS 0x2E CALLER CODESIZE ORIGIN CALLVALUE KECCAK256 BALANCE ORIGIN CODESIZE 0x2E ORIGIN ORIGIN CALLDATASIZE 0x4C CODECOPY ORIGIN 0x2E CALLDATACOPY CALLDATASIZE CALLVALUE CALLDATACOPY KECCAK256 BALANCE CALLER ADDRESS 0x2E CALLDATASIZE CALLVALUE CALLDATALOAD JUMP BALANCE CALLVALUE CALLDATASIZE 0x2E CALLDATACOPY CALLDATACOPY CALLVALUE 0x4C CODECOPY ADDRESS 0x2E CALLER CODESIZE ORIGIN CALLVALUE KECCAK256 BALANCE CALLVALUE CODECOPY 0x2E BALANCE CODECOPY CALLVALUE 0x4C CODESIZE CODESIZE KECCAK256 BALANCE CALLVALUE CALLDATASIZE 0x2E CALLDATACOPY CALLDATACOPY CALLVALUE JUMP BALANCE CALLER ADDRESS 0x2E CALLDATASIZE CALLVALUE CALLDATALOAD GAS 0x22 KECCAK256 PUSH7 0x696C6C2D6F7061 PUSH4 0x6974793D 0x22 ADDRESS 0x2E ADDRESS CALLDATALOAD 0x22 0x2F RETURNDATACOPY EXTCODECOPY PUSH17 0x6174682069643D227030332220643D224D BALANCE BALANCE ADDRESS 0x2E ORIGIN CALLER CALLDATALOAD KECCAK256 BALANCE CALLER ADDRESS 0x2E CALLDATASIZE CALLVALUE CALLDATALOAD 0x4C BALANCE BALANCE ORIGIN 0x2E CALLDATASIZE BALANCE CODESIZE KECCAK256 BALANCE ORIGIN CODESIZE 0x2E ORIGIN ORIGIN CALLDATASIZE 0x4C BALANCE BALANCE CALLDATALOAD KECCAK256 BALANCE CALLER ADDRESS 0x2E CALLDATASIZE CALLVALUE CALLDATALOAD JUMP BALANCE CALLVALUE CALLDATASIZE 0x2E CALLDATACOPY CALLDATACOPY CALLVALUE 0x4C BALANCE BALANCE ORIGIN 0x2E CALLDATASIZE BALANCE CODESIZE KECCAK256 BALANCE CALLVALUE CODECOPY 0x2E BALANCE CODECOPY CALLVALUE 0x4C BALANCE BALANCE ADDRESS 0x2E ORIGIN CALLER CALLDATALOAD KECCAK256 BALANCE CALLVALUE CALLDATASIZE 0x2E CALLDATACOPY CALLDATACOPY CALLVALUE JUMP BALANCE CALLER ADDRESS 0x2E CALLDATASIZE CALLVALUE CALLDATALOAD GAS 0x22 KECCAK256 PUSH7 0x696C6C2D6F7061 PUSH4 0x6974793D 0x22 ADDRESS 0x2E ADDRESS CALLDATALOAD 0x22 0x2F RETURNDATACOPY EXTCODECOPY PUSH17 0x6174682069643D227030342220643D224D BALANCE ADDRESS CODECOPY 0x2E CALLVALUE CALLVALUE BALANCE KECCAK256 BALANCE CALLVALUE CALLDATACOPY 0x2E CALLDATALOAD CODESIZE BALANCE 0x4C BALANCE BALANCE BALANCE 0x2E CODESIZE ORIGIN CALLER KECCAK256 BALANCE CALLDATALOAD ADDRESS 0x4C BALANCE ADDRESS CODECOPY 0x2E CALLVALUE CALLVALUE BALANCE KECCAK256 BALANCE CALLDATALOAD ORIGIN 0x2E CALLVALUE BALANCE CODECOPY 0x4C CODECOPY CALLER 0x2E CALLDATALOAD CALLDATALOAD CODESIZE CODESIZE KECCAK256 BALANCE CALLDATALOAD ORIGIN 0x2E CALLVALUE BALANCE CODECOPY 0x4C CODECOPY BALANCE 0x2E BALANCE CALLDATACOPY CALLDATASIZE CALLVALUE KECCAK256 BALANCE CALLDATALOAD ADDRESS 0x4C CODECOPY CALLER 0x2E CALLDATALOAD CALLDATALOAD CODESIZE CODESIZE KECCAK256 BALANCE CALLVALUE CALLDATACOPY 0x2E CALLDATALOAD CODESIZE BALANCE 0x4C BALANCE ADDRESS CODECOPY 0x2E CALLVALUE CALLVALUE BALANCE KECCAK256 BALANCE CALLVALUE CALLDATACOPY 0x2E CALLDATALOAD CODESIZE BALANCE GAS 0x22 KECCAK256 PUSH7 0x696C6C2D6F7061 PUSH4 0x6974793D 0x22 ADDRESS 0x2E ADDRESS CALLDATALOAD 0x22 0x2F RETURNDATACOPY EXTCODECOPY PUSH17 0x6174682069643D227030352220643D224D CODESIZE CODESIZE KECCAK256 BALANCE CALLDATALOAD CALLER 0x2E ORIGIN ORIGIN CALLDATASIZE 0x4C CODECOPY ADDRESS 0x2E CALLER CODESIZE ORIGIN CALLVALUE KECCAK256 BALANCE CALLDATALOAD ADDRESS 0x2E CODESIZE ADDRESS CALLDATASIZE 0x4C CODECOPY ORIGIN 0x2E CALLDATACOPY CALLDATASIZE CALLVALUE CALLDATACOPY KECCAK256 BALANCE CALLDATALOAD CALLER 0x2E ORIGIN ORIGIN CALLDATASIZE JUMP BALANCE CALLDATASIZE CODECOPY 0x2E CALLER CALLDATALOAD CALLDATALOAD 0x4C CODECOPY ADDRESS 0x2E CALLER CODESIZE ORIGIN CALLVALUE KECCAK256 BALANCE CALLDATACOPY BALANCE 0x2E CALLDATACOPY CALLDATACOPY CALLVALUE 0x4C CODESIZE CODESIZE KECCAK256 BALANCE CALLDATASIZE CODECOPY 0x2E CALLER CALLDATALOAD CALLDATALOAD JUMP BALANCE CALLDATALOAD CALLER 0x2E ORIGIN ORIGIN CALLDATASIZE GAS 0x22 KECCAK256 PUSH7 0x696C6C2D6F7061 PUSH4 0x6974793D 0x22 ADDRESS 0x2E ADDRESS CALLDATALOAD 0x22 0x2F RETURNDATACOPY EXTCODECOPY PUSH17 0x6174682069643D227030362220643D224D BALANCE BALANCE ADDRESS 0x2E ORIGIN CALLER CALLDATALOAD KECCAK256 BALANCE CALLDATALOAD CALLER 0x2E ORIGIN ORIGIN CALLDATASIZE 0x4C BALANCE BALANCE ORIGIN 0x2E CALLDATASIZE BALANCE CODESIZE KECCAK256 BALANCE CALLDATALOAD ADDRESS 0x2E CODESIZE ADDRESS CALLDATASIZE 0x4C BALANCE BALANCE CALLDATALOAD KECCAK256 BALANCE CALLDATALOAD CALLER 0x2E ORIGIN ORIGIN CALLDATASIZE JUMP BALANCE CALLDATASIZE CODECOPY 0x2E CALLER CALLDATALOAD CALLDATALOAD 0x4C BALANCE BALANCE ORIGIN 0x2E CALLDATASIZE BALANCE CODESIZE KECCAK256 BALANCE CALLDATACOPY BALANCE 0x2E CALLDATACOPY CALLDATACOPY CALLVALUE 0x4C BALANCE BALANCE ADDRESS 0x2E ORIGIN CALLER CALLDATALOAD KECCAK256 BALANCE CALLDATASIZE CODECOPY 0x2E CALLER CALLDATALOAD CALLDATALOAD JUMP BALANCE CALLDATALOAD CALLER 0x2E ORIGIN ORIGIN CALLDATASIZE GAS 0x22 KECCAK256 PUSH7 0x696C6C2D6F7061 PUSH4 0x6974793D 0x22 ADDRESS 0x2E ADDRESS CALLDATALOAD 0x22 0x2F RETURNDATACOPY EXTCODECOPY PUSH17 0x6174682069643D227030372220643D224D BALANCE ADDRESS CODECOPY 0x2E CALLVALUE CALLVALUE BALANCE KECCAK256 BALANCE CALLDATACOPY ADDRESS 0x2E BALANCE CALLDATASIZE BALANCE 0x4C BALANCE BALANCE BALANCE 0x2E CODESIZE ORIGIN CALLER KECCAK256 BALANCE CALLDATACOPY ORIGIN 0x2E CALLDATALOAD CODESIZE BALANCE 0x4C BALANCE ADDRESS CODECOPY 0x2E CALLVALUE CALLVALUE BALANCE KECCAK256 BALANCE CALLDATACOPY CALLDATALOAD 0x4C CODECOPY CALLER 0x2E CALLDATALOAD CALLDATALOAD CODESIZE CODESIZE KECCAK256 BALANCE CALLDATACOPY CALLDATALOAD 0x4C CODECOPY BALANCE 0x2E BALANCE CALLDATACOPY CALLDATASIZE CALLVALUE KECCAK256 BALANCE CALLDATACOPY ORIGIN 0x2E CALLDATALOAD CODESIZE BALANCE 0x4C CODECOPY CALLER 0x2E CALLDATALOAD CALLDATALOAD CODESIZE CODESIZE KECCAK256 BALANCE CALLDATACOPY ADDRESS 0x2E BALANCE CALLDATASIZE BALANCE 0x4C BALANCE ADDRESS CODECOPY 0x2E CALLVALUE CALLVALUE BALANCE KECCAK256 BALANCE CALLDATACOPY ADDRESS 0x2E BALANCE CALLDATASIZE BALANCE GAS 0x22 KECCAK256 PUSH7 0x696C6C2D6F7061 PUSH4 0x6974793D 0x22 ADDRESS 0x2E ADDRESS CALLDATALOAD 0x22 0x2F RETURNDATACOPY EXTCODECOPY PUSH17 0x6174682069643D227031312220643D224D BALANCE CALLVALUE BALANCE 0x2E CALLVALUE CALLVALUE BALANCE KECCAK256 BALANCE ORIGIN CALLDATALOAD 0x4C BALANCE CALLVALUE CALLER 0x2E CODESIZE ORIGIN CALLER KECCAK256 BALANCE ORIGIN CALLDATACOPY 0x2E CALLVALUE BALANCE CODECOPY 0x4C BALANCE CALLVALUE BALANCE 0x2E CALLVALUE CALLVALUE BALANCE KECCAK256 BALANCE ORIGIN CODECOPY 0x2E CODESIZE CALLER CODECOPY 0x4C BALANCE ORIGIN CALLDATALOAD 0x2E CALLDATALOAD CALLDATALOAD CODECOPY KECCAK256 BALANCE ORIGIN CODECOPY 0x2E CODESIZE CALLER CODECOPY 0x4C BALANCE ORIGIN CALLER 0x2E BALANCE CALLDATACOPY CALLDATASIZE KECCAK256 BALANCE ORIGIN CALLDATACOPY 0x2E CALLVALUE BALANCE CODECOPY 0x4C BALANCE ORIGIN CALLDATALOAD 0x2E CALLDATALOAD CALLDATALOAD CODECOPY KECCAK256 BALANCE ORIGIN CALLDATALOAD 0x4C BALANCE CALLVALUE BALANCE 0x2E CALLVALUE CALLVALUE BALANCE KECCAK256 BALANCE ORIGIN CALLDATALOAD GAS 0x22 KECCAK256 PUSH7 0x696C6C2D6F7061 PUSH4 0x6974793D 0x22 ADDRESS 0x2E ADDRESS CALLDATALOAD 0x22 0x2F RETURNDATACOPY EXTCODECOPY PUSH17 0x6174682069643D227031322220643D224D BALANCE ORIGIN ADDRESS KECCAK256 BALANCE CALLER ADDRESS 0x2E CALLDATASIZE CALLVALUE CALLDATALOAD 0x4C BALANCE ORIGIN ORIGIN 0x2E CALLER CODESIZE ORIGIN KECCAK256 BALANCE ORIGIN CODESIZE 0x2E ORIGIN ORIGIN CALLDATASIZE 0x4C BALANCE ORIGIN CALLVALUE 0x2E CALLDATACOPY CALLDATASIZE CALLDATALOAD KECCAK256 BALANCE CALLER ADDRESS 0x2E CALLDATASIZE CALLVALUE CALLDATALOAD JUMP BALANCE CALLVALUE CALLDATASIZE 0x2E CALLDATACOPY CALLDATACOPY CALLVALUE 0x4C BALANCE ORIGIN ORIGIN 0x2E CALLER CODESIZE ORIGIN KECCAK256 BALANCE CALLVALUE CODECOPY 0x2E BALANCE CODECOPY CALLVALUE 0x4C BALANCE ORIGIN ADDRESS KECCAK256 BALANCE CALLVALUE CALLDATASIZE 0x2E CALLDATACOPY CALLDATACOPY CALLVALUE JUMP BALANCE CALLER ADDRESS 0x2E CALLDATASIZE CALLVALUE CALLDATALOAD GAS 0x22 KECCAK256 PUSH7 0x696C6C2D6F7061 PUSH4 0x6974793D 0x22 ADDRESS 0x2E ADDRESS CALLDATALOAD 0x22 0x2F RETURNDATACOPY EXTCODECOPY PUSH17 0x6174682069643D227031332220643D224D BALANCE CALLVALUE ORIGIN 0x2E ORIGIN CALLER CALLDATALOAD KECCAK256 BALANCE CALLER ADDRESS 0x2E CALLDATASIZE CALLVALUE CALLDATALOAD 0x4C BALANCE CALLVALUE CALLVALUE 0x2E CALLDATASIZE BALANCE CODESIZE KECCAK256 BALANCE ORIGIN CODESIZE 0x2E ORIGIN ORIGIN CALLDATASIZE 0x4C BALANCE CALLVALUE CALLDATACOPY KECCAK256 BALANCE CALLER ADDRESS 0x2E CALLDATASIZE CALLVALUE CALLDATALOAD JUMP BALANCE CALLVALUE CALLDATASIZE 0x2E CALLDATACOPY CALLDATACOPY CALLVALUE 0x4C BALANCE CALLVALUE CALLVALUE 0x2E CALLDATASIZE BALANCE CODESIZE KECCAK256 BALANCE CALLVALUE CODECOPY 0x2E BALANCE CODECOPY CALLVALUE 0x4C BALANCE CALLVALUE ORIGIN 0x2E ORIGIN CALLER CALLDATALOAD KECCAK256 BALANCE CALLVALUE CALLDATASIZE 0x2E CALLDATACOPY CALLDATACOPY CALLVALUE JUMP BALANCE CALLER ADDRESS 0x2E CALLDATASIZE CALLVALUE CALLDATALOAD GAS 0x22 KECCAK256 PUSH7 0x696C6C2D6F7061 PUSH4 0x6974793D 0x22 ADDRESS 0x2E ADDRESS CALLDATALOAD 0x22 0x2F RETURNDATACOPY EXTCODECOPY PUSH17 0x6174682069643D227031342220643D224D BALANCE CALLVALUE BALANCE 0x2E CALLVALUE CALLVALUE BALANCE KECCAK256 BALANCE CALLVALUE CALLDATACOPY 0x2E CALLDATALOAD CODESIZE BALANCE 0x4C BALANCE CALLVALUE CALLER 0x2E CODESIZE ORIGIN CALLER KECCAK256 BALANCE CALLDATALOAD ADDRESS 0x4C BALANCE CALLVALUE BALANCE 0x2E CALLVALUE CALLVALUE BALANCE KECCAK256 BALANCE CALLDATALOAD ORIGIN 0x2E CALLVALUE BALANCE CODECOPY 0x4C BALANCE ORIGIN CALLDATALOAD 0x2E CALLDATALOAD CALLDATALOAD CODECOPY KECCAK256 BALANCE CALLDATALOAD ORIGIN 0x2E CALLVALUE BALANCE CODECOPY 0x4C BALANCE ORIGIN CALLER 0x2E BALANCE CALLDATACOPY CALLDATASIZE KECCAK256 BALANCE CALLDATALOAD ADDRESS 0x4C BALANCE ORIGIN CALLDATALOAD 0x2E CALLDATALOAD CALLDATALOAD CODECOPY KECCAK256 BALANCE CALLVALUE CALLDATACOPY 0x2E CALLDATALOAD CODESIZE BALANCE 0x4C BALANCE CALLVALUE BALANCE 0x2E CALLVALUE CALLVALUE BALANCE KECCAK256 BALANCE CALLVALUE CALLDATACOPY 0x2E CALLDATALOAD CODESIZE BALANCE GAS 0x22 KECCAK256 PUSH7 0x696C6C2D6F7061 PUSH4 0x6974793D 0x22 ADDRESS 0x2E ADDRESS CALLDATALOAD 0x22 0x2F RETURNDATACOPY EXTCODECOPY PUSH17 0x6174682069643D227031352220643D224D BALANCE ORIGIN ADDRESS KECCAK256 BALANCE CALLDATALOAD CALLER 0x2E ORIGIN ORIGIN CALLDATASIZE 0x4C BALANCE ORIGIN ORIGIN 0x2E CALLER CODESIZE ORIGIN KECCAK256 BALANCE CALLDATALOAD ADDRESS 0x2E CODESIZE ADDRESS CALLDATASIZE 0x4C BALANCE ORIGIN CALLVALUE 0x2E CALLDATACOPY CALLDATASIZE CALLDATALOAD KECCAK256 BALANCE CALLDATALOAD CALLER 0x2E ORIGIN ORIGIN CALLDATASIZE JUMP BALANCE CALLDATASIZE CODECOPY 0x2E CALLER CALLDATALOAD CALLDATALOAD 0x4C BALANCE ORIGIN ORIGIN 0x2E CALLER CODESIZE ORIGIN KECCAK256 BALANCE CALLDATACOPY BALANCE 0x2E CALLDATACOPY CALLDATACOPY CALLVALUE 0x4C BALANCE ORIGIN ADDRESS KECCAK256 BALANCE CALLDATASIZE CODECOPY 0x2E CALLER CALLDATALOAD CALLDATALOAD JUMP BALANCE CALLDATALOAD CALLER 0x2E ORIGIN ORIGIN CALLDATASIZE GAS 0x22 KECCAK256 PUSH7 0x696C6C2D6F7061 PUSH4 0x6974793D 0x22 ADDRESS 0x2E ADDRESS CALLDATALOAD 0x22 0x2F RETURNDATACOPY EXTCODECOPY PUSH17 0x6174682069643D227031362220643D224D BALANCE CALLVALUE ORIGIN 0x2E ORIGIN CALLER CALLDATALOAD KECCAK256 BALANCE CALLDATALOAD CALLER 0x2E ORIGIN ORIGIN CALLDATASIZE 0x4C BALANCE CALLVALUE CALLVALUE 0x2E CALLDATASIZE BALANCE CODESIZE KECCAK256 BALANCE CALLDATALOAD ADDRESS 0x2E CODESIZE ADDRESS CALLDATASIZE 0x4C BALANCE CALLVALUE CALLDATACOPY KECCAK256 BALANCE CALLDATALOAD CALLER 0x2E ORIGIN ORIGIN CALLDATASIZE JUMP BALANCE CALLDATASIZE CODECOPY 0x2E CALLER CALLDATALOAD CALLDATALOAD 0x4C BALANCE CALLVALUE CALLVALUE 0x2E CALLDATASIZE BALANCE CODESIZE KECCAK256 BALANCE CALLDATACOPY BALANCE 0x2E CALLDATACOPY CALLDATACOPY CALLVALUE 0x4C BALANCE CALLVALUE ORIGIN 0x2E ORIGIN CALLER CALLDATALOAD KECCAK256 BALANCE CALLDATASIZE CODECOPY 0x2E CALLER CALLDATALOAD CALLDATALOAD JUMP BALANCE CALLDATALOAD CALLER 0x2E ORIGIN ORIGIN CALLDATASIZE GAS 0x22 KECCAK256 PUSH7 0x696C6C2D6F7061 PUSH4 0x6974793D 0x22 ADDRESS 0x2E ADDRESS CALLDATALOAD 0x22 0x2F RETURNDATACOPY EXTCODECOPY PUSH17 0x6174682069643D227031372220643D224D BALANCE CALLVALUE BALANCE 0x2E CALLVALUE CALLVALUE BALANCE KECCAK256 BALANCE CALLDATACOPY ADDRESS 0x2E BALANCE CALLDATASIZE BALANCE 0x4C BALANCE CALLVALUE CALLER 0x2E CODESIZE ORIGIN CALLER KECCAK256 BALANCE CALLDATACOPY ORIGIN 0x2E CALLDATALOAD CODESIZE BALANCE 0x4C BALANCE CALLVALUE BALANCE 0x2E CALLVALUE CALLVALUE BALANCE KECCAK256 BALANCE CALLDATACOPY CALLDATALOAD 0x4C BALANCE ORIGIN CALLDATALOAD 0x2E CALLDATALOAD CALLDATALOAD CODECOPY KECCAK256 BALANCE CALLDATACOPY CALLDATALOAD 0x4C BALANCE ORIGIN CALLER 0x2E BALANCE CALLDATACOPY CALLDATASIZE KECCAK256 BALANCE CALLDATACOPY ORIGIN 0x2E CALLDATALOAD CODESIZE BALANCE 0x4C BALANCE ORIGIN CALLDATALOAD 0x2E CALLDATALOAD CALLDATALOAD CODECOPY KECCAK256 BALANCE CALLDATACOPY ADDRESS 0x2E BALANCE CALLDATASIZE BALANCE 0x4C BALANCE CALLVALUE BALANCE 0x2E CALLVALUE CALLVALUE BALANCE KECCAK256 BALANCE CALLDATACOPY ADDRESS 0x2E BALANCE CALLDATASIZE BALANCE GAS 0x22 KECCAK256 PUSH7 0x696C6C2D6F7061 PUSH4 0x6974793D 0x22 ADDRESS 0x2E ADDRESS CALLDATALOAD 0x22 0x2F RETURNDATACOPY EXTCODECOPY PUSH17 0x6174682069643D227032312220643D224D BALANCE CALLDATACOPY CALLER 0x2E CALLVALUE CALLVALUE BALANCE KECCAK256 BALANCE ORIGIN CALLDATALOAD 0x4C BALANCE CALLDATACOPY CALLDATALOAD 0x2E CODESIZE ORIGIN CALLER KECCAK256 BALANCE ORIGIN CALLDATACOPY 0x2E CALLVALUE BALANCE CODECOPY 0x4C BALANCE CALLDATACOPY CALLER 0x2E CALLVALUE CALLVALUE BALANCE KECCAK256 BALANCE ORIGIN CODECOPY 0x2E CODESIZE CALLER CODECOPY 0x4C BALANCE CALLDATALOAD CALLDATACOPY 0x2E CALLDATALOAD CALLDATALOAD CODECOPY KECCAK256 BALANCE ORIGIN CODECOPY 0x2E CODESIZE CALLER CODECOPY 0x4C BALANCE CALLDATALOAD CALLDATALOAD 0x2E BALANCE CALLDATACOPY CALLDATASIZE KECCAK256 BALANCE ORIGIN CALLDATACOPY 0x2E CALLVALUE BALANCE CODECOPY 0x4C BALANCE CALLDATALOAD CALLDATACOPY 0x2E CALLDATALOAD CALLDATALOAD CODECOPY KECCAK256 BALANCE ORIGIN CALLDATALOAD 0x4C BALANCE CALLDATACOPY CALLER 0x2E CALLVALUE CALLVALUE BALANCE KECCAK256 BALANCE ORIGIN CALLDATALOAD GAS 0x22 KECCAK256 PUSH7 0x696C6C2D6F7061 PUSH4 0x6974793D 0x22 ADDRESS 0x2E ADDRESS CALLDATALOAD 0x22 0x2F RETURNDATACOPY EXTCODECOPY PUSH17 0x6174682069643D227032322220643D224D BALANCE CALLDATALOAD ORIGIN KECCAK256 BALANCE CALLER ADDRESS 0x2E CALLDATASIZE CALLVALUE CALLDATALOAD 0x4C BALANCE CALLDATALOAD CALLVALUE 0x2E CALLER CODESIZE ORIGIN KECCAK256 BALANCE ORIGIN CODESIZE 0x2E ORIGIN ORIGIN CALLDATASIZE 0x4C BALANCE CALLDATALOAD CALLDATASIZE 0x2E CALLDATACOPY CALLDATASIZE CALLDATALOAD KECCAK256 BALANCE CALLER ADDRESS 0x2E CALLDATASIZE CALLVALUE CALLDATALOAD JUMP BALANCE CALLVALUE CALLDATASIZE 0x2E CALLDATACOPY CALLDATACOPY CALLVALUE 0x4C BALANCE CALLDATALOAD CALLVALUE 0x2E CALLER CODESIZE ORIGIN KECCAK256 BALANCE CALLVALUE CODECOPY 0x2E BALANCE CODECOPY CALLVALUE 0x4C BALANCE CALLDATALOAD ORIGIN KECCAK256 BALANCE CALLVALUE CALLDATASIZE 0x2E CALLDATACOPY CALLDATACOPY CALLVALUE JUMP BALANCE CALLER ADDRESS 0x2E CALLDATASIZE CALLVALUE CALLDATALOAD GAS 0x22 KECCAK256 PUSH7 0x696C6C2D6F7061 PUSH4 0x6974793D 0x22 ADDRESS 0x2E ADDRESS CALLDATALOAD 0x22 0x2F RETURNDATACOPY EXTCODECOPY PUSH17 0x6174682069643D227032332220643D224D BALANCE CALLDATACOPY CALLVALUE 0x2E ORIGIN CALLER CALLDATALOAD KECCAK256 BALANCE CALLER ADDRESS 0x2E CALLDATASIZE CALLVALUE CALLDATALOAD 0x4C BALANCE CALLDATACOPY CALLDATASIZE 0x2E CALLDATASIZE BALANCE CODESIZE KECCAK256 BALANCE ORIGIN CODESIZE 0x2E ORIGIN ORIGIN CALLDATASIZE 0x4C BALANCE CALLDATACOPY CODECOPY KECCAK256 BALANCE CALLER ADDRESS 0x2E CALLDATASIZE CALLVALUE CALLDATALOAD JUMP BALANCE CALLVALUE CALLDATASIZE 0x2E CALLDATACOPY CALLDATACOPY CALLVALUE 0x4C BALANCE CALLDATACOPY CALLDATASIZE 0x2E CALLDATASIZE BALANCE CODESIZE KECCAK256 BALANCE CALLVALUE CODECOPY 0x2E BALANCE CODECOPY CALLVALUE 0x4C BALANCE CALLDATACOPY CALLVALUE 0x2E ORIGIN CALLER CALLDATALOAD KECCAK256 BALANCE CALLVALUE CALLDATASIZE 0x2E CALLDATACOPY CALLDATACOPY CALLVALUE JUMP BALANCE CALLER ADDRESS 0x2E CALLDATASIZE CALLVALUE CALLDATALOAD GAS 0x22 KECCAK256 PUSH7 0x696C6C2D6F7061 PUSH4 0x6974793D 0x22 ADDRESS 0x2E ADDRESS CALLDATALOAD 0x22 0x2F RETURNDATACOPY EXTCODECOPY PUSH17 0x6174682069643D227032342220643D224D BALANCE CALLDATACOPY CALLER 0x2E CALLVALUE CALLVALUE BALANCE KECCAK256 BALANCE CALLVALUE CALLDATACOPY 0x2E CALLDATALOAD CODESIZE BALANCE 0x4C BALANCE CALLDATACOPY CALLDATALOAD 0x2E CODESIZE ORIGIN CALLER KECCAK256 BALANCE CALLDATALOAD ADDRESS 0x4C BALANCE CALLDATACOPY CALLER 0x2E CALLVALUE CALLVALUE BALANCE KECCAK256 BALANCE CALLDATALOAD ORIGIN 0x2E CALLVALUE BALANCE CODECOPY 0x4C BALANCE CALLDATALOAD CALLDATACOPY 0x2E CALLDATALOAD CALLDATALOAD CODECOPY KECCAK256 BALANCE CALLDATALOAD ORIGIN 0x2E CALLVALUE BALANCE CODECOPY 0x4C BALANCE CALLDATALOAD CALLDATALOAD 0x2E BALANCE CALLDATACOPY CALLDATASIZE KECCAK256 BALANCE CALLDATALOAD ADDRESS 0x4C BALANCE CALLDATALOAD CALLDATACOPY 0x2E CALLDATALOAD CALLDATALOAD CODECOPY KECCAK256 BALANCE CALLVALUE CALLDATACOPY 0x2E CALLDATALOAD CODESIZE BALANCE 0x4C BALANCE CALLDATACOPY CALLER 0x2E CALLVALUE CALLVALUE BALANCE KECCAK256 BALANCE CALLVALUE CALLDATACOPY 0x2E CALLDATALOAD CODESIZE BALANCE GAS 0x22 KECCAK256 PUSH7 0x696C6C2D6F7061 PUSH4 0x6974793D 0x22 ADDRESS 0x2E ADDRESS CALLDATALOAD 0x22 0x2F RETURNDATACOPY EXTCODECOPY PUSH17 0x6174682069643D227032352220643D224D BALANCE CALLDATALOAD ORIGIN KECCAK256 BALANCE CALLDATALOAD CALLER 0x2E ORIGIN ORIGIN CALLDATASIZE 0x4C BALANCE CALLDATALOAD CALLVALUE 0x2E CALLER CODESIZE ORIGIN KECCAK256 BALANCE CALLDATALOAD ADDRESS 0x2E CODESIZE ADDRESS CALLDATASIZE 0x4C BALANCE CALLDATALOAD CALLDATASIZE 0x2E CALLDATACOPY CALLDATASIZE CALLDATALOAD KECCAK256 BALANCE CALLDATALOAD CALLER 0x2E ORIGIN ORIGIN CALLDATASIZE JUMP BALANCE CALLDATASIZE CODECOPY 0x2E CALLER CALLDATALOAD CALLDATALOAD 0x4C BALANCE CALLDATALOAD CALLVALUE 0x2E CALLER CODESIZE ORIGIN KECCAK256 BALANCE CALLDATACOPY BALANCE 0x2E CALLDATACOPY CALLDATACOPY CALLVALUE 0x4C BALANCE CALLDATALOAD ORIGIN KECCAK256 BALANCE CALLDATASIZE CODECOPY 0x2E CALLER CALLDATALOAD CALLDATALOAD JUMP BALANCE CALLDATALOAD CALLER 0x2E ORIGIN ORIGIN CALLDATASIZE GAS 0x22 KECCAK256 PUSH7 0x696C6C2D6F7061 PUSH4 0x6974793D 0x22 ADDRESS 0x2E ADDRESS CALLDATALOAD 0x22 0x2F RETURNDATACOPY EXTCODECOPY PUSH17 0x6174682069643D227032362220643D224D BALANCE CALLDATACOPY CALLVALUE 0x2E ORIGIN CALLER CALLDATALOAD KECCAK256 BALANCE CALLDATALOAD CALLER 0x2E ORIGIN ORIGIN CALLDATASIZE 0x4C BALANCE CALLDATACOPY CALLDATASIZE 0x2E CALLDATASIZE BALANCE CODESIZE KECCAK256 BALANCE CALLDATALOAD ADDRESS 0x2E CODESIZE ADDRESS CALLDATASIZE 0x4C BALANCE CALLDATACOPY CODECOPY KECCAK256 BALANCE CALLDATALOAD CALLER 0x2E ORIGIN ORIGIN CALLDATASIZE JUMP BALANCE CALLDATASIZE CODECOPY 0x2E CALLER CALLDATALOAD CALLDATALOAD 0x4C BALANCE CALLDATACOPY CALLDATASIZE 0x2E CALLDATASIZE BALANCE CODESIZE KECCAK256 BALANCE CALLDATACOPY BALANCE 0x2E CALLDATACOPY CALLDATACOPY CALLVALUE 0x4C BALANCE CALLDATACOPY CALLVALUE 0x2E ORIGIN CALLER CALLDATALOAD KECCAK256 BALANCE CALLDATASIZE CODECOPY 0x2E CALLER CALLDATALOAD CALLDATALOAD JUMP BALANCE CALLDATALOAD CALLER 0x2E ORIGIN ORIGIN CALLDATASIZE GAS 0x22 KECCAK256 PUSH7 0x696C6C2D6F7061 PUSH4 0x6974793D 0x22 ADDRESS 0x2E ADDRESS CALLDATALOAD 0x22 0x2F RETURNDATACOPY EXTCODECOPY PUSH17 0x6174682069643D227032372220643D224D BALANCE CALLDATACOPY CALLER 0x2E CALLVALUE CALLVALUE BALANCE KECCAK256 BALANCE CALLDATACOPY ADDRESS 0x2E BALANCE CALLDATASIZE BALANCE 0x4C BALANCE CALLDATACOPY CALLDATALOAD 0x2E CODESIZE ORIGIN CALLER KECCAK256 BALANCE CALLDATACOPY ORIGIN 0x2E CALLDATALOAD CODESIZE BALANCE 0x4C BALANCE CALLDATACOPY CALLER 0x2E CALLVALUE CALLVALUE BALANCE KECCAK256 BALANCE CALLDATACOPY CALLDATALOAD 0x4C BALANCE CALLDATALOAD CALLDATACOPY 0x2E CALLDATALOAD CALLDATALOAD CODECOPY KECCAK256 BALANCE CALLDATACOPY CALLDATALOAD 0x4C BALANCE CALLDATALOAD CALLDATALOAD 0x2E BALANCE CALLDATACOPY CALLDATASIZE KECCAK256 BALANCE CALLDATACOPY ORIGIN 0x2E CALLDATALOAD CODESIZE BALANCE 0x4C BALANCE CALLDATALOAD CALLDATACOPY 0x2E CALLDATALOAD CALLDATALOAD CODECOPY KECCAK256 BALANCE CALLDATACOPY ADDRESS 0x2E BALANCE CALLDATASIZE BALANCE 0x4C BALANCE CALLDATACOPY CALLER 0x2E CALLVALUE CALLVALUE BALANCE KECCAK256 BALANCE CALLDATACOPY ADDRESS 0x2E BALANCE CALLDATASIZE BALANCE GAS 0x22 KECCAK256 PUSH7 0x696C6C2D6F7061 PUSH4 0x6974793D 0x22 ADDRESS 0x2E ADDRESS CALLDATALOAD 0x22 0x2F RETURNDATACOPY EXTCODECOPY PUSH17 0x6174682069643D227033312220643D224D ORIGIN ADDRESS CALLDATALOAD 0x2E CALLVALUE CALLVALUE BALANCE KECCAK256 BALANCE ORIGIN CALLDATALOAD 0x4C ORIGIN ADDRESS CALLDATACOPY 0x2E CODESIZE ORIGIN CALLER KECCAK256 BALANCE ORIGIN CALLDATACOPY 0x2E CALLVALUE BALANCE CODECOPY 0x4C ORIGIN ADDRESS CALLDATALOAD 0x2E CALLVALUE CALLVALUE BALANCE KECCAK256 BALANCE ORIGIN CODECOPY 0x2E CODESIZE CALLER CODECOPY 0x4C BALANCE CODESIZE CODECOPY 0x2E CALLDATALOAD CALLDATALOAD CODECOPY KECCAK256 BALANCE ORIGIN CODECOPY 0x2E CODESIZE CALLER CODECOPY 0x4C BALANCE CODESIZE CALLDATACOPY 0x2E BALANCE CALLDATACOPY CALLDATASIZE KECCAK256 BALANCE ORIGIN CALLDATACOPY 0x2E CALLVALUE BALANCE CODECOPY 0x4C BALANCE CODESIZE CODECOPY 0x2E CALLDATALOAD CALLDATALOAD CODECOPY KECCAK256 BALANCE ORIGIN CALLDATALOAD 0x4C ORIGIN ADDRESS CALLDATALOAD 0x2E CALLVALUE CALLVALUE BALANCE KECCAK256 BALANCE ORIGIN CALLDATALOAD GAS 0x22 KECCAK256 PUSH7 0x696C6C2D6F7061 PUSH4 0x6974793D 0x22 ADDRESS 0x2E ADDRESS CALLDATALOAD 0x22 0x2F RETURNDATACOPY EXTCODECOPY PUSH17 0x6174682069643D227033322220643D224D BALANCE CODESIZE CALLVALUE KECCAK256 BALANCE CALLER ADDRESS 0x2E CALLDATASIZE CALLVALUE CALLDATALOAD 0x4C BALANCE CODESIZE CALLDATASIZE 0x2E CALLER CODESIZE ORIGIN KECCAK256 BALANCE ORIGIN CODESIZE 0x2E ORIGIN ORIGIN CALLDATASIZE 0x4C BALANCE CODESIZE CODESIZE 0x2E CALLDATACOPY CALLDATASIZE CALLDATALOAD KECCAK256 BALANCE CALLER ADDRESS 0x2E CALLDATASIZE CALLVALUE CALLDATALOAD JUMP BALANCE CALLVALUE CALLDATASIZE 0x2E CALLDATACOPY CALLDATACOPY CALLVALUE 0x4C BALANCE CODESIZE CALLDATASIZE 0x2E CALLER CODESIZE ORIGIN KECCAK256 BALANCE CALLVALUE CODECOPY 0x2E BALANCE CODECOPY CALLVALUE 0x4C BALANCE CODESIZE CALLVALUE KECCAK256 BALANCE CALLVALUE CALLDATASIZE 0x2E CALLDATACOPY CALLDATACOPY CALLVALUE JUMP BALANCE CALLER ADDRESS 0x2E CALLDATASIZE CALLVALUE CALLDATALOAD GAS 0x22 KECCAK256 PUSH7 0x696C6C2D6F7061 PUSH4 0x6974793D 0x22 ADDRESS 0x2E ADDRESS CALLDATALOAD 0x22 0x2F RETURNDATACOPY EXTCODECOPY PUSH17 0x6174682069643D227033332220643D224D ORIGIN ADDRESS CALLDATASIZE 0x2E ORIGIN CALLER CALLDATALOAD KECCAK256 BALANCE CALLER ADDRESS 0x2E CALLDATASIZE CALLVALUE CALLDATALOAD 0x4C ORIGIN ADDRESS CODESIZE 0x2E CALLDATASIZE BALANCE CODESIZE KECCAK256 BALANCE ORIGIN CODESIZE 0x2E ORIGIN ORIGIN CALLDATASIZE 0x4C ORIGIN BALANCE BALANCE KECCAK256 BALANCE CALLER ADDRESS 0x2E CALLDATASIZE CALLVALUE CALLDATALOAD JUMP BALANCE CALLVALUE CALLDATASIZE 0x2E CALLDATACOPY CALLDATACOPY CALLVALUE 0x4C ORIGIN ADDRESS CODESIZE 0x2E CALLDATASIZE BALANCE CODESIZE KECCAK256 BALANCE CALLVALUE CODECOPY 0x2E BALANCE CODECOPY CALLVALUE 0x4C ORIGIN ADDRESS CALLDATASIZE 0x2E ORIGIN CALLER CALLDATALOAD KECCAK256 BALANCE CALLVALUE CALLDATASIZE 0x2E CALLDATACOPY CALLDATACOPY CALLVALUE JUMP BALANCE CALLER ADDRESS 0x2E CALLDATASIZE CALLVALUE CALLDATALOAD GAS 0x22 KECCAK256 PUSH7 0x696C6C2D6F7061 PUSH4 0x6974793D 0x22 ADDRESS 0x2E ADDRESS CALLDATALOAD 0x22 0x2F RETURNDATACOPY EXTCODECOPY PUSH17 0x6174682069643D227033342220643D224D ORIGIN ADDRESS CALLDATALOAD 0x2E CALLVALUE CALLVALUE BALANCE KECCAK256 BALANCE CALLVALUE CALLDATACOPY 0x2E CALLDATALOAD CODESIZE BALANCE 0x4C ORIGIN ADDRESS CALLDATACOPY 0x2E CODESIZE ORIGIN CALLER KECCAK256 BALANCE CALLDATALOAD ADDRESS 0x4C ORIGIN ADDRESS CALLDATALOAD 0x2E CALLVALUE CALLVALUE BALANCE KECCAK256 BALANCE CALLDATALOAD ORIGIN 0x2E CALLVALUE BALANCE CODECOPY 0x4C BALANCE CODESIZE CODECOPY 0x2E CALLDATALOAD CALLDATALOAD CODECOPY KECCAK256 BALANCE CALLDATALOAD ORIGIN 0x2E CALLVALUE BALANCE CODECOPY 0x4C BALANCE CODESIZE CALLDATACOPY 0x2E BALANCE CALLDATACOPY CALLDATASIZE KECCAK256 BALANCE CALLDATALOAD ADDRESS 0x4C BALANCE CODESIZE CODECOPY 0x2E CALLDATALOAD CALLDATALOAD CODECOPY KECCAK256 BALANCE CALLVALUE CALLDATACOPY 0x2E CALLDATALOAD CODESIZE BALANCE 0x4C ORIGIN ADDRESS CALLDATALOAD 0x2E CALLVALUE CALLVALUE BALANCE KECCAK256 BALANCE CALLVALUE CALLDATACOPY 0x2E CALLDATALOAD CODESIZE BALANCE GAS 0x22 KECCAK256 PUSH7 0x696C6C2D6F7061 PUSH4 0x6974793D 0x22 ADDRESS 0x2E ADDRESS CALLDATALOAD 0x22 0x2F RETURNDATACOPY EXTCODECOPY PUSH17 0x6174682069643D227033352220643D224D BALANCE CODESIZE CALLVALUE KECCAK256 BALANCE CALLDATALOAD CALLER 0x2E ORIGIN ORIGIN CALLDATASIZE 0x4C BALANCE CODESIZE CALLDATASIZE 0x2E CALLER CODESIZE ORIGIN KECCAK256 BALANCE CALLDATALOAD ADDRESS 0x2E CODESIZE ADDRESS CALLDATASIZE 0x4C BALANCE CODESIZE CODESIZE 0x2E CALLDATACOPY CALLDATASIZE CALLDATALOAD KECCAK256 BALANCE CALLDATALOAD CALLER 0x2E ORIGIN ORIGIN CALLDATASIZE JUMP BALANCE CALLDATASIZE CODECOPY 0x2E CALLER CALLDATALOAD CALLDATALOAD 0x4C BALANCE CODESIZE CALLDATASIZE 0x2E CALLER CODESIZE ORIGIN KECCAK256 BALANCE CALLDATACOPY BALANCE 0x2E CALLDATACOPY CALLDATACOPY CALLVALUE 0x4C BALANCE CODESIZE CALLVALUE KECCAK256 BALANCE CALLDATASIZE CODECOPY 0x2E CALLER CALLDATALOAD CALLDATALOAD JUMP BALANCE CALLDATALOAD CALLER 0x2E ORIGIN ORIGIN CALLDATASIZE GAS 0x22 KECCAK256 PUSH7 0x696C6C2D6F7061 PUSH4 0x6974793D 0x22 ADDRESS 0x2E ADDRESS CALLDATALOAD 0x22 0x2F RETURNDATACOPY EXTCODECOPY PUSH17 0x6174682069643D227033362220643D224D ORIGIN ADDRESS CALLDATASIZE 0x2E ORIGIN CALLER CALLDATALOAD KECCAK256 BALANCE CALLDATALOAD CALLER 0x2E ORIGIN ORIGIN CALLDATASIZE 0x4C ORIGIN ADDRESS CODESIZE 0x2E CALLDATASIZE BALANCE CODESIZE KECCAK256 BALANCE CALLDATALOAD ADDRESS 0x2E CODESIZE ADDRESS CALLDATASIZE 0x4C ORIGIN BALANCE BALANCE KECCAK256 BALANCE CALLDATALOAD CALLER 0x2E ORIGIN ORIGIN CALLDATASIZE JUMP BALANCE CALLDATASIZE CODECOPY 0x2E CALLER CALLDATALOAD CALLDATALOAD 0x4C ORIGIN ADDRESS CODESIZE 0x2E CALLDATASIZE BALANCE CODESIZE KECCAK256 BALANCE CALLDATACOPY BALANCE 0x2E CALLDATACOPY CALLDATACOPY CALLVALUE 0x4C ORIGIN ADDRESS CALLDATASIZE 0x2E ORIGIN CALLER CALLDATALOAD KECCAK256 BALANCE CALLDATASIZE CODECOPY 0x2E CALLER CALLDATALOAD CALLDATALOAD JUMP BALANCE CALLDATALOAD CALLER 0x2E ORIGIN ORIGIN CALLDATASIZE GAS 0x22 KECCAK256 PUSH7 0x696C6C2D6F7061 PUSH4 0x6974793D 0x22 ADDRESS 0x2E ADDRESS CALLDATALOAD 0x22 0x2F RETURNDATACOPY EXTCODECOPY PUSH17 0x6174682069643D227033372220643D224D ORIGIN ADDRESS CALLDATALOAD 0x2E CALLVALUE CALLVALUE BALANCE KECCAK256 BALANCE CALLDATACOPY ADDRESS 0x2E BALANCE CALLDATASIZE BALANCE 0x4C ORIGIN ADDRESS CALLDATACOPY 0x2E CODESIZE ORIGIN CALLER KECCAK256 BALANCE CALLDATACOPY ORIGIN 0x2E CALLDATALOAD CODESIZE BALANCE 0x4C ORIGIN ADDRESS CALLDATALOAD 0x2E CALLVALUE CALLVALUE BALANCE KECCAK256 BALANCE CALLDATACOPY CALLDATALOAD 0x4C BALANCE CODESIZE CODECOPY 0x2E CALLDATALOAD CALLDATALOAD CODECOPY KECCAK256 BALANCE CALLDATACOPY CALLDATALOAD 0x4C BALANCE CODESIZE CALLDATACOPY 0x2E BALANCE CALLDATACOPY CALLDATASIZE KECCAK256 BALANCE CALLDATACOPY ORIGIN 0x2E CALLDATALOAD CODESIZE BALANCE 0x4C BALANCE CODESIZE CODECOPY 0x2E CALLDATALOAD CALLDATALOAD CODECOPY KECCAK256 BALANCE CALLDATACOPY ADDRESS 0x2E BALANCE CALLDATASIZE BALANCE 0x4C ORIGIN ADDRESS CALLDATALOAD 0x2E CALLVALUE CALLVALUE BALANCE KECCAK256 BALANCE CALLDATACOPY ADDRESS 0x2E BALANCE CALLDATASIZE BALANCE GAS 0x22 KECCAK256 PUSH7 0x696C6C2D6F7061 PUSH4 0x6974793D 0x22 ADDRESS 0x2E ADDRESS CALLDATALOAD 0x22 0x2F RETURNDATACOPY EXTCODECOPY PUSH2 0x6E69 PUSH14 0x617465206174747269627574654E PUSH2 0x6D65 RETURNDATASIZE 0x22 PUSH7 0x696C6C22206475 PUSH19 0x3D223237732220726570656174436F756E743D 0x22 PUSH10 0x6E646566696E69746522 KECCAK256 PUSH23 0x616C7565733D22A26469706673582212208F47C4ED1ECD DUP2 PUSH19 0xE13B728D212DC9E1A0061507C4B2676F0DC206 ADD PUSH27 0x59F43464736F6C6343000812003300000000000000000000000000 "
		},
		"gasEstimates": {
			"creation": {
				"codeDepositCost": "2827200",
				"executionCost": "53754",
				"totalCost": "2880954"
			},
			"external": {
				"addToAnimation((uint256,uint256,uint256))": "infinite",
				"animationColors(uint256)": "infinite",
				"animationIndex()": "2518",
				"broadcastCounter()": "2475",
				"broadcastNumber(uint256,uint256)": "infinite",
				"currentTime()": "402",
				"displayNumber()": "2474",
				"frozenUntil()": "2518",
				"getMessageSender()": "408",
				"getSvg()": "infinite",
				"getValue(uint256)": "infinite",
				"isTokenOwner(uint256)": "infinite",
				"minutesUntilAvailable()": "infinite",
				"ownerOf(uint256)": "infinite",
				"startAnimationColors()": "infinite"
			},
			"internal": {
				"uint2str(uint256)": "infinite"
			}
		},
		"methodIdentifiers": {
			"addToAnimation((uint256,uint256,uint256))": "da51ba85",
			"animationColors(uint256)": "03a1d342",
			"animationIndex()": "875cc7a8",
			"broadcastCounter()": "057e3087",
			"broadcastNumber(uint256,uint256)": "7fb03d2b",
			"currentTime()": "d18e81b3",
			"displayNumber()": "7641c510",
			"frozenUntil()": "6b47ffd7",
			"getMessageSender()": "76167a89",
			"getSvg()": "4dcd342d",
			"getValue(uint256)": "0ff4c916",
			"isTokenOwner(uint256)": "26e532db",
			"minutesUntilAvailable()": "98265fac",
			"ownerOf(uint256)": "6352211e",
			"startAnimationColors()": "a98f4666"
		}
	},
	"abi": [
		{
			"inputs": [
				{
					"components": [
						{
							"internalType": "uint256",
							"name": "red",
							"type": "uint256"
						},
						{
							"internalType": "uint256",
							"name": "green",
							"type": "uint256"
						},
						{
							"internalType": "uint256",
							"name": "blue",
							"type": "uint256"
						}
					],
					"internalType": "struct UINTSEdition.Rgb",
					"name": "colors",
					"type": "tuple"
				}
			],
			"name": "addToAnimation",
			"outputs": [],
			"stateMutability": "nonpayable",
			"type": "function"
		},
		{
			"inputs": [
				{
					"internalType": "uint256",
					"name": "",
					"type": "uint256"
				}
			],
			"name": "animationColors",
			"outputs": [
				{
					"internalType": "uint256",
					"name": "red",
					"type": "uint256"
				},
				{
					"internalType": "uint256",
					"name": "green",
					"type": "uint256"
				},
				{
					"internalType": "uint256",
					"name": "blue",
					"type": "uint256"
				}
			],
			"stateMutability": "view",
			"type": "function"
		},
		{
			"inputs": [],
			"name": "animationIndex",
			"outputs": [
				{
					"internalType": "uint256",
					"name": "",
					"type": "uint256"
				}
			],
			"stateMutability": "view",
			"type": "function"
		},
		{
			"inputs": [],
			"name": "broadcastCounter",
			"outputs": [
				{
					"internalType": "uint256",
					"name": "",
					"type": "uint256"
				}
			],
			"stateMutability": "view",
			"type": "function"
		},
		{
			"inputs": [
				{
					"internalType": "uint256",
					"name": "number",
					"type": "uint256"
				},
				{
					"internalType": "uint256",
					"name": "tokenValue",
					"type": "uint256"
				}
			],
			"name": "broadcastNumber",
			"outputs": [],
			"stateMutability": "nonpayable",
			"type": "function"
		},
		{
			"inputs": [],
			"name": "currentTime",
			"outputs": [
				{
					"internalType": "uint256",
					"name": "",
					"type": "uint256"
				}
			],
			"stateMutability": "view",
			"type": "function"
		},
		{
			"inputs": [],
			"name": "displayNumber",
			"outputs": [
				{
					"internalType": "uint256",
					"name": "",
					"type": "uint256"
				}
			],
			"stateMutability": "view",
			"type": "function"
		},
		{
			"inputs": [],
			"name": "frozenUntil",
			"outputs": [
				{
					"internalType": "uint256",
					"name": "",
					"type": "uint256"
				}
			],
			"stateMutability": "view",
			"type": "function"
		},
		{
			"inputs": [],
			"name": "getMessageSender",
			"outputs": [
				{
					"internalType": "address",
					"name": "",
					"type": "address"
				}
			],
			"stateMutability": "view",
			"type": "function"
		},
		{
			"inputs": [],
			"name": "getSvg",
			"outputs": [
				{
					"internalType": "string",
					"name": "",
					"type": "string"
				}
			],
			"stateMutability": "view",
			"type": "function"
		},
		{
			"inputs": [
				{
					"internalType": "uint256",
					"name": "id",
					"type": "uint256"
				}
			],
			"name": "getValue",
			"outputs": [
				{
					"internalType": "uint256",
					"name": "",
					"type": "uint256"
				}
			],
			"stateMutability": "view",
			"type": "function"
		},
		{
			"inputs": [
				{
					"internalType": "uint256",
					"name": "id",
					"type": "uint256"
				}
			],
			"name": "isTokenOwner",
			"outputs": [
				{
					"internalType": "bool",
					"name": "",
					"type": "bool"
				}
			],
			"stateMutability": "view",
			"type": "function"
		},
		{
			"inputs": [],
			"name": "minutesUntilAvailable",
			"outputs": [
				{
					"internalType": "uint256",
					"name": "",
					"type": "uint256"
				}
			],
			"stateMutability": "view",
			"type": "function"
		},
		{
			"inputs": [
				{
					"internalType": "uint256",
					"name": "id",
					"type": "uint256"
				}
			],
			"name": "ownerOf",
			"outputs": [
				{
					"internalType": "address",
					"name": "",
					"type": "address"
				}
			],
			"stateMutability": "view",
			"type": "function"
		},
		{
			"inputs": [],
			"name": "startAnimationColors",
			"outputs": [],
			"stateMutability": "nonpayable",
			"type": "function"
		}
	]
}