{
	"data": {
		"bytecode": {
			"linkReferences": {},
			"object": "6080604052739d83e140330758a8ffd07f8bd73e86ebca8a5692600c60006101000a81548173ffffffffffffffffffffffffffffffffffffffff021916908373ffffffffffffffffffffffffffffffffffffffff160217905550600c60009054906101000a900473ffffffffffffffffffffffffffffffffffffffff16600d60006101000a81548173ffffffffffffffffffffffffffffffffffffffff021916908373ffffffffffffffffffffffffffffffffffffffff16021790555073d8b934580fce35a11b58c6d73adee468a2833fa8600e60006101000a81548173ffffffffffffffffffffffffffffffffffffffff021916908373ffffffffffffffffffffffffffffffffffffffff160217905550600e60009054906101000a900473ffffffffffffffffffffffffffffffffffffffff16600f60006101000a81548173ffffffffffffffffffffffffffffffffffffffff021916908373ffffffffffffffffffffffffffffffffffffffff1602179055503480156200018157600080fd5b506040518060400160405280600a81526020017f55494e5453202d204f45000000000000000000000000000000000000000000008152506040518060400160405280600381526020017f554f4500000000000000000000000000000000000000000000000000000000008152508160029081620001ff9190620005a1565b508060039081620002119190620005a1565b50620002226200025060201b60201c565b60008190555050506200024a6200023e6200025960201b60201c565b6200026160201b60201c565b62000688565b60006001905090565b600033905090565b6000600860009054906101000a900473ffffffffffffffffffffffffffffffffffffffff16905081600860006101000a81548173ffffffffffffffffffffffffffffffffffffffff021916908373ffffffffffffffffffffffffffffffffffffffff1602179055508173ffffffffffffffffffffffffffffffffffffffff168173ffffffffffffffffffffffffffffffffffffffff167f8be0079c531659141344cd1fd0a4f28419497f9722a3daafe3b4186f6b6457e060405160405180910390a35050565b600081519050919050565b7f4e487b7100000000000000000000000000000000000000000000000000000000600052604160045260246000fd5b7f4e487b7100000000000000000000000000000000000000000000000000000000600052602260045260246000fd5b60006002820490506001821680620003a957607f821691505b602082108103620003bf57620003be62000361565b5b50919050565b60008190508160005260206000209050919050565b60006020601f8301049050919050565b600082821b905092915050565b600060088302620004297fffffffffffffffffffffffffffffffffffffffffffffffffffffffffffffffff82620003ea565b620004358683620003ea565b95508019841693508086168417925050509392505050565b6000819050919050565b6000819050919050565b6000620004826200047c62000476846200044d565b62000457565b6200044d565b9050919050565b6000819050919050565b6200049e8362000461565b620004b6620004ad8262000489565b848454620003f7565b825550505050565b600090565b620004cd620004be565b620004da81848462000493565b505050565b5b818110156200050257620004f6600082620004c3565b600181019050620004e0565b5050565b601f82111562000551576200051b81620003c5565b6200052684620003da565b8101602085101562000536578190505b6200054e6200054585620003da565b830182620004df565b50505b505050565b600082821c905092915050565b6000620005766000198460080262000556565b1980831691505092915050565b600062000591838362000563565b9150826002028217905092915050565b620005ac8262000327565b67ffffffffffffffff811115620005c857620005c762000332565b5b620005d4825462000390565b620005e182828562000506565b600060209050601f83116001811462000619576000841562000604578287015190505b62000610858262000583565b86555062000680565b601f1984166200062986620003c5565b60005b8281101562000653578489015182556001820191506020850194506020810190506200062c565b868310156200067357848901516200066f601f89168262000563565b8355505b6001600288020188555050505b505050505050565b6142aa80620006986000396000f3fe60806040526004361061014b5760003560e01c806370a08231116100b6578063aaf4389a1161006f578063aaf4389a14610431578063b67756ed1461045c578063b88d4fde14610485578063c87b56dd146104a1578063e985e9c5146104de578063f2fde38b1461051b5761014b565b806370a0823114610333578063715018a6146103705780637708b2d9146103875780638da5cb5b146103b257806395d89b41146103dd578063a22cb465146104085761014b565b806323b872dd1161010857806323b872dd1461025357806332783e5b1461026f5780633ccfd60b146102ac57806342842e0e146102c35780634310e42e146102df5780636352211e146102f65761014b565b806301ffc9a71461015057806306fdde031461018d578063081812fc146101b8578063095ea7b3146101f55780630ced86371461021157806318160ddd14610228575b600080fd5b34801561015c57600080fd5b5061017760048036038101906101729190611b23565b610544565b6040516101849190611b6b565b60405180910390f35b34801561019957600080fd5b506101a26105d6565b6040516101af9190611c16565b60405180910390f35b3480156101c457600080fd5b506101df60048036038101906101da9190611c6e565b610668565b6040516101ec9190611cdc565b60405180910390f35b61020f600480360381019061020a9190611d23565b6106e7565b005b34801561021d57600080fd5b5061022661082b565b005b34801561023457600080fd5b5061023d610838565b60405161024a9190611d72565b60405180910390f35b61026d60048036038101906102689190611d8d565b61084f565b005b34801561027b57600080fd5b5061029660048036038101906102919190611f15565b610b71565b6040516102a39190611c16565b60405180910390f35b3480156102b857600080fd5b506102c1610b9a565b005b6102dd60048036038101906102d89190611d8d565b610be2565b005b3480156102eb57600080fd5b506102f4610c02565b005b34801561030257600080fd5b5061031d60048036038101906103189190611c6e565b610c64565b60405161032a9190611cdc565b60405180910390f35b34801561033f57600080fd5b5061035a60048036038101906103559190611f5e565b610c76565b6040516103679190611d72565b60405180910390f35b34801561037c57600080fd5b50610385610d2e565b005b34801561039357600080fd5b5061039c610d42565b6040516103a99190611c16565b60405180910390f35b3480156103be57600080fd5b506103c7610dab565b6040516103d49190611cdc565b60405180910390f35b3480156103e957600080fd5b506103f2610dd5565b6040516103ff9190611c16565b60405180910390f35b34801561041457600080fd5b5061042f600480360381019061042a9190611fb7565b610e67565b005b34801561043d57600080fd5b50610446610f72565b6040516104539190611d72565b60405180910390f35b34801561046857600080fd5b50610483600480360381019061047e91906120ad565b610f78565b005b61049f600480360381019061049a919061218e565b611087565b005b3480156104ad57600080fd5b506104c860048036038101906104c39190611c6e565b6110fa565b6040516104d59190611c16565b60405180910390f35b3480156104ea57600080fd5b5061050560048036038101906105009190612211565b611177565b6040516105129190611b6b565b60405180910390f35b34801561052757600080fd5b50610542600480360381019061053d9190611f5e565b61120b565b005b60006301ffc9a760e01b827bffffffffffffffffffffffffffffffffffffffffffffffffffffffff1916148061059f57506380ac58cd60e01b827bffffffffffffffffffffffffffffffffffffffffffffffffffffffff1916145b806105cf5750635b5e139f60e01b827bffffffffffffffffffffffffffffffffffffffffffffffffffffffff1916145b9050919050565b6060600280546105e590612280565b80601f016020809104026020016040519081016040528092919081815260200182805461061190612280565b801561065e5780601f106106335761010080835404028352916020019161065e565b820191906000526020600020905b81548152906001019060200180831161064157829003601f168201915b5050505050905090565b60006106738261128e565b6106a9576040517fcf4700e400000000000000000000000000000000000000000000000000000000815260040160405180910390fd5b6006600083815260200190815260200160002060000160009054906101000a900473ffffffffffffffffffffffffffffffffffffffff169050919050565b60006106f282610c64565b90508073ffffffffffffffffffffffffffffffffffffffff166107136112ed565b73ffffffffffffffffffffffffffffffffffffffff16146107765761073f8161073a6112ed565b611177565b610775576040517fcfb3b94200000000000000000000000000000000000000000000000000000000815260040160405180910390fd5b5b826006600084815260200190815260200160002060000160006101000a81548173ffffffffffffffffffffffffffffffffffffffff021916908373ffffffffffffffffffffffffffffffffffffffff160217905550818373ffffffffffffffffffffffffffffffffffffffff168273ffffffffffffffffffffffffffffffffffffffff167f8c5be1e5ebec7d5bd14f71427d1e84f3dd0314c0f7b2291e5b200ac8c7c3b92560405160405180910390a4505050565b6108363360016112f5565b565b60006108426114b0565b6001546000540303905090565b600061085a826114b9565b90508373ffffffffffffffffffffffffffffffffffffffff168173ffffffffffffffffffffffffffffffffffffffff16146108c1576040517fa114810000000000000000000000000000000000000000000000000000000000815260040160405180910390fd5b6000806108cd84611585565b915091506108e381876108de6112ed565b6115ac565b61092f576108f8866108f36112ed565b611177565b61092e576040517f59c896be00000000000000000000000000000000000000000000000000000000815260040160405180910390fd5b5b600073ffffffffffffffffffffffffffffffffffffffff168573ffffffffffffffffffffffffffffffffffffffff1603610995576040517fea553b3400000000000000000000000000000000000000000000000000000000815260040160405180910390fd5b6109a286868660016115f0565b80156109ad57600082555b600560008773ffffffffffffffffffffffffffffffffffffffff1673ffffffffffffffffffffffffffffffffffffffff168152602001908152602001600020600081546001900391905081905550600560008673ffffffffffffffffffffffffffffffffffffffff1673ffffffffffffffffffffffffffffffffffffffff1681526020019081526020016000206000815460010191905081905550610a7b85610a578888876115f6565b7c02000000000000000000000000000000000000000000000000000000001761161e565b600460008681526020019081526020016000208190555060007c0200000000000000000000000000000000000000000000000000000000841603610b015760006001850190506000600460008381526020019081526020016000205403610aff576000548114610afe578360046000838152602001908152602001600020819055505b5b505b838573ffffffffffffffffffffffffffffffffffffffff168773ffffffffffffffffffffffffffffffffffffffff167fddf252ad1be2c89b69c2b068fc378daa952ba7f163c4a11628f55a4df523b3ef60405160405180910390a4610b698686866001611649565b505050505050565b606081604051602001610b8491906136b2565b6040516020818303038152906040529050919050565b610ba261164f565b3373ffffffffffffffffffffffffffffffffffffffff166108fc479081150290604051600060405180830381858888f19350505050610be057600080fd5b565b610bfd83838360405180602001604052806000815250611087565b505050565b6000600190505b6041811015610c6157610c4e81604051806060016040528060ff42610c2e919061370e565b8152602001848152602001606485610c46919061376e565b815250610f78565b8080610c59906137a2565b915050610c09565b50565b6000610c6f826114b9565b9050919050565b60008073ffffffffffffffffffffffffffffffffffffffff168273ffffffffffffffffffffffffffffffffffffffff1603610cdd576040517f8f4eb60400000000000000000000000000000000000000000000000000000000815260040160405180910390fd5b67ffffffffffffffff600560008473ffffffffffffffffffffffffffffffffffffffff1673ffffffffffffffffffffffffffffffffffffffff16815260200190815260200160002054169050919050565b610d3661164f565b610d4060006116cd565b565b60606000600190505b6041811015610da75781610d5e82611793565b600a6000848152602001908152602001600020604051602001610d8393929190613966565b60405160208183030381529060405291508080610d9f906137a2565b915050610d4b565b5090565b6000600860009054906101000a900473ffffffffffffffffffffffffffffffffffffffff16905090565b606060038054610de490612280565b80601f0160208091040260200160405190810160405280929190818152602001828054610e1090612280565b8015610e5d5780601f10610e3257610100808354040283529160200191610e5d565b820191906000526020600020905b815481529060010190602001808311610e4057829003601f168201915b5050505050905090565b8060076000610e746112ed565b73ffffffffffffffffffffffffffffffffffffffff1673ffffffffffffffffffffffffffffffffffffffff16815260200190815260200160002060008473ffffffffffffffffffffffffffffffffffffffff1673ffffffffffffffffffffffffffffffffffffffff16815260200190815260200160002060006101000a81548160ff0219169083151502179055508173ffffffffffffffffffffffffffffffffffffffff16610f216112ed565b73ffffffffffffffffffffffffffffffffffffffff167f17307eab39ab6107e8899845ad3d59bd9653f200f220920489ca2b5937696c3183604051610f669190611b6b565b60405180910390a35050565b60095481565b600082118015610f885750604182105b610fc7576040517f08c379a0000000000000000000000000000000000000000000000000000000008152600401610fbe90613a04565b60405180910390fd5b610fe881600060038110610fde57610fdd613a24565b5b6020020151611793565b61100982600160038110610fff57610ffe613a24565b5b6020020151611793565b61102a836002600381106110205761101f613a24565b5b6020020151611793565b60405160200161103c93929190613b37565b604051602081830303815290604052600a6000848152602001908152602001600020908161106a9190613d2b565b506009600081548092919061107e906137a2565b91905055505050565b61109284848461084f565b60008373ffffffffffffffffffffffffffffffffffffffff163b146110f4576110bd848484846117e3565b6110f3576040517fd1a57ed600000000000000000000000000000000000000000000000000000000815260040160405180910390fd5b5b50505050565b6060600061110e611109610d42565b610b71565b9050600061111b84611793565b61112483611933565b604051602001611135929190613f2d565b604051602081830303815290604052905061114f81611933565b60405160200161115f9190613fbe565b60405160208183030381529060405292505050919050565b6000600760008473ffffffffffffffffffffffffffffffffffffffff1673ffffffffffffffffffffffffffffffffffffffff16815260200190815260200160002060008373ffffffffffffffffffffffffffffffffffffffff1673ffffffffffffffffffffffffffffffffffffffff16815260200190815260200160002060009054906101000a900460ff16905092915050565b61121361164f565b600073ffffffffffffffffffffffffffffffffffffffff168173ffffffffffffffffffffffffffffffffffffffff1603611282576040517f08c379a000000000000000000000000000000000000000000000000000000000815260040161127990614052565b60405180910390fd5b61128b816116cd565b50565b6000816112996114b0565b111580156112a8575060005482105b80156112e6575060007c0100000000000000000000000000000000000000000000000000000000600460008581526020019081526020016000205416145b9050919050565b600033905090565b60008054905060008203611335576040517fb562e8dd00000000000000000000000000000000000000000000000000000000815260040160405180910390fd5b61134260008483856115f0565b600160406001901b178202600560008573ffffffffffffffffffffffffffffffffffffffff1673ffffffffffffffffffffffffffffffffffffffff168152602001908152602001600020600082825401925050819055506113b9836113aa60008660006115f6565b6113b385611a96565b1761161e565b6004600083815260200190815260200160002081905550600080838301905073ffffffffffffffffffffffffffffffffffffffff85169150828260007fddf252ad1be2c89b69c2b068fc378daa952ba7f163c4a11628f55a4df523b3ef600080a4600183015b81811461145a57808360007fddf252ad1be2c89b69c2b068fc378daa952ba7f163c4a11628f55a4df523b3ef600080a460018101905061141f565b5060008203611495576040517f2e07630000000000000000000000000000000000000000000000000000000000815260040160405180910390fd5b8060008190555050506114ab6000848385611649565b505050565b60006001905090565b600080829050806114c86114b0565b1161154e5760005481101561154d5760006004600083815260200190815260200160002054905060007c010000000000000000000000000000000000000000000000000000000082160361154b575b60008103611541576004600083600190039350838152602001908152602001600020549050611517565b8092505050611580565b505b5b6040517fdf2d9b4200000000000000000000000000000000000000000000000000000000815260040160405180910390fd5b919050565b60008060006006600085815260200190815260200160002090508092508254915050915091565b600073ffffffffffffffffffffffffffffffffffffffff8316925073ffffffffffffffffffffffffffffffffffffffff821691508382148383141790509392505050565b50505050565b60008060e883901c905060e861160d868684611aa6565b62ffffff16901b9150509392505050565b600073ffffffffffffffffffffffffffffffffffffffff83169250814260a01b178317905092915050565b50505050565b611657611aaf565b73ffffffffffffffffffffffffffffffffffffffff16611675610dab565b73ffffffffffffffffffffffffffffffffffffffff16146116cb576040517f08c379a00000000000000000000000000000000000000000000000000000000081526004016116c2906140be565b60405180910390fd5b565b6000600860009054906101000a900473ffffffffffffffffffffffffffffffffffffffff16905081600860006101000a81548173ffffffffffffffffffffffffffffffffffffffff021916908373ffffffffffffffffffffffffffffffffffffffff1602179055508173ffffffffffffffffffffffffffffffffffffffff168173ffffffffffffffffffffffffffffffffffffffff167f8be0079c531659141344cd1fd0a4f28419497f9722a3daafe3b4186f6b6457e060405160405180910390a35050565b606060a060405101806040526020810391506000825281835b6001156117ce57600184039350600a81066030018453600a81049050806117ac575b50828103602084039350808452505050919050565b60008373ffffffffffffffffffffffffffffffffffffffff1663150b7a026118096112ed565b8786866040518563ffffffff1660e01b815260040161182b9493929190614133565b6020604051808303816000875af192505050801561186757506040513d601f19601f820116820180604052508101906118649190614194565b60015b6118e0573d8060008114611897576040519150601f19603f3d011682016040523d82523d6000602084013e61189c565b606091505b5060008151036118d8576040517fd1a57ed600000000000000000000000000000000000000000000000000000000815260040160405180910390fd5b805181602001fd5b63150b7a0260e01b7bffffffffffffffffffffffffffffffffffffffffffffffffffffffff1916817bffffffffffffffffffffffffffffffffffffffffffffffffffffffff191614915050949350505050565b6060600082510361195557604051806020016040528060008152509050611a91565b60006040518060600160405280604081526020016142356040913990506000600360028551611984919061376e565b61198e91906141c1565b600461199a91906141f2565b67ffffffffffffffff8111156119b3576119b2611dea565b5b6040519080825280601f01601f1916602001820160405280156119e55781602001600182028036833780820191505090505b509050600182016020820185865187015b80821015611a51576003820191508151603f8160121c168501518453600184019350603f81600c1c168501518453600184019350603f8160061c168501518453600184019350603f81168501518453600184019350506119f6565b5050600386510660018114611a6d5760028114611a8057611a88565b603d6001830353603d6002830353611a88565b603d60018303535b50505080925050505b919050565b60006001821460e11b9050919050565b60009392505050565b600033905090565b6000604051905090565b600080fd5b600080fd5b60007fffffffff0000000000000000000000000000000000000000000000000000000082169050919050565b611b0081611acb565b8114611b0b57600080fd5b50565b600081359050611b1d81611af7565b92915050565b600060208284031215611b3957611b38611ac1565b5b6000611b4784828501611b0e565b91505092915050565b60008115159050919050565b611b6581611b50565b82525050565b6000602082019050611b806000830184611b5c565b92915050565b600081519050919050565b600082825260208201905092915050565b60005b83811015611bc0578082015181840152602081019050611ba5565b60008484015250505050565b6000601f19601f8301169050919050565b6000611be882611b86565b611bf28185611b91565b9350611c02818560208601611ba2565b611c0b81611bcc565b840191505092915050565b60006020820190508181036000830152611c308184611bdd565b905092915050565b6000819050919050565b611c4b81611c38565b8114611c5657600080fd5b50565b600081359050611c6881611c42565b92915050565b600060208284031215611c8457611c83611ac1565b5b6000611c9284828501611c59565b91505092915050565b600073ffffffffffffffffffffffffffffffffffffffff82169050919050565b6000611cc682611c9b565b9050919050565b611cd681611cbb565b82525050565b6000602082019050611cf16000830184611ccd565b92915050565b611d0081611cbb565b8114611d0b57600080fd5b50565b600081359050611d1d81611cf7565b92915050565b60008060408385031215611d3a57611d39611ac1565b5b6000611d4885828601611d0e565b9250506020611d5985828601611c59565b9150509250929050565b611d6c81611c38565b82525050565b6000602082019050611d876000830184611d63565b92915050565b600080600060608486031215611da657611da5611ac1565b5b6000611db486828701611d0e565b9350506020611dc586828701611d0e565b9250506040611dd686828701611c59565b9150509250925092565b600080fd5b600080fd5b7f4e487b7100000000000000000000000000000000000000000000000000000000600052604160045260246000fd5b611e2282611bcc565b810181811067ffffffffffffffff82111715611e4157611e40611dea565b5b80604052505050565b6000611e54611ab7565b9050611e608282611e19565b919050565b600067ffffffffffffffff821115611e8057611e7f611dea565b5b611e8982611bcc565b9050602081019050919050565b82818337600083830152505050565b6000611eb8611eb384611e65565b611e4a565b905082815260208101848484011115611ed457611ed3611de5565b5b611edf848285611e96565b509392505050565b600082601f830112611efc57611efb611de0565b5b8135611f0c848260208601611ea5565b91505092915050565b600060208284031215611f2b57611f2a611ac1565b5b600082013567ffffffffffffffff811115611f4957611f48611ac6565b5b611f5584828501611ee7565b91505092915050565b600060208284031215611f7457611f73611ac1565b5b6000611f8284828501611d0e565b91505092915050565b611f9481611b50565b8114611f9f57600080fd5b50565b600081359050611fb181611f8b565b92915050565b60008060408385031215611fce57611fcd611ac1565b5b6000611fdc85828601611d0e565b9250506020611fed85828601611fa2565b9150509250929050565b600067ffffffffffffffff82111561201257612011611dea565b5b602082029050919050565b600080fd5b600061203561203084611ff7565b611e4a565b9050806020840283018581111561204f5761204e61201d565b5b835b8181101561207857806120648882611c59565b845260208401935050602081019050612051565b5050509392505050565b600082601f83011261209757612096611de0565b5b60036120a4848285612022565b91505092915050565b600080608083850312156120c4576120c3611ac1565b5b60006120d285828601611c59565b92505060206120e385828601612082565b9150509250929050565b600067ffffffffffffffff82111561210857612107611dea565b5b61211182611bcc565b9050602081019050919050565b600061213161212c846120ed565b611e4a565b90508281526020810184848401111561214d5761214c611de5565b5b612158848285611e96565b509392505050565b600082601f83011261217557612174611de0565b5b813561218584826020860161211e565b91505092915050565b600080600080608085870312156121a8576121a7611ac1565b5b60006121b687828801611d0e565b94505060206121c787828801611d0e565b93505060406121d887828801611c59565b925050606085013567ffffffffffffffff8111156121f9576121f8611ac6565b5b61220587828801612160565b91505092959194509250565b6000806040838503121561222857612227611ac1565b5b600061223685828601611d0e565b925050602061224785828601611d0e565b9150509250929050565b7f4e487b7100000000000000000000000000000000000000000000000000000000600052602260045260246000fd5b6000600282049050600182168061229857607f821691505b6020821081036122ab576122aa612251565b5b50919050565b600081905092915050565b7f3c7376672077696474683d2238343022206865696768743d223834302220766960008201527f6577426f783d22302030203134203134222066696c6c3d226e6f6e652220786d60208201527f6c6e733d22687474703a2f2f7777772e77332e6f72672f323030302f7376672260408201527f3e3c726563742077696474683d22313422206865696768743d2231342220666960608201527f6c6c3d2223304330433043222f3e3c6720636c6173733d2274696c6573223e3c60808201527f726563742069643d2270312220783d22332220793d2233222066696c6c3d222360a08201527f666666222f3e3c726563742069643d2270322220783d22342220793d2233222060c08201527f66696c6c3d2223666666222f3e3c726563742069643d2270332220783d22352260e08201527f20793d2233222066696c6c3d2223666666222f3e3c726563742069643d2270346101008201527f2220783d22362220793d2233222066696c6c3d2223666666222f3e3c726563746101208201527f2069643d2270352220783d22372220793d2233222066696c6c3d2223666666226101408201527f2f3e3c726563742069643d2270362220783d22382220793d2233222066696c6c6101608201527f3d2223666666222f3e3c726563742069643d2270372220783d22392220793d226101808201527f33222066696c6c3d2223666666222f3e3c726563742069643d2270382220783d6101a08201527f2231302220793d2233222066696c6c3d2223666666222f3e3c726563742069646101c08201527f3d2270392220783d22332220793d2234222066696c6c3d2223666666222f3e3c6101e08201527f726563742069643d227031302220783d22342220793d2234222066696c6c3d226102008201527f23666666222f3e3c726563742069643d227031312220783d22352220793d22346102208201527f222066696c6c3d2223666666222f3e3c726563742069643d227031322220783d6102408201527f22362220793d2234222066696c6c3d2223666666222f3e3c726563742069643d6102608201527f227031332220783d22372220793d2234222066696c6c3d2223666666222f3e3c6102808201527f726563742069643d227031342220783d22382220793d2234222066696c6c3d226102a08201527f23666666222f3e3c726563742069643d227031352220783d22392220793d22346102c08201527f222066696c6c3d2223666666222f3e3c726563742069643d227031362220783d6102e08201527f2231302220793d2234222066696c6c3d2223666666222f3e3c726563742069646103008201527f3d227031372220783d22332220793d2235222066696c6c3d2223666666222f3e6103208201527f3c726563742069643d227031382220783d22342220793d2235222066696c6c3d6103408201527f2223666666222f3e3c726563742069643d227031392220783d22352220793d226103608201527f35222066696c6c3d2223666666222f3e3c726563742069643d227032302220786103808201527f3d22362220793d2235222066696c6c3d2223666666222f3e3c726563742069646103a08201527f3d227032312220783d22372220793d2235222066696c6c3d2223666666222f3e6103c08201527f3c726563742069643d227032322220783d22382220793d2235222066696c6c3d6103e08201527f2223666666222f3e3c726563742069643d227032332220783d22392220793d226104008201527f35222066696c6c3d2223666666222f3e3c726563742069643d227032342220786104208201527f3d2231302220793d2235222066696c6c3d2223666666222f3e3c7265637420696104408201527f643d227032352220783d22332220793d2236222066696c6c3d2223666666222f6104608201527f3e3c726563742069643d227032362220783d22342220793d2236222066696c6c6104808201527f3d2223666666222f3e3c726563742069643d227032372220783d22352220793d6104a08201527f2236222066696c6c3d2223666666222f3e3c726563742069643d2270323822206104c08201527f783d22362220793d2236222066696c6c3d2223666666222f3e3c7265637420696104e08201527f643d227032392220783d22372220793d2236222066696c6c3d2223666666222f6105008201527f3e3c726563742069643d227033302220783d22382220793d2236222066696c6c6105208201527f3d2223666666222f3e3c726563742069643d227033312220783d22392220793d6105408201527f2236222066696c6c3d2223666666222f3e3c726563742069643d2270333222206105608201527f783d2231302220793d2236222066696c6c3d2223666666222f3e3c72656374206105808201527f69643d227033332220783d22332220793d2237222066696c6c3d2223666666226105a08201527f2f3e3c726563742069643d227033342220783d22342220793d2237222066696c6105c08201527f6c3d2223666666222f3e3c726563742069643d227033352220783d22352220796105e08201527f3d2237222066696c6c3d2223666666222f3e3c726563742069643d22703336226106008201527f20783d22362220793d2237222066696c6c3d2223666666222f3e3c72656374206106208201527f69643d227033372220783d22372220793d2237222066696c6c3d2223666666226106408201527f2f3e3c726563742069643d227033382220783d22382220793d2237222066696c6106608201527f6c3d2223666666222f3e3c726563742069643d227033392220783d22392220796106808201527f3d2237222066696c6c3d2223666666222f3e3c726563742069643d22703430226106a08201527f20783d2231302220793d2237222066696c6c3d2223666666222f3e3c726563746106c08201527f2069643d227034312220783d22332220793d2238222066696c6c3d22236666666106e08201527f222f3e3c726563742069643d227034322220783d22342220793d2238222066696107008201527f6c6c3d2223666666222f3e3c726563742069643d227034332220783d223522206107208201527f793d2238222066696c6c3d2223666666222f3e3c726563742069643d227034346107408201527f2220783d22362220793d2238222066696c6c3d2223666666222f3e3c726563746107608201527f2069643d227034352220783d22372220793d2238222066696c6c3d22236666666107808201527f222f3e3c726563742069643d227034362220783d22382220793d2238222066696107a08201527f6c6c3d2223666666222f3e3c726563742069643d227034372220783d223922206107c08201527f793d2238222066696c6c3d2223666666222f3e3c726563742069643d227034386107e08201527f2220783d2231302220793d2238222066696c6c3d2223666666222f3e3c7265636108008201527f742069643d227034392220783d22332220793d2239222066696c6c3d222366666108208201527f66222f3e3c726563742069643d227035302220783d22342220793d22392220666108408201527f696c6c3d2223666666222f3e3c726563742069643d227035312220783d2235226108608201527f20793d2239222066696c6c3d2223666666222f3e3c726563742069643d2270356108808201527f322220783d22362220793d2239222066696c6c3d2223666666222f3e3c7265636108a08201527f742069643d227035332220783d22372220793d2239222066696c6c3d222366666108c08201527f66222f3e3c726563742069643d227035342220783d22382220793d22392220666108e08201527f696c6c3d2223666666222f3e3c726563742069643d227035352220783d2239226109008201527f20793d2239222066696c6c3d2223666666222f3e3c726563742069643d2270356109208201527f362220783d2231302220793d2239222066696c6c3d2223666666222f3e3c72656109408201527f63742069643d227035372220783d22332220793d223130222066696c6c3d22236109608201527f666666222f3e3c726563742069643d227035382220783d22342220793d2231306109808201527f222066696c6c3d2223666666222f3e3c726563742069643d227035392220783d6109a08201527f22352220793d223130222066696c6c3d2223666666222f3e3c726563742069646109c08201527f3d227036302220783d22362220793d223130222066696c6c3d2223666666222f6109e08201527f3e3c726563742069643d227036312220783d22372220793d223130222066696c610a008201527f6c3d2223666666222f3e3c726563742069643d227036322220783d2238222079610a208201527f3d223130222066696c6c3d2223666666222f3e3c726563742069643d22703633610a408201527f2220783d22392220793d223130222066696c6c3d2223666666222f3e3c726563610a608201527f742069643d227036342220783d2231302220793d223130222066696c6c3d2223610a808201527f666666222f3e3c2f673e3c6720636c6173733d2267726964223e3c6c696e6520610aa08201527f78313d22312e303035222079313d222d322e3138353537652d3130222078323d610ac08201527f22312e303035222079323d223134222f3e3c6c696e652078313d22322e303035610ae08201527f222079313d222d322e3138353537652d3130222078323d22322e303035222079610b008201527f323d223134222f3e3c6c696e652078313d22332e303035222079313d222d322e610b208201527f3138353537652d3130222078323d22332e303035222079323d223134222f3e3c610b408201527f6c696e652078313d22342e303035222079313d222d322e3138353537652d3130610b608201527f222078323d22342e303035222079323d223134222f3e3c6c696e652078313d22610b808201527f352e303035222079313d222d322e3138353537652d3130222078323d22352e30610ba08201527f3035222079323d223134222f3e3c6c696e652078313d22362e30303522207931610bc08201527f3d222d322e3138353537652d3130222078323d22362e303035222079323d2231610be08201527f34222f3e3c6c696e652078313d22372e303035222079313d222d322e31383535610c008201527f37652d3130222078323d22372e303035222079323d223134222f3e3c6c696e65610c208201527f2078313d22382e303035222079313d222d322e3138353537652d313022207832610c408201527f3d22382e303035222079323d223134222f3e3c6c696e652078313d22392e3030610c608201527f35222079313d222d322e3138353537652d3130222078323d22392e3030352220610c808201527f79323d223134222f3e3c6c696e652078313d2231302e303035222079313d222d610ca08201527f322e3138353537652d3130222078323d2231302e303035222079323d22313422610cc08201527f2f3e3c6c696e652078313d2231312e303035222079313d222d322e3138353537610ce08201527f652d3130222078323d2231312e303035222079323d223134222f3e3c6c696e65610d008201527f2078313d2231322e303035222079313d222d322e3138353537652d3130222078610d208201527f323d2231322e303035222079323d223134222f3e3c6c696e652078313d223133610d408201527f2e303035222079313d222d322e3138353537652d3130222078323d2231332e30610d608201527f3035222079323d223134222f3e3c6c696e652078313d223134222079313d2231610d808201527f2e303035222079323d22312e303035222f3e3c6c696e652078313d2231342220610da08201527f79313d22322e303035222079323d22322e303035222f3e3c6c696e652078313d610dc08201527f223134222079313d22332e303035222079323d22332e303035222f3e3c6c696e610de08201527f652078313d223134222079313d22342e303035222079323d22342e303035222f610e008201527f3e3c6c696e652078313d223134222079313d22352e303035222079323d22352e610e208201527f303035222f3e3c6c696e652078313d223134222079313d22362e303035222079610e408201527f323d22362e303035222f3e3c6c696e652078313d223134222079313d22372e30610e608201527f3035222079323d22372e303035222f3e3c6c696e652078313d22313422207931610e808201527f3d22382e303035222079323d22382e303035222f3e3c6c696e652078313d2231610ea08201527f34222079313d22392e303035222079323d22392e303035222f3e3c6c696e6520610ec08201527f78313d223134222079313d2231302e303035222079323d2231302e303035222f610ee08201527f3e3c6c696e652078313d223134222079313d2231312e303035222079323d2231610f008201527f312e303035222f3e3c6c696e652078313d223134222079313d2231322e303035610f208201527f222079323d2231322e303035222f3e3c6c696e652078313d223134222079313d610f408201527f2231332e303035222079323d2231332e303035222f3e3c2f673e3c7374796c65610f608201527f3e2e74696c657320726563747b77696474683a3170783b6865696768743a3170610f808201527f783b7d2e677269647b7374726f6b653a233232323b7374726f6b652d77696474610fa08201527f683a2e30313b7d00000000000000000000000000000000000000000000000000610fc082015250565b600061361e610fc7836122b1565b9150613629826122bc565b610fc782019050919050565b600061364082611b86565b61364a81856122b1565b935061365a818560208601611ba2565b80840191505092915050565b7f3c2f7374796c653e3c2f7376673e000000000000000000000000000000000000600082015250565b600061369c600e836122b1565b91506136a782613666565b600e82019050919050565b60006136bd82613610565b91506136c98284613635565b91506136d48261368f565b915081905092915050565b7f4e487b7100000000000000000000000000000000000000000000000000000000600052601260045260246000fd5b600061371982611c38565b915061372483611c38565b925082613734576137336136df565b5b828206905092915050565b7f4e487b7100000000000000000000000000000000000000000000000000000000600052601160045260246000fd5b600061377982611c38565b915061378483611c38565b925082820190508082111561379c5761379b61373f565b5b92915050565b60006137ad82611c38565b91507fffffffffffffffffffffffffffffffffffffffffffffffffffffffffffffffff82036137df576137de61373f565b5b600182019050919050565b7f2370000000000000000000000000000000000000000000000000000000000000600082015250565b60006138206002836122b1565b915061382b826137ea565b600282019050919050565b7f7b66696c6c3a0000000000000000000000000000000000000000000000000000600082015250565b600061386c6006836122b1565b915061387782613836565b600682019050919050565b60008190508160005260206000209050919050565b600081546138a481612280565b6138ae81866122b1565b945060018216600081146138c957600181146138de57613911565b60ff1983168652811515820286019350613911565b6138e785613882565b60005b83811015613909578154818901526001820191506020810190506138ea565b838801955050505b50505092915050565b7f7d00000000000000000000000000000000000000000000000000000000000000600082015250565b60006139506001836122b1565b915061395b8261391a565b600182019050919050565b60006139728286613635565b915061397d82613813565b91506139898285613635565b91506139948261385f565b91506139a08284613897565b91506139ab82613943565b9150819050949350505050565b7f496e76616c696420706f736974696f6e00000000000000000000000000000000600082015250565b60006139ee601083611b91565b91506139f9826139b8565b602082019050919050565b60006020820190508181036000830152613a1d816139e1565b9050919050565b7f4e487b7100000000000000000000000000000000000000000000000000000000600052603260045260246000fd5b7f7267622800000000000000000000000000000000000000000000000000000000600082015250565b6000613a896004836122b1565b9150613a9482613a53565b600482019050919050565b7f2c00000000000000000000000000000000000000000000000000000000000000600082015250565b6000613ad56001836122b1565b9150613ae082613a9f565b600182019050919050565b7f2900000000000000000000000000000000000000000000000000000000000000600082015250565b6000613b216001836122b1565b9150613b2c82613aeb565b600182019050919050565b6000613b4282613a7c565b9150613b4e8286613635565b9150613b5982613ac8565b9150613b658285613635565b9150613b7082613ac8565b9150613b7c8284613635565b9150613b8782613b14565b9150819050949350505050565b60006020601f8301049050919050565b600082821b905092915050565b600060088302613be17fffffffffffffffffffffffffffffffffffffffffffffffffffffffffffffffff82613ba4565b613beb8683613ba4565b95508019841693508086168417925050509392505050565b6000819050919050565b6000613c28613c23613c1e84611c38565b613c03565b611c38565b9050919050565b6000819050919050565b613c4283613c0d565b613c56613c4e82613c2f565b848454613bb1565b825550505050565b600090565b613c6b613c5e565b613c76818484613c39565b505050565b5b81811015613c9a57613c8f600082613c63565b600181019050613c7c565b5050565b601f821115613cdf57613cb081613882565b613cb984613b94565b81016020851015613cc8578190505b613cdc613cd485613b94565b830182613c7b565b50505b505050565b600082821c905092915050565b6000613d0260001984600802613ce4565b1980831691505092915050565b6000613d1b8383613cf1565b9150826002028217905092915050565b613d3482611b86565b67ffffffffffffffff811115613d4d57613d4c611dea565b5b613d578254612280565b613d62828285613c9e565b600060209050601f831160018114613d955760008415613d83578287015190505b613d8d8582613d0f565b865550613df5565b601f198416613da386613882565b60005b82811015613dcb57848901518255600182019150602085019450602081019050613da6565b86831015613de85784890151613de4601f891682613cf1565b8355505b6001600288020188555050505b505050505050565b7f7b226e616d65223a2022506978656c5465737420000000000000000000000000600082015250565b6000613e336014836122b1565b9150613e3e82613dfd565b601482019050919050565b7f222c20226465736372697074696f6e223a20225468697320697320612074657360008201527f74222c2022696d616765223a2022646174613a696d6167652f7376672b786d6c60208201527f3b6261736536342c000000000000000000000000000000000000000000000000604082015250565b6000613ecb6048836122b1565b9150613ed682613e49565b604882019050919050565b7f227d000000000000000000000000000000000000000000000000000000000000600082015250565b6000613f176002836122b1565b9150613f2282613ee1565b600282019050919050565b6000613f3882613e26565b9150613f448285613635565b9150613f4f82613ebe565b9150613f5b8284613635565b9150613f6682613f0a565b91508190509392505050565b7f646174613a6170706c69636174696f6e2f6a736f6e3b6261736536342c000000600082015250565b6000613fa8601d836122b1565b9150613fb382613f72565b601d82019050919050565b6000613fc982613f9b565b9150613fd58284613635565b915081905092915050565b7f4f776e61626c653a206e6577206f776e657220697320746865207a65726f206160008201527f6464726573730000000000000000000000000000000000000000000000000000602082015250565b600061403c602683611b91565b915061404782613fe0565b604082019050919050565b6000602082019050818103600083015261406b8161402f565b9050919050565b7f4f776e61626c653a2063616c6c6572206973206e6f7420746865206f776e6572600082015250565b60006140a8602083611b91565b91506140b382614072565b602082019050919050565b600060208201905081810360008301526140d78161409b565b9050919050565b600081519050919050565b600082825260208201905092915050565b6000614105826140de565b61410f81856140e9565b935061411f818560208601611ba2565b61412881611bcc565b840191505092915050565b60006080820190506141486000830187611ccd565b6141556020830186611ccd565b6141626040830185611d63565b818103606083015261417481846140fa565b905095945050505050565b60008151905061418e81611af7565b92915050565b6000602082840312156141aa576141a9611ac1565b5b60006141b88482850161417f565b91505092915050565b60006141cc82611c38565b91506141d783611c38565b9250826141e7576141e66136df565b5b828204905092915050565b60006141fd82611c38565b915061420883611c38565b925082820261421681611c38565b9150828204841483151761422d5761422c61373f565b5b509291505056fe4142434445464748494a4b4c4d4e4f505152535455565758595a6162636465666768696a6b6c6d6e6f707172737475767778797a303132333435363738392b2fa26469706673582212203d7f5f70bd56a63ccf8d8156baa4ddfa34772e3c5ea656813f0aecd81127bde564736f6c63430008120033",
			"opcodes": "PUSH1 0x80 PUSH1 0x40 MSTORE PUSH20 0x9D83E140330758A8FFD07F8BD73E86EBCA8A5692 PUSH1 0xC PUSH1 0x0 PUSH2 0x100 EXP DUP2 SLOAD DUP2 PUSH20 0xFFFFFFFFFFFFFFFFFFFFFFFFFFFFFFFFFFFFFFFF MUL NOT AND SWAP1 DUP4 PUSH20 0xFFFFFFFFFFFFFFFFFFFFFFFFFFFFFFFFFFFFFFFF AND MUL OR SWAP1 SSTORE POP PUSH1 0xC PUSH1 0x0 SWAP1 SLOAD SWAP1 PUSH2 0x100 EXP SWAP1 DIV PUSH20 0xFFFFFFFFFFFFFFFFFFFFFFFFFFFFFFFFFFFFFFFF AND PUSH1 0xD PUSH1 0x0 PUSH2 0x100 EXP DUP2 SLOAD DUP2 PUSH20 0xFFFFFFFFFFFFFFFFFFFFFFFFFFFFFFFFFFFFFFFF MUL NOT AND SWAP1 DUP4 PUSH20 0xFFFFFFFFFFFFFFFFFFFFFFFFFFFFFFFFFFFFFFFF AND MUL OR SWAP1 SSTORE POP PUSH20 0xD8B934580FCE35A11B58C6D73ADEE468A2833FA8 PUSH1 0xE PUSH1 0x0 PUSH2 0x100 EXP DUP2 SLOAD DUP2 PUSH20 0xFFFFFFFFFFFFFFFFFFFFFFFFFFFFFFFFFFFFFFFF MUL NOT AND SWAP1 DUP4 PUSH20 0xFFFFFFFFFFFFFFFFFFFFFFFFFFFFFFFFFFFFFFFF AND MUL OR SWAP1 SSTORE POP PUSH1 0xE PUSH1 0x0 SWAP1 SLOAD SWAP1 PUSH2 0x100 EXP SWAP1 DIV PUSH20 0xFFFFFFFFFFFFFFFFFFFFFFFFFFFFFFFFFFFFFFFF AND PUSH1 0xF PUSH1 0x0 PUSH2 0x100 EXP DUP2 SLOAD DUP2 PUSH20 0xFFFFFFFFFFFFFFFFFFFFFFFFFFFFFFFFFFFFFFFF MUL NOT AND SWAP1 DUP4 PUSH20 0xFFFFFFFFFFFFFFFFFFFFFFFFFFFFFFFFFFFFFFFF AND MUL OR SWAP1 SSTORE POP CALLVALUE DUP1 ISZERO PUSH3 0x181 JUMPI PUSH1 0x0 DUP1 REVERT JUMPDEST POP PUSH1 0x40 MLOAD DUP1 PUSH1 0x40 ADD PUSH1 0x40 MSTORE DUP1 PUSH1 0xA DUP2 MSTORE PUSH1 0x20 ADD PUSH32 0x55494E5453202D204F4500000000000000000000000000000000000000000000 DUP2 MSTORE POP PUSH1 0x40 MLOAD DUP1 PUSH1 0x40 ADD PUSH1 0x40 MSTORE DUP1 PUSH1 0x3 DUP2 MSTORE PUSH1 0x20 ADD PUSH32 0x554F450000000000000000000000000000000000000000000000000000000000 DUP2 MSTORE POP DUP2 PUSH1 0x2 SWAP1 DUP2 PUSH3 0x1FF SWAP2 SWAP1 PUSH3 0x5A1 JUMP JUMPDEST POP DUP1 PUSH1 0x3 SWAP1 DUP2 PUSH3 0x211 SWAP2 SWAP1 PUSH3 0x5A1 JUMP JUMPDEST POP PUSH3 0x222 PUSH3 0x250 PUSH1 0x20 SHL PUSH1 0x20 SHR JUMP JUMPDEST PUSH1 0x0 DUP2 SWAP1 SSTORE POP POP POP PUSH3 0x24A PUSH3 0x23E PUSH3 0x259 PUSH1 0x20 SHL PUSH1 0x20 SHR JUMP JUMPDEST PUSH3 0x261 PUSH1 0x20 SHL PUSH1 0x20 SHR JUMP JUMPDEST PUSH3 0x688 JUMP JUMPDEST PUSH1 0x0 PUSH1 0x1 SWAP1 POP SWAP1 JUMP JUMPDEST PUSH1 0x0 CALLER SWAP1 POP SWAP1 JUMP JUMPDEST PUSH1 0x0 PUSH1 0x8 PUSH1 0x0 SWAP1 SLOAD SWAP1 PUSH2 0x100 EXP SWAP1 DIV PUSH20 0xFFFFFFFFFFFFFFFFFFFFFFFFFFFFFFFFFFFFFFFF AND SWAP1 POP DUP2 PUSH1 0x8 PUSH1 0x0 PUSH2 0x100 EXP DUP2 SLOAD DUP2 PUSH20 0xFFFFFFFFFFFFFFFFFFFFFFFFFFFFFFFFFFFFFFFF MUL NOT AND SWAP1 DUP4 PUSH20 0xFFFFFFFFFFFFFFFFFFFFFFFFFFFFFFFFFFFFFFFF AND MUL OR SWAP1 SSTORE POP DUP2 PUSH20 0xFFFFFFFFFFFFFFFFFFFFFFFFFFFFFFFFFFFFFFFF AND DUP2 PUSH20 0xFFFFFFFFFFFFFFFFFFFFFFFFFFFFFFFFFFFFFFFF AND PUSH32 0x8BE0079C531659141344CD1FD0A4F28419497F9722A3DAAFE3B4186F6B6457E0 PUSH1 0x40 MLOAD PUSH1 0x40 MLOAD DUP1 SWAP2 SUB SWAP1 LOG3 POP POP JUMP JUMPDEST PUSH1 0x0 DUP2 MLOAD SWAP1 POP SWAP2 SWAP1 POP JUMP JUMPDEST PUSH32 0x4E487B7100000000000000000000000000000000000000000000000000000000 PUSH1 0x0 MSTORE PUSH1 0x41 PUSH1 0x4 MSTORE PUSH1 0x24 PUSH1 0x0 REVERT JUMPDEST PUSH32 0x4E487B7100000000000000000000000000000000000000000000000000000000 PUSH1 0x0 MSTORE PUSH1 0x22 PUSH1 0x4 MSTORE PUSH1 0x24 PUSH1 0x0 REVERT JUMPDEST PUSH1 0x0 PUSH1 0x2 DUP3 DIV SWAP1 POP PUSH1 0x1 DUP3 AND DUP1 PUSH3 0x3A9 JUMPI PUSH1 0x7F DUP3 AND SWAP2 POP JUMPDEST PUSH1 0x20 DUP3 LT DUP2 SUB PUSH3 0x3BF JUMPI PUSH3 0x3BE PUSH3 0x361 JUMP JUMPDEST JUMPDEST POP SWAP2 SWAP1 POP JUMP JUMPDEST PUSH1 0x0 DUP2 SWAP1 POP DUP2 PUSH1 0x0 MSTORE PUSH1 0x20 PUSH1 0x0 KECCAK256 SWAP1 POP SWAP2 SWAP1 POP JUMP JUMPDEST PUSH1 0x0 PUSH1 0x20 PUSH1 0x1F DUP4 ADD DIV SWAP1 POP SWAP2 SWAP1 POP JUMP JUMPDEST PUSH1 0x0 DUP3 DUP3 SHL SWAP1 POP SWAP3 SWAP2 POP POP JUMP JUMPDEST PUSH1 0x0 PUSH1 0x8 DUP4 MUL PUSH3 0x429 PUSH32 0xFFFFFFFFFFFFFFFFFFFFFFFFFFFFFFFFFFFFFFFFFFFFFFFFFFFFFFFFFFFFFFFF DUP3 PUSH3 0x3EA JUMP JUMPDEST PUSH3 0x435 DUP7 DUP4 PUSH3 0x3EA JUMP JUMPDEST SWAP6 POP DUP1 NOT DUP5 AND SWAP4 POP DUP1 DUP7 AND DUP5 OR SWAP3 POP POP POP SWAP4 SWAP3 POP POP POP JUMP JUMPDEST PUSH1 0x0 DUP2 SWAP1 POP SWAP2 SWAP1 POP JUMP JUMPDEST PUSH1 0x0 DUP2 SWAP1 POP SWAP2 SWAP1 POP JUMP JUMPDEST PUSH1 0x0 PUSH3 0x482 PUSH3 0x47C PUSH3 0x476 DUP5 PUSH3 0x44D JUMP JUMPDEST PUSH3 0x457 JUMP JUMPDEST PUSH3 0x44D JUMP JUMPDEST SWAP1 POP SWAP2 SWAP1 POP JUMP JUMPDEST PUSH1 0x0 DUP2 SWAP1 POP SWAP2 SWAP1 POP JUMP JUMPDEST PUSH3 0x49E DUP4 PUSH3 0x461 JUMP JUMPDEST PUSH3 0x4B6 PUSH3 0x4AD DUP3 PUSH3 0x489 JUMP JUMPDEST DUP5 DUP5 SLOAD PUSH3 0x3F7 JUMP JUMPDEST DUP3 SSTORE POP POP POP POP JUMP JUMPDEST PUSH1 0x0 SWAP1 JUMP JUMPDEST PUSH3 0x4CD PUSH3 0x4BE JUMP JUMPDEST PUSH3 0x4DA DUP2 DUP5 DUP5 PUSH3 0x493 JUMP JUMPDEST POP POP POP JUMP JUMPDEST JUMPDEST DUP2 DUP2 LT ISZERO PUSH3 0x502 JUMPI PUSH3 0x4F6 PUSH1 0x0 DUP3 PUSH3 0x4C3 JUMP JUMPDEST PUSH1 0x1 DUP2 ADD SWAP1 POP PUSH3 0x4E0 JUMP JUMPDEST POP POP JUMP JUMPDEST PUSH1 0x1F DUP3 GT ISZERO PUSH3 0x551 JUMPI PUSH3 0x51B DUP2 PUSH3 0x3C5 JUMP JUMPDEST PUSH3 0x526 DUP5 PUSH3 0x3DA JUMP JUMPDEST DUP2 ADD PUSH1 0x20 DUP6 LT ISZERO PUSH3 0x536 JUMPI DUP2 SWAP1 POP JUMPDEST PUSH3 0x54E PUSH3 0x545 DUP6 PUSH3 0x3DA JUMP JUMPDEST DUP4 ADD DUP3 PUSH3 0x4DF JUMP JUMPDEST POP POP JUMPDEST POP POP POP JUMP JUMPDEST PUSH1 0x0 DUP3 DUP3 SHR SWAP1 POP SWAP3 SWAP2 POP POP JUMP JUMPDEST PUSH1 0x0 PUSH3 0x576 PUSH1 0x0 NOT DUP5 PUSH1 0x8 MUL PUSH3 0x556 JUMP JUMPDEST NOT DUP1 DUP4 AND SWAP2 POP POP SWAP3 SWAP2 POP POP JUMP JUMPDEST PUSH1 0x0 PUSH3 0x591 DUP4 DUP4 PUSH3 0x563 JUMP JUMPDEST SWAP2 POP DUP3 PUSH1 0x2 MUL DUP3 OR SWAP1 POP SWAP3 SWAP2 POP POP JUMP JUMPDEST PUSH3 0x5AC DUP3 PUSH3 0x327 JUMP JUMPDEST PUSH8 0xFFFFFFFFFFFFFFFF DUP2 GT ISZERO PUSH3 0x5C8 JUMPI PUSH3 0x5C7 PUSH3 0x332 JUMP JUMPDEST JUMPDEST PUSH3 0x5D4 DUP3 SLOAD PUSH3 0x390 JUMP JUMPDEST PUSH3 0x5E1 DUP3 DUP3 DUP6 PUSH3 0x506 JUMP JUMPDEST PUSH1 0x0 PUSH1 0x20 SWAP1 POP PUSH1 0x1F DUP4 GT PUSH1 0x1 DUP2 EQ PUSH3 0x619 JUMPI PUSH1 0x0 DUP5 ISZERO PUSH3 0x604 JUMPI DUP3 DUP8 ADD MLOAD SWAP1 POP JUMPDEST PUSH3 0x610 DUP6 DUP3 PUSH3 0x583 JUMP JUMPDEST DUP7 SSTORE POP PUSH3 0x680 JUMP JUMPDEST PUSH1 0x1F NOT DUP5 AND PUSH3 0x629 DUP7 PUSH3 0x3C5 JUMP JUMPDEST PUSH1 0x0 JUMPDEST DUP3 DUP2 LT ISZERO PUSH3 0x653 JUMPI DUP5 DUP10 ADD MLOAD DUP3 SSTORE PUSH1 0x1 DUP3 ADD SWAP2 POP PUSH1 0x20 DUP6 ADD SWAP5 POP PUSH1 0x20 DUP2 ADD SWAP1 POP PUSH3 0x62C JUMP JUMPDEST DUP7 DUP4 LT ISZERO PUSH3 0x673 JUMPI DUP5 DUP10 ADD MLOAD PUSH3 0x66F PUSH1 0x1F DUP10 AND DUP3 PUSH3 0x563 JUMP JUMPDEST DUP4 SSTORE POP JUMPDEST PUSH1 0x1 PUSH1 0x2 DUP9 MUL ADD DUP9 SSTORE POP POP POP JUMPDEST POP POP POP POP POP POP JUMP JUMPDEST PUSH2 0x42AA DUP1 PUSH3 0x698 PUSH1 0x0 CODECOPY PUSH1 0x0 RETURN INVALID PUSH1 0x80 PUSH1 0x40 MSTORE PUSH1 0x4 CALLDATASIZE LT PUSH2 0x14B JUMPI PUSH1 0x0 CALLDATALOAD PUSH1 0xE0 SHR DUP1 PUSH4 0x70A08231 GT PUSH2 0xB6 JUMPI DUP1 PUSH4 0xAAF4389A GT PUSH2 0x6F JUMPI DUP1 PUSH4 0xAAF4389A EQ PUSH2 0x431 JUMPI DUP1 PUSH4 0xB67756ED EQ PUSH2 0x45C JUMPI DUP1 PUSH4 0xB88D4FDE EQ PUSH2 0x485 JUMPI DUP1 PUSH4 0xC87B56DD EQ PUSH2 0x4A1 JUMPI DUP1 PUSH4 0xE985E9C5 EQ PUSH2 0x4DE JUMPI DUP1 PUSH4 0xF2FDE38B EQ PUSH2 0x51B JUMPI PUSH2 0x14B JUMP JUMPDEST DUP1 PUSH4 0x70A08231 EQ PUSH2 0x333 JUMPI DUP1 PUSH4 0x715018A6 EQ PUSH2 0x370 JUMPI DUP1 PUSH4 0x7708B2D9 EQ PUSH2 0x387 JUMPI DUP1 PUSH4 0x8DA5CB5B EQ PUSH2 0x3B2 JUMPI DUP1 PUSH4 0x95D89B41 EQ PUSH2 0x3DD JUMPI DUP1 PUSH4 0xA22CB465 EQ PUSH2 0x408 JUMPI PUSH2 0x14B JUMP JUMPDEST DUP1 PUSH4 0x23B872DD GT PUSH2 0x108 JUMPI DUP1 PUSH4 0x23B872DD EQ PUSH2 0x253 JUMPI DUP1 PUSH4 0x32783E5B EQ PUSH2 0x26F JUMPI DUP1 PUSH4 0x3CCFD60B EQ PUSH2 0x2AC JUMPI DUP1 PUSH4 0x42842E0E EQ PUSH2 0x2C3 JUMPI DUP1 PUSH4 0x4310E42E EQ PUSH2 0x2DF JUMPI DUP1 PUSH4 0x6352211E EQ PUSH2 0x2F6 JUMPI PUSH2 0x14B JUMP JUMPDEST DUP1 PUSH4 0x1FFC9A7 EQ PUSH2 0x150 JUMPI DUP1 PUSH4 0x6FDDE03 EQ PUSH2 0x18D JUMPI DUP1 PUSH4 0x81812FC EQ PUSH2 0x1B8 JUMPI DUP1 PUSH4 0x95EA7B3 EQ PUSH2 0x1F5 JUMPI DUP1 PUSH4 0xCED8637 EQ PUSH2 0x211 JUMPI DUP1 PUSH4 0x18160DDD EQ PUSH2 0x228 JUMPI JUMPDEST PUSH1 0x0 DUP1 REVERT JUMPDEST CALLVALUE DUP1 ISZERO PUSH2 0x15C JUMPI PUSH1 0x0 DUP1 REVERT JUMPDEST POP PUSH2 0x177 PUSH1 0x4 DUP1 CALLDATASIZE SUB DUP2 ADD SWAP1 PUSH2 0x172 SWAP2 SWAP1 PUSH2 0x1B23 JUMP JUMPDEST PUSH2 0x544 JUMP JUMPDEST PUSH1 0x40 MLOAD PUSH2 0x184 SWAP2 SWAP1 PUSH2 0x1B6B JUMP JUMPDEST PUSH1 0x40 MLOAD DUP1 SWAP2 SUB SWAP1 RETURN JUMPDEST CALLVALUE DUP1 ISZERO PUSH2 0x199 JUMPI PUSH1 0x0 DUP1 REVERT JUMPDEST POP PUSH2 0x1A2 PUSH2 0x5D6 JUMP JUMPDEST PUSH1 0x40 MLOAD PUSH2 0x1AF SWAP2 SWAP1 PUSH2 0x1C16 JUMP JUMPDEST PUSH1 0x40 MLOAD DUP1 SWAP2 SUB SWAP1 RETURN JUMPDEST CALLVALUE DUP1 ISZERO PUSH2 0x1C4 JUMPI PUSH1 0x0 DUP1 REVERT JUMPDEST POP PUSH2 0x1DF PUSH1 0x4 DUP1 CALLDATASIZE SUB DUP2 ADD SWAP1 PUSH2 0x1DA SWAP2 SWAP1 PUSH2 0x1C6E JUMP JUMPDEST PUSH2 0x668 JUMP JUMPDEST PUSH1 0x40 MLOAD PUSH2 0x1EC SWAP2 SWAP1 PUSH2 0x1CDC JUMP JUMPDEST PUSH1 0x40 MLOAD DUP1 SWAP2 SUB SWAP1 RETURN JUMPDEST PUSH2 0x20F PUSH1 0x4 DUP1 CALLDATASIZE SUB DUP2 ADD SWAP1 PUSH2 0x20A SWAP2 SWAP1 PUSH2 0x1D23 JUMP JUMPDEST PUSH2 0x6E7 JUMP JUMPDEST STOP JUMPDEST CALLVALUE DUP1 ISZERO PUSH2 0x21D JUMPI PUSH1 0x0 DUP1 REVERT JUMPDEST POP PUSH2 0x226 PUSH2 0x82B JUMP JUMPDEST STOP JUMPDEST CALLVALUE DUP1 ISZERO PUSH2 0x234 JUMPI PUSH1 0x0 DUP1 REVERT JUMPDEST POP PUSH2 0x23D PUSH2 0x838 JUMP JUMPDEST PUSH1 0x40 MLOAD PUSH2 0x24A SWAP2 SWAP1 PUSH2 0x1D72 JUMP JUMPDEST PUSH1 0x40 MLOAD DUP1 SWAP2 SUB SWAP1 RETURN JUMPDEST PUSH2 0x26D PUSH1 0x4 DUP1 CALLDATASIZE SUB DUP2 ADD SWAP1 PUSH2 0x268 SWAP2 SWAP1 PUSH2 0x1D8D JUMP JUMPDEST PUSH2 0x84F JUMP JUMPDEST STOP JUMPDEST CALLVALUE DUP1 ISZERO PUSH2 0x27B JUMPI PUSH1 0x0 DUP1 REVERT JUMPDEST POP PUSH2 0x296 PUSH1 0x4 DUP1 CALLDATASIZE SUB DUP2 ADD SWAP1 PUSH2 0x291 SWAP2 SWAP1 PUSH2 0x1F15 JUMP JUMPDEST PUSH2 0xB71 JUMP JUMPDEST PUSH1 0x40 MLOAD PUSH2 0x2A3 SWAP2 SWAP1 PUSH2 0x1C16 JUMP JUMPDEST PUSH1 0x40 MLOAD DUP1 SWAP2 SUB SWAP1 RETURN JUMPDEST CALLVALUE DUP1 ISZERO PUSH2 0x2B8 JUMPI PUSH1 0x0 DUP1 REVERT JUMPDEST POP PUSH2 0x2C1 PUSH2 0xB9A JUMP JUMPDEST STOP JUMPDEST PUSH2 0x2DD PUSH1 0x4 DUP1 CALLDATASIZE SUB DUP2 ADD SWAP1 PUSH2 0x2D8 SWAP2 SWAP1 PUSH2 0x1D8D JUMP JUMPDEST PUSH2 0xBE2 JUMP JUMPDEST STOP JUMPDEST CALLVALUE DUP1 ISZERO PUSH2 0x2EB JUMPI PUSH1 0x0 DUP1 REVERT JUMPDEST POP PUSH2 0x2F4 PUSH2 0xC02 JUMP JUMPDEST STOP JUMPDEST CALLVALUE DUP1 ISZERO PUSH2 0x302 JUMPI PUSH1 0x0 DUP1 REVERT JUMPDEST POP PUSH2 0x31D PUSH1 0x4 DUP1 CALLDATASIZE SUB DUP2 ADD SWAP1 PUSH2 0x318 SWAP2 SWAP1 PUSH2 0x1C6E JUMP JUMPDEST PUSH2 0xC64 JUMP JUMPDEST PUSH1 0x40 MLOAD PUSH2 0x32A SWAP2 SWAP1 PUSH2 0x1CDC JUMP JUMPDEST PUSH1 0x40 MLOAD DUP1 SWAP2 SUB SWAP1 RETURN JUMPDEST CALLVALUE DUP1 ISZERO PUSH2 0x33F JUMPI PUSH1 0x0 DUP1 REVERT JUMPDEST POP PUSH2 0x35A PUSH1 0x4 DUP1 CALLDATASIZE SUB DUP2 ADD SWAP1 PUSH2 0x355 SWAP2 SWAP1 PUSH2 0x1F5E JUMP JUMPDEST PUSH2 0xC76 JUMP JUMPDEST PUSH1 0x40 MLOAD PUSH2 0x367 SWAP2 SWAP1 PUSH2 0x1D72 JUMP JUMPDEST PUSH1 0x40 MLOAD DUP1 SWAP2 SUB SWAP1 RETURN JUMPDEST CALLVALUE DUP1 ISZERO PUSH2 0x37C JUMPI PUSH1 0x0 DUP1 REVERT JUMPDEST POP PUSH2 0x385 PUSH2 0xD2E JUMP JUMPDEST STOP JUMPDEST CALLVALUE DUP1 ISZERO PUSH2 0x393 JUMPI PUSH1 0x0 DUP1 REVERT JUMPDEST POP PUSH2 0x39C PUSH2 0xD42 JUMP JUMPDEST PUSH1 0x40 MLOAD PUSH2 0x3A9 SWAP2 SWAP1 PUSH2 0x1C16 JUMP JUMPDEST PUSH1 0x40 MLOAD DUP1 SWAP2 SUB SWAP1 RETURN JUMPDEST CALLVALUE DUP1 ISZERO PUSH2 0x3BE JUMPI PUSH1 0x0 DUP1 REVERT JUMPDEST POP PUSH2 0x3C7 PUSH2 0xDAB JUMP JUMPDEST PUSH1 0x40 MLOAD PUSH2 0x3D4 SWAP2 SWAP1 PUSH2 0x1CDC JUMP JUMPDEST PUSH1 0x40 MLOAD DUP1 SWAP2 SUB SWAP1 RETURN JUMPDEST CALLVALUE DUP1 ISZERO PUSH2 0x3E9 JUMPI PUSH1 0x0 DUP1 REVERT JUMPDEST POP PUSH2 0x3F2 PUSH2 0xDD5 JUMP JUMPDEST PUSH1 0x40 MLOAD PUSH2 0x3FF SWAP2 SWAP1 PUSH2 0x1C16 JUMP JUMPDEST PUSH1 0x40 MLOAD DUP1 SWAP2 SUB SWAP1 RETURN JUMPDEST CALLVALUE DUP1 ISZERO PUSH2 0x414 JUMPI PUSH1 0x0 DUP1 REVERT JUMPDEST POP PUSH2 0x42F PUSH1 0x4 DUP1 CALLDATASIZE SUB DUP2 ADD SWAP1 PUSH2 0x42A SWAP2 SWAP1 PUSH2 0x1FB7 JUMP JUMPDEST PUSH2 0xE67 JUMP JUMPDEST STOP JUMPDEST CALLVALUE DUP1 ISZERO PUSH2 0x43D JUMPI PUSH1 0x0 DUP1 REVERT JUMPDEST POP PUSH2 0x446 PUSH2 0xF72 JUMP JUMPDEST PUSH1 0x40 MLOAD PUSH2 0x453 SWAP2 SWAP1 PUSH2 0x1D72 JUMP JUMPDEST PUSH1 0x40 MLOAD DUP1 SWAP2 SUB SWAP1 RETURN JUMPDEST CALLVALUE DUP1 ISZERO PUSH2 0x468 JUMPI PUSH1 0x0 DUP1 REVERT JUMPDEST POP PUSH2 0x483 PUSH1 0x4 DUP1 CALLDATASIZE SUB DUP2 ADD SWAP1 PUSH2 0x47E SWAP2 SWAP1 PUSH2 0x20AD JUMP JUMPDEST PUSH2 0xF78 JUMP JUMPDEST STOP JUMPDEST PUSH2 0x49F PUSH1 0x4 DUP1 CALLDATASIZE SUB DUP2 ADD SWAP1 PUSH2 0x49A SWAP2 SWAP1 PUSH2 0x218E JUMP JUMPDEST PUSH2 0x1087 JUMP JUMPDEST STOP JUMPDEST CALLVALUE DUP1 ISZERO PUSH2 0x4AD JUMPI PUSH1 0x0 DUP1 REVERT JUMPDEST POP PUSH2 0x4C8 PUSH1 0x4 DUP1 CALLDATASIZE SUB DUP2 ADD SWAP1 PUSH2 0x4C3 SWAP2 SWAP1 PUSH2 0x1C6E JUMP JUMPDEST PUSH2 0x10FA JUMP JUMPDEST PUSH1 0x40 MLOAD PUSH2 0x4D5 SWAP2 SWAP1 PUSH2 0x1C16 JUMP JUMPDEST PUSH1 0x40 MLOAD DUP1 SWAP2 SUB SWAP1 RETURN JUMPDEST CALLVALUE DUP1 ISZERO PUSH2 0x4EA JUMPI PUSH1 0x0 DUP1 REVERT JUMPDEST POP PUSH2 0x505 PUSH1 0x4 DUP1 CALLDATASIZE SUB DUP2 ADD SWAP1 PUSH2 0x500 SWAP2 SWAP1 PUSH2 0x2211 JUMP JUMPDEST PUSH2 0x1177 JUMP JUMPDEST PUSH1 0x40 MLOAD PUSH2 0x512 SWAP2 SWAP1 PUSH2 0x1B6B JUMP JUMPDEST PUSH1 0x40 MLOAD DUP1 SWAP2 SUB SWAP1 RETURN JUMPDEST CALLVALUE DUP1 ISZERO PUSH2 0x527 JUMPI PUSH1 0x0 DUP1 REVERT JUMPDEST POP PUSH2 0x542 PUSH1 0x4 DUP1 CALLDATASIZE SUB DUP2 ADD SWAP1 PUSH2 0x53D SWAP2 SWAP1 PUSH2 0x1F5E JUMP JUMPDEST PUSH2 0x120B JUMP JUMPDEST STOP JUMPDEST PUSH1 0x0 PUSH4 0x1FFC9A7 PUSH1 0xE0 SHL DUP3 PUSH28 0xFFFFFFFFFFFFFFFFFFFFFFFFFFFFFFFFFFFFFFFFFFFFFFFFFFFFFFFF NOT AND EQ DUP1 PUSH2 0x59F JUMPI POP PUSH4 0x80AC58CD PUSH1 0xE0 SHL DUP3 PUSH28 0xFFFFFFFFFFFFFFFFFFFFFFFFFFFFFFFFFFFFFFFFFFFFFFFFFFFFFFFF NOT AND EQ JUMPDEST DUP1 PUSH2 0x5CF JUMPI POP PUSH4 0x5B5E139F PUSH1 0xE0 SHL DUP3 PUSH28 0xFFFFFFFFFFFFFFFFFFFFFFFFFFFFFFFFFFFFFFFFFFFFFFFFFFFFFFFF NOT AND EQ JUMPDEST SWAP1 POP SWAP2 SWAP1 POP JUMP JUMPDEST PUSH1 0x60 PUSH1 0x2 DUP1 SLOAD PUSH2 0x5E5 SWAP1 PUSH2 0x2280 JUMP JUMPDEST DUP1 PUSH1 0x1F ADD PUSH1 0x20 DUP1 SWAP2 DIV MUL PUSH1 0x20 ADD PUSH1 0x40 MLOAD SWAP1 DUP2 ADD PUSH1 0x40 MSTORE DUP1 SWAP3 SWAP2 SWAP1 DUP2 DUP2 MSTORE PUSH1 0x20 ADD DUP3 DUP1 SLOAD PUSH2 0x611 SWAP1 PUSH2 0x2280 JUMP JUMPDEST DUP1 ISZERO PUSH2 0x65E JUMPI DUP1 PUSH1 0x1F LT PUSH2 0x633 JUMPI PUSH2 0x100 DUP1 DUP4 SLOAD DIV MUL DUP4 MSTORE SWAP2 PUSH1 0x20 ADD SWAP2 PUSH2 0x65E JUMP JUMPDEST DUP3 ADD SWAP2 SWAP1 PUSH1 0x0 MSTORE PUSH1 0x20 PUSH1 0x0 KECCAK256 SWAP1 JUMPDEST DUP2 SLOAD DUP2 MSTORE SWAP1 PUSH1 0x1 ADD SWAP1 PUSH1 0x20 ADD DUP1 DUP4 GT PUSH2 0x641 JUMPI DUP3 SWAP1 SUB PUSH1 0x1F AND DUP3 ADD SWAP2 JUMPDEST POP POP POP POP POP SWAP1 POP SWAP1 JUMP JUMPDEST PUSH1 0x0 PUSH2 0x673 DUP3 PUSH2 0x128E JUMP JUMPDEST PUSH2 0x6A9 JUMPI PUSH1 0x40 MLOAD PUSH32 0xCF4700E400000000000000000000000000000000000000000000000000000000 DUP2 MSTORE PUSH1 0x4 ADD PUSH1 0x40 MLOAD DUP1 SWAP2 SUB SWAP1 REVERT JUMPDEST PUSH1 0x6 PUSH1 0x0 DUP4 DUP2 MSTORE PUSH1 0x20 ADD SWAP1 DUP2 MSTORE PUSH1 0x20 ADD PUSH1 0x0 KECCAK256 PUSH1 0x0 ADD PUSH1 0x0 SWAP1 SLOAD SWAP1 PUSH2 0x100 EXP SWAP1 DIV PUSH20 0xFFFFFFFFFFFFFFFFFFFFFFFFFFFFFFFFFFFFFFFF AND SWAP1 POP SWAP2 SWAP1 POP JUMP JUMPDEST PUSH1 0x0 PUSH2 0x6F2 DUP3 PUSH2 0xC64 JUMP JUMPDEST SWAP1 POP DUP1 PUSH20 0xFFFFFFFFFFFFFFFFFFFFFFFFFFFFFFFFFFFFFFFF AND PUSH2 0x713 PUSH2 0x12ED JUMP JUMPDEST PUSH20 0xFFFFFFFFFFFFFFFFFFFFFFFFFFFFFFFFFFFFFFFF AND EQ PUSH2 0x776 JUMPI PUSH2 0x73F DUP2 PUSH2 0x73A PUSH2 0x12ED JUMP JUMPDEST PUSH2 0x1177 JUMP JUMPDEST PUSH2 0x775 JUMPI PUSH1 0x40 MLOAD PUSH32 0xCFB3B94200000000000000000000000000000000000000000000000000000000 DUP2 MSTORE PUSH1 0x4 ADD PUSH1 0x40 MLOAD DUP1 SWAP2 SUB SWAP1 REVERT JUMPDEST JUMPDEST DUP3 PUSH1 0x6 PUSH1 0x0 DUP5 DUP2 MSTORE PUSH1 0x20 ADD SWAP1 DUP2 MSTORE PUSH1 0x20 ADD PUSH1 0x0 KECCAK256 PUSH1 0x0 ADD PUSH1 0x0 PUSH2 0x100 EXP DUP2 SLOAD DUP2 PUSH20 0xFFFFFFFFFFFFFFFFFFFFFFFFFFFFFFFFFFFFFFFF MUL NOT AND SWAP1 DUP4 PUSH20 0xFFFFFFFFFFFFFFFFFFFFFFFFFFFFFFFFFFFFFFFF AND MUL OR SWAP1 SSTORE POP DUP2 DUP4 PUSH20 0xFFFFFFFFFFFFFFFFFFFFFFFFFFFFFFFFFFFFFFFF AND DUP3 PUSH20 0xFFFFFFFFFFFFFFFFFFFFFFFFFFFFFFFFFFFFFFFF AND PUSH32 0x8C5BE1E5EBEC7D5BD14F71427D1E84F3DD0314C0F7B2291E5B200AC8C7C3B925 PUSH1 0x40 MLOAD PUSH1 0x40 MLOAD DUP1 SWAP2 SUB SWAP1 LOG4 POP POP POP JUMP JUMPDEST PUSH2 0x836 CALLER PUSH1 0x1 PUSH2 0x12F5 JUMP JUMPDEST JUMP JUMPDEST PUSH1 0x0 PUSH2 0x842 PUSH2 0x14B0 JUMP JUMPDEST PUSH1 0x1 SLOAD PUSH1 0x0 SLOAD SUB SUB SWAP1 POP SWAP1 JUMP JUMPDEST PUSH1 0x0 PUSH2 0x85A DUP3 PUSH2 0x14B9 JUMP JUMPDEST SWAP1 POP DUP4 PUSH20 0xFFFFFFFFFFFFFFFFFFFFFFFFFFFFFFFFFFFFFFFF AND DUP2 PUSH20 0xFFFFFFFFFFFFFFFFFFFFFFFFFFFFFFFFFFFFFFFF AND EQ PUSH2 0x8C1 JUMPI PUSH1 0x40 MLOAD PUSH32 0xA114810000000000000000000000000000000000000000000000000000000000 DUP2 MSTORE PUSH1 0x4 ADD PUSH1 0x40 MLOAD DUP1 SWAP2 SUB SWAP1 REVERT JUMPDEST PUSH1 0x0 DUP1 PUSH2 0x8CD DUP5 PUSH2 0x1585 JUMP JUMPDEST SWAP2 POP SWAP2 POP PUSH2 0x8E3 DUP2 DUP8 PUSH2 0x8DE PUSH2 0x12ED JUMP JUMPDEST PUSH2 0x15AC JUMP JUMPDEST PUSH2 0x92F JUMPI PUSH2 0x8F8 DUP7 PUSH2 0x8F3 PUSH2 0x12ED JUMP JUMPDEST PUSH2 0x1177 JUMP JUMPDEST PUSH2 0x92E JUMPI PUSH1 0x40 MLOAD PUSH32 0x59C896BE00000000000000000000000000000000000000000000000000000000 DUP2 MSTORE PUSH1 0x4 ADD PUSH1 0x40 MLOAD DUP1 SWAP2 SUB SWAP1 REVERT JUMPDEST JUMPDEST PUSH1 0x0 PUSH20 0xFFFFFFFFFFFFFFFFFFFFFFFFFFFFFFFFFFFFFFFF AND DUP6 PUSH20 0xFFFFFFFFFFFFFFFFFFFFFFFFFFFFFFFFFFFFFFFF AND SUB PUSH2 0x995 JUMPI PUSH1 0x40 MLOAD PUSH32 0xEA553B3400000000000000000000000000000000000000000000000000000000 DUP2 MSTORE PUSH1 0x4 ADD PUSH1 0x40 MLOAD DUP1 SWAP2 SUB SWAP1 REVERT JUMPDEST PUSH2 0x9A2 DUP7 DUP7 DUP7 PUSH1 0x1 PUSH2 0x15F0 JUMP JUMPDEST DUP1 ISZERO PUSH2 0x9AD JUMPI PUSH1 0x0 DUP3 SSTORE JUMPDEST PUSH1 0x5 PUSH1 0x0 DUP8 PUSH20 0xFFFFFFFFFFFFFFFFFFFFFFFFFFFFFFFFFFFFFFFF AND PUSH20 0xFFFFFFFFFFFFFFFFFFFFFFFFFFFFFFFFFFFFFFFF AND DUP2 MSTORE PUSH1 0x20 ADD SWAP1 DUP2 MSTORE PUSH1 0x20 ADD PUSH1 0x0 KECCAK256 PUSH1 0x0 DUP2 SLOAD PUSH1 0x1 SWAP1 SUB SWAP2 SWAP1 POP DUP2 SWAP1 SSTORE POP PUSH1 0x5 PUSH1 0x0 DUP7 PUSH20 0xFFFFFFFFFFFFFFFFFFFFFFFFFFFFFFFFFFFFFFFF AND PUSH20 0xFFFFFFFFFFFFFFFFFFFFFFFFFFFFFFFFFFFFFFFF AND DUP2 MSTORE PUSH1 0x20 ADD SWAP1 DUP2 MSTORE PUSH1 0x20 ADD PUSH1 0x0 KECCAK256 PUSH1 0x0 DUP2 SLOAD PUSH1 0x1 ADD SWAP2 SWAP1 POP DUP2 SWAP1 SSTORE POP PUSH2 0xA7B DUP6 PUSH2 0xA57 DUP9 DUP9 DUP8 PUSH2 0x15F6 JUMP JUMPDEST PUSH29 0x200000000000000000000000000000000000000000000000000000000 OR PUSH2 0x161E JUMP JUMPDEST PUSH1 0x4 PUSH1 0x0 DUP7 DUP2 MSTORE PUSH1 0x20 ADD SWAP1 DUP2 MSTORE PUSH1 0x20 ADD PUSH1 0x0 KECCAK256 DUP2 SWAP1 SSTORE POP PUSH1 0x0 PUSH29 0x200000000000000000000000000000000000000000000000000000000 DUP5 AND SUB PUSH2 0xB01 JUMPI PUSH1 0x0 PUSH1 0x1 DUP6 ADD SWAP1 POP PUSH1 0x0 PUSH1 0x4 PUSH1 0x0 DUP4 DUP2 MSTORE PUSH1 0x20 ADD SWAP1 DUP2 MSTORE PUSH1 0x20 ADD PUSH1 0x0 KECCAK256 SLOAD SUB PUSH2 0xAFF JUMPI PUSH1 0x0 SLOAD DUP2 EQ PUSH2 0xAFE JUMPI DUP4 PUSH1 0x4 PUSH1 0x0 DUP4 DUP2 MSTORE PUSH1 0x20 ADD SWAP1 DUP2 MSTORE PUSH1 0x20 ADD PUSH1 0x0 KECCAK256 DUP2 SWAP1 SSTORE POP JUMPDEST JUMPDEST POP JUMPDEST DUP4 DUP6 PUSH20 0xFFFFFFFFFFFFFFFFFFFFFFFFFFFFFFFFFFFFFFFF AND DUP8 PUSH20 0xFFFFFFFFFFFFFFFFFFFFFFFFFFFFFFFFFFFFFFFF AND PUSH32 0xDDF252AD1BE2C89B69C2B068FC378DAA952BA7F163C4A11628F55A4DF523B3EF PUSH1 0x40 MLOAD PUSH1 0x40 MLOAD DUP1 SWAP2 SUB SWAP1 LOG4 PUSH2 0xB69 DUP7 DUP7 DUP7 PUSH1 0x1 PUSH2 0x1649 JUMP JUMPDEST POP POP POP POP POP POP JUMP JUMPDEST PUSH1 0x60 DUP2 PUSH1 0x40 MLOAD PUSH1 0x20 ADD PUSH2 0xB84 SWAP2 SWAP1 PUSH2 0x36B2 JUMP JUMPDEST PUSH1 0x40 MLOAD PUSH1 0x20 DUP2 DUP4 SUB SUB DUP2 MSTORE SWAP1 PUSH1 0x40 MSTORE SWAP1 POP SWAP2 SWAP1 POP JUMP JUMPDEST PUSH2 0xBA2 PUSH2 0x164F JUMP JUMPDEST CALLER PUSH20 0xFFFFFFFFFFFFFFFFFFFFFFFFFFFFFFFFFFFFFFFF AND PUSH2 0x8FC SELFBALANCE SWAP1 DUP2 ISZERO MUL SWAP1 PUSH1 0x40 MLOAD PUSH1 0x0 PUSH1 0x40 MLOAD DUP1 DUP4 SUB DUP2 DUP6 DUP9 DUP9 CALL SWAP4 POP POP POP POP PUSH2 0xBE0 JUMPI PUSH1 0x0 DUP1 REVERT JUMPDEST JUMP JUMPDEST PUSH2 0xBFD DUP4 DUP4 DUP4 PUSH1 0x40 MLOAD DUP1 PUSH1 0x20 ADD PUSH1 0x40 MSTORE DUP1 PUSH1 0x0 DUP2 MSTORE POP PUSH2 0x1087 JUMP JUMPDEST POP POP POP JUMP JUMPDEST PUSH1 0x0 PUSH1 0x1 SWAP1 POP JUMPDEST PUSH1 0x41 DUP2 LT ISZERO PUSH2 0xC61 JUMPI PUSH2 0xC4E DUP2 PUSH1 0x40 MLOAD DUP1 PUSH1 0x60 ADD PUSH1 0x40 MSTORE DUP1 PUSH1 0xFF TIMESTAMP PUSH2 0xC2E SWAP2 SWAP1 PUSH2 0x370E JUMP JUMPDEST DUP2 MSTORE PUSH1 0x20 ADD DUP5 DUP2 MSTORE PUSH1 0x20 ADD PUSH1 0x64 DUP6 PUSH2 0xC46 SWAP2 SWAP1 PUSH2 0x376E JUMP JUMPDEST DUP2 MSTORE POP PUSH2 0xF78 JUMP JUMPDEST DUP1 DUP1 PUSH2 0xC59 SWAP1 PUSH2 0x37A2 JUMP JUMPDEST SWAP2 POP POP PUSH2 0xC09 JUMP JUMPDEST POP JUMP JUMPDEST PUSH1 0x0 PUSH2 0xC6F DUP3 PUSH2 0x14B9 JUMP JUMPDEST SWAP1 POP SWAP2 SWAP1 POP JUMP JUMPDEST PUSH1 0x0 DUP1 PUSH20 0xFFFFFFFFFFFFFFFFFFFFFFFFFFFFFFFFFFFFFFFF AND DUP3 PUSH20 0xFFFFFFFFFFFFFFFFFFFFFFFFFFFFFFFFFFFFFFFF AND SUB PUSH2 0xCDD JUMPI PUSH1 0x40 MLOAD PUSH32 0x8F4EB60400000000000000000000000000000000000000000000000000000000 DUP2 MSTORE PUSH1 0x4 ADD PUSH1 0x40 MLOAD DUP1 SWAP2 SUB SWAP1 REVERT JUMPDEST PUSH8 0xFFFFFFFFFFFFFFFF PUSH1 0x5 PUSH1 0x0 DUP5 PUSH20 0xFFFFFFFFFFFFFFFFFFFFFFFFFFFFFFFFFFFFFFFF AND PUSH20 0xFFFFFFFFFFFFFFFFFFFFFFFFFFFFFFFFFFFFFFFF AND DUP2 MSTORE PUSH1 0x20 ADD SWAP1 DUP2 MSTORE PUSH1 0x20 ADD PUSH1 0x0 KECCAK256 SLOAD AND SWAP1 POP SWAP2 SWAP1 POP JUMP JUMPDEST PUSH2 0xD36 PUSH2 0x164F JUMP JUMPDEST PUSH2 0xD40 PUSH1 0x0 PUSH2 0x16CD JUMP JUMPDEST JUMP JUMPDEST PUSH1 0x60 PUSH1 0x0 PUSH1 0x1 SWAP1 POP JUMPDEST PUSH1 0x41 DUP2 LT ISZERO PUSH2 0xDA7 JUMPI DUP2 PUSH2 0xD5E DUP3 PUSH2 0x1793 JUMP JUMPDEST PUSH1 0xA PUSH1 0x0 DUP5 DUP2 MSTORE PUSH1 0x20 ADD SWAP1 DUP2 MSTORE PUSH1 0x20 ADD PUSH1 0x0 KECCAK256 PUSH1 0x40 MLOAD PUSH1 0x20 ADD PUSH2 0xD83 SWAP4 SWAP3 SWAP2 SWAP1 PUSH2 0x3966 JUMP JUMPDEST PUSH1 0x40 MLOAD PUSH1 0x20 DUP2 DUP4 SUB SUB DUP2 MSTORE SWAP1 PUSH1 0x40 MSTORE SWAP2 POP DUP1 DUP1 PUSH2 0xD9F SWAP1 PUSH2 0x37A2 JUMP JUMPDEST SWAP2 POP POP PUSH2 0xD4B JUMP JUMPDEST POP SWAP1 JUMP JUMPDEST PUSH1 0x0 PUSH1 0x8 PUSH1 0x0 SWAP1 SLOAD SWAP1 PUSH2 0x100 EXP SWAP1 DIV PUSH20 0xFFFFFFFFFFFFFFFFFFFFFFFFFFFFFFFFFFFFFFFF AND SWAP1 POP SWAP1 JUMP JUMPDEST PUSH1 0x60 PUSH1 0x3 DUP1 SLOAD PUSH2 0xDE4 SWAP1 PUSH2 0x2280 JUMP JUMPDEST DUP1 PUSH1 0x1F ADD PUSH1 0x20 DUP1 SWAP2 DIV MUL PUSH1 0x20 ADD PUSH1 0x40 MLOAD SWAP1 DUP2 ADD PUSH1 0x40 MSTORE DUP1 SWAP3 SWAP2 SWAP1 DUP2 DUP2 MSTORE PUSH1 0x20 ADD DUP3 DUP1 SLOAD PUSH2 0xE10 SWAP1 PUSH2 0x2280 JUMP JUMPDEST DUP1 ISZERO PUSH2 0xE5D JUMPI DUP1 PUSH1 0x1F LT PUSH2 0xE32 JUMPI PUSH2 0x100 DUP1 DUP4 SLOAD DIV MUL DUP4 MSTORE SWAP2 PUSH1 0x20 ADD SWAP2 PUSH2 0xE5D JUMP JUMPDEST DUP3 ADD SWAP2 SWAP1 PUSH1 0x0 MSTORE PUSH1 0x20 PUSH1 0x0 KECCAK256 SWAP1 JUMPDEST DUP2 SLOAD DUP2 MSTORE SWAP1 PUSH1 0x1 ADD SWAP1 PUSH1 0x20 ADD DUP1 DUP4 GT PUSH2 0xE40 JUMPI DUP3 SWAP1 SUB PUSH1 0x1F AND DUP3 ADD SWAP2 JUMPDEST POP POP POP POP POP SWAP1 POP SWAP1 JUMP JUMPDEST DUP1 PUSH1 0x7 PUSH1 0x0 PUSH2 0xE74 PUSH2 0x12ED JUMP JUMPDEST PUSH20 0xFFFFFFFFFFFFFFFFFFFFFFFFFFFFFFFFFFFFFFFF AND PUSH20 0xFFFFFFFFFFFFFFFFFFFFFFFFFFFFFFFFFFFFFFFF AND DUP2 MSTORE PUSH1 0x20 ADD SWAP1 DUP2 MSTORE PUSH1 0x20 ADD PUSH1 0x0 KECCAK256 PUSH1 0x0 DUP5 PUSH20 0xFFFFFFFFFFFFFFFFFFFFFFFFFFFFFFFFFFFFFFFF AND PUSH20 0xFFFFFFFFFFFFFFFFFFFFFFFFFFFFFFFFFFFFFFFF AND DUP2 MSTORE PUSH1 0x20 ADD SWAP1 DUP2 MSTORE PUSH1 0x20 ADD PUSH1 0x0 KECCAK256 PUSH1 0x0 PUSH2 0x100 EXP DUP2 SLOAD DUP2 PUSH1 0xFF MUL NOT AND SWAP1 DUP4 ISZERO ISZERO MUL OR SWAP1 SSTORE POP DUP2 PUSH20 0xFFFFFFFFFFFFFFFFFFFFFFFFFFFFFFFFFFFFFFFF AND PUSH2 0xF21 PUSH2 0x12ED JUMP JUMPDEST PUSH20 0xFFFFFFFFFFFFFFFFFFFFFFFFFFFFFFFFFFFFFFFF AND PUSH32 0x17307EAB39AB6107E8899845AD3D59BD9653F200F220920489CA2B5937696C31 DUP4 PUSH1 0x40 MLOAD PUSH2 0xF66 SWAP2 SWAP1 PUSH2 0x1B6B JUMP JUMPDEST PUSH1 0x40 MLOAD DUP1 SWAP2 SUB SWAP1 LOG3 POP POP JUMP JUMPDEST PUSH1 0x9 SLOAD DUP2 JUMP JUMPDEST PUSH1 0x0 DUP3 GT DUP1 ISZERO PUSH2 0xF88 JUMPI POP PUSH1 0x41 DUP3 LT JUMPDEST PUSH2 0xFC7 JUMPI PUSH1 0x40 MLOAD PUSH32 0x8C379A000000000000000000000000000000000000000000000000000000000 DUP2 MSTORE PUSH1 0x4 ADD PUSH2 0xFBE SWAP1 PUSH2 0x3A04 JUMP JUMPDEST PUSH1 0x40 MLOAD DUP1 SWAP2 SUB SWAP1 REVERT JUMPDEST PUSH2 0xFE8 DUP2 PUSH1 0x0 PUSH1 0x3 DUP2 LT PUSH2 0xFDE JUMPI PUSH2 0xFDD PUSH2 0x3A24 JUMP JUMPDEST JUMPDEST PUSH1 0x20 MUL ADD MLOAD PUSH2 0x1793 JUMP JUMPDEST PUSH2 0x1009 DUP3 PUSH1 0x1 PUSH1 0x3 DUP2 LT PUSH2 0xFFF JUMPI PUSH2 0xFFE PUSH2 0x3A24 JUMP JUMPDEST JUMPDEST PUSH1 0x20 MUL ADD MLOAD PUSH2 0x1793 JUMP JUMPDEST PUSH2 0x102A DUP4 PUSH1 0x2 PUSH1 0x3 DUP2 LT PUSH2 0x1020 JUMPI PUSH2 0x101F PUSH2 0x3A24 JUMP JUMPDEST JUMPDEST PUSH1 0x20 MUL ADD MLOAD PUSH2 0x1793 JUMP JUMPDEST PUSH1 0x40 MLOAD PUSH1 0x20 ADD PUSH2 0x103C SWAP4 SWAP3 SWAP2 SWAP1 PUSH2 0x3B37 JUMP JUMPDEST PUSH1 0x40 MLOAD PUSH1 0x20 DUP2 DUP4 SUB SUB DUP2 MSTORE SWAP1 PUSH1 0x40 MSTORE PUSH1 0xA PUSH1 0x0 DUP5 DUP2 MSTORE PUSH1 0x20 ADD SWAP1 DUP2 MSTORE PUSH1 0x20 ADD PUSH1 0x0 KECCAK256 SWAP1 DUP2 PUSH2 0x106A SWAP2 SWAP1 PUSH2 0x3D2B JUMP JUMPDEST POP PUSH1 0x9 PUSH1 0x0 DUP2 SLOAD DUP1 SWAP3 SWAP2 SWAP1 PUSH2 0x107E SWAP1 PUSH2 0x37A2 JUMP JUMPDEST SWAP2 SWAP1 POP SSTORE POP POP POP JUMP JUMPDEST PUSH2 0x1092 DUP5 DUP5 DUP5 PUSH2 0x84F JUMP JUMPDEST PUSH1 0x0 DUP4 PUSH20 0xFFFFFFFFFFFFFFFFFFFFFFFFFFFFFFFFFFFFFFFF AND EXTCODESIZE EQ PUSH2 0x10F4 JUMPI PUSH2 0x10BD DUP5 DUP5 DUP5 DUP5 PUSH2 0x17E3 JUMP JUMPDEST PUSH2 0x10F3 JUMPI PUSH1 0x40 MLOAD PUSH32 0xD1A57ED600000000000000000000000000000000000000000000000000000000 DUP2 MSTORE PUSH1 0x4 ADD PUSH1 0x40 MLOAD DUP1 SWAP2 SUB SWAP1 REVERT JUMPDEST JUMPDEST POP POP POP POP JUMP JUMPDEST PUSH1 0x60 PUSH1 0x0 PUSH2 0x110E PUSH2 0x1109 PUSH2 0xD42 JUMP JUMPDEST PUSH2 0xB71 JUMP JUMPDEST SWAP1 POP PUSH1 0x0 PUSH2 0x111B DUP5 PUSH2 0x1793 JUMP JUMPDEST PUSH2 0x1124 DUP4 PUSH2 0x1933 JUMP JUMPDEST PUSH1 0x40 MLOAD PUSH1 0x20 ADD PUSH2 0x1135 SWAP3 SWAP2 SWAP1 PUSH2 0x3F2D JUMP JUMPDEST PUSH1 0x40 MLOAD PUSH1 0x20 DUP2 DUP4 SUB SUB DUP2 MSTORE SWAP1 PUSH1 0x40 MSTORE SWAP1 POP PUSH2 0x114F DUP2 PUSH2 0x1933 JUMP JUMPDEST PUSH1 0x40 MLOAD PUSH1 0x20 ADD PUSH2 0x115F SWAP2 SWAP1 PUSH2 0x3FBE JUMP JUMPDEST PUSH1 0x40 MLOAD PUSH1 0x20 DUP2 DUP4 SUB SUB DUP2 MSTORE SWAP1 PUSH1 0x40 MSTORE SWAP3 POP POP POP SWAP2 SWAP1 POP JUMP JUMPDEST PUSH1 0x0 PUSH1 0x7 PUSH1 0x0 DUP5 PUSH20 0xFFFFFFFFFFFFFFFFFFFFFFFFFFFFFFFFFFFFFFFF AND PUSH20 0xFFFFFFFFFFFFFFFFFFFFFFFFFFFFFFFFFFFFFFFF AND DUP2 MSTORE PUSH1 0x20 ADD SWAP1 DUP2 MSTORE PUSH1 0x20 ADD PUSH1 0x0 KECCAK256 PUSH1 0x0 DUP4 PUSH20 0xFFFFFFFFFFFFFFFFFFFFFFFFFFFFFFFFFFFFFFFF AND PUSH20 0xFFFFFFFFFFFFFFFFFFFFFFFFFFFFFFFFFFFFFFFF AND DUP2 MSTORE PUSH1 0x20 ADD SWAP1 DUP2 MSTORE PUSH1 0x20 ADD PUSH1 0x0 KECCAK256 PUSH1 0x0 SWAP1 SLOAD SWAP1 PUSH2 0x100 EXP SWAP1 DIV PUSH1 0xFF AND SWAP1 POP SWAP3 SWAP2 POP POP JUMP JUMPDEST PUSH2 0x1213 PUSH2 0x164F JUMP JUMPDEST PUSH1 0x0 PUSH20 0xFFFFFFFFFFFFFFFFFFFFFFFFFFFFFFFFFFFFFFFF AND DUP2 PUSH20 0xFFFFFFFFFFFFFFFFFFFFFFFFFFFFFFFFFFFFFFFF AND SUB PUSH2 0x1282 JUMPI PUSH1 0x40 MLOAD PUSH32 0x8C379A000000000000000000000000000000000000000000000000000000000 DUP2 MSTORE PUSH1 0x4 ADD PUSH2 0x1279 SWAP1 PUSH2 0x4052 JUMP JUMPDEST PUSH1 0x40 MLOAD DUP1 SWAP2 SUB SWAP1 REVERT JUMPDEST PUSH2 0x128B DUP2 PUSH2 0x16CD JUMP JUMPDEST POP JUMP JUMPDEST PUSH1 0x0 DUP2 PUSH2 0x1299 PUSH2 0x14B0 JUMP JUMPDEST GT ISZERO DUP1 ISZERO PUSH2 0x12A8 JUMPI POP PUSH1 0x0 SLOAD DUP3 LT JUMPDEST DUP1 ISZERO PUSH2 0x12E6 JUMPI POP PUSH1 0x0 PUSH29 0x100000000000000000000000000000000000000000000000000000000 PUSH1 0x4 PUSH1 0x0 DUP6 DUP2 MSTORE PUSH1 0x20 ADD SWAP1 DUP2 MSTORE PUSH1 0x20 ADD PUSH1 0x0 KECCAK256 SLOAD AND EQ JUMPDEST SWAP1 POP SWAP2 SWAP1 POP JUMP JUMPDEST PUSH1 0x0 CALLER SWAP1 POP SWAP1 JUMP JUMPDEST PUSH1 0x0 DUP1 SLOAD SWAP1 POP PUSH1 0x0 DUP3 SUB PUSH2 0x1335 JUMPI PUSH1 0x40 MLOAD PUSH32 0xB562E8DD00000000000000000000000000000000000000000000000000000000 DUP2 MSTORE PUSH1 0x4 ADD PUSH1 0x40 MLOAD DUP1 SWAP2 SUB SWAP1 REVERT JUMPDEST PUSH2 0x1342 PUSH1 0x0 DUP5 DUP4 DUP6 PUSH2 0x15F0 JUMP JUMPDEST PUSH1 0x1 PUSH1 0x40 PUSH1 0x1 SWAP1 SHL OR DUP3 MUL PUSH1 0x5 PUSH1 0x0 DUP6 PUSH20 0xFFFFFFFFFFFFFFFFFFFFFFFFFFFFFFFFFFFFFFFF AND PUSH20 0xFFFFFFFFFFFFFFFFFFFFFFFFFFFFFFFFFFFFFFFF AND DUP2 MSTORE PUSH1 0x20 ADD SWAP1 DUP2 MSTORE PUSH1 0x20 ADD PUSH1 0x0 KECCAK256 PUSH1 0x0 DUP3 DUP3 SLOAD ADD SWAP3 POP POP DUP2 SWAP1 SSTORE POP PUSH2 0x13B9 DUP4 PUSH2 0x13AA PUSH1 0x0 DUP7 PUSH1 0x0 PUSH2 0x15F6 JUMP JUMPDEST PUSH2 0x13B3 DUP6 PUSH2 0x1A96 JUMP JUMPDEST OR PUSH2 0x161E JUMP JUMPDEST PUSH1 0x4 PUSH1 0x0 DUP4 DUP2 MSTORE PUSH1 0x20 ADD SWAP1 DUP2 MSTORE PUSH1 0x20 ADD PUSH1 0x0 KECCAK256 DUP2 SWAP1 SSTORE POP PUSH1 0x0 DUP1 DUP4 DUP4 ADD SWAP1 POP PUSH20 0xFFFFFFFFFFFFFFFFFFFFFFFFFFFFFFFFFFFFFFFF DUP6 AND SWAP2 POP DUP3 DUP3 PUSH1 0x0 PUSH32 0xDDF252AD1BE2C89B69C2B068FC378DAA952BA7F163C4A11628F55A4DF523B3EF PUSH1 0x0 DUP1 LOG4 PUSH1 0x1 DUP4 ADD JUMPDEST DUP2 DUP2 EQ PUSH2 0x145A JUMPI DUP1 DUP4 PUSH1 0x0 PUSH32 0xDDF252AD1BE2C89B69C2B068FC378DAA952BA7F163C4A11628F55A4DF523B3EF PUSH1 0x0 DUP1 LOG4 PUSH1 0x1 DUP2 ADD SWAP1 POP PUSH2 0x141F JUMP JUMPDEST POP PUSH1 0x0 DUP3 SUB PUSH2 0x1495 JUMPI PUSH1 0x40 MLOAD PUSH32 0x2E07630000000000000000000000000000000000000000000000000000000000 DUP2 MSTORE PUSH1 0x4 ADD PUSH1 0x40 MLOAD DUP1 SWAP2 SUB SWAP1 REVERT JUMPDEST DUP1 PUSH1 0x0 DUP2 SWAP1 SSTORE POP POP POP PUSH2 0x14AB PUSH1 0x0 DUP5 DUP4 DUP6 PUSH2 0x1649 JUMP JUMPDEST POP POP POP JUMP JUMPDEST PUSH1 0x0 PUSH1 0x1 SWAP1 POP SWAP1 JUMP JUMPDEST PUSH1 0x0 DUP1 DUP3 SWAP1 POP DUP1 PUSH2 0x14C8 PUSH2 0x14B0 JUMP JUMPDEST GT PUSH2 0x154E JUMPI PUSH1 0x0 SLOAD DUP2 LT ISZERO PUSH2 0x154D JUMPI PUSH1 0x0 PUSH1 0x4 PUSH1 0x0 DUP4 DUP2 MSTORE PUSH1 0x20 ADD SWAP1 DUP2 MSTORE PUSH1 0x20 ADD PUSH1 0x0 KECCAK256 SLOAD SWAP1 POP PUSH1 0x0 PUSH29 0x100000000000000000000000000000000000000000000000000000000 DUP3 AND SUB PUSH2 0x154B JUMPI JUMPDEST PUSH1 0x0 DUP2 SUB PUSH2 0x1541 JUMPI PUSH1 0x4 PUSH1 0x0 DUP4 PUSH1 0x1 SWAP1 SUB SWAP4 POP DUP4 DUP2 MSTORE PUSH1 0x20 ADD SWAP1 DUP2 MSTORE PUSH1 0x20 ADD PUSH1 0x0 KECCAK256 SLOAD SWAP1 POP PUSH2 0x1517 JUMP JUMPDEST DUP1 SWAP3 POP POP POP PUSH2 0x1580 JUMP JUMPDEST POP JUMPDEST JUMPDEST PUSH1 0x40 MLOAD PUSH32 0xDF2D9B4200000000000000000000000000000000000000000000000000000000 DUP2 MSTORE PUSH1 0x4 ADD PUSH1 0x40 MLOAD DUP1 SWAP2 SUB SWAP1 REVERT JUMPDEST SWAP2 SWAP1 POP JUMP JUMPDEST PUSH1 0x0 DUP1 PUSH1 0x0 PUSH1 0x6 PUSH1 0x0 DUP6 DUP2 MSTORE PUSH1 0x20 ADD SWAP1 DUP2 MSTORE PUSH1 0x20 ADD PUSH1 0x0 KECCAK256 SWAP1 POP DUP1 SWAP3 POP DUP3 SLOAD SWAP2 POP POP SWAP2 POP SWAP2 JUMP JUMPDEST PUSH1 0x0 PUSH20 0xFFFFFFFFFFFFFFFFFFFFFFFFFFFFFFFFFFFFFFFF DUP4 AND SWAP3 POP PUSH20 0xFFFFFFFFFFFFFFFFFFFFFFFFFFFFFFFFFFFFFFFF DUP3 AND SWAP2 POP DUP4 DUP3 EQ DUP4 DUP4 EQ OR SWAP1 POP SWAP4 SWAP3 POP POP POP JUMP JUMPDEST POP POP POP POP JUMP JUMPDEST PUSH1 0x0 DUP1 PUSH1 0xE8 DUP4 SWAP1 SHR SWAP1 POP PUSH1 0xE8 PUSH2 0x160D DUP7 DUP7 DUP5 PUSH2 0x1AA6 JUMP JUMPDEST PUSH3 0xFFFFFF AND SWAP1 SHL SWAP2 POP POP SWAP4 SWAP3 POP POP POP JUMP JUMPDEST PUSH1 0x0 PUSH20 0xFFFFFFFFFFFFFFFFFFFFFFFFFFFFFFFFFFFFFFFF DUP4 AND SWAP3 POP DUP2 TIMESTAMP PUSH1 0xA0 SHL OR DUP4 OR SWAP1 POP SWAP3 SWAP2 POP POP JUMP JUMPDEST POP POP POP POP JUMP JUMPDEST PUSH2 0x1657 PUSH2 0x1AAF JUMP JUMPDEST PUSH20 0xFFFFFFFFFFFFFFFFFFFFFFFFFFFFFFFFFFFFFFFF AND PUSH2 0x1675 PUSH2 0xDAB JUMP JUMPDEST PUSH20 0xFFFFFFFFFFFFFFFFFFFFFFFFFFFFFFFFFFFFFFFF AND EQ PUSH2 0x16CB JUMPI PUSH1 0x40 MLOAD PUSH32 0x8C379A000000000000000000000000000000000000000000000000000000000 DUP2 MSTORE PUSH1 0x4 ADD PUSH2 0x16C2 SWAP1 PUSH2 0x40BE JUMP JUMPDEST PUSH1 0x40 MLOAD DUP1 SWAP2 SUB SWAP1 REVERT JUMPDEST JUMP JUMPDEST PUSH1 0x0 PUSH1 0x8 PUSH1 0x0 SWAP1 SLOAD SWAP1 PUSH2 0x100 EXP SWAP1 DIV PUSH20 0xFFFFFFFFFFFFFFFFFFFFFFFFFFFFFFFFFFFFFFFF AND SWAP1 POP DUP2 PUSH1 0x8 PUSH1 0x0 PUSH2 0x100 EXP DUP2 SLOAD DUP2 PUSH20 0xFFFFFFFFFFFFFFFFFFFFFFFFFFFFFFFFFFFFFFFF MUL NOT AND SWAP1 DUP4 PUSH20 0xFFFFFFFFFFFFFFFFFFFFFFFFFFFFFFFFFFFFFFFF AND MUL OR SWAP1 SSTORE POP DUP2 PUSH20 0xFFFFFFFFFFFFFFFFFFFFFFFFFFFFFFFFFFFFFFFF AND DUP2 PUSH20 0xFFFFFFFFFFFFFFFFFFFFFFFFFFFFFFFFFFFFFFFF AND PUSH32 0x8BE0079C531659141344CD1FD0A4F28419497F9722A3DAAFE3B4186F6B6457E0 PUSH1 0x40 MLOAD PUSH1 0x40 MLOAD DUP1 SWAP2 SUB SWAP1 LOG3 POP POP JUMP JUMPDEST PUSH1 0x60 PUSH1 0xA0 PUSH1 0x40 MLOAD ADD DUP1 PUSH1 0x40 MSTORE PUSH1 0x20 DUP2 SUB SWAP2 POP PUSH1 0x0 DUP3 MSTORE DUP2 DUP4 JUMPDEST PUSH1 0x1 ISZERO PUSH2 0x17CE JUMPI PUSH1 0x1 DUP5 SUB SWAP4 POP PUSH1 0xA DUP2 MOD PUSH1 0x30 ADD DUP5 MSTORE8 PUSH1 0xA DUP2 DIV SWAP1 POP DUP1 PUSH2 0x17AC JUMPI JUMPDEST POP DUP3 DUP2 SUB PUSH1 0x20 DUP5 SUB SWAP4 POP DUP1 DUP5 MSTORE POP POP POP SWAP2 SWAP1 POP JUMP JUMPDEST PUSH1 0x0 DUP4 PUSH20 0xFFFFFFFFFFFFFFFFFFFFFFFFFFFFFFFFFFFFFFFF AND PUSH4 0x150B7A02 PUSH2 0x1809 PUSH2 0x12ED JUMP JUMPDEST DUP8 DUP7 DUP7 PUSH1 0x40 MLOAD DUP6 PUSH4 0xFFFFFFFF AND PUSH1 0xE0 SHL DUP2 MSTORE PUSH1 0x4 ADD PUSH2 0x182B SWAP5 SWAP4 SWAP3 SWAP2 SWAP1 PUSH2 0x4133 JUMP JUMPDEST PUSH1 0x20 PUSH1 0x40 MLOAD DUP1 DUP4 SUB DUP2 PUSH1 0x0 DUP8 GAS CALL SWAP3 POP POP POP DUP1 ISZERO PUSH2 0x1867 JUMPI POP PUSH1 0x40 MLOAD RETURNDATASIZE PUSH1 0x1F NOT PUSH1 0x1F DUP3 ADD AND DUP3 ADD DUP1 PUSH1 0x40 MSTORE POP DUP2 ADD SWAP1 PUSH2 0x1864 SWAP2 SWAP1 PUSH2 0x4194 JUMP JUMPDEST PUSH1 0x1 JUMPDEST PUSH2 0x18E0 JUMPI RETURNDATASIZE DUP1 PUSH1 0x0 DUP2 EQ PUSH2 0x1897 JUMPI PUSH1 0x40 MLOAD SWAP2 POP PUSH1 0x1F NOT PUSH1 0x3F RETURNDATASIZE ADD AND DUP3 ADD PUSH1 0x40 MSTORE RETURNDATASIZE DUP3 MSTORE RETURNDATASIZE PUSH1 0x0 PUSH1 0x20 DUP5 ADD RETURNDATACOPY PUSH2 0x189C JUMP JUMPDEST PUSH1 0x60 SWAP2 POP JUMPDEST POP PUSH1 0x0 DUP2 MLOAD SUB PUSH2 0x18D8 JUMPI PUSH1 0x40 MLOAD PUSH32 0xD1A57ED600000000000000000000000000000000000000000000000000000000 DUP2 MSTORE PUSH1 0x4 ADD PUSH1 0x40 MLOAD DUP1 SWAP2 SUB SWAP1 REVERT JUMPDEST DUP1 MLOAD DUP2 PUSH1 0x20 ADD REVERT JUMPDEST PUSH4 0x150B7A02 PUSH1 0xE0 SHL PUSH28 0xFFFFFFFFFFFFFFFFFFFFFFFFFFFFFFFFFFFFFFFFFFFFFFFFFFFFFFFF NOT AND DUP2 PUSH28 0xFFFFFFFFFFFFFFFFFFFFFFFFFFFFFFFFFFFFFFFFFFFFFFFFFFFFFFFF NOT AND EQ SWAP2 POP POP SWAP5 SWAP4 POP POP POP POP JUMP JUMPDEST PUSH1 0x60 PUSH1 0x0 DUP3 MLOAD SUB PUSH2 0x1955 JUMPI PUSH1 0x40 MLOAD DUP1 PUSH1 0x20 ADD PUSH1 0x40 MSTORE DUP1 PUSH1 0x0 DUP2 MSTORE POP SWAP1 POP PUSH2 0x1A91 JUMP JUMPDEST PUSH1 0x0 PUSH1 0x40 MLOAD DUP1 PUSH1 0x60 ADD PUSH1 0x40 MSTORE DUP1 PUSH1 0x40 DUP2 MSTORE PUSH1 0x20 ADD PUSH2 0x4235 PUSH1 0x40 SWAP2 CODECOPY SWAP1 POP PUSH1 0x0 PUSH1 0x3 PUSH1 0x2 DUP6 MLOAD PUSH2 0x1984 SWAP2 SWAP1 PUSH2 0x376E JUMP JUMPDEST PUSH2 0x198E SWAP2 SWAP1 PUSH2 0x41C1 JUMP JUMPDEST PUSH1 0x4 PUSH2 0x199A SWAP2 SWAP1 PUSH2 0x41F2 JUMP JUMPDEST PUSH8 0xFFFFFFFFFFFFFFFF DUP2 GT ISZERO PUSH2 0x19B3 JUMPI PUSH2 0x19B2 PUSH2 0x1DEA JUMP JUMPDEST JUMPDEST PUSH1 0x40 MLOAD SWAP1 DUP1 DUP3 MSTORE DUP1 PUSH1 0x1F ADD PUSH1 0x1F NOT AND PUSH1 0x20 ADD DUP3 ADD PUSH1 0x40 MSTORE DUP1 ISZERO PUSH2 0x19E5 JUMPI DUP2 PUSH1 0x20 ADD PUSH1 0x1 DUP3 MUL DUP1 CALLDATASIZE DUP4 CALLDATACOPY DUP1 DUP3 ADD SWAP2 POP POP SWAP1 POP JUMPDEST POP SWAP1 POP PUSH1 0x1 DUP3 ADD PUSH1 0x20 DUP3 ADD DUP6 DUP7 MLOAD DUP8 ADD JUMPDEST DUP1 DUP3 LT ISZERO PUSH2 0x1A51 JUMPI PUSH1 0x3 DUP3 ADD SWAP2 POP DUP2 MLOAD PUSH1 0x3F DUP2 PUSH1 0x12 SHR AND DUP6 ADD MLOAD DUP5 MSTORE8 PUSH1 0x1 DUP5 ADD SWAP4 POP PUSH1 0x3F DUP2 PUSH1 0xC SHR AND DUP6 ADD MLOAD DUP5 MSTORE8 PUSH1 0x1 DUP5 ADD SWAP4 POP PUSH1 0x3F DUP2 PUSH1 0x6 SHR AND DUP6 ADD MLOAD DUP5 MSTORE8 PUSH1 0x1 DUP5 ADD SWAP4 POP PUSH1 0x3F DUP2 AND DUP6 ADD MLOAD DUP5 MSTORE8 PUSH1 0x1 DUP5 ADD SWAP4 POP POP PUSH2 0x19F6 JUMP JUMPDEST POP POP PUSH1 0x3 DUP7 MLOAD MOD PUSH1 0x1 DUP2 EQ PUSH2 0x1A6D JUMPI PUSH1 0x2 DUP2 EQ PUSH2 0x1A80 JUMPI PUSH2 0x1A88 JUMP JUMPDEST PUSH1 0x3D PUSH1 0x1 DUP4 SUB MSTORE8 PUSH1 0x3D PUSH1 0x2 DUP4 SUB MSTORE8 PUSH2 0x1A88 JUMP JUMPDEST PUSH1 0x3D PUSH1 0x1 DUP4 SUB MSTORE8 JUMPDEST POP POP POP DUP1 SWAP3 POP POP POP JUMPDEST SWAP2 SWAP1 POP JUMP JUMPDEST PUSH1 0x0 PUSH1 0x1 DUP3 EQ PUSH1 0xE1 SHL SWAP1 POP SWAP2 SWAP1 POP JUMP JUMPDEST PUSH1 0x0 SWAP4 SWAP3 POP POP POP JUMP JUMPDEST PUSH1 0x0 CALLER SWAP1 POP SWAP1 JUMP JUMPDEST PUSH1 0x0 PUSH1 0x40 MLOAD SWAP1 POP SWAP1 JUMP JUMPDEST PUSH1 0x0 DUP1 REVERT JUMPDEST PUSH1 0x0 DUP1 REVERT JUMPDEST PUSH1 0x0 PUSH32 0xFFFFFFFF00000000000000000000000000000000000000000000000000000000 DUP3 AND SWAP1 POP SWAP2 SWAP1 POP JUMP JUMPDEST PUSH2 0x1B00 DUP2 PUSH2 0x1ACB JUMP JUMPDEST DUP2 EQ PUSH2 0x1B0B JUMPI PUSH1 0x0 DUP1 REVERT JUMPDEST POP JUMP JUMPDEST PUSH1 0x0 DUP2 CALLDATALOAD SWAP1 POP PUSH2 0x1B1D DUP2 PUSH2 0x1AF7 JUMP JUMPDEST SWAP3 SWAP2 POP POP JUMP JUMPDEST PUSH1 0x0 PUSH1 0x20 DUP3 DUP5 SUB SLT ISZERO PUSH2 0x1B39 JUMPI PUSH2 0x1B38 PUSH2 0x1AC1 JUMP JUMPDEST JUMPDEST PUSH1 0x0 PUSH2 0x1B47 DUP5 DUP3 DUP6 ADD PUSH2 0x1B0E JUMP JUMPDEST SWAP2 POP POP SWAP3 SWAP2 POP POP JUMP JUMPDEST PUSH1 0x0 DUP2 ISZERO ISZERO SWAP1 POP SWAP2 SWAP1 POP JUMP JUMPDEST PUSH2 0x1B65 DUP2 PUSH2 0x1B50 JUMP JUMPDEST DUP3 MSTORE POP POP JUMP JUMPDEST PUSH1 0x0 PUSH1 0x20 DUP3 ADD SWAP1 POP PUSH2 0x1B80 PUSH1 0x0 DUP4 ADD DUP5 PUSH2 0x1B5C JUMP JUMPDEST SWAP3 SWAP2 POP POP JUMP JUMPDEST PUSH1 0x0 DUP2 MLOAD SWAP1 POP SWAP2 SWAP1 POP JUMP JUMPDEST PUSH1 0x0 DUP3 DUP3 MSTORE PUSH1 0x20 DUP3 ADD SWAP1 POP SWAP3 SWAP2 POP POP JUMP JUMPDEST PUSH1 0x0 JUMPDEST DUP4 DUP2 LT ISZERO PUSH2 0x1BC0 JUMPI DUP1 DUP3 ADD MLOAD DUP2 DUP5 ADD MSTORE PUSH1 0x20 DUP2 ADD SWAP1 POP PUSH2 0x1BA5 JUMP JUMPDEST PUSH1 0x0 DUP5 DUP5 ADD MSTORE POP POP POP POP JUMP JUMPDEST PUSH1 0x0 PUSH1 0x1F NOT PUSH1 0x1F DUP4 ADD AND SWAP1 POP SWAP2 SWAP1 POP JUMP JUMPDEST PUSH1 0x0 PUSH2 0x1BE8 DUP3 PUSH2 0x1B86 JUMP JUMPDEST PUSH2 0x1BF2 DUP2 DUP6 PUSH2 0x1B91 JUMP JUMPDEST SWAP4 POP PUSH2 0x1C02 DUP2 DUP6 PUSH1 0x20 DUP7 ADD PUSH2 0x1BA2 JUMP JUMPDEST PUSH2 0x1C0B DUP2 PUSH2 0x1BCC JUMP JUMPDEST DUP5 ADD SWAP2 POP POP SWAP3 SWAP2 POP POP JUMP JUMPDEST PUSH1 0x0 PUSH1 0x20 DUP3 ADD SWAP1 POP DUP2 DUP2 SUB PUSH1 0x0 DUP4 ADD MSTORE PUSH2 0x1C30 DUP2 DUP5 PUSH2 0x1BDD JUMP JUMPDEST SWAP1 POP SWAP3 SWAP2 POP POP JUMP JUMPDEST PUSH1 0x0 DUP2 SWAP1 POP SWAP2 SWAP1 POP JUMP JUMPDEST PUSH2 0x1C4B DUP2 PUSH2 0x1C38 JUMP JUMPDEST DUP2 EQ PUSH2 0x1C56 JUMPI PUSH1 0x0 DUP1 REVERT JUMPDEST POP JUMP JUMPDEST PUSH1 0x0 DUP2 CALLDATALOAD SWAP1 POP PUSH2 0x1C68 DUP2 PUSH2 0x1C42 JUMP JUMPDEST SWAP3 SWAP2 POP POP JUMP JUMPDEST PUSH1 0x0 PUSH1 0x20 DUP3 DUP5 SUB SLT ISZERO PUSH2 0x1C84 JUMPI PUSH2 0x1C83 PUSH2 0x1AC1 JUMP JUMPDEST JUMPDEST PUSH1 0x0 PUSH2 0x1C92 DUP5 DUP3 DUP6 ADD PUSH2 0x1C59 JUMP JUMPDEST SWAP2 POP POP SWAP3 SWAP2 POP POP JUMP JUMPDEST PUSH1 0x0 PUSH20 0xFFFFFFFFFFFFFFFFFFFFFFFFFFFFFFFFFFFFFFFF DUP3 AND SWAP1 POP SWAP2 SWAP1 POP JUMP JUMPDEST PUSH1 0x0 PUSH2 0x1CC6 DUP3 PUSH2 0x1C9B JUMP JUMPDEST SWAP1 POP SWAP2 SWAP1 POP JUMP JUMPDEST PUSH2 0x1CD6 DUP2 PUSH2 0x1CBB JUMP JUMPDEST DUP3 MSTORE POP POP JUMP JUMPDEST PUSH1 0x0 PUSH1 0x20 DUP3 ADD SWAP1 POP PUSH2 0x1CF1 PUSH1 0x0 DUP4 ADD DUP5 PUSH2 0x1CCD JUMP JUMPDEST SWAP3 SWAP2 POP POP JUMP JUMPDEST PUSH2 0x1D00 DUP2 PUSH2 0x1CBB JUMP JUMPDEST DUP2 EQ PUSH2 0x1D0B JUMPI PUSH1 0x0 DUP1 REVERT JUMPDEST POP JUMP JUMPDEST PUSH1 0x0 DUP2 CALLDATALOAD SWAP1 POP PUSH2 0x1D1D DUP2 PUSH2 0x1CF7 JUMP JUMPDEST SWAP3 SWAP2 POP POP JUMP JUMPDEST PUSH1 0x0 DUP1 PUSH1 0x40 DUP4 DUP6 SUB SLT ISZERO PUSH2 0x1D3A JUMPI PUSH2 0x1D39 PUSH2 0x1AC1 JUMP JUMPDEST JUMPDEST PUSH1 0x0 PUSH2 0x1D48 DUP6 DUP3 DUP7 ADD PUSH2 0x1D0E JUMP JUMPDEST SWAP3 POP POP PUSH1 0x20 PUSH2 0x1D59 DUP6 DUP3 DUP7 ADD PUSH2 0x1C59 JUMP JUMPDEST SWAP2 POP POP SWAP3 POP SWAP3 SWAP1 POP JUMP JUMPDEST PUSH2 0x1D6C DUP2 PUSH2 0x1C38 JUMP JUMPDEST DUP3 MSTORE POP POP JUMP JUMPDEST PUSH1 0x0 PUSH1 0x20 DUP3 ADD SWAP1 POP PUSH2 0x1D87 PUSH1 0x0 DUP4 ADD DUP5 PUSH2 0x1D63 JUMP JUMPDEST SWAP3 SWAP2 POP POP JUMP JUMPDEST PUSH1 0x0 DUP1 PUSH1 0x0 PUSH1 0x60 DUP5 DUP7 SUB SLT ISZERO PUSH2 0x1DA6 JUMPI PUSH2 0x1DA5 PUSH2 0x1AC1 JUMP JUMPDEST JUMPDEST PUSH1 0x0 PUSH2 0x1DB4 DUP7 DUP3 DUP8 ADD PUSH2 0x1D0E JUMP JUMPDEST SWAP4 POP POP PUSH1 0x20 PUSH2 0x1DC5 DUP7 DUP3 DUP8 ADD PUSH2 0x1D0E JUMP JUMPDEST SWAP3 POP POP PUSH1 0x40 PUSH2 0x1DD6 DUP7 DUP3 DUP8 ADD PUSH2 0x1C59 JUMP JUMPDEST SWAP2 POP POP SWAP3 POP SWAP3 POP SWAP3 JUMP JUMPDEST PUSH1 0x0 DUP1 REVERT JUMPDEST PUSH1 0x0 DUP1 REVERT JUMPDEST PUSH32 0x4E487B7100000000000000000000000000000000000000000000000000000000 PUSH1 0x0 MSTORE PUSH1 0x41 PUSH1 0x4 MSTORE PUSH1 0x24 PUSH1 0x0 REVERT JUMPDEST PUSH2 0x1E22 DUP3 PUSH2 0x1BCC JUMP JUMPDEST DUP2 ADD DUP2 DUP2 LT PUSH8 0xFFFFFFFFFFFFFFFF DUP3 GT OR ISZERO PUSH2 0x1E41 JUMPI PUSH2 0x1E40 PUSH2 0x1DEA JUMP JUMPDEST JUMPDEST DUP1 PUSH1 0x40 MSTORE POP POP POP JUMP JUMPDEST PUSH1 0x0 PUSH2 0x1E54 PUSH2 0x1AB7 JUMP JUMPDEST SWAP1 POP PUSH2 0x1E60 DUP3 DUP3 PUSH2 0x1E19 JUMP JUMPDEST SWAP2 SWAP1 POP JUMP JUMPDEST PUSH1 0x0 PUSH8 0xFFFFFFFFFFFFFFFF DUP3 GT ISZERO PUSH2 0x1E80 JUMPI PUSH2 0x1E7F PUSH2 0x1DEA JUMP JUMPDEST JUMPDEST PUSH2 0x1E89 DUP3 PUSH2 0x1BCC JUMP JUMPDEST SWAP1 POP PUSH1 0x20 DUP2 ADD SWAP1 POP SWAP2 SWAP1 POP JUMP JUMPDEST DUP3 DUP2 DUP4 CALLDATACOPY PUSH1 0x0 DUP4 DUP4 ADD MSTORE POP POP POP JUMP JUMPDEST PUSH1 0x0 PUSH2 0x1EB8 PUSH2 0x1EB3 DUP5 PUSH2 0x1E65 JUMP JUMPDEST PUSH2 0x1E4A JUMP JUMPDEST SWAP1 POP DUP3 DUP2 MSTORE PUSH1 0x20 DUP2 ADD DUP5 DUP5 DUP5 ADD GT ISZERO PUSH2 0x1ED4 JUMPI PUSH2 0x1ED3 PUSH2 0x1DE5 JUMP JUMPDEST JUMPDEST PUSH2 0x1EDF DUP5 DUP3 DUP6 PUSH2 0x1E96 JUMP JUMPDEST POP SWAP4 SWAP3 POP POP POP JUMP JUMPDEST PUSH1 0x0 DUP3 PUSH1 0x1F DUP4 ADD SLT PUSH2 0x1EFC JUMPI PUSH2 0x1EFB PUSH2 0x1DE0 JUMP JUMPDEST JUMPDEST DUP2 CALLDATALOAD PUSH2 0x1F0C DUP5 DUP3 PUSH1 0x20 DUP7 ADD PUSH2 0x1EA5 JUMP JUMPDEST SWAP2 POP POP SWAP3 SWAP2 POP POP JUMP JUMPDEST PUSH1 0x0 PUSH1 0x20 DUP3 DUP5 SUB SLT ISZERO PUSH2 0x1F2B JUMPI PUSH2 0x1F2A PUSH2 0x1AC1 JUMP JUMPDEST JUMPDEST PUSH1 0x0 DUP3 ADD CALLDATALOAD PUSH8 0xFFFFFFFFFFFFFFFF DUP2 GT ISZERO PUSH2 0x1F49 JUMPI PUSH2 0x1F48 PUSH2 0x1AC6 JUMP JUMPDEST JUMPDEST PUSH2 0x1F55 DUP5 DUP3 DUP6 ADD PUSH2 0x1EE7 JUMP JUMPDEST SWAP2 POP POP SWAP3 SWAP2 POP POP JUMP JUMPDEST PUSH1 0x0 PUSH1 0x20 DUP3 DUP5 SUB SLT ISZERO PUSH2 0x1F74 JUMPI PUSH2 0x1F73 PUSH2 0x1AC1 JUMP JUMPDEST JUMPDEST PUSH1 0x0 PUSH2 0x1F82 DUP5 DUP3 DUP6 ADD PUSH2 0x1D0E JUMP JUMPDEST SWAP2 POP POP SWAP3 SWAP2 POP POP JUMP JUMPDEST PUSH2 0x1F94 DUP2 PUSH2 0x1B50 JUMP JUMPDEST DUP2 EQ PUSH2 0x1F9F JUMPI PUSH1 0x0 DUP1 REVERT JUMPDEST POP JUMP JUMPDEST PUSH1 0x0 DUP2 CALLDATALOAD SWAP1 POP PUSH2 0x1FB1 DUP2 PUSH2 0x1F8B JUMP JUMPDEST SWAP3 SWAP2 POP POP JUMP JUMPDEST PUSH1 0x0 DUP1 PUSH1 0x40 DUP4 DUP6 SUB SLT ISZERO PUSH2 0x1FCE JUMPI PUSH2 0x1FCD PUSH2 0x1AC1 JUMP JUMPDEST JUMPDEST PUSH1 0x0 PUSH2 0x1FDC DUP6 DUP3 DUP7 ADD PUSH2 0x1D0E JUMP JUMPDEST SWAP3 POP POP PUSH1 0x20 PUSH2 0x1FED DUP6 DUP3 DUP7 ADD PUSH2 0x1FA2 JUMP JUMPDEST SWAP2 POP POP SWAP3 POP SWAP3 SWAP1 POP JUMP JUMPDEST PUSH1 0x0 PUSH8 0xFFFFFFFFFFFFFFFF DUP3 GT ISZERO PUSH2 0x2012 JUMPI PUSH2 0x2011 PUSH2 0x1DEA JUMP JUMPDEST JUMPDEST PUSH1 0x20 DUP3 MUL SWAP1 POP SWAP2 SWAP1 POP JUMP JUMPDEST PUSH1 0x0 DUP1 REVERT JUMPDEST PUSH1 0x0 PUSH2 0x2035 PUSH2 0x2030 DUP5 PUSH2 0x1FF7 JUMP JUMPDEST PUSH2 0x1E4A JUMP JUMPDEST SWAP1 POP DUP1 PUSH1 0x20 DUP5 MUL DUP4 ADD DUP6 DUP2 GT ISZERO PUSH2 0x204F JUMPI PUSH2 0x204E PUSH2 0x201D JUMP JUMPDEST JUMPDEST DUP4 JUMPDEST DUP2 DUP2 LT ISZERO PUSH2 0x2078 JUMPI DUP1 PUSH2 0x2064 DUP9 DUP3 PUSH2 0x1C59 JUMP JUMPDEST DUP5 MSTORE PUSH1 0x20 DUP5 ADD SWAP4 POP POP PUSH1 0x20 DUP2 ADD SWAP1 POP PUSH2 0x2051 JUMP JUMPDEST POP POP POP SWAP4 SWAP3 POP POP POP JUMP JUMPDEST PUSH1 0x0 DUP3 PUSH1 0x1F DUP4 ADD SLT PUSH2 0x2097 JUMPI PUSH2 0x2096 PUSH2 0x1DE0 JUMP JUMPDEST JUMPDEST PUSH1 0x3 PUSH2 0x20A4 DUP5 DUP3 DUP6 PUSH2 0x2022 JUMP JUMPDEST SWAP2 POP POP SWAP3 SWAP2 POP POP JUMP JUMPDEST PUSH1 0x0 DUP1 PUSH1 0x80 DUP4 DUP6 SUB SLT ISZERO PUSH2 0x20C4 JUMPI PUSH2 0x20C3 PUSH2 0x1AC1 JUMP JUMPDEST JUMPDEST PUSH1 0x0 PUSH2 0x20D2 DUP6 DUP3 DUP7 ADD PUSH2 0x1C59 JUMP JUMPDEST SWAP3 POP POP PUSH1 0x20 PUSH2 0x20E3 DUP6 DUP3 DUP7 ADD PUSH2 0x2082 JUMP JUMPDEST SWAP2 POP POP SWAP3 POP SWAP3 SWAP1 POP JUMP JUMPDEST PUSH1 0x0 PUSH8 0xFFFFFFFFFFFFFFFF DUP3 GT ISZERO PUSH2 0x2108 JUMPI PUSH2 0x2107 PUSH2 0x1DEA JUMP JUMPDEST JUMPDEST PUSH2 0x2111 DUP3 PUSH2 0x1BCC JUMP JUMPDEST SWAP1 POP PUSH1 0x20 DUP2 ADD SWAP1 POP SWAP2 SWAP1 POP JUMP JUMPDEST PUSH1 0x0 PUSH2 0x2131 PUSH2 0x212C DUP5 PUSH2 0x20ED JUMP JUMPDEST PUSH2 0x1E4A JUMP JUMPDEST SWAP1 POP DUP3 DUP2 MSTORE PUSH1 0x20 DUP2 ADD DUP5 DUP5 DUP5 ADD GT ISZERO PUSH2 0x214D JUMPI PUSH2 0x214C PUSH2 0x1DE5 JUMP JUMPDEST JUMPDEST PUSH2 0x2158 DUP5 DUP3 DUP6 PUSH2 0x1E96 JUMP JUMPDEST POP SWAP4 SWAP3 POP POP POP JUMP JUMPDEST PUSH1 0x0 DUP3 PUSH1 0x1F DUP4 ADD SLT PUSH2 0x2175 JUMPI PUSH2 0x2174 PUSH2 0x1DE0 JUMP JUMPDEST JUMPDEST DUP2 CALLDATALOAD PUSH2 0x2185 DUP5 DUP3 PUSH1 0x20 DUP7 ADD PUSH2 0x211E JUMP JUMPDEST SWAP2 POP POP SWAP3 SWAP2 POP POP JUMP JUMPDEST PUSH1 0x0 DUP1 PUSH1 0x0 DUP1 PUSH1 0x80 DUP6 DUP8 SUB SLT ISZERO PUSH2 0x21A8 JUMPI PUSH2 0x21A7 PUSH2 0x1AC1 JUMP JUMPDEST JUMPDEST PUSH1 0x0 PUSH2 0x21B6 DUP8 DUP3 DUP9 ADD PUSH2 0x1D0E JUMP JUMPDEST SWAP5 POP POP PUSH1 0x20 PUSH2 0x21C7 DUP8 DUP3 DUP9 ADD PUSH2 0x1D0E JUMP JUMPDEST SWAP4 POP POP PUSH1 0x40 PUSH2 0x21D8 DUP8 DUP3 DUP9 ADD PUSH2 0x1C59 JUMP JUMPDEST SWAP3 POP POP PUSH1 0x60 DUP6 ADD CALLDATALOAD PUSH8 0xFFFFFFFFFFFFFFFF DUP2 GT ISZERO PUSH2 0x21F9 JUMPI PUSH2 0x21F8 PUSH2 0x1AC6 JUMP JUMPDEST JUMPDEST PUSH2 0x2205 DUP8 DUP3 DUP9 ADD PUSH2 0x2160 JUMP JUMPDEST SWAP2 POP POP SWAP3 SWAP6 SWAP2 SWAP5 POP SWAP3 POP JUMP JUMPDEST PUSH1 0x0 DUP1 PUSH1 0x40 DUP4 DUP6 SUB SLT ISZERO PUSH2 0x2228 JUMPI PUSH2 0x2227 PUSH2 0x1AC1 JUMP JUMPDEST JUMPDEST PUSH1 0x0 PUSH2 0x2236 DUP6 DUP3 DUP7 ADD PUSH2 0x1D0E JUMP JUMPDEST SWAP3 POP POP PUSH1 0x20 PUSH2 0x2247 DUP6 DUP3 DUP7 ADD PUSH2 0x1D0E JUMP JUMPDEST SWAP2 POP POP SWAP3 POP SWAP3 SWAP1 POP JUMP JUMPDEST PUSH32 0x4E487B7100000000000000000000000000000000000000000000000000000000 PUSH1 0x0 MSTORE PUSH1 0x22 PUSH1 0x4 MSTORE PUSH1 0x24 PUSH1 0x0 REVERT JUMPDEST PUSH1 0x0 PUSH1 0x2 DUP3 DIV SWAP1 POP PUSH1 0x1 DUP3 AND DUP1 PUSH2 0x2298 JUMPI PUSH1 0x7F DUP3 AND SWAP2 POP JUMPDEST PUSH1 0x20 DUP3 LT DUP2 SUB PUSH2 0x22AB JUMPI PUSH2 0x22AA PUSH2 0x2251 JUMP JUMPDEST JUMPDEST POP SWAP2 SWAP1 POP JUMP JUMPDEST PUSH1 0x0 DUP2 SWAP1 POP SWAP3 SWAP2 POP POP JUMP JUMPDEST PUSH32 0x3C7376672077696474683D2238343022206865696768743D2238343022207669 PUSH1 0x0 DUP3 ADD MSTORE PUSH32 0x6577426F783D22302030203134203134222066696C6C3D226E6F6E652220786D PUSH1 0x20 DUP3 ADD MSTORE PUSH32 0x6C6E733D22687474703A2F2F7777772E77332E6F72672F323030302F73766722 PUSH1 0x40 DUP3 ADD MSTORE PUSH32 0x3E3C726563742077696474683D22313422206865696768743D22313422206669 PUSH1 0x60 DUP3 ADD MSTORE PUSH32 0x6C6C3D2223304330433043222F3E3C6720636C6173733D2274696C6573223E3C PUSH1 0x80 DUP3 ADD MSTORE PUSH32 0x726563742069643D2270312220783D22332220793D2233222066696C6C3D2223 PUSH1 0xA0 DUP3 ADD MSTORE PUSH32 0x666666222F3E3C726563742069643D2270322220783D22342220793D22332220 PUSH1 0xC0 DUP3 ADD MSTORE PUSH32 0x66696C6C3D2223666666222F3E3C726563742069643D2270332220783D223522 PUSH1 0xE0 DUP3 ADD MSTORE PUSH32 0x20793D2233222066696C6C3D2223666666222F3E3C726563742069643D227034 PUSH2 0x100 DUP3 ADD MSTORE PUSH32 0x2220783D22362220793D2233222066696C6C3D2223666666222F3E3C72656374 PUSH2 0x120 DUP3 ADD MSTORE PUSH32 0x2069643D2270352220783D22372220793D2233222066696C6C3D222366666622 PUSH2 0x140 DUP3 ADD MSTORE PUSH32 0x2F3E3C726563742069643D2270362220783D22382220793D2233222066696C6C PUSH2 0x160 DUP3 ADD MSTORE PUSH32 0x3D2223666666222F3E3C726563742069643D2270372220783D22392220793D22 PUSH2 0x180 DUP3 ADD MSTORE PUSH32 0x33222066696C6C3D2223666666222F3E3C726563742069643D2270382220783D PUSH2 0x1A0 DUP3 ADD MSTORE PUSH32 0x2231302220793D2233222066696C6C3D2223666666222F3E3C72656374206964 PUSH2 0x1C0 DUP3 ADD MSTORE PUSH32 0x3D2270392220783D22332220793D2234222066696C6C3D2223666666222F3E3C PUSH2 0x1E0 DUP3 ADD MSTORE PUSH32 0x726563742069643D227031302220783D22342220793D2234222066696C6C3D22 PUSH2 0x200 DUP3 ADD MSTORE PUSH32 0x23666666222F3E3C726563742069643D227031312220783D22352220793D2234 PUSH2 0x220 DUP3 ADD MSTORE PUSH32 0x222066696C6C3D2223666666222F3E3C726563742069643D227031322220783D PUSH2 0x240 DUP3 ADD MSTORE PUSH32 0x22362220793D2234222066696C6C3D2223666666222F3E3C726563742069643D PUSH2 0x260 DUP3 ADD MSTORE PUSH32 0x227031332220783D22372220793D2234222066696C6C3D2223666666222F3E3C PUSH2 0x280 DUP3 ADD MSTORE PUSH32 0x726563742069643D227031342220783D22382220793D2234222066696C6C3D22 PUSH2 0x2A0 DUP3 ADD MSTORE PUSH32 0x23666666222F3E3C726563742069643D227031352220783D22392220793D2234 PUSH2 0x2C0 DUP3 ADD MSTORE PUSH32 0x222066696C6C3D2223666666222F3E3C726563742069643D227031362220783D PUSH2 0x2E0 DUP3 ADD MSTORE PUSH32 0x2231302220793D2234222066696C6C3D2223666666222F3E3C72656374206964 PUSH2 0x300 DUP3 ADD MSTORE PUSH32 0x3D227031372220783D22332220793D2235222066696C6C3D2223666666222F3E PUSH2 0x320 DUP3 ADD MSTORE PUSH32 0x3C726563742069643D227031382220783D22342220793D2235222066696C6C3D PUSH2 0x340 DUP3 ADD MSTORE PUSH32 0x2223666666222F3E3C726563742069643D227031392220783D22352220793D22 PUSH2 0x360 DUP3 ADD MSTORE PUSH32 0x35222066696C6C3D2223666666222F3E3C726563742069643D22703230222078 PUSH2 0x380 DUP3 ADD MSTORE PUSH32 0x3D22362220793D2235222066696C6C3D2223666666222F3E3C72656374206964 PUSH2 0x3A0 DUP3 ADD MSTORE PUSH32 0x3D227032312220783D22372220793D2235222066696C6C3D2223666666222F3E PUSH2 0x3C0 DUP3 ADD MSTORE PUSH32 0x3C726563742069643D227032322220783D22382220793D2235222066696C6C3D PUSH2 0x3E0 DUP3 ADD MSTORE PUSH32 0x2223666666222F3E3C726563742069643D227032332220783D22392220793D22 PUSH2 0x400 DUP3 ADD MSTORE PUSH32 0x35222066696C6C3D2223666666222F3E3C726563742069643D22703234222078 PUSH2 0x420 DUP3 ADD MSTORE PUSH32 0x3D2231302220793D2235222066696C6C3D2223666666222F3E3C726563742069 PUSH2 0x440 DUP3 ADD MSTORE PUSH32 0x643D227032352220783D22332220793D2236222066696C6C3D2223666666222F PUSH2 0x460 DUP3 ADD MSTORE PUSH32 0x3E3C726563742069643D227032362220783D22342220793D2236222066696C6C PUSH2 0x480 DUP3 ADD MSTORE PUSH32 0x3D2223666666222F3E3C726563742069643D227032372220783D22352220793D PUSH2 0x4A0 DUP3 ADD MSTORE PUSH32 0x2236222066696C6C3D2223666666222F3E3C726563742069643D227032382220 PUSH2 0x4C0 DUP3 ADD MSTORE PUSH32 0x783D22362220793D2236222066696C6C3D2223666666222F3E3C726563742069 PUSH2 0x4E0 DUP3 ADD MSTORE PUSH32 0x643D227032392220783D22372220793D2236222066696C6C3D2223666666222F PUSH2 0x500 DUP3 ADD MSTORE PUSH32 0x3E3C726563742069643D227033302220783D22382220793D2236222066696C6C PUSH2 0x520 DUP3 ADD MSTORE PUSH32 0x3D2223666666222F3E3C726563742069643D227033312220783D22392220793D PUSH2 0x540 DUP3 ADD MSTORE PUSH32 0x2236222066696C6C3D2223666666222F3E3C726563742069643D227033322220 PUSH2 0x560 DUP3 ADD MSTORE PUSH32 0x783D2231302220793D2236222066696C6C3D2223666666222F3E3C7265637420 PUSH2 0x580 DUP3 ADD MSTORE PUSH32 0x69643D227033332220783D22332220793D2237222066696C6C3D222366666622 PUSH2 0x5A0 DUP3 ADD MSTORE PUSH32 0x2F3E3C726563742069643D227033342220783D22342220793D2237222066696C PUSH2 0x5C0 DUP3 ADD MSTORE PUSH32 0x6C3D2223666666222F3E3C726563742069643D227033352220783D2235222079 PUSH2 0x5E0 DUP3 ADD MSTORE PUSH32 0x3D2237222066696C6C3D2223666666222F3E3C726563742069643D2270333622 PUSH2 0x600 DUP3 ADD MSTORE PUSH32 0x20783D22362220793D2237222066696C6C3D2223666666222F3E3C7265637420 PUSH2 0x620 DUP3 ADD MSTORE PUSH32 0x69643D227033372220783D22372220793D2237222066696C6C3D222366666622 PUSH2 0x640 DUP3 ADD MSTORE PUSH32 0x2F3E3C726563742069643D227033382220783D22382220793D2237222066696C PUSH2 0x660 DUP3 ADD MSTORE PUSH32 0x6C3D2223666666222F3E3C726563742069643D227033392220783D2239222079 PUSH2 0x680 DUP3 ADD MSTORE PUSH32 0x3D2237222066696C6C3D2223666666222F3E3C726563742069643D2270343022 PUSH2 0x6A0 DUP3 ADD MSTORE PUSH32 0x20783D2231302220793D2237222066696C6C3D2223666666222F3E3C72656374 PUSH2 0x6C0 DUP3 ADD MSTORE PUSH32 0x2069643D227034312220783D22332220793D2238222066696C6C3D2223666666 PUSH2 0x6E0 DUP3 ADD MSTORE PUSH32 0x222F3E3C726563742069643D227034322220783D22342220793D223822206669 PUSH2 0x700 DUP3 ADD MSTORE PUSH32 0x6C6C3D2223666666222F3E3C726563742069643D227034332220783D22352220 PUSH2 0x720 DUP3 ADD MSTORE PUSH32 0x793D2238222066696C6C3D2223666666222F3E3C726563742069643D22703434 PUSH2 0x740 DUP3 ADD MSTORE PUSH32 0x2220783D22362220793D2238222066696C6C3D2223666666222F3E3C72656374 PUSH2 0x760 DUP3 ADD MSTORE PUSH32 0x2069643D227034352220783D22372220793D2238222066696C6C3D2223666666 PUSH2 0x780 DUP3 ADD MSTORE PUSH32 0x222F3E3C726563742069643D227034362220783D22382220793D223822206669 PUSH2 0x7A0 DUP3 ADD MSTORE PUSH32 0x6C6C3D2223666666222F3E3C726563742069643D227034372220783D22392220 PUSH2 0x7C0 DUP3 ADD MSTORE PUSH32 0x793D2238222066696C6C3D2223666666222F3E3C726563742069643D22703438 PUSH2 0x7E0 DUP3 ADD MSTORE PUSH32 0x2220783D2231302220793D2238222066696C6C3D2223666666222F3E3C726563 PUSH2 0x800 DUP3 ADD MSTORE PUSH32 0x742069643D227034392220783D22332220793D2239222066696C6C3D22236666 PUSH2 0x820 DUP3 ADD MSTORE PUSH32 0x66222F3E3C726563742069643D227035302220783D22342220793D2239222066 PUSH2 0x840 DUP3 ADD MSTORE PUSH32 0x696C6C3D2223666666222F3E3C726563742069643D227035312220783D223522 PUSH2 0x860 DUP3 ADD MSTORE PUSH32 0x20793D2239222066696C6C3D2223666666222F3E3C726563742069643D227035 PUSH2 0x880 DUP3 ADD MSTORE PUSH32 0x322220783D22362220793D2239222066696C6C3D2223666666222F3E3C726563 PUSH2 0x8A0 DUP3 ADD MSTORE PUSH32 0x742069643D227035332220783D22372220793D2239222066696C6C3D22236666 PUSH2 0x8C0 DUP3 ADD MSTORE PUSH32 0x66222F3E3C726563742069643D227035342220783D22382220793D2239222066 PUSH2 0x8E0 DUP3 ADD MSTORE PUSH32 0x696C6C3D2223666666222F3E3C726563742069643D227035352220783D223922 PUSH2 0x900 DUP3 ADD MSTORE PUSH32 0x20793D2239222066696C6C3D2223666666222F3E3C726563742069643D227035 PUSH2 0x920 DUP3 ADD MSTORE PUSH32 0x362220783D2231302220793D2239222066696C6C3D2223666666222F3E3C7265 PUSH2 0x940 DUP3 ADD MSTORE PUSH32 0x63742069643D227035372220783D22332220793D223130222066696C6C3D2223 PUSH2 0x960 DUP3 ADD MSTORE PUSH32 0x666666222F3E3C726563742069643D227035382220783D22342220793D223130 PUSH2 0x980 DUP3 ADD MSTORE PUSH32 0x222066696C6C3D2223666666222F3E3C726563742069643D227035392220783D PUSH2 0x9A0 DUP3 ADD MSTORE PUSH32 0x22352220793D223130222066696C6C3D2223666666222F3E3C72656374206964 PUSH2 0x9C0 DUP3 ADD MSTORE PUSH32 0x3D227036302220783D22362220793D223130222066696C6C3D2223666666222F PUSH2 0x9E0 DUP3 ADD MSTORE PUSH32 0x3E3C726563742069643D227036312220783D22372220793D223130222066696C PUSH2 0xA00 DUP3 ADD MSTORE PUSH32 0x6C3D2223666666222F3E3C726563742069643D227036322220783D2238222079 PUSH2 0xA20 DUP3 ADD MSTORE PUSH32 0x3D223130222066696C6C3D2223666666222F3E3C726563742069643D22703633 PUSH2 0xA40 DUP3 ADD MSTORE PUSH32 0x2220783D22392220793D223130222066696C6C3D2223666666222F3E3C726563 PUSH2 0xA60 DUP3 ADD MSTORE PUSH32 0x742069643D227036342220783D2231302220793D223130222066696C6C3D2223 PUSH2 0xA80 DUP3 ADD MSTORE PUSH32 0x666666222F3E3C2F673E3C6720636C6173733D2267726964223E3C6C696E6520 PUSH2 0xAA0 DUP3 ADD MSTORE PUSH32 0x78313D22312E303035222079313D222D322E3138353537652D3130222078323D PUSH2 0xAC0 DUP3 ADD MSTORE PUSH32 0x22312E303035222079323D223134222F3E3C6C696E652078313D22322E303035 PUSH2 0xAE0 DUP3 ADD MSTORE PUSH32 0x222079313D222D322E3138353537652D3130222078323D22322E303035222079 PUSH2 0xB00 DUP3 ADD MSTORE PUSH32 0x323D223134222F3E3C6C696E652078313D22332E303035222079313D222D322E PUSH2 0xB20 DUP3 ADD MSTORE PUSH32 0x3138353537652D3130222078323D22332E303035222079323D223134222F3E3C PUSH2 0xB40 DUP3 ADD MSTORE PUSH32 0x6C696E652078313D22342E303035222079313D222D322E3138353537652D3130 PUSH2 0xB60 DUP3 ADD MSTORE PUSH32 0x222078323D22342E303035222079323D223134222F3E3C6C696E652078313D22 PUSH2 0xB80 DUP3 ADD MSTORE PUSH32 0x352E303035222079313D222D322E3138353537652D3130222078323D22352E30 PUSH2 0xBA0 DUP3 ADD MSTORE PUSH32 0x3035222079323D223134222F3E3C6C696E652078313D22362E30303522207931 PUSH2 0xBC0 DUP3 ADD MSTORE PUSH32 0x3D222D322E3138353537652D3130222078323D22362E303035222079323D2231 PUSH2 0xBE0 DUP3 ADD MSTORE PUSH32 0x34222F3E3C6C696E652078313D22372E303035222079313D222D322E31383535 PUSH2 0xC00 DUP3 ADD MSTORE PUSH32 0x37652D3130222078323D22372E303035222079323D223134222F3E3C6C696E65 PUSH2 0xC20 DUP3 ADD MSTORE PUSH32 0x2078313D22382E303035222079313D222D322E3138353537652D313022207832 PUSH2 0xC40 DUP3 ADD MSTORE PUSH32 0x3D22382E303035222079323D223134222F3E3C6C696E652078313D22392E3030 PUSH2 0xC60 DUP3 ADD MSTORE PUSH32 0x35222079313D222D322E3138353537652D3130222078323D22392E3030352220 PUSH2 0xC80 DUP3 ADD MSTORE PUSH32 0x79323D223134222F3E3C6C696E652078313D2231302E303035222079313D222D PUSH2 0xCA0 DUP3 ADD MSTORE PUSH32 0x322E3138353537652D3130222078323D2231302E303035222079323D22313422 PUSH2 0xCC0 DUP3 ADD MSTORE PUSH32 0x2F3E3C6C696E652078313D2231312E303035222079313D222D322E3138353537 PUSH2 0xCE0 DUP3 ADD MSTORE PUSH32 0x652D3130222078323D2231312E303035222079323D223134222F3E3C6C696E65 PUSH2 0xD00 DUP3 ADD MSTORE PUSH32 0x2078313D2231322E303035222079313D222D322E3138353537652D3130222078 PUSH2 0xD20 DUP3 ADD MSTORE PUSH32 0x323D2231322E303035222079323D223134222F3E3C6C696E652078313D223133 PUSH2 0xD40 DUP3 ADD MSTORE PUSH32 0x2E303035222079313D222D322E3138353537652D3130222078323D2231332E30 PUSH2 0xD60 DUP3 ADD MSTORE PUSH32 0x3035222079323D223134222F3E3C6C696E652078313D223134222079313D2231 PUSH2 0xD80 DUP3 ADD MSTORE PUSH32 0x2E303035222079323D22312E303035222F3E3C6C696E652078313D2231342220 PUSH2 0xDA0 DUP3 ADD MSTORE PUSH32 0x79313D22322E303035222079323D22322E303035222F3E3C6C696E652078313D PUSH2 0xDC0 DUP3 ADD MSTORE PUSH32 0x223134222079313D22332E303035222079323D22332E303035222F3E3C6C696E PUSH2 0xDE0 DUP3 ADD MSTORE PUSH32 0x652078313D223134222079313D22342E303035222079323D22342E303035222F PUSH2 0xE00 DUP3 ADD MSTORE PUSH32 0x3E3C6C696E652078313D223134222079313D22352E303035222079323D22352E PUSH2 0xE20 DUP3 ADD MSTORE PUSH32 0x303035222F3E3C6C696E652078313D223134222079313D22362E303035222079 PUSH2 0xE40 DUP3 ADD MSTORE PUSH32 0x323D22362E303035222F3E3C6C696E652078313D223134222079313D22372E30 PUSH2 0xE60 DUP3 ADD MSTORE PUSH32 0x3035222079323D22372E303035222F3E3C6C696E652078313D22313422207931 PUSH2 0xE80 DUP3 ADD MSTORE PUSH32 0x3D22382E303035222079323D22382E303035222F3E3C6C696E652078313D2231 PUSH2 0xEA0 DUP3 ADD MSTORE PUSH32 0x34222079313D22392E303035222079323D22392E303035222F3E3C6C696E6520 PUSH2 0xEC0 DUP3 ADD MSTORE PUSH32 0x78313D223134222079313D2231302E303035222079323D2231302E303035222F PUSH2 0xEE0 DUP3 ADD MSTORE PUSH32 0x3E3C6C696E652078313D223134222079313D2231312E303035222079323D2231 PUSH2 0xF00 DUP3 ADD MSTORE PUSH32 0x312E303035222F3E3C6C696E652078313D223134222079313D2231322E303035 PUSH2 0xF20 DUP3 ADD MSTORE PUSH32 0x222079323D2231322E303035222F3E3C6C696E652078313D223134222079313D PUSH2 0xF40 DUP3 ADD MSTORE PUSH32 0x2231332E303035222079323D2231332E303035222F3E3C2F673E3C7374796C65 PUSH2 0xF60 DUP3 ADD MSTORE PUSH32 0x3E2E74696C657320726563747B77696474683A3170783B6865696768743A3170 PUSH2 0xF80 DUP3 ADD MSTORE PUSH32 0x783B7D2E677269647B7374726F6B653A233232323B7374726F6B652D77696474 PUSH2 0xFA0 DUP3 ADD MSTORE PUSH32 0x683A2E30313B7D00000000000000000000000000000000000000000000000000 PUSH2 0xFC0 DUP3 ADD MSTORE POP JUMP JUMPDEST PUSH1 0x0 PUSH2 0x361E PUSH2 0xFC7 DUP4 PUSH2 0x22B1 JUMP JUMPDEST SWAP2 POP PUSH2 0x3629 DUP3 PUSH2 0x22BC JUMP JUMPDEST PUSH2 0xFC7 DUP3 ADD SWAP1 POP SWAP2 SWAP1 POP JUMP JUMPDEST PUSH1 0x0 PUSH2 0x3640 DUP3 PUSH2 0x1B86 JUMP JUMPDEST PUSH2 0x364A DUP2 DUP6 PUSH2 0x22B1 JUMP JUMPDEST SWAP4 POP PUSH2 0x365A DUP2 DUP6 PUSH1 0x20 DUP7 ADD PUSH2 0x1BA2 JUMP JUMPDEST DUP1 DUP5 ADD SWAP2 POP POP SWAP3 SWAP2 POP POP JUMP JUMPDEST PUSH32 0x3C2F7374796C653E3C2F7376673E000000000000000000000000000000000000 PUSH1 0x0 DUP3 ADD MSTORE POP JUMP JUMPDEST PUSH1 0x0 PUSH2 0x369C PUSH1 0xE DUP4 PUSH2 0x22B1 JUMP JUMPDEST SWAP2 POP PUSH2 0x36A7 DUP3 PUSH2 0x3666 JUMP JUMPDEST PUSH1 0xE DUP3 ADD SWAP1 POP SWAP2 SWAP1 POP JUMP JUMPDEST PUSH1 0x0 PUSH2 0x36BD DUP3 PUSH2 0x3610 JUMP JUMPDEST SWAP2 POP PUSH2 0x36C9 DUP3 DUP5 PUSH2 0x3635 JUMP JUMPDEST SWAP2 POP PUSH2 0x36D4 DUP3 PUSH2 0x368F JUMP JUMPDEST SWAP2 POP DUP2 SWAP1 POP SWAP3 SWAP2 POP POP JUMP JUMPDEST PUSH32 0x4E487B7100000000000000000000000000000000000000000000000000000000 PUSH1 0x0 MSTORE PUSH1 0x12 PUSH1 0x4 MSTORE PUSH1 0x24 PUSH1 0x0 REVERT JUMPDEST PUSH1 0x0 PUSH2 0x3719 DUP3 PUSH2 0x1C38 JUMP JUMPDEST SWAP2 POP PUSH2 0x3724 DUP4 PUSH2 0x1C38 JUMP JUMPDEST SWAP3 POP DUP3 PUSH2 0x3734 JUMPI PUSH2 0x3733 PUSH2 0x36DF JUMP JUMPDEST JUMPDEST DUP3 DUP3 MOD SWAP1 POP SWAP3 SWAP2 POP POP JUMP JUMPDEST PUSH32 0x4E487B7100000000000000000000000000000000000000000000000000000000 PUSH1 0x0 MSTORE PUSH1 0x11 PUSH1 0x4 MSTORE PUSH1 0x24 PUSH1 0x0 REVERT JUMPDEST PUSH1 0x0 PUSH2 0x3779 DUP3 PUSH2 0x1C38 JUMP JUMPDEST SWAP2 POP PUSH2 0x3784 DUP4 PUSH2 0x1C38 JUMP JUMPDEST SWAP3 POP DUP3 DUP3 ADD SWAP1 POP DUP1 DUP3 GT ISZERO PUSH2 0x379C JUMPI PUSH2 0x379B PUSH2 0x373F JUMP JUMPDEST JUMPDEST SWAP3 SWAP2 POP POP JUMP JUMPDEST PUSH1 0x0 PUSH2 0x37AD DUP3 PUSH2 0x1C38 JUMP JUMPDEST SWAP2 POP PUSH32 0xFFFFFFFFFFFFFFFFFFFFFFFFFFFFFFFFFFFFFFFFFFFFFFFFFFFFFFFFFFFFFFFF DUP3 SUB PUSH2 0x37DF JUMPI PUSH2 0x37DE PUSH2 0x373F JUMP JUMPDEST JUMPDEST PUSH1 0x1 DUP3 ADD SWAP1 POP SWAP2 SWAP1 POP JUMP JUMPDEST PUSH32 0x2370000000000000000000000000000000000000000000000000000000000000 PUSH1 0x0 DUP3 ADD MSTORE POP JUMP JUMPDEST PUSH1 0x0 PUSH2 0x3820 PUSH1 0x2 DUP4 PUSH2 0x22B1 JUMP JUMPDEST SWAP2 POP PUSH2 0x382B DUP3 PUSH2 0x37EA JUMP JUMPDEST PUSH1 0x2 DUP3 ADD SWAP1 POP SWAP2 SWAP1 POP JUMP JUMPDEST PUSH32 0x7B66696C6C3A0000000000000000000000000000000000000000000000000000 PUSH1 0x0 DUP3 ADD MSTORE POP JUMP JUMPDEST PUSH1 0x0 PUSH2 0x386C PUSH1 0x6 DUP4 PUSH2 0x22B1 JUMP JUMPDEST SWAP2 POP PUSH2 0x3877 DUP3 PUSH2 0x3836 JUMP JUMPDEST PUSH1 0x6 DUP3 ADD SWAP1 POP SWAP2 SWAP1 POP JUMP JUMPDEST PUSH1 0x0 DUP2 SWAP1 POP DUP2 PUSH1 0x0 MSTORE PUSH1 0x20 PUSH1 0x0 KECCAK256 SWAP1 POP SWAP2 SWAP1 POP JUMP JUMPDEST PUSH1 0x0 DUP2 SLOAD PUSH2 0x38A4 DUP2 PUSH2 0x2280 JUMP JUMPDEST PUSH2 0x38AE DUP2 DUP7 PUSH2 0x22B1 JUMP JUMPDEST SWAP5 POP PUSH1 0x1 DUP3 AND PUSH1 0x0 DUP2 EQ PUSH2 0x38C9 JUMPI PUSH1 0x1 DUP2 EQ PUSH2 0x38DE JUMPI PUSH2 0x3911 JUMP JUMPDEST PUSH1 0xFF NOT DUP4 AND DUP7 MSTORE DUP2 ISZERO ISZERO DUP3 MUL DUP7 ADD SWAP4 POP PUSH2 0x3911 JUMP JUMPDEST PUSH2 0x38E7 DUP6 PUSH2 0x3882 JUMP JUMPDEST PUSH1 0x0 JUMPDEST DUP4 DUP2 LT ISZERO PUSH2 0x3909 JUMPI DUP2 SLOAD DUP2 DUP10 ADD MSTORE PUSH1 0x1 DUP3 ADD SWAP2 POP PUSH1 0x20 DUP2 ADD SWAP1 POP PUSH2 0x38EA JUMP JUMPDEST DUP4 DUP9 ADD SWAP6 POP POP POP JUMPDEST POP POP POP SWAP3 SWAP2 POP POP JUMP JUMPDEST PUSH32 0x7D00000000000000000000000000000000000000000000000000000000000000 PUSH1 0x0 DUP3 ADD MSTORE POP JUMP JUMPDEST PUSH1 0x0 PUSH2 0x3950 PUSH1 0x1 DUP4 PUSH2 0x22B1 JUMP JUMPDEST SWAP2 POP PUSH2 0x395B DUP3 PUSH2 0x391A JUMP JUMPDEST PUSH1 0x1 DUP3 ADD SWAP1 POP SWAP2 SWAP1 POP JUMP JUMPDEST PUSH1 0x0 PUSH2 0x3972 DUP3 DUP7 PUSH2 0x3635 JUMP JUMPDEST SWAP2 POP PUSH2 0x397D DUP3 PUSH2 0x3813 JUMP JUMPDEST SWAP2 POP PUSH2 0x3989 DUP3 DUP6 PUSH2 0x3635 JUMP JUMPDEST SWAP2 POP PUSH2 0x3994 DUP3 PUSH2 0x385F JUMP JUMPDEST SWAP2 POP PUSH2 0x39A0 DUP3 DUP5 PUSH2 0x3897 JUMP JUMPDEST SWAP2 POP PUSH2 0x39AB DUP3 PUSH2 0x3943 JUMP JUMPDEST SWAP2 POP DUP2 SWAP1 POP SWAP5 SWAP4 POP POP POP POP JUMP JUMPDEST PUSH32 0x496E76616C696420706F736974696F6E00000000000000000000000000000000 PUSH1 0x0 DUP3 ADD MSTORE POP JUMP JUMPDEST PUSH1 0x0 PUSH2 0x39EE PUSH1 0x10 DUP4 PUSH2 0x1B91 JUMP JUMPDEST SWAP2 POP PUSH2 0x39F9 DUP3 PUSH2 0x39B8 JUMP JUMPDEST PUSH1 0x20 DUP3 ADD SWAP1 POP SWAP2 SWAP1 POP JUMP JUMPDEST PUSH1 0x0 PUSH1 0x20 DUP3 ADD SWAP1 POP DUP2 DUP2 SUB PUSH1 0x0 DUP4 ADD MSTORE PUSH2 0x3A1D DUP2 PUSH2 0x39E1 JUMP JUMPDEST SWAP1 POP SWAP2 SWAP1 POP JUMP JUMPDEST PUSH32 0x4E487B7100000000000000000000000000000000000000000000000000000000 PUSH1 0x0 MSTORE PUSH1 0x32 PUSH1 0x4 MSTORE PUSH1 0x24 PUSH1 0x0 REVERT JUMPDEST PUSH32 0x7267622800000000000000000000000000000000000000000000000000000000 PUSH1 0x0 DUP3 ADD MSTORE POP JUMP JUMPDEST PUSH1 0x0 PUSH2 0x3A89 PUSH1 0x4 DUP4 PUSH2 0x22B1 JUMP JUMPDEST SWAP2 POP PUSH2 0x3A94 DUP3 PUSH2 0x3A53 JUMP JUMPDEST PUSH1 0x4 DUP3 ADD SWAP1 POP SWAP2 SWAP1 POP JUMP JUMPDEST PUSH32 0x2C00000000000000000000000000000000000000000000000000000000000000 PUSH1 0x0 DUP3 ADD MSTORE POP JUMP JUMPDEST PUSH1 0x0 PUSH2 0x3AD5 PUSH1 0x1 DUP4 PUSH2 0x22B1 JUMP JUMPDEST SWAP2 POP PUSH2 0x3AE0 DUP3 PUSH2 0x3A9F JUMP JUMPDEST PUSH1 0x1 DUP3 ADD SWAP1 POP SWAP2 SWAP1 POP JUMP JUMPDEST PUSH32 0x2900000000000000000000000000000000000000000000000000000000000000 PUSH1 0x0 DUP3 ADD MSTORE POP JUMP JUMPDEST PUSH1 0x0 PUSH2 0x3B21 PUSH1 0x1 DUP4 PUSH2 0x22B1 JUMP JUMPDEST SWAP2 POP PUSH2 0x3B2C DUP3 PUSH2 0x3AEB JUMP JUMPDEST PUSH1 0x1 DUP3 ADD SWAP1 POP SWAP2 SWAP1 POP JUMP JUMPDEST PUSH1 0x0 PUSH2 0x3B42 DUP3 PUSH2 0x3A7C JUMP JUMPDEST SWAP2 POP PUSH2 0x3B4E DUP3 DUP7 PUSH2 0x3635 JUMP JUMPDEST SWAP2 POP PUSH2 0x3B59 DUP3 PUSH2 0x3AC8 JUMP JUMPDEST SWAP2 POP PUSH2 0x3B65 DUP3 DUP6 PUSH2 0x3635 JUMP JUMPDEST SWAP2 POP PUSH2 0x3B70 DUP3 PUSH2 0x3AC8 JUMP JUMPDEST SWAP2 POP PUSH2 0x3B7C DUP3 DUP5 PUSH2 0x3635 JUMP JUMPDEST SWAP2 POP PUSH2 0x3B87 DUP3 PUSH2 0x3B14 JUMP JUMPDEST SWAP2 POP DUP2 SWAP1 POP SWAP5 SWAP4 POP POP POP POP JUMP JUMPDEST PUSH1 0x0 PUSH1 0x20 PUSH1 0x1F DUP4 ADD DIV SWAP1 POP SWAP2 SWAP1 POP JUMP JUMPDEST PUSH1 0x0 DUP3 DUP3 SHL SWAP1 POP SWAP3 SWAP2 POP POP JUMP JUMPDEST PUSH1 0x0 PUSH1 0x8 DUP4 MUL PUSH2 0x3BE1 PUSH32 0xFFFFFFFFFFFFFFFFFFFFFFFFFFFFFFFFFFFFFFFFFFFFFFFFFFFFFFFFFFFFFFFF DUP3 PUSH2 0x3BA4 JUMP JUMPDEST PUSH2 0x3BEB DUP7 DUP4 PUSH2 0x3BA4 JUMP JUMPDEST SWAP6 POP DUP1 NOT DUP5 AND SWAP4 POP DUP1 DUP7 AND DUP5 OR SWAP3 POP POP POP SWAP4 SWAP3 POP POP POP JUMP JUMPDEST PUSH1 0x0 DUP2 SWAP1 POP SWAP2 SWAP1 POP JUMP JUMPDEST PUSH1 0x0 PUSH2 0x3C28 PUSH2 0x3C23 PUSH2 0x3C1E DUP5 PUSH2 0x1C38 JUMP JUMPDEST PUSH2 0x3C03 JUMP JUMPDEST PUSH2 0x1C38 JUMP JUMPDEST SWAP1 POP SWAP2 SWAP1 POP JUMP JUMPDEST PUSH1 0x0 DUP2 SWAP1 POP SWAP2 SWAP1 POP JUMP JUMPDEST PUSH2 0x3C42 DUP4 PUSH2 0x3C0D JUMP JUMPDEST PUSH2 0x3C56 PUSH2 0x3C4E DUP3 PUSH2 0x3C2F JUMP JUMPDEST DUP5 DUP5 SLOAD PUSH2 0x3BB1 JUMP JUMPDEST DUP3 SSTORE POP POP POP POP JUMP JUMPDEST PUSH1 0x0 SWAP1 JUMP JUMPDEST PUSH2 0x3C6B PUSH2 0x3C5E JUMP JUMPDEST PUSH2 0x3C76 DUP2 DUP5 DUP5 PUSH2 0x3C39 JUMP JUMPDEST POP POP POP JUMP JUMPDEST JUMPDEST DUP2 DUP2 LT ISZERO PUSH2 0x3C9A JUMPI PUSH2 0x3C8F PUSH1 0x0 DUP3 PUSH2 0x3C63 JUMP JUMPDEST PUSH1 0x1 DUP2 ADD SWAP1 POP PUSH2 0x3C7C JUMP JUMPDEST POP POP JUMP JUMPDEST PUSH1 0x1F DUP3 GT ISZERO PUSH2 0x3CDF JUMPI PUSH2 0x3CB0 DUP2 PUSH2 0x3882 JUMP JUMPDEST PUSH2 0x3CB9 DUP5 PUSH2 0x3B94 JUMP JUMPDEST DUP2 ADD PUSH1 0x20 DUP6 LT ISZERO PUSH2 0x3CC8 JUMPI DUP2 SWAP1 POP JUMPDEST PUSH2 0x3CDC PUSH2 0x3CD4 DUP6 PUSH2 0x3B94 JUMP JUMPDEST DUP4 ADD DUP3 PUSH2 0x3C7B JUMP JUMPDEST POP POP JUMPDEST POP POP POP JUMP JUMPDEST PUSH1 0x0 DUP3 DUP3 SHR SWAP1 POP SWAP3 SWAP2 POP POP JUMP JUMPDEST PUSH1 0x0 PUSH2 0x3D02 PUSH1 0x0 NOT DUP5 PUSH1 0x8 MUL PUSH2 0x3CE4 JUMP JUMPDEST NOT DUP1 DUP4 AND SWAP2 POP POP SWAP3 SWAP2 POP POP JUMP JUMPDEST PUSH1 0x0 PUSH2 0x3D1B DUP4 DUP4 PUSH2 0x3CF1 JUMP JUMPDEST SWAP2 POP DUP3 PUSH1 0x2 MUL DUP3 OR SWAP1 POP SWAP3 SWAP2 POP POP JUMP JUMPDEST PUSH2 0x3D34 DUP3 PUSH2 0x1B86 JUMP JUMPDEST PUSH8 0xFFFFFFFFFFFFFFFF DUP2 GT ISZERO PUSH2 0x3D4D JUMPI PUSH2 0x3D4C PUSH2 0x1DEA JUMP JUMPDEST JUMPDEST PUSH2 0x3D57 DUP3 SLOAD PUSH2 0x2280 JUMP JUMPDEST PUSH2 0x3D62 DUP3 DUP3 DUP6 PUSH2 0x3C9E JUMP JUMPDEST PUSH1 0x0 PUSH1 0x20 SWAP1 POP PUSH1 0x1F DUP4 GT PUSH1 0x1 DUP2 EQ PUSH2 0x3D95 JUMPI PUSH1 0x0 DUP5 ISZERO PUSH2 0x3D83 JUMPI DUP3 DUP8 ADD MLOAD SWAP1 POP JUMPDEST PUSH2 0x3D8D DUP6 DUP3 PUSH2 0x3D0F JUMP JUMPDEST DUP7 SSTORE POP PUSH2 0x3DF5 JUMP JUMPDEST PUSH1 0x1F NOT DUP5 AND PUSH2 0x3DA3 DUP7 PUSH2 0x3882 JUMP JUMPDEST PUSH1 0x0 JUMPDEST DUP3 DUP2 LT ISZERO PUSH2 0x3DCB JUMPI DUP5 DUP10 ADD MLOAD DUP3 SSTORE PUSH1 0x1 DUP3 ADD SWAP2 POP PUSH1 0x20 DUP6 ADD SWAP5 POP PUSH1 0x20 DUP2 ADD SWAP1 POP PUSH2 0x3DA6 JUMP JUMPDEST DUP7 DUP4 LT ISZERO PUSH2 0x3DE8 JUMPI DUP5 DUP10 ADD MLOAD PUSH2 0x3DE4 PUSH1 0x1F DUP10 AND DUP3 PUSH2 0x3CF1 JUMP JUMPDEST DUP4 SSTORE POP JUMPDEST PUSH1 0x1 PUSH1 0x2 DUP9 MUL ADD DUP9 SSTORE POP POP POP JUMPDEST POP POP POP POP POP POP JUMP JUMPDEST PUSH32 0x7B226E616D65223A2022506978656C5465737420000000000000000000000000 PUSH1 0x0 DUP3 ADD MSTORE POP JUMP JUMPDEST PUSH1 0x0 PUSH2 0x3E33 PUSH1 0x14 DUP4 PUSH2 0x22B1 JUMP JUMPDEST SWAP2 POP PUSH2 0x3E3E DUP3 PUSH2 0x3DFD JUMP JUMPDEST PUSH1 0x14 DUP3 ADD SWAP1 POP SWAP2 SWAP1 POP JUMP JUMPDEST PUSH32 0x222C20226465736372697074696F6E223A202254686973206973206120746573 PUSH1 0x0 DUP3 ADD MSTORE PUSH32 0x74222C2022696D616765223A2022646174613A696D6167652F7376672B786D6C PUSH1 0x20 DUP3 ADD MSTORE PUSH32 0x3B6261736536342C000000000000000000000000000000000000000000000000 PUSH1 0x40 DUP3 ADD MSTORE POP JUMP JUMPDEST PUSH1 0x0 PUSH2 0x3ECB PUSH1 0x48 DUP4 PUSH2 0x22B1 JUMP JUMPDEST SWAP2 POP PUSH2 0x3ED6 DUP3 PUSH2 0x3E49 JUMP JUMPDEST PUSH1 0x48 DUP3 ADD SWAP1 POP SWAP2 SWAP1 POP JUMP JUMPDEST PUSH32 0x227D000000000000000000000000000000000000000000000000000000000000 PUSH1 0x0 DUP3 ADD MSTORE POP JUMP JUMPDEST PUSH1 0x0 PUSH2 0x3F17 PUSH1 0x2 DUP4 PUSH2 0x22B1 JUMP JUMPDEST SWAP2 POP PUSH2 0x3F22 DUP3 PUSH2 0x3EE1 JUMP JUMPDEST PUSH1 0x2 DUP3 ADD SWAP1 POP SWAP2 SWAP1 POP JUMP JUMPDEST PUSH1 0x0 PUSH2 0x3F38 DUP3 PUSH2 0x3E26 JUMP JUMPDEST SWAP2 POP PUSH2 0x3F44 DUP3 DUP6 PUSH2 0x3635 JUMP JUMPDEST SWAP2 POP PUSH2 0x3F4F DUP3 PUSH2 0x3EBE JUMP JUMPDEST SWAP2 POP PUSH2 0x3F5B DUP3 DUP5 PUSH2 0x3635 JUMP JUMPDEST SWAP2 POP PUSH2 0x3F66 DUP3 PUSH2 0x3F0A JUMP JUMPDEST SWAP2 POP DUP2 SWAP1 POP SWAP4 SWAP3 POP POP POP JUMP JUMPDEST PUSH32 0x646174613A6170706C69636174696F6E2F6A736F6E3B6261736536342C000000 PUSH1 0x0 DUP3 ADD MSTORE POP JUMP JUMPDEST PUSH1 0x0 PUSH2 0x3FA8 PUSH1 0x1D DUP4 PUSH2 0x22B1 JUMP JUMPDEST SWAP2 POP PUSH2 0x3FB3 DUP3 PUSH2 0x3F72 JUMP JUMPDEST PUSH1 0x1D DUP3 ADD SWAP1 POP SWAP2 SWAP1 POP JUMP JUMPDEST PUSH1 0x0 PUSH2 0x3FC9 DUP3 PUSH2 0x3F9B JUMP JUMPDEST SWAP2 POP PUSH2 0x3FD5 DUP3 DUP5 PUSH2 0x3635 JUMP JUMPDEST SWAP2 POP DUP2 SWAP1 POP SWAP3 SWAP2 POP POP JUMP JUMPDEST PUSH32 0x4F776E61626C653A206E6577206F776E657220697320746865207A65726F2061 PUSH1 0x0 DUP3 ADD MSTORE PUSH32 0x6464726573730000000000000000000000000000000000000000000000000000 PUSH1 0x20 DUP3 ADD MSTORE POP JUMP JUMPDEST PUSH1 0x0 PUSH2 0x403C PUSH1 0x26 DUP4 PUSH2 0x1B91 JUMP JUMPDEST SWAP2 POP PUSH2 0x4047 DUP3 PUSH2 0x3FE0 JUMP JUMPDEST PUSH1 0x40 DUP3 ADD SWAP1 POP SWAP2 SWAP1 POP JUMP JUMPDEST PUSH1 0x0 PUSH1 0x20 DUP3 ADD SWAP1 POP DUP2 DUP2 SUB PUSH1 0x0 DUP4 ADD MSTORE PUSH2 0x406B DUP2 PUSH2 0x402F JUMP JUMPDEST SWAP1 POP SWAP2 SWAP1 POP JUMP JUMPDEST PUSH32 0x4F776E61626C653A2063616C6C6572206973206E6F7420746865206F776E6572 PUSH1 0x0 DUP3 ADD MSTORE POP JUMP JUMPDEST PUSH1 0x0 PUSH2 0x40A8 PUSH1 0x20 DUP4 PUSH2 0x1B91 JUMP JUMPDEST SWAP2 POP PUSH2 0x40B3 DUP3 PUSH2 0x4072 JUMP JUMPDEST PUSH1 0x20 DUP3 ADD SWAP1 POP SWAP2 SWAP1 POP JUMP JUMPDEST PUSH1 0x0 PUSH1 0x20 DUP3 ADD SWAP1 POP DUP2 DUP2 SUB PUSH1 0x0 DUP4 ADD MSTORE PUSH2 0x40D7 DUP2 PUSH2 0x409B JUMP JUMPDEST SWAP1 POP SWAP2 SWAP1 POP JUMP JUMPDEST PUSH1 0x0 DUP2 MLOAD SWAP1 POP SWAP2 SWAP1 POP JUMP JUMPDEST PUSH1 0x0 DUP3 DUP3 MSTORE PUSH1 0x20 DUP3 ADD SWAP1 POP SWAP3 SWAP2 POP POP JUMP JUMPDEST PUSH1 0x0 PUSH2 0x4105 DUP3 PUSH2 0x40DE JUMP JUMPDEST PUSH2 0x410F DUP2 DUP6 PUSH2 0x40E9 JUMP JUMPDEST SWAP4 POP PUSH2 0x411F DUP2 DUP6 PUSH1 0x20 DUP7 ADD PUSH2 0x1BA2 JUMP JUMPDEST PUSH2 0x4128 DUP2 PUSH2 0x1BCC JUMP JUMPDEST DUP5 ADD SWAP2 POP POP SWAP3 SWAP2 POP POP JUMP JUMPDEST PUSH1 0x0 PUSH1 0x80 DUP3 ADD SWAP1 POP PUSH2 0x4148 PUSH1 0x0 DUP4 ADD DUP8 PUSH2 0x1CCD JUMP JUMPDEST PUSH2 0x4155 PUSH1 0x20 DUP4 ADD DUP7 PUSH2 0x1CCD JUMP JUMPDEST PUSH2 0x4162 PUSH1 0x40 DUP4 ADD DUP6 PUSH2 0x1D63 JUMP JUMPDEST DUP2 DUP2 SUB PUSH1 0x60 DUP4 ADD MSTORE PUSH2 0x4174 DUP2 DUP5 PUSH2 0x40FA JUMP JUMPDEST SWAP1 POP SWAP6 SWAP5 POP POP POP POP POP JUMP JUMPDEST PUSH1 0x0 DUP2 MLOAD SWAP1 POP PUSH2 0x418E DUP2 PUSH2 0x1AF7 JUMP JUMPDEST SWAP3 SWAP2 POP POP JUMP JUMPDEST PUSH1 0x0 PUSH1 0x20 DUP3 DUP5 SUB SLT ISZERO PUSH2 0x41AA JUMPI PUSH2 0x41A9 PUSH2 0x1AC1 JUMP JUMPDEST JUMPDEST PUSH1 0x0 PUSH2 0x41B8 DUP5 DUP3 DUP6 ADD PUSH2 0x417F JUMP JUMPDEST SWAP2 POP POP SWAP3 SWAP2 POP POP JUMP JUMPDEST PUSH1 0x0 PUSH2 0x41CC DUP3 PUSH2 0x1C38 JUMP JUMPDEST SWAP2 POP PUSH2 0x41D7 DUP4 PUSH2 0x1C38 JUMP JUMPDEST SWAP3 POP DUP3 PUSH2 0x41E7 JUMPI PUSH2 0x41E6 PUSH2 0x36DF JUMP JUMPDEST JUMPDEST DUP3 DUP3 DIV SWAP1 POP SWAP3 SWAP2 POP POP JUMP JUMPDEST PUSH1 0x0 PUSH2 0x41FD DUP3 PUSH2 0x1C38 JUMP JUMPDEST SWAP2 POP PUSH2 0x4208 DUP4 PUSH2 0x1C38 JUMP JUMPDEST SWAP3 POP DUP3 DUP3 MUL PUSH2 0x4216 DUP2 PUSH2 0x1C38 JUMP JUMPDEST SWAP2 POP DUP3 DUP3 DIV DUP5 EQ DUP4 ISZERO OR PUSH2 0x422D JUMPI PUSH2 0x422C PUSH2 0x373F JUMP JUMPDEST JUMPDEST POP SWAP3 SWAP2 POP POP JUMP INVALID COINBASE TIMESTAMP NUMBER PREVRANDAO GASLIMIT CHAINID SELFBALANCE BASEFEE 0x49 0x4A 0x4B 0x4C 0x4D 0x4E 0x4F POP MLOAD MSTORE MSTORE8 SLOAD SSTORE JUMP JUMPI PC MSIZE GAS PUSH2 0x6263 PUSH5 0x6566676869 PUSH11 0x6B6C6D6E6F707172737475 PUSH23 0x7778797A303132333435363738392B2FA2646970667358 0x22 SLT KECCAK256 RETURNDATASIZE PUSH32 0x5F70BD56A63CCF8D8156BAA4DDFA34772E3C5EA656813F0AECD81127BDE56473 PUSH16 0x6C634300081200330000000000000000 "
		},
		"gasEstimates": {
			"creation": {
				"codeDepositCost": "3413200",
				"executionCost": "infinite",
				"totalCost": "infinite"
			},
			"external": {
				"approve(address,uint256)": "infinite",
				"balanceOf(address)": "2905",
				"changeAllColors()": "infinite",
				"changeColor(uint256,uint256[3])": "infinite",
				"changeCounter()": "2451",
				"getApproved(uint256)": "7389",
				"getCurrentStyles()": "infinite",
				"isApprovedForAll(address,address)": "infinite",
				"mintOne()": "73429",
				"name()": "infinite",
				"owner()": "2611",
				"ownerOf(uint256)": "infinite",
				"renderSvg(string)": "infinite",
				"renounceOwnership()": "30443",
				"safeTransferFrom(address,address,uint256)": "infinite",
				"safeTransferFrom(address,address,uint256,bytes)": "infinite",
				"setApprovalForAll(address,bool)": "infinite",
				"supportsInterface(bytes4)": "745",
				"symbol()": "infinite",
				"tokenURI(uint256)": "infinite",
				"totalSupply()": "4718",
				"transferFrom(address,address,uint256)": "infinite",
				"transferOwnership(address)": "30876",
				"withdraw()": "infinite"
			},
			"internal": {
				"_startTokenId()": "23"
			}
		},
		"methodIdentifiers": {
			"approve(address,uint256)": "095ea7b3",
			"balanceOf(address)": "70a08231",
			"changeAllColors()": "4310e42e",
			"changeColor(uint256,uint256[3])": "b67756ed",
			"changeCounter()": "aaf4389a",
			"getApproved(uint256)": "081812fc",
			"getCurrentStyles()": "7708b2d9",
			"isApprovedForAll(address,address)": "e985e9c5",
			"mintOne()": "0ced8637",
			"name()": "06fdde03",
			"owner()": "8da5cb5b",
			"ownerOf(uint256)": "6352211e",
			"renderSvg(string)": "32783e5b",
			"renounceOwnership()": "715018a6",
			"safeTransferFrom(address,address,uint256)": "42842e0e",
			"safeTransferFrom(address,address,uint256,bytes)": "b88d4fde",
			"setApprovalForAll(address,bool)": "a22cb465",
			"supportsInterface(bytes4)": "01ffc9a7",
			"symbol()": "95d89b41",
			"tokenURI(uint256)": "c87b56dd",
			"totalSupply()": "18160ddd",
			"transferFrom(address,address,uint256)": "23b872dd",
			"transferOwnership(address)": "f2fde38b",
			"withdraw()": "3ccfd60b"
		}
	},
	"abi": [
		{
			"inputs": [],
			"stateMutability": "nonpayable",
			"type": "constructor"
		},
		{
			"inputs": [],
			"name": "ApprovalCallerNotOwnerNorApproved",
			"type": "error"
		},
		{
			"inputs": [],
			"name": "ApprovalQueryForNonexistentToken",
			"type": "error"
		},
		{
			"inputs": [],
			"name": "BalanceQueryForZeroAddress",
			"type": "error"
		},
		{
			"inputs": [],
			"name": "MintERC2309QuantityExceedsLimit",
			"type": "error"
		},
		{
			"inputs": [],
			"name": "MintToZeroAddress",
			"type": "error"
		},
		{
			"inputs": [],
			"name": "MintZeroQuantity",
			"type": "error"
		},
		{
			"inputs": [],
			"name": "OwnerQueryForNonexistentToken",
			"type": "error"
		},
		{
			"inputs": [],
			"name": "OwnershipNotInitializedForExtraData",
			"type": "error"
		},
		{
			"inputs": [],
			"name": "TransferCallerNotOwnerNorApproved",
			"type": "error"
		},
		{
			"inputs": [],
			"name": "TransferFromIncorrectOwner",
			"type": "error"
		},
		{
			"inputs": [],
			"name": "TransferToNonERC721ReceiverImplementer",
			"type": "error"
		},
		{
			"inputs": [],
			"name": "TransferToZeroAddress",
			"type": "error"
		},
		{
			"inputs": [],
			"name": "URIQueryForNonexistentToken",
			"type": "error"
		},
		{
			"anonymous": false,
			"inputs": [
				{
					"indexed": true,
					"internalType": "address",
					"name": "owner",
					"type": "address"
				},
				{
					"indexed": true,
					"internalType": "address",
					"name": "approved",
					"type": "address"
				},
				{
					"indexed": true,
					"internalType": "uint256",
					"name": "tokenId",
					"type": "uint256"
				}
			],
			"name": "Approval",
			"type": "event"
		},
		{
			"anonymous": false,
			"inputs": [
				{
					"indexed": true,
					"internalType": "address",
					"name": "owner",
					"type": "address"
				},
				{
					"indexed": true,
					"internalType": "address",
					"name": "operator",
					"type": "address"
				},
				{
					"indexed": false,
					"internalType": "bool",
					"name": "approved",
					"type": "bool"
				}
			],
			"name": "ApprovalForAll",
			"type": "event"
		},
		{
			"anonymous": false,
			"inputs": [
				{
					"indexed": true,
					"internalType": "uint256",
					"name": "fromTokenId",
					"type": "uint256"
				},
				{
					"indexed": false,
					"internalType": "uint256",
					"name": "toTokenId",
					"type": "uint256"
				},
				{
					"indexed": true,
					"internalType": "address",
					"name": "from",
					"type": "address"
				},
				{
					"indexed": true,
					"internalType": "address",
					"name": "to",
					"type": "address"
				}
			],
			"name": "ConsecutiveTransfer",
			"type": "event"
		},
		{
			"anonymous": false,
			"inputs": [
				{
					"indexed": true,
					"internalType": "address",
					"name": "previousOwner",
					"type": "address"
				},
				{
					"indexed": true,
					"internalType": "address",
					"name": "newOwner",
					"type": "address"
				}
			],
			"name": "OwnershipTransferred",
			"type": "event"
		},
		{
			"anonymous": false,
			"inputs": [
				{
					"indexed": true,
					"internalType": "address",
					"name": "from",
					"type": "address"
				},
				{
					"indexed": true,
					"internalType": "address",
					"name": "to",
					"type": "address"
				},
				{
					"indexed": true,
					"internalType": "uint256",
					"name": "tokenId",
					"type": "uint256"
				}
			],
			"name": "Transfer",
			"type": "event"
		},
		{
			"inputs": [
				{
					"internalType": "address",
					"name": "to",
					"type": "address"
				},
				{
					"internalType": "uint256",
					"name": "tokenId",
					"type": "uint256"
				}
			],
			"name": "approve",
			"outputs": [],
			"stateMutability": "payable",
			"type": "function"
		},
		{
			"inputs": [
				{
					"internalType": "address",
					"name": "owner",
					"type": "address"
				}
			],
			"name": "balanceOf",
			"outputs": [
				{
					"internalType": "uint256",
					"name": "",
					"type": "uint256"
				}
			],
			"stateMutability": "view",
			"type": "function"
		},
		{
			"inputs": [],
			"name": "changeAllColors",
			"outputs": [],
			"stateMutability": "nonpayable",
			"type": "function"
		},
		{
			"inputs": [
				{
					"internalType": "uint256",
					"name": "position",
					"type": "uint256"
				},
				{
					"internalType": "uint256[3]",
					"name": "rgbColors",
					"type": "uint256[3]"
				}
			],
			"name": "changeColor",
			"outputs": [],
			"stateMutability": "nonpayable",
			"type": "function"
		},
		{
			"inputs": [],
			"name": "changeCounter",
			"outputs": [
				{
					"internalType": "uint256",
					"name": "",
					"type": "uint256"
				}
			],
			"stateMutability": "view",
			"type": "function"
		},
		{
			"inputs": [
				{
					"internalType": "uint256",
					"name": "tokenId",
					"type": "uint256"
				}
			],
			"name": "getApproved",
			"outputs": [
				{
					"internalType": "address",
					"name": "",
					"type": "address"
				}
			],
			"stateMutability": "view",
			"type": "function"
		},
		{
			"inputs": [],
			"name": "getCurrentStyles",
			"outputs": [
				{
					"internalType": "string",
					"name": "styles",
					"type": "string"
				}
			],
			"stateMutability": "view",
			"type": "function"
		},
		{
			"inputs": [
				{
					"internalType": "address",
					"name": "owner",
					"type": "address"
				},
				{
					"internalType": "address",
					"name": "operator",
					"type": "address"
				}
			],
			"name": "isApprovedForAll",
			"outputs": [
				{
					"internalType": "bool",
					"name": "",
					"type": "bool"
				}
			],
			"stateMutability": "view",
			"type": "function"
		},
		{
			"inputs": [],
			"name": "mintOne",
			"outputs": [],
			"stateMutability": "nonpayable",
			"type": "function"
		},
		{
			"inputs": [],
			"name": "name",
			"outputs": [
				{
					"internalType": "string",
					"name": "",
					"type": "string"
				}
			],
			"stateMutability": "view",
			"type": "function"
		},
		{
			"inputs": [],
			"name": "owner",
			"outputs": [
				{
					"internalType": "address",
					"name": "",
					"type": "address"
				}
			],
			"stateMutability": "view",
			"type": "function"
		},
		{
			"inputs": [
				{
					"internalType": "uint256",
					"name": "tokenId",
					"type": "uint256"
				}
			],
			"name": "ownerOf",
			"outputs": [
				{
					"internalType": "address",
					"name": "",
					"type": "address"
				}
			],
			"stateMutability": "view",
			"type": "function"
		},
		{
			"inputs": [
				{
					"internalType": "string",
					"name": "styles",
					"type": "string"
				}
			],
			"name": "renderSvg",
			"outputs": [
				{
					"internalType": "string",
					"name": "",
					"type": "string"
				}
			],
			"stateMutability": "pure",
			"type": "function"
		},
		{
			"inputs": [],
			"name": "renounceOwnership",
			"outputs": [],
			"stateMutability": "nonpayable",
			"type": "function"
		},
		{
			"inputs": [
				{
					"internalType": "address",
					"name": "from",
					"type": "address"
				},
				{
					"internalType": "address",
					"name": "to",
					"type": "address"
				},
				{
					"internalType": "uint256",
					"name": "tokenId",
					"type": "uint256"
				}
			],
			"name": "safeTransferFrom",
			"outputs": [],
			"stateMutability": "payable",
			"type": "function"
		},
		{
			"inputs": [
				{
					"internalType": "address",
					"name": "from",
					"type": "address"
				},
				{
					"internalType": "address",
					"name": "to",
					"type": "address"
				},
				{
					"internalType": "uint256",
					"name": "tokenId",
					"type": "uint256"
				},
				{
					"internalType": "bytes",
					"name": "_data",
					"type": "bytes"
				}
			],
			"name": "safeTransferFrom",
			"outputs": [],
			"stateMutability": "payable",
			"type": "function"
		},
		{
			"inputs": [
				{
					"internalType": "address",
					"name": "operator",
					"type": "address"
				},
				{
					"internalType": "bool",
					"name": "approved",
					"type": "bool"
				}
			],
			"name": "setApprovalForAll",
			"outputs": [],
			"stateMutability": "nonpayable",
			"type": "function"
		},
		{
			"inputs": [
				{
					"internalType": "bytes4",
					"name": "interfaceId",
					"type": "bytes4"
				}
			],
			"name": "supportsInterface",
			"outputs": [
				{
					"internalType": "bool",
					"name": "",
					"type": "bool"
				}
			],
			"stateMutability": "view",
			"type": "function"
		},
		{
			"inputs": [],
			"name": "symbol",
			"outputs": [
				{
					"internalType": "string",
					"name": "",
					"type": "string"
				}
			],
			"stateMutability": "view",
			"type": "function"
		},
		{
			"inputs": [
				{
					"internalType": "uint256",
					"name": "tokenId",
					"type": "uint256"
				}
			],
			"name": "tokenURI",
			"outputs": [
				{
					"internalType": "string",
					"name": "result",
					"type": "string"
				}
			],
			"stateMutability": "view",
			"type": "function"
		},
		{
			"inputs": [],
			"name": "totalSupply",
			"outputs": [
				{
					"internalType": "uint256",
					"name": "",
					"type": "uint256"
				}
			],
			"stateMutability": "view",
			"type": "function"
		},
		{
			"inputs": [
				{
					"internalType": "address",
					"name": "from",
					"type": "address"
				},
				{
					"internalType": "address",
					"name": "to",
					"type": "address"
				},
				{
					"internalType": "uint256",
					"name": "tokenId",
					"type": "uint256"
				}
			],
			"name": "transferFrom",
			"outputs": [],
			"stateMutability": "payable",
			"type": "function"
		},
		{
			"inputs": [
				{
					"internalType": "address",
					"name": "newOwner",
					"type": "address"
				}
			],
			"name": "transferOwnership",
			"outputs": [],
			"stateMutability": "nonpayable",
			"type": "function"
		},
		{
			"inputs": [],
			"name": "withdraw",
			"outputs": [],
			"stateMutability": "nonpayable",
			"type": "function"
		}
	]
}