{
	"data": {
		"bytecode": {
			"linkReferences": {},
			"object": "608060405260006025556000602855739d83e140330758a8ffd07f8bd73e86ebca8a5692602a60006101000a81548173ffffffffffffffffffffffffffffffffffffffff021916908373ffffffffffffffffffffffffffffffffffffffff160217905550602a60009054906101000a900473ffffffffffffffffffffffffffffffffffffffff16602b60006101000a81548173ffffffffffffffffffffffffffffffffffffffff021916908373ffffffffffffffffffffffffffffffffffffffff16021790555073d8b934580fce35a11b58c6d73adee468a2833fa8602c60006101000a81548173ffffffffffffffffffffffffffffffffffffffff021916908373ffffffffffffffffffffffffffffffffffffffff160217905550602c60009054906101000a900473ffffffffffffffffffffffffffffffffffffffff16602d60006101000a81548173ffffffffffffffffffffffffffffffffffffffff021916908373ffffffffffffffffffffffffffffffffffffffff1602179055503480156200018b57600080fd5b506040518060400160405280600d81526020017f55494e54532045444954494f4e000000000000000000000000000000000000008152506040518060400160405280600281526020017f554500000000000000000000000000000000000000000000000000000000000081525081600290816200020991906200068c565b5080600390816200021b91906200068c565b506200022c6200026a60201b60201c565b600081905550505062000254620002486200027360201b60201c565b6200027b60201b60201c565b620002646200034160201b60201c565b6200081e565b60006001905090565b600033905090565b6000600860009054906101000a900473ffffffffffffffffffffffffffffffffffffffff16905081600860006101000a81548173ffffffffffffffffffffffffffffffffffffffff021916908373ffffffffffffffffffffffffffffffffffffffff1602179055508173ffffffffffffffffffffffffffffffffffffffff168173ffffffffffffffffffffffffffffffffffffffff167f8be0079c531659141344cd1fd0a4f28419497f9722a3daafe3b4186f6b6457e060405160405180910390a35050565b6000604051806060016040528060ff815260200160ff815260200160ff815250905060005b6009811015620003975762000381826200039b60201b60201c565b80806200038e90620007a2565b91505062000366565b5050565b80600960245460098110620003b557620003b4620007ef565b5b6003020160008201518160000155602082015181600101556040820151816002015590505060086024541015620004065760246000815480929190620003fb90620007a2565b91905055506200040f565b60006024819055505b50565b600081519050919050565b7f4e487b7100000000000000000000000000000000000000000000000000000000600052604160045260246000fd5b7f4e487b7100000000000000000000000000000000000000000000000000000000600052602260045260246000fd5b600060028204905060018216806200049457607f821691505b602082108103620004aa57620004a96200044c565b5b50919050565b60008190508160005260206000209050919050565b60006020601f8301049050919050565b600082821b905092915050565b600060088302620005147fffffffffffffffffffffffffffffffffffffffffffffffffffffffffffffffff82620004d5565b620005208683620004d5565b95508019841693508086168417925050509392505050565b6000819050919050565b6000819050919050565b60006200056d62000567620005618462000538565b62000542565b62000538565b9050919050565b6000819050919050565b62000589836200054c565b620005a1620005988262000574565b848454620004e2565b825550505050565b600090565b620005b8620005a9565b620005c58184846200057e565b505050565b5b81811015620005ed57620005e1600082620005ae565b600181019050620005cb565b5050565b601f8211156200063c576200060681620004b0565b6200061184620004c5565b8101602085101562000621578190505b620006396200063085620004c5565b830182620005ca565b50505b505050565b600082821c905092915050565b6000620006616000198460080262000641565b1980831691505092915050565b60006200067c83836200064e565b9150826002028217905092915050565b620006978262000412565b67ffffffffffffffff811115620006b357620006b26200041d565b5b620006bf82546200047b565b620006cc828285620005f1565b600060209050601f831160018114620007045760008415620006ef578287015190505b620006fb85826200066e565b8655506200076b565b601f1984166200071486620004b0565b60005b828110156200073e5784890151825560018201915060208501945060208101905062000717565b868310156200075e57848901516200075a601f8916826200064e565b8355505b6001600288020188555050505b505050505050565b7f4e487b7100000000000000000000000000000000000000000000000000000000600052601160045260246000fd5b6000620007af8262000538565b91507fffffffffffffffffffffffffffffffffffffffffffffffffffffffffffffffff8203620007e457620007e362000773565b5b600182019050919050565b7f4e487b7100000000000000000000000000000000000000000000000000000000600052603260045260246000fd5b615b37806200082e6000396000f3fe6080604052600436106101c25760003560e01c80636352211e116100f7578063b88d4fde11610095578063e985e9c511610064578063e985e9c5146105ef578063f2fde38b1461062c578063f3cfeb0714610655578063f9ccdb4014610680576101c2565b8063b88d4fde14610540578063c87b56dd1461055c578063ce0617ec14610599578063dac2e804146105c4576101c2565b80638da5cb5b116100d15780638da5cb5b1461049857806395d89b41146104c3578063a0712d68146104ee578063a22cb46514610517576101c2565b80636352211e1461040757806370a0823114610444578063715018a614610481576101c2565b806318160ddd116101645780633ccfd60b1161013e5780633ccfd60b1461036c57806342842e0e1461038357806344095c5f1461039f5780634ca6d96e146103ca576101c2565b806318160ddd1461030e57806323b872dd146103395780632be0956114610355576101c2565b806305cbeaa0116101a057806305cbeaa01461026e57806306fdde031461028a578063081812fc146102b5578063095ea7b3146102f2576101c2565b806301ffc9a7146101c757806303a1d34214610204578063057e308714610243575b600080fd5b3480156101d357600080fd5b506101ee60048036038101906101e99190612bef565b6106ab565b6040516101fb9190612c37565b60405180910390f35b34801561021057600080fd5b5061022b60048036038101906102269190612c88565b61073d565b60405161023a93929190612cc4565b60405180910390f35b34801561024f57600080fd5b5061025861076d565b6040516102659190612cfb565b60405180910390f35b61028860048036038101906102839190612e0b565b610773565b005b34801561029657600080fd5b5061029f610b3d565b6040516102ac9190612edd565b60405180910390f35b3480156102c157600080fd5b506102dc60048036038101906102d79190612c88565b610bcf565b6040516102e99190612f40565b60405180910390f35b61030c60048036038101906103079190612f87565b610c4e565b005b34801561031a57600080fd5b50610323610d92565b6040516103309190612cfb565b60405180910390f35b610353600480360381019061034e9190612fc7565b610da9565b005b34801561036157600080fd5b5061036a6110cb565b005b34801561037857600080fd5b506103816110ea565b005b61039d60048036038101906103989190612fc7565b611132565b005b3480156103ab57600080fd5b506103b4611152565b6040516103c19190612cfb565b60405180910390f35b3480156103d657600080fd5b506103f160048036038101906103ec9190612c88565b611158565b6040516103fe9190612cfb565b60405180910390f35b34801561041357600080fd5b5061042e60048036038101906104299190612c88565b6111fd565b60405161043b9190612f40565b60405180910390f35b34801561045057600080fd5b5061046b6004803603810190610466919061301a565b61120f565b6040516104789190612cfb565b60405180910390f35b34801561048d57600080fd5b506104966112c7565b005b3480156104a457600080fd5b506104ad6112db565b6040516104ba9190612f40565b60405180910390f35b3480156104cf57600080fd5b506104d8611305565b6040516104e59190612edd565b60405180910390f35b3480156104fa57600080fd5b5061051560048036038101906105109190612c88565b611397565b005b34801561052357600080fd5b5061053e60048036038101906105399190613073565b6113e9565b005b61055a6004803603810190610555919061316d565b6114f4565b005b34801561056857600080fd5b50610583600480360381019061057e9190612c88565b611567565b6040516105909190612edd565b60405180910390f35b3480156105a557600080fd5b506105ae6115d6565b6040516105bb9190612cfb565b60405180910390f35b3480156105d057600080fd5b506105d96115dc565b6040516105e69190612cfb565b60405180910390f35b3480156105fb57600080fd5b50610616600480360381019061061191906131f0565b6115e2565b6040516106239190612c37565b60405180910390f35b34801561063857600080fd5b50610653600480360381019061064e919061301a565b611676565b005b34801561066157600080fd5b5061066a6116f9565b6040516106779190612cfb565b60405180910390f35b34801561068c57600080fd5b5061069561172d565b6040516106a29190612cfb565b60405180910390f35b60006301ffc9a760e01b827bffffffffffffffffffffffffffffffffffffffffffffffffffffffff1916148061070657506380ac58cd60e01b827bffffffffffffffffffffffffffffffffffffffffffffffffffffffff1916145b806107365750635b5e139f60e01b827bffffffffffffffffffffffffffffffffffffffffffffffffffffffff1916145b9050919050565b6009816009811061074d57600080fd5b600302016000915090508060000154908060010154908060020154905083565b60275481565b600061077e83611755565b905060285442116107c4576040517f08c379a00000000000000000000000000000000000000000000000000000000081526004016107bb906132a2565b60405180910390fd5b6107cd836117fa565b73ffffffffffffffffffffffffffffffffffffffff163373ffffffffffffffffffffffffffffffffffffffff161461083a576040517f08c379a000000000000000000000000000000000000000000000000000000000815260040161083190613334565b60405180910390fd5b600115156029600085815260200190815260200160002060009054906101000a900460ff161515036108a1576040517f08c379a0000000000000000000000000000000000000000000000000000000008152600401610898906133c6565b60405180910390fd5b808411156108e4576040517f08c379a00000000000000000000000000000000000000000000000000000000081526004016108db90613458565b60405180910390fd5b60098111610927576040517f08c379a000000000000000000000000000000000000000000000000000000000815260040161091e906134ea565b60405180910390fd5b6001841015801561093a575061270f8411155b610979576040517f08c379a00000000000000000000000000000000000000000000000000000000081526004016109709061357c565b60405180910390fd5b4260265411156109be576040517f08c379a00000000000000000000000000000000000000000000000000000000081526004016109b5906135e8565b60405180910390fd5b6109c78261189f565b610a06576040517f08c379a00000000000000000000000000000000000000000000000000000000081526004016109fd90613654565b60405180910390fd5b83602581905550610a1682611923565b6000600c82610a2591906136a3565b90508042610a3391906136e5565b60268190555060276000815480929190610a4c90613719565b919050555060016029600086815260200190815260200160002060006101000a81548160ff021916908315150217905550602d60009054906101000a900473ffffffffffffffffffffffffffffffffffffffff1673ffffffffffffffffffffffffffffffffffffffff166390eaefc060275442603c85610acc9190613790565b88338b8a600001518b602001518c60400151346040518b63ffffffff1660e01b8152600401610b049a999897969594939291906137c1565b600060405180830381600087803b158015610b1e57600080fd5b505af1158015610b32573d6000803e3d6000fd5b505050505050505050565b606060028054610b4c9061388c565b80601f0160208091040260200160405190810160405280929190818152602001828054610b789061388c565b8015610bc55780601f10610b9a57610100808354040283529160200191610bc5565b820191906000526020600020905b815481529060010190602001808311610ba857829003601f168201915b5050505050905090565b6000610bda82611993565b610c10576040517fcf4700e400000000000000000000000000000000000000000000000000000000815260040160405180910390fd5b6006600083815260200190815260200160002060000160009054906101000a900473ffffffffffffffffffffffffffffffffffffffff169050919050565b6000610c59826111fd565b90508073ffffffffffffffffffffffffffffffffffffffff16610c7a6119f2565b73ffffffffffffffffffffffffffffffffffffffff1614610cdd57610ca681610ca16119f2565b6115e2565b610cdc576040517fcfb3b94200000000000000000000000000000000000000000000000000000000815260040160405180910390fd5b5b826006600084815260200190815260200160002060000160006101000a81548173ffffffffffffffffffffffffffffffffffffffff021916908373ffffffffffffffffffffffffffffffffffffffff160217905550818373ffffffffffffffffffffffffffffffffffffffff168273ffffffffffffffffffffffffffffffffffffffff167f8c5be1e5ebec7d5bd14f71427d1e84f3dd0314c0f7b2291e5b200ac8c7c3b92560405160405180910390a4505050565b6000610d9c6119fa565b6001546000540303905090565b6000610db482611a03565b90508373ffffffffffffffffffffffffffffffffffffffff168173ffffffffffffffffffffffffffffffffffffffff1614610e1b576040517fa114810000000000000000000000000000000000000000000000000000000000815260040160405180910390fd5b600080610e2784611acf565b91509150610e3d8187610e386119f2565b611af6565b610e8957610e5286610e4d6119f2565b6115e2565b610e88576040517f59c896be00000000000000000000000000000000000000000000000000000000815260040160405180910390fd5b5b600073ffffffffffffffffffffffffffffffffffffffff168573ffffffffffffffffffffffffffffffffffffffff1603610eef576040517fea553b3400000000000000000000000000000000000000000000000000000000815260040160405180910390fd5b610efc8686866001611b3a565b8015610f0757600082555b600560008773ffffffffffffffffffffffffffffffffffffffff1673ffffffffffffffffffffffffffffffffffffffff168152602001908152602001600020600081546001900391905081905550600560008673ffffffffffffffffffffffffffffffffffffffff1673ffffffffffffffffffffffffffffffffffffffff1681526020019081526020016000206000815460010191905081905550610fd585610fb1888887611b40565b7c020000000000000000000000000000000000000000000000000000000017611b68565b600460008681526020019081526020016000208190555060007c020000000000000000000000000000000000000000000000000000000084160361105b5760006001850190506000600460008381526020019081526020016000205403611059576000548114611058578360046000838152602001908152602001600020819055505b5b505b838573ffffffffffffffffffffffffffffffffffffffff168773ffffffffffffffffffffffffffffffffffffffff167fddf252ad1be2c89b69c2b068fc378daa952ba7f163c4a11628f55a4df523b3ef60405160405180910390a46110c38686866001611b93565b505050505050565b6110d3611b99565b62015180426110e291906136e5565b602881905550565b6110f2611b99565b3373ffffffffffffffffffffffffffffffffffffffff166108fc479081150290604051600060405180830381858888f1935050505061113057600080fd5b565b61114d838383604051806020016040528060008152506114f4565b505050565b60255481565b6000602b60009054906101000a900473ffffffffffffffffffffffffffffffffffffffff1673ffffffffffffffffffffffffffffffffffffffff1663a88d3601836040518263ffffffff1660e01b81526004016111b59190612cfb565b602060405180830381865afa1580156111d2573d6000803e3d6000fd5b505050506040513d601f19601f820116820180604052508101906111f691906138d2565b9050919050565b600061120882611a03565b9050919050565b60008073ffffffffffffffffffffffffffffffffffffffff168273ffffffffffffffffffffffffffffffffffffffff1603611276576040517f8f4eb60400000000000000000000000000000000000000000000000000000000815260040160405180910390fd5b67ffffffffffffffff600560008473ffffffffffffffffffffffffffffffffffffffff1673ffffffffffffffffffffffffffffffffffffffff16815260200190815260200160002054169050919050565b6112cf611b99565b6112d96000611c17565b565b6000600860009054906101000a900473ffffffffffffffffffffffffffffffffffffffff16905090565b6060600380546113149061388c565b80601f01602080910402602001604051908101604052809291908181526020018280546113409061388c565b801561138d5780601f106113625761010080835404028352916020019161138d565b820191906000526020600020905b81548152906001019060200180831161137057829003601f168201915b5050505050905090565b6028544211156113dc576040517f08c379a00000000000000000000000000000000000000000000000000000000081526004016113d39061394b565b60405180910390fd5b6113e63382611cdd565b50565b80600760006113f66119f2565b73ffffffffffffffffffffffffffffffffffffffff1673ffffffffffffffffffffffffffffffffffffffff16815260200190815260200160002060008473ffffffffffffffffffffffffffffffffffffffff1673ffffffffffffffffffffffffffffffffffffffff16815260200190815260200160002060006101000a81548160ff0219169083151502179055508173ffffffffffffffffffffffffffffffffffffffff166114a36119f2565b73ffffffffffffffffffffffffffffffffffffffff167f17307eab39ab6107e8899845ad3d59bd9653f200f220920489ca2b5937696c31836040516114e89190612c37565b60405180910390a35050565b6114ff848484610da9565b60008373ffffffffffffffffffffffffffffffffffffffff163b146115615761152a84848484611e98565b611560576040517fd1a57ed600000000000000000000000000000000000000000000000000000000815260040160405180910390fd5b5b50505050565b6060600061157483611fe8565b61158461157f612038565b6121c5565b604051602001611595929190613b23565b60405160208183030381529060405290506115af816121c5565b6040516020016115bf9190613bb4565b604051602081830303815290604052915050919050565b60265481565b60285481565b6000600760008473ffffffffffffffffffffffffffffffffffffffff1673ffffffffffffffffffffffffffffffffffffffff16815260200190815260200160002060008373ffffffffffffffffffffffffffffffffffffffff1673ffffffffffffffffffffffffffffffffffffffff16815260200190815260200160002060009054906101000a900460ff16905092915050565b61167e611b99565b600073ffffffffffffffffffffffffffffffffffffffff168173ffffffffffffffffffffffffffffffffffffffff16036116ed576040517f08c379a00000000000000000000000000000000000000000000000000000000081526004016116e490613c48565b60405180910390fd5b6116f681611c17565b50565b6000602654421161172557603c426026546117149190613c68565b61171e9190613790565b905061172a565b600090505b90565b6000602654421161174d57426026546117469190613c68565b9050611752565b600090505b90565b6000602b60009054906101000a900473ffffffffffffffffffffffffffffffffffffffff1673ffffffffffffffffffffffffffffffffffffffff16630ff4c916836040518263ffffffff1660e01b81526004016117b29190612cfb565b602060405180830381865afa1580156117cf573d6000803e3d6000fd5b505050506040513d601f19601f820116820180604052508101906117f391906138d2565b9050919050565b6000602b60009054906101000a900473ffffffffffffffffffffffffffffffffffffffff1673ffffffffffffffffffffffffffffffffffffffff16636352211e836040518263ffffffff1660e01b81526004016118579190612cfb565b602060405180830381865afa158015611874573d6000803e3d6000fd5b505050506040513d601f19601f820116820180604052508101906118989190613cb1565b9050919050565b600060ff8260000151036118b657600190506118de565b60ff8260200151036118cb57600190506118dd565b60ff8260400151036118dc57600190505b5b5b60ff826000015111156118f4576000905061191e565b60ff8260200151111561190a576000905061191d565b60ff8260400151111561191c57600090505b5b5b919050565b8060096024546009811061193a57611939613cde565b5b6003020160008201518160000155602082015181600101556040820151816002015590505060086024541015611987576024600081548092919061197d90613719565b9190505550611990565b60006024819055505b50565b60008161199e6119fa565b111580156119ad575060005482105b80156119eb575060007c0100000000000000000000000000000000000000000000000000000000600460008581526020019081526020016000205416145b9050919050565b600033905090565b60006001905090565b60008082905080611a126119fa565b11611a9857600054811015611a975760006004600083815260200190815260200160002054905060007c0100000000000000000000000000000000000000000000000000000000821603611a95575b60008103611a8b576004600083600190039350838152602001908152602001600020549050611a61565b8092505050611aca565b505b5b6040517fdf2d9b4200000000000000000000000000000000000000000000000000000000815260040160405180910390fd5b919050565b60008060006006600085815260200190815260200160002090508092508254915050915091565b600073ffffffffffffffffffffffffffffffffffffffff8316925073ffffffffffffffffffffffffffffffffffffffff821691508382148383141790509392505050565b50505050565b60008060e883901c905060e8611b57868684612328565b62ffffff16901b9150509392505050565b600073ffffffffffffffffffffffffffffffffffffffff83169250814260a01b178317905092915050565b50505050565b611ba1612331565b73ffffffffffffffffffffffffffffffffffffffff16611bbf6112db565b73ffffffffffffffffffffffffffffffffffffffff1614611c15576040517f08c379a0000000000000000000000000000000000000000000000000000000008152600401611c0c90613d59565b60405180910390fd5b565b6000600860009054906101000a900473ffffffffffffffffffffffffffffffffffffffff16905081600860006101000a81548173ffffffffffffffffffffffffffffffffffffffff021916908373ffffffffffffffffffffffffffffffffffffffff1602179055508173ffffffffffffffffffffffffffffffffffffffff168173ffffffffffffffffffffffffffffffffffffffff167f8be0079c531659141344cd1fd0a4f28419497f9722a3daafe3b4186f6b6457e060405160405180910390a35050565b60008054905060008203611d1d576040517fb562e8dd00000000000000000000000000000000000000000000000000000000815260040160405180910390fd5b611d2a6000848385611b3a565b600160406001901b178202600560008573ffffffffffffffffffffffffffffffffffffffff1673ffffffffffffffffffffffffffffffffffffffff16815260200190815260200160002060008282540192505081905550611da183611d926000866000611b40565b611d9b85612339565b17611b68565b6004600083815260200190815260200160002081905550600080838301905073ffffffffffffffffffffffffffffffffffffffff85169150828260007fddf252ad1be2c89b69c2b068fc378daa952ba7f163c4a11628f55a4df523b3ef600080a4600183015b818114611e4257808360007fddf252ad1be2c89b69c2b068fc378daa952ba7f163c4a11628f55a4df523b3ef600080a4600181019050611e07565b5060008203611e7d576040517f2e07630000000000000000000000000000000000000000000000000000000000815260040160405180910390fd5b806000819055505050611e936000848385611b93565b505050565b60008373ffffffffffffffffffffffffffffffffffffffff1663150b7a02611ebe6119f2565b8786866040518563ffffffff1660e01b8152600401611ee09493929190613dce565b6020604051808303816000875af1925050508015611f1c57506040513d601f19601f82011682018060405250810190611f199190613e2f565b60015b611f95573d8060008114611f4c576040519150601f19603f3d011682016040523d82523d6000602084013e611f51565b606091505b506000815103611f8d576040517fd1a57ed600000000000000000000000000000000000000000000000000000000815260040160405180910390fd5b805181602001fd5b63150b7a0260e01b7bffffffffffffffffffffffffffffffffffffffffffffffffffffffff1916817bffffffffffffffffffffffffffffffffffffffffffffffffffffffff191614915050949350505050565b606060a060405101806040526020810391506000825281835b60011561202357600184039350600a81066030018453600a8104905080612001575b50828103602084039350808452505050919050565b6060600060405180602001604052806000815250905060005b600981101561211e5760005b600281101561210a578261208b6009846009811061207e5761207d613cde565b5b6003020160000154611fe8565b6120af600985600981106120a2576120a1613cde565b5b6003020160010154611fe8565b6120d3600986600981106120c6576120c5613cde565b5b6003020160020154611fe8565b6040516020016120e69493929190613f40565b6040516020818303038152906040529250808061210290613719565b91505061205d565b50808061211690613719565b915050612051565b5080612145600960006009811061213857612137613cde565b5b6003020160000154611fe8565b61216a600960006009811061215d5761215c613cde565b5b6003020160010154611fe8565b61218f600960006009811061218257612181613cde565b5b6003020160020154611fe8565b6040516020016121a29493929190613f40565b60405160208183030381529060405290506121bf60255482612349565b91505090565b606060008251036121e757604051806020016040528060008152509050612323565b6000604051806060016040528060408152602001615ac2604091399050600060036002855161221691906136e5565b6122209190613790565b600461222c91906136a3565b67ffffffffffffffff81111561224557612244612d2c565b5b6040519080825280601f01601f1916602001820160405280156122775781602001600182028036833780820191505090505b509050600182016020820185865187015b808210156122e3576003820191508151603f8160121c168501518453600184019350603f81600c1c168501518453600184019350603f8160061c168501518453600184019350603f8116850151845360018401935050612288565b50506003865106600181146122ff57600281146123125761231a565b603d6001830353603d600283035361231a565b603d60018303535b50505080925050505b919050565b60009392505050565b600033905090565b60006001821460e11b9050919050565b60606040518061106001604052806110358152602001614a8d6110359139905060006040518060400160405280601f81526020017f222f3e3c2f673e3c7374796c653e2362677b66696c6c3a233043304330437d00815250905060008403156125f25760006123b78561261f565b51905060006123c686836127a7565b90506001820361240757826123e0600383606001516128de565b6040516020016123f1929190613faa565b60405160208183030381529060405292506125ef565b60028203612478578261241f600283604001516128de565b604051602001612430929190613faa565b604051602081830303815290604052925082612451600383606001516128de565b604051602001612462929190613faa565b60405160208183030381529060405292506125ee565b6003820361251b5782612490600183602001516128de565b6040516020016124a1929190613faa565b6040516020818303038152906040529250826124c2600283604001516128de565b6040516020016124d3929190613faa565b6040516020818303038152906040529250826124f4600383606001516128de565b604051602001612505929190613faa565b60405160208183030381529060405292506125ed565b600482036125ec5782612533600083600001516128de565b604051602001612544929190613faa565b604051602081830303815290604052925082612565600183602001516128de565b604051602001612576929190613faa565b604051602081830303815290604052925082612597600283604001516128de565b6040516020016125a8929190613faa565b6040516020818303038152906040529250826125c9600383606001516128de565b6040516020016125da929190613faa565b60405160208183030381529060405292505b5b5b5b50505b8183826040516020016126079392919061401a565b60405160208183030381529060405291505092915050565b606060008203612666576040518060400160405280600181526020017f300000000000000000000000000000000000000000000000000000000000000081525090506127a2565b600082905060005b6000821461269857808061268190613719565b915050600a826126919190613790565b915061266e565b60008167ffffffffffffffff8111156126b4576126b3612d2c565b5b6040519080825280601f01601f1916602001820160405280156126e65781602001600182028036833780820191505090505b50905060008290505b6000861461279a576001816127049190613c68565b90506000600a80886127169190613790565b61272091906136a3565b8761272b9190613c68565b60306127379190614063565b905060008160f81b90508084848151811061275557612754613cde565b5b60200101907effffffffffffffffffffffffffffffffffffffffffffffffffffffffffffff1916908160001a905350600a886127919190613790565b975050506126ef565b819450505050505b919050565b6127af612b5b565b600182036127c657828160600181815250506128d8565b600282036127ff57600a836127db9190613790565b816040018181525050600a836127f19190614098565b8160600181815250506128d7565b6003820361285a576064836128149190613790565b816020018181525050600a60648461282c9190614098565b6128369190613790565b816040018181525050600a8361284c9190614098565b8160600181815250506128d6565b600482036128d5576103e8836128709190613790565b81600001818152505060646103e8846128899190614098565b6128939190613790565b816020018181525050600a6064846128ab9190614098565b6128b59190613790565b816040018181525050600a836128cb9190614098565b8160600181815250505b5b5b5b92915050565b606060006128eb8461261f565b90506000830361292757808182838485604051602001612910969594939291906142dd565b604051602081830303815290604052915050612b55565b60018303612959578081604051602001612942929190614405565b604051602081830303815290604052915050612b55565b6002830361299157808182838460405160200161297a9594939291906144a1565b604051602081830303815290604052915050612b55565b600383036129c95780818283846040516020016129b295949392919061455a565b604051602081830303815290604052915050612b55565b600483036129ff57808182836040516020016129e89493929190614613565b604051602081830303815290604052915050612b55565b60058303612a37578081828384604051602001612a209594939291906146a9565b604051602081830303815290604052915050612b55565b60068303612a7157808182838485604051602001612a5a96959493929190614762565b604051602081830303815290604052915050612b55565b60078303612aa557808182604051602001612a8e9392919061483e565b604051602081830303815290604052915050612b55565b60088303612ae15780818283848586604051602001612aca97969594939291906148b1565b604051602081830303815290604052915050612b55565b60098303612b1b57808182838485604051602001612b04969594939291906149b0565b604051602081830303815290604052915050612b55565b6040518060400160405280600581526020017f6572726f720000000000000000000000000000000000000000000000000000008152509150505b92915050565b6040518060800160405280600081526020016000815260200160008152602001600081525090565b6000604051905090565b600080fd5b600080fd5b60007fffffffff0000000000000000000000000000000000000000000000000000000082169050919050565b612bcc81612b97565b8114612bd757600080fd5b50565b600081359050612be981612bc3565b92915050565b600060208284031215612c0557612c04612b8d565b5b6000612c1384828501612bda565b91505092915050565b60008115159050919050565b612c3181612c1c565b82525050565b6000602082019050612c4c6000830184612c28565b92915050565b6000819050919050565b612c6581612c52565b8114612c7057600080fd5b50565b600081359050612c8281612c5c565b92915050565b600060208284031215612c9e57612c9d612b8d565b5b6000612cac84828501612c73565b91505092915050565b612cbe81612c52565b82525050565b6000606082019050612cd96000830186612cb5565b612ce66020830185612cb5565b612cf36040830184612cb5565b949350505050565b6000602082019050612d106000830184612cb5565b92915050565b600080fd5b6000601f19601f8301169050919050565b7f4e487b7100000000000000000000000000000000000000000000000000000000600052604160045260246000fd5b612d6482612d1b565b810181811067ffffffffffffffff82111715612d8357612d82612d2c565b5b80604052505050565b6000612d96612b83565b9050612da28282612d5b565b919050565b600060608284031215612dbd57612dbc612d16565b5b612dc76060612d8c565b90506000612dd784828501612c73565b6000830152506020612deb84828501612c73565b6020830152506040612dff84828501612c73565b60408301525092915050565b600080600060a08486031215612e2457612e23612b8d565b5b6000612e3286828701612c73565b9350506020612e4386828701612c73565b9250506040612e5486828701612da7565b9150509250925092565b600081519050919050565b600082825260208201905092915050565b60005b83811015612e98578082015181840152602081019050612e7d565b60008484015250505050565b6000612eaf82612e5e565b612eb98185612e69565b9350612ec9818560208601612e7a565b612ed281612d1b565b840191505092915050565b60006020820190508181036000830152612ef78184612ea4565b905092915050565b600073ffffffffffffffffffffffffffffffffffffffff82169050919050565b6000612f2a82612eff565b9050919050565b612f3a81612f1f565b82525050565b6000602082019050612f556000830184612f31565b92915050565b612f6481612f1f565b8114612f6f57600080fd5b50565b600081359050612f8181612f5b565b92915050565b60008060408385031215612f9e57612f9d612b8d565b5b6000612fac85828601612f72565b9250506020612fbd85828601612c73565b9150509250929050565b600080600060608486031215612fe057612fdf612b8d565b5b6000612fee86828701612f72565b9350506020612fff86828701612f72565b925050604061301086828701612c73565b9150509250925092565b6000602082840312156130305761302f612b8d565b5b600061303e84828501612f72565b91505092915050565b61305081612c1c565b811461305b57600080fd5b50565b60008135905061306d81613047565b92915050565b6000806040838503121561308a57613089612b8d565b5b600061309885828601612f72565b92505060206130a98582860161305e565b9150509250929050565b600080fd5b600080fd5b600067ffffffffffffffff8211156130d8576130d7612d2c565b5b6130e182612d1b565b9050602081019050919050565b82818337600083830152505050565b600061311061310b846130bd565b612d8c565b90508281526020810184848401111561312c5761312b6130b8565b5b6131378482856130ee565b509392505050565b600082601f830112613154576131536130b3565b5b81356131648482602086016130fd565b91505092915050565b6000806000806080858703121561318757613186612b8d565b5b600061319587828801612f72565b94505060206131a687828801612f72565b93505060406131b787828801612c73565b925050606085013567ffffffffffffffff8111156131d8576131d7612b92565b5b6131e48782880161313f565b91505092959194509250565b6000806040838503121561320757613206612b8d565b5b600061321585828601612f72565b925050602061322685828601612f72565b9150509250929050565b7f43616e6e6f742062726f61646361737420756e74696c206d696e74206973206360008201527f6c6f736564000000000000000000000000000000000000000000000000000000602082015250565b600061328c602583612e69565b915061329782613230565b604082019050919050565b600060208201905081810360008301526132bb8161327f565b9050919050565b7f4d757374206f776e207468652055494e5453207573656420746f2062726f616460008201527f6361737400000000000000000000000000000000000000000000000000000000602082015250565b600061331e602483612e69565b9150613329826132c2565b604082019050919050565b6000602082019050818103600083015261334d81613311565b9050919050565b7f546869732055494e54532068617320616c7265616479206265656e207573656460008201527f20746f2062726f61646361737400000000000000000000000000000000000000602082015250565b60006133b0602d83612e69565b91506133bb82613354565b604082019050919050565b600060208201905081810360008301526133df816133a3565b9050919050565b7f4e756d626572206d757374206265206c657373207468616e206f72206571756160008201527f6c20746f207468652055494e54532076616c7565000000000000000000000000602082015250565b6000613442603483612e69565b915061344d826133e6565b604082019050919050565b6000602082019050818103600083015261347181613435565b9050919050565b7f55494e5453206d75737420686176652061206e756d626572206772656174657260008201527f207468616e203900000000000000000000000000000000000000000000000000602082015250565b60006134d4602783612e69565b91506134df82613478565b604082019050919050565b60006020820190508181036000830152613503816134c7565b9050919050565b7f42726f616463617374206e756d626572206d757374206265206265747765656e60008201527f203120616e642039393939000000000000000000000000000000000000000000602082015250565b6000613566602b83612e69565b91506135718261350a565b604082019050919050565b6000602082019050818103600083015261359581613559565b9050919050565b7f42726f616463617374696e672069732063757272656e746c79206c6f636b6564600082015250565b60006135d2602083612e69565b91506135dd8261359c565b602082019050919050565b60006020820190508181036000830152613601816135c5565b9050919050565b7f436f6c6f727320617265206e6f742076616c6964000000000000000000000000600082015250565b600061363e601483612e69565b915061364982613608565b602082019050919050565b6000602082019050818103600083015261366d81613631565b9050919050565b7f4e487b7100000000000000000000000000000000000000000000000000000000600052601160045260246000fd5b60006136ae82612c52565b91506136b983612c52565b92508282026136c781612c52565b915082820484148315176136de576136dd613674565b5b5092915050565b60006136f082612c52565b91506136fb83612c52565b925082820190508082111561371357613712613674565b5b92915050565b600061372482612c52565b91507fffffffffffffffffffffffffffffffffffffffffffffffffffffffffffffffff820361375657613755613674565b5b600182019050919050565b7f4e487b7100000000000000000000000000000000000000000000000000000000600052601260045260246000fd5b600061379b82612c52565b91506137a683612c52565b9250826137b6576137b5613761565b5b828204905092915050565b6000610140820190506137d7600083018d612cb5565b6137e4602083018c612cb5565b6137f1604083018b612cb5565b6137fe606083018a612cb5565b61380b6080830189612f31565b61381860a0830188612cb5565b61382560c0830187612cb5565b61383260e0830186612cb5565b613840610100830185612cb5565b61384e610120830184612cb5565b9b9a5050505050505050505050565b7f4e487b7100000000000000000000000000000000000000000000000000000000600052602260045260246000fd5b600060028204905060018216806138a457607f821691505b6020821081036138b7576138b661385d565b5b50919050565b6000815190506138cc81612c5c565b92915050565b6000602082840312156138e8576138e7612b8d565b5b60006138f6848285016138bd565b91505092915050565b7f4d696e7420697320636c6f736564000000000000000000000000000000000000600082015250565b6000613935600e83612e69565b9150613940826138ff565b602082019050919050565b6000602082019050818103600083015261396481613928565b9050919050565b600081905092915050565b7f7b226e616d65223a202255494e54532045646974696f6e200000000000000000600082015250565b60006139ac60188361396b565b91506139b782613976565b601882019050919050565b60006139cd82612e5e565b6139d7818561396b565b93506139e7818560208601612e7a565b80840191505092915050565b7f222c20226465736372697074696f6e223a20224e756d6265727320617265206160008201527f72742c20616e642077652061726520617274697374732e20546865206d65746160208201527f6461746120666f722055494e54532045646974696f6e7320617265207365742060408201527f62792055494e545320686f6c646572732e222c2022696d616765223a2022646160608201527f74613a696d6167652f7376672b786d6c3b6261736536342c0000000000000000608082015250565b6000613ac160988361396b565b9150613acc826139f3565b609882019050919050565b7f227d000000000000000000000000000000000000000000000000000000000000600082015250565b6000613b0d60028361396b565b9150613b1882613ad7565b600282019050919050565b6000613b2e8261399f565b9150613b3a82856139c2565b9150613b4582613ab4565b9150613b5182846139c2565b9150613b5c82613b00565b91508190509392505050565b7f646174613a6170706c69636174696f6e2f6a736f6e3b6261736536342c000000600082015250565b6000613b9e601d8361396b565b9150613ba982613b68565b601d82019050919050565b6000613bbf82613b91565b9150613bcb82846139c2565b915081905092915050565b7f4f776e61626c653a206e6577206f776e657220697320746865207a65726f206160008201527f6464726573730000000000000000000000000000000000000000000000000000602082015250565b6000613c32602683612e69565b9150613c3d82613bd6565b604082019050919050565b60006020820190508181036000830152613c6181613c25565b9050919050565b6000613c7382612c52565b9150613c7e83612c52565b9250828203905081811115613c9657613c95613674565b5b92915050565b600081519050613cab81612f5b565b92915050565b600060208284031215613cc757613cc6612b8d565b5b6000613cd584828501613c9c565b91505092915050565b7f4e487b7100000000000000000000000000000000000000000000000000000000600052603260045260246000fd5b7f4f776e61626c653a2063616c6c6572206973206e6f7420746865206f776e6572600082015250565b6000613d43602083612e69565b9150613d4e82613d0d565b602082019050919050565b60006020820190508181036000830152613d7281613d36565b9050919050565b600081519050919050565b600082825260208201905092915050565b6000613da082613d79565b613daa8185613d84565b9350613dba818560208601612e7a565b613dc381612d1b565b840191505092915050565b6000608082019050613de36000830187612f31565b613df06020830186612f31565b613dfd6040830185612cb5565b8181036060830152613e0f8184613d95565b905095945050505050565b600081519050613e2981612bc3565b92915050565b600060208284031215613e4557613e44612b8d565b5b6000613e5384828501613e1a565b91505092915050565b7f7267622800000000000000000000000000000000000000000000000000000000600082015250565b6000613e9260048361396b565b9150613e9d82613e5c565b600482019050919050565b7f2c00000000000000000000000000000000000000000000000000000000000000600082015250565b6000613ede60018361396b565b9150613ee982613ea8565b600182019050919050565b7f293b000000000000000000000000000000000000000000000000000000000000600082015250565b6000613f2a60028361396b565b9150613f3582613ef4565b600282019050919050565b6000613f4c82876139c2565b9150613f5782613e85565b9150613f6382866139c2565b9150613f6e82613ed1565b9150613f7a82856139c2565b9150613f8582613ed1565b9150613f9182846139c2565b9150613f9c82613f1d565b915081905095945050505050565b6000613fb682856139c2565b9150613fc282846139c2565b91508190509392505050565b7f3c2f7374796c653e3c2f7376673e000000000000000000000000000000000000600082015250565b6000614004600e8361396b565b915061400f82613fce565b600e82019050919050565b600061402682866139c2565b915061403282856139c2565b915061403e82846139c2565b915061404982613ff7565b9150819050949350505050565b600060ff82169050919050565b600061406e82614056565b915061407983614056565b9250828201905060ff81111561409257614091613674565b5b92915050565b60006140a382612c52565b91506140ae83612c52565b9250826140be576140bd613761565b5b828206905092915050565b7f2370000000000000000000000000000000000000000000000000000000000000600082015250565b60006140ff60028361396b565b915061410a826140c9565b600282019050919050565b7f312c000000000000000000000000000000000000000000000000000000000000600082015250565b600061414b60028361396b565b915061415682614115565b600282019050919050565b7f322c000000000000000000000000000000000000000000000000000000000000600082015250565b600061419760028361396b565b91506141a282614161565b600282019050919050565b7f332c000000000000000000000000000000000000000000000000000000000000600082015250565b60006141e360028361396b565b91506141ee826141ad565b600282019050919050565b7f352c000000000000000000000000000000000000000000000000000000000000600082015250565b600061422f60028361396b565b915061423a826141f9565b600282019050919050565b7f362c000000000000000000000000000000000000000000000000000000000000600082015250565b600061427b60028361396b565b915061428682614245565b600282019050919050565b7f37207b66696c6c2d6f7061636974793a317d0000000000000000000000000000600082015250565b60006142c760128361396b565b91506142d282614291565b601282019050919050565b60006142e8826140f2565b91506142f482896139c2565b91506142ff8261413e565b915061430a826140f2565b915061431682886139c2565b91506143218261418a565b915061432c826140f2565b915061433882876139c2565b9150614343826141d6565b915061434e826140f2565b915061435a82866139c2565b915061436582614222565b9150614370826140f2565b915061437c82856139c2565b91506143878261426e565b9150614392826140f2565b915061439e82846139c2565b91506143a9826142ba565b9150819050979650505050505050565b7f36207b66696c6c2d6f7061636974793a317d0000000000000000000000000000600082015250565b60006143ef60128361396b565b91506143fa826143b9565b601282019050919050565b6000614410826140f2565b915061441c82856139c2565b9150614427826141d6565b9150614432826140f2565b915061443e82846139c2565b9150614449826143e2565b91508190509392505050565b7f342c000000000000000000000000000000000000000000000000000000000000600082015250565b600061448b60028361396b565b915061449682614455565b600282019050919050565b60006144ac826140f2565b91506144b882886139c2565b91506144c38261413e565b91506144ce826140f2565b91506144da82876139c2565b91506144e5826141d6565b91506144f0826140f2565b91506144fc82866139c2565b91506145078261447e565b9150614512826140f2565b915061451e82856139c2565b915061452982614222565b9150614534826140f2565b915061454082846139c2565b915061454b826142ba565b91508190509695505050505050565b6000614565826140f2565b915061457182886139c2565b915061457c8261413e565b9150614587826140f2565b915061459382876139c2565b915061459e826141d6565b91506145a9826140f2565b91506145b582866139c2565b91506145c08261447e565b91506145cb826140f2565b91506145d782856139c2565b91506145e28261426e565b91506145ed826140f2565b91506145f982846139c2565b9150614604826142ba565b91508190509695505050505050565b600061461e826140f2565b915061462a82876139c2565b91506146358261418a565b9150614640826140f2565b915061464c82866139c2565b9150614657826141d6565b9150614662826140f2565b915061466e82856139c2565b91506146798261447e565b9150614684826140f2565b915061469082846139c2565b915061469b826143e2565b915081905095945050505050565b60006146b4826140f2565b91506146c082886139c2565b91506146cb8261413e565b91506146d6826140f2565b91506146e282876139c2565b91506146ed8261418a565b91506146f8826140f2565b915061470482866139c2565b915061470f8261447e565b915061471a826140f2565b915061472682856139c2565b91506147318261426e565b915061473c826140f2565b915061474882846139c2565b9150614753826142ba565b91508190509695505050505050565b600061476d826140f2565b915061477982896139c2565b91506147848261413e565b915061478f826140f2565b915061479b82886139c2565b91506147a68261418a565b91506147b1826140f2565b91506147bd82876139c2565b91506147c88261447e565b91506147d3826140f2565b91506147df82866139c2565b91506147ea82614222565b91506147f5826140f2565b915061480182856139c2565b915061480c8261426e565b9150614817826140f2565b915061482382846139c2565b915061482e826142ba565b9150819050979650505050505050565b6000614849826140f2565b915061485582866139c2565b91506148608261413e565b915061486b826140f2565b915061487782856139c2565b9150614882826141d6565b915061488d826140f2565b915061489982846139c2565b91506148a4826143e2565b9150819050949350505050565b60006148bc826140f2565b91506148c8828a6139c2565b91506148d38261413e565b91506148de826140f2565b91506148ea82896139c2565b91506148f58261418a565b9150614900826140f2565b915061490c82886139c2565b9150614917826141d6565b9150614922826140f2565b915061492e82876139c2565b91506149398261447e565b9150614944826140f2565b915061495082866139c2565b915061495b82614222565b9150614966826140f2565b915061497282856139c2565b915061497d8261426e565b9150614988826140f2565b915061499482846139c2565b915061499f826142ba565b915081905098975050505050505050565b60006149bb826140f2565b91506149c782896139c2565b91506149d28261413e565b91506149dd826140f2565b91506149e982886139c2565b91506149f48261418a565b91506149ff826140f2565b9150614a0b82876139c2565b9150614a16826141d6565b9150614a21826140f2565b9150614a2d82866139c2565b9150614a388261447e565b9150614a43826140f2565b9150614a4f82856139c2565b9150614a5a8261426e565b9150614a65826140f2565b9150614a7182846139c2565b9150614a7c826142ba565b915081905097965050505050505056fe3c7376672077696474683d2239303022206865696768743d22393030222076696577426f783d223020302033303020333030222066696c6c3d226e6f6e652220786d6c6e733d22687474703a2f2f7777772e77332e6f72672f323030302f737667223e3c726563742077696474683d2233303022206865696768743d22333030222066696c6c3d2223304330433043222f3e3c673e3c7061746820643d224d3636203130334832333356313937483636563130335a4d36372e35393035203130342e353933563139352e343037483233312e3431563130342e3539334836372e353930355a222f3e3c706174682069643d227030312220643d224d3130392e343431203132354c3131312e383233203132372e3431394c3130392e343431203132392e3833394c39332e35353838203132392e3833394c39312e31373634203132372e3431394c39332e35353838203132354c3130392e343431203132355a222066696c6c2d6f7061636974793d22302e3035222f3e3c706174682069643d227030322220643d224d3838203133302e3634354c39302e33383234203132382e3232364c39322e37363437203133302e363435563134362e3737344c39302e33383234203134392e3139344c3838203134362e373734563133302e3634355a222066696c6c2d6f7061636974793d22302e3035222f3e3c706174682069643d227030332220643d224d3131302e323335203133302e3634354c3131322e363138203132382e3232364c313135203133302e363435563134362e3737344c3131322e363138203134392e3139344c3131302e323335203134362e373734563133302e3634355a222066696c6c2d6f7061636974793d22302e3035222f3e3c706174682069643d227030342220643d224d3130392e343431203134372e3538314c3131312e383233203135304c3130392e343431203135322e3431394c39332e35353838203135322e3431394c39312e31373634203135304c39332e35353838203134372e3538314c3130392e343431203134372e3538315a222066696c6c2d6f7061636974793d22302e3035222f3e3c706174682069643d227030352220643d224d3838203135332e3232364c39302e33383234203135302e3830364c39322e37363437203135332e323236563136392e3335354c39302e33383234203137312e3737344c3838203136392e333535563135332e3232365a222066696c6c2d6f7061636974793d22302e3035222f3e3c706174682069643d227030362220643d224d3131302e323335203135332e3232364c3131322e363138203135302e3830364c313135203135332e323236563136392e3335354c3131322e363138203137312e3737344c3131302e323335203136392e333535563135332e3232365a222066696c6c2d6f7061636974793d22302e3035222f3e3c706174682069643d227030372220643d224d3130392e343431203137302e3136314c3131312e383233203137322e3538314c3130392e343431203137354c39332e35353838203137354c39312e31373634203137322e3538314c39332e35353838203137302e3136314c3130392e343431203137302e3136315a222066696c6c2d6f7061636974793d22302e3035222f3e3c706174682069643d227031312220643d224d3134312e343431203132354c3134332e383233203132372e3431394c3134312e343431203132392e3833394c3132352e353539203132392e3833394c3132332e313736203132372e3431394c3132352e353539203132354c3134312e343431203132355a222066696c6c2d6f7061636974793d22302e3035222f3e3c706174682069643d227031322220643d224d313230203133302e3634354c3132322e333832203132382e3232364c3132342e373635203133302e363435563134362e3737344c3132322e333832203134392e3139344c313230203134362e373734563133302e3634355a222066696c6c2d6f7061636974793d22302e3035222f3e3c706174682069643d227031332220643d224d3134322e323335203133302e3634354c3134342e363138203132382e3232364c313437203133302e363435563134362e3737344c3134342e363138203134392e3139344c3134322e323335203134362e373734563133302e3634355a222066696c6c2d6f7061636974793d22302e3035222f3e3c706174682069643d227031342220643d224d3134312e343431203134372e3538314c3134332e383233203135304c3134312e343431203135322e3431394c3132352e353539203135322e3431394c3132332e313736203135304c3132352e353539203134372e3538314c3134312e343431203134372e3538315a222066696c6c2d6f7061636974793d22302e3035222f3e3c706174682069643d227031352220643d224d313230203135332e3232364c3132322e333832203135302e3830364c3132342e373635203135332e323236563136392e3335354c3132322e333832203137312e3737344c313230203136392e333535563135332e3232365a222066696c6c2d6f7061636974793d22302e3035222f3e3c706174682069643d227031362220643d224d3134322e323335203135332e3232364c3134342e363138203135302e3830364c313437203135332e323236563136392e3335354c3134342e363138203137312e3737344c3134322e323335203136392e333535563135332e3232365a222066696c6c2d6f7061636974793d22302e3035222f3e3c706174682069643d227031372220643d224d3134312e343431203137302e3136314c3134332e383233203137322e3538314c3134312e343431203137354c3132352e353539203137354c3132332e313736203137322e3538314c3132352e353539203137302e3136314c3134312e343431203137302e3136315a222066696c6c2d6f7061636974793d22302e3035222f3e3c706174682069643d227032312220643d224d3137332e343431203132354c3137352e383233203132372e3431394c3137332e343431203132392e3833394c3135372e353539203132392e3833394c3135352e313736203132372e3431394c3135372e353539203132354c3137332e343431203132355a222066696c6c2d6f7061636974793d22302e3035222f3e3c706174682069643d227032322220643d224d313532203133302e3634354c3135342e333832203132382e3232364c3135362e373635203133302e363435563134362e3737344c3135342e333832203134392e3139344c313532203134362e373734563133302e3634355a222066696c6c2d6f7061636974793d22302e3035222f3e3c706174682069643d227032332220643d224d3137342e323335203133302e3634354c3137362e363138203132382e3232364c313739203133302e363435563134362e3737344c3137362e363138203134392e3139344c3137342e323335203134362e373734563133302e3634355a222066696c6c2d6f7061636974793d22302e3035222f3e3c706174682069643d227032342220643d224d3137332e343431203134372e3538314c3137352e383233203135304c3137332e343431203135322e3431394c3135372e353539203135322e3431394c3135352e313736203135304c3135372e353539203134372e3538314c3137332e343431203134372e3538315a222066696c6c2d6f7061636974793d22302e3035222f3e3c706174682069643d227032352220643d224d313532203135332e3232364c3135342e333832203135302e3830364c3135362e373635203135332e323236563136392e3335354c3135342e333832203137312e3737344c313532203136392e333535563135332e3232365a222066696c6c2d6f7061636974793d22302e3035222f3e3c706174682069643d227032362220643d224d3137342e323335203135332e3232364c3137362e363138203135302e3830364c313739203135332e323236563136392e3335354c3137362e363138203137312e3737344c3137342e323335203136392e333535563135332e3232365a222066696c6c2d6f7061636974793d22302e3035222f3e3c706174682069643d227032372220643d224d3137332e343431203137302e3136314c3137352e383233203137322e3538314c3137332e343431203137354c3135372e353539203137354c3135352e313736203137322e3538314c3135372e353539203137302e3136314c3137332e343431203137302e3136315a222066696c6c2d6f7061636974793d22302e3035222f3e3c706174682069643d227033312220643d224d3230352e343431203132354c3230372e383233203132372e3431394c3230352e343431203132392e3833394c3138392e353539203132392e3833394c3138372e313736203132372e3431394c3138392e353539203132354c3230352e343431203132355a222066696c6c2d6f7061636974793d22302e3035222f3e3c706174682069643d227033322220643d224d313834203133302e3634354c3138362e333832203132382e3232364c3138382e373635203133302e363435563134362e3737344c3138362e333832203134392e3139344c313834203134362e373734563133302e3634355a222066696c6c2d6f7061636974793d22302e3035222f3e3c706174682069643d227033332220643d224d3230362e323335203133302e3634354c3230382e363138203132382e3232364c323131203133302e363435563134362e3737344c3230382e363138203134392e3139344c3230362e323335203134362e373734563133302e3634355a222066696c6c2d6f7061636974793d22302e3035222f3e3c706174682069643d227033342220643d224d3230352e343431203134372e3538314c3230372e383233203135304c3230352e343431203135322e3431394c3138392e353539203135322e3431394c3138372e313736203135304c3138392e353539203134372e3538314c3230352e343431203134372e3538315a222066696c6c2d6f7061636974793d22302e3035222f3e3c706174682069643d227033352220643d224d313834203135332e3232364c3138362e333832203135302e3830364c3138382e373635203135332e323236563136392e3335354c3138362e333832203137312e3737344c313834203136392e333535563135332e3232365a222066696c6c2d6f7061636974793d22302e3035222f3e3c706174682069643d227033362220643d224d3230362e323335203135332e3232364c3230382e363138203135302e3830364c323131203135332e323236563136392e3335354c3230382e363138203137312e3737344c3230362e323335203136392e333535563135332e3232365a222066696c6c2d6f7061636974793d22302e3035222f3e3c706174682069643d227033372220643d224d3230352e343431203137302e3136314c3230372e383233203137322e3538314c3230352e343431203137354c3138392e353539203137354c3138372e313736203137322e3538314c3138392e353539203137302e3136314c3230352e343431203137302e3136315a222066696c6c2d6f7061636974793d22302e3035222f3e3c616e696d617465206174747269627574654e616d653d2266696c6c22206475723d223237732220726570656174436f756e743d22696e646566696e697465222076616c7565733d224142434445464748494a4b4c4d4e4f505152535455565758595a6162636465666768696a6b6c6d6e6f707172737475767778797a303132333435363738392b2fa2646970667358221220abf30465723878cadf44afd94ddec026a1487306fe590d4aaa779dd019f3ffd164736f6c63430008120033",
			"opcodes": "PUSH1 0x80 PUSH1 0x40 MSTORE PUSH1 0x0 PUSH1 0x25 SSTORE PUSH1 0x0 PUSH1 0x28 SSTORE PUSH20 0x9D83E140330758A8FFD07F8BD73E86EBCA8A5692 PUSH1 0x2A PUSH1 0x0 PUSH2 0x100 EXP DUP2 SLOAD DUP2 PUSH20 0xFFFFFFFFFFFFFFFFFFFFFFFFFFFFFFFFFFFFFFFF MUL NOT AND SWAP1 DUP4 PUSH20 0xFFFFFFFFFFFFFFFFFFFFFFFFFFFFFFFFFFFFFFFF AND MUL OR SWAP1 SSTORE POP PUSH1 0x2A PUSH1 0x0 SWAP1 SLOAD SWAP1 PUSH2 0x100 EXP SWAP1 DIV PUSH20 0xFFFFFFFFFFFFFFFFFFFFFFFFFFFFFFFFFFFFFFFF AND PUSH1 0x2B PUSH1 0x0 PUSH2 0x100 EXP DUP2 SLOAD DUP2 PUSH20 0xFFFFFFFFFFFFFFFFFFFFFFFFFFFFFFFFFFFFFFFF MUL NOT AND SWAP1 DUP4 PUSH20 0xFFFFFFFFFFFFFFFFFFFFFFFFFFFFFFFFFFFFFFFF AND MUL OR SWAP1 SSTORE POP PUSH20 0xD8B934580FCE35A11B58C6D73ADEE468A2833FA8 PUSH1 0x2C PUSH1 0x0 PUSH2 0x100 EXP DUP2 SLOAD DUP2 PUSH20 0xFFFFFFFFFFFFFFFFFFFFFFFFFFFFFFFFFFFFFFFF MUL NOT AND SWAP1 DUP4 PUSH20 0xFFFFFFFFFFFFFFFFFFFFFFFFFFFFFFFFFFFFFFFF AND MUL OR SWAP1 SSTORE POP PUSH1 0x2C PUSH1 0x0 SWAP1 SLOAD SWAP1 PUSH2 0x100 EXP SWAP1 DIV PUSH20 0xFFFFFFFFFFFFFFFFFFFFFFFFFFFFFFFFFFFFFFFF AND PUSH1 0x2D PUSH1 0x0 PUSH2 0x100 EXP DUP2 SLOAD DUP2 PUSH20 0xFFFFFFFFFFFFFFFFFFFFFFFFFFFFFFFFFFFFFFFF MUL NOT AND SWAP1 DUP4 PUSH20 0xFFFFFFFFFFFFFFFFFFFFFFFFFFFFFFFFFFFFFFFF AND MUL OR SWAP1 SSTORE POP CALLVALUE DUP1 ISZERO PUSH3 0x18B JUMPI PUSH1 0x0 DUP1 REVERT JUMPDEST POP PUSH1 0x40 MLOAD DUP1 PUSH1 0x40 ADD PUSH1 0x40 MSTORE DUP1 PUSH1 0xD DUP2 MSTORE PUSH1 0x20 ADD PUSH32 0x55494E54532045444954494F4E00000000000000000000000000000000000000 DUP2 MSTORE POP PUSH1 0x40 MLOAD DUP1 PUSH1 0x40 ADD PUSH1 0x40 MSTORE DUP1 PUSH1 0x2 DUP2 MSTORE PUSH1 0x20 ADD PUSH32 0x5545000000000000000000000000000000000000000000000000000000000000 DUP2 MSTORE POP DUP2 PUSH1 0x2 SWAP1 DUP2 PUSH3 0x209 SWAP2 SWAP1 PUSH3 0x68C JUMP JUMPDEST POP DUP1 PUSH1 0x3 SWAP1 DUP2 PUSH3 0x21B SWAP2 SWAP1 PUSH3 0x68C JUMP JUMPDEST POP PUSH3 0x22C PUSH3 0x26A PUSH1 0x20 SHL PUSH1 0x20 SHR JUMP JUMPDEST PUSH1 0x0 DUP2 SWAP1 SSTORE POP POP POP PUSH3 0x254 PUSH3 0x248 PUSH3 0x273 PUSH1 0x20 SHL PUSH1 0x20 SHR JUMP JUMPDEST PUSH3 0x27B PUSH1 0x20 SHL PUSH1 0x20 SHR JUMP JUMPDEST PUSH3 0x264 PUSH3 0x341 PUSH1 0x20 SHL PUSH1 0x20 SHR JUMP JUMPDEST PUSH3 0x81E JUMP JUMPDEST PUSH1 0x0 PUSH1 0x1 SWAP1 POP SWAP1 JUMP JUMPDEST PUSH1 0x0 CALLER SWAP1 POP SWAP1 JUMP JUMPDEST PUSH1 0x0 PUSH1 0x8 PUSH1 0x0 SWAP1 SLOAD SWAP1 PUSH2 0x100 EXP SWAP1 DIV PUSH20 0xFFFFFFFFFFFFFFFFFFFFFFFFFFFFFFFFFFFFFFFF AND SWAP1 POP DUP2 PUSH1 0x8 PUSH1 0x0 PUSH2 0x100 EXP DUP2 SLOAD DUP2 PUSH20 0xFFFFFFFFFFFFFFFFFFFFFFFFFFFFFFFFFFFFFFFF MUL NOT AND SWAP1 DUP4 PUSH20 0xFFFFFFFFFFFFFFFFFFFFFFFFFFFFFFFFFFFFFFFF AND MUL OR SWAP1 SSTORE POP DUP2 PUSH20 0xFFFFFFFFFFFFFFFFFFFFFFFFFFFFFFFFFFFFFFFF AND DUP2 PUSH20 0xFFFFFFFFFFFFFFFFFFFFFFFFFFFFFFFFFFFFFFFF AND PUSH32 0x8BE0079C531659141344CD1FD0A4F28419497F9722A3DAAFE3B4186F6B6457E0 PUSH1 0x40 MLOAD PUSH1 0x40 MLOAD DUP1 SWAP2 SUB SWAP1 LOG3 POP POP JUMP JUMPDEST PUSH1 0x0 PUSH1 0x40 MLOAD DUP1 PUSH1 0x60 ADD PUSH1 0x40 MSTORE DUP1 PUSH1 0xFF DUP2 MSTORE PUSH1 0x20 ADD PUSH1 0xFF DUP2 MSTORE PUSH1 0x20 ADD PUSH1 0xFF DUP2 MSTORE POP SWAP1 POP PUSH1 0x0 JUMPDEST PUSH1 0x9 DUP2 LT ISZERO PUSH3 0x397 JUMPI PUSH3 0x381 DUP3 PUSH3 0x39B PUSH1 0x20 SHL PUSH1 0x20 SHR JUMP JUMPDEST DUP1 DUP1 PUSH3 0x38E SWAP1 PUSH3 0x7A2 JUMP JUMPDEST SWAP2 POP POP PUSH3 0x366 JUMP JUMPDEST POP POP JUMP JUMPDEST DUP1 PUSH1 0x9 PUSH1 0x24 SLOAD PUSH1 0x9 DUP2 LT PUSH3 0x3B5 JUMPI PUSH3 0x3B4 PUSH3 0x7EF JUMP JUMPDEST JUMPDEST PUSH1 0x3 MUL ADD PUSH1 0x0 DUP3 ADD MLOAD DUP2 PUSH1 0x0 ADD SSTORE PUSH1 0x20 DUP3 ADD MLOAD DUP2 PUSH1 0x1 ADD SSTORE PUSH1 0x40 DUP3 ADD MLOAD DUP2 PUSH1 0x2 ADD SSTORE SWAP1 POP POP PUSH1 0x8 PUSH1 0x24 SLOAD LT ISZERO PUSH3 0x406 JUMPI PUSH1 0x24 PUSH1 0x0 DUP2 SLOAD DUP1 SWAP3 SWAP2 SWAP1 PUSH3 0x3FB SWAP1 PUSH3 0x7A2 JUMP JUMPDEST SWAP2 SWAP1 POP SSTORE POP PUSH3 0x40F JUMP JUMPDEST PUSH1 0x0 PUSH1 0x24 DUP2 SWAP1 SSTORE POP JUMPDEST POP JUMP JUMPDEST PUSH1 0x0 DUP2 MLOAD SWAP1 POP SWAP2 SWAP1 POP JUMP JUMPDEST PUSH32 0x4E487B7100000000000000000000000000000000000000000000000000000000 PUSH1 0x0 MSTORE PUSH1 0x41 PUSH1 0x4 MSTORE PUSH1 0x24 PUSH1 0x0 REVERT JUMPDEST PUSH32 0x4E487B7100000000000000000000000000000000000000000000000000000000 PUSH1 0x0 MSTORE PUSH1 0x22 PUSH1 0x4 MSTORE PUSH1 0x24 PUSH1 0x0 REVERT JUMPDEST PUSH1 0x0 PUSH1 0x2 DUP3 DIV SWAP1 POP PUSH1 0x1 DUP3 AND DUP1 PUSH3 0x494 JUMPI PUSH1 0x7F DUP3 AND SWAP2 POP JUMPDEST PUSH1 0x20 DUP3 LT DUP2 SUB PUSH3 0x4AA JUMPI PUSH3 0x4A9 PUSH3 0x44C JUMP JUMPDEST JUMPDEST POP SWAP2 SWAP1 POP JUMP JUMPDEST PUSH1 0x0 DUP2 SWAP1 POP DUP2 PUSH1 0x0 MSTORE PUSH1 0x20 PUSH1 0x0 KECCAK256 SWAP1 POP SWAP2 SWAP1 POP JUMP JUMPDEST PUSH1 0x0 PUSH1 0x20 PUSH1 0x1F DUP4 ADD DIV SWAP1 POP SWAP2 SWAP1 POP JUMP JUMPDEST PUSH1 0x0 DUP3 DUP3 SHL SWAP1 POP SWAP3 SWAP2 POP POP JUMP JUMPDEST PUSH1 0x0 PUSH1 0x8 DUP4 MUL PUSH3 0x514 PUSH32 0xFFFFFFFFFFFFFFFFFFFFFFFFFFFFFFFFFFFFFFFFFFFFFFFFFFFFFFFFFFFFFFFF DUP3 PUSH3 0x4D5 JUMP JUMPDEST PUSH3 0x520 DUP7 DUP4 PUSH3 0x4D5 JUMP JUMPDEST SWAP6 POP DUP1 NOT DUP5 AND SWAP4 POP DUP1 DUP7 AND DUP5 OR SWAP3 POP POP POP SWAP4 SWAP3 POP POP POP JUMP JUMPDEST PUSH1 0x0 DUP2 SWAP1 POP SWAP2 SWAP1 POP JUMP JUMPDEST PUSH1 0x0 DUP2 SWAP1 POP SWAP2 SWAP1 POP JUMP JUMPDEST PUSH1 0x0 PUSH3 0x56D PUSH3 0x567 PUSH3 0x561 DUP5 PUSH3 0x538 JUMP JUMPDEST PUSH3 0x542 JUMP JUMPDEST PUSH3 0x538 JUMP JUMPDEST SWAP1 POP SWAP2 SWAP1 POP JUMP JUMPDEST PUSH1 0x0 DUP2 SWAP1 POP SWAP2 SWAP1 POP JUMP JUMPDEST PUSH3 0x589 DUP4 PUSH3 0x54C JUMP JUMPDEST PUSH3 0x5A1 PUSH3 0x598 DUP3 PUSH3 0x574 JUMP JUMPDEST DUP5 DUP5 SLOAD PUSH3 0x4E2 JUMP JUMPDEST DUP3 SSTORE POP POP POP POP JUMP JUMPDEST PUSH1 0x0 SWAP1 JUMP JUMPDEST PUSH3 0x5B8 PUSH3 0x5A9 JUMP JUMPDEST PUSH3 0x5C5 DUP2 DUP5 DUP5 PUSH3 0x57E JUMP JUMPDEST POP POP POP JUMP JUMPDEST JUMPDEST DUP2 DUP2 LT ISZERO PUSH3 0x5ED JUMPI PUSH3 0x5E1 PUSH1 0x0 DUP3 PUSH3 0x5AE JUMP JUMPDEST PUSH1 0x1 DUP2 ADD SWAP1 POP PUSH3 0x5CB JUMP JUMPDEST POP POP JUMP JUMPDEST PUSH1 0x1F DUP3 GT ISZERO PUSH3 0x63C JUMPI PUSH3 0x606 DUP2 PUSH3 0x4B0 JUMP JUMPDEST PUSH3 0x611 DUP5 PUSH3 0x4C5 JUMP JUMPDEST DUP2 ADD PUSH1 0x20 DUP6 LT ISZERO PUSH3 0x621 JUMPI DUP2 SWAP1 POP JUMPDEST PUSH3 0x639 PUSH3 0x630 DUP6 PUSH3 0x4C5 JUMP JUMPDEST DUP4 ADD DUP3 PUSH3 0x5CA JUMP JUMPDEST POP POP JUMPDEST POP POP POP JUMP JUMPDEST PUSH1 0x0 DUP3 DUP3 SHR SWAP1 POP SWAP3 SWAP2 POP POP JUMP JUMPDEST PUSH1 0x0 PUSH3 0x661 PUSH1 0x0 NOT DUP5 PUSH1 0x8 MUL PUSH3 0x641 JUMP JUMPDEST NOT DUP1 DUP4 AND SWAP2 POP POP SWAP3 SWAP2 POP POP JUMP JUMPDEST PUSH1 0x0 PUSH3 0x67C DUP4 DUP4 PUSH3 0x64E JUMP JUMPDEST SWAP2 POP DUP3 PUSH1 0x2 MUL DUP3 OR SWAP1 POP SWAP3 SWAP2 POP POP JUMP JUMPDEST PUSH3 0x697 DUP3 PUSH3 0x412 JUMP JUMPDEST PUSH8 0xFFFFFFFFFFFFFFFF DUP2 GT ISZERO PUSH3 0x6B3 JUMPI PUSH3 0x6B2 PUSH3 0x41D JUMP JUMPDEST JUMPDEST PUSH3 0x6BF DUP3 SLOAD PUSH3 0x47B JUMP JUMPDEST PUSH3 0x6CC DUP3 DUP3 DUP6 PUSH3 0x5F1 JUMP JUMPDEST PUSH1 0x0 PUSH1 0x20 SWAP1 POP PUSH1 0x1F DUP4 GT PUSH1 0x1 DUP2 EQ PUSH3 0x704 JUMPI PUSH1 0x0 DUP5 ISZERO PUSH3 0x6EF JUMPI DUP3 DUP8 ADD MLOAD SWAP1 POP JUMPDEST PUSH3 0x6FB DUP6 DUP3 PUSH3 0x66E JUMP JUMPDEST DUP7 SSTORE POP PUSH3 0x76B JUMP JUMPDEST PUSH1 0x1F NOT DUP5 AND PUSH3 0x714 DUP7 PUSH3 0x4B0 JUMP JUMPDEST PUSH1 0x0 JUMPDEST DUP3 DUP2 LT ISZERO PUSH3 0x73E JUMPI DUP5 DUP10 ADD MLOAD DUP3 SSTORE PUSH1 0x1 DUP3 ADD SWAP2 POP PUSH1 0x20 DUP6 ADD SWAP5 POP PUSH1 0x20 DUP2 ADD SWAP1 POP PUSH3 0x717 JUMP JUMPDEST DUP7 DUP4 LT ISZERO PUSH3 0x75E JUMPI DUP5 DUP10 ADD MLOAD PUSH3 0x75A PUSH1 0x1F DUP10 AND DUP3 PUSH3 0x64E JUMP JUMPDEST DUP4 SSTORE POP JUMPDEST PUSH1 0x1 PUSH1 0x2 DUP9 MUL ADD DUP9 SSTORE POP POP POP JUMPDEST POP POP POP POP POP POP JUMP JUMPDEST PUSH32 0x4E487B7100000000000000000000000000000000000000000000000000000000 PUSH1 0x0 MSTORE PUSH1 0x11 PUSH1 0x4 MSTORE PUSH1 0x24 PUSH1 0x0 REVERT JUMPDEST PUSH1 0x0 PUSH3 0x7AF DUP3 PUSH3 0x538 JUMP JUMPDEST SWAP2 POP PUSH32 0xFFFFFFFFFFFFFFFFFFFFFFFFFFFFFFFFFFFFFFFFFFFFFFFFFFFFFFFFFFFFFFFF DUP3 SUB PUSH3 0x7E4 JUMPI PUSH3 0x7E3 PUSH3 0x773 JUMP JUMPDEST JUMPDEST PUSH1 0x1 DUP3 ADD SWAP1 POP SWAP2 SWAP1 POP JUMP JUMPDEST PUSH32 0x4E487B7100000000000000000000000000000000000000000000000000000000 PUSH1 0x0 MSTORE PUSH1 0x32 PUSH1 0x4 MSTORE PUSH1 0x24 PUSH1 0x0 REVERT JUMPDEST PUSH2 0x5B37 DUP1 PUSH3 0x82E PUSH1 0x0 CODECOPY PUSH1 0x0 RETURN INVALID PUSH1 0x80 PUSH1 0x40 MSTORE PUSH1 0x4 CALLDATASIZE LT PUSH2 0x1C2 JUMPI PUSH1 0x0 CALLDATALOAD PUSH1 0xE0 SHR DUP1 PUSH4 0x6352211E GT PUSH2 0xF7 JUMPI DUP1 PUSH4 0xB88D4FDE GT PUSH2 0x95 JUMPI DUP1 PUSH4 0xE985E9C5 GT PUSH2 0x64 JUMPI DUP1 PUSH4 0xE985E9C5 EQ PUSH2 0x5EF JUMPI DUP1 PUSH4 0xF2FDE38B EQ PUSH2 0x62C JUMPI DUP1 PUSH4 0xF3CFEB07 EQ PUSH2 0x655 JUMPI DUP1 PUSH4 0xF9CCDB40 EQ PUSH2 0x680 JUMPI PUSH2 0x1C2 JUMP JUMPDEST DUP1 PUSH4 0xB88D4FDE EQ PUSH2 0x540 JUMPI DUP1 PUSH4 0xC87B56DD EQ PUSH2 0x55C JUMPI DUP1 PUSH4 0xCE0617EC EQ PUSH2 0x599 JUMPI DUP1 PUSH4 0xDAC2E804 EQ PUSH2 0x5C4 JUMPI PUSH2 0x1C2 JUMP JUMPDEST DUP1 PUSH4 0x8DA5CB5B GT PUSH2 0xD1 JUMPI DUP1 PUSH4 0x8DA5CB5B EQ PUSH2 0x498 JUMPI DUP1 PUSH4 0x95D89B41 EQ PUSH2 0x4C3 JUMPI DUP1 PUSH4 0xA0712D68 EQ PUSH2 0x4EE JUMPI DUP1 PUSH4 0xA22CB465 EQ PUSH2 0x517 JUMPI PUSH2 0x1C2 JUMP JUMPDEST DUP1 PUSH4 0x6352211E EQ PUSH2 0x407 JUMPI DUP1 PUSH4 0x70A08231 EQ PUSH2 0x444 JUMPI DUP1 PUSH4 0x715018A6 EQ PUSH2 0x481 JUMPI PUSH2 0x1C2 JUMP JUMPDEST DUP1 PUSH4 0x18160DDD GT PUSH2 0x164 JUMPI DUP1 PUSH4 0x3CCFD60B GT PUSH2 0x13E JUMPI DUP1 PUSH4 0x3CCFD60B EQ PUSH2 0x36C JUMPI DUP1 PUSH4 0x42842E0E EQ PUSH2 0x383 JUMPI DUP1 PUSH4 0x44095C5F EQ PUSH2 0x39F JUMPI DUP1 PUSH4 0x4CA6D96E EQ PUSH2 0x3CA JUMPI PUSH2 0x1C2 JUMP JUMPDEST DUP1 PUSH4 0x18160DDD EQ PUSH2 0x30E JUMPI DUP1 PUSH4 0x23B872DD EQ PUSH2 0x339 JUMPI DUP1 PUSH4 0x2BE09561 EQ PUSH2 0x355 JUMPI PUSH2 0x1C2 JUMP JUMPDEST DUP1 PUSH4 0x5CBEAA0 GT PUSH2 0x1A0 JUMPI DUP1 PUSH4 0x5CBEAA0 EQ PUSH2 0x26E JUMPI DUP1 PUSH4 0x6FDDE03 EQ PUSH2 0x28A JUMPI DUP1 PUSH4 0x81812FC EQ PUSH2 0x2B5 JUMPI DUP1 PUSH4 0x95EA7B3 EQ PUSH2 0x2F2 JUMPI PUSH2 0x1C2 JUMP JUMPDEST DUP1 PUSH4 0x1FFC9A7 EQ PUSH2 0x1C7 JUMPI DUP1 PUSH4 0x3A1D342 EQ PUSH2 0x204 JUMPI DUP1 PUSH4 0x57E3087 EQ PUSH2 0x243 JUMPI JUMPDEST PUSH1 0x0 DUP1 REVERT JUMPDEST CALLVALUE DUP1 ISZERO PUSH2 0x1D3 JUMPI PUSH1 0x0 DUP1 REVERT JUMPDEST POP PUSH2 0x1EE PUSH1 0x4 DUP1 CALLDATASIZE SUB DUP2 ADD SWAP1 PUSH2 0x1E9 SWAP2 SWAP1 PUSH2 0x2BEF JUMP JUMPDEST PUSH2 0x6AB JUMP JUMPDEST PUSH1 0x40 MLOAD PUSH2 0x1FB SWAP2 SWAP1 PUSH2 0x2C37 JUMP JUMPDEST PUSH1 0x40 MLOAD DUP1 SWAP2 SUB SWAP1 RETURN JUMPDEST CALLVALUE DUP1 ISZERO PUSH2 0x210 JUMPI PUSH1 0x0 DUP1 REVERT JUMPDEST POP PUSH2 0x22B PUSH1 0x4 DUP1 CALLDATASIZE SUB DUP2 ADD SWAP1 PUSH2 0x226 SWAP2 SWAP1 PUSH2 0x2C88 JUMP JUMPDEST PUSH2 0x73D JUMP JUMPDEST PUSH1 0x40 MLOAD PUSH2 0x23A SWAP4 SWAP3 SWAP2 SWAP1 PUSH2 0x2CC4 JUMP JUMPDEST PUSH1 0x40 MLOAD DUP1 SWAP2 SUB SWAP1 RETURN JUMPDEST CALLVALUE DUP1 ISZERO PUSH2 0x24F JUMPI PUSH1 0x0 DUP1 REVERT JUMPDEST POP PUSH2 0x258 PUSH2 0x76D JUMP JUMPDEST PUSH1 0x40 MLOAD PUSH2 0x265 SWAP2 SWAP1 PUSH2 0x2CFB JUMP JUMPDEST PUSH1 0x40 MLOAD DUP1 SWAP2 SUB SWAP1 RETURN JUMPDEST PUSH2 0x288 PUSH1 0x4 DUP1 CALLDATASIZE SUB DUP2 ADD SWAP1 PUSH2 0x283 SWAP2 SWAP1 PUSH2 0x2E0B JUMP JUMPDEST PUSH2 0x773 JUMP JUMPDEST STOP JUMPDEST CALLVALUE DUP1 ISZERO PUSH2 0x296 JUMPI PUSH1 0x0 DUP1 REVERT JUMPDEST POP PUSH2 0x29F PUSH2 0xB3D JUMP JUMPDEST PUSH1 0x40 MLOAD PUSH2 0x2AC SWAP2 SWAP1 PUSH2 0x2EDD JUMP JUMPDEST PUSH1 0x40 MLOAD DUP1 SWAP2 SUB SWAP1 RETURN JUMPDEST CALLVALUE DUP1 ISZERO PUSH2 0x2C1 JUMPI PUSH1 0x0 DUP1 REVERT JUMPDEST POP PUSH2 0x2DC PUSH1 0x4 DUP1 CALLDATASIZE SUB DUP2 ADD SWAP1 PUSH2 0x2D7 SWAP2 SWAP1 PUSH2 0x2C88 JUMP JUMPDEST PUSH2 0xBCF JUMP JUMPDEST PUSH1 0x40 MLOAD PUSH2 0x2E9 SWAP2 SWAP1 PUSH2 0x2F40 JUMP JUMPDEST PUSH1 0x40 MLOAD DUP1 SWAP2 SUB SWAP1 RETURN JUMPDEST PUSH2 0x30C PUSH1 0x4 DUP1 CALLDATASIZE SUB DUP2 ADD SWAP1 PUSH2 0x307 SWAP2 SWAP1 PUSH2 0x2F87 JUMP JUMPDEST PUSH2 0xC4E JUMP JUMPDEST STOP JUMPDEST CALLVALUE DUP1 ISZERO PUSH2 0x31A JUMPI PUSH1 0x0 DUP1 REVERT JUMPDEST POP PUSH2 0x323 PUSH2 0xD92 JUMP JUMPDEST PUSH1 0x40 MLOAD PUSH2 0x330 SWAP2 SWAP1 PUSH2 0x2CFB JUMP JUMPDEST PUSH1 0x40 MLOAD DUP1 SWAP2 SUB SWAP1 RETURN JUMPDEST PUSH2 0x353 PUSH1 0x4 DUP1 CALLDATASIZE SUB DUP2 ADD SWAP1 PUSH2 0x34E SWAP2 SWAP1 PUSH2 0x2FC7 JUMP JUMPDEST PUSH2 0xDA9 JUMP JUMPDEST STOP JUMPDEST CALLVALUE DUP1 ISZERO PUSH2 0x361 JUMPI PUSH1 0x0 DUP1 REVERT JUMPDEST POP PUSH2 0x36A PUSH2 0x10CB JUMP JUMPDEST STOP JUMPDEST CALLVALUE DUP1 ISZERO PUSH2 0x378 JUMPI PUSH1 0x0 DUP1 REVERT JUMPDEST POP PUSH2 0x381 PUSH2 0x10EA JUMP JUMPDEST STOP JUMPDEST PUSH2 0x39D PUSH1 0x4 DUP1 CALLDATASIZE SUB DUP2 ADD SWAP1 PUSH2 0x398 SWAP2 SWAP1 PUSH2 0x2FC7 JUMP JUMPDEST PUSH2 0x1132 JUMP JUMPDEST STOP JUMPDEST CALLVALUE DUP1 ISZERO PUSH2 0x3AB JUMPI PUSH1 0x0 DUP1 REVERT JUMPDEST POP PUSH2 0x3B4 PUSH2 0x1152 JUMP JUMPDEST PUSH1 0x40 MLOAD PUSH2 0x3C1 SWAP2 SWAP1 PUSH2 0x2CFB JUMP JUMPDEST PUSH1 0x40 MLOAD DUP1 SWAP2 SUB SWAP1 RETURN JUMPDEST CALLVALUE DUP1 ISZERO PUSH2 0x3D6 JUMPI PUSH1 0x0 DUP1 REVERT JUMPDEST POP PUSH2 0x3F1 PUSH1 0x4 DUP1 CALLDATASIZE SUB DUP2 ADD SWAP1 PUSH2 0x3EC SWAP2 SWAP1 PUSH2 0x2C88 JUMP JUMPDEST PUSH2 0x1158 JUMP JUMPDEST PUSH1 0x40 MLOAD PUSH2 0x3FE SWAP2 SWAP1 PUSH2 0x2CFB JUMP JUMPDEST PUSH1 0x40 MLOAD DUP1 SWAP2 SUB SWAP1 RETURN JUMPDEST CALLVALUE DUP1 ISZERO PUSH2 0x413 JUMPI PUSH1 0x0 DUP1 REVERT JUMPDEST POP PUSH2 0x42E PUSH1 0x4 DUP1 CALLDATASIZE SUB DUP2 ADD SWAP1 PUSH2 0x429 SWAP2 SWAP1 PUSH2 0x2C88 JUMP JUMPDEST PUSH2 0x11FD JUMP JUMPDEST PUSH1 0x40 MLOAD PUSH2 0x43B SWAP2 SWAP1 PUSH2 0x2F40 JUMP JUMPDEST PUSH1 0x40 MLOAD DUP1 SWAP2 SUB SWAP1 RETURN JUMPDEST CALLVALUE DUP1 ISZERO PUSH2 0x450 JUMPI PUSH1 0x0 DUP1 REVERT JUMPDEST POP PUSH2 0x46B PUSH1 0x4 DUP1 CALLDATASIZE SUB DUP2 ADD SWAP1 PUSH2 0x466 SWAP2 SWAP1 PUSH2 0x301A JUMP JUMPDEST PUSH2 0x120F JUMP JUMPDEST PUSH1 0x40 MLOAD PUSH2 0x478 SWAP2 SWAP1 PUSH2 0x2CFB JUMP JUMPDEST PUSH1 0x40 MLOAD DUP1 SWAP2 SUB SWAP1 RETURN JUMPDEST CALLVALUE DUP1 ISZERO PUSH2 0x48D JUMPI PUSH1 0x0 DUP1 REVERT JUMPDEST POP PUSH2 0x496 PUSH2 0x12C7 JUMP JUMPDEST STOP JUMPDEST CALLVALUE DUP1 ISZERO PUSH2 0x4A4 JUMPI PUSH1 0x0 DUP1 REVERT JUMPDEST POP PUSH2 0x4AD PUSH2 0x12DB JUMP JUMPDEST PUSH1 0x40 MLOAD PUSH2 0x4BA SWAP2 SWAP1 PUSH2 0x2F40 JUMP JUMPDEST PUSH1 0x40 MLOAD DUP1 SWAP2 SUB SWAP1 RETURN JUMPDEST CALLVALUE DUP1 ISZERO PUSH2 0x4CF JUMPI PUSH1 0x0 DUP1 REVERT JUMPDEST POP PUSH2 0x4D8 PUSH2 0x1305 JUMP JUMPDEST PUSH1 0x40 MLOAD PUSH2 0x4E5 SWAP2 SWAP1 PUSH2 0x2EDD JUMP JUMPDEST PUSH1 0x40 MLOAD DUP1 SWAP2 SUB SWAP1 RETURN JUMPDEST CALLVALUE DUP1 ISZERO PUSH2 0x4FA JUMPI PUSH1 0x0 DUP1 REVERT JUMPDEST POP PUSH2 0x515 PUSH1 0x4 DUP1 CALLDATASIZE SUB DUP2 ADD SWAP1 PUSH2 0x510 SWAP2 SWAP1 PUSH2 0x2C88 JUMP JUMPDEST PUSH2 0x1397 JUMP JUMPDEST STOP JUMPDEST CALLVALUE DUP1 ISZERO PUSH2 0x523 JUMPI PUSH1 0x0 DUP1 REVERT JUMPDEST POP PUSH2 0x53E PUSH1 0x4 DUP1 CALLDATASIZE SUB DUP2 ADD SWAP1 PUSH2 0x539 SWAP2 SWAP1 PUSH2 0x3073 JUMP JUMPDEST PUSH2 0x13E9 JUMP JUMPDEST STOP JUMPDEST PUSH2 0x55A PUSH1 0x4 DUP1 CALLDATASIZE SUB DUP2 ADD SWAP1 PUSH2 0x555 SWAP2 SWAP1 PUSH2 0x316D JUMP JUMPDEST PUSH2 0x14F4 JUMP JUMPDEST STOP JUMPDEST CALLVALUE DUP1 ISZERO PUSH2 0x568 JUMPI PUSH1 0x0 DUP1 REVERT JUMPDEST POP PUSH2 0x583 PUSH1 0x4 DUP1 CALLDATASIZE SUB DUP2 ADD SWAP1 PUSH2 0x57E SWAP2 SWAP1 PUSH2 0x2C88 JUMP JUMPDEST PUSH2 0x1567 JUMP JUMPDEST PUSH1 0x40 MLOAD PUSH2 0x590 SWAP2 SWAP1 PUSH2 0x2EDD JUMP JUMPDEST PUSH1 0x40 MLOAD DUP1 SWAP2 SUB SWAP1 RETURN JUMPDEST CALLVALUE DUP1 ISZERO PUSH2 0x5A5 JUMPI PUSH1 0x0 DUP1 REVERT JUMPDEST POP PUSH2 0x5AE PUSH2 0x15D6 JUMP JUMPDEST PUSH1 0x40 MLOAD PUSH2 0x5BB SWAP2 SWAP1 PUSH2 0x2CFB JUMP JUMPDEST PUSH1 0x40 MLOAD DUP1 SWAP2 SUB SWAP1 RETURN JUMPDEST CALLVALUE DUP1 ISZERO PUSH2 0x5D0 JUMPI PUSH1 0x0 DUP1 REVERT JUMPDEST POP PUSH2 0x5D9 PUSH2 0x15DC JUMP JUMPDEST PUSH1 0x40 MLOAD PUSH2 0x5E6 SWAP2 SWAP1 PUSH2 0x2CFB JUMP JUMPDEST PUSH1 0x40 MLOAD DUP1 SWAP2 SUB SWAP1 RETURN JUMPDEST CALLVALUE DUP1 ISZERO PUSH2 0x5FB JUMPI PUSH1 0x0 DUP1 REVERT JUMPDEST POP PUSH2 0x616 PUSH1 0x4 DUP1 CALLDATASIZE SUB DUP2 ADD SWAP1 PUSH2 0x611 SWAP2 SWAP1 PUSH2 0x31F0 JUMP JUMPDEST PUSH2 0x15E2 JUMP JUMPDEST PUSH1 0x40 MLOAD PUSH2 0x623 SWAP2 SWAP1 PUSH2 0x2C37 JUMP JUMPDEST PUSH1 0x40 MLOAD DUP1 SWAP2 SUB SWAP1 RETURN JUMPDEST CALLVALUE DUP1 ISZERO PUSH2 0x638 JUMPI PUSH1 0x0 DUP1 REVERT JUMPDEST POP PUSH2 0x653 PUSH1 0x4 DUP1 CALLDATASIZE SUB DUP2 ADD SWAP1 PUSH2 0x64E SWAP2 SWAP1 PUSH2 0x301A JUMP JUMPDEST PUSH2 0x1676 JUMP JUMPDEST STOP JUMPDEST CALLVALUE DUP1 ISZERO PUSH2 0x661 JUMPI PUSH1 0x0 DUP1 REVERT JUMPDEST POP PUSH2 0x66A PUSH2 0x16F9 JUMP JUMPDEST PUSH1 0x40 MLOAD PUSH2 0x677 SWAP2 SWAP1 PUSH2 0x2CFB JUMP JUMPDEST PUSH1 0x40 MLOAD DUP1 SWAP2 SUB SWAP1 RETURN JUMPDEST CALLVALUE DUP1 ISZERO PUSH2 0x68C JUMPI PUSH1 0x0 DUP1 REVERT JUMPDEST POP PUSH2 0x695 PUSH2 0x172D JUMP JUMPDEST PUSH1 0x40 MLOAD PUSH2 0x6A2 SWAP2 SWAP1 PUSH2 0x2CFB JUMP JUMPDEST PUSH1 0x40 MLOAD DUP1 SWAP2 SUB SWAP1 RETURN JUMPDEST PUSH1 0x0 PUSH4 0x1FFC9A7 PUSH1 0xE0 SHL DUP3 PUSH28 0xFFFFFFFFFFFFFFFFFFFFFFFFFFFFFFFFFFFFFFFFFFFFFFFFFFFFFFFF NOT AND EQ DUP1 PUSH2 0x706 JUMPI POP PUSH4 0x80AC58CD PUSH1 0xE0 SHL DUP3 PUSH28 0xFFFFFFFFFFFFFFFFFFFFFFFFFFFFFFFFFFFFFFFFFFFFFFFFFFFFFFFF NOT AND EQ JUMPDEST DUP1 PUSH2 0x736 JUMPI POP PUSH4 0x5B5E139F PUSH1 0xE0 SHL DUP3 PUSH28 0xFFFFFFFFFFFFFFFFFFFFFFFFFFFFFFFFFFFFFFFFFFFFFFFFFFFFFFFF NOT AND EQ JUMPDEST SWAP1 POP SWAP2 SWAP1 POP JUMP JUMPDEST PUSH1 0x9 DUP2 PUSH1 0x9 DUP2 LT PUSH2 0x74D JUMPI PUSH1 0x0 DUP1 REVERT JUMPDEST PUSH1 0x3 MUL ADD PUSH1 0x0 SWAP2 POP SWAP1 POP DUP1 PUSH1 0x0 ADD SLOAD SWAP1 DUP1 PUSH1 0x1 ADD SLOAD SWAP1 DUP1 PUSH1 0x2 ADD SLOAD SWAP1 POP DUP4 JUMP JUMPDEST PUSH1 0x27 SLOAD DUP2 JUMP JUMPDEST PUSH1 0x0 PUSH2 0x77E DUP4 PUSH2 0x1755 JUMP JUMPDEST SWAP1 POP PUSH1 0x28 SLOAD TIMESTAMP GT PUSH2 0x7C4 JUMPI PUSH1 0x40 MLOAD PUSH32 0x8C379A000000000000000000000000000000000000000000000000000000000 DUP2 MSTORE PUSH1 0x4 ADD PUSH2 0x7BB SWAP1 PUSH2 0x32A2 JUMP JUMPDEST PUSH1 0x40 MLOAD DUP1 SWAP2 SUB SWAP1 REVERT JUMPDEST PUSH2 0x7CD DUP4 PUSH2 0x17FA JUMP JUMPDEST PUSH20 0xFFFFFFFFFFFFFFFFFFFFFFFFFFFFFFFFFFFFFFFF AND CALLER PUSH20 0xFFFFFFFFFFFFFFFFFFFFFFFFFFFFFFFFFFFFFFFF AND EQ PUSH2 0x83A JUMPI PUSH1 0x40 MLOAD PUSH32 0x8C379A000000000000000000000000000000000000000000000000000000000 DUP2 MSTORE PUSH1 0x4 ADD PUSH2 0x831 SWAP1 PUSH2 0x3334 JUMP JUMPDEST PUSH1 0x40 MLOAD DUP1 SWAP2 SUB SWAP1 REVERT JUMPDEST PUSH1 0x1 ISZERO ISZERO PUSH1 0x29 PUSH1 0x0 DUP6 DUP2 MSTORE PUSH1 0x20 ADD SWAP1 DUP2 MSTORE PUSH1 0x20 ADD PUSH1 0x0 KECCAK256 PUSH1 0x0 SWAP1 SLOAD SWAP1 PUSH2 0x100 EXP SWAP1 DIV PUSH1 0xFF AND ISZERO ISZERO SUB PUSH2 0x8A1 JUMPI PUSH1 0x40 MLOAD PUSH32 0x8C379A000000000000000000000000000000000000000000000000000000000 DUP2 MSTORE PUSH1 0x4 ADD PUSH2 0x898 SWAP1 PUSH2 0x33C6 JUMP JUMPDEST PUSH1 0x40 MLOAD DUP1 SWAP2 SUB SWAP1 REVERT JUMPDEST DUP1 DUP5 GT ISZERO PUSH2 0x8E4 JUMPI PUSH1 0x40 MLOAD PUSH32 0x8C379A000000000000000000000000000000000000000000000000000000000 DUP2 MSTORE PUSH1 0x4 ADD PUSH2 0x8DB SWAP1 PUSH2 0x3458 JUMP JUMPDEST PUSH1 0x40 MLOAD DUP1 SWAP2 SUB SWAP1 REVERT JUMPDEST PUSH1 0x9 DUP2 GT PUSH2 0x927 JUMPI PUSH1 0x40 MLOAD PUSH32 0x8C379A000000000000000000000000000000000000000000000000000000000 DUP2 MSTORE PUSH1 0x4 ADD PUSH2 0x91E SWAP1 PUSH2 0x34EA JUMP JUMPDEST PUSH1 0x40 MLOAD DUP1 SWAP2 SUB SWAP1 REVERT JUMPDEST PUSH1 0x1 DUP5 LT ISZERO DUP1 ISZERO PUSH2 0x93A JUMPI POP PUSH2 0x270F DUP5 GT ISZERO JUMPDEST PUSH2 0x979 JUMPI PUSH1 0x40 MLOAD PUSH32 0x8C379A000000000000000000000000000000000000000000000000000000000 DUP2 MSTORE PUSH1 0x4 ADD PUSH2 0x970 SWAP1 PUSH2 0x357C JUMP JUMPDEST PUSH1 0x40 MLOAD DUP1 SWAP2 SUB SWAP1 REVERT JUMPDEST TIMESTAMP PUSH1 0x26 SLOAD GT ISZERO PUSH2 0x9BE JUMPI PUSH1 0x40 MLOAD PUSH32 0x8C379A000000000000000000000000000000000000000000000000000000000 DUP2 MSTORE PUSH1 0x4 ADD PUSH2 0x9B5 SWAP1 PUSH2 0x35E8 JUMP JUMPDEST PUSH1 0x40 MLOAD DUP1 SWAP2 SUB SWAP1 REVERT JUMPDEST PUSH2 0x9C7 DUP3 PUSH2 0x189F JUMP JUMPDEST PUSH2 0xA06 JUMPI PUSH1 0x40 MLOAD PUSH32 0x8C379A000000000000000000000000000000000000000000000000000000000 DUP2 MSTORE PUSH1 0x4 ADD PUSH2 0x9FD SWAP1 PUSH2 0x3654 JUMP JUMPDEST PUSH1 0x40 MLOAD DUP1 SWAP2 SUB SWAP1 REVERT JUMPDEST DUP4 PUSH1 0x25 DUP2 SWAP1 SSTORE POP PUSH2 0xA16 DUP3 PUSH2 0x1923 JUMP JUMPDEST PUSH1 0x0 PUSH1 0xC DUP3 PUSH2 0xA25 SWAP2 SWAP1 PUSH2 0x36A3 JUMP JUMPDEST SWAP1 POP DUP1 TIMESTAMP PUSH2 0xA33 SWAP2 SWAP1 PUSH2 0x36E5 JUMP JUMPDEST PUSH1 0x26 DUP2 SWAP1 SSTORE POP PUSH1 0x27 PUSH1 0x0 DUP2 SLOAD DUP1 SWAP3 SWAP2 SWAP1 PUSH2 0xA4C SWAP1 PUSH2 0x3719 JUMP JUMPDEST SWAP2 SWAP1 POP SSTORE POP PUSH1 0x1 PUSH1 0x29 PUSH1 0x0 DUP7 DUP2 MSTORE PUSH1 0x20 ADD SWAP1 DUP2 MSTORE PUSH1 0x20 ADD PUSH1 0x0 KECCAK256 PUSH1 0x0 PUSH2 0x100 EXP DUP2 SLOAD DUP2 PUSH1 0xFF MUL NOT AND SWAP1 DUP4 ISZERO ISZERO MUL OR SWAP1 SSTORE POP PUSH1 0x2D PUSH1 0x0 SWAP1 SLOAD SWAP1 PUSH2 0x100 EXP SWAP1 DIV PUSH20 0xFFFFFFFFFFFFFFFFFFFFFFFFFFFFFFFFFFFFFFFF AND PUSH20 0xFFFFFFFFFFFFFFFFFFFFFFFFFFFFFFFFFFFFFFFF AND PUSH4 0x90EAEFC0 PUSH1 0x27 SLOAD TIMESTAMP PUSH1 0x3C DUP6 PUSH2 0xACC SWAP2 SWAP1 PUSH2 0x3790 JUMP JUMPDEST DUP9 CALLER DUP12 DUP11 PUSH1 0x0 ADD MLOAD DUP12 PUSH1 0x20 ADD MLOAD DUP13 PUSH1 0x40 ADD MLOAD CALLVALUE PUSH1 0x40 MLOAD DUP12 PUSH4 0xFFFFFFFF AND PUSH1 0xE0 SHL DUP2 MSTORE PUSH1 0x4 ADD PUSH2 0xB04 SWAP11 SWAP10 SWAP9 SWAP8 SWAP7 SWAP6 SWAP5 SWAP4 SWAP3 SWAP2 SWAP1 PUSH2 0x37C1 JUMP JUMPDEST PUSH1 0x0 PUSH1 0x40 MLOAD DUP1 DUP4 SUB DUP2 PUSH1 0x0 DUP8 DUP1 EXTCODESIZE ISZERO DUP1 ISZERO PUSH2 0xB1E JUMPI PUSH1 0x0 DUP1 REVERT JUMPDEST POP GAS CALL ISZERO DUP1 ISZERO PUSH2 0xB32 JUMPI RETURNDATASIZE PUSH1 0x0 DUP1 RETURNDATACOPY RETURNDATASIZE PUSH1 0x0 REVERT JUMPDEST POP POP POP POP POP POP POP POP POP JUMP JUMPDEST PUSH1 0x60 PUSH1 0x2 DUP1 SLOAD PUSH2 0xB4C SWAP1 PUSH2 0x388C JUMP JUMPDEST DUP1 PUSH1 0x1F ADD PUSH1 0x20 DUP1 SWAP2 DIV MUL PUSH1 0x20 ADD PUSH1 0x40 MLOAD SWAP1 DUP2 ADD PUSH1 0x40 MSTORE DUP1 SWAP3 SWAP2 SWAP1 DUP2 DUP2 MSTORE PUSH1 0x20 ADD DUP3 DUP1 SLOAD PUSH2 0xB78 SWAP1 PUSH2 0x388C JUMP JUMPDEST DUP1 ISZERO PUSH2 0xBC5 JUMPI DUP1 PUSH1 0x1F LT PUSH2 0xB9A JUMPI PUSH2 0x100 DUP1 DUP4 SLOAD DIV MUL DUP4 MSTORE SWAP2 PUSH1 0x20 ADD SWAP2 PUSH2 0xBC5 JUMP JUMPDEST DUP3 ADD SWAP2 SWAP1 PUSH1 0x0 MSTORE PUSH1 0x20 PUSH1 0x0 KECCAK256 SWAP1 JUMPDEST DUP2 SLOAD DUP2 MSTORE SWAP1 PUSH1 0x1 ADD SWAP1 PUSH1 0x20 ADD DUP1 DUP4 GT PUSH2 0xBA8 JUMPI DUP3 SWAP1 SUB PUSH1 0x1F AND DUP3 ADD SWAP2 JUMPDEST POP POP POP POP POP SWAP1 POP SWAP1 JUMP JUMPDEST PUSH1 0x0 PUSH2 0xBDA DUP3 PUSH2 0x1993 JUMP JUMPDEST PUSH2 0xC10 JUMPI PUSH1 0x40 MLOAD PUSH32 0xCF4700E400000000000000000000000000000000000000000000000000000000 DUP2 MSTORE PUSH1 0x4 ADD PUSH1 0x40 MLOAD DUP1 SWAP2 SUB SWAP1 REVERT JUMPDEST PUSH1 0x6 PUSH1 0x0 DUP4 DUP2 MSTORE PUSH1 0x20 ADD SWAP1 DUP2 MSTORE PUSH1 0x20 ADD PUSH1 0x0 KECCAK256 PUSH1 0x0 ADD PUSH1 0x0 SWAP1 SLOAD SWAP1 PUSH2 0x100 EXP SWAP1 DIV PUSH20 0xFFFFFFFFFFFFFFFFFFFFFFFFFFFFFFFFFFFFFFFF AND SWAP1 POP SWAP2 SWAP1 POP JUMP JUMPDEST PUSH1 0x0 PUSH2 0xC59 DUP3 PUSH2 0x11FD JUMP JUMPDEST SWAP1 POP DUP1 PUSH20 0xFFFFFFFFFFFFFFFFFFFFFFFFFFFFFFFFFFFFFFFF AND PUSH2 0xC7A PUSH2 0x19F2 JUMP JUMPDEST PUSH20 0xFFFFFFFFFFFFFFFFFFFFFFFFFFFFFFFFFFFFFFFF AND EQ PUSH2 0xCDD JUMPI PUSH2 0xCA6 DUP2 PUSH2 0xCA1 PUSH2 0x19F2 JUMP JUMPDEST PUSH2 0x15E2 JUMP JUMPDEST PUSH2 0xCDC JUMPI PUSH1 0x40 MLOAD PUSH32 0xCFB3B94200000000000000000000000000000000000000000000000000000000 DUP2 MSTORE PUSH1 0x4 ADD PUSH1 0x40 MLOAD DUP1 SWAP2 SUB SWAP1 REVERT JUMPDEST JUMPDEST DUP3 PUSH1 0x6 PUSH1 0x0 DUP5 DUP2 MSTORE PUSH1 0x20 ADD SWAP1 DUP2 MSTORE PUSH1 0x20 ADD PUSH1 0x0 KECCAK256 PUSH1 0x0 ADD PUSH1 0x0 PUSH2 0x100 EXP DUP2 SLOAD DUP2 PUSH20 0xFFFFFFFFFFFFFFFFFFFFFFFFFFFFFFFFFFFFFFFF MUL NOT AND SWAP1 DUP4 PUSH20 0xFFFFFFFFFFFFFFFFFFFFFFFFFFFFFFFFFFFFFFFF AND MUL OR SWAP1 SSTORE POP DUP2 DUP4 PUSH20 0xFFFFFFFFFFFFFFFFFFFFFFFFFFFFFFFFFFFFFFFF AND DUP3 PUSH20 0xFFFFFFFFFFFFFFFFFFFFFFFFFFFFFFFFFFFFFFFF AND PUSH32 0x8C5BE1E5EBEC7D5BD14F71427D1E84F3DD0314C0F7B2291E5B200AC8C7C3B925 PUSH1 0x40 MLOAD PUSH1 0x40 MLOAD DUP1 SWAP2 SUB SWAP1 LOG4 POP POP POP JUMP JUMPDEST PUSH1 0x0 PUSH2 0xD9C PUSH2 0x19FA JUMP JUMPDEST PUSH1 0x1 SLOAD PUSH1 0x0 SLOAD SUB SUB SWAP1 POP SWAP1 JUMP JUMPDEST PUSH1 0x0 PUSH2 0xDB4 DUP3 PUSH2 0x1A03 JUMP JUMPDEST SWAP1 POP DUP4 PUSH20 0xFFFFFFFFFFFFFFFFFFFFFFFFFFFFFFFFFFFFFFFF AND DUP2 PUSH20 0xFFFFFFFFFFFFFFFFFFFFFFFFFFFFFFFFFFFFFFFF AND EQ PUSH2 0xE1B JUMPI PUSH1 0x40 MLOAD PUSH32 0xA114810000000000000000000000000000000000000000000000000000000000 DUP2 MSTORE PUSH1 0x4 ADD PUSH1 0x40 MLOAD DUP1 SWAP2 SUB SWAP1 REVERT JUMPDEST PUSH1 0x0 DUP1 PUSH2 0xE27 DUP5 PUSH2 0x1ACF JUMP JUMPDEST SWAP2 POP SWAP2 POP PUSH2 0xE3D DUP2 DUP8 PUSH2 0xE38 PUSH2 0x19F2 JUMP JUMPDEST PUSH2 0x1AF6 JUMP JUMPDEST PUSH2 0xE89 JUMPI PUSH2 0xE52 DUP7 PUSH2 0xE4D PUSH2 0x19F2 JUMP JUMPDEST PUSH2 0x15E2 JUMP JUMPDEST PUSH2 0xE88 JUMPI PUSH1 0x40 MLOAD PUSH32 0x59C896BE00000000000000000000000000000000000000000000000000000000 DUP2 MSTORE PUSH1 0x4 ADD PUSH1 0x40 MLOAD DUP1 SWAP2 SUB SWAP1 REVERT JUMPDEST JUMPDEST PUSH1 0x0 PUSH20 0xFFFFFFFFFFFFFFFFFFFFFFFFFFFFFFFFFFFFFFFF AND DUP6 PUSH20 0xFFFFFFFFFFFFFFFFFFFFFFFFFFFFFFFFFFFFFFFF AND SUB PUSH2 0xEEF JUMPI PUSH1 0x40 MLOAD PUSH32 0xEA553B3400000000000000000000000000000000000000000000000000000000 DUP2 MSTORE PUSH1 0x4 ADD PUSH1 0x40 MLOAD DUP1 SWAP2 SUB SWAP1 REVERT JUMPDEST PUSH2 0xEFC DUP7 DUP7 DUP7 PUSH1 0x1 PUSH2 0x1B3A JUMP JUMPDEST DUP1 ISZERO PUSH2 0xF07 JUMPI PUSH1 0x0 DUP3 SSTORE JUMPDEST PUSH1 0x5 PUSH1 0x0 DUP8 PUSH20 0xFFFFFFFFFFFFFFFFFFFFFFFFFFFFFFFFFFFFFFFF AND PUSH20 0xFFFFFFFFFFFFFFFFFFFFFFFFFFFFFFFFFFFFFFFF AND DUP2 MSTORE PUSH1 0x20 ADD SWAP1 DUP2 MSTORE PUSH1 0x20 ADD PUSH1 0x0 KECCAK256 PUSH1 0x0 DUP2 SLOAD PUSH1 0x1 SWAP1 SUB SWAP2 SWAP1 POP DUP2 SWAP1 SSTORE POP PUSH1 0x5 PUSH1 0x0 DUP7 PUSH20 0xFFFFFFFFFFFFFFFFFFFFFFFFFFFFFFFFFFFFFFFF AND PUSH20 0xFFFFFFFFFFFFFFFFFFFFFFFFFFFFFFFFFFFFFFFF AND DUP2 MSTORE PUSH1 0x20 ADD SWAP1 DUP2 MSTORE PUSH1 0x20 ADD PUSH1 0x0 KECCAK256 PUSH1 0x0 DUP2 SLOAD PUSH1 0x1 ADD SWAP2 SWAP1 POP DUP2 SWAP1 SSTORE POP PUSH2 0xFD5 DUP6 PUSH2 0xFB1 DUP9 DUP9 DUP8 PUSH2 0x1B40 JUMP JUMPDEST PUSH29 0x200000000000000000000000000000000000000000000000000000000 OR PUSH2 0x1B68 JUMP JUMPDEST PUSH1 0x4 PUSH1 0x0 DUP7 DUP2 MSTORE PUSH1 0x20 ADD SWAP1 DUP2 MSTORE PUSH1 0x20 ADD PUSH1 0x0 KECCAK256 DUP2 SWAP1 SSTORE POP PUSH1 0x0 PUSH29 0x200000000000000000000000000000000000000000000000000000000 DUP5 AND SUB PUSH2 0x105B JUMPI PUSH1 0x0 PUSH1 0x1 DUP6 ADD SWAP1 POP PUSH1 0x0 PUSH1 0x4 PUSH1 0x0 DUP4 DUP2 MSTORE PUSH1 0x20 ADD SWAP1 DUP2 MSTORE PUSH1 0x20 ADD PUSH1 0x0 KECCAK256 SLOAD SUB PUSH2 0x1059 JUMPI PUSH1 0x0 SLOAD DUP2 EQ PUSH2 0x1058 JUMPI DUP4 PUSH1 0x4 PUSH1 0x0 DUP4 DUP2 MSTORE PUSH1 0x20 ADD SWAP1 DUP2 MSTORE PUSH1 0x20 ADD PUSH1 0x0 KECCAK256 DUP2 SWAP1 SSTORE POP JUMPDEST JUMPDEST POP JUMPDEST DUP4 DUP6 PUSH20 0xFFFFFFFFFFFFFFFFFFFFFFFFFFFFFFFFFFFFFFFF AND DUP8 PUSH20 0xFFFFFFFFFFFFFFFFFFFFFFFFFFFFFFFFFFFFFFFF AND PUSH32 0xDDF252AD1BE2C89B69C2B068FC378DAA952BA7F163C4A11628F55A4DF523B3EF PUSH1 0x40 MLOAD PUSH1 0x40 MLOAD DUP1 SWAP2 SUB SWAP1 LOG4 PUSH2 0x10C3 DUP7 DUP7 DUP7 PUSH1 0x1 PUSH2 0x1B93 JUMP JUMPDEST POP POP POP POP POP POP JUMP JUMPDEST PUSH2 0x10D3 PUSH2 0x1B99 JUMP JUMPDEST PUSH3 0x15180 TIMESTAMP PUSH2 0x10E2 SWAP2 SWAP1 PUSH2 0x36E5 JUMP JUMPDEST PUSH1 0x28 DUP2 SWAP1 SSTORE POP JUMP JUMPDEST PUSH2 0x10F2 PUSH2 0x1B99 JUMP JUMPDEST CALLER PUSH20 0xFFFFFFFFFFFFFFFFFFFFFFFFFFFFFFFFFFFFFFFF AND PUSH2 0x8FC SELFBALANCE SWAP1 DUP2 ISZERO MUL SWAP1 PUSH1 0x40 MLOAD PUSH1 0x0 PUSH1 0x40 MLOAD DUP1 DUP4 SUB DUP2 DUP6 DUP9 DUP9 CALL SWAP4 POP POP POP POP PUSH2 0x1130 JUMPI PUSH1 0x0 DUP1 REVERT JUMPDEST JUMP JUMPDEST PUSH2 0x114D DUP4 DUP4 DUP4 PUSH1 0x40 MLOAD DUP1 PUSH1 0x20 ADD PUSH1 0x40 MSTORE DUP1 PUSH1 0x0 DUP2 MSTORE POP PUSH2 0x14F4 JUMP JUMPDEST POP POP POP JUMP JUMPDEST PUSH1 0x25 SLOAD DUP2 JUMP JUMPDEST PUSH1 0x0 PUSH1 0x2B PUSH1 0x0 SWAP1 SLOAD SWAP1 PUSH2 0x100 EXP SWAP1 DIV PUSH20 0xFFFFFFFFFFFFFFFFFFFFFFFFFFFFFFFFFFFFFFFF AND PUSH20 0xFFFFFFFFFFFFFFFFFFFFFFFFFFFFFFFFFFFFFFFF AND PUSH4 0xA88D3601 DUP4 PUSH1 0x40 MLOAD DUP3 PUSH4 0xFFFFFFFF AND PUSH1 0xE0 SHL DUP2 MSTORE PUSH1 0x4 ADD PUSH2 0x11B5 SWAP2 SWAP1 PUSH2 0x2CFB JUMP JUMPDEST PUSH1 0x20 PUSH1 0x40 MLOAD DUP1 DUP4 SUB DUP2 DUP7 GAS STATICCALL ISZERO DUP1 ISZERO PUSH2 0x11D2 JUMPI RETURNDATASIZE PUSH1 0x0 DUP1 RETURNDATACOPY RETURNDATASIZE PUSH1 0x0 REVERT JUMPDEST POP POP POP POP PUSH1 0x40 MLOAD RETURNDATASIZE PUSH1 0x1F NOT PUSH1 0x1F DUP3 ADD AND DUP3 ADD DUP1 PUSH1 0x40 MSTORE POP DUP2 ADD SWAP1 PUSH2 0x11F6 SWAP2 SWAP1 PUSH2 0x38D2 JUMP JUMPDEST SWAP1 POP SWAP2 SWAP1 POP JUMP JUMPDEST PUSH1 0x0 PUSH2 0x1208 DUP3 PUSH2 0x1A03 JUMP JUMPDEST SWAP1 POP SWAP2 SWAP1 POP JUMP JUMPDEST PUSH1 0x0 DUP1 PUSH20 0xFFFFFFFFFFFFFFFFFFFFFFFFFFFFFFFFFFFFFFFF AND DUP3 PUSH20 0xFFFFFFFFFFFFFFFFFFFFFFFFFFFFFFFFFFFFFFFF AND SUB PUSH2 0x1276 JUMPI PUSH1 0x40 MLOAD PUSH32 0x8F4EB60400000000000000000000000000000000000000000000000000000000 DUP2 MSTORE PUSH1 0x4 ADD PUSH1 0x40 MLOAD DUP1 SWAP2 SUB SWAP1 REVERT JUMPDEST PUSH8 0xFFFFFFFFFFFFFFFF PUSH1 0x5 PUSH1 0x0 DUP5 PUSH20 0xFFFFFFFFFFFFFFFFFFFFFFFFFFFFFFFFFFFFFFFF AND PUSH20 0xFFFFFFFFFFFFFFFFFFFFFFFFFFFFFFFFFFFFFFFF AND DUP2 MSTORE PUSH1 0x20 ADD SWAP1 DUP2 MSTORE PUSH1 0x20 ADD PUSH1 0x0 KECCAK256 SLOAD AND SWAP1 POP SWAP2 SWAP1 POP JUMP JUMPDEST PUSH2 0x12CF PUSH2 0x1B99 JUMP JUMPDEST PUSH2 0x12D9 PUSH1 0x0 PUSH2 0x1C17 JUMP JUMPDEST JUMP JUMPDEST PUSH1 0x0 PUSH1 0x8 PUSH1 0x0 SWAP1 SLOAD SWAP1 PUSH2 0x100 EXP SWAP1 DIV PUSH20 0xFFFFFFFFFFFFFFFFFFFFFFFFFFFFFFFFFFFFFFFF AND SWAP1 POP SWAP1 JUMP JUMPDEST PUSH1 0x60 PUSH1 0x3 DUP1 SLOAD PUSH2 0x1314 SWAP1 PUSH2 0x388C JUMP JUMPDEST DUP1 PUSH1 0x1F ADD PUSH1 0x20 DUP1 SWAP2 DIV MUL PUSH1 0x20 ADD PUSH1 0x40 MLOAD SWAP1 DUP2 ADD PUSH1 0x40 MSTORE DUP1 SWAP3 SWAP2 SWAP1 DUP2 DUP2 MSTORE PUSH1 0x20 ADD DUP3 DUP1 SLOAD PUSH2 0x1340 SWAP1 PUSH2 0x388C JUMP JUMPDEST DUP1 ISZERO PUSH2 0x138D JUMPI DUP1 PUSH1 0x1F LT PUSH2 0x1362 JUMPI PUSH2 0x100 DUP1 DUP4 SLOAD DIV MUL DUP4 MSTORE SWAP2 PUSH1 0x20 ADD SWAP2 PUSH2 0x138D JUMP JUMPDEST DUP3 ADD SWAP2 SWAP1 PUSH1 0x0 MSTORE PUSH1 0x20 PUSH1 0x0 KECCAK256 SWAP1 JUMPDEST DUP2 SLOAD DUP2 MSTORE SWAP1 PUSH1 0x1 ADD SWAP1 PUSH1 0x20 ADD DUP1 DUP4 GT PUSH2 0x1370 JUMPI DUP3 SWAP1 SUB PUSH1 0x1F AND DUP3 ADD SWAP2 JUMPDEST POP POP POP POP POP SWAP1 POP SWAP1 JUMP JUMPDEST PUSH1 0x28 SLOAD TIMESTAMP GT ISZERO PUSH2 0x13DC JUMPI PUSH1 0x40 MLOAD PUSH32 0x8C379A000000000000000000000000000000000000000000000000000000000 DUP2 MSTORE PUSH1 0x4 ADD PUSH2 0x13D3 SWAP1 PUSH2 0x394B JUMP JUMPDEST PUSH1 0x40 MLOAD DUP1 SWAP2 SUB SWAP1 REVERT JUMPDEST PUSH2 0x13E6 CALLER DUP3 PUSH2 0x1CDD JUMP JUMPDEST POP JUMP JUMPDEST DUP1 PUSH1 0x7 PUSH1 0x0 PUSH2 0x13F6 PUSH2 0x19F2 JUMP JUMPDEST PUSH20 0xFFFFFFFFFFFFFFFFFFFFFFFFFFFFFFFFFFFFFFFF AND PUSH20 0xFFFFFFFFFFFFFFFFFFFFFFFFFFFFFFFFFFFFFFFF AND DUP2 MSTORE PUSH1 0x20 ADD SWAP1 DUP2 MSTORE PUSH1 0x20 ADD PUSH1 0x0 KECCAK256 PUSH1 0x0 DUP5 PUSH20 0xFFFFFFFFFFFFFFFFFFFFFFFFFFFFFFFFFFFFFFFF AND PUSH20 0xFFFFFFFFFFFFFFFFFFFFFFFFFFFFFFFFFFFFFFFF AND DUP2 MSTORE PUSH1 0x20 ADD SWAP1 DUP2 MSTORE PUSH1 0x20 ADD PUSH1 0x0 KECCAK256 PUSH1 0x0 PUSH2 0x100 EXP DUP2 SLOAD DUP2 PUSH1 0xFF MUL NOT AND SWAP1 DUP4 ISZERO ISZERO MUL OR SWAP1 SSTORE POP DUP2 PUSH20 0xFFFFFFFFFFFFFFFFFFFFFFFFFFFFFFFFFFFFFFFF AND PUSH2 0x14A3 PUSH2 0x19F2 JUMP JUMPDEST PUSH20 0xFFFFFFFFFFFFFFFFFFFFFFFFFFFFFFFFFFFFFFFF AND PUSH32 0x17307EAB39AB6107E8899845AD3D59BD9653F200F220920489CA2B5937696C31 DUP4 PUSH1 0x40 MLOAD PUSH2 0x14E8 SWAP2 SWAP1 PUSH2 0x2C37 JUMP JUMPDEST PUSH1 0x40 MLOAD DUP1 SWAP2 SUB SWAP1 LOG3 POP POP JUMP JUMPDEST PUSH2 0x14FF DUP5 DUP5 DUP5 PUSH2 0xDA9 JUMP JUMPDEST PUSH1 0x0 DUP4 PUSH20 0xFFFFFFFFFFFFFFFFFFFFFFFFFFFFFFFFFFFFFFFF AND EXTCODESIZE EQ PUSH2 0x1561 JUMPI PUSH2 0x152A DUP5 DUP5 DUP5 DUP5 PUSH2 0x1E98 JUMP JUMPDEST PUSH2 0x1560 JUMPI PUSH1 0x40 MLOAD PUSH32 0xD1A57ED600000000000000000000000000000000000000000000000000000000 DUP2 MSTORE PUSH1 0x4 ADD PUSH1 0x40 MLOAD DUP1 SWAP2 SUB SWAP1 REVERT JUMPDEST JUMPDEST POP POP POP POP JUMP JUMPDEST PUSH1 0x60 PUSH1 0x0 PUSH2 0x1574 DUP4 PUSH2 0x1FE8 JUMP JUMPDEST PUSH2 0x1584 PUSH2 0x157F PUSH2 0x2038 JUMP JUMPDEST PUSH2 0x21C5 JUMP JUMPDEST PUSH1 0x40 MLOAD PUSH1 0x20 ADD PUSH2 0x1595 SWAP3 SWAP2 SWAP1 PUSH2 0x3B23 JUMP JUMPDEST PUSH1 0x40 MLOAD PUSH1 0x20 DUP2 DUP4 SUB SUB DUP2 MSTORE SWAP1 PUSH1 0x40 MSTORE SWAP1 POP PUSH2 0x15AF DUP2 PUSH2 0x21C5 JUMP JUMPDEST PUSH1 0x40 MLOAD PUSH1 0x20 ADD PUSH2 0x15BF SWAP2 SWAP1 PUSH2 0x3BB4 JUMP JUMPDEST PUSH1 0x40 MLOAD PUSH1 0x20 DUP2 DUP4 SUB SUB DUP2 MSTORE SWAP1 PUSH1 0x40 MSTORE SWAP2 POP POP SWAP2 SWAP1 POP JUMP JUMPDEST PUSH1 0x26 SLOAD DUP2 JUMP JUMPDEST PUSH1 0x28 SLOAD DUP2 JUMP JUMPDEST PUSH1 0x0 PUSH1 0x7 PUSH1 0x0 DUP5 PUSH20 0xFFFFFFFFFFFFFFFFFFFFFFFFFFFFFFFFFFFFFFFF AND PUSH20 0xFFFFFFFFFFFFFFFFFFFFFFFFFFFFFFFFFFFFFFFF AND DUP2 MSTORE PUSH1 0x20 ADD SWAP1 DUP2 MSTORE PUSH1 0x20 ADD PUSH1 0x0 KECCAK256 PUSH1 0x0 DUP4 PUSH20 0xFFFFFFFFFFFFFFFFFFFFFFFFFFFFFFFFFFFFFFFF AND PUSH20 0xFFFFFFFFFFFFFFFFFFFFFFFFFFFFFFFFFFFFFFFF AND DUP2 MSTORE PUSH1 0x20 ADD SWAP1 DUP2 MSTORE PUSH1 0x20 ADD PUSH1 0x0 KECCAK256 PUSH1 0x0 SWAP1 SLOAD SWAP1 PUSH2 0x100 EXP SWAP1 DIV PUSH1 0xFF AND SWAP1 POP SWAP3 SWAP2 POP POP JUMP JUMPDEST PUSH2 0x167E PUSH2 0x1B99 JUMP JUMPDEST PUSH1 0x0 PUSH20 0xFFFFFFFFFFFFFFFFFFFFFFFFFFFFFFFFFFFFFFFF AND DUP2 PUSH20 0xFFFFFFFFFFFFFFFFFFFFFFFFFFFFFFFFFFFFFFFF AND SUB PUSH2 0x16ED JUMPI PUSH1 0x40 MLOAD PUSH32 0x8C379A000000000000000000000000000000000000000000000000000000000 DUP2 MSTORE PUSH1 0x4 ADD PUSH2 0x16E4 SWAP1 PUSH2 0x3C48 JUMP JUMPDEST PUSH1 0x40 MLOAD DUP1 SWAP2 SUB SWAP1 REVERT JUMPDEST PUSH2 0x16F6 DUP2 PUSH2 0x1C17 JUMP JUMPDEST POP JUMP JUMPDEST PUSH1 0x0 PUSH1 0x26 SLOAD TIMESTAMP GT PUSH2 0x1725 JUMPI PUSH1 0x3C TIMESTAMP PUSH1 0x26 SLOAD PUSH2 0x1714 SWAP2 SWAP1 PUSH2 0x3C68 JUMP JUMPDEST PUSH2 0x171E SWAP2 SWAP1 PUSH2 0x3790 JUMP JUMPDEST SWAP1 POP PUSH2 0x172A JUMP JUMPDEST PUSH1 0x0 SWAP1 POP JUMPDEST SWAP1 JUMP JUMPDEST PUSH1 0x0 PUSH1 0x26 SLOAD TIMESTAMP GT PUSH2 0x174D JUMPI TIMESTAMP PUSH1 0x26 SLOAD PUSH2 0x1746 SWAP2 SWAP1 PUSH2 0x3C68 JUMP JUMPDEST SWAP1 POP PUSH2 0x1752 JUMP JUMPDEST PUSH1 0x0 SWAP1 POP JUMPDEST SWAP1 JUMP JUMPDEST PUSH1 0x0 PUSH1 0x2B PUSH1 0x0 SWAP1 SLOAD SWAP1 PUSH2 0x100 EXP SWAP1 DIV PUSH20 0xFFFFFFFFFFFFFFFFFFFFFFFFFFFFFFFFFFFFFFFF AND PUSH20 0xFFFFFFFFFFFFFFFFFFFFFFFFFFFFFFFFFFFFFFFF AND PUSH4 0xFF4C916 DUP4 PUSH1 0x40 MLOAD DUP3 PUSH4 0xFFFFFFFF AND PUSH1 0xE0 SHL DUP2 MSTORE PUSH1 0x4 ADD PUSH2 0x17B2 SWAP2 SWAP1 PUSH2 0x2CFB JUMP JUMPDEST PUSH1 0x20 PUSH1 0x40 MLOAD DUP1 DUP4 SUB DUP2 DUP7 GAS STATICCALL ISZERO DUP1 ISZERO PUSH2 0x17CF JUMPI RETURNDATASIZE PUSH1 0x0 DUP1 RETURNDATACOPY RETURNDATASIZE PUSH1 0x0 REVERT JUMPDEST POP POP POP POP PUSH1 0x40 MLOAD RETURNDATASIZE PUSH1 0x1F NOT PUSH1 0x1F DUP3 ADD AND DUP3 ADD DUP1 PUSH1 0x40 MSTORE POP DUP2 ADD SWAP1 PUSH2 0x17F3 SWAP2 SWAP1 PUSH2 0x38D2 JUMP JUMPDEST SWAP1 POP SWAP2 SWAP1 POP JUMP JUMPDEST PUSH1 0x0 PUSH1 0x2B PUSH1 0x0 SWAP1 SLOAD SWAP1 PUSH2 0x100 EXP SWAP1 DIV PUSH20 0xFFFFFFFFFFFFFFFFFFFFFFFFFFFFFFFFFFFFFFFF AND PUSH20 0xFFFFFFFFFFFFFFFFFFFFFFFFFFFFFFFFFFFFFFFF AND PUSH4 0x6352211E DUP4 PUSH1 0x40 MLOAD DUP3 PUSH4 0xFFFFFFFF AND PUSH1 0xE0 SHL DUP2 MSTORE PUSH1 0x4 ADD PUSH2 0x1857 SWAP2 SWAP1 PUSH2 0x2CFB JUMP JUMPDEST PUSH1 0x20 PUSH1 0x40 MLOAD DUP1 DUP4 SUB DUP2 DUP7 GAS STATICCALL ISZERO DUP1 ISZERO PUSH2 0x1874 JUMPI RETURNDATASIZE PUSH1 0x0 DUP1 RETURNDATACOPY RETURNDATASIZE PUSH1 0x0 REVERT JUMPDEST POP POP POP POP PUSH1 0x40 MLOAD RETURNDATASIZE PUSH1 0x1F NOT PUSH1 0x1F DUP3 ADD AND DUP3 ADD DUP1 PUSH1 0x40 MSTORE POP DUP2 ADD SWAP1 PUSH2 0x1898 SWAP2 SWAP1 PUSH2 0x3CB1 JUMP JUMPDEST SWAP1 POP SWAP2 SWAP1 POP JUMP JUMPDEST PUSH1 0x0 PUSH1 0xFF DUP3 PUSH1 0x0 ADD MLOAD SUB PUSH2 0x18B6 JUMPI PUSH1 0x1 SWAP1 POP PUSH2 0x18DE JUMP JUMPDEST PUSH1 0xFF DUP3 PUSH1 0x20 ADD MLOAD SUB PUSH2 0x18CB JUMPI PUSH1 0x1 SWAP1 POP PUSH2 0x18DD JUMP JUMPDEST PUSH1 0xFF DUP3 PUSH1 0x40 ADD MLOAD SUB PUSH2 0x18DC JUMPI PUSH1 0x1 SWAP1 POP JUMPDEST JUMPDEST JUMPDEST PUSH1 0xFF DUP3 PUSH1 0x0 ADD MLOAD GT ISZERO PUSH2 0x18F4 JUMPI PUSH1 0x0 SWAP1 POP PUSH2 0x191E JUMP JUMPDEST PUSH1 0xFF DUP3 PUSH1 0x20 ADD MLOAD GT ISZERO PUSH2 0x190A JUMPI PUSH1 0x0 SWAP1 POP PUSH2 0x191D JUMP JUMPDEST PUSH1 0xFF DUP3 PUSH1 0x40 ADD MLOAD GT ISZERO PUSH2 0x191C JUMPI PUSH1 0x0 SWAP1 POP JUMPDEST JUMPDEST JUMPDEST SWAP2 SWAP1 POP JUMP JUMPDEST DUP1 PUSH1 0x9 PUSH1 0x24 SLOAD PUSH1 0x9 DUP2 LT PUSH2 0x193A JUMPI PUSH2 0x1939 PUSH2 0x3CDE JUMP JUMPDEST JUMPDEST PUSH1 0x3 MUL ADD PUSH1 0x0 DUP3 ADD MLOAD DUP2 PUSH1 0x0 ADD SSTORE PUSH1 0x20 DUP3 ADD MLOAD DUP2 PUSH1 0x1 ADD SSTORE PUSH1 0x40 DUP3 ADD MLOAD DUP2 PUSH1 0x2 ADD SSTORE SWAP1 POP POP PUSH1 0x8 PUSH1 0x24 SLOAD LT ISZERO PUSH2 0x1987 JUMPI PUSH1 0x24 PUSH1 0x0 DUP2 SLOAD DUP1 SWAP3 SWAP2 SWAP1 PUSH2 0x197D SWAP1 PUSH2 0x3719 JUMP JUMPDEST SWAP2 SWAP1 POP SSTORE POP PUSH2 0x1990 JUMP JUMPDEST PUSH1 0x0 PUSH1 0x24 DUP2 SWAP1 SSTORE POP JUMPDEST POP JUMP JUMPDEST PUSH1 0x0 DUP2 PUSH2 0x199E PUSH2 0x19FA JUMP JUMPDEST GT ISZERO DUP1 ISZERO PUSH2 0x19AD JUMPI POP PUSH1 0x0 SLOAD DUP3 LT JUMPDEST DUP1 ISZERO PUSH2 0x19EB JUMPI POP PUSH1 0x0 PUSH29 0x100000000000000000000000000000000000000000000000000000000 PUSH1 0x4 PUSH1 0x0 DUP6 DUP2 MSTORE PUSH1 0x20 ADD SWAP1 DUP2 MSTORE PUSH1 0x20 ADD PUSH1 0x0 KECCAK256 SLOAD AND EQ JUMPDEST SWAP1 POP SWAP2 SWAP1 POP JUMP JUMPDEST PUSH1 0x0 CALLER SWAP1 POP SWAP1 JUMP JUMPDEST PUSH1 0x0 PUSH1 0x1 SWAP1 POP SWAP1 JUMP JUMPDEST PUSH1 0x0 DUP1 DUP3 SWAP1 POP DUP1 PUSH2 0x1A12 PUSH2 0x19FA JUMP JUMPDEST GT PUSH2 0x1A98 JUMPI PUSH1 0x0 SLOAD DUP2 LT ISZERO PUSH2 0x1A97 JUMPI PUSH1 0x0 PUSH1 0x4 PUSH1 0x0 DUP4 DUP2 MSTORE PUSH1 0x20 ADD SWAP1 DUP2 MSTORE PUSH1 0x20 ADD PUSH1 0x0 KECCAK256 SLOAD SWAP1 POP PUSH1 0x0 PUSH29 0x100000000000000000000000000000000000000000000000000000000 DUP3 AND SUB PUSH2 0x1A95 JUMPI JUMPDEST PUSH1 0x0 DUP2 SUB PUSH2 0x1A8B JUMPI PUSH1 0x4 PUSH1 0x0 DUP4 PUSH1 0x1 SWAP1 SUB SWAP4 POP DUP4 DUP2 MSTORE PUSH1 0x20 ADD SWAP1 DUP2 MSTORE PUSH1 0x20 ADD PUSH1 0x0 KECCAK256 SLOAD SWAP1 POP PUSH2 0x1A61 JUMP JUMPDEST DUP1 SWAP3 POP POP POP PUSH2 0x1ACA JUMP JUMPDEST POP JUMPDEST JUMPDEST PUSH1 0x40 MLOAD PUSH32 0xDF2D9B4200000000000000000000000000000000000000000000000000000000 DUP2 MSTORE PUSH1 0x4 ADD PUSH1 0x40 MLOAD DUP1 SWAP2 SUB SWAP1 REVERT JUMPDEST SWAP2 SWAP1 POP JUMP JUMPDEST PUSH1 0x0 DUP1 PUSH1 0x0 PUSH1 0x6 PUSH1 0x0 DUP6 DUP2 MSTORE PUSH1 0x20 ADD SWAP1 DUP2 MSTORE PUSH1 0x20 ADD PUSH1 0x0 KECCAK256 SWAP1 POP DUP1 SWAP3 POP DUP3 SLOAD SWAP2 POP POP SWAP2 POP SWAP2 JUMP JUMPDEST PUSH1 0x0 PUSH20 0xFFFFFFFFFFFFFFFFFFFFFFFFFFFFFFFFFFFFFFFF DUP4 AND SWAP3 POP PUSH20 0xFFFFFFFFFFFFFFFFFFFFFFFFFFFFFFFFFFFFFFFF DUP3 AND SWAP2 POP DUP4 DUP3 EQ DUP4 DUP4 EQ OR SWAP1 POP SWAP4 SWAP3 POP POP POP JUMP JUMPDEST POP POP POP POP JUMP JUMPDEST PUSH1 0x0 DUP1 PUSH1 0xE8 DUP4 SWAP1 SHR SWAP1 POP PUSH1 0xE8 PUSH2 0x1B57 DUP7 DUP7 DUP5 PUSH2 0x2328 JUMP JUMPDEST PUSH3 0xFFFFFF AND SWAP1 SHL SWAP2 POP POP SWAP4 SWAP3 POP POP POP JUMP JUMPDEST PUSH1 0x0 PUSH20 0xFFFFFFFFFFFFFFFFFFFFFFFFFFFFFFFFFFFFFFFF DUP4 AND SWAP3 POP DUP2 TIMESTAMP PUSH1 0xA0 SHL OR DUP4 OR SWAP1 POP SWAP3 SWAP2 POP POP JUMP JUMPDEST POP POP POP POP JUMP JUMPDEST PUSH2 0x1BA1 PUSH2 0x2331 JUMP JUMPDEST PUSH20 0xFFFFFFFFFFFFFFFFFFFFFFFFFFFFFFFFFFFFFFFF AND PUSH2 0x1BBF PUSH2 0x12DB JUMP JUMPDEST PUSH20 0xFFFFFFFFFFFFFFFFFFFFFFFFFFFFFFFFFFFFFFFF AND EQ PUSH2 0x1C15 JUMPI PUSH1 0x40 MLOAD PUSH32 0x8C379A000000000000000000000000000000000000000000000000000000000 DUP2 MSTORE PUSH1 0x4 ADD PUSH2 0x1C0C SWAP1 PUSH2 0x3D59 JUMP JUMPDEST PUSH1 0x40 MLOAD DUP1 SWAP2 SUB SWAP1 REVERT JUMPDEST JUMP JUMPDEST PUSH1 0x0 PUSH1 0x8 PUSH1 0x0 SWAP1 SLOAD SWAP1 PUSH2 0x100 EXP SWAP1 DIV PUSH20 0xFFFFFFFFFFFFFFFFFFFFFFFFFFFFFFFFFFFFFFFF AND SWAP1 POP DUP2 PUSH1 0x8 PUSH1 0x0 PUSH2 0x100 EXP DUP2 SLOAD DUP2 PUSH20 0xFFFFFFFFFFFFFFFFFFFFFFFFFFFFFFFFFFFFFFFF MUL NOT AND SWAP1 DUP4 PUSH20 0xFFFFFFFFFFFFFFFFFFFFFFFFFFFFFFFFFFFFFFFF AND MUL OR SWAP1 SSTORE POP DUP2 PUSH20 0xFFFFFFFFFFFFFFFFFFFFFFFFFFFFFFFFFFFFFFFF AND DUP2 PUSH20 0xFFFFFFFFFFFFFFFFFFFFFFFFFFFFFFFFFFFFFFFF AND PUSH32 0x8BE0079C531659141344CD1FD0A4F28419497F9722A3DAAFE3B4186F6B6457E0 PUSH1 0x40 MLOAD PUSH1 0x40 MLOAD DUP1 SWAP2 SUB SWAP1 LOG3 POP POP JUMP JUMPDEST PUSH1 0x0 DUP1 SLOAD SWAP1 POP PUSH1 0x0 DUP3 SUB PUSH2 0x1D1D JUMPI PUSH1 0x40 MLOAD PUSH32 0xB562E8DD00000000000000000000000000000000000000000000000000000000 DUP2 MSTORE PUSH1 0x4 ADD PUSH1 0x40 MLOAD DUP1 SWAP2 SUB SWAP1 REVERT JUMPDEST PUSH2 0x1D2A PUSH1 0x0 DUP5 DUP4 DUP6 PUSH2 0x1B3A JUMP JUMPDEST PUSH1 0x1 PUSH1 0x40 PUSH1 0x1 SWAP1 SHL OR DUP3 MUL PUSH1 0x5 PUSH1 0x0 DUP6 PUSH20 0xFFFFFFFFFFFFFFFFFFFFFFFFFFFFFFFFFFFFFFFF AND PUSH20 0xFFFFFFFFFFFFFFFFFFFFFFFFFFFFFFFFFFFFFFFF AND DUP2 MSTORE PUSH1 0x20 ADD SWAP1 DUP2 MSTORE PUSH1 0x20 ADD PUSH1 0x0 KECCAK256 PUSH1 0x0 DUP3 DUP3 SLOAD ADD SWAP3 POP POP DUP2 SWAP1 SSTORE POP PUSH2 0x1DA1 DUP4 PUSH2 0x1D92 PUSH1 0x0 DUP7 PUSH1 0x0 PUSH2 0x1B40 JUMP JUMPDEST PUSH2 0x1D9B DUP6 PUSH2 0x2339 JUMP JUMPDEST OR PUSH2 0x1B68 JUMP JUMPDEST PUSH1 0x4 PUSH1 0x0 DUP4 DUP2 MSTORE PUSH1 0x20 ADD SWAP1 DUP2 MSTORE PUSH1 0x20 ADD PUSH1 0x0 KECCAK256 DUP2 SWAP1 SSTORE POP PUSH1 0x0 DUP1 DUP4 DUP4 ADD SWAP1 POP PUSH20 0xFFFFFFFFFFFFFFFFFFFFFFFFFFFFFFFFFFFFFFFF DUP6 AND SWAP2 POP DUP3 DUP3 PUSH1 0x0 PUSH32 0xDDF252AD1BE2C89B69C2B068FC378DAA952BA7F163C4A11628F55A4DF523B3EF PUSH1 0x0 DUP1 LOG4 PUSH1 0x1 DUP4 ADD JUMPDEST DUP2 DUP2 EQ PUSH2 0x1E42 JUMPI DUP1 DUP4 PUSH1 0x0 PUSH32 0xDDF252AD1BE2C89B69C2B068FC378DAA952BA7F163C4A11628F55A4DF523B3EF PUSH1 0x0 DUP1 LOG4 PUSH1 0x1 DUP2 ADD SWAP1 POP PUSH2 0x1E07 JUMP JUMPDEST POP PUSH1 0x0 DUP3 SUB PUSH2 0x1E7D JUMPI PUSH1 0x40 MLOAD PUSH32 0x2E07630000000000000000000000000000000000000000000000000000000000 DUP2 MSTORE PUSH1 0x4 ADD PUSH1 0x40 MLOAD DUP1 SWAP2 SUB SWAP1 REVERT JUMPDEST DUP1 PUSH1 0x0 DUP2 SWAP1 SSTORE POP POP POP PUSH2 0x1E93 PUSH1 0x0 DUP5 DUP4 DUP6 PUSH2 0x1B93 JUMP JUMPDEST POP POP POP JUMP JUMPDEST PUSH1 0x0 DUP4 PUSH20 0xFFFFFFFFFFFFFFFFFFFFFFFFFFFFFFFFFFFFFFFF AND PUSH4 0x150B7A02 PUSH2 0x1EBE PUSH2 0x19F2 JUMP JUMPDEST DUP8 DUP7 DUP7 PUSH1 0x40 MLOAD DUP6 PUSH4 0xFFFFFFFF AND PUSH1 0xE0 SHL DUP2 MSTORE PUSH1 0x4 ADD PUSH2 0x1EE0 SWAP5 SWAP4 SWAP3 SWAP2 SWAP1 PUSH2 0x3DCE JUMP JUMPDEST PUSH1 0x20 PUSH1 0x40 MLOAD DUP1 DUP4 SUB DUP2 PUSH1 0x0 DUP8 GAS CALL SWAP3 POP POP POP DUP1 ISZERO PUSH2 0x1F1C JUMPI POP PUSH1 0x40 MLOAD RETURNDATASIZE PUSH1 0x1F NOT PUSH1 0x1F DUP3 ADD AND DUP3 ADD DUP1 PUSH1 0x40 MSTORE POP DUP2 ADD SWAP1 PUSH2 0x1F19 SWAP2 SWAP1 PUSH2 0x3E2F JUMP JUMPDEST PUSH1 0x1 JUMPDEST PUSH2 0x1F95 JUMPI RETURNDATASIZE DUP1 PUSH1 0x0 DUP2 EQ PUSH2 0x1F4C JUMPI PUSH1 0x40 MLOAD SWAP2 POP PUSH1 0x1F NOT PUSH1 0x3F RETURNDATASIZE ADD AND DUP3 ADD PUSH1 0x40 MSTORE RETURNDATASIZE DUP3 MSTORE RETURNDATASIZE PUSH1 0x0 PUSH1 0x20 DUP5 ADD RETURNDATACOPY PUSH2 0x1F51 JUMP JUMPDEST PUSH1 0x60 SWAP2 POP JUMPDEST POP PUSH1 0x0 DUP2 MLOAD SUB PUSH2 0x1F8D JUMPI PUSH1 0x40 MLOAD PUSH32 0xD1A57ED600000000000000000000000000000000000000000000000000000000 DUP2 MSTORE PUSH1 0x4 ADD PUSH1 0x40 MLOAD DUP1 SWAP2 SUB SWAP1 REVERT JUMPDEST DUP1 MLOAD DUP2 PUSH1 0x20 ADD REVERT JUMPDEST PUSH4 0x150B7A02 PUSH1 0xE0 SHL PUSH28 0xFFFFFFFFFFFFFFFFFFFFFFFFFFFFFFFFFFFFFFFFFFFFFFFFFFFFFFFF NOT AND DUP2 PUSH28 0xFFFFFFFFFFFFFFFFFFFFFFFFFFFFFFFFFFFFFFFFFFFFFFFFFFFFFFFF NOT AND EQ SWAP2 POP POP SWAP5 SWAP4 POP POP POP POP JUMP JUMPDEST PUSH1 0x60 PUSH1 0xA0 PUSH1 0x40 MLOAD ADD DUP1 PUSH1 0x40 MSTORE PUSH1 0x20 DUP2 SUB SWAP2 POP PUSH1 0x0 DUP3 MSTORE DUP2 DUP4 JUMPDEST PUSH1 0x1 ISZERO PUSH2 0x2023 JUMPI PUSH1 0x1 DUP5 SUB SWAP4 POP PUSH1 0xA DUP2 MOD PUSH1 0x30 ADD DUP5 MSTORE8 PUSH1 0xA DUP2 DIV SWAP1 POP DUP1 PUSH2 0x2001 JUMPI JUMPDEST POP DUP3 DUP2 SUB PUSH1 0x20 DUP5 SUB SWAP4 POP DUP1 DUP5 MSTORE POP POP POP SWAP2 SWAP1 POP JUMP JUMPDEST PUSH1 0x60 PUSH1 0x0 PUSH1 0x40 MLOAD DUP1 PUSH1 0x20 ADD PUSH1 0x40 MSTORE DUP1 PUSH1 0x0 DUP2 MSTORE POP SWAP1 POP PUSH1 0x0 JUMPDEST PUSH1 0x9 DUP2 LT ISZERO PUSH2 0x211E JUMPI PUSH1 0x0 JUMPDEST PUSH1 0x2 DUP2 LT ISZERO PUSH2 0x210A JUMPI DUP3 PUSH2 0x208B PUSH1 0x9 DUP5 PUSH1 0x9 DUP2 LT PUSH2 0x207E JUMPI PUSH2 0x207D PUSH2 0x3CDE JUMP JUMPDEST JUMPDEST PUSH1 0x3 MUL ADD PUSH1 0x0 ADD SLOAD PUSH2 0x1FE8 JUMP JUMPDEST PUSH2 0x20AF PUSH1 0x9 DUP6 PUSH1 0x9 DUP2 LT PUSH2 0x20A2 JUMPI PUSH2 0x20A1 PUSH2 0x3CDE JUMP JUMPDEST JUMPDEST PUSH1 0x3 MUL ADD PUSH1 0x1 ADD SLOAD PUSH2 0x1FE8 JUMP JUMPDEST PUSH2 0x20D3 PUSH1 0x9 DUP7 PUSH1 0x9 DUP2 LT PUSH2 0x20C6 JUMPI PUSH2 0x20C5 PUSH2 0x3CDE JUMP JUMPDEST JUMPDEST PUSH1 0x3 MUL ADD PUSH1 0x2 ADD SLOAD PUSH2 0x1FE8 JUMP JUMPDEST PUSH1 0x40 MLOAD PUSH1 0x20 ADD PUSH2 0x20E6 SWAP5 SWAP4 SWAP3 SWAP2 SWAP1 PUSH2 0x3F40 JUMP JUMPDEST PUSH1 0x40 MLOAD PUSH1 0x20 DUP2 DUP4 SUB SUB DUP2 MSTORE SWAP1 PUSH1 0x40 MSTORE SWAP3 POP DUP1 DUP1 PUSH2 0x2102 SWAP1 PUSH2 0x3719 JUMP JUMPDEST SWAP2 POP POP PUSH2 0x205D JUMP JUMPDEST POP DUP1 DUP1 PUSH2 0x2116 SWAP1 PUSH2 0x3719 JUMP JUMPDEST SWAP2 POP POP PUSH2 0x2051 JUMP JUMPDEST POP DUP1 PUSH2 0x2145 PUSH1 0x9 PUSH1 0x0 PUSH1 0x9 DUP2 LT PUSH2 0x2138 JUMPI PUSH2 0x2137 PUSH2 0x3CDE JUMP JUMPDEST JUMPDEST PUSH1 0x3 MUL ADD PUSH1 0x0 ADD SLOAD PUSH2 0x1FE8 JUMP JUMPDEST PUSH2 0x216A PUSH1 0x9 PUSH1 0x0 PUSH1 0x9 DUP2 LT PUSH2 0x215D JUMPI PUSH2 0x215C PUSH2 0x3CDE JUMP JUMPDEST JUMPDEST PUSH1 0x3 MUL ADD PUSH1 0x1 ADD SLOAD PUSH2 0x1FE8 JUMP JUMPDEST PUSH2 0x218F PUSH1 0x9 PUSH1 0x0 PUSH1 0x9 DUP2 LT PUSH2 0x2182 JUMPI PUSH2 0x2181 PUSH2 0x3CDE JUMP JUMPDEST JUMPDEST PUSH1 0x3 MUL ADD PUSH1 0x2 ADD SLOAD PUSH2 0x1FE8 JUMP JUMPDEST PUSH1 0x40 MLOAD PUSH1 0x20 ADD PUSH2 0x21A2 SWAP5 SWAP4 SWAP3 SWAP2 SWAP1 PUSH2 0x3F40 JUMP JUMPDEST PUSH1 0x40 MLOAD PUSH1 0x20 DUP2 DUP4 SUB SUB DUP2 MSTORE SWAP1 PUSH1 0x40 MSTORE SWAP1 POP PUSH2 0x21BF PUSH1 0x25 SLOAD DUP3 PUSH2 0x2349 JUMP JUMPDEST SWAP2 POP POP SWAP1 JUMP JUMPDEST PUSH1 0x60 PUSH1 0x0 DUP3 MLOAD SUB PUSH2 0x21E7 JUMPI PUSH1 0x40 MLOAD DUP1 PUSH1 0x20 ADD PUSH1 0x40 MSTORE DUP1 PUSH1 0x0 DUP2 MSTORE POP SWAP1 POP PUSH2 0x2323 JUMP JUMPDEST PUSH1 0x0 PUSH1 0x40 MLOAD DUP1 PUSH1 0x60 ADD PUSH1 0x40 MSTORE DUP1 PUSH1 0x40 DUP2 MSTORE PUSH1 0x20 ADD PUSH2 0x5AC2 PUSH1 0x40 SWAP2 CODECOPY SWAP1 POP PUSH1 0x0 PUSH1 0x3 PUSH1 0x2 DUP6 MLOAD PUSH2 0x2216 SWAP2 SWAP1 PUSH2 0x36E5 JUMP JUMPDEST PUSH2 0x2220 SWAP2 SWAP1 PUSH2 0x3790 JUMP JUMPDEST PUSH1 0x4 PUSH2 0x222C SWAP2 SWAP1 PUSH2 0x36A3 JUMP JUMPDEST PUSH8 0xFFFFFFFFFFFFFFFF DUP2 GT ISZERO PUSH2 0x2245 JUMPI PUSH2 0x2244 PUSH2 0x2D2C JUMP JUMPDEST JUMPDEST PUSH1 0x40 MLOAD SWAP1 DUP1 DUP3 MSTORE DUP1 PUSH1 0x1F ADD PUSH1 0x1F NOT AND PUSH1 0x20 ADD DUP3 ADD PUSH1 0x40 MSTORE DUP1 ISZERO PUSH2 0x2277 JUMPI DUP2 PUSH1 0x20 ADD PUSH1 0x1 DUP3 MUL DUP1 CALLDATASIZE DUP4 CALLDATACOPY DUP1 DUP3 ADD SWAP2 POP POP SWAP1 POP JUMPDEST POP SWAP1 POP PUSH1 0x1 DUP3 ADD PUSH1 0x20 DUP3 ADD DUP6 DUP7 MLOAD DUP8 ADD JUMPDEST DUP1 DUP3 LT ISZERO PUSH2 0x22E3 JUMPI PUSH1 0x3 DUP3 ADD SWAP2 POP DUP2 MLOAD PUSH1 0x3F DUP2 PUSH1 0x12 SHR AND DUP6 ADD MLOAD DUP5 MSTORE8 PUSH1 0x1 DUP5 ADD SWAP4 POP PUSH1 0x3F DUP2 PUSH1 0xC SHR AND DUP6 ADD MLOAD DUP5 MSTORE8 PUSH1 0x1 DUP5 ADD SWAP4 POP PUSH1 0x3F DUP2 PUSH1 0x6 SHR AND DUP6 ADD MLOAD DUP5 MSTORE8 PUSH1 0x1 DUP5 ADD SWAP4 POP PUSH1 0x3F DUP2 AND DUP6 ADD MLOAD DUP5 MSTORE8 PUSH1 0x1 DUP5 ADD SWAP4 POP POP PUSH2 0x2288 JUMP JUMPDEST POP POP PUSH1 0x3 DUP7 MLOAD MOD PUSH1 0x1 DUP2 EQ PUSH2 0x22FF JUMPI PUSH1 0x2 DUP2 EQ PUSH2 0x2312 JUMPI PUSH2 0x231A JUMP JUMPDEST PUSH1 0x3D PUSH1 0x1 DUP4 SUB MSTORE8 PUSH1 0x3D PUSH1 0x2 DUP4 SUB MSTORE8 PUSH2 0x231A JUMP JUMPDEST PUSH1 0x3D PUSH1 0x1 DUP4 SUB MSTORE8 JUMPDEST POP POP POP DUP1 SWAP3 POP POP POP JUMPDEST SWAP2 SWAP1 POP JUMP JUMPDEST PUSH1 0x0 SWAP4 SWAP3 POP POP POP JUMP JUMPDEST PUSH1 0x0 CALLER SWAP1 POP SWAP1 JUMP JUMPDEST PUSH1 0x0 PUSH1 0x1 DUP3 EQ PUSH1 0xE1 SHL SWAP1 POP SWAP2 SWAP1 POP JUMP JUMPDEST PUSH1 0x60 PUSH1 0x40 MLOAD DUP1 PUSH2 0x1060 ADD PUSH1 0x40 MSTORE DUP1 PUSH2 0x1035 DUP2 MSTORE PUSH1 0x20 ADD PUSH2 0x4A8D PUSH2 0x1035 SWAP2 CODECOPY SWAP1 POP PUSH1 0x0 PUSH1 0x40 MLOAD DUP1 PUSH1 0x40 ADD PUSH1 0x40 MSTORE DUP1 PUSH1 0x1F DUP2 MSTORE PUSH1 0x20 ADD PUSH32 0x222F3E3C2F673E3C7374796C653E2362677B66696C6C3A233043304330437D00 DUP2 MSTORE POP SWAP1 POP PUSH1 0x0 DUP5 SUB ISZERO PUSH2 0x25F2 JUMPI PUSH1 0x0 PUSH2 0x23B7 DUP6 PUSH2 0x261F JUMP JUMPDEST MLOAD SWAP1 POP PUSH1 0x0 PUSH2 0x23C6 DUP7 DUP4 PUSH2 0x27A7 JUMP JUMPDEST SWAP1 POP PUSH1 0x1 DUP3 SUB PUSH2 0x2407 JUMPI DUP3 PUSH2 0x23E0 PUSH1 0x3 DUP4 PUSH1 0x60 ADD MLOAD PUSH2 0x28DE JUMP JUMPDEST PUSH1 0x40 MLOAD PUSH1 0x20 ADD PUSH2 0x23F1 SWAP3 SWAP2 SWAP1 PUSH2 0x3FAA JUMP JUMPDEST PUSH1 0x40 MLOAD PUSH1 0x20 DUP2 DUP4 SUB SUB DUP2 MSTORE SWAP1 PUSH1 0x40 MSTORE SWAP3 POP PUSH2 0x25EF JUMP JUMPDEST PUSH1 0x2 DUP3 SUB PUSH2 0x2478 JUMPI DUP3 PUSH2 0x241F PUSH1 0x2 DUP4 PUSH1 0x40 ADD MLOAD PUSH2 0x28DE JUMP JUMPDEST PUSH1 0x40 MLOAD PUSH1 0x20 ADD PUSH2 0x2430 SWAP3 SWAP2 SWAP1 PUSH2 0x3FAA JUMP JUMPDEST PUSH1 0x40 MLOAD PUSH1 0x20 DUP2 DUP4 SUB SUB DUP2 MSTORE SWAP1 PUSH1 0x40 MSTORE SWAP3 POP DUP3 PUSH2 0x2451 PUSH1 0x3 DUP4 PUSH1 0x60 ADD MLOAD PUSH2 0x28DE JUMP JUMPDEST PUSH1 0x40 MLOAD PUSH1 0x20 ADD PUSH2 0x2462 SWAP3 SWAP2 SWAP1 PUSH2 0x3FAA JUMP JUMPDEST PUSH1 0x40 MLOAD PUSH1 0x20 DUP2 DUP4 SUB SUB DUP2 MSTORE SWAP1 PUSH1 0x40 MSTORE SWAP3 POP PUSH2 0x25EE JUMP JUMPDEST PUSH1 0x3 DUP3 SUB PUSH2 0x251B JUMPI DUP3 PUSH2 0x2490 PUSH1 0x1 DUP4 PUSH1 0x20 ADD MLOAD PUSH2 0x28DE JUMP JUMPDEST PUSH1 0x40 MLOAD PUSH1 0x20 ADD PUSH2 0x24A1 SWAP3 SWAP2 SWAP1 PUSH2 0x3FAA JUMP JUMPDEST PUSH1 0x40 MLOAD PUSH1 0x20 DUP2 DUP4 SUB SUB DUP2 MSTORE SWAP1 PUSH1 0x40 MSTORE SWAP3 POP DUP3 PUSH2 0x24C2 PUSH1 0x2 DUP4 PUSH1 0x40 ADD MLOAD PUSH2 0x28DE JUMP JUMPDEST PUSH1 0x40 MLOAD PUSH1 0x20 ADD PUSH2 0x24D3 SWAP3 SWAP2 SWAP1 PUSH2 0x3FAA JUMP JUMPDEST PUSH1 0x40 MLOAD PUSH1 0x20 DUP2 DUP4 SUB SUB DUP2 MSTORE SWAP1 PUSH1 0x40 MSTORE SWAP3 POP DUP3 PUSH2 0x24F4 PUSH1 0x3 DUP4 PUSH1 0x60 ADD MLOAD PUSH2 0x28DE JUMP JUMPDEST PUSH1 0x40 MLOAD PUSH1 0x20 ADD PUSH2 0x2505 SWAP3 SWAP2 SWAP1 PUSH2 0x3FAA JUMP JUMPDEST PUSH1 0x40 MLOAD PUSH1 0x20 DUP2 DUP4 SUB SUB DUP2 MSTORE SWAP1 PUSH1 0x40 MSTORE SWAP3 POP PUSH2 0x25ED JUMP JUMPDEST PUSH1 0x4 DUP3 SUB PUSH2 0x25EC JUMPI DUP3 PUSH2 0x2533 PUSH1 0x0 DUP4 PUSH1 0x0 ADD MLOAD PUSH2 0x28DE JUMP JUMPDEST PUSH1 0x40 MLOAD PUSH1 0x20 ADD PUSH2 0x2544 SWAP3 SWAP2 SWAP1 PUSH2 0x3FAA JUMP JUMPDEST PUSH1 0x40 MLOAD PUSH1 0x20 DUP2 DUP4 SUB SUB DUP2 MSTORE SWAP1 PUSH1 0x40 MSTORE SWAP3 POP DUP3 PUSH2 0x2565 PUSH1 0x1 DUP4 PUSH1 0x20 ADD MLOAD PUSH2 0x28DE JUMP JUMPDEST PUSH1 0x40 MLOAD PUSH1 0x20 ADD PUSH2 0x2576 SWAP3 SWAP2 SWAP1 PUSH2 0x3FAA JUMP JUMPDEST PUSH1 0x40 MLOAD PUSH1 0x20 DUP2 DUP4 SUB SUB DUP2 MSTORE SWAP1 PUSH1 0x40 MSTORE SWAP3 POP DUP3 PUSH2 0x2597 PUSH1 0x2 DUP4 PUSH1 0x40 ADD MLOAD PUSH2 0x28DE JUMP JUMPDEST PUSH1 0x40 MLOAD PUSH1 0x20 ADD PUSH2 0x25A8 SWAP3 SWAP2 SWAP1 PUSH2 0x3FAA JUMP JUMPDEST PUSH1 0x40 MLOAD PUSH1 0x20 DUP2 DUP4 SUB SUB DUP2 MSTORE SWAP1 PUSH1 0x40 MSTORE SWAP3 POP DUP3 PUSH2 0x25C9 PUSH1 0x3 DUP4 PUSH1 0x60 ADD MLOAD PUSH2 0x28DE JUMP JUMPDEST PUSH1 0x40 MLOAD PUSH1 0x20 ADD PUSH2 0x25DA SWAP3 SWAP2 SWAP1 PUSH2 0x3FAA JUMP JUMPDEST PUSH1 0x40 MLOAD PUSH1 0x20 DUP2 DUP4 SUB SUB DUP2 MSTORE SWAP1 PUSH1 0x40 MSTORE SWAP3 POP JUMPDEST JUMPDEST JUMPDEST JUMPDEST POP POP JUMPDEST DUP2 DUP4 DUP3 PUSH1 0x40 MLOAD PUSH1 0x20 ADD PUSH2 0x2607 SWAP4 SWAP3 SWAP2 SWAP1 PUSH2 0x401A JUMP JUMPDEST PUSH1 0x40 MLOAD PUSH1 0x20 DUP2 DUP4 SUB SUB DUP2 MSTORE SWAP1 PUSH1 0x40 MSTORE SWAP2 POP POP SWAP3 SWAP2 POP POP JUMP JUMPDEST PUSH1 0x60 PUSH1 0x0 DUP3 SUB PUSH2 0x2666 JUMPI PUSH1 0x40 MLOAD DUP1 PUSH1 0x40 ADD PUSH1 0x40 MSTORE DUP1 PUSH1 0x1 DUP2 MSTORE PUSH1 0x20 ADD PUSH32 0x3000000000000000000000000000000000000000000000000000000000000000 DUP2 MSTORE POP SWAP1 POP PUSH2 0x27A2 JUMP JUMPDEST PUSH1 0x0 DUP3 SWAP1 POP PUSH1 0x0 JUMPDEST PUSH1 0x0 DUP3 EQ PUSH2 0x2698 JUMPI DUP1 DUP1 PUSH2 0x2681 SWAP1 PUSH2 0x3719 JUMP JUMPDEST SWAP2 POP POP PUSH1 0xA DUP3 PUSH2 0x2691 SWAP2 SWAP1 PUSH2 0x3790 JUMP JUMPDEST SWAP2 POP PUSH2 0x266E JUMP JUMPDEST PUSH1 0x0 DUP2 PUSH8 0xFFFFFFFFFFFFFFFF DUP2 GT ISZERO PUSH2 0x26B4 JUMPI PUSH2 0x26B3 PUSH2 0x2D2C JUMP JUMPDEST JUMPDEST PUSH1 0x40 MLOAD SWAP1 DUP1 DUP3 MSTORE DUP1 PUSH1 0x1F ADD PUSH1 0x1F NOT AND PUSH1 0x20 ADD DUP3 ADD PUSH1 0x40 MSTORE DUP1 ISZERO PUSH2 0x26E6 JUMPI DUP2 PUSH1 0x20 ADD PUSH1 0x1 DUP3 MUL DUP1 CALLDATASIZE DUP4 CALLDATACOPY DUP1 DUP3 ADD SWAP2 POP POP SWAP1 POP JUMPDEST POP SWAP1 POP PUSH1 0x0 DUP3 SWAP1 POP JUMPDEST PUSH1 0x0 DUP7 EQ PUSH2 0x279A JUMPI PUSH1 0x1 DUP2 PUSH2 0x2704 SWAP2 SWAP1 PUSH2 0x3C68 JUMP JUMPDEST SWAP1 POP PUSH1 0x0 PUSH1 0xA DUP1 DUP9 PUSH2 0x2716 SWAP2 SWAP1 PUSH2 0x3790 JUMP JUMPDEST PUSH2 0x2720 SWAP2 SWAP1 PUSH2 0x36A3 JUMP JUMPDEST DUP8 PUSH2 0x272B SWAP2 SWAP1 PUSH2 0x3C68 JUMP JUMPDEST PUSH1 0x30 PUSH2 0x2737 SWAP2 SWAP1 PUSH2 0x4063 JUMP JUMPDEST SWAP1 POP PUSH1 0x0 DUP2 PUSH1 0xF8 SHL SWAP1 POP DUP1 DUP5 DUP5 DUP2 MLOAD DUP2 LT PUSH2 0x2755 JUMPI PUSH2 0x2754 PUSH2 0x3CDE JUMP JUMPDEST JUMPDEST PUSH1 0x20 ADD ADD SWAP1 PUSH31 0xFFFFFFFFFFFFFFFFFFFFFFFFFFFFFFFFFFFFFFFFFFFFFFFFFFFFFFFFFFFFFF NOT AND SWAP1 DUP2 PUSH1 0x0 BYTE SWAP1 MSTORE8 POP PUSH1 0xA DUP9 PUSH2 0x2791 SWAP2 SWAP1 PUSH2 0x3790 JUMP JUMPDEST SWAP8 POP POP POP PUSH2 0x26EF JUMP JUMPDEST DUP2 SWAP5 POP POP POP POP POP JUMPDEST SWAP2 SWAP1 POP JUMP JUMPDEST PUSH2 0x27AF PUSH2 0x2B5B JUMP JUMPDEST PUSH1 0x1 DUP3 SUB PUSH2 0x27C6 JUMPI DUP3 DUP2 PUSH1 0x60 ADD DUP2 DUP2 MSTORE POP POP PUSH2 0x28D8 JUMP JUMPDEST PUSH1 0x2 DUP3 SUB PUSH2 0x27FF JUMPI PUSH1 0xA DUP4 PUSH2 0x27DB SWAP2 SWAP1 PUSH2 0x3790 JUMP JUMPDEST DUP2 PUSH1 0x40 ADD DUP2 DUP2 MSTORE POP POP PUSH1 0xA DUP4 PUSH2 0x27F1 SWAP2 SWAP1 PUSH2 0x4098 JUMP JUMPDEST DUP2 PUSH1 0x60 ADD DUP2 DUP2 MSTORE POP POP PUSH2 0x28D7 JUMP JUMPDEST PUSH1 0x3 DUP3 SUB PUSH2 0x285A JUMPI PUSH1 0x64 DUP4 PUSH2 0x2814 SWAP2 SWAP1 PUSH2 0x3790 JUMP JUMPDEST DUP2 PUSH1 0x20 ADD DUP2 DUP2 MSTORE POP POP PUSH1 0xA PUSH1 0x64 DUP5 PUSH2 0x282C SWAP2 SWAP1 PUSH2 0x4098 JUMP JUMPDEST PUSH2 0x2836 SWAP2 SWAP1 PUSH2 0x3790 JUMP JUMPDEST DUP2 PUSH1 0x40 ADD DUP2 DUP2 MSTORE POP POP PUSH1 0xA DUP4 PUSH2 0x284C SWAP2 SWAP1 PUSH2 0x4098 JUMP JUMPDEST DUP2 PUSH1 0x60 ADD DUP2 DUP2 MSTORE POP POP PUSH2 0x28D6 JUMP JUMPDEST PUSH1 0x4 DUP3 SUB PUSH2 0x28D5 JUMPI PUSH2 0x3E8 DUP4 PUSH2 0x2870 SWAP2 SWAP1 PUSH2 0x3790 JUMP JUMPDEST DUP2 PUSH1 0x0 ADD DUP2 DUP2 MSTORE POP POP PUSH1 0x64 PUSH2 0x3E8 DUP5 PUSH2 0x2889 SWAP2 SWAP1 PUSH2 0x4098 JUMP JUMPDEST PUSH2 0x2893 SWAP2 SWAP1 PUSH2 0x3790 JUMP JUMPDEST DUP2 PUSH1 0x20 ADD DUP2 DUP2 MSTORE POP POP PUSH1 0xA PUSH1 0x64 DUP5 PUSH2 0x28AB SWAP2 SWAP1 PUSH2 0x4098 JUMP JUMPDEST PUSH2 0x28B5 SWAP2 SWAP1 PUSH2 0x3790 JUMP JUMPDEST DUP2 PUSH1 0x40 ADD DUP2 DUP2 MSTORE POP POP PUSH1 0xA DUP4 PUSH2 0x28CB SWAP2 SWAP1 PUSH2 0x4098 JUMP JUMPDEST DUP2 PUSH1 0x60 ADD DUP2 DUP2 MSTORE POP POP JUMPDEST JUMPDEST JUMPDEST JUMPDEST SWAP3 SWAP2 POP POP JUMP JUMPDEST PUSH1 0x60 PUSH1 0x0 PUSH2 0x28EB DUP5 PUSH2 0x261F JUMP JUMPDEST SWAP1 POP PUSH1 0x0 DUP4 SUB PUSH2 0x2927 JUMPI DUP1 DUP2 DUP3 DUP4 DUP5 DUP6 PUSH1 0x40 MLOAD PUSH1 0x20 ADD PUSH2 0x2910 SWAP7 SWAP6 SWAP5 SWAP4 SWAP3 SWAP2 SWAP1 PUSH2 0x42DD JUMP JUMPDEST PUSH1 0x40 MLOAD PUSH1 0x20 DUP2 DUP4 SUB SUB DUP2 MSTORE SWAP1 PUSH1 0x40 MSTORE SWAP2 POP POP PUSH2 0x2B55 JUMP JUMPDEST PUSH1 0x1 DUP4 SUB PUSH2 0x2959 JUMPI DUP1 DUP2 PUSH1 0x40 MLOAD PUSH1 0x20 ADD PUSH2 0x2942 SWAP3 SWAP2 SWAP1 PUSH2 0x4405 JUMP JUMPDEST PUSH1 0x40 MLOAD PUSH1 0x20 DUP2 DUP4 SUB SUB DUP2 MSTORE SWAP1 PUSH1 0x40 MSTORE SWAP2 POP POP PUSH2 0x2B55 JUMP JUMPDEST PUSH1 0x2 DUP4 SUB PUSH2 0x2991 JUMPI DUP1 DUP2 DUP3 DUP4 DUP5 PUSH1 0x40 MLOAD PUSH1 0x20 ADD PUSH2 0x297A SWAP6 SWAP5 SWAP4 SWAP3 SWAP2 SWAP1 PUSH2 0x44A1 JUMP JUMPDEST PUSH1 0x40 MLOAD PUSH1 0x20 DUP2 DUP4 SUB SUB DUP2 MSTORE SWAP1 PUSH1 0x40 MSTORE SWAP2 POP POP PUSH2 0x2B55 JUMP JUMPDEST PUSH1 0x3 DUP4 SUB PUSH2 0x29C9 JUMPI DUP1 DUP2 DUP3 DUP4 DUP5 PUSH1 0x40 MLOAD PUSH1 0x20 ADD PUSH2 0x29B2 SWAP6 SWAP5 SWAP4 SWAP3 SWAP2 SWAP1 PUSH2 0x455A JUMP JUMPDEST PUSH1 0x40 MLOAD PUSH1 0x20 DUP2 DUP4 SUB SUB DUP2 MSTORE SWAP1 PUSH1 0x40 MSTORE SWAP2 POP POP PUSH2 0x2B55 JUMP JUMPDEST PUSH1 0x4 DUP4 SUB PUSH2 0x29FF JUMPI DUP1 DUP2 DUP3 DUP4 PUSH1 0x40 MLOAD PUSH1 0x20 ADD PUSH2 0x29E8 SWAP5 SWAP4 SWAP3 SWAP2 SWAP1 PUSH2 0x4613 JUMP JUMPDEST PUSH1 0x40 MLOAD PUSH1 0x20 DUP2 DUP4 SUB SUB DUP2 MSTORE SWAP1 PUSH1 0x40 MSTORE SWAP2 POP POP PUSH2 0x2B55 JUMP JUMPDEST PUSH1 0x5 DUP4 SUB PUSH2 0x2A37 JUMPI DUP1 DUP2 DUP3 DUP4 DUP5 PUSH1 0x40 MLOAD PUSH1 0x20 ADD PUSH2 0x2A20 SWAP6 SWAP5 SWAP4 SWAP3 SWAP2 SWAP1 PUSH2 0x46A9 JUMP JUMPDEST PUSH1 0x40 MLOAD PUSH1 0x20 DUP2 DUP4 SUB SUB DUP2 MSTORE SWAP1 PUSH1 0x40 MSTORE SWAP2 POP POP PUSH2 0x2B55 JUMP JUMPDEST PUSH1 0x6 DUP4 SUB PUSH2 0x2A71 JUMPI DUP1 DUP2 DUP3 DUP4 DUP5 DUP6 PUSH1 0x40 MLOAD PUSH1 0x20 ADD PUSH2 0x2A5A SWAP7 SWAP6 SWAP5 SWAP4 SWAP3 SWAP2 SWAP1 PUSH2 0x4762 JUMP JUMPDEST PUSH1 0x40 MLOAD PUSH1 0x20 DUP2 DUP4 SUB SUB DUP2 MSTORE SWAP1 PUSH1 0x40 MSTORE SWAP2 POP POP PUSH2 0x2B55 JUMP JUMPDEST PUSH1 0x7 DUP4 SUB PUSH2 0x2AA5 JUMPI DUP1 DUP2 DUP3 PUSH1 0x40 MLOAD PUSH1 0x20 ADD PUSH2 0x2A8E SWAP4 SWAP3 SWAP2 SWAP1 PUSH2 0x483E JUMP JUMPDEST PUSH1 0x40 MLOAD PUSH1 0x20 DUP2 DUP4 SUB SUB DUP2 MSTORE SWAP1 PUSH1 0x40 MSTORE SWAP2 POP POP PUSH2 0x2B55 JUMP JUMPDEST PUSH1 0x8 DUP4 SUB PUSH2 0x2AE1 JUMPI DUP1 DUP2 DUP3 DUP4 DUP5 DUP6 DUP7 PUSH1 0x40 MLOAD PUSH1 0x20 ADD PUSH2 0x2ACA SWAP8 SWAP7 SWAP6 SWAP5 SWAP4 SWAP3 SWAP2 SWAP1 PUSH2 0x48B1 JUMP JUMPDEST PUSH1 0x40 MLOAD PUSH1 0x20 DUP2 DUP4 SUB SUB DUP2 MSTORE SWAP1 PUSH1 0x40 MSTORE SWAP2 POP POP PUSH2 0x2B55 JUMP JUMPDEST PUSH1 0x9 DUP4 SUB PUSH2 0x2B1B JUMPI DUP1 DUP2 DUP3 DUP4 DUP5 DUP6 PUSH1 0x40 MLOAD PUSH1 0x20 ADD PUSH2 0x2B04 SWAP7 SWAP6 SWAP5 SWAP4 SWAP3 SWAP2 SWAP1 PUSH2 0x49B0 JUMP JUMPDEST PUSH1 0x40 MLOAD PUSH1 0x20 DUP2 DUP4 SUB SUB DUP2 MSTORE SWAP1 PUSH1 0x40 MSTORE SWAP2 POP POP PUSH2 0x2B55 JUMP JUMPDEST PUSH1 0x40 MLOAD DUP1 PUSH1 0x40 ADD PUSH1 0x40 MSTORE DUP1 PUSH1 0x5 DUP2 MSTORE PUSH1 0x20 ADD PUSH32 0x6572726F72000000000000000000000000000000000000000000000000000000 DUP2 MSTORE POP SWAP2 POP POP JUMPDEST SWAP3 SWAP2 POP POP JUMP JUMPDEST PUSH1 0x40 MLOAD DUP1 PUSH1 0x80 ADD PUSH1 0x40 MSTORE DUP1 PUSH1 0x0 DUP2 MSTORE PUSH1 0x20 ADD PUSH1 0x0 DUP2 MSTORE PUSH1 0x20 ADD PUSH1 0x0 DUP2 MSTORE PUSH1 0x20 ADD PUSH1 0x0 DUP2 MSTORE POP SWAP1 JUMP JUMPDEST PUSH1 0x0 PUSH1 0x40 MLOAD SWAP1 POP SWAP1 JUMP JUMPDEST PUSH1 0x0 DUP1 REVERT JUMPDEST PUSH1 0x0 DUP1 REVERT JUMPDEST PUSH1 0x0 PUSH32 0xFFFFFFFF00000000000000000000000000000000000000000000000000000000 DUP3 AND SWAP1 POP SWAP2 SWAP1 POP JUMP JUMPDEST PUSH2 0x2BCC DUP2 PUSH2 0x2B97 JUMP JUMPDEST DUP2 EQ PUSH2 0x2BD7 JUMPI PUSH1 0x0 DUP1 REVERT JUMPDEST POP JUMP JUMPDEST PUSH1 0x0 DUP2 CALLDATALOAD SWAP1 POP PUSH2 0x2BE9 DUP2 PUSH2 0x2BC3 JUMP JUMPDEST SWAP3 SWAP2 POP POP JUMP JUMPDEST PUSH1 0x0 PUSH1 0x20 DUP3 DUP5 SUB SLT ISZERO PUSH2 0x2C05 JUMPI PUSH2 0x2C04 PUSH2 0x2B8D JUMP JUMPDEST JUMPDEST PUSH1 0x0 PUSH2 0x2C13 DUP5 DUP3 DUP6 ADD PUSH2 0x2BDA JUMP JUMPDEST SWAP2 POP POP SWAP3 SWAP2 POP POP JUMP JUMPDEST PUSH1 0x0 DUP2 ISZERO ISZERO SWAP1 POP SWAP2 SWAP1 POP JUMP JUMPDEST PUSH2 0x2C31 DUP2 PUSH2 0x2C1C JUMP JUMPDEST DUP3 MSTORE POP POP JUMP JUMPDEST PUSH1 0x0 PUSH1 0x20 DUP3 ADD SWAP1 POP PUSH2 0x2C4C PUSH1 0x0 DUP4 ADD DUP5 PUSH2 0x2C28 JUMP JUMPDEST SWAP3 SWAP2 POP POP JUMP JUMPDEST PUSH1 0x0 DUP2 SWAP1 POP SWAP2 SWAP1 POP JUMP JUMPDEST PUSH2 0x2C65 DUP2 PUSH2 0x2C52 JUMP JUMPDEST DUP2 EQ PUSH2 0x2C70 JUMPI PUSH1 0x0 DUP1 REVERT JUMPDEST POP JUMP JUMPDEST PUSH1 0x0 DUP2 CALLDATALOAD SWAP1 POP PUSH2 0x2C82 DUP2 PUSH2 0x2C5C JUMP JUMPDEST SWAP3 SWAP2 POP POP JUMP JUMPDEST PUSH1 0x0 PUSH1 0x20 DUP3 DUP5 SUB SLT ISZERO PUSH2 0x2C9E JUMPI PUSH2 0x2C9D PUSH2 0x2B8D JUMP JUMPDEST JUMPDEST PUSH1 0x0 PUSH2 0x2CAC DUP5 DUP3 DUP6 ADD PUSH2 0x2C73 JUMP JUMPDEST SWAP2 POP POP SWAP3 SWAP2 POP POP JUMP JUMPDEST PUSH2 0x2CBE DUP2 PUSH2 0x2C52 JUMP JUMPDEST DUP3 MSTORE POP POP JUMP JUMPDEST PUSH1 0x0 PUSH1 0x60 DUP3 ADD SWAP1 POP PUSH2 0x2CD9 PUSH1 0x0 DUP4 ADD DUP7 PUSH2 0x2CB5 JUMP JUMPDEST PUSH2 0x2CE6 PUSH1 0x20 DUP4 ADD DUP6 PUSH2 0x2CB5 JUMP JUMPDEST PUSH2 0x2CF3 PUSH1 0x40 DUP4 ADD DUP5 PUSH2 0x2CB5 JUMP JUMPDEST SWAP5 SWAP4 POP POP POP POP JUMP JUMPDEST PUSH1 0x0 PUSH1 0x20 DUP3 ADD SWAP1 POP PUSH2 0x2D10 PUSH1 0x0 DUP4 ADD DUP5 PUSH2 0x2CB5 JUMP JUMPDEST SWAP3 SWAP2 POP POP JUMP JUMPDEST PUSH1 0x0 DUP1 REVERT JUMPDEST PUSH1 0x0 PUSH1 0x1F NOT PUSH1 0x1F DUP4 ADD AND SWAP1 POP SWAP2 SWAP1 POP JUMP JUMPDEST PUSH32 0x4E487B7100000000000000000000000000000000000000000000000000000000 PUSH1 0x0 MSTORE PUSH1 0x41 PUSH1 0x4 MSTORE PUSH1 0x24 PUSH1 0x0 REVERT JUMPDEST PUSH2 0x2D64 DUP3 PUSH2 0x2D1B JUMP JUMPDEST DUP2 ADD DUP2 DUP2 LT PUSH8 0xFFFFFFFFFFFFFFFF DUP3 GT OR ISZERO PUSH2 0x2D83 JUMPI PUSH2 0x2D82 PUSH2 0x2D2C JUMP JUMPDEST JUMPDEST DUP1 PUSH1 0x40 MSTORE POP POP POP JUMP JUMPDEST PUSH1 0x0 PUSH2 0x2D96 PUSH2 0x2B83 JUMP JUMPDEST SWAP1 POP PUSH2 0x2DA2 DUP3 DUP3 PUSH2 0x2D5B JUMP JUMPDEST SWAP2 SWAP1 POP JUMP JUMPDEST PUSH1 0x0 PUSH1 0x60 DUP3 DUP5 SUB SLT ISZERO PUSH2 0x2DBD JUMPI PUSH2 0x2DBC PUSH2 0x2D16 JUMP JUMPDEST JUMPDEST PUSH2 0x2DC7 PUSH1 0x60 PUSH2 0x2D8C JUMP JUMPDEST SWAP1 POP PUSH1 0x0 PUSH2 0x2DD7 DUP5 DUP3 DUP6 ADD PUSH2 0x2C73 JUMP JUMPDEST PUSH1 0x0 DUP4 ADD MSTORE POP PUSH1 0x20 PUSH2 0x2DEB DUP5 DUP3 DUP6 ADD PUSH2 0x2C73 JUMP JUMPDEST PUSH1 0x20 DUP4 ADD MSTORE POP PUSH1 0x40 PUSH2 0x2DFF DUP5 DUP3 DUP6 ADD PUSH2 0x2C73 JUMP JUMPDEST PUSH1 0x40 DUP4 ADD MSTORE POP SWAP3 SWAP2 POP POP JUMP JUMPDEST PUSH1 0x0 DUP1 PUSH1 0x0 PUSH1 0xA0 DUP5 DUP7 SUB SLT ISZERO PUSH2 0x2E24 JUMPI PUSH2 0x2E23 PUSH2 0x2B8D JUMP JUMPDEST JUMPDEST PUSH1 0x0 PUSH2 0x2E32 DUP7 DUP3 DUP8 ADD PUSH2 0x2C73 JUMP JUMPDEST SWAP4 POP POP PUSH1 0x20 PUSH2 0x2E43 DUP7 DUP3 DUP8 ADD PUSH2 0x2C73 JUMP JUMPDEST SWAP3 POP POP PUSH1 0x40 PUSH2 0x2E54 DUP7 DUP3 DUP8 ADD PUSH2 0x2DA7 JUMP JUMPDEST SWAP2 POP POP SWAP3 POP SWAP3 POP SWAP3 JUMP JUMPDEST PUSH1 0x0 DUP2 MLOAD SWAP1 POP SWAP2 SWAP1 POP JUMP JUMPDEST PUSH1 0x0 DUP3 DUP3 MSTORE PUSH1 0x20 DUP3 ADD SWAP1 POP SWAP3 SWAP2 POP POP JUMP JUMPDEST PUSH1 0x0 JUMPDEST DUP4 DUP2 LT ISZERO PUSH2 0x2E98 JUMPI DUP1 DUP3 ADD MLOAD DUP2 DUP5 ADD MSTORE PUSH1 0x20 DUP2 ADD SWAP1 POP PUSH2 0x2E7D JUMP JUMPDEST PUSH1 0x0 DUP5 DUP5 ADD MSTORE POP POP POP POP JUMP JUMPDEST PUSH1 0x0 PUSH2 0x2EAF DUP3 PUSH2 0x2E5E JUMP JUMPDEST PUSH2 0x2EB9 DUP2 DUP6 PUSH2 0x2E69 JUMP JUMPDEST SWAP4 POP PUSH2 0x2EC9 DUP2 DUP6 PUSH1 0x20 DUP7 ADD PUSH2 0x2E7A JUMP JUMPDEST PUSH2 0x2ED2 DUP2 PUSH2 0x2D1B JUMP JUMPDEST DUP5 ADD SWAP2 POP POP SWAP3 SWAP2 POP POP JUMP JUMPDEST PUSH1 0x0 PUSH1 0x20 DUP3 ADD SWAP1 POP DUP2 DUP2 SUB PUSH1 0x0 DUP4 ADD MSTORE PUSH2 0x2EF7 DUP2 DUP5 PUSH2 0x2EA4 JUMP JUMPDEST SWAP1 POP SWAP3 SWAP2 POP POP JUMP JUMPDEST PUSH1 0x0 PUSH20 0xFFFFFFFFFFFFFFFFFFFFFFFFFFFFFFFFFFFFFFFF DUP3 AND SWAP1 POP SWAP2 SWAP1 POP JUMP JUMPDEST PUSH1 0x0 PUSH2 0x2F2A DUP3 PUSH2 0x2EFF JUMP JUMPDEST SWAP1 POP SWAP2 SWAP1 POP JUMP JUMPDEST PUSH2 0x2F3A DUP2 PUSH2 0x2F1F JUMP JUMPDEST DUP3 MSTORE POP POP JUMP JUMPDEST PUSH1 0x0 PUSH1 0x20 DUP3 ADD SWAP1 POP PUSH2 0x2F55 PUSH1 0x0 DUP4 ADD DUP5 PUSH2 0x2F31 JUMP JUMPDEST SWAP3 SWAP2 POP POP JUMP JUMPDEST PUSH2 0x2F64 DUP2 PUSH2 0x2F1F JUMP JUMPDEST DUP2 EQ PUSH2 0x2F6F JUMPI PUSH1 0x0 DUP1 REVERT JUMPDEST POP JUMP JUMPDEST PUSH1 0x0 DUP2 CALLDATALOAD SWAP1 POP PUSH2 0x2F81 DUP2 PUSH2 0x2F5B JUMP JUMPDEST SWAP3 SWAP2 POP POP JUMP JUMPDEST PUSH1 0x0 DUP1 PUSH1 0x40 DUP4 DUP6 SUB SLT ISZERO PUSH2 0x2F9E JUMPI PUSH2 0x2F9D PUSH2 0x2B8D JUMP JUMPDEST JUMPDEST PUSH1 0x0 PUSH2 0x2FAC DUP6 DUP3 DUP7 ADD PUSH2 0x2F72 JUMP JUMPDEST SWAP3 POP POP PUSH1 0x20 PUSH2 0x2FBD DUP6 DUP3 DUP7 ADD PUSH2 0x2C73 JUMP JUMPDEST SWAP2 POP POP SWAP3 POP SWAP3 SWAP1 POP JUMP JUMPDEST PUSH1 0x0 DUP1 PUSH1 0x0 PUSH1 0x60 DUP5 DUP7 SUB SLT ISZERO PUSH2 0x2FE0 JUMPI PUSH2 0x2FDF PUSH2 0x2B8D JUMP JUMPDEST JUMPDEST PUSH1 0x0 PUSH2 0x2FEE DUP7 DUP3 DUP8 ADD PUSH2 0x2F72 JUMP JUMPDEST SWAP4 POP POP PUSH1 0x20 PUSH2 0x2FFF DUP7 DUP3 DUP8 ADD PUSH2 0x2F72 JUMP JUMPDEST SWAP3 POP POP PUSH1 0x40 PUSH2 0x3010 DUP7 DUP3 DUP8 ADD PUSH2 0x2C73 JUMP JUMPDEST SWAP2 POP POP SWAP3 POP SWAP3 POP SWAP3 JUMP JUMPDEST PUSH1 0x0 PUSH1 0x20 DUP3 DUP5 SUB SLT ISZERO PUSH2 0x3030 JUMPI PUSH2 0x302F PUSH2 0x2B8D JUMP JUMPDEST JUMPDEST PUSH1 0x0 PUSH2 0x303E DUP5 DUP3 DUP6 ADD PUSH2 0x2F72 JUMP JUMPDEST SWAP2 POP POP SWAP3 SWAP2 POP POP JUMP JUMPDEST PUSH2 0x3050 DUP2 PUSH2 0x2C1C JUMP JUMPDEST DUP2 EQ PUSH2 0x305B JUMPI PUSH1 0x0 DUP1 REVERT JUMPDEST POP JUMP JUMPDEST PUSH1 0x0 DUP2 CALLDATALOAD SWAP1 POP PUSH2 0x306D DUP2 PUSH2 0x3047 JUMP JUMPDEST SWAP3 SWAP2 POP POP JUMP JUMPDEST PUSH1 0x0 DUP1 PUSH1 0x40 DUP4 DUP6 SUB SLT ISZERO PUSH2 0x308A JUMPI PUSH2 0x3089 PUSH2 0x2B8D JUMP JUMPDEST JUMPDEST PUSH1 0x0 PUSH2 0x3098 DUP6 DUP3 DUP7 ADD PUSH2 0x2F72 JUMP JUMPDEST SWAP3 POP POP PUSH1 0x20 PUSH2 0x30A9 DUP6 DUP3 DUP7 ADD PUSH2 0x305E JUMP JUMPDEST SWAP2 POP POP SWAP3 POP SWAP3 SWAP1 POP JUMP JUMPDEST PUSH1 0x0 DUP1 REVERT JUMPDEST PUSH1 0x0 DUP1 REVERT JUMPDEST PUSH1 0x0 PUSH8 0xFFFFFFFFFFFFFFFF DUP3 GT ISZERO PUSH2 0x30D8 JUMPI PUSH2 0x30D7 PUSH2 0x2D2C JUMP JUMPDEST JUMPDEST PUSH2 0x30E1 DUP3 PUSH2 0x2D1B JUMP JUMPDEST SWAP1 POP PUSH1 0x20 DUP2 ADD SWAP1 POP SWAP2 SWAP1 POP JUMP JUMPDEST DUP3 DUP2 DUP4 CALLDATACOPY PUSH1 0x0 DUP4 DUP4 ADD MSTORE POP POP POP JUMP JUMPDEST PUSH1 0x0 PUSH2 0x3110 PUSH2 0x310B DUP5 PUSH2 0x30BD JUMP JUMPDEST PUSH2 0x2D8C JUMP JUMPDEST SWAP1 POP DUP3 DUP2 MSTORE PUSH1 0x20 DUP2 ADD DUP5 DUP5 DUP5 ADD GT ISZERO PUSH2 0x312C JUMPI PUSH2 0x312B PUSH2 0x30B8 JUMP JUMPDEST JUMPDEST PUSH2 0x3137 DUP5 DUP3 DUP6 PUSH2 0x30EE JUMP JUMPDEST POP SWAP4 SWAP3 POP POP POP JUMP JUMPDEST PUSH1 0x0 DUP3 PUSH1 0x1F DUP4 ADD SLT PUSH2 0x3154 JUMPI PUSH2 0x3153 PUSH2 0x30B3 JUMP JUMPDEST JUMPDEST DUP2 CALLDATALOAD PUSH2 0x3164 DUP5 DUP3 PUSH1 0x20 DUP7 ADD PUSH2 0x30FD JUMP JUMPDEST SWAP2 POP POP SWAP3 SWAP2 POP POP JUMP JUMPDEST PUSH1 0x0 DUP1 PUSH1 0x0 DUP1 PUSH1 0x80 DUP6 DUP8 SUB SLT ISZERO PUSH2 0x3187 JUMPI PUSH2 0x3186 PUSH2 0x2B8D JUMP JUMPDEST JUMPDEST PUSH1 0x0 PUSH2 0x3195 DUP8 DUP3 DUP9 ADD PUSH2 0x2F72 JUMP JUMPDEST SWAP5 POP POP PUSH1 0x20 PUSH2 0x31A6 DUP8 DUP3 DUP9 ADD PUSH2 0x2F72 JUMP JUMPDEST SWAP4 POP POP PUSH1 0x40 PUSH2 0x31B7 DUP8 DUP3 DUP9 ADD PUSH2 0x2C73 JUMP JUMPDEST SWAP3 POP POP PUSH1 0x60 DUP6 ADD CALLDATALOAD PUSH8 0xFFFFFFFFFFFFFFFF DUP2 GT ISZERO PUSH2 0x31D8 JUMPI PUSH2 0x31D7 PUSH2 0x2B92 JUMP JUMPDEST JUMPDEST PUSH2 0x31E4 DUP8 DUP3 DUP9 ADD PUSH2 0x313F JUMP JUMPDEST SWAP2 POP POP SWAP3 SWAP6 SWAP2 SWAP5 POP SWAP3 POP JUMP JUMPDEST PUSH1 0x0 DUP1 PUSH1 0x40 DUP4 DUP6 SUB SLT ISZERO PUSH2 0x3207 JUMPI PUSH2 0x3206 PUSH2 0x2B8D JUMP JUMPDEST JUMPDEST PUSH1 0x0 PUSH2 0x3215 DUP6 DUP3 DUP7 ADD PUSH2 0x2F72 JUMP JUMPDEST SWAP3 POP POP PUSH1 0x20 PUSH2 0x3226 DUP6 DUP3 DUP7 ADD PUSH2 0x2F72 JUMP JUMPDEST SWAP2 POP POP SWAP3 POP SWAP3 SWAP1 POP JUMP JUMPDEST PUSH32 0x43616E6E6F742062726F61646361737420756E74696C206D696E742069732063 PUSH1 0x0 DUP3 ADD MSTORE PUSH32 0x6C6F736564000000000000000000000000000000000000000000000000000000 PUSH1 0x20 DUP3 ADD MSTORE POP JUMP JUMPDEST PUSH1 0x0 PUSH2 0x328C PUSH1 0x25 DUP4 PUSH2 0x2E69 JUMP JUMPDEST SWAP2 POP PUSH2 0x3297 DUP3 PUSH2 0x3230 JUMP JUMPDEST PUSH1 0x40 DUP3 ADD SWAP1 POP SWAP2 SWAP1 POP JUMP JUMPDEST PUSH1 0x0 PUSH1 0x20 DUP3 ADD SWAP1 POP DUP2 DUP2 SUB PUSH1 0x0 DUP4 ADD MSTORE PUSH2 0x32BB DUP2 PUSH2 0x327F JUMP JUMPDEST SWAP1 POP SWAP2 SWAP1 POP JUMP JUMPDEST PUSH32 0x4D757374206F776E207468652055494E5453207573656420746F2062726F6164 PUSH1 0x0 DUP3 ADD MSTORE PUSH32 0x6361737400000000000000000000000000000000000000000000000000000000 PUSH1 0x20 DUP3 ADD MSTORE POP JUMP JUMPDEST PUSH1 0x0 PUSH2 0x331E PUSH1 0x24 DUP4 PUSH2 0x2E69 JUMP JUMPDEST SWAP2 POP PUSH2 0x3329 DUP3 PUSH2 0x32C2 JUMP JUMPDEST PUSH1 0x40 DUP3 ADD SWAP1 POP SWAP2 SWAP1 POP JUMP JUMPDEST PUSH1 0x0 PUSH1 0x20 DUP3 ADD SWAP1 POP DUP2 DUP2 SUB PUSH1 0x0 DUP4 ADD MSTORE PUSH2 0x334D DUP2 PUSH2 0x3311 JUMP JUMPDEST SWAP1 POP SWAP2 SWAP1 POP JUMP JUMPDEST PUSH32 0x546869732055494E54532068617320616C7265616479206265656E2075736564 PUSH1 0x0 DUP3 ADD MSTORE PUSH32 0x20746F2062726F61646361737400000000000000000000000000000000000000 PUSH1 0x20 DUP3 ADD MSTORE POP JUMP JUMPDEST PUSH1 0x0 PUSH2 0x33B0 PUSH1 0x2D DUP4 PUSH2 0x2E69 JUMP JUMPDEST SWAP2 POP PUSH2 0x33BB DUP3 PUSH2 0x3354 JUMP JUMPDEST PUSH1 0x40 DUP3 ADD SWAP1 POP SWAP2 SWAP1 POP JUMP JUMPDEST PUSH1 0x0 PUSH1 0x20 DUP3 ADD SWAP1 POP DUP2 DUP2 SUB PUSH1 0x0 DUP4 ADD MSTORE PUSH2 0x33DF DUP2 PUSH2 0x33A3 JUMP JUMPDEST SWAP1 POP SWAP2 SWAP1 POP JUMP JUMPDEST PUSH32 0x4E756D626572206D757374206265206C657373207468616E206F722065717561 PUSH1 0x0 DUP3 ADD MSTORE PUSH32 0x6C20746F207468652055494E54532076616C7565000000000000000000000000 PUSH1 0x20 DUP3 ADD MSTORE POP JUMP JUMPDEST PUSH1 0x0 PUSH2 0x3442 PUSH1 0x34 DUP4 PUSH2 0x2E69 JUMP JUMPDEST SWAP2 POP PUSH2 0x344D DUP3 PUSH2 0x33E6 JUMP JUMPDEST PUSH1 0x40 DUP3 ADD SWAP1 POP SWAP2 SWAP1 POP JUMP JUMPDEST PUSH1 0x0 PUSH1 0x20 DUP3 ADD SWAP1 POP DUP2 DUP2 SUB PUSH1 0x0 DUP4 ADD MSTORE PUSH2 0x3471 DUP2 PUSH2 0x3435 JUMP JUMPDEST SWAP1 POP SWAP2 SWAP1 POP JUMP JUMPDEST PUSH32 0x55494E5453206D75737420686176652061206E756D6265722067726561746572 PUSH1 0x0 DUP3 ADD MSTORE PUSH32 0x207468616E203900000000000000000000000000000000000000000000000000 PUSH1 0x20 DUP3 ADD MSTORE POP JUMP JUMPDEST PUSH1 0x0 PUSH2 0x34D4 PUSH1 0x27 DUP4 PUSH2 0x2E69 JUMP JUMPDEST SWAP2 POP PUSH2 0x34DF DUP3 PUSH2 0x3478 JUMP JUMPDEST PUSH1 0x40 DUP3 ADD SWAP1 POP SWAP2 SWAP1 POP JUMP JUMPDEST PUSH1 0x0 PUSH1 0x20 DUP3 ADD SWAP1 POP DUP2 DUP2 SUB PUSH1 0x0 DUP4 ADD MSTORE PUSH2 0x3503 DUP2 PUSH2 0x34C7 JUMP JUMPDEST SWAP1 POP SWAP2 SWAP1 POP JUMP JUMPDEST PUSH32 0x42726F616463617374206E756D626572206D757374206265206265747765656E PUSH1 0x0 DUP3 ADD MSTORE PUSH32 0x203120616E642039393939000000000000000000000000000000000000000000 PUSH1 0x20 DUP3 ADD MSTORE POP JUMP JUMPDEST PUSH1 0x0 PUSH2 0x3566 PUSH1 0x2B DUP4 PUSH2 0x2E69 JUMP JUMPDEST SWAP2 POP PUSH2 0x3571 DUP3 PUSH2 0x350A JUMP JUMPDEST PUSH1 0x40 DUP3 ADD SWAP1 POP SWAP2 SWAP1 POP JUMP JUMPDEST PUSH1 0x0 PUSH1 0x20 DUP3 ADD SWAP1 POP DUP2 DUP2 SUB PUSH1 0x0 DUP4 ADD MSTORE PUSH2 0x3595 DUP2 PUSH2 0x3559 JUMP JUMPDEST SWAP1 POP SWAP2 SWAP1 POP JUMP JUMPDEST PUSH32 0x42726F616463617374696E672069732063757272656E746C79206C6F636B6564 PUSH1 0x0 DUP3 ADD MSTORE POP JUMP JUMPDEST PUSH1 0x0 PUSH2 0x35D2 PUSH1 0x20 DUP4 PUSH2 0x2E69 JUMP JUMPDEST SWAP2 POP PUSH2 0x35DD DUP3 PUSH2 0x359C JUMP JUMPDEST PUSH1 0x20 DUP3 ADD SWAP1 POP SWAP2 SWAP1 POP JUMP JUMPDEST PUSH1 0x0 PUSH1 0x20 DUP3 ADD SWAP1 POP DUP2 DUP2 SUB PUSH1 0x0 DUP4 ADD MSTORE PUSH2 0x3601 DUP2 PUSH2 0x35C5 JUMP JUMPDEST SWAP1 POP SWAP2 SWAP1 POP JUMP JUMPDEST PUSH32 0x436F6C6F727320617265206E6F742076616C6964000000000000000000000000 PUSH1 0x0 DUP3 ADD MSTORE POP JUMP JUMPDEST PUSH1 0x0 PUSH2 0x363E PUSH1 0x14 DUP4 PUSH2 0x2E69 JUMP JUMPDEST SWAP2 POP PUSH2 0x3649 DUP3 PUSH2 0x3608 JUMP JUMPDEST PUSH1 0x20 DUP3 ADD SWAP1 POP SWAP2 SWAP1 POP JUMP JUMPDEST PUSH1 0x0 PUSH1 0x20 DUP3 ADD SWAP1 POP DUP2 DUP2 SUB PUSH1 0x0 DUP4 ADD MSTORE PUSH2 0x366D DUP2 PUSH2 0x3631 JUMP JUMPDEST SWAP1 POP SWAP2 SWAP1 POP JUMP JUMPDEST PUSH32 0x4E487B7100000000000000000000000000000000000000000000000000000000 PUSH1 0x0 MSTORE PUSH1 0x11 PUSH1 0x4 MSTORE PUSH1 0x24 PUSH1 0x0 REVERT JUMPDEST PUSH1 0x0 PUSH2 0x36AE DUP3 PUSH2 0x2C52 JUMP JUMPDEST SWAP2 POP PUSH2 0x36B9 DUP4 PUSH2 0x2C52 JUMP JUMPDEST SWAP3 POP DUP3 DUP3 MUL PUSH2 0x36C7 DUP2 PUSH2 0x2C52 JUMP JUMPDEST SWAP2 POP DUP3 DUP3 DIV DUP5 EQ DUP4 ISZERO OR PUSH2 0x36DE JUMPI PUSH2 0x36DD PUSH2 0x3674 JUMP JUMPDEST JUMPDEST POP SWAP3 SWAP2 POP POP JUMP JUMPDEST PUSH1 0x0 PUSH2 0x36F0 DUP3 PUSH2 0x2C52 JUMP JUMPDEST SWAP2 POP PUSH2 0x36FB DUP4 PUSH2 0x2C52 JUMP JUMPDEST SWAP3 POP DUP3 DUP3 ADD SWAP1 POP DUP1 DUP3 GT ISZERO PUSH2 0x3713 JUMPI PUSH2 0x3712 PUSH2 0x3674 JUMP JUMPDEST JUMPDEST SWAP3 SWAP2 POP POP JUMP JUMPDEST PUSH1 0x0 PUSH2 0x3724 DUP3 PUSH2 0x2C52 JUMP JUMPDEST SWAP2 POP PUSH32 0xFFFFFFFFFFFFFFFFFFFFFFFFFFFFFFFFFFFFFFFFFFFFFFFFFFFFFFFFFFFFFFFF DUP3 SUB PUSH2 0x3756 JUMPI PUSH2 0x3755 PUSH2 0x3674 JUMP JUMPDEST JUMPDEST PUSH1 0x1 DUP3 ADD SWAP1 POP SWAP2 SWAP1 POP JUMP JUMPDEST PUSH32 0x4E487B7100000000000000000000000000000000000000000000000000000000 PUSH1 0x0 MSTORE PUSH1 0x12 PUSH1 0x4 MSTORE PUSH1 0x24 PUSH1 0x0 REVERT JUMPDEST PUSH1 0x0 PUSH2 0x379B DUP3 PUSH2 0x2C52 JUMP JUMPDEST SWAP2 POP PUSH2 0x37A6 DUP4 PUSH2 0x2C52 JUMP JUMPDEST SWAP3 POP DUP3 PUSH2 0x37B6 JUMPI PUSH2 0x37B5 PUSH2 0x3761 JUMP JUMPDEST JUMPDEST DUP3 DUP3 DIV SWAP1 POP SWAP3 SWAP2 POP POP JUMP JUMPDEST PUSH1 0x0 PUSH2 0x140 DUP3 ADD SWAP1 POP PUSH2 0x37D7 PUSH1 0x0 DUP4 ADD DUP14 PUSH2 0x2CB5 JUMP JUMPDEST PUSH2 0x37E4 PUSH1 0x20 DUP4 ADD DUP13 PUSH2 0x2CB5 JUMP JUMPDEST PUSH2 0x37F1 PUSH1 0x40 DUP4 ADD DUP12 PUSH2 0x2CB5 JUMP JUMPDEST PUSH2 0x37FE PUSH1 0x60 DUP4 ADD DUP11 PUSH2 0x2CB5 JUMP JUMPDEST PUSH2 0x380B PUSH1 0x80 DUP4 ADD DUP10 PUSH2 0x2F31 JUMP JUMPDEST PUSH2 0x3818 PUSH1 0xA0 DUP4 ADD DUP9 PUSH2 0x2CB5 JUMP JUMPDEST PUSH2 0x3825 PUSH1 0xC0 DUP4 ADD DUP8 PUSH2 0x2CB5 JUMP JUMPDEST PUSH2 0x3832 PUSH1 0xE0 DUP4 ADD DUP7 PUSH2 0x2CB5 JUMP JUMPDEST PUSH2 0x3840 PUSH2 0x100 DUP4 ADD DUP6 PUSH2 0x2CB5 JUMP JUMPDEST PUSH2 0x384E PUSH2 0x120 DUP4 ADD DUP5 PUSH2 0x2CB5 JUMP JUMPDEST SWAP12 SWAP11 POP POP POP POP POP POP POP POP POP POP POP JUMP JUMPDEST PUSH32 0x4E487B7100000000000000000000000000000000000000000000000000000000 PUSH1 0x0 MSTORE PUSH1 0x22 PUSH1 0x4 MSTORE PUSH1 0x24 PUSH1 0x0 REVERT JUMPDEST PUSH1 0x0 PUSH1 0x2 DUP3 DIV SWAP1 POP PUSH1 0x1 DUP3 AND DUP1 PUSH2 0x38A4 JUMPI PUSH1 0x7F DUP3 AND SWAP2 POP JUMPDEST PUSH1 0x20 DUP3 LT DUP2 SUB PUSH2 0x38B7 JUMPI PUSH2 0x38B6 PUSH2 0x385D JUMP JUMPDEST JUMPDEST POP SWAP2 SWAP1 POP JUMP JUMPDEST PUSH1 0x0 DUP2 MLOAD SWAP1 POP PUSH2 0x38CC DUP2 PUSH2 0x2C5C JUMP JUMPDEST SWAP3 SWAP2 POP POP JUMP JUMPDEST PUSH1 0x0 PUSH1 0x20 DUP3 DUP5 SUB SLT ISZERO PUSH2 0x38E8 JUMPI PUSH2 0x38E7 PUSH2 0x2B8D JUMP JUMPDEST JUMPDEST PUSH1 0x0 PUSH2 0x38F6 DUP5 DUP3 DUP6 ADD PUSH2 0x38BD JUMP JUMPDEST SWAP2 POP POP SWAP3 SWAP2 POP POP JUMP JUMPDEST PUSH32 0x4D696E7420697320636C6F736564000000000000000000000000000000000000 PUSH1 0x0 DUP3 ADD MSTORE POP JUMP JUMPDEST PUSH1 0x0 PUSH2 0x3935 PUSH1 0xE DUP4 PUSH2 0x2E69 JUMP JUMPDEST SWAP2 POP PUSH2 0x3940 DUP3 PUSH2 0x38FF JUMP JUMPDEST PUSH1 0x20 DUP3 ADD SWAP1 POP SWAP2 SWAP1 POP JUMP JUMPDEST PUSH1 0x0 PUSH1 0x20 DUP3 ADD SWAP1 POP DUP2 DUP2 SUB PUSH1 0x0 DUP4 ADD MSTORE PUSH2 0x3964 DUP2 PUSH2 0x3928 JUMP JUMPDEST SWAP1 POP SWAP2 SWAP1 POP JUMP JUMPDEST PUSH1 0x0 DUP2 SWAP1 POP SWAP3 SWAP2 POP POP JUMP JUMPDEST PUSH32 0x7B226E616D65223A202255494E54532045646974696F6E200000000000000000 PUSH1 0x0 DUP3 ADD MSTORE POP JUMP JUMPDEST PUSH1 0x0 PUSH2 0x39AC PUSH1 0x18 DUP4 PUSH2 0x396B JUMP JUMPDEST SWAP2 POP PUSH2 0x39B7 DUP3 PUSH2 0x3976 JUMP JUMPDEST PUSH1 0x18 DUP3 ADD SWAP1 POP SWAP2 SWAP1 POP JUMP JUMPDEST PUSH1 0x0 PUSH2 0x39CD DUP3 PUSH2 0x2E5E JUMP JUMPDEST PUSH2 0x39D7 DUP2 DUP6 PUSH2 0x396B JUMP JUMPDEST SWAP4 POP PUSH2 0x39E7 DUP2 DUP6 PUSH1 0x20 DUP7 ADD PUSH2 0x2E7A JUMP JUMPDEST DUP1 DUP5 ADD SWAP2 POP POP SWAP3 SWAP2 POP POP JUMP JUMPDEST PUSH32 0x222C20226465736372697074696F6E223A20224E756D62657273206172652061 PUSH1 0x0 DUP3 ADD MSTORE PUSH32 0x72742C20616E642077652061726520617274697374732E20546865206D657461 PUSH1 0x20 DUP3 ADD MSTORE PUSH32 0x6461746120666F722055494E54532045646974696F6E73206172652073657420 PUSH1 0x40 DUP3 ADD MSTORE PUSH32 0x62792055494E545320686F6C646572732E222C2022696D616765223A20226461 PUSH1 0x60 DUP3 ADD MSTORE PUSH32 0x74613A696D6167652F7376672B786D6C3B6261736536342C0000000000000000 PUSH1 0x80 DUP3 ADD MSTORE POP JUMP JUMPDEST PUSH1 0x0 PUSH2 0x3AC1 PUSH1 0x98 DUP4 PUSH2 0x396B JUMP JUMPDEST SWAP2 POP PUSH2 0x3ACC DUP3 PUSH2 0x39F3 JUMP JUMPDEST PUSH1 0x98 DUP3 ADD SWAP1 POP SWAP2 SWAP1 POP JUMP JUMPDEST PUSH32 0x227D000000000000000000000000000000000000000000000000000000000000 PUSH1 0x0 DUP3 ADD MSTORE POP JUMP JUMPDEST PUSH1 0x0 PUSH2 0x3B0D PUSH1 0x2 DUP4 PUSH2 0x396B JUMP JUMPDEST SWAP2 POP PUSH2 0x3B18 DUP3 PUSH2 0x3AD7 JUMP JUMPDEST PUSH1 0x2 DUP3 ADD SWAP1 POP SWAP2 SWAP1 POP JUMP JUMPDEST PUSH1 0x0 PUSH2 0x3B2E DUP3 PUSH2 0x399F JUMP JUMPDEST SWAP2 POP PUSH2 0x3B3A DUP3 DUP6 PUSH2 0x39C2 JUMP JUMPDEST SWAP2 POP PUSH2 0x3B45 DUP3 PUSH2 0x3AB4 JUMP JUMPDEST SWAP2 POP PUSH2 0x3B51 DUP3 DUP5 PUSH2 0x39C2 JUMP JUMPDEST SWAP2 POP PUSH2 0x3B5C DUP3 PUSH2 0x3B00 JUMP JUMPDEST SWAP2 POP DUP2 SWAP1 POP SWAP4 SWAP3 POP POP POP JUMP JUMPDEST PUSH32 0x646174613A6170706C69636174696F6E2F6A736F6E3B6261736536342C000000 PUSH1 0x0 DUP3 ADD MSTORE POP JUMP JUMPDEST PUSH1 0x0 PUSH2 0x3B9E PUSH1 0x1D DUP4 PUSH2 0x396B JUMP JUMPDEST SWAP2 POP PUSH2 0x3BA9 DUP3 PUSH2 0x3B68 JUMP JUMPDEST PUSH1 0x1D DUP3 ADD SWAP1 POP SWAP2 SWAP1 POP JUMP JUMPDEST PUSH1 0x0 PUSH2 0x3BBF DUP3 PUSH2 0x3B91 JUMP JUMPDEST SWAP2 POP PUSH2 0x3BCB DUP3 DUP5 PUSH2 0x39C2 JUMP JUMPDEST SWAP2 POP DUP2 SWAP1 POP SWAP3 SWAP2 POP POP JUMP JUMPDEST PUSH32 0x4F776E61626C653A206E6577206F776E657220697320746865207A65726F2061 PUSH1 0x0 DUP3 ADD MSTORE PUSH32 0x6464726573730000000000000000000000000000000000000000000000000000 PUSH1 0x20 DUP3 ADD MSTORE POP JUMP JUMPDEST PUSH1 0x0 PUSH2 0x3C32 PUSH1 0x26 DUP4 PUSH2 0x2E69 JUMP JUMPDEST SWAP2 POP PUSH2 0x3C3D DUP3 PUSH2 0x3BD6 JUMP JUMPDEST PUSH1 0x40 DUP3 ADD SWAP1 POP SWAP2 SWAP1 POP JUMP JUMPDEST PUSH1 0x0 PUSH1 0x20 DUP3 ADD SWAP1 POP DUP2 DUP2 SUB PUSH1 0x0 DUP4 ADD MSTORE PUSH2 0x3C61 DUP2 PUSH2 0x3C25 JUMP JUMPDEST SWAP1 POP SWAP2 SWAP1 POP JUMP JUMPDEST PUSH1 0x0 PUSH2 0x3C73 DUP3 PUSH2 0x2C52 JUMP JUMPDEST SWAP2 POP PUSH2 0x3C7E DUP4 PUSH2 0x2C52 JUMP JUMPDEST SWAP3 POP DUP3 DUP3 SUB SWAP1 POP DUP2 DUP2 GT ISZERO PUSH2 0x3C96 JUMPI PUSH2 0x3C95 PUSH2 0x3674 JUMP JUMPDEST JUMPDEST SWAP3 SWAP2 POP POP JUMP JUMPDEST PUSH1 0x0 DUP2 MLOAD SWAP1 POP PUSH2 0x3CAB DUP2 PUSH2 0x2F5B JUMP JUMPDEST SWAP3 SWAP2 POP POP JUMP JUMPDEST PUSH1 0x0 PUSH1 0x20 DUP3 DUP5 SUB SLT ISZERO PUSH2 0x3CC7 JUMPI PUSH2 0x3CC6 PUSH2 0x2B8D JUMP JUMPDEST JUMPDEST PUSH1 0x0 PUSH2 0x3CD5 DUP5 DUP3 DUP6 ADD PUSH2 0x3C9C JUMP JUMPDEST SWAP2 POP POP SWAP3 SWAP2 POP POP JUMP JUMPDEST PUSH32 0x4E487B7100000000000000000000000000000000000000000000000000000000 PUSH1 0x0 MSTORE PUSH1 0x32 PUSH1 0x4 MSTORE PUSH1 0x24 PUSH1 0x0 REVERT JUMPDEST PUSH32 0x4F776E61626C653A2063616C6C6572206973206E6F7420746865206F776E6572 PUSH1 0x0 DUP3 ADD MSTORE POP JUMP JUMPDEST PUSH1 0x0 PUSH2 0x3D43 PUSH1 0x20 DUP4 PUSH2 0x2E69 JUMP JUMPDEST SWAP2 POP PUSH2 0x3D4E DUP3 PUSH2 0x3D0D JUMP JUMPDEST PUSH1 0x20 DUP3 ADD SWAP1 POP SWAP2 SWAP1 POP JUMP JUMPDEST PUSH1 0x0 PUSH1 0x20 DUP3 ADD SWAP1 POP DUP2 DUP2 SUB PUSH1 0x0 DUP4 ADD MSTORE PUSH2 0x3D72 DUP2 PUSH2 0x3D36 JUMP JUMPDEST SWAP1 POP SWAP2 SWAP1 POP JUMP JUMPDEST PUSH1 0x0 DUP2 MLOAD SWAP1 POP SWAP2 SWAP1 POP JUMP JUMPDEST PUSH1 0x0 DUP3 DUP3 MSTORE PUSH1 0x20 DUP3 ADD SWAP1 POP SWAP3 SWAP2 POP POP JUMP JUMPDEST PUSH1 0x0 PUSH2 0x3DA0 DUP3 PUSH2 0x3D79 JUMP JUMPDEST PUSH2 0x3DAA DUP2 DUP6 PUSH2 0x3D84 JUMP JUMPDEST SWAP4 POP PUSH2 0x3DBA DUP2 DUP6 PUSH1 0x20 DUP7 ADD PUSH2 0x2E7A JUMP JUMPDEST PUSH2 0x3DC3 DUP2 PUSH2 0x2D1B JUMP JUMPDEST DUP5 ADD SWAP2 POP POP SWAP3 SWAP2 POP POP JUMP JUMPDEST PUSH1 0x0 PUSH1 0x80 DUP3 ADD SWAP1 POP PUSH2 0x3DE3 PUSH1 0x0 DUP4 ADD DUP8 PUSH2 0x2F31 JUMP JUMPDEST PUSH2 0x3DF0 PUSH1 0x20 DUP4 ADD DUP7 PUSH2 0x2F31 JUMP JUMPDEST PUSH2 0x3DFD PUSH1 0x40 DUP4 ADD DUP6 PUSH2 0x2CB5 JUMP JUMPDEST DUP2 DUP2 SUB PUSH1 0x60 DUP4 ADD MSTORE PUSH2 0x3E0F DUP2 DUP5 PUSH2 0x3D95 JUMP JUMPDEST SWAP1 POP SWAP6 SWAP5 POP POP POP POP POP JUMP JUMPDEST PUSH1 0x0 DUP2 MLOAD SWAP1 POP PUSH2 0x3E29 DUP2 PUSH2 0x2BC3 JUMP JUMPDEST SWAP3 SWAP2 POP POP JUMP JUMPDEST PUSH1 0x0 PUSH1 0x20 DUP3 DUP5 SUB SLT ISZERO PUSH2 0x3E45 JUMPI PUSH2 0x3E44 PUSH2 0x2B8D JUMP JUMPDEST JUMPDEST PUSH1 0x0 PUSH2 0x3E53 DUP5 DUP3 DUP6 ADD PUSH2 0x3E1A JUMP JUMPDEST SWAP2 POP POP SWAP3 SWAP2 POP POP JUMP JUMPDEST PUSH32 0x7267622800000000000000000000000000000000000000000000000000000000 PUSH1 0x0 DUP3 ADD MSTORE POP JUMP JUMPDEST PUSH1 0x0 PUSH2 0x3E92 PUSH1 0x4 DUP4 PUSH2 0x396B JUMP JUMPDEST SWAP2 POP PUSH2 0x3E9D DUP3 PUSH2 0x3E5C JUMP JUMPDEST PUSH1 0x4 DUP3 ADD SWAP1 POP SWAP2 SWAP1 POP JUMP JUMPDEST PUSH32 0x2C00000000000000000000000000000000000000000000000000000000000000 PUSH1 0x0 DUP3 ADD MSTORE POP JUMP JUMPDEST PUSH1 0x0 PUSH2 0x3EDE PUSH1 0x1 DUP4 PUSH2 0x396B JUMP JUMPDEST SWAP2 POP PUSH2 0x3EE9 DUP3 PUSH2 0x3EA8 JUMP JUMPDEST PUSH1 0x1 DUP3 ADD SWAP1 POP SWAP2 SWAP1 POP JUMP JUMPDEST PUSH32 0x293B000000000000000000000000000000000000000000000000000000000000 PUSH1 0x0 DUP3 ADD MSTORE POP JUMP JUMPDEST PUSH1 0x0 PUSH2 0x3F2A PUSH1 0x2 DUP4 PUSH2 0x396B JUMP JUMPDEST SWAP2 POP PUSH2 0x3F35 DUP3 PUSH2 0x3EF4 JUMP JUMPDEST PUSH1 0x2 DUP3 ADD SWAP1 POP SWAP2 SWAP1 POP JUMP JUMPDEST PUSH1 0x0 PUSH2 0x3F4C DUP3 DUP8 PUSH2 0x39C2 JUMP JUMPDEST SWAP2 POP PUSH2 0x3F57 DUP3 PUSH2 0x3E85 JUMP JUMPDEST SWAP2 POP PUSH2 0x3F63 DUP3 DUP7 PUSH2 0x39C2 JUMP JUMPDEST SWAP2 POP PUSH2 0x3F6E DUP3 PUSH2 0x3ED1 JUMP JUMPDEST SWAP2 POP PUSH2 0x3F7A DUP3 DUP6 PUSH2 0x39C2 JUMP JUMPDEST SWAP2 POP PUSH2 0x3F85 DUP3 PUSH2 0x3ED1 JUMP JUMPDEST SWAP2 POP PUSH2 0x3F91 DUP3 DUP5 PUSH2 0x39C2 JUMP JUMPDEST SWAP2 POP PUSH2 0x3F9C DUP3 PUSH2 0x3F1D JUMP JUMPDEST SWAP2 POP DUP2 SWAP1 POP SWAP6 SWAP5 POP POP POP POP POP JUMP JUMPDEST PUSH1 0x0 PUSH2 0x3FB6 DUP3 DUP6 PUSH2 0x39C2 JUMP JUMPDEST SWAP2 POP PUSH2 0x3FC2 DUP3 DUP5 PUSH2 0x39C2 JUMP JUMPDEST SWAP2 POP DUP2 SWAP1 POP SWAP4 SWAP3 POP POP POP JUMP JUMPDEST PUSH32 0x3C2F7374796C653E3C2F7376673E000000000000000000000000000000000000 PUSH1 0x0 DUP3 ADD MSTORE POP JUMP JUMPDEST PUSH1 0x0 PUSH2 0x4004 PUSH1 0xE DUP4 PUSH2 0x396B JUMP JUMPDEST SWAP2 POP PUSH2 0x400F DUP3 PUSH2 0x3FCE JUMP JUMPDEST PUSH1 0xE DUP3 ADD SWAP1 POP SWAP2 SWAP1 POP JUMP JUMPDEST PUSH1 0x0 PUSH2 0x4026 DUP3 DUP7 PUSH2 0x39C2 JUMP JUMPDEST SWAP2 POP PUSH2 0x4032 DUP3 DUP6 PUSH2 0x39C2 JUMP JUMPDEST SWAP2 POP PUSH2 0x403E DUP3 DUP5 PUSH2 0x39C2 JUMP JUMPDEST SWAP2 POP PUSH2 0x4049 DUP3 PUSH2 0x3FF7 JUMP JUMPDEST SWAP2 POP DUP2 SWAP1 POP SWAP5 SWAP4 POP POP POP POP JUMP JUMPDEST PUSH1 0x0 PUSH1 0xFF DUP3 AND SWAP1 POP SWAP2 SWAP1 POP JUMP JUMPDEST PUSH1 0x0 PUSH2 0x406E DUP3 PUSH2 0x4056 JUMP JUMPDEST SWAP2 POP PUSH2 0x4079 DUP4 PUSH2 0x4056 JUMP JUMPDEST SWAP3 POP DUP3 DUP3 ADD SWAP1 POP PUSH1 0xFF DUP2 GT ISZERO PUSH2 0x4092 JUMPI PUSH2 0x4091 PUSH2 0x3674 JUMP JUMPDEST JUMPDEST SWAP3 SWAP2 POP POP JUMP JUMPDEST PUSH1 0x0 PUSH2 0x40A3 DUP3 PUSH2 0x2C52 JUMP JUMPDEST SWAP2 POP PUSH2 0x40AE DUP4 PUSH2 0x2C52 JUMP JUMPDEST SWAP3 POP DUP3 PUSH2 0x40BE JUMPI PUSH2 0x40BD PUSH2 0x3761 JUMP JUMPDEST JUMPDEST DUP3 DUP3 MOD SWAP1 POP SWAP3 SWAP2 POP POP JUMP JUMPDEST PUSH32 0x2370000000000000000000000000000000000000000000000000000000000000 PUSH1 0x0 DUP3 ADD MSTORE POP JUMP JUMPDEST PUSH1 0x0 PUSH2 0x40FF PUSH1 0x2 DUP4 PUSH2 0x396B JUMP JUMPDEST SWAP2 POP PUSH2 0x410A DUP3 PUSH2 0x40C9 JUMP JUMPDEST PUSH1 0x2 DUP3 ADD SWAP1 POP SWAP2 SWAP1 POP JUMP JUMPDEST PUSH32 0x312C000000000000000000000000000000000000000000000000000000000000 PUSH1 0x0 DUP3 ADD MSTORE POP JUMP JUMPDEST PUSH1 0x0 PUSH2 0x414B PUSH1 0x2 DUP4 PUSH2 0x396B JUMP JUMPDEST SWAP2 POP PUSH2 0x4156 DUP3 PUSH2 0x4115 JUMP JUMPDEST PUSH1 0x2 DUP3 ADD SWAP1 POP SWAP2 SWAP1 POP JUMP JUMPDEST PUSH32 0x322C000000000000000000000000000000000000000000000000000000000000 PUSH1 0x0 DUP3 ADD MSTORE POP JUMP JUMPDEST PUSH1 0x0 PUSH2 0x4197 PUSH1 0x2 DUP4 PUSH2 0x396B JUMP JUMPDEST SWAP2 POP PUSH2 0x41A2 DUP3 PUSH2 0x4161 JUMP JUMPDEST PUSH1 0x2 DUP3 ADD SWAP1 POP SWAP2 SWAP1 POP JUMP JUMPDEST PUSH32 0x332C000000000000000000000000000000000000000000000000000000000000 PUSH1 0x0 DUP3 ADD MSTORE POP JUMP JUMPDEST PUSH1 0x0 PUSH2 0x41E3 PUSH1 0x2 DUP4 PUSH2 0x396B JUMP JUMPDEST SWAP2 POP PUSH2 0x41EE DUP3 PUSH2 0x41AD JUMP JUMPDEST PUSH1 0x2 DUP3 ADD SWAP1 POP SWAP2 SWAP1 POP JUMP JUMPDEST PUSH32 0x352C000000000000000000000000000000000000000000000000000000000000 PUSH1 0x0 DUP3 ADD MSTORE POP JUMP JUMPDEST PUSH1 0x0 PUSH2 0x422F PUSH1 0x2 DUP4 PUSH2 0x396B JUMP JUMPDEST SWAP2 POP PUSH2 0x423A DUP3 PUSH2 0x41F9 JUMP JUMPDEST PUSH1 0x2 DUP3 ADD SWAP1 POP SWAP2 SWAP1 POP JUMP JUMPDEST PUSH32 0x362C000000000000000000000000000000000000000000000000000000000000 PUSH1 0x0 DUP3 ADD MSTORE POP JUMP JUMPDEST PUSH1 0x0 PUSH2 0x427B PUSH1 0x2 DUP4 PUSH2 0x396B JUMP JUMPDEST SWAP2 POP PUSH2 0x4286 DUP3 PUSH2 0x4245 JUMP JUMPDEST PUSH1 0x2 DUP3 ADD SWAP1 POP SWAP2 SWAP1 POP JUMP JUMPDEST PUSH32 0x37207B66696C6C2D6F7061636974793A317D0000000000000000000000000000 PUSH1 0x0 DUP3 ADD MSTORE POP JUMP JUMPDEST PUSH1 0x0 PUSH2 0x42C7 PUSH1 0x12 DUP4 PUSH2 0x396B JUMP JUMPDEST SWAP2 POP PUSH2 0x42D2 DUP3 PUSH2 0x4291 JUMP JUMPDEST PUSH1 0x12 DUP3 ADD SWAP1 POP SWAP2 SWAP1 POP JUMP JUMPDEST PUSH1 0x0 PUSH2 0x42E8 DUP3 PUSH2 0x40F2 JUMP JUMPDEST SWAP2 POP PUSH2 0x42F4 DUP3 DUP10 PUSH2 0x39C2 JUMP JUMPDEST SWAP2 POP PUSH2 0x42FF DUP3 PUSH2 0x413E JUMP JUMPDEST SWAP2 POP PUSH2 0x430A DUP3 PUSH2 0x40F2 JUMP JUMPDEST SWAP2 POP PUSH2 0x4316 DUP3 DUP9 PUSH2 0x39C2 JUMP JUMPDEST SWAP2 POP PUSH2 0x4321 DUP3 PUSH2 0x418A JUMP JUMPDEST SWAP2 POP PUSH2 0x432C DUP3 PUSH2 0x40F2 JUMP JUMPDEST SWAP2 POP PUSH2 0x4338 DUP3 DUP8 PUSH2 0x39C2 JUMP JUMPDEST SWAP2 POP PUSH2 0x4343 DUP3 PUSH2 0x41D6 JUMP JUMPDEST SWAP2 POP PUSH2 0x434E DUP3 PUSH2 0x40F2 JUMP JUMPDEST SWAP2 POP PUSH2 0x435A DUP3 DUP7 PUSH2 0x39C2 JUMP JUMPDEST SWAP2 POP PUSH2 0x4365 DUP3 PUSH2 0x4222 JUMP JUMPDEST SWAP2 POP PUSH2 0x4370 DUP3 PUSH2 0x40F2 JUMP JUMPDEST SWAP2 POP PUSH2 0x437C DUP3 DUP6 PUSH2 0x39C2 JUMP JUMPDEST SWAP2 POP PUSH2 0x4387 DUP3 PUSH2 0x426E JUMP JUMPDEST SWAP2 POP PUSH2 0x4392 DUP3 PUSH2 0x40F2 JUMP JUMPDEST SWAP2 POP PUSH2 0x439E DUP3 DUP5 PUSH2 0x39C2 JUMP JUMPDEST SWAP2 POP PUSH2 0x43A9 DUP3 PUSH2 0x42BA JUMP JUMPDEST SWAP2 POP DUP2 SWAP1 POP SWAP8 SWAP7 POP POP POP POP POP POP POP JUMP JUMPDEST PUSH32 0x36207B66696C6C2D6F7061636974793A317D0000000000000000000000000000 PUSH1 0x0 DUP3 ADD MSTORE POP JUMP JUMPDEST PUSH1 0x0 PUSH2 0x43EF PUSH1 0x12 DUP4 PUSH2 0x396B JUMP JUMPDEST SWAP2 POP PUSH2 0x43FA DUP3 PUSH2 0x43B9 JUMP JUMPDEST PUSH1 0x12 DUP3 ADD SWAP1 POP SWAP2 SWAP1 POP JUMP JUMPDEST PUSH1 0x0 PUSH2 0x4410 DUP3 PUSH2 0x40F2 JUMP JUMPDEST SWAP2 POP PUSH2 0x441C DUP3 DUP6 PUSH2 0x39C2 JUMP JUMPDEST SWAP2 POP PUSH2 0x4427 DUP3 PUSH2 0x41D6 JUMP JUMPDEST SWAP2 POP PUSH2 0x4432 DUP3 PUSH2 0x40F2 JUMP JUMPDEST SWAP2 POP PUSH2 0x443E DUP3 DUP5 PUSH2 0x39C2 JUMP JUMPDEST SWAP2 POP PUSH2 0x4449 DUP3 PUSH2 0x43E2 JUMP JUMPDEST SWAP2 POP DUP2 SWAP1 POP SWAP4 SWAP3 POP POP POP JUMP JUMPDEST PUSH32 0x342C000000000000000000000000000000000000000000000000000000000000 PUSH1 0x0 DUP3 ADD MSTORE POP JUMP JUMPDEST PUSH1 0x0 PUSH2 0x448B PUSH1 0x2 DUP4 PUSH2 0x396B JUMP JUMPDEST SWAP2 POP PUSH2 0x4496 DUP3 PUSH2 0x4455 JUMP JUMPDEST PUSH1 0x2 DUP3 ADD SWAP1 POP SWAP2 SWAP1 POP JUMP JUMPDEST PUSH1 0x0 PUSH2 0x44AC DUP3 PUSH2 0x40F2 JUMP JUMPDEST SWAP2 POP PUSH2 0x44B8 DUP3 DUP9 PUSH2 0x39C2 JUMP JUMPDEST SWAP2 POP PUSH2 0x44C3 DUP3 PUSH2 0x413E JUMP JUMPDEST SWAP2 POP PUSH2 0x44CE DUP3 PUSH2 0x40F2 JUMP JUMPDEST SWAP2 POP PUSH2 0x44DA DUP3 DUP8 PUSH2 0x39C2 JUMP JUMPDEST SWAP2 POP PUSH2 0x44E5 DUP3 PUSH2 0x41D6 JUMP JUMPDEST SWAP2 POP PUSH2 0x44F0 DUP3 PUSH2 0x40F2 JUMP JUMPDEST SWAP2 POP PUSH2 0x44FC DUP3 DUP7 PUSH2 0x39C2 JUMP JUMPDEST SWAP2 POP PUSH2 0x4507 DUP3 PUSH2 0x447E JUMP JUMPDEST SWAP2 POP PUSH2 0x4512 DUP3 PUSH2 0x40F2 JUMP JUMPDEST SWAP2 POP PUSH2 0x451E DUP3 DUP6 PUSH2 0x39C2 JUMP JUMPDEST SWAP2 POP PUSH2 0x4529 DUP3 PUSH2 0x4222 JUMP JUMPDEST SWAP2 POP PUSH2 0x4534 DUP3 PUSH2 0x40F2 JUMP JUMPDEST SWAP2 POP PUSH2 0x4540 DUP3 DUP5 PUSH2 0x39C2 JUMP JUMPDEST SWAP2 POP PUSH2 0x454B DUP3 PUSH2 0x42BA JUMP JUMPDEST SWAP2 POP DUP2 SWAP1 POP SWAP7 SWAP6 POP POP POP POP POP POP JUMP JUMPDEST PUSH1 0x0 PUSH2 0x4565 DUP3 PUSH2 0x40F2 JUMP JUMPDEST SWAP2 POP PUSH2 0x4571 DUP3 DUP9 PUSH2 0x39C2 JUMP JUMPDEST SWAP2 POP PUSH2 0x457C DUP3 PUSH2 0x413E JUMP JUMPDEST SWAP2 POP PUSH2 0x4587 DUP3 PUSH2 0x40F2 JUMP JUMPDEST SWAP2 POP PUSH2 0x4593 DUP3 DUP8 PUSH2 0x39C2 JUMP JUMPDEST SWAP2 POP PUSH2 0x459E DUP3 PUSH2 0x41D6 JUMP JUMPDEST SWAP2 POP PUSH2 0x45A9 DUP3 PUSH2 0x40F2 JUMP JUMPDEST SWAP2 POP PUSH2 0x45B5 DUP3 DUP7 PUSH2 0x39C2 JUMP JUMPDEST SWAP2 POP PUSH2 0x45C0 DUP3 PUSH2 0x447E JUMP JUMPDEST SWAP2 POP PUSH2 0x45CB DUP3 PUSH2 0x40F2 JUMP JUMPDEST SWAP2 POP PUSH2 0x45D7 DUP3 DUP6 PUSH2 0x39C2 JUMP JUMPDEST SWAP2 POP PUSH2 0x45E2 DUP3 PUSH2 0x426E JUMP JUMPDEST SWAP2 POP PUSH2 0x45ED DUP3 PUSH2 0x40F2 JUMP JUMPDEST SWAP2 POP PUSH2 0x45F9 DUP3 DUP5 PUSH2 0x39C2 JUMP JUMPDEST SWAP2 POP PUSH2 0x4604 DUP3 PUSH2 0x42BA JUMP JUMPDEST SWAP2 POP DUP2 SWAP1 POP SWAP7 SWAP6 POP POP POP POP POP POP JUMP JUMPDEST PUSH1 0x0 PUSH2 0x461E DUP3 PUSH2 0x40F2 JUMP JUMPDEST SWAP2 POP PUSH2 0x462A DUP3 DUP8 PUSH2 0x39C2 JUMP JUMPDEST SWAP2 POP PUSH2 0x4635 DUP3 PUSH2 0x418A JUMP JUMPDEST SWAP2 POP PUSH2 0x4640 DUP3 PUSH2 0x40F2 JUMP JUMPDEST SWAP2 POP PUSH2 0x464C DUP3 DUP7 PUSH2 0x39C2 JUMP JUMPDEST SWAP2 POP PUSH2 0x4657 DUP3 PUSH2 0x41D6 JUMP JUMPDEST SWAP2 POP PUSH2 0x4662 DUP3 PUSH2 0x40F2 JUMP JUMPDEST SWAP2 POP PUSH2 0x466E DUP3 DUP6 PUSH2 0x39C2 JUMP JUMPDEST SWAP2 POP PUSH2 0x4679 DUP3 PUSH2 0x447E JUMP JUMPDEST SWAP2 POP PUSH2 0x4684 DUP3 PUSH2 0x40F2 JUMP JUMPDEST SWAP2 POP PUSH2 0x4690 DUP3 DUP5 PUSH2 0x39C2 JUMP JUMPDEST SWAP2 POP PUSH2 0x469B DUP3 PUSH2 0x43E2 JUMP JUMPDEST SWAP2 POP DUP2 SWAP1 POP SWAP6 SWAP5 POP POP POP POP POP JUMP JUMPDEST PUSH1 0x0 PUSH2 0x46B4 DUP3 PUSH2 0x40F2 JUMP JUMPDEST SWAP2 POP PUSH2 0x46C0 DUP3 DUP9 PUSH2 0x39C2 JUMP JUMPDEST SWAP2 POP PUSH2 0x46CB DUP3 PUSH2 0x413E JUMP JUMPDEST SWAP2 POP PUSH2 0x46D6 DUP3 PUSH2 0x40F2 JUMP JUMPDEST SWAP2 POP PUSH2 0x46E2 DUP3 DUP8 PUSH2 0x39C2 JUMP JUMPDEST SWAP2 POP PUSH2 0x46ED DUP3 PUSH2 0x418A JUMP JUMPDEST SWAP2 POP PUSH2 0x46F8 DUP3 PUSH2 0x40F2 JUMP JUMPDEST SWAP2 POP PUSH2 0x4704 DUP3 DUP7 PUSH2 0x39C2 JUMP JUMPDEST SWAP2 POP PUSH2 0x470F DUP3 PUSH2 0x447E JUMP JUMPDEST SWAP2 POP PUSH2 0x471A DUP3 PUSH2 0x40F2 JUMP JUMPDEST SWAP2 POP PUSH2 0x4726 DUP3 DUP6 PUSH2 0x39C2 JUMP JUMPDEST SWAP2 POP PUSH2 0x4731 DUP3 PUSH2 0x426E JUMP JUMPDEST SWAP2 POP PUSH2 0x473C DUP3 PUSH2 0x40F2 JUMP JUMPDEST SWAP2 POP PUSH2 0x4748 DUP3 DUP5 PUSH2 0x39C2 JUMP JUMPDEST SWAP2 POP PUSH2 0x4753 DUP3 PUSH2 0x42BA JUMP JUMPDEST SWAP2 POP DUP2 SWAP1 POP SWAP7 SWAP6 POP POP POP POP POP POP JUMP JUMPDEST PUSH1 0x0 PUSH2 0x476D DUP3 PUSH2 0x40F2 JUMP JUMPDEST SWAP2 POP PUSH2 0x4779 DUP3 DUP10 PUSH2 0x39C2 JUMP JUMPDEST SWAP2 POP PUSH2 0x4784 DUP3 PUSH2 0x413E JUMP JUMPDEST SWAP2 POP PUSH2 0x478F DUP3 PUSH2 0x40F2 JUMP JUMPDEST SWAP2 POP PUSH2 0x479B DUP3 DUP9 PUSH2 0x39C2 JUMP JUMPDEST SWAP2 POP PUSH2 0x47A6 DUP3 PUSH2 0x418A JUMP JUMPDEST SWAP2 POP PUSH2 0x47B1 DUP3 PUSH2 0x40F2 JUMP JUMPDEST SWAP2 POP PUSH2 0x47BD DUP3 DUP8 PUSH2 0x39C2 JUMP JUMPDEST SWAP2 POP PUSH2 0x47C8 DUP3 PUSH2 0x447E JUMP JUMPDEST SWAP2 POP PUSH2 0x47D3 DUP3 PUSH2 0x40F2 JUMP JUMPDEST SWAP2 POP PUSH2 0x47DF DUP3 DUP7 PUSH2 0x39C2 JUMP JUMPDEST SWAP2 POP PUSH2 0x47EA DUP3 PUSH2 0x4222 JUMP JUMPDEST SWAP2 POP PUSH2 0x47F5 DUP3 PUSH2 0x40F2 JUMP JUMPDEST SWAP2 POP PUSH2 0x4801 DUP3 DUP6 PUSH2 0x39C2 JUMP JUMPDEST SWAP2 POP PUSH2 0x480C DUP3 PUSH2 0x426E JUMP JUMPDEST SWAP2 POP PUSH2 0x4817 DUP3 PUSH2 0x40F2 JUMP JUMPDEST SWAP2 POP PUSH2 0x4823 DUP3 DUP5 PUSH2 0x39C2 JUMP JUMPDEST SWAP2 POP PUSH2 0x482E DUP3 PUSH2 0x42BA JUMP JUMPDEST SWAP2 POP DUP2 SWAP1 POP SWAP8 SWAP7 POP POP POP POP POP POP POP JUMP JUMPDEST PUSH1 0x0 PUSH2 0x4849 DUP3 PUSH2 0x40F2 JUMP JUMPDEST SWAP2 POP PUSH2 0x4855 DUP3 DUP7 PUSH2 0x39C2 JUMP JUMPDEST SWAP2 POP PUSH2 0x4860 DUP3 PUSH2 0x413E JUMP JUMPDEST SWAP2 POP PUSH2 0x486B DUP3 PUSH2 0x40F2 JUMP JUMPDEST SWAP2 POP PUSH2 0x4877 DUP3 DUP6 PUSH2 0x39C2 JUMP JUMPDEST SWAP2 POP PUSH2 0x4882 DUP3 PUSH2 0x41D6 JUMP JUMPDEST SWAP2 POP PUSH2 0x488D DUP3 PUSH2 0x40F2 JUMP JUMPDEST SWAP2 POP PUSH2 0x4899 DUP3 DUP5 PUSH2 0x39C2 JUMP JUMPDEST SWAP2 POP PUSH2 0x48A4 DUP3 PUSH2 0x43E2 JUMP JUMPDEST SWAP2 POP DUP2 SWAP1 POP SWAP5 SWAP4 POP POP POP POP JUMP JUMPDEST PUSH1 0x0 PUSH2 0x48BC DUP3 PUSH2 0x40F2 JUMP JUMPDEST SWAP2 POP PUSH2 0x48C8 DUP3 DUP11 PUSH2 0x39C2 JUMP JUMPDEST SWAP2 POP PUSH2 0x48D3 DUP3 PUSH2 0x413E JUMP JUMPDEST SWAP2 POP PUSH2 0x48DE DUP3 PUSH2 0x40F2 JUMP JUMPDEST SWAP2 POP PUSH2 0x48EA DUP3 DUP10 PUSH2 0x39C2 JUMP JUMPDEST SWAP2 POP PUSH2 0x48F5 DUP3 PUSH2 0x418A JUMP JUMPDEST SWAP2 POP PUSH2 0x4900 DUP3 PUSH2 0x40F2 JUMP JUMPDEST SWAP2 POP PUSH2 0x490C DUP3 DUP9 PUSH2 0x39C2 JUMP JUMPDEST SWAP2 POP PUSH2 0x4917 DUP3 PUSH2 0x41D6 JUMP JUMPDEST SWAP2 POP PUSH2 0x4922 DUP3 PUSH2 0x40F2 JUMP JUMPDEST SWAP2 POP PUSH2 0x492E DUP3 DUP8 PUSH2 0x39C2 JUMP JUMPDEST SWAP2 POP PUSH2 0x4939 DUP3 PUSH2 0x447E JUMP JUMPDEST SWAP2 POP PUSH2 0x4944 DUP3 PUSH2 0x40F2 JUMP JUMPDEST SWAP2 POP PUSH2 0x4950 DUP3 DUP7 PUSH2 0x39C2 JUMP JUMPDEST SWAP2 POP PUSH2 0x495B DUP3 PUSH2 0x4222 JUMP JUMPDEST SWAP2 POP PUSH2 0x4966 DUP3 PUSH2 0x40F2 JUMP JUMPDEST SWAP2 POP PUSH2 0x4972 DUP3 DUP6 PUSH2 0x39C2 JUMP JUMPDEST SWAP2 POP PUSH2 0x497D DUP3 PUSH2 0x426E JUMP JUMPDEST SWAP2 POP PUSH2 0x4988 DUP3 PUSH2 0x40F2 JUMP JUMPDEST SWAP2 POP PUSH2 0x4994 DUP3 DUP5 PUSH2 0x39C2 JUMP JUMPDEST SWAP2 POP PUSH2 0x499F DUP3 PUSH2 0x42BA JUMP JUMPDEST SWAP2 POP DUP2 SWAP1 POP SWAP9 SWAP8 POP POP POP POP POP POP POP POP JUMP JUMPDEST PUSH1 0x0 PUSH2 0x49BB DUP3 PUSH2 0x40F2 JUMP JUMPDEST SWAP2 POP PUSH2 0x49C7 DUP3 DUP10 PUSH2 0x39C2 JUMP JUMPDEST SWAP2 POP PUSH2 0x49D2 DUP3 PUSH2 0x413E JUMP JUMPDEST SWAP2 POP PUSH2 0x49DD DUP3 PUSH2 0x40F2 JUMP JUMPDEST SWAP2 POP PUSH2 0x49E9 DUP3 DUP9 PUSH2 0x39C2 JUMP JUMPDEST SWAP2 POP PUSH2 0x49F4 DUP3 PUSH2 0x418A JUMP JUMPDEST SWAP2 POP PUSH2 0x49FF DUP3 PUSH2 0x40F2 JUMP JUMPDEST SWAP2 POP PUSH2 0x4A0B DUP3 DUP8 PUSH2 0x39C2 JUMP JUMPDEST SWAP2 POP PUSH2 0x4A16 DUP3 PUSH2 0x41D6 JUMP JUMPDEST SWAP2 POP PUSH2 0x4A21 DUP3 PUSH2 0x40F2 JUMP JUMPDEST SWAP2 POP PUSH2 0x4A2D DUP3 DUP7 PUSH2 0x39C2 JUMP JUMPDEST SWAP2 POP PUSH2 0x4A38 DUP3 PUSH2 0x447E JUMP JUMPDEST SWAP2 POP PUSH2 0x4A43 DUP3 PUSH2 0x40F2 JUMP JUMPDEST SWAP2 POP PUSH2 0x4A4F DUP3 DUP6 PUSH2 0x39C2 JUMP JUMPDEST SWAP2 POP PUSH2 0x4A5A DUP3 PUSH2 0x426E JUMP JUMPDEST SWAP2 POP PUSH2 0x4A65 DUP3 PUSH2 0x40F2 JUMP JUMPDEST SWAP2 POP PUSH2 0x4A71 DUP3 DUP5 PUSH2 0x39C2 JUMP JUMPDEST SWAP2 POP PUSH2 0x4A7C DUP3 PUSH2 0x42BA JUMP JUMPDEST SWAP2 POP DUP2 SWAP1 POP SWAP8 SWAP7 POP POP POP POP POP POP POP JUMP INVALID EXTCODECOPY PUSH20 0x76672077696474683D2239303022206865696768 PUSH21 0x3D22393030222076696577426F783D223020302033 ADDRESS ADDRESS KECCAK256 CALLER ADDRESS ADDRESS 0x22 KECCAK256 PUSH7 0x696C6C3D226E6F PUSH15 0x652220786D6C6E733D22687474703A 0x2F 0x2F PUSH24 0x77772E77332E6F72672F323030302F737667223E3C726563 PUSH21 0x2077696474683D2233303022206865696768743D22 CALLER ADDRESS ADDRESS 0x22 KECCAK256 PUSH7 0x696C6C3D222330 NUMBER ADDRESS NUMBER ADDRESS NUMBER 0x22 0x2F RETURNDATACOPY EXTCODECOPY PUSH8 0x3E3C706174682064 RETURNDATASIZE 0x22 0x4D CALLDATASIZE CALLDATASIZE KECCAK256 BALANCE ADDRESS CALLER BASEFEE ORIGIN CALLER CALLER JUMP BALANCE CODECOPY CALLDATACOPY BASEFEE CALLDATASIZE CALLDATASIZE JUMP BALANCE ADDRESS CALLER GAS 0x4D CALLDATASIZE CALLDATACOPY 0x2E CALLDATALOAD CODECOPY ADDRESS CALLDATALOAD KECCAK256 BALANCE ADDRESS CALLVALUE 0x2E CALLDATALOAD CODECOPY CALLER JUMP BALANCE CODECOPY CALLDATALOAD 0x2E CALLVALUE ADDRESS CALLDATACOPY BASEFEE ORIGIN CALLER BALANCE 0x2E CALLVALUE BALANCE JUMP BALANCE ADDRESS CALLVALUE 0x2E CALLDATALOAD CODECOPY CALLER BASEFEE CALLDATASIZE CALLDATACOPY 0x2E CALLDATALOAD CODECOPY ADDRESS CALLDATALOAD GAS 0x22 0x2F RETURNDATACOPY EXTCODECOPY PUSH17 0x6174682069643D227030312220643D224D BALANCE ADDRESS CODECOPY 0x2E CALLVALUE CALLVALUE BALANCE KECCAK256 BALANCE ORIGIN CALLDATALOAD 0x4C BALANCE BALANCE BALANCE 0x2E CODESIZE ORIGIN CALLER KECCAK256 BALANCE ORIGIN CALLDATACOPY 0x2E CALLVALUE BALANCE CODECOPY 0x4C BALANCE ADDRESS CODECOPY 0x2E CALLVALUE CALLVALUE BALANCE KECCAK256 BALANCE ORIGIN CODECOPY 0x2E CODESIZE CALLER CODECOPY 0x4C CODECOPY CALLER 0x2E CALLDATALOAD CALLDATALOAD CODESIZE CODESIZE KECCAK256 BALANCE ORIGIN CODECOPY 0x2E CODESIZE CALLER CODECOPY 0x4C CODECOPY BALANCE 0x2E BALANCE CALLDATACOPY CALLDATASIZE CALLVALUE KECCAK256 BALANCE ORIGIN CALLDATACOPY 0x2E CALLVALUE BALANCE CODECOPY 0x4C CODECOPY CALLER 0x2E CALLDATALOAD CALLDATALOAD CODESIZE CODESIZE KECCAK256 BALANCE ORIGIN CALLDATALOAD 0x4C BALANCE ADDRESS CODECOPY 0x2E CALLVALUE CALLVALUE BALANCE KECCAK256 BALANCE ORIGIN CALLDATALOAD GAS 0x22 KECCAK256 PUSH7 0x696C6C2D6F7061 PUSH4 0x6974793D 0x22 ADDRESS 0x2E ADDRESS CALLDATALOAD 0x22 0x2F RETURNDATACOPY EXTCODECOPY PUSH17 0x6174682069643D227030322220643D224D CODESIZE CODESIZE KECCAK256 BALANCE CALLER ADDRESS 0x2E CALLDATASIZE CALLVALUE CALLDATALOAD 0x4C CODECOPY ADDRESS 0x2E CALLER CODESIZE ORIGIN CALLVALUE KECCAK256 BALANCE ORIGIN CODESIZE 0x2E ORIGIN ORIGIN CALLDATASIZE 0x4C CODECOPY ORIGIN 0x2E CALLDATACOPY CALLDATASIZE CALLVALUE CALLDATACOPY KECCAK256 BALANCE CALLER ADDRESS 0x2E CALLDATASIZE CALLVALUE CALLDATALOAD JUMP BALANCE CALLVALUE CALLDATASIZE 0x2E CALLDATACOPY CALLDATACOPY CALLVALUE 0x4C CODECOPY ADDRESS 0x2E CALLER CODESIZE ORIGIN CALLVALUE KECCAK256 BALANCE CALLVALUE CODECOPY 0x2E BALANCE CODECOPY CALLVALUE 0x4C CODESIZE CODESIZE KECCAK256 BALANCE CALLVALUE CALLDATASIZE 0x2E CALLDATACOPY CALLDATACOPY CALLVALUE JUMP BALANCE CALLER ADDRESS 0x2E CALLDATASIZE CALLVALUE CALLDATALOAD GAS 0x22 KECCAK256 PUSH7 0x696C6C2D6F7061 PUSH4 0x6974793D 0x22 ADDRESS 0x2E ADDRESS CALLDATALOAD 0x22 0x2F RETURNDATACOPY EXTCODECOPY PUSH17 0x6174682069643D227030332220643D224D BALANCE BALANCE ADDRESS 0x2E ORIGIN CALLER CALLDATALOAD KECCAK256 BALANCE CALLER ADDRESS 0x2E CALLDATASIZE CALLVALUE CALLDATALOAD 0x4C BALANCE BALANCE ORIGIN 0x2E CALLDATASIZE BALANCE CODESIZE KECCAK256 BALANCE ORIGIN CODESIZE 0x2E ORIGIN ORIGIN CALLDATASIZE 0x4C BALANCE BALANCE CALLDATALOAD KECCAK256 BALANCE CALLER ADDRESS 0x2E CALLDATASIZE CALLVALUE CALLDATALOAD JUMP BALANCE CALLVALUE CALLDATASIZE 0x2E CALLDATACOPY CALLDATACOPY CALLVALUE 0x4C BALANCE BALANCE ORIGIN 0x2E CALLDATASIZE BALANCE CODESIZE KECCAK256 BALANCE CALLVALUE CODECOPY 0x2E BALANCE CODECOPY CALLVALUE 0x4C BALANCE BALANCE ADDRESS 0x2E ORIGIN CALLER CALLDATALOAD KECCAK256 BALANCE CALLVALUE CALLDATASIZE 0x2E CALLDATACOPY CALLDATACOPY CALLVALUE JUMP BALANCE CALLER ADDRESS 0x2E CALLDATASIZE CALLVALUE CALLDATALOAD GAS 0x22 KECCAK256 PUSH7 0x696C6C2D6F7061 PUSH4 0x6974793D 0x22 ADDRESS 0x2E ADDRESS CALLDATALOAD 0x22 0x2F RETURNDATACOPY EXTCODECOPY PUSH17 0x6174682069643D227030342220643D224D BALANCE ADDRESS CODECOPY 0x2E CALLVALUE CALLVALUE BALANCE KECCAK256 BALANCE CALLVALUE CALLDATACOPY 0x2E CALLDATALOAD CODESIZE BALANCE 0x4C BALANCE BALANCE BALANCE 0x2E CODESIZE ORIGIN CALLER KECCAK256 BALANCE CALLDATALOAD ADDRESS 0x4C BALANCE ADDRESS CODECOPY 0x2E CALLVALUE CALLVALUE BALANCE KECCAK256 BALANCE CALLDATALOAD ORIGIN 0x2E CALLVALUE BALANCE CODECOPY 0x4C CODECOPY CALLER 0x2E CALLDATALOAD CALLDATALOAD CODESIZE CODESIZE KECCAK256 BALANCE CALLDATALOAD ORIGIN 0x2E CALLVALUE BALANCE CODECOPY 0x4C CODECOPY BALANCE 0x2E BALANCE CALLDATACOPY CALLDATASIZE CALLVALUE KECCAK256 BALANCE CALLDATALOAD ADDRESS 0x4C CODECOPY CALLER 0x2E CALLDATALOAD CALLDATALOAD CODESIZE CODESIZE KECCAK256 BALANCE CALLVALUE CALLDATACOPY 0x2E CALLDATALOAD CODESIZE BALANCE 0x4C BALANCE ADDRESS CODECOPY 0x2E CALLVALUE CALLVALUE BALANCE KECCAK256 BALANCE CALLVALUE CALLDATACOPY 0x2E CALLDATALOAD CODESIZE BALANCE GAS 0x22 KECCAK256 PUSH7 0x696C6C2D6F7061 PUSH4 0x6974793D 0x22 ADDRESS 0x2E ADDRESS CALLDATALOAD 0x22 0x2F RETURNDATACOPY EXTCODECOPY PUSH17 0x6174682069643D227030352220643D224D CODESIZE CODESIZE KECCAK256 BALANCE CALLDATALOAD CALLER 0x2E ORIGIN ORIGIN CALLDATASIZE 0x4C CODECOPY ADDRESS 0x2E CALLER CODESIZE ORIGIN CALLVALUE KECCAK256 BALANCE CALLDATALOAD ADDRESS 0x2E CODESIZE ADDRESS CALLDATASIZE 0x4C CODECOPY ORIGIN 0x2E CALLDATACOPY CALLDATASIZE CALLVALUE CALLDATACOPY KECCAK256 BALANCE CALLDATALOAD CALLER 0x2E ORIGIN ORIGIN CALLDATASIZE JUMP BALANCE CALLDATASIZE CODECOPY 0x2E CALLER CALLDATALOAD CALLDATALOAD 0x4C CODECOPY ADDRESS 0x2E CALLER CODESIZE ORIGIN CALLVALUE KECCAK256 BALANCE CALLDATACOPY BALANCE 0x2E CALLDATACOPY CALLDATACOPY CALLVALUE 0x4C CODESIZE CODESIZE KECCAK256 BALANCE CALLDATASIZE CODECOPY 0x2E CALLER CALLDATALOAD CALLDATALOAD JUMP BALANCE CALLDATALOAD CALLER 0x2E ORIGIN ORIGIN CALLDATASIZE GAS 0x22 KECCAK256 PUSH7 0x696C6C2D6F7061 PUSH4 0x6974793D 0x22 ADDRESS 0x2E ADDRESS CALLDATALOAD 0x22 0x2F RETURNDATACOPY EXTCODECOPY PUSH17 0x6174682069643D227030362220643D224D BALANCE BALANCE ADDRESS 0x2E ORIGIN CALLER CALLDATALOAD KECCAK256 BALANCE CALLDATALOAD CALLER 0x2E ORIGIN ORIGIN CALLDATASIZE 0x4C BALANCE BALANCE ORIGIN 0x2E CALLDATASIZE BALANCE CODESIZE KECCAK256 BALANCE CALLDATALOAD ADDRESS 0x2E CODESIZE ADDRESS CALLDATASIZE 0x4C BALANCE BALANCE CALLDATALOAD KECCAK256 BALANCE CALLDATALOAD CALLER 0x2E ORIGIN ORIGIN CALLDATASIZE JUMP BALANCE CALLDATASIZE CODECOPY 0x2E CALLER CALLDATALOAD CALLDATALOAD 0x4C BALANCE BALANCE ORIGIN 0x2E CALLDATASIZE BALANCE CODESIZE KECCAK256 BALANCE CALLDATACOPY BALANCE 0x2E CALLDATACOPY CALLDATACOPY CALLVALUE 0x4C BALANCE BALANCE ADDRESS 0x2E ORIGIN CALLER CALLDATALOAD KECCAK256 BALANCE CALLDATASIZE CODECOPY 0x2E CALLER CALLDATALOAD CALLDATALOAD JUMP BALANCE CALLDATALOAD CALLER 0x2E ORIGIN ORIGIN CALLDATASIZE GAS 0x22 KECCAK256 PUSH7 0x696C6C2D6F7061 PUSH4 0x6974793D 0x22 ADDRESS 0x2E ADDRESS CALLDATALOAD 0x22 0x2F RETURNDATACOPY EXTCODECOPY PUSH17 0x6174682069643D227030372220643D224D BALANCE ADDRESS CODECOPY 0x2E CALLVALUE CALLVALUE BALANCE KECCAK256 BALANCE CALLDATACOPY ADDRESS 0x2E BALANCE CALLDATASIZE BALANCE 0x4C BALANCE BALANCE BALANCE 0x2E CODESIZE ORIGIN CALLER KECCAK256 BALANCE CALLDATACOPY ORIGIN 0x2E CALLDATALOAD CODESIZE BALANCE 0x4C BALANCE ADDRESS CODECOPY 0x2E CALLVALUE CALLVALUE BALANCE KECCAK256 BALANCE CALLDATACOPY CALLDATALOAD 0x4C CODECOPY CALLER 0x2E CALLDATALOAD CALLDATALOAD CODESIZE CODESIZE KECCAK256 BALANCE CALLDATACOPY CALLDATALOAD 0x4C CODECOPY BALANCE 0x2E BALANCE CALLDATACOPY CALLDATASIZE CALLVALUE KECCAK256 BALANCE CALLDATACOPY ORIGIN 0x2E CALLDATALOAD CODESIZE BALANCE 0x4C CODECOPY CALLER 0x2E CALLDATALOAD CALLDATALOAD CODESIZE CODESIZE KECCAK256 BALANCE CALLDATACOPY ADDRESS 0x2E BALANCE CALLDATASIZE BALANCE 0x4C BALANCE ADDRESS CODECOPY 0x2E CALLVALUE CALLVALUE BALANCE KECCAK256 BALANCE CALLDATACOPY ADDRESS 0x2E BALANCE CALLDATASIZE BALANCE GAS 0x22 KECCAK256 PUSH7 0x696C6C2D6F7061 PUSH4 0x6974793D 0x22 ADDRESS 0x2E ADDRESS CALLDATALOAD 0x22 0x2F RETURNDATACOPY EXTCODECOPY PUSH17 0x6174682069643D227031312220643D224D BALANCE CALLVALUE BALANCE 0x2E CALLVALUE CALLVALUE BALANCE KECCAK256 BALANCE ORIGIN CALLDATALOAD 0x4C BALANCE CALLVALUE CALLER 0x2E CODESIZE ORIGIN CALLER KECCAK256 BALANCE ORIGIN CALLDATACOPY 0x2E CALLVALUE BALANCE CODECOPY 0x4C BALANCE CALLVALUE BALANCE 0x2E CALLVALUE CALLVALUE BALANCE KECCAK256 BALANCE ORIGIN CODECOPY 0x2E CODESIZE CALLER CODECOPY 0x4C BALANCE ORIGIN CALLDATALOAD 0x2E CALLDATALOAD CALLDATALOAD CODECOPY KECCAK256 BALANCE ORIGIN CODECOPY 0x2E CODESIZE CALLER CODECOPY 0x4C BALANCE ORIGIN CALLER 0x2E BALANCE CALLDATACOPY CALLDATASIZE KECCAK256 BALANCE ORIGIN CALLDATACOPY 0x2E CALLVALUE BALANCE CODECOPY 0x4C BALANCE ORIGIN CALLDATALOAD 0x2E CALLDATALOAD CALLDATALOAD CODECOPY KECCAK256 BALANCE ORIGIN CALLDATALOAD 0x4C BALANCE CALLVALUE BALANCE 0x2E CALLVALUE CALLVALUE BALANCE KECCAK256 BALANCE ORIGIN CALLDATALOAD GAS 0x22 KECCAK256 PUSH7 0x696C6C2D6F7061 PUSH4 0x6974793D 0x22 ADDRESS 0x2E ADDRESS CALLDATALOAD 0x22 0x2F RETURNDATACOPY EXTCODECOPY PUSH17 0x6174682069643D227031322220643D224D BALANCE ORIGIN ADDRESS KECCAK256 BALANCE CALLER ADDRESS 0x2E CALLDATASIZE CALLVALUE CALLDATALOAD 0x4C BALANCE ORIGIN ORIGIN 0x2E CALLER CODESIZE ORIGIN KECCAK256 BALANCE ORIGIN CODESIZE 0x2E ORIGIN ORIGIN CALLDATASIZE 0x4C BALANCE ORIGIN CALLVALUE 0x2E CALLDATACOPY CALLDATASIZE CALLDATALOAD KECCAK256 BALANCE CALLER ADDRESS 0x2E CALLDATASIZE CALLVALUE CALLDATALOAD JUMP BALANCE CALLVALUE CALLDATASIZE 0x2E CALLDATACOPY CALLDATACOPY CALLVALUE 0x4C BALANCE ORIGIN ORIGIN 0x2E CALLER CODESIZE ORIGIN KECCAK256 BALANCE CALLVALUE CODECOPY 0x2E BALANCE CODECOPY CALLVALUE 0x4C BALANCE ORIGIN ADDRESS KECCAK256 BALANCE CALLVALUE CALLDATASIZE 0x2E CALLDATACOPY CALLDATACOPY CALLVALUE JUMP BALANCE CALLER ADDRESS 0x2E CALLDATASIZE CALLVALUE CALLDATALOAD GAS 0x22 KECCAK256 PUSH7 0x696C6C2D6F7061 PUSH4 0x6974793D 0x22 ADDRESS 0x2E ADDRESS CALLDATALOAD 0x22 0x2F RETURNDATACOPY EXTCODECOPY PUSH17 0x6174682069643D227031332220643D224D BALANCE CALLVALUE ORIGIN 0x2E ORIGIN CALLER CALLDATALOAD KECCAK256 BALANCE CALLER ADDRESS 0x2E CALLDATASIZE CALLVALUE CALLDATALOAD 0x4C BALANCE CALLVALUE CALLVALUE 0x2E CALLDATASIZE BALANCE CODESIZE KECCAK256 BALANCE ORIGIN CODESIZE 0x2E ORIGIN ORIGIN CALLDATASIZE 0x4C BALANCE CALLVALUE CALLDATACOPY KECCAK256 BALANCE CALLER ADDRESS 0x2E CALLDATASIZE CALLVALUE CALLDATALOAD JUMP BALANCE CALLVALUE CALLDATASIZE 0x2E CALLDATACOPY CALLDATACOPY CALLVALUE 0x4C BALANCE CALLVALUE CALLVALUE 0x2E CALLDATASIZE BALANCE CODESIZE KECCAK256 BALANCE CALLVALUE CODECOPY 0x2E BALANCE CODECOPY CALLVALUE 0x4C BALANCE CALLVALUE ORIGIN 0x2E ORIGIN CALLER CALLDATALOAD KECCAK256 BALANCE CALLVALUE CALLDATASIZE 0x2E CALLDATACOPY CALLDATACOPY CALLVALUE JUMP BALANCE CALLER ADDRESS 0x2E CALLDATASIZE CALLVALUE CALLDATALOAD GAS 0x22 KECCAK256 PUSH7 0x696C6C2D6F7061 PUSH4 0x6974793D 0x22 ADDRESS 0x2E ADDRESS CALLDATALOAD 0x22 0x2F RETURNDATACOPY EXTCODECOPY PUSH17 0x6174682069643D227031342220643D224D BALANCE CALLVALUE BALANCE 0x2E CALLVALUE CALLVALUE BALANCE KECCAK256 BALANCE CALLVALUE CALLDATACOPY 0x2E CALLDATALOAD CODESIZE BALANCE 0x4C BALANCE CALLVALUE CALLER 0x2E CODESIZE ORIGIN CALLER KECCAK256 BALANCE CALLDATALOAD ADDRESS 0x4C BALANCE CALLVALUE BALANCE 0x2E CALLVALUE CALLVALUE BALANCE KECCAK256 BALANCE CALLDATALOAD ORIGIN 0x2E CALLVALUE BALANCE CODECOPY 0x4C BALANCE ORIGIN CALLDATALOAD 0x2E CALLDATALOAD CALLDATALOAD CODECOPY KECCAK256 BALANCE CALLDATALOAD ORIGIN 0x2E CALLVALUE BALANCE CODECOPY 0x4C BALANCE ORIGIN CALLER 0x2E BALANCE CALLDATACOPY CALLDATASIZE KECCAK256 BALANCE CALLDATALOAD ADDRESS 0x4C BALANCE ORIGIN CALLDATALOAD 0x2E CALLDATALOAD CALLDATALOAD CODECOPY KECCAK256 BALANCE CALLVALUE CALLDATACOPY 0x2E CALLDATALOAD CODESIZE BALANCE 0x4C BALANCE CALLVALUE BALANCE 0x2E CALLVALUE CALLVALUE BALANCE KECCAK256 BALANCE CALLVALUE CALLDATACOPY 0x2E CALLDATALOAD CODESIZE BALANCE GAS 0x22 KECCAK256 PUSH7 0x696C6C2D6F7061 PUSH4 0x6974793D 0x22 ADDRESS 0x2E ADDRESS CALLDATALOAD 0x22 0x2F RETURNDATACOPY EXTCODECOPY PUSH17 0x6174682069643D227031352220643D224D BALANCE ORIGIN ADDRESS KECCAK256 BALANCE CALLDATALOAD CALLER 0x2E ORIGIN ORIGIN CALLDATASIZE 0x4C BALANCE ORIGIN ORIGIN 0x2E CALLER CODESIZE ORIGIN KECCAK256 BALANCE CALLDATALOAD ADDRESS 0x2E CODESIZE ADDRESS CALLDATASIZE 0x4C BALANCE ORIGIN CALLVALUE 0x2E CALLDATACOPY CALLDATASIZE CALLDATALOAD KECCAK256 BALANCE CALLDATALOAD CALLER 0x2E ORIGIN ORIGIN CALLDATASIZE JUMP BALANCE CALLDATASIZE CODECOPY 0x2E CALLER CALLDATALOAD CALLDATALOAD 0x4C BALANCE ORIGIN ORIGIN 0x2E CALLER CODESIZE ORIGIN KECCAK256 BALANCE CALLDATACOPY BALANCE 0x2E CALLDATACOPY CALLDATACOPY CALLVALUE 0x4C BALANCE ORIGIN ADDRESS KECCAK256 BALANCE CALLDATASIZE CODECOPY 0x2E CALLER CALLDATALOAD CALLDATALOAD JUMP BALANCE CALLDATALOAD CALLER 0x2E ORIGIN ORIGIN CALLDATASIZE GAS 0x22 KECCAK256 PUSH7 0x696C6C2D6F7061 PUSH4 0x6974793D 0x22 ADDRESS 0x2E ADDRESS CALLDATALOAD 0x22 0x2F RETURNDATACOPY EXTCODECOPY PUSH17 0x6174682069643D227031362220643D224D BALANCE CALLVALUE ORIGIN 0x2E ORIGIN CALLER CALLDATALOAD KECCAK256 BALANCE CALLDATALOAD CALLER 0x2E ORIGIN ORIGIN CALLDATASIZE 0x4C BALANCE CALLVALUE CALLVALUE 0x2E CALLDATASIZE BALANCE CODESIZE KECCAK256 BALANCE CALLDATALOAD ADDRESS 0x2E CODESIZE ADDRESS CALLDATASIZE 0x4C BALANCE CALLVALUE CALLDATACOPY KECCAK256 BALANCE CALLDATALOAD CALLER 0x2E ORIGIN ORIGIN CALLDATASIZE JUMP BALANCE CALLDATASIZE CODECOPY 0x2E CALLER CALLDATALOAD CALLDATALOAD 0x4C BALANCE CALLVALUE CALLVALUE 0x2E CALLDATASIZE BALANCE CODESIZE KECCAK256 BALANCE CALLDATACOPY BALANCE 0x2E CALLDATACOPY CALLDATACOPY CALLVALUE 0x4C BALANCE CALLVALUE ORIGIN 0x2E ORIGIN CALLER CALLDATALOAD KECCAK256 BALANCE CALLDATASIZE CODECOPY 0x2E CALLER CALLDATALOAD CALLDATALOAD JUMP BALANCE CALLDATALOAD CALLER 0x2E ORIGIN ORIGIN CALLDATASIZE GAS 0x22 KECCAK256 PUSH7 0x696C6C2D6F7061 PUSH4 0x6974793D 0x22 ADDRESS 0x2E ADDRESS CALLDATALOAD 0x22 0x2F RETURNDATACOPY EXTCODECOPY PUSH17 0x6174682069643D227031372220643D224D BALANCE CALLVALUE BALANCE 0x2E CALLVALUE CALLVALUE BALANCE KECCAK256 BALANCE CALLDATACOPY ADDRESS 0x2E BALANCE CALLDATASIZE BALANCE 0x4C BALANCE CALLVALUE CALLER 0x2E CODESIZE ORIGIN CALLER KECCAK256 BALANCE CALLDATACOPY ORIGIN 0x2E CALLDATALOAD CODESIZE BALANCE 0x4C BALANCE CALLVALUE BALANCE 0x2E CALLVALUE CALLVALUE BALANCE KECCAK256 BALANCE CALLDATACOPY CALLDATALOAD 0x4C BALANCE ORIGIN CALLDATALOAD 0x2E CALLDATALOAD CALLDATALOAD CODECOPY KECCAK256 BALANCE CALLDATACOPY CALLDATALOAD 0x4C BALANCE ORIGIN CALLER 0x2E BALANCE CALLDATACOPY CALLDATASIZE KECCAK256 BALANCE CALLDATACOPY ORIGIN 0x2E CALLDATALOAD CODESIZE BALANCE 0x4C BALANCE ORIGIN CALLDATALOAD 0x2E CALLDATALOAD CALLDATALOAD CODECOPY KECCAK256 BALANCE CALLDATACOPY ADDRESS 0x2E BALANCE CALLDATASIZE BALANCE 0x4C BALANCE CALLVALUE BALANCE 0x2E CALLVALUE CALLVALUE BALANCE KECCAK256 BALANCE CALLDATACOPY ADDRESS 0x2E BALANCE CALLDATASIZE BALANCE GAS 0x22 KECCAK256 PUSH7 0x696C6C2D6F7061 PUSH4 0x6974793D 0x22 ADDRESS 0x2E ADDRESS CALLDATALOAD 0x22 0x2F RETURNDATACOPY EXTCODECOPY PUSH17 0x6174682069643D227032312220643D224D BALANCE CALLDATACOPY CALLER 0x2E CALLVALUE CALLVALUE BALANCE KECCAK256 BALANCE ORIGIN CALLDATALOAD 0x4C BALANCE CALLDATACOPY CALLDATALOAD 0x2E CODESIZE ORIGIN CALLER KECCAK256 BALANCE ORIGIN CALLDATACOPY 0x2E CALLVALUE BALANCE CODECOPY 0x4C BALANCE CALLDATACOPY CALLER 0x2E CALLVALUE CALLVALUE BALANCE KECCAK256 BALANCE ORIGIN CODECOPY 0x2E CODESIZE CALLER CODECOPY 0x4C BALANCE CALLDATALOAD CALLDATACOPY 0x2E CALLDATALOAD CALLDATALOAD CODECOPY KECCAK256 BALANCE ORIGIN CODECOPY 0x2E CODESIZE CALLER CODECOPY 0x4C BALANCE CALLDATALOAD CALLDATALOAD 0x2E BALANCE CALLDATACOPY CALLDATASIZE KECCAK256 BALANCE ORIGIN CALLDATACOPY 0x2E CALLVALUE BALANCE CODECOPY 0x4C BALANCE CALLDATALOAD CALLDATACOPY 0x2E CALLDATALOAD CALLDATALOAD CODECOPY KECCAK256 BALANCE ORIGIN CALLDATALOAD 0x4C BALANCE CALLDATACOPY CALLER 0x2E CALLVALUE CALLVALUE BALANCE KECCAK256 BALANCE ORIGIN CALLDATALOAD GAS 0x22 KECCAK256 PUSH7 0x696C6C2D6F7061 PUSH4 0x6974793D 0x22 ADDRESS 0x2E ADDRESS CALLDATALOAD 0x22 0x2F RETURNDATACOPY EXTCODECOPY PUSH17 0x6174682069643D227032322220643D224D BALANCE CALLDATALOAD ORIGIN KECCAK256 BALANCE CALLER ADDRESS 0x2E CALLDATASIZE CALLVALUE CALLDATALOAD 0x4C BALANCE CALLDATALOAD CALLVALUE 0x2E CALLER CODESIZE ORIGIN KECCAK256 BALANCE ORIGIN CODESIZE 0x2E ORIGIN ORIGIN CALLDATASIZE 0x4C BALANCE CALLDATALOAD CALLDATASIZE 0x2E CALLDATACOPY CALLDATASIZE CALLDATALOAD KECCAK256 BALANCE CALLER ADDRESS 0x2E CALLDATASIZE CALLVALUE CALLDATALOAD JUMP BALANCE CALLVALUE CALLDATASIZE 0x2E CALLDATACOPY CALLDATACOPY CALLVALUE 0x4C BALANCE CALLDATALOAD CALLVALUE 0x2E CALLER CODESIZE ORIGIN KECCAK256 BALANCE CALLVALUE CODECOPY 0x2E BALANCE CODECOPY CALLVALUE 0x4C BALANCE CALLDATALOAD ORIGIN KECCAK256 BALANCE CALLVALUE CALLDATASIZE 0x2E CALLDATACOPY CALLDATACOPY CALLVALUE JUMP BALANCE CALLER ADDRESS 0x2E CALLDATASIZE CALLVALUE CALLDATALOAD GAS 0x22 KECCAK256 PUSH7 0x696C6C2D6F7061 PUSH4 0x6974793D 0x22 ADDRESS 0x2E ADDRESS CALLDATALOAD 0x22 0x2F RETURNDATACOPY EXTCODECOPY PUSH17 0x6174682069643D227032332220643D224D BALANCE CALLDATACOPY CALLVALUE 0x2E ORIGIN CALLER CALLDATALOAD KECCAK256 BALANCE CALLER ADDRESS 0x2E CALLDATASIZE CALLVALUE CALLDATALOAD 0x4C BALANCE CALLDATACOPY CALLDATASIZE 0x2E CALLDATASIZE BALANCE CODESIZE KECCAK256 BALANCE ORIGIN CODESIZE 0x2E ORIGIN ORIGIN CALLDATASIZE 0x4C BALANCE CALLDATACOPY CODECOPY KECCAK256 BALANCE CALLER ADDRESS 0x2E CALLDATASIZE CALLVALUE CALLDATALOAD JUMP BALANCE CALLVALUE CALLDATASIZE 0x2E CALLDATACOPY CALLDATACOPY CALLVALUE 0x4C BALANCE CALLDATACOPY CALLDATASIZE 0x2E CALLDATASIZE BALANCE CODESIZE KECCAK256 BALANCE CALLVALUE CODECOPY 0x2E BALANCE CODECOPY CALLVALUE 0x4C BALANCE CALLDATACOPY CALLVALUE 0x2E ORIGIN CALLER CALLDATALOAD KECCAK256 BALANCE CALLVALUE CALLDATASIZE 0x2E CALLDATACOPY CALLDATACOPY CALLVALUE JUMP BALANCE CALLER ADDRESS 0x2E CALLDATASIZE CALLVALUE CALLDATALOAD GAS 0x22 KECCAK256 PUSH7 0x696C6C2D6F7061 PUSH4 0x6974793D 0x22 ADDRESS 0x2E ADDRESS CALLDATALOAD 0x22 0x2F RETURNDATACOPY EXTCODECOPY PUSH17 0x6174682069643D227032342220643D224D BALANCE CALLDATACOPY CALLER 0x2E CALLVALUE CALLVALUE BALANCE KECCAK256 BALANCE CALLVALUE CALLDATACOPY 0x2E CALLDATALOAD CODESIZE BALANCE 0x4C BALANCE CALLDATACOPY CALLDATALOAD 0x2E CODESIZE ORIGIN CALLER KECCAK256 BALANCE CALLDATALOAD ADDRESS 0x4C BALANCE CALLDATACOPY CALLER 0x2E CALLVALUE CALLVALUE BALANCE KECCAK256 BALANCE CALLDATALOAD ORIGIN 0x2E CALLVALUE BALANCE CODECOPY 0x4C BALANCE CALLDATALOAD CALLDATACOPY 0x2E CALLDATALOAD CALLDATALOAD CODECOPY KECCAK256 BALANCE CALLDATALOAD ORIGIN 0x2E CALLVALUE BALANCE CODECOPY 0x4C BALANCE CALLDATALOAD CALLDATALOAD 0x2E BALANCE CALLDATACOPY CALLDATASIZE KECCAK256 BALANCE CALLDATALOAD ADDRESS 0x4C BALANCE CALLDATALOAD CALLDATACOPY 0x2E CALLDATALOAD CALLDATALOAD CODECOPY KECCAK256 BALANCE CALLVALUE CALLDATACOPY 0x2E CALLDATALOAD CODESIZE BALANCE 0x4C BALANCE CALLDATACOPY CALLER 0x2E CALLVALUE CALLVALUE BALANCE KECCAK256 BALANCE CALLVALUE CALLDATACOPY 0x2E CALLDATALOAD CODESIZE BALANCE GAS 0x22 KECCAK256 PUSH7 0x696C6C2D6F7061 PUSH4 0x6974793D 0x22 ADDRESS 0x2E ADDRESS CALLDATALOAD 0x22 0x2F RETURNDATACOPY EXTCODECOPY PUSH17 0x6174682069643D227032352220643D224D BALANCE CALLDATALOAD ORIGIN KECCAK256 BALANCE CALLDATALOAD CALLER 0x2E ORIGIN ORIGIN CALLDATASIZE 0x4C BALANCE CALLDATALOAD CALLVALUE 0x2E CALLER CODESIZE ORIGIN KECCAK256 BALANCE CALLDATALOAD ADDRESS 0x2E CODESIZE ADDRESS CALLDATASIZE 0x4C BALANCE CALLDATALOAD CALLDATASIZE 0x2E CALLDATACOPY CALLDATASIZE CALLDATALOAD KECCAK256 BALANCE CALLDATALOAD CALLER 0x2E ORIGIN ORIGIN CALLDATASIZE JUMP BALANCE CALLDATASIZE CODECOPY 0x2E CALLER CALLDATALOAD CALLDATALOAD 0x4C BALANCE CALLDATALOAD CALLVALUE 0x2E CALLER CODESIZE ORIGIN KECCAK256 BALANCE CALLDATACOPY BALANCE 0x2E CALLDATACOPY CALLDATACOPY CALLVALUE 0x4C BALANCE CALLDATALOAD ORIGIN KECCAK256 BALANCE CALLDATASIZE CODECOPY 0x2E CALLER CALLDATALOAD CALLDATALOAD JUMP BALANCE CALLDATALOAD CALLER 0x2E ORIGIN ORIGIN CALLDATASIZE GAS 0x22 KECCAK256 PUSH7 0x696C6C2D6F7061 PUSH4 0x6974793D 0x22 ADDRESS 0x2E ADDRESS CALLDATALOAD 0x22 0x2F RETURNDATACOPY EXTCODECOPY PUSH17 0x6174682069643D227032362220643D224D BALANCE CALLDATACOPY CALLVALUE 0x2E ORIGIN CALLER CALLDATALOAD KECCAK256 BALANCE CALLDATALOAD CALLER 0x2E ORIGIN ORIGIN CALLDATASIZE 0x4C BALANCE CALLDATACOPY CALLDATASIZE 0x2E CALLDATASIZE BALANCE CODESIZE KECCAK256 BALANCE CALLDATALOAD ADDRESS 0x2E CODESIZE ADDRESS CALLDATASIZE 0x4C BALANCE CALLDATACOPY CODECOPY KECCAK256 BALANCE CALLDATALOAD CALLER 0x2E ORIGIN ORIGIN CALLDATASIZE JUMP BALANCE CALLDATASIZE CODECOPY 0x2E CALLER CALLDATALOAD CALLDATALOAD 0x4C BALANCE CALLDATACOPY CALLDATASIZE 0x2E CALLDATASIZE BALANCE CODESIZE KECCAK256 BALANCE CALLDATACOPY BALANCE 0x2E CALLDATACOPY CALLDATACOPY CALLVALUE 0x4C BALANCE CALLDATACOPY CALLVALUE 0x2E ORIGIN CALLER CALLDATALOAD KECCAK256 BALANCE CALLDATASIZE CODECOPY 0x2E CALLER CALLDATALOAD CALLDATALOAD JUMP BALANCE CALLDATALOAD CALLER 0x2E ORIGIN ORIGIN CALLDATASIZE GAS 0x22 KECCAK256 PUSH7 0x696C6C2D6F7061 PUSH4 0x6974793D 0x22 ADDRESS 0x2E ADDRESS CALLDATALOAD 0x22 0x2F RETURNDATACOPY EXTCODECOPY PUSH17 0x6174682069643D227032372220643D224D BALANCE CALLDATACOPY CALLER 0x2E CALLVALUE CALLVALUE BALANCE KECCAK256 BALANCE CALLDATACOPY ADDRESS 0x2E BALANCE CALLDATASIZE BALANCE 0x4C BALANCE CALLDATACOPY CALLDATALOAD 0x2E CODESIZE ORIGIN CALLER KECCAK256 BALANCE CALLDATACOPY ORIGIN 0x2E CALLDATALOAD CODESIZE BALANCE 0x4C BALANCE CALLDATACOPY CALLER 0x2E CALLVALUE CALLVALUE BALANCE KECCAK256 BALANCE CALLDATACOPY CALLDATALOAD 0x4C BALANCE CALLDATALOAD CALLDATACOPY 0x2E CALLDATALOAD CALLDATALOAD CODECOPY KECCAK256 BALANCE CALLDATACOPY CALLDATALOAD 0x4C BALANCE CALLDATALOAD CALLDATALOAD 0x2E BALANCE CALLDATACOPY CALLDATASIZE KECCAK256 BALANCE CALLDATACOPY ORIGIN 0x2E CALLDATALOAD CODESIZE BALANCE 0x4C BALANCE CALLDATALOAD CALLDATACOPY 0x2E CALLDATALOAD CALLDATALOAD CODECOPY KECCAK256 BALANCE CALLDATACOPY ADDRESS 0x2E BALANCE CALLDATASIZE BALANCE 0x4C BALANCE CALLDATACOPY CALLER 0x2E CALLVALUE CALLVALUE BALANCE KECCAK256 BALANCE CALLDATACOPY ADDRESS 0x2E BALANCE CALLDATASIZE BALANCE GAS 0x22 KECCAK256 PUSH7 0x696C6C2D6F7061 PUSH4 0x6974793D 0x22 ADDRESS 0x2E ADDRESS CALLDATALOAD 0x22 0x2F RETURNDATACOPY EXTCODECOPY PUSH17 0x6174682069643D227033312220643D224D ORIGIN ADDRESS CALLDATALOAD 0x2E CALLVALUE CALLVALUE BALANCE KECCAK256 BALANCE ORIGIN CALLDATALOAD 0x4C ORIGIN ADDRESS CALLDATACOPY 0x2E CODESIZE ORIGIN CALLER KECCAK256 BALANCE ORIGIN CALLDATACOPY 0x2E CALLVALUE BALANCE CODECOPY 0x4C ORIGIN ADDRESS CALLDATALOAD 0x2E CALLVALUE CALLVALUE BALANCE KECCAK256 BALANCE ORIGIN CODECOPY 0x2E CODESIZE CALLER CODECOPY 0x4C BALANCE CODESIZE CODECOPY 0x2E CALLDATALOAD CALLDATALOAD CODECOPY KECCAK256 BALANCE ORIGIN CODECOPY 0x2E CODESIZE CALLER CODECOPY 0x4C BALANCE CODESIZE CALLDATACOPY 0x2E BALANCE CALLDATACOPY CALLDATASIZE KECCAK256 BALANCE ORIGIN CALLDATACOPY 0x2E CALLVALUE BALANCE CODECOPY 0x4C BALANCE CODESIZE CODECOPY 0x2E CALLDATALOAD CALLDATALOAD CODECOPY KECCAK256 BALANCE ORIGIN CALLDATALOAD 0x4C ORIGIN ADDRESS CALLDATALOAD 0x2E CALLVALUE CALLVALUE BALANCE KECCAK256 BALANCE ORIGIN CALLDATALOAD GAS 0x22 KECCAK256 PUSH7 0x696C6C2D6F7061 PUSH4 0x6974793D 0x22 ADDRESS 0x2E ADDRESS CALLDATALOAD 0x22 0x2F RETURNDATACOPY EXTCODECOPY PUSH17 0x6174682069643D227033322220643D224D BALANCE CODESIZE CALLVALUE KECCAK256 BALANCE CALLER ADDRESS 0x2E CALLDATASIZE CALLVALUE CALLDATALOAD 0x4C BALANCE CODESIZE CALLDATASIZE 0x2E CALLER CODESIZE ORIGIN KECCAK256 BALANCE ORIGIN CODESIZE 0x2E ORIGIN ORIGIN CALLDATASIZE 0x4C BALANCE CODESIZE CODESIZE 0x2E CALLDATACOPY CALLDATASIZE CALLDATALOAD KECCAK256 BALANCE CALLER ADDRESS 0x2E CALLDATASIZE CALLVALUE CALLDATALOAD JUMP BALANCE CALLVALUE CALLDATASIZE 0x2E CALLDATACOPY CALLDATACOPY CALLVALUE 0x4C BALANCE CODESIZE CALLDATASIZE 0x2E CALLER CODESIZE ORIGIN KECCAK256 BALANCE CALLVALUE CODECOPY 0x2E BALANCE CODECOPY CALLVALUE 0x4C BALANCE CODESIZE CALLVALUE KECCAK256 BALANCE CALLVALUE CALLDATASIZE 0x2E CALLDATACOPY CALLDATACOPY CALLVALUE JUMP BALANCE CALLER ADDRESS 0x2E CALLDATASIZE CALLVALUE CALLDATALOAD GAS 0x22 KECCAK256 PUSH7 0x696C6C2D6F7061 PUSH4 0x6974793D 0x22 ADDRESS 0x2E ADDRESS CALLDATALOAD 0x22 0x2F RETURNDATACOPY EXTCODECOPY PUSH17 0x6174682069643D227033332220643D224D ORIGIN ADDRESS CALLDATASIZE 0x2E ORIGIN CALLER CALLDATALOAD KECCAK256 BALANCE CALLER ADDRESS 0x2E CALLDATASIZE CALLVALUE CALLDATALOAD 0x4C ORIGIN ADDRESS CODESIZE 0x2E CALLDATASIZE BALANCE CODESIZE KECCAK256 BALANCE ORIGIN CODESIZE 0x2E ORIGIN ORIGIN CALLDATASIZE 0x4C ORIGIN BALANCE BALANCE KECCAK256 BALANCE CALLER ADDRESS 0x2E CALLDATASIZE CALLVALUE CALLDATALOAD JUMP BALANCE CALLVALUE CALLDATASIZE 0x2E CALLDATACOPY CALLDATACOPY CALLVALUE 0x4C ORIGIN ADDRESS CODESIZE 0x2E CALLDATASIZE BALANCE CODESIZE KECCAK256 BALANCE CALLVALUE CODECOPY 0x2E BALANCE CODECOPY CALLVALUE 0x4C ORIGIN ADDRESS CALLDATASIZE 0x2E ORIGIN CALLER CALLDATALOAD KECCAK256 BALANCE CALLVALUE CALLDATASIZE 0x2E CALLDATACOPY CALLDATACOPY CALLVALUE JUMP BALANCE CALLER ADDRESS 0x2E CALLDATASIZE CALLVALUE CALLDATALOAD GAS 0x22 KECCAK256 PUSH7 0x696C6C2D6F7061 PUSH4 0x6974793D 0x22 ADDRESS 0x2E ADDRESS CALLDATALOAD 0x22 0x2F RETURNDATACOPY EXTCODECOPY PUSH17 0x6174682069643D227033342220643D224D ORIGIN ADDRESS CALLDATALOAD 0x2E CALLVALUE CALLVALUE BALANCE KECCAK256 BALANCE CALLVALUE CALLDATACOPY 0x2E CALLDATALOAD CODESIZE BALANCE 0x4C ORIGIN ADDRESS CALLDATACOPY 0x2E CODESIZE ORIGIN CALLER KECCAK256 BALANCE CALLDATALOAD ADDRESS 0x4C ORIGIN ADDRESS CALLDATALOAD 0x2E CALLVALUE CALLVALUE BALANCE KECCAK256 BALANCE CALLDATALOAD ORIGIN 0x2E CALLVALUE BALANCE CODECOPY 0x4C BALANCE CODESIZE CODECOPY 0x2E CALLDATALOAD CALLDATALOAD CODECOPY KECCAK256 BALANCE CALLDATALOAD ORIGIN 0x2E CALLVALUE BALANCE CODECOPY 0x4C BALANCE CODESIZE CALLDATACOPY 0x2E BALANCE CALLDATACOPY CALLDATASIZE KECCAK256 BALANCE CALLDATALOAD ADDRESS 0x4C BALANCE CODESIZE CODECOPY 0x2E CALLDATALOAD CALLDATALOAD CODECOPY KECCAK256 BALANCE CALLVALUE CALLDATACOPY 0x2E CALLDATALOAD CODESIZE BALANCE 0x4C ORIGIN ADDRESS CALLDATALOAD 0x2E CALLVALUE CALLVALUE BALANCE KECCAK256 BALANCE CALLVALUE CALLDATACOPY 0x2E CALLDATALOAD CODESIZE BALANCE GAS 0x22 KECCAK256 PUSH7 0x696C6C2D6F7061 PUSH4 0x6974793D 0x22 ADDRESS 0x2E ADDRESS CALLDATALOAD 0x22 0x2F RETURNDATACOPY EXTCODECOPY PUSH17 0x6174682069643D227033352220643D224D BALANCE CODESIZE CALLVALUE KECCAK256 BALANCE CALLDATALOAD CALLER 0x2E ORIGIN ORIGIN CALLDATASIZE 0x4C BALANCE CODESIZE CALLDATASIZE 0x2E CALLER CODESIZE ORIGIN KECCAK256 BALANCE CALLDATALOAD ADDRESS 0x2E CODESIZE ADDRESS CALLDATASIZE 0x4C BALANCE CODESIZE CODESIZE 0x2E CALLDATACOPY CALLDATASIZE CALLDATALOAD KECCAK256 BALANCE CALLDATALOAD CALLER 0x2E ORIGIN ORIGIN CALLDATASIZE JUMP BALANCE CALLDATASIZE CODECOPY 0x2E CALLER CALLDATALOAD CALLDATALOAD 0x4C BALANCE CODESIZE CALLDATASIZE 0x2E CALLER CODESIZE ORIGIN KECCAK256 BALANCE CALLDATACOPY BALANCE 0x2E CALLDATACOPY CALLDATACOPY CALLVALUE 0x4C BALANCE CODESIZE CALLVALUE KECCAK256 BALANCE CALLDATASIZE CODECOPY 0x2E CALLER CALLDATALOAD CALLDATALOAD JUMP BALANCE CALLDATALOAD CALLER 0x2E ORIGIN ORIGIN CALLDATASIZE GAS 0x22 KECCAK256 PUSH7 0x696C6C2D6F7061 PUSH4 0x6974793D 0x22 ADDRESS 0x2E ADDRESS CALLDATALOAD 0x22 0x2F RETURNDATACOPY EXTCODECOPY PUSH17 0x6174682069643D227033362220643D224D ORIGIN ADDRESS CALLDATASIZE 0x2E ORIGIN CALLER CALLDATALOAD KECCAK256 BALANCE CALLDATALOAD CALLER 0x2E ORIGIN ORIGIN CALLDATASIZE 0x4C ORIGIN ADDRESS CODESIZE 0x2E CALLDATASIZE BALANCE CODESIZE KECCAK256 BALANCE CALLDATALOAD ADDRESS 0x2E CODESIZE ADDRESS CALLDATASIZE 0x4C ORIGIN BALANCE BALANCE KECCAK256 BALANCE CALLDATALOAD CALLER 0x2E ORIGIN ORIGIN CALLDATASIZE JUMP BALANCE CALLDATASIZE CODECOPY 0x2E CALLER CALLDATALOAD CALLDATALOAD 0x4C ORIGIN ADDRESS CODESIZE 0x2E CALLDATASIZE BALANCE CODESIZE KECCAK256 BALANCE CALLDATACOPY BALANCE 0x2E CALLDATACOPY CALLDATACOPY CALLVALUE 0x4C ORIGIN ADDRESS CALLDATASIZE 0x2E ORIGIN CALLER CALLDATALOAD KECCAK256 BALANCE CALLDATASIZE CODECOPY 0x2E CALLER CALLDATALOAD CALLDATALOAD JUMP BALANCE CALLDATALOAD CALLER 0x2E ORIGIN ORIGIN CALLDATASIZE GAS 0x22 KECCAK256 PUSH7 0x696C6C2D6F7061 PUSH4 0x6974793D 0x22 ADDRESS 0x2E ADDRESS CALLDATALOAD 0x22 0x2F RETURNDATACOPY EXTCODECOPY PUSH17 0x6174682069643D227033372220643D224D ORIGIN ADDRESS CALLDATALOAD 0x2E CALLVALUE CALLVALUE BALANCE KECCAK256 BALANCE CALLDATACOPY ADDRESS 0x2E BALANCE CALLDATASIZE BALANCE 0x4C ORIGIN ADDRESS CALLDATACOPY 0x2E CODESIZE ORIGIN CALLER KECCAK256 BALANCE CALLDATACOPY ORIGIN 0x2E CALLDATALOAD CODESIZE BALANCE 0x4C ORIGIN ADDRESS CALLDATALOAD 0x2E CALLVALUE CALLVALUE BALANCE KECCAK256 BALANCE CALLDATACOPY CALLDATALOAD 0x4C BALANCE CODESIZE CODECOPY 0x2E CALLDATALOAD CALLDATALOAD CODECOPY KECCAK256 BALANCE CALLDATACOPY CALLDATALOAD 0x4C BALANCE CODESIZE CALLDATACOPY 0x2E BALANCE CALLDATACOPY CALLDATASIZE KECCAK256 BALANCE CALLDATACOPY ORIGIN 0x2E CALLDATALOAD CODESIZE BALANCE 0x4C BALANCE CODESIZE CODECOPY 0x2E CALLDATALOAD CALLDATALOAD CODECOPY KECCAK256 BALANCE CALLDATACOPY ADDRESS 0x2E BALANCE CALLDATASIZE BALANCE 0x4C ORIGIN ADDRESS CALLDATALOAD 0x2E CALLVALUE CALLVALUE BALANCE KECCAK256 BALANCE CALLDATACOPY ADDRESS 0x2E BALANCE CALLDATASIZE BALANCE GAS 0x22 KECCAK256 PUSH7 0x696C6C2D6F7061 PUSH4 0x6974793D 0x22 ADDRESS 0x2E ADDRESS CALLDATALOAD 0x22 0x2F RETURNDATACOPY EXTCODECOPY PUSH2 0x6E69 PUSH14 0x617465206174747269627574654E PUSH2 0x6D65 RETURNDATASIZE 0x22 PUSH7 0x696C6C22206475 PUSH19 0x3D223237732220726570656174436F756E743D 0x22 PUSH10 0x6E646566696E69746522 KECCAK256 PUSH23 0x616C7565733D224142434445464748494A4B4C4D4E4F50 MLOAD MSTORE MSTORE8 SLOAD SSTORE JUMP JUMPI PC MSIZE GAS PUSH2 0x6263 PUSH5 0x6566676869 PUSH11 0x6B6C6D6E6F707172737475 PUSH23 0x7778797A303132333435363738392B2FA2646970667358 0x22 SLT KECCAK256 0xAB RETURN DIV PUSH6 0x723878CADF44 0xAF 0xD9 0x4D 0xDE 0xC0 0x26 LOG1 BASEFEE PUSH20 0x6FE590D4AAA779DD019F3FFD164736F6C634300 ADDMOD SLT STOP CALLER "
		},
		"gasEstimates": {
			"creation": {
				"codeDepositCost": "4670200",
				"executionCost": "infinite",
				"totalCost": "infinite"
			},
			"external": {
				"animationColors(uint256)": "infinite",
				"approve(address,uint256)": "infinite",
				"balanceOf(address)": "2950",
				"broadcast(uint256,uint256,(uint256,uint256,uint256))": "infinite",
				"broadcastCounter()": "2520",
				"broadcastNumber()": "2518",
				"getApproved(uint256)": "7411",
				"getBaseColor(uint256)": "infinite",
				"isApprovedForAll(address,address)": "infinite",
				"lockedUntil()": "2518",
				"mint(uint256)": "infinite",
				"mintCloseTime()": "2540",
				"minutesUntilUnlocked()": "infinite",
				"name()": "infinite",
				"owner()": "2567",
				"ownerOf(uint256)": "infinite",
				"renounceOwnership()": "30488",
				"safeTransferFrom(address,address,uint256)": "infinite",
				"safeTransferFrom(address,address,uint256,bytes)": "infinite",
				"secondsUntilUnlocked()": "infinite",
				"setApprovalForAll(address,bool)": "infinite",
				"startMint()": "infinite",
				"supportsInterface(bytes4)": "768",
				"symbol()": "infinite",
				"tokenURI(uint256)": "infinite",
				"totalSupply()": "4630",
				"transferFrom(address,address,uint256)": "infinite",
				"transferOwnership(address)": "30810",
				"withdraw()": "infinite"
			},
			"internal": {
				"_startTokenId()": "23",
				"addToAnimation(struct UintsEdition.Rgb memory)": "infinite",
				"checkColors(struct UintsEdition.Rgb memory)": "infinite",
				"getSvg()": "infinite",
				"getValue(uint256)": "infinite",
				"ownerOfUints(uint256)": "infinite",
				"startAnimationColors()": "infinite"
			}
		},
		"methodIdentifiers": {
			"animationColors(uint256)": "03a1d342",
			"approve(address,uint256)": "095ea7b3",
			"balanceOf(address)": "70a08231",
			"broadcast(uint256,uint256,(uint256,uint256,uint256))": "05cbeaa0",
			"broadcastCounter()": "057e3087",
			"broadcastNumber()": "44095c5f",
			"getApproved(uint256)": "081812fc",
			"getBaseColor(uint256)": "4ca6d96e",
			"isApprovedForAll(address,address)": "e985e9c5",
			"lockedUntil()": "ce0617ec",
			"mint(uint256)": "a0712d68",
			"mintCloseTime()": "dac2e804",
			"minutesUntilUnlocked()": "f3cfeb07",
			"name()": "06fdde03",
			"owner()": "8da5cb5b",
			"ownerOf(uint256)": "6352211e",
			"renounceOwnership()": "715018a6",
			"safeTransferFrom(address,address,uint256)": "42842e0e",
			"safeTransferFrom(address,address,uint256,bytes)": "b88d4fde",
			"secondsUntilUnlocked()": "f9ccdb40",
			"setApprovalForAll(address,bool)": "a22cb465",
			"startMint()": "2be09561",
			"supportsInterface(bytes4)": "01ffc9a7",
			"symbol()": "95d89b41",
			"tokenURI(uint256)": "c87b56dd",
			"totalSupply()": "18160ddd",
			"transferFrom(address,address,uint256)": "23b872dd",
			"transferOwnership(address)": "f2fde38b",
			"withdraw()": "3ccfd60b"
		}
	},
	"abi": [
		{
			"inputs": [],
			"stateMutability": "nonpayable",
			"type": "constructor"
		},
		{
			"inputs": [],
			"name": "ApprovalCallerNotOwnerNorApproved",
			"type": "error"
		},
		{
			"inputs": [],
			"name": "ApprovalQueryForNonexistentToken",
			"type": "error"
		},
		{
			"inputs": [],
			"name": "BalanceQueryForZeroAddress",
			"type": "error"
		},
		{
			"inputs": [],
			"name": "MintERC2309QuantityExceedsLimit",
			"type": "error"
		},
		{
			"inputs": [],
			"name": "MintToZeroAddress",
			"type": "error"
		},
		{
			"inputs": [],
			"name": "MintZeroQuantity",
			"type": "error"
		},
		{
			"inputs": [],
			"name": "OwnerQueryForNonexistentToken",
			"type": "error"
		},
		{
			"inputs": [],
			"name": "OwnershipNotInitializedForExtraData",
			"type": "error"
		},
		{
			"inputs": [],
			"name": "TransferCallerNotOwnerNorApproved",
			"type": "error"
		},
		{
			"inputs": [],
			"name": "TransferFromIncorrectOwner",
			"type": "error"
		},
		{
			"inputs": [],
			"name": "TransferToNonERC721ReceiverImplementer",
			"type": "error"
		},
		{
			"inputs": [],
			"name": "TransferToZeroAddress",
			"type": "error"
		},
		{
			"inputs": [],
			"name": "URIQueryForNonexistentToken",
			"type": "error"
		},
		{
			"anonymous": false,
			"inputs": [
				{
					"indexed": true,
					"internalType": "address",
					"name": "owner",
					"type": "address"
				},
				{
					"indexed": true,
					"internalType": "address",
					"name": "approved",
					"type": "address"
				},
				{
					"indexed": true,
					"internalType": "uint256",
					"name": "tokenId",
					"type": "uint256"
				}
			],
			"name": "Approval",
			"type": "event"
		},
		{
			"anonymous": false,
			"inputs": [
				{
					"indexed": true,
					"internalType": "address",
					"name": "owner",
					"type": "address"
				},
				{
					"indexed": true,
					"internalType": "address",
					"name": "operator",
					"type": "address"
				},
				{
					"indexed": false,
					"internalType": "bool",
					"name": "approved",
					"type": "bool"
				}
			],
			"name": "ApprovalForAll",
			"type": "event"
		},
		{
			"anonymous": false,
			"inputs": [
				{
					"indexed": true,
					"internalType": "uint256",
					"name": "fromTokenId",
					"type": "uint256"
				},
				{
					"indexed": false,
					"internalType": "uint256",
					"name": "toTokenId",
					"type": "uint256"
				},
				{
					"indexed": true,
					"internalType": "address",
					"name": "from",
					"type": "address"
				},
				{
					"indexed": true,
					"internalType": "address",
					"name": "to",
					"type": "address"
				}
			],
			"name": "ConsecutiveTransfer",
			"type": "event"
		},
		{
			"anonymous": false,
			"inputs": [
				{
					"indexed": true,
					"internalType": "address",
					"name": "previousOwner",
					"type": "address"
				},
				{
					"indexed": true,
					"internalType": "address",
					"name": "newOwner",
					"type": "address"
				}
			],
			"name": "OwnershipTransferred",
			"type": "event"
		},
		{
			"anonymous": false,
			"inputs": [
				{
					"indexed": true,
					"internalType": "address",
					"name": "from",
					"type": "address"
				},
				{
					"indexed": true,
					"internalType": "address",
					"name": "to",
					"type": "address"
				},
				{
					"indexed": true,
					"internalType": "uint256",
					"name": "tokenId",
					"type": "uint256"
				}
			],
			"name": "Transfer",
			"type": "event"
		},
		{
			"inputs": [
				{
					"internalType": "uint256",
					"name": "",
					"type": "uint256"
				}
			],
			"name": "animationColors",
			"outputs": [
				{
					"internalType": "uint256",
					"name": "red",
					"type": "uint256"
				},
				{
					"internalType": "uint256",
					"name": "green",
					"type": "uint256"
				},
				{
					"internalType": "uint256",
					"name": "blue",
					"type": "uint256"
				}
			],
			"stateMutability": "view",
			"type": "function"
		},
		{
			"inputs": [
				{
					"internalType": "address",
					"name": "to",
					"type": "address"
				},
				{
					"internalType": "uint256",
					"name": "tokenId",
					"type": "uint256"
				}
			],
			"name": "approve",
			"outputs": [],
			"stateMutability": "payable",
			"type": "function"
		},
		{
			"inputs": [
				{
					"internalType": "address",
					"name": "owner",
					"type": "address"
				}
			],
			"name": "balanceOf",
			"outputs": [
				{
					"internalType": "uint256",
					"name": "",
					"type": "uint256"
				}
			],
			"stateMutability": "view",
			"type": "function"
		},
		{
			"inputs": [
				{
					"internalType": "uint256",
					"name": "number",
					"type": "uint256"
				},
				{
					"internalType": "uint256",
					"name": "tokenId",
					"type": "uint256"
				},
				{
					"components": [
						{
							"internalType": "uint256",
							"name": "red",
							"type": "uint256"
						},
						{
							"internalType": "uint256",
							"name": "green",
							"type": "uint256"
						},
						{
							"internalType": "uint256",
							"name": "blue",
							"type": "uint256"
						}
					],
					"internalType": "struct UintsEdition.Rgb",
					"name": "colors",
					"type": "tuple"
				}
			],
			"name": "broadcast",
			"outputs": [],
			"stateMutability": "payable",
			"type": "function"
		},
		{
			"inputs": [],
			"name": "broadcastCounter",
			"outputs": [
				{
					"internalType": "uint256",
					"name": "",
					"type": "uint256"
				}
			],
			"stateMutability": "view",
			"type": "function"
		},
		{
			"inputs": [],
			"name": "broadcastNumber",
			"outputs": [
				{
					"internalType": "uint256",
					"name": "",
					"type": "uint256"
				}
			],
			"stateMutability": "view",
			"type": "function"
		},
		{
			"inputs": [
				{
					"internalType": "uint256",
					"name": "tokenId",
					"type": "uint256"
				}
			],
			"name": "getApproved",
			"outputs": [
				{
					"internalType": "address",
					"name": "",
					"type": "address"
				}
			],
			"stateMutability": "view",
			"type": "function"
		},
		{
			"inputs": [
				{
					"internalType": "uint256",
					"name": "id",
					"type": "uint256"
				}
			],
			"name": "getBaseColor",
			"outputs": [
				{
					"internalType": "uint256",
					"name": "",
					"type": "uint256"
				}
			],
			"stateMutability": "view",
			"type": "function"
		},
		{
			"inputs": [
				{
					"internalType": "address",
					"name": "owner",
					"type": "address"
				},
				{
					"internalType": "address",
					"name": "operator",
					"type": "address"
				}
			],
			"name": "isApprovedForAll",
			"outputs": [
				{
					"internalType": "bool",
					"name": "",
					"type": "bool"
				}
			],
			"stateMutability": "view",
			"type": "function"
		},
		{
			"inputs": [],
			"name": "lockedUntil",
			"outputs": [
				{
					"internalType": "uint256",
					"name": "",
					"type": "uint256"
				}
			],
			"stateMutability": "view",
			"type": "function"
		},
		{
			"inputs": [
				{
					"internalType": "uint256",
					"name": "quantity",
					"type": "uint256"
				}
			],
			"name": "mint",
			"outputs": [],
			"stateMutability": "nonpayable",
			"type": "function"
		},
		{
			"inputs": [],
			"name": "mintCloseTime",
			"outputs": [
				{
					"internalType": "uint256",
					"name": "",
					"type": "uint256"
				}
			],
			"stateMutability": "view",
			"type": "function"
		},
		{
			"inputs": [],
			"name": "minutesUntilUnlocked",
			"outputs": [
				{
					"internalType": "uint256",
					"name": "",
					"type": "uint256"
				}
			],
			"stateMutability": "view",
			"type": "function"
		},
		{
			"inputs": [],
			"name": "name",
			"outputs": [
				{
					"internalType": "string",
					"name": "",
					"type": "string"
				}
			],
			"stateMutability": "view",
			"type": "function"
		},
		{
			"inputs": [],
			"name": "owner",
			"outputs": [
				{
					"internalType": "address",
					"name": "",
					"type": "address"
				}
			],
			"stateMutability": "view",
			"type": "function"
		},
		{
			"inputs": [
				{
					"internalType": "uint256",
					"name": "tokenId",
					"type": "uint256"
				}
			],
			"name": "ownerOf",
			"outputs": [
				{
					"internalType": "address",
					"name": "",
					"type": "address"
				}
			],
			"stateMutability": "view",
			"type": "function"
		},
		{
			"inputs": [],
			"name": "renounceOwnership",
			"outputs": [],
			"stateMutability": "nonpayable",
			"type": "function"
		},
		{
			"inputs": [
				{
					"internalType": "address",
					"name": "from",
					"type": "address"
				},
				{
					"internalType": "address",
					"name": "to",
					"type": "address"
				},
				{
					"internalType": "uint256",
					"name": "tokenId",
					"type": "uint256"
				}
			],
			"name": "safeTransferFrom",
			"outputs": [],
			"stateMutability": "payable",
			"type": "function"
		},
		{
			"inputs": [
				{
					"internalType": "address",
					"name": "from",
					"type": "address"
				},
				{
					"internalType": "address",
					"name": "to",
					"type": "address"
				},
				{
					"internalType": "uint256",
					"name": "tokenId",
					"type": "uint256"
				},
				{
					"internalType": "bytes",
					"name": "_data",
					"type": "bytes"
				}
			],
			"name": "safeTransferFrom",
			"outputs": [],
			"stateMutability": "payable",
			"type": "function"
		},
		{
			"inputs": [],
			"name": "secondsUntilUnlocked",
			"outputs": [
				{
					"internalType": "uint256",
					"name": "",
					"type": "uint256"
				}
			],
			"stateMutability": "view",
			"type": "function"
		},
		{
			"inputs": [
				{
					"internalType": "address",
					"name": "operator",
					"type": "address"
				},
				{
					"internalType": "bool",
					"name": "approved",
					"type": "bool"
				}
			],
			"name": "setApprovalForAll",
			"outputs": [],
			"stateMutability": "nonpayable",
			"type": "function"
		},
		{
			"inputs": [],
			"name": "startMint",
			"outputs": [],
			"stateMutability": "nonpayable",
			"type": "function"
		},
		{
			"inputs": [
				{
					"internalType": "bytes4",
					"name": "interfaceId",
					"type": "bytes4"
				}
			],
			"name": "supportsInterface",
			"outputs": [
				{
					"internalType": "bool",
					"name": "",
					"type": "bool"
				}
			],
			"stateMutability": "view",
			"type": "function"
		},
		{
			"inputs": [],
			"name": "symbol",
			"outputs": [
				{
					"internalType": "string",
					"name": "",
					"type": "string"
				}
			],
			"stateMutability": "view",
			"type": "function"
		},
		{
			"inputs": [
				{
					"internalType": "uint256",
					"name": "tokenId",
					"type": "uint256"
				}
			],
			"name": "tokenURI",
			"outputs": [
				{
					"internalType": "string",
					"name": "result",
					"type": "string"
				}
			],
			"stateMutability": "view",
			"type": "function"
		},
		{
			"inputs": [],
			"name": "totalSupply",
			"outputs": [
				{
					"internalType": "uint256",
					"name": "",
					"type": "uint256"
				}
			],
			"stateMutability": "view",
			"type": "function"
		},
		{
			"inputs": [
				{
					"internalType": "address",
					"name": "from",
					"type": "address"
				},
				{
					"internalType": "address",
					"name": "to",
					"type": "address"
				},
				{
					"internalType": "uint256",
					"name": "tokenId",
					"type": "uint256"
				}
			],
			"name": "transferFrom",
			"outputs": [],
			"stateMutability": "payable",
			"type": "function"
		},
		{
			"inputs": [
				{
					"internalType": "address",
					"name": "newOwner",
					"type": "address"
				}
			],
			"name": "transferOwnership",
			"outputs": [],
			"stateMutability": "nonpayable",
			"type": "function"
		},
		{
			"inputs": [],
			"name": "withdraw",
			"outputs": [],
			"stateMutability": "nonpayable",
			"type": "function"
		}
	]
}