{
	"data": {
		"bytecode": {
			"linkReferences": {},
			"object": "6080604052660aa87bee5380006009556000600a60006101000a81548160ff0219169083151502179055503480156200003757600080fd5b506040518060400160405280600581526020017f55494e54530000000000000000000000000000000000000000000000000000008152506040518060400160405280600581526020017f55494e54530000000000000000000000000000000000000000000000000000008152508160029081620000b5919062000457565b508060039081620000c7919062000457565b50620000d86200010660201b60201c565b600081905550505062000100620000f46200010f60201b60201c565b6200011760201b60201c565b6200053e565b60006001905090565b600033905090565b6000600860009054906101000a900473ffffffffffffffffffffffffffffffffffffffff16905081600860006101000a81548173ffffffffffffffffffffffffffffffffffffffff021916908373ffffffffffffffffffffffffffffffffffffffff1602179055508173ffffffffffffffffffffffffffffffffffffffff168173ffffffffffffffffffffffffffffffffffffffff167f8be0079c531659141344cd1fd0a4f28419497f9722a3daafe3b4186f6b6457e060405160405180910390a35050565b600081519050919050565b7f4e487b7100000000000000000000000000000000000000000000000000000000600052604160045260246000fd5b7f4e487b7100000000000000000000000000000000000000000000000000000000600052602260045260246000fd5b600060028204905060018216806200025f57607f821691505b60208210810362000275576200027462000217565b5b50919050565b60008190508160005260206000209050919050565b60006020601f8301049050919050565b600082821b905092915050565b600060088302620002df7fffffffffffffffffffffffffffffffffffffffffffffffffffffffffffffffff82620002a0565b620002eb8683620002a0565b95508019841693508086168417925050509392505050565b6000819050919050565b6000819050919050565b600062000338620003326200032c8462000303565b6200030d565b62000303565b9050919050565b6000819050919050565b620003548362000317565b6200036c62000363826200033f565b848454620002ad565b825550505050565b600090565b6200038362000374565b6200039081848462000349565b505050565b5b81811015620003b857620003ac60008262000379565b60018101905062000396565b5050565b601f8211156200040757620003d1816200027b565b620003dc8462000290565b81016020851015620003ec578190505b62000404620003fb8562000290565b83018262000395565b50505b505050565b600082821c905092915050565b60006200042c600019846008026200040c565b1980831691505092915050565b600062000447838362000419565b9150826002028217905092915050565b6200046282620001dd565b67ffffffffffffffff8111156200047e576200047d620001e8565b5b6200048a825462000246565b62000497828285620003bc565b600060209050601f831160018114620004cf5760008415620004ba578287015190505b620004c6858262000439565b86555062000536565b601f198416620004df866200027b565b60005b828110156200050957848901518255600182019150602085019450602081019050620004e2565b8683101562000529578489015162000525601f89168262000419565b8355505b6001600288020188555050505b505050505050565b615fe3806200054e6000396000f3fe6080604052600436106101cd5760003560e01c80637c928fe9116100f7578063a6c56c7911610095578063d1d18f5011610064578063d1d18f501461060f578063d8c718a81461064c578063e985e9c514610675578063f2fde38b146106b2576101cd565b8063a6c56c7914610574578063b88d4fde1461059f578063b8be6e98146105bb578063c87b56dd146105d2576101cd565b80639659867e116100d15780639659867e146104d9578063a035b1fe14610504578063a0712d681461052f578063a22cb4651461054b576101cd565b80637c928fe91461045a5780638da5cb5b1461048357806395d89b41146104ae576101cd565b806323b872dd1161016f57806342842e0e1161013e57806342842e0e146103ad5780636352211e146103c957806370a0823114610406578063715018a614610443576101cd565b806323b872dd1461032657806325e514c61461034257806337c5fa0d1461036b5780633ccfd60b14610396576101cd565b8063095ea7b3116101ab578063095ea7b3146102775780630ff4c9161461029357806318160ddd146102d057806321cf7ecf146102fb576101cd565b806301ffc9a7146101d257806306fdde031461020f578063081812fc1461023a575b600080fd5b3480156101de57600080fd5b506101f960048036038101906101f4919061336a565b6106db565b60405161020691906133b2565b60405180910390f35b34801561021b57600080fd5b5061022461076d565b604051610231919061345d565b60405180910390f35b34801561024657600080fd5b50610261600480360381019061025c91906134b5565b6107ff565b60405161026e9190613523565b60405180910390f35b610291600480360381019061028c919061356a565b61087e565b005b34801561029f57600080fd5b506102ba60048036038101906102b591906134b5565b6109c2565b6040516102c791906135b9565b60405180910390f35b3480156102dc57600080fd5b506102e5610a54565b6040516102f291906135b9565b60405180910390f35b34801561030757600080fd5b50610310610a6b565b60405161031d91906135b9565b60405180910390f35b610340600480360381019061033b91906135d4565b610a71565b005b34801561034e57600080fd5b506103696004803603810190610364919061376f565b610d93565b005b34801561037757600080fd5b506103806110f8565b60405161038d91906133b2565b60405180910390f35b3480156103a257600080fd5b506103ab61110b565b005b6103c760048036038101906103c291906135d4565b611153565b005b3480156103d557600080fd5b506103f060048036038101906103eb91906134b5565b611173565b6040516103fd9190613523565b60405180910390f35b34801561041257600080fd5b5061042d600480360381019061042891906137b8565b611185565b60405161043a91906135b9565b60405180910390f35b34801561044f57600080fd5b5061045861123d565b005b34801561046657600080fd5b50610481600480360381019061047c91906134b5565b611251565b005b34801561048f57600080fd5b50610498611336565b6040516104a59190613523565b60405180910390f35b3480156104ba57600080fd5b506104c3611360565b6040516104d0919061345d565b60405180910390f35b3480156104e557600080fd5b506104ee6113f2565b6040516104fb91906135b9565b60405180910390f35b34801561051057600080fd5b50610519611401565b60405161052691906135b9565b60405180910390f35b610549600480360381019061054491906134b5565b611407565b005b34801561055757600080fd5b50610572600480360381019061056d9190613811565b611464565b005b34801561058057600080fd5b5061058961156f565b60405161059691906135b9565b60405180910390f35b6105b960048036038101906105b49190613906565b611581565b005b3480156105c757600080fd5b506105d06115f4565b005b3480156105de57600080fd5b506105f960048036038101906105f491906134b5565b611628565b604051610606919061345d565b60405180910390f35b34801561061b57600080fd5b50610636600480360381019061063191906137b8565b611777565b60405161064391906135b9565b60405180910390f35b34801561065857600080fd5b50610673600480360381019061066e91906139e4565b6117c0565b005b34801561068157600080fd5b5061069c60048036038101906106979190613a44565b61185a565b6040516106a991906133b2565b60405180910390f35b3480156106be57600080fd5b506106d960048036038101906106d491906137b8565b6118ee565b005b60006301ffc9a760e01b827bffffffffffffffffffffffffffffffffffffffffffffffffffffffff1916148061073657506380ac58cd60e01b827bffffffffffffffffffffffffffffffffffffffffffffffffffffffff1916145b806107665750635b5e139f60e01b827bffffffffffffffffffffffffffffffffffffffffffffffffffffffff1916145b9050919050565b60606002805461077c90613ab3565b80601f01602080910402602001604051908101604052809291908181526020018280546107a890613ab3565b80156107f55780601f106107ca576101008083540402835291602001916107f5565b820191906000526020600020905b8154815290600101906020018083116107d857829003601f168201915b5050505050905090565b600061080a82611971565b610840576040517fcf4700e400000000000000000000000000000000000000000000000000000000815260040160405180910390fd5b6006600083815260200190815260200160002060000160009054906101000a900473ffffffffffffffffffffffffffffffffffffffff169050919050565b600061088982611173565b90508073ffffffffffffffffffffffffffffffffffffffff166108aa6119d0565b73ffffffffffffffffffffffffffffffffffffffff161461090d576108d6816108d16119d0565b61185a565b61090c576040517fcfb3b94200000000000000000000000000000000000000000000000000000000815260040160405180910390fd5b5b826006600084815260200190815260200160002060000160006101000a81548173ffffffffffffffffffffffffffffffffffffffff021916908373ffffffffffffffffffffffffffffffffffffffff160217905550818373ffffffffffffffffffffffffffffffffffffffff168273ffffffffffffffffffffffffffffffffffffffff167f8c5be1e5ebec7d5bd14f71427d1e84f3dd0314c0f7b2291e5b200ac8c7c3b92560405160405180910390a4505050565b60006109cd82611971565b610a0c576040517f08c379a0000000000000000000000000000000000000000000000000000000008152600401610a0390613b30565b60405180910390fd5b6000600c6000848152602001908152602001600020541115610a4357600c6000838152602001908152602001600020549050610a4f565b610a4c826119d8565b90505b919050565b6000610a5e611b19565b6001546000540303905090565b600b5481565b6000610a7c82611b22565b90508373ffffffffffffffffffffffffffffffffffffffff168173ffffffffffffffffffffffffffffffffffffffff1614610ae3576040517fa114810000000000000000000000000000000000000000000000000000000000815260040160405180910390fd5b600080610aef84611bee565b91509150610b058187610b006119d0565b611c15565b610b5157610b1a86610b156119d0565b61185a565b610b50576040517f59c896be00000000000000000000000000000000000000000000000000000000815260040160405180910390fd5b5b600073ffffffffffffffffffffffffffffffffffffffff168573ffffffffffffffffffffffffffffffffffffffff1603610bb7576040517fea553b3400000000000000000000000000000000000000000000000000000000815260040160405180910390fd5b610bc48686866001611c59565b8015610bcf57600082555b600560008773ffffffffffffffffffffffffffffffffffffffff1673ffffffffffffffffffffffffffffffffffffffff168152602001908152602001600020600081546001900391905081905550600560008673ffffffffffffffffffffffffffffffffffffffff1673ffffffffffffffffffffffffffffffffffffffff1681526020019081526020016000206000815460010191905081905550610c9d85610c79888887611c5f565b7c020000000000000000000000000000000000000000000000000000000017611c87565b600460008681526020019081526020016000208190555060007c0200000000000000000000000000000000000000000000000000000000841603610d235760006001850190506000600460008381526020019081526020016000205403610d21576000548114610d20578360046000838152602001908152602001600020819055505b5b505b838573ffffffffffffffffffffffffffffffffffffffff168773ffffffffffffffffffffffffffffffffffffffff167fddf252ad1be2c89b69c2b068fc378daa952ba7f163c4a11628f55a4df523b3ef60405160405180910390a4610d8b8686866001611cb2565b505050505050565b600a60009054906101000a900460ff16610de2576040517f08c379a0000000000000000000000000000000000000000000000000000000008152600401610dd990613b9c565b60405180910390fd5b600080600090505b8251811015610ec6573373ffffffffffffffffffffffffffffffffffffffff16610e2d848381518110610e2057610e1f613bbc565b5b6020026020010151611173565b73ffffffffffffffffffffffffffffffffffffffff1614610e83576040517f08c379a0000000000000000000000000000000000000000000000000000000008152600401610e7a90613c37565b60405180910390fd5b610ea6838281518110610e9957610e98613bbc565b5b60200260200101516109c2565b82610eb19190613c86565b91508080610ebe90613cba565b915050610dea565b5061270f811115610f0c576040517f08c379a0000000000000000000000000000000000000000000000000000000008152600401610f0390613d4e565b60405180910390fd5b6000600190505b825181101561100957610f3f838281518110610f3257610f31613bbc565b5b6020026020010151611cb8565b6000600c6000858481518110610f5857610f57613bbc565b5b60200260200101518152602001908152602001600020819055506000600d6000858481518110610f8b57610f8a613bbc565b5b60200260200101518152602001908152602001600020819055507ff8e1a15aba9398e019f0b49df1a4fde98ee17ae345cb5f6b5e2c27f5033e8ce7838281518110610fd957610fd8613bbc565b5b6020026020010151604051610fee91906135b9565b60405180910390a1808061100190613cba565b915050610f13565b5080600c60008460008151811061102357611022613bbc565b5b6020026020010151815260200190815260200160002081905550611070428360008151811061105557611054613bbc565b5b60200260200101516110679190613c86565b60016004611cc6565b600d60008460008151811061108857611087613bbc565b5b60200260200101518152602001908152602001600020819055507ff8e1a15aba9398e019f0b49df1a4fde98ee17ae345cb5f6b5e2c27f5033e8ce7826000815181106110d7576110d6613bbc565b5b60200260200101516040516110ec91906135b9565b60405180910390a15050565b600a60009054906101000a900460ff1681565b611113611d2d565b3373ffffffffffffffffffffffffffffffffffffffff166108fc479081150290604051600060405180830381858888f1935050505061115157600080fd5b565b61116e83838360405180602001604052806000815250611581565b505050565b600061117e82611b22565b9050919050565b60008073ffffffffffffffffffffffffffffffffffffffff168273ffffffffffffffffffffffffffffffffffffffff16036111ec576040517f8f4eb60400000000000000000000000000000000000000000000000000000000815260040160405180910390fd5b67ffffffffffffffff600560008473ffffffffffffffffffffffffffffffffffffffff1673ffffffffffffffffffffffffffffffffffffffff16815260200190815260200160002054169050919050565b611245611d2d565b61124f6000611dab565b565b600e60003373ffffffffffffffffffffffffffffffffffffffff1673ffffffffffffffffffffffffffffffffffffffff168152602001908152602001600020548111156112d3576040517f08c379a00000000000000000000000000000000000000000000000000000000081526004016112ca90613dba565b60405180910390fd5b6112dd3382611e71565b80600e60003373ffffffffffffffffffffffffffffffffffffffff1673ffffffffffffffffffffffffffffffffffffffff168152602001908152602001600020600082825461132c9190613dda565b9250508190555050565b6000600860009054906101000a900473ffffffffffffffffffffffffffffffffffffffff16905090565b60606003805461136f90613ab3565b80601f016020809104026020016040519081016040528092919081815260200182805461139b90613ab3565b80156113e85780601f106113bd576101008083540402835291602001916113e8565b820191906000526020600020905b8154815290600101906020018083116113cb57829003601f168201915b5050505050905090565b60006113fc611fbd565b905090565b60095481565b600954816114159190613e0e565b341015611457576040517f08c379a000000000000000000000000000000000000000000000000000000000815260040161144e90613e9c565b60405180910390fd5b6114613382611e71565b50565b80600760006114716119d0565b73ffffffffffffffffffffffffffffffffffffffff1673ffffffffffffffffffffffffffffffffffffffff16815260200190815260200160002060008473ffffffffffffffffffffffffffffffffffffffff1673ffffffffffffffffffffffffffffffffffffffff16815260200190815260200160002060006101000a81548160ff0219169083151502179055508173ffffffffffffffffffffffffffffffffffffffff1661151e6119d0565b73ffffffffffffffffffffffffffffffffffffffff167f17307eab39ab6107e8899845ad3d59bd9653f200f220920489ca2b5937696c318360405161156391906133b2565b60405180910390a35050565b600061157c600b54611fd0565b905090565b61158c848484610a71565b60008373ffffffffffffffffffffffffffffffffffffffff163b146115ee576115b78484848461200b565b6115ed576040517fd1a57ed600000000000000000000000000000000000000000000000000000000815260040160405180910390fd5b5b50505050565b6115fc611d2d565b600a60009054906101000a900460ff1615600a60006101000a81548160ff021916908315150217905550565b606080600080600c600086815260200190815260200160002054111561169b57600c60008581526020019081526020016000205490506040518060400160405280600281526020017f4e6f000000000000000000000000000000000000000000000000000000000000815250915061174f565b6000600c6000868152602001908152602001600020541480156116c457506116c284611971565b155b1561170a57600090506040518060400160405280600381526020017f5965730000000000000000000000000000000000000000000000000000000000815250915061174e565b611713846119d8565b90506040518060400160405280600281526020017f4e6f00000000000000000000000000000000000000000000000000000000000081525091505b5b61176e8482600d6000888152602001908152602001600020548561215b565b92505050919050565b6000600e60008373ffffffffffffffffffffffffffffffffffffffff1673ffffffffffffffffffffffffffffffffffffffff168152602001908152602001600020549050919050565b6117c8611d2d565b60005b838390508110156118545781600e60008686858181106117ee576117ed613bbc565b5b905060200201602081019061180391906137b8565b73ffffffffffffffffffffffffffffffffffffffff1673ffffffffffffffffffffffffffffffffffffffff16815260200190815260200160002081905550808061184c90613cba565b9150506117cb565b50505050565b6000600760008473ffffffffffffffffffffffffffffffffffffffff1673ffffffffffffffffffffffffffffffffffffffff16815260200190815260200160002060008373ffffffffffffffffffffffffffffffffffffffff1673ffffffffffffffffffffffffffffffffffffffff16815260200190815260200160002060009054906101000a900460ff16905092915050565b6118f6611d2d565b600073ffffffffffffffffffffffffffffffffffffffff168173ffffffffffffffffffffffffffffffffffffffff1603611965576040517f08c379a000000000000000000000000000000000000000000000000000000000815260040161195c90613f2e565b60405180910390fd5b61196e81611dab565b50565b60008161197c611b19565b1115801561198b575060005482105b80156119c9575060007c0100000000000000000000000000000000000000000000000000000000600460008581526020019081526020016000205416145b9050919050565b600033905090565b60006103e88210156119f8576119f18260016046611cc6565b9050611b14565b6107d0821015611a1657611a0f826001603f611cc6565b9050611b13565b610bb8821015611a3457611a2d8260016038611cc6565b9050611b12565b610fa0821015611a5257611a4b8260016031611cc6565b9050611b11565b611388821015611a7057611a69826001602a611cc6565b9050611b10565b611770821015611a8e57611a878260016023611cc6565b9050611b0f565b611b58821015611aac57611aa5826001601c611cc6565b9050611b0e565b611f40821015611aca57611ac38260016015611cc6565b9050611b0d565b612328821015611ae857611ae1826001600e611cc6565b9050611b0c565b612710821015611b0657611aff8260016007611cc6565b9050611b0b565b600190505b5b5b5b5b5b5b5b5b5b919050565b60006001905090565b60008082905080611b31611b19565b11611bb757600054811015611bb65760006004600083815260200190815260200160002054905060007c0100000000000000000000000000000000000000000000000000000000821603611bb4575b60008103611baa576004600083600190039350838152602001908152602001600020549050611b80565b8092505050611be9565b505b5b6040517fdf2d9b4200000000000000000000000000000000000000000000000000000000815260040160405180910390fd5b919050565b60008060006006600085815260200190815260200160002090508092508254915050915091565b600073ffffffffffffffffffffffffffffffffffffffff8316925073ffffffffffffffffffffffffffffffffffffffff821691508382148383141790509392505050565b50505050565b60008060e883901c905060e8611c7686868461226c565b62ffffff16901b9150509392505050565b600073ffffffffffffffffffffffffffffffffffffffff83169250814260a01b178317905092915050565b50505050565b611cc3816000612275565b50565b6000808383611cd59190613dda565b905060018186604051602001611ceb9190613f6f565b6040516020818303038152906040528051906020012060001c611d0e9190613fb9565b84611d199190613dda565b611d239190613dda565b9150509392505050565b611d356124c7565b73ffffffffffffffffffffffffffffffffffffffff16611d53611336565b73ffffffffffffffffffffffffffffffffffffffff1614611da9576040517f08c379a0000000000000000000000000000000000000000000000000000000008152600401611da090614036565b60405180910390fd5b565b6000600860009054906101000a900473ffffffffffffffffffffffffffffffffffffffff16905081600860006101000a81548173ffffffffffffffffffffffffffffffffffffffff021916908373ffffffffffffffffffffffffffffffffffffffff1602179055508173ffffffffffffffffffffffffffffffffffffffff168173ffffffffffffffffffffffffffffffffffffffff167f8be0079c531659141344cd1fd0a4f28419497f9722a3daafe3b4186f6b6457e060405160405180910390a35050565b6000611e7b611fbd565b90506103e88110611f4a576000611e93600b546124cf565b11611ed3576040517f08c379a0000000000000000000000000000000000000000000000000000000008152600401611eca906140a2565b60405180910390fd5b61138881108015611ef157506113888282611eee9190613c86565b10155b15611f45576201518042611f059190613c86565b600b819055507ff5b316bf09d21e0058eb23be118a6b81bd52674b4cb843e0f446b986ce22433e600b54604051611f3c91906135b9565b60405180910390a15b611fae565b6103e88282611f599190613c86565b10611fad576201518042611f6d9190613c86565b600b819055507ff5b316bf09d21e0058eb23be118a6b81bd52674b4cb843e0f446b986ce22433e600b54604051611fa491906135b9565b60405180910390a15b5b611fb883836124f5565b505050565b6000611fc7611b19565b60005403905090565b6000603c611fdd836124cf565b1061200157603c4283611ff09190613dda565b611ffa91906140c2565b9050612006565b600090505b919050565b60008373ffffffffffffffffffffffffffffffffffffffff1663150b7a026120316119d0565b8786866040518563ffffffff1660e01b81526004016120539493929190614148565b6020604051808303816000875af192505050801561208f57506040513d601f19601f8201168201806040525081019061208c91906141a9565b60015b612108573d80600081146120bf576040519150601f19603f3d011682016040523d82523d6000602084013e6120c4565b606091505b506000815103612100576040517fd1a57ed600000000000000000000000000000000000000000000000000000000815260040160405180910390fd5b805181602001fd5b63150b7a0260e01b7bffffffffffffffffffffffffffffffffffffffffffffffffffffffff1916817bffffffffffffffffffffffffffffffffffffffffffffffffffffffff191614915050949350505050565b6060600061216986856126b0565b9050600061217687612797565b61217f87612797565b61219061218b8a61291f565b612797565b8661219a89612950565b6121bb876000600381106121b1576121b0613bbc565b5b6020020151612797565b6121dc886001600381106121d2576121d1613bbc565b5b6020020151612797565b6121fd896002600381106121f3576121f2613bbc565b5b6020020151612797565b61220f61220a8f8c612a6b565b612d8d565b60405160200161222799989796959493929190614614565b604051602081830303815290604052905061224181612d8d565b604051602001612251919061474d565b60405160208183030381529060405292505050949350505050565b60009392505050565b600061228083611b22565b9050600081905060008061229386611bee565b9150915084156122fc576122af81846122aa6119d0565b611c15565b6122fb576122c4836122bf6119d0565b61185a565b6122fa576040517f59c896be00000000000000000000000000000000000000000000000000000000815260040160405180910390fd5b5b5b61230a836000886001611c59565b801561231557600082555b600160806001901b03600560008573ffffffffffffffffffffffffffffffffffffffff1673ffffffffffffffffffffffffffffffffffffffff168152602001908152602001600020600082825401925050819055506123bd8361237a85600088611c5f565b7c02000000000000000000000000000000000000000000000000000000007c01000000000000000000000000000000000000000000000000000000001717611c87565b600460008881526020019081526020016000208190555060007c02000000000000000000000000000000000000000000000000000000008516036124435760006001870190506000600460008381526020019081526020016000205403612441576000548114612440578460046000838152602001908152602001600020819055505b5b505b85600073ffffffffffffffffffffffffffffffffffffffff168473ffffffffffffffffffffffffffffffffffffffff167fddf252ad1be2c89b69c2b068fc378daa952ba7f163c4a11628f55a4df523b3ef60405160405180910390a46124ad836000886001611cb2565b600160008154809291906001019190505550505050505050565b600033905090565b60008142116124eb5742826124e49190613dda565b90506124f0565b600090505b919050565b60008054905060008203612535576040517fb562e8dd00000000000000000000000000000000000000000000000000000000815260040160405180910390fd5b6125426000848385611c59565b600160406001901b178202600560008573ffffffffffffffffffffffffffffffffffffffff1673ffffffffffffffffffffffffffffffffffffffff168152602001908152602001600020600082825401925050819055506125b9836125aa6000866000611c5f565b6125b385612ef0565b17611c87565b6004600083815260200190815260200160002081905550600080838301905073ffffffffffffffffffffffffffffffffffffffff85169150828260007fddf252ad1be2c89b69c2b068fc378daa952ba7f163c4a11628f55a4df523b3ef600080a4600183015b81811461265a57808360007fddf252ad1be2c89b69c2b068fc378daa952ba7f163c4a11628f55a4df523b3ef600080a460018101905061261f565b5060008203612695576040517f2e07630000000000000000000000000000000000000000000000000000000000815260040160405180910390fd5b8060008190555050506126ab6000848385611cb2565b505050565b6126b86132b4565b60008211156127525760005b600381101561274c576001816126da9190613c86565b83036127035760ff8282600381106126f5576126f4613bbc565b5b602002018181525050612739565b61271c81856127129190613c86565b6000610100611cc6565b82826003811061272f5761272e613bbc565b5b6020020181815250505b808061274490613cba565b9150506126c4565b50612791565b60005b600381101561278f5760ff82826003811061277357612772613bbc565b5b602002018181525050808061278790613cba565b915050612755565b505b92915050565b6060600082036127de576040518060400160405280600181526020017f3000000000000000000000000000000000000000000000000000000000000000815250905061291a565b600082905060005b600082146128105780806127f990613cba565b915050600a8261280991906140c2565b91506127e6565b60008167ffffffffffffffff81111561282c5761282b61362c565b5b6040519080825280601f01601f19166020018201604052801561285e5781602001600182028036833780820191505090505b50905060008290505b600086146129125760018161287c9190613dda565b90506000600a808861288e91906140c2565b6128989190613e0e565b876128a39190613dda565b60306128af919061477c565b905060008160f81b9050808484815181106128cd576128cc613bbc565b5b60200101907effffffffffffffffffffffffffffffffffffffffffffffffffffffffffffff1916908160001a905350600a8861290991906140c2565b97505050612867565b819450505050505b919050565b60006103e88211612933576001905061294b565b6113888211612945576002905061294a565b600390505b5b919050565b6060600060405180608001604052806040518060400160405280600581526020017f576869746500000000000000000000000000000000000000000000000000000081525081526020016040518060400160405280600381526020017f526564000000000000000000000000000000000000000000000000000000000081525081526020016040518060400160405280600581526020017f477265656e00000000000000000000000000000000000000000000000000000081525081526020016040518060400160405280600481526020017f426c7565000000000000000000000000000000000000000000000000000000008152508152509050808360048110612a5e57612a5d613bbc565b5b6020020151915050919050565b606060405180610c400160405280610c198152602001615395610c19913990506000612aae83600060038110612aa457612aa3613bbc565b5b6020020151612797565b612acf84600160038110612ac557612ac4613bbc565b5b6020020151612797565b612af085600260038110612ae657612ae5613bbc565b5b6020020151612797565b604051602001612b0293929190614895565b60405160208183030381529060405290506000840315612d62576000612b2785612797565b5190506000612b368683612f00565b905060018203612b775782612b5060038360600151613037565b604051602001612b619291906148f2565b6040516020818303038152906040529250612d5f565b60028203612be85782612b8f60028360400151613037565b604051602001612ba09291906148f2565b604051602081830303815290604052925082612bc160038360600151613037565b604051602001612bd29291906148f2565b6040516020818303038152906040529250612d5e565b60038203612c8b5782612c0060018360200151613037565b604051602001612c119291906148f2565b604051602081830303815290604052925082612c3260028360400151613037565b604051602001612c439291906148f2565b604051602081830303815290604052925082612c6460038360600151613037565b604051602001612c759291906148f2565b6040516020818303038152906040529250612d5d565b60048203612d5c5782612ca360008360000151613037565b604051602001612cb49291906148f2565b604051602081830303815290604052925082612cd560018360200151613037565b604051602001612ce69291906148f2565b604051602081830303815290604052925082612d0760028360400151613037565b604051602001612d189291906148f2565b604051602081830303815290604052925082612d3960038360600151613037565b604051602001612d4a9291906148f2565b60405160208183030381529060405292505b5b5b5b50505b8181604051602001612d75929190614962565b60405160208183030381529060405291505092915050565b60606000825103612daf57604051806020016040528060008152509050612eeb565b60006040518060600160405280604081526020016153556040913990506000600360028551612dde9190613c86565b612de891906140c2565b6004612df49190613e0e565b67ffffffffffffffff811115612e0d57612e0c61362c565b5b6040519080825280601f01601f191660200182016040528015612e3f5781602001600182028036833780820191505090505b509050600182016020820185865187015b80821015612eab576003820191508151603f8160121c168501518453600184019350603f81600c1c168501518453600184019350603f8160061c168501518453600184019350603f8116850151845360018401935050612e50565b5050600386510660018114612ec75760028114612eda57612ee2565b603d6001830353603d6002830353612ee2565b603d60018303535b50505080925050505b919050565b60006001821460e11b9050919050565b612f086132d6565b60018203612f1f5782816060018181525050613031565b60028203612f5857600a83612f3491906140c2565b816040018181525050600a83612f4a9190613fb9565b816060018181525050613030565b60038203612fb357606483612f6d91906140c2565b816020018181525050600a606484612f859190613fb9565b612f8f91906140c2565b816040018181525050600a83612fa59190613fb9565b81606001818152505061302f565b6004820361302e576103e883612fc991906140c2565b81600001818152505060646103e884612fe29190613fb9565b612fec91906140c2565b816020018181525050600a6064846130049190613fb9565b61300e91906140c2565b816040018181525050600a836130249190613fb9565b8160600181815250505b5b5b5b92915050565b6060600061304484612797565b9050600083036130805780818283848560405160200161306996959493929190614ba5565b6040516020818303038152906040529150506132ae565b600183036130b257808160405160200161309b929190614ccd565b6040516020818303038152906040529150506132ae565b600283036130ea5780818283846040516020016130d3959493929190614d69565b6040516020818303038152906040529150506132ae565b6003830361312257808182838460405160200161310b959493929190614e22565b6040516020818303038152906040529150506132ae565b6004830361315857808182836040516020016131419493929190614edb565b6040516020818303038152906040529150506132ae565b60058303613190578081828384604051602001613179959493929190614f71565b6040516020818303038152906040529150506132ae565b600683036131ca578081828384856040516020016131b39695949392919061502a565b6040516020818303038152906040529150506132ae565b600783036131fe578081826040516020016131e793929190615106565b6040516020818303038152906040529150506132ae565b6008830361323a57808182838485866040516020016132239796959493929190615179565b6040516020818303038152906040529150506132ae565b600983036132745780818283848560405160200161325d96959493929190615278565b6040516020818303038152906040529150506132ae565b6040518060400160405280600581526020017f6572726f720000000000000000000000000000000000000000000000000000008152509150505b92915050565b6040518060600160405280600390602082028036833780820191505090505090565b6040518060800160405280600081526020016000815260200160008152602001600081525090565b6000604051905090565b600080fd5b600080fd5b60007fffffffff0000000000000000000000000000000000000000000000000000000082169050919050565b61334781613312565b811461335257600080fd5b50565b6000813590506133648161333e565b92915050565b6000602082840312156133805761337f613308565b5b600061338e84828501613355565b91505092915050565b60008115159050919050565b6133ac81613397565b82525050565b60006020820190506133c760008301846133a3565b92915050565b600081519050919050565b600082825260208201905092915050565b60005b838110156134075780820151818401526020810190506133ec565b60008484015250505050565b6000601f19601f8301169050919050565b600061342f826133cd565b61343981856133d8565b93506134498185602086016133e9565b61345281613413565b840191505092915050565b600060208201905081810360008301526134778184613424565b905092915050565b6000819050919050565b6134928161347f565b811461349d57600080fd5b50565b6000813590506134af81613489565b92915050565b6000602082840312156134cb576134ca613308565b5b60006134d9848285016134a0565b91505092915050565b600073ffffffffffffffffffffffffffffffffffffffff82169050919050565b600061350d826134e2565b9050919050565b61351d81613502565b82525050565b60006020820190506135386000830184613514565b92915050565b61354781613502565b811461355257600080fd5b50565b6000813590506135648161353e565b92915050565b6000806040838503121561358157613580613308565b5b600061358f85828601613555565b92505060206135a0858286016134a0565b9150509250929050565b6135b38161347f565b82525050565b60006020820190506135ce60008301846135aa565b92915050565b6000806000606084860312156135ed576135ec613308565b5b60006135fb86828701613555565b935050602061360c86828701613555565b925050604061361d868287016134a0565b9150509250925092565b600080fd5b7f4e487b7100000000000000000000000000000000000000000000000000000000600052604160045260246000fd5b61366482613413565b810181811067ffffffffffffffff821117156136835761368261362c565b5b80604052505050565b60006136966132fe565b90506136a2828261365b565b919050565b600067ffffffffffffffff8211156136c2576136c161362c565b5b602082029050602081019050919050565b600080fd5b60006136eb6136e6846136a7565b61368c565b9050808382526020820190506020840283018581111561370e5761370d6136d3565b5b835b81811015613737578061372388826134a0565b845260208401935050602081019050613710565b5050509392505050565b600082601f83011261375657613755613627565b5b81356137668482602086016136d8565b91505092915050565b60006020828403121561378557613784613308565b5b600082013567ffffffffffffffff8111156137a3576137a261330d565b5b6137af84828501613741565b91505092915050565b6000602082840312156137ce576137cd613308565b5b60006137dc84828501613555565b91505092915050565b6137ee81613397565b81146137f957600080fd5b50565b60008135905061380b816137e5565b92915050565b6000806040838503121561382857613827613308565b5b600061383685828601613555565b9250506020613847858286016137fc565b9150509250929050565b600080fd5b600067ffffffffffffffff8211156138715761387061362c565b5b61387a82613413565b9050602081019050919050565b82818337600083830152505050565b60006138a96138a484613856565b61368c565b9050828152602081018484840111156138c5576138c4613851565b5b6138d0848285613887565b509392505050565b600082601f8301126138ed576138ec613627565b5b81356138fd848260208601613896565b91505092915050565b600080600080608085870312156139205761391f613308565b5b600061392e87828801613555565b945050602061393f87828801613555565b9350506040613950878288016134a0565b925050606085013567ffffffffffffffff8111156139715761397061330d565b5b61397d878288016138d8565b91505092959194509250565b600080fd5b60008083601f8401126139a4576139a3613627565b5b8235905067ffffffffffffffff8111156139c1576139c0613989565b5b6020830191508360208202830111156139dd576139dc6136d3565b5b9250929050565b6000806000604084860312156139fd576139fc613308565b5b600084013567ffffffffffffffff811115613a1b57613a1a61330d565b5b613a278682870161398e565b93509350506020613a3a868287016134a0565b9150509250925092565b60008060408385031215613a5b57613a5a613308565b5b6000613a6985828601613555565b9250506020613a7a85828601613555565b9150509250929050565b7f4e487b7100000000000000000000000000000000000000000000000000000000600052602260045260246000fd5b60006002820490506001821680613acb57607f821691505b602082108103613ade57613add613a84565b5b50919050565b7f696e76616c696420746f6b656e00000000000000000000000000000000000000600082015250565b6000613b1a600d836133d8565b9150613b2582613ae4565b602082019050919050565b60006020820190508181036000830152613b4981613b0d565b9050919050565b7f636f6d62696e696e67206e6f7420616374697665000000000000000000000000600082015250565b6000613b866014836133d8565b9150613b9182613b50565b602082019050919050565b60006020820190508181036000830152613bb581613b79565b9050919050565b7f4e487b7100000000000000000000000000000000000000000000000000000000600052603260045260246000fd5b7f6d757374206f776e20616c6c20746f6b656e7300000000000000000000000000600082015250565b6000613c216013836133d8565b9150613c2c82613beb565b602082019050919050565b60006020820190508181036000830152613c5081613c14565b9050919050565b7f4e487b7100000000000000000000000000000000000000000000000000000000600052601160045260246000fd5b6000613c918261347f565b9150613c9c8361347f565b9250828201905080821115613cb457613cb3613c57565b5b92915050565b6000613cc58261347f565b91507fffffffffffffffffffffffffffffffffffffffffffffffffffffffffffffffff8203613cf757613cf6613c57565b5b600182019050919050565b7f73756d206d7573742062652039393939206f72206c6573730000000000000000600082015250565b6000613d386018836133d8565b9150613d4382613d02565b602082019050919050565b60006020820190508181036000830152613d6781613d2b565b9050919050565b7f6e6f7420656e6f7567682066726565206d696e74730000000000000000000000600082015250565b6000613da46015836133d8565b9150613daf82613d6e565b602082019050919050565b60006020820190508181036000830152613dd381613d97565b9050919050565b6000613de58261347f565b9150613df08361347f565b9250828203905081811115613e0857613e07613c57565b5b92915050565b6000613e198261347f565b9150613e248361347f565b9250828202613e328161347f565b91508282048414831517613e4957613e48613c57565b5b5092915050565b7f6e6f7420656e6f75676820657468000000000000000000000000000000000000600082015250565b6000613e86600e836133d8565b9150613e9182613e50565b602082019050919050565b60006020820190508181036000830152613eb581613e79565b9050919050565b7f4f776e61626c653a206e6577206f776e657220697320746865207a65726f206160008201527f6464726573730000000000000000000000000000000000000000000000000000602082015250565b6000613f186026836133d8565b9150613f2382613ebc565b604082019050919050565b60006020820190508181036000830152613f4781613f0b565b9050919050565b6000819050919050565b613f69613f648261347f565b613f4e565b82525050565b6000613f7b8284613f58565b60208201915081905092915050565b7f4e487b7100000000000000000000000000000000000000000000000000000000600052601260045260246000fd5b6000613fc48261347f565b9150613fcf8361347f565b925082613fdf57613fde613f8a565b5b828206905092915050565b7f4f776e61626c653a2063616c6c6572206973206e6f7420746865206f776e6572600082015250565b60006140206020836133d8565b915061402b82613fea565b602082019050919050565b6000602082019050818103600083015261404f81614013565b9050919050565b7f6d696e7420697320636c6f736564000000000000000000000000000000000000600082015250565b600061408c600e836133d8565b915061409782614056565b602082019050919050565b600060208201905081810360008301526140bb8161407f565b9050919050565b60006140cd8261347f565b91506140d88361347f565b9250826140e8576140e7613f8a565b5b828204905092915050565b600081519050919050565b600082825260208201905092915050565b600061411a826140f3565b61412481856140fe565b93506141348185602086016133e9565b61413d81613413565b840191505092915050565b600060808201905061415d6000830187613514565b61416a6020830186613514565b61417760408301856135aa565b8181036060830152614189818461410f565b905095945050505050565b6000815190506141a38161333e565b92915050565b6000602082840312156141bf576141be613308565b5b60006141cd84828501614194565b91505092915050565b600081905092915050565b7f7b226e616d65223a202255494e54532000000000000000000000000000000000600082015250565b60006142176010836141d6565b9150614222826141e1565b601082019050919050565b6000614238826133cd565b61424281856141d6565b93506142528185602086016133e9565b80840191505092915050565b7f222c20226465736372697074696f6e223a20226e756d6265727320617265206160008201527f72742c20616e642077652061726520617274697374732e222c2022617474726960208201527f6275746573223a5b7b2274726169745f74797065223a20224e756d626572222c60408201527f202276616c7565223a2000000000000000000000000000000000000000000000606082015250565b6000614306606a836141d6565b91506143118261425e565b606a82019050919050565b7f7d2c7b2274726169745f74797065223a20224d696e74205068617365222c202260008201527f76616c7565223a20220000000000000000000000000000000000000000000000602082015250565b60006143786029836141d6565b91506143838261431c565b602982019050919050565b7f227d2c7b2274726169745f74797065223a20224275726e6564222c202276616c60008201527f7565223a20220000000000000000000000000000000000000000000000000000602082015250565b60006143ea6026836141d6565b91506143f58261438e565b602682019050919050565b7f227d2c7b2274726169745f74797065223a20224261736520436f6c6f72222c2060008201527f2276616c7565223a202200000000000000000000000000000000000000000000602082015250565b600061445c602a836141d6565b915061446782614400565b602a82019050919050565b7f227d2c7b2274726169745f74797065223a202252222c202276616c7565223a20600082015250565b60006144a86020836141d6565b91506144b382614472565b602082019050919050565b7f7d2c7b2274726169745f74797065223a202247222c202276616c7565223a2000600082015250565b60006144f4601f836141d6565b91506144ff826144be565b601f82019050919050565b7f7d2c7b2274726169745f74797065223a202242222c202276616c7565223a2000600082015250565b6000614540601f836141d6565b915061454b8261450a565b601f82019050919050565b7f7d5d2c2022696d616765223a2022646174613a696d6167652f7376672b786d6c60008201527f3b6261736536342c000000000000000000000000000000000000000000000000602082015250565b60006145b26028836141d6565b91506145bd82614556565b602882019050919050565b7f227d000000000000000000000000000000000000000000000000000000000000600082015250565b60006145fe6002836141d6565b9150614609826145c8565b600282019050919050565b600061461f8261420a565b915061462b828c61422d565b9150614636826142f9565b9150614642828b61422d565b915061464d8261436b565b9150614659828a61422d565b9150614664826143dd565b9150614670828961422d565b915061467b8261444f565b9150614687828861422d565b91506146928261449b565b915061469e828761422d565b91506146a9826144e7565b91506146b5828661422d565b91506146c082614533565b91506146cc828561422d565b91506146d7826145a5565b91506146e3828461422d565b91506146ee826145f1565b91508190509a9950505050505050505050565b7f646174613a6170706c69636174696f6e2f6a736f6e3b6261736536342c000000600082015250565b6000614737601d836141d6565b915061474282614701565b601d82019050919050565b60006147588261472a565b9150614764828461422d565b915081905092915050565b600060ff82169050919050565b60006147878261476f565b91506147928361476f565b9250828201905060ff8111156147ab576147aa613c57565b5b92915050565b7f2a7b66696c6c3a72676228000000000000000000000000000000000000000000600082015250565b60006147e7600b836141d6565b91506147f2826147b1565b600b82019050919050565b7f2c00000000000000000000000000000000000000000000000000000000000000600082015250565b60006148336001836141d6565b915061483e826147fd565b600182019050919050565b7f297d2362677b66696c6c3a233043304330437d00000000000000000000000000600082015250565b600061487f6013836141d6565b915061488a82614849565b601382019050919050565b60006148a0826147da565b91506148ac828661422d565b91506148b782614826565b91506148c3828561422d565b91506148ce82614826565b91506148da828461422d565b91506148e582614872565b9150819050949350505050565b60006148fe828561422d565b915061490a828461422d565b91508190509392505050565b7f3c2f7374796c653e3c2f7376673e000000000000000000000000000000000000600082015250565b600061494c600e836141d6565b915061495782614916565b600e82019050919050565b600061496e828561422d565b915061497a828461422d565b91506149858261493f565b91508190509392505050565b7f2370000000000000000000000000000000000000000000000000000000000000600082015250565b60006149c76002836141d6565b91506149d282614991565b600282019050919050565b7f312c000000000000000000000000000000000000000000000000000000000000600082015250565b6000614a136002836141d6565b9150614a1e826149dd565b600282019050919050565b7f322c000000000000000000000000000000000000000000000000000000000000600082015250565b6000614a5f6002836141d6565b9150614a6a82614a29565b600282019050919050565b7f332c000000000000000000000000000000000000000000000000000000000000600082015250565b6000614aab6002836141d6565b9150614ab682614a75565b600282019050919050565b7f352c000000000000000000000000000000000000000000000000000000000000600082015250565b6000614af76002836141d6565b9150614b0282614ac1565b600282019050919050565b7f362c000000000000000000000000000000000000000000000000000000000000600082015250565b6000614b436002836141d6565b9150614b4e82614b0d565b600282019050919050565b7f37207b66696c6c2d6f7061636974793a317d0000000000000000000000000000600082015250565b6000614b8f6012836141d6565b9150614b9a82614b59565b601282019050919050565b6000614bb0826149ba565b9150614bbc828961422d565b9150614bc782614a06565b9150614bd2826149ba565b9150614bde828861422d565b9150614be982614a52565b9150614bf4826149ba565b9150614c00828761422d565b9150614c0b82614a9e565b9150614c16826149ba565b9150614c22828661422d565b9150614c2d82614aea565b9150614c38826149ba565b9150614c44828561422d565b9150614c4f82614b36565b9150614c5a826149ba565b9150614c66828461422d565b9150614c7182614b82565b9150819050979650505050505050565b7f36207b66696c6c2d6f7061636974793a317d0000000000000000000000000000600082015250565b6000614cb76012836141d6565b9150614cc282614c81565b601282019050919050565b6000614cd8826149ba565b9150614ce4828561422d565b9150614cef82614a9e565b9150614cfa826149ba565b9150614d06828461422d565b9150614d1182614caa565b91508190509392505050565b7f342c000000000000000000000000000000000000000000000000000000000000600082015250565b6000614d536002836141d6565b9150614d5e82614d1d565b600282019050919050565b6000614d74826149ba565b9150614d80828861422d565b9150614d8b82614a06565b9150614d96826149ba565b9150614da2828761422d565b9150614dad82614a9e565b9150614db8826149ba565b9150614dc4828661422d565b9150614dcf82614d46565b9150614dda826149ba565b9150614de6828561422d565b9150614df182614aea565b9150614dfc826149ba565b9150614e08828461422d565b9150614e1382614b82565b91508190509695505050505050565b6000614e2d826149ba565b9150614e39828861422d565b9150614e4482614a06565b9150614e4f826149ba565b9150614e5b828761422d565b9150614e6682614a9e565b9150614e71826149ba565b9150614e7d828661422d565b9150614e8882614d46565b9150614e93826149ba565b9150614e9f828561422d565b9150614eaa82614b36565b9150614eb5826149ba565b9150614ec1828461422d565b9150614ecc82614b82565b91508190509695505050505050565b6000614ee6826149ba565b9150614ef2828761422d565b9150614efd82614a52565b9150614f08826149ba565b9150614f14828661422d565b9150614f1f82614a9e565b9150614f2a826149ba565b9150614f36828561422d565b9150614f4182614d46565b9150614f4c826149ba565b9150614f58828461422d565b9150614f6382614caa565b915081905095945050505050565b6000614f7c826149ba565b9150614f88828861422d565b9150614f9382614a06565b9150614f9e826149ba565b9150614faa828761422d565b9150614fb582614a52565b9150614fc0826149ba565b9150614fcc828661422d565b9150614fd782614d46565b9150614fe2826149ba565b9150614fee828561422d565b9150614ff982614b36565b9150615004826149ba565b9150615010828461422d565b915061501b82614b82565b91508190509695505050505050565b6000615035826149ba565b9150615041828961422d565b915061504c82614a06565b9150615057826149ba565b9150615063828861422d565b915061506e82614a52565b9150615079826149ba565b9150615085828761422d565b915061509082614d46565b915061509b826149ba565b91506150a7828661422d565b91506150b282614aea565b91506150bd826149ba565b91506150c9828561422d565b91506150d482614b36565b91506150df826149ba565b91506150eb828461422d565b91506150f682614b82565b9150819050979650505050505050565b6000615111826149ba565b915061511d828661422d565b915061512882614a06565b9150615133826149ba565b915061513f828561422d565b915061514a82614a9e565b9150615155826149ba565b9150615161828461422d565b915061516c82614caa565b9150819050949350505050565b6000615184826149ba565b9150615190828a61422d565b915061519b82614a06565b91506151a6826149ba565b91506151b2828961422d565b91506151bd82614a52565b91506151c8826149ba565b91506151d4828861422d565b91506151df82614a9e565b91506151ea826149ba565b91506151f6828761422d565b915061520182614d46565b915061520c826149ba565b9150615218828661422d565b915061522382614aea565b915061522e826149ba565b915061523a828561422d565b915061524582614b36565b9150615250826149ba565b915061525c828461422d565b915061526782614b82565b915081905098975050505050505050565b6000615283826149ba565b915061528f828961422d565b915061529a82614a06565b91506152a5826149ba565b91506152b1828861422d565b91506152bc82614a52565b91506152c7826149ba565b91506152d3828761422d565b91506152de82614a9e565b91506152e9826149ba565b91506152f5828661422d565b915061530082614d46565b915061530b826149ba565b9150615317828561422d565b915061532282614b36565b915061532d826149ba565b9150615339828461422d565b915061534482614b82565b915081905097965050505050505056fe4142434445464748494a4b4c4d4e4f505152535455565758595a6162636465666768696a6b6c6d6e6f707172737475767778797a303132333435363738392b2f3c7376672076696577426f783d223020302033303020333030222066696c6c3d226e6f6e652220786d6c6e733d22687474703a2f2f7777772e77332e6f72672f323030302f737667223e3c726563742069643d226267222077696474683d2233303022206865696768743d22333030222066696c6c3d2223304330433043222f3e3c706174682069643d227030312220643d224d313030203131394c313033203132324c313030203132354c3830203132354c3737203132324c3830203131394c313030203131395a222066696c6c3d227768697465222066696c6c2d6f7061636974793d22302e3035222f3e3c706174682069643d227030322220643d224d3733203132364c3736203132334c373920313236563134364c3736203134394c373320313436563132365a222066696c6c3d227768697465222066696c6c2d6f7061636974793d22302e3035222f3e3c706174682069643d227030332220643d224d313031203132364c313034203132334c31303720313236563134364c313034203134394c31303120313436563132365a222066696c6c3d227768697465222066696c6c2d6f7061636974793d22302e3035222f3e3c706174682069643d227030342220643d224d313030203134374c313033203135304c313030203135334c3830203135334c3737203135304c3830203134374c313030203134375a222066696c6c3d227768697465222066696c6c2d6f7061636974793d22302e3035222f3e3c706174682069643d227030352220643d224d3733203135344c3736203135314c373920313534563137344c3736203137374c373320313734563135345a222066696c6c3d227768697465222066696c6c2d6f7061636974793d22302e3035222f3e3c706174682069643d227030362220643d224d313031203135344c313034203135314c31303720313534563137344c313034203137374c31303120313734563135345a222066696c6c3d227768697465222066696c6c2d6f7061636974793d22302e3035222f3e3c706174682069643d227030372220643d224d313030203137354c313033203137384c313030203138314c3830203138314c3737203137384c3830203137354c313030203137355a222066696c6c3d227768697465222066696c6c2d6f7061636974793d22302e3035222f3e3c706174682069643d227031312220643d224d313430203131394c313433203132324c313430203132354c313230203132354c313137203132324c313230203131394c313430203131395a222066696c6c3d227768697465222066696c6c2d6f7061636974793d22302e3035222f3e3c706174682069643d227031322220643d224d313133203132364c313136203132334c31313920313236563134364c313136203134394c31313320313436563132365a222066696c6c3d227768697465222066696c6c2d6f7061636974793d22302e3035222f3e3c706174682069643d227031332220643d224d313431203132364c313434203132334c31343720313236563134364c313434203134394c31343120313436563132365a222066696c6c3d227768697465222066696c6c2d6f7061636974793d22302e3035222f3e3c706174682069643d227031342220643d224d313430203134374c313433203135304c313430203135334c313230203135334c313137203135304c313230203134374c313430203134375a222066696c6c3d227768697465222066696c6c2d6f7061636974793d22302e3035222f3e3c706174682069643d227031352220643d224d313133203135344c313136203135314c31313920313534563137344c313136203137374c31313320313734563135345a222066696c6c3d227768697465222066696c6c2d6f7061636974793d22302e3035222f3e3c706174682069643d227031362220643d224d313431203135344c313434203135314c31343720313534563137344c313434203137374c31343120313734563135345a222066696c6c3d227768697465222066696c6c2d6f7061636974793d22302e3035222f3e3c706174682069643d227031372220643d224d313430203137354c313433203137384c313430203138314c313230203138314c313137203137384c313230203137354c313430203137355a222066696c6c3d227768697465222066696c6c2d6f7061636974793d22302e3035222f3e3c706174682069643d227032312220643d224d313830203131394c313833203132324c313830203132354c313630203132354c313537203132324c313630203131394c313830203131395a222066696c6c3d227768697465222066696c6c2d6f7061636974793d22302e3035222f3e3c706174682069643d227032322220643d224d313533203132364c313536203132334c31353920313236563134364c313536203134394c31353320313436563132365a222066696c6c3d227768697465222066696c6c2d6f7061636974793d22302e3035222f3e3c706174682069643d227032332220643d224d313831203132364c313834203132334c31383720313236563134364c313834203134394c31383120313436563132365a222066696c6c3d227768697465222066696c6c2d6f7061636974793d22302e3035222f3e3c706174682069643d227032342220643d224d313830203134374c313833203135304c313830203135334c313630203135334c313537203135304c313630203134374c313830203134375a222066696c6c3d227768697465222066696c6c2d6f7061636974793d22302e3035222f3e3c706174682069643d227032352220643d224d313533203135344c313536203135314c31353920313534563137344c313536203137374c31353320313734563135345a222066696c6c3d227768697465222066696c6c2d6f7061636974793d22302e3035222f3e3c706174682069643d227032362220643d224d313831203135344c313834203135314c31383720313534563137344c313834203137374c31383120313734563135345a222066696c6c3d227768697465222066696c6c2d6f7061636974793d22302e3035222f3e3c706174682069643d227032372220643d224d313830203137354c313833203137384c313830203138314c313630203138314c313537203137384c313630203137354c313830203137355a222066696c6c3d227768697465222066696c6c2d6f7061636974793d22302e3035222f3e3c706174682069643d227033312220643d224d323230203131394c323233203132324c323230203132354c323030203132354c313937203132324c323030203131394c323230203131395a222066696c6c3d227768697465222066696c6c2d6f7061636974793d22302e3035222f3e3c706174682069643d227033322220643d224d313933203132364c313936203132334c31393920313236563134364c313936203134394c31393320313436563132365a222066696c6c3d227768697465222066696c6c2d6f7061636974793d22302e3035222f3e3c706174682069643d227033332220643d224d323231203132364c323234203132334c32323720313236563134364c323234203134394c32323120313436563132365a222066696c6c3d227768697465222066696c6c2d6f7061636974793d22302e3035222f3e3c706174682069643d227033342220643d224d323230203134374c323233203135304c323230203135334c323030203135334c313937203135304c323030203134374c323230203134375a222066696c6c3d227768697465222066696c6c2d6f7061636974793d22302e3035222f3e3c706174682069643d227033352220643d224d313933203135344c313936203135314c31393920313534563137344c313936203137374c31393320313734563135345a222066696c6c3d227768697465222066696c6c2d6f7061636974793d22302e3035222f3e3c706174682069643d227033362220643d224d323231203135344c323234203135314c32323720313534563137344c323234203137374c32323120313734563135345a222066696c6c3d227768697465222066696c6c2d6f7061636974793d22302e3035222f3e3c706174682069643d227033372220643d224d323230203137354c323233203137384c323230203138314c323030203138314c313937203137384c323030203137354c323230203137355a222066696c6c3d227768697465222066696c6c2d6f7061636974793d22302e3035222f3e3c7374796c653ea264697066735822122075b1453bf47a3d8b4f65cc81fca1b0e13354ffc6fe00c700f7ec08b216e3a7ad64736f6c63430008120033",
			"opcodes": "PUSH1 0x80 PUSH1 0x40 MSTORE PUSH7 0xAA87BEE538000 PUSH1 0x9 SSTORE PUSH1 0x0 PUSH1 0xA PUSH1 0x0 PUSH2 0x100 EXP DUP2 SLOAD DUP2 PUSH1 0xFF MUL NOT AND SWAP1 DUP4 ISZERO ISZERO MUL OR SWAP1 SSTORE POP CALLVALUE DUP1 ISZERO PUSH3 0x37 JUMPI PUSH1 0x0 DUP1 REVERT JUMPDEST POP PUSH1 0x40 MLOAD DUP1 PUSH1 0x40 ADD PUSH1 0x40 MSTORE DUP1 PUSH1 0x5 DUP2 MSTORE PUSH1 0x20 ADD PUSH32 0x55494E5453000000000000000000000000000000000000000000000000000000 DUP2 MSTORE POP PUSH1 0x40 MLOAD DUP1 PUSH1 0x40 ADD PUSH1 0x40 MSTORE DUP1 PUSH1 0x5 DUP2 MSTORE PUSH1 0x20 ADD PUSH32 0x55494E5453000000000000000000000000000000000000000000000000000000 DUP2 MSTORE POP DUP2 PUSH1 0x2 SWAP1 DUP2 PUSH3 0xB5 SWAP2 SWAP1 PUSH3 0x457 JUMP JUMPDEST POP DUP1 PUSH1 0x3 SWAP1 DUP2 PUSH3 0xC7 SWAP2 SWAP1 PUSH3 0x457 JUMP JUMPDEST POP PUSH3 0xD8 PUSH3 0x106 PUSH1 0x20 SHL PUSH1 0x20 SHR JUMP JUMPDEST PUSH1 0x0 DUP2 SWAP1 SSTORE POP POP POP PUSH3 0x100 PUSH3 0xF4 PUSH3 0x10F PUSH1 0x20 SHL PUSH1 0x20 SHR JUMP JUMPDEST PUSH3 0x117 PUSH1 0x20 SHL PUSH1 0x20 SHR JUMP JUMPDEST PUSH3 0x53E JUMP JUMPDEST PUSH1 0x0 PUSH1 0x1 SWAP1 POP SWAP1 JUMP JUMPDEST PUSH1 0x0 CALLER SWAP1 POP SWAP1 JUMP JUMPDEST PUSH1 0x0 PUSH1 0x8 PUSH1 0x0 SWAP1 SLOAD SWAP1 PUSH2 0x100 EXP SWAP1 DIV PUSH20 0xFFFFFFFFFFFFFFFFFFFFFFFFFFFFFFFFFFFFFFFF AND SWAP1 POP DUP2 PUSH1 0x8 PUSH1 0x0 PUSH2 0x100 EXP DUP2 SLOAD DUP2 PUSH20 0xFFFFFFFFFFFFFFFFFFFFFFFFFFFFFFFFFFFFFFFF MUL NOT AND SWAP1 DUP4 PUSH20 0xFFFFFFFFFFFFFFFFFFFFFFFFFFFFFFFFFFFFFFFF AND MUL OR SWAP1 SSTORE POP DUP2 PUSH20 0xFFFFFFFFFFFFFFFFFFFFFFFFFFFFFFFFFFFFFFFF AND DUP2 PUSH20 0xFFFFFFFFFFFFFFFFFFFFFFFFFFFFFFFFFFFFFFFF AND PUSH32 0x8BE0079C531659141344CD1FD0A4F28419497F9722A3DAAFE3B4186F6B6457E0 PUSH1 0x40 MLOAD PUSH1 0x40 MLOAD DUP1 SWAP2 SUB SWAP1 LOG3 POP POP JUMP JUMPDEST PUSH1 0x0 DUP2 MLOAD SWAP1 POP SWAP2 SWAP1 POP JUMP JUMPDEST PUSH32 0x4E487B7100000000000000000000000000000000000000000000000000000000 PUSH1 0x0 MSTORE PUSH1 0x41 PUSH1 0x4 MSTORE PUSH1 0x24 PUSH1 0x0 REVERT JUMPDEST PUSH32 0x4E487B7100000000000000000000000000000000000000000000000000000000 PUSH1 0x0 MSTORE PUSH1 0x22 PUSH1 0x4 MSTORE PUSH1 0x24 PUSH1 0x0 REVERT JUMPDEST PUSH1 0x0 PUSH1 0x2 DUP3 DIV SWAP1 POP PUSH1 0x1 DUP3 AND DUP1 PUSH3 0x25F JUMPI PUSH1 0x7F DUP3 AND SWAP2 POP JUMPDEST PUSH1 0x20 DUP3 LT DUP2 SUB PUSH3 0x275 JUMPI PUSH3 0x274 PUSH3 0x217 JUMP JUMPDEST JUMPDEST POP SWAP2 SWAP1 POP JUMP JUMPDEST PUSH1 0x0 DUP2 SWAP1 POP DUP2 PUSH1 0x0 MSTORE PUSH1 0x20 PUSH1 0x0 KECCAK256 SWAP1 POP SWAP2 SWAP1 POP JUMP JUMPDEST PUSH1 0x0 PUSH1 0x20 PUSH1 0x1F DUP4 ADD DIV SWAP1 POP SWAP2 SWAP1 POP JUMP JUMPDEST PUSH1 0x0 DUP3 DUP3 SHL SWAP1 POP SWAP3 SWAP2 POP POP JUMP JUMPDEST PUSH1 0x0 PUSH1 0x8 DUP4 MUL PUSH3 0x2DF PUSH32 0xFFFFFFFFFFFFFFFFFFFFFFFFFFFFFFFFFFFFFFFFFFFFFFFFFFFFFFFFFFFFFFFF DUP3 PUSH3 0x2A0 JUMP JUMPDEST PUSH3 0x2EB DUP7 DUP4 PUSH3 0x2A0 JUMP JUMPDEST SWAP6 POP DUP1 NOT DUP5 AND SWAP4 POP DUP1 DUP7 AND DUP5 OR SWAP3 POP POP POP SWAP4 SWAP3 POP POP POP JUMP JUMPDEST PUSH1 0x0 DUP2 SWAP1 POP SWAP2 SWAP1 POP JUMP JUMPDEST PUSH1 0x0 DUP2 SWAP1 POP SWAP2 SWAP1 POP JUMP JUMPDEST PUSH1 0x0 PUSH3 0x338 PUSH3 0x332 PUSH3 0x32C DUP5 PUSH3 0x303 JUMP JUMPDEST PUSH3 0x30D JUMP JUMPDEST PUSH3 0x303 JUMP JUMPDEST SWAP1 POP SWAP2 SWAP1 POP JUMP JUMPDEST PUSH1 0x0 DUP2 SWAP1 POP SWAP2 SWAP1 POP JUMP JUMPDEST PUSH3 0x354 DUP4 PUSH3 0x317 JUMP JUMPDEST PUSH3 0x36C PUSH3 0x363 DUP3 PUSH3 0x33F JUMP JUMPDEST DUP5 DUP5 SLOAD PUSH3 0x2AD JUMP JUMPDEST DUP3 SSTORE POP POP POP POP JUMP JUMPDEST PUSH1 0x0 SWAP1 JUMP JUMPDEST PUSH3 0x383 PUSH3 0x374 JUMP JUMPDEST PUSH3 0x390 DUP2 DUP5 DUP5 PUSH3 0x349 JUMP JUMPDEST POP POP POP JUMP JUMPDEST JUMPDEST DUP2 DUP2 LT ISZERO PUSH3 0x3B8 JUMPI PUSH3 0x3AC PUSH1 0x0 DUP3 PUSH3 0x379 JUMP JUMPDEST PUSH1 0x1 DUP2 ADD SWAP1 POP PUSH3 0x396 JUMP JUMPDEST POP POP JUMP JUMPDEST PUSH1 0x1F DUP3 GT ISZERO PUSH3 0x407 JUMPI PUSH3 0x3D1 DUP2 PUSH3 0x27B JUMP JUMPDEST PUSH3 0x3DC DUP5 PUSH3 0x290 JUMP JUMPDEST DUP2 ADD PUSH1 0x20 DUP6 LT ISZERO PUSH3 0x3EC JUMPI DUP2 SWAP1 POP JUMPDEST PUSH3 0x404 PUSH3 0x3FB DUP6 PUSH3 0x290 JUMP JUMPDEST DUP4 ADD DUP3 PUSH3 0x395 JUMP JUMPDEST POP POP JUMPDEST POP POP POP JUMP JUMPDEST PUSH1 0x0 DUP3 DUP3 SHR SWAP1 POP SWAP3 SWAP2 POP POP JUMP JUMPDEST PUSH1 0x0 PUSH3 0x42C PUSH1 0x0 NOT DUP5 PUSH1 0x8 MUL PUSH3 0x40C JUMP JUMPDEST NOT DUP1 DUP4 AND SWAP2 POP POP SWAP3 SWAP2 POP POP JUMP JUMPDEST PUSH1 0x0 PUSH3 0x447 DUP4 DUP4 PUSH3 0x419 JUMP JUMPDEST SWAP2 POP DUP3 PUSH1 0x2 MUL DUP3 OR SWAP1 POP SWAP3 SWAP2 POP POP JUMP JUMPDEST PUSH3 0x462 DUP3 PUSH3 0x1DD JUMP JUMPDEST PUSH8 0xFFFFFFFFFFFFFFFF DUP2 GT ISZERO PUSH3 0x47E JUMPI PUSH3 0x47D PUSH3 0x1E8 JUMP JUMPDEST JUMPDEST PUSH3 0x48A DUP3 SLOAD PUSH3 0x246 JUMP JUMPDEST PUSH3 0x497 DUP3 DUP3 DUP6 PUSH3 0x3BC JUMP JUMPDEST PUSH1 0x0 PUSH1 0x20 SWAP1 POP PUSH1 0x1F DUP4 GT PUSH1 0x1 DUP2 EQ PUSH3 0x4CF JUMPI PUSH1 0x0 DUP5 ISZERO PUSH3 0x4BA JUMPI DUP3 DUP8 ADD MLOAD SWAP1 POP JUMPDEST PUSH3 0x4C6 DUP6 DUP3 PUSH3 0x439 JUMP JUMPDEST DUP7 SSTORE POP PUSH3 0x536 JUMP JUMPDEST PUSH1 0x1F NOT DUP5 AND PUSH3 0x4DF DUP7 PUSH3 0x27B JUMP JUMPDEST PUSH1 0x0 JUMPDEST DUP3 DUP2 LT ISZERO PUSH3 0x509 JUMPI DUP5 DUP10 ADD MLOAD DUP3 SSTORE PUSH1 0x1 DUP3 ADD SWAP2 POP PUSH1 0x20 DUP6 ADD SWAP5 POP PUSH1 0x20 DUP2 ADD SWAP1 POP PUSH3 0x4E2 JUMP JUMPDEST DUP7 DUP4 LT ISZERO PUSH3 0x529 JUMPI DUP5 DUP10 ADD MLOAD PUSH3 0x525 PUSH1 0x1F DUP10 AND DUP3 PUSH3 0x419 JUMP JUMPDEST DUP4 SSTORE POP JUMPDEST PUSH1 0x1 PUSH1 0x2 DUP9 MUL ADD DUP9 SSTORE POP POP POP JUMPDEST POP POP POP POP POP POP JUMP JUMPDEST PUSH2 0x5FE3 DUP1 PUSH3 0x54E PUSH1 0x0 CODECOPY PUSH1 0x0 RETURN INVALID PUSH1 0x80 PUSH1 0x40 MSTORE PUSH1 0x4 CALLDATASIZE LT PUSH2 0x1CD JUMPI PUSH1 0x0 CALLDATALOAD PUSH1 0xE0 SHR DUP1 PUSH4 0x7C928FE9 GT PUSH2 0xF7 JUMPI DUP1 PUSH4 0xA6C56C79 GT PUSH2 0x95 JUMPI DUP1 PUSH4 0xD1D18F50 GT PUSH2 0x64 JUMPI DUP1 PUSH4 0xD1D18F50 EQ PUSH2 0x60F JUMPI DUP1 PUSH4 0xD8C718A8 EQ PUSH2 0x64C JUMPI DUP1 PUSH4 0xE985E9C5 EQ PUSH2 0x675 JUMPI DUP1 PUSH4 0xF2FDE38B EQ PUSH2 0x6B2 JUMPI PUSH2 0x1CD JUMP JUMPDEST DUP1 PUSH4 0xA6C56C79 EQ PUSH2 0x574 JUMPI DUP1 PUSH4 0xB88D4FDE EQ PUSH2 0x59F JUMPI DUP1 PUSH4 0xB8BE6E98 EQ PUSH2 0x5BB JUMPI DUP1 PUSH4 0xC87B56DD EQ PUSH2 0x5D2 JUMPI PUSH2 0x1CD JUMP JUMPDEST DUP1 PUSH4 0x9659867E GT PUSH2 0xD1 JUMPI DUP1 PUSH4 0x9659867E EQ PUSH2 0x4D9 JUMPI DUP1 PUSH4 0xA035B1FE EQ PUSH2 0x504 JUMPI DUP1 PUSH4 0xA0712D68 EQ PUSH2 0x52F JUMPI DUP1 PUSH4 0xA22CB465 EQ PUSH2 0x54B JUMPI PUSH2 0x1CD JUMP JUMPDEST DUP1 PUSH4 0x7C928FE9 EQ PUSH2 0x45A JUMPI DUP1 PUSH4 0x8DA5CB5B EQ PUSH2 0x483 JUMPI DUP1 PUSH4 0x95D89B41 EQ PUSH2 0x4AE JUMPI PUSH2 0x1CD JUMP JUMPDEST DUP1 PUSH4 0x23B872DD GT PUSH2 0x16F JUMPI DUP1 PUSH4 0x42842E0E GT PUSH2 0x13E JUMPI DUP1 PUSH4 0x42842E0E EQ PUSH2 0x3AD JUMPI DUP1 PUSH4 0x6352211E EQ PUSH2 0x3C9 JUMPI DUP1 PUSH4 0x70A08231 EQ PUSH2 0x406 JUMPI DUP1 PUSH4 0x715018A6 EQ PUSH2 0x443 JUMPI PUSH2 0x1CD JUMP JUMPDEST DUP1 PUSH4 0x23B872DD EQ PUSH2 0x326 JUMPI DUP1 PUSH4 0x25E514C6 EQ PUSH2 0x342 JUMPI DUP1 PUSH4 0x37C5FA0D EQ PUSH2 0x36B JUMPI DUP1 PUSH4 0x3CCFD60B EQ PUSH2 0x396 JUMPI PUSH2 0x1CD JUMP JUMPDEST DUP1 PUSH4 0x95EA7B3 GT PUSH2 0x1AB JUMPI DUP1 PUSH4 0x95EA7B3 EQ PUSH2 0x277 JUMPI DUP1 PUSH4 0xFF4C916 EQ PUSH2 0x293 JUMPI DUP1 PUSH4 0x18160DDD EQ PUSH2 0x2D0 JUMPI DUP1 PUSH4 0x21CF7ECF EQ PUSH2 0x2FB JUMPI PUSH2 0x1CD JUMP JUMPDEST DUP1 PUSH4 0x1FFC9A7 EQ PUSH2 0x1D2 JUMPI DUP1 PUSH4 0x6FDDE03 EQ PUSH2 0x20F JUMPI DUP1 PUSH4 0x81812FC EQ PUSH2 0x23A JUMPI JUMPDEST PUSH1 0x0 DUP1 REVERT JUMPDEST CALLVALUE DUP1 ISZERO PUSH2 0x1DE JUMPI PUSH1 0x0 DUP1 REVERT JUMPDEST POP PUSH2 0x1F9 PUSH1 0x4 DUP1 CALLDATASIZE SUB DUP2 ADD SWAP1 PUSH2 0x1F4 SWAP2 SWAP1 PUSH2 0x336A JUMP JUMPDEST PUSH2 0x6DB JUMP JUMPDEST PUSH1 0x40 MLOAD PUSH2 0x206 SWAP2 SWAP1 PUSH2 0x33B2 JUMP JUMPDEST PUSH1 0x40 MLOAD DUP1 SWAP2 SUB SWAP1 RETURN JUMPDEST CALLVALUE DUP1 ISZERO PUSH2 0x21B JUMPI PUSH1 0x0 DUP1 REVERT JUMPDEST POP PUSH2 0x224 PUSH2 0x76D JUMP JUMPDEST PUSH1 0x40 MLOAD PUSH2 0x231 SWAP2 SWAP1 PUSH2 0x345D JUMP JUMPDEST PUSH1 0x40 MLOAD DUP1 SWAP2 SUB SWAP1 RETURN JUMPDEST CALLVALUE DUP1 ISZERO PUSH2 0x246 JUMPI PUSH1 0x0 DUP1 REVERT JUMPDEST POP PUSH2 0x261 PUSH1 0x4 DUP1 CALLDATASIZE SUB DUP2 ADD SWAP1 PUSH2 0x25C SWAP2 SWAP1 PUSH2 0x34B5 JUMP JUMPDEST PUSH2 0x7FF JUMP JUMPDEST PUSH1 0x40 MLOAD PUSH2 0x26E SWAP2 SWAP1 PUSH2 0x3523 JUMP JUMPDEST PUSH1 0x40 MLOAD DUP1 SWAP2 SUB SWAP1 RETURN JUMPDEST PUSH2 0x291 PUSH1 0x4 DUP1 CALLDATASIZE SUB DUP2 ADD SWAP1 PUSH2 0x28C SWAP2 SWAP1 PUSH2 0x356A JUMP JUMPDEST PUSH2 0x87E JUMP JUMPDEST STOP JUMPDEST CALLVALUE DUP1 ISZERO PUSH2 0x29F JUMPI PUSH1 0x0 DUP1 REVERT JUMPDEST POP PUSH2 0x2BA PUSH1 0x4 DUP1 CALLDATASIZE SUB DUP2 ADD SWAP1 PUSH2 0x2B5 SWAP2 SWAP1 PUSH2 0x34B5 JUMP JUMPDEST PUSH2 0x9C2 JUMP JUMPDEST PUSH1 0x40 MLOAD PUSH2 0x2C7 SWAP2 SWAP1 PUSH2 0x35B9 JUMP JUMPDEST PUSH1 0x40 MLOAD DUP1 SWAP2 SUB SWAP1 RETURN JUMPDEST CALLVALUE DUP1 ISZERO PUSH2 0x2DC JUMPI PUSH1 0x0 DUP1 REVERT JUMPDEST POP PUSH2 0x2E5 PUSH2 0xA54 JUMP JUMPDEST PUSH1 0x40 MLOAD PUSH2 0x2F2 SWAP2 SWAP1 PUSH2 0x35B9 JUMP JUMPDEST PUSH1 0x40 MLOAD DUP1 SWAP2 SUB SWAP1 RETURN JUMPDEST CALLVALUE DUP1 ISZERO PUSH2 0x307 JUMPI PUSH1 0x0 DUP1 REVERT JUMPDEST POP PUSH2 0x310 PUSH2 0xA6B JUMP JUMPDEST PUSH1 0x40 MLOAD PUSH2 0x31D SWAP2 SWAP1 PUSH2 0x35B9 JUMP JUMPDEST PUSH1 0x40 MLOAD DUP1 SWAP2 SUB SWAP1 RETURN JUMPDEST PUSH2 0x340 PUSH1 0x4 DUP1 CALLDATASIZE SUB DUP2 ADD SWAP1 PUSH2 0x33B SWAP2 SWAP1 PUSH2 0x35D4 JUMP JUMPDEST PUSH2 0xA71 JUMP JUMPDEST STOP JUMPDEST CALLVALUE DUP1 ISZERO PUSH2 0x34E JUMPI PUSH1 0x0 DUP1 REVERT JUMPDEST POP PUSH2 0x369 PUSH1 0x4 DUP1 CALLDATASIZE SUB DUP2 ADD SWAP1 PUSH2 0x364 SWAP2 SWAP1 PUSH2 0x376F JUMP JUMPDEST PUSH2 0xD93 JUMP JUMPDEST STOP JUMPDEST CALLVALUE DUP1 ISZERO PUSH2 0x377 JUMPI PUSH1 0x0 DUP1 REVERT JUMPDEST POP PUSH2 0x380 PUSH2 0x10F8 JUMP JUMPDEST PUSH1 0x40 MLOAD PUSH2 0x38D SWAP2 SWAP1 PUSH2 0x33B2 JUMP JUMPDEST PUSH1 0x40 MLOAD DUP1 SWAP2 SUB SWAP1 RETURN JUMPDEST CALLVALUE DUP1 ISZERO PUSH2 0x3A2 JUMPI PUSH1 0x0 DUP1 REVERT JUMPDEST POP PUSH2 0x3AB PUSH2 0x110B JUMP JUMPDEST STOP JUMPDEST PUSH2 0x3C7 PUSH1 0x4 DUP1 CALLDATASIZE SUB DUP2 ADD SWAP1 PUSH2 0x3C2 SWAP2 SWAP1 PUSH2 0x35D4 JUMP JUMPDEST PUSH2 0x1153 JUMP JUMPDEST STOP JUMPDEST CALLVALUE DUP1 ISZERO PUSH2 0x3D5 JUMPI PUSH1 0x0 DUP1 REVERT JUMPDEST POP PUSH2 0x3F0 PUSH1 0x4 DUP1 CALLDATASIZE SUB DUP2 ADD SWAP1 PUSH2 0x3EB SWAP2 SWAP1 PUSH2 0x34B5 JUMP JUMPDEST PUSH2 0x1173 JUMP JUMPDEST PUSH1 0x40 MLOAD PUSH2 0x3FD SWAP2 SWAP1 PUSH2 0x3523 JUMP JUMPDEST PUSH1 0x40 MLOAD DUP1 SWAP2 SUB SWAP1 RETURN JUMPDEST CALLVALUE DUP1 ISZERO PUSH2 0x412 JUMPI PUSH1 0x0 DUP1 REVERT JUMPDEST POP PUSH2 0x42D PUSH1 0x4 DUP1 CALLDATASIZE SUB DUP2 ADD SWAP1 PUSH2 0x428 SWAP2 SWAP1 PUSH2 0x37B8 JUMP JUMPDEST PUSH2 0x1185 JUMP JUMPDEST PUSH1 0x40 MLOAD PUSH2 0x43A SWAP2 SWAP1 PUSH2 0x35B9 JUMP JUMPDEST PUSH1 0x40 MLOAD DUP1 SWAP2 SUB SWAP1 RETURN JUMPDEST CALLVALUE DUP1 ISZERO PUSH2 0x44F JUMPI PUSH1 0x0 DUP1 REVERT JUMPDEST POP PUSH2 0x458 PUSH2 0x123D JUMP JUMPDEST STOP JUMPDEST CALLVALUE DUP1 ISZERO PUSH2 0x466 JUMPI PUSH1 0x0 DUP1 REVERT JUMPDEST POP PUSH2 0x481 PUSH1 0x4 DUP1 CALLDATASIZE SUB DUP2 ADD SWAP1 PUSH2 0x47C SWAP2 SWAP1 PUSH2 0x34B5 JUMP JUMPDEST PUSH2 0x1251 JUMP JUMPDEST STOP JUMPDEST CALLVALUE DUP1 ISZERO PUSH2 0x48F JUMPI PUSH1 0x0 DUP1 REVERT JUMPDEST POP PUSH2 0x498 PUSH2 0x1336 JUMP JUMPDEST PUSH1 0x40 MLOAD PUSH2 0x4A5 SWAP2 SWAP1 PUSH2 0x3523 JUMP JUMPDEST PUSH1 0x40 MLOAD DUP1 SWAP2 SUB SWAP1 RETURN JUMPDEST CALLVALUE DUP1 ISZERO PUSH2 0x4BA JUMPI PUSH1 0x0 DUP1 REVERT JUMPDEST POP PUSH2 0x4C3 PUSH2 0x1360 JUMP JUMPDEST PUSH1 0x40 MLOAD PUSH2 0x4D0 SWAP2 SWAP1 PUSH2 0x345D JUMP JUMPDEST PUSH1 0x40 MLOAD DUP1 SWAP2 SUB SWAP1 RETURN JUMPDEST CALLVALUE DUP1 ISZERO PUSH2 0x4E5 JUMPI PUSH1 0x0 DUP1 REVERT JUMPDEST POP PUSH2 0x4EE PUSH2 0x13F2 JUMP JUMPDEST PUSH1 0x40 MLOAD PUSH2 0x4FB SWAP2 SWAP1 PUSH2 0x35B9 JUMP JUMPDEST PUSH1 0x40 MLOAD DUP1 SWAP2 SUB SWAP1 RETURN JUMPDEST CALLVALUE DUP1 ISZERO PUSH2 0x510 JUMPI PUSH1 0x0 DUP1 REVERT JUMPDEST POP PUSH2 0x519 PUSH2 0x1401 JUMP JUMPDEST PUSH1 0x40 MLOAD PUSH2 0x526 SWAP2 SWAP1 PUSH2 0x35B9 JUMP JUMPDEST PUSH1 0x40 MLOAD DUP1 SWAP2 SUB SWAP1 RETURN JUMPDEST PUSH2 0x549 PUSH1 0x4 DUP1 CALLDATASIZE SUB DUP2 ADD SWAP1 PUSH2 0x544 SWAP2 SWAP1 PUSH2 0x34B5 JUMP JUMPDEST PUSH2 0x1407 JUMP JUMPDEST STOP JUMPDEST CALLVALUE DUP1 ISZERO PUSH2 0x557 JUMPI PUSH1 0x0 DUP1 REVERT JUMPDEST POP PUSH2 0x572 PUSH1 0x4 DUP1 CALLDATASIZE SUB DUP2 ADD SWAP1 PUSH2 0x56D SWAP2 SWAP1 PUSH2 0x3811 JUMP JUMPDEST PUSH2 0x1464 JUMP JUMPDEST STOP JUMPDEST CALLVALUE DUP1 ISZERO PUSH2 0x580 JUMPI PUSH1 0x0 DUP1 REVERT JUMPDEST POP PUSH2 0x589 PUSH2 0x156F JUMP JUMPDEST PUSH1 0x40 MLOAD PUSH2 0x596 SWAP2 SWAP1 PUSH2 0x35B9 JUMP JUMPDEST PUSH1 0x40 MLOAD DUP1 SWAP2 SUB SWAP1 RETURN JUMPDEST PUSH2 0x5B9 PUSH1 0x4 DUP1 CALLDATASIZE SUB DUP2 ADD SWAP1 PUSH2 0x5B4 SWAP2 SWAP1 PUSH2 0x3906 JUMP JUMPDEST PUSH2 0x1581 JUMP JUMPDEST STOP JUMPDEST CALLVALUE DUP1 ISZERO PUSH2 0x5C7 JUMPI PUSH1 0x0 DUP1 REVERT JUMPDEST POP PUSH2 0x5D0 PUSH2 0x15F4 JUMP JUMPDEST STOP JUMPDEST CALLVALUE DUP1 ISZERO PUSH2 0x5DE JUMPI PUSH1 0x0 DUP1 REVERT JUMPDEST POP PUSH2 0x5F9 PUSH1 0x4 DUP1 CALLDATASIZE SUB DUP2 ADD SWAP1 PUSH2 0x5F4 SWAP2 SWAP1 PUSH2 0x34B5 JUMP JUMPDEST PUSH2 0x1628 JUMP JUMPDEST PUSH1 0x40 MLOAD PUSH2 0x606 SWAP2 SWAP1 PUSH2 0x345D JUMP JUMPDEST PUSH1 0x40 MLOAD DUP1 SWAP2 SUB SWAP1 RETURN JUMPDEST CALLVALUE DUP1 ISZERO PUSH2 0x61B JUMPI PUSH1 0x0 DUP1 REVERT JUMPDEST POP PUSH2 0x636 PUSH1 0x4 DUP1 CALLDATASIZE SUB DUP2 ADD SWAP1 PUSH2 0x631 SWAP2 SWAP1 PUSH2 0x37B8 JUMP JUMPDEST PUSH2 0x1777 JUMP JUMPDEST PUSH1 0x40 MLOAD PUSH2 0x643 SWAP2 SWAP1 PUSH2 0x35B9 JUMP JUMPDEST PUSH1 0x40 MLOAD DUP1 SWAP2 SUB SWAP1 RETURN JUMPDEST CALLVALUE DUP1 ISZERO PUSH2 0x658 JUMPI PUSH1 0x0 DUP1 REVERT JUMPDEST POP PUSH2 0x673 PUSH1 0x4 DUP1 CALLDATASIZE SUB DUP2 ADD SWAP1 PUSH2 0x66E SWAP2 SWAP1 PUSH2 0x39E4 JUMP JUMPDEST PUSH2 0x17C0 JUMP JUMPDEST STOP JUMPDEST CALLVALUE DUP1 ISZERO PUSH2 0x681 JUMPI PUSH1 0x0 DUP1 REVERT JUMPDEST POP PUSH2 0x69C PUSH1 0x4 DUP1 CALLDATASIZE SUB DUP2 ADD SWAP1 PUSH2 0x697 SWAP2 SWAP1 PUSH2 0x3A44 JUMP JUMPDEST PUSH2 0x185A JUMP JUMPDEST PUSH1 0x40 MLOAD PUSH2 0x6A9 SWAP2 SWAP1 PUSH2 0x33B2 JUMP JUMPDEST PUSH1 0x40 MLOAD DUP1 SWAP2 SUB SWAP1 RETURN JUMPDEST CALLVALUE DUP1 ISZERO PUSH2 0x6BE JUMPI PUSH1 0x0 DUP1 REVERT JUMPDEST POP PUSH2 0x6D9 PUSH1 0x4 DUP1 CALLDATASIZE SUB DUP2 ADD SWAP1 PUSH2 0x6D4 SWAP2 SWAP1 PUSH2 0x37B8 JUMP JUMPDEST PUSH2 0x18EE JUMP JUMPDEST STOP JUMPDEST PUSH1 0x0 PUSH4 0x1FFC9A7 PUSH1 0xE0 SHL DUP3 PUSH28 0xFFFFFFFFFFFFFFFFFFFFFFFFFFFFFFFFFFFFFFFFFFFFFFFFFFFFFFFF NOT AND EQ DUP1 PUSH2 0x736 JUMPI POP PUSH4 0x80AC58CD PUSH1 0xE0 SHL DUP3 PUSH28 0xFFFFFFFFFFFFFFFFFFFFFFFFFFFFFFFFFFFFFFFFFFFFFFFFFFFFFFFF NOT AND EQ JUMPDEST DUP1 PUSH2 0x766 JUMPI POP PUSH4 0x5B5E139F PUSH1 0xE0 SHL DUP3 PUSH28 0xFFFFFFFFFFFFFFFFFFFFFFFFFFFFFFFFFFFFFFFFFFFFFFFFFFFFFFFF NOT AND EQ JUMPDEST SWAP1 POP SWAP2 SWAP1 POP JUMP JUMPDEST PUSH1 0x60 PUSH1 0x2 DUP1 SLOAD PUSH2 0x77C SWAP1 PUSH2 0x3AB3 JUMP JUMPDEST DUP1 PUSH1 0x1F ADD PUSH1 0x20 DUP1 SWAP2 DIV MUL PUSH1 0x20 ADD PUSH1 0x40 MLOAD SWAP1 DUP2 ADD PUSH1 0x40 MSTORE DUP1 SWAP3 SWAP2 SWAP1 DUP2 DUP2 MSTORE PUSH1 0x20 ADD DUP3 DUP1 SLOAD PUSH2 0x7A8 SWAP1 PUSH2 0x3AB3 JUMP JUMPDEST DUP1 ISZERO PUSH2 0x7F5 JUMPI DUP1 PUSH1 0x1F LT PUSH2 0x7CA JUMPI PUSH2 0x100 DUP1 DUP4 SLOAD DIV MUL DUP4 MSTORE SWAP2 PUSH1 0x20 ADD SWAP2 PUSH2 0x7F5 JUMP JUMPDEST DUP3 ADD SWAP2 SWAP1 PUSH1 0x0 MSTORE PUSH1 0x20 PUSH1 0x0 KECCAK256 SWAP1 JUMPDEST DUP2 SLOAD DUP2 MSTORE SWAP1 PUSH1 0x1 ADD SWAP1 PUSH1 0x20 ADD DUP1 DUP4 GT PUSH2 0x7D8 JUMPI DUP3 SWAP1 SUB PUSH1 0x1F AND DUP3 ADD SWAP2 JUMPDEST POP POP POP POP POP SWAP1 POP SWAP1 JUMP JUMPDEST PUSH1 0x0 PUSH2 0x80A DUP3 PUSH2 0x1971 JUMP JUMPDEST PUSH2 0x840 JUMPI PUSH1 0x40 MLOAD PUSH32 0xCF4700E400000000000000000000000000000000000000000000000000000000 DUP2 MSTORE PUSH1 0x4 ADD PUSH1 0x40 MLOAD DUP1 SWAP2 SUB SWAP1 REVERT JUMPDEST PUSH1 0x6 PUSH1 0x0 DUP4 DUP2 MSTORE PUSH1 0x20 ADD SWAP1 DUP2 MSTORE PUSH1 0x20 ADD PUSH1 0x0 KECCAK256 PUSH1 0x0 ADD PUSH1 0x0 SWAP1 SLOAD SWAP1 PUSH2 0x100 EXP SWAP1 DIV PUSH20 0xFFFFFFFFFFFFFFFFFFFFFFFFFFFFFFFFFFFFFFFF AND SWAP1 POP SWAP2 SWAP1 POP JUMP JUMPDEST PUSH1 0x0 PUSH2 0x889 DUP3 PUSH2 0x1173 JUMP JUMPDEST SWAP1 POP DUP1 PUSH20 0xFFFFFFFFFFFFFFFFFFFFFFFFFFFFFFFFFFFFFFFF AND PUSH2 0x8AA PUSH2 0x19D0 JUMP JUMPDEST PUSH20 0xFFFFFFFFFFFFFFFFFFFFFFFFFFFFFFFFFFFFFFFF AND EQ PUSH2 0x90D JUMPI PUSH2 0x8D6 DUP2 PUSH2 0x8D1 PUSH2 0x19D0 JUMP JUMPDEST PUSH2 0x185A JUMP JUMPDEST PUSH2 0x90C JUMPI PUSH1 0x40 MLOAD PUSH32 0xCFB3B94200000000000000000000000000000000000000000000000000000000 DUP2 MSTORE PUSH1 0x4 ADD PUSH1 0x40 MLOAD DUP1 SWAP2 SUB SWAP1 REVERT JUMPDEST JUMPDEST DUP3 PUSH1 0x6 PUSH1 0x0 DUP5 DUP2 MSTORE PUSH1 0x20 ADD SWAP1 DUP2 MSTORE PUSH1 0x20 ADD PUSH1 0x0 KECCAK256 PUSH1 0x0 ADD PUSH1 0x0 PUSH2 0x100 EXP DUP2 SLOAD DUP2 PUSH20 0xFFFFFFFFFFFFFFFFFFFFFFFFFFFFFFFFFFFFFFFF MUL NOT AND SWAP1 DUP4 PUSH20 0xFFFFFFFFFFFFFFFFFFFFFFFFFFFFFFFFFFFFFFFF AND MUL OR SWAP1 SSTORE POP DUP2 DUP4 PUSH20 0xFFFFFFFFFFFFFFFFFFFFFFFFFFFFFFFFFFFFFFFF AND DUP3 PUSH20 0xFFFFFFFFFFFFFFFFFFFFFFFFFFFFFFFFFFFFFFFF AND PUSH32 0x8C5BE1E5EBEC7D5BD14F71427D1E84F3DD0314C0F7B2291E5B200AC8C7C3B925 PUSH1 0x40 MLOAD PUSH1 0x40 MLOAD DUP1 SWAP2 SUB SWAP1 LOG4 POP POP POP JUMP JUMPDEST PUSH1 0x0 PUSH2 0x9CD DUP3 PUSH2 0x1971 JUMP JUMPDEST PUSH2 0xA0C JUMPI PUSH1 0x40 MLOAD PUSH32 0x8C379A000000000000000000000000000000000000000000000000000000000 DUP2 MSTORE PUSH1 0x4 ADD PUSH2 0xA03 SWAP1 PUSH2 0x3B30 JUMP JUMPDEST PUSH1 0x40 MLOAD DUP1 SWAP2 SUB SWAP1 REVERT JUMPDEST PUSH1 0x0 PUSH1 0xC PUSH1 0x0 DUP5 DUP2 MSTORE PUSH1 0x20 ADD SWAP1 DUP2 MSTORE PUSH1 0x20 ADD PUSH1 0x0 KECCAK256 SLOAD GT ISZERO PUSH2 0xA43 JUMPI PUSH1 0xC PUSH1 0x0 DUP4 DUP2 MSTORE PUSH1 0x20 ADD SWAP1 DUP2 MSTORE PUSH1 0x20 ADD PUSH1 0x0 KECCAK256 SLOAD SWAP1 POP PUSH2 0xA4F JUMP JUMPDEST PUSH2 0xA4C DUP3 PUSH2 0x19D8 JUMP JUMPDEST SWAP1 POP JUMPDEST SWAP2 SWAP1 POP JUMP JUMPDEST PUSH1 0x0 PUSH2 0xA5E PUSH2 0x1B19 JUMP JUMPDEST PUSH1 0x1 SLOAD PUSH1 0x0 SLOAD SUB SUB SWAP1 POP SWAP1 JUMP JUMPDEST PUSH1 0xB SLOAD DUP2 JUMP JUMPDEST PUSH1 0x0 PUSH2 0xA7C DUP3 PUSH2 0x1B22 JUMP JUMPDEST SWAP1 POP DUP4 PUSH20 0xFFFFFFFFFFFFFFFFFFFFFFFFFFFFFFFFFFFFFFFF AND DUP2 PUSH20 0xFFFFFFFFFFFFFFFFFFFFFFFFFFFFFFFFFFFFFFFF AND EQ PUSH2 0xAE3 JUMPI PUSH1 0x40 MLOAD PUSH32 0xA114810000000000000000000000000000000000000000000000000000000000 DUP2 MSTORE PUSH1 0x4 ADD PUSH1 0x40 MLOAD DUP1 SWAP2 SUB SWAP1 REVERT JUMPDEST PUSH1 0x0 DUP1 PUSH2 0xAEF DUP5 PUSH2 0x1BEE JUMP JUMPDEST SWAP2 POP SWAP2 POP PUSH2 0xB05 DUP2 DUP8 PUSH2 0xB00 PUSH2 0x19D0 JUMP JUMPDEST PUSH2 0x1C15 JUMP JUMPDEST PUSH2 0xB51 JUMPI PUSH2 0xB1A DUP7 PUSH2 0xB15 PUSH2 0x19D0 JUMP JUMPDEST PUSH2 0x185A JUMP JUMPDEST PUSH2 0xB50 JUMPI PUSH1 0x40 MLOAD PUSH32 0x59C896BE00000000000000000000000000000000000000000000000000000000 DUP2 MSTORE PUSH1 0x4 ADD PUSH1 0x40 MLOAD DUP1 SWAP2 SUB SWAP1 REVERT JUMPDEST JUMPDEST PUSH1 0x0 PUSH20 0xFFFFFFFFFFFFFFFFFFFFFFFFFFFFFFFFFFFFFFFF AND DUP6 PUSH20 0xFFFFFFFFFFFFFFFFFFFFFFFFFFFFFFFFFFFFFFFF AND SUB PUSH2 0xBB7 JUMPI PUSH1 0x40 MLOAD PUSH32 0xEA553B3400000000000000000000000000000000000000000000000000000000 DUP2 MSTORE PUSH1 0x4 ADD PUSH1 0x40 MLOAD DUP1 SWAP2 SUB SWAP1 REVERT JUMPDEST PUSH2 0xBC4 DUP7 DUP7 DUP7 PUSH1 0x1 PUSH2 0x1C59 JUMP JUMPDEST DUP1 ISZERO PUSH2 0xBCF JUMPI PUSH1 0x0 DUP3 SSTORE JUMPDEST PUSH1 0x5 PUSH1 0x0 DUP8 PUSH20 0xFFFFFFFFFFFFFFFFFFFFFFFFFFFFFFFFFFFFFFFF AND PUSH20 0xFFFFFFFFFFFFFFFFFFFFFFFFFFFFFFFFFFFFFFFF AND DUP2 MSTORE PUSH1 0x20 ADD SWAP1 DUP2 MSTORE PUSH1 0x20 ADD PUSH1 0x0 KECCAK256 PUSH1 0x0 DUP2 SLOAD PUSH1 0x1 SWAP1 SUB SWAP2 SWAP1 POP DUP2 SWAP1 SSTORE POP PUSH1 0x5 PUSH1 0x0 DUP7 PUSH20 0xFFFFFFFFFFFFFFFFFFFFFFFFFFFFFFFFFFFFFFFF AND PUSH20 0xFFFFFFFFFFFFFFFFFFFFFFFFFFFFFFFFFFFFFFFF AND DUP2 MSTORE PUSH1 0x20 ADD SWAP1 DUP2 MSTORE PUSH1 0x20 ADD PUSH1 0x0 KECCAK256 PUSH1 0x0 DUP2 SLOAD PUSH1 0x1 ADD SWAP2 SWAP1 POP DUP2 SWAP1 SSTORE POP PUSH2 0xC9D DUP6 PUSH2 0xC79 DUP9 DUP9 DUP8 PUSH2 0x1C5F JUMP JUMPDEST PUSH29 0x200000000000000000000000000000000000000000000000000000000 OR PUSH2 0x1C87 JUMP JUMPDEST PUSH1 0x4 PUSH1 0x0 DUP7 DUP2 MSTORE PUSH1 0x20 ADD SWAP1 DUP2 MSTORE PUSH1 0x20 ADD PUSH1 0x0 KECCAK256 DUP2 SWAP1 SSTORE POP PUSH1 0x0 PUSH29 0x200000000000000000000000000000000000000000000000000000000 DUP5 AND SUB PUSH2 0xD23 JUMPI PUSH1 0x0 PUSH1 0x1 DUP6 ADD SWAP1 POP PUSH1 0x0 PUSH1 0x4 PUSH1 0x0 DUP4 DUP2 MSTORE PUSH1 0x20 ADD SWAP1 DUP2 MSTORE PUSH1 0x20 ADD PUSH1 0x0 KECCAK256 SLOAD SUB PUSH2 0xD21 JUMPI PUSH1 0x0 SLOAD DUP2 EQ PUSH2 0xD20 JUMPI DUP4 PUSH1 0x4 PUSH1 0x0 DUP4 DUP2 MSTORE PUSH1 0x20 ADD SWAP1 DUP2 MSTORE PUSH1 0x20 ADD PUSH1 0x0 KECCAK256 DUP2 SWAP1 SSTORE POP JUMPDEST JUMPDEST POP JUMPDEST DUP4 DUP6 PUSH20 0xFFFFFFFFFFFFFFFFFFFFFFFFFFFFFFFFFFFFFFFF AND DUP8 PUSH20 0xFFFFFFFFFFFFFFFFFFFFFFFFFFFFFFFFFFFFFFFF AND PUSH32 0xDDF252AD1BE2C89B69C2B068FC378DAA952BA7F163C4A11628F55A4DF523B3EF PUSH1 0x40 MLOAD PUSH1 0x40 MLOAD DUP1 SWAP2 SUB SWAP1 LOG4 PUSH2 0xD8B DUP7 DUP7 DUP7 PUSH1 0x1 PUSH2 0x1CB2 JUMP JUMPDEST POP POP POP POP POP POP JUMP JUMPDEST PUSH1 0xA PUSH1 0x0 SWAP1 SLOAD SWAP1 PUSH2 0x100 EXP SWAP1 DIV PUSH1 0xFF AND PUSH2 0xDE2 JUMPI PUSH1 0x40 MLOAD PUSH32 0x8C379A000000000000000000000000000000000000000000000000000000000 DUP2 MSTORE PUSH1 0x4 ADD PUSH2 0xDD9 SWAP1 PUSH2 0x3B9C JUMP JUMPDEST PUSH1 0x40 MLOAD DUP1 SWAP2 SUB SWAP1 REVERT JUMPDEST PUSH1 0x0 DUP1 PUSH1 0x0 SWAP1 POP JUMPDEST DUP3 MLOAD DUP2 LT ISZERO PUSH2 0xEC6 JUMPI CALLER PUSH20 0xFFFFFFFFFFFFFFFFFFFFFFFFFFFFFFFFFFFFFFFF AND PUSH2 0xE2D DUP5 DUP4 DUP2 MLOAD DUP2 LT PUSH2 0xE20 JUMPI PUSH2 0xE1F PUSH2 0x3BBC JUMP JUMPDEST JUMPDEST PUSH1 0x20 MUL PUSH1 0x20 ADD ADD MLOAD PUSH2 0x1173 JUMP JUMPDEST PUSH20 0xFFFFFFFFFFFFFFFFFFFFFFFFFFFFFFFFFFFFFFFF AND EQ PUSH2 0xE83 JUMPI PUSH1 0x40 MLOAD PUSH32 0x8C379A000000000000000000000000000000000000000000000000000000000 DUP2 MSTORE PUSH1 0x4 ADD PUSH2 0xE7A SWAP1 PUSH2 0x3C37 JUMP JUMPDEST PUSH1 0x40 MLOAD DUP1 SWAP2 SUB SWAP1 REVERT JUMPDEST PUSH2 0xEA6 DUP4 DUP3 DUP2 MLOAD DUP2 LT PUSH2 0xE99 JUMPI PUSH2 0xE98 PUSH2 0x3BBC JUMP JUMPDEST JUMPDEST PUSH1 0x20 MUL PUSH1 0x20 ADD ADD MLOAD PUSH2 0x9C2 JUMP JUMPDEST DUP3 PUSH2 0xEB1 SWAP2 SWAP1 PUSH2 0x3C86 JUMP JUMPDEST SWAP2 POP DUP1 DUP1 PUSH2 0xEBE SWAP1 PUSH2 0x3CBA JUMP JUMPDEST SWAP2 POP POP PUSH2 0xDEA JUMP JUMPDEST POP PUSH2 0x270F DUP2 GT ISZERO PUSH2 0xF0C JUMPI PUSH1 0x40 MLOAD PUSH32 0x8C379A000000000000000000000000000000000000000000000000000000000 DUP2 MSTORE PUSH1 0x4 ADD PUSH2 0xF03 SWAP1 PUSH2 0x3D4E JUMP JUMPDEST PUSH1 0x40 MLOAD DUP1 SWAP2 SUB SWAP1 REVERT JUMPDEST PUSH1 0x0 PUSH1 0x1 SWAP1 POP JUMPDEST DUP3 MLOAD DUP2 LT ISZERO PUSH2 0x1009 JUMPI PUSH2 0xF3F DUP4 DUP3 DUP2 MLOAD DUP2 LT PUSH2 0xF32 JUMPI PUSH2 0xF31 PUSH2 0x3BBC JUMP JUMPDEST JUMPDEST PUSH1 0x20 MUL PUSH1 0x20 ADD ADD MLOAD PUSH2 0x1CB8 JUMP JUMPDEST PUSH1 0x0 PUSH1 0xC PUSH1 0x0 DUP6 DUP5 DUP2 MLOAD DUP2 LT PUSH2 0xF58 JUMPI PUSH2 0xF57 PUSH2 0x3BBC JUMP JUMPDEST JUMPDEST PUSH1 0x20 MUL PUSH1 0x20 ADD ADD MLOAD DUP2 MSTORE PUSH1 0x20 ADD SWAP1 DUP2 MSTORE PUSH1 0x20 ADD PUSH1 0x0 KECCAK256 DUP2 SWAP1 SSTORE POP PUSH1 0x0 PUSH1 0xD PUSH1 0x0 DUP6 DUP5 DUP2 MLOAD DUP2 LT PUSH2 0xF8B JUMPI PUSH2 0xF8A PUSH2 0x3BBC JUMP JUMPDEST JUMPDEST PUSH1 0x20 MUL PUSH1 0x20 ADD ADD MLOAD DUP2 MSTORE PUSH1 0x20 ADD SWAP1 DUP2 MSTORE PUSH1 0x20 ADD PUSH1 0x0 KECCAK256 DUP2 SWAP1 SSTORE POP PUSH32 0xF8E1A15ABA9398E019F0B49DF1A4FDE98EE17AE345CB5F6B5E2C27F5033E8CE7 DUP4 DUP3 DUP2 MLOAD DUP2 LT PUSH2 0xFD9 JUMPI PUSH2 0xFD8 PUSH2 0x3BBC JUMP JUMPDEST JUMPDEST PUSH1 0x20 MUL PUSH1 0x20 ADD ADD MLOAD PUSH1 0x40 MLOAD PUSH2 0xFEE SWAP2 SWAP1 PUSH2 0x35B9 JUMP JUMPDEST PUSH1 0x40 MLOAD DUP1 SWAP2 SUB SWAP1 LOG1 DUP1 DUP1 PUSH2 0x1001 SWAP1 PUSH2 0x3CBA JUMP JUMPDEST SWAP2 POP POP PUSH2 0xF13 JUMP JUMPDEST POP DUP1 PUSH1 0xC PUSH1 0x0 DUP5 PUSH1 0x0 DUP2 MLOAD DUP2 LT PUSH2 0x1023 JUMPI PUSH2 0x1022 PUSH2 0x3BBC JUMP JUMPDEST JUMPDEST PUSH1 0x20 MUL PUSH1 0x20 ADD ADD MLOAD DUP2 MSTORE PUSH1 0x20 ADD SWAP1 DUP2 MSTORE PUSH1 0x20 ADD PUSH1 0x0 KECCAK256 DUP2 SWAP1 SSTORE POP PUSH2 0x1070 TIMESTAMP DUP4 PUSH1 0x0 DUP2 MLOAD DUP2 LT PUSH2 0x1055 JUMPI PUSH2 0x1054 PUSH2 0x3BBC JUMP JUMPDEST JUMPDEST PUSH1 0x20 MUL PUSH1 0x20 ADD ADD MLOAD PUSH2 0x1067 SWAP2 SWAP1 PUSH2 0x3C86 JUMP JUMPDEST PUSH1 0x1 PUSH1 0x4 PUSH2 0x1CC6 JUMP JUMPDEST PUSH1 0xD PUSH1 0x0 DUP5 PUSH1 0x0 DUP2 MLOAD DUP2 LT PUSH2 0x1088 JUMPI PUSH2 0x1087 PUSH2 0x3BBC JUMP JUMPDEST JUMPDEST PUSH1 0x20 MUL PUSH1 0x20 ADD ADD MLOAD DUP2 MSTORE PUSH1 0x20 ADD SWAP1 DUP2 MSTORE PUSH1 0x20 ADD PUSH1 0x0 KECCAK256 DUP2 SWAP1 SSTORE POP PUSH32 0xF8E1A15ABA9398E019F0B49DF1A4FDE98EE17AE345CB5F6B5E2C27F5033E8CE7 DUP3 PUSH1 0x0 DUP2 MLOAD DUP2 LT PUSH2 0x10D7 JUMPI PUSH2 0x10D6 PUSH2 0x3BBC JUMP JUMPDEST JUMPDEST PUSH1 0x20 MUL PUSH1 0x20 ADD ADD MLOAD PUSH1 0x40 MLOAD PUSH2 0x10EC SWAP2 SWAP1 PUSH2 0x35B9 JUMP JUMPDEST PUSH1 0x40 MLOAD DUP1 SWAP2 SUB SWAP1 LOG1 POP POP JUMP JUMPDEST PUSH1 0xA PUSH1 0x0 SWAP1 SLOAD SWAP1 PUSH2 0x100 EXP SWAP1 DIV PUSH1 0xFF AND DUP2 JUMP JUMPDEST PUSH2 0x1113 PUSH2 0x1D2D JUMP JUMPDEST CALLER PUSH20 0xFFFFFFFFFFFFFFFFFFFFFFFFFFFFFFFFFFFFFFFF AND PUSH2 0x8FC SELFBALANCE SWAP1 DUP2 ISZERO MUL SWAP1 PUSH1 0x40 MLOAD PUSH1 0x0 PUSH1 0x40 MLOAD DUP1 DUP4 SUB DUP2 DUP6 DUP9 DUP9 CALL SWAP4 POP POP POP POP PUSH2 0x1151 JUMPI PUSH1 0x0 DUP1 REVERT JUMPDEST JUMP JUMPDEST PUSH2 0x116E DUP4 DUP4 DUP4 PUSH1 0x40 MLOAD DUP1 PUSH1 0x20 ADD PUSH1 0x40 MSTORE DUP1 PUSH1 0x0 DUP2 MSTORE POP PUSH2 0x1581 JUMP JUMPDEST POP POP POP JUMP JUMPDEST PUSH1 0x0 PUSH2 0x117E DUP3 PUSH2 0x1B22 JUMP JUMPDEST SWAP1 POP SWAP2 SWAP1 POP JUMP JUMPDEST PUSH1 0x0 DUP1 PUSH20 0xFFFFFFFFFFFFFFFFFFFFFFFFFFFFFFFFFFFFFFFF AND DUP3 PUSH20 0xFFFFFFFFFFFFFFFFFFFFFFFFFFFFFFFFFFFFFFFF AND SUB PUSH2 0x11EC JUMPI PUSH1 0x40 MLOAD PUSH32 0x8F4EB60400000000000000000000000000000000000000000000000000000000 DUP2 MSTORE PUSH1 0x4 ADD PUSH1 0x40 MLOAD DUP1 SWAP2 SUB SWAP1 REVERT JUMPDEST PUSH8 0xFFFFFFFFFFFFFFFF PUSH1 0x5 PUSH1 0x0 DUP5 PUSH20 0xFFFFFFFFFFFFFFFFFFFFFFFFFFFFFFFFFFFFFFFF AND PUSH20 0xFFFFFFFFFFFFFFFFFFFFFFFFFFFFFFFFFFFFFFFF AND DUP2 MSTORE PUSH1 0x20 ADD SWAP1 DUP2 MSTORE PUSH1 0x20 ADD PUSH1 0x0 KECCAK256 SLOAD AND SWAP1 POP SWAP2 SWAP1 POP JUMP JUMPDEST PUSH2 0x1245 PUSH2 0x1D2D JUMP JUMPDEST PUSH2 0x124F PUSH1 0x0 PUSH2 0x1DAB JUMP JUMPDEST JUMP JUMPDEST PUSH1 0xE PUSH1 0x0 CALLER PUSH20 0xFFFFFFFFFFFFFFFFFFFFFFFFFFFFFFFFFFFFFFFF AND PUSH20 0xFFFFFFFFFFFFFFFFFFFFFFFFFFFFFFFFFFFFFFFF AND DUP2 MSTORE PUSH1 0x20 ADD SWAP1 DUP2 MSTORE PUSH1 0x20 ADD PUSH1 0x0 KECCAK256 SLOAD DUP2 GT ISZERO PUSH2 0x12D3 JUMPI PUSH1 0x40 MLOAD PUSH32 0x8C379A000000000000000000000000000000000000000000000000000000000 DUP2 MSTORE PUSH1 0x4 ADD PUSH2 0x12CA SWAP1 PUSH2 0x3DBA JUMP JUMPDEST PUSH1 0x40 MLOAD DUP1 SWAP2 SUB SWAP1 REVERT JUMPDEST PUSH2 0x12DD CALLER DUP3 PUSH2 0x1E71 JUMP JUMPDEST DUP1 PUSH1 0xE PUSH1 0x0 CALLER PUSH20 0xFFFFFFFFFFFFFFFFFFFFFFFFFFFFFFFFFFFFFFFF AND PUSH20 0xFFFFFFFFFFFFFFFFFFFFFFFFFFFFFFFFFFFFFFFF AND DUP2 MSTORE PUSH1 0x20 ADD SWAP1 DUP2 MSTORE PUSH1 0x20 ADD PUSH1 0x0 KECCAK256 PUSH1 0x0 DUP3 DUP3 SLOAD PUSH2 0x132C SWAP2 SWAP1 PUSH2 0x3DDA JUMP JUMPDEST SWAP3 POP POP DUP2 SWAP1 SSTORE POP POP JUMP JUMPDEST PUSH1 0x0 PUSH1 0x8 PUSH1 0x0 SWAP1 SLOAD SWAP1 PUSH2 0x100 EXP SWAP1 DIV PUSH20 0xFFFFFFFFFFFFFFFFFFFFFFFFFFFFFFFFFFFFFFFF AND SWAP1 POP SWAP1 JUMP JUMPDEST PUSH1 0x60 PUSH1 0x3 DUP1 SLOAD PUSH2 0x136F SWAP1 PUSH2 0x3AB3 JUMP JUMPDEST DUP1 PUSH1 0x1F ADD PUSH1 0x20 DUP1 SWAP2 DIV MUL PUSH1 0x20 ADD PUSH1 0x40 MLOAD SWAP1 DUP2 ADD PUSH1 0x40 MSTORE DUP1 SWAP3 SWAP2 SWAP1 DUP2 DUP2 MSTORE PUSH1 0x20 ADD DUP3 DUP1 SLOAD PUSH2 0x139B SWAP1 PUSH2 0x3AB3 JUMP JUMPDEST DUP1 ISZERO PUSH2 0x13E8 JUMPI DUP1 PUSH1 0x1F LT PUSH2 0x13BD JUMPI PUSH2 0x100 DUP1 DUP4 SLOAD DIV MUL DUP4 MSTORE SWAP2 PUSH1 0x20 ADD SWAP2 PUSH2 0x13E8 JUMP JUMPDEST DUP3 ADD SWAP2 SWAP1 PUSH1 0x0 MSTORE PUSH1 0x20 PUSH1 0x0 KECCAK256 SWAP1 JUMPDEST DUP2 SLOAD DUP2 MSTORE SWAP1 PUSH1 0x1 ADD SWAP1 PUSH1 0x20 ADD DUP1 DUP4 GT PUSH2 0x13CB JUMPI DUP3 SWAP1 SUB PUSH1 0x1F AND DUP3 ADD SWAP2 JUMPDEST POP POP POP POP POP SWAP1 POP SWAP1 JUMP JUMPDEST PUSH1 0x0 PUSH2 0x13FC PUSH2 0x1FBD JUMP JUMPDEST SWAP1 POP SWAP1 JUMP JUMPDEST PUSH1 0x9 SLOAD DUP2 JUMP JUMPDEST PUSH1 0x9 SLOAD DUP2 PUSH2 0x1415 SWAP2 SWAP1 PUSH2 0x3E0E JUMP JUMPDEST CALLVALUE LT ISZERO PUSH2 0x1457 JUMPI PUSH1 0x40 MLOAD PUSH32 0x8C379A000000000000000000000000000000000000000000000000000000000 DUP2 MSTORE PUSH1 0x4 ADD PUSH2 0x144E SWAP1 PUSH2 0x3E9C JUMP JUMPDEST PUSH1 0x40 MLOAD DUP1 SWAP2 SUB SWAP1 REVERT JUMPDEST PUSH2 0x1461 CALLER DUP3 PUSH2 0x1E71 JUMP JUMPDEST POP JUMP JUMPDEST DUP1 PUSH1 0x7 PUSH1 0x0 PUSH2 0x1471 PUSH2 0x19D0 JUMP JUMPDEST PUSH20 0xFFFFFFFFFFFFFFFFFFFFFFFFFFFFFFFFFFFFFFFF AND PUSH20 0xFFFFFFFFFFFFFFFFFFFFFFFFFFFFFFFFFFFFFFFF AND DUP2 MSTORE PUSH1 0x20 ADD SWAP1 DUP2 MSTORE PUSH1 0x20 ADD PUSH1 0x0 KECCAK256 PUSH1 0x0 DUP5 PUSH20 0xFFFFFFFFFFFFFFFFFFFFFFFFFFFFFFFFFFFFFFFF AND PUSH20 0xFFFFFFFFFFFFFFFFFFFFFFFFFFFFFFFFFFFFFFFF AND DUP2 MSTORE PUSH1 0x20 ADD SWAP1 DUP2 MSTORE PUSH1 0x20 ADD PUSH1 0x0 KECCAK256 PUSH1 0x0 PUSH2 0x100 EXP DUP2 SLOAD DUP2 PUSH1 0xFF MUL NOT AND SWAP1 DUP4 ISZERO ISZERO MUL OR SWAP1 SSTORE POP DUP2 PUSH20 0xFFFFFFFFFFFFFFFFFFFFFFFFFFFFFFFFFFFFFFFF AND PUSH2 0x151E PUSH2 0x19D0 JUMP JUMPDEST PUSH20 0xFFFFFFFFFFFFFFFFFFFFFFFFFFFFFFFFFFFFFFFF AND PUSH32 0x17307EAB39AB6107E8899845AD3D59BD9653F200F220920489CA2B5937696C31 DUP4 PUSH1 0x40 MLOAD PUSH2 0x1563 SWAP2 SWAP1 PUSH2 0x33B2 JUMP JUMPDEST PUSH1 0x40 MLOAD DUP1 SWAP2 SUB SWAP1 LOG3 POP POP JUMP JUMPDEST PUSH1 0x0 PUSH2 0x157C PUSH1 0xB SLOAD PUSH2 0x1FD0 JUMP JUMPDEST SWAP1 POP SWAP1 JUMP JUMPDEST PUSH2 0x158C DUP5 DUP5 DUP5 PUSH2 0xA71 JUMP JUMPDEST PUSH1 0x0 DUP4 PUSH20 0xFFFFFFFFFFFFFFFFFFFFFFFFFFFFFFFFFFFFFFFF AND EXTCODESIZE EQ PUSH2 0x15EE JUMPI PUSH2 0x15B7 DUP5 DUP5 DUP5 DUP5 PUSH2 0x200B JUMP JUMPDEST PUSH2 0x15ED JUMPI PUSH1 0x40 MLOAD PUSH32 0xD1A57ED600000000000000000000000000000000000000000000000000000000 DUP2 MSTORE PUSH1 0x4 ADD PUSH1 0x40 MLOAD DUP1 SWAP2 SUB SWAP1 REVERT JUMPDEST JUMPDEST POP POP POP POP JUMP JUMPDEST PUSH2 0x15FC PUSH2 0x1D2D JUMP JUMPDEST PUSH1 0xA PUSH1 0x0 SWAP1 SLOAD SWAP1 PUSH2 0x100 EXP SWAP1 DIV PUSH1 0xFF AND ISZERO PUSH1 0xA PUSH1 0x0 PUSH2 0x100 EXP DUP2 SLOAD DUP2 PUSH1 0xFF MUL NOT AND SWAP1 DUP4 ISZERO ISZERO MUL OR SWAP1 SSTORE POP JUMP JUMPDEST PUSH1 0x60 DUP1 PUSH1 0x0 DUP1 PUSH1 0xC PUSH1 0x0 DUP7 DUP2 MSTORE PUSH1 0x20 ADD SWAP1 DUP2 MSTORE PUSH1 0x20 ADD PUSH1 0x0 KECCAK256 SLOAD GT ISZERO PUSH2 0x169B JUMPI PUSH1 0xC PUSH1 0x0 DUP6 DUP2 MSTORE PUSH1 0x20 ADD SWAP1 DUP2 MSTORE PUSH1 0x20 ADD PUSH1 0x0 KECCAK256 SLOAD SWAP1 POP PUSH1 0x40 MLOAD DUP1 PUSH1 0x40 ADD PUSH1 0x40 MSTORE DUP1 PUSH1 0x2 DUP2 MSTORE PUSH1 0x20 ADD PUSH32 0x4E6F000000000000000000000000000000000000000000000000000000000000 DUP2 MSTORE POP SWAP2 POP PUSH2 0x174F JUMP JUMPDEST PUSH1 0x0 PUSH1 0xC PUSH1 0x0 DUP7 DUP2 MSTORE PUSH1 0x20 ADD SWAP1 DUP2 MSTORE PUSH1 0x20 ADD PUSH1 0x0 KECCAK256 SLOAD EQ DUP1 ISZERO PUSH2 0x16C4 JUMPI POP PUSH2 0x16C2 DUP5 PUSH2 0x1971 JUMP JUMPDEST ISZERO JUMPDEST ISZERO PUSH2 0x170A JUMPI PUSH1 0x0 SWAP1 POP PUSH1 0x40 MLOAD DUP1 PUSH1 0x40 ADD PUSH1 0x40 MSTORE DUP1 PUSH1 0x3 DUP2 MSTORE PUSH1 0x20 ADD PUSH32 0x5965730000000000000000000000000000000000000000000000000000000000 DUP2 MSTORE POP SWAP2 POP PUSH2 0x174E JUMP JUMPDEST PUSH2 0x1713 DUP5 PUSH2 0x19D8 JUMP JUMPDEST SWAP1 POP PUSH1 0x40 MLOAD DUP1 PUSH1 0x40 ADD PUSH1 0x40 MSTORE DUP1 PUSH1 0x2 DUP2 MSTORE PUSH1 0x20 ADD PUSH32 0x4E6F000000000000000000000000000000000000000000000000000000000000 DUP2 MSTORE POP SWAP2 POP JUMPDEST JUMPDEST PUSH2 0x176E DUP5 DUP3 PUSH1 0xD PUSH1 0x0 DUP9 DUP2 MSTORE PUSH1 0x20 ADD SWAP1 DUP2 MSTORE PUSH1 0x20 ADD PUSH1 0x0 KECCAK256 SLOAD DUP6 PUSH2 0x215B JUMP JUMPDEST SWAP3 POP POP POP SWAP2 SWAP1 POP JUMP JUMPDEST PUSH1 0x0 PUSH1 0xE PUSH1 0x0 DUP4 PUSH20 0xFFFFFFFFFFFFFFFFFFFFFFFFFFFFFFFFFFFFFFFF AND PUSH20 0xFFFFFFFFFFFFFFFFFFFFFFFFFFFFFFFFFFFFFFFF AND DUP2 MSTORE PUSH1 0x20 ADD SWAP1 DUP2 MSTORE PUSH1 0x20 ADD PUSH1 0x0 KECCAK256 SLOAD SWAP1 POP SWAP2 SWAP1 POP JUMP JUMPDEST PUSH2 0x17C8 PUSH2 0x1D2D JUMP JUMPDEST PUSH1 0x0 JUMPDEST DUP4 DUP4 SWAP1 POP DUP2 LT ISZERO PUSH2 0x1854 JUMPI DUP2 PUSH1 0xE PUSH1 0x0 DUP7 DUP7 DUP6 DUP2 DUP2 LT PUSH2 0x17EE JUMPI PUSH2 0x17ED PUSH2 0x3BBC JUMP JUMPDEST JUMPDEST SWAP1 POP PUSH1 0x20 MUL ADD PUSH1 0x20 DUP2 ADD SWAP1 PUSH2 0x1803 SWAP2 SWAP1 PUSH2 0x37B8 JUMP JUMPDEST PUSH20 0xFFFFFFFFFFFFFFFFFFFFFFFFFFFFFFFFFFFFFFFF AND PUSH20 0xFFFFFFFFFFFFFFFFFFFFFFFFFFFFFFFFFFFFFFFF AND DUP2 MSTORE PUSH1 0x20 ADD SWAP1 DUP2 MSTORE PUSH1 0x20 ADD PUSH1 0x0 KECCAK256 DUP2 SWAP1 SSTORE POP DUP1 DUP1 PUSH2 0x184C SWAP1 PUSH2 0x3CBA JUMP JUMPDEST SWAP2 POP POP PUSH2 0x17CB JUMP JUMPDEST POP POP POP POP JUMP JUMPDEST PUSH1 0x0 PUSH1 0x7 PUSH1 0x0 DUP5 PUSH20 0xFFFFFFFFFFFFFFFFFFFFFFFFFFFFFFFFFFFFFFFF AND PUSH20 0xFFFFFFFFFFFFFFFFFFFFFFFFFFFFFFFFFFFFFFFF AND DUP2 MSTORE PUSH1 0x20 ADD SWAP1 DUP2 MSTORE PUSH1 0x20 ADD PUSH1 0x0 KECCAK256 PUSH1 0x0 DUP4 PUSH20 0xFFFFFFFFFFFFFFFFFFFFFFFFFFFFFFFFFFFFFFFF AND PUSH20 0xFFFFFFFFFFFFFFFFFFFFFFFFFFFFFFFFFFFFFFFF AND DUP2 MSTORE PUSH1 0x20 ADD SWAP1 DUP2 MSTORE PUSH1 0x20 ADD PUSH1 0x0 KECCAK256 PUSH1 0x0 SWAP1 SLOAD SWAP1 PUSH2 0x100 EXP SWAP1 DIV PUSH1 0xFF AND SWAP1 POP SWAP3 SWAP2 POP POP JUMP JUMPDEST PUSH2 0x18F6 PUSH2 0x1D2D JUMP JUMPDEST PUSH1 0x0 PUSH20 0xFFFFFFFFFFFFFFFFFFFFFFFFFFFFFFFFFFFFFFFF AND DUP2 PUSH20 0xFFFFFFFFFFFFFFFFFFFFFFFFFFFFFFFFFFFFFFFF AND SUB PUSH2 0x1965 JUMPI PUSH1 0x40 MLOAD PUSH32 0x8C379A000000000000000000000000000000000000000000000000000000000 DUP2 MSTORE PUSH1 0x4 ADD PUSH2 0x195C SWAP1 PUSH2 0x3F2E JUMP JUMPDEST PUSH1 0x40 MLOAD DUP1 SWAP2 SUB SWAP1 REVERT JUMPDEST PUSH2 0x196E DUP2 PUSH2 0x1DAB JUMP JUMPDEST POP JUMP JUMPDEST PUSH1 0x0 DUP2 PUSH2 0x197C PUSH2 0x1B19 JUMP JUMPDEST GT ISZERO DUP1 ISZERO PUSH2 0x198B JUMPI POP PUSH1 0x0 SLOAD DUP3 LT JUMPDEST DUP1 ISZERO PUSH2 0x19C9 JUMPI POP PUSH1 0x0 PUSH29 0x100000000000000000000000000000000000000000000000000000000 PUSH1 0x4 PUSH1 0x0 DUP6 DUP2 MSTORE PUSH1 0x20 ADD SWAP1 DUP2 MSTORE PUSH1 0x20 ADD PUSH1 0x0 KECCAK256 SLOAD AND EQ JUMPDEST SWAP1 POP SWAP2 SWAP1 POP JUMP JUMPDEST PUSH1 0x0 CALLER SWAP1 POP SWAP1 JUMP JUMPDEST PUSH1 0x0 PUSH2 0x3E8 DUP3 LT ISZERO PUSH2 0x19F8 JUMPI PUSH2 0x19F1 DUP3 PUSH1 0x1 PUSH1 0x46 PUSH2 0x1CC6 JUMP JUMPDEST SWAP1 POP PUSH2 0x1B14 JUMP JUMPDEST PUSH2 0x7D0 DUP3 LT ISZERO PUSH2 0x1A16 JUMPI PUSH2 0x1A0F DUP3 PUSH1 0x1 PUSH1 0x3F PUSH2 0x1CC6 JUMP JUMPDEST SWAP1 POP PUSH2 0x1B13 JUMP JUMPDEST PUSH2 0xBB8 DUP3 LT ISZERO PUSH2 0x1A34 JUMPI PUSH2 0x1A2D DUP3 PUSH1 0x1 PUSH1 0x38 PUSH2 0x1CC6 JUMP JUMPDEST SWAP1 POP PUSH2 0x1B12 JUMP JUMPDEST PUSH2 0xFA0 DUP3 LT ISZERO PUSH2 0x1A52 JUMPI PUSH2 0x1A4B DUP3 PUSH1 0x1 PUSH1 0x31 PUSH2 0x1CC6 JUMP JUMPDEST SWAP1 POP PUSH2 0x1B11 JUMP JUMPDEST PUSH2 0x1388 DUP3 LT ISZERO PUSH2 0x1A70 JUMPI PUSH2 0x1A69 DUP3 PUSH1 0x1 PUSH1 0x2A PUSH2 0x1CC6 JUMP JUMPDEST SWAP1 POP PUSH2 0x1B10 JUMP JUMPDEST PUSH2 0x1770 DUP3 LT ISZERO PUSH2 0x1A8E JUMPI PUSH2 0x1A87 DUP3 PUSH1 0x1 PUSH1 0x23 PUSH2 0x1CC6 JUMP JUMPDEST SWAP1 POP PUSH2 0x1B0F JUMP JUMPDEST PUSH2 0x1B58 DUP3 LT ISZERO PUSH2 0x1AAC JUMPI PUSH2 0x1AA5 DUP3 PUSH1 0x1 PUSH1 0x1C PUSH2 0x1CC6 JUMP JUMPDEST SWAP1 POP PUSH2 0x1B0E JUMP JUMPDEST PUSH2 0x1F40 DUP3 LT ISZERO PUSH2 0x1ACA JUMPI PUSH2 0x1AC3 DUP3 PUSH1 0x1 PUSH1 0x15 PUSH2 0x1CC6 JUMP JUMPDEST SWAP1 POP PUSH2 0x1B0D JUMP JUMPDEST PUSH2 0x2328 DUP3 LT ISZERO PUSH2 0x1AE8 JUMPI PUSH2 0x1AE1 DUP3 PUSH1 0x1 PUSH1 0xE PUSH2 0x1CC6 JUMP JUMPDEST SWAP1 POP PUSH2 0x1B0C JUMP JUMPDEST PUSH2 0x2710 DUP3 LT ISZERO PUSH2 0x1B06 JUMPI PUSH2 0x1AFF DUP3 PUSH1 0x1 PUSH1 0x7 PUSH2 0x1CC6 JUMP JUMPDEST SWAP1 POP PUSH2 0x1B0B JUMP JUMPDEST PUSH1 0x1 SWAP1 POP JUMPDEST JUMPDEST JUMPDEST JUMPDEST JUMPDEST JUMPDEST JUMPDEST JUMPDEST JUMPDEST JUMPDEST SWAP2 SWAP1 POP JUMP JUMPDEST PUSH1 0x0 PUSH1 0x1 SWAP1 POP SWAP1 JUMP JUMPDEST PUSH1 0x0 DUP1 DUP3 SWAP1 POP DUP1 PUSH2 0x1B31 PUSH2 0x1B19 JUMP JUMPDEST GT PUSH2 0x1BB7 JUMPI PUSH1 0x0 SLOAD DUP2 LT ISZERO PUSH2 0x1BB6 JUMPI PUSH1 0x0 PUSH1 0x4 PUSH1 0x0 DUP4 DUP2 MSTORE PUSH1 0x20 ADD SWAP1 DUP2 MSTORE PUSH1 0x20 ADD PUSH1 0x0 KECCAK256 SLOAD SWAP1 POP PUSH1 0x0 PUSH29 0x100000000000000000000000000000000000000000000000000000000 DUP3 AND SUB PUSH2 0x1BB4 JUMPI JUMPDEST PUSH1 0x0 DUP2 SUB PUSH2 0x1BAA JUMPI PUSH1 0x4 PUSH1 0x0 DUP4 PUSH1 0x1 SWAP1 SUB SWAP4 POP DUP4 DUP2 MSTORE PUSH1 0x20 ADD SWAP1 DUP2 MSTORE PUSH1 0x20 ADD PUSH1 0x0 KECCAK256 SLOAD SWAP1 POP PUSH2 0x1B80 JUMP JUMPDEST DUP1 SWAP3 POP POP POP PUSH2 0x1BE9 JUMP JUMPDEST POP JUMPDEST JUMPDEST PUSH1 0x40 MLOAD PUSH32 0xDF2D9B4200000000000000000000000000000000000000000000000000000000 DUP2 MSTORE PUSH1 0x4 ADD PUSH1 0x40 MLOAD DUP1 SWAP2 SUB SWAP1 REVERT JUMPDEST SWAP2 SWAP1 POP JUMP JUMPDEST PUSH1 0x0 DUP1 PUSH1 0x0 PUSH1 0x6 PUSH1 0x0 DUP6 DUP2 MSTORE PUSH1 0x20 ADD SWAP1 DUP2 MSTORE PUSH1 0x20 ADD PUSH1 0x0 KECCAK256 SWAP1 POP DUP1 SWAP3 POP DUP3 SLOAD SWAP2 POP POP SWAP2 POP SWAP2 JUMP JUMPDEST PUSH1 0x0 PUSH20 0xFFFFFFFFFFFFFFFFFFFFFFFFFFFFFFFFFFFFFFFF DUP4 AND SWAP3 POP PUSH20 0xFFFFFFFFFFFFFFFFFFFFFFFFFFFFFFFFFFFFFFFF DUP3 AND SWAP2 POP DUP4 DUP3 EQ DUP4 DUP4 EQ OR SWAP1 POP SWAP4 SWAP3 POP POP POP JUMP JUMPDEST POP POP POP POP JUMP JUMPDEST PUSH1 0x0 DUP1 PUSH1 0xE8 DUP4 SWAP1 SHR SWAP1 POP PUSH1 0xE8 PUSH2 0x1C76 DUP7 DUP7 DUP5 PUSH2 0x226C JUMP JUMPDEST PUSH3 0xFFFFFF AND SWAP1 SHL SWAP2 POP POP SWAP4 SWAP3 POP POP POP JUMP JUMPDEST PUSH1 0x0 PUSH20 0xFFFFFFFFFFFFFFFFFFFFFFFFFFFFFFFFFFFFFFFF DUP4 AND SWAP3 POP DUP2 TIMESTAMP PUSH1 0xA0 SHL OR DUP4 OR SWAP1 POP SWAP3 SWAP2 POP POP JUMP JUMPDEST POP POP POP POP JUMP JUMPDEST PUSH2 0x1CC3 DUP2 PUSH1 0x0 PUSH2 0x2275 JUMP JUMPDEST POP JUMP JUMPDEST PUSH1 0x0 DUP1 DUP4 DUP4 PUSH2 0x1CD5 SWAP2 SWAP1 PUSH2 0x3DDA JUMP JUMPDEST SWAP1 POP PUSH1 0x1 DUP2 DUP7 PUSH1 0x40 MLOAD PUSH1 0x20 ADD PUSH2 0x1CEB SWAP2 SWAP1 PUSH2 0x3F6F JUMP JUMPDEST PUSH1 0x40 MLOAD PUSH1 0x20 DUP2 DUP4 SUB SUB DUP2 MSTORE SWAP1 PUSH1 0x40 MSTORE DUP1 MLOAD SWAP1 PUSH1 0x20 ADD KECCAK256 PUSH1 0x0 SHR PUSH2 0x1D0E SWAP2 SWAP1 PUSH2 0x3FB9 JUMP JUMPDEST DUP5 PUSH2 0x1D19 SWAP2 SWAP1 PUSH2 0x3DDA JUMP JUMPDEST PUSH2 0x1D23 SWAP2 SWAP1 PUSH2 0x3DDA JUMP JUMPDEST SWAP2 POP POP SWAP4 SWAP3 POP POP POP JUMP JUMPDEST PUSH2 0x1D35 PUSH2 0x24C7 JUMP JUMPDEST PUSH20 0xFFFFFFFFFFFFFFFFFFFFFFFFFFFFFFFFFFFFFFFF AND PUSH2 0x1D53 PUSH2 0x1336 JUMP JUMPDEST PUSH20 0xFFFFFFFFFFFFFFFFFFFFFFFFFFFFFFFFFFFFFFFF AND EQ PUSH2 0x1DA9 JUMPI PUSH1 0x40 MLOAD PUSH32 0x8C379A000000000000000000000000000000000000000000000000000000000 DUP2 MSTORE PUSH1 0x4 ADD PUSH2 0x1DA0 SWAP1 PUSH2 0x4036 JUMP JUMPDEST PUSH1 0x40 MLOAD DUP1 SWAP2 SUB SWAP1 REVERT JUMPDEST JUMP JUMPDEST PUSH1 0x0 PUSH1 0x8 PUSH1 0x0 SWAP1 SLOAD SWAP1 PUSH2 0x100 EXP SWAP1 DIV PUSH20 0xFFFFFFFFFFFFFFFFFFFFFFFFFFFFFFFFFFFFFFFF AND SWAP1 POP DUP2 PUSH1 0x8 PUSH1 0x0 PUSH2 0x100 EXP DUP2 SLOAD DUP2 PUSH20 0xFFFFFFFFFFFFFFFFFFFFFFFFFFFFFFFFFFFFFFFF MUL NOT AND SWAP1 DUP4 PUSH20 0xFFFFFFFFFFFFFFFFFFFFFFFFFFFFFFFFFFFFFFFF AND MUL OR SWAP1 SSTORE POP DUP2 PUSH20 0xFFFFFFFFFFFFFFFFFFFFFFFFFFFFFFFFFFFFFFFF AND DUP2 PUSH20 0xFFFFFFFFFFFFFFFFFFFFFFFFFFFFFFFFFFFFFFFF AND PUSH32 0x8BE0079C531659141344CD1FD0A4F28419497F9722A3DAAFE3B4186F6B6457E0 PUSH1 0x40 MLOAD PUSH1 0x40 MLOAD DUP1 SWAP2 SUB SWAP1 LOG3 POP POP JUMP JUMPDEST PUSH1 0x0 PUSH2 0x1E7B PUSH2 0x1FBD JUMP JUMPDEST SWAP1 POP PUSH2 0x3E8 DUP2 LT PUSH2 0x1F4A JUMPI PUSH1 0x0 PUSH2 0x1E93 PUSH1 0xB SLOAD PUSH2 0x24CF JUMP JUMPDEST GT PUSH2 0x1ED3 JUMPI PUSH1 0x40 MLOAD PUSH32 0x8C379A000000000000000000000000000000000000000000000000000000000 DUP2 MSTORE PUSH1 0x4 ADD PUSH2 0x1ECA SWAP1 PUSH2 0x40A2 JUMP JUMPDEST PUSH1 0x40 MLOAD DUP1 SWAP2 SUB SWAP1 REVERT JUMPDEST PUSH2 0x1388 DUP2 LT DUP1 ISZERO PUSH2 0x1EF1 JUMPI POP PUSH2 0x1388 DUP3 DUP3 PUSH2 0x1EEE SWAP2 SWAP1 PUSH2 0x3C86 JUMP JUMPDEST LT ISZERO JUMPDEST ISZERO PUSH2 0x1F45 JUMPI PUSH3 0x15180 TIMESTAMP PUSH2 0x1F05 SWAP2 SWAP1 PUSH2 0x3C86 JUMP JUMPDEST PUSH1 0xB DUP2 SWAP1 SSTORE POP PUSH32 0xF5B316BF09D21E0058EB23BE118A6B81BD52674B4CB843E0F446B986CE22433E PUSH1 0xB SLOAD PUSH1 0x40 MLOAD PUSH2 0x1F3C SWAP2 SWAP1 PUSH2 0x35B9 JUMP JUMPDEST PUSH1 0x40 MLOAD DUP1 SWAP2 SUB SWAP1 LOG1 JUMPDEST PUSH2 0x1FAE JUMP JUMPDEST PUSH2 0x3E8 DUP3 DUP3 PUSH2 0x1F59 SWAP2 SWAP1 PUSH2 0x3C86 JUMP JUMPDEST LT PUSH2 0x1FAD JUMPI PUSH3 0x15180 TIMESTAMP PUSH2 0x1F6D SWAP2 SWAP1 PUSH2 0x3C86 JUMP JUMPDEST PUSH1 0xB DUP2 SWAP1 SSTORE POP PUSH32 0xF5B316BF09D21E0058EB23BE118A6B81BD52674B4CB843E0F446B986CE22433E PUSH1 0xB SLOAD PUSH1 0x40 MLOAD PUSH2 0x1FA4 SWAP2 SWAP1 PUSH2 0x35B9 JUMP JUMPDEST PUSH1 0x40 MLOAD DUP1 SWAP2 SUB SWAP1 LOG1 JUMPDEST JUMPDEST PUSH2 0x1FB8 DUP4 DUP4 PUSH2 0x24F5 JUMP JUMPDEST POP POP POP JUMP JUMPDEST PUSH1 0x0 PUSH2 0x1FC7 PUSH2 0x1B19 JUMP JUMPDEST PUSH1 0x0 SLOAD SUB SWAP1 POP SWAP1 JUMP JUMPDEST PUSH1 0x0 PUSH1 0x3C PUSH2 0x1FDD DUP4 PUSH2 0x24CF JUMP JUMPDEST LT PUSH2 0x2001 JUMPI PUSH1 0x3C TIMESTAMP DUP4 PUSH2 0x1FF0 SWAP2 SWAP1 PUSH2 0x3DDA JUMP JUMPDEST PUSH2 0x1FFA SWAP2 SWAP1 PUSH2 0x40C2 JUMP JUMPDEST SWAP1 POP PUSH2 0x2006 JUMP JUMPDEST PUSH1 0x0 SWAP1 POP JUMPDEST SWAP2 SWAP1 POP JUMP JUMPDEST PUSH1 0x0 DUP4 PUSH20 0xFFFFFFFFFFFFFFFFFFFFFFFFFFFFFFFFFFFFFFFF AND PUSH4 0x150B7A02 PUSH2 0x2031 PUSH2 0x19D0 JUMP JUMPDEST DUP8 DUP7 DUP7 PUSH1 0x40 MLOAD DUP6 PUSH4 0xFFFFFFFF AND PUSH1 0xE0 SHL DUP2 MSTORE PUSH1 0x4 ADD PUSH2 0x2053 SWAP5 SWAP4 SWAP3 SWAP2 SWAP1 PUSH2 0x4148 JUMP JUMPDEST PUSH1 0x20 PUSH1 0x40 MLOAD DUP1 DUP4 SUB DUP2 PUSH1 0x0 DUP8 GAS CALL SWAP3 POP POP POP DUP1 ISZERO PUSH2 0x208F JUMPI POP PUSH1 0x40 MLOAD RETURNDATASIZE PUSH1 0x1F NOT PUSH1 0x1F DUP3 ADD AND DUP3 ADD DUP1 PUSH1 0x40 MSTORE POP DUP2 ADD SWAP1 PUSH2 0x208C SWAP2 SWAP1 PUSH2 0x41A9 JUMP JUMPDEST PUSH1 0x1 JUMPDEST PUSH2 0x2108 JUMPI RETURNDATASIZE DUP1 PUSH1 0x0 DUP2 EQ PUSH2 0x20BF JUMPI PUSH1 0x40 MLOAD SWAP2 POP PUSH1 0x1F NOT PUSH1 0x3F RETURNDATASIZE ADD AND DUP3 ADD PUSH1 0x40 MSTORE RETURNDATASIZE DUP3 MSTORE RETURNDATASIZE PUSH1 0x0 PUSH1 0x20 DUP5 ADD RETURNDATACOPY PUSH2 0x20C4 JUMP JUMPDEST PUSH1 0x60 SWAP2 POP JUMPDEST POP PUSH1 0x0 DUP2 MLOAD SUB PUSH2 0x2100 JUMPI PUSH1 0x40 MLOAD PUSH32 0xD1A57ED600000000000000000000000000000000000000000000000000000000 DUP2 MSTORE PUSH1 0x4 ADD PUSH1 0x40 MLOAD DUP1 SWAP2 SUB SWAP1 REVERT JUMPDEST DUP1 MLOAD DUP2 PUSH1 0x20 ADD REVERT JUMPDEST PUSH4 0x150B7A02 PUSH1 0xE0 SHL PUSH28 0xFFFFFFFFFFFFFFFFFFFFFFFFFFFFFFFFFFFFFFFFFFFFFFFFFFFFFFFF NOT AND DUP2 PUSH28 0xFFFFFFFFFFFFFFFFFFFFFFFFFFFFFFFFFFFFFFFFFFFFFFFFFFFFFFFF NOT AND EQ SWAP2 POP POP SWAP5 SWAP4 POP POP POP POP JUMP JUMPDEST PUSH1 0x60 PUSH1 0x0 PUSH2 0x2169 DUP7 DUP6 PUSH2 0x26B0 JUMP JUMPDEST SWAP1 POP PUSH1 0x0 PUSH2 0x2176 DUP8 PUSH2 0x2797 JUMP JUMPDEST PUSH2 0x217F DUP8 PUSH2 0x2797 JUMP JUMPDEST PUSH2 0x2190 PUSH2 0x218B DUP11 PUSH2 0x291F JUMP JUMPDEST PUSH2 0x2797 JUMP JUMPDEST DUP7 PUSH2 0x219A DUP10 PUSH2 0x2950 JUMP JUMPDEST PUSH2 0x21BB DUP8 PUSH1 0x0 PUSH1 0x3 DUP2 LT PUSH2 0x21B1 JUMPI PUSH2 0x21B0 PUSH2 0x3BBC JUMP JUMPDEST JUMPDEST PUSH1 0x20 MUL ADD MLOAD PUSH2 0x2797 JUMP JUMPDEST PUSH2 0x21DC DUP9 PUSH1 0x1 PUSH1 0x3 DUP2 LT PUSH2 0x21D2 JUMPI PUSH2 0x21D1 PUSH2 0x3BBC JUMP JUMPDEST JUMPDEST PUSH1 0x20 MUL ADD MLOAD PUSH2 0x2797 JUMP JUMPDEST PUSH2 0x21FD DUP10 PUSH1 0x2 PUSH1 0x3 DUP2 LT PUSH2 0x21F3 JUMPI PUSH2 0x21F2 PUSH2 0x3BBC JUMP JUMPDEST JUMPDEST PUSH1 0x20 MUL ADD MLOAD PUSH2 0x2797 JUMP JUMPDEST PUSH2 0x220F PUSH2 0x220A DUP16 DUP13 PUSH2 0x2A6B JUMP JUMPDEST PUSH2 0x2D8D JUMP JUMPDEST PUSH1 0x40 MLOAD PUSH1 0x20 ADD PUSH2 0x2227 SWAP10 SWAP9 SWAP8 SWAP7 SWAP6 SWAP5 SWAP4 SWAP3 SWAP2 SWAP1 PUSH2 0x4614 JUMP JUMPDEST PUSH1 0x40 MLOAD PUSH1 0x20 DUP2 DUP4 SUB SUB DUP2 MSTORE SWAP1 PUSH1 0x40 MSTORE SWAP1 POP PUSH2 0x2241 DUP2 PUSH2 0x2D8D JUMP JUMPDEST PUSH1 0x40 MLOAD PUSH1 0x20 ADD PUSH2 0x2251 SWAP2 SWAP1 PUSH2 0x474D JUMP JUMPDEST PUSH1 0x40 MLOAD PUSH1 0x20 DUP2 DUP4 SUB SUB DUP2 MSTORE SWAP1 PUSH1 0x40 MSTORE SWAP3 POP POP POP SWAP5 SWAP4 POP POP POP POP JUMP JUMPDEST PUSH1 0x0 SWAP4 SWAP3 POP POP POP JUMP JUMPDEST PUSH1 0x0 PUSH2 0x2280 DUP4 PUSH2 0x1B22 JUMP JUMPDEST SWAP1 POP PUSH1 0x0 DUP2 SWAP1 POP PUSH1 0x0 DUP1 PUSH2 0x2293 DUP7 PUSH2 0x1BEE JUMP JUMPDEST SWAP2 POP SWAP2 POP DUP5 ISZERO PUSH2 0x22FC JUMPI PUSH2 0x22AF DUP2 DUP5 PUSH2 0x22AA PUSH2 0x19D0 JUMP JUMPDEST PUSH2 0x1C15 JUMP JUMPDEST PUSH2 0x22FB JUMPI PUSH2 0x22C4 DUP4 PUSH2 0x22BF PUSH2 0x19D0 JUMP JUMPDEST PUSH2 0x185A JUMP JUMPDEST PUSH2 0x22FA JUMPI PUSH1 0x40 MLOAD PUSH32 0x59C896BE00000000000000000000000000000000000000000000000000000000 DUP2 MSTORE PUSH1 0x4 ADD PUSH1 0x40 MLOAD DUP1 SWAP2 SUB SWAP1 REVERT JUMPDEST JUMPDEST JUMPDEST PUSH2 0x230A DUP4 PUSH1 0x0 DUP9 PUSH1 0x1 PUSH2 0x1C59 JUMP JUMPDEST DUP1 ISZERO PUSH2 0x2315 JUMPI PUSH1 0x0 DUP3 SSTORE JUMPDEST PUSH1 0x1 PUSH1 0x80 PUSH1 0x1 SWAP1 SHL SUB PUSH1 0x5 PUSH1 0x0 DUP6 PUSH20 0xFFFFFFFFFFFFFFFFFFFFFFFFFFFFFFFFFFFFFFFF AND PUSH20 0xFFFFFFFFFFFFFFFFFFFFFFFFFFFFFFFFFFFFFFFF AND DUP2 MSTORE PUSH1 0x20 ADD SWAP1 DUP2 MSTORE PUSH1 0x20 ADD PUSH1 0x0 KECCAK256 PUSH1 0x0 DUP3 DUP3 SLOAD ADD SWAP3 POP POP DUP2 SWAP1 SSTORE POP PUSH2 0x23BD DUP4 PUSH2 0x237A DUP6 PUSH1 0x0 DUP9 PUSH2 0x1C5F JUMP JUMPDEST PUSH29 0x200000000000000000000000000000000000000000000000000000000 PUSH29 0x100000000000000000000000000000000000000000000000000000000 OR OR PUSH2 0x1C87 JUMP JUMPDEST PUSH1 0x4 PUSH1 0x0 DUP9 DUP2 MSTORE PUSH1 0x20 ADD SWAP1 DUP2 MSTORE PUSH1 0x20 ADD PUSH1 0x0 KECCAK256 DUP2 SWAP1 SSTORE POP PUSH1 0x0 PUSH29 0x200000000000000000000000000000000000000000000000000000000 DUP6 AND SUB PUSH2 0x2443 JUMPI PUSH1 0x0 PUSH1 0x1 DUP8 ADD SWAP1 POP PUSH1 0x0 PUSH1 0x4 PUSH1 0x0 DUP4 DUP2 MSTORE PUSH1 0x20 ADD SWAP1 DUP2 MSTORE PUSH1 0x20 ADD PUSH1 0x0 KECCAK256 SLOAD SUB PUSH2 0x2441 JUMPI PUSH1 0x0 SLOAD DUP2 EQ PUSH2 0x2440 JUMPI DUP5 PUSH1 0x4 PUSH1 0x0 DUP4 DUP2 MSTORE PUSH1 0x20 ADD SWAP1 DUP2 MSTORE PUSH1 0x20 ADD PUSH1 0x0 KECCAK256 DUP2 SWAP1 SSTORE POP JUMPDEST JUMPDEST POP JUMPDEST DUP6 PUSH1 0x0 PUSH20 0xFFFFFFFFFFFFFFFFFFFFFFFFFFFFFFFFFFFFFFFF AND DUP5 PUSH20 0xFFFFFFFFFFFFFFFFFFFFFFFFFFFFFFFFFFFFFFFF AND PUSH32 0xDDF252AD1BE2C89B69C2B068FC378DAA952BA7F163C4A11628F55A4DF523B3EF PUSH1 0x40 MLOAD PUSH1 0x40 MLOAD DUP1 SWAP2 SUB SWAP1 LOG4 PUSH2 0x24AD DUP4 PUSH1 0x0 DUP9 PUSH1 0x1 PUSH2 0x1CB2 JUMP JUMPDEST PUSH1 0x1 PUSH1 0x0 DUP2 SLOAD DUP1 SWAP3 SWAP2 SWAP1 PUSH1 0x1 ADD SWAP2 SWAP1 POP SSTORE POP POP POP POP POP POP POP JUMP JUMPDEST PUSH1 0x0 CALLER SWAP1 POP SWAP1 JUMP JUMPDEST PUSH1 0x0 DUP2 TIMESTAMP GT PUSH2 0x24EB JUMPI TIMESTAMP DUP3 PUSH2 0x24E4 SWAP2 SWAP1 PUSH2 0x3DDA JUMP JUMPDEST SWAP1 POP PUSH2 0x24F0 JUMP JUMPDEST PUSH1 0x0 SWAP1 POP JUMPDEST SWAP2 SWAP1 POP JUMP JUMPDEST PUSH1 0x0 DUP1 SLOAD SWAP1 POP PUSH1 0x0 DUP3 SUB PUSH2 0x2535 JUMPI PUSH1 0x40 MLOAD PUSH32 0xB562E8DD00000000000000000000000000000000000000000000000000000000 DUP2 MSTORE PUSH1 0x4 ADD PUSH1 0x40 MLOAD DUP1 SWAP2 SUB SWAP1 REVERT JUMPDEST PUSH2 0x2542 PUSH1 0x0 DUP5 DUP4 DUP6 PUSH2 0x1C59 JUMP JUMPDEST PUSH1 0x1 PUSH1 0x40 PUSH1 0x1 SWAP1 SHL OR DUP3 MUL PUSH1 0x5 PUSH1 0x0 DUP6 PUSH20 0xFFFFFFFFFFFFFFFFFFFFFFFFFFFFFFFFFFFFFFFF AND PUSH20 0xFFFFFFFFFFFFFFFFFFFFFFFFFFFFFFFFFFFFFFFF AND DUP2 MSTORE PUSH1 0x20 ADD SWAP1 DUP2 MSTORE PUSH1 0x20 ADD PUSH1 0x0 KECCAK256 PUSH1 0x0 DUP3 DUP3 SLOAD ADD SWAP3 POP POP DUP2 SWAP1 SSTORE POP PUSH2 0x25B9 DUP4 PUSH2 0x25AA PUSH1 0x0 DUP7 PUSH1 0x0 PUSH2 0x1C5F JUMP JUMPDEST PUSH2 0x25B3 DUP6 PUSH2 0x2EF0 JUMP JUMPDEST OR PUSH2 0x1C87 JUMP JUMPDEST PUSH1 0x4 PUSH1 0x0 DUP4 DUP2 MSTORE PUSH1 0x20 ADD SWAP1 DUP2 MSTORE PUSH1 0x20 ADD PUSH1 0x0 KECCAK256 DUP2 SWAP1 SSTORE POP PUSH1 0x0 DUP1 DUP4 DUP4 ADD SWAP1 POP PUSH20 0xFFFFFFFFFFFFFFFFFFFFFFFFFFFFFFFFFFFFFFFF DUP6 AND SWAP2 POP DUP3 DUP3 PUSH1 0x0 PUSH32 0xDDF252AD1BE2C89B69C2B068FC378DAA952BA7F163C4A11628F55A4DF523B3EF PUSH1 0x0 DUP1 LOG4 PUSH1 0x1 DUP4 ADD JUMPDEST DUP2 DUP2 EQ PUSH2 0x265A JUMPI DUP1 DUP4 PUSH1 0x0 PUSH32 0xDDF252AD1BE2C89B69C2B068FC378DAA952BA7F163C4A11628F55A4DF523B3EF PUSH1 0x0 DUP1 LOG4 PUSH1 0x1 DUP2 ADD SWAP1 POP PUSH2 0x261F JUMP JUMPDEST POP PUSH1 0x0 DUP3 SUB PUSH2 0x2695 JUMPI PUSH1 0x40 MLOAD PUSH32 0x2E07630000000000000000000000000000000000000000000000000000000000 DUP2 MSTORE PUSH1 0x4 ADD PUSH1 0x40 MLOAD DUP1 SWAP2 SUB SWAP1 REVERT JUMPDEST DUP1 PUSH1 0x0 DUP2 SWAP1 SSTORE POP POP POP PUSH2 0x26AB PUSH1 0x0 DUP5 DUP4 DUP6 PUSH2 0x1CB2 JUMP JUMPDEST POP POP POP JUMP JUMPDEST PUSH2 0x26B8 PUSH2 0x32B4 JUMP JUMPDEST PUSH1 0x0 DUP3 GT ISZERO PUSH2 0x2752 JUMPI PUSH1 0x0 JUMPDEST PUSH1 0x3 DUP2 LT ISZERO PUSH2 0x274C JUMPI PUSH1 0x1 DUP2 PUSH2 0x26DA SWAP2 SWAP1 PUSH2 0x3C86 JUMP JUMPDEST DUP4 SUB PUSH2 0x2703 JUMPI PUSH1 0xFF DUP3 DUP3 PUSH1 0x3 DUP2 LT PUSH2 0x26F5 JUMPI PUSH2 0x26F4 PUSH2 0x3BBC JUMP JUMPDEST JUMPDEST PUSH1 0x20 MUL ADD DUP2 DUP2 MSTORE POP POP PUSH2 0x2739 JUMP JUMPDEST PUSH2 0x271C DUP2 DUP6 PUSH2 0x2712 SWAP2 SWAP1 PUSH2 0x3C86 JUMP JUMPDEST PUSH1 0x0 PUSH2 0x100 PUSH2 0x1CC6 JUMP JUMPDEST DUP3 DUP3 PUSH1 0x3 DUP2 LT PUSH2 0x272F JUMPI PUSH2 0x272E PUSH2 0x3BBC JUMP JUMPDEST JUMPDEST PUSH1 0x20 MUL ADD DUP2 DUP2 MSTORE POP POP JUMPDEST DUP1 DUP1 PUSH2 0x2744 SWAP1 PUSH2 0x3CBA JUMP JUMPDEST SWAP2 POP POP PUSH2 0x26C4 JUMP JUMPDEST POP PUSH2 0x2791 JUMP JUMPDEST PUSH1 0x0 JUMPDEST PUSH1 0x3 DUP2 LT ISZERO PUSH2 0x278F JUMPI PUSH1 0xFF DUP3 DUP3 PUSH1 0x3 DUP2 LT PUSH2 0x2773 JUMPI PUSH2 0x2772 PUSH2 0x3BBC JUMP JUMPDEST JUMPDEST PUSH1 0x20 MUL ADD DUP2 DUP2 MSTORE POP POP DUP1 DUP1 PUSH2 0x2787 SWAP1 PUSH2 0x3CBA JUMP JUMPDEST SWAP2 POP POP PUSH2 0x2755 JUMP JUMPDEST POP JUMPDEST SWAP3 SWAP2 POP POP JUMP JUMPDEST PUSH1 0x60 PUSH1 0x0 DUP3 SUB PUSH2 0x27DE JUMPI PUSH1 0x40 MLOAD DUP1 PUSH1 0x40 ADD PUSH1 0x40 MSTORE DUP1 PUSH1 0x1 DUP2 MSTORE PUSH1 0x20 ADD PUSH32 0x3000000000000000000000000000000000000000000000000000000000000000 DUP2 MSTORE POP SWAP1 POP PUSH2 0x291A JUMP JUMPDEST PUSH1 0x0 DUP3 SWAP1 POP PUSH1 0x0 JUMPDEST PUSH1 0x0 DUP3 EQ PUSH2 0x2810 JUMPI DUP1 DUP1 PUSH2 0x27F9 SWAP1 PUSH2 0x3CBA JUMP JUMPDEST SWAP2 POP POP PUSH1 0xA DUP3 PUSH2 0x2809 SWAP2 SWAP1 PUSH2 0x40C2 JUMP JUMPDEST SWAP2 POP PUSH2 0x27E6 JUMP JUMPDEST PUSH1 0x0 DUP2 PUSH8 0xFFFFFFFFFFFFFFFF DUP2 GT ISZERO PUSH2 0x282C JUMPI PUSH2 0x282B PUSH2 0x362C JUMP JUMPDEST JUMPDEST PUSH1 0x40 MLOAD SWAP1 DUP1 DUP3 MSTORE DUP1 PUSH1 0x1F ADD PUSH1 0x1F NOT AND PUSH1 0x20 ADD DUP3 ADD PUSH1 0x40 MSTORE DUP1 ISZERO PUSH2 0x285E JUMPI DUP2 PUSH1 0x20 ADD PUSH1 0x1 DUP3 MUL DUP1 CALLDATASIZE DUP4 CALLDATACOPY DUP1 DUP3 ADD SWAP2 POP POP SWAP1 POP JUMPDEST POP SWAP1 POP PUSH1 0x0 DUP3 SWAP1 POP JUMPDEST PUSH1 0x0 DUP7 EQ PUSH2 0x2912 JUMPI PUSH1 0x1 DUP2 PUSH2 0x287C SWAP2 SWAP1 PUSH2 0x3DDA JUMP JUMPDEST SWAP1 POP PUSH1 0x0 PUSH1 0xA DUP1 DUP9 PUSH2 0x288E SWAP2 SWAP1 PUSH2 0x40C2 JUMP JUMPDEST PUSH2 0x2898 SWAP2 SWAP1 PUSH2 0x3E0E JUMP JUMPDEST DUP8 PUSH2 0x28A3 SWAP2 SWAP1 PUSH2 0x3DDA JUMP JUMPDEST PUSH1 0x30 PUSH2 0x28AF SWAP2 SWAP1 PUSH2 0x477C JUMP JUMPDEST SWAP1 POP PUSH1 0x0 DUP2 PUSH1 0xF8 SHL SWAP1 POP DUP1 DUP5 DUP5 DUP2 MLOAD DUP2 LT PUSH2 0x28CD JUMPI PUSH2 0x28CC PUSH2 0x3BBC JUMP JUMPDEST JUMPDEST PUSH1 0x20 ADD ADD SWAP1 PUSH31 0xFFFFFFFFFFFFFFFFFFFFFFFFFFFFFFFFFFFFFFFFFFFFFFFFFFFFFFFFFFFFFF NOT AND SWAP1 DUP2 PUSH1 0x0 BYTE SWAP1 MSTORE8 POP PUSH1 0xA DUP9 PUSH2 0x2909 SWAP2 SWAP1 PUSH2 0x40C2 JUMP JUMPDEST SWAP8 POP POP POP PUSH2 0x2867 JUMP JUMPDEST DUP2 SWAP5 POP POP POP POP POP JUMPDEST SWAP2 SWAP1 POP JUMP JUMPDEST PUSH1 0x0 PUSH2 0x3E8 DUP3 GT PUSH2 0x2933 JUMPI PUSH1 0x1 SWAP1 POP PUSH2 0x294B JUMP JUMPDEST PUSH2 0x1388 DUP3 GT PUSH2 0x2945 JUMPI PUSH1 0x2 SWAP1 POP PUSH2 0x294A JUMP JUMPDEST PUSH1 0x3 SWAP1 POP JUMPDEST JUMPDEST SWAP2 SWAP1 POP JUMP JUMPDEST PUSH1 0x60 PUSH1 0x0 PUSH1 0x40 MLOAD DUP1 PUSH1 0x80 ADD PUSH1 0x40 MSTORE DUP1 PUSH1 0x40 MLOAD DUP1 PUSH1 0x40 ADD PUSH1 0x40 MSTORE DUP1 PUSH1 0x5 DUP2 MSTORE PUSH1 0x20 ADD PUSH32 0x5768697465000000000000000000000000000000000000000000000000000000 DUP2 MSTORE POP DUP2 MSTORE PUSH1 0x20 ADD PUSH1 0x40 MLOAD DUP1 PUSH1 0x40 ADD PUSH1 0x40 MSTORE DUP1 PUSH1 0x3 DUP2 MSTORE PUSH1 0x20 ADD PUSH32 0x5265640000000000000000000000000000000000000000000000000000000000 DUP2 MSTORE POP DUP2 MSTORE PUSH1 0x20 ADD PUSH1 0x40 MLOAD DUP1 PUSH1 0x40 ADD PUSH1 0x40 MSTORE DUP1 PUSH1 0x5 DUP2 MSTORE PUSH1 0x20 ADD PUSH32 0x477265656E000000000000000000000000000000000000000000000000000000 DUP2 MSTORE POP DUP2 MSTORE PUSH1 0x20 ADD PUSH1 0x40 MLOAD DUP1 PUSH1 0x40 ADD PUSH1 0x40 MSTORE DUP1 PUSH1 0x4 DUP2 MSTORE PUSH1 0x20 ADD PUSH32 0x426C756500000000000000000000000000000000000000000000000000000000 DUP2 MSTORE POP DUP2 MSTORE POP SWAP1 POP DUP1 DUP4 PUSH1 0x4 DUP2 LT PUSH2 0x2A5E JUMPI PUSH2 0x2A5D PUSH2 0x3BBC JUMP JUMPDEST JUMPDEST PUSH1 0x20 MUL ADD MLOAD SWAP2 POP POP SWAP2 SWAP1 POP JUMP JUMPDEST PUSH1 0x60 PUSH1 0x40 MLOAD DUP1 PUSH2 0xC40 ADD PUSH1 0x40 MSTORE DUP1 PUSH2 0xC19 DUP2 MSTORE PUSH1 0x20 ADD PUSH2 0x5395 PUSH2 0xC19 SWAP2 CODECOPY SWAP1 POP PUSH1 0x0 PUSH2 0x2AAE DUP4 PUSH1 0x0 PUSH1 0x3 DUP2 LT PUSH2 0x2AA4 JUMPI PUSH2 0x2AA3 PUSH2 0x3BBC JUMP JUMPDEST JUMPDEST PUSH1 0x20 MUL ADD MLOAD PUSH2 0x2797 JUMP JUMPDEST PUSH2 0x2ACF DUP5 PUSH1 0x1 PUSH1 0x3 DUP2 LT PUSH2 0x2AC5 JUMPI PUSH2 0x2AC4 PUSH2 0x3BBC JUMP JUMPDEST JUMPDEST PUSH1 0x20 MUL ADD MLOAD PUSH2 0x2797 JUMP JUMPDEST PUSH2 0x2AF0 DUP6 PUSH1 0x2 PUSH1 0x3 DUP2 LT PUSH2 0x2AE6 JUMPI PUSH2 0x2AE5 PUSH2 0x3BBC JUMP JUMPDEST JUMPDEST PUSH1 0x20 MUL ADD MLOAD PUSH2 0x2797 JUMP JUMPDEST PUSH1 0x40 MLOAD PUSH1 0x20 ADD PUSH2 0x2B02 SWAP4 SWAP3 SWAP2 SWAP1 PUSH2 0x4895 JUMP JUMPDEST PUSH1 0x40 MLOAD PUSH1 0x20 DUP2 DUP4 SUB SUB DUP2 MSTORE SWAP1 PUSH1 0x40 MSTORE SWAP1 POP PUSH1 0x0 DUP5 SUB ISZERO PUSH2 0x2D62 JUMPI PUSH1 0x0 PUSH2 0x2B27 DUP6 PUSH2 0x2797 JUMP JUMPDEST MLOAD SWAP1 POP PUSH1 0x0 PUSH2 0x2B36 DUP7 DUP4 PUSH2 0x2F00 JUMP JUMPDEST SWAP1 POP PUSH1 0x1 DUP3 SUB PUSH2 0x2B77 JUMPI DUP3 PUSH2 0x2B50 PUSH1 0x3 DUP4 PUSH1 0x60 ADD MLOAD PUSH2 0x3037 JUMP JUMPDEST PUSH1 0x40 MLOAD PUSH1 0x20 ADD PUSH2 0x2B61 SWAP3 SWAP2 SWAP1 PUSH2 0x48F2 JUMP JUMPDEST PUSH1 0x40 MLOAD PUSH1 0x20 DUP2 DUP4 SUB SUB DUP2 MSTORE SWAP1 PUSH1 0x40 MSTORE SWAP3 POP PUSH2 0x2D5F JUMP JUMPDEST PUSH1 0x2 DUP3 SUB PUSH2 0x2BE8 JUMPI DUP3 PUSH2 0x2B8F PUSH1 0x2 DUP4 PUSH1 0x40 ADD MLOAD PUSH2 0x3037 JUMP JUMPDEST PUSH1 0x40 MLOAD PUSH1 0x20 ADD PUSH2 0x2BA0 SWAP3 SWAP2 SWAP1 PUSH2 0x48F2 JUMP JUMPDEST PUSH1 0x40 MLOAD PUSH1 0x20 DUP2 DUP4 SUB SUB DUP2 MSTORE SWAP1 PUSH1 0x40 MSTORE SWAP3 POP DUP3 PUSH2 0x2BC1 PUSH1 0x3 DUP4 PUSH1 0x60 ADD MLOAD PUSH2 0x3037 JUMP JUMPDEST PUSH1 0x40 MLOAD PUSH1 0x20 ADD PUSH2 0x2BD2 SWAP3 SWAP2 SWAP1 PUSH2 0x48F2 JUMP JUMPDEST PUSH1 0x40 MLOAD PUSH1 0x20 DUP2 DUP4 SUB SUB DUP2 MSTORE SWAP1 PUSH1 0x40 MSTORE SWAP3 POP PUSH2 0x2D5E JUMP JUMPDEST PUSH1 0x3 DUP3 SUB PUSH2 0x2C8B JUMPI DUP3 PUSH2 0x2C00 PUSH1 0x1 DUP4 PUSH1 0x20 ADD MLOAD PUSH2 0x3037 JUMP JUMPDEST PUSH1 0x40 MLOAD PUSH1 0x20 ADD PUSH2 0x2C11 SWAP3 SWAP2 SWAP1 PUSH2 0x48F2 JUMP JUMPDEST PUSH1 0x40 MLOAD PUSH1 0x20 DUP2 DUP4 SUB SUB DUP2 MSTORE SWAP1 PUSH1 0x40 MSTORE SWAP3 POP DUP3 PUSH2 0x2C32 PUSH1 0x2 DUP4 PUSH1 0x40 ADD MLOAD PUSH2 0x3037 JUMP JUMPDEST PUSH1 0x40 MLOAD PUSH1 0x20 ADD PUSH2 0x2C43 SWAP3 SWAP2 SWAP1 PUSH2 0x48F2 JUMP JUMPDEST PUSH1 0x40 MLOAD PUSH1 0x20 DUP2 DUP4 SUB SUB DUP2 MSTORE SWAP1 PUSH1 0x40 MSTORE SWAP3 POP DUP3 PUSH2 0x2C64 PUSH1 0x3 DUP4 PUSH1 0x60 ADD MLOAD PUSH2 0x3037 JUMP JUMPDEST PUSH1 0x40 MLOAD PUSH1 0x20 ADD PUSH2 0x2C75 SWAP3 SWAP2 SWAP1 PUSH2 0x48F2 JUMP JUMPDEST PUSH1 0x40 MLOAD PUSH1 0x20 DUP2 DUP4 SUB SUB DUP2 MSTORE SWAP1 PUSH1 0x40 MSTORE SWAP3 POP PUSH2 0x2D5D JUMP JUMPDEST PUSH1 0x4 DUP3 SUB PUSH2 0x2D5C JUMPI DUP3 PUSH2 0x2CA3 PUSH1 0x0 DUP4 PUSH1 0x0 ADD MLOAD PUSH2 0x3037 JUMP JUMPDEST PUSH1 0x40 MLOAD PUSH1 0x20 ADD PUSH2 0x2CB4 SWAP3 SWAP2 SWAP1 PUSH2 0x48F2 JUMP JUMPDEST PUSH1 0x40 MLOAD PUSH1 0x20 DUP2 DUP4 SUB SUB DUP2 MSTORE SWAP1 PUSH1 0x40 MSTORE SWAP3 POP DUP3 PUSH2 0x2CD5 PUSH1 0x1 DUP4 PUSH1 0x20 ADD MLOAD PUSH2 0x3037 JUMP JUMPDEST PUSH1 0x40 MLOAD PUSH1 0x20 ADD PUSH2 0x2CE6 SWAP3 SWAP2 SWAP1 PUSH2 0x48F2 JUMP JUMPDEST PUSH1 0x40 MLOAD PUSH1 0x20 DUP2 DUP4 SUB SUB DUP2 MSTORE SWAP1 PUSH1 0x40 MSTORE SWAP3 POP DUP3 PUSH2 0x2D07 PUSH1 0x2 DUP4 PUSH1 0x40 ADD MLOAD PUSH2 0x3037 JUMP JUMPDEST PUSH1 0x40 MLOAD PUSH1 0x20 ADD PUSH2 0x2D18 SWAP3 SWAP2 SWAP1 PUSH2 0x48F2 JUMP JUMPDEST PUSH1 0x40 MLOAD PUSH1 0x20 DUP2 DUP4 SUB SUB DUP2 MSTORE SWAP1 PUSH1 0x40 MSTORE SWAP3 POP DUP3 PUSH2 0x2D39 PUSH1 0x3 DUP4 PUSH1 0x60 ADD MLOAD PUSH2 0x3037 JUMP JUMPDEST PUSH1 0x40 MLOAD PUSH1 0x20 ADD PUSH2 0x2D4A SWAP3 SWAP2 SWAP1 PUSH2 0x48F2 JUMP JUMPDEST PUSH1 0x40 MLOAD PUSH1 0x20 DUP2 DUP4 SUB SUB DUP2 MSTORE SWAP1 PUSH1 0x40 MSTORE SWAP3 POP JUMPDEST JUMPDEST JUMPDEST JUMPDEST POP POP JUMPDEST DUP2 DUP2 PUSH1 0x40 MLOAD PUSH1 0x20 ADD PUSH2 0x2D75 SWAP3 SWAP2 SWAP1 PUSH2 0x4962 JUMP JUMPDEST PUSH1 0x40 MLOAD PUSH1 0x20 DUP2 DUP4 SUB SUB DUP2 MSTORE SWAP1 PUSH1 0x40 MSTORE SWAP2 POP POP SWAP3 SWAP2 POP POP JUMP JUMPDEST PUSH1 0x60 PUSH1 0x0 DUP3 MLOAD SUB PUSH2 0x2DAF JUMPI PUSH1 0x40 MLOAD DUP1 PUSH1 0x20 ADD PUSH1 0x40 MSTORE DUP1 PUSH1 0x0 DUP2 MSTORE POP SWAP1 POP PUSH2 0x2EEB JUMP JUMPDEST PUSH1 0x0 PUSH1 0x40 MLOAD DUP1 PUSH1 0x60 ADD PUSH1 0x40 MSTORE DUP1 PUSH1 0x40 DUP2 MSTORE PUSH1 0x20 ADD PUSH2 0x5355 PUSH1 0x40 SWAP2 CODECOPY SWAP1 POP PUSH1 0x0 PUSH1 0x3 PUSH1 0x2 DUP6 MLOAD PUSH2 0x2DDE SWAP2 SWAP1 PUSH2 0x3C86 JUMP JUMPDEST PUSH2 0x2DE8 SWAP2 SWAP1 PUSH2 0x40C2 JUMP JUMPDEST PUSH1 0x4 PUSH2 0x2DF4 SWAP2 SWAP1 PUSH2 0x3E0E JUMP JUMPDEST PUSH8 0xFFFFFFFFFFFFFFFF DUP2 GT ISZERO PUSH2 0x2E0D JUMPI PUSH2 0x2E0C PUSH2 0x362C JUMP JUMPDEST JUMPDEST PUSH1 0x40 MLOAD SWAP1 DUP1 DUP3 MSTORE DUP1 PUSH1 0x1F ADD PUSH1 0x1F NOT AND PUSH1 0x20 ADD DUP3 ADD PUSH1 0x40 MSTORE DUP1 ISZERO PUSH2 0x2E3F JUMPI DUP2 PUSH1 0x20 ADD PUSH1 0x1 DUP3 MUL DUP1 CALLDATASIZE DUP4 CALLDATACOPY DUP1 DUP3 ADD SWAP2 POP POP SWAP1 POP JUMPDEST POP SWAP1 POP PUSH1 0x1 DUP3 ADD PUSH1 0x20 DUP3 ADD DUP6 DUP7 MLOAD DUP8 ADD JUMPDEST DUP1 DUP3 LT ISZERO PUSH2 0x2EAB JUMPI PUSH1 0x3 DUP3 ADD SWAP2 POP DUP2 MLOAD PUSH1 0x3F DUP2 PUSH1 0x12 SHR AND DUP6 ADD MLOAD DUP5 MSTORE8 PUSH1 0x1 DUP5 ADD SWAP4 POP PUSH1 0x3F DUP2 PUSH1 0xC SHR AND DUP6 ADD MLOAD DUP5 MSTORE8 PUSH1 0x1 DUP5 ADD SWAP4 POP PUSH1 0x3F DUP2 PUSH1 0x6 SHR AND DUP6 ADD MLOAD DUP5 MSTORE8 PUSH1 0x1 DUP5 ADD SWAP4 POP PUSH1 0x3F DUP2 AND DUP6 ADD MLOAD DUP5 MSTORE8 PUSH1 0x1 DUP5 ADD SWAP4 POP POP PUSH2 0x2E50 JUMP JUMPDEST POP POP PUSH1 0x3 DUP7 MLOAD MOD PUSH1 0x1 DUP2 EQ PUSH2 0x2EC7 JUMPI PUSH1 0x2 DUP2 EQ PUSH2 0x2EDA JUMPI PUSH2 0x2EE2 JUMP JUMPDEST PUSH1 0x3D PUSH1 0x1 DUP4 SUB MSTORE8 PUSH1 0x3D PUSH1 0x2 DUP4 SUB MSTORE8 PUSH2 0x2EE2 JUMP JUMPDEST PUSH1 0x3D PUSH1 0x1 DUP4 SUB MSTORE8 JUMPDEST POP POP POP DUP1 SWAP3 POP POP POP JUMPDEST SWAP2 SWAP1 POP JUMP JUMPDEST PUSH1 0x0 PUSH1 0x1 DUP3 EQ PUSH1 0xE1 SHL SWAP1 POP SWAP2 SWAP1 POP JUMP JUMPDEST PUSH2 0x2F08 PUSH2 0x32D6 JUMP JUMPDEST PUSH1 0x1 DUP3 SUB PUSH2 0x2F1F JUMPI DUP3 DUP2 PUSH1 0x60 ADD DUP2 DUP2 MSTORE POP POP PUSH2 0x3031 JUMP JUMPDEST PUSH1 0x2 DUP3 SUB PUSH2 0x2F58 JUMPI PUSH1 0xA DUP4 PUSH2 0x2F34 SWAP2 SWAP1 PUSH2 0x40C2 JUMP JUMPDEST DUP2 PUSH1 0x40 ADD DUP2 DUP2 MSTORE POP POP PUSH1 0xA DUP4 PUSH2 0x2F4A SWAP2 SWAP1 PUSH2 0x3FB9 JUMP JUMPDEST DUP2 PUSH1 0x60 ADD DUP2 DUP2 MSTORE POP POP PUSH2 0x3030 JUMP JUMPDEST PUSH1 0x3 DUP3 SUB PUSH2 0x2FB3 JUMPI PUSH1 0x64 DUP4 PUSH2 0x2F6D SWAP2 SWAP1 PUSH2 0x40C2 JUMP JUMPDEST DUP2 PUSH1 0x20 ADD DUP2 DUP2 MSTORE POP POP PUSH1 0xA PUSH1 0x64 DUP5 PUSH2 0x2F85 SWAP2 SWAP1 PUSH2 0x3FB9 JUMP JUMPDEST PUSH2 0x2F8F SWAP2 SWAP1 PUSH2 0x40C2 JUMP JUMPDEST DUP2 PUSH1 0x40 ADD DUP2 DUP2 MSTORE POP POP PUSH1 0xA DUP4 PUSH2 0x2FA5 SWAP2 SWAP1 PUSH2 0x3FB9 JUMP JUMPDEST DUP2 PUSH1 0x60 ADD DUP2 DUP2 MSTORE POP POP PUSH2 0x302F JUMP JUMPDEST PUSH1 0x4 DUP3 SUB PUSH2 0x302E JUMPI PUSH2 0x3E8 DUP4 PUSH2 0x2FC9 SWAP2 SWAP1 PUSH2 0x40C2 JUMP JUMPDEST DUP2 PUSH1 0x0 ADD DUP2 DUP2 MSTORE POP POP PUSH1 0x64 PUSH2 0x3E8 DUP5 PUSH2 0x2FE2 SWAP2 SWAP1 PUSH2 0x3FB9 JUMP JUMPDEST PUSH2 0x2FEC SWAP2 SWAP1 PUSH2 0x40C2 JUMP JUMPDEST DUP2 PUSH1 0x20 ADD DUP2 DUP2 MSTORE POP POP PUSH1 0xA PUSH1 0x64 DUP5 PUSH2 0x3004 SWAP2 SWAP1 PUSH2 0x3FB9 JUMP JUMPDEST PUSH2 0x300E SWAP2 SWAP1 PUSH2 0x40C2 JUMP JUMPDEST DUP2 PUSH1 0x40 ADD DUP2 DUP2 MSTORE POP POP PUSH1 0xA DUP4 PUSH2 0x3024 SWAP2 SWAP1 PUSH2 0x3FB9 JUMP JUMPDEST DUP2 PUSH1 0x60 ADD DUP2 DUP2 MSTORE POP POP JUMPDEST JUMPDEST JUMPDEST JUMPDEST SWAP3 SWAP2 POP POP JUMP JUMPDEST PUSH1 0x60 PUSH1 0x0 PUSH2 0x3044 DUP5 PUSH2 0x2797 JUMP JUMPDEST SWAP1 POP PUSH1 0x0 DUP4 SUB PUSH2 0x3080 JUMPI DUP1 DUP2 DUP3 DUP4 DUP5 DUP6 PUSH1 0x40 MLOAD PUSH1 0x20 ADD PUSH2 0x3069 SWAP7 SWAP6 SWAP5 SWAP4 SWAP3 SWAP2 SWAP1 PUSH2 0x4BA5 JUMP JUMPDEST PUSH1 0x40 MLOAD PUSH1 0x20 DUP2 DUP4 SUB SUB DUP2 MSTORE SWAP1 PUSH1 0x40 MSTORE SWAP2 POP POP PUSH2 0x32AE JUMP JUMPDEST PUSH1 0x1 DUP4 SUB PUSH2 0x30B2 JUMPI DUP1 DUP2 PUSH1 0x40 MLOAD PUSH1 0x20 ADD PUSH2 0x309B SWAP3 SWAP2 SWAP1 PUSH2 0x4CCD JUMP JUMPDEST PUSH1 0x40 MLOAD PUSH1 0x20 DUP2 DUP4 SUB SUB DUP2 MSTORE SWAP1 PUSH1 0x40 MSTORE SWAP2 POP POP PUSH2 0x32AE JUMP JUMPDEST PUSH1 0x2 DUP4 SUB PUSH2 0x30EA JUMPI DUP1 DUP2 DUP3 DUP4 DUP5 PUSH1 0x40 MLOAD PUSH1 0x20 ADD PUSH2 0x30D3 SWAP6 SWAP5 SWAP4 SWAP3 SWAP2 SWAP1 PUSH2 0x4D69 JUMP JUMPDEST PUSH1 0x40 MLOAD PUSH1 0x20 DUP2 DUP4 SUB SUB DUP2 MSTORE SWAP1 PUSH1 0x40 MSTORE SWAP2 POP POP PUSH2 0x32AE JUMP JUMPDEST PUSH1 0x3 DUP4 SUB PUSH2 0x3122 JUMPI DUP1 DUP2 DUP3 DUP4 DUP5 PUSH1 0x40 MLOAD PUSH1 0x20 ADD PUSH2 0x310B SWAP6 SWAP5 SWAP4 SWAP3 SWAP2 SWAP1 PUSH2 0x4E22 JUMP JUMPDEST PUSH1 0x40 MLOAD PUSH1 0x20 DUP2 DUP4 SUB SUB DUP2 MSTORE SWAP1 PUSH1 0x40 MSTORE SWAP2 POP POP PUSH2 0x32AE JUMP JUMPDEST PUSH1 0x4 DUP4 SUB PUSH2 0x3158 JUMPI DUP1 DUP2 DUP3 DUP4 PUSH1 0x40 MLOAD PUSH1 0x20 ADD PUSH2 0x3141 SWAP5 SWAP4 SWAP3 SWAP2 SWAP1 PUSH2 0x4EDB JUMP JUMPDEST PUSH1 0x40 MLOAD PUSH1 0x20 DUP2 DUP4 SUB SUB DUP2 MSTORE SWAP1 PUSH1 0x40 MSTORE SWAP2 POP POP PUSH2 0x32AE JUMP JUMPDEST PUSH1 0x5 DUP4 SUB PUSH2 0x3190 JUMPI DUP1 DUP2 DUP3 DUP4 DUP5 PUSH1 0x40 MLOAD PUSH1 0x20 ADD PUSH2 0x3179 SWAP6 SWAP5 SWAP4 SWAP3 SWAP2 SWAP1 PUSH2 0x4F71 JUMP JUMPDEST PUSH1 0x40 MLOAD PUSH1 0x20 DUP2 DUP4 SUB SUB DUP2 MSTORE SWAP1 PUSH1 0x40 MSTORE SWAP2 POP POP PUSH2 0x32AE JUMP JUMPDEST PUSH1 0x6 DUP4 SUB PUSH2 0x31CA JUMPI DUP1 DUP2 DUP3 DUP4 DUP5 DUP6 PUSH1 0x40 MLOAD PUSH1 0x20 ADD PUSH2 0x31B3 SWAP7 SWAP6 SWAP5 SWAP4 SWAP3 SWAP2 SWAP1 PUSH2 0x502A JUMP JUMPDEST PUSH1 0x40 MLOAD PUSH1 0x20 DUP2 DUP4 SUB SUB DUP2 MSTORE SWAP1 PUSH1 0x40 MSTORE SWAP2 POP POP PUSH2 0x32AE JUMP JUMPDEST PUSH1 0x7 DUP4 SUB PUSH2 0x31FE JUMPI DUP1 DUP2 DUP3 PUSH1 0x40 MLOAD PUSH1 0x20 ADD PUSH2 0x31E7 SWAP4 SWAP3 SWAP2 SWAP1 PUSH2 0x5106 JUMP JUMPDEST PUSH1 0x40 MLOAD PUSH1 0x20 DUP2 DUP4 SUB SUB DUP2 MSTORE SWAP1 PUSH1 0x40 MSTORE SWAP2 POP POP PUSH2 0x32AE JUMP JUMPDEST PUSH1 0x8 DUP4 SUB PUSH2 0x323A JUMPI DUP1 DUP2 DUP3 DUP4 DUP5 DUP6 DUP7 PUSH1 0x40 MLOAD PUSH1 0x20 ADD PUSH2 0x3223 SWAP8 SWAP7 SWAP6 SWAP5 SWAP4 SWAP3 SWAP2 SWAP1 PUSH2 0x5179 JUMP JUMPDEST PUSH1 0x40 MLOAD PUSH1 0x20 DUP2 DUP4 SUB SUB DUP2 MSTORE SWAP1 PUSH1 0x40 MSTORE SWAP2 POP POP PUSH2 0x32AE JUMP JUMPDEST PUSH1 0x9 DUP4 SUB PUSH2 0x3274 JUMPI DUP1 DUP2 DUP3 DUP4 DUP5 DUP6 PUSH1 0x40 MLOAD PUSH1 0x20 ADD PUSH2 0x325D SWAP7 SWAP6 SWAP5 SWAP4 SWAP3 SWAP2 SWAP1 PUSH2 0x5278 JUMP JUMPDEST PUSH1 0x40 MLOAD PUSH1 0x20 DUP2 DUP4 SUB SUB DUP2 MSTORE SWAP1 PUSH1 0x40 MSTORE SWAP2 POP POP PUSH2 0x32AE JUMP JUMPDEST PUSH1 0x40 MLOAD DUP1 PUSH1 0x40 ADD PUSH1 0x40 MSTORE DUP1 PUSH1 0x5 DUP2 MSTORE PUSH1 0x20 ADD PUSH32 0x6572726F72000000000000000000000000000000000000000000000000000000 DUP2 MSTORE POP SWAP2 POP POP JUMPDEST SWAP3 SWAP2 POP POP JUMP JUMPDEST PUSH1 0x40 MLOAD DUP1 PUSH1 0x60 ADD PUSH1 0x40 MSTORE DUP1 PUSH1 0x3 SWAP1 PUSH1 0x20 DUP3 MUL DUP1 CALLDATASIZE DUP4 CALLDATACOPY DUP1 DUP3 ADD SWAP2 POP POP SWAP1 POP POP SWAP1 JUMP JUMPDEST PUSH1 0x40 MLOAD DUP1 PUSH1 0x80 ADD PUSH1 0x40 MSTORE DUP1 PUSH1 0x0 DUP2 MSTORE PUSH1 0x20 ADD PUSH1 0x0 DUP2 MSTORE PUSH1 0x20 ADD PUSH1 0x0 DUP2 MSTORE PUSH1 0x20 ADD PUSH1 0x0 DUP2 MSTORE POP SWAP1 JUMP JUMPDEST PUSH1 0x0 PUSH1 0x40 MLOAD SWAP1 POP SWAP1 JUMP JUMPDEST PUSH1 0x0 DUP1 REVERT JUMPDEST PUSH1 0x0 DUP1 REVERT JUMPDEST PUSH1 0x0 PUSH32 0xFFFFFFFF00000000000000000000000000000000000000000000000000000000 DUP3 AND SWAP1 POP SWAP2 SWAP1 POP JUMP JUMPDEST PUSH2 0x3347 DUP2 PUSH2 0x3312 JUMP JUMPDEST DUP2 EQ PUSH2 0x3352 JUMPI PUSH1 0x0 DUP1 REVERT JUMPDEST POP JUMP JUMPDEST PUSH1 0x0 DUP2 CALLDATALOAD SWAP1 POP PUSH2 0x3364 DUP2 PUSH2 0x333E JUMP JUMPDEST SWAP3 SWAP2 POP POP JUMP JUMPDEST PUSH1 0x0 PUSH1 0x20 DUP3 DUP5 SUB SLT ISZERO PUSH2 0x3380 JUMPI PUSH2 0x337F PUSH2 0x3308 JUMP JUMPDEST JUMPDEST PUSH1 0x0 PUSH2 0x338E DUP5 DUP3 DUP6 ADD PUSH2 0x3355 JUMP JUMPDEST SWAP2 POP POP SWAP3 SWAP2 POP POP JUMP JUMPDEST PUSH1 0x0 DUP2 ISZERO ISZERO SWAP1 POP SWAP2 SWAP1 POP JUMP JUMPDEST PUSH2 0x33AC DUP2 PUSH2 0x3397 JUMP JUMPDEST DUP3 MSTORE POP POP JUMP JUMPDEST PUSH1 0x0 PUSH1 0x20 DUP3 ADD SWAP1 POP PUSH2 0x33C7 PUSH1 0x0 DUP4 ADD DUP5 PUSH2 0x33A3 JUMP JUMPDEST SWAP3 SWAP2 POP POP JUMP JUMPDEST PUSH1 0x0 DUP2 MLOAD SWAP1 POP SWAP2 SWAP1 POP JUMP JUMPDEST PUSH1 0x0 DUP3 DUP3 MSTORE PUSH1 0x20 DUP3 ADD SWAP1 POP SWAP3 SWAP2 POP POP JUMP JUMPDEST PUSH1 0x0 JUMPDEST DUP4 DUP2 LT ISZERO PUSH2 0x3407 JUMPI DUP1 DUP3 ADD MLOAD DUP2 DUP5 ADD MSTORE PUSH1 0x20 DUP2 ADD SWAP1 POP PUSH2 0x33EC JUMP JUMPDEST PUSH1 0x0 DUP5 DUP5 ADD MSTORE POP POP POP POP JUMP JUMPDEST PUSH1 0x0 PUSH1 0x1F NOT PUSH1 0x1F DUP4 ADD AND SWAP1 POP SWAP2 SWAP1 POP JUMP JUMPDEST PUSH1 0x0 PUSH2 0x342F DUP3 PUSH2 0x33CD JUMP JUMPDEST PUSH2 0x3439 DUP2 DUP6 PUSH2 0x33D8 JUMP JUMPDEST SWAP4 POP PUSH2 0x3449 DUP2 DUP6 PUSH1 0x20 DUP7 ADD PUSH2 0x33E9 JUMP JUMPDEST PUSH2 0x3452 DUP2 PUSH2 0x3413 JUMP JUMPDEST DUP5 ADD SWAP2 POP POP SWAP3 SWAP2 POP POP JUMP JUMPDEST PUSH1 0x0 PUSH1 0x20 DUP3 ADD SWAP1 POP DUP2 DUP2 SUB PUSH1 0x0 DUP4 ADD MSTORE PUSH2 0x3477 DUP2 DUP5 PUSH2 0x3424 JUMP JUMPDEST SWAP1 POP SWAP3 SWAP2 POP POP JUMP JUMPDEST PUSH1 0x0 DUP2 SWAP1 POP SWAP2 SWAP1 POP JUMP JUMPDEST PUSH2 0x3492 DUP2 PUSH2 0x347F JUMP JUMPDEST DUP2 EQ PUSH2 0x349D JUMPI PUSH1 0x0 DUP1 REVERT JUMPDEST POP JUMP JUMPDEST PUSH1 0x0 DUP2 CALLDATALOAD SWAP1 POP PUSH2 0x34AF DUP2 PUSH2 0x3489 JUMP JUMPDEST SWAP3 SWAP2 POP POP JUMP JUMPDEST PUSH1 0x0 PUSH1 0x20 DUP3 DUP5 SUB SLT ISZERO PUSH2 0x34CB JUMPI PUSH2 0x34CA PUSH2 0x3308 JUMP JUMPDEST JUMPDEST PUSH1 0x0 PUSH2 0x34D9 DUP5 DUP3 DUP6 ADD PUSH2 0x34A0 JUMP JUMPDEST SWAP2 POP POP SWAP3 SWAP2 POP POP JUMP JUMPDEST PUSH1 0x0 PUSH20 0xFFFFFFFFFFFFFFFFFFFFFFFFFFFFFFFFFFFFFFFF DUP3 AND SWAP1 POP SWAP2 SWAP1 POP JUMP JUMPDEST PUSH1 0x0 PUSH2 0x350D DUP3 PUSH2 0x34E2 JUMP JUMPDEST SWAP1 POP SWAP2 SWAP1 POP JUMP JUMPDEST PUSH2 0x351D DUP2 PUSH2 0x3502 JUMP JUMPDEST DUP3 MSTORE POP POP JUMP JUMPDEST PUSH1 0x0 PUSH1 0x20 DUP3 ADD SWAP1 POP PUSH2 0x3538 PUSH1 0x0 DUP4 ADD DUP5 PUSH2 0x3514 JUMP JUMPDEST SWAP3 SWAP2 POP POP JUMP JUMPDEST PUSH2 0x3547 DUP2 PUSH2 0x3502 JUMP JUMPDEST DUP2 EQ PUSH2 0x3552 JUMPI PUSH1 0x0 DUP1 REVERT JUMPDEST POP JUMP JUMPDEST PUSH1 0x0 DUP2 CALLDATALOAD SWAP1 POP PUSH2 0x3564 DUP2 PUSH2 0x353E JUMP JUMPDEST SWAP3 SWAP2 POP POP JUMP JUMPDEST PUSH1 0x0 DUP1 PUSH1 0x40 DUP4 DUP6 SUB SLT ISZERO PUSH2 0x3581 JUMPI PUSH2 0x3580 PUSH2 0x3308 JUMP JUMPDEST JUMPDEST PUSH1 0x0 PUSH2 0x358F DUP6 DUP3 DUP7 ADD PUSH2 0x3555 JUMP JUMPDEST SWAP3 POP POP PUSH1 0x20 PUSH2 0x35A0 DUP6 DUP3 DUP7 ADD PUSH2 0x34A0 JUMP JUMPDEST SWAP2 POP POP SWAP3 POP SWAP3 SWAP1 POP JUMP JUMPDEST PUSH2 0x35B3 DUP2 PUSH2 0x347F JUMP JUMPDEST DUP3 MSTORE POP POP JUMP JUMPDEST PUSH1 0x0 PUSH1 0x20 DUP3 ADD SWAP1 POP PUSH2 0x35CE PUSH1 0x0 DUP4 ADD DUP5 PUSH2 0x35AA JUMP JUMPDEST SWAP3 SWAP2 POP POP JUMP JUMPDEST PUSH1 0x0 DUP1 PUSH1 0x0 PUSH1 0x60 DUP5 DUP7 SUB SLT ISZERO PUSH2 0x35ED JUMPI PUSH2 0x35EC PUSH2 0x3308 JUMP JUMPDEST JUMPDEST PUSH1 0x0 PUSH2 0x35FB DUP7 DUP3 DUP8 ADD PUSH2 0x3555 JUMP JUMPDEST SWAP4 POP POP PUSH1 0x20 PUSH2 0x360C DUP7 DUP3 DUP8 ADD PUSH2 0x3555 JUMP JUMPDEST SWAP3 POP POP PUSH1 0x40 PUSH2 0x361D DUP7 DUP3 DUP8 ADD PUSH2 0x34A0 JUMP JUMPDEST SWAP2 POP POP SWAP3 POP SWAP3 POP SWAP3 JUMP JUMPDEST PUSH1 0x0 DUP1 REVERT JUMPDEST PUSH32 0x4E487B7100000000000000000000000000000000000000000000000000000000 PUSH1 0x0 MSTORE PUSH1 0x41 PUSH1 0x4 MSTORE PUSH1 0x24 PUSH1 0x0 REVERT JUMPDEST PUSH2 0x3664 DUP3 PUSH2 0x3413 JUMP JUMPDEST DUP2 ADD DUP2 DUP2 LT PUSH8 0xFFFFFFFFFFFFFFFF DUP3 GT OR ISZERO PUSH2 0x3683 JUMPI PUSH2 0x3682 PUSH2 0x362C JUMP JUMPDEST JUMPDEST DUP1 PUSH1 0x40 MSTORE POP POP POP JUMP JUMPDEST PUSH1 0x0 PUSH2 0x3696 PUSH2 0x32FE JUMP JUMPDEST SWAP1 POP PUSH2 0x36A2 DUP3 DUP3 PUSH2 0x365B JUMP JUMPDEST SWAP2 SWAP1 POP JUMP JUMPDEST PUSH1 0x0 PUSH8 0xFFFFFFFFFFFFFFFF DUP3 GT ISZERO PUSH2 0x36C2 JUMPI PUSH2 0x36C1 PUSH2 0x362C JUMP JUMPDEST JUMPDEST PUSH1 0x20 DUP3 MUL SWAP1 POP PUSH1 0x20 DUP2 ADD SWAP1 POP SWAP2 SWAP1 POP JUMP JUMPDEST PUSH1 0x0 DUP1 REVERT JUMPDEST PUSH1 0x0 PUSH2 0x36EB PUSH2 0x36E6 DUP5 PUSH2 0x36A7 JUMP JUMPDEST PUSH2 0x368C JUMP JUMPDEST SWAP1 POP DUP1 DUP4 DUP3 MSTORE PUSH1 0x20 DUP3 ADD SWAP1 POP PUSH1 0x20 DUP5 MUL DUP4 ADD DUP6 DUP2 GT ISZERO PUSH2 0x370E JUMPI PUSH2 0x370D PUSH2 0x36D3 JUMP JUMPDEST JUMPDEST DUP4 JUMPDEST DUP2 DUP2 LT ISZERO PUSH2 0x3737 JUMPI DUP1 PUSH2 0x3723 DUP9 DUP3 PUSH2 0x34A0 JUMP JUMPDEST DUP5 MSTORE PUSH1 0x20 DUP5 ADD SWAP4 POP POP PUSH1 0x20 DUP2 ADD SWAP1 POP PUSH2 0x3710 JUMP JUMPDEST POP POP POP SWAP4 SWAP3 POP POP POP JUMP JUMPDEST PUSH1 0x0 DUP3 PUSH1 0x1F DUP4 ADD SLT PUSH2 0x3756 JUMPI PUSH2 0x3755 PUSH2 0x3627 JUMP JUMPDEST JUMPDEST DUP2 CALLDATALOAD PUSH2 0x3766 DUP5 DUP3 PUSH1 0x20 DUP7 ADD PUSH2 0x36D8 JUMP JUMPDEST SWAP2 POP POP SWAP3 SWAP2 POP POP JUMP JUMPDEST PUSH1 0x0 PUSH1 0x20 DUP3 DUP5 SUB SLT ISZERO PUSH2 0x3785 JUMPI PUSH2 0x3784 PUSH2 0x3308 JUMP JUMPDEST JUMPDEST PUSH1 0x0 DUP3 ADD CALLDATALOAD PUSH8 0xFFFFFFFFFFFFFFFF DUP2 GT ISZERO PUSH2 0x37A3 JUMPI PUSH2 0x37A2 PUSH2 0x330D JUMP JUMPDEST JUMPDEST PUSH2 0x37AF DUP5 DUP3 DUP6 ADD PUSH2 0x3741 JUMP JUMPDEST SWAP2 POP POP SWAP3 SWAP2 POP POP JUMP JUMPDEST PUSH1 0x0 PUSH1 0x20 DUP3 DUP5 SUB SLT ISZERO PUSH2 0x37CE JUMPI PUSH2 0x37CD PUSH2 0x3308 JUMP JUMPDEST JUMPDEST PUSH1 0x0 PUSH2 0x37DC DUP5 DUP3 DUP6 ADD PUSH2 0x3555 JUMP JUMPDEST SWAP2 POP POP SWAP3 SWAP2 POP POP JUMP JUMPDEST PUSH2 0x37EE DUP2 PUSH2 0x3397 JUMP JUMPDEST DUP2 EQ PUSH2 0x37F9 JUMPI PUSH1 0x0 DUP1 REVERT JUMPDEST POP JUMP JUMPDEST PUSH1 0x0 DUP2 CALLDATALOAD SWAP1 POP PUSH2 0x380B DUP2 PUSH2 0x37E5 JUMP JUMPDEST SWAP3 SWAP2 POP POP JUMP JUMPDEST PUSH1 0x0 DUP1 PUSH1 0x40 DUP4 DUP6 SUB SLT ISZERO PUSH2 0x3828 JUMPI PUSH2 0x3827 PUSH2 0x3308 JUMP JUMPDEST JUMPDEST PUSH1 0x0 PUSH2 0x3836 DUP6 DUP3 DUP7 ADD PUSH2 0x3555 JUMP JUMPDEST SWAP3 POP POP PUSH1 0x20 PUSH2 0x3847 DUP6 DUP3 DUP7 ADD PUSH2 0x37FC JUMP JUMPDEST SWAP2 POP POP SWAP3 POP SWAP3 SWAP1 POP JUMP JUMPDEST PUSH1 0x0 DUP1 REVERT JUMPDEST PUSH1 0x0 PUSH8 0xFFFFFFFFFFFFFFFF DUP3 GT ISZERO PUSH2 0x3871 JUMPI PUSH2 0x3870 PUSH2 0x362C JUMP JUMPDEST JUMPDEST PUSH2 0x387A DUP3 PUSH2 0x3413 JUMP JUMPDEST SWAP1 POP PUSH1 0x20 DUP2 ADD SWAP1 POP SWAP2 SWAP1 POP JUMP JUMPDEST DUP3 DUP2 DUP4 CALLDATACOPY PUSH1 0x0 DUP4 DUP4 ADD MSTORE POP POP POP JUMP JUMPDEST PUSH1 0x0 PUSH2 0x38A9 PUSH2 0x38A4 DUP5 PUSH2 0x3856 JUMP JUMPDEST PUSH2 0x368C JUMP JUMPDEST SWAP1 POP DUP3 DUP2 MSTORE PUSH1 0x20 DUP2 ADD DUP5 DUP5 DUP5 ADD GT ISZERO PUSH2 0x38C5 JUMPI PUSH2 0x38C4 PUSH2 0x3851 JUMP JUMPDEST JUMPDEST PUSH2 0x38D0 DUP5 DUP3 DUP6 PUSH2 0x3887 JUMP JUMPDEST POP SWAP4 SWAP3 POP POP POP JUMP JUMPDEST PUSH1 0x0 DUP3 PUSH1 0x1F DUP4 ADD SLT PUSH2 0x38ED JUMPI PUSH2 0x38EC PUSH2 0x3627 JUMP JUMPDEST JUMPDEST DUP2 CALLDATALOAD PUSH2 0x38FD DUP5 DUP3 PUSH1 0x20 DUP7 ADD PUSH2 0x3896 JUMP JUMPDEST SWAP2 POP POP SWAP3 SWAP2 POP POP JUMP JUMPDEST PUSH1 0x0 DUP1 PUSH1 0x0 DUP1 PUSH1 0x80 DUP6 DUP8 SUB SLT ISZERO PUSH2 0x3920 JUMPI PUSH2 0x391F PUSH2 0x3308 JUMP JUMPDEST JUMPDEST PUSH1 0x0 PUSH2 0x392E DUP8 DUP3 DUP9 ADD PUSH2 0x3555 JUMP JUMPDEST SWAP5 POP POP PUSH1 0x20 PUSH2 0x393F DUP8 DUP3 DUP9 ADD PUSH2 0x3555 JUMP JUMPDEST SWAP4 POP POP PUSH1 0x40 PUSH2 0x3950 DUP8 DUP3 DUP9 ADD PUSH2 0x34A0 JUMP JUMPDEST SWAP3 POP POP PUSH1 0x60 DUP6 ADD CALLDATALOAD PUSH8 0xFFFFFFFFFFFFFFFF DUP2 GT ISZERO PUSH2 0x3971 JUMPI PUSH2 0x3970 PUSH2 0x330D JUMP JUMPDEST JUMPDEST PUSH2 0x397D DUP8 DUP3 DUP9 ADD PUSH2 0x38D8 JUMP JUMPDEST SWAP2 POP POP SWAP3 SWAP6 SWAP2 SWAP5 POP SWAP3 POP JUMP JUMPDEST PUSH1 0x0 DUP1 REVERT JUMPDEST PUSH1 0x0 DUP1 DUP4 PUSH1 0x1F DUP5 ADD SLT PUSH2 0x39A4 JUMPI PUSH2 0x39A3 PUSH2 0x3627 JUMP JUMPDEST JUMPDEST DUP3 CALLDATALOAD SWAP1 POP PUSH8 0xFFFFFFFFFFFFFFFF DUP2 GT ISZERO PUSH2 0x39C1 JUMPI PUSH2 0x39C0 PUSH2 0x3989 JUMP JUMPDEST JUMPDEST PUSH1 0x20 DUP4 ADD SWAP2 POP DUP4 PUSH1 0x20 DUP3 MUL DUP4 ADD GT ISZERO PUSH2 0x39DD JUMPI PUSH2 0x39DC PUSH2 0x36D3 JUMP JUMPDEST JUMPDEST SWAP3 POP SWAP3 SWAP1 POP JUMP JUMPDEST PUSH1 0x0 DUP1 PUSH1 0x0 PUSH1 0x40 DUP5 DUP7 SUB SLT ISZERO PUSH2 0x39FD JUMPI PUSH2 0x39FC PUSH2 0x3308 JUMP JUMPDEST JUMPDEST PUSH1 0x0 DUP5 ADD CALLDATALOAD PUSH8 0xFFFFFFFFFFFFFFFF DUP2 GT ISZERO PUSH2 0x3A1B JUMPI PUSH2 0x3A1A PUSH2 0x330D JUMP JUMPDEST JUMPDEST PUSH2 0x3A27 DUP7 DUP3 DUP8 ADD PUSH2 0x398E JUMP JUMPDEST SWAP4 POP SWAP4 POP POP PUSH1 0x20 PUSH2 0x3A3A DUP7 DUP3 DUP8 ADD PUSH2 0x34A0 JUMP JUMPDEST SWAP2 POP POP SWAP3 POP SWAP3 POP SWAP3 JUMP JUMPDEST PUSH1 0x0 DUP1 PUSH1 0x40 DUP4 DUP6 SUB SLT ISZERO PUSH2 0x3A5B JUMPI PUSH2 0x3A5A PUSH2 0x3308 JUMP JUMPDEST JUMPDEST PUSH1 0x0 PUSH2 0x3A69 DUP6 DUP3 DUP7 ADD PUSH2 0x3555 JUMP JUMPDEST SWAP3 POP POP PUSH1 0x20 PUSH2 0x3A7A DUP6 DUP3 DUP7 ADD PUSH2 0x3555 JUMP JUMPDEST SWAP2 POP POP SWAP3 POP SWAP3 SWAP1 POP JUMP JUMPDEST PUSH32 0x4E487B7100000000000000000000000000000000000000000000000000000000 PUSH1 0x0 MSTORE PUSH1 0x22 PUSH1 0x4 MSTORE PUSH1 0x24 PUSH1 0x0 REVERT JUMPDEST PUSH1 0x0 PUSH1 0x2 DUP3 DIV SWAP1 POP PUSH1 0x1 DUP3 AND DUP1 PUSH2 0x3ACB JUMPI PUSH1 0x7F DUP3 AND SWAP2 POP JUMPDEST PUSH1 0x20 DUP3 LT DUP2 SUB PUSH2 0x3ADE JUMPI PUSH2 0x3ADD PUSH2 0x3A84 JUMP JUMPDEST JUMPDEST POP SWAP2 SWAP1 POP JUMP JUMPDEST PUSH32 0x696E76616C696420746F6B656E00000000000000000000000000000000000000 PUSH1 0x0 DUP3 ADD MSTORE POP JUMP JUMPDEST PUSH1 0x0 PUSH2 0x3B1A PUSH1 0xD DUP4 PUSH2 0x33D8 JUMP JUMPDEST SWAP2 POP PUSH2 0x3B25 DUP3 PUSH2 0x3AE4 JUMP JUMPDEST PUSH1 0x20 DUP3 ADD SWAP1 POP SWAP2 SWAP1 POP JUMP JUMPDEST PUSH1 0x0 PUSH1 0x20 DUP3 ADD SWAP1 POP DUP2 DUP2 SUB PUSH1 0x0 DUP4 ADD MSTORE PUSH2 0x3B49 DUP2 PUSH2 0x3B0D JUMP JUMPDEST SWAP1 POP SWAP2 SWAP1 POP JUMP JUMPDEST PUSH32 0x636F6D62696E696E67206E6F7420616374697665000000000000000000000000 PUSH1 0x0 DUP3 ADD MSTORE POP JUMP JUMPDEST PUSH1 0x0 PUSH2 0x3B86 PUSH1 0x14 DUP4 PUSH2 0x33D8 JUMP JUMPDEST SWAP2 POP PUSH2 0x3B91 DUP3 PUSH2 0x3B50 JUMP JUMPDEST PUSH1 0x20 DUP3 ADD SWAP1 POP SWAP2 SWAP1 POP JUMP JUMPDEST PUSH1 0x0 PUSH1 0x20 DUP3 ADD SWAP1 POP DUP2 DUP2 SUB PUSH1 0x0 DUP4 ADD MSTORE PUSH2 0x3BB5 DUP2 PUSH2 0x3B79 JUMP JUMPDEST SWAP1 POP SWAP2 SWAP1 POP JUMP JUMPDEST PUSH32 0x4E487B7100000000000000000000000000000000000000000000000000000000 PUSH1 0x0 MSTORE PUSH1 0x32 PUSH1 0x4 MSTORE PUSH1 0x24 PUSH1 0x0 REVERT JUMPDEST PUSH32 0x6D757374206F776E20616C6C20746F6B656E7300000000000000000000000000 PUSH1 0x0 DUP3 ADD MSTORE POP JUMP JUMPDEST PUSH1 0x0 PUSH2 0x3C21 PUSH1 0x13 DUP4 PUSH2 0x33D8 JUMP JUMPDEST SWAP2 POP PUSH2 0x3C2C DUP3 PUSH2 0x3BEB JUMP JUMPDEST PUSH1 0x20 DUP3 ADD SWAP1 POP SWAP2 SWAP1 POP JUMP JUMPDEST PUSH1 0x0 PUSH1 0x20 DUP3 ADD SWAP1 POP DUP2 DUP2 SUB PUSH1 0x0 DUP4 ADD MSTORE PUSH2 0x3C50 DUP2 PUSH2 0x3C14 JUMP JUMPDEST SWAP1 POP SWAP2 SWAP1 POP JUMP JUMPDEST PUSH32 0x4E487B7100000000000000000000000000000000000000000000000000000000 PUSH1 0x0 MSTORE PUSH1 0x11 PUSH1 0x4 MSTORE PUSH1 0x24 PUSH1 0x0 REVERT JUMPDEST PUSH1 0x0 PUSH2 0x3C91 DUP3 PUSH2 0x347F JUMP JUMPDEST SWAP2 POP PUSH2 0x3C9C DUP4 PUSH2 0x347F JUMP JUMPDEST SWAP3 POP DUP3 DUP3 ADD SWAP1 POP DUP1 DUP3 GT ISZERO PUSH2 0x3CB4 JUMPI PUSH2 0x3CB3 PUSH2 0x3C57 JUMP JUMPDEST JUMPDEST SWAP3 SWAP2 POP POP JUMP JUMPDEST PUSH1 0x0 PUSH2 0x3CC5 DUP3 PUSH2 0x347F JUMP JUMPDEST SWAP2 POP PUSH32 0xFFFFFFFFFFFFFFFFFFFFFFFFFFFFFFFFFFFFFFFFFFFFFFFFFFFFFFFFFFFFFFFF DUP3 SUB PUSH2 0x3CF7 JUMPI PUSH2 0x3CF6 PUSH2 0x3C57 JUMP JUMPDEST JUMPDEST PUSH1 0x1 DUP3 ADD SWAP1 POP SWAP2 SWAP1 POP JUMP JUMPDEST PUSH32 0x73756D206D7573742062652039393939206F72206C6573730000000000000000 PUSH1 0x0 DUP3 ADD MSTORE POP JUMP JUMPDEST PUSH1 0x0 PUSH2 0x3D38 PUSH1 0x18 DUP4 PUSH2 0x33D8 JUMP JUMPDEST SWAP2 POP PUSH2 0x3D43 DUP3 PUSH2 0x3D02 JUMP JUMPDEST PUSH1 0x20 DUP3 ADD SWAP1 POP SWAP2 SWAP1 POP JUMP JUMPDEST PUSH1 0x0 PUSH1 0x20 DUP3 ADD SWAP1 POP DUP2 DUP2 SUB PUSH1 0x0 DUP4 ADD MSTORE PUSH2 0x3D67 DUP2 PUSH2 0x3D2B JUMP JUMPDEST SWAP1 POP SWAP2 SWAP1 POP JUMP JUMPDEST PUSH32 0x6E6F7420656E6F7567682066726565206D696E74730000000000000000000000 PUSH1 0x0 DUP3 ADD MSTORE POP JUMP JUMPDEST PUSH1 0x0 PUSH2 0x3DA4 PUSH1 0x15 DUP4 PUSH2 0x33D8 JUMP JUMPDEST SWAP2 POP PUSH2 0x3DAF DUP3 PUSH2 0x3D6E JUMP JUMPDEST PUSH1 0x20 DUP3 ADD SWAP1 POP SWAP2 SWAP1 POP JUMP JUMPDEST PUSH1 0x0 PUSH1 0x20 DUP3 ADD SWAP1 POP DUP2 DUP2 SUB PUSH1 0x0 DUP4 ADD MSTORE PUSH2 0x3DD3 DUP2 PUSH2 0x3D97 JUMP JUMPDEST SWAP1 POP SWAP2 SWAP1 POP JUMP JUMPDEST PUSH1 0x0 PUSH2 0x3DE5 DUP3 PUSH2 0x347F JUMP JUMPDEST SWAP2 POP PUSH2 0x3DF0 DUP4 PUSH2 0x347F JUMP JUMPDEST SWAP3 POP DUP3 DUP3 SUB SWAP1 POP DUP2 DUP2 GT ISZERO PUSH2 0x3E08 JUMPI PUSH2 0x3E07 PUSH2 0x3C57 JUMP JUMPDEST JUMPDEST SWAP3 SWAP2 POP POP JUMP JUMPDEST PUSH1 0x0 PUSH2 0x3E19 DUP3 PUSH2 0x347F JUMP JUMPDEST SWAP2 POP PUSH2 0x3E24 DUP4 PUSH2 0x347F JUMP JUMPDEST SWAP3 POP DUP3 DUP3 MUL PUSH2 0x3E32 DUP2 PUSH2 0x347F JUMP JUMPDEST SWAP2 POP DUP3 DUP3 DIV DUP5 EQ DUP4 ISZERO OR PUSH2 0x3E49 JUMPI PUSH2 0x3E48 PUSH2 0x3C57 JUMP JUMPDEST JUMPDEST POP SWAP3 SWAP2 POP POP JUMP JUMPDEST PUSH32 0x6E6F7420656E6F75676820657468000000000000000000000000000000000000 PUSH1 0x0 DUP3 ADD MSTORE POP JUMP JUMPDEST PUSH1 0x0 PUSH2 0x3E86 PUSH1 0xE DUP4 PUSH2 0x33D8 JUMP JUMPDEST SWAP2 POP PUSH2 0x3E91 DUP3 PUSH2 0x3E50 JUMP JUMPDEST PUSH1 0x20 DUP3 ADD SWAP1 POP SWAP2 SWAP1 POP JUMP JUMPDEST PUSH1 0x0 PUSH1 0x20 DUP3 ADD SWAP1 POP DUP2 DUP2 SUB PUSH1 0x0 DUP4 ADD MSTORE PUSH2 0x3EB5 DUP2 PUSH2 0x3E79 JUMP JUMPDEST SWAP1 POP SWAP2 SWAP1 POP JUMP JUMPDEST PUSH32 0x4F776E61626C653A206E6577206F776E657220697320746865207A65726F2061 PUSH1 0x0 DUP3 ADD MSTORE PUSH32 0x6464726573730000000000000000000000000000000000000000000000000000 PUSH1 0x20 DUP3 ADD MSTORE POP JUMP JUMPDEST PUSH1 0x0 PUSH2 0x3F18 PUSH1 0x26 DUP4 PUSH2 0x33D8 JUMP JUMPDEST SWAP2 POP PUSH2 0x3F23 DUP3 PUSH2 0x3EBC JUMP JUMPDEST PUSH1 0x40 DUP3 ADD SWAP1 POP SWAP2 SWAP1 POP JUMP JUMPDEST PUSH1 0x0 PUSH1 0x20 DUP3 ADD SWAP1 POP DUP2 DUP2 SUB PUSH1 0x0 DUP4 ADD MSTORE PUSH2 0x3F47 DUP2 PUSH2 0x3F0B JUMP JUMPDEST SWAP1 POP SWAP2 SWAP1 POP JUMP JUMPDEST PUSH1 0x0 DUP2 SWAP1 POP SWAP2 SWAP1 POP JUMP JUMPDEST PUSH2 0x3F69 PUSH2 0x3F64 DUP3 PUSH2 0x347F JUMP JUMPDEST PUSH2 0x3F4E JUMP JUMPDEST DUP3 MSTORE POP POP JUMP JUMPDEST PUSH1 0x0 PUSH2 0x3F7B DUP3 DUP5 PUSH2 0x3F58 JUMP JUMPDEST PUSH1 0x20 DUP3 ADD SWAP2 POP DUP2 SWAP1 POP SWAP3 SWAP2 POP POP JUMP JUMPDEST PUSH32 0x4E487B7100000000000000000000000000000000000000000000000000000000 PUSH1 0x0 MSTORE PUSH1 0x12 PUSH1 0x4 MSTORE PUSH1 0x24 PUSH1 0x0 REVERT JUMPDEST PUSH1 0x0 PUSH2 0x3FC4 DUP3 PUSH2 0x347F JUMP JUMPDEST SWAP2 POP PUSH2 0x3FCF DUP4 PUSH2 0x347F JUMP JUMPDEST SWAP3 POP DUP3 PUSH2 0x3FDF JUMPI PUSH2 0x3FDE PUSH2 0x3F8A JUMP JUMPDEST JUMPDEST DUP3 DUP3 MOD SWAP1 POP SWAP3 SWAP2 POP POP JUMP JUMPDEST PUSH32 0x4F776E61626C653A2063616C6C6572206973206E6F7420746865206F776E6572 PUSH1 0x0 DUP3 ADD MSTORE POP JUMP JUMPDEST PUSH1 0x0 PUSH2 0x4020 PUSH1 0x20 DUP4 PUSH2 0x33D8 JUMP JUMPDEST SWAP2 POP PUSH2 0x402B DUP3 PUSH2 0x3FEA JUMP JUMPDEST PUSH1 0x20 DUP3 ADD SWAP1 POP SWAP2 SWAP1 POP JUMP JUMPDEST PUSH1 0x0 PUSH1 0x20 DUP3 ADD SWAP1 POP DUP2 DUP2 SUB PUSH1 0x0 DUP4 ADD MSTORE PUSH2 0x404F DUP2 PUSH2 0x4013 JUMP JUMPDEST SWAP1 POP SWAP2 SWAP1 POP JUMP JUMPDEST PUSH32 0x6D696E7420697320636C6F736564000000000000000000000000000000000000 PUSH1 0x0 DUP3 ADD MSTORE POP JUMP JUMPDEST PUSH1 0x0 PUSH2 0x408C PUSH1 0xE DUP4 PUSH2 0x33D8 JUMP JUMPDEST SWAP2 POP PUSH2 0x4097 DUP3 PUSH2 0x4056 JUMP JUMPDEST PUSH1 0x20 DUP3 ADD SWAP1 POP SWAP2 SWAP1 POP JUMP JUMPDEST PUSH1 0x0 PUSH1 0x20 DUP3 ADD SWAP1 POP DUP2 DUP2 SUB PUSH1 0x0 DUP4 ADD MSTORE PUSH2 0x40BB DUP2 PUSH2 0x407F JUMP JUMPDEST SWAP1 POP SWAP2 SWAP1 POP JUMP JUMPDEST PUSH1 0x0 PUSH2 0x40CD DUP3 PUSH2 0x347F JUMP JUMPDEST SWAP2 POP PUSH2 0x40D8 DUP4 PUSH2 0x347F JUMP JUMPDEST SWAP3 POP DUP3 PUSH2 0x40E8 JUMPI PUSH2 0x40E7 PUSH2 0x3F8A JUMP JUMPDEST JUMPDEST DUP3 DUP3 DIV SWAP1 POP SWAP3 SWAP2 POP POP JUMP JUMPDEST PUSH1 0x0 DUP2 MLOAD SWAP1 POP SWAP2 SWAP1 POP JUMP JUMPDEST PUSH1 0x0 DUP3 DUP3 MSTORE PUSH1 0x20 DUP3 ADD SWAP1 POP SWAP3 SWAP2 POP POP JUMP JUMPDEST PUSH1 0x0 PUSH2 0x411A DUP3 PUSH2 0x40F3 JUMP JUMPDEST PUSH2 0x4124 DUP2 DUP6 PUSH2 0x40FE JUMP JUMPDEST SWAP4 POP PUSH2 0x4134 DUP2 DUP6 PUSH1 0x20 DUP7 ADD PUSH2 0x33E9 JUMP JUMPDEST PUSH2 0x413D DUP2 PUSH2 0x3413 JUMP JUMPDEST DUP5 ADD SWAP2 POP POP SWAP3 SWAP2 POP POP JUMP JUMPDEST PUSH1 0x0 PUSH1 0x80 DUP3 ADD SWAP1 POP PUSH2 0x415D PUSH1 0x0 DUP4 ADD DUP8 PUSH2 0x3514 JUMP JUMPDEST PUSH2 0x416A PUSH1 0x20 DUP4 ADD DUP7 PUSH2 0x3514 JUMP JUMPDEST PUSH2 0x4177 PUSH1 0x40 DUP4 ADD DUP6 PUSH2 0x35AA JUMP JUMPDEST DUP2 DUP2 SUB PUSH1 0x60 DUP4 ADD MSTORE PUSH2 0x4189 DUP2 DUP5 PUSH2 0x410F JUMP JUMPDEST SWAP1 POP SWAP6 SWAP5 POP POP POP POP POP JUMP JUMPDEST PUSH1 0x0 DUP2 MLOAD SWAP1 POP PUSH2 0x41A3 DUP2 PUSH2 0x333E JUMP JUMPDEST SWAP3 SWAP2 POP POP JUMP JUMPDEST PUSH1 0x0 PUSH1 0x20 DUP3 DUP5 SUB SLT ISZERO PUSH2 0x41BF JUMPI PUSH2 0x41BE PUSH2 0x3308 JUMP JUMPDEST JUMPDEST PUSH1 0x0 PUSH2 0x41CD DUP5 DUP3 DUP6 ADD PUSH2 0x4194 JUMP JUMPDEST SWAP2 POP POP SWAP3 SWAP2 POP POP JUMP JUMPDEST PUSH1 0x0 DUP2 SWAP1 POP SWAP3 SWAP2 POP POP JUMP JUMPDEST PUSH32 0x7B226E616D65223A202255494E54532000000000000000000000000000000000 PUSH1 0x0 DUP3 ADD MSTORE POP JUMP JUMPDEST PUSH1 0x0 PUSH2 0x4217 PUSH1 0x10 DUP4 PUSH2 0x41D6 JUMP JUMPDEST SWAP2 POP PUSH2 0x4222 DUP3 PUSH2 0x41E1 JUMP JUMPDEST PUSH1 0x10 DUP3 ADD SWAP1 POP SWAP2 SWAP1 POP JUMP JUMPDEST PUSH1 0x0 PUSH2 0x4238 DUP3 PUSH2 0x33CD JUMP JUMPDEST PUSH2 0x4242 DUP2 DUP6 PUSH2 0x41D6 JUMP JUMPDEST SWAP4 POP PUSH2 0x4252 DUP2 DUP6 PUSH1 0x20 DUP7 ADD PUSH2 0x33E9 JUMP JUMPDEST DUP1 DUP5 ADD SWAP2 POP POP SWAP3 SWAP2 POP POP JUMP JUMPDEST PUSH32 0x222C20226465736372697074696F6E223A20226E756D62657273206172652061 PUSH1 0x0 DUP3 ADD MSTORE PUSH32 0x72742C20616E642077652061726520617274697374732E222C20226174747269 PUSH1 0x20 DUP3 ADD MSTORE PUSH32 0x6275746573223A5B7B2274726169745F74797065223A20224E756D626572222C PUSH1 0x40 DUP3 ADD MSTORE PUSH32 0x202276616C7565223A2000000000000000000000000000000000000000000000 PUSH1 0x60 DUP3 ADD MSTORE POP JUMP JUMPDEST PUSH1 0x0 PUSH2 0x4306 PUSH1 0x6A DUP4 PUSH2 0x41D6 JUMP JUMPDEST SWAP2 POP PUSH2 0x4311 DUP3 PUSH2 0x425E JUMP JUMPDEST PUSH1 0x6A DUP3 ADD SWAP1 POP SWAP2 SWAP1 POP JUMP JUMPDEST PUSH32 0x7D2C7B2274726169745F74797065223A20224D696E74205068617365222C2022 PUSH1 0x0 DUP3 ADD MSTORE PUSH32 0x76616C7565223A20220000000000000000000000000000000000000000000000 PUSH1 0x20 DUP3 ADD MSTORE POP JUMP JUMPDEST PUSH1 0x0 PUSH2 0x4378 PUSH1 0x29 DUP4 PUSH2 0x41D6 JUMP JUMPDEST SWAP2 POP PUSH2 0x4383 DUP3 PUSH2 0x431C JUMP JUMPDEST PUSH1 0x29 DUP3 ADD SWAP1 POP SWAP2 SWAP1 POP JUMP JUMPDEST PUSH32 0x227D2C7B2274726169745F74797065223A20224275726E6564222C202276616C PUSH1 0x0 DUP3 ADD MSTORE PUSH32 0x7565223A20220000000000000000000000000000000000000000000000000000 PUSH1 0x20 DUP3 ADD MSTORE POP JUMP JUMPDEST PUSH1 0x0 PUSH2 0x43EA PUSH1 0x26 DUP4 PUSH2 0x41D6 JUMP JUMPDEST SWAP2 POP PUSH2 0x43F5 DUP3 PUSH2 0x438E JUMP JUMPDEST PUSH1 0x26 DUP3 ADD SWAP1 POP SWAP2 SWAP1 POP JUMP JUMPDEST PUSH32 0x227D2C7B2274726169745F74797065223A20224261736520436F6C6F72222C20 PUSH1 0x0 DUP3 ADD MSTORE PUSH32 0x2276616C7565223A202200000000000000000000000000000000000000000000 PUSH1 0x20 DUP3 ADD MSTORE POP JUMP JUMPDEST PUSH1 0x0 PUSH2 0x445C PUSH1 0x2A DUP4 PUSH2 0x41D6 JUMP JUMPDEST SWAP2 POP PUSH2 0x4467 DUP3 PUSH2 0x4400 JUMP JUMPDEST PUSH1 0x2A DUP3 ADD SWAP1 POP SWAP2 SWAP1 POP JUMP JUMPDEST PUSH32 0x227D2C7B2274726169745F74797065223A202252222C202276616C7565223A20 PUSH1 0x0 DUP3 ADD MSTORE POP JUMP JUMPDEST PUSH1 0x0 PUSH2 0x44A8 PUSH1 0x20 DUP4 PUSH2 0x41D6 JUMP JUMPDEST SWAP2 POP PUSH2 0x44B3 DUP3 PUSH2 0x4472 JUMP JUMPDEST PUSH1 0x20 DUP3 ADD SWAP1 POP SWAP2 SWAP1 POP JUMP JUMPDEST PUSH32 0x7D2C7B2274726169745F74797065223A202247222C202276616C7565223A2000 PUSH1 0x0 DUP3 ADD MSTORE POP JUMP JUMPDEST PUSH1 0x0 PUSH2 0x44F4 PUSH1 0x1F DUP4 PUSH2 0x41D6 JUMP JUMPDEST SWAP2 POP PUSH2 0x44FF DUP3 PUSH2 0x44BE JUMP JUMPDEST PUSH1 0x1F DUP3 ADD SWAP1 POP SWAP2 SWAP1 POP JUMP JUMPDEST PUSH32 0x7D2C7B2274726169745F74797065223A202242222C202276616C7565223A2000 PUSH1 0x0 DUP3 ADD MSTORE POP JUMP JUMPDEST PUSH1 0x0 PUSH2 0x4540 PUSH1 0x1F DUP4 PUSH2 0x41D6 JUMP JUMPDEST SWAP2 POP PUSH2 0x454B DUP3 PUSH2 0x450A JUMP JUMPDEST PUSH1 0x1F DUP3 ADD SWAP1 POP SWAP2 SWAP1 POP JUMP JUMPDEST PUSH32 0x7D5D2C2022696D616765223A2022646174613A696D6167652F7376672B786D6C PUSH1 0x0 DUP3 ADD MSTORE PUSH32 0x3B6261736536342C000000000000000000000000000000000000000000000000 PUSH1 0x20 DUP3 ADD MSTORE POP JUMP JUMPDEST PUSH1 0x0 PUSH2 0x45B2 PUSH1 0x28 DUP4 PUSH2 0x41D6 JUMP JUMPDEST SWAP2 POP PUSH2 0x45BD DUP3 PUSH2 0x4556 JUMP JUMPDEST PUSH1 0x28 DUP3 ADD SWAP1 POP SWAP2 SWAP1 POP JUMP JUMPDEST PUSH32 0x227D000000000000000000000000000000000000000000000000000000000000 PUSH1 0x0 DUP3 ADD MSTORE POP JUMP JUMPDEST PUSH1 0x0 PUSH2 0x45FE PUSH1 0x2 DUP4 PUSH2 0x41D6 JUMP JUMPDEST SWAP2 POP PUSH2 0x4609 DUP3 PUSH2 0x45C8 JUMP JUMPDEST PUSH1 0x2 DUP3 ADD SWAP1 POP SWAP2 SWAP1 POP JUMP JUMPDEST PUSH1 0x0 PUSH2 0x461F DUP3 PUSH2 0x420A JUMP JUMPDEST SWAP2 POP PUSH2 0x462B DUP3 DUP13 PUSH2 0x422D JUMP JUMPDEST SWAP2 POP PUSH2 0x4636 DUP3 PUSH2 0x42F9 JUMP JUMPDEST SWAP2 POP PUSH2 0x4642 DUP3 DUP12 PUSH2 0x422D JUMP JUMPDEST SWAP2 POP PUSH2 0x464D DUP3 PUSH2 0x436B JUMP JUMPDEST SWAP2 POP PUSH2 0x4659 DUP3 DUP11 PUSH2 0x422D JUMP JUMPDEST SWAP2 POP PUSH2 0x4664 DUP3 PUSH2 0x43DD JUMP JUMPDEST SWAP2 POP PUSH2 0x4670 DUP3 DUP10 PUSH2 0x422D JUMP JUMPDEST SWAP2 POP PUSH2 0x467B DUP3 PUSH2 0x444F JUMP JUMPDEST SWAP2 POP PUSH2 0x4687 DUP3 DUP9 PUSH2 0x422D JUMP JUMPDEST SWAP2 POP PUSH2 0x4692 DUP3 PUSH2 0x449B JUMP JUMPDEST SWAP2 POP PUSH2 0x469E DUP3 DUP8 PUSH2 0x422D JUMP JUMPDEST SWAP2 POP PUSH2 0x46A9 DUP3 PUSH2 0x44E7 JUMP JUMPDEST SWAP2 POP PUSH2 0x46B5 DUP3 DUP7 PUSH2 0x422D JUMP JUMPDEST SWAP2 POP PUSH2 0x46C0 DUP3 PUSH2 0x4533 JUMP JUMPDEST SWAP2 POP PUSH2 0x46CC DUP3 DUP6 PUSH2 0x422D JUMP JUMPDEST SWAP2 POP PUSH2 0x46D7 DUP3 PUSH2 0x45A5 JUMP JUMPDEST SWAP2 POP PUSH2 0x46E3 DUP3 DUP5 PUSH2 0x422D JUMP JUMPDEST SWAP2 POP PUSH2 0x46EE DUP3 PUSH2 0x45F1 JUMP JUMPDEST SWAP2 POP DUP2 SWAP1 POP SWAP11 SWAP10 POP POP POP POP POP POP POP POP POP POP JUMP JUMPDEST PUSH32 0x646174613A6170706C69636174696F6E2F6A736F6E3B6261736536342C000000 PUSH1 0x0 DUP3 ADD MSTORE POP JUMP JUMPDEST PUSH1 0x0 PUSH2 0x4737 PUSH1 0x1D DUP4 PUSH2 0x41D6 JUMP JUMPDEST SWAP2 POP PUSH2 0x4742 DUP3 PUSH2 0x4701 JUMP JUMPDEST PUSH1 0x1D DUP3 ADD SWAP1 POP SWAP2 SWAP1 POP JUMP JUMPDEST PUSH1 0x0 PUSH2 0x4758 DUP3 PUSH2 0x472A JUMP JUMPDEST SWAP2 POP PUSH2 0x4764 DUP3 DUP5 PUSH2 0x422D JUMP JUMPDEST SWAP2 POP DUP2 SWAP1 POP SWAP3 SWAP2 POP POP JUMP JUMPDEST PUSH1 0x0 PUSH1 0xFF DUP3 AND SWAP1 POP SWAP2 SWAP1 POP JUMP JUMPDEST PUSH1 0x0 PUSH2 0x4787 DUP3 PUSH2 0x476F JUMP JUMPDEST SWAP2 POP PUSH2 0x4792 DUP4 PUSH2 0x476F JUMP JUMPDEST SWAP3 POP DUP3 DUP3 ADD SWAP1 POP PUSH1 0xFF DUP2 GT ISZERO PUSH2 0x47AB JUMPI PUSH2 0x47AA PUSH2 0x3C57 JUMP JUMPDEST JUMPDEST SWAP3 SWAP2 POP POP JUMP JUMPDEST PUSH32 0x2A7B66696C6C3A72676228000000000000000000000000000000000000000000 PUSH1 0x0 DUP3 ADD MSTORE POP JUMP JUMPDEST PUSH1 0x0 PUSH2 0x47E7 PUSH1 0xB DUP4 PUSH2 0x41D6 JUMP JUMPDEST SWAP2 POP PUSH2 0x47F2 DUP3 PUSH2 0x47B1 JUMP JUMPDEST PUSH1 0xB DUP3 ADD SWAP1 POP SWAP2 SWAP1 POP JUMP JUMPDEST PUSH32 0x2C00000000000000000000000000000000000000000000000000000000000000 PUSH1 0x0 DUP3 ADD MSTORE POP JUMP JUMPDEST PUSH1 0x0 PUSH2 0x4833 PUSH1 0x1 DUP4 PUSH2 0x41D6 JUMP JUMPDEST SWAP2 POP PUSH2 0x483E DUP3 PUSH2 0x47FD JUMP JUMPDEST PUSH1 0x1 DUP3 ADD SWAP1 POP SWAP2 SWAP1 POP JUMP JUMPDEST PUSH32 0x297D2362677B66696C6C3A233043304330437D00000000000000000000000000 PUSH1 0x0 DUP3 ADD MSTORE POP JUMP JUMPDEST PUSH1 0x0 PUSH2 0x487F PUSH1 0x13 DUP4 PUSH2 0x41D6 JUMP JUMPDEST SWAP2 POP PUSH2 0x488A DUP3 PUSH2 0x4849 JUMP JUMPDEST PUSH1 0x13 DUP3 ADD SWAP1 POP SWAP2 SWAP1 POP JUMP JUMPDEST PUSH1 0x0 PUSH2 0x48A0 DUP3 PUSH2 0x47DA JUMP JUMPDEST SWAP2 POP PUSH2 0x48AC DUP3 DUP7 PUSH2 0x422D JUMP JUMPDEST SWAP2 POP PUSH2 0x48B7 DUP3 PUSH2 0x4826 JUMP JUMPDEST SWAP2 POP PUSH2 0x48C3 DUP3 DUP6 PUSH2 0x422D JUMP JUMPDEST SWAP2 POP PUSH2 0x48CE DUP3 PUSH2 0x4826 JUMP JUMPDEST SWAP2 POP PUSH2 0x48DA DUP3 DUP5 PUSH2 0x422D JUMP JUMPDEST SWAP2 POP PUSH2 0x48E5 DUP3 PUSH2 0x4872 JUMP JUMPDEST SWAP2 POP DUP2 SWAP1 POP SWAP5 SWAP4 POP POP POP POP JUMP JUMPDEST PUSH1 0x0 PUSH2 0x48FE DUP3 DUP6 PUSH2 0x422D JUMP JUMPDEST SWAP2 POP PUSH2 0x490A DUP3 DUP5 PUSH2 0x422D JUMP JUMPDEST SWAP2 POP DUP2 SWAP1 POP SWAP4 SWAP3 POP POP POP JUMP JUMPDEST PUSH32 0x3C2F7374796C653E3C2F7376673E000000000000000000000000000000000000 PUSH1 0x0 DUP3 ADD MSTORE POP JUMP JUMPDEST PUSH1 0x0 PUSH2 0x494C PUSH1 0xE DUP4 PUSH2 0x41D6 JUMP JUMPDEST SWAP2 POP PUSH2 0x4957 DUP3 PUSH2 0x4916 JUMP JUMPDEST PUSH1 0xE DUP3 ADD SWAP1 POP SWAP2 SWAP1 POP JUMP JUMPDEST PUSH1 0x0 PUSH2 0x496E DUP3 DUP6 PUSH2 0x422D JUMP JUMPDEST SWAP2 POP PUSH2 0x497A DUP3 DUP5 PUSH2 0x422D JUMP JUMPDEST SWAP2 POP PUSH2 0x4985 DUP3 PUSH2 0x493F JUMP JUMPDEST SWAP2 POP DUP2 SWAP1 POP SWAP4 SWAP3 POP POP POP JUMP JUMPDEST PUSH32 0x2370000000000000000000000000000000000000000000000000000000000000 PUSH1 0x0 DUP3 ADD MSTORE POP JUMP JUMPDEST PUSH1 0x0 PUSH2 0x49C7 PUSH1 0x2 DUP4 PUSH2 0x41D6 JUMP JUMPDEST SWAP2 POP PUSH2 0x49D2 DUP3 PUSH2 0x4991 JUMP JUMPDEST PUSH1 0x2 DUP3 ADD SWAP1 POP SWAP2 SWAP1 POP JUMP JUMPDEST PUSH32 0x312C000000000000000000000000000000000000000000000000000000000000 PUSH1 0x0 DUP3 ADD MSTORE POP JUMP JUMPDEST PUSH1 0x0 PUSH2 0x4A13 PUSH1 0x2 DUP4 PUSH2 0x41D6 JUMP JUMPDEST SWAP2 POP PUSH2 0x4A1E DUP3 PUSH2 0x49DD JUMP JUMPDEST PUSH1 0x2 DUP3 ADD SWAP1 POP SWAP2 SWAP1 POP JUMP JUMPDEST PUSH32 0x322C000000000000000000000000000000000000000000000000000000000000 PUSH1 0x0 DUP3 ADD MSTORE POP JUMP JUMPDEST PUSH1 0x0 PUSH2 0x4A5F PUSH1 0x2 DUP4 PUSH2 0x41D6 JUMP JUMPDEST SWAP2 POP PUSH2 0x4A6A DUP3 PUSH2 0x4A29 JUMP JUMPDEST PUSH1 0x2 DUP3 ADD SWAP1 POP SWAP2 SWAP1 POP JUMP JUMPDEST PUSH32 0x332C000000000000000000000000000000000000000000000000000000000000 PUSH1 0x0 DUP3 ADD MSTORE POP JUMP JUMPDEST PUSH1 0x0 PUSH2 0x4AAB PUSH1 0x2 DUP4 PUSH2 0x41D6 JUMP JUMPDEST SWAP2 POP PUSH2 0x4AB6 DUP3 PUSH2 0x4A75 JUMP JUMPDEST PUSH1 0x2 DUP3 ADD SWAP1 POP SWAP2 SWAP1 POP JUMP JUMPDEST PUSH32 0x352C000000000000000000000000000000000000000000000000000000000000 PUSH1 0x0 DUP3 ADD MSTORE POP JUMP JUMPDEST PUSH1 0x0 PUSH2 0x4AF7 PUSH1 0x2 DUP4 PUSH2 0x41D6 JUMP JUMPDEST SWAP2 POP PUSH2 0x4B02 DUP3 PUSH2 0x4AC1 JUMP JUMPDEST PUSH1 0x2 DUP3 ADD SWAP1 POP SWAP2 SWAP1 POP JUMP JUMPDEST PUSH32 0x362C000000000000000000000000000000000000000000000000000000000000 PUSH1 0x0 DUP3 ADD MSTORE POP JUMP JUMPDEST PUSH1 0x0 PUSH2 0x4B43 PUSH1 0x2 DUP4 PUSH2 0x41D6 JUMP JUMPDEST SWAP2 POP PUSH2 0x4B4E DUP3 PUSH2 0x4B0D JUMP JUMPDEST PUSH1 0x2 DUP3 ADD SWAP1 POP SWAP2 SWAP1 POP JUMP JUMPDEST PUSH32 0x37207B66696C6C2D6F7061636974793A317D0000000000000000000000000000 PUSH1 0x0 DUP3 ADD MSTORE POP JUMP JUMPDEST PUSH1 0x0 PUSH2 0x4B8F PUSH1 0x12 DUP4 PUSH2 0x41D6 JUMP JUMPDEST SWAP2 POP PUSH2 0x4B9A DUP3 PUSH2 0x4B59 JUMP JUMPDEST PUSH1 0x12 DUP3 ADD SWAP1 POP SWAP2 SWAP1 POP JUMP JUMPDEST PUSH1 0x0 PUSH2 0x4BB0 DUP3 PUSH2 0x49BA JUMP JUMPDEST SWAP2 POP PUSH2 0x4BBC DUP3 DUP10 PUSH2 0x422D JUMP JUMPDEST SWAP2 POP PUSH2 0x4BC7 DUP3 PUSH2 0x4A06 JUMP JUMPDEST SWAP2 POP PUSH2 0x4BD2 DUP3 PUSH2 0x49BA JUMP JUMPDEST SWAP2 POP PUSH2 0x4BDE DUP3 DUP9 PUSH2 0x422D JUMP JUMPDEST SWAP2 POP PUSH2 0x4BE9 DUP3 PUSH2 0x4A52 JUMP JUMPDEST SWAP2 POP PUSH2 0x4BF4 DUP3 PUSH2 0x49BA JUMP JUMPDEST SWAP2 POP PUSH2 0x4C00 DUP3 DUP8 PUSH2 0x422D JUMP JUMPDEST SWAP2 POP PUSH2 0x4C0B DUP3 PUSH2 0x4A9E JUMP JUMPDEST SWAP2 POP PUSH2 0x4C16 DUP3 PUSH2 0x49BA JUMP JUMPDEST SWAP2 POP PUSH2 0x4C22 DUP3 DUP7 PUSH2 0x422D JUMP JUMPDEST SWAP2 POP PUSH2 0x4C2D DUP3 PUSH2 0x4AEA JUMP JUMPDEST SWAP2 POP PUSH2 0x4C38 DUP3 PUSH2 0x49BA JUMP JUMPDEST SWAP2 POP PUSH2 0x4C44 DUP3 DUP6 PUSH2 0x422D JUMP JUMPDEST SWAP2 POP PUSH2 0x4C4F DUP3 PUSH2 0x4B36 JUMP JUMPDEST SWAP2 POP PUSH2 0x4C5A DUP3 PUSH2 0x49BA JUMP JUMPDEST SWAP2 POP PUSH2 0x4C66 DUP3 DUP5 PUSH2 0x422D JUMP JUMPDEST SWAP2 POP PUSH2 0x4C71 DUP3 PUSH2 0x4B82 JUMP JUMPDEST SWAP2 POP DUP2 SWAP1 POP SWAP8 SWAP7 POP POP POP POP POP POP POP JUMP JUMPDEST PUSH32 0x36207B66696C6C2D6F7061636974793A317D0000000000000000000000000000 PUSH1 0x0 DUP3 ADD MSTORE POP JUMP JUMPDEST PUSH1 0x0 PUSH2 0x4CB7 PUSH1 0x12 DUP4 PUSH2 0x41D6 JUMP JUMPDEST SWAP2 POP PUSH2 0x4CC2 DUP3 PUSH2 0x4C81 JUMP JUMPDEST PUSH1 0x12 DUP3 ADD SWAP1 POP SWAP2 SWAP1 POP JUMP JUMPDEST PUSH1 0x0 PUSH2 0x4CD8 DUP3 PUSH2 0x49BA JUMP JUMPDEST SWAP2 POP PUSH2 0x4CE4 DUP3 DUP6 PUSH2 0x422D JUMP JUMPDEST SWAP2 POP PUSH2 0x4CEF DUP3 PUSH2 0x4A9E JUMP JUMPDEST SWAP2 POP PUSH2 0x4CFA DUP3 PUSH2 0x49BA JUMP JUMPDEST SWAP2 POP PUSH2 0x4D06 DUP3 DUP5 PUSH2 0x422D JUMP JUMPDEST SWAP2 POP PUSH2 0x4D11 DUP3 PUSH2 0x4CAA JUMP JUMPDEST SWAP2 POP DUP2 SWAP1 POP SWAP4 SWAP3 POP POP POP JUMP JUMPDEST PUSH32 0x342C000000000000000000000000000000000000000000000000000000000000 PUSH1 0x0 DUP3 ADD MSTORE POP JUMP JUMPDEST PUSH1 0x0 PUSH2 0x4D53 PUSH1 0x2 DUP4 PUSH2 0x41D6 JUMP JUMPDEST SWAP2 POP PUSH2 0x4D5E DUP3 PUSH2 0x4D1D JUMP JUMPDEST PUSH1 0x2 DUP3 ADD SWAP1 POP SWAP2 SWAP1 POP JUMP JUMPDEST PUSH1 0x0 PUSH2 0x4D74 DUP3 PUSH2 0x49BA JUMP JUMPDEST SWAP2 POP PUSH2 0x4D80 DUP3 DUP9 PUSH2 0x422D JUMP JUMPDEST SWAP2 POP PUSH2 0x4D8B DUP3 PUSH2 0x4A06 JUMP JUMPDEST SWAP2 POP PUSH2 0x4D96 DUP3 PUSH2 0x49BA JUMP JUMPDEST SWAP2 POP PUSH2 0x4DA2 DUP3 DUP8 PUSH2 0x422D JUMP JUMPDEST SWAP2 POP PUSH2 0x4DAD DUP3 PUSH2 0x4A9E JUMP JUMPDEST SWAP2 POP PUSH2 0x4DB8 DUP3 PUSH2 0x49BA JUMP JUMPDEST SWAP2 POP PUSH2 0x4DC4 DUP3 DUP7 PUSH2 0x422D JUMP JUMPDEST SWAP2 POP PUSH2 0x4DCF DUP3 PUSH2 0x4D46 JUMP JUMPDEST SWAP2 POP PUSH2 0x4DDA DUP3 PUSH2 0x49BA JUMP JUMPDEST SWAP2 POP PUSH2 0x4DE6 DUP3 DUP6 PUSH2 0x422D JUMP JUMPDEST SWAP2 POP PUSH2 0x4DF1 DUP3 PUSH2 0x4AEA JUMP JUMPDEST SWAP2 POP PUSH2 0x4DFC DUP3 PUSH2 0x49BA JUMP JUMPDEST SWAP2 POP PUSH2 0x4E08 DUP3 DUP5 PUSH2 0x422D JUMP JUMPDEST SWAP2 POP PUSH2 0x4E13 DUP3 PUSH2 0x4B82 JUMP JUMPDEST SWAP2 POP DUP2 SWAP1 POP SWAP7 SWAP6 POP POP POP POP POP POP JUMP JUMPDEST PUSH1 0x0 PUSH2 0x4E2D DUP3 PUSH2 0x49BA JUMP JUMPDEST SWAP2 POP PUSH2 0x4E39 DUP3 DUP9 PUSH2 0x422D JUMP JUMPDEST SWAP2 POP PUSH2 0x4E44 DUP3 PUSH2 0x4A06 JUMP JUMPDEST SWAP2 POP PUSH2 0x4E4F DUP3 PUSH2 0x49BA JUMP JUMPDEST SWAP2 POP PUSH2 0x4E5B DUP3 DUP8 PUSH2 0x422D JUMP JUMPDEST SWAP2 POP PUSH2 0x4E66 DUP3 PUSH2 0x4A9E JUMP JUMPDEST SWAP2 POP PUSH2 0x4E71 DUP3 PUSH2 0x49BA JUMP JUMPDEST SWAP2 POP PUSH2 0x4E7D DUP3 DUP7 PUSH2 0x422D JUMP JUMPDEST SWAP2 POP PUSH2 0x4E88 DUP3 PUSH2 0x4D46 JUMP JUMPDEST SWAP2 POP PUSH2 0x4E93 DUP3 PUSH2 0x49BA JUMP JUMPDEST SWAP2 POP PUSH2 0x4E9F DUP3 DUP6 PUSH2 0x422D JUMP JUMPDEST SWAP2 POP PUSH2 0x4EAA DUP3 PUSH2 0x4B36 JUMP JUMPDEST SWAP2 POP PUSH2 0x4EB5 DUP3 PUSH2 0x49BA JUMP JUMPDEST SWAP2 POP PUSH2 0x4EC1 DUP3 DUP5 PUSH2 0x422D JUMP JUMPDEST SWAP2 POP PUSH2 0x4ECC DUP3 PUSH2 0x4B82 JUMP JUMPDEST SWAP2 POP DUP2 SWAP1 POP SWAP7 SWAP6 POP POP POP POP POP POP JUMP JUMPDEST PUSH1 0x0 PUSH2 0x4EE6 DUP3 PUSH2 0x49BA JUMP JUMPDEST SWAP2 POP PUSH2 0x4EF2 DUP3 DUP8 PUSH2 0x422D JUMP JUMPDEST SWAP2 POP PUSH2 0x4EFD DUP3 PUSH2 0x4A52 JUMP JUMPDEST SWAP2 POP PUSH2 0x4F08 DUP3 PUSH2 0x49BA JUMP JUMPDEST SWAP2 POP PUSH2 0x4F14 DUP3 DUP7 PUSH2 0x422D JUMP JUMPDEST SWAP2 POP PUSH2 0x4F1F DUP3 PUSH2 0x4A9E JUMP JUMPDEST SWAP2 POP PUSH2 0x4F2A DUP3 PUSH2 0x49BA JUMP JUMPDEST SWAP2 POP PUSH2 0x4F36 DUP3 DUP6 PUSH2 0x422D JUMP JUMPDEST SWAP2 POP PUSH2 0x4F41 DUP3 PUSH2 0x4D46 JUMP JUMPDEST SWAP2 POP PUSH2 0x4F4C DUP3 PUSH2 0x49BA JUMP JUMPDEST SWAP2 POP PUSH2 0x4F58 DUP3 DUP5 PUSH2 0x422D JUMP JUMPDEST SWAP2 POP PUSH2 0x4F63 DUP3 PUSH2 0x4CAA JUMP JUMPDEST SWAP2 POP DUP2 SWAP1 POP SWAP6 SWAP5 POP POP POP POP POP JUMP JUMPDEST PUSH1 0x0 PUSH2 0x4F7C DUP3 PUSH2 0x49BA JUMP JUMPDEST SWAP2 POP PUSH2 0x4F88 DUP3 DUP9 PUSH2 0x422D JUMP JUMPDEST SWAP2 POP PUSH2 0x4F93 DUP3 PUSH2 0x4A06 JUMP JUMPDEST SWAP2 POP PUSH2 0x4F9E DUP3 PUSH2 0x49BA JUMP JUMPDEST SWAP2 POP PUSH2 0x4FAA DUP3 DUP8 PUSH2 0x422D JUMP JUMPDEST SWAP2 POP PUSH2 0x4FB5 DUP3 PUSH2 0x4A52 JUMP JUMPDEST SWAP2 POP PUSH2 0x4FC0 DUP3 PUSH2 0x49BA JUMP JUMPDEST SWAP2 POP PUSH2 0x4FCC DUP3 DUP7 PUSH2 0x422D JUMP JUMPDEST SWAP2 POP PUSH2 0x4FD7 DUP3 PUSH2 0x4D46 JUMP JUMPDEST SWAP2 POP PUSH2 0x4FE2 DUP3 PUSH2 0x49BA JUMP JUMPDEST SWAP2 POP PUSH2 0x4FEE DUP3 DUP6 PUSH2 0x422D JUMP JUMPDEST SWAP2 POP PUSH2 0x4FF9 DUP3 PUSH2 0x4B36 JUMP JUMPDEST SWAP2 POP PUSH2 0x5004 DUP3 PUSH2 0x49BA JUMP JUMPDEST SWAP2 POP PUSH2 0x5010 DUP3 DUP5 PUSH2 0x422D JUMP JUMPDEST SWAP2 POP PUSH2 0x501B DUP3 PUSH2 0x4B82 JUMP JUMPDEST SWAP2 POP DUP2 SWAP1 POP SWAP7 SWAP6 POP POP POP POP POP POP JUMP JUMPDEST PUSH1 0x0 PUSH2 0x5035 DUP3 PUSH2 0x49BA JUMP JUMPDEST SWAP2 POP PUSH2 0x5041 DUP3 DUP10 PUSH2 0x422D JUMP JUMPDEST SWAP2 POP PUSH2 0x504C DUP3 PUSH2 0x4A06 JUMP JUMPDEST SWAP2 POP PUSH2 0x5057 DUP3 PUSH2 0x49BA JUMP JUMPDEST SWAP2 POP PUSH2 0x5063 DUP3 DUP9 PUSH2 0x422D JUMP JUMPDEST SWAP2 POP PUSH2 0x506E DUP3 PUSH2 0x4A52 JUMP JUMPDEST SWAP2 POP PUSH2 0x5079 DUP3 PUSH2 0x49BA JUMP JUMPDEST SWAP2 POP PUSH2 0x5085 DUP3 DUP8 PUSH2 0x422D JUMP JUMPDEST SWAP2 POP PUSH2 0x5090 DUP3 PUSH2 0x4D46 JUMP JUMPDEST SWAP2 POP PUSH2 0x509B DUP3 PUSH2 0x49BA JUMP JUMPDEST SWAP2 POP PUSH2 0x50A7 DUP3 DUP7 PUSH2 0x422D JUMP JUMPDEST SWAP2 POP PUSH2 0x50B2 DUP3 PUSH2 0x4AEA JUMP JUMPDEST SWAP2 POP PUSH2 0x50BD DUP3 PUSH2 0x49BA JUMP JUMPDEST SWAP2 POP PUSH2 0x50C9 DUP3 DUP6 PUSH2 0x422D JUMP JUMPDEST SWAP2 POP PUSH2 0x50D4 DUP3 PUSH2 0x4B36 JUMP JUMPDEST SWAP2 POP PUSH2 0x50DF DUP3 PUSH2 0x49BA JUMP JUMPDEST SWAP2 POP PUSH2 0x50EB DUP3 DUP5 PUSH2 0x422D JUMP JUMPDEST SWAP2 POP PUSH2 0x50F6 DUP3 PUSH2 0x4B82 JUMP JUMPDEST SWAP2 POP DUP2 SWAP1 POP SWAP8 SWAP7 POP POP POP POP POP POP POP JUMP JUMPDEST PUSH1 0x0 PUSH2 0x5111 DUP3 PUSH2 0x49BA JUMP JUMPDEST SWAP2 POP PUSH2 0x511D DUP3 DUP7 PUSH2 0x422D JUMP JUMPDEST SWAP2 POP PUSH2 0x5128 DUP3 PUSH2 0x4A06 JUMP JUMPDEST SWAP2 POP PUSH2 0x5133 DUP3 PUSH2 0x49BA JUMP JUMPDEST SWAP2 POP PUSH2 0x513F DUP3 DUP6 PUSH2 0x422D JUMP JUMPDEST SWAP2 POP PUSH2 0x514A DUP3 PUSH2 0x4A9E JUMP JUMPDEST SWAP2 POP PUSH2 0x5155 DUP3 PUSH2 0x49BA JUMP JUMPDEST SWAP2 POP PUSH2 0x5161 DUP3 DUP5 PUSH2 0x422D JUMP JUMPDEST SWAP2 POP PUSH2 0x516C DUP3 PUSH2 0x4CAA JUMP JUMPDEST SWAP2 POP DUP2 SWAP1 POP SWAP5 SWAP4 POP POP POP POP JUMP JUMPDEST PUSH1 0x0 PUSH2 0x5184 DUP3 PUSH2 0x49BA JUMP JUMPDEST SWAP2 POP PUSH2 0x5190 DUP3 DUP11 PUSH2 0x422D JUMP JUMPDEST SWAP2 POP PUSH2 0x519B DUP3 PUSH2 0x4A06 JUMP JUMPDEST SWAP2 POP PUSH2 0x51A6 DUP3 PUSH2 0x49BA JUMP JUMPDEST SWAP2 POP PUSH2 0x51B2 DUP3 DUP10 PUSH2 0x422D JUMP JUMPDEST SWAP2 POP PUSH2 0x51BD DUP3 PUSH2 0x4A52 JUMP JUMPDEST SWAP2 POP PUSH2 0x51C8 DUP3 PUSH2 0x49BA JUMP JUMPDEST SWAP2 POP PUSH2 0x51D4 DUP3 DUP9 PUSH2 0x422D JUMP JUMPDEST SWAP2 POP PUSH2 0x51DF DUP3 PUSH2 0x4A9E JUMP JUMPDEST SWAP2 POP PUSH2 0x51EA DUP3 PUSH2 0x49BA JUMP JUMPDEST SWAP2 POP PUSH2 0x51F6 DUP3 DUP8 PUSH2 0x422D JUMP JUMPDEST SWAP2 POP PUSH2 0x5201 DUP3 PUSH2 0x4D46 JUMP JUMPDEST SWAP2 POP PUSH2 0x520C DUP3 PUSH2 0x49BA JUMP JUMPDEST SWAP2 POP PUSH2 0x5218 DUP3 DUP7 PUSH2 0x422D JUMP JUMPDEST SWAP2 POP PUSH2 0x5223 DUP3 PUSH2 0x4AEA JUMP JUMPDEST SWAP2 POP PUSH2 0x522E DUP3 PUSH2 0x49BA JUMP JUMPDEST SWAP2 POP PUSH2 0x523A DUP3 DUP6 PUSH2 0x422D JUMP JUMPDEST SWAP2 POP PUSH2 0x5245 DUP3 PUSH2 0x4B36 JUMP JUMPDEST SWAP2 POP PUSH2 0x5250 DUP3 PUSH2 0x49BA JUMP JUMPDEST SWAP2 POP PUSH2 0x525C DUP3 DUP5 PUSH2 0x422D JUMP JUMPDEST SWAP2 POP PUSH2 0x5267 DUP3 PUSH2 0x4B82 JUMP JUMPDEST SWAP2 POP DUP2 SWAP1 POP SWAP9 SWAP8 POP POP POP POP POP POP POP POP JUMP JUMPDEST PUSH1 0x0 PUSH2 0x5283 DUP3 PUSH2 0x49BA JUMP JUMPDEST SWAP2 POP PUSH2 0x528F DUP3 DUP10 PUSH2 0x422D JUMP JUMPDEST SWAP2 POP PUSH2 0x529A DUP3 PUSH2 0x4A06 JUMP JUMPDEST SWAP2 POP PUSH2 0x52A5 DUP3 PUSH2 0x49BA JUMP JUMPDEST SWAP2 POP PUSH2 0x52B1 DUP3 DUP9 PUSH2 0x422D JUMP JUMPDEST SWAP2 POP PUSH2 0x52BC DUP3 PUSH2 0x4A52 JUMP JUMPDEST SWAP2 POP PUSH2 0x52C7 DUP3 PUSH2 0x49BA JUMP JUMPDEST SWAP2 POP PUSH2 0x52D3 DUP3 DUP8 PUSH2 0x422D JUMP JUMPDEST SWAP2 POP PUSH2 0x52DE DUP3 PUSH2 0x4A9E JUMP JUMPDEST SWAP2 POP PUSH2 0x52E9 DUP3 PUSH2 0x49BA JUMP JUMPDEST SWAP2 POP PUSH2 0x52F5 DUP3 DUP7 PUSH2 0x422D JUMP JUMPDEST SWAP2 POP PUSH2 0x5300 DUP3 PUSH2 0x4D46 JUMP JUMPDEST SWAP2 POP PUSH2 0x530B DUP3 PUSH2 0x49BA JUMP JUMPDEST SWAP2 POP PUSH2 0x5317 DUP3 DUP6 PUSH2 0x422D JUMP JUMPDEST SWAP2 POP PUSH2 0x5322 DUP3 PUSH2 0x4B36 JUMP JUMPDEST SWAP2 POP PUSH2 0x532D DUP3 PUSH2 0x49BA JUMP JUMPDEST SWAP2 POP PUSH2 0x5339 DUP3 DUP5 PUSH2 0x422D JUMP JUMPDEST SWAP2 POP PUSH2 0x5344 DUP3 PUSH2 0x4B82 JUMP JUMPDEST SWAP2 POP DUP2 SWAP1 POP SWAP8 SWAP7 POP POP POP POP POP POP POP JUMP INVALID COINBASE TIMESTAMP NUMBER PREVRANDAO GASLIMIT CHAINID SELFBALANCE BASEFEE 0x49 0x4A 0x4B 0x4C 0x4D 0x4E 0x4F POP MLOAD MSTORE MSTORE8 SLOAD SSTORE JUMP JUMPI PC MSIZE GAS PUSH2 0x6263 PUSH5 0x6566676869 PUSH11 0x6B6C6D6E6F707172737475 PUSH23 0x7778797A303132333435363738392B2F3C737667207669 PUSH6 0x77426F783D22 ADDRESS KECCAK256 ADDRESS KECCAK256 CALLER ADDRESS ADDRESS KECCAK256 CALLER ADDRESS ADDRESS 0x22 KECCAK256 PUSH7 0x696C6C3D226E6F PUSH15 0x652220786D6C6E733D22687474703A 0x2F 0x2F PUSH24 0x77772E77332E6F72672F323030302F737667223E3C726563 PUSH21 0x2069643D226267222077696474683D223330302220 PUSH9 0x65696768743D223330 ADDRESS 0x22 KECCAK256 PUSH7 0x696C6C3D222330 NUMBER ADDRESS NUMBER ADDRESS NUMBER 0x22 0x2F RETURNDATACOPY EXTCODECOPY PUSH17 0x6174682069643D227030312220643D224D BALANCE ADDRESS ADDRESS KECCAK256 BALANCE BALANCE CODECOPY 0x4C BALANCE ADDRESS CALLER KECCAK256 BALANCE ORIGIN ORIGIN 0x4C BALANCE ADDRESS ADDRESS KECCAK256 BALANCE ORIGIN CALLDATALOAD 0x4C CODESIZE ADDRESS KECCAK256 BALANCE ORIGIN CALLDATALOAD 0x4C CALLDATACOPY CALLDATACOPY KECCAK256 BALANCE ORIGIN ORIGIN 0x4C CODESIZE ADDRESS KECCAK256 BALANCE BALANCE CODECOPY 0x4C BALANCE ADDRESS ADDRESS KECCAK256 BALANCE BALANCE CODECOPY GAS 0x22 KECCAK256 PUSH7 0x696C6C3D227768 PUSH10 0x7465222066696C6C2D6F PUSH17 0x61636974793D22302E3035222F3E3C7061 PUSH21 0x682069643D227030322220643D224D373320313236 0x4C CALLDATACOPY CALLDATASIZE KECCAK256 BALANCE ORIGIN CALLER 0x4C CALLDATACOPY CODECOPY KECCAK256 BALANCE ORIGIN CALLDATASIZE JUMP BALANCE CALLVALUE CALLDATASIZE 0x4C CALLDATACOPY CALLDATASIZE KECCAK256 BALANCE CALLVALUE CODECOPY 0x4C CALLDATACOPY CALLER KECCAK256 BALANCE CALLVALUE CALLDATASIZE JUMP BALANCE ORIGIN CALLDATASIZE GAS 0x22 KECCAK256 PUSH7 0x696C6C3D227768 PUSH10 0x7465222066696C6C2D6F PUSH17 0x61636974793D22302E3035222F3E3C7061 PUSH21 0x682069643D227030332220643D224D313031203132 CALLDATASIZE 0x4C BALANCE ADDRESS CALLVALUE KECCAK256 BALANCE ORIGIN CALLER 0x4C BALANCE ADDRESS CALLDATACOPY KECCAK256 BALANCE ORIGIN CALLDATASIZE JUMP BALANCE CALLVALUE CALLDATASIZE 0x4C BALANCE ADDRESS CALLVALUE KECCAK256 BALANCE CALLVALUE CODECOPY 0x4C BALANCE ADDRESS BALANCE KECCAK256 BALANCE CALLVALUE CALLDATASIZE JUMP BALANCE ORIGIN CALLDATASIZE GAS 0x22 KECCAK256 PUSH7 0x696C6C3D227768 PUSH10 0x7465222066696C6C2D6F PUSH17 0x61636974793D22302E3035222F3E3C7061 PUSH21 0x682069643D227030342220643D224D313030203134 CALLDATACOPY 0x4C BALANCE ADDRESS CALLER KECCAK256 BALANCE CALLDATALOAD ADDRESS 0x4C BALANCE ADDRESS ADDRESS KECCAK256 BALANCE CALLDATALOAD CALLER 0x4C CODESIZE ADDRESS KECCAK256 BALANCE CALLDATALOAD CALLER 0x4C CALLDATACOPY CALLDATACOPY KECCAK256 BALANCE CALLDATALOAD ADDRESS 0x4C CODESIZE ADDRESS KECCAK256 BALANCE CALLVALUE CALLDATACOPY 0x4C BALANCE ADDRESS ADDRESS KECCAK256 BALANCE CALLVALUE CALLDATACOPY GAS 0x22 KECCAK256 PUSH7 0x696C6C3D227768 PUSH10 0x7465222066696C6C2D6F PUSH17 0x61636974793D22302E3035222F3E3C7061 PUSH21 0x682069643D227030352220643D224D373320313534 0x4C CALLDATACOPY CALLDATASIZE KECCAK256 BALANCE CALLDATALOAD BALANCE 0x4C CALLDATACOPY CODECOPY KECCAK256 BALANCE CALLDATALOAD CALLVALUE JUMP BALANCE CALLDATACOPY CALLVALUE 0x4C CALLDATACOPY CALLDATASIZE KECCAK256 BALANCE CALLDATACOPY CALLDATACOPY 0x4C CALLDATACOPY CALLER KECCAK256 BALANCE CALLDATACOPY CALLVALUE JUMP BALANCE CALLDATALOAD CALLVALUE GAS 0x22 KECCAK256 PUSH7 0x696C6C3D227768 PUSH10 0x7465222066696C6C2D6F PUSH17 0x61636974793D22302E3035222F3E3C7061 PUSH21 0x682069643D227030362220643D224D313031203135 CALLVALUE 0x4C BALANCE ADDRESS CALLVALUE KECCAK256 BALANCE CALLDATALOAD BALANCE 0x4C BALANCE ADDRESS CALLDATACOPY KECCAK256 BALANCE CALLDATALOAD CALLVALUE JUMP BALANCE CALLDATACOPY CALLVALUE 0x4C BALANCE ADDRESS CALLVALUE KECCAK256 BALANCE CALLDATACOPY CALLDATACOPY 0x4C BALANCE ADDRESS BALANCE KECCAK256 BALANCE CALLDATACOPY CALLVALUE JUMP BALANCE CALLDATALOAD CALLVALUE GAS 0x22 KECCAK256 PUSH7 0x696C6C3D227768 PUSH10 0x7465222066696C6C2D6F PUSH17 0x61636974793D22302E3035222F3E3C7061 PUSH21 0x682069643D227030372220643D224D313030203137 CALLDATALOAD 0x4C BALANCE ADDRESS CALLER KECCAK256 BALANCE CALLDATACOPY CODESIZE 0x4C BALANCE ADDRESS ADDRESS KECCAK256 BALANCE CODESIZE BALANCE 0x4C CODESIZE ADDRESS KECCAK256 BALANCE CODESIZE BALANCE 0x4C CALLDATACOPY CALLDATACOPY KECCAK256 BALANCE CALLDATACOPY CODESIZE 0x4C CODESIZE ADDRESS KECCAK256 BALANCE CALLDATACOPY CALLDATALOAD 0x4C BALANCE ADDRESS ADDRESS KECCAK256 BALANCE CALLDATACOPY CALLDATALOAD GAS 0x22 KECCAK256 PUSH7 0x696C6C3D227768 PUSH10 0x7465222066696C6C2D6F PUSH17 0x61636974793D22302E3035222F3E3C7061 PUSH21 0x682069643D227031312220643D224D313430203131 CODECOPY 0x4C BALANCE CALLVALUE CALLER KECCAK256 BALANCE ORIGIN ORIGIN 0x4C BALANCE CALLVALUE ADDRESS KECCAK256 BALANCE ORIGIN CALLDATALOAD 0x4C BALANCE ORIGIN ADDRESS KECCAK256 BALANCE ORIGIN CALLDATALOAD 0x4C BALANCE BALANCE CALLDATACOPY KECCAK256 BALANCE ORIGIN ORIGIN 0x4C BALANCE ORIGIN ADDRESS KECCAK256 BALANCE BALANCE CODECOPY 0x4C BALANCE CALLVALUE ADDRESS KECCAK256 BALANCE BALANCE CODECOPY GAS 0x22 KECCAK256 PUSH7 0x696C6C3D227768 PUSH10 0x7465222066696C6C2D6F PUSH17 0x61636974793D22302E3035222F3E3C7061 PUSH21 0x682069643D227031322220643D224D313133203132 CALLDATASIZE 0x4C BALANCE BALANCE CALLDATASIZE KECCAK256 BALANCE ORIGIN CALLER 0x4C BALANCE BALANCE CODECOPY KECCAK256 BALANCE ORIGIN CALLDATASIZE JUMP BALANCE CALLVALUE CALLDATASIZE 0x4C BALANCE BALANCE CALLDATASIZE KECCAK256 BALANCE CALLVALUE CODECOPY 0x4C BALANCE BALANCE CALLER KECCAK256 BALANCE CALLVALUE CALLDATASIZE JUMP BALANCE ORIGIN CALLDATASIZE GAS 0x22 KECCAK256 PUSH7 0x696C6C3D227768 PUSH10 0x7465222066696C6C2D6F PUSH17 0x61636974793D22302E3035222F3E3C7061 PUSH21 0x682069643D227031332220643D224D313431203132 CALLDATASIZE 0x4C BALANCE CALLVALUE CALLVALUE KECCAK256 BALANCE ORIGIN CALLER 0x4C BALANCE CALLVALUE CALLDATACOPY KECCAK256 BALANCE ORIGIN CALLDATASIZE JUMP BALANCE CALLVALUE CALLDATASIZE 0x4C BALANCE CALLVALUE CALLVALUE KECCAK256 BALANCE CALLVALUE CODECOPY 0x4C BALANCE CALLVALUE BALANCE KECCAK256 BALANCE CALLVALUE CALLDATASIZE JUMP BALANCE ORIGIN CALLDATASIZE GAS 0x22 KECCAK256 PUSH7 0x696C6C3D227768 PUSH10 0x7465222066696C6C2D6F PUSH17 0x61636974793D22302E3035222F3E3C7061 PUSH21 0x682069643D227031342220643D224D313430203134 CALLDATACOPY 0x4C BALANCE CALLVALUE CALLER KECCAK256 BALANCE CALLDATALOAD ADDRESS 0x4C BALANCE CALLVALUE ADDRESS KECCAK256 BALANCE CALLDATALOAD CALLER 0x4C BALANCE ORIGIN ADDRESS KECCAK256 BALANCE CALLDATALOAD CALLER 0x4C BALANCE BALANCE CALLDATACOPY KECCAK256 BALANCE CALLDATALOAD ADDRESS 0x4C BALANCE ORIGIN ADDRESS KECCAK256 BALANCE CALLVALUE CALLDATACOPY 0x4C BALANCE CALLVALUE ADDRESS KECCAK256 BALANCE CALLVALUE CALLDATACOPY GAS 0x22 KECCAK256 PUSH7 0x696C6C3D227768 PUSH10 0x7465222066696C6C2D6F PUSH17 0x61636974793D22302E3035222F3E3C7061 PUSH21 0x682069643D227031352220643D224D313133203135 CALLVALUE 0x4C BALANCE BALANCE CALLDATASIZE KECCAK256 BALANCE CALLDATALOAD BALANCE 0x4C BALANCE BALANCE CODECOPY KECCAK256 BALANCE CALLDATALOAD CALLVALUE JUMP BALANCE CALLDATACOPY CALLVALUE 0x4C BALANCE BALANCE CALLDATASIZE KECCAK256 BALANCE CALLDATACOPY CALLDATACOPY 0x4C BALANCE BALANCE CALLER KECCAK256 BALANCE CALLDATACOPY CALLVALUE JUMP BALANCE CALLDATALOAD CALLVALUE GAS 0x22 KECCAK256 PUSH7 0x696C6C3D227768 PUSH10 0x7465222066696C6C2D6F PUSH17 0x61636974793D22302E3035222F3E3C7061 PUSH21 0x682069643D227031362220643D224D313431203135 CALLVALUE 0x4C BALANCE CALLVALUE CALLVALUE KECCAK256 BALANCE CALLDATALOAD BALANCE 0x4C BALANCE CALLVALUE CALLDATACOPY KECCAK256 BALANCE CALLDATALOAD CALLVALUE JUMP BALANCE CALLDATACOPY CALLVALUE 0x4C BALANCE CALLVALUE CALLVALUE KECCAK256 BALANCE CALLDATACOPY CALLDATACOPY 0x4C BALANCE CALLVALUE BALANCE KECCAK256 BALANCE CALLDATACOPY CALLVALUE JUMP BALANCE CALLDATALOAD CALLVALUE GAS 0x22 KECCAK256 PUSH7 0x696C6C3D227768 PUSH10 0x7465222066696C6C2D6F PUSH17 0x61636974793D22302E3035222F3E3C7061 PUSH21 0x682069643D227031372220643D224D313430203137 CALLDATALOAD 0x4C BALANCE CALLVALUE CALLER KECCAK256 BALANCE CALLDATACOPY CODESIZE 0x4C BALANCE CALLVALUE ADDRESS KECCAK256 BALANCE CODESIZE BALANCE 0x4C BALANCE ORIGIN ADDRESS KECCAK256 BALANCE CODESIZE BALANCE 0x4C BALANCE BALANCE CALLDATACOPY KECCAK256 BALANCE CALLDATACOPY CODESIZE 0x4C BALANCE ORIGIN ADDRESS KECCAK256 BALANCE CALLDATACOPY CALLDATALOAD 0x4C BALANCE CALLVALUE ADDRESS KECCAK256 BALANCE CALLDATACOPY CALLDATALOAD GAS 0x22 KECCAK256 PUSH7 0x696C6C3D227768 PUSH10 0x7465222066696C6C2D6F PUSH17 0x61636974793D22302E3035222F3E3C7061 PUSH21 0x682069643D227032312220643D224D313830203131 CODECOPY 0x4C BALANCE CODESIZE CALLER KECCAK256 BALANCE ORIGIN ORIGIN 0x4C BALANCE CODESIZE ADDRESS KECCAK256 BALANCE ORIGIN CALLDATALOAD 0x4C BALANCE CALLDATASIZE ADDRESS KECCAK256 BALANCE ORIGIN CALLDATALOAD 0x4C BALANCE CALLDATALOAD CALLDATACOPY KECCAK256 BALANCE ORIGIN ORIGIN 0x4C BALANCE CALLDATASIZE ADDRESS KECCAK256 BALANCE BALANCE CODECOPY 0x4C BALANCE CODESIZE ADDRESS KECCAK256 BALANCE BALANCE CODECOPY GAS 0x22 KECCAK256 PUSH7 0x696C6C3D227768 PUSH10 0x7465222066696C6C2D6F PUSH17 0x61636974793D22302E3035222F3E3C7061 PUSH21 0x682069643D227032322220643D224D313533203132 CALLDATASIZE 0x4C BALANCE CALLDATALOAD CALLDATASIZE KECCAK256 BALANCE ORIGIN CALLER 0x4C BALANCE CALLDATALOAD CODECOPY KECCAK256 BALANCE ORIGIN CALLDATASIZE JUMP BALANCE CALLVALUE CALLDATASIZE 0x4C BALANCE CALLDATALOAD CALLDATASIZE KECCAK256 BALANCE CALLVALUE CODECOPY 0x4C BALANCE CALLDATALOAD CALLER KECCAK256 BALANCE CALLVALUE CALLDATASIZE JUMP BALANCE ORIGIN CALLDATASIZE GAS 0x22 KECCAK256 PUSH7 0x696C6C3D227768 PUSH10 0x7465222066696C6C2D6F PUSH17 0x61636974793D22302E3035222F3E3C7061 PUSH21 0x682069643D227032332220643D224D313831203132 CALLDATASIZE 0x4C BALANCE CODESIZE CALLVALUE KECCAK256 BALANCE ORIGIN CALLER 0x4C BALANCE CODESIZE CALLDATACOPY KECCAK256 BALANCE ORIGIN CALLDATASIZE JUMP BALANCE CALLVALUE CALLDATASIZE 0x4C BALANCE CODESIZE CALLVALUE KECCAK256 BALANCE CALLVALUE CODECOPY 0x4C BALANCE CODESIZE BALANCE KECCAK256 BALANCE CALLVALUE CALLDATASIZE JUMP BALANCE ORIGIN CALLDATASIZE GAS 0x22 KECCAK256 PUSH7 0x696C6C3D227768 PUSH10 0x7465222066696C6C2D6F PUSH17 0x61636974793D22302E3035222F3E3C7061 PUSH21 0x682069643D227032342220643D224D313830203134 CALLDATACOPY 0x4C BALANCE CODESIZE CALLER KECCAK256 BALANCE CALLDATALOAD ADDRESS 0x4C BALANCE CODESIZE ADDRESS KECCAK256 BALANCE CALLDATALOAD CALLER 0x4C BALANCE CALLDATASIZE ADDRESS KECCAK256 BALANCE CALLDATALOAD CALLER 0x4C BALANCE CALLDATALOAD CALLDATACOPY KECCAK256 BALANCE CALLDATALOAD ADDRESS 0x4C BALANCE CALLDATASIZE ADDRESS KECCAK256 BALANCE CALLVALUE CALLDATACOPY 0x4C BALANCE CODESIZE ADDRESS KECCAK256 BALANCE CALLVALUE CALLDATACOPY GAS 0x22 KECCAK256 PUSH7 0x696C6C3D227768 PUSH10 0x7465222066696C6C2D6F PUSH17 0x61636974793D22302E3035222F3E3C7061 PUSH21 0x682069643D227032352220643D224D313533203135 CALLVALUE 0x4C BALANCE CALLDATALOAD CALLDATASIZE KECCAK256 BALANCE CALLDATALOAD BALANCE 0x4C BALANCE CALLDATALOAD CODECOPY KECCAK256 BALANCE CALLDATALOAD CALLVALUE JUMP BALANCE CALLDATACOPY CALLVALUE 0x4C BALANCE CALLDATALOAD CALLDATASIZE KECCAK256 BALANCE CALLDATACOPY CALLDATACOPY 0x4C BALANCE CALLDATALOAD CALLER KECCAK256 BALANCE CALLDATACOPY CALLVALUE JUMP BALANCE CALLDATALOAD CALLVALUE GAS 0x22 KECCAK256 PUSH7 0x696C6C3D227768 PUSH10 0x7465222066696C6C2D6F PUSH17 0x61636974793D22302E3035222F3E3C7061 PUSH21 0x682069643D227032362220643D224D313831203135 CALLVALUE 0x4C BALANCE CODESIZE CALLVALUE KECCAK256 BALANCE CALLDATALOAD BALANCE 0x4C BALANCE CODESIZE CALLDATACOPY KECCAK256 BALANCE CALLDATALOAD CALLVALUE JUMP BALANCE CALLDATACOPY CALLVALUE 0x4C BALANCE CODESIZE CALLVALUE KECCAK256 BALANCE CALLDATACOPY CALLDATACOPY 0x4C BALANCE CODESIZE BALANCE KECCAK256 BALANCE CALLDATACOPY CALLVALUE JUMP BALANCE CALLDATALOAD CALLVALUE GAS 0x22 KECCAK256 PUSH7 0x696C6C3D227768 PUSH10 0x7465222066696C6C2D6F PUSH17 0x61636974793D22302E3035222F3E3C7061 PUSH21 0x682069643D227032372220643D224D313830203137 CALLDATALOAD 0x4C BALANCE CODESIZE CALLER KECCAK256 BALANCE CALLDATACOPY CODESIZE 0x4C BALANCE CODESIZE ADDRESS KECCAK256 BALANCE CODESIZE BALANCE 0x4C BALANCE CALLDATASIZE ADDRESS KECCAK256 BALANCE CODESIZE BALANCE 0x4C BALANCE CALLDATALOAD CALLDATACOPY KECCAK256 BALANCE CALLDATACOPY CODESIZE 0x4C BALANCE CALLDATASIZE ADDRESS KECCAK256 BALANCE CALLDATACOPY CALLDATALOAD 0x4C BALANCE CODESIZE ADDRESS KECCAK256 BALANCE CALLDATACOPY CALLDATALOAD GAS 0x22 KECCAK256 PUSH7 0x696C6C3D227768 PUSH10 0x7465222066696C6C2D6F PUSH17 0x61636974793D22302E3035222F3E3C7061 PUSH21 0x682069643D227033312220643D224D323230203131 CODECOPY 0x4C ORIGIN ORIGIN CALLER KECCAK256 BALANCE ORIGIN ORIGIN 0x4C ORIGIN ORIGIN ADDRESS KECCAK256 BALANCE ORIGIN CALLDATALOAD 0x4C ORIGIN ADDRESS ADDRESS KECCAK256 BALANCE ORIGIN CALLDATALOAD 0x4C BALANCE CODECOPY CALLDATACOPY KECCAK256 BALANCE ORIGIN ORIGIN 0x4C ORIGIN ADDRESS ADDRESS KECCAK256 BALANCE BALANCE CODECOPY 0x4C ORIGIN ORIGIN ADDRESS KECCAK256 BALANCE BALANCE CODECOPY GAS 0x22 KECCAK256 PUSH7 0x696C6C3D227768 PUSH10 0x7465222066696C6C2D6F PUSH17 0x61636974793D22302E3035222F3E3C7061 PUSH21 0x682069643D227033322220643D224D313933203132 CALLDATASIZE 0x4C BALANCE CODECOPY CALLDATASIZE KECCAK256 BALANCE ORIGIN CALLER 0x4C BALANCE CODECOPY CODECOPY KECCAK256 BALANCE ORIGIN CALLDATASIZE JUMP BALANCE CALLVALUE CALLDATASIZE 0x4C BALANCE CODECOPY CALLDATASIZE KECCAK256 BALANCE CALLVALUE CODECOPY 0x4C BALANCE CODECOPY CALLER KECCAK256 BALANCE CALLVALUE CALLDATASIZE JUMP BALANCE ORIGIN CALLDATASIZE GAS 0x22 KECCAK256 PUSH7 0x696C6C3D227768 PUSH10 0x7465222066696C6C2D6F PUSH17 0x61636974793D22302E3035222F3E3C7061 PUSH21 0x682069643D227033332220643D224D323231203132 CALLDATASIZE 0x4C ORIGIN ORIGIN CALLVALUE KECCAK256 BALANCE ORIGIN CALLER 0x4C ORIGIN ORIGIN CALLDATACOPY KECCAK256 BALANCE ORIGIN CALLDATASIZE JUMP BALANCE CALLVALUE CALLDATASIZE 0x4C ORIGIN ORIGIN CALLVALUE KECCAK256 BALANCE CALLVALUE CODECOPY 0x4C ORIGIN ORIGIN BALANCE KECCAK256 BALANCE CALLVALUE CALLDATASIZE JUMP BALANCE ORIGIN CALLDATASIZE GAS 0x22 KECCAK256 PUSH7 0x696C6C3D227768 PUSH10 0x7465222066696C6C2D6F PUSH17 0x61636974793D22302E3035222F3E3C7061 PUSH21 0x682069643D227033342220643D224D323230203134 CALLDATACOPY 0x4C ORIGIN ORIGIN CALLER KECCAK256 BALANCE CALLDATALOAD ADDRESS 0x4C ORIGIN ORIGIN ADDRESS KECCAK256 BALANCE CALLDATALOAD CALLER 0x4C ORIGIN ADDRESS ADDRESS KECCAK256 BALANCE CALLDATALOAD CALLER 0x4C BALANCE CODECOPY CALLDATACOPY KECCAK256 BALANCE CALLDATALOAD ADDRESS 0x4C ORIGIN ADDRESS ADDRESS KECCAK256 BALANCE CALLVALUE CALLDATACOPY 0x4C ORIGIN ORIGIN ADDRESS KECCAK256 BALANCE CALLVALUE CALLDATACOPY GAS 0x22 KECCAK256 PUSH7 0x696C6C3D227768 PUSH10 0x7465222066696C6C2D6F PUSH17 0x61636974793D22302E3035222F3E3C7061 PUSH21 0x682069643D227033352220643D224D313933203135 CALLVALUE 0x4C BALANCE CODECOPY CALLDATASIZE KECCAK256 BALANCE CALLDATALOAD BALANCE 0x4C BALANCE CODECOPY CODECOPY KECCAK256 BALANCE CALLDATALOAD CALLVALUE JUMP BALANCE CALLDATACOPY CALLVALUE 0x4C BALANCE CODECOPY CALLDATASIZE KECCAK256 BALANCE CALLDATACOPY CALLDATACOPY 0x4C BALANCE CODECOPY CALLER KECCAK256 BALANCE CALLDATACOPY CALLVALUE JUMP BALANCE CALLDATALOAD CALLVALUE GAS 0x22 KECCAK256 PUSH7 0x696C6C3D227768 PUSH10 0x7465222066696C6C2D6F PUSH17 0x61636974793D22302E3035222F3E3C7061 PUSH21 0x682069643D227033362220643D224D323231203135 CALLVALUE 0x4C ORIGIN ORIGIN CALLVALUE KECCAK256 BALANCE CALLDATALOAD BALANCE 0x4C ORIGIN ORIGIN CALLDATACOPY KECCAK256 BALANCE CALLDATALOAD CALLVALUE JUMP BALANCE CALLDATACOPY CALLVALUE 0x4C ORIGIN ORIGIN CALLVALUE KECCAK256 BALANCE CALLDATACOPY CALLDATACOPY 0x4C ORIGIN ORIGIN BALANCE KECCAK256 BALANCE CALLDATACOPY CALLVALUE JUMP BALANCE CALLDATALOAD CALLVALUE GAS 0x22 KECCAK256 PUSH7 0x696C6C3D227768 PUSH10 0x7465222066696C6C2D6F PUSH17 0x61636974793D22302E3035222F3E3C7061 PUSH21 0x682069643D227033372220643D224D323230203137 CALLDATALOAD 0x4C ORIGIN ORIGIN CALLER KECCAK256 BALANCE CALLDATACOPY CODESIZE 0x4C ORIGIN ORIGIN ADDRESS KECCAK256 BALANCE CODESIZE BALANCE 0x4C ORIGIN ADDRESS ADDRESS KECCAK256 BALANCE CODESIZE BALANCE 0x4C BALANCE CODECOPY CALLDATACOPY KECCAK256 BALANCE CALLDATACOPY CODESIZE 0x4C ORIGIN ADDRESS ADDRESS KECCAK256 BALANCE CALLDATACOPY CALLDATALOAD 0x4C ORIGIN ORIGIN ADDRESS KECCAK256 BALANCE CALLDATACOPY CALLDATALOAD GAS 0x22 KECCAK256 PUSH7 0x696C6C3D227768 PUSH10 0x7465222066696C6C2D6F PUSH17 0x61636974793D22302E3035222F3E3C7374 PUSH26 0x6C653EA264697066735822122075B1453BF47A3D8B4F65CC81FC LOG1 0xB0 0xE1 CALLER SLOAD SELFDESTRUCT 0xC6 INVALID STOP 0xC7 STOP 0xF7 0xEC ADDMOD 0xB2 AND 0xE3 0xA7 0xAD PUSH5 0x736F6C6343 STOP ADDMOD SLT STOP CALLER "
		},
		"gasEstimates": {
			"creation": {
				"codeDepositCost": "4909400",
				"executionCost": "infinite",
				"totalCost": "infinite"
			},
			"external": {
				"addFreeMints(address[],uint256)": "infinite",
				"approve(address,uint256)": "infinite",
				"balanceOf(address)": "2971",
				"combine(uint256[])": "infinite",
				"finalMintingBlock()": "2541",
				"freeMint(uint256)": "infinite",
				"freeMintBalance(address)": "2885",
				"getApproved(uint256)": "7412",
				"getMinutesRemaining()": "infinite",
				"getValue(uint256)": "infinite",
				"isApprovedForAll(address,address)": "infinite",
				"isCombinable()": "2561",
				"mint(uint256)": "infinite",
				"mintCount()": "2558",
				"name()": "infinite",
				"owner()": "2590",
				"ownerOf(uint256)": "infinite",
				"price()": "2496",
				"renounceOwnership()": "30509",
				"safeTransferFrom(address,address,uint256)": "infinite",
				"safeTransferFrom(address,address,uint256,bytes)": "infinite",
				"setApprovalForAll(address,bool)": "infinite",
				"supportsInterface(bytes4)": "768",
				"symbol()": "infinite",
				"toggleCombinable()": "28903",
				"tokenURI(uint256)": "infinite",
				"totalSupply()": "4674",
				"transferFrom(address,address,uint256)": "infinite",
				"transferOwnership(address)": "30854",
				"withdraw()": "infinite"
			},
			"internal": {
				"_startTokenId()": "23",
				"handleMint(address,uint256)": "infinite"
			}
		},
		"methodIdentifiers": {
			"addFreeMints(address[],uint256)": "d8c718a8",
			"approve(address,uint256)": "095ea7b3",
			"balanceOf(address)": "70a08231",
			"combine(uint256[])": "25e514c6",
			"finalMintingBlock()": "21cf7ecf",
			"freeMint(uint256)": "7c928fe9",
			"freeMintBalance(address)": "d1d18f50",
			"getApproved(uint256)": "081812fc",
			"getMinutesRemaining()": "a6c56c79",
			"getValue(uint256)": "0ff4c916",
			"isApprovedForAll(address,address)": "e985e9c5",
			"isCombinable()": "37c5fa0d",
			"mint(uint256)": "a0712d68",
			"mintCount()": "9659867e",
			"name()": "06fdde03",
			"owner()": "8da5cb5b",
			"ownerOf(uint256)": "6352211e",
			"price()": "a035b1fe",
			"renounceOwnership()": "715018a6",
			"safeTransferFrom(address,address,uint256)": "42842e0e",
			"safeTransferFrom(address,address,uint256,bytes)": "b88d4fde",
			"setApprovalForAll(address,bool)": "a22cb465",
			"supportsInterface(bytes4)": "01ffc9a7",
			"symbol()": "95d89b41",
			"toggleCombinable()": "b8be6e98",
			"tokenURI(uint256)": "c87b56dd",
			"totalSupply()": "18160ddd",
			"transferFrom(address,address,uint256)": "23b872dd",
			"transferOwnership(address)": "f2fde38b",
			"withdraw()": "3ccfd60b"
		}
	},
	"abi": [
		{
			"inputs": [],
			"stateMutability": "nonpayable",
			"type": "constructor"
		},
		{
			"inputs": [],
			"name": "ApprovalCallerNotOwnerNorApproved",
			"type": "error"
		},
		{
			"inputs": [],
			"name": "ApprovalQueryForNonexistentToken",
			"type": "error"
		},
		{
			"inputs": [],
			"name": "BalanceQueryForZeroAddress",
			"type": "error"
		},
		{
			"inputs": [],
			"name": "MintERC2309QuantityExceedsLimit",
			"type": "error"
		},
		{
			"inputs": [],
			"name": "MintToZeroAddress",
			"type": "error"
		},
		{
			"inputs": [],
			"name": "MintZeroQuantity",
			"type": "error"
		},
		{
			"inputs": [],
			"name": "OwnerQueryForNonexistentToken",
			"type": "error"
		},
		{
			"inputs": [],
			"name": "OwnershipNotInitializedForExtraData",
			"type": "error"
		},
		{
			"inputs": [],
			"name": "TransferCallerNotOwnerNorApproved",
			"type": "error"
		},
		{
			"inputs": [],
			"name": "TransferFromIncorrectOwner",
			"type": "error"
		},
		{
			"inputs": [],
			"name": "TransferToNonERC721ReceiverImplementer",
			"type": "error"
		},
		{
			"inputs": [],
			"name": "TransferToZeroAddress",
			"type": "error"
		},
		{
			"inputs": [],
			"name": "URIQueryForNonexistentToken",
			"type": "error"
		},
		{
			"anonymous": false,
			"inputs": [
				{
					"indexed": true,
					"internalType": "address",
					"name": "owner",
					"type": "address"
				},
				{
					"indexed": true,
					"internalType": "address",
					"name": "approved",
					"type": "address"
				},
				{
					"indexed": true,
					"internalType": "uint256",
					"name": "tokenId",
					"type": "uint256"
				}
			],
			"name": "Approval",
			"type": "event"
		},
		{
			"anonymous": false,
			"inputs": [
				{
					"indexed": true,
					"internalType": "address",
					"name": "owner",
					"type": "address"
				},
				{
					"indexed": true,
					"internalType": "address",
					"name": "operator",
					"type": "address"
				},
				{
					"indexed": false,
					"internalType": "bool",
					"name": "approved",
					"type": "bool"
				}
			],
			"name": "ApprovalForAll",
			"type": "event"
		},
		{
			"anonymous": false,
			"inputs": [
				{
					"indexed": true,
					"internalType": "uint256",
					"name": "fromTokenId",
					"type": "uint256"
				},
				{
					"indexed": false,
					"internalType": "uint256",
					"name": "toTokenId",
					"type": "uint256"
				},
				{
					"indexed": true,
					"internalType": "address",
					"name": "from",
					"type": "address"
				},
				{
					"indexed": true,
					"internalType": "address",
					"name": "to",
					"type": "address"
				}
			],
			"name": "ConsecutiveTransfer",
			"type": "event"
		},
		{
			"anonymous": false,
			"inputs": [
				{
					"indexed": false,
					"internalType": "uint256",
					"name": "_finalBlock",
					"type": "uint256"
				}
			],
			"name": "CountdownExtended",
			"type": "event"
		},
		{
			"anonymous": false,
			"inputs": [
				{
					"indexed": false,
					"internalType": "uint256",
					"name": "_tokenId",
					"type": "uint256"
				}
			],
			"name": "MetadataUpdate",
			"type": "event"
		},
		{
			"anonymous": false,
			"inputs": [
				{
					"indexed": true,
					"internalType": "address",
					"name": "previousOwner",
					"type": "address"
				},
				{
					"indexed": true,
					"internalType": "address",
					"name": "newOwner",
					"type": "address"
				}
			],
			"name": "OwnershipTransferred",
			"type": "event"
		},
		{
			"anonymous": false,
			"inputs": [
				{
					"indexed": true,
					"internalType": "address",
					"name": "from",
					"type": "address"
				},
				{
					"indexed": true,
					"internalType": "address",
					"name": "to",
					"type": "address"
				},
				{
					"indexed": true,
					"internalType": "uint256",
					"name": "tokenId",
					"type": "uint256"
				}
			],
			"name": "Transfer",
			"type": "event"
		},
		{
			"inputs": [
				{
					"internalType": "address[]",
					"name": "addresses",
					"type": "address[]"
				},
				{
					"internalType": "uint256",
					"name": "quantity",
					"type": "uint256"
				}
			],
			"name": "addFreeMints",
			"outputs": [],
			"stateMutability": "nonpayable",
			"type": "function"
		},
		{
			"inputs": [
				{
					"internalType": "address",
					"name": "to",
					"type": "address"
				},
				{
					"internalType": "uint256",
					"name": "tokenId",
					"type": "uint256"
				}
			],
			"name": "approve",
			"outputs": [],
			"stateMutability": "payable",
			"type": "function"
		},
		{
			"inputs": [
				{
					"internalType": "address",
					"name": "owner",
					"type": "address"
				}
			],
			"name": "balanceOf",
			"outputs": [
				{
					"internalType": "uint256",
					"name": "",
					"type": "uint256"
				}
			],
			"stateMutability": "view",
			"type": "function"
		},
		{
			"inputs": [
				{
					"internalType": "uint256[]",
					"name": "tokens",
					"type": "uint256[]"
				}
			],
			"name": "combine",
			"outputs": [],
			"stateMutability": "nonpayable",
			"type": "function"
		},
		{
			"inputs": [],
			"name": "finalMintingBlock",
			"outputs": [
				{
					"internalType": "uint256",
					"name": "",
					"type": "uint256"
				}
			],
			"stateMutability": "view",
			"type": "function"
		},
		{
			"inputs": [
				{
					"internalType": "uint256",
					"name": "quantity",
					"type": "uint256"
				}
			],
			"name": "freeMint",
			"outputs": [],
			"stateMutability": "nonpayable",
			"type": "function"
		},
		{
			"inputs": [
				{
					"internalType": "address",
					"name": "addy",
					"type": "address"
				}
			],
			"name": "freeMintBalance",
			"outputs": [
				{
					"internalType": "uint256",
					"name": "",
					"type": "uint256"
				}
			],
			"stateMutability": "view",
			"type": "function"
		},
		{
			"inputs": [
				{
					"internalType": "uint256",
					"name": "tokenId",
					"type": "uint256"
				}
			],
			"name": "getApproved",
			"outputs": [
				{
					"internalType": "address",
					"name": "",
					"type": "address"
				}
			],
			"stateMutability": "view",
			"type": "function"
		},
		{
			"inputs": [],
			"name": "getMinutesRemaining",
			"outputs": [
				{
					"internalType": "uint256",
					"name": "",
					"type": "uint256"
				}
			],
			"stateMutability": "view",
			"type": "function"
		},
		{
			"inputs": [
				{
					"internalType": "uint256",
					"name": "tokenId",
					"type": "uint256"
				}
			],
			"name": "getValue",
			"outputs": [
				{
					"internalType": "uint256",
					"name": "",
					"type": "uint256"
				}
			],
			"stateMutability": "view",
			"type": "function"
		},
		{
			"inputs": [
				{
					"internalType": "address",
					"name": "owner",
					"type": "address"
				},
				{
					"internalType": "address",
					"name": "operator",
					"type": "address"
				}
			],
			"name": "isApprovedForAll",
			"outputs": [
				{
					"internalType": "bool",
					"name": "",
					"type": "bool"
				}
			],
			"stateMutability": "view",
			"type": "function"
		},
		{
			"inputs": [],
			"name": "isCombinable",
			"outputs": [
				{
					"internalType": "bool",
					"name": "",
					"type": "bool"
				}
			],
			"stateMutability": "view",
			"type": "function"
		},
		{
			"inputs": [
				{
					"internalType": "uint256",
					"name": "quantity",
					"type": "uint256"
				}
			],
			"name": "mint",
			"outputs": [],
			"stateMutability": "payable",
			"type": "function"
		},
		{
			"inputs": [],
			"name": "mintCount",
			"outputs": [
				{
					"internalType": "uint256",
					"name": "",
					"type": "uint256"
				}
			],
			"stateMutability": "view",
			"type": "function"
		},
		{
			"inputs": [],
			"name": "name",
			"outputs": [
				{
					"internalType": "string",
					"name": "",
					"type": "string"
				}
			],
			"stateMutability": "view",
			"type": "function"
		},
		{
			"inputs": [],
			"name": "owner",
			"outputs": [
				{
					"internalType": "address",
					"name": "",
					"type": "address"
				}
			],
			"stateMutability": "view",
			"type": "function"
		},
		{
			"inputs": [
				{
					"internalType": "uint256",
					"name": "tokenId",
					"type": "uint256"
				}
			],
			"name": "ownerOf",
			"outputs": [
				{
					"internalType": "address",
					"name": "",
					"type": "address"
				}
			],
			"stateMutability": "view",
			"type": "function"
		},
		{
			"inputs": [],
			"name": "price",
			"outputs": [
				{
					"internalType": "uint256",
					"name": "",
					"type": "uint256"
				}
			],
			"stateMutability": "view",
			"type": "function"
		},
		{
			"inputs": [],
			"name": "renounceOwnership",
			"outputs": [],
			"stateMutability": "nonpayable",
			"type": "function"
		},
		{
			"inputs": [
				{
					"internalType": "address",
					"name": "from",
					"type": "address"
				},
				{
					"internalType": "address",
					"name": "to",
					"type": "address"
				},
				{
					"internalType": "uint256",
					"name": "tokenId",
					"type": "uint256"
				}
			],
			"name": "safeTransferFrom",
			"outputs": [],
			"stateMutability": "payable",
			"type": "function"
		},
		{
			"inputs": [
				{
					"internalType": "address",
					"name": "from",
					"type": "address"
				},
				{
					"internalType": "address",
					"name": "to",
					"type": "address"
				},
				{
					"internalType": "uint256",
					"name": "tokenId",
					"type": "uint256"
				},
				{
					"internalType": "bytes",
					"name": "_data",
					"type": "bytes"
				}
			],
			"name": "safeTransferFrom",
			"outputs": [],
			"stateMutability": "payable",
			"type": "function"
		},
		{
			"inputs": [
				{
					"internalType": "address",
					"name": "operator",
					"type": "address"
				},
				{
					"internalType": "bool",
					"name": "approved",
					"type": "bool"
				}
			],
			"name": "setApprovalForAll",
			"outputs": [],
			"stateMutability": "nonpayable",
			"type": "function"
		},
		{
			"inputs": [
				{
					"internalType": "bytes4",
					"name": "interfaceId",
					"type": "bytes4"
				}
			],
			"name": "supportsInterface",
			"outputs": [
				{
					"internalType": "bool",
					"name": "",
					"type": "bool"
				}
			],
			"stateMutability": "view",
			"type": "function"
		},
		{
			"inputs": [],
			"name": "symbol",
			"outputs": [
				{
					"internalType": "string",
					"name": "",
					"type": "string"
				}
			],
			"stateMutability": "view",
			"type": "function"
		},
		{
			"inputs": [],
			"name": "toggleCombinable",
			"outputs": [],
			"stateMutability": "nonpayable",
			"type": "function"
		},
		{
			"inputs": [
				{
					"internalType": "uint256",
					"name": "tokenId",
					"type": "uint256"
				}
			],
			"name": "tokenURI",
			"outputs": [
				{
					"internalType": "string",
					"name": "",
					"type": "string"
				}
			],
			"stateMutability": "view",
			"type": "function"
		},
		{
			"inputs": [],
			"name": "totalSupply",
			"outputs": [
				{
					"internalType": "uint256",
					"name": "",
					"type": "uint256"
				}
			],
			"stateMutability": "view",
			"type": "function"
		},
		{
			"inputs": [
				{
					"internalType": "address",
					"name": "from",
					"type": "address"
				},
				{
					"internalType": "address",
					"name": "to",
					"type": "address"
				},
				{
					"internalType": "uint256",
					"name": "tokenId",
					"type": "uint256"
				}
			],
			"name": "transferFrom",
			"outputs": [],
			"stateMutability": "payable",
			"type": "function"
		},
		{
			"inputs": [
				{
					"internalType": "address",
					"name": "newOwner",
					"type": "address"
				}
			],
			"name": "transferOwnership",
			"outputs": [],
			"stateMutability": "nonpayable",
			"type": "function"
		},
		{
			"inputs": [],
			"name": "withdraw",
			"outputs": [],
			"stateMutability": "nonpayable",
			"type": "function"
		}
	]
}