{
	"data": {
		"bytecode": {
			"linkReferences": {},
			"object": "6080604052600f60009054906101000a900473ffffffffffffffffffffffffffffffffffffffff16601160006101000a81548173ffffffffffffffffffffffffffffffffffffffff021916908373ffffffffffffffffffffffffffffffffffffffff160217905550601060009054906101000a900473ffffffffffffffffffffffffffffffffffffffff16601260006101000a81548173ffffffffffffffffffffffffffffffffffffffff021916908373ffffffffffffffffffffffffffffffffffffffff160217905550348015620000d757600080fd5b506040518060400160405280600d81526020017f55494e54532045646974696f6e000000000000000000000000000000000000008152506040518060400160405280600781526020017f55494e54534544000000000000000000000000000000000000000000000000008152508160029081620001559190620004f7565b508060039081620001679190620004f7565b5062000178620001a660201b60201c565b6000819055505050620001a062000194620001af60201b60201c565b620001b760201b60201c565b620005de565b60006001905090565b600033905090565b6000600860009054906101000a900473ffffffffffffffffffffffffffffffffffffffff16905081600860006101000a81548173ffffffffffffffffffffffffffffffffffffffff021916908373ffffffffffffffffffffffffffffffffffffffff1602179055508173ffffffffffffffffffffffffffffffffffffffff168173ffffffffffffffffffffffffffffffffffffffff167f8be0079c531659141344cd1fd0a4f28419497f9722a3daafe3b4186f6b6457e060405160405180910390a35050565b600081519050919050565b7f4e487b7100000000000000000000000000000000000000000000000000000000600052604160045260246000fd5b7f4e487b7100000000000000000000000000000000000000000000000000000000600052602260045260246000fd5b60006002820490506001821680620002ff57607f821691505b602082108103620003155762000314620002b7565b5b50919050565b60008190508160005260206000209050919050565b60006020601f8301049050919050565b600082821b905092915050565b6000600883026200037f7fffffffffffffffffffffffffffffffffffffffffffffffffffffffffffffffff8262000340565b6200038b868362000340565b95508019841693508086168417925050509392505050565b6000819050919050565b6000819050919050565b6000620003d8620003d2620003cc84620003a3565b620003ad565b620003a3565b9050919050565b6000819050919050565b620003f483620003b7565b6200040c6200040382620003df565b8484546200034d565b825550505050565b600090565b6200042362000414565b62000430818484620003e9565b505050565b5b8181101562000458576200044c60008262000419565b60018101905062000436565b5050565b601f821115620004a75762000471816200031b565b6200047c8462000330565b810160208510156200048c578190505b620004a46200049b8562000330565b83018262000435565b50505b505050565b600082821c905092915050565b6000620004cc60001984600802620004ac565b1980831691505092915050565b6000620004e78383620004b9565b9150826002028217905092915050565b62000502826200027d565b67ffffffffffffffff8111156200051e576200051d62000288565b5b6200052a8254620002e6565b620005378282856200045c565b600060209050601f8311600181146200056f57600084156200055a578287015190505b620005668582620004d9565b865550620005d6565b601f1984166200057f866200031b565b60005b82811015620005a95784890151825560018201915060208501945060208101905062000582565b86831015620005c95784890151620005c5601f891682620004b9565b8355505b6001600288020188555050505b505050505050565b615a8e80620005ee6000396000f3fe6080604052600436106102305760003560e01c806370a082311161012e578063a3b04a1f116100ab578063c87b56dd1161006f578063c87b56dd146107f4578063d14d885a14610831578063ddaf39bc1461086e578063e985e9c514610885578063f2fde38b146108c257610230565b8063a3b04a1f14610730578063aaf4389a14610747578063b88d4fde14610772578063bd11f69d1461078e578063bed91971146107cb57610230565b80638f2fc60b116100f25780638f2fc60b1461064d57806395d89b41146106765780639f9f3859146106a1578063a0712d68146106de578063a22cb4651461070757610230565b806370a0823114610566578063715018a6146105a35780637708b2d9146105ba578063829b96cb146105e55780638da5cb5b1461062257610230565b80632a55205a116101bc5780633ccfd60b116101805780633ccfd60b146104a25780633d005713146104b957806342842e0e146104e45780635c27905c146105005780636352211e1461052957610230565b80632a55205a146103bc5780632be09561146103fa57806332783e5b14610411578063354098c11461044e5780633886bbcf1461047757610230565b8063095ea7b311610203578063095ea7b3146103055780630f7ee879146103215780630fd519021461035e57806318160ddd1461037557806323b872dd146103a057610230565b806301ffc9a714610235578063060f8c041461027257806306fdde031461029d578063081812fc146102c8575b600080fd5b34801561024157600080fd5b5061025c60048036038101906102579190612d4a565b6108eb565b6040516102699190612d92565b60405180910390f35b34801561027e57600080fd5b5061028761090d565b6040516102949190612dd0565b60405180910390f35b3480156102a957600080fd5b506102b2610927565b6040516102bf9190612e7b565b60405180910390f35b3480156102d457600080fd5b506102ef60048036038101906102ea9190612ed3565b6109b9565b6040516102fc9190612f41565b60405180910390f35b61031f600480360381019061031a9190612f88565b610a38565b005b34801561032d57600080fd5b5061034860048036038101906103439190612ed3565b610b7c565b6040516103559190612d92565b60405180910390f35b34801561036a57600080fd5b50610373610b9c565b005b34801561038157600080fd5b5061038a610bf2565b6040516103979190612fd7565b60405180910390f35b6103ba60048036038101906103b59190612ff2565b610c09565b005b3480156103c857600080fd5b506103e360048036038101906103de9190613045565b610f2b565b6040516103f1929190613085565b60405180910390f35b34801561040657600080fd5b5061040f611115565b005b34801561041d57600080fd5b50610438600480360381019061043391906131e3565b61118d565b6040516104459190612e7b565b60405180910390f35b34801561045a57600080fd5b506104756004803603810190610470919061322c565b6111b6565b005b34801561048357600080fd5b5061048c611243565b6040516104999190612dd0565b60405180910390f35b3480156104ae57600080fd5b506104b761125d565b005b3480156104c557600080fd5b506104ce6112a5565b6040516104db9190613314565b60405180910390f35b6104fe60048036038101906104f99190612ff2565b61132e565b005b34801561050c57600080fd5b506105276004803603810190610522919061341f565b61134e565b005b34801561053557600080fd5b50610550600480360381019061054b9190612ed3565b6116ef565b60405161055d9190612f41565b60405180910390f35b34801561057257600080fd5b5061058d6004803603810190610588919061322c565b611701565b60405161059a9190612fd7565b60405180910390f35b3480156105af57600080fd5b506105b86117b9565b005b3480156105c657600080fd5b506105cf6117cd565b6040516105dc9190612e7b565b60405180910390f35b3480156105f157600080fd5b5061060c6004803603810190610607919061354f565b61184f565b6040516106199190612e7b565b60405180910390f35b34801561062e57600080fd5b506106376118cf565b6040516106449190612f41565b60405180910390f35b34801561065957600080fd5b50610674600480360381019061066f91906135c1565b6118f9565b005b34801561068257600080fd5b5061068b61190f565b6040516106989190612e7b565b60405180910390f35b3480156106ad57600080fd5b506106c860048036038101906106c39190612ed3565b6119a1565b6040516106d59190612fd7565b60405180910390f35b3480156106ea57600080fd5b5061070560048036038101906107009190612ed3565b611a46565b005b34801561071357600080fd5b5061072e6004803603810190610729919061362d565b611c17565b005b34801561073c57600080fd5b50610745611d22565b005b34801561075357600080fd5b5061075c611d78565b6040516107699190612fd7565b60405180910390f35b61078c6004803603810190610787919061370e565b611d7e565b005b34801561079a57600080fd5b506107b560048036038101906107b09190612ed3565b611df1565b6040516107c291906137a0565b60405180910390f35b3480156107d757600080fd5b506107f260048036038101906107ed919061322c565b611e14565b005b34801561080057600080fd5b5061081b60048036038101906108169190612ed3565b611ea1565b6040516108289190612e7b565b60405180910390f35b34801561083d57600080fd5b50610858600480360381019061085391906137bb565b611f1e565b6040516108659190612e7b565b60405180910390f35b34801561087a57600080fd5b50610883611f92565b005b34801561089157600080fd5b506108ac60048036038101906108a791906137e8565b611fe8565b6040516108b99190612d92565b60405180910390f35b3480156108ce57600080fd5b506108e960048036038101906108e4919061322c565b61207c565b005b60006108f6826120ff565b80610906575061090582612191565b5b9050919050565b600b60089054906101000a900467ffffffffffffffff1681565b60606002805461093690613857565b80601f016020809104026020016040519081016040528092919081815260200182805461096290613857565b80156109af5780601f10610984576101008083540402835291602001916109af565b820191906000526020600020905b81548152906001019060200180831161099257829003601f168201915b5050505050905090565b60006109c48261220b565b6109fa576040517fcf4700e400000000000000000000000000000000000000000000000000000000815260040160405180910390fd5b6006600083815260200190815260200160002060000160009054906101000a900473ffffffffffffffffffffffffffffffffffffffff169050919050565b6000610a43826116ef565b90508073ffffffffffffffffffffffffffffffffffffffff16610a6461226a565b73ffffffffffffffffffffffffffffffffffffffff1614610ac757610a9081610a8b61226a565b611fe8565b610ac6576040517fcfb3b94200000000000000000000000000000000000000000000000000000000815260040160405180910390fd5b5b826006600084815260200190815260200160002060000160006101000a81548173ffffffffffffffffffffffffffffffffffffffff021916908373ffffffffffffffffffffffffffffffffffffffff160217905550818373ffffffffffffffffffffffffffffffffffffffff168273ffffffffffffffffffffffffffffffffffffffff167f8c5be1e5ebec7d5bd14f71427d1e84f3dd0314c0f7b2291e5b200ac8c7c3b92560405160405180910390a4505050565b600e6020528060005260406000206000915054906101000a900460ff1681565b6000600190505b6041811015610bef57610bdc816040518060600160405280600060ff16815260200160ff80168152602001600060ff168152508361134e565b8080610be7906138b7565b915050610ba3565b50565b6000610bfc612272565b6001546000540303905090565b6000610c148261227b565b90508373ffffffffffffffffffffffffffffffffffffffff168173ffffffffffffffffffffffffffffffffffffffff1614610c7b576040517fa114810000000000000000000000000000000000000000000000000000000000815260040160405180910390fd5b600080610c8784612347565b91509150610c9d8187610c9861226a565b61236e565b610ce957610cb286610cad61226a565b611fe8565b610ce8576040517f59c896be00000000000000000000000000000000000000000000000000000000815260040160405180910390fd5b5b600073ffffffffffffffffffffffffffffffffffffffff168573ffffffffffffffffffffffffffffffffffffffff1603610d4f576040517fea553b3400000000000000000000000000000000000000000000000000000000815260040160405180910390fd5b610d5c86868660016123b2565b8015610d6757600082555b600560008773ffffffffffffffffffffffffffffffffffffffff1673ffffffffffffffffffffffffffffffffffffffff168152602001908152602001600020600081546001900391905081905550600560008673ffffffffffffffffffffffffffffffffffffffff1673ffffffffffffffffffffffffffffffffffffffff1681526020019081526020016000206000815460010191905081905550610e3585610e118888876123b8565b7c0200000000000000000000000000000000000000000000000000000000176123e0565b600460008681526020019081526020016000208190555060007c0200000000000000000000000000000000000000000000000000000000841603610ebb5760006001850190506000600460008381526020019081526020016000205403610eb9576000548114610eb8578360046000838152602001908152602001600020819055505b5b505b838573ffffffffffffffffffffffffffffffffffffffff168773ffffffffffffffffffffffffffffffffffffffff167fddf252ad1be2c89b69c2b068fc378daa952ba7f163c4a11628f55a4df523b3ef60405160405180910390a4610f23868686600161240b565b505050505050565b6000806000600a60008681526020019081526020016000206040518060400160405290816000820160009054906101000a900473ffffffffffffffffffffffffffffffffffffffff1673ffffffffffffffffffffffffffffffffffffffff1673ffffffffffffffffffffffffffffffffffffffff1681526020016000820160149054906101000a90046bffffffffffffffffffffffff166bffffffffffffffffffffffff166bffffffffffffffffffffffff16815250509050600073ffffffffffffffffffffffffffffffffffffffff16816000015173ffffffffffffffffffffffffffffffffffffffff16036110c05760096040518060400160405290816000820160009054906101000a900473ffffffffffffffffffffffffffffffffffffffff1673ffffffffffffffffffffffffffffffffffffffff1673ffffffffffffffffffffffffffffffffffffffff1681526020016000820160149054906101000a90046bffffffffffffffffffffffff166bffffffffffffffffffffffff166bffffffffffffffffffffffff168152505090505b60006110ca612411565b6bffffffffffffffffffffffff1682602001516bffffffffffffffffffffffff16866110f691906138ff565b6111009190613970565b90508160000151819350935050509250929050565b61111d61241b565b620151804261112c91906139a1565b600b60006101000a81548167ffffffffffffffff021916908367ffffffffffffffff1602179055506202a3004261116391906139a1565b600b60086101000a81548167ffffffffffffffff021916908367ffffffffffffffff160217905550565b6060816040516020016111a09190614dd6565b6040516020818303038152906040529050919050565b6111be61241b565b80600f60006101000a81548173ffffffffffffffffffffffffffffffffffffffff021916908373ffffffffffffffffffffffffffffffffffffffff16021790555080601160006101000a81548173ffffffffffffffffffffffffffffffffffffffff021916908373ffffffffffffffffffffffffffffffffffffffff16021790555050565b600b60009054906101000a900467ffffffffffffffff1681565b61126561241b565b3373ffffffffffffffffffffffffffffffffffffffff166108fc479081150290604051600060405180830381858888f193505050506112a357600080fd5b565b6112ad612cbb565b6000600190505b604181101561132a57600d600082815260200190815260200160002060009054906101000a900463ffffffff16826001836112ef9190614e03565b60408110611300576112ff614e37565b5b602002019063ffffffff16908163ffffffff16815250508080611322906138b7565b9150506112b4565b5090565b61134983838360405180602001604052806000815250611d7e565b505050565b60008311801561135e5750604183105b61139d576040517f08c379a000000000000000000000000000000000000000000000000000000000815260040161139490614eb2565b60405180910390fd5b3373ffffffffffffffffffffffffffffffffffffffff16601160009054906101000a900473ffffffffffffffffffffffffffffffffffffffff1673ffffffffffffffffffffffffffffffffffffffff16636352211e836040518263ffffffff1660e01b815260040161140f9190612fd7565b602060405180830381865afa15801561142c573d6000803e3d6000fd5b505050506040513d601f19601f820116820180604052508101906114509190614ee7565b73ffffffffffffffffffffffffffffffffffffffff16146114a6576040517f08c379a000000000000000000000000000000000000000000000000000000000815260040161149d90614f60565b60405180910390fd5b60001515600e600083815260200190815260200160002060009054906101000a900460ff1615151461150d576040517f08c379a000000000000000000000000000000000000000000000000000000000815260040161150490614fcc565b60405180910390fd5b600061151833611701565b11611558576040517f08c379a000000000000000000000000000000000000000000000000000000000815260040161154f9061505e565b60405180910390fd5b60008260026003811061156e5761156d614e37565b5b602002015160ff1660088460016003811061158c5761158b614e37565b5b602002015160ff1663ffffffff16901b6010856000600381106115b2576115b1614e37565b5b602002015160ff1663ffffffff16901b1717905080600d600086815260200190815260200160002060006101000a81548163ffffffff021916908363ffffffff160217905550601260009054906101000a900473ffffffffffffffffffffffffffffffffffffffff1673ffffffffffffffffffffffffffffffffffffffff166310b4b0386001600c5461164591906139a1565b8661164f85611f1e565b3387426040518763ffffffff1660e01b81526004016116739695949392919061507e565b600060405180830381600087803b15801561168d57600080fd5b505af11580156116a1573d6000803e3d6000fd5b50505050600c60008154809291906116b8906138b7565b91905055506001600e600084815260200190815260200160002060006101000a81548160ff02191690831515021790555050505050565b60006116fa8261227b565b9050919050565b60008073ffffffffffffffffffffffffffffffffffffffff168273ffffffffffffffffffffffffffffffffffffffff1603611768576040517f8f4eb60400000000000000000000000000000000000000000000000000000000815260040160405180910390fd5b67ffffffffffffffff600560008473ffffffffffffffffffffffffffffffffffffffff1673ffffffffffffffffffffffffffffffffffffffff16815260200190815260200160002054169050919050565b6117c161241b565b6117cb6000612499565b565b60606000600190505b604181101561184b57816117e98261255f565b611815600d600085815260200190815260200160002060009054906101000a900463ffffffff16611f1e565b604051602001611827939291906151ca565b60405160208183030381529060405291508080611843906138b7565b9150506117d6565b5090565b606060005b60408110156118c9578161187360018361186e91906139a1565b61255f565b61189385846040811061188957611888614e37565b5b6020020151611f1e565b6040516020016118a5939291906151ca565b604051602081830303815290604052915080806118c1906138b7565b915050611854565b50919050565b6000600860009054906101000a900473ffffffffffffffffffffffffffffffffffffffff16905090565b61190161241b565b61190b82826125af565b5050565b60606003805461191e90613857565b80601f016020809104026020016040519081016040528092919081815260200182805461194a90613857565b80156119975780601f1061196c57610100808354040283529160200191611997565b820191906000526020600020905b81548152906001019060200180831161197a57829003601f168201915b5050505050905090565b6000601160009054906101000a900473ffffffffffffffffffffffffffffffffffffffff1673ffffffffffffffffffffffffffffffffffffffff16630ff4c916836040518263ffffffff1660e01b81526004016119fe9190612fd7565b602060405180830381865afa158015611a1b573d6000803e3d6000fd5b505050506040513d601f19601f82011682018060405250810190611a3f9190615231565b9050919050565b600b60009054906101000a900467ffffffffffffffff1667ffffffffffffffff16421015611ba8576000601160009054906101000a900473ffffffffffffffffffffffffffffffffffffffff1673ffffffffffffffffffffffffffffffffffffffff166370a08231336040518263ffffffff1660e01b8152600401611acb9190612f41565b602060405180830381865afa158015611ae8573d6000803e3d6000fd5b505050506040513d601f19601f82011682018060405250810190611b0c9190615231565b11611b4c576040517f08c379a0000000000000000000000000000000000000000000000000000000008152600401611b43906152d0565b60405180910390fd5b600681611b5991906138ff565b600b60088282829054906101000a900467ffffffffffffffff16611b7d91906152f0565b92506101000a81548167ffffffffffffffff021916908367ffffffffffffffff160217905550611c0b565b600b60089054906101000a900467ffffffffffffffff1667ffffffffffffffff164210611c0a576040517f08c379a0000000000000000000000000000000000000000000000000000000008152600401611c0190615378565b60405180910390fd5b5b611c1481612744565b50565b8060076000611c2461226a565b73ffffffffffffffffffffffffffffffffffffffff1673ffffffffffffffffffffffffffffffffffffffff16815260200190815260200160002060008473ffffffffffffffffffffffffffffffffffffffff1673ffffffffffffffffffffffffffffffffffffffff16815260200190815260200160002060006101000a81548160ff0219169083151502179055508173ffffffffffffffffffffffffffffffffffffffff16611cd161226a565b73ffffffffffffffffffffffffffffffffffffffff167f17307eab39ab6107e8899845ad3d59bd9653f200f220920489ca2b5937696c3183604051611d169190612d92565b60405180910390a35050565b6000600190505b6041811015611d7557611d6281604051806060016040528060ff80168152602001600060ff168152602001600060ff168152508361134e565b8080611d6d906138b7565b915050611d29565b50565b600c5481565b611d89848484610c09565b60008373ffffffffffffffffffffffffffffffffffffffff163b14611deb57611db4848484846127c2565b611dea576040517fd1a57ed600000000000000000000000000000000000000000000000000000000815260040160405180910390fd5b5b50505050565b600d6020528060005260406000206000915054906101000a900463ffffffff1681565b611e1c61241b565b80601060006101000a81548173ffffffffffffffffffffffffffffffffffffffff021916908373ffffffffffffffffffffffffffffffffffffffff16021790555080601260006101000a81548173ffffffffffffffffffffffffffffffffffffffff021916908373ffffffffffffffffffffffffffffffffffffffff16021790555050565b60606000611eb5611eb06117cd565b61118d565b90506000611ec28461255f565b611ecb83612912565b604051602001611edc929190615514565b6040516020818303038152906040529050611ef681612912565b604051602001611f0691906155a5565b60405160208183030381529060405292505050919050565b6060600060108363ffffffff16901c9050600060088463ffffffff16901c90506000849050611f4f8360ff1661255f565b611f5b8360ff1661255f565b611f678360ff1661255f565b604051602001611f79939291906156ab565b6040516020818303038152906040529350505050919050565b6000600190505b6041811015611fe557611fd2816040518060600160405280600060ff168152602001600060ff16815260200160ff80168152508361134e565b8080611fdd906138b7565b915050611f99565b50565b6000600760008473ffffffffffffffffffffffffffffffffffffffff1673ffffffffffffffffffffffffffffffffffffffff16815260200190815260200160002060008373ffffffffffffffffffffffffffffffffffffffff1673ffffffffffffffffffffffffffffffffffffffff16815260200190815260200160002060009054906101000a900460ff16905092915050565b61208461241b565b600073ffffffffffffffffffffffffffffffffffffffff168173ffffffffffffffffffffffffffffffffffffffff16036120f3576040517f08c379a00000000000000000000000000000000000000000000000000000000081526004016120ea9061577a565b60405180910390fd5b6120fc81612499565b50565b60006301ffc9a760e01b827bffffffffffffffffffffffffffffffffffffffffffffffffffffffff1916148061215a57506380ac58cd60e01b827bffffffffffffffffffffffffffffffffffffffffffffffffffffffff1916145b8061218a5750635b5e139f60e01b827bffffffffffffffffffffffffffffffffffffffffffffffffffffffff1916145b9050919050565b60007f2a55205a000000000000000000000000000000000000000000000000000000007bffffffffffffffffffffffffffffffffffffffffffffffffffffffff1916827bffffffffffffffffffffffffffffffffffffffffffffffffffffffff19161480612204575061220382612a75565b5b9050919050565b600081612216612272565b11158015612225575060005482105b8015612263575060007c0100000000000000000000000000000000000000000000000000000000600460008581526020019081526020016000205416145b9050919050565b600033905090565b60006001905090565b6000808290508061228a612272565b116123105760005481101561230f5760006004600083815260200190815260200160002054905060007c010000000000000000000000000000000000000000000000000000000082160361230d575b600081036123035760046000836001900393508381526020019081526020016000205490506122d9565b8092505050612342565b505b5b6040517fdf2d9b4200000000000000000000000000000000000000000000000000000000815260040160405180910390fd5b919050565b60008060006006600085815260200190815260200160002090508092508254915050915091565b600073ffffffffffffffffffffffffffffffffffffffff8316925073ffffffffffffffffffffffffffffffffffffffff821691508382148383141790509392505050565b50505050565b60008060e883901c905060e86123cf868684612adf565b62ffffff16901b9150509392505050565b600073ffffffffffffffffffffffffffffffffffffffff83169250814260a01b178317905092915050565b50505050565b6000612710905090565b612423612ae8565b73ffffffffffffffffffffffffffffffffffffffff166124416118cf565b73ffffffffffffffffffffffffffffffffffffffff1614612497576040517f08c379a000000000000000000000000000000000000000000000000000000000815260040161248e906157e6565b60405180910390fd5b565b6000600860009054906101000a900473ffffffffffffffffffffffffffffffffffffffff16905081600860006101000a81548173ffffffffffffffffffffffffffffffffffffffff021916908373ffffffffffffffffffffffffffffffffffffffff1602179055508173ffffffffffffffffffffffffffffffffffffffff168173ffffffffffffffffffffffffffffffffffffffff167f8be0079c531659141344cd1fd0a4f28419497f9722a3daafe3b4186f6b6457e060405160405180910390a35050565b606060a060405101806040526020810391506000825281835b60011561259a57600184039350600a81066030018453600a8104905080612578575b50828103602084039350808452505050919050565b6125b7612411565b6bffffffffffffffffffffffff16816bffffffffffffffffffffffff161115612615576040517f08c379a000000000000000000000000000000000000000000000000000000000815260040161260c90615878565b60405180910390fd5b600073ffffffffffffffffffffffffffffffffffffffff168273ffffffffffffffffffffffffffffffffffffffff1603612684576040517f08c379a000000000000000000000000000000000000000000000000000000000815260040161267b906158e4565b60405180910390fd5b60405180604001604052808373ffffffffffffffffffffffffffffffffffffffff168152602001826bffffffffffffffffffffffff16815250600960008201518160000160006101000a81548173ffffffffffffffffffffffffffffffffffffffff021916908373ffffffffffffffffffffffffffffffffffffffff16021790555060208201518160000160146101000a8154816bffffffffffffffffffffffff02191690836bffffffffffffffffffffffff1602179055509050505050565b601e8111156127b4576000601e8261275c9190613970565b90506000601e8361276d9190615904565b905060005b828110156127985761278533601e612af0565b8080612790906138b7565b915050612772565b5060008111156127ad576127ac3382612af0565b5b50506127bf565b6127be3382612af0565b5b50565b60008373ffffffffffffffffffffffffffffffffffffffff1663150b7a026127e861226a565b8786866040518563ffffffff1660e01b815260040161280a949392919061598a565b6020604051808303816000875af192505050801561284657506040513d601f19601f8201168201806040525081019061284391906159eb565b60015b6128bf573d8060008114612876576040519150601f19603f3d011682016040523d82523d6000602084013e61287b565b606091505b5060008151036128b7576040517fd1a57ed600000000000000000000000000000000000000000000000000000000815260040160405180910390fd5b805181602001fd5b63150b7a0260e01b7bffffffffffffffffffffffffffffffffffffffffffffffffffffffff1916817bffffffffffffffffffffffffffffffffffffffffffffffffffffffff191614915050949350505050565b6060600082510361293457604051806020016040528060008152509050612a70565b6000604051806060016040528060408152602001615a19604091399050600060036002855161296391906139a1565b61296d9190613970565b600461297991906138ff565b67ffffffffffffffff811115612992576129916130b8565b5b6040519080825280601f01601f1916602001820160405280156129c45781602001600182028036833780820191505090505b509050600182016020820185865187015b80821015612a30576003820191508151603f8160121c168501518453600184019350603f81600c1c168501518453600184019350603f8160061c168501518453600184019350603f81168501518453600184019350506129d5565b5050600386510660018114612a4c5760028114612a5f57612a67565b603d6001830353603d6002830353612a67565b603d60018303535b50505080925050505b919050565b60007f01ffc9a7000000000000000000000000000000000000000000000000000000007bffffffffffffffffffffffffffffffffffffffffffffffffffffffff1916827bffffffffffffffffffffffffffffffffffffffffffffffffffffffff1916149050919050565b60009392505050565b600033905090565b60008054905060008203612b30576040517fb562e8dd00000000000000000000000000000000000000000000000000000000815260040160405180910390fd5b612b3d60008483856123b2565b600160406001901b178202600560008573ffffffffffffffffffffffffffffffffffffffff1673ffffffffffffffffffffffffffffffffffffffff16815260200190815260200160002060008282540192505081905550612bb483612ba560008660006123b8565b612bae85612cab565b176123e0565b6004600083815260200190815260200160002081905550600080838301905073ffffffffffffffffffffffffffffffffffffffff85169150828260007fddf252ad1be2c89b69c2b068fc378daa952ba7f163c4a11628f55a4df523b3ef600080a4600183015b818114612c5557808360007fddf252ad1be2c89b69c2b068fc378daa952ba7f163c4a11628f55a4df523b3ef600080a4600181019050612c1a565b5060008203612c90576040517f2e07630000000000000000000000000000000000000000000000000000000000815260040160405180910390fd5b806000819055505050612ca6600084838561240b565b505050565b60006001821460e11b9050919050565b604051806108000160405280604090602082028036833780820191505090505090565b6000604051905090565b600080fd5b600080fd5b60007fffffffff0000000000000000000000000000000000000000000000000000000082169050919050565b612d2781612cf2565b8114612d3257600080fd5b50565b600081359050612d4481612d1e565b92915050565b600060208284031215612d6057612d5f612ce8565b5b6000612d6e84828501612d35565b91505092915050565b60008115159050919050565b612d8c81612d77565b82525050565b6000602082019050612da76000830184612d83565b92915050565b600067ffffffffffffffff82169050919050565b612dca81612dad565b82525050565b6000602082019050612de56000830184612dc1565b92915050565b600081519050919050565b600082825260208201905092915050565b60005b83811015612e25578082015181840152602081019050612e0a565b60008484015250505050565b6000601f19601f8301169050919050565b6000612e4d82612deb565b612e578185612df6565b9350612e67818560208601612e07565b612e7081612e31565b840191505092915050565b60006020820190508181036000830152612e958184612e42565b905092915050565b6000819050919050565b612eb081612e9d565b8114612ebb57600080fd5b50565b600081359050612ecd81612ea7565b92915050565b600060208284031215612ee957612ee8612ce8565b5b6000612ef784828501612ebe565b91505092915050565b600073ffffffffffffffffffffffffffffffffffffffff82169050919050565b6000612f2b82612f00565b9050919050565b612f3b81612f20565b82525050565b6000602082019050612f566000830184612f32565b92915050565b612f6581612f20565b8114612f7057600080fd5b50565b600081359050612f8281612f5c565b92915050565b60008060408385031215612f9f57612f9e612ce8565b5b6000612fad85828601612f73565b9250506020612fbe85828601612ebe565b9150509250929050565b612fd181612e9d565b82525050565b6000602082019050612fec6000830184612fc8565b92915050565b60008060006060848603121561300b5761300a612ce8565b5b600061301986828701612f73565b935050602061302a86828701612f73565b925050604061303b86828701612ebe565b9150509250925092565b6000806040838503121561305c5761305b612ce8565b5b600061306a85828601612ebe565b925050602061307b85828601612ebe565b9150509250929050565b600060408201905061309a6000830185612f32565b6130a76020830184612fc8565b9392505050565b600080fd5b600080fd5b7f4e487b7100000000000000000000000000000000000000000000000000000000600052604160045260246000fd5b6130f082612e31565b810181811067ffffffffffffffff8211171561310f5761310e6130b8565b5b80604052505050565b6000613122612cde565b905061312e82826130e7565b919050565b600067ffffffffffffffff82111561314e5761314d6130b8565b5b61315782612e31565b9050602081019050919050565b82818337600083830152505050565b600061318661318184613133565b613118565b9050828152602081018484840111156131a2576131a16130b3565b5b6131ad848285613164565b509392505050565b600082601f8301126131ca576131c96130ae565b5b81356131da848260208601613173565b91505092915050565b6000602082840312156131f9576131f8612ce8565b5b600082013567ffffffffffffffff81111561321757613216612ced565b5b613223848285016131b5565b91505092915050565b60006020828403121561324257613241612ce8565b5b600061325084828501612f73565b91505092915050565b600060409050919050565b600081905092915050565b6000819050919050565b600063ffffffff82169050919050565b61329281613279565b82525050565b60006132a48383613289565b60208301905092915050565b6000602082019050919050565b6132c681613259565b6132d08184613264565b92506132db8261326f565b8060005b8381101561330c5781516132f38782613298565b96506132fe836132b0565b9250506001810190506132df565b505050505050565b60006108008201905061332a60008301846132bd565b92915050565b600067ffffffffffffffff82111561334b5761334a6130b8565b5b602082029050919050565b600080fd5b600060ff82169050919050565b6133718161335b565b811461337c57600080fd5b50565b60008135905061338e81613368565b92915050565b60006133a76133a284613330565b613118565b905080602084028301858111156133c1576133c0613356565b5b835b818110156133ea57806133d6888261337f565b8452602084019350506020810190506133c3565b5050509392505050565b600082601f830112613409576134086130ae565b5b6003613416848285613394565b91505092915050565b600080600060a0848603121561343857613437612ce8565b5b600061344686828701612ebe565b9350506020613457868287016133f4565b925050608061346886828701612ebe565b9150509250925092565b600067ffffffffffffffff82111561348d5761348c6130b8565b5b602082029050919050565b6134a181613279565b81146134ac57600080fd5b50565b6000813590506134be81613498565b92915050565b60006134d76134d284613472565b613118565b905080602084028301858111156134f1576134f0613356565b5b835b8181101561351a578061350688826134af565b8452602084019350506020810190506134f3565b5050509392505050565b600082601f830112613539576135386130ae565b5b60406135468482856134c4565b91505092915050565b6000610800828403121561356657613565612ce8565b5b600061357484828501613524565b91505092915050565b60006bffffffffffffffffffffffff82169050919050565b61359e8161357d565b81146135a957600080fd5b50565b6000813590506135bb81613595565b92915050565b600080604083850312156135d8576135d7612ce8565b5b60006135e685828601612f73565b92505060206135f7858286016135ac565b9150509250929050565b61360a81612d77565b811461361557600080fd5b50565b60008135905061362781613601565b92915050565b6000806040838503121561364457613643612ce8565b5b600061365285828601612f73565b925050602061366385828601613618565b9150509250929050565b600067ffffffffffffffff821115613688576136876130b8565b5b61369182612e31565b9050602081019050919050565b60006136b16136ac8461366d565b613118565b9050828152602081018484840111156136cd576136cc6130b3565b5b6136d8848285613164565b509392505050565b600082601f8301126136f5576136f46130ae565b5b813561370584826020860161369e565b91505092915050565b6000806000806080858703121561372857613727612ce8565b5b600061373687828801612f73565b945050602061374787828801612f73565b935050604061375887828801612ebe565b925050606085013567ffffffffffffffff81111561377957613778612ced565b5b613785878288016136e0565b91505092959194509250565b61379a81613279565b82525050565b60006020820190506137b56000830184613791565b92915050565b6000602082840312156137d1576137d0612ce8565b5b60006137df848285016134af565b91505092915050565b600080604083850312156137ff576137fe612ce8565b5b600061380d85828601612f73565b925050602061381e85828601612f73565b9150509250929050565b7f4e487b7100000000000000000000000000000000000000000000000000000000600052602260045260246000fd5b6000600282049050600182168061386f57607f821691505b60208210810361388257613881613828565b5b50919050565b7f4e487b7100000000000000000000000000000000000000000000000000000000600052601160045260246000fd5b60006138c282612e9d565b91507fffffffffffffffffffffffffffffffffffffffffffffffffffffffffffffffff82036138f4576138f3613888565b5b600182019050919050565b600061390a82612e9d565b915061391583612e9d565b925082820261392381612e9d565b9150828204841483151761393a57613939613888565b5b5092915050565b7f4e487b7100000000000000000000000000000000000000000000000000000000600052601260045260246000fd5b600061397b82612e9d565b915061398683612e9d565b92508261399657613995613941565b5b828204905092915050565b60006139ac82612e9d565b91506139b783612e9d565b92508282019050808211156139cf576139ce613888565b5b92915050565b600081905092915050565b7f3c7376672077696474683d2238343022206865696768743d223834302220766960008201527f6577426f783d22302030203134203134222066696c6c3d226e6f6e652220786d60208201527f6c6e733d22687474703a2f2f7777772e77332e6f72672f323030302f7376672260408201527f3e3c726563742077696474683d22313422206865696768743d2231342220666960608201527f6c6c3d2223304330433043222f3e3c6720636c6173733d2274696c6573223e3c60808201527f726563742069643d2270312220783d22332220793d2233222066696c6c3d222360a08201527f666666222f3e3c726563742069643d2270322220783d22342220793d2233222060c08201527f66696c6c3d2223666666222f3e3c726563742069643d2270332220783d22352260e08201527f20793d2233222066696c6c3d2223666666222f3e3c726563742069643d2270346101008201527f2220783d22362220793d2233222066696c6c3d2223666666222f3e3c726563746101208201527f2069643d2270352220783d22372220793d2233222066696c6c3d2223666666226101408201527f2f3e3c726563742069643d2270362220783d22382220793d2233222066696c6c6101608201527f3d2223666666222f3e3c726563742069643d2270372220783d22392220793d226101808201527f33222066696c6c3d2223666666222f3e3c726563742069643d2270382220783d6101a08201527f2231302220793d2233222066696c6c3d2223666666222f3e3c726563742069646101c08201527f3d2270392220783d22332220793d2234222066696c6c3d2223666666222f3e3c6101e08201527f726563742069643d227031302220783d22342220793d2234222066696c6c3d226102008201527f23666666222f3e3c726563742069643d227031312220783d22352220793d22346102208201527f222066696c6c3d2223666666222f3e3c726563742069643d227031322220783d6102408201527f22362220793d2234222066696c6c3d2223666666222f3e3c726563742069643d6102608201527f227031332220783d22372220793d2234222066696c6c3d2223666666222f3e3c6102808201527f726563742069643d227031342220783d22382220793d2234222066696c6c3d226102a08201527f23666666222f3e3c726563742069643d227031352220783d22392220793d22346102c08201527f222066696c6c3d2223666666222f3e3c726563742069643d227031362220783d6102e08201527f2231302220793d2234222066696c6c3d2223666666222f3e3c726563742069646103008201527f3d227031372220783d22332220793d2235222066696c6c3d2223666666222f3e6103208201527f3c726563742069643d227031382220783d22342220793d2235222066696c6c3d6103408201527f2223666666222f3e3c726563742069643d227031392220783d22352220793d226103608201527f35222066696c6c3d2223666666222f3e3c726563742069643d227032302220786103808201527f3d22362220793d2235222066696c6c3d2223666666222f3e3c726563742069646103a08201527f3d227032312220783d22372220793d2235222066696c6c3d2223666666222f3e6103c08201527f3c726563742069643d227032322220783d22382220793d2235222066696c6c3d6103e08201527f2223666666222f3e3c726563742069643d227032332220783d22392220793d226104008201527f35222066696c6c3d2223666666222f3e3c726563742069643d227032342220786104208201527f3d2231302220793d2235222066696c6c3d2223666666222f3e3c7265637420696104408201527f643d227032352220783d22332220793d2236222066696c6c3d2223666666222f6104608201527f3e3c726563742069643d227032362220783d22342220793d2236222066696c6c6104808201527f3d2223666666222f3e3c726563742069643d227032372220783d22352220793d6104a08201527f2236222066696c6c3d2223666666222f3e3c726563742069643d2270323822206104c08201527f783d22362220793d2236222066696c6c3d2223666666222f3e3c7265637420696104e08201527f643d227032392220783d22372220793d2236222066696c6c3d2223666666222f6105008201527f3e3c726563742069643d227033302220783d22382220793d2236222066696c6c6105208201527f3d2223666666222f3e3c726563742069643d227033312220783d22392220793d6105408201527f2236222066696c6c3d2223666666222f3e3c726563742069643d2270333222206105608201527f783d2231302220793d2236222066696c6c3d2223666666222f3e3c72656374206105808201527f69643d227033332220783d22332220793d2237222066696c6c3d2223666666226105a08201527f2f3e3c726563742069643d227033342220783d22342220793d2237222066696c6105c08201527f6c3d2223666666222f3e3c726563742069643d227033352220783d22352220796105e08201527f3d2237222066696c6c3d2223666666222f3e3c726563742069643d22703336226106008201527f20783d22362220793d2237222066696c6c3d2223666666222f3e3c72656374206106208201527f69643d227033372220783d22372220793d2237222066696c6c3d2223666666226106408201527f2f3e3c726563742069643d227033382220783d22382220793d2237222066696c6106608201527f6c3d2223666666222f3e3c726563742069643d227033392220783d22392220796106808201527f3d2237222066696c6c3d2223666666222f3e3c726563742069643d22703430226106a08201527f20783d2231302220793d2237222066696c6c3d2223666666222f3e3c726563746106c08201527f2069643d227034312220783d22332220793d2238222066696c6c3d22236666666106e08201527f222f3e3c726563742069643d227034322220783d22342220793d2238222066696107008201527f6c6c3d2223666666222f3e3c726563742069643d227034332220783d223522206107208201527f793d2238222066696c6c3d2223666666222f3e3c726563742069643d227034346107408201527f2220783d22362220793d2238222066696c6c3d2223666666222f3e3c726563746107608201527f2069643d227034352220783d22372220793d2238222066696c6c3d22236666666107808201527f222f3e3c726563742069643d227034362220783d22382220793d2238222066696107a08201527f6c6c3d2223666666222f3e3c726563742069643d227034372220783d223922206107c08201527f793d2238222066696c6c3d2223666666222f3e3c726563742069643d227034386107e08201527f2220783d2231302220793d2238222066696c6c3d2223666666222f3e3c7265636108008201527f742069643d227034392220783d22332220793d2239222066696c6c3d222366666108208201527f66222f3e3c726563742069643d227035302220783d22342220793d22392220666108408201527f696c6c3d2223666666222f3e3c726563742069643d227035312220783d2235226108608201527f20793d2239222066696c6c3d2223666666222f3e3c726563742069643d2270356108808201527f322220783d22362220793d2239222066696c6c3d2223666666222f3e3c7265636108a08201527f742069643d227035332220783d22372220793d2239222066696c6c3d222366666108c08201527f66222f3e3c726563742069643d227035342220783d22382220793d22392220666108e08201527f696c6c3d2223666666222f3e3c726563742069643d227035352220783d2239226109008201527f20793d2239222066696c6c3d2223666666222f3e3c726563742069643d2270356109208201527f362220783d2231302220793d2239222066696c6c3d2223666666222f3e3c72656109408201527f63742069643d227035372220783d22332220793d223130222066696c6c3d22236109608201527f666666222f3e3c726563742069643d227035382220783d22342220793d2231306109808201527f222066696c6c3d2223666666222f3e3c726563742069643d227035392220783d6109a08201527f22352220793d223130222066696c6c3d2223666666222f3e3c726563742069646109c08201527f3d227036302220783d22362220793d223130222066696c6c3d2223666666222f6109e08201527f3e3c726563742069643d227036312220783d22372220793d223130222066696c610a008201527f6c3d2223666666222f3e3c726563742069643d227036322220783d2238222079610a208201527f3d223130222066696c6c3d2223666666222f3e3c726563742069643d22703633610a408201527f2220783d22392220793d223130222066696c6c3d2223666666222f3e3c726563610a608201527f742069643d227036342220783d2231302220793d223130222066696c6c3d2223610a808201527f666666222f3e3c2f673e3c6720636c6173733d2267726964223e3c6c696e6520610aa08201527f78313d22312e303035222079313d222d322e3138353537652d3130222078323d610ac08201527f22312e303035222079323d223134222f3e3c6c696e652078313d22322e303035610ae08201527f222079313d222d322e3138353537652d3130222078323d22322e303035222079610b008201527f323d223134222f3e3c6c696e652078313d22332e303035222079313d222d322e610b208201527f3138353537652d3130222078323d22332e303035222079323d223134222f3e3c610b408201527f6c696e652078313d22342e303035222079313d222d322e3138353537652d3130610b608201527f222078323d22342e303035222079323d223134222f3e3c6c696e652078313d22610b808201527f352e303035222079313d222d322e3138353537652d3130222078323d22352e30610ba08201527f3035222079323d223134222f3e3c6c696e652078313d22362e30303522207931610bc08201527f3d222d322e3138353537652d3130222078323d22362e303035222079323d2231610be08201527f34222f3e3c6c696e652078313d22372e303035222079313d222d322e31383535610c008201527f37652d3130222078323d22372e303035222079323d223134222f3e3c6c696e65610c208201527f2078313d22382e303035222079313d222d322e3138353537652d313022207832610c408201527f3d22382e303035222079323d223134222f3e3c6c696e652078313d22392e3030610c608201527f35222079313d222d322e3138353537652d3130222078323d22392e3030352220610c808201527f79323d223134222f3e3c6c696e652078313d2231302e303035222079313d222d610ca08201527f322e3138353537652d3130222078323d2231302e303035222079323d22313422610cc08201527f2f3e3c6c696e652078313d2231312e303035222079313d222d322e3138353537610ce08201527f652d3130222078323d2231312e303035222079323d223134222f3e3c6c696e65610d008201527f2078313d2231322e303035222079313d222d322e3138353537652d3130222078610d208201527f323d2231322e303035222079323d223134222f3e3c6c696e652078313d223133610d408201527f2e303035222079313d222d322e3138353537652d3130222078323d2231332e30610d608201527f3035222079323d223134222f3e3c6c696e652078313d223134222079313d2231610d808201527f2e303035222079323d22312e303035222f3e3c6c696e652078313d2231342220610da08201527f79313d22322e303035222079323d22322e303035222f3e3c6c696e652078313d610dc08201527f223134222079313d22332e303035222079323d22332e303035222f3e3c6c696e610de08201527f652078313d223134222079313d22342e303035222079323d22342e303035222f610e008201527f3e3c6c696e652078313d223134222079313d22352e303035222079323d22352e610e208201527f303035222f3e3c6c696e652078313d223134222079313d22362e303035222079610e408201527f323d22362e303035222f3e3c6c696e652078313d223134222079313d22372e30610e608201527f3035222079323d22372e303035222f3e3c6c696e652078313d22313422207931610e808201527f3d22382e303035222079323d22382e303035222f3e3c6c696e652078313d2231610ea08201527f34222079313d22392e303035222079323d22392e303035222f3e3c6c696e6520610ec08201527f78313d223134222079313d2231302e303035222079323d2231302e303035222f610ee08201527f3e3c6c696e652078313d223134222079313d2231312e303035222079323d2231610f008201527f312e303035222f3e3c6c696e652078313d223134222079313d2231322e303035610f208201527f222079323d2231322e303035222f3e3c6c696e652078313d223134222079313d610f408201527f2231332e303035222079323d2231332e303035222f3e3c2f673e3c7374796c65610f608201527f3e2e74696c657320726563747b77696474683a3170783b6865696768743a3170610f808201527f783b7d2e677269647b7374726f6b653a233232323b7374726f6b652d77696474610fa08201527f683a2e30313b7d00000000000000000000000000000000000000000000000000610fc082015250565b6000614d42610fc7836139d5565b9150614d4d826139e0565b610fc782019050919050565b6000614d6482612deb565b614d6e81856139d5565b9350614d7e818560208601612e07565b80840191505092915050565b7f3c2f7374796c653e3c2f7376673e000000000000000000000000000000000000600082015250565b6000614dc0600e836139d5565b9150614dcb82614d8a565b600e82019050919050565b6000614de182614d34565b9150614ded8284614d59565b9150614df882614db3565b915081905092915050565b6000614e0e82612e9d565b9150614e1983612e9d565b9250828203905081811115614e3157614e30613888565b5b92915050565b7f4e487b7100000000000000000000000000000000000000000000000000000000600052603260045260246000fd5b7f496e76616c696420706f736974696f6e00000000000000000000000000000000600082015250565b6000614e9c601083612df6565b9150614ea782614e66565b602082019050919050565b60006020820190508181036000830152614ecb81614e8f565b9050919050565b600081519050614ee181612f5c565b92915050565b600060208284031215614efd57614efc612ce8565b5b6000614f0b84828501614ed2565b91505092915050565b7f55494e5453206e6f74206f776e65640000000000000000000000000000000000600082015250565b6000614f4a600f83612df6565b9150614f5582614f14565b602082019050919050565b60006020820190508181036000830152614f7981614f3d565b9050919050565b7f55494e545320616c726561647920757365640000000000000000000000000000600082015250565b6000614fb6601283612df6565b9150614fc182614f80565b602082019050919050565b60006020820190508181036000830152614fe581614fa9565b9050919050565b7f4d757374206f776e206174206c6561737420312055494e54532045646974696f60008201527f6e00000000000000000000000000000000000000000000000000000000000000602082015250565b6000615048602183612df6565b915061505382614fec565b604082019050919050565b600060208201905081810360008301526150778161503b565b9050919050565b600060c0820190506150936000830189612fc8565b6150a06020830188612fc8565b81810360408301526150b28187612e42565b90506150c16060830186612f32565b6150ce6080830185612fc8565b6150db60a0830184612fc8565b979650505050505050565b7f2370000000000000000000000000000000000000000000000000000000000000600082015250565b600061511c6002836139d5565b9150615127826150e6565b600282019050919050565b7f7b66696c6c3a0000000000000000000000000000000000000000000000000000600082015250565b60006151686006836139d5565b915061517382615132565b600682019050919050565b7f7d00000000000000000000000000000000000000000000000000000000000000600082015250565b60006151b46001836139d5565b91506151bf8261517e565b600182019050919050565b60006151d68286614d59565b91506151e18261510f565b91506151ed8285614d59565b91506151f88261515b565b91506152048284614d59565b915061520f826151a7565b9150819050949350505050565b60008151905061522b81612ea7565b92915050565b60006020828403121561524757615246612ce8565b5b60006152558482850161521c565b91505092915050565b7f4d757374206f776e2055494e545320647572696e672070726976617465206d6960008201527f6e74207068617365000000000000000000000000000000000000000000000000602082015250565b60006152ba602883612df6565b91506152c58261525e565b604082019050919050565b600060208201905081810360008301526152e9816152ad565b9050919050565b60006152fb82612dad565b915061530683612dad565b9250828203905067ffffffffffffffff81111561532657615325613888565b5b92915050565b7f4d696e742068617320636c6f7365640000000000000000000000000000000000600082015250565b6000615362600f83612df6565b915061536d8261532c565b602082019050919050565b6000602082019050818103600083015261539181615355565b9050919050565b7f7b226e616d65223a202255494e54532045646974696f6e200000000000000000600082015250565b60006153ce6018836139d5565b91506153d982615398565b601882019050919050565b7f222c20226465736372697074696f6e223a202255494e54532045646974696f6e60008201527f2067697665732055494e545320686f6c646572732074686520706f776572207460208201527f6f206d616b65207570646174657320746f206f6e2d636861696e20617274776f60408201527f726b2e222c2022696d616765223a2022646174613a696d6167652f7376672b7860608201527f6d6c3b6261736536342c00000000000000000000000000000000000000000000608082015250565b60006154b2608a836139d5565b91506154bd826153e4565b608a82019050919050565b7f227d000000000000000000000000000000000000000000000000000000000000600082015250565b60006154fe6002836139d5565b9150615509826154c8565b600282019050919050565b600061551f826153c1565b915061552b8285614d59565b9150615536826154a5565b91506155428284614d59565b915061554d826154f1565b91508190509392505050565b7f646174613a6170706c69636174696f6e2f6a736f6e3b6261736536342c000000600082015250565b600061558f601d836139d5565b915061559a82615559565b601d82019050919050565b60006155b082615582565b91506155bc8284614d59565b915081905092915050565b7f5247422800000000000000000000000000000000000000000000000000000000600082015250565b60006155fd6004836139d5565b9150615608826155c7565b600482019050919050565b7f2c00000000000000000000000000000000000000000000000000000000000000600082015250565b60006156496001836139d5565b915061565482615613565b600182019050919050565b7f2900000000000000000000000000000000000000000000000000000000000000600082015250565b60006156956001836139d5565b91506156a08261565f565b600182019050919050565b60006156b6826155f0565b91506156c28286614d59565b91506156cd8261563c565b91506156d98285614d59565b91506156e48261563c565b91506156f08284614d59565b91506156fb82615688565b9150819050949350505050565b7f4f776e61626c653a206e6577206f776e657220697320746865207a65726f206160008201527f6464726573730000000000000000000000000000000000000000000000000000602082015250565b6000615764602683612df6565b915061576f82615708565b604082019050919050565b6000602082019050818103600083015261579381615757565b9050919050565b7f4f776e61626c653a2063616c6c6572206973206e6f7420746865206f776e6572600082015250565b60006157d0602083612df6565b91506157db8261579a565b602082019050919050565b600060208201905081810360008301526157ff816157c3565b9050919050565b7f455243323938313a20726f79616c7479206665652077696c6c2065786365656460008201527f2073616c65507269636500000000000000000000000000000000000000000000602082015250565b6000615862602a83612df6565b915061586d82615806565b604082019050919050565b6000602082019050818103600083015261589181615855565b9050919050565b7f455243323938313a20696e76616c696420726563656976657200000000000000600082015250565b60006158ce601983612df6565b91506158d982615898565b602082019050919050565b600060208201905081810360008301526158fd816158c1565b9050919050565b600061590f82612e9d565b915061591a83612e9d565b92508261592a57615929613941565b5b828206905092915050565b600081519050919050565b600082825260208201905092915050565b600061595c82615935565b6159668185615940565b9350615976818560208601612e07565b61597f81612e31565b840191505092915050565b600060808201905061599f6000830187612f32565b6159ac6020830186612f32565b6159b96040830185612fc8565b81810360608301526159cb8184615951565b905095945050505050565b6000815190506159e581612d1e565b92915050565b600060208284031215615a0157615a00612ce8565b5b6000615a0f848285016159d6565b9150509291505056fe4142434445464748494a4b4c4d4e4f505152535455565758595a6162636465666768696a6b6c6d6e6f707172737475767778797a303132333435363738392b2fa26469706673582212207f570e7cfaf00c4bb8f16385336edf88560c9628a4ce8280dd3b1b939cb7063164736f6c63430008120033",
			"opcodes": "PUSH1 0x80 PUSH1 0x40 MSTORE PUSH1 0xF PUSH1 0x0 SWAP1 SLOAD SWAP1 PUSH2 0x100 EXP SWAP1 DIV PUSH20 0xFFFFFFFFFFFFFFFFFFFFFFFFFFFFFFFFFFFFFFFF AND PUSH1 0x11 PUSH1 0x0 PUSH2 0x100 EXP DUP2 SLOAD DUP2 PUSH20 0xFFFFFFFFFFFFFFFFFFFFFFFFFFFFFFFFFFFFFFFF MUL NOT AND SWAP1 DUP4 PUSH20 0xFFFFFFFFFFFFFFFFFFFFFFFFFFFFFFFFFFFFFFFF AND MUL OR SWAP1 SSTORE POP PUSH1 0x10 PUSH1 0x0 SWAP1 SLOAD SWAP1 PUSH2 0x100 EXP SWAP1 DIV PUSH20 0xFFFFFFFFFFFFFFFFFFFFFFFFFFFFFFFFFFFFFFFF AND PUSH1 0x12 PUSH1 0x0 PUSH2 0x100 EXP DUP2 SLOAD DUP2 PUSH20 0xFFFFFFFFFFFFFFFFFFFFFFFFFFFFFFFFFFFFFFFF MUL NOT AND SWAP1 DUP4 PUSH20 0xFFFFFFFFFFFFFFFFFFFFFFFFFFFFFFFFFFFFFFFF AND MUL OR SWAP1 SSTORE POP CALLVALUE DUP1 ISZERO PUSH3 0xD7 JUMPI PUSH1 0x0 DUP1 REVERT JUMPDEST POP PUSH1 0x40 MLOAD DUP1 PUSH1 0x40 ADD PUSH1 0x40 MSTORE DUP1 PUSH1 0xD DUP2 MSTORE PUSH1 0x20 ADD PUSH32 0x55494E54532045646974696F6E00000000000000000000000000000000000000 DUP2 MSTORE POP PUSH1 0x40 MLOAD DUP1 PUSH1 0x40 ADD PUSH1 0x40 MSTORE DUP1 PUSH1 0x7 DUP2 MSTORE PUSH1 0x20 ADD PUSH32 0x55494E5453454400000000000000000000000000000000000000000000000000 DUP2 MSTORE POP DUP2 PUSH1 0x2 SWAP1 DUP2 PUSH3 0x155 SWAP2 SWAP1 PUSH3 0x4F7 JUMP JUMPDEST POP DUP1 PUSH1 0x3 SWAP1 DUP2 PUSH3 0x167 SWAP2 SWAP1 PUSH3 0x4F7 JUMP JUMPDEST POP PUSH3 0x178 PUSH3 0x1A6 PUSH1 0x20 SHL PUSH1 0x20 SHR JUMP JUMPDEST PUSH1 0x0 DUP2 SWAP1 SSTORE POP POP POP PUSH3 0x1A0 PUSH3 0x194 PUSH3 0x1AF PUSH1 0x20 SHL PUSH1 0x20 SHR JUMP JUMPDEST PUSH3 0x1B7 PUSH1 0x20 SHL PUSH1 0x20 SHR JUMP JUMPDEST PUSH3 0x5DE JUMP JUMPDEST PUSH1 0x0 PUSH1 0x1 SWAP1 POP SWAP1 JUMP JUMPDEST PUSH1 0x0 CALLER SWAP1 POP SWAP1 JUMP JUMPDEST PUSH1 0x0 PUSH1 0x8 PUSH1 0x0 SWAP1 SLOAD SWAP1 PUSH2 0x100 EXP SWAP1 DIV PUSH20 0xFFFFFFFFFFFFFFFFFFFFFFFFFFFFFFFFFFFFFFFF AND SWAP1 POP DUP2 PUSH1 0x8 PUSH1 0x0 PUSH2 0x100 EXP DUP2 SLOAD DUP2 PUSH20 0xFFFFFFFFFFFFFFFFFFFFFFFFFFFFFFFFFFFFFFFF MUL NOT AND SWAP1 DUP4 PUSH20 0xFFFFFFFFFFFFFFFFFFFFFFFFFFFFFFFFFFFFFFFF AND MUL OR SWAP1 SSTORE POP DUP2 PUSH20 0xFFFFFFFFFFFFFFFFFFFFFFFFFFFFFFFFFFFFFFFF AND DUP2 PUSH20 0xFFFFFFFFFFFFFFFFFFFFFFFFFFFFFFFFFFFFFFFF AND PUSH32 0x8BE0079C531659141344CD1FD0A4F28419497F9722A3DAAFE3B4186F6B6457E0 PUSH1 0x40 MLOAD PUSH1 0x40 MLOAD DUP1 SWAP2 SUB SWAP1 LOG3 POP POP JUMP JUMPDEST PUSH1 0x0 DUP2 MLOAD SWAP1 POP SWAP2 SWAP1 POP JUMP JUMPDEST PUSH32 0x4E487B7100000000000000000000000000000000000000000000000000000000 PUSH1 0x0 MSTORE PUSH1 0x41 PUSH1 0x4 MSTORE PUSH1 0x24 PUSH1 0x0 REVERT JUMPDEST PUSH32 0x4E487B7100000000000000000000000000000000000000000000000000000000 PUSH1 0x0 MSTORE PUSH1 0x22 PUSH1 0x4 MSTORE PUSH1 0x24 PUSH1 0x0 REVERT JUMPDEST PUSH1 0x0 PUSH1 0x2 DUP3 DIV SWAP1 POP PUSH1 0x1 DUP3 AND DUP1 PUSH3 0x2FF JUMPI PUSH1 0x7F DUP3 AND SWAP2 POP JUMPDEST PUSH1 0x20 DUP3 LT DUP2 SUB PUSH3 0x315 JUMPI PUSH3 0x314 PUSH3 0x2B7 JUMP JUMPDEST JUMPDEST POP SWAP2 SWAP1 POP JUMP JUMPDEST PUSH1 0x0 DUP2 SWAP1 POP DUP2 PUSH1 0x0 MSTORE PUSH1 0x20 PUSH1 0x0 KECCAK256 SWAP1 POP SWAP2 SWAP1 POP JUMP JUMPDEST PUSH1 0x0 PUSH1 0x20 PUSH1 0x1F DUP4 ADD DIV SWAP1 POP SWAP2 SWAP1 POP JUMP JUMPDEST PUSH1 0x0 DUP3 DUP3 SHL SWAP1 POP SWAP3 SWAP2 POP POP JUMP JUMPDEST PUSH1 0x0 PUSH1 0x8 DUP4 MUL PUSH3 0x37F PUSH32 0xFFFFFFFFFFFFFFFFFFFFFFFFFFFFFFFFFFFFFFFFFFFFFFFFFFFFFFFFFFFFFFFF DUP3 PUSH3 0x340 JUMP JUMPDEST PUSH3 0x38B DUP7 DUP4 PUSH3 0x340 JUMP JUMPDEST SWAP6 POP DUP1 NOT DUP5 AND SWAP4 POP DUP1 DUP7 AND DUP5 OR SWAP3 POP POP POP SWAP4 SWAP3 POP POP POP JUMP JUMPDEST PUSH1 0x0 DUP2 SWAP1 POP SWAP2 SWAP1 POP JUMP JUMPDEST PUSH1 0x0 DUP2 SWAP1 POP SWAP2 SWAP1 POP JUMP JUMPDEST PUSH1 0x0 PUSH3 0x3D8 PUSH3 0x3D2 PUSH3 0x3CC DUP5 PUSH3 0x3A3 JUMP JUMPDEST PUSH3 0x3AD JUMP JUMPDEST PUSH3 0x3A3 JUMP JUMPDEST SWAP1 POP SWAP2 SWAP1 POP JUMP JUMPDEST PUSH1 0x0 DUP2 SWAP1 POP SWAP2 SWAP1 POP JUMP JUMPDEST PUSH3 0x3F4 DUP4 PUSH3 0x3B7 JUMP JUMPDEST PUSH3 0x40C PUSH3 0x403 DUP3 PUSH3 0x3DF JUMP JUMPDEST DUP5 DUP5 SLOAD PUSH3 0x34D JUMP JUMPDEST DUP3 SSTORE POP POP POP POP JUMP JUMPDEST PUSH1 0x0 SWAP1 JUMP JUMPDEST PUSH3 0x423 PUSH3 0x414 JUMP JUMPDEST PUSH3 0x430 DUP2 DUP5 DUP5 PUSH3 0x3E9 JUMP JUMPDEST POP POP POP JUMP JUMPDEST JUMPDEST DUP2 DUP2 LT ISZERO PUSH3 0x458 JUMPI PUSH3 0x44C PUSH1 0x0 DUP3 PUSH3 0x419 JUMP JUMPDEST PUSH1 0x1 DUP2 ADD SWAP1 POP PUSH3 0x436 JUMP JUMPDEST POP POP JUMP JUMPDEST PUSH1 0x1F DUP3 GT ISZERO PUSH3 0x4A7 JUMPI PUSH3 0x471 DUP2 PUSH3 0x31B JUMP JUMPDEST PUSH3 0x47C DUP5 PUSH3 0x330 JUMP JUMPDEST DUP2 ADD PUSH1 0x20 DUP6 LT ISZERO PUSH3 0x48C JUMPI DUP2 SWAP1 POP JUMPDEST PUSH3 0x4A4 PUSH3 0x49B DUP6 PUSH3 0x330 JUMP JUMPDEST DUP4 ADD DUP3 PUSH3 0x435 JUMP JUMPDEST POP POP JUMPDEST POP POP POP JUMP JUMPDEST PUSH1 0x0 DUP3 DUP3 SHR SWAP1 POP SWAP3 SWAP2 POP POP JUMP JUMPDEST PUSH1 0x0 PUSH3 0x4CC PUSH1 0x0 NOT DUP5 PUSH1 0x8 MUL PUSH3 0x4AC JUMP JUMPDEST NOT DUP1 DUP4 AND SWAP2 POP POP SWAP3 SWAP2 POP POP JUMP JUMPDEST PUSH1 0x0 PUSH3 0x4E7 DUP4 DUP4 PUSH3 0x4B9 JUMP JUMPDEST SWAP2 POP DUP3 PUSH1 0x2 MUL DUP3 OR SWAP1 POP SWAP3 SWAP2 POP POP JUMP JUMPDEST PUSH3 0x502 DUP3 PUSH3 0x27D JUMP JUMPDEST PUSH8 0xFFFFFFFFFFFFFFFF DUP2 GT ISZERO PUSH3 0x51E JUMPI PUSH3 0x51D PUSH3 0x288 JUMP JUMPDEST JUMPDEST PUSH3 0x52A DUP3 SLOAD PUSH3 0x2E6 JUMP JUMPDEST PUSH3 0x537 DUP3 DUP3 DUP6 PUSH3 0x45C JUMP JUMPDEST PUSH1 0x0 PUSH1 0x20 SWAP1 POP PUSH1 0x1F DUP4 GT PUSH1 0x1 DUP2 EQ PUSH3 0x56F JUMPI PUSH1 0x0 DUP5 ISZERO PUSH3 0x55A JUMPI DUP3 DUP8 ADD MLOAD SWAP1 POP JUMPDEST PUSH3 0x566 DUP6 DUP3 PUSH3 0x4D9 JUMP JUMPDEST DUP7 SSTORE POP PUSH3 0x5D6 JUMP JUMPDEST PUSH1 0x1F NOT DUP5 AND PUSH3 0x57F DUP7 PUSH3 0x31B JUMP JUMPDEST PUSH1 0x0 JUMPDEST DUP3 DUP2 LT ISZERO PUSH3 0x5A9 JUMPI DUP5 DUP10 ADD MLOAD DUP3 SSTORE PUSH1 0x1 DUP3 ADD SWAP2 POP PUSH1 0x20 DUP6 ADD SWAP5 POP PUSH1 0x20 DUP2 ADD SWAP1 POP PUSH3 0x582 JUMP JUMPDEST DUP7 DUP4 LT ISZERO PUSH3 0x5C9 JUMPI DUP5 DUP10 ADD MLOAD PUSH3 0x5C5 PUSH1 0x1F DUP10 AND DUP3 PUSH3 0x4B9 JUMP JUMPDEST DUP4 SSTORE POP JUMPDEST PUSH1 0x1 PUSH1 0x2 DUP9 MUL ADD DUP9 SSTORE POP POP POP JUMPDEST POP POP POP POP POP POP JUMP JUMPDEST PUSH2 0x5A8E DUP1 PUSH3 0x5EE PUSH1 0x0 CODECOPY PUSH1 0x0 RETURN INVALID PUSH1 0x80 PUSH1 0x40 MSTORE PUSH1 0x4 CALLDATASIZE LT PUSH2 0x230 JUMPI PUSH1 0x0 CALLDATALOAD PUSH1 0xE0 SHR DUP1 PUSH4 0x70A08231 GT PUSH2 0x12E JUMPI DUP1 PUSH4 0xA3B04A1F GT PUSH2 0xAB JUMPI DUP1 PUSH4 0xC87B56DD GT PUSH2 0x6F JUMPI DUP1 PUSH4 0xC87B56DD EQ PUSH2 0x7F4 JUMPI DUP1 PUSH4 0xD14D885A EQ PUSH2 0x831 JUMPI DUP1 PUSH4 0xDDAF39BC EQ PUSH2 0x86E JUMPI DUP1 PUSH4 0xE985E9C5 EQ PUSH2 0x885 JUMPI DUP1 PUSH4 0xF2FDE38B EQ PUSH2 0x8C2 JUMPI PUSH2 0x230 JUMP JUMPDEST DUP1 PUSH4 0xA3B04A1F EQ PUSH2 0x730 JUMPI DUP1 PUSH4 0xAAF4389A EQ PUSH2 0x747 JUMPI DUP1 PUSH4 0xB88D4FDE EQ PUSH2 0x772 JUMPI DUP1 PUSH4 0xBD11F69D EQ PUSH2 0x78E JUMPI DUP1 PUSH4 0xBED91971 EQ PUSH2 0x7CB JUMPI PUSH2 0x230 JUMP JUMPDEST DUP1 PUSH4 0x8F2FC60B GT PUSH2 0xF2 JUMPI DUP1 PUSH4 0x8F2FC60B EQ PUSH2 0x64D JUMPI DUP1 PUSH4 0x95D89B41 EQ PUSH2 0x676 JUMPI DUP1 PUSH4 0x9F9F3859 EQ PUSH2 0x6A1 JUMPI DUP1 PUSH4 0xA0712D68 EQ PUSH2 0x6DE JUMPI DUP1 PUSH4 0xA22CB465 EQ PUSH2 0x707 JUMPI PUSH2 0x230 JUMP JUMPDEST DUP1 PUSH4 0x70A08231 EQ PUSH2 0x566 JUMPI DUP1 PUSH4 0x715018A6 EQ PUSH2 0x5A3 JUMPI DUP1 PUSH4 0x7708B2D9 EQ PUSH2 0x5BA JUMPI DUP1 PUSH4 0x829B96CB EQ PUSH2 0x5E5 JUMPI DUP1 PUSH4 0x8DA5CB5B EQ PUSH2 0x622 JUMPI PUSH2 0x230 JUMP JUMPDEST DUP1 PUSH4 0x2A55205A GT PUSH2 0x1BC JUMPI DUP1 PUSH4 0x3CCFD60B GT PUSH2 0x180 JUMPI DUP1 PUSH4 0x3CCFD60B EQ PUSH2 0x4A2 JUMPI DUP1 PUSH4 0x3D005713 EQ PUSH2 0x4B9 JUMPI DUP1 PUSH4 0x42842E0E EQ PUSH2 0x4E4 JUMPI DUP1 PUSH4 0x5C27905C EQ PUSH2 0x500 JUMPI DUP1 PUSH4 0x6352211E EQ PUSH2 0x529 JUMPI PUSH2 0x230 JUMP JUMPDEST DUP1 PUSH4 0x2A55205A EQ PUSH2 0x3BC JUMPI DUP1 PUSH4 0x2BE09561 EQ PUSH2 0x3FA JUMPI DUP1 PUSH4 0x32783E5B EQ PUSH2 0x411 JUMPI DUP1 PUSH4 0x354098C1 EQ PUSH2 0x44E JUMPI DUP1 PUSH4 0x3886BBCF EQ PUSH2 0x477 JUMPI PUSH2 0x230 JUMP JUMPDEST DUP1 PUSH4 0x95EA7B3 GT PUSH2 0x203 JUMPI DUP1 PUSH4 0x95EA7B3 EQ PUSH2 0x305 JUMPI DUP1 PUSH4 0xF7EE879 EQ PUSH2 0x321 JUMPI DUP1 PUSH4 0xFD51902 EQ PUSH2 0x35E JUMPI DUP1 PUSH4 0x18160DDD EQ PUSH2 0x375 JUMPI DUP1 PUSH4 0x23B872DD EQ PUSH2 0x3A0 JUMPI PUSH2 0x230 JUMP JUMPDEST DUP1 PUSH4 0x1FFC9A7 EQ PUSH2 0x235 JUMPI DUP1 PUSH4 0x60F8C04 EQ PUSH2 0x272 JUMPI DUP1 PUSH4 0x6FDDE03 EQ PUSH2 0x29D JUMPI DUP1 PUSH4 0x81812FC EQ PUSH2 0x2C8 JUMPI JUMPDEST PUSH1 0x0 DUP1 REVERT JUMPDEST CALLVALUE DUP1 ISZERO PUSH2 0x241 JUMPI PUSH1 0x0 DUP1 REVERT JUMPDEST POP PUSH2 0x25C PUSH1 0x4 DUP1 CALLDATASIZE SUB DUP2 ADD SWAP1 PUSH2 0x257 SWAP2 SWAP1 PUSH2 0x2D4A JUMP JUMPDEST PUSH2 0x8EB JUMP JUMPDEST PUSH1 0x40 MLOAD PUSH2 0x269 SWAP2 SWAP1 PUSH2 0x2D92 JUMP JUMPDEST PUSH1 0x40 MLOAD DUP1 SWAP2 SUB SWAP1 RETURN JUMPDEST CALLVALUE DUP1 ISZERO PUSH2 0x27E JUMPI PUSH1 0x0 DUP1 REVERT JUMPDEST POP PUSH2 0x287 PUSH2 0x90D JUMP JUMPDEST PUSH1 0x40 MLOAD PUSH2 0x294 SWAP2 SWAP1 PUSH2 0x2DD0 JUMP JUMPDEST PUSH1 0x40 MLOAD DUP1 SWAP2 SUB SWAP1 RETURN JUMPDEST CALLVALUE DUP1 ISZERO PUSH2 0x2A9 JUMPI PUSH1 0x0 DUP1 REVERT JUMPDEST POP PUSH2 0x2B2 PUSH2 0x927 JUMP JUMPDEST PUSH1 0x40 MLOAD PUSH2 0x2BF SWAP2 SWAP1 PUSH2 0x2E7B JUMP JUMPDEST PUSH1 0x40 MLOAD DUP1 SWAP2 SUB SWAP1 RETURN JUMPDEST CALLVALUE DUP1 ISZERO PUSH2 0x2D4 JUMPI PUSH1 0x0 DUP1 REVERT JUMPDEST POP PUSH2 0x2EF PUSH1 0x4 DUP1 CALLDATASIZE SUB DUP2 ADD SWAP1 PUSH2 0x2EA SWAP2 SWAP1 PUSH2 0x2ED3 JUMP JUMPDEST PUSH2 0x9B9 JUMP JUMPDEST PUSH1 0x40 MLOAD PUSH2 0x2FC SWAP2 SWAP1 PUSH2 0x2F41 JUMP JUMPDEST PUSH1 0x40 MLOAD DUP1 SWAP2 SUB SWAP1 RETURN JUMPDEST PUSH2 0x31F PUSH1 0x4 DUP1 CALLDATASIZE SUB DUP2 ADD SWAP1 PUSH2 0x31A SWAP2 SWAP1 PUSH2 0x2F88 JUMP JUMPDEST PUSH2 0xA38 JUMP JUMPDEST STOP JUMPDEST CALLVALUE DUP1 ISZERO PUSH2 0x32D JUMPI PUSH1 0x0 DUP1 REVERT JUMPDEST POP PUSH2 0x348 PUSH1 0x4 DUP1 CALLDATASIZE SUB DUP2 ADD SWAP1 PUSH2 0x343 SWAP2 SWAP1 PUSH2 0x2ED3 JUMP JUMPDEST PUSH2 0xB7C JUMP JUMPDEST PUSH1 0x40 MLOAD PUSH2 0x355 SWAP2 SWAP1 PUSH2 0x2D92 JUMP JUMPDEST PUSH1 0x40 MLOAD DUP1 SWAP2 SUB SWAP1 RETURN JUMPDEST CALLVALUE DUP1 ISZERO PUSH2 0x36A JUMPI PUSH1 0x0 DUP1 REVERT JUMPDEST POP PUSH2 0x373 PUSH2 0xB9C JUMP JUMPDEST STOP JUMPDEST CALLVALUE DUP1 ISZERO PUSH2 0x381 JUMPI PUSH1 0x0 DUP1 REVERT JUMPDEST POP PUSH2 0x38A PUSH2 0xBF2 JUMP JUMPDEST PUSH1 0x40 MLOAD PUSH2 0x397 SWAP2 SWAP1 PUSH2 0x2FD7 JUMP JUMPDEST PUSH1 0x40 MLOAD DUP1 SWAP2 SUB SWAP1 RETURN JUMPDEST PUSH2 0x3BA PUSH1 0x4 DUP1 CALLDATASIZE SUB DUP2 ADD SWAP1 PUSH2 0x3B5 SWAP2 SWAP1 PUSH2 0x2FF2 JUMP JUMPDEST PUSH2 0xC09 JUMP JUMPDEST STOP JUMPDEST CALLVALUE DUP1 ISZERO PUSH2 0x3C8 JUMPI PUSH1 0x0 DUP1 REVERT JUMPDEST POP PUSH2 0x3E3 PUSH1 0x4 DUP1 CALLDATASIZE SUB DUP2 ADD SWAP1 PUSH2 0x3DE SWAP2 SWAP1 PUSH2 0x3045 JUMP JUMPDEST PUSH2 0xF2B JUMP JUMPDEST PUSH1 0x40 MLOAD PUSH2 0x3F1 SWAP3 SWAP2 SWAP1 PUSH2 0x3085 JUMP JUMPDEST PUSH1 0x40 MLOAD DUP1 SWAP2 SUB SWAP1 RETURN JUMPDEST CALLVALUE DUP1 ISZERO PUSH2 0x406 JUMPI PUSH1 0x0 DUP1 REVERT JUMPDEST POP PUSH2 0x40F PUSH2 0x1115 JUMP JUMPDEST STOP JUMPDEST CALLVALUE DUP1 ISZERO PUSH2 0x41D JUMPI PUSH1 0x0 DUP1 REVERT JUMPDEST POP PUSH2 0x438 PUSH1 0x4 DUP1 CALLDATASIZE SUB DUP2 ADD SWAP1 PUSH2 0x433 SWAP2 SWAP1 PUSH2 0x31E3 JUMP JUMPDEST PUSH2 0x118D JUMP JUMPDEST PUSH1 0x40 MLOAD PUSH2 0x445 SWAP2 SWAP1 PUSH2 0x2E7B JUMP JUMPDEST PUSH1 0x40 MLOAD DUP1 SWAP2 SUB SWAP1 RETURN JUMPDEST CALLVALUE DUP1 ISZERO PUSH2 0x45A JUMPI PUSH1 0x0 DUP1 REVERT JUMPDEST POP PUSH2 0x475 PUSH1 0x4 DUP1 CALLDATASIZE SUB DUP2 ADD SWAP1 PUSH2 0x470 SWAP2 SWAP1 PUSH2 0x322C JUMP JUMPDEST PUSH2 0x11B6 JUMP JUMPDEST STOP JUMPDEST CALLVALUE DUP1 ISZERO PUSH2 0x483 JUMPI PUSH1 0x0 DUP1 REVERT JUMPDEST POP PUSH2 0x48C PUSH2 0x1243 JUMP JUMPDEST PUSH1 0x40 MLOAD PUSH2 0x499 SWAP2 SWAP1 PUSH2 0x2DD0 JUMP JUMPDEST PUSH1 0x40 MLOAD DUP1 SWAP2 SUB SWAP1 RETURN JUMPDEST CALLVALUE DUP1 ISZERO PUSH2 0x4AE JUMPI PUSH1 0x0 DUP1 REVERT JUMPDEST POP PUSH2 0x4B7 PUSH2 0x125D JUMP JUMPDEST STOP JUMPDEST CALLVALUE DUP1 ISZERO PUSH2 0x4C5 JUMPI PUSH1 0x0 DUP1 REVERT JUMPDEST POP PUSH2 0x4CE PUSH2 0x12A5 JUMP JUMPDEST PUSH1 0x40 MLOAD PUSH2 0x4DB SWAP2 SWAP1 PUSH2 0x3314 JUMP JUMPDEST PUSH1 0x40 MLOAD DUP1 SWAP2 SUB SWAP1 RETURN JUMPDEST PUSH2 0x4FE PUSH1 0x4 DUP1 CALLDATASIZE SUB DUP2 ADD SWAP1 PUSH2 0x4F9 SWAP2 SWAP1 PUSH2 0x2FF2 JUMP JUMPDEST PUSH2 0x132E JUMP JUMPDEST STOP JUMPDEST CALLVALUE DUP1 ISZERO PUSH2 0x50C JUMPI PUSH1 0x0 DUP1 REVERT JUMPDEST POP PUSH2 0x527 PUSH1 0x4 DUP1 CALLDATASIZE SUB DUP2 ADD SWAP1 PUSH2 0x522 SWAP2 SWAP1 PUSH2 0x341F JUMP JUMPDEST PUSH2 0x134E JUMP JUMPDEST STOP JUMPDEST CALLVALUE DUP1 ISZERO PUSH2 0x535 JUMPI PUSH1 0x0 DUP1 REVERT JUMPDEST POP PUSH2 0x550 PUSH1 0x4 DUP1 CALLDATASIZE SUB DUP2 ADD SWAP1 PUSH2 0x54B SWAP2 SWAP1 PUSH2 0x2ED3 JUMP JUMPDEST PUSH2 0x16EF JUMP JUMPDEST PUSH1 0x40 MLOAD PUSH2 0x55D SWAP2 SWAP1 PUSH2 0x2F41 JUMP JUMPDEST PUSH1 0x40 MLOAD DUP1 SWAP2 SUB SWAP1 RETURN JUMPDEST CALLVALUE DUP1 ISZERO PUSH2 0x572 JUMPI PUSH1 0x0 DUP1 REVERT JUMPDEST POP PUSH2 0x58D PUSH1 0x4 DUP1 CALLDATASIZE SUB DUP2 ADD SWAP1 PUSH2 0x588 SWAP2 SWAP1 PUSH2 0x322C JUMP JUMPDEST PUSH2 0x1701 JUMP JUMPDEST PUSH1 0x40 MLOAD PUSH2 0x59A SWAP2 SWAP1 PUSH2 0x2FD7 JUMP JUMPDEST PUSH1 0x40 MLOAD DUP1 SWAP2 SUB SWAP1 RETURN JUMPDEST CALLVALUE DUP1 ISZERO PUSH2 0x5AF JUMPI PUSH1 0x0 DUP1 REVERT JUMPDEST POP PUSH2 0x5B8 PUSH2 0x17B9 JUMP JUMPDEST STOP JUMPDEST CALLVALUE DUP1 ISZERO PUSH2 0x5C6 JUMPI PUSH1 0x0 DUP1 REVERT JUMPDEST POP PUSH2 0x5CF PUSH2 0x17CD JUMP JUMPDEST PUSH1 0x40 MLOAD PUSH2 0x5DC SWAP2 SWAP1 PUSH2 0x2E7B JUMP JUMPDEST PUSH1 0x40 MLOAD DUP1 SWAP2 SUB SWAP1 RETURN JUMPDEST CALLVALUE DUP1 ISZERO PUSH2 0x5F1 JUMPI PUSH1 0x0 DUP1 REVERT JUMPDEST POP PUSH2 0x60C PUSH1 0x4 DUP1 CALLDATASIZE SUB DUP2 ADD SWAP1 PUSH2 0x607 SWAP2 SWAP1 PUSH2 0x354F JUMP JUMPDEST PUSH2 0x184F JUMP JUMPDEST PUSH1 0x40 MLOAD PUSH2 0x619 SWAP2 SWAP1 PUSH2 0x2E7B JUMP JUMPDEST PUSH1 0x40 MLOAD DUP1 SWAP2 SUB SWAP1 RETURN JUMPDEST CALLVALUE DUP1 ISZERO PUSH2 0x62E JUMPI PUSH1 0x0 DUP1 REVERT JUMPDEST POP PUSH2 0x637 PUSH2 0x18CF JUMP JUMPDEST PUSH1 0x40 MLOAD PUSH2 0x644 SWAP2 SWAP1 PUSH2 0x2F41 JUMP JUMPDEST PUSH1 0x40 MLOAD DUP1 SWAP2 SUB SWAP1 RETURN JUMPDEST CALLVALUE DUP1 ISZERO PUSH2 0x659 JUMPI PUSH1 0x0 DUP1 REVERT JUMPDEST POP PUSH2 0x674 PUSH1 0x4 DUP1 CALLDATASIZE SUB DUP2 ADD SWAP1 PUSH2 0x66F SWAP2 SWAP1 PUSH2 0x35C1 JUMP JUMPDEST PUSH2 0x18F9 JUMP JUMPDEST STOP JUMPDEST CALLVALUE DUP1 ISZERO PUSH2 0x682 JUMPI PUSH1 0x0 DUP1 REVERT JUMPDEST POP PUSH2 0x68B PUSH2 0x190F JUMP JUMPDEST PUSH1 0x40 MLOAD PUSH2 0x698 SWAP2 SWAP1 PUSH2 0x2E7B JUMP JUMPDEST PUSH1 0x40 MLOAD DUP1 SWAP2 SUB SWAP1 RETURN JUMPDEST CALLVALUE DUP1 ISZERO PUSH2 0x6AD JUMPI PUSH1 0x0 DUP1 REVERT JUMPDEST POP PUSH2 0x6C8 PUSH1 0x4 DUP1 CALLDATASIZE SUB DUP2 ADD SWAP1 PUSH2 0x6C3 SWAP2 SWAP1 PUSH2 0x2ED3 JUMP JUMPDEST PUSH2 0x19A1 JUMP JUMPDEST PUSH1 0x40 MLOAD PUSH2 0x6D5 SWAP2 SWAP1 PUSH2 0x2FD7 JUMP JUMPDEST PUSH1 0x40 MLOAD DUP1 SWAP2 SUB SWAP1 RETURN JUMPDEST CALLVALUE DUP1 ISZERO PUSH2 0x6EA JUMPI PUSH1 0x0 DUP1 REVERT JUMPDEST POP PUSH2 0x705 PUSH1 0x4 DUP1 CALLDATASIZE SUB DUP2 ADD SWAP1 PUSH2 0x700 SWAP2 SWAP1 PUSH2 0x2ED3 JUMP JUMPDEST PUSH2 0x1A46 JUMP JUMPDEST STOP JUMPDEST CALLVALUE DUP1 ISZERO PUSH2 0x713 JUMPI PUSH1 0x0 DUP1 REVERT JUMPDEST POP PUSH2 0x72E PUSH1 0x4 DUP1 CALLDATASIZE SUB DUP2 ADD SWAP1 PUSH2 0x729 SWAP2 SWAP1 PUSH2 0x362D JUMP JUMPDEST PUSH2 0x1C17 JUMP JUMPDEST STOP JUMPDEST CALLVALUE DUP1 ISZERO PUSH2 0x73C JUMPI PUSH1 0x0 DUP1 REVERT JUMPDEST POP PUSH2 0x745 PUSH2 0x1D22 JUMP JUMPDEST STOP JUMPDEST CALLVALUE DUP1 ISZERO PUSH2 0x753 JUMPI PUSH1 0x0 DUP1 REVERT JUMPDEST POP PUSH2 0x75C PUSH2 0x1D78 JUMP JUMPDEST PUSH1 0x40 MLOAD PUSH2 0x769 SWAP2 SWAP1 PUSH2 0x2FD7 JUMP JUMPDEST PUSH1 0x40 MLOAD DUP1 SWAP2 SUB SWAP1 RETURN JUMPDEST PUSH2 0x78C PUSH1 0x4 DUP1 CALLDATASIZE SUB DUP2 ADD SWAP1 PUSH2 0x787 SWAP2 SWAP1 PUSH2 0x370E JUMP JUMPDEST PUSH2 0x1D7E JUMP JUMPDEST STOP JUMPDEST CALLVALUE DUP1 ISZERO PUSH2 0x79A JUMPI PUSH1 0x0 DUP1 REVERT JUMPDEST POP PUSH2 0x7B5 PUSH1 0x4 DUP1 CALLDATASIZE SUB DUP2 ADD SWAP1 PUSH2 0x7B0 SWAP2 SWAP1 PUSH2 0x2ED3 JUMP JUMPDEST PUSH2 0x1DF1 JUMP JUMPDEST PUSH1 0x40 MLOAD PUSH2 0x7C2 SWAP2 SWAP1 PUSH2 0x37A0 JUMP JUMPDEST PUSH1 0x40 MLOAD DUP1 SWAP2 SUB SWAP1 RETURN JUMPDEST CALLVALUE DUP1 ISZERO PUSH2 0x7D7 JUMPI PUSH1 0x0 DUP1 REVERT JUMPDEST POP PUSH2 0x7F2 PUSH1 0x4 DUP1 CALLDATASIZE SUB DUP2 ADD SWAP1 PUSH2 0x7ED SWAP2 SWAP1 PUSH2 0x322C JUMP JUMPDEST PUSH2 0x1E14 JUMP JUMPDEST STOP JUMPDEST CALLVALUE DUP1 ISZERO PUSH2 0x800 JUMPI PUSH1 0x0 DUP1 REVERT JUMPDEST POP PUSH2 0x81B PUSH1 0x4 DUP1 CALLDATASIZE SUB DUP2 ADD SWAP1 PUSH2 0x816 SWAP2 SWAP1 PUSH2 0x2ED3 JUMP JUMPDEST PUSH2 0x1EA1 JUMP JUMPDEST PUSH1 0x40 MLOAD PUSH2 0x828 SWAP2 SWAP1 PUSH2 0x2E7B JUMP JUMPDEST PUSH1 0x40 MLOAD DUP1 SWAP2 SUB SWAP1 RETURN JUMPDEST CALLVALUE DUP1 ISZERO PUSH2 0x83D JUMPI PUSH1 0x0 DUP1 REVERT JUMPDEST POP PUSH2 0x858 PUSH1 0x4 DUP1 CALLDATASIZE SUB DUP2 ADD SWAP1 PUSH2 0x853 SWAP2 SWAP1 PUSH2 0x37BB JUMP JUMPDEST PUSH2 0x1F1E JUMP JUMPDEST PUSH1 0x40 MLOAD PUSH2 0x865 SWAP2 SWAP1 PUSH2 0x2E7B JUMP JUMPDEST PUSH1 0x40 MLOAD DUP1 SWAP2 SUB SWAP1 RETURN JUMPDEST CALLVALUE DUP1 ISZERO PUSH2 0x87A JUMPI PUSH1 0x0 DUP1 REVERT JUMPDEST POP PUSH2 0x883 PUSH2 0x1F92 JUMP JUMPDEST STOP JUMPDEST CALLVALUE DUP1 ISZERO PUSH2 0x891 JUMPI PUSH1 0x0 DUP1 REVERT JUMPDEST POP PUSH2 0x8AC PUSH1 0x4 DUP1 CALLDATASIZE SUB DUP2 ADD SWAP1 PUSH2 0x8A7 SWAP2 SWAP1 PUSH2 0x37E8 JUMP JUMPDEST PUSH2 0x1FE8 JUMP JUMPDEST PUSH1 0x40 MLOAD PUSH2 0x8B9 SWAP2 SWAP1 PUSH2 0x2D92 JUMP JUMPDEST PUSH1 0x40 MLOAD DUP1 SWAP2 SUB SWAP1 RETURN JUMPDEST CALLVALUE DUP1 ISZERO PUSH2 0x8CE JUMPI PUSH1 0x0 DUP1 REVERT JUMPDEST POP PUSH2 0x8E9 PUSH1 0x4 DUP1 CALLDATASIZE SUB DUP2 ADD SWAP1 PUSH2 0x8E4 SWAP2 SWAP1 PUSH2 0x322C JUMP JUMPDEST PUSH2 0x207C JUMP JUMPDEST STOP JUMPDEST PUSH1 0x0 PUSH2 0x8F6 DUP3 PUSH2 0x20FF JUMP JUMPDEST DUP1 PUSH2 0x906 JUMPI POP PUSH2 0x905 DUP3 PUSH2 0x2191 JUMP JUMPDEST JUMPDEST SWAP1 POP SWAP2 SWAP1 POP JUMP JUMPDEST PUSH1 0xB PUSH1 0x8 SWAP1 SLOAD SWAP1 PUSH2 0x100 EXP SWAP1 DIV PUSH8 0xFFFFFFFFFFFFFFFF AND DUP2 JUMP JUMPDEST PUSH1 0x60 PUSH1 0x2 DUP1 SLOAD PUSH2 0x936 SWAP1 PUSH2 0x3857 JUMP JUMPDEST DUP1 PUSH1 0x1F ADD PUSH1 0x20 DUP1 SWAP2 DIV MUL PUSH1 0x20 ADD PUSH1 0x40 MLOAD SWAP1 DUP2 ADD PUSH1 0x40 MSTORE DUP1 SWAP3 SWAP2 SWAP1 DUP2 DUP2 MSTORE PUSH1 0x20 ADD DUP3 DUP1 SLOAD PUSH2 0x962 SWAP1 PUSH2 0x3857 JUMP JUMPDEST DUP1 ISZERO PUSH2 0x9AF JUMPI DUP1 PUSH1 0x1F LT PUSH2 0x984 JUMPI PUSH2 0x100 DUP1 DUP4 SLOAD DIV MUL DUP4 MSTORE SWAP2 PUSH1 0x20 ADD SWAP2 PUSH2 0x9AF JUMP JUMPDEST DUP3 ADD SWAP2 SWAP1 PUSH1 0x0 MSTORE PUSH1 0x20 PUSH1 0x0 KECCAK256 SWAP1 JUMPDEST DUP2 SLOAD DUP2 MSTORE SWAP1 PUSH1 0x1 ADD SWAP1 PUSH1 0x20 ADD DUP1 DUP4 GT PUSH2 0x992 JUMPI DUP3 SWAP1 SUB PUSH1 0x1F AND DUP3 ADD SWAP2 JUMPDEST POP POP POP POP POP SWAP1 POP SWAP1 JUMP JUMPDEST PUSH1 0x0 PUSH2 0x9C4 DUP3 PUSH2 0x220B JUMP JUMPDEST PUSH2 0x9FA JUMPI PUSH1 0x40 MLOAD PUSH32 0xCF4700E400000000000000000000000000000000000000000000000000000000 DUP2 MSTORE PUSH1 0x4 ADD PUSH1 0x40 MLOAD DUP1 SWAP2 SUB SWAP1 REVERT JUMPDEST PUSH1 0x6 PUSH1 0x0 DUP4 DUP2 MSTORE PUSH1 0x20 ADD SWAP1 DUP2 MSTORE PUSH1 0x20 ADD PUSH1 0x0 KECCAK256 PUSH1 0x0 ADD PUSH1 0x0 SWAP1 SLOAD SWAP1 PUSH2 0x100 EXP SWAP1 DIV PUSH20 0xFFFFFFFFFFFFFFFFFFFFFFFFFFFFFFFFFFFFFFFF AND SWAP1 POP SWAP2 SWAP1 POP JUMP JUMPDEST PUSH1 0x0 PUSH2 0xA43 DUP3 PUSH2 0x16EF JUMP JUMPDEST SWAP1 POP DUP1 PUSH20 0xFFFFFFFFFFFFFFFFFFFFFFFFFFFFFFFFFFFFFFFF AND PUSH2 0xA64 PUSH2 0x226A JUMP JUMPDEST PUSH20 0xFFFFFFFFFFFFFFFFFFFFFFFFFFFFFFFFFFFFFFFF AND EQ PUSH2 0xAC7 JUMPI PUSH2 0xA90 DUP2 PUSH2 0xA8B PUSH2 0x226A JUMP JUMPDEST PUSH2 0x1FE8 JUMP JUMPDEST PUSH2 0xAC6 JUMPI PUSH1 0x40 MLOAD PUSH32 0xCFB3B94200000000000000000000000000000000000000000000000000000000 DUP2 MSTORE PUSH1 0x4 ADD PUSH1 0x40 MLOAD DUP1 SWAP2 SUB SWAP1 REVERT JUMPDEST JUMPDEST DUP3 PUSH1 0x6 PUSH1 0x0 DUP5 DUP2 MSTORE PUSH1 0x20 ADD SWAP1 DUP2 MSTORE PUSH1 0x20 ADD PUSH1 0x0 KECCAK256 PUSH1 0x0 ADD PUSH1 0x0 PUSH2 0x100 EXP DUP2 SLOAD DUP2 PUSH20 0xFFFFFFFFFFFFFFFFFFFFFFFFFFFFFFFFFFFFFFFF MUL NOT AND SWAP1 DUP4 PUSH20 0xFFFFFFFFFFFFFFFFFFFFFFFFFFFFFFFFFFFFFFFF AND MUL OR SWAP1 SSTORE POP DUP2 DUP4 PUSH20 0xFFFFFFFFFFFFFFFFFFFFFFFFFFFFFFFFFFFFFFFF AND DUP3 PUSH20 0xFFFFFFFFFFFFFFFFFFFFFFFFFFFFFFFFFFFFFFFF AND PUSH32 0x8C5BE1E5EBEC7D5BD14F71427D1E84F3DD0314C0F7B2291E5B200AC8C7C3B925 PUSH1 0x40 MLOAD PUSH1 0x40 MLOAD DUP1 SWAP2 SUB SWAP1 LOG4 POP POP POP JUMP JUMPDEST PUSH1 0xE PUSH1 0x20 MSTORE DUP1 PUSH1 0x0 MSTORE PUSH1 0x40 PUSH1 0x0 KECCAK256 PUSH1 0x0 SWAP2 POP SLOAD SWAP1 PUSH2 0x100 EXP SWAP1 DIV PUSH1 0xFF AND DUP2 JUMP JUMPDEST PUSH1 0x0 PUSH1 0x1 SWAP1 POP JUMPDEST PUSH1 0x41 DUP2 LT ISZERO PUSH2 0xBEF JUMPI PUSH2 0xBDC DUP2 PUSH1 0x40 MLOAD DUP1 PUSH1 0x60 ADD PUSH1 0x40 MSTORE DUP1 PUSH1 0x0 PUSH1 0xFF AND DUP2 MSTORE PUSH1 0x20 ADD PUSH1 0xFF DUP1 AND DUP2 MSTORE PUSH1 0x20 ADD PUSH1 0x0 PUSH1 0xFF AND DUP2 MSTORE POP DUP4 PUSH2 0x134E JUMP JUMPDEST DUP1 DUP1 PUSH2 0xBE7 SWAP1 PUSH2 0x38B7 JUMP JUMPDEST SWAP2 POP POP PUSH2 0xBA3 JUMP JUMPDEST POP JUMP JUMPDEST PUSH1 0x0 PUSH2 0xBFC PUSH2 0x2272 JUMP JUMPDEST PUSH1 0x1 SLOAD PUSH1 0x0 SLOAD SUB SUB SWAP1 POP SWAP1 JUMP JUMPDEST PUSH1 0x0 PUSH2 0xC14 DUP3 PUSH2 0x227B JUMP JUMPDEST SWAP1 POP DUP4 PUSH20 0xFFFFFFFFFFFFFFFFFFFFFFFFFFFFFFFFFFFFFFFF AND DUP2 PUSH20 0xFFFFFFFFFFFFFFFFFFFFFFFFFFFFFFFFFFFFFFFF AND EQ PUSH2 0xC7B JUMPI PUSH1 0x40 MLOAD PUSH32 0xA114810000000000000000000000000000000000000000000000000000000000 DUP2 MSTORE PUSH1 0x4 ADD PUSH1 0x40 MLOAD DUP1 SWAP2 SUB SWAP1 REVERT JUMPDEST PUSH1 0x0 DUP1 PUSH2 0xC87 DUP5 PUSH2 0x2347 JUMP JUMPDEST SWAP2 POP SWAP2 POP PUSH2 0xC9D DUP2 DUP8 PUSH2 0xC98 PUSH2 0x226A JUMP JUMPDEST PUSH2 0x236E JUMP JUMPDEST PUSH2 0xCE9 JUMPI PUSH2 0xCB2 DUP7 PUSH2 0xCAD PUSH2 0x226A JUMP JUMPDEST PUSH2 0x1FE8 JUMP JUMPDEST PUSH2 0xCE8 JUMPI PUSH1 0x40 MLOAD PUSH32 0x59C896BE00000000000000000000000000000000000000000000000000000000 DUP2 MSTORE PUSH1 0x4 ADD PUSH1 0x40 MLOAD DUP1 SWAP2 SUB SWAP1 REVERT JUMPDEST JUMPDEST PUSH1 0x0 PUSH20 0xFFFFFFFFFFFFFFFFFFFFFFFFFFFFFFFFFFFFFFFF AND DUP6 PUSH20 0xFFFFFFFFFFFFFFFFFFFFFFFFFFFFFFFFFFFFFFFF AND SUB PUSH2 0xD4F JUMPI PUSH1 0x40 MLOAD PUSH32 0xEA553B3400000000000000000000000000000000000000000000000000000000 DUP2 MSTORE PUSH1 0x4 ADD PUSH1 0x40 MLOAD DUP1 SWAP2 SUB SWAP1 REVERT JUMPDEST PUSH2 0xD5C DUP7 DUP7 DUP7 PUSH1 0x1 PUSH2 0x23B2 JUMP JUMPDEST DUP1 ISZERO PUSH2 0xD67 JUMPI PUSH1 0x0 DUP3 SSTORE JUMPDEST PUSH1 0x5 PUSH1 0x0 DUP8 PUSH20 0xFFFFFFFFFFFFFFFFFFFFFFFFFFFFFFFFFFFFFFFF AND PUSH20 0xFFFFFFFFFFFFFFFFFFFFFFFFFFFFFFFFFFFFFFFF AND DUP2 MSTORE PUSH1 0x20 ADD SWAP1 DUP2 MSTORE PUSH1 0x20 ADD PUSH1 0x0 KECCAK256 PUSH1 0x0 DUP2 SLOAD PUSH1 0x1 SWAP1 SUB SWAP2 SWAP1 POP DUP2 SWAP1 SSTORE POP PUSH1 0x5 PUSH1 0x0 DUP7 PUSH20 0xFFFFFFFFFFFFFFFFFFFFFFFFFFFFFFFFFFFFFFFF AND PUSH20 0xFFFFFFFFFFFFFFFFFFFFFFFFFFFFFFFFFFFFFFFF AND DUP2 MSTORE PUSH1 0x20 ADD SWAP1 DUP2 MSTORE PUSH1 0x20 ADD PUSH1 0x0 KECCAK256 PUSH1 0x0 DUP2 SLOAD PUSH1 0x1 ADD SWAP2 SWAP1 POP DUP2 SWAP1 SSTORE POP PUSH2 0xE35 DUP6 PUSH2 0xE11 DUP9 DUP9 DUP8 PUSH2 0x23B8 JUMP JUMPDEST PUSH29 0x200000000000000000000000000000000000000000000000000000000 OR PUSH2 0x23E0 JUMP JUMPDEST PUSH1 0x4 PUSH1 0x0 DUP7 DUP2 MSTORE PUSH1 0x20 ADD SWAP1 DUP2 MSTORE PUSH1 0x20 ADD PUSH1 0x0 KECCAK256 DUP2 SWAP1 SSTORE POP PUSH1 0x0 PUSH29 0x200000000000000000000000000000000000000000000000000000000 DUP5 AND SUB PUSH2 0xEBB JUMPI PUSH1 0x0 PUSH1 0x1 DUP6 ADD SWAP1 POP PUSH1 0x0 PUSH1 0x4 PUSH1 0x0 DUP4 DUP2 MSTORE PUSH1 0x20 ADD SWAP1 DUP2 MSTORE PUSH1 0x20 ADD PUSH1 0x0 KECCAK256 SLOAD SUB PUSH2 0xEB9 JUMPI PUSH1 0x0 SLOAD DUP2 EQ PUSH2 0xEB8 JUMPI DUP4 PUSH1 0x4 PUSH1 0x0 DUP4 DUP2 MSTORE PUSH1 0x20 ADD SWAP1 DUP2 MSTORE PUSH1 0x20 ADD PUSH1 0x0 KECCAK256 DUP2 SWAP1 SSTORE POP JUMPDEST JUMPDEST POP JUMPDEST DUP4 DUP6 PUSH20 0xFFFFFFFFFFFFFFFFFFFFFFFFFFFFFFFFFFFFFFFF AND DUP8 PUSH20 0xFFFFFFFFFFFFFFFFFFFFFFFFFFFFFFFFFFFFFFFF AND PUSH32 0xDDF252AD1BE2C89B69C2B068FC378DAA952BA7F163C4A11628F55A4DF523B3EF PUSH1 0x40 MLOAD PUSH1 0x40 MLOAD DUP1 SWAP2 SUB SWAP1 LOG4 PUSH2 0xF23 DUP7 DUP7 DUP7 PUSH1 0x1 PUSH2 0x240B JUMP JUMPDEST POP POP POP POP POP POP JUMP JUMPDEST PUSH1 0x0 DUP1 PUSH1 0x0 PUSH1 0xA PUSH1 0x0 DUP7 DUP2 MSTORE PUSH1 0x20 ADD SWAP1 DUP2 MSTORE PUSH1 0x20 ADD PUSH1 0x0 KECCAK256 PUSH1 0x40 MLOAD DUP1 PUSH1 0x40 ADD PUSH1 0x40 MSTORE SWAP1 DUP2 PUSH1 0x0 DUP3 ADD PUSH1 0x0 SWAP1 SLOAD SWAP1 PUSH2 0x100 EXP SWAP1 DIV PUSH20 0xFFFFFFFFFFFFFFFFFFFFFFFFFFFFFFFFFFFFFFFF AND PUSH20 0xFFFFFFFFFFFFFFFFFFFFFFFFFFFFFFFFFFFFFFFF AND PUSH20 0xFFFFFFFFFFFFFFFFFFFFFFFFFFFFFFFFFFFFFFFF AND DUP2 MSTORE PUSH1 0x20 ADD PUSH1 0x0 DUP3 ADD PUSH1 0x14 SWAP1 SLOAD SWAP1 PUSH2 0x100 EXP SWAP1 DIV PUSH12 0xFFFFFFFFFFFFFFFFFFFFFFFF AND PUSH12 0xFFFFFFFFFFFFFFFFFFFFFFFF AND PUSH12 0xFFFFFFFFFFFFFFFFFFFFFFFF AND DUP2 MSTORE POP POP SWAP1 POP PUSH1 0x0 PUSH20 0xFFFFFFFFFFFFFFFFFFFFFFFFFFFFFFFFFFFFFFFF AND DUP2 PUSH1 0x0 ADD MLOAD PUSH20 0xFFFFFFFFFFFFFFFFFFFFFFFFFFFFFFFFFFFFFFFF AND SUB PUSH2 0x10C0 JUMPI PUSH1 0x9 PUSH1 0x40 MLOAD DUP1 PUSH1 0x40 ADD PUSH1 0x40 MSTORE SWAP1 DUP2 PUSH1 0x0 DUP3 ADD PUSH1 0x0 SWAP1 SLOAD SWAP1 PUSH2 0x100 EXP SWAP1 DIV PUSH20 0xFFFFFFFFFFFFFFFFFFFFFFFFFFFFFFFFFFFFFFFF AND PUSH20 0xFFFFFFFFFFFFFFFFFFFFFFFFFFFFFFFFFFFFFFFF AND PUSH20 0xFFFFFFFFFFFFFFFFFFFFFFFFFFFFFFFFFFFFFFFF AND DUP2 MSTORE PUSH1 0x20 ADD PUSH1 0x0 DUP3 ADD PUSH1 0x14 SWAP1 SLOAD SWAP1 PUSH2 0x100 EXP SWAP1 DIV PUSH12 0xFFFFFFFFFFFFFFFFFFFFFFFF AND PUSH12 0xFFFFFFFFFFFFFFFFFFFFFFFF AND PUSH12 0xFFFFFFFFFFFFFFFFFFFFFFFF AND DUP2 MSTORE POP POP SWAP1 POP JUMPDEST PUSH1 0x0 PUSH2 0x10CA PUSH2 0x2411 JUMP JUMPDEST PUSH12 0xFFFFFFFFFFFFFFFFFFFFFFFF AND DUP3 PUSH1 0x20 ADD MLOAD PUSH12 0xFFFFFFFFFFFFFFFFFFFFFFFF AND DUP7 PUSH2 0x10F6 SWAP2 SWAP1 PUSH2 0x38FF JUMP JUMPDEST PUSH2 0x1100 SWAP2 SWAP1 PUSH2 0x3970 JUMP JUMPDEST SWAP1 POP DUP2 PUSH1 0x0 ADD MLOAD DUP2 SWAP4 POP SWAP4 POP POP POP SWAP3 POP SWAP3 SWAP1 POP JUMP JUMPDEST PUSH2 0x111D PUSH2 0x241B JUMP JUMPDEST PUSH3 0x15180 TIMESTAMP PUSH2 0x112C SWAP2 SWAP1 PUSH2 0x39A1 JUMP JUMPDEST PUSH1 0xB PUSH1 0x0 PUSH2 0x100 EXP DUP2 SLOAD DUP2 PUSH8 0xFFFFFFFFFFFFFFFF MUL NOT AND SWAP1 DUP4 PUSH8 0xFFFFFFFFFFFFFFFF AND MUL OR SWAP1 SSTORE POP PUSH3 0x2A300 TIMESTAMP PUSH2 0x1163 SWAP2 SWAP1 PUSH2 0x39A1 JUMP JUMPDEST PUSH1 0xB PUSH1 0x8 PUSH2 0x100 EXP DUP2 SLOAD DUP2 PUSH8 0xFFFFFFFFFFFFFFFF MUL NOT AND SWAP1 DUP4 PUSH8 0xFFFFFFFFFFFFFFFF AND MUL OR SWAP1 SSTORE POP JUMP JUMPDEST PUSH1 0x60 DUP2 PUSH1 0x40 MLOAD PUSH1 0x20 ADD PUSH2 0x11A0 SWAP2 SWAP1 PUSH2 0x4DD6 JUMP JUMPDEST PUSH1 0x40 MLOAD PUSH1 0x20 DUP2 DUP4 SUB SUB DUP2 MSTORE SWAP1 PUSH1 0x40 MSTORE SWAP1 POP SWAP2 SWAP1 POP JUMP JUMPDEST PUSH2 0x11BE PUSH2 0x241B JUMP JUMPDEST DUP1 PUSH1 0xF PUSH1 0x0 PUSH2 0x100 EXP DUP2 SLOAD DUP2 PUSH20 0xFFFFFFFFFFFFFFFFFFFFFFFFFFFFFFFFFFFFFFFF MUL NOT AND SWAP1 DUP4 PUSH20 0xFFFFFFFFFFFFFFFFFFFFFFFFFFFFFFFFFFFFFFFF AND MUL OR SWAP1 SSTORE POP DUP1 PUSH1 0x11 PUSH1 0x0 PUSH2 0x100 EXP DUP2 SLOAD DUP2 PUSH20 0xFFFFFFFFFFFFFFFFFFFFFFFFFFFFFFFFFFFFFFFF MUL NOT AND SWAP1 DUP4 PUSH20 0xFFFFFFFFFFFFFFFFFFFFFFFFFFFFFFFFFFFFFFFF AND MUL OR SWAP1 SSTORE POP POP JUMP JUMPDEST PUSH1 0xB PUSH1 0x0 SWAP1 SLOAD SWAP1 PUSH2 0x100 EXP SWAP1 DIV PUSH8 0xFFFFFFFFFFFFFFFF AND DUP2 JUMP JUMPDEST PUSH2 0x1265 PUSH2 0x241B JUMP JUMPDEST CALLER PUSH20 0xFFFFFFFFFFFFFFFFFFFFFFFFFFFFFFFFFFFFFFFF AND PUSH2 0x8FC SELFBALANCE SWAP1 DUP2 ISZERO MUL SWAP1 PUSH1 0x40 MLOAD PUSH1 0x0 PUSH1 0x40 MLOAD DUP1 DUP4 SUB DUP2 DUP6 DUP9 DUP9 CALL SWAP4 POP POP POP POP PUSH2 0x12A3 JUMPI PUSH1 0x0 DUP1 REVERT JUMPDEST JUMP JUMPDEST PUSH2 0x12AD PUSH2 0x2CBB JUMP JUMPDEST PUSH1 0x0 PUSH1 0x1 SWAP1 POP JUMPDEST PUSH1 0x41 DUP2 LT ISZERO PUSH2 0x132A JUMPI PUSH1 0xD PUSH1 0x0 DUP3 DUP2 MSTORE PUSH1 0x20 ADD SWAP1 DUP2 MSTORE PUSH1 0x20 ADD PUSH1 0x0 KECCAK256 PUSH1 0x0 SWAP1 SLOAD SWAP1 PUSH2 0x100 EXP SWAP1 DIV PUSH4 0xFFFFFFFF AND DUP3 PUSH1 0x1 DUP4 PUSH2 0x12EF SWAP2 SWAP1 PUSH2 0x4E03 JUMP JUMPDEST PUSH1 0x40 DUP2 LT PUSH2 0x1300 JUMPI PUSH2 0x12FF PUSH2 0x4E37 JUMP JUMPDEST JUMPDEST PUSH1 0x20 MUL ADD SWAP1 PUSH4 0xFFFFFFFF AND SWAP1 DUP2 PUSH4 0xFFFFFFFF AND DUP2 MSTORE POP POP DUP1 DUP1 PUSH2 0x1322 SWAP1 PUSH2 0x38B7 JUMP JUMPDEST SWAP2 POP POP PUSH2 0x12B4 JUMP JUMPDEST POP SWAP1 JUMP JUMPDEST PUSH2 0x1349 DUP4 DUP4 DUP4 PUSH1 0x40 MLOAD DUP1 PUSH1 0x20 ADD PUSH1 0x40 MSTORE DUP1 PUSH1 0x0 DUP2 MSTORE POP PUSH2 0x1D7E JUMP JUMPDEST POP POP POP JUMP JUMPDEST PUSH1 0x0 DUP4 GT DUP1 ISZERO PUSH2 0x135E JUMPI POP PUSH1 0x41 DUP4 LT JUMPDEST PUSH2 0x139D JUMPI PUSH1 0x40 MLOAD PUSH32 0x8C379A000000000000000000000000000000000000000000000000000000000 DUP2 MSTORE PUSH1 0x4 ADD PUSH2 0x1394 SWAP1 PUSH2 0x4EB2 JUMP JUMPDEST PUSH1 0x40 MLOAD DUP1 SWAP2 SUB SWAP1 REVERT JUMPDEST CALLER PUSH20 0xFFFFFFFFFFFFFFFFFFFFFFFFFFFFFFFFFFFFFFFF AND PUSH1 0x11 PUSH1 0x0 SWAP1 SLOAD SWAP1 PUSH2 0x100 EXP SWAP1 DIV PUSH20 0xFFFFFFFFFFFFFFFFFFFFFFFFFFFFFFFFFFFFFFFF AND PUSH20 0xFFFFFFFFFFFFFFFFFFFFFFFFFFFFFFFFFFFFFFFF AND PUSH4 0x6352211E DUP4 PUSH1 0x40 MLOAD DUP3 PUSH4 0xFFFFFFFF AND PUSH1 0xE0 SHL DUP2 MSTORE PUSH1 0x4 ADD PUSH2 0x140F SWAP2 SWAP1 PUSH2 0x2FD7 JUMP JUMPDEST PUSH1 0x20 PUSH1 0x40 MLOAD DUP1 DUP4 SUB DUP2 DUP7 GAS STATICCALL ISZERO DUP1 ISZERO PUSH2 0x142C JUMPI RETURNDATASIZE PUSH1 0x0 DUP1 RETURNDATACOPY RETURNDATASIZE PUSH1 0x0 REVERT JUMPDEST POP POP POP POP PUSH1 0x40 MLOAD RETURNDATASIZE PUSH1 0x1F NOT PUSH1 0x1F DUP3 ADD AND DUP3 ADD DUP1 PUSH1 0x40 MSTORE POP DUP2 ADD SWAP1 PUSH2 0x1450 SWAP2 SWAP1 PUSH2 0x4EE7 JUMP JUMPDEST PUSH20 0xFFFFFFFFFFFFFFFFFFFFFFFFFFFFFFFFFFFFFFFF AND EQ PUSH2 0x14A6 JUMPI PUSH1 0x40 MLOAD PUSH32 0x8C379A000000000000000000000000000000000000000000000000000000000 DUP2 MSTORE PUSH1 0x4 ADD PUSH2 0x149D SWAP1 PUSH2 0x4F60 JUMP JUMPDEST PUSH1 0x40 MLOAD DUP1 SWAP2 SUB SWAP1 REVERT JUMPDEST PUSH1 0x0 ISZERO ISZERO PUSH1 0xE PUSH1 0x0 DUP4 DUP2 MSTORE PUSH1 0x20 ADD SWAP1 DUP2 MSTORE PUSH1 0x20 ADD PUSH1 0x0 KECCAK256 PUSH1 0x0 SWAP1 SLOAD SWAP1 PUSH2 0x100 EXP SWAP1 DIV PUSH1 0xFF AND ISZERO ISZERO EQ PUSH2 0x150D JUMPI PUSH1 0x40 MLOAD PUSH32 0x8C379A000000000000000000000000000000000000000000000000000000000 DUP2 MSTORE PUSH1 0x4 ADD PUSH2 0x1504 SWAP1 PUSH2 0x4FCC JUMP JUMPDEST PUSH1 0x40 MLOAD DUP1 SWAP2 SUB SWAP1 REVERT JUMPDEST PUSH1 0x0 PUSH2 0x1518 CALLER PUSH2 0x1701 JUMP JUMPDEST GT PUSH2 0x1558 JUMPI PUSH1 0x40 MLOAD PUSH32 0x8C379A000000000000000000000000000000000000000000000000000000000 DUP2 MSTORE PUSH1 0x4 ADD PUSH2 0x154F SWAP1 PUSH2 0x505E JUMP JUMPDEST PUSH1 0x40 MLOAD DUP1 SWAP2 SUB SWAP1 REVERT JUMPDEST PUSH1 0x0 DUP3 PUSH1 0x2 PUSH1 0x3 DUP2 LT PUSH2 0x156E JUMPI PUSH2 0x156D PUSH2 0x4E37 JUMP JUMPDEST JUMPDEST PUSH1 0x20 MUL ADD MLOAD PUSH1 0xFF AND PUSH1 0x8 DUP5 PUSH1 0x1 PUSH1 0x3 DUP2 LT PUSH2 0x158C JUMPI PUSH2 0x158B PUSH2 0x4E37 JUMP JUMPDEST JUMPDEST PUSH1 0x20 MUL ADD MLOAD PUSH1 0xFF AND PUSH4 0xFFFFFFFF AND SWAP1 SHL PUSH1 0x10 DUP6 PUSH1 0x0 PUSH1 0x3 DUP2 LT PUSH2 0x15B2 JUMPI PUSH2 0x15B1 PUSH2 0x4E37 JUMP JUMPDEST JUMPDEST PUSH1 0x20 MUL ADD MLOAD PUSH1 0xFF AND PUSH4 0xFFFFFFFF AND SWAP1 SHL OR OR SWAP1 POP DUP1 PUSH1 0xD PUSH1 0x0 DUP7 DUP2 MSTORE PUSH1 0x20 ADD SWAP1 DUP2 MSTORE PUSH1 0x20 ADD PUSH1 0x0 KECCAK256 PUSH1 0x0 PUSH2 0x100 EXP DUP2 SLOAD DUP2 PUSH4 0xFFFFFFFF MUL NOT AND SWAP1 DUP4 PUSH4 0xFFFFFFFF AND MUL OR SWAP1 SSTORE POP PUSH1 0x12 PUSH1 0x0 SWAP1 SLOAD SWAP1 PUSH2 0x100 EXP SWAP1 DIV PUSH20 0xFFFFFFFFFFFFFFFFFFFFFFFFFFFFFFFFFFFFFFFF AND PUSH20 0xFFFFFFFFFFFFFFFFFFFFFFFFFFFFFFFFFFFFFFFF AND PUSH4 0x10B4B038 PUSH1 0x1 PUSH1 0xC SLOAD PUSH2 0x1645 SWAP2 SWAP1 PUSH2 0x39A1 JUMP JUMPDEST DUP7 PUSH2 0x164F DUP6 PUSH2 0x1F1E JUMP JUMPDEST CALLER DUP8 TIMESTAMP PUSH1 0x40 MLOAD DUP8 PUSH4 0xFFFFFFFF AND PUSH1 0xE0 SHL DUP2 MSTORE PUSH1 0x4 ADD PUSH2 0x1673 SWAP7 SWAP6 SWAP5 SWAP4 SWAP3 SWAP2 SWAP1 PUSH2 0x507E JUMP JUMPDEST PUSH1 0x0 PUSH1 0x40 MLOAD DUP1 DUP4 SUB DUP2 PUSH1 0x0 DUP8 DUP1 EXTCODESIZE ISZERO DUP1 ISZERO PUSH2 0x168D JUMPI PUSH1 0x0 DUP1 REVERT JUMPDEST POP GAS CALL ISZERO DUP1 ISZERO PUSH2 0x16A1 JUMPI RETURNDATASIZE PUSH1 0x0 DUP1 RETURNDATACOPY RETURNDATASIZE PUSH1 0x0 REVERT JUMPDEST POP POP POP POP PUSH1 0xC PUSH1 0x0 DUP2 SLOAD DUP1 SWAP3 SWAP2 SWAP1 PUSH2 0x16B8 SWAP1 PUSH2 0x38B7 JUMP JUMPDEST SWAP2 SWAP1 POP SSTORE POP PUSH1 0x1 PUSH1 0xE PUSH1 0x0 DUP5 DUP2 MSTORE PUSH1 0x20 ADD SWAP1 DUP2 MSTORE PUSH1 0x20 ADD PUSH1 0x0 KECCAK256 PUSH1 0x0 PUSH2 0x100 EXP DUP2 SLOAD DUP2 PUSH1 0xFF MUL NOT AND SWAP1 DUP4 ISZERO ISZERO MUL OR SWAP1 SSTORE POP POP POP POP POP JUMP JUMPDEST PUSH1 0x0 PUSH2 0x16FA DUP3 PUSH2 0x227B JUMP JUMPDEST SWAP1 POP SWAP2 SWAP1 POP JUMP JUMPDEST PUSH1 0x0 DUP1 PUSH20 0xFFFFFFFFFFFFFFFFFFFFFFFFFFFFFFFFFFFFFFFF AND DUP3 PUSH20 0xFFFFFFFFFFFFFFFFFFFFFFFFFFFFFFFFFFFFFFFF AND SUB PUSH2 0x1768 JUMPI PUSH1 0x40 MLOAD PUSH32 0x8F4EB60400000000000000000000000000000000000000000000000000000000 DUP2 MSTORE PUSH1 0x4 ADD PUSH1 0x40 MLOAD DUP1 SWAP2 SUB SWAP1 REVERT JUMPDEST PUSH8 0xFFFFFFFFFFFFFFFF PUSH1 0x5 PUSH1 0x0 DUP5 PUSH20 0xFFFFFFFFFFFFFFFFFFFFFFFFFFFFFFFFFFFFFFFF AND PUSH20 0xFFFFFFFFFFFFFFFFFFFFFFFFFFFFFFFFFFFFFFFF AND DUP2 MSTORE PUSH1 0x20 ADD SWAP1 DUP2 MSTORE PUSH1 0x20 ADD PUSH1 0x0 KECCAK256 SLOAD AND SWAP1 POP SWAP2 SWAP1 POP JUMP JUMPDEST PUSH2 0x17C1 PUSH2 0x241B JUMP JUMPDEST PUSH2 0x17CB PUSH1 0x0 PUSH2 0x2499 JUMP JUMPDEST JUMP JUMPDEST PUSH1 0x60 PUSH1 0x0 PUSH1 0x1 SWAP1 POP JUMPDEST PUSH1 0x41 DUP2 LT ISZERO PUSH2 0x184B JUMPI DUP2 PUSH2 0x17E9 DUP3 PUSH2 0x255F JUMP JUMPDEST PUSH2 0x1815 PUSH1 0xD PUSH1 0x0 DUP6 DUP2 MSTORE PUSH1 0x20 ADD SWAP1 DUP2 MSTORE PUSH1 0x20 ADD PUSH1 0x0 KECCAK256 PUSH1 0x0 SWAP1 SLOAD SWAP1 PUSH2 0x100 EXP SWAP1 DIV PUSH4 0xFFFFFFFF AND PUSH2 0x1F1E JUMP JUMPDEST PUSH1 0x40 MLOAD PUSH1 0x20 ADD PUSH2 0x1827 SWAP4 SWAP3 SWAP2 SWAP1 PUSH2 0x51CA JUMP JUMPDEST PUSH1 0x40 MLOAD PUSH1 0x20 DUP2 DUP4 SUB SUB DUP2 MSTORE SWAP1 PUSH1 0x40 MSTORE SWAP2 POP DUP1 DUP1 PUSH2 0x1843 SWAP1 PUSH2 0x38B7 JUMP JUMPDEST SWAP2 POP POP PUSH2 0x17D6 JUMP JUMPDEST POP SWAP1 JUMP JUMPDEST PUSH1 0x60 PUSH1 0x0 JUMPDEST PUSH1 0x40 DUP2 LT ISZERO PUSH2 0x18C9 JUMPI DUP2 PUSH2 0x1873 PUSH1 0x1 DUP4 PUSH2 0x186E SWAP2 SWAP1 PUSH2 0x39A1 JUMP JUMPDEST PUSH2 0x255F JUMP JUMPDEST PUSH2 0x1893 DUP6 DUP5 PUSH1 0x40 DUP2 LT PUSH2 0x1889 JUMPI PUSH2 0x1888 PUSH2 0x4E37 JUMP JUMPDEST JUMPDEST PUSH1 0x20 MUL ADD MLOAD PUSH2 0x1F1E JUMP JUMPDEST PUSH1 0x40 MLOAD PUSH1 0x20 ADD PUSH2 0x18A5 SWAP4 SWAP3 SWAP2 SWAP1 PUSH2 0x51CA JUMP JUMPDEST PUSH1 0x40 MLOAD PUSH1 0x20 DUP2 DUP4 SUB SUB DUP2 MSTORE SWAP1 PUSH1 0x40 MSTORE SWAP2 POP DUP1 DUP1 PUSH2 0x18C1 SWAP1 PUSH2 0x38B7 JUMP JUMPDEST SWAP2 POP POP PUSH2 0x1854 JUMP JUMPDEST POP SWAP2 SWAP1 POP JUMP JUMPDEST PUSH1 0x0 PUSH1 0x8 PUSH1 0x0 SWAP1 SLOAD SWAP1 PUSH2 0x100 EXP SWAP1 DIV PUSH20 0xFFFFFFFFFFFFFFFFFFFFFFFFFFFFFFFFFFFFFFFF AND SWAP1 POP SWAP1 JUMP JUMPDEST PUSH2 0x1901 PUSH2 0x241B JUMP JUMPDEST PUSH2 0x190B DUP3 DUP3 PUSH2 0x25AF JUMP JUMPDEST POP POP JUMP JUMPDEST PUSH1 0x60 PUSH1 0x3 DUP1 SLOAD PUSH2 0x191E SWAP1 PUSH2 0x3857 JUMP JUMPDEST DUP1 PUSH1 0x1F ADD PUSH1 0x20 DUP1 SWAP2 DIV MUL PUSH1 0x20 ADD PUSH1 0x40 MLOAD SWAP1 DUP2 ADD PUSH1 0x40 MSTORE DUP1 SWAP3 SWAP2 SWAP1 DUP2 DUP2 MSTORE PUSH1 0x20 ADD DUP3 DUP1 SLOAD PUSH2 0x194A SWAP1 PUSH2 0x3857 JUMP JUMPDEST DUP1 ISZERO PUSH2 0x1997 JUMPI DUP1 PUSH1 0x1F LT PUSH2 0x196C JUMPI PUSH2 0x100 DUP1 DUP4 SLOAD DIV MUL DUP4 MSTORE SWAP2 PUSH1 0x20 ADD SWAP2 PUSH2 0x1997 JUMP JUMPDEST DUP3 ADD SWAP2 SWAP1 PUSH1 0x0 MSTORE PUSH1 0x20 PUSH1 0x0 KECCAK256 SWAP1 JUMPDEST DUP2 SLOAD DUP2 MSTORE SWAP1 PUSH1 0x1 ADD SWAP1 PUSH1 0x20 ADD DUP1 DUP4 GT PUSH2 0x197A JUMPI DUP3 SWAP1 SUB PUSH1 0x1F AND DUP3 ADD SWAP2 JUMPDEST POP POP POP POP POP SWAP1 POP SWAP1 JUMP JUMPDEST PUSH1 0x0 PUSH1 0x11 PUSH1 0x0 SWAP1 SLOAD SWAP1 PUSH2 0x100 EXP SWAP1 DIV PUSH20 0xFFFFFFFFFFFFFFFFFFFFFFFFFFFFFFFFFFFFFFFF AND PUSH20 0xFFFFFFFFFFFFFFFFFFFFFFFFFFFFFFFFFFFFFFFF AND PUSH4 0xFF4C916 DUP4 PUSH1 0x40 MLOAD DUP3 PUSH4 0xFFFFFFFF AND PUSH1 0xE0 SHL DUP2 MSTORE PUSH1 0x4 ADD PUSH2 0x19FE SWAP2 SWAP1 PUSH2 0x2FD7 JUMP JUMPDEST PUSH1 0x20 PUSH1 0x40 MLOAD DUP1 DUP4 SUB DUP2 DUP7 GAS STATICCALL ISZERO DUP1 ISZERO PUSH2 0x1A1B JUMPI RETURNDATASIZE PUSH1 0x0 DUP1 RETURNDATACOPY RETURNDATASIZE PUSH1 0x0 REVERT JUMPDEST POP POP POP POP PUSH1 0x40 MLOAD RETURNDATASIZE PUSH1 0x1F NOT PUSH1 0x1F DUP3 ADD AND DUP3 ADD DUP1 PUSH1 0x40 MSTORE POP DUP2 ADD SWAP1 PUSH2 0x1A3F SWAP2 SWAP1 PUSH2 0x5231 JUMP JUMPDEST SWAP1 POP SWAP2 SWAP1 POP JUMP JUMPDEST PUSH1 0xB PUSH1 0x0 SWAP1 SLOAD SWAP1 PUSH2 0x100 EXP SWAP1 DIV PUSH8 0xFFFFFFFFFFFFFFFF AND PUSH8 0xFFFFFFFFFFFFFFFF AND TIMESTAMP LT ISZERO PUSH2 0x1BA8 JUMPI PUSH1 0x0 PUSH1 0x11 PUSH1 0x0 SWAP1 SLOAD SWAP1 PUSH2 0x100 EXP SWAP1 DIV PUSH20 0xFFFFFFFFFFFFFFFFFFFFFFFFFFFFFFFFFFFFFFFF AND PUSH20 0xFFFFFFFFFFFFFFFFFFFFFFFFFFFFFFFFFFFFFFFF AND PUSH4 0x70A08231 CALLER PUSH1 0x40 MLOAD DUP3 PUSH4 0xFFFFFFFF AND PUSH1 0xE0 SHL DUP2 MSTORE PUSH1 0x4 ADD PUSH2 0x1ACB SWAP2 SWAP1 PUSH2 0x2F41 JUMP JUMPDEST PUSH1 0x20 PUSH1 0x40 MLOAD DUP1 DUP4 SUB DUP2 DUP7 GAS STATICCALL ISZERO DUP1 ISZERO PUSH2 0x1AE8 JUMPI RETURNDATASIZE PUSH1 0x0 DUP1 RETURNDATACOPY RETURNDATASIZE PUSH1 0x0 REVERT JUMPDEST POP POP POP POP PUSH1 0x40 MLOAD RETURNDATASIZE PUSH1 0x1F NOT PUSH1 0x1F DUP3 ADD AND DUP3 ADD DUP1 PUSH1 0x40 MSTORE POP DUP2 ADD SWAP1 PUSH2 0x1B0C SWAP2 SWAP1 PUSH2 0x5231 JUMP JUMPDEST GT PUSH2 0x1B4C JUMPI PUSH1 0x40 MLOAD PUSH32 0x8C379A000000000000000000000000000000000000000000000000000000000 DUP2 MSTORE PUSH1 0x4 ADD PUSH2 0x1B43 SWAP1 PUSH2 0x52D0 JUMP JUMPDEST PUSH1 0x40 MLOAD DUP1 SWAP2 SUB SWAP1 REVERT JUMPDEST PUSH1 0x6 DUP2 PUSH2 0x1B59 SWAP2 SWAP1 PUSH2 0x38FF JUMP JUMPDEST PUSH1 0xB PUSH1 0x8 DUP3 DUP3 DUP3 SWAP1 SLOAD SWAP1 PUSH2 0x100 EXP SWAP1 DIV PUSH8 0xFFFFFFFFFFFFFFFF AND PUSH2 0x1B7D SWAP2 SWAP1 PUSH2 0x52F0 JUMP JUMPDEST SWAP3 POP PUSH2 0x100 EXP DUP2 SLOAD DUP2 PUSH8 0xFFFFFFFFFFFFFFFF MUL NOT AND SWAP1 DUP4 PUSH8 0xFFFFFFFFFFFFFFFF AND MUL OR SWAP1 SSTORE POP PUSH2 0x1C0B JUMP JUMPDEST PUSH1 0xB PUSH1 0x8 SWAP1 SLOAD SWAP1 PUSH2 0x100 EXP SWAP1 DIV PUSH8 0xFFFFFFFFFFFFFFFF AND PUSH8 0xFFFFFFFFFFFFFFFF AND TIMESTAMP LT PUSH2 0x1C0A JUMPI PUSH1 0x40 MLOAD PUSH32 0x8C379A000000000000000000000000000000000000000000000000000000000 DUP2 MSTORE PUSH1 0x4 ADD PUSH2 0x1C01 SWAP1 PUSH2 0x5378 JUMP JUMPDEST PUSH1 0x40 MLOAD DUP1 SWAP2 SUB SWAP1 REVERT JUMPDEST JUMPDEST PUSH2 0x1C14 DUP2 PUSH2 0x2744 JUMP JUMPDEST POP JUMP JUMPDEST DUP1 PUSH1 0x7 PUSH1 0x0 PUSH2 0x1C24 PUSH2 0x226A JUMP JUMPDEST PUSH20 0xFFFFFFFFFFFFFFFFFFFFFFFFFFFFFFFFFFFFFFFF AND PUSH20 0xFFFFFFFFFFFFFFFFFFFFFFFFFFFFFFFFFFFFFFFF AND DUP2 MSTORE PUSH1 0x20 ADD SWAP1 DUP2 MSTORE PUSH1 0x20 ADD PUSH1 0x0 KECCAK256 PUSH1 0x0 DUP5 PUSH20 0xFFFFFFFFFFFFFFFFFFFFFFFFFFFFFFFFFFFFFFFF AND PUSH20 0xFFFFFFFFFFFFFFFFFFFFFFFFFFFFFFFFFFFFFFFF AND DUP2 MSTORE PUSH1 0x20 ADD SWAP1 DUP2 MSTORE PUSH1 0x20 ADD PUSH1 0x0 KECCAK256 PUSH1 0x0 PUSH2 0x100 EXP DUP2 SLOAD DUP2 PUSH1 0xFF MUL NOT AND SWAP1 DUP4 ISZERO ISZERO MUL OR SWAP1 SSTORE POP DUP2 PUSH20 0xFFFFFFFFFFFFFFFFFFFFFFFFFFFFFFFFFFFFFFFF AND PUSH2 0x1CD1 PUSH2 0x226A JUMP JUMPDEST PUSH20 0xFFFFFFFFFFFFFFFFFFFFFFFFFFFFFFFFFFFFFFFF AND PUSH32 0x17307EAB39AB6107E8899845AD3D59BD9653F200F220920489CA2B5937696C31 DUP4 PUSH1 0x40 MLOAD PUSH2 0x1D16 SWAP2 SWAP1 PUSH2 0x2D92 JUMP JUMPDEST PUSH1 0x40 MLOAD DUP1 SWAP2 SUB SWAP1 LOG3 POP POP JUMP JUMPDEST PUSH1 0x0 PUSH1 0x1 SWAP1 POP JUMPDEST PUSH1 0x41 DUP2 LT ISZERO PUSH2 0x1D75 JUMPI PUSH2 0x1D62 DUP2 PUSH1 0x40 MLOAD DUP1 PUSH1 0x60 ADD PUSH1 0x40 MSTORE DUP1 PUSH1 0xFF DUP1 AND DUP2 MSTORE PUSH1 0x20 ADD PUSH1 0x0 PUSH1 0xFF AND DUP2 MSTORE PUSH1 0x20 ADD PUSH1 0x0 PUSH1 0xFF AND DUP2 MSTORE POP DUP4 PUSH2 0x134E JUMP JUMPDEST DUP1 DUP1 PUSH2 0x1D6D SWAP1 PUSH2 0x38B7 JUMP JUMPDEST SWAP2 POP POP PUSH2 0x1D29 JUMP JUMPDEST POP JUMP JUMPDEST PUSH1 0xC SLOAD DUP2 JUMP JUMPDEST PUSH2 0x1D89 DUP5 DUP5 DUP5 PUSH2 0xC09 JUMP JUMPDEST PUSH1 0x0 DUP4 PUSH20 0xFFFFFFFFFFFFFFFFFFFFFFFFFFFFFFFFFFFFFFFF AND EXTCODESIZE EQ PUSH2 0x1DEB JUMPI PUSH2 0x1DB4 DUP5 DUP5 DUP5 DUP5 PUSH2 0x27C2 JUMP JUMPDEST PUSH2 0x1DEA JUMPI PUSH1 0x40 MLOAD PUSH32 0xD1A57ED600000000000000000000000000000000000000000000000000000000 DUP2 MSTORE PUSH1 0x4 ADD PUSH1 0x40 MLOAD DUP1 SWAP2 SUB SWAP1 REVERT JUMPDEST JUMPDEST POP POP POP POP JUMP JUMPDEST PUSH1 0xD PUSH1 0x20 MSTORE DUP1 PUSH1 0x0 MSTORE PUSH1 0x40 PUSH1 0x0 KECCAK256 PUSH1 0x0 SWAP2 POP SLOAD SWAP1 PUSH2 0x100 EXP SWAP1 DIV PUSH4 0xFFFFFFFF AND DUP2 JUMP JUMPDEST PUSH2 0x1E1C PUSH2 0x241B JUMP JUMPDEST DUP1 PUSH1 0x10 PUSH1 0x0 PUSH2 0x100 EXP DUP2 SLOAD DUP2 PUSH20 0xFFFFFFFFFFFFFFFFFFFFFFFFFFFFFFFFFFFFFFFF MUL NOT AND SWAP1 DUP4 PUSH20 0xFFFFFFFFFFFFFFFFFFFFFFFFFFFFFFFFFFFFFFFF AND MUL OR SWAP1 SSTORE POP DUP1 PUSH1 0x12 PUSH1 0x0 PUSH2 0x100 EXP DUP2 SLOAD DUP2 PUSH20 0xFFFFFFFFFFFFFFFFFFFFFFFFFFFFFFFFFFFFFFFF MUL NOT AND SWAP1 DUP4 PUSH20 0xFFFFFFFFFFFFFFFFFFFFFFFFFFFFFFFFFFFFFFFF AND MUL OR SWAP1 SSTORE POP POP JUMP JUMPDEST PUSH1 0x60 PUSH1 0x0 PUSH2 0x1EB5 PUSH2 0x1EB0 PUSH2 0x17CD JUMP JUMPDEST PUSH2 0x118D JUMP JUMPDEST SWAP1 POP PUSH1 0x0 PUSH2 0x1EC2 DUP5 PUSH2 0x255F JUMP JUMPDEST PUSH2 0x1ECB DUP4 PUSH2 0x2912 JUMP JUMPDEST PUSH1 0x40 MLOAD PUSH1 0x20 ADD PUSH2 0x1EDC SWAP3 SWAP2 SWAP1 PUSH2 0x5514 JUMP JUMPDEST PUSH1 0x40 MLOAD PUSH1 0x20 DUP2 DUP4 SUB SUB DUP2 MSTORE SWAP1 PUSH1 0x40 MSTORE SWAP1 POP PUSH2 0x1EF6 DUP2 PUSH2 0x2912 JUMP JUMPDEST PUSH1 0x40 MLOAD PUSH1 0x20 ADD PUSH2 0x1F06 SWAP2 SWAP1 PUSH2 0x55A5 JUMP JUMPDEST PUSH1 0x40 MLOAD PUSH1 0x20 DUP2 DUP4 SUB SUB DUP2 MSTORE SWAP1 PUSH1 0x40 MSTORE SWAP3 POP POP POP SWAP2 SWAP1 POP JUMP JUMPDEST PUSH1 0x60 PUSH1 0x0 PUSH1 0x10 DUP4 PUSH4 0xFFFFFFFF AND SWAP1 SHR SWAP1 POP PUSH1 0x0 PUSH1 0x8 DUP5 PUSH4 0xFFFFFFFF AND SWAP1 SHR SWAP1 POP PUSH1 0x0 DUP5 SWAP1 POP PUSH2 0x1F4F DUP4 PUSH1 0xFF AND PUSH2 0x255F JUMP JUMPDEST PUSH2 0x1F5B DUP4 PUSH1 0xFF AND PUSH2 0x255F JUMP JUMPDEST PUSH2 0x1F67 DUP4 PUSH1 0xFF AND PUSH2 0x255F JUMP JUMPDEST PUSH1 0x40 MLOAD PUSH1 0x20 ADD PUSH2 0x1F79 SWAP4 SWAP3 SWAP2 SWAP1 PUSH2 0x56AB JUMP JUMPDEST PUSH1 0x40 MLOAD PUSH1 0x20 DUP2 DUP4 SUB SUB DUP2 MSTORE SWAP1 PUSH1 0x40 MSTORE SWAP4 POP POP POP POP SWAP2 SWAP1 POP JUMP JUMPDEST PUSH1 0x0 PUSH1 0x1 SWAP1 POP JUMPDEST PUSH1 0x41 DUP2 LT ISZERO PUSH2 0x1FE5 JUMPI PUSH2 0x1FD2 DUP2 PUSH1 0x40 MLOAD DUP1 PUSH1 0x60 ADD PUSH1 0x40 MSTORE DUP1 PUSH1 0x0 PUSH1 0xFF AND DUP2 MSTORE PUSH1 0x20 ADD PUSH1 0x0 PUSH1 0xFF AND DUP2 MSTORE PUSH1 0x20 ADD PUSH1 0xFF DUP1 AND DUP2 MSTORE POP DUP4 PUSH2 0x134E JUMP JUMPDEST DUP1 DUP1 PUSH2 0x1FDD SWAP1 PUSH2 0x38B7 JUMP JUMPDEST SWAP2 POP POP PUSH2 0x1F99 JUMP JUMPDEST POP JUMP JUMPDEST PUSH1 0x0 PUSH1 0x7 PUSH1 0x0 DUP5 PUSH20 0xFFFFFFFFFFFFFFFFFFFFFFFFFFFFFFFFFFFFFFFF AND PUSH20 0xFFFFFFFFFFFFFFFFFFFFFFFFFFFFFFFFFFFFFFFF AND DUP2 MSTORE PUSH1 0x20 ADD SWAP1 DUP2 MSTORE PUSH1 0x20 ADD PUSH1 0x0 KECCAK256 PUSH1 0x0 DUP4 PUSH20 0xFFFFFFFFFFFFFFFFFFFFFFFFFFFFFFFFFFFFFFFF AND PUSH20 0xFFFFFFFFFFFFFFFFFFFFFFFFFFFFFFFFFFFFFFFF AND DUP2 MSTORE PUSH1 0x20 ADD SWAP1 DUP2 MSTORE PUSH1 0x20 ADD PUSH1 0x0 KECCAK256 PUSH1 0x0 SWAP1 SLOAD SWAP1 PUSH2 0x100 EXP SWAP1 DIV PUSH1 0xFF AND SWAP1 POP SWAP3 SWAP2 POP POP JUMP JUMPDEST PUSH2 0x2084 PUSH2 0x241B JUMP JUMPDEST PUSH1 0x0 PUSH20 0xFFFFFFFFFFFFFFFFFFFFFFFFFFFFFFFFFFFFFFFF AND DUP2 PUSH20 0xFFFFFFFFFFFFFFFFFFFFFFFFFFFFFFFFFFFFFFFF AND SUB PUSH2 0x20F3 JUMPI PUSH1 0x40 MLOAD PUSH32 0x8C379A000000000000000000000000000000000000000000000000000000000 DUP2 MSTORE PUSH1 0x4 ADD PUSH2 0x20EA SWAP1 PUSH2 0x577A JUMP JUMPDEST PUSH1 0x40 MLOAD DUP1 SWAP2 SUB SWAP1 REVERT JUMPDEST PUSH2 0x20FC DUP2 PUSH2 0x2499 JUMP JUMPDEST POP JUMP JUMPDEST PUSH1 0x0 PUSH4 0x1FFC9A7 PUSH1 0xE0 SHL DUP3 PUSH28 0xFFFFFFFFFFFFFFFFFFFFFFFFFFFFFFFFFFFFFFFFFFFFFFFFFFFFFFFF NOT AND EQ DUP1 PUSH2 0x215A JUMPI POP PUSH4 0x80AC58CD PUSH1 0xE0 SHL DUP3 PUSH28 0xFFFFFFFFFFFFFFFFFFFFFFFFFFFFFFFFFFFFFFFFFFFFFFFFFFFFFFFF NOT AND EQ JUMPDEST DUP1 PUSH2 0x218A JUMPI POP PUSH4 0x5B5E139F PUSH1 0xE0 SHL DUP3 PUSH28 0xFFFFFFFFFFFFFFFFFFFFFFFFFFFFFFFFFFFFFFFFFFFFFFFFFFFFFFFF NOT AND EQ JUMPDEST SWAP1 POP SWAP2 SWAP1 POP JUMP JUMPDEST PUSH1 0x0 PUSH32 0x2A55205A00000000000000000000000000000000000000000000000000000000 PUSH28 0xFFFFFFFFFFFFFFFFFFFFFFFFFFFFFFFFFFFFFFFFFFFFFFFFFFFFFFFF NOT AND DUP3 PUSH28 0xFFFFFFFFFFFFFFFFFFFFFFFFFFFFFFFFFFFFFFFFFFFFFFFFFFFFFFFF NOT AND EQ DUP1 PUSH2 0x2204 JUMPI POP PUSH2 0x2203 DUP3 PUSH2 0x2A75 JUMP JUMPDEST JUMPDEST SWAP1 POP SWAP2 SWAP1 POP JUMP JUMPDEST PUSH1 0x0 DUP2 PUSH2 0x2216 PUSH2 0x2272 JUMP JUMPDEST GT ISZERO DUP1 ISZERO PUSH2 0x2225 JUMPI POP PUSH1 0x0 SLOAD DUP3 LT JUMPDEST DUP1 ISZERO PUSH2 0x2263 JUMPI POP PUSH1 0x0 PUSH29 0x100000000000000000000000000000000000000000000000000000000 PUSH1 0x4 PUSH1 0x0 DUP6 DUP2 MSTORE PUSH1 0x20 ADD SWAP1 DUP2 MSTORE PUSH1 0x20 ADD PUSH1 0x0 KECCAK256 SLOAD AND EQ JUMPDEST SWAP1 POP SWAP2 SWAP1 POP JUMP JUMPDEST PUSH1 0x0 CALLER SWAP1 POP SWAP1 JUMP JUMPDEST PUSH1 0x0 PUSH1 0x1 SWAP1 POP SWAP1 JUMP JUMPDEST PUSH1 0x0 DUP1 DUP3 SWAP1 POP DUP1 PUSH2 0x228A PUSH2 0x2272 JUMP JUMPDEST GT PUSH2 0x2310 JUMPI PUSH1 0x0 SLOAD DUP2 LT ISZERO PUSH2 0x230F JUMPI PUSH1 0x0 PUSH1 0x4 PUSH1 0x0 DUP4 DUP2 MSTORE PUSH1 0x20 ADD SWAP1 DUP2 MSTORE PUSH1 0x20 ADD PUSH1 0x0 KECCAK256 SLOAD SWAP1 POP PUSH1 0x0 PUSH29 0x100000000000000000000000000000000000000000000000000000000 DUP3 AND SUB PUSH2 0x230D JUMPI JUMPDEST PUSH1 0x0 DUP2 SUB PUSH2 0x2303 JUMPI PUSH1 0x4 PUSH1 0x0 DUP4 PUSH1 0x1 SWAP1 SUB SWAP4 POP DUP4 DUP2 MSTORE PUSH1 0x20 ADD SWAP1 DUP2 MSTORE PUSH1 0x20 ADD PUSH1 0x0 KECCAK256 SLOAD SWAP1 POP PUSH2 0x22D9 JUMP JUMPDEST DUP1 SWAP3 POP POP POP PUSH2 0x2342 JUMP JUMPDEST POP JUMPDEST JUMPDEST PUSH1 0x40 MLOAD PUSH32 0xDF2D9B4200000000000000000000000000000000000000000000000000000000 DUP2 MSTORE PUSH1 0x4 ADD PUSH1 0x40 MLOAD DUP1 SWAP2 SUB SWAP1 REVERT JUMPDEST SWAP2 SWAP1 POP JUMP JUMPDEST PUSH1 0x0 DUP1 PUSH1 0x0 PUSH1 0x6 PUSH1 0x0 DUP6 DUP2 MSTORE PUSH1 0x20 ADD SWAP1 DUP2 MSTORE PUSH1 0x20 ADD PUSH1 0x0 KECCAK256 SWAP1 POP DUP1 SWAP3 POP DUP3 SLOAD SWAP2 POP POP SWAP2 POP SWAP2 JUMP JUMPDEST PUSH1 0x0 PUSH20 0xFFFFFFFFFFFFFFFFFFFFFFFFFFFFFFFFFFFFFFFF DUP4 AND SWAP3 POP PUSH20 0xFFFFFFFFFFFFFFFFFFFFFFFFFFFFFFFFFFFFFFFF DUP3 AND SWAP2 POP DUP4 DUP3 EQ DUP4 DUP4 EQ OR SWAP1 POP SWAP4 SWAP3 POP POP POP JUMP JUMPDEST POP POP POP POP JUMP JUMPDEST PUSH1 0x0 DUP1 PUSH1 0xE8 DUP4 SWAP1 SHR SWAP1 POP PUSH1 0xE8 PUSH2 0x23CF DUP7 DUP7 DUP5 PUSH2 0x2ADF JUMP JUMPDEST PUSH3 0xFFFFFF AND SWAP1 SHL SWAP2 POP POP SWAP4 SWAP3 POP POP POP JUMP JUMPDEST PUSH1 0x0 PUSH20 0xFFFFFFFFFFFFFFFFFFFFFFFFFFFFFFFFFFFFFFFF DUP4 AND SWAP3 POP DUP2 TIMESTAMP PUSH1 0xA0 SHL OR DUP4 OR SWAP1 POP SWAP3 SWAP2 POP POP JUMP JUMPDEST POP POP POP POP JUMP JUMPDEST PUSH1 0x0 PUSH2 0x2710 SWAP1 POP SWAP1 JUMP JUMPDEST PUSH2 0x2423 PUSH2 0x2AE8 JUMP JUMPDEST PUSH20 0xFFFFFFFFFFFFFFFFFFFFFFFFFFFFFFFFFFFFFFFF AND PUSH2 0x2441 PUSH2 0x18CF JUMP JUMPDEST PUSH20 0xFFFFFFFFFFFFFFFFFFFFFFFFFFFFFFFFFFFFFFFF AND EQ PUSH2 0x2497 JUMPI PUSH1 0x40 MLOAD PUSH32 0x8C379A000000000000000000000000000000000000000000000000000000000 DUP2 MSTORE PUSH1 0x4 ADD PUSH2 0x248E SWAP1 PUSH2 0x57E6 JUMP JUMPDEST PUSH1 0x40 MLOAD DUP1 SWAP2 SUB SWAP1 REVERT JUMPDEST JUMP JUMPDEST PUSH1 0x0 PUSH1 0x8 PUSH1 0x0 SWAP1 SLOAD SWAP1 PUSH2 0x100 EXP SWAP1 DIV PUSH20 0xFFFFFFFFFFFFFFFFFFFFFFFFFFFFFFFFFFFFFFFF AND SWAP1 POP DUP2 PUSH1 0x8 PUSH1 0x0 PUSH2 0x100 EXP DUP2 SLOAD DUP2 PUSH20 0xFFFFFFFFFFFFFFFFFFFFFFFFFFFFFFFFFFFFFFFF MUL NOT AND SWAP1 DUP4 PUSH20 0xFFFFFFFFFFFFFFFFFFFFFFFFFFFFFFFFFFFFFFFF AND MUL OR SWAP1 SSTORE POP DUP2 PUSH20 0xFFFFFFFFFFFFFFFFFFFFFFFFFFFFFFFFFFFFFFFF AND DUP2 PUSH20 0xFFFFFFFFFFFFFFFFFFFFFFFFFFFFFFFFFFFFFFFF AND PUSH32 0x8BE0079C531659141344CD1FD0A4F28419497F9722A3DAAFE3B4186F6B6457E0 PUSH1 0x40 MLOAD PUSH1 0x40 MLOAD DUP1 SWAP2 SUB SWAP1 LOG3 POP POP JUMP JUMPDEST PUSH1 0x60 PUSH1 0xA0 PUSH1 0x40 MLOAD ADD DUP1 PUSH1 0x40 MSTORE PUSH1 0x20 DUP2 SUB SWAP2 POP PUSH1 0x0 DUP3 MSTORE DUP2 DUP4 JUMPDEST PUSH1 0x1 ISZERO PUSH2 0x259A JUMPI PUSH1 0x1 DUP5 SUB SWAP4 POP PUSH1 0xA DUP2 MOD PUSH1 0x30 ADD DUP5 MSTORE8 PUSH1 0xA DUP2 DIV SWAP1 POP DUP1 PUSH2 0x2578 JUMPI JUMPDEST POP DUP3 DUP2 SUB PUSH1 0x20 DUP5 SUB SWAP4 POP DUP1 DUP5 MSTORE POP POP POP SWAP2 SWAP1 POP JUMP JUMPDEST PUSH2 0x25B7 PUSH2 0x2411 JUMP JUMPDEST PUSH12 0xFFFFFFFFFFFFFFFFFFFFFFFF AND DUP2 PUSH12 0xFFFFFFFFFFFFFFFFFFFFFFFF AND GT ISZERO PUSH2 0x2615 JUMPI PUSH1 0x40 MLOAD PUSH32 0x8C379A000000000000000000000000000000000000000000000000000000000 DUP2 MSTORE PUSH1 0x4 ADD PUSH2 0x260C SWAP1 PUSH2 0x5878 JUMP JUMPDEST PUSH1 0x40 MLOAD DUP1 SWAP2 SUB SWAP1 REVERT JUMPDEST PUSH1 0x0 PUSH20 0xFFFFFFFFFFFFFFFFFFFFFFFFFFFFFFFFFFFFFFFF AND DUP3 PUSH20 0xFFFFFFFFFFFFFFFFFFFFFFFFFFFFFFFFFFFFFFFF AND SUB PUSH2 0x2684 JUMPI PUSH1 0x40 MLOAD PUSH32 0x8C379A000000000000000000000000000000000000000000000000000000000 DUP2 MSTORE PUSH1 0x4 ADD PUSH2 0x267B SWAP1 PUSH2 0x58E4 JUMP JUMPDEST PUSH1 0x40 MLOAD DUP1 SWAP2 SUB SWAP1 REVERT JUMPDEST PUSH1 0x40 MLOAD DUP1 PUSH1 0x40 ADD PUSH1 0x40 MSTORE DUP1 DUP4 PUSH20 0xFFFFFFFFFFFFFFFFFFFFFFFFFFFFFFFFFFFFFFFF AND DUP2 MSTORE PUSH1 0x20 ADD DUP3 PUSH12 0xFFFFFFFFFFFFFFFFFFFFFFFF AND DUP2 MSTORE POP PUSH1 0x9 PUSH1 0x0 DUP3 ADD MLOAD DUP2 PUSH1 0x0 ADD PUSH1 0x0 PUSH2 0x100 EXP DUP2 SLOAD DUP2 PUSH20 0xFFFFFFFFFFFFFFFFFFFFFFFFFFFFFFFFFFFFFFFF MUL NOT AND SWAP1 DUP4 PUSH20 0xFFFFFFFFFFFFFFFFFFFFFFFFFFFFFFFFFFFFFFFF AND MUL OR SWAP1 SSTORE POP PUSH1 0x20 DUP3 ADD MLOAD DUP2 PUSH1 0x0 ADD PUSH1 0x14 PUSH2 0x100 EXP DUP2 SLOAD DUP2 PUSH12 0xFFFFFFFFFFFFFFFFFFFFFFFF MUL NOT AND SWAP1 DUP4 PUSH12 0xFFFFFFFFFFFFFFFFFFFFFFFF AND MUL OR SWAP1 SSTORE POP SWAP1 POP POP POP POP JUMP JUMPDEST PUSH1 0x1E DUP2 GT ISZERO PUSH2 0x27B4 JUMPI PUSH1 0x0 PUSH1 0x1E DUP3 PUSH2 0x275C SWAP2 SWAP1 PUSH2 0x3970 JUMP JUMPDEST SWAP1 POP PUSH1 0x0 PUSH1 0x1E DUP4 PUSH2 0x276D SWAP2 SWAP1 PUSH2 0x5904 JUMP JUMPDEST SWAP1 POP PUSH1 0x0 JUMPDEST DUP3 DUP2 LT ISZERO PUSH2 0x2798 JUMPI PUSH2 0x2785 CALLER PUSH1 0x1E PUSH2 0x2AF0 JUMP JUMPDEST DUP1 DUP1 PUSH2 0x2790 SWAP1 PUSH2 0x38B7 JUMP JUMPDEST SWAP2 POP POP PUSH2 0x2772 JUMP JUMPDEST POP PUSH1 0x0 DUP2 GT ISZERO PUSH2 0x27AD JUMPI PUSH2 0x27AC CALLER DUP3 PUSH2 0x2AF0 JUMP JUMPDEST JUMPDEST POP POP PUSH2 0x27BF JUMP JUMPDEST PUSH2 0x27BE CALLER DUP3 PUSH2 0x2AF0 JUMP JUMPDEST JUMPDEST POP JUMP JUMPDEST PUSH1 0x0 DUP4 PUSH20 0xFFFFFFFFFFFFFFFFFFFFFFFFFFFFFFFFFFFFFFFF AND PUSH4 0x150B7A02 PUSH2 0x27E8 PUSH2 0x226A JUMP JUMPDEST DUP8 DUP7 DUP7 PUSH1 0x40 MLOAD DUP6 PUSH4 0xFFFFFFFF AND PUSH1 0xE0 SHL DUP2 MSTORE PUSH1 0x4 ADD PUSH2 0x280A SWAP5 SWAP4 SWAP3 SWAP2 SWAP1 PUSH2 0x598A JUMP JUMPDEST PUSH1 0x20 PUSH1 0x40 MLOAD DUP1 DUP4 SUB DUP2 PUSH1 0x0 DUP8 GAS CALL SWAP3 POP POP POP DUP1 ISZERO PUSH2 0x2846 JUMPI POP PUSH1 0x40 MLOAD RETURNDATASIZE PUSH1 0x1F NOT PUSH1 0x1F DUP3 ADD AND DUP3 ADD DUP1 PUSH1 0x40 MSTORE POP DUP2 ADD SWAP1 PUSH2 0x2843 SWAP2 SWAP1 PUSH2 0x59EB JUMP JUMPDEST PUSH1 0x1 JUMPDEST PUSH2 0x28BF JUMPI RETURNDATASIZE DUP1 PUSH1 0x0 DUP2 EQ PUSH2 0x2876 JUMPI PUSH1 0x40 MLOAD SWAP2 POP PUSH1 0x1F NOT PUSH1 0x3F RETURNDATASIZE ADD AND DUP3 ADD PUSH1 0x40 MSTORE RETURNDATASIZE DUP3 MSTORE RETURNDATASIZE PUSH1 0x0 PUSH1 0x20 DUP5 ADD RETURNDATACOPY PUSH2 0x287B JUMP JUMPDEST PUSH1 0x60 SWAP2 POP JUMPDEST POP PUSH1 0x0 DUP2 MLOAD SUB PUSH2 0x28B7 JUMPI PUSH1 0x40 MLOAD PUSH32 0xD1A57ED600000000000000000000000000000000000000000000000000000000 DUP2 MSTORE PUSH1 0x4 ADD PUSH1 0x40 MLOAD DUP1 SWAP2 SUB SWAP1 REVERT JUMPDEST DUP1 MLOAD DUP2 PUSH1 0x20 ADD REVERT JUMPDEST PUSH4 0x150B7A02 PUSH1 0xE0 SHL PUSH28 0xFFFFFFFFFFFFFFFFFFFFFFFFFFFFFFFFFFFFFFFFFFFFFFFFFFFFFFFF NOT AND DUP2 PUSH28 0xFFFFFFFFFFFFFFFFFFFFFFFFFFFFFFFFFFFFFFFFFFFFFFFFFFFFFFFF NOT AND EQ SWAP2 POP POP SWAP5 SWAP4 POP POP POP POP JUMP JUMPDEST PUSH1 0x60 PUSH1 0x0 DUP3 MLOAD SUB PUSH2 0x2934 JUMPI PUSH1 0x40 MLOAD DUP1 PUSH1 0x20 ADD PUSH1 0x40 MSTORE DUP1 PUSH1 0x0 DUP2 MSTORE POP SWAP1 POP PUSH2 0x2A70 JUMP JUMPDEST PUSH1 0x0 PUSH1 0x40 MLOAD DUP1 PUSH1 0x60 ADD PUSH1 0x40 MSTORE DUP1 PUSH1 0x40 DUP2 MSTORE PUSH1 0x20 ADD PUSH2 0x5A19 PUSH1 0x40 SWAP2 CODECOPY SWAP1 POP PUSH1 0x0 PUSH1 0x3 PUSH1 0x2 DUP6 MLOAD PUSH2 0x2963 SWAP2 SWAP1 PUSH2 0x39A1 JUMP JUMPDEST PUSH2 0x296D SWAP2 SWAP1 PUSH2 0x3970 JUMP JUMPDEST PUSH1 0x4 PUSH2 0x2979 SWAP2 SWAP1 PUSH2 0x38FF JUMP JUMPDEST PUSH8 0xFFFFFFFFFFFFFFFF DUP2 GT ISZERO PUSH2 0x2992 JUMPI PUSH2 0x2991 PUSH2 0x30B8 JUMP JUMPDEST JUMPDEST PUSH1 0x40 MLOAD SWAP1 DUP1 DUP3 MSTORE DUP1 PUSH1 0x1F ADD PUSH1 0x1F NOT AND PUSH1 0x20 ADD DUP3 ADD PUSH1 0x40 MSTORE DUP1 ISZERO PUSH2 0x29C4 JUMPI DUP2 PUSH1 0x20 ADD PUSH1 0x1 DUP3 MUL DUP1 CALLDATASIZE DUP4 CALLDATACOPY DUP1 DUP3 ADD SWAP2 POP POP SWAP1 POP JUMPDEST POP SWAP1 POP PUSH1 0x1 DUP3 ADD PUSH1 0x20 DUP3 ADD DUP6 DUP7 MLOAD DUP8 ADD JUMPDEST DUP1 DUP3 LT ISZERO PUSH2 0x2A30 JUMPI PUSH1 0x3 DUP3 ADD SWAP2 POP DUP2 MLOAD PUSH1 0x3F DUP2 PUSH1 0x12 SHR AND DUP6 ADD MLOAD DUP5 MSTORE8 PUSH1 0x1 DUP5 ADD SWAP4 POP PUSH1 0x3F DUP2 PUSH1 0xC SHR AND DUP6 ADD MLOAD DUP5 MSTORE8 PUSH1 0x1 DUP5 ADD SWAP4 POP PUSH1 0x3F DUP2 PUSH1 0x6 SHR AND DUP6 ADD MLOAD DUP5 MSTORE8 PUSH1 0x1 DUP5 ADD SWAP4 POP PUSH1 0x3F DUP2 AND DUP6 ADD MLOAD DUP5 MSTORE8 PUSH1 0x1 DUP5 ADD SWAP4 POP POP PUSH2 0x29D5 JUMP JUMPDEST POP POP PUSH1 0x3 DUP7 MLOAD MOD PUSH1 0x1 DUP2 EQ PUSH2 0x2A4C JUMPI PUSH1 0x2 DUP2 EQ PUSH2 0x2A5F JUMPI PUSH2 0x2A67 JUMP JUMPDEST PUSH1 0x3D PUSH1 0x1 DUP4 SUB MSTORE8 PUSH1 0x3D PUSH1 0x2 DUP4 SUB MSTORE8 PUSH2 0x2A67 JUMP JUMPDEST PUSH1 0x3D PUSH1 0x1 DUP4 SUB MSTORE8 JUMPDEST POP POP POP DUP1 SWAP3 POP POP POP JUMPDEST SWAP2 SWAP1 POP JUMP JUMPDEST PUSH1 0x0 PUSH32 0x1FFC9A700000000000000000000000000000000000000000000000000000000 PUSH28 0xFFFFFFFFFFFFFFFFFFFFFFFFFFFFFFFFFFFFFFFFFFFFFFFFFFFFFFFF NOT AND DUP3 PUSH28 0xFFFFFFFFFFFFFFFFFFFFFFFFFFFFFFFFFFFFFFFFFFFFFFFFFFFFFFFF NOT AND EQ SWAP1 POP SWAP2 SWAP1 POP JUMP JUMPDEST PUSH1 0x0 SWAP4 SWAP3 POP POP POP JUMP JUMPDEST PUSH1 0x0 CALLER SWAP1 POP SWAP1 JUMP JUMPDEST PUSH1 0x0 DUP1 SLOAD SWAP1 POP PUSH1 0x0 DUP3 SUB PUSH2 0x2B30 JUMPI PUSH1 0x40 MLOAD PUSH32 0xB562E8DD00000000000000000000000000000000000000000000000000000000 DUP2 MSTORE PUSH1 0x4 ADD PUSH1 0x40 MLOAD DUP1 SWAP2 SUB SWAP1 REVERT JUMPDEST PUSH2 0x2B3D PUSH1 0x0 DUP5 DUP4 DUP6 PUSH2 0x23B2 JUMP JUMPDEST PUSH1 0x1 PUSH1 0x40 PUSH1 0x1 SWAP1 SHL OR DUP3 MUL PUSH1 0x5 PUSH1 0x0 DUP6 PUSH20 0xFFFFFFFFFFFFFFFFFFFFFFFFFFFFFFFFFFFFFFFF AND PUSH20 0xFFFFFFFFFFFFFFFFFFFFFFFFFFFFFFFFFFFFFFFF AND DUP2 MSTORE PUSH1 0x20 ADD SWAP1 DUP2 MSTORE PUSH1 0x20 ADD PUSH1 0x0 KECCAK256 PUSH1 0x0 DUP3 DUP3 SLOAD ADD SWAP3 POP POP DUP2 SWAP1 SSTORE POP PUSH2 0x2BB4 DUP4 PUSH2 0x2BA5 PUSH1 0x0 DUP7 PUSH1 0x0 PUSH2 0x23B8 JUMP JUMPDEST PUSH2 0x2BAE DUP6 PUSH2 0x2CAB JUMP JUMPDEST OR PUSH2 0x23E0 JUMP JUMPDEST PUSH1 0x4 PUSH1 0x0 DUP4 DUP2 MSTORE PUSH1 0x20 ADD SWAP1 DUP2 MSTORE PUSH1 0x20 ADD PUSH1 0x0 KECCAK256 DUP2 SWAP1 SSTORE POP PUSH1 0x0 DUP1 DUP4 DUP4 ADD SWAP1 POP PUSH20 0xFFFFFFFFFFFFFFFFFFFFFFFFFFFFFFFFFFFFFFFF DUP6 AND SWAP2 POP DUP3 DUP3 PUSH1 0x0 PUSH32 0xDDF252AD1BE2C89B69C2B068FC378DAA952BA7F163C4A11628F55A4DF523B3EF PUSH1 0x0 DUP1 LOG4 PUSH1 0x1 DUP4 ADD JUMPDEST DUP2 DUP2 EQ PUSH2 0x2C55 JUMPI DUP1 DUP4 PUSH1 0x0 PUSH32 0xDDF252AD1BE2C89B69C2B068FC378DAA952BA7F163C4A11628F55A4DF523B3EF PUSH1 0x0 DUP1 LOG4 PUSH1 0x1 DUP2 ADD SWAP1 POP PUSH2 0x2C1A JUMP JUMPDEST POP PUSH1 0x0 DUP3 SUB PUSH2 0x2C90 JUMPI PUSH1 0x40 MLOAD PUSH32 0x2E07630000000000000000000000000000000000000000000000000000000000 DUP2 MSTORE PUSH1 0x4 ADD PUSH1 0x40 MLOAD DUP1 SWAP2 SUB SWAP1 REVERT JUMPDEST DUP1 PUSH1 0x0 DUP2 SWAP1 SSTORE POP POP POP PUSH2 0x2CA6 PUSH1 0x0 DUP5 DUP4 DUP6 PUSH2 0x240B JUMP JUMPDEST POP POP POP JUMP JUMPDEST PUSH1 0x0 PUSH1 0x1 DUP3 EQ PUSH1 0xE1 SHL SWAP1 POP SWAP2 SWAP1 POP JUMP JUMPDEST PUSH1 0x40 MLOAD DUP1 PUSH2 0x800 ADD PUSH1 0x40 MSTORE DUP1 PUSH1 0x40 SWAP1 PUSH1 0x20 DUP3 MUL DUP1 CALLDATASIZE DUP4 CALLDATACOPY DUP1 DUP3 ADD SWAP2 POP POP SWAP1 POP POP SWAP1 JUMP JUMPDEST PUSH1 0x0 PUSH1 0x40 MLOAD SWAP1 POP SWAP1 JUMP JUMPDEST PUSH1 0x0 DUP1 REVERT JUMPDEST PUSH1 0x0 DUP1 REVERT JUMPDEST PUSH1 0x0 PUSH32 0xFFFFFFFF00000000000000000000000000000000000000000000000000000000 DUP3 AND SWAP1 POP SWAP2 SWAP1 POP JUMP JUMPDEST PUSH2 0x2D27 DUP2 PUSH2 0x2CF2 JUMP JUMPDEST DUP2 EQ PUSH2 0x2D32 JUMPI PUSH1 0x0 DUP1 REVERT JUMPDEST POP JUMP JUMPDEST PUSH1 0x0 DUP2 CALLDATALOAD SWAP1 POP PUSH2 0x2D44 DUP2 PUSH2 0x2D1E JUMP JUMPDEST SWAP3 SWAP2 POP POP JUMP JUMPDEST PUSH1 0x0 PUSH1 0x20 DUP3 DUP5 SUB SLT ISZERO PUSH2 0x2D60 JUMPI PUSH2 0x2D5F PUSH2 0x2CE8 JUMP JUMPDEST JUMPDEST PUSH1 0x0 PUSH2 0x2D6E DUP5 DUP3 DUP6 ADD PUSH2 0x2D35 JUMP JUMPDEST SWAP2 POP POP SWAP3 SWAP2 POP POP JUMP JUMPDEST PUSH1 0x0 DUP2 ISZERO ISZERO SWAP1 POP SWAP2 SWAP1 POP JUMP JUMPDEST PUSH2 0x2D8C DUP2 PUSH2 0x2D77 JUMP JUMPDEST DUP3 MSTORE POP POP JUMP JUMPDEST PUSH1 0x0 PUSH1 0x20 DUP3 ADD SWAP1 POP PUSH2 0x2DA7 PUSH1 0x0 DUP4 ADD DUP5 PUSH2 0x2D83 JUMP JUMPDEST SWAP3 SWAP2 POP POP JUMP JUMPDEST PUSH1 0x0 PUSH8 0xFFFFFFFFFFFFFFFF DUP3 AND SWAP1 POP SWAP2 SWAP1 POP JUMP JUMPDEST PUSH2 0x2DCA DUP2 PUSH2 0x2DAD JUMP JUMPDEST DUP3 MSTORE POP POP JUMP JUMPDEST PUSH1 0x0 PUSH1 0x20 DUP3 ADD SWAP1 POP PUSH2 0x2DE5 PUSH1 0x0 DUP4 ADD DUP5 PUSH2 0x2DC1 JUMP JUMPDEST SWAP3 SWAP2 POP POP JUMP JUMPDEST PUSH1 0x0 DUP2 MLOAD SWAP1 POP SWAP2 SWAP1 POP JUMP JUMPDEST PUSH1 0x0 DUP3 DUP3 MSTORE PUSH1 0x20 DUP3 ADD SWAP1 POP SWAP3 SWAP2 POP POP JUMP JUMPDEST PUSH1 0x0 JUMPDEST DUP4 DUP2 LT ISZERO PUSH2 0x2E25 JUMPI DUP1 DUP3 ADD MLOAD DUP2 DUP5 ADD MSTORE PUSH1 0x20 DUP2 ADD SWAP1 POP PUSH2 0x2E0A JUMP JUMPDEST PUSH1 0x0 DUP5 DUP5 ADD MSTORE POP POP POP POP JUMP JUMPDEST PUSH1 0x0 PUSH1 0x1F NOT PUSH1 0x1F DUP4 ADD AND SWAP1 POP SWAP2 SWAP1 POP JUMP JUMPDEST PUSH1 0x0 PUSH2 0x2E4D DUP3 PUSH2 0x2DEB JUMP JUMPDEST PUSH2 0x2E57 DUP2 DUP6 PUSH2 0x2DF6 JUMP JUMPDEST SWAP4 POP PUSH2 0x2E67 DUP2 DUP6 PUSH1 0x20 DUP7 ADD PUSH2 0x2E07 JUMP JUMPDEST PUSH2 0x2E70 DUP2 PUSH2 0x2E31 JUMP JUMPDEST DUP5 ADD SWAP2 POP POP SWAP3 SWAP2 POP POP JUMP JUMPDEST PUSH1 0x0 PUSH1 0x20 DUP3 ADD SWAP1 POP DUP2 DUP2 SUB PUSH1 0x0 DUP4 ADD MSTORE PUSH2 0x2E95 DUP2 DUP5 PUSH2 0x2E42 JUMP JUMPDEST SWAP1 POP SWAP3 SWAP2 POP POP JUMP JUMPDEST PUSH1 0x0 DUP2 SWAP1 POP SWAP2 SWAP1 POP JUMP JUMPDEST PUSH2 0x2EB0 DUP2 PUSH2 0x2E9D JUMP JUMPDEST DUP2 EQ PUSH2 0x2EBB JUMPI PUSH1 0x0 DUP1 REVERT JUMPDEST POP JUMP JUMPDEST PUSH1 0x0 DUP2 CALLDATALOAD SWAP1 POP PUSH2 0x2ECD DUP2 PUSH2 0x2EA7 JUMP JUMPDEST SWAP3 SWAP2 POP POP JUMP JUMPDEST PUSH1 0x0 PUSH1 0x20 DUP3 DUP5 SUB SLT ISZERO PUSH2 0x2EE9 JUMPI PUSH2 0x2EE8 PUSH2 0x2CE8 JUMP JUMPDEST JUMPDEST PUSH1 0x0 PUSH2 0x2EF7 DUP5 DUP3 DUP6 ADD PUSH2 0x2EBE JUMP JUMPDEST SWAP2 POP POP SWAP3 SWAP2 POP POP JUMP JUMPDEST PUSH1 0x0 PUSH20 0xFFFFFFFFFFFFFFFFFFFFFFFFFFFFFFFFFFFFFFFF DUP3 AND SWAP1 POP SWAP2 SWAP1 POP JUMP JUMPDEST PUSH1 0x0 PUSH2 0x2F2B DUP3 PUSH2 0x2F00 JUMP JUMPDEST SWAP1 POP SWAP2 SWAP1 POP JUMP JUMPDEST PUSH2 0x2F3B DUP2 PUSH2 0x2F20 JUMP JUMPDEST DUP3 MSTORE POP POP JUMP JUMPDEST PUSH1 0x0 PUSH1 0x20 DUP3 ADD SWAP1 POP PUSH2 0x2F56 PUSH1 0x0 DUP4 ADD DUP5 PUSH2 0x2F32 JUMP JUMPDEST SWAP3 SWAP2 POP POP JUMP JUMPDEST PUSH2 0x2F65 DUP2 PUSH2 0x2F20 JUMP JUMPDEST DUP2 EQ PUSH2 0x2F70 JUMPI PUSH1 0x0 DUP1 REVERT JUMPDEST POP JUMP JUMPDEST PUSH1 0x0 DUP2 CALLDATALOAD SWAP1 POP PUSH2 0x2F82 DUP2 PUSH2 0x2F5C JUMP JUMPDEST SWAP3 SWAP2 POP POP JUMP JUMPDEST PUSH1 0x0 DUP1 PUSH1 0x40 DUP4 DUP6 SUB SLT ISZERO PUSH2 0x2F9F JUMPI PUSH2 0x2F9E PUSH2 0x2CE8 JUMP JUMPDEST JUMPDEST PUSH1 0x0 PUSH2 0x2FAD DUP6 DUP3 DUP7 ADD PUSH2 0x2F73 JUMP JUMPDEST SWAP3 POP POP PUSH1 0x20 PUSH2 0x2FBE DUP6 DUP3 DUP7 ADD PUSH2 0x2EBE JUMP JUMPDEST SWAP2 POP POP SWAP3 POP SWAP3 SWAP1 POP JUMP JUMPDEST PUSH2 0x2FD1 DUP2 PUSH2 0x2E9D JUMP JUMPDEST DUP3 MSTORE POP POP JUMP JUMPDEST PUSH1 0x0 PUSH1 0x20 DUP3 ADD SWAP1 POP PUSH2 0x2FEC PUSH1 0x0 DUP4 ADD DUP5 PUSH2 0x2FC8 JUMP JUMPDEST SWAP3 SWAP2 POP POP JUMP JUMPDEST PUSH1 0x0 DUP1 PUSH1 0x0 PUSH1 0x60 DUP5 DUP7 SUB SLT ISZERO PUSH2 0x300B JUMPI PUSH2 0x300A PUSH2 0x2CE8 JUMP JUMPDEST JUMPDEST PUSH1 0x0 PUSH2 0x3019 DUP7 DUP3 DUP8 ADD PUSH2 0x2F73 JUMP JUMPDEST SWAP4 POP POP PUSH1 0x20 PUSH2 0x302A DUP7 DUP3 DUP8 ADD PUSH2 0x2F73 JUMP JUMPDEST SWAP3 POP POP PUSH1 0x40 PUSH2 0x303B DUP7 DUP3 DUP8 ADD PUSH2 0x2EBE JUMP JUMPDEST SWAP2 POP POP SWAP3 POP SWAP3 POP SWAP3 JUMP JUMPDEST PUSH1 0x0 DUP1 PUSH1 0x40 DUP4 DUP6 SUB SLT ISZERO PUSH2 0x305C JUMPI PUSH2 0x305B PUSH2 0x2CE8 JUMP JUMPDEST JUMPDEST PUSH1 0x0 PUSH2 0x306A DUP6 DUP3 DUP7 ADD PUSH2 0x2EBE JUMP JUMPDEST SWAP3 POP POP PUSH1 0x20 PUSH2 0x307B DUP6 DUP3 DUP7 ADD PUSH2 0x2EBE JUMP JUMPDEST SWAP2 POP POP SWAP3 POP SWAP3 SWAP1 POP JUMP JUMPDEST PUSH1 0x0 PUSH1 0x40 DUP3 ADD SWAP1 POP PUSH2 0x309A PUSH1 0x0 DUP4 ADD DUP6 PUSH2 0x2F32 JUMP JUMPDEST PUSH2 0x30A7 PUSH1 0x20 DUP4 ADD DUP5 PUSH2 0x2FC8 JUMP JUMPDEST SWAP4 SWAP3 POP POP POP JUMP JUMPDEST PUSH1 0x0 DUP1 REVERT JUMPDEST PUSH1 0x0 DUP1 REVERT JUMPDEST PUSH32 0x4E487B7100000000000000000000000000000000000000000000000000000000 PUSH1 0x0 MSTORE PUSH1 0x41 PUSH1 0x4 MSTORE PUSH1 0x24 PUSH1 0x0 REVERT JUMPDEST PUSH2 0x30F0 DUP3 PUSH2 0x2E31 JUMP JUMPDEST DUP2 ADD DUP2 DUP2 LT PUSH8 0xFFFFFFFFFFFFFFFF DUP3 GT OR ISZERO PUSH2 0x310F JUMPI PUSH2 0x310E PUSH2 0x30B8 JUMP JUMPDEST JUMPDEST DUP1 PUSH1 0x40 MSTORE POP POP POP JUMP JUMPDEST PUSH1 0x0 PUSH2 0x3122 PUSH2 0x2CDE JUMP JUMPDEST SWAP1 POP PUSH2 0x312E DUP3 DUP3 PUSH2 0x30E7 JUMP JUMPDEST SWAP2 SWAP1 POP JUMP JUMPDEST PUSH1 0x0 PUSH8 0xFFFFFFFFFFFFFFFF DUP3 GT ISZERO PUSH2 0x314E JUMPI PUSH2 0x314D PUSH2 0x30B8 JUMP JUMPDEST JUMPDEST PUSH2 0x3157 DUP3 PUSH2 0x2E31 JUMP JUMPDEST SWAP1 POP PUSH1 0x20 DUP2 ADD SWAP1 POP SWAP2 SWAP1 POP JUMP JUMPDEST DUP3 DUP2 DUP4 CALLDATACOPY PUSH1 0x0 DUP4 DUP4 ADD MSTORE POP POP POP JUMP JUMPDEST PUSH1 0x0 PUSH2 0x3186 PUSH2 0x3181 DUP5 PUSH2 0x3133 JUMP JUMPDEST PUSH2 0x3118 JUMP JUMPDEST SWAP1 POP DUP3 DUP2 MSTORE PUSH1 0x20 DUP2 ADD DUP5 DUP5 DUP5 ADD GT ISZERO PUSH2 0x31A2 JUMPI PUSH2 0x31A1 PUSH2 0x30B3 JUMP JUMPDEST JUMPDEST PUSH2 0x31AD DUP5 DUP3 DUP6 PUSH2 0x3164 JUMP JUMPDEST POP SWAP4 SWAP3 POP POP POP JUMP JUMPDEST PUSH1 0x0 DUP3 PUSH1 0x1F DUP4 ADD SLT PUSH2 0x31CA JUMPI PUSH2 0x31C9 PUSH2 0x30AE JUMP JUMPDEST JUMPDEST DUP2 CALLDATALOAD PUSH2 0x31DA DUP5 DUP3 PUSH1 0x20 DUP7 ADD PUSH2 0x3173 JUMP JUMPDEST SWAP2 POP POP SWAP3 SWAP2 POP POP JUMP JUMPDEST PUSH1 0x0 PUSH1 0x20 DUP3 DUP5 SUB SLT ISZERO PUSH2 0x31F9 JUMPI PUSH2 0x31F8 PUSH2 0x2CE8 JUMP JUMPDEST JUMPDEST PUSH1 0x0 DUP3 ADD CALLDATALOAD PUSH8 0xFFFFFFFFFFFFFFFF DUP2 GT ISZERO PUSH2 0x3217 JUMPI PUSH2 0x3216 PUSH2 0x2CED JUMP JUMPDEST JUMPDEST PUSH2 0x3223 DUP5 DUP3 DUP6 ADD PUSH2 0x31B5 JUMP JUMPDEST SWAP2 POP POP SWAP3 SWAP2 POP POP JUMP JUMPDEST PUSH1 0x0 PUSH1 0x20 DUP3 DUP5 SUB SLT ISZERO PUSH2 0x3242 JUMPI PUSH2 0x3241 PUSH2 0x2CE8 JUMP JUMPDEST JUMPDEST PUSH1 0x0 PUSH2 0x3250 DUP5 DUP3 DUP6 ADD PUSH2 0x2F73 JUMP JUMPDEST SWAP2 POP POP SWAP3 SWAP2 POP POP JUMP JUMPDEST PUSH1 0x0 PUSH1 0x40 SWAP1 POP SWAP2 SWAP1 POP JUMP JUMPDEST PUSH1 0x0 DUP2 SWAP1 POP SWAP3 SWAP2 POP POP JUMP JUMPDEST PUSH1 0x0 DUP2 SWAP1 POP SWAP2 SWAP1 POP JUMP JUMPDEST PUSH1 0x0 PUSH4 0xFFFFFFFF DUP3 AND SWAP1 POP SWAP2 SWAP1 POP JUMP JUMPDEST PUSH2 0x3292 DUP2 PUSH2 0x3279 JUMP JUMPDEST DUP3 MSTORE POP POP JUMP JUMPDEST PUSH1 0x0 PUSH2 0x32A4 DUP4 DUP4 PUSH2 0x3289 JUMP JUMPDEST PUSH1 0x20 DUP4 ADD SWAP1 POP SWAP3 SWAP2 POP POP JUMP JUMPDEST PUSH1 0x0 PUSH1 0x20 DUP3 ADD SWAP1 POP SWAP2 SWAP1 POP JUMP JUMPDEST PUSH2 0x32C6 DUP2 PUSH2 0x3259 JUMP JUMPDEST PUSH2 0x32D0 DUP2 DUP5 PUSH2 0x3264 JUMP JUMPDEST SWAP3 POP PUSH2 0x32DB DUP3 PUSH2 0x326F JUMP JUMPDEST DUP1 PUSH1 0x0 JUMPDEST DUP4 DUP2 LT ISZERO PUSH2 0x330C JUMPI DUP2 MLOAD PUSH2 0x32F3 DUP8 DUP3 PUSH2 0x3298 JUMP JUMPDEST SWAP7 POP PUSH2 0x32FE DUP4 PUSH2 0x32B0 JUMP JUMPDEST SWAP3 POP POP PUSH1 0x1 DUP2 ADD SWAP1 POP PUSH2 0x32DF JUMP JUMPDEST POP POP POP POP POP POP JUMP JUMPDEST PUSH1 0x0 PUSH2 0x800 DUP3 ADD SWAP1 POP PUSH2 0x332A PUSH1 0x0 DUP4 ADD DUP5 PUSH2 0x32BD JUMP JUMPDEST SWAP3 SWAP2 POP POP JUMP JUMPDEST PUSH1 0x0 PUSH8 0xFFFFFFFFFFFFFFFF DUP3 GT ISZERO PUSH2 0x334B JUMPI PUSH2 0x334A PUSH2 0x30B8 JUMP JUMPDEST JUMPDEST PUSH1 0x20 DUP3 MUL SWAP1 POP SWAP2 SWAP1 POP JUMP JUMPDEST PUSH1 0x0 DUP1 REVERT JUMPDEST PUSH1 0x0 PUSH1 0xFF DUP3 AND SWAP1 POP SWAP2 SWAP1 POP JUMP JUMPDEST PUSH2 0x3371 DUP2 PUSH2 0x335B JUMP JUMPDEST DUP2 EQ PUSH2 0x337C JUMPI PUSH1 0x0 DUP1 REVERT JUMPDEST POP JUMP JUMPDEST PUSH1 0x0 DUP2 CALLDATALOAD SWAP1 POP PUSH2 0x338E DUP2 PUSH2 0x3368 JUMP JUMPDEST SWAP3 SWAP2 POP POP JUMP JUMPDEST PUSH1 0x0 PUSH2 0x33A7 PUSH2 0x33A2 DUP5 PUSH2 0x3330 JUMP JUMPDEST PUSH2 0x3118 JUMP JUMPDEST SWAP1 POP DUP1 PUSH1 0x20 DUP5 MUL DUP4 ADD DUP6 DUP2 GT ISZERO PUSH2 0x33C1 JUMPI PUSH2 0x33C0 PUSH2 0x3356 JUMP JUMPDEST JUMPDEST DUP4 JUMPDEST DUP2 DUP2 LT ISZERO PUSH2 0x33EA JUMPI DUP1 PUSH2 0x33D6 DUP9 DUP3 PUSH2 0x337F JUMP JUMPDEST DUP5 MSTORE PUSH1 0x20 DUP5 ADD SWAP4 POP POP PUSH1 0x20 DUP2 ADD SWAP1 POP PUSH2 0x33C3 JUMP JUMPDEST POP POP POP SWAP4 SWAP3 POP POP POP JUMP JUMPDEST PUSH1 0x0 DUP3 PUSH1 0x1F DUP4 ADD SLT PUSH2 0x3409 JUMPI PUSH2 0x3408 PUSH2 0x30AE JUMP JUMPDEST JUMPDEST PUSH1 0x3 PUSH2 0x3416 DUP5 DUP3 DUP6 PUSH2 0x3394 JUMP JUMPDEST SWAP2 POP POP SWAP3 SWAP2 POP POP JUMP JUMPDEST PUSH1 0x0 DUP1 PUSH1 0x0 PUSH1 0xA0 DUP5 DUP7 SUB SLT ISZERO PUSH2 0x3438 JUMPI PUSH2 0x3437 PUSH2 0x2CE8 JUMP JUMPDEST JUMPDEST PUSH1 0x0 PUSH2 0x3446 DUP7 DUP3 DUP8 ADD PUSH2 0x2EBE JUMP JUMPDEST SWAP4 POP POP PUSH1 0x20 PUSH2 0x3457 DUP7 DUP3 DUP8 ADD PUSH2 0x33F4 JUMP JUMPDEST SWAP3 POP POP PUSH1 0x80 PUSH2 0x3468 DUP7 DUP3 DUP8 ADD PUSH2 0x2EBE JUMP JUMPDEST SWAP2 POP POP SWAP3 POP SWAP3 POP SWAP3 JUMP JUMPDEST PUSH1 0x0 PUSH8 0xFFFFFFFFFFFFFFFF DUP3 GT ISZERO PUSH2 0x348D JUMPI PUSH2 0x348C PUSH2 0x30B8 JUMP JUMPDEST JUMPDEST PUSH1 0x20 DUP3 MUL SWAP1 POP SWAP2 SWAP1 POP JUMP JUMPDEST PUSH2 0x34A1 DUP2 PUSH2 0x3279 JUMP JUMPDEST DUP2 EQ PUSH2 0x34AC JUMPI PUSH1 0x0 DUP1 REVERT JUMPDEST POP JUMP JUMPDEST PUSH1 0x0 DUP2 CALLDATALOAD SWAP1 POP PUSH2 0x34BE DUP2 PUSH2 0x3498 JUMP JUMPDEST SWAP3 SWAP2 POP POP JUMP JUMPDEST PUSH1 0x0 PUSH2 0x34D7 PUSH2 0x34D2 DUP5 PUSH2 0x3472 JUMP JUMPDEST PUSH2 0x3118 JUMP JUMPDEST SWAP1 POP DUP1 PUSH1 0x20 DUP5 MUL DUP4 ADD DUP6 DUP2 GT ISZERO PUSH2 0x34F1 JUMPI PUSH2 0x34F0 PUSH2 0x3356 JUMP JUMPDEST JUMPDEST DUP4 JUMPDEST DUP2 DUP2 LT ISZERO PUSH2 0x351A JUMPI DUP1 PUSH2 0x3506 DUP9 DUP3 PUSH2 0x34AF JUMP JUMPDEST DUP5 MSTORE PUSH1 0x20 DUP5 ADD SWAP4 POP POP PUSH1 0x20 DUP2 ADD SWAP1 POP PUSH2 0x34F3 JUMP JUMPDEST POP POP POP SWAP4 SWAP3 POP POP POP JUMP JUMPDEST PUSH1 0x0 DUP3 PUSH1 0x1F DUP4 ADD SLT PUSH2 0x3539 JUMPI PUSH2 0x3538 PUSH2 0x30AE JUMP JUMPDEST JUMPDEST PUSH1 0x40 PUSH2 0x3546 DUP5 DUP3 DUP6 PUSH2 0x34C4 JUMP JUMPDEST SWAP2 POP POP SWAP3 SWAP2 POP POP JUMP JUMPDEST PUSH1 0x0 PUSH2 0x800 DUP3 DUP5 SUB SLT ISZERO PUSH2 0x3566 JUMPI PUSH2 0x3565 PUSH2 0x2CE8 JUMP JUMPDEST JUMPDEST PUSH1 0x0 PUSH2 0x3574 DUP5 DUP3 DUP6 ADD PUSH2 0x3524 JUMP JUMPDEST SWAP2 POP POP SWAP3 SWAP2 POP POP JUMP JUMPDEST PUSH1 0x0 PUSH12 0xFFFFFFFFFFFFFFFFFFFFFFFF DUP3 AND SWAP1 POP SWAP2 SWAP1 POP JUMP JUMPDEST PUSH2 0x359E DUP2 PUSH2 0x357D JUMP JUMPDEST DUP2 EQ PUSH2 0x35A9 JUMPI PUSH1 0x0 DUP1 REVERT JUMPDEST POP JUMP JUMPDEST PUSH1 0x0 DUP2 CALLDATALOAD SWAP1 POP PUSH2 0x35BB DUP2 PUSH2 0x3595 JUMP JUMPDEST SWAP3 SWAP2 POP POP JUMP JUMPDEST PUSH1 0x0 DUP1 PUSH1 0x40 DUP4 DUP6 SUB SLT ISZERO PUSH2 0x35D8 JUMPI PUSH2 0x35D7 PUSH2 0x2CE8 JUMP JUMPDEST JUMPDEST PUSH1 0x0 PUSH2 0x35E6 DUP6 DUP3 DUP7 ADD PUSH2 0x2F73 JUMP JUMPDEST SWAP3 POP POP PUSH1 0x20 PUSH2 0x35F7 DUP6 DUP3 DUP7 ADD PUSH2 0x35AC JUMP JUMPDEST SWAP2 POP POP SWAP3 POP SWAP3 SWAP1 POP JUMP JUMPDEST PUSH2 0x360A DUP2 PUSH2 0x2D77 JUMP JUMPDEST DUP2 EQ PUSH2 0x3615 JUMPI PUSH1 0x0 DUP1 REVERT JUMPDEST POP JUMP JUMPDEST PUSH1 0x0 DUP2 CALLDATALOAD SWAP1 POP PUSH2 0x3627 DUP2 PUSH2 0x3601 JUMP JUMPDEST SWAP3 SWAP2 POP POP JUMP JUMPDEST PUSH1 0x0 DUP1 PUSH1 0x40 DUP4 DUP6 SUB SLT ISZERO PUSH2 0x3644 JUMPI PUSH2 0x3643 PUSH2 0x2CE8 JUMP JUMPDEST JUMPDEST PUSH1 0x0 PUSH2 0x3652 DUP6 DUP3 DUP7 ADD PUSH2 0x2F73 JUMP JUMPDEST SWAP3 POP POP PUSH1 0x20 PUSH2 0x3663 DUP6 DUP3 DUP7 ADD PUSH2 0x3618 JUMP JUMPDEST SWAP2 POP POP SWAP3 POP SWAP3 SWAP1 POP JUMP JUMPDEST PUSH1 0x0 PUSH8 0xFFFFFFFFFFFFFFFF DUP3 GT ISZERO PUSH2 0x3688 JUMPI PUSH2 0x3687 PUSH2 0x30B8 JUMP JUMPDEST JUMPDEST PUSH2 0x3691 DUP3 PUSH2 0x2E31 JUMP JUMPDEST SWAP1 POP PUSH1 0x20 DUP2 ADD SWAP1 POP SWAP2 SWAP1 POP JUMP JUMPDEST PUSH1 0x0 PUSH2 0x36B1 PUSH2 0x36AC DUP5 PUSH2 0x366D JUMP JUMPDEST PUSH2 0x3118 JUMP JUMPDEST SWAP1 POP DUP3 DUP2 MSTORE PUSH1 0x20 DUP2 ADD DUP5 DUP5 DUP5 ADD GT ISZERO PUSH2 0x36CD JUMPI PUSH2 0x36CC PUSH2 0x30B3 JUMP JUMPDEST JUMPDEST PUSH2 0x36D8 DUP5 DUP3 DUP6 PUSH2 0x3164 JUMP JUMPDEST POP SWAP4 SWAP3 POP POP POP JUMP JUMPDEST PUSH1 0x0 DUP3 PUSH1 0x1F DUP4 ADD SLT PUSH2 0x36F5 JUMPI PUSH2 0x36F4 PUSH2 0x30AE JUMP JUMPDEST JUMPDEST DUP2 CALLDATALOAD PUSH2 0x3705 DUP5 DUP3 PUSH1 0x20 DUP7 ADD PUSH2 0x369E JUMP JUMPDEST SWAP2 POP POP SWAP3 SWAP2 POP POP JUMP JUMPDEST PUSH1 0x0 DUP1 PUSH1 0x0 DUP1 PUSH1 0x80 DUP6 DUP8 SUB SLT ISZERO PUSH2 0x3728 JUMPI PUSH2 0x3727 PUSH2 0x2CE8 JUMP JUMPDEST JUMPDEST PUSH1 0x0 PUSH2 0x3736 DUP8 DUP3 DUP9 ADD PUSH2 0x2F73 JUMP JUMPDEST SWAP5 POP POP PUSH1 0x20 PUSH2 0x3747 DUP8 DUP3 DUP9 ADD PUSH2 0x2F73 JUMP JUMPDEST SWAP4 POP POP PUSH1 0x40 PUSH2 0x3758 DUP8 DUP3 DUP9 ADD PUSH2 0x2EBE JUMP JUMPDEST SWAP3 POP POP PUSH1 0x60 DUP6 ADD CALLDATALOAD PUSH8 0xFFFFFFFFFFFFFFFF DUP2 GT ISZERO PUSH2 0x3779 JUMPI PUSH2 0x3778 PUSH2 0x2CED JUMP JUMPDEST JUMPDEST PUSH2 0x3785 DUP8 DUP3 DUP9 ADD PUSH2 0x36E0 JUMP JUMPDEST SWAP2 POP POP SWAP3 SWAP6 SWAP2 SWAP5 POP SWAP3 POP JUMP JUMPDEST PUSH2 0x379A DUP2 PUSH2 0x3279 JUMP JUMPDEST DUP3 MSTORE POP POP JUMP JUMPDEST PUSH1 0x0 PUSH1 0x20 DUP3 ADD SWAP1 POP PUSH2 0x37B5 PUSH1 0x0 DUP4 ADD DUP5 PUSH2 0x3791 JUMP JUMPDEST SWAP3 SWAP2 POP POP JUMP JUMPDEST PUSH1 0x0 PUSH1 0x20 DUP3 DUP5 SUB SLT ISZERO PUSH2 0x37D1 JUMPI PUSH2 0x37D0 PUSH2 0x2CE8 JUMP JUMPDEST JUMPDEST PUSH1 0x0 PUSH2 0x37DF DUP5 DUP3 DUP6 ADD PUSH2 0x34AF JUMP JUMPDEST SWAP2 POP POP SWAP3 SWAP2 POP POP JUMP JUMPDEST PUSH1 0x0 DUP1 PUSH1 0x40 DUP4 DUP6 SUB SLT ISZERO PUSH2 0x37FF JUMPI PUSH2 0x37FE PUSH2 0x2CE8 JUMP JUMPDEST JUMPDEST PUSH1 0x0 PUSH2 0x380D DUP6 DUP3 DUP7 ADD PUSH2 0x2F73 JUMP JUMPDEST SWAP3 POP POP PUSH1 0x20 PUSH2 0x381E DUP6 DUP3 DUP7 ADD PUSH2 0x2F73 JUMP JUMPDEST SWAP2 POP POP SWAP3 POP SWAP3 SWAP1 POP JUMP JUMPDEST PUSH32 0x4E487B7100000000000000000000000000000000000000000000000000000000 PUSH1 0x0 MSTORE PUSH1 0x22 PUSH1 0x4 MSTORE PUSH1 0x24 PUSH1 0x0 REVERT JUMPDEST PUSH1 0x0 PUSH1 0x2 DUP3 DIV SWAP1 POP PUSH1 0x1 DUP3 AND DUP1 PUSH2 0x386F JUMPI PUSH1 0x7F DUP3 AND SWAP2 POP JUMPDEST PUSH1 0x20 DUP3 LT DUP2 SUB PUSH2 0x3882 JUMPI PUSH2 0x3881 PUSH2 0x3828 JUMP JUMPDEST JUMPDEST POP SWAP2 SWAP1 POP JUMP JUMPDEST PUSH32 0x4E487B7100000000000000000000000000000000000000000000000000000000 PUSH1 0x0 MSTORE PUSH1 0x11 PUSH1 0x4 MSTORE PUSH1 0x24 PUSH1 0x0 REVERT JUMPDEST PUSH1 0x0 PUSH2 0x38C2 DUP3 PUSH2 0x2E9D JUMP JUMPDEST SWAP2 POP PUSH32 0xFFFFFFFFFFFFFFFFFFFFFFFFFFFFFFFFFFFFFFFFFFFFFFFFFFFFFFFFFFFFFFFF DUP3 SUB PUSH2 0x38F4 JUMPI PUSH2 0x38F3 PUSH2 0x3888 JUMP JUMPDEST JUMPDEST PUSH1 0x1 DUP3 ADD SWAP1 POP SWAP2 SWAP1 POP JUMP JUMPDEST PUSH1 0x0 PUSH2 0x390A DUP3 PUSH2 0x2E9D JUMP JUMPDEST SWAP2 POP PUSH2 0x3915 DUP4 PUSH2 0x2E9D JUMP JUMPDEST SWAP3 POP DUP3 DUP3 MUL PUSH2 0x3923 DUP2 PUSH2 0x2E9D JUMP JUMPDEST SWAP2 POP DUP3 DUP3 DIV DUP5 EQ DUP4 ISZERO OR PUSH2 0x393A JUMPI PUSH2 0x3939 PUSH2 0x3888 JUMP JUMPDEST JUMPDEST POP SWAP3 SWAP2 POP POP JUMP JUMPDEST PUSH32 0x4E487B7100000000000000000000000000000000000000000000000000000000 PUSH1 0x0 MSTORE PUSH1 0x12 PUSH1 0x4 MSTORE PUSH1 0x24 PUSH1 0x0 REVERT JUMPDEST PUSH1 0x0 PUSH2 0x397B DUP3 PUSH2 0x2E9D JUMP JUMPDEST SWAP2 POP PUSH2 0x3986 DUP4 PUSH2 0x2E9D JUMP JUMPDEST SWAP3 POP DUP3 PUSH2 0x3996 JUMPI PUSH2 0x3995 PUSH2 0x3941 JUMP JUMPDEST JUMPDEST DUP3 DUP3 DIV SWAP1 POP SWAP3 SWAP2 POP POP JUMP JUMPDEST PUSH1 0x0 PUSH2 0x39AC DUP3 PUSH2 0x2E9D JUMP JUMPDEST SWAP2 POP PUSH2 0x39B7 DUP4 PUSH2 0x2E9D JUMP JUMPDEST SWAP3 POP DUP3 DUP3 ADD SWAP1 POP DUP1 DUP3 GT ISZERO PUSH2 0x39CF JUMPI PUSH2 0x39CE PUSH2 0x3888 JUMP JUMPDEST JUMPDEST SWAP3 SWAP2 POP POP JUMP JUMPDEST PUSH1 0x0 DUP2 SWAP1 POP SWAP3 SWAP2 POP POP JUMP JUMPDEST PUSH32 0x3C7376672077696474683D2238343022206865696768743D2238343022207669 PUSH1 0x0 DUP3 ADD MSTORE PUSH32 0x6577426F783D22302030203134203134222066696C6C3D226E6F6E652220786D PUSH1 0x20 DUP3 ADD MSTORE PUSH32 0x6C6E733D22687474703A2F2F7777772E77332E6F72672F323030302F73766722 PUSH1 0x40 DUP3 ADD MSTORE PUSH32 0x3E3C726563742077696474683D22313422206865696768743D22313422206669 PUSH1 0x60 DUP3 ADD MSTORE PUSH32 0x6C6C3D2223304330433043222F3E3C6720636C6173733D2274696C6573223E3C PUSH1 0x80 DUP3 ADD MSTORE PUSH32 0x726563742069643D2270312220783D22332220793D2233222066696C6C3D2223 PUSH1 0xA0 DUP3 ADD MSTORE PUSH32 0x666666222F3E3C726563742069643D2270322220783D22342220793D22332220 PUSH1 0xC0 DUP3 ADD MSTORE PUSH32 0x66696C6C3D2223666666222F3E3C726563742069643D2270332220783D223522 PUSH1 0xE0 DUP3 ADD MSTORE PUSH32 0x20793D2233222066696C6C3D2223666666222F3E3C726563742069643D227034 PUSH2 0x100 DUP3 ADD MSTORE PUSH32 0x2220783D22362220793D2233222066696C6C3D2223666666222F3E3C72656374 PUSH2 0x120 DUP3 ADD MSTORE PUSH32 0x2069643D2270352220783D22372220793D2233222066696C6C3D222366666622 PUSH2 0x140 DUP3 ADD MSTORE PUSH32 0x2F3E3C726563742069643D2270362220783D22382220793D2233222066696C6C PUSH2 0x160 DUP3 ADD MSTORE PUSH32 0x3D2223666666222F3E3C726563742069643D2270372220783D22392220793D22 PUSH2 0x180 DUP3 ADD MSTORE PUSH32 0x33222066696C6C3D2223666666222F3E3C726563742069643D2270382220783D PUSH2 0x1A0 DUP3 ADD MSTORE PUSH32 0x2231302220793D2233222066696C6C3D2223666666222F3E3C72656374206964 PUSH2 0x1C0 DUP3 ADD MSTORE PUSH32 0x3D2270392220783D22332220793D2234222066696C6C3D2223666666222F3E3C PUSH2 0x1E0 DUP3 ADD MSTORE PUSH32 0x726563742069643D227031302220783D22342220793D2234222066696C6C3D22 PUSH2 0x200 DUP3 ADD MSTORE PUSH32 0x23666666222F3E3C726563742069643D227031312220783D22352220793D2234 PUSH2 0x220 DUP3 ADD MSTORE PUSH32 0x222066696C6C3D2223666666222F3E3C726563742069643D227031322220783D PUSH2 0x240 DUP3 ADD MSTORE PUSH32 0x22362220793D2234222066696C6C3D2223666666222F3E3C726563742069643D PUSH2 0x260 DUP3 ADD MSTORE PUSH32 0x227031332220783D22372220793D2234222066696C6C3D2223666666222F3E3C PUSH2 0x280 DUP3 ADD MSTORE PUSH32 0x726563742069643D227031342220783D22382220793D2234222066696C6C3D22 PUSH2 0x2A0 DUP3 ADD MSTORE PUSH32 0x23666666222F3E3C726563742069643D227031352220783D22392220793D2234 PUSH2 0x2C0 DUP3 ADD MSTORE PUSH32 0x222066696C6C3D2223666666222F3E3C726563742069643D227031362220783D PUSH2 0x2E0 DUP3 ADD MSTORE PUSH32 0x2231302220793D2234222066696C6C3D2223666666222F3E3C72656374206964 PUSH2 0x300 DUP3 ADD MSTORE PUSH32 0x3D227031372220783D22332220793D2235222066696C6C3D2223666666222F3E PUSH2 0x320 DUP3 ADD MSTORE PUSH32 0x3C726563742069643D227031382220783D22342220793D2235222066696C6C3D PUSH2 0x340 DUP3 ADD MSTORE PUSH32 0x2223666666222F3E3C726563742069643D227031392220783D22352220793D22 PUSH2 0x360 DUP3 ADD MSTORE PUSH32 0x35222066696C6C3D2223666666222F3E3C726563742069643D22703230222078 PUSH2 0x380 DUP3 ADD MSTORE PUSH32 0x3D22362220793D2235222066696C6C3D2223666666222F3E3C72656374206964 PUSH2 0x3A0 DUP3 ADD MSTORE PUSH32 0x3D227032312220783D22372220793D2235222066696C6C3D2223666666222F3E PUSH2 0x3C0 DUP3 ADD MSTORE PUSH32 0x3C726563742069643D227032322220783D22382220793D2235222066696C6C3D PUSH2 0x3E0 DUP3 ADD MSTORE PUSH32 0x2223666666222F3E3C726563742069643D227032332220783D22392220793D22 PUSH2 0x400 DUP3 ADD MSTORE PUSH32 0x35222066696C6C3D2223666666222F3E3C726563742069643D22703234222078 PUSH2 0x420 DUP3 ADD MSTORE PUSH32 0x3D2231302220793D2235222066696C6C3D2223666666222F3E3C726563742069 PUSH2 0x440 DUP3 ADD MSTORE PUSH32 0x643D227032352220783D22332220793D2236222066696C6C3D2223666666222F PUSH2 0x460 DUP3 ADD MSTORE PUSH32 0x3E3C726563742069643D227032362220783D22342220793D2236222066696C6C PUSH2 0x480 DUP3 ADD MSTORE PUSH32 0x3D2223666666222F3E3C726563742069643D227032372220783D22352220793D PUSH2 0x4A0 DUP3 ADD MSTORE PUSH32 0x2236222066696C6C3D2223666666222F3E3C726563742069643D227032382220 PUSH2 0x4C0 DUP3 ADD MSTORE PUSH32 0x783D22362220793D2236222066696C6C3D2223666666222F3E3C726563742069 PUSH2 0x4E0 DUP3 ADD MSTORE PUSH32 0x643D227032392220783D22372220793D2236222066696C6C3D2223666666222F PUSH2 0x500 DUP3 ADD MSTORE PUSH32 0x3E3C726563742069643D227033302220783D22382220793D2236222066696C6C PUSH2 0x520 DUP3 ADD MSTORE PUSH32 0x3D2223666666222F3E3C726563742069643D227033312220783D22392220793D PUSH2 0x540 DUP3 ADD MSTORE PUSH32 0x2236222066696C6C3D2223666666222F3E3C726563742069643D227033322220 PUSH2 0x560 DUP3 ADD MSTORE PUSH32 0x783D2231302220793D2236222066696C6C3D2223666666222F3E3C7265637420 PUSH2 0x580 DUP3 ADD MSTORE PUSH32 0x69643D227033332220783D22332220793D2237222066696C6C3D222366666622 PUSH2 0x5A0 DUP3 ADD MSTORE PUSH32 0x2F3E3C726563742069643D227033342220783D22342220793D2237222066696C PUSH2 0x5C0 DUP3 ADD MSTORE PUSH32 0x6C3D2223666666222F3E3C726563742069643D227033352220783D2235222079 PUSH2 0x5E0 DUP3 ADD MSTORE PUSH32 0x3D2237222066696C6C3D2223666666222F3E3C726563742069643D2270333622 PUSH2 0x600 DUP3 ADD MSTORE PUSH32 0x20783D22362220793D2237222066696C6C3D2223666666222F3E3C7265637420 PUSH2 0x620 DUP3 ADD MSTORE PUSH32 0x69643D227033372220783D22372220793D2237222066696C6C3D222366666622 PUSH2 0x640 DUP3 ADD MSTORE PUSH32 0x2F3E3C726563742069643D227033382220783D22382220793D2237222066696C PUSH2 0x660 DUP3 ADD MSTORE PUSH32 0x6C3D2223666666222F3E3C726563742069643D227033392220783D2239222079 PUSH2 0x680 DUP3 ADD MSTORE PUSH32 0x3D2237222066696C6C3D2223666666222F3E3C726563742069643D2270343022 PUSH2 0x6A0 DUP3 ADD MSTORE PUSH32 0x20783D2231302220793D2237222066696C6C3D2223666666222F3E3C72656374 PUSH2 0x6C0 DUP3 ADD MSTORE PUSH32 0x2069643D227034312220783D22332220793D2238222066696C6C3D2223666666 PUSH2 0x6E0 DUP3 ADD MSTORE PUSH32 0x222F3E3C726563742069643D227034322220783D22342220793D223822206669 PUSH2 0x700 DUP3 ADD MSTORE PUSH32 0x6C6C3D2223666666222F3E3C726563742069643D227034332220783D22352220 PUSH2 0x720 DUP3 ADD MSTORE PUSH32 0x793D2238222066696C6C3D2223666666222F3E3C726563742069643D22703434 PUSH2 0x740 DUP3 ADD MSTORE PUSH32 0x2220783D22362220793D2238222066696C6C3D2223666666222F3E3C72656374 PUSH2 0x760 DUP3 ADD MSTORE PUSH32 0x2069643D227034352220783D22372220793D2238222066696C6C3D2223666666 PUSH2 0x780 DUP3 ADD MSTORE PUSH32 0x222F3E3C726563742069643D227034362220783D22382220793D223822206669 PUSH2 0x7A0 DUP3 ADD MSTORE PUSH32 0x6C6C3D2223666666222F3E3C726563742069643D227034372220783D22392220 PUSH2 0x7C0 DUP3 ADD MSTORE PUSH32 0x793D2238222066696C6C3D2223666666222F3E3C726563742069643D22703438 PUSH2 0x7E0 DUP3 ADD MSTORE PUSH32 0x2220783D2231302220793D2238222066696C6C3D2223666666222F3E3C726563 PUSH2 0x800 DUP3 ADD MSTORE PUSH32 0x742069643D227034392220783D22332220793D2239222066696C6C3D22236666 PUSH2 0x820 DUP3 ADD MSTORE PUSH32 0x66222F3E3C726563742069643D227035302220783D22342220793D2239222066 PUSH2 0x840 DUP3 ADD MSTORE PUSH32 0x696C6C3D2223666666222F3E3C726563742069643D227035312220783D223522 PUSH2 0x860 DUP3 ADD MSTORE PUSH32 0x20793D2239222066696C6C3D2223666666222F3E3C726563742069643D227035 PUSH2 0x880 DUP3 ADD MSTORE PUSH32 0x322220783D22362220793D2239222066696C6C3D2223666666222F3E3C726563 PUSH2 0x8A0 DUP3 ADD MSTORE PUSH32 0x742069643D227035332220783D22372220793D2239222066696C6C3D22236666 PUSH2 0x8C0 DUP3 ADD MSTORE PUSH32 0x66222F3E3C726563742069643D227035342220783D22382220793D2239222066 PUSH2 0x8E0 DUP3 ADD MSTORE PUSH32 0x696C6C3D2223666666222F3E3C726563742069643D227035352220783D223922 PUSH2 0x900 DUP3 ADD MSTORE PUSH32 0x20793D2239222066696C6C3D2223666666222F3E3C726563742069643D227035 PUSH2 0x920 DUP3 ADD MSTORE PUSH32 0x362220783D2231302220793D2239222066696C6C3D2223666666222F3E3C7265 PUSH2 0x940 DUP3 ADD MSTORE PUSH32 0x63742069643D227035372220783D22332220793D223130222066696C6C3D2223 PUSH2 0x960 DUP3 ADD MSTORE PUSH32 0x666666222F3E3C726563742069643D227035382220783D22342220793D223130 PUSH2 0x980 DUP3 ADD MSTORE PUSH32 0x222066696C6C3D2223666666222F3E3C726563742069643D227035392220783D PUSH2 0x9A0 DUP3 ADD MSTORE PUSH32 0x22352220793D223130222066696C6C3D2223666666222F3E3C72656374206964 PUSH2 0x9C0 DUP3 ADD MSTORE PUSH32 0x3D227036302220783D22362220793D223130222066696C6C3D2223666666222F PUSH2 0x9E0 DUP3 ADD MSTORE PUSH32 0x3E3C726563742069643D227036312220783D22372220793D223130222066696C PUSH2 0xA00 DUP3 ADD MSTORE PUSH32 0x6C3D2223666666222F3E3C726563742069643D227036322220783D2238222079 PUSH2 0xA20 DUP3 ADD MSTORE PUSH32 0x3D223130222066696C6C3D2223666666222F3E3C726563742069643D22703633 PUSH2 0xA40 DUP3 ADD MSTORE PUSH32 0x2220783D22392220793D223130222066696C6C3D2223666666222F3E3C726563 PUSH2 0xA60 DUP3 ADD MSTORE PUSH32 0x742069643D227036342220783D2231302220793D223130222066696C6C3D2223 PUSH2 0xA80 DUP3 ADD MSTORE PUSH32 0x666666222F3E3C2F673E3C6720636C6173733D2267726964223E3C6C696E6520 PUSH2 0xAA0 DUP3 ADD MSTORE PUSH32 0x78313D22312E303035222079313D222D322E3138353537652D3130222078323D PUSH2 0xAC0 DUP3 ADD MSTORE PUSH32 0x22312E303035222079323D223134222F3E3C6C696E652078313D22322E303035 PUSH2 0xAE0 DUP3 ADD MSTORE PUSH32 0x222079313D222D322E3138353537652D3130222078323D22322E303035222079 PUSH2 0xB00 DUP3 ADD MSTORE PUSH32 0x323D223134222F3E3C6C696E652078313D22332E303035222079313D222D322E PUSH2 0xB20 DUP3 ADD MSTORE PUSH32 0x3138353537652D3130222078323D22332E303035222079323D223134222F3E3C PUSH2 0xB40 DUP3 ADD MSTORE PUSH32 0x6C696E652078313D22342E303035222079313D222D322E3138353537652D3130 PUSH2 0xB60 DUP3 ADD MSTORE PUSH32 0x222078323D22342E303035222079323D223134222F3E3C6C696E652078313D22 PUSH2 0xB80 DUP3 ADD MSTORE PUSH32 0x352E303035222079313D222D322E3138353537652D3130222078323D22352E30 PUSH2 0xBA0 DUP3 ADD MSTORE PUSH32 0x3035222079323D223134222F3E3C6C696E652078313D22362E30303522207931 PUSH2 0xBC0 DUP3 ADD MSTORE PUSH32 0x3D222D322E3138353537652D3130222078323D22362E303035222079323D2231 PUSH2 0xBE0 DUP3 ADD MSTORE PUSH32 0x34222F3E3C6C696E652078313D22372E303035222079313D222D322E31383535 PUSH2 0xC00 DUP3 ADD MSTORE PUSH32 0x37652D3130222078323D22372E303035222079323D223134222F3E3C6C696E65 PUSH2 0xC20 DUP3 ADD MSTORE PUSH32 0x2078313D22382E303035222079313D222D322E3138353537652D313022207832 PUSH2 0xC40 DUP3 ADD MSTORE PUSH32 0x3D22382E303035222079323D223134222F3E3C6C696E652078313D22392E3030 PUSH2 0xC60 DUP3 ADD MSTORE PUSH32 0x35222079313D222D322E3138353537652D3130222078323D22392E3030352220 PUSH2 0xC80 DUP3 ADD MSTORE PUSH32 0x79323D223134222F3E3C6C696E652078313D2231302E303035222079313D222D PUSH2 0xCA0 DUP3 ADD MSTORE PUSH32 0x322E3138353537652D3130222078323D2231302E303035222079323D22313422 PUSH2 0xCC0 DUP3 ADD MSTORE PUSH32 0x2F3E3C6C696E652078313D2231312E303035222079313D222D322E3138353537 PUSH2 0xCE0 DUP3 ADD MSTORE PUSH32 0x652D3130222078323D2231312E303035222079323D223134222F3E3C6C696E65 PUSH2 0xD00 DUP3 ADD MSTORE PUSH32 0x2078313D2231322E303035222079313D222D322E3138353537652D3130222078 PUSH2 0xD20 DUP3 ADD MSTORE PUSH32 0x323D2231322E303035222079323D223134222F3E3C6C696E652078313D223133 PUSH2 0xD40 DUP3 ADD MSTORE PUSH32 0x2E303035222079313D222D322E3138353537652D3130222078323D2231332E30 PUSH2 0xD60 DUP3 ADD MSTORE PUSH32 0x3035222079323D223134222F3E3C6C696E652078313D223134222079313D2231 PUSH2 0xD80 DUP3 ADD MSTORE PUSH32 0x2E303035222079323D22312E303035222F3E3C6C696E652078313D2231342220 PUSH2 0xDA0 DUP3 ADD MSTORE PUSH32 0x79313D22322E303035222079323D22322E303035222F3E3C6C696E652078313D PUSH2 0xDC0 DUP3 ADD MSTORE PUSH32 0x223134222079313D22332E303035222079323D22332E303035222F3E3C6C696E PUSH2 0xDE0 DUP3 ADD MSTORE PUSH32 0x652078313D223134222079313D22342E303035222079323D22342E303035222F PUSH2 0xE00 DUP3 ADD MSTORE PUSH32 0x3E3C6C696E652078313D223134222079313D22352E303035222079323D22352E PUSH2 0xE20 DUP3 ADD MSTORE PUSH32 0x303035222F3E3C6C696E652078313D223134222079313D22362E303035222079 PUSH2 0xE40 DUP3 ADD MSTORE PUSH32 0x323D22362E303035222F3E3C6C696E652078313D223134222079313D22372E30 PUSH2 0xE60 DUP3 ADD MSTORE PUSH32 0x3035222079323D22372E303035222F3E3C6C696E652078313D22313422207931 PUSH2 0xE80 DUP3 ADD MSTORE PUSH32 0x3D22382E303035222079323D22382E303035222F3E3C6C696E652078313D2231 PUSH2 0xEA0 DUP3 ADD MSTORE PUSH32 0x34222079313D22392E303035222079323D22392E303035222F3E3C6C696E6520 PUSH2 0xEC0 DUP3 ADD MSTORE PUSH32 0x78313D223134222079313D2231302E303035222079323D2231302E303035222F PUSH2 0xEE0 DUP3 ADD MSTORE PUSH32 0x3E3C6C696E652078313D223134222079313D2231312E303035222079323D2231 PUSH2 0xF00 DUP3 ADD MSTORE PUSH32 0x312E303035222F3E3C6C696E652078313D223134222079313D2231322E303035 PUSH2 0xF20 DUP3 ADD MSTORE PUSH32 0x222079323D2231322E303035222F3E3C6C696E652078313D223134222079313D PUSH2 0xF40 DUP3 ADD MSTORE PUSH32 0x2231332E303035222079323D2231332E303035222F3E3C2F673E3C7374796C65 PUSH2 0xF60 DUP3 ADD MSTORE PUSH32 0x3E2E74696C657320726563747B77696474683A3170783B6865696768743A3170 PUSH2 0xF80 DUP3 ADD MSTORE PUSH32 0x783B7D2E677269647B7374726F6B653A233232323B7374726F6B652D77696474 PUSH2 0xFA0 DUP3 ADD MSTORE PUSH32 0x683A2E30313B7D00000000000000000000000000000000000000000000000000 PUSH2 0xFC0 DUP3 ADD MSTORE POP JUMP JUMPDEST PUSH1 0x0 PUSH2 0x4D42 PUSH2 0xFC7 DUP4 PUSH2 0x39D5 JUMP JUMPDEST SWAP2 POP PUSH2 0x4D4D DUP3 PUSH2 0x39E0 JUMP JUMPDEST PUSH2 0xFC7 DUP3 ADD SWAP1 POP SWAP2 SWAP1 POP JUMP JUMPDEST PUSH1 0x0 PUSH2 0x4D64 DUP3 PUSH2 0x2DEB JUMP JUMPDEST PUSH2 0x4D6E DUP2 DUP6 PUSH2 0x39D5 JUMP JUMPDEST SWAP4 POP PUSH2 0x4D7E DUP2 DUP6 PUSH1 0x20 DUP7 ADD PUSH2 0x2E07 JUMP JUMPDEST DUP1 DUP5 ADD SWAP2 POP POP SWAP3 SWAP2 POP POP JUMP JUMPDEST PUSH32 0x3C2F7374796C653E3C2F7376673E000000000000000000000000000000000000 PUSH1 0x0 DUP3 ADD MSTORE POP JUMP JUMPDEST PUSH1 0x0 PUSH2 0x4DC0 PUSH1 0xE DUP4 PUSH2 0x39D5 JUMP JUMPDEST SWAP2 POP PUSH2 0x4DCB DUP3 PUSH2 0x4D8A JUMP JUMPDEST PUSH1 0xE DUP3 ADD SWAP1 POP SWAP2 SWAP1 POP JUMP JUMPDEST PUSH1 0x0 PUSH2 0x4DE1 DUP3 PUSH2 0x4D34 JUMP JUMPDEST SWAP2 POP PUSH2 0x4DED DUP3 DUP5 PUSH2 0x4D59 JUMP JUMPDEST SWAP2 POP PUSH2 0x4DF8 DUP3 PUSH2 0x4DB3 JUMP JUMPDEST SWAP2 POP DUP2 SWAP1 POP SWAP3 SWAP2 POP POP JUMP JUMPDEST PUSH1 0x0 PUSH2 0x4E0E DUP3 PUSH2 0x2E9D JUMP JUMPDEST SWAP2 POP PUSH2 0x4E19 DUP4 PUSH2 0x2E9D JUMP JUMPDEST SWAP3 POP DUP3 DUP3 SUB SWAP1 POP DUP2 DUP2 GT ISZERO PUSH2 0x4E31 JUMPI PUSH2 0x4E30 PUSH2 0x3888 JUMP JUMPDEST JUMPDEST SWAP3 SWAP2 POP POP JUMP JUMPDEST PUSH32 0x4E487B7100000000000000000000000000000000000000000000000000000000 PUSH1 0x0 MSTORE PUSH1 0x32 PUSH1 0x4 MSTORE PUSH1 0x24 PUSH1 0x0 REVERT JUMPDEST PUSH32 0x496E76616C696420706F736974696F6E00000000000000000000000000000000 PUSH1 0x0 DUP3 ADD MSTORE POP JUMP JUMPDEST PUSH1 0x0 PUSH2 0x4E9C PUSH1 0x10 DUP4 PUSH2 0x2DF6 JUMP JUMPDEST SWAP2 POP PUSH2 0x4EA7 DUP3 PUSH2 0x4E66 JUMP JUMPDEST PUSH1 0x20 DUP3 ADD SWAP1 POP SWAP2 SWAP1 POP JUMP JUMPDEST PUSH1 0x0 PUSH1 0x20 DUP3 ADD SWAP1 POP DUP2 DUP2 SUB PUSH1 0x0 DUP4 ADD MSTORE PUSH2 0x4ECB DUP2 PUSH2 0x4E8F JUMP JUMPDEST SWAP1 POP SWAP2 SWAP1 POP JUMP JUMPDEST PUSH1 0x0 DUP2 MLOAD SWAP1 POP PUSH2 0x4EE1 DUP2 PUSH2 0x2F5C JUMP JUMPDEST SWAP3 SWAP2 POP POP JUMP JUMPDEST PUSH1 0x0 PUSH1 0x20 DUP3 DUP5 SUB SLT ISZERO PUSH2 0x4EFD JUMPI PUSH2 0x4EFC PUSH2 0x2CE8 JUMP JUMPDEST JUMPDEST PUSH1 0x0 PUSH2 0x4F0B DUP5 DUP3 DUP6 ADD PUSH2 0x4ED2 JUMP JUMPDEST SWAP2 POP POP SWAP3 SWAP2 POP POP JUMP JUMPDEST PUSH32 0x55494E5453206E6F74206F776E65640000000000000000000000000000000000 PUSH1 0x0 DUP3 ADD MSTORE POP JUMP JUMPDEST PUSH1 0x0 PUSH2 0x4F4A PUSH1 0xF DUP4 PUSH2 0x2DF6 JUMP JUMPDEST SWAP2 POP PUSH2 0x4F55 DUP3 PUSH2 0x4F14 JUMP JUMPDEST PUSH1 0x20 DUP3 ADD SWAP1 POP SWAP2 SWAP1 POP JUMP JUMPDEST PUSH1 0x0 PUSH1 0x20 DUP3 ADD SWAP1 POP DUP2 DUP2 SUB PUSH1 0x0 DUP4 ADD MSTORE PUSH2 0x4F79 DUP2 PUSH2 0x4F3D JUMP JUMPDEST SWAP1 POP SWAP2 SWAP1 POP JUMP JUMPDEST PUSH32 0x55494E545320616C726561647920757365640000000000000000000000000000 PUSH1 0x0 DUP3 ADD MSTORE POP JUMP JUMPDEST PUSH1 0x0 PUSH2 0x4FB6 PUSH1 0x12 DUP4 PUSH2 0x2DF6 JUMP JUMPDEST SWAP2 POP PUSH2 0x4FC1 DUP3 PUSH2 0x4F80 JUMP JUMPDEST PUSH1 0x20 DUP3 ADD SWAP1 POP SWAP2 SWAP1 POP JUMP JUMPDEST PUSH1 0x0 PUSH1 0x20 DUP3 ADD SWAP1 POP DUP2 DUP2 SUB PUSH1 0x0 DUP4 ADD MSTORE PUSH2 0x4FE5 DUP2 PUSH2 0x4FA9 JUMP JUMPDEST SWAP1 POP SWAP2 SWAP1 POP JUMP JUMPDEST PUSH32 0x4D757374206F776E206174206C6561737420312055494E54532045646974696F PUSH1 0x0 DUP3 ADD MSTORE PUSH32 0x6E00000000000000000000000000000000000000000000000000000000000000 PUSH1 0x20 DUP3 ADD MSTORE POP JUMP JUMPDEST PUSH1 0x0 PUSH2 0x5048 PUSH1 0x21 DUP4 PUSH2 0x2DF6 JUMP JUMPDEST SWAP2 POP PUSH2 0x5053 DUP3 PUSH2 0x4FEC JUMP JUMPDEST PUSH1 0x40 DUP3 ADD SWAP1 POP SWAP2 SWAP1 POP JUMP JUMPDEST PUSH1 0x0 PUSH1 0x20 DUP3 ADD SWAP1 POP DUP2 DUP2 SUB PUSH1 0x0 DUP4 ADD MSTORE PUSH2 0x5077 DUP2 PUSH2 0x503B JUMP JUMPDEST SWAP1 POP SWAP2 SWAP1 POP JUMP JUMPDEST PUSH1 0x0 PUSH1 0xC0 DUP3 ADD SWAP1 POP PUSH2 0x5093 PUSH1 0x0 DUP4 ADD DUP10 PUSH2 0x2FC8 JUMP JUMPDEST PUSH2 0x50A0 PUSH1 0x20 DUP4 ADD DUP9 PUSH2 0x2FC8 JUMP JUMPDEST DUP2 DUP2 SUB PUSH1 0x40 DUP4 ADD MSTORE PUSH2 0x50B2 DUP2 DUP8 PUSH2 0x2E42 JUMP JUMPDEST SWAP1 POP PUSH2 0x50C1 PUSH1 0x60 DUP4 ADD DUP7 PUSH2 0x2F32 JUMP JUMPDEST PUSH2 0x50CE PUSH1 0x80 DUP4 ADD DUP6 PUSH2 0x2FC8 JUMP JUMPDEST PUSH2 0x50DB PUSH1 0xA0 DUP4 ADD DUP5 PUSH2 0x2FC8 JUMP JUMPDEST SWAP8 SWAP7 POP POP POP POP POP POP POP JUMP JUMPDEST PUSH32 0x2370000000000000000000000000000000000000000000000000000000000000 PUSH1 0x0 DUP3 ADD MSTORE POP JUMP JUMPDEST PUSH1 0x0 PUSH2 0x511C PUSH1 0x2 DUP4 PUSH2 0x39D5 JUMP JUMPDEST SWAP2 POP PUSH2 0x5127 DUP3 PUSH2 0x50E6 JUMP JUMPDEST PUSH1 0x2 DUP3 ADD SWAP1 POP SWAP2 SWAP1 POP JUMP JUMPDEST PUSH32 0x7B66696C6C3A0000000000000000000000000000000000000000000000000000 PUSH1 0x0 DUP3 ADD MSTORE POP JUMP JUMPDEST PUSH1 0x0 PUSH2 0x5168 PUSH1 0x6 DUP4 PUSH2 0x39D5 JUMP JUMPDEST SWAP2 POP PUSH2 0x5173 DUP3 PUSH2 0x5132 JUMP JUMPDEST PUSH1 0x6 DUP3 ADD SWAP1 POP SWAP2 SWAP1 POP JUMP JUMPDEST PUSH32 0x7D00000000000000000000000000000000000000000000000000000000000000 PUSH1 0x0 DUP3 ADD MSTORE POP JUMP JUMPDEST PUSH1 0x0 PUSH2 0x51B4 PUSH1 0x1 DUP4 PUSH2 0x39D5 JUMP JUMPDEST SWAP2 POP PUSH2 0x51BF DUP3 PUSH2 0x517E JUMP JUMPDEST PUSH1 0x1 DUP3 ADD SWAP1 POP SWAP2 SWAP1 POP JUMP JUMPDEST PUSH1 0x0 PUSH2 0x51D6 DUP3 DUP7 PUSH2 0x4D59 JUMP JUMPDEST SWAP2 POP PUSH2 0x51E1 DUP3 PUSH2 0x510F JUMP JUMPDEST SWAP2 POP PUSH2 0x51ED DUP3 DUP6 PUSH2 0x4D59 JUMP JUMPDEST SWAP2 POP PUSH2 0x51F8 DUP3 PUSH2 0x515B JUMP JUMPDEST SWAP2 POP PUSH2 0x5204 DUP3 DUP5 PUSH2 0x4D59 JUMP JUMPDEST SWAP2 POP PUSH2 0x520F DUP3 PUSH2 0x51A7 JUMP JUMPDEST SWAP2 POP DUP2 SWAP1 POP SWAP5 SWAP4 POP POP POP POP JUMP JUMPDEST PUSH1 0x0 DUP2 MLOAD SWAP1 POP PUSH2 0x522B DUP2 PUSH2 0x2EA7 JUMP JUMPDEST SWAP3 SWAP2 POP POP JUMP JUMPDEST PUSH1 0x0 PUSH1 0x20 DUP3 DUP5 SUB SLT ISZERO PUSH2 0x5247 JUMPI PUSH2 0x5246 PUSH2 0x2CE8 JUMP JUMPDEST JUMPDEST PUSH1 0x0 PUSH2 0x5255 DUP5 DUP3 DUP6 ADD PUSH2 0x521C JUMP JUMPDEST SWAP2 POP POP SWAP3 SWAP2 POP POP JUMP JUMPDEST PUSH32 0x4D757374206F776E2055494E545320647572696E672070726976617465206D69 PUSH1 0x0 DUP3 ADD MSTORE PUSH32 0x6E74207068617365000000000000000000000000000000000000000000000000 PUSH1 0x20 DUP3 ADD MSTORE POP JUMP JUMPDEST PUSH1 0x0 PUSH2 0x52BA PUSH1 0x28 DUP4 PUSH2 0x2DF6 JUMP JUMPDEST SWAP2 POP PUSH2 0x52C5 DUP3 PUSH2 0x525E JUMP JUMPDEST PUSH1 0x40 DUP3 ADD SWAP1 POP SWAP2 SWAP1 POP JUMP JUMPDEST PUSH1 0x0 PUSH1 0x20 DUP3 ADD SWAP1 POP DUP2 DUP2 SUB PUSH1 0x0 DUP4 ADD MSTORE PUSH2 0x52E9 DUP2 PUSH2 0x52AD JUMP JUMPDEST SWAP1 POP SWAP2 SWAP1 POP JUMP JUMPDEST PUSH1 0x0 PUSH2 0x52FB DUP3 PUSH2 0x2DAD JUMP JUMPDEST SWAP2 POP PUSH2 0x5306 DUP4 PUSH2 0x2DAD JUMP JUMPDEST SWAP3 POP DUP3 DUP3 SUB SWAP1 POP PUSH8 0xFFFFFFFFFFFFFFFF DUP2 GT ISZERO PUSH2 0x5326 JUMPI PUSH2 0x5325 PUSH2 0x3888 JUMP JUMPDEST JUMPDEST SWAP3 SWAP2 POP POP JUMP JUMPDEST PUSH32 0x4D696E742068617320636C6F7365640000000000000000000000000000000000 PUSH1 0x0 DUP3 ADD MSTORE POP JUMP JUMPDEST PUSH1 0x0 PUSH2 0x5362 PUSH1 0xF DUP4 PUSH2 0x2DF6 JUMP JUMPDEST SWAP2 POP PUSH2 0x536D DUP3 PUSH2 0x532C JUMP JUMPDEST PUSH1 0x20 DUP3 ADD SWAP1 POP SWAP2 SWAP1 POP JUMP JUMPDEST PUSH1 0x0 PUSH1 0x20 DUP3 ADD SWAP1 POP DUP2 DUP2 SUB PUSH1 0x0 DUP4 ADD MSTORE PUSH2 0x5391 DUP2 PUSH2 0x5355 JUMP JUMPDEST SWAP1 POP SWAP2 SWAP1 POP JUMP JUMPDEST PUSH32 0x7B226E616D65223A202255494E54532045646974696F6E200000000000000000 PUSH1 0x0 DUP3 ADD MSTORE POP JUMP JUMPDEST PUSH1 0x0 PUSH2 0x53CE PUSH1 0x18 DUP4 PUSH2 0x39D5 JUMP JUMPDEST SWAP2 POP PUSH2 0x53D9 DUP3 PUSH2 0x5398 JUMP JUMPDEST PUSH1 0x18 DUP3 ADD SWAP1 POP SWAP2 SWAP1 POP JUMP JUMPDEST PUSH32 0x222C20226465736372697074696F6E223A202255494E54532045646974696F6E PUSH1 0x0 DUP3 ADD MSTORE PUSH32 0x2067697665732055494E545320686F6C646572732074686520706F7765722074 PUSH1 0x20 DUP3 ADD MSTORE PUSH32 0x6F206D616B65207570646174657320746F206F6E2D636861696E20617274776F PUSH1 0x40 DUP3 ADD MSTORE PUSH32 0x726B2E222C2022696D616765223A2022646174613A696D6167652F7376672B78 PUSH1 0x60 DUP3 ADD MSTORE PUSH32 0x6D6C3B6261736536342C00000000000000000000000000000000000000000000 PUSH1 0x80 DUP3 ADD MSTORE POP JUMP JUMPDEST PUSH1 0x0 PUSH2 0x54B2 PUSH1 0x8A DUP4 PUSH2 0x39D5 JUMP JUMPDEST SWAP2 POP PUSH2 0x54BD DUP3 PUSH2 0x53E4 JUMP JUMPDEST PUSH1 0x8A DUP3 ADD SWAP1 POP SWAP2 SWAP1 POP JUMP JUMPDEST PUSH32 0x227D000000000000000000000000000000000000000000000000000000000000 PUSH1 0x0 DUP3 ADD MSTORE POP JUMP JUMPDEST PUSH1 0x0 PUSH2 0x54FE PUSH1 0x2 DUP4 PUSH2 0x39D5 JUMP JUMPDEST SWAP2 POP PUSH2 0x5509 DUP3 PUSH2 0x54C8 JUMP JUMPDEST PUSH1 0x2 DUP3 ADD SWAP1 POP SWAP2 SWAP1 POP JUMP JUMPDEST PUSH1 0x0 PUSH2 0x551F DUP3 PUSH2 0x53C1 JUMP JUMPDEST SWAP2 POP PUSH2 0x552B DUP3 DUP6 PUSH2 0x4D59 JUMP JUMPDEST SWAP2 POP PUSH2 0x5536 DUP3 PUSH2 0x54A5 JUMP JUMPDEST SWAP2 POP PUSH2 0x5542 DUP3 DUP5 PUSH2 0x4D59 JUMP JUMPDEST SWAP2 POP PUSH2 0x554D DUP3 PUSH2 0x54F1 JUMP JUMPDEST SWAP2 POP DUP2 SWAP1 POP SWAP4 SWAP3 POP POP POP JUMP JUMPDEST PUSH32 0x646174613A6170706C69636174696F6E2F6A736F6E3B6261736536342C000000 PUSH1 0x0 DUP3 ADD MSTORE POP JUMP JUMPDEST PUSH1 0x0 PUSH2 0x558F PUSH1 0x1D DUP4 PUSH2 0x39D5 JUMP JUMPDEST SWAP2 POP PUSH2 0x559A DUP3 PUSH2 0x5559 JUMP JUMPDEST PUSH1 0x1D DUP3 ADD SWAP1 POP SWAP2 SWAP1 POP JUMP JUMPDEST PUSH1 0x0 PUSH2 0x55B0 DUP3 PUSH2 0x5582 JUMP JUMPDEST SWAP2 POP PUSH2 0x55BC DUP3 DUP5 PUSH2 0x4D59 JUMP JUMPDEST SWAP2 POP DUP2 SWAP1 POP SWAP3 SWAP2 POP POP JUMP JUMPDEST PUSH32 0x5247422800000000000000000000000000000000000000000000000000000000 PUSH1 0x0 DUP3 ADD MSTORE POP JUMP JUMPDEST PUSH1 0x0 PUSH2 0x55FD PUSH1 0x4 DUP4 PUSH2 0x39D5 JUMP JUMPDEST SWAP2 POP PUSH2 0x5608 DUP3 PUSH2 0x55C7 JUMP JUMPDEST PUSH1 0x4 DUP3 ADD SWAP1 POP SWAP2 SWAP1 POP JUMP JUMPDEST PUSH32 0x2C00000000000000000000000000000000000000000000000000000000000000 PUSH1 0x0 DUP3 ADD MSTORE POP JUMP JUMPDEST PUSH1 0x0 PUSH2 0x5649 PUSH1 0x1 DUP4 PUSH2 0x39D5 JUMP JUMPDEST SWAP2 POP PUSH2 0x5654 DUP3 PUSH2 0x5613 JUMP JUMPDEST PUSH1 0x1 DUP3 ADD SWAP1 POP SWAP2 SWAP1 POP JUMP JUMPDEST PUSH32 0x2900000000000000000000000000000000000000000000000000000000000000 PUSH1 0x0 DUP3 ADD MSTORE POP JUMP JUMPDEST PUSH1 0x0 PUSH2 0x5695 PUSH1 0x1 DUP4 PUSH2 0x39D5 JUMP JUMPDEST SWAP2 POP PUSH2 0x56A0 DUP3 PUSH2 0x565F JUMP JUMPDEST PUSH1 0x1 DUP3 ADD SWAP1 POP SWAP2 SWAP1 POP JUMP JUMPDEST PUSH1 0x0 PUSH2 0x56B6 DUP3 PUSH2 0x55F0 JUMP JUMPDEST SWAP2 POP PUSH2 0x56C2 DUP3 DUP7 PUSH2 0x4D59 JUMP JUMPDEST SWAP2 POP PUSH2 0x56CD DUP3 PUSH2 0x563C JUMP JUMPDEST SWAP2 POP PUSH2 0x56D9 DUP3 DUP6 PUSH2 0x4D59 JUMP JUMPDEST SWAP2 POP PUSH2 0x56E4 DUP3 PUSH2 0x563C JUMP JUMPDEST SWAP2 POP PUSH2 0x56F0 DUP3 DUP5 PUSH2 0x4D59 JUMP JUMPDEST SWAP2 POP PUSH2 0x56FB DUP3 PUSH2 0x5688 JUMP JUMPDEST SWAP2 POP DUP2 SWAP1 POP SWAP5 SWAP4 POP POP POP POP JUMP JUMPDEST PUSH32 0x4F776E61626C653A206E6577206F776E657220697320746865207A65726F2061 PUSH1 0x0 DUP3 ADD MSTORE PUSH32 0x6464726573730000000000000000000000000000000000000000000000000000 PUSH1 0x20 DUP3 ADD MSTORE POP JUMP JUMPDEST PUSH1 0x0 PUSH2 0x5764 PUSH1 0x26 DUP4 PUSH2 0x2DF6 JUMP JUMPDEST SWAP2 POP PUSH2 0x576F DUP3 PUSH2 0x5708 JUMP JUMPDEST PUSH1 0x40 DUP3 ADD SWAP1 POP SWAP2 SWAP1 POP JUMP JUMPDEST PUSH1 0x0 PUSH1 0x20 DUP3 ADD SWAP1 POP DUP2 DUP2 SUB PUSH1 0x0 DUP4 ADD MSTORE PUSH2 0x5793 DUP2 PUSH2 0x5757 JUMP JUMPDEST SWAP1 POP SWAP2 SWAP1 POP JUMP JUMPDEST PUSH32 0x4F776E61626C653A2063616C6C6572206973206E6F7420746865206F776E6572 PUSH1 0x0 DUP3 ADD MSTORE POP JUMP JUMPDEST PUSH1 0x0 PUSH2 0x57D0 PUSH1 0x20 DUP4 PUSH2 0x2DF6 JUMP JUMPDEST SWAP2 POP PUSH2 0x57DB DUP3 PUSH2 0x579A JUMP JUMPDEST PUSH1 0x20 DUP3 ADD SWAP1 POP SWAP2 SWAP1 POP JUMP JUMPDEST PUSH1 0x0 PUSH1 0x20 DUP3 ADD SWAP1 POP DUP2 DUP2 SUB PUSH1 0x0 DUP4 ADD MSTORE PUSH2 0x57FF DUP2 PUSH2 0x57C3 JUMP JUMPDEST SWAP1 POP SWAP2 SWAP1 POP JUMP JUMPDEST PUSH32 0x455243323938313A20726F79616C7479206665652077696C6C20657863656564 PUSH1 0x0 DUP3 ADD MSTORE PUSH32 0x2073616C65507269636500000000000000000000000000000000000000000000 PUSH1 0x20 DUP3 ADD MSTORE POP JUMP JUMPDEST PUSH1 0x0 PUSH2 0x5862 PUSH1 0x2A DUP4 PUSH2 0x2DF6 JUMP JUMPDEST SWAP2 POP PUSH2 0x586D DUP3 PUSH2 0x5806 JUMP JUMPDEST PUSH1 0x40 DUP3 ADD SWAP1 POP SWAP2 SWAP1 POP JUMP JUMPDEST PUSH1 0x0 PUSH1 0x20 DUP3 ADD SWAP1 POP DUP2 DUP2 SUB PUSH1 0x0 DUP4 ADD MSTORE PUSH2 0x5891 DUP2 PUSH2 0x5855 JUMP JUMPDEST SWAP1 POP SWAP2 SWAP1 POP JUMP JUMPDEST PUSH32 0x455243323938313A20696E76616C696420726563656976657200000000000000 PUSH1 0x0 DUP3 ADD MSTORE POP JUMP JUMPDEST PUSH1 0x0 PUSH2 0x58CE PUSH1 0x19 DUP4 PUSH2 0x2DF6 JUMP JUMPDEST SWAP2 POP PUSH2 0x58D9 DUP3 PUSH2 0x5898 JUMP JUMPDEST PUSH1 0x20 DUP3 ADD SWAP1 POP SWAP2 SWAP1 POP JUMP JUMPDEST PUSH1 0x0 PUSH1 0x20 DUP3 ADD SWAP1 POP DUP2 DUP2 SUB PUSH1 0x0 DUP4 ADD MSTORE PUSH2 0x58FD DUP2 PUSH2 0x58C1 JUMP JUMPDEST SWAP1 POP SWAP2 SWAP1 POP JUMP JUMPDEST PUSH1 0x0 PUSH2 0x590F DUP3 PUSH2 0x2E9D JUMP JUMPDEST SWAP2 POP PUSH2 0x591A DUP4 PUSH2 0x2E9D JUMP JUMPDEST SWAP3 POP DUP3 PUSH2 0x592A JUMPI PUSH2 0x5929 PUSH2 0x3941 JUMP JUMPDEST JUMPDEST DUP3 DUP3 MOD SWAP1 POP SWAP3 SWAP2 POP POP JUMP JUMPDEST PUSH1 0x0 DUP2 MLOAD SWAP1 POP SWAP2 SWAP1 POP JUMP JUMPDEST PUSH1 0x0 DUP3 DUP3 MSTORE PUSH1 0x20 DUP3 ADD SWAP1 POP SWAP3 SWAP2 POP POP JUMP JUMPDEST PUSH1 0x0 PUSH2 0x595C DUP3 PUSH2 0x5935 JUMP JUMPDEST PUSH2 0x5966 DUP2 DUP6 PUSH2 0x5940 JUMP JUMPDEST SWAP4 POP PUSH2 0x5976 DUP2 DUP6 PUSH1 0x20 DUP7 ADD PUSH2 0x2E07 JUMP JUMPDEST PUSH2 0x597F DUP2 PUSH2 0x2E31 JUMP JUMPDEST DUP5 ADD SWAP2 POP POP SWAP3 SWAP2 POP POP JUMP JUMPDEST PUSH1 0x0 PUSH1 0x80 DUP3 ADD SWAP1 POP PUSH2 0x599F PUSH1 0x0 DUP4 ADD DUP8 PUSH2 0x2F32 JUMP JUMPDEST PUSH2 0x59AC PUSH1 0x20 DUP4 ADD DUP7 PUSH2 0x2F32 JUMP JUMPDEST PUSH2 0x59B9 PUSH1 0x40 DUP4 ADD DUP6 PUSH2 0x2FC8 JUMP JUMPDEST DUP2 DUP2 SUB PUSH1 0x60 DUP4 ADD MSTORE PUSH2 0x59CB DUP2 DUP5 PUSH2 0x5951 JUMP JUMPDEST SWAP1 POP SWAP6 SWAP5 POP POP POP POP POP JUMP JUMPDEST PUSH1 0x0 DUP2 MLOAD SWAP1 POP PUSH2 0x59E5 DUP2 PUSH2 0x2D1E JUMP JUMPDEST SWAP3 SWAP2 POP POP JUMP JUMPDEST PUSH1 0x0 PUSH1 0x20 DUP3 DUP5 SUB SLT ISZERO PUSH2 0x5A01 JUMPI PUSH2 0x5A00 PUSH2 0x2CE8 JUMP JUMPDEST JUMPDEST PUSH1 0x0 PUSH2 0x5A0F DUP5 DUP3 DUP6 ADD PUSH2 0x59D6 JUMP JUMPDEST SWAP2 POP POP SWAP3 SWAP2 POP POP JUMP INVALID COINBASE TIMESTAMP NUMBER PREVRANDAO GASLIMIT CHAINID SELFBALANCE BASEFEE 0x49 0x4A 0x4B 0x4C 0x4D 0x4E 0x4F POP MLOAD MSTORE MSTORE8 SLOAD SSTORE JUMP JUMPI PC MSIZE GAS PUSH2 0x6263 PUSH5 0x6566676869 PUSH11 0x6B6C6D6E6F707172737475 PUSH23 0x7778797A303132333435363738392B2FA2646970667358 0x22 SLT KECCAK256 PUSH32 0x570E7CFAF00C4BB8F16385336EDF88560C9628A4CE8280DD3B1B939CB7063164 PUSH20 0x6F6C634300081200330000000000000000000000 "
		},
		"gasEstimates": {
			"creation": {
				"codeDepositCost": "4636400",
				"executionCost": "infinite",
				"totalCost": "infinite"
			},
			"external": {
				"approve(address,uint256)": "infinite",
				"balanceOf(address)": "2928",
				"changeAllColorsToBlue()": "infinite",
				"changeAllColorsToGreen()": "infinite",
				"changeAllColorsToRed()": "infinite",
				"changeColor(uint256,uint8[3],uint256)": "infinite",
				"changeCounter()": "2496",
				"checkValueOfUints(uint256)": "infinite",
				"colors(uint256)": "2907",
				"convertColorsToStyles(uint32[64])": "infinite",
				"getApproved(uint256)": "7434",
				"getCurrentColors()": "infinite",
				"getCurrentStyles()": "infinite",
				"getRgbColor(uint32)": "infinite",
				"isApprovedForAll(address,address)": "infinite",
				"mint(uint256)": "infinite",
				"name()": "infinite",
				"owner()": "2656",
				"ownerOf(uint256)": "infinite",
				"renderSvg(string)": "infinite",
				"renounceOwnership()": "30466",
				"royaltyInfo(uint256,uint256)": "infinite",
				"safeTransferFrom(address,address,uint256)": "infinite",
				"safeTransferFrom(address,address,uint256,bytes)": "infinite",
				"setApprovalForAll(address,bool)": "infinite",
				"setChangesContract(address)": "51386",
				"setRoyalty(address,uint96)": "51780",
				"setUintsContract(address)": "51365",
				"startMint()": "infinite",
				"stopPrivateMintTime()": "2605",
				"stopPublicMintTime()": "2590",
				"supportsInterface(bytes4)": "989",
				"symbol()": "infinite",
				"tokenURI(uint256)": "infinite",
				"totalSupply()": "4696",
				"transferFrom(address,address,uint256)": "infinite",
				"transferOwnership(address)": "30876",
				"usedTokens(uint256)": "2864",
				"withdraw()": "infinite"
			},
			"internal": {
				"_startTokenId()": "23",
				"batchMint(uint256)": "infinite"
			}
		},
		"methodIdentifiers": {
			"approve(address,uint256)": "095ea7b3",
			"balanceOf(address)": "70a08231",
			"changeAllColorsToBlue()": "ddaf39bc",
			"changeAllColorsToGreen()": "0fd51902",
			"changeAllColorsToRed()": "a3b04a1f",
			"changeColor(uint256,uint8[3],uint256)": "5c27905c",
			"changeCounter()": "aaf4389a",
			"checkValueOfUints(uint256)": "9f9f3859",
			"colors(uint256)": "bd11f69d",
			"convertColorsToStyles(uint32[64])": "829b96cb",
			"getApproved(uint256)": "081812fc",
			"getCurrentColors()": "3d005713",
			"getCurrentStyles()": "7708b2d9",
			"getRgbColor(uint32)": "d14d885a",
			"isApprovedForAll(address,address)": "e985e9c5",
			"mint(uint256)": "a0712d68",
			"name()": "06fdde03",
			"owner()": "8da5cb5b",
			"ownerOf(uint256)": "6352211e",
			"renderSvg(string)": "32783e5b",
			"renounceOwnership()": "715018a6",
			"royaltyInfo(uint256,uint256)": "2a55205a",
			"safeTransferFrom(address,address,uint256)": "42842e0e",
			"safeTransferFrom(address,address,uint256,bytes)": "b88d4fde",
			"setApprovalForAll(address,bool)": "a22cb465",
			"setChangesContract(address)": "bed91971",
			"setRoyalty(address,uint96)": "8f2fc60b",
			"setUintsContract(address)": "354098c1",
			"startMint()": "2be09561",
			"stopPrivateMintTime()": "3886bbcf",
			"stopPublicMintTime()": "060f8c04",
			"supportsInterface(bytes4)": "01ffc9a7",
			"symbol()": "95d89b41",
			"tokenURI(uint256)": "c87b56dd",
			"totalSupply()": "18160ddd",
			"transferFrom(address,address,uint256)": "23b872dd",
			"transferOwnership(address)": "f2fde38b",
			"usedTokens(uint256)": "0f7ee879",
			"withdraw()": "3ccfd60b"
		}
	},
	"abi": [
		{
			"inputs": [],
			"stateMutability": "nonpayable",
			"type": "constructor"
		},
		{
			"inputs": [],
			"name": "ApprovalCallerNotOwnerNorApproved",
			"type": "error"
		},
		{
			"inputs": [],
			"name": "ApprovalQueryForNonexistentToken",
			"type": "error"
		},
		{
			"inputs": [],
			"name": "BalanceQueryForZeroAddress",
			"type": "error"
		},
		{
			"inputs": [],
			"name": "MintERC2309QuantityExceedsLimit",
			"type": "error"
		},
		{
			"inputs": [],
			"name": "MintToZeroAddress",
			"type": "error"
		},
		{
			"inputs": [],
			"name": "MintZeroQuantity",
			"type": "error"
		},
		{
			"inputs": [],
			"name": "OwnerQueryForNonexistentToken",
			"type": "error"
		},
		{
			"inputs": [],
			"name": "OwnershipNotInitializedForExtraData",
			"type": "error"
		},
		{
			"inputs": [],
			"name": "TransferCallerNotOwnerNorApproved",
			"type": "error"
		},
		{
			"inputs": [],
			"name": "TransferFromIncorrectOwner",
			"type": "error"
		},
		{
			"inputs": [],
			"name": "TransferToNonERC721ReceiverImplementer",
			"type": "error"
		},
		{
			"inputs": [],
			"name": "TransferToZeroAddress",
			"type": "error"
		},
		{
			"inputs": [],
			"name": "URIQueryForNonexistentToken",
			"type": "error"
		},
		{
			"anonymous": false,
			"inputs": [
				{
					"indexed": true,
					"internalType": "address",
					"name": "owner",
					"type": "address"
				},
				{
					"indexed": true,
					"internalType": "address",
					"name": "approved",
					"type": "address"
				},
				{
					"indexed": true,
					"internalType": "uint256",
					"name": "tokenId",
					"type": "uint256"
				}
			],
			"name": "Approval",
			"type": "event"
		},
		{
			"anonymous": false,
			"inputs": [
				{
					"indexed": true,
					"internalType": "address",
					"name": "owner",
					"type": "address"
				},
				{
					"indexed": true,
					"internalType": "address",
					"name": "operator",
					"type": "address"
				},
				{
					"indexed": false,
					"internalType": "bool",
					"name": "approved",
					"type": "bool"
				}
			],
			"name": "ApprovalForAll",
			"type": "event"
		},
		{
			"anonymous": false,
			"inputs": [
				{
					"indexed": true,
					"internalType": "uint256",
					"name": "fromTokenId",
					"type": "uint256"
				},
				{
					"indexed": false,
					"internalType": "uint256",
					"name": "toTokenId",
					"type": "uint256"
				},
				{
					"indexed": true,
					"internalType": "address",
					"name": "from",
					"type": "address"
				},
				{
					"indexed": true,
					"internalType": "address",
					"name": "to",
					"type": "address"
				}
			],
			"name": "ConsecutiveTransfer",
			"type": "event"
		},
		{
			"anonymous": false,
			"inputs": [
				{
					"indexed": true,
					"internalType": "address",
					"name": "previousOwner",
					"type": "address"
				},
				{
					"indexed": true,
					"internalType": "address",
					"name": "newOwner",
					"type": "address"
				}
			],
			"name": "OwnershipTransferred",
			"type": "event"
		},
		{
			"anonymous": false,
			"inputs": [
				{
					"indexed": true,
					"internalType": "address",
					"name": "from",
					"type": "address"
				},
				{
					"indexed": true,
					"internalType": "address",
					"name": "to",
					"type": "address"
				},
				{
					"indexed": true,
					"internalType": "uint256",
					"name": "tokenId",
					"type": "uint256"
				}
			],
			"name": "Transfer",
			"type": "event"
		},
		{
			"inputs": [
				{
					"internalType": "address",
					"name": "to",
					"type": "address"
				},
				{
					"internalType": "uint256",
					"name": "tokenId",
					"type": "uint256"
				}
			],
			"name": "approve",
			"outputs": [],
			"stateMutability": "payable",
			"type": "function"
		},
		{
			"inputs": [
				{
					"internalType": "address",
					"name": "owner",
					"type": "address"
				}
			],
			"name": "balanceOf",
			"outputs": [
				{
					"internalType": "uint256",
					"name": "",
					"type": "uint256"
				}
			],
			"stateMutability": "view",
			"type": "function"
		},
		{
			"inputs": [],
			"name": "changeAllColorsToBlue",
			"outputs": [],
			"stateMutability": "nonpayable",
			"type": "function"
		},
		{
			"inputs": [],
			"name": "changeAllColorsToGreen",
			"outputs": [],
			"stateMutability": "nonpayable",
			"type": "function"
		},
		{
			"inputs": [],
			"name": "changeAllColorsToRed",
			"outputs": [],
			"stateMutability": "nonpayable",
			"type": "function"
		},
		{
			"inputs": [
				{
					"internalType": "uint256",
					"name": "position",
					"type": "uint256"
				},
				{
					"internalType": "uint8[3]",
					"name": "rgbColors",
					"type": "uint8[3]"
				},
				{
					"internalType": "uint256",
					"name": "uintsId",
					"type": "uint256"
				}
			],
			"name": "changeColor",
			"outputs": [],
			"stateMutability": "nonpayable",
			"type": "function"
		},
		{
			"inputs": [],
			"name": "changeCounter",
			"outputs": [
				{
					"internalType": "uint256",
					"name": "",
					"type": "uint256"
				}
			],
			"stateMutability": "view",
			"type": "function"
		},
		{
			"inputs": [
				{
					"internalType": "uint256",
					"name": "tokenId",
					"type": "uint256"
				}
			],
			"name": "checkValueOfUints",
			"outputs": [
				{
					"internalType": "uint256",
					"name": "",
					"type": "uint256"
				}
			],
			"stateMutability": "view",
			"type": "function"
		},
		{
			"inputs": [
				{
					"internalType": "uint256",
					"name": "",
					"type": "uint256"
				}
			],
			"name": "colors",
			"outputs": [
				{
					"internalType": "uint32",
					"name": "",
					"type": "uint32"
				}
			],
			"stateMutability": "view",
			"type": "function"
		},
		{
			"inputs": [
				{
					"internalType": "uint32[64]",
					"name": "colorArray",
					"type": "uint32[64]"
				}
			],
			"name": "convertColorsToStyles",
			"outputs": [
				{
					"internalType": "string",
					"name": "styles",
					"type": "string"
				}
			],
			"stateMutability": "pure",
			"type": "function"
		},
		{
			"inputs": [
				{
					"internalType": "uint256",
					"name": "tokenId",
					"type": "uint256"
				}
			],
			"name": "getApproved",
			"outputs": [
				{
					"internalType": "address",
					"name": "",
					"type": "address"
				}
			],
			"stateMutability": "view",
			"type": "function"
		},
		{
			"inputs": [],
			"name": "getCurrentColors",
			"outputs": [
				{
					"internalType": "uint32[64]",
					"name": "colorArray",
					"type": "uint32[64]"
				}
			],
			"stateMutability": "view",
			"type": "function"
		},
		{
			"inputs": [],
			"name": "getCurrentStyles",
			"outputs": [
				{
					"internalType": "string",
					"name": "styles",
					"type": "string"
				}
			],
			"stateMutability": "view",
			"type": "function"
		},
		{
			"inputs": [
				{
					"internalType": "uint32",
					"name": "color",
					"type": "uint32"
				}
			],
			"name": "getRgbColor",
			"outputs": [
				{
					"internalType": "string",
					"name": "",
					"type": "string"
				}
			],
			"stateMutability": "pure",
			"type": "function"
		},
		{
			"inputs": [
				{
					"internalType": "address",
					"name": "owner",
					"type": "address"
				},
				{
					"internalType": "address",
					"name": "operator",
					"type": "address"
				}
			],
			"name": "isApprovedForAll",
			"outputs": [
				{
					"internalType": "bool",
					"name": "",
					"type": "bool"
				}
			],
			"stateMutability": "view",
			"type": "function"
		},
		{
			"inputs": [
				{
					"internalType": "uint256",
					"name": "quantity",
					"type": "uint256"
				}
			],
			"name": "mint",
			"outputs": [],
			"stateMutability": "nonpayable",
			"type": "function"
		},
		{
			"inputs": [],
			"name": "name",
			"outputs": [
				{
					"internalType": "string",
					"name": "",
					"type": "string"
				}
			],
			"stateMutability": "view",
			"type": "function"
		},
		{
			"inputs": [],
			"name": "owner",
			"outputs": [
				{
					"internalType": "address",
					"name": "",
					"type": "address"
				}
			],
			"stateMutability": "view",
			"type": "function"
		},
		{
			"inputs": [
				{
					"internalType": "uint256",
					"name": "tokenId",
					"type": "uint256"
				}
			],
			"name": "ownerOf",
			"outputs": [
				{
					"internalType": "address",
					"name": "",
					"type": "address"
				}
			],
			"stateMutability": "view",
			"type": "function"
		},
		{
			"inputs": [
				{
					"internalType": "string",
					"name": "styles",
					"type": "string"
				}
			],
			"name": "renderSvg",
			"outputs": [
				{
					"internalType": "string",
					"name": "",
					"type": "string"
				}
			],
			"stateMutability": "pure",
			"type": "function"
		},
		{
			"inputs": [],
			"name": "renounceOwnership",
			"outputs": [],
			"stateMutability": "nonpayable",
			"type": "function"
		},
		{
			"inputs": [
				{
					"internalType": "uint256",
					"name": "_tokenId",
					"type": "uint256"
				},
				{
					"internalType": "uint256",
					"name": "_salePrice",
					"type": "uint256"
				}
			],
			"name": "royaltyInfo",
			"outputs": [
				{
					"internalType": "address",
					"name": "",
					"type": "address"
				},
				{
					"internalType": "uint256",
					"name": "",
					"type": "uint256"
				}
			],
			"stateMutability": "view",
			"type": "function"
		},
		{
			"inputs": [
				{
					"internalType": "address",
					"name": "from",
					"type": "address"
				},
				{
					"internalType": "address",
					"name": "to",
					"type": "address"
				},
				{
					"internalType": "uint256",
					"name": "tokenId",
					"type": "uint256"
				}
			],
			"name": "safeTransferFrom",
			"outputs": [],
			"stateMutability": "payable",
			"type": "function"
		},
		{
			"inputs": [
				{
					"internalType": "address",
					"name": "from",
					"type": "address"
				},
				{
					"internalType": "address",
					"name": "to",
					"type": "address"
				},
				{
					"internalType": "uint256",
					"name": "tokenId",
					"type": "uint256"
				},
				{
					"internalType": "bytes",
					"name": "_data",
					"type": "bytes"
				}
			],
			"name": "safeTransferFrom",
			"outputs": [],
			"stateMutability": "payable",
			"type": "function"
		},
		{
			"inputs": [
				{
					"internalType": "address",
					"name": "operator",
					"type": "address"
				},
				{
					"internalType": "bool",
					"name": "approved",
					"type": "bool"
				}
			],
			"name": "setApprovalForAll",
			"outputs": [],
			"stateMutability": "nonpayable",
			"type": "function"
		},
		{
			"inputs": [
				{
					"internalType": "address",
					"name": "contractAddress",
					"type": "address"
				}
			],
			"name": "setChangesContract",
			"outputs": [],
			"stateMutability": "nonpayable",
			"type": "function"
		},
		{
			"inputs": [
				{
					"internalType": "address",
					"name": "wallet",
					"type": "address"
				},
				{
					"internalType": "uint96",
					"name": "fee",
					"type": "uint96"
				}
			],
			"name": "setRoyalty",
			"outputs": [],
			"stateMutability": "nonpayable",
			"type": "function"
		},
		{
			"inputs": [
				{
					"internalType": "address",
					"name": "contractAddress",
					"type": "address"
				}
			],
			"name": "setUintsContract",
			"outputs": [],
			"stateMutability": "nonpayable",
			"type": "function"
		},
		{
			"inputs": [],
			"name": "startMint",
			"outputs": [],
			"stateMutability": "nonpayable",
			"type": "function"
		},
		{
			"inputs": [],
			"name": "stopPrivateMintTime",
			"outputs": [
				{
					"internalType": "uint64",
					"name": "",
					"type": "uint64"
				}
			],
			"stateMutability": "view",
			"type": "function"
		},
		{
			"inputs": [],
			"name": "stopPublicMintTime",
			"outputs": [
				{
					"internalType": "uint64",
					"name": "",
					"type": "uint64"
				}
			],
			"stateMutability": "view",
			"type": "function"
		},
		{
			"inputs": [
				{
					"internalType": "bytes4",
					"name": "interfaceId",
					"type": "bytes4"
				}
			],
			"name": "supportsInterface",
			"outputs": [
				{
					"internalType": "bool",
					"name": "",
					"type": "bool"
				}
			],
			"stateMutability": "view",
			"type": "function"
		},
		{
			"inputs": [],
			"name": "symbol",
			"outputs": [
				{
					"internalType": "string",
					"name": "",
					"type": "string"
				}
			],
			"stateMutability": "view",
			"type": "function"
		},
		{
			"inputs": [
				{
					"internalType": "uint256",
					"name": "tokenId",
					"type": "uint256"
				}
			],
			"name": "tokenURI",
			"outputs": [
				{
					"internalType": "string",
					"name": "result",
					"type": "string"
				}
			],
			"stateMutability": "view",
			"type": "function"
		},
		{
			"inputs": [],
			"name": "totalSupply",
			"outputs": [
				{
					"internalType": "uint256",
					"name": "",
					"type": "uint256"
				}
			],
			"stateMutability": "view",
			"type": "function"
		},
		{
			"inputs": [
				{
					"internalType": "address",
					"name": "from",
					"type": "address"
				},
				{
					"internalType": "address",
					"name": "to",
					"type": "address"
				},
				{
					"internalType": "uint256",
					"name": "tokenId",
					"type": "uint256"
				}
			],
			"name": "transferFrom",
			"outputs": [],
			"stateMutability": "payable",
			"type": "function"
		},
		{
			"inputs": [
				{
					"internalType": "address",
					"name": "newOwner",
					"type": "address"
				}
			],
			"name": "transferOwnership",
			"outputs": [],
			"stateMutability": "nonpayable",
			"type": "function"
		},
		{
			"inputs": [
				{
					"internalType": "uint256",
					"name": "",
					"type": "uint256"
				}
			],
			"name": "usedTokens",
			"outputs": [
				{
					"internalType": "bool",
					"name": "",
					"type": "bool"
				}
			],
			"stateMutability": "view",
			"type": "function"
		},
		{
			"inputs": [],
			"name": "withdraw",
			"outputs": [],
			"stateMutability": "nonpayable",
			"type": "function"
		}
	]
}