{
	"data": {
		"bytecode": {
			"linkReferences": {},
			"object": "608060405273ad16d876d13607499de5bafcbdac9d16d2acc09d601060006101000a81548173ffffffffffffffffffffffffffffffffffffffff021916908373ffffffffffffffffffffffffffffffffffffffff16021790555073e139a55d9415a9147f4a17cb04ee1ab28633a794601160006101000a81548173ffffffffffffffffffffffffffffffffffffffff021916908373ffffffffffffffffffffffffffffffffffffffff160217905550348015620000bb57600080fd5b506040518060400160405280600d81526020017f55494e54532045646974696f6e000000000000000000000000000000000000008152506040518060400160405280600781526020017f55494e54534544000000000000000000000000000000000000000000000000008152508160029081620001399190620004db565b5080600390816200014b9190620004db565b506200015c6200018a60201b60201c565b600081905550505062000184620001786200019360201b60201c565b6200019b60201b60201c565b620005c2565b60006001905090565b600033905090565b6000600860009054906101000a900473ffffffffffffffffffffffffffffffffffffffff16905081600860006101000a81548173ffffffffffffffffffffffffffffffffffffffff021916908373ffffffffffffffffffffffffffffffffffffffff1602179055508173ffffffffffffffffffffffffffffffffffffffff168173ffffffffffffffffffffffffffffffffffffffff167f8be0079c531659141344cd1fd0a4f28419497f9722a3daafe3b4186f6b6457e060405160405180910390a35050565b600081519050919050565b7f4e487b7100000000000000000000000000000000000000000000000000000000600052604160045260246000fd5b7f4e487b7100000000000000000000000000000000000000000000000000000000600052602260045260246000fd5b60006002820490506001821680620002e357607f821691505b602082108103620002f957620002f86200029b565b5b50919050565b60008190508160005260206000209050919050565b60006020601f8301049050919050565b600082821b905092915050565b600060088302620003637fffffffffffffffffffffffffffffffffffffffffffffffffffffffffffffffff8262000324565b6200036f868362000324565b95508019841693508086168417925050509392505050565b6000819050919050565b6000819050919050565b6000620003bc620003b6620003b08462000387565b62000391565b62000387565b9050919050565b6000819050919050565b620003d8836200039b565b620003f0620003e782620003c3565b84845462000331565b825550505050565b600090565b62000407620003f8565b62000414818484620003cd565b505050565b5b818110156200043c5762000430600082620003fd565b6001810190506200041a565b5050565b601f8211156200048b576200045581620002ff565b620004608462000314565b8101602085101562000470578190505b620004886200047f8562000314565b83018262000419565b50505b505050565b600082821c905092915050565b6000620004b06000198460080262000490565b1980831691505092915050565b6000620004cb83836200049d565b9150826002028217905092915050565b620004e68262000261565b67ffffffffffffffff8111156200050257620005016200026c565b5b6200050e8254620002ca565b6200051b82828562000440565b600060209050601f8311600181146200055357600084156200053e578287015190505b6200054a8582620004bd565b865550620005ba565b601f1984166200056386620002ff565b60005b828110156200058d5784890151825560018201915060208501945060208101905062000566565b86831015620005ad5784890151620005a9601f8916826200049d565b8355505b6001600288020188555050505b505050505050565b61564380620005d26000396000f3fe6080604052600436106101f95760003560e01c80636352211e1161010d578063a22cb465116100a0578063bd11f69d1161006f578063bd11f69d146106bb578063c87b56dd146106f8578063e7c7558514610735578063e985e9c51461075e578063f2fde38b1461079b576101f9565b8063a22cb4651461060e578063a3bcfe8d14610637578063aaf4389a14610674578063b88d4fde1461069f576101f9565b80638da5cb5b116100dc5780638da5cb5b146105735780638f2fc60b1461059e57806395d89b41146105c7578063a0712d68146105f2576101f9565b80636352211e146104b757806370a08231146104f4578063715018a6146105315780637708b2d914610548576101f9565b806318160ddd1161019057806332783e5b1161015f57806332783e5b146104055780633886bbcf146104425780633ccfd60b1461046d57806342842e0e146104845780634310e42e146104a0576101f9565b806318160ddd1461036957806323b872dd146103945780632a55205a146103b05780632be09561146103ee576101f9565b8063095ea7b3116101cc578063095ea7b3146102ce5780630ced8637146102ea5780630f7ee8791461030157806312065fe01461033e576101f9565b806301ffc9a7146101fe578063060f8c041461023b57806306fdde0314610266578063081812fc14610291575b600080fd5b34801561020a57600080fd5b5061022560048036038101906102209190612877565b6107c4565b60405161023291906128bf565b60405180910390f35b34801561024757600080fd5b506102506107e6565b60405161025d91906128f3565b60405180910390f35b34801561027257600080fd5b5061027b6107ec565b604051610288919061299e565b60405180910390f35b34801561029d57600080fd5b506102b860048036038101906102b391906129ec565b61087e565b6040516102c59190612a5a565b60405180910390f35b6102e860048036038101906102e39190612aa1565b6108fd565b005b3480156102f657600080fd5b506102ff610a41565b005b34801561030d57600080fd5b50610328600480360381019061032391906129ec565b610a4e565b60405161033591906128bf565b60405180910390f35b34801561034a57600080fd5b50610353610a6e565b60405161036091906128f3565b60405180910390f35b34801561037557600080fd5b5061037e610a7e565b60405161038b91906128f3565b60405180910390f35b6103ae60048036038101906103a99190612ae1565b610a95565b005b3480156103bc57600080fd5b506103d760048036038101906103d29190612b34565b610db7565b6040516103e5929190612b74565b60405180910390f35b3480156103fa57600080fd5b50610403610fa1565b005b34801561041157600080fd5b5061042c60048036038101906104279190612cd2565b610fd5565b604051610439919061299e565b60405180910390f35b34801561044e57600080fd5b50610457610ffe565b60405161046491906128f3565b60405180910390f35b34801561047957600080fd5b50610482611004565b005b61049e60048036038101906104999190612ae1565b61104c565b005b3480156104ac57600080fd5b506104b561106c565b005b3480156104c357600080fd5b506104de60048036038101906104d991906129ec565b6110cf565b6040516104eb9190612a5a565b60405180910390f35b34801561050057600080fd5b5061051b60048036038101906105169190612d1b565b6110e1565b60405161052891906128f3565b60405180910390f35b34801561053d57600080fd5b50610546611199565b005b34801561055457600080fd5b5061055d6111ad565b60405161056a919061299e565b60405180910390f35b34801561057f57600080fd5b50610588611216565b6040516105959190612a5a565b60405180910390f35b3480156105aa57600080fd5b506105c560048036038101906105c09190612d8c565b611240565b005b3480156105d357600080fd5b506105dc611256565b6040516105e9919061299e565b60405180910390f35b61060c600480360381019061060791906129ec565b6112e8565b005b34801561061a57600080fd5b5061063560048036038101906106309190612df8565b611454565b005b34801561064357600080fd5b5061065e60048036038101906106599190612eee565b61155f565b60405161066b91906128bf565b60405180910390f35b34801561068057600080fd5b506106896115b8565b60405161069691906128f3565b60405180910390f35b6106b960048036038101906106b49190612fbc565b6115be565b005b3480156106c757600080fd5b506106e260048036038101906106dd91906129ec565b611631565b6040516106ef919061299e565b60405180910390f35b34801561070457600080fd5b5061071f600480360381019061071a91906129ec565b6116d1565b60405161072c919061299e565b60405180910390f35b34801561074157600080fd5b5061075c6004803603810190610757919061303f565b61174e565b005b34801561076a57600080fd5b5061078560048036038101906107809190613092565b611b38565b60405161079291906128bf565b60405180910390f35b3480156107a757600080fd5b506107c260048036038101906107bd9190612d1b565b611bcc565b005b60006107cf82611c4f565b806107df57506107de82611ce1565b5b9050919050565b600c5481565b6060600280546107fb90613101565b80601f016020809104026020016040519081016040528092919081815260200182805461082790613101565b80156108745780601f1061084957610100808354040283529160200191610874565b820191906000526020600020905b81548152906001019060200180831161085757829003601f168201915b5050505050905090565b600061088982611d5b565b6108bf576040517fcf4700e400000000000000000000000000000000000000000000000000000000815260040160405180910390fd5b6006600083815260200190815260200160002060000160009054906101000a900473ffffffffffffffffffffffffffffffffffffffff169050919050565b6000610908826110cf565b90508073ffffffffffffffffffffffffffffffffffffffff16610929611dba565b73ffffffffffffffffffffffffffffffffffffffff161461098c5761095581610950611dba565b611b38565b61098b576040517fcfb3b94200000000000000000000000000000000000000000000000000000000815260040160405180910390fd5b5b826006600084815260200190815260200160002060000160006101000a81548173ffffffffffffffffffffffffffffffffffffffff021916908373ffffffffffffffffffffffffffffffffffffffff160217905550818373ffffffffffffffffffffffffffffffffffffffff168273ffffffffffffffffffffffffffffffffffffffff167f8c5be1e5ebec7d5bd14f71427d1e84f3dd0314c0f7b2291e5b200ac8c7c3b92560405160405180910390a4505050565b610a4c336001611dc2565b565b600f6020528060005260406000206000915054906101000a900460ff1681565b6000610a79336110e1565b905090565b6000610a88611f7d565b6001546000540303905090565b6000610aa082611f86565b90508373ffffffffffffffffffffffffffffffffffffffff168173ffffffffffffffffffffffffffffffffffffffff1614610b07576040517fa114810000000000000000000000000000000000000000000000000000000000815260040160405180910390fd5b600080610b1384612052565b91509150610b298187610b24611dba565b612079565b610b7557610b3e86610b39611dba565b611b38565b610b74576040517f59c896be00000000000000000000000000000000000000000000000000000000815260040160405180910390fd5b5b600073ffffffffffffffffffffffffffffffffffffffff168573ffffffffffffffffffffffffffffffffffffffff1603610bdb576040517fea553b3400000000000000000000000000000000000000000000000000000000815260040160405180910390fd5b610be886868660016120bd565b8015610bf357600082555b600560008773ffffffffffffffffffffffffffffffffffffffff1673ffffffffffffffffffffffffffffffffffffffff168152602001908152602001600020600081546001900391905081905550600560008673ffffffffffffffffffffffffffffffffffffffff1673ffffffffffffffffffffffffffffffffffffffff1681526020019081526020016000206000815460010191905081905550610cc185610c9d8888876120c3565b7c0200000000000000000000000000000000000000000000000000000000176120eb565b600460008681526020019081526020016000208190555060007c0200000000000000000000000000000000000000000000000000000000841603610d475760006001850190506000600460008381526020019081526020016000205403610d45576000548114610d44578360046000838152602001908152602001600020819055505b5b505b838573ffffffffffffffffffffffffffffffffffffffff168773ffffffffffffffffffffffffffffffffffffffff167fddf252ad1be2c89b69c2b068fc378daa952ba7f163c4a11628f55a4df523b3ef60405160405180910390a4610daf8686866001612116565b505050505050565b6000806000600a60008681526020019081526020016000206040518060400160405290816000820160009054906101000a900473ffffffffffffffffffffffffffffffffffffffff1673ffffffffffffffffffffffffffffffffffffffff1673ffffffffffffffffffffffffffffffffffffffff1681526020016000820160149054906101000a90046bffffffffffffffffffffffff166bffffffffffffffffffffffff166bffffffffffffffffffffffff16815250509050600073ffffffffffffffffffffffffffffffffffffffff16816000015173ffffffffffffffffffffffffffffffffffffffff1603610f4c5760096040518060400160405290816000820160009054906101000a900473ffffffffffffffffffffffffffffffffffffffff1673ffffffffffffffffffffffffffffffffffffffff1673ffffffffffffffffffffffffffffffffffffffff1681526020016000820160149054906101000a90046bffffffffffffffffffffffff166bffffffffffffffffffffffff166bffffffffffffffffffffffff168152505090505b6000610f5661211c565b6bffffffffffffffffffffffff1682602001516bffffffffffffffffffffffff1686610f829190613161565b610f8c91906131d2565b90508160000151819350935050509250929050565b610fa9612126565b6201518042610fb89190613203565b600b819055506202a30042610fcd9190613203565b600c81905550565b606081604051602001610fe89190614638565b6040516020818303038152906040529050919050565b600b5481565b61100c612126565b3373ffffffffffffffffffffffffffffffffffffffff166108fc479081150290604051600060405180830381858888f1935050505061104a57600080fd5b565b611067838383604051806020016040528060008152506115be565b505050565b6000600190505b60418110156110cc576110b981604051806060016040528060ff426110989190614665565b81526020018481526020016064856110b09190613203565b8152508361174e565b80806110c490614696565b915050611073565b50565b60006110da82611f86565b9050919050565b60008073ffffffffffffffffffffffffffffffffffffffff168273ffffffffffffffffffffffffffffffffffffffff1603611148576040517f8f4eb60400000000000000000000000000000000000000000000000000000000815260040160405180910390fd5b67ffffffffffffffff600560008473ffffffffffffffffffffffffffffffffffffffff1673ffffffffffffffffffffffffffffffffffffffff16815260200190815260200160002054169050919050565b6111a1612126565b6111ab60006121a4565b565b60606000600190505b604181101561121257816111c98261226a565b600e60008481526020019081526020016000206040516020016111ee9392919061485a565b6040516020818303038152906040529150808061120a90614696565b9150506111b6565b5090565b6000600860009054906101000a900473ffffffffffffffffffffffffffffffffffffffff16905090565b611248612126565b61125282826122ba565b5050565b60606003805461126590613101565b80601f016020809104026020016040519081016040528092919081815260200182805461129190613101565b80156112de5780601f106112b3576101008083540402835291602001916112de565b820191906000526020600020905b8154815290600101906020018083116112c157829003601f168201915b5050505050905090565b600b54421015611403576000601060009054906101000a900473ffffffffffffffffffffffffffffffffffffffff1673ffffffffffffffffffffffffffffffffffffffff166370a08231336040518263ffffffff1660e01b815260040161134f9190612a5a565b602060405180830381865afa15801561136c573d6000803e3d6000fd5b505050506040513d601f19601f8201168201806040525081019061139091906148c1565b116113d0576040517f08c379a00000000000000000000000000000000000000000000000000000000081526004016113c790614960565b60405180910390fd5b6006816113dd9190613161565b600c60008282546113ee9190614980565b925050819055506113fe8161244f565b611451565b600c544210611447576040517f08c379a000000000000000000000000000000000000000000000000000000000815260040161143e90614a00565b60405180910390fd5b6114508161244f565b5b50565b8060076000611461611dba565b73ffffffffffffffffffffffffffffffffffffffff1673ffffffffffffffffffffffffffffffffffffffff16815260200190815260200160002060008473ffffffffffffffffffffffffffffffffffffffff1673ffffffffffffffffffffffffffffffffffffffff16815260200190815260200160002060006101000a81548160ff0219169083151502179055508173ffffffffffffffffffffffffffffffffffffffff1661150e611dba565b73ffffffffffffffffffffffffffffffffffffffff167f17307eab39ab6107e8899845ad3d59bd9653f200f220920489ca2b5937696c318360405161155391906128bf565b60405180910390a35050565b600080600090505b60038110156115ad5760ff83826003811061158557611584614a20565b5b6020020151111561159a5760009150506115b3565b80806115a590614696565b915050611567565b50600190505b919050565b600d5481565b6115c9848484610a95565b60008373ffffffffffffffffffffffffffffffffffffffff163b1461162b576115f4848484846124cd565b61162a576040517fd1a57ed600000000000000000000000000000000000000000000000000000000815260040160405180910390fd5b5b50505050565b600e602052806000526040600020600091509050805461165090613101565b80601f016020809104026020016040519081016040528092919081815260200182805461167c90613101565b80156116c95780601f1061169e576101008083540402835291602001916116c9565b820191906000526020600020905b8154815290600101906020018083116116ac57829003601f168201915b505050505081565b606060006116e56116e06111ad565b610fd5565b905060006116f28461226a565b6116fb8361261d565b60405160200161170c929190614bcb565b60405160208183030381529060405290506117268161261d565b6040516020016117369190614c5c565b60405160208183030381529060405292505050919050565b60008311801561175e5750604183105b61179d576040517f08c379a000000000000000000000000000000000000000000000000000000000815260040161179490614cca565b60405180910390fd5b6117a68261155f565b6117e5576040517f08c379a00000000000000000000000000000000000000000000000000000000081526004016117dc90614d36565b60405180910390fd5b3373ffffffffffffffffffffffffffffffffffffffff16601060009054906101000a900473ffffffffffffffffffffffffffffffffffffffff1673ffffffffffffffffffffffffffffffffffffffff16636352211e836040518263ffffffff1660e01b815260040161185791906128f3565b602060405180830381865afa158015611874573d6000803e3d6000fd5b505050506040513d601f19601f820116820180604052508101906118989190614d6b565b73ffffffffffffffffffffffffffffffffffffffff16146118ee576040517f08c379a00000000000000000000000000000000000000000000000000000000081526004016118e590614de4565b60405180910390fd5b60001515600f600083815260200190815260200160002060009054906101000a900460ff16151514611955576040517f08c379a000000000000000000000000000000000000000000000000000000000815260040161194c90614e50565b60405180910390fd5b6000611960336110e1565b116119a0576040517f08c379a000000000000000000000000000000000000000000000000000000000815260040161199790614ebc565b60405180910390fd5b60006119c3836000600381106119b9576119b8614a20565b5b602002015161226a565b6119e4846001600381106119da576119d9614a20565b5b602002015161226a565b611a05856002600381106119fb576119fa614a20565b5b602002015161226a565b604051602001611a1793929190614fc0565b604051602081830303815290604052905080600e60008681526020019081526020016000209081611a4891906151b4565b50601160009054906101000a900473ffffffffffffffffffffffffffffffffffffffff1673ffffffffffffffffffffffffffffffffffffffff166310b4b0386001600d54611a969190613203565b86843387426040518763ffffffff1660e01b8152600401611abc96959493929190615286565b600060405180830381600087803b158015611ad657600080fd5b505af1158015611aea573d6000803e3d6000fd5b50505050600d6000815480929190611b0190614696565b91905055506001600f600084815260200190815260200160002060006101000a81548160ff02191690831515021790555050505050565b6000600760008473ffffffffffffffffffffffffffffffffffffffff1673ffffffffffffffffffffffffffffffffffffffff16815260200190815260200160002060008373ffffffffffffffffffffffffffffffffffffffff1673ffffffffffffffffffffffffffffffffffffffff16815260200190815260200160002060009054906101000a900460ff16905092915050565b611bd4612126565b600073ffffffffffffffffffffffffffffffffffffffff168173ffffffffffffffffffffffffffffffffffffffff1603611c43576040517f08c379a0000000000000000000000000000000000000000000000000000000008152600401611c3a90615360565b60405180910390fd5b611c4c816121a4565b50565b60006301ffc9a760e01b827bffffffffffffffffffffffffffffffffffffffffffffffffffffffff19161480611caa57506380ac58cd60e01b827bffffffffffffffffffffffffffffffffffffffffffffffffffffffff1916145b80611cda5750635b5e139f60e01b827bffffffffffffffffffffffffffffffffffffffffffffffffffffffff1916145b9050919050565b60007f2a55205a000000000000000000000000000000000000000000000000000000007bffffffffffffffffffffffffffffffffffffffffffffffffffffffff1916827bffffffffffffffffffffffffffffffffffffffffffffffffffffffff19161480611d545750611d5382612780565b5b9050919050565b600081611d66611f7d565b11158015611d75575060005482105b8015611db3575060007c0100000000000000000000000000000000000000000000000000000000600460008581526020019081526020016000205416145b9050919050565b600033905090565b60008054905060008203611e02576040517fb562e8dd00000000000000000000000000000000000000000000000000000000815260040160405180910390fd5b611e0f60008483856120bd565b600160406001901b178202600560008573ffffffffffffffffffffffffffffffffffffffff1673ffffffffffffffffffffffffffffffffffffffff16815260200190815260200160002060008282540192505081905550611e8683611e7760008660006120c3565b611e80856127ea565b176120eb565b6004600083815260200190815260200160002081905550600080838301905073ffffffffffffffffffffffffffffffffffffffff85169150828260007fddf252ad1be2c89b69c2b068fc378daa952ba7f163c4a11628f55a4df523b3ef600080a4600183015b818114611f2757808360007fddf252ad1be2c89b69c2b068fc378daa952ba7f163c4a11628f55a4df523b3ef600080a4600181019050611eec565b5060008203611f62576040517f2e07630000000000000000000000000000000000000000000000000000000000815260040160405180910390fd5b806000819055505050611f786000848385612116565b505050565b60006001905090565b60008082905080611f95611f7d565b1161201b5760005481101561201a5760006004600083815260200190815260200160002054905060007c0100000000000000000000000000000000000000000000000000000000821603612018575b6000810361200e576004600083600190039350838152602001908152602001600020549050611fe4565b809250505061204d565b505b5b6040517fdf2d9b4200000000000000000000000000000000000000000000000000000000815260040160405180910390fd5b919050565b60008060006006600085815260200190815260200160002090508092508254915050915091565b600073ffffffffffffffffffffffffffffffffffffffff8316925073ffffffffffffffffffffffffffffffffffffffff821691508382148383141790509392505050565b50505050565b60008060e883901c905060e86120da8686846127fa565b62ffffff16901b9150509392505050565b600073ffffffffffffffffffffffffffffffffffffffff83169250814260a01b178317905092915050565b50505050565b6000612710905090565b61212e612803565b73ffffffffffffffffffffffffffffffffffffffff1661214c611216565b73ffffffffffffffffffffffffffffffffffffffff16146121a2576040517f08c379a0000000000000000000000000000000000000000000000000000000008152600401612199906153cc565b60405180910390fd5b565b6000600860009054906101000a900473ffffffffffffffffffffffffffffffffffffffff16905081600860006101000a81548173ffffffffffffffffffffffffffffffffffffffff021916908373ffffffffffffffffffffffffffffffffffffffff1602179055508173ffffffffffffffffffffffffffffffffffffffff168173ffffffffffffffffffffffffffffffffffffffff167f8be0079c531659141344cd1fd0a4f28419497f9722a3daafe3b4186f6b6457e060405160405180910390a35050565b606060a060405101806040526020810391506000825281835b6001156122a557600184039350600a81066030018453600a8104905080612283575b50828103602084039350808452505050919050565b6122c261211c565b6bffffffffffffffffffffffff16816bffffffffffffffffffffffff161115612320576040517f08c379a00000000000000000000000000000000000000000000000000000000081526004016123179061545e565b60405180910390fd5b600073ffffffffffffffffffffffffffffffffffffffff168273ffffffffffffffffffffffffffffffffffffffff160361238f576040517f08c379a0000000000000000000000000000000000000000000000000000000008152600401612386906154ca565b60405180910390fd5b60405180604001604052808373ffffffffffffffffffffffffffffffffffffffff168152602001826bffffffffffffffffffffffff16815250600960008201518160000160006101000a81548173ffffffffffffffffffffffffffffffffffffffff021916908373ffffffffffffffffffffffffffffffffffffffff16021790555060208201518160000160146101000a8154816bffffffffffffffffffffffff02191690836bffffffffffffffffffffffff1602179055509050505050565b600a8111156124bf576000600a8261246791906131d2565b90506000600a836124789190614665565b905060005b828110156124a35761249033600a611dc2565b808061249b90614696565b91505061247d565b5060008111156124b8576124b73382611dc2565b5b50506124ca565b6124c93382611dc2565b5b50565b60008373ffffffffffffffffffffffffffffffffffffffff1663150b7a026124f3611dba565b8786866040518563ffffffff1660e01b8152600401612515949392919061553f565b6020604051808303816000875af192505050801561255157506040513d601f19601f8201168201806040525081019061254e91906155a0565b60015b6125ca573d8060008114612581576040519150601f19603f3d011682016040523d82523d6000602084013e612586565b606091505b5060008151036125c2576040517fd1a57ed600000000000000000000000000000000000000000000000000000000815260040160405180910390fd5b805181602001fd5b63150b7a0260e01b7bffffffffffffffffffffffffffffffffffffffffffffffffffffffff1916817bffffffffffffffffffffffffffffffffffffffffffffffffffffffff191614915050949350505050565b6060600082510361263f5760405180602001604052806000815250905061277b565b60006040518060600160405280604081526020016155ce604091399050600060036002855161266e9190613203565b61267891906131d2565b60046126849190613161565b67ffffffffffffffff81111561269d5761269c612ba7565b5b6040519080825280601f01601f1916602001820160405280156126cf5781602001600182028036833780820191505090505b509050600182016020820185865187015b8082101561273b576003820191508151603f8160121c168501518453600184019350603f81600c1c168501518453600184019350603f8160061c168501518453600184019350603f81168501518453600184019350506126e0565b5050600386510660018114612757576002811461276a57612772565b603d6001830353603d6002830353612772565b603d60018303535b50505080925050505b919050565b60007f01ffc9a7000000000000000000000000000000000000000000000000000000007bffffffffffffffffffffffffffffffffffffffffffffffffffffffff1916827bffffffffffffffffffffffffffffffffffffffffffffffffffffffff1916149050919050565b60006001821460e11b9050919050565b60009392505050565b600033905090565b6000604051905090565b600080fd5b600080fd5b60007fffffffff0000000000000000000000000000000000000000000000000000000082169050919050565b6128548161281f565b811461285f57600080fd5b50565b6000813590506128718161284b565b92915050565b60006020828403121561288d5761288c612815565b5b600061289b84828501612862565b91505092915050565b60008115159050919050565b6128b9816128a4565b82525050565b60006020820190506128d460008301846128b0565b92915050565b6000819050919050565b6128ed816128da565b82525050565b600060208201905061290860008301846128e4565b92915050565b600081519050919050565b600082825260208201905092915050565b60005b8381101561294857808201518184015260208101905061292d565b60008484015250505050565b6000601f19601f8301169050919050565b60006129708261290e565b61297a8185612919565b935061298a81856020860161292a565b61299381612954565b840191505092915050565b600060208201905081810360008301526129b88184612965565b905092915050565b6129c9816128da565b81146129d457600080fd5b50565b6000813590506129e6816129c0565b92915050565b600060208284031215612a0257612a01612815565b5b6000612a10848285016129d7565b91505092915050565b600073ffffffffffffffffffffffffffffffffffffffff82169050919050565b6000612a4482612a19565b9050919050565b612a5481612a39565b82525050565b6000602082019050612a6f6000830184612a4b565b92915050565b612a7e81612a39565b8114612a8957600080fd5b50565b600081359050612a9b81612a75565b92915050565b60008060408385031215612ab857612ab7612815565b5b6000612ac685828601612a8c565b9250506020612ad7858286016129d7565b9150509250929050565b600080600060608486031215612afa57612af9612815565b5b6000612b0886828701612a8c565b9350506020612b1986828701612a8c565b9250506040612b2a868287016129d7565b9150509250925092565b60008060408385031215612b4b57612b4a612815565b5b6000612b59858286016129d7565b9250506020612b6a858286016129d7565b9150509250929050565b6000604082019050612b896000830185612a4b565b612b9660208301846128e4565b9392505050565b600080fd5b600080fd5b7f4e487b7100000000000000000000000000000000000000000000000000000000600052604160045260246000fd5b612bdf82612954565b810181811067ffffffffffffffff82111715612bfe57612bfd612ba7565b5b80604052505050565b6000612c1161280b565b9050612c1d8282612bd6565b919050565b600067ffffffffffffffff821115612c3d57612c3c612ba7565b5b612c4682612954565b9050602081019050919050565b82818337600083830152505050565b6000612c75612c7084612c22565b612c07565b905082815260208101848484011115612c9157612c90612ba2565b5b612c9c848285612c53565b509392505050565b600082601f830112612cb957612cb8612b9d565b5b8135612cc9848260208601612c62565b91505092915050565b600060208284031215612ce857612ce7612815565b5b600082013567ffffffffffffffff811115612d0657612d0561281a565b5b612d1284828501612ca4565b91505092915050565b600060208284031215612d3157612d30612815565b5b6000612d3f84828501612a8c565b91505092915050565b60006bffffffffffffffffffffffff82169050919050565b612d6981612d48565b8114612d7457600080fd5b50565b600081359050612d8681612d60565b92915050565b60008060408385031215612da357612da2612815565b5b6000612db185828601612a8c565b9250506020612dc285828601612d77565b9150509250929050565b612dd5816128a4565b8114612de057600080fd5b50565b600081359050612df281612dcc565b92915050565b60008060408385031215612e0f57612e0e612815565b5b6000612e1d85828601612a8c565b9250506020612e2e85828601612de3565b9150509250929050565b600067ffffffffffffffff821115612e5357612e52612ba7565b5b602082029050919050565b600080fd5b6000612e76612e7184612e38565b612c07565b90508060208402830185811115612e9057612e8f612e5e565b5b835b81811015612eb95780612ea588826129d7565b845260208401935050602081019050612e92565b5050509392505050565b600082601f830112612ed857612ed7612b9d565b5b6003612ee5848285612e63565b91505092915050565b600060608284031215612f0457612f03612815565b5b6000612f1284828501612ec3565b91505092915050565b600067ffffffffffffffff821115612f3657612f35612ba7565b5b612f3f82612954565b9050602081019050919050565b6000612f5f612f5a84612f1b565b612c07565b905082815260208101848484011115612f7b57612f7a612ba2565b5b612f86848285612c53565b509392505050565b600082601f830112612fa357612fa2612b9d565b5b8135612fb3848260208601612f4c565b91505092915050565b60008060008060808587031215612fd657612fd5612815565b5b6000612fe487828801612a8c565b9450506020612ff587828801612a8c565b9350506040613006878288016129d7565b925050606085013567ffffffffffffffff8111156130275761302661281a565b5b61303387828801612f8e565b91505092959194509250565b600080600060a0848603121561305857613057612815565b5b6000613066868287016129d7565b935050602061307786828701612ec3565b9250506080613088868287016129d7565b9150509250925092565b600080604083850312156130a9576130a8612815565b5b60006130b785828601612a8c565b92505060206130c885828601612a8c565b9150509250929050565b7f4e487b7100000000000000000000000000000000000000000000000000000000600052602260045260246000fd5b6000600282049050600182168061311957607f821691505b60208210810361312c5761312b6130d2565b5b50919050565b7f4e487b7100000000000000000000000000000000000000000000000000000000600052601160045260246000fd5b600061316c826128da565b9150613177836128da565b9250828202613185816128da565b9150828204841483151761319c5761319b613132565b5b5092915050565b7f4e487b7100000000000000000000000000000000000000000000000000000000600052601260045260246000fd5b60006131dd826128da565b91506131e8836128da565b9250826131f8576131f76131a3565b5b828204905092915050565b600061320e826128da565b9150613219836128da565b925082820190508082111561323157613230613132565b5b92915050565b600081905092915050565b7f3c7376672077696474683d2238343022206865696768743d223834302220766960008201527f6577426f783d22302030203134203134222066696c6c3d226e6f6e652220786d60208201527f6c6e733d22687474703a2f2f7777772e77332e6f72672f323030302f7376672260408201527f3e3c726563742077696474683d22313422206865696768743d2231342220666960608201527f6c6c3d2223304330433043222f3e3c6720636c6173733d2274696c6573223e3c60808201527f726563742069643d2270312220783d22332220793d2233222066696c6c3d222360a08201527f666666222f3e3c726563742069643d2270322220783d22342220793d2233222060c08201527f66696c6c3d2223666666222f3e3c726563742069643d2270332220783d22352260e08201527f20793d2233222066696c6c3d2223666666222f3e3c726563742069643d2270346101008201527f2220783d22362220793d2233222066696c6c3d2223666666222f3e3c726563746101208201527f2069643d2270352220783d22372220793d2233222066696c6c3d2223666666226101408201527f2f3e3c726563742069643d2270362220783d22382220793d2233222066696c6c6101608201527f3d2223666666222f3e3c726563742069643d2270372220783d22392220793d226101808201527f33222066696c6c3d2223666666222f3e3c726563742069643d2270382220783d6101a08201527f2231302220793d2233222066696c6c3d2223666666222f3e3c726563742069646101c08201527f3d2270392220783d22332220793d2234222066696c6c3d2223666666222f3e3c6101e08201527f726563742069643d227031302220783d22342220793d2234222066696c6c3d226102008201527f23666666222f3e3c726563742069643d227031312220783d22352220793d22346102208201527f222066696c6c3d2223666666222f3e3c726563742069643d227031322220783d6102408201527f22362220793d2234222066696c6c3d2223666666222f3e3c726563742069643d6102608201527f227031332220783d22372220793d2234222066696c6c3d2223666666222f3e3c6102808201527f726563742069643d227031342220783d22382220793d2234222066696c6c3d226102a08201527f23666666222f3e3c726563742069643d227031352220783d22392220793d22346102c08201527f222066696c6c3d2223666666222f3e3c726563742069643d227031362220783d6102e08201527f2231302220793d2234222066696c6c3d2223666666222f3e3c726563742069646103008201527f3d227031372220783d22332220793d2235222066696c6c3d2223666666222f3e6103208201527f3c726563742069643d227031382220783d22342220793d2235222066696c6c3d6103408201527f2223666666222f3e3c726563742069643d227031392220783d22352220793d226103608201527f35222066696c6c3d2223666666222f3e3c726563742069643d227032302220786103808201527f3d22362220793d2235222066696c6c3d2223666666222f3e3c726563742069646103a08201527f3d227032312220783d22372220793d2235222066696c6c3d2223666666222f3e6103c08201527f3c726563742069643d227032322220783d22382220793d2235222066696c6c3d6103e08201527f2223666666222f3e3c726563742069643d227032332220783d22392220793d226104008201527f35222066696c6c3d2223666666222f3e3c726563742069643d227032342220786104208201527f3d2231302220793d2235222066696c6c3d2223666666222f3e3c7265637420696104408201527f643d227032352220783d22332220793d2236222066696c6c3d2223666666222f6104608201527f3e3c726563742069643d227032362220783d22342220793d2236222066696c6c6104808201527f3d2223666666222f3e3c726563742069643d227032372220783d22352220793d6104a08201527f2236222066696c6c3d2223666666222f3e3c726563742069643d2270323822206104c08201527f783d22362220793d2236222066696c6c3d2223666666222f3e3c7265637420696104e08201527f643d227032392220783d22372220793d2236222066696c6c3d2223666666222f6105008201527f3e3c726563742069643d227033302220783d22382220793d2236222066696c6c6105208201527f3d2223666666222f3e3c726563742069643d227033312220783d22392220793d6105408201527f2236222066696c6c3d2223666666222f3e3c726563742069643d2270333222206105608201527f783d2231302220793d2236222066696c6c3d2223666666222f3e3c72656374206105808201527f69643d227033332220783d22332220793d2237222066696c6c3d2223666666226105a08201527f2f3e3c726563742069643d227033342220783d22342220793d2237222066696c6105c08201527f6c3d2223666666222f3e3c726563742069643d227033352220783d22352220796105e08201527f3d2237222066696c6c3d2223666666222f3e3c726563742069643d22703336226106008201527f20783d22362220793d2237222066696c6c3d2223666666222f3e3c72656374206106208201527f69643d227033372220783d22372220793d2237222066696c6c3d2223666666226106408201527f2f3e3c726563742069643d227033382220783d22382220793d2237222066696c6106608201527f6c3d2223666666222f3e3c726563742069643d227033392220783d22392220796106808201527f3d2237222066696c6c3d2223666666222f3e3c726563742069643d22703430226106a08201527f20783d2231302220793d2237222066696c6c3d2223666666222f3e3c726563746106c08201527f2069643d227034312220783d22332220793d2238222066696c6c3d22236666666106e08201527f222f3e3c726563742069643d227034322220783d22342220793d2238222066696107008201527f6c6c3d2223666666222f3e3c726563742069643d227034332220783d223522206107208201527f793d2238222066696c6c3d2223666666222f3e3c726563742069643d227034346107408201527f2220783d22362220793d2238222066696c6c3d2223666666222f3e3c726563746107608201527f2069643d227034352220783d22372220793d2238222066696c6c3d22236666666107808201527f222f3e3c726563742069643d227034362220783d22382220793d2238222066696107a08201527f6c6c3d2223666666222f3e3c726563742069643d227034372220783d223922206107c08201527f793d2238222066696c6c3d2223666666222f3e3c726563742069643d227034386107e08201527f2220783d2231302220793d2238222066696c6c3d2223666666222f3e3c7265636108008201527f742069643d227034392220783d22332220793d2239222066696c6c3d222366666108208201527f66222f3e3c726563742069643d227035302220783d22342220793d22392220666108408201527f696c6c3d2223666666222f3e3c726563742069643d227035312220783d2235226108608201527f20793d2239222066696c6c3d2223666666222f3e3c726563742069643d2270356108808201527f322220783d22362220793d2239222066696c6c3d2223666666222f3e3c7265636108a08201527f742069643d227035332220783d22372220793d2239222066696c6c3d222366666108c08201527f66222f3e3c726563742069643d227035342220783d22382220793d22392220666108e08201527f696c6c3d2223666666222f3e3c726563742069643d227035352220783d2239226109008201527f20793d2239222066696c6c3d2223666666222f3e3c726563742069643d2270356109208201527f362220783d2231302220793d2239222066696c6c3d2223666666222f3e3c72656109408201527f63742069643d227035372220783d22332220793d223130222066696c6c3d22236109608201527f666666222f3e3c726563742069643d227035382220783d22342220793d2231306109808201527f222066696c6c3d2223666666222f3e3c726563742069643d227035392220783d6109a08201527f22352220793d223130222066696c6c3d2223666666222f3e3c726563742069646109c08201527f3d227036302220783d22362220793d223130222066696c6c3d2223666666222f6109e08201527f3e3c726563742069643d227036312220783d22372220793d223130222066696c610a008201527f6c3d2223666666222f3e3c726563742069643d227036322220783d2238222079610a208201527f3d223130222066696c6c3d2223666666222f3e3c726563742069643d22703633610a408201527f2220783d22392220793d223130222066696c6c3d2223666666222f3e3c726563610a608201527f742069643d227036342220783d2231302220793d223130222066696c6c3d2223610a808201527f666666222f3e3c2f673e3c6720636c6173733d2267726964223e3c6c696e6520610aa08201527f78313d22312e303035222079313d222d322e3138353537652d3130222078323d610ac08201527f22312e303035222079323d223134222f3e3c6c696e652078313d22322e303035610ae08201527f222079313d222d322e3138353537652d3130222078323d22322e303035222079610b008201527f323d223134222f3e3c6c696e652078313d22332e303035222079313d222d322e610b208201527f3138353537652d3130222078323d22332e303035222079323d223134222f3e3c610b408201527f6c696e652078313d22342e303035222079313d222d322e3138353537652d3130610b608201527f222078323d22342e303035222079323d223134222f3e3c6c696e652078313d22610b808201527f352e303035222079313d222d322e3138353537652d3130222078323d22352e30610ba08201527f3035222079323d223134222f3e3c6c696e652078313d22362e30303522207931610bc08201527f3d222d322e3138353537652d3130222078323d22362e303035222079323d2231610be08201527f34222f3e3c6c696e652078313d22372e303035222079313d222d322e31383535610c008201527f37652d3130222078323d22372e303035222079323d223134222f3e3c6c696e65610c208201527f2078313d22382e303035222079313d222d322e3138353537652d313022207832610c408201527f3d22382e303035222079323d223134222f3e3c6c696e652078313d22392e3030610c608201527f35222079313d222d322e3138353537652d3130222078323d22392e3030352220610c808201527f79323d223134222f3e3c6c696e652078313d2231302e303035222079313d222d610ca08201527f322e3138353537652d3130222078323d2231302e303035222079323d22313422610cc08201527f2f3e3c6c696e652078313d2231312e303035222079313d222d322e3138353537610ce08201527f652d3130222078323d2231312e303035222079323d223134222f3e3c6c696e65610d008201527f2078313d2231322e303035222079313d222d322e3138353537652d3130222078610d208201527f323d2231322e303035222079323d223134222f3e3c6c696e652078313d223133610d408201527f2e303035222079313d222d322e3138353537652d3130222078323d2231332e30610d608201527f3035222079323d223134222f3e3c6c696e652078313d223134222079313d2231610d808201527f2e303035222079323d22312e303035222f3e3c6c696e652078313d2231342220610da08201527f79313d22322e303035222079323d22322e303035222f3e3c6c696e652078313d610dc08201527f223134222079313d22332e303035222079323d22332e303035222f3e3c6c696e610de08201527f652078313d223134222079313d22342e303035222079323d22342e303035222f610e008201527f3e3c6c696e652078313d223134222079313d22352e303035222079323d22352e610e208201527f303035222f3e3c6c696e652078313d223134222079313d22362e303035222079610e408201527f323d22362e303035222f3e3c6c696e652078313d223134222079313d22372e30610e608201527f3035222079323d22372e303035222f3e3c6c696e652078313d22313422207931610e808201527f3d22382e303035222079323d22382e303035222f3e3c6c696e652078313d2231610ea08201527f34222079313d22392e303035222079323d22392e303035222f3e3c6c696e6520610ec08201527f78313d223134222079313d2231302e303035222079323d2231302e303035222f610ee08201527f3e3c6c696e652078313d223134222079313d2231312e303035222079323d2231610f008201527f312e303035222f3e3c6c696e652078313d223134222079313d2231322e303035610f208201527f222079323d2231322e303035222f3e3c6c696e652078313d223134222079313d610f408201527f2231332e303035222079323d2231332e303035222f3e3c2f673e3c7374796c65610f608201527f3e2e74696c657320726563747b77696474683a3170783b6865696768743a3170610f808201527f783b7d2e677269647b7374726f6b653a233232323b7374726f6b652d77696474610fa08201527f683a2e30313b7d00000000000000000000000000000000000000000000000000610fc082015250565b60006145a4610fc783613237565b91506145af82613242565b610fc782019050919050565b60006145c68261290e565b6145d08185613237565b93506145e081856020860161292a565b80840191505092915050565b7f3c2f7374796c653e3c2f7376673e000000000000000000000000000000000000600082015250565b6000614622600e83613237565b915061462d826145ec565b600e82019050919050565b600061464382614596565b915061464f82846145bb565b915061465a82614615565b915081905092915050565b6000614670826128da565b915061467b836128da565b92508261468b5761468a6131a3565b5b828206905092915050565b60006146a1826128da565b91507fffffffffffffffffffffffffffffffffffffffffffffffffffffffffffffffff82036146d3576146d2613132565b5b600182019050919050565b7f2370000000000000000000000000000000000000000000000000000000000000600082015250565b6000614714600283613237565b915061471f826146de565b600282019050919050565b7f7b66696c6c3a0000000000000000000000000000000000000000000000000000600082015250565b6000614760600683613237565b915061476b8261472a565b600682019050919050565b60008190508160005260206000209050919050565b6000815461479881613101565b6147a28186613237565b945060018216600081146147bd57600181146147d257614805565b60ff1983168652811515820286019350614805565b6147db85614776565b60005b838110156147fd578154818901526001820191506020810190506147de565b838801955050505b50505092915050565b7f7d00000000000000000000000000000000000000000000000000000000000000600082015250565b6000614844600183613237565b915061484f8261480e565b600182019050919050565b600061486682866145bb565b915061487182614707565b915061487d82856145bb565b915061488882614753565b9150614894828461478b565b915061489f82614837565b9150819050949350505050565b6000815190506148bb816129c0565b92915050565b6000602082840312156148d7576148d6612815565b5b60006148e5848285016148ac565b91505092915050565b7f4d757374206f776e2055494e545320647572696e672070726976617465206d6960008201527f6e74207068617365000000000000000000000000000000000000000000000000602082015250565b600061494a602883612919565b9150614955826148ee565b604082019050919050565b600060208201905081810360008301526149798161493d565b9050919050565b600061498b826128da565b9150614996836128da565b92508282039050818111156149ae576149ad613132565b5b92915050565b7f4d696e742068617320636c6f7365640000000000000000000000000000000000600082015250565b60006149ea600f83612919565b91506149f5826149b4565b602082019050919050565b60006020820190508181036000830152614a19816149dd565b9050919050565b7f4e487b7100000000000000000000000000000000000000000000000000000000600052603260045260246000fd5b7f7b226e616d65223a202255494e54532045646974696f6e200000000000000000600082015250565b6000614a85601883613237565b9150614a9082614a4f565b601882019050919050565b7f222c20226465736372697074696f6e223a202255494e54532045646974696f6e60008201527f2067697665732055494e545320686f6c646572732074686520706f776572207460208201527f6f206d616b65207570646174657320746f206f6e2d636861696e20617274776f60408201527f726b2e222c2022696d616765223a2022646174613a696d6167652f7376672b7860608201527f6d6c3b6261736536342c00000000000000000000000000000000000000000000608082015250565b6000614b69608a83613237565b9150614b7482614a9b565b608a82019050919050565b7f227d000000000000000000000000000000000000000000000000000000000000600082015250565b6000614bb5600283613237565b9150614bc082614b7f565b600282019050919050565b6000614bd682614a78565b9150614be282856145bb565b9150614bed82614b5c565b9150614bf982846145bb565b9150614c0482614ba8565b91508190509392505050565b7f646174613a6170706c69636174696f6e2f6a736f6e3b6261736536342c000000600082015250565b6000614c46601d83613237565b9150614c5182614c10565b601d82019050919050565b6000614c6782614c39565b9150614c7382846145bb565b915081905092915050565b7f496e76616c696420706f736974696f6e00000000000000000000000000000000600082015250565b6000614cb4601083612919565b9150614cbf82614c7e565b602082019050919050565b60006020820190508181036000830152614ce381614ca7565b9050919050565b7f496e76616c696420636f6c6f7200000000000000000000000000000000000000600082015250565b6000614d20600d83612919565b9150614d2b82614cea565b602082019050919050565b60006020820190508181036000830152614d4f81614d13565b9050919050565b600081519050614d6581612a75565b92915050565b600060208284031215614d8157614d80612815565b5b6000614d8f84828501614d56565b91505092915050565b7f55494e5453206e6f74206f776e65640000000000000000000000000000000000600082015250565b6000614dce600f83612919565b9150614dd982614d98565b602082019050919050565b60006020820190508181036000830152614dfd81614dc1565b9050919050565b7f55494e545320616c726561647920757365640000000000000000000000000000600082015250565b6000614e3a601283612919565b9150614e4582614e04565b602082019050919050565b60006020820190508181036000830152614e6981614e2d565b9050919050565b7f4d757374206f776e206174206c656173742031204f70656e2045646974696f6e600082015250565b6000614ea6602083612919565b9150614eb182614e70565b602082019050919050565b60006020820190508181036000830152614ed581614e99565b9050919050565b7f7267622800000000000000000000000000000000000000000000000000000000600082015250565b6000614f12600483613237565b9150614f1d82614edc565b600482019050919050565b7f2c00000000000000000000000000000000000000000000000000000000000000600082015250565b6000614f5e600183613237565b9150614f6982614f28565b600182019050919050565b7f2900000000000000000000000000000000000000000000000000000000000000600082015250565b6000614faa600183613237565b9150614fb582614f74565b600182019050919050565b6000614fcb82614f05565b9150614fd782866145bb565b9150614fe282614f51565b9150614fee82856145bb565b9150614ff982614f51565b915061500582846145bb565b915061501082614f9d565b9150819050949350505050565b60006020601f8301049050919050565b600082821b905092915050565b60006008830261506a7fffffffffffffffffffffffffffffffffffffffffffffffffffffffffffffffff8261502d565b615074868361502d565b95508019841693508086168417925050509392505050565b6000819050919050565b60006150b16150ac6150a7846128da565b61508c565b6128da565b9050919050565b6000819050919050565b6150cb83615096565b6150df6150d7826150b8565b84845461503a565b825550505050565b600090565b6150f46150e7565b6150ff8184846150c2565b505050565b5b81811015615123576151186000826150ec565b600181019050615105565b5050565b601f8211156151685761513981614776565b6151428461501d565b81016020851015615151578190505b61516561515d8561501d565b830182615104565b50505b505050565b600082821c905092915050565b600061518b6000198460080261516d565b1980831691505092915050565b60006151a4838361517a565b9150826002028217905092915050565b6151bd8261290e565b67ffffffffffffffff8111156151d6576151d5612ba7565b5b6151e08254613101565b6151eb828285615127565b600060209050601f83116001811461521e576000841561520c578287015190505b6152168582615198565b86555061527e565b601f19841661522c86614776565b60005b828110156152545784890151825560018201915060208501945060208101905061522f565b86831015615271578489015161526d601f89168261517a565b8355505b6001600288020188555050505b505050505050565b600060c08201905061529b60008301896128e4565b6152a860208301886128e4565b81810360408301526152ba8187612965565b90506152c96060830186612a4b565b6152d660808301856128e4565b6152e360a08301846128e4565b979650505050505050565b7f4f776e61626c653a206e6577206f776e657220697320746865207a65726f206160008201527f6464726573730000000000000000000000000000000000000000000000000000602082015250565b600061534a602683612919565b9150615355826152ee565b604082019050919050565b600060208201905081810360008301526153798161533d565b9050919050565b7f4f776e61626c653a2063616c6c6572206973206e6f7420746865206f776e6572600082015250565b60006153b6602083612919565b91506153c182615380565b602082019050919050565b600060208201905081810360008301526153e5816153a9565b9050919050565b7f455243323938313a20726f79616c7479206665652077696c6c2065786365656460008201527f2073616c65507269636500000000000000000000000000000000000000000000602082015250565b6000615448602a83612919565b9150615453826153ec565b604082019050919050565b600060208201905081810360008301526154778161543b565b9050919050565b7f455243323938313a20696e76616c696420726563656976657200000000000000600082015250565b60006154b4601983612919565b91506154bf8261547e565b602082019050919050565b600060208201905081810360008301526154e3816154a7565b9050919050565b600081519050919050565b600082825260208201905092915050565b6000615511826154ea565b61551b81856154f5565b935061552b81856020860161292a565b61553481612954565b840191505092915050565b60006080820190506155546000830187612a4b565b6155616020830186612a4b565b61556e60408301856128e4565b81810360608301526155808184615506565b905095945050505050565b60008151905061559a8161284b565b92915050565b6000602082840312156155b6576155b5612815565b5b60006155c48482850161558b565b9150509291505056fe4142434445464748494a4b4c4d4e4f505152535455565758595a6162636465666768696a6b6c6d6e6f707172737475767778797a303132333435363738392b2fa2646970667358221220f05cd6a011212743d44ab9fed90eddad1a456741a4ad976bd191dbcbbec4beb764736f6c63430008120033",
			"opcodes": "PUSH1 0x80 PUSH1 0x40 MSTORE PUSH20 0xAD16D876D13607499DE5BAFCBDAC9D16D2ACC09D PUSH1 0x10 PUSH1 0x0 PUSH2 0x100 EXP DUP2 SLOAD DUP2 PUSH20 0xFFFFFFFFFFFFFFFFFFFFFFFFFFFFFFFFFFFFFFFF MUL NOT AND SWAP1 DUP4 PUSH20 0xFFFFFFFFFFFFFFFFFFFFFFFFFFFFFFFFFFFFFFFF AND MUL OR SWAP1 SSTORE POP PUSH20 0xE139A55D9415A9147F4A17CB04EE1AB28633A794 PUSH1 0x11 PUSH1 0x0 PUSH2 0x100 EXP DUP2 SLOAD DUP2 PUSH20 0xFFFFFFFFFFFFFFFFFFFFFFFFFFFFFFFFFFFFFFFF MUL NOT AND SWAP1 DUP4 PUSH20 0xFFFFFFFFFFFFFFFFFFFFFFFFFFFFFFFFFFFFFFFF AND MUL OR SWAP1 SSTORE POP CALLVALUE DUP1 ISZERO PUSH3 0xBB JUMPI PUSH1 0x0 DUP1 REVERT JUMPDEST POP PUSH1 0x40 MLOAD DUP1 PUSH1 0x40 ADD PUSH1 0x40 MSTORE DUP1 PUSH1 0xD DUP2 MSTORE PUSH1 0x20 ADD PUSH32 0x55494E54532045646974696F6E00000000000000000000000000000000000000 DUP2 MSTORE POP PUSH1 0x40 MLOAD DUP1 PUSH1 0x40 ADD PUSH1 0x40 MSTORE DUP1 PUSH1 0x7 DUP2 MSTORE PUSH1 0x20 ADD PUSH32 0x55494E5453454400000000000000000000000000000000000000000000000000 DUP2 MSTORE POP DUP2 PUSH1 0x2 SWAP1 DUP2 PUSH3 0x139 SWAP2 SWAP1 PUSH3 0x4DB JUMP JUMPDEST POP DUP1 PUSH1 0x3 SWAP1 DUP2 PUSH3 0x14B SWAP2 SWAP1 PUSH3 0x4DB JUMP JUMPDEST POP PUSH3 0x15C PUSH3 0x18A PUSH1 0x20 SHL PUSH1 0x20 SHR JUMP JUMPDEST PUSH1 0x0 DUP2 SWAP1 SSTORE POP POP POP PUSH3 0x184 PUSH3 0x178 PUSH3 0x193 PUSH1 0x20 SHL PUSH1 0x20 SHR JUMP JUMPDEST PUSH3 0x19B PUSH1 0x20 SHL PUSH1 0x20 SHR JUMP JUMPDEST PUSH3 0x5C2 JUMP JUMPDEST PUSH1 0x0 PUSH1 0x1 SWAP1 POP SWAP1 JUMP JUMPDEST PUSH1 0x0 CALLER SWAP1 POP SWAP1 JUMP JUMPDEST PUSH1 0x0 PUSH1 0x8 PUSH1 0x0 SWAP1 SLOAD SWAP1 PUSH2 0x100 EXP SWAP1 DIV PUSH20 0xFFFFFFFFFFFFFFFFFFFFFFFFFFFFFFFFFFFFFFFF AND SWAP1 POP DUP2 PUSH1 0x8 PUSH1 0x0 PUSH2 0x100 EXP DUP2 SLOAD DUP2 PUSH20 0xFFFFFFFFFFFFFFFFFFFFFFFFFFFFFFFFFFFFFFFF MUL NOT AND SWAP1 DUP4 PUSH20 0xFFFFFFFFFFFFFFFFFFFFFFFFFFFFFFFFFFFFFFFF AND MUL OR SWAP1 SSTORE POP DUP2 PUSH20 0xFFFFFFFFFFFFFFFFFFFFFFFFFFFFFFFFFFFFFFFF AND DUP2 PUSH20 0xFFFFFFFFFFFFFFFFFFFFFFFFFFFFFFFFFFFFFFFF AND PUSH32 0x8BE0079C531659141344CD1FD0A4F28419497F9722A3DAAFE3B4186F6B6457E0 PUSH1 0x40 MLOAD PUSH1 0x40 MLOAD DUP1 SWAP2 SUB SWAP1 LOG3 POP POP JUMP JUMPDEST PUSH1 0x0 DUP2 MLOAD SWAP1 POP SWAP2 SWAP1 POP JUMP JUMPDEST PUSH32 0x4E487B7100000000000000000000000000000000000000000000000000000000 PUSH1 0x0 MSTORE PUSH1 0x41 PUSH1 0x4 MSTORE PUSH1 0x24 PUSH1 0x0 REVERT JUMPDEST PUSH32 0x4E487B7100000000000000000000000000000000000000000000000000000000 PUSH1 0x0 MSTORE PUSH1 0x22 PUSH1 0x4 MSTORE PUSH1 0x24 PUSH1 0x0 REVERT JUMPDEST PUSH1 0x0 PUSH1 0x2 DUP3 DIV SWAP1 POP PUSH1 0x1 DUP3 AND DUP1 PUSH3 0x2E3 JUMPI PUSH1 0x7F DUP3 AND SWAP2 POP JUMPDEST PUSH1 0x20 DUP3 LT DUP2 SUB PUSH3 0x2F9 JUMPI PUSH3 0x2F8 PUSH3 0x29B JUMP JUMPDEST JUMPDEST POP SWAP2 SWAP1 POP JUMP JUMPDEST PUSH1 0x0 DUP2 SWAP1 POP DUP2 PUSH1 0x0 MSTORE PUSH1 0x20 PUSH1 0x0 KECCAK256 SWAP1 POP SWAP2 SWAP1 POP JUMP JUMPDEST PUSH1 0x0 PUSH1 0x20 PUSH1 0x1F DUP4 ADD DIV SWAP1 POP SWAP2 SWAP1 POP JUMP JUMPDEST PUSH1 0x0 DUP3 DUP3 SHL SWAP1 POP SWAP3 SWAP2 POP POP JUMP JUMPDEST PUSH1 0x0 PUSH1 0x8 DUP4 MUL PUSH3 0x363 PUSH32 0xFFFFFFFFFFFFFFFFFFFFFFFFFFFFFFFFFFFFFFFFFFFFFFFFFFFFFFFFFFFFFFFF DUP3 PUSH3 0x324 JUMP JUMPDEST PUSH3 0x36F DUP7 DUP4 PUSH3 0x324 JUMP JUMPDEST SWAP6 POP DUP1 NOT DUP5 AND SWAP4 POP DUP1 DUP7 AND DUP5 OR SWAP3 POP POP POP SWAP4 SWAP3 POP POP POP JUMP JUMPDEST PUSH1 0x0 DUP2 SWAP1 POP SWAP2 SWAP1 POP JUMP JUMPDEST PUSH1 0x0 DUP2 SWAP1 POP SWAP2 SWAP1 POP JUMP JUMPDEST PUSH1 0x0 PUSH3 0x3BC PUSH3 0x3B6 PUSH3 0x3B0 DUP5 PUSH3 0x387 JUMP JUMPDEST PUSH3 0x391 JUMP JUMPDEST PUSH3 0x387 JUMP JUMPDEST SWAP1 POP SWAP2 SWAP1 POP JUMP JUMPDEST PUSH1 0x0 DUP2 SWAP1 POP SWAP2 SWAP1 POP JUMP JUMPDEST PUSH3 0x3D8 DUP4 PUSH3 0x39B JUMP JUMPDEST PUSH3 0x3F0 PUSH3 0x3E7 DUP3 PUSH3 0x3C3 JUMP JUMPDEST DUP5 DUP5 SLOAD PUSH3 0x331 JUMP JUMPDEST DUP3 SSTORE POP POP POP POP JUMP JUMPDEST PUSH1 0x0 SWAP1 JUMP JUMPDEST PUSH3 0x407 PUSH3 0x3F8 JUMP JUMPDEST PUSH3 0x414 DUP2 DUP5 DUP5 PUSH3 0x3CD JUMP JUMPDEST POP POP POP JUMP JUMPDEST JUMPDEST DUP2 DUP2 LT ISZERO PUSH3 0x43C JUMPI PUSH3 0x430 PUSH1 0x0 DUP3 PUSH3 0x3FD JUMP JUMPDEST PUSH1 0x1 DUP2 ADD SWAP1 POP PUSH3 0x41A JUMP JUMPDEST POP POP JUMP JUMPDEST PUSH1 0x1F DUP3 GT ISZERO PUSH3 0x48B JUMPI PUSH3 0x455 DUP2 PUSH3 0x2FF JUMP JUMPDEST PUSH3 0x460 DUP5 PUSH3 0x314 JUMP JUMPDEST DUP2 ADD PUSH1 0x20 DUP6 LT ISZERO PUSH3 0x470 JUMPI DUP2 SWAP1 POP JUMPDEST PUSH3 0x488 PUSH3 0x47F DUP6 PUSH3 0x314 JUMP JUMPDEST DUP4 ADD DUP3 PUSH3 0x419 JUMP JUMPDEST POP POP JUMPDEST POP POP POP JUMP JUMPDEST PUSH1 0x0 DUP3 DUP3 SHR SWAP1 POP SWAP3 SWAP2 POP POP JUMP JUMPDEST PUSH1 0x0 PUSH3 0x4B0 PUSH1 0x0 NOT DUP5 PUSH1 0x8 MUL PUSH3 0x490 JUMP JUMPDEST NOT DUP1 DUP4 AND SWAP2 POP POP SWAP3 SWAP2 POP POP JUMP JUMPDEST PUSH1 0x0 PUSH3 0x4CB DUP4 DUP4 PUSH3 0x49D JUMP JUMPDEST SWAP2 POP DUP3 PUSH1 0x2 MUL DUP3 OR SWAP1 POP SWAP3 SWAP2 POP POP JUMP JUMPDEST PUSH3 0x4E6 DUP3 PUSH3 0x261 JUMP JUMPDEST PUSH8 0xFFFFFFFFFFFFFFFF DUP2 GT ISZERO PUSH3 0x502 JUMPI PUSH3 0x501 PUSH3 0x26C JUMP JUMPDEST JUMPDEST PUSH3 0x50E DUP3 SLOAD PUSH3 0x2CA JUMP JUMPDEST PUSH3 0x51B DUP3 DUP3 DUP6 PUSH3 0x440 JUMP JUMPDEST PUSH1 0x0 PUSH1 0x20 SWAP1 POP PUSH1 0x1F DUP4 GT PUSH1 0x1 DUP2 EQ PUSH3 0x553 JUMPI PUSH1 0x0 DUP5 ISZERO PUSH3 0x53E JUMPI DUP3 DUP8 ADD MLOAD SWAP1 POP JUMPDEST PUSH3 0x54A DUP6 DUP3 PUSH3 0x4BD JUMP JUMPDEST DUP7 SSTORE POP PUSH3 0x5BA JUMP JUMPDEST PUSH1 0x1F NOT DUP5 AND PUSH3 0x563 DUP7 PUSH3 0x2FF JUMP JUMPDEST PUSH1 0x0 JUMPDEST DUP3 DUP2 LT ISZERO PUSH3 0x58D JUMPI DUP5 DUP10 ADD MLOAD DUP3 SSTORE PUSH1 0x1 DUP3 ADD SWAP2 POP PUSH1 0x20 DUP6 ADD SWAP5 POP PUSH1 0x20 DUP2 ADD SWAP1 POP PUSH3 0x566 JUMP JUMPDEST DUP7 DUP4 LT ISZERO PUSH3 0x5AD JUMPI DUP5 DUP10 ADD MLOAD PUSH3 0x5A9 PUSH1 0x1F DUP10 AND DUP3 PUSH3 0x49D JUMP JUMPDEST DUP4 SSTORE POP JUMPDEST PUSH1 0x1 PUSH1 0x2 DUP9 MUL ADD DUP9 SSTORE POP POP POP JUMPDEST POP POP POP POP POP POP JUMP JUMPDEST PUSH2 0x5643 DUP1 PUSH3 0x5D2 PUSH1 0x0 CODECOPY PUSH1 0x0 RETURN INVALID PUSH1 0x80 PUSH1 0x40 MSTORE PUSH1 0x4 CALLDATASIZE LT PUSH2 0x1F9 JUMPI PUSH1 0x0 CALLDATALOAD PUSH1 0xE0 SHR DUP1 PUSH4 0x6352211E GT PUSH2 0x10D JUMPI DUP1 PUSH4 0xA22CB465 GT PUSH2 0xA0 JUMPI DUP1 PUSH4 0xBD11F69D GT PUSH2 0x6F JUMPI DUP1 PUSH4 0xBD11F69D EQ PUSH2 0x6BB JUMPI DUP1 PUSH4 0xC87B56DD EQ PUSH2 0x6F8 JUMPI DUP1 PUSH4 0xE7C75585 EQ PUSH2 0x735 JUMPI DUP1 PUSH4 0xE985E9C5 EQ PUSH2 0x75E JUMPI DUP1 PUSH4 0xF2FDE38B EQ PUSH2 0x79B JUMPI PUSH2 0x1F9 JUMP JUMPDEST DUP1 PUSH4 0xA22CB465 EQ PUSH2 0x60E JUMPI DUP1 PUSH4 0xA3BCFE8D EQ PUSH2 0x637 JUMPI DUP1 PUSH4 0xAAF4389A EQ PUSH2 0x674 JUMPI DUP1 PUSH4 0xB88D4FDE EQ PUSH2 0x69F JUMPI PUSH2 0x1F9 JUMP JUMPDEST DUP1 PUSH4 0x8DA5CB5B GT PUSH2 0xDC JUMPI DUP1 PUSH4 0x8DA5CB5B EQ PUSH2 0x573 JUMPI DUP1 PUSH4 0x8F2FC60B EQ PUSH2 0x59E JUMPI DUP1 PUSH4 0x95D89B41 EQ PUSH2 0x5C7 JUMPI DUP1 PUSH4 0xA0712D68 EQ PUSH2 0x5F2 JUMPI PUSH2 0x1F9 JUMP JUMPDEST DUP1 PUSH4 0x6352211E EQ PUSH2 0x4B7 JUMPI DUP1 PUSH4 0x70A08231 EQ PUSH2 0x4F4 JUMPI DUP1 PUSH4 0x715018A6 EQ PUSH2 0x531 JUMPI DUP1 PUSH4 0x7708B2D9 EQ PUSH2 0x548 JUMPI PUSH2 0x1F9 JUMP JUMPDEST DUP1 PUSH4 0x18160DDD GT PUSH2 0x190 JUMPI DUP1 PUSH4 0x32783E5B GT PUSH2 0x15F JUMPI DUP1 PUSH4 0x32783E5B EQ PUSH2 0x405 JUMPI DUP1 PUSH4 0x3886BBCF EQ PUSH2 0x442 JUMPI DUP1 PUSH4 0x3CCFD60B EQ PUSH2 0x46D JUMPI DUP1 PUSH4 0x42842E0E EQ PUSH2 0x484 JUMPI DUP1 PUSH4 0x4310E42E EQ PUSH2 0x4A0 JUMPI PUSH2 0x1F9 JUMP JUMPDEST DUP1 PUSH4 0x18160DDD EQ PUSH2 0x369 JUMPI DUP1 PUSH4 0x23B872DD EQ PUSH2 0x394 JUMPI DUP1 PUSH4 0x2A55205A EQ PUSH2 0x3B0 JUMPI DUP1 PUSH4 0x2BE09561 EQ PUSH2 0x3EE JUMPI PUSH2 0x1F9 JUMP JUMPDEST DUP1 PUSH4 0x95EA7B3 GT PUSH2 0x1CC JUMPI DUP1 PUSH4 0x95EA7B3 EQ PUSH2 0x2CE JUMPI DUP1 PUSH4 0xCED8637 EQ PUSH2 0x2EA JUMPI DUP1 PUSH4 0xF7EE879 EQ PUSH2 0x301 JUMPI DUP1 PUSH4 0x12065FE0 EQ PUSH2 0x33E JUMPI PUSH2 0x1F9 JUMP JUMPDEST DUP1 PUSH4 0x1FFC9A7 EQ PUSH2 0x1FE JUMPI DUP1 PUSH4 0x60F8C04 EQ PUSH2 0x23B JUMPI DUP1 PUSH4 0x6FDDE03 EQ PUSH2 0x266 JUMPI DUP1 PUSH4 0x81812FC EQ PUSH2 0x291 JUMPI JUMPDEST PUSH1 0x0 DUP1 REVERT JUMPDEST CALLVALUE DUP1 ISZERO PUSH2 0x20A JUMPI PUSH1 0x0 DUP1 REVERT JUMPDEST POP PUSH2 0x225 PUSH1 0x4 DUP1 CALLDATASIZE SUB DUP2 ADD SWAP1 PUSH2 0x220 SWAP2 SWAP1 PUSH2 0x2877 JUMP JUMPDEST PUSH2 0x7C4 JUMP JUMPDEST PUSH1 0x40 MLOAD PUSH2 0x232 SWAP2 SWAP1 PUSH2 0x28BF JUMP JUMPDEST PUSH1 0x40 MLOAD DUP1 SWAP2 SUB SWAP1 RETURN JUMPDEST CALLVALUE DUP1 ISZERO PUSH2 0x247 JUMPI PUSH1 0x0 DUP1 REVERT JUMPDEST POP PUSH2 0x250 PUSH2 0x7E6 JUMP JUMPDEST PUSH1 0x40 MLOAD PUSH2 0x25D SWAP2 SWAP1 PUSH2 0x28F3 JUMP JUMPDEST PUSH1 0x40 MLOAD DUP1 SWAP2 SUB SWAP1 RETURN JUMPDEST CALLVALUE DUP1 ISZERO PUSH2 0x272 JUMPI PUSH1 0x0 DUP1 REVERT JUMPDEST POP PUSH2 0x27B PUSH2 0x7EC JUMP JUMPDEST PUSH1 0x40 MLOAD PUSH2 0x288 SWAP2 SWAP1 PUSH2 0x299E JUMP JUMPDEST PUSH1 0x40 MLOAD DUP1 SWAP2 SUB SWAP1 RETURN JUMPDEST CALLVALUE DUP1 ISZERO PUSH2 0x29D JUMPI PUSH1 0x0 DUP1 REVERT JUMPDEST POP PUSH2 0x2B8 PUSH1 0x4 DUP1 CALLDATASIZE SUB DUP2 ADD SWAP1 PUSH2 0x2B3 SWAP2 SWAP1 PUSH2 0x29EC JUMP JUMPDEST PUSH2 0x87E JUMP JUMPDEST PUSH1 0x40 MLOAD PUSH2 0x2C5 SWAP2 SWAP1 PUSH2 0x2A5A JUMP JUMPDEST PUSH1 0x40 MLOAD DUP1 SWAP2 SUB SWAP1 RETURN JUMPDEST PUSH2 0x2E8 PUSH1 0x4 DUP1 CALLDATASIZE SUB DUP2 ADD SWAP1 PUSH2 0x2E3 SWAP2 SWAP1 PUSH2 0x2AA1 JUMP JUMPDEST PUSH2 0x8FD JUMP JUMPDEST STOP JUMPDEST CALLVALUE DUP1 ISZERO PUSH2 0x2F6 JUMPI PUSH1 0x0 DUP1 REVERT JUMPDEST POP PUSH2 0x2FF PUSH2 0xA41 JUMP JUMPDEST STOP JUMPDEST CALLVALUE DUP1 ISZERO PUSH2 0x30D JUMPI PUSH1 0x0 DUP1 REVERT JUMPDEST POP PUSH2 0x328 PUSH1 0x4 DUP1 CALLDATASIZE SUB DUP2 ADD SWAP1 PUSH2 0x323 SWAP2 SWAP1 PUSH2 0x29EC JUMP JUMPDEST PUSH2 0xA4E JUMP JUMPDEST PUSH1 0x40 MLOAD PUSH2 0x335 SWAP2 SWAP1 PUSH2 0x28BF JUMP JUMPDEST PUSH1 0x40 MLOAD DUP1 SWAP2 SUB SWAP1 RETURN JUMPDEST CALLVALUE DUP1 ISZERO PUSH2 0x34A JUMPI PUSH1 0x0 DUP1 REVERT JUMPDEST POP PUSH2 0x353 PUSH2 0xA6E JUMP JUMPDEST PUSH1 0x40 MLOAD PUSH2 0x360 SWAP2 SWAP1 PUSH2 0x28F3 JUMP JUMPDEST PUSH1 0x40 MLOAD DUP1 SWAP2 SUB SWAP1 RETURN JUMPDEST CALLVALUE DUP1 ISZERO PUSH2 0x375 JUMPI PUSH1 0x0 DUP1 REVERT JUMPDEST POP PUSH2 0x37E PUSH2 0xA7E JUMP JUMPDEST PUSH1 0x40 MLOAD PUSH2 0x38B SWAP2 SWAP1 PUSH2 0x28F3 JUMP JUMPDEST PUSH1 0x40 MLOAD DUP1 SWAP2 SUB SWAP1 RETURN JUMPDEST PUSH2 0x3AE PUSH1 0x4 DUP1 CALLDATASIZE SUB DUP2 ADD SWAP1 PUSH2 0x3A9 SWAP2 SWAP1 PUSH2 0x2AE1 JUMP JUMPDEST PUSH2 0xA95 JUMP JUMPDEST STOP JUMPDEST CALLVALUE DUP1 ISZERO PUSH2 0x3BC JUMPI PUSH1 0x0 DUP1 REVERT JUMPDEST POP PUSH2 0x3D7 PUSH1 0x4 DUP1 CALLDATASIZE SUB DUP2 ADD SWAP1 PUSH2 0x3D2 SWAP2 SWAP1 PUSH2 0x2B34 JUMP JUMPDEST PUSH2 0xDB7 JUMP JUMPDEST PUSH1 0x40 MLOAD PUSH2 0x3E5 SWAP3 SWAP2 SWAP1 PUSH2 0x2B74 JUMP JUMPDEST PUSH1 0x40 MLOAD DUP1 SWAP2 SUB SWAP1 RETURN JUMPDEST CALLVALUE DUP1 ISZERO PUSH2 0x3FA JUMPI PUSH1 0x0 DUP1 REVERT JUMPDEST POP PUSH2 0x403 PUSH2 0xFA1 JUMP JUMPDEST STOP JUMPDEST CALLVALUE DUP1 ISZERO PUSH2 0x411 JUMPI PUSH1 0x0 DUP1 REVERT JUMPDEST POP PUSH2 0x42C PUSH1 0x4 DUP1 CALLDATASIZE SUB DUP2 ADD SWAP1 PUSH2 0x427 SWAP2 SWAP1 PUSH2 0x2CD2 JUMP JUMPDEST PUSH2 0xFD5 JUMP JUMPDEST PUSH1 0x40 MLOAD PUSH2 0x439 SWAP2 SWAP1 PUSH2 0x299E JUMP JUMPDEST PUSH1 0x40 MLOAD DUP1 SWAP2 SUB SWAP1 RETURN JUMPDEST CALLVALUE DUP1 ISZERO PUSH2 0x44E JUMPI PUSH1 0x0 DUP1 REVERT JUMPDEST POP PUSH2 0x457 PUSH2 0xFFE JUMP JUMPDEST PUSH1 0x40 MLOAD PUSH2 0x464 SWAP2 SWAP1 PUSH2 0x28F3 JUMP JUMPDEST PUSH1 0x40 MLOAD DUP1 SWAP2 SUB SWAP1 RETURN JUMPDEST CALLVALUE DUP1 ISZERO PUSH2 0x479 JUMPI PUSH1 0x0 DUP1 REVERT JUMPDEST POP PUSH2 0x482 PUSH2 0x1004 JUMP JUMPDEST STOP JUMPDEST PUSH2 0x49E PUSH1 0x4 DUP1 CALLDATASIZE SUB DUP2 ADD SWAP1 PUSH2 0x499 SWAP2 SWAP1 PUSH2 0x2AE1 JUMP JUMPDEST PUSH2 0x104C JUMP JUMPDEST STOP JUMPDEST CALLVALUE DUP1 ISZERO PUSH2 0x4AC JUMPI PUSH1 0x0 DUP1 REVERT JUMPDEST POP PUSH2 0x4B5 PUSH2 0x106C JUMP JUMPDEST STOP JUMPDEST CALLVALUE DUP1 ISZERO PUSH2 0x4C3 JUMPI PUSH1 0x0 DUP1 REVERT JUMPDEST POP PUSH2 0x4DE PUSH1 0x4 DUP1 CALLDATASIZE SUB DUP2 ADD SWAP1 PUSH2 0x4D9 SWAP2 SWAP1 PUSH2 0x29EC JUMP JUMPDEST PUSH2 0x10CF JUMP JUMPDEST PUSH1 0x40 MLOAD PUSH2 0x4EB SWAP2 SWAP1 PUSH2 0x2A5A JUMP JUMPDEST PUSH1 0x40 MLOAD DUP1 SWAP2 SUB SWAP1 RETURN JUMPDEST CALLVALUE DUP1 ISZERO PUSH2 0x500 JUMPI PUSH1 0x0 DUP1 REVERT JUMPDEST POP PUSH2 0x51B PUSH1 0x4 DUP1 CALLDATASIZE SUB DUP2 ADD SWAP1 PUSH2 0x516 SWAP2 SWAP1 PUSH2 0x2D1B JUMP JUMPDEST PUSH2 0x10E1 JUMP JUMPDEST PUSH1 0x40 MLOAD PUSH2 0x528 SWAP2 SWAP1 PUSH2 0x28F3 JUMP JUMPDEST PUSH1 0x40 MLOAD DUP1 SWAP2 SUB SWAP1 RETURN JUMPDEST CALLVALUE DUP1 ISZERO PUSH2 0x53D JUMPI PUSH1 0x0 DUP1 REVERT JUMPDEST POP PUSH2 0x546 PUSH2 0x1199 JUMP JUMPDEST STOP JUMPDEST CALLVALUE DUP1 ISZERO PUSH2 0x554 JUMPI PUSH1 0x0 DUP1 REVERT JUMPDEST POP PUSH2 0x55D PUSH2 0x11AD JUMP JUMPDEST PUSH1 0x40 MLOAD PUSH2 0x56A SWAP2 SWAP1 PUSH2 0x299E JUMP JUMPDEST PUSH1 0x40 MLOAD DUP1 SWAP2 SUB SWAP1 RETURN JUMPDEST CALLVALUE DUP1 ISZERO PUSH2 0x57F JUMPI PUSH1 0x0 DUP1 REVERT JUMPDEST POP PUSH2 0x588 PUSH2 0x1216 JUMP JUMPDEST PUSH1 0x40 MLOAD PUSH2 0x595 SWAP2 SWAP1 PUSH2 0x2A5A JUMP JUMPDEST PUSH1 0x40 MLOAD DUP1 SWAP2 SUB SWAP1 RETURN JUMPDEST CALLVALUE DUP1 ISZERO PUSH2 0x5AA JUMPI PUSH1 0x0 DUP1 REVERT JUMPDEST POP PUSH2 0x5C5 PUSH1 0x4 DUP1 CALLDATASIZE SUB DUP2 ADD SWAP1 PUSH2 0x5C0 SWAP2 SWAP1 PUSH2 0x2D8C JUMP JUMPDEST PUSH2 0x1240 JUMP JUMPDEST STOP JUMPDEST CALLVALUE DUP1 ISZERO PUSH2 0x5D3 JUMPI PUSH1 0x0 DUP1 REVERT JUMPDEST POP PUSH2 0x5DC PUSH2 0x1256 JUMP JUMPDEST PUSH1 0x40 MLOAD PUSH2 0x5E9 SWAP2 SWAP1 PUSH2 0x299E JUMP JUMPDEST PUSH1 0x40 MLOAD DUP1 SWAP2 SUB SWAP1 RETURN JUMPDEST PUSH2 0x60C PUSH1 0x4 DUP1 CALLDATASIZE SUB DUP2 ADD SWAP1 PUSH2 0x607 SWAP2 SWAP1 PUSH2 0x29EC JUMP JUMPDEST PUSH2 0x12E8 JUMP JUMPDEST STOP JUMPDEST CALLVALUE DUP1 ISZERO PUSH2 0x61A JUMPI PUSH1 0x0 DUP1 REVERT JUMPDEST POP PUSH2 0x635 PUSH1 0x4 DUP1 CALLDATASIZE SUB DUP2 ADD SWAP1 PUSH2 0x630 SWAP2 SWAP1 PUSH2 0x2DF8 JUMP JUMPDEST PUSH2 0x1454 JUMP JUMPDEST STOP JUMPDEST CALLVALUE DUP1 ISZERO PUSH2 0x643 JUMPI PUSH1 0x0 DUP1 REVERT JUMPDEST POP PUSH2 0x65E PUSH1 0x4 DUP1 CALLDATASIZE SUB DUP2 ADD SWAP1 PUSH2 0x659 SWAP2 SWAP1 PUSH2 0x2EEE JUMP JUMPDEST PUSH2 0x155F JUMP JUMPDEST PUSH1 0x40 MLOAD PUSH2 0x66B SWAP2 SWAP1 PUSH2 0x28BF JUMP JUMPDEST PUSH1 0x40 MLOAD DUP1 SWAP2 SUB SWAP1 RETURN JUMPDEST CALLVALUE DUP1 ISZERO PUSH2 0x680 JUMPI PUSH1 0x0 DUP1 REVERT JUMPDEST POP PUSH2 0x689 PUSH2 0x15B8 JUMP JUMPDEST PUSH1 0x40 MLOAD PUSH2 0x696 SWAP2 SWAP1 PUSH2 0x28F3 JUMP JUMPDEST PUSH1 0x40 MLOAD DUP1 SWAP2 SUB SWAP1 RETURN JUMPDEST PUSH2 0x6B9 PUSH1 0x4 DUP1 CALLDATASIZE SUB DUP2 ADD SWAP1 PUSH2 0x6B4 SWAP2 SWAP1 PUSH2 0x2FBC JUMP JUMPDEST PUSH2 0x15BE JUMP JUMPDEST STOP JUMPDEST CALLVALUE DUP1 ISZERO PUSH2 0x6C7 JUMPI PUSH1 0x0 DUP1 REVERT JUMPDEST POP PUSH2 0x6E2 PUSH1 0x4 DUP1 CALLDATASIZE SUB DUP2 ADD SWAP1 PUSH2 0x6DD SWAP2 SWAP1 PUSH2 0x29EC JUMP JUMPDEST PUSH2 0x1631 JUMP JUMPDEST PUSH1 0x40 MLOAD PUSH2 0x6EF SWAP2 SWAP1 PUSH2 0x299E JUMP JUMPDEST PUSH1 0x40 MLOAD DUP1 SWAP2 SUB SWAP1 RETURN JUMPDEST CALLVALUE DUP1 ISZERO PUSH2 0x704 JUMPI PUSH1 0x0 DUP1 REVERT JUMPDEST POP PUSH2 0x71F PUSH1 0x4 DUP1 CALLDATASIZE SUB DUP2 ADD SWAP1 PUSH2 0x71A SWAP2 SWAP1 PUSH2 0x29EC JUMP JUMPDEST PUSH2 0x16D1 JUMP JUMPDEST PUSH1 0x40 MLOAD PUSH2 0x72C SWAP2 SWAP1 PUSH2 0x299E JUMP JUMPDEST PUSH1 0x40 MLOAD DUP1 SWAP2 SUB SWAP1 RETURN JUMPDEST CALLVALUE DUP1 ISZERO PUSH2 0x741 JUMPI PUSH1 0x0 DUP1 REVERT JUMPDEST POP PUSH2 0x75C PUSH1 0x4 DUP1 CALLDATASIZE SUB DUP2 ADD SWAP1 PUSH2 0x757 SWAP2 SWAP1 PUSH2 0x303F JUMP JUMPDEST PUSH2 0x174E JUMP JUMPDEST STOP JUMPDEST CALLVALUE DUP1 ISZERO PUSH2 0x76A JUMPI PUSH1 0x0 DUP1 REVERT JUMPDEST POP PUSH2 0x785 PUSH1 0x4 DUP1 CALLDATASIZE SUB DUP2 ADD SWAP1 PUSH2 0x780 SWAP2 SWAP1 PUSH2 0x3092 JUMP JUMPDEST PUSH2 0x1B38 JUMP JUMPDEST PUSH1 0x40 MLOAD PUSH2 0x792 SWAP2 SWAP1 PUSH2 0x28BF JUMP JUMPDEST PUSH1 0x40 MLOAD DUP1 SWAP2 SUB SWAP1 RETURN JUMPDEST CALLVALUE DUP1 ISZERO PUSH2 0x7A7 JUMPI PUSH1 0x0 DUP1 REVERT JUMPDEST POP PUSH2 0x7C2 PUSH1 0x4 DUP1 CALLDATASIZE SUB DUP2 ADD SWAP1 PUSH2 0x7BD SWAP2 SWAP1 PUSH2 0x2D1B JUMP JUMPDEST PUSH2 0x1BCC JUMP JUMPDEST STOP JUMPDEST PUSH1 0x0 PUSH2 0x7CF DUP3 PUSH2 0x1C4F JUMP JUMPDEST DUP1 PUSH2 0x7DF JUMPI POP PUSH2 0x7DE DUP3 PUSH2 0x1CE1 JUMP JUMPDEST JUMPDEST SWAP1 POP SWAP2 SWAP1 POP JUMP JUMPDEST PUSH1 0xC SLOAD DUP2 JUMP JUMPDEST PUSH1 0x60 PUSH1 0x2 DUP1 SLOAD PUSH2 0x7FB SWAP1 PUSH2 0x3101 JUMP JUMPDEST DUP1 PUSH1 0x1F ADD PUSH1 0x20 DUP1 SWAP2 DIV MUL PUSH1 0x20 ADD PUSH1 0x40 MLOAD SWAP1 DUP2 ADD PUSH1 0x40 MSTORE DUP1 SWAP3 SWAP2 SWAP1 DUP2 DUP2 MSTORE PUSH1 0x20 ADD DUP3 DUP1 SLOAD PUSH2 0x827 SWAP1 PUSH2 0x3101 JUMP JUMPDEST DUP1 ISZERO PUSH2 0x874 JUMPI DUP1 PUSH1 0x1F LT PUSH2 0x849 JUMPI PUSH2 0x100 DUP1 DUP4 SLOAD DIV MUL DUP4 MSTORE SWAP2 PUSH1 0x20 ADD SWAP2 PUSH2 0x874 JUMP JUMPDEST DUP3 ADD SWAP2 SWAP1 PUSH1 0x0 MSTORE PUSH1 0x20 PUSH1 0x0 KECCAK256 SWAP1 JUMPDEST DUP2 SLOAD DUP2 MSTORE SWAP1 PUSH1 0x1 ADD SWAP1 PUSH1 0x20 ADD DUP1 DUP4 GT PUSH2 0x857 JUMPI DUP3 SWAP1 SUB PUSH1 0x1F AND DUP3 ADD SWAP2 JUMPDEST POP POP POP POP POP SWAP1 POP SWAP1 JUMP JUMPDEST PUSH1 0x0 PUSH2 0x889 DUP3 PUSH2 0x1D5B JUMP JUMPDEST PUSH2 0x8BF JUMPI PUSH1 0x40 MLOAD PUSH32 0xCF4700E400000000000000000000000000000000000000000000000000000000 DUP2 MSTORE PUSH1 0x4 ADD PUSH1 0x40 MLOAD DUP1 SWAP2 SUB SWAP1 REVERT JUMPDEST PUSH1 0x6 PUSH1 0x0 DUP4 DUP2 MSTORE PUSH1 0x20 ADD SWAP1 DUP2 MSTORE PUSH1 0x20 ADD PUSH1 0x0 KECCAK256 PUSH1 0x0 ADD PUSH1 0x0 SWAP1 SLOAD SWAP1 PUSH2 0x100 EXP SWAP1 DIV PUSH20 0xFFFFFFFFFFFFFFFFFFFFFFFFFFFFFFFFFFFFFFFF AND SWAP1 POP SWAP2 SWAP1 POP JUMP JUMPDEST PUSH1 0x0 PUSH2 0x908 DUP3 PUSH2 0x10CF JUMP JUMPDEST SWAP1 POP DUP1 PUSH20 0xFFFFFFFFFFFFFFFFFFFFFFFFFFFFFFFFFFFFFFFF AND PUSH2 0x929 PUSH2 0x1DBA JUMP JUMPDEST PUSH20 0xFFFFFFFFFFFFFFFFFFFFFFFFFFFFFFFFFFFFFFFF AND EQ PUSH2 0x98C JUMPI PUSH2 0x955 DUP2 PUSH2 0x950 PUSH2 0x1DBA JUMP JUMPDEST PUSH2 0x1B38 JUMP JUMPDEST PUSH2 0x98B JUMPI PUSH1 0x40 MLOAD PUSH32 0xCFB3B94200000000000000000000000000000000000000000000000000000000 DUP2 MSTORE PUSH1 0x4 ADD PUSH1 0x40 MLOAD DUP1 SWAP2 SUB SWAP1 REVERT JUMPDEST JUMPDEST DUP3 PUSH1 0x6 PUSH1 0x0 DUP5 DUP2 MSTORE PUSH1 0x20 ADD SWAP1 DUP2 MSTORE PUSH1 0x20 ADD PUSH1 0x0 KECCAK256 PUSH1 0x0 ADD PUSH1 0x0 PUSH2 0x100 EXP DUP2 SLOAD DUP2 PUSH20 0xFFFFFFFFFFFFFFFFFFFFFFFFFFFFFFFFFFFFFFFF MUL NOT AND SWAP1 DUP4 PUSH20 0xFFFFFFFFFFFFFFFFFFFFFFFFFFFFFFFFFFFFFFFF AND MUL OR SWAP1 SSTORE POP DUP2 DUP4 PUSH20 0xFFFFFFFFFFFFFFFFFFFFFFFFFFFFFFFFFFFFFFFF AND DUP3 PUSH20 0xFFFFFFFFFFFFFFFFFFFFFFFFFFFFFFFFFFFFFFFF AND PUSH32 0x8C5BE1E5EBEC7D5BD14F71427D1E84F3DD0314C0F7B2291E5B200AC8C7C3B925 PUSH1 0x40 MLOAD PUSH1 0x40 MLOAD DUP1 SWAP2 SUB SWAP1 LOG4 POP POP POP JUMP JUMPDEST PUSH2 0xA4C CALLER PUSH1 0x1 PUSH2 0x1DC2 JUMP JUMPDEST JUMP JUMPDEST PUSH1 0xF PUSH1 0x20 MSTORE DUP1 PUSH1 0x0 MSTORE PUSH1 0x40 PUSH1 0x0 KECCAK256 PUSH1 0x0 SWAP2 POP SLOAD SWAP1 PUSH2 0x100 EXP SWAP1 DIV PUSH1 0xFF AND DUP2 JUMP JUMPDEST PUSH1 0x0 PUSH2 0xA79 CALLER PUSH2 0x10E1 JUMP JUMPDEST SWAP1 POP SWAP1 JUMP JUMPDEST PUSH1 0x0 PUSH2 0xA88 PUSH2 0x1F7D JUMP JUMPDEST PUSH1 0x1 SLOAD PUSH1 0x0 SLOAD SUB SUB SWAP1 POP SWAP1 JUMP JUMPDEST PUSH1 0x0 PUSH2 0xAA0 DUP3 PUSH2 0x1F86 JUMP JUMPDEST SWAP1 POP DUP4 PUSH20 0xFFFFFFFFFFFFFFFFFFFFFFFFFFFFFFFFFFFFFFFF AND DUP2 PUSH20 0xFFFFFFFFFFFFFFFFFFFFFFFFFFFFFFFFFFFFFFFF AND EQ PUSH2 0xB07 JUMPI PUSH1 0x40 MLOAD PUSH32 0xA114810000000000000000000000000000000000000000000000000000000000 DUP2 MSTORE PUSH1 0x4 ADD PUSH1 0x40 MLOAD DUP1 SWAP2 SUB SWAP1 REVERT JUMPDEST PUSH1 0x0 DUP1 PUSH2 0xB13 DUP5 PUSH2 0x2052 JUMP JUMPDEST SWAP2 POP SWAP2 POP PUSH2 0xB29 DUP2 DUP8 PUSH2 0xB24 PUSH2 0x1DBA JUMP JUMPDEST PUSH2 0x2079 JUMP JUMPDEST PUSH2 0xB75 JUMPI PUSH2 0xB3E DUP7 PUSH2 0xB39 PUSH2 0x1DBA JUMP JUMPDEST PUSH2 0x1B38 JUMP JUMPDEST PUSH2 0xB74 JUMPI PUSH1 0x40 MLOAD PUSH32 0x59C896BE00000000000000000000000000000000000000000000000000000000 DUP2 MSTORE PUSH1 0x4 ADD PUSH1 0x40 MLOAD DUP1 SWAP2 SUB SWAP1 REVERT JUMPDEST JUMPDEST PUSH1 0x0 PUSH20 0xFFFFFFFFFFFFFFFFFFFFFFFFFFFFFFFFFFFFFFFF AND DUP6 PUSH20 0xFFFFFFFFFFFFFFFFFFFFFFFFFFFFFFFFFFFFFFFF AND SUB PUSH2 0xBDB JUMPI PUSH1 0x40 MLOAD PUSH32 0xEA553B3400000000000000000000000000000000000000000000000000000000 DUP2 MSTORE PUSH1 0x4 ADD PUSH1 0x40 MLOAD DUP1 SWAP2 SUB SWAP1 REVERT JUMPDEST PUSH2 0xBE8 DUP7 DUP7 DUP7 PUSH1 0x1 PUSH2 0x20BD JUMP JUMPDEST DUP1 ISZERO PUSH2 0xBF3 JUMPI PUSH1 0x0 DUP3 SSTORE JUMPDEST PUSH1 0x5 PUSH1 0x0 DUP8 PUSH20 0xFFFFFFFFFFFFFFFFFFFFFFFFFFFFFFFFFFFFFFFF AND PUSH20 0xFFFFFFFFFFFFFFFFFFFFFFFFFFFFFFFFFFFFFFFF AND DUP2 MSTORE PUSH1 0x20 ADD SWAP1 DUP2 MSTORE PUSH1 0x20 ADD PUSH1 0x0 KECCAK256 PUSH1 0x0 DUP2 SLOAD PUSH1 0x1 SWAP1 SUB SWAP2 SWAP1 POP DUP2 SWAP1 SSTORE POP PUSH1 0x5 PUSH1 0x0 DUP7 PUSH20 0xFFFFFFFFFFFFFFFFFFFFFFFFFFFFFFFFFFFFFFFF AND PUSH20 0xFFFFFFFFFFFFFFFFFFFFFFFFFFFFFFFFFFFFFFFF AND DUP2 MSTORE PUSH1 0x20 ADD SWAP1 DUP2 MSTORE PUSH1 0x20 ADD PUSH1 0x0 KECCAK256 PUSH1 0x0 DUP2 SLOAD PUSH1 0x1 ADD SWAP2 SWAP1 POP DUP2 SWAP1 SSTORE POP PUSH2 0xCC1 DUP6 PUSH2 0xC9D DUP9 DUP9 DUP8 PUSH2 0x20C3 JUMP JUMPDEST PUSH29 0x200000000000000000000000000000000000000000000000000000000 OR PUSH2 0x20EB JUMP JUMPDEST PUSH1 0x4 PUSH1 0x0 DUP7 DUP2 MSTORE PUSH1 0x20 ADD SWAP1 DUP2 MSTORE PUSH1 0x20 ADD PUSH1 0x0 KECCAK256 DUP2 SWAP1 SSTORE POP PUSH1 0x0 PUSH29 0x200000000000000000000000000000000000000000000000000000000 DUP5 AND SUB PUSH2 0xD47 JUMPI PUSH1 0x0 PUSH1 0x1 DUP6 ADD SWAP1 POP PUSH1 0x0 PUSH1 0x4 PUSH1 0x0 DUP4 DUP2 MSTORE PUSH1 0x20 ADD SWAP1 DUP2 MSTORE PUSH1 0x20 ADD PUSH1 0x0 KECCAK256 SLOAD SUB PUSH2 0xD45 JUMPI PUSH1 0x0 SLOAD DUP2 EQ PUSH2 0xD44 JUMPI DUP4 PUSH1 0x4 PUSH1 0x0 DUP4 DUP2 MSTORE PUSH1 0x20 ADD SWAP1 DUP2 MSTORE PUSH1 0x20 ADD PUSH1 0x0 KECCAK256 DUP2 SWAP1 SSTORE POP JUMPDEST JUMPDEST POP JUMPDEST DUP4 DUP6 PUSH20 0xFFFFFFFFFFFFFFFFFFFFFFFFFFFFFFFFFFFFFFFF AND DUP8 PUSH20 0xFFFFFFFFFFFFFFFFFFFFFFFFFFFFFFFFFFFFFFFF AND PUSH32 0xDDF252AD1BE2C89B69C2B068FC378DAA952BA7F163C4A11628F55A4DF523B3EF PUSH1 0x40 MLOAD PUSH1 0x40 MLOAD DUP1 SWAP2 SUB SWAP1 LOG4 PUSH2 0xDAF DUP7 DUP7 DUP7 PUSH1 0x1 PUSH2 0x2116 JUMP JUMPDEST POP POP POP POP POP POP JUMP JUMPDEST PUSH1 0x0 DUP1 PUSH1 0x0 PUSH1 0xA PUSH1 0x0 DUP7 DUP2 MSTORE PUSH1 0x20 ADD SWAP1 DUP2 MSTORE PUSH1 0x20 ADD PUSH1 0x0 KECCAK256 PUSH1 0x40 MLOAD DUP1 PUSH1 0x40 ADD PUSH1 0x40 MSTORE SWAP1 DUP2 PUSH1 0x0 DUP3 ADD PUSH1 0x0 SWAP1 SLOAD SWAP1 PUSH2 0x100 EXP SWAP1 DIV PUSH20 0xFFFFFFFFFFFFFFFFFFFFFFFFFFFFFFFFFFFFFFFF AND PUSH20 0xFFFFFFFFFFFFFFFFFFFFFFFFFFFFFFFFFFFFFFFF AND PUSH20 0xFFFFFFFFFFFFFFFFFFFFFFFFFFFFFFFFFFFFFFFF AND DUP2 MSTORE PUSH1 0x20 ADD PUSH1 0x0 DUP3 ADD PUSH1 0x14 SWAP1 SLOAD SWAP1 PUSH2 0x100 EXP SWAP1 DIV PUSH12 0xFFFFFFFFFFFFFFFFFFFFFFFF AND PUSH12 0xFFFFFFFFFFFFFFFFFFFFFFFF AND PUSH12 0xFFFFFFFFFFFFFFFFFFFFFFFF AND DUP2 MSTORE POP POP SWAP1 POP PUSH1 0x0 PUSH20 0xFFFFFFFFFFFFFFFFFFFFFFFFFFFFFFFFFFFFFFFF AND DUP2 PUSH1 0x0 ADD MLOAD PUSH20 0xFFFFFFFFFFFFFFFFFFFFFFFFFFFFFFFFFFFFFFFF AND SUB PUSH2 0xF4C JUMPI PUSH1 0x9 PUSH1 0x40 MLOAD DUP1 PUSH1 0x40 ADD PUSH1 0x40 MSTORE SWAP1 DUP2 PUSH1 0x0 DUP3 ADD PUSH1 0x0 SWAP1 SLOAD SWAP1 PUSH2 0x100 EXP SWAP1 DIV PUSH20 0xFFFFFFFFFFFFFFFFFFFFFFFFFFFFFFFFFFFFFFFF AND PUSH20 0xFFFFFFFFFFFFFFFFFFFFFFFFFFFFFFFFFFFFFFFF AND PUSH20 0xFFFFFFFFFFFFFFFFFFFFFFFFFFFFFFFFFFFFFFFF AND DUP2 MSTORE PUSH1 0x20 ADD PUSH1 0x0 DUP3 ADD PUSH1 0x14 SWAP1 SLOAD SWAP1 PUSH2 0x100 EXP SWAP1 DIV PUSH12 0xFFFFFFFFFFFFFFFFFFFFFFFF AND PUSH12 0xFFFFFFFFFFFFFFFFFFFFFFFF AND PUSH12 0xFFFFFFFFFFFFFFFFFFFFFFFF AND DUP2 MSTORE POP POP SWAP1 POP JUMPDEST PUSH1 0x0 PUSH2 0xF56 PUSH2 0x211C JUMP JUMPDEST PUSH12 0xFFFFFFFFFFFFFFFFFFFFFFFF AND DUP3 PUSH1 0x20 ADD MLOAD PUSH12 0xFFFFFFFFFFFFFFFFFFFFFFFF AND DUP7 PUSH2 0xF82 SWAP2 SWAP1 PUSH2 0x3161 JUMP JUMPDEST PUSH2 0xF8C SWAP2 SWAP1 PUSH2 0x31D2 JUMP JUMPDEST SWAP1 POP DUP2 PUSH1 0x0 ADD MLOAD DUP2 SWAP4 POP SWAP4 POP POP POP SWAP3 POP SWAP3 SWAP1 POP JUMP JUMPDEST PUSH2 0xFA9 PUSH2 0x2126 JUMP JUMPDEST PUSH3 0x15180 TIMESTAMP PUSH2 0xFB8 SWAP2 SWAP1 PUSH2 0x3203 JUMP JUMPDEST PUSH1 0xB DUP2 SWAP1 SSTORE POP PUSH3 0x2A300 TIMESTAMP PUSH2 0xFCD SWAP2 SWAP1 PUSH2 0x3203 JUMP JUMPDEST PUSH1 0xC DUP2 SWAP1 SSTORE POP JUMP JUMPDEST PUSH1 0x60 DUP2 PUSH1 0x40 MLOAD PUSH1 0x20 ADD PUSH2 0xFE8 SWAP2 SWAP1 PUSH2 0x4638 JUMP JUMPDEST PUSH1 0x40 MLOAD PUSH1 0x20 DUP2 DUP4 SUB SUB DUP2 MSTORE SWAP1 PUSH1 0x40 MSTORE SWAP1 POP SWAP2 SWAP1 POP JUMP JUMPDEST PUSH1 0xB SLOAD DUP2 JUMP JUMPDEST PUSH2 0x100C PUSH2 0x2126 JUMP JUMPDEST CALLER PUSH20 0xFFFFFFFFFFFFFFFFFFFFFFFFFFFFFFFFFFFFFFFF AND PUSH2 0x8FC SELFBALANCE SWAP1 DUP2 ISZERO MUL SWAP1 PUSH1 0x40 MLOAD PUSH1 0x0 PUSH1 0x40 MLOAD DUP1 DUP4 SUB DUP2 DUP6 DUP9 DUP9 CALL SWAP4 POP POP POP POP PUSH2 0x104A JUMPI PUSH1 0x0 DUP1 REVERT JUMPDEST JUMP JUMPDEST PUSH2 0x1067 DUP4 DUP4 DUP4 PUSH1 0x40 MLOAD DUP1 PUSH1 0x20 ADD PUSH1 0x40 MSTORE DUP1 PUSH1 0x0 DUP2 MSTORE POP PUSH2 0x15BE JUMP JUMPDEST POP POP POP JUMP JUMPDEST PUSH1 0x0 PUSH1 0x1 SWAP1 POP JUMPDEST PUSH1 0x41 DUP2 LT ISZERO PUSH2 0x10CC JUMPI PUSH2 0x10B9 DUP2 PUSH1 0x40 MLOAD DUP1 PUSH1 0x60 ADD PUSH1 0x40 MSTORE DUP1 PUSH1 0xFF TIMESTAMP PUSH2 0x1098 SWAP2 SWAP1 PUSH2 0x4665 JUMP JUMPDEST DUP2 MSTORE PUSH1 0x20 ADD DUP5 DUP2 MSTORE PUSH1 0x20 ADD PUSH1 0x64 DUP6 PUSH2 0x10B0 SWAP2 SWAP1 PUSH2 0x3203 JUMP JUMPDEST DUP2 MSTORE POP DUP4 PUSH2 0x174E JUMP JUMPDEST DUP1 DUP1 PUSH2 0x10C4 SWAP1 PUSH2 0x4696 JUMP JUMPDEST SWAP2 POP POP PUSH2 0x1073 JUMP JUMPDEST POP JUMP JUMPDEST PUSH1 0x0 PUSH2 0x10DA DUP3 PUSH2 0x1F86 JUMP JUMPDEST SWAP1 POP SWAP2 SWAP1 POP JUMP JUMPDEST PUSH1 0x0 DUP1 PUSH20 0xFFFFFFFFFFFFFFFFFFFFFFFFFFFFFFFFFFFFFFFF AND DUP3 PUSH20 0xFFFFFFFFFFFFFFFFFFFFFFFFFFFFFFFFFFFFFFFF AND SUB PUSH2 0x1148 JUMPI PUSH1 0x40 MLOAD PUSH32 0x8F4EB60400000000000000000000000000000000000000000000000000000000 DUP2 MSTORE PUSH1 0x4 ADD PUSH1 0x40 MLOAD DUP1 SWAP2 SUB SWAP1 REVERT JUMPDEST PUSH8 0xFFFFFFFFFFFFFFFF PUSH1 0x5 PUSH1 0x0 DUP5 PUSH20 0xFFFFFFFFFFFFFFFFFFFFFFFFFFFFFFFFFFFFFFFF AND PUSH20 0xFFFFFFFFFFFFFFFFFFFFFFFFFFFFFFFFFFFFFFFF AND DUP2 MSTORE PUSH1 0x20 ADD SWAP1 DUP2 MSTORE PUSH1 0x20 ADD PUSH1 0x0 KECCAK256 SLOAD AND SWAP1 POP SWAP2 SWAP1 POP JUMP JUMPDEST PUSH2 0x11A1 PUSH2 0x2126 JUMP JUMPDEST PUSH2 0x11AB PUSH1 0x0 PUSH2 0x21A4 JUMP JUMPDEST JUMP JUMPDEST PUSH1 0x60 PUSH1 0x0 PUSH1 0x1 SWAP1 POP JUMPDEST PUSH1 0x41 DUP2 LT ISZERO PUSH2 0x1212 JUMPI DUP2 PUSH2 0x11C9 DUP3 PUSH2 0x226A JUMP JUMPDEST PUSH1 0xE PUSH1 0x0 DUP5 DUP2 MSTORE PUSH1 0x20 ADD SWAP1 DUP2 MSTORE PUSH1 0x20 ADD PUSH1 0x0 KECCAK256 PUSH1 0x40 MLOAD PUSH1 0x20 ADD PUSH2 0x11EE SWAP4 SWAP3 SWAP2 SWAP1 PUSH2 0x485A JUMP JUMPDEST PUSH1 0x40 MLOAD PUSH1 0x20 DUP2 DUP4 SUB SUB DUP2 MSTORE SWAP1 PUSH1 0x40 MSTORE SWAP2 POP DUP1 DUP1 PUSH2 0x120A SWAP1 PUSH2 0x4696 JUMP JUMPDEST SWAP2 POP POP PUSH2 0x11B6 JUMP JUMPDEST POP SWAP1 JUMP JUMPDEST PUSH1 0x0 PUSH1 0x8 PUSH1 0x0 SWAP1 SLOAD SWAP1 PUSH2 0x100 EXP SWAP1 DIV PUSH20 0xFFFFFFFFFFFFFFFFFFFFFFFFFFFFFFFFFFFFFFFF AND SWAP1 POP SWAP1 JUMP JUMPDEST PUSH2 0x1248 PUSH2 0x2126 JUMP JUMPDEST PUSH2 0x1252 DUP3 DUP3 PUSH2 0x22BA JUMP JUMPDEST POP POP JUMP JUMPDEST PUSH1 0x60 PUSH1 0x3 DUP1 SLOAD PUSH2 0x1265 SWAP1 PUSH2 0x3101 JUMP JUMPDEST DUP1 PUSH1 0x1F ADD PUSH1 0x20 DUP1 SWAP2 DIV MUL PUSH1 0x20 ADD PUSH1 0x40 MLOAD SWAP1 DUP2 ADD PUSH1 0x40 MSTORE DUP1 SWAP3 SWAP2 SWAP1 DUP2 DUP2 MSTORE PUSH1 0x20 ADD DUP3 DUP1 SLOAD PUSH2 0x1291 SWAP1 PUSH2 0x3101 JUMP JUMPDEST DUP1 ISZERO PUSH2 0x12DE JUMPI DUP1 PUSH1 0x1F LT PUSH2 0x12B3 JUMPI PUSH2 0x100 DUP1 DUP4 SLOAD DIV MUL DUP4 MSTORE SWAP2 PUSH1 0x20 ADD SWAP2 PUSH2 0x12DE JUMP JUMPDEST DUP3 ADD SWAP2 SWAP1 PUSH1 0x0 MSTORE PUSH1 0x20 PUSH1 0x0 KECCAK256 SWAP1 JUMPDEST DUP2 SLOAD DUP2 MSTORE SWAP1 PUSH1 0x1 ADD SWAP1 PUSH1 0x20 ADD DUP1 DUP4 GT PUSH2 0x12C1 JUMPI DUP3 SWAP1 SUB PUSH1 0x1F AND DUP3 ADD SWAP2 JUMPDEST POP POP POP POP POP SWAP1 POP SWAP1 JUMP JUMPDEST PUSH1 0xB SLOAD TIMESTAMP LT ISZERO PUSH2 0x1403 JUMPI PUSH1 0x0 PUSH1 0x10 PUSH1 0x0 SWAP1 SLOAD SWAP1 PUSH2 0x100 EXP SWAP1 DIV PUSH20 0xFFFFFFFFFFFFFFFFFFFFFFFFFFFFFFFFFFFFFFFF AND PUSH20 0xFFFFFFFFFFFFFFFFFFFFFFFFFFFFFFFFFFFFFFFF AND PUSH4 0x70A08231 CALLER PUSH1 0x40 MLOAD DUP3 PUSH4 0xFFFFFFFF AND PUSH1 0xE0 SHL DUP2 MSTORE PUSH1 0x4 ADD PUSH2 0x134F SWAP2 SWAP1 PUSH2 0x2A5A JUMP JUMPDEST PUSH1 0x20 PUSH1 0x40 MLOAD DUP1 DUP4 SUB DUP2 DUP7 GAS STATICCALL ISZERO DUP1 ISZERO PUSH2 0x136C JUMPI RETURNDATASIZE PUSH1 0x0 DUP1 RETURNDATACOPY RETURNDATASIZE PUSH1 0x0 REVERT JUMPDEST POP POP POP POP PUSH1 0x40 MLOAD RETURNDATASIZE PUSH1 0x1F NOT PUSH1 0x1F DUP3 ADD AND DUP3 ADD DUP1 PUSH1 0x40 MSTORE POP DUP2 ADD SWAP1 PUSH2 0x1390 SWAP2 SWAP1 PUSH2 0x48C1 JUMP JUMPDEST GT PUSH2 0x13D0 JUMPI PUSH1 0x40 MLOAD PUSH32 0x8C379A000000000000000000000000000000000000000000000000000000000 DUP2 MSTORE PUSH1 0x4 ADD PUSH2 0x13C7 SWAP1 PUSH2 0x4960 JUMP JUMPDEST PUSH1 0x40 MLOAD DUP1 SWAP2 SUB SWAP1 REVERT JUMPDEST PUSH1 0x6 DUP2 PUSH2 0x13DD SWAP2 SWAP1 PUSH2 0x3161 JUMP JUMPDEST PUSH1 0xC PUSH1 0x0 DUP3 DUP3 SLOAD PUSH2 0x13EE SWAP2 SWAP1 PUSH2 0x4980 JUMP JUMPDEST SWAP3 POP POP DUP2 SWAP1 SSTORE POP PUSH2 0x13FE DUP2 PUSH2 0x244F JUMP JUMPDEST PUSH2 0x1451 JUMP JUMPDEST PUSH1 0xC SLOAD TIMESTAMP LT PUSH2 0x1447 JUMPI PUSH1 0x40 MLOAD PUSH32 0x8C379A000000000000000000000000000000000000000000000000000000000 DUP2 MSTORE PUSH1 0x4 ADD PUSH2 0x143E SWAP1 PUSH2 0x4A00 JUMP JUMPDEST PUSH1 0x40 MLOAD DUP1 SWAP2 SUB SWAP1 REVERT JUMPDEST PUSH2 0x1450 DUP2 PUSH2 0x244F JUMP JUMPDEST JUMPDEST POP JUMP JUMPDEST DUP1 PUSH1 0x7 PUSH1 0x0 PUSH2 0x1461 PUSH2 0x1DBA JUMP JUMPDEST PUSH20 0xFFFFFFFFFFFFFFFFFFFFFFFFFFFFFFFFFFFFFFFF AND PUSH20 0xFFFFFFFFFFFFFFFFFFFFFFFFFFFFFFFFFFFFFFFF AND DUP2 MSTORE PUSH1 0x20 ADD SWAP1 DUP2 MSTORE PUSH1 0x20 ADD PUSH1 0x0 KECCAK256 PUSH1 0x0 DUP5 PUSH20 0xFFFFFFFFFFFFFFFFFFFFFFFFFFFFFFFFFFFFFFFF AND PUSH20 0xFFFFFFFFFFFFFFFFFFFFFFFFFFFFFFFFFFFFFFFF AND DUP2 MSTORE PUSH1 0x20 ADD SWAP1 DUP2 MSTORE PUSH1 0x20 ADD PUSH1 0x0 KECCAK256 PUSH1 0x0 PUSH2 0x100 EXP DUP2 SLOAD DUP2 PUSH1 0xFF MUL NOT AND SWAP1 DUP4 ISZERO ISZERO MUL OR SWAP1 SSTORE POP DUP2 PUSH20 0xFFFFFFFFFFFFFFFFFFFFFFFFFFFFFFFFFFFFFFFF AND PUSH2 0x150E PUSH2 0x1DBA JUMP JUMPDEST PUSH20 0xFFFFFFFFFFFFFFFFFFFFFFFFFFFFFFFFFFFFFFFF AND PUSH32 0x17307EAB39AB6107E8899845AD3D59BD9653F200F220920489CA2B5937696C31 DUP4 PUSH1 0x40 MLOAD PUSH2 0x1553 SWAP2 SWAP1 PUSH2 0x28BF JUMP JUMPDEST PUSH1 0x40 MLOAD DUP1 SWAP2 SUB SWAP1 LOG3 POP POP JUMP JUMPDEST PUSH1 0x0 DUP1 PUSH1 0x0 SWAP1 POP JUMPDEST PUSH1 0x3 DUP2 LT ISZERO PUSH2 0x15AD JUMPI PUSH1 0xFF DUP4 DUP3 PUSH1 0x3 DUP2 LT PUSH2 0x1585 JUMPI PUSH2 0x1584 PUSH2 0x4A20 JUMP JUMPDEST JUMPDEST PUSH1 0x20 MUL ADD MLOAD GT ISZERO PUSH2 0x159A JUMPI PUSH1 0x0 SWAP2 POP POP PUSH2 0x15B3 JUMP JUMPDEST DUP1 DUP1 PUSH2 0x15A5 SWAP1 PUSH2 0x4696 JUMP JUMPDEST SWAP2 POP POP PUSH2 0x1567 JUMP JUMPDEST POP PUSH1 0x1 SWAP1 POP JUMPDEST SWAP2 SWAP1 POP JUMP JUMPDEST PUSH1 0xD SLOAD DUP2 JUMP JUMPDEST PUSH2 0x15C9 DUP5 DUP5 DUP5 PUSH2 0xA95 JUMP JUMPDEST PUSH1 0x0 DUP4 PUSH20 0xFFFFFFFFFFFFFFFFFFFFFFFFFFFFFFFFFFFFFFFF AND EXTCODESIZE EQ PUSH2 0x162B JUMPI PUSH2 0x15F4 DUP5 DUP5 DUP5 DUP5 PUSH2 0x24CD JUMP JUMPDEST PUSH2 0x162A JUMPI PUSH1 0x40 MLOAD PUSH32 0xD1A57ED600000000000000000000000000000000000000000000000000000000 DUP2 MSTORE PUSH1 0x4 ADD PUSH1 0x40 MLOAD DUP1 SWAP2 SUB SWAP1 REVERT JUMPDEST JUMPDEST POP POP POP POP JUMP JUMPDEST PUSH1 0xE PUSH1 0x20 MSTORE DUP1 PUSH1 0x0 MSTORE PUSH1 0x40 PUSH1 0x0 KECCAK256 PUSH1 0x0 SWAP2 POP SWAP1 POP DUP1 SLOAD PUSH2 0x1650 SWAP1 PUSH2 0x3101 JUMP JUMPDEST DUP1 PUSH1 0x1F ADD PUSH1 0x20 DUP1 SWAP2 DIV MUL PUSH1 0x20 ADD PUSH1 0x40 MLOAD SWAP1 DUP2 ADD PUSH1 0x40 MSTORE DUP1 SWAP3 SWAP2 SWAP1 DUP2 DUP2 MSTORE PUSH1 0x20 ADD DUP3 DUP1 SLOAD PUSH2 0x167C SWAP1 PUSH2 0x3101 JUMP JUMPDEST DUP1 ISZERO PUSH2 0x16C9 JUMPI DUP1 PUSH1 0x1F LT PUSH2 0x169E JUMPI PUSH2 0x100 DUP1 DUP4 SLOAD DIV MUL DUP4 MSTORE SWAP2 PUSH1 0x20 ADD SWAP2 PUSH2 0x16C9 JUMP JUMPDEST DUP3 ADD SWAP2 SWAP1 PUSH1 0x0 MSTORE PUSH1 0x20 PUSH1 0x0 KECCAK256 SWAP1 JUMPDEST DUP2 SLOAD DUP2 MSTORE SWAP1 PUSH1 0x1 ADD SWAP1 PUSH1 0x20 ADD DUP1 DUP4 GT PUSH2 0x16AC JUMPI DUP3 SWAP1 SUB PUSH1 0x1F AND DUP3 ADD SWAP2 JUMPDEST POP POP POP POP POP DUP2 JUMP JUMPDEST PUSH1 0x60 PUSH1 0x0 PUSH2 0x16E5 PUSH2 0x16E0 PUSH2 0x11AD JUMP JUMPDEST PUSH2 0xFD5 JUMP JUMPDEST SWAP1 POP PUSH1 0x0 PUSH2 0x16F2 DUP5 PUSH2 0x226A JUMP JUMPDEST PUSH2 0x16FB DUP4 PUSH2 0x261D JUMP JUMPDEST PUSH1 0x40 MLOAD PUSH1 0x20 ADD PUSH2 0x170C SWAP3 SWAP2 SWAP1 PUSH2 0x4BCB JUMP JUMPDEST PUSH1 0x40 MLOAD PUSH1 0x20 DUP2 DUP4 SUB SUB DUP2 MSTORE SWAP1 PUSH1 0x40 MSTORE SWAP1 POP PUSH2 0x1726 DUP2 PUSH2 0x261D JUMP JUMPDEST PUSH1 0x40 MLOAD PUSH1 0x20 ADD PUSH2 0x1736 SWAP2 SWAP1 PUSH2 0x4C5C JUMP JUMPDEST PUSH1 0x40 MLOAD PUSH1 0x20 DUP2 DUP4 SUB SUB DUP2 MSTORE SWAP1 PUSH1 0x40 MSTORE SWAP3 POP POP POP SWAP2 SWAP1 POP JUMP JUMPDEST PUSH1 0x0 DUP4 GT DUP1 ISZERO PUSH2 0x175E JUMPI POP PUSH1 0x41 DUP4 LT JUMPDEST PUSH2 0x179D JUMPI PUSH1 0x40 MLOAD PUSH32 0x8C379A000000000000000000000000000000000000000000000000000000000 DUP2 MSTORE PUSH1 0x4 ADD PUSH2 0x1794 SWAP1 PUSH2 0x4CCA JUMP JUMPDEST PUSH1 0x40 MLOAD DUP1 SWAP2 SUB SWAP1 REVERT JUMPDEST PUSH2 0x17A6 DUP3 PUSH2 0x155F JUMP JUMPDEST PUSH2 0x17E5 JUMPI PUSH1 0x40 MLOAD PUSH32 0x8C379A000000000000000000000000000000000000000000000000000000000 DUP2 MSTORE PUSH1 0x4 ADD PUSH2 0x17DC SWAP1 PUSH2 0x4D36 JUMP JUMPDEST PUSH1 0x40 MLOAD DUP1 SWAP2 SUB SWAP1 REVERT JUMPDEST CALLER PUSH20 0xFFFFFFFFFFFFFFFFFFFFFFFFFFFFFFFFFFFFFFFF AND PUSH1 0x10 PUSH1 0x0 SWAP1 SLOAD SWAP1 PUSH2 0x100 EXP SWAP1 DIV PUSH20 0xFFFFFFFFFFFFFFFFFFFFFFFFFFFFFFFFFFFFFFFF AND PUSH20 0xFFFFFFFFFFFFFFFFFFFFFFFFFFFFFFFFFFFFFFFF AND PUSH4 0x6352211E DUP4 PUSH1 0x40 MLOAD DUP3 PUSH4 0xFFFFFFFF AND PUSH1 0xE0 SHL DUP2 MSTORE PUSH1 0x4 ADD PUSH2 0x1857 SWAP2 SWAP1 PUSH2 0x28F3 JUMP JUMPDEST PUSH1 0x20 PUSH1 0x40 MLOAD DUP1 DUP4 SUB DUP2 DUP7 GAS STATICCALL ISZERO DUP1 ISZERO PUSH2 0x1874 JUMPI RETURNDATASIZE PUSH1 0x0 DUP1 RETURNDATACOPY RETURNDATASIZE PUSH1 0x0 REVERT JUMPDEST POP POP POP POP PUSH1 0x40 MLOAD RETURNDATASIZE PUSH1 0x1F NOT PUSH1 0x1F DUP3 ADD AND DUP3 ADD DUP1 PUSH1 0x40 MSTORE POP DUP2 ADD SWAP1 PUSH2 0x1898 SWAP2 SWAP1 PUSH2 0x4D6B JUMP JUMPDEST PUSH20 0xFFFFFFFFFFFFFFFFFFFFFFFFFFFFFFFFFFFFFFFF AND EQ PUSH2 0x18EE JUMPI PUSH1 0x40 MLOAD PUSH32 0x8C379A000000000000000000000000000000000000000000000000000000000 DUP2 MSTORE PUSH1 0x4 ADD PUSH2 0x18E5 SWAP1 PUSH2 0x4DE4 JUMP JUMPDEST PUSH1 0x40 MLOAD DUP1 SWAP2 SUB SWAP1 REVERT JUMPDEST PUSH1 0x0 ISZERO ISZERO PUSH1 0xF PUSH1 0x0 DUP4 DUP2 MSTORE PUSH1 0x20 ADD SWAP1 DUP2 MSTORE PUSH1 0x20 ADD PUSH1 0x0 KECCAK256 PUSH1 0x0 SWAP1 SLOAD SWAP1 PUSH2 0x100 EXP SWAP1 DIV PUSH1 0xFF AND ISZERO ISZERO EQ PUSH2 0x1955 JUMPI PUSH1 0x40 MLOAD PUSH32 0x8C379A000000000000000000000000000000000000000000000000000000000 DUP2 MSTORE PUSH1 0x4 ADD PUSH2 0x194C SWAP1 PUSH2 0x4E50 JUMP JUMPDEST PUSH1 0x40 MLOAD DUP1 SWAP2 SUB SWAP1 REVERT JUMPDEST PUSH1 0x0 PUSH2 0x1960 CALLER PUSH2 0x10E1 JUMP JUMPDEST GT PUSH2 0x19A0 JUMPI PUSH1 0x40 MLOAD PUSH32 0x8C379A000000000000000000000000000000000000000000000000000000000 DUP2 MSTORE PUSH1 0x4 ADD PUSH2 0x1997 SWAP1 PUSH2 0x4EBC JUMP JUMPDEST PUSH1 0x40 MLOAD DUP1 SWAP2 SUB SWAP1 REVERT JUMPDEST PUSH1 0x0 PUSH2 0x19C3 DUP4 PUSH1 0x0 PUSH1 0x3 DUP2 LT PUSH2 0x19B9 JUMPI PUSH2 0x19B8 PUSH2 0x4A20 JUMP JUMPDEST JUMPDEST PUSH1 0x20 MUL ADD MLOAD PUSH2 0x226A JUMP JUMPDEST PUSH2 0x19E4 DUP5 PUSH1 0x1 PUSH1 0x3 DUP2 LT PUSH2 0x19DA JUMPI PUSH2 0x19D9 PUSH2 0x4A20 JUMP JUMPDEST JUMPDEST PUSH1 0x20 MUL ADD MLOAD PUSH2 0x226A JUMP JUMPDEST PUSH2 0x1A05 DUP6 PUSH1 0x2 PUSH1 0x3 DUP2 LT PUSH2 0x19FB JUMPI PUSH2 0x19FA PUSH2 0x4A20 JUMP JUMPDEST JUMPDEST PUSH1 0x20 MUL ADD MLOAD PUSH2 0x226A JUMP JUMPDEST PUSH1 0x40 MLOAD PUSH1 0x20 ADD PUSH2 0x1A17 SWAP4 SWAP3 SWAP2 SWAP1 PUSH2 0x4FC0 JUMP JUMPDEST PUSH1 0x40 MLOAD PUSH1 0x20 DUP2 DUP4 SUB SUB DUP2 MSTORE SWAP1 PUSH1 0x40 MSTORE SWAP1 POP DUP1 PUSH1 0xE PUSH1 0x0 DUP7 DUP2 MSTORE PUSH1 0x20 ADD SWAP1 DUP2 MSTORE PUSH1 0x20 ADD PUSH1 0x0 KECCAK256 SWAP1 DUP2 PUSH2 0x1A48 SWAP2 SWAP1 PUSH2 0x51B4 JUMP JUMPDEST POP PUSH1 0x11 PUSH1 0x0 SWAP1 SLOAD SWAP1 PUSH2 0x100 EXP SWAP1 DIV PUSH20 0xFFFFFFFFFFFFFFFFFFFFFFFFFFFFFFFFFFFFFFFF AND PUSH20 0xFFFFFFFFFFFFFFFFFFFFFFFFFFFFFFFFFFFFFFFF AND PUSH4 0x10B4B038 PUSH1 0x1 PUSH1 0xD SLOAD PUSH2 0x1A96 SWAP2 SWAP1 PUSH2 0x3203 JUMP JUMPDEST DUP7 DUP5 CALLER DUP8 TIMESTAMP PUSH1 0x40 MLOAD DUP8 PUSH4 0xFFFFFFFF AND PUSH1 0xE0 SHL DUP2 MSTORE PUSH1 0x4 ADD PUSH2 0x1ABC SWAP7 SWAP6 SWAP5 SWAP4 SWAP3 SWAP2 SWAP1 PUSH2 0x5286 JUMP JUMPDEST PUSH1 0x0 PUSH1 0x40 MLOAD DUP1 DUP4 SUB DUP2 PUSH1 0x0 DUP8 DUP1 EXTCODESIZE ISZERO DUP1 ISZERO PUSH2 0x1AD6 JUMPI PUSH1 0x0 DUP1 REVERT JUMPDEST POP GAS CALL ISZERO DUP1 ISZERO PUSH2 0x1AEA JUMPI RETURNDATASIZE PUSH1 0x0 DUP1 RETURNDATACOPY RETURNDATASIZE PUSH1 0x0 REVERT JUMPDEST POP POP POP POP PUSH1 0xD PUSH1 0x0 DUP2 SLOAD DUP1 SWAP3 SWAP2 SWAP1 PUSH2 0x1B01 SWAP1 PUSH2 0x4696 JUMP JUMPDEST SWAP2 SWAP1 POP SSTORE POP PUSH1 0x1 PUSH1 0xF PUSH1 0x0 DUP5 DUP2 MSTORE PUSH1 0x20 ADD SWAP1 DUP2 MSTORE PUSH1 0x20 ADD PUSH1 0x0 KECCAK256 PUSH1 0x0 PUSH2 0x100 EXP DUP2 SLOAD DUP2 PUSH1 0xFF MUL NOT AND SWAP1 DUP4 ISZERO ISZERO MUL OR SWAP1 SSTORE POP POP POP POP POP JUMP JUMPDEST PUSH1 0x0 PUSH1 0x7 PUSH1 0x0 DUP5 PUSH20 0xFFFFFFFFFFFFFFFFFFFFFFFFFFFFFFFFFFFFFFFF AND PUSH20 0xFFFFFFFFFFFFFFFFFFFFFFFFFFFFFFFFFFFFFFFF AND DUP2 MSTORE PUSH1 0x20 ADD SWAP1 DUP2 MSTORE PUSH1 0x20 ADD PUSH1 0x0 KECCAK256 PUSH1 0x0 DUP4 PUSH20 0xFFFFFFFFFFFFFFFFFFFFFFFFFFFFFFFFFFFFFFFF AND PUSH20 0xFFFFFFFFFFFFFFFFFFFFFFFFFFFFFFFFFFFFFFFF AND DUP2 MSTORE PUSH1 0x20 ADD SWAP1 DUP2 MSTORE PUSH1 0x20 ADD PUSH1 0x0 KECCAK256 PUSH1 0x0 SWAP1 SLOAD SWAP1 PUSH2 0x100 EXP SWAP1 DIV PUSH1 0xFF AND SWAP1 POP SWAP3 SWAP2 POP POP JUMP JUMPDEST PUSH2 0x1BD4 PUSH2 0x2126 JUMP JUMPDEST PUSH1 0x0 PUSH20 0xFFFFFFFFFFFFFFFFFFFFFFFFFFFFFFFFFFFFFFFF AND DUP2 PUSH20 0xFFFFFFFFFFFFFFFFFFFFFFFFFFFFFFFFFFFFFFFF AND SUB PUSH2 0x1C43 JUMPI PUSH1 0x40 MLOAD PUSH32 0x8C379A000000000000000000000000000000000000000000000000000000000 DUP2 MSTORE PUSH1 0x4 ADD PUSH2 0x1C3A SWAP1 PUSH2 0x5360 JUMP JUMPDEST PUSH1 0x40 MLOAD DUP1 SWAP2 SUB SWAP1 REVERT JUMPDEST PUSH2 0x1C4C DUP2 PUSH2 0x21A4 JUMP JUMPDEST POP JUMP JUMPDEST PUSH1 0x0 PUSH4 0x1FFC9A7 PUSH1 0xE0 SHL DUP3 PUSH28 0xFFFFFFFFFFFFFFFFFFFFFFFFFFFFFFFFFFFFFFFFFFFFFFFFFFFFFFFF NOT AND EQ DUP1 PUSH2 0x1CAA JUMPI POP PUSH4 0x80AC58CD PUSH1 0xE0 SHL DUP3 PUSH28 0xFFFFFFFFFFFFFFFFFFFFFFFFFFFFFFFFFFFFFFFFFFFFFFFFFFFFFFFF NOT AND EQ JUMPDEST DUP1 PUSH2 0x1CDA JUMPI POP PUSH4 0x5B5E139F PUSH1 0xE0 SHL DUP3 PUSH28 0xFFFFFFFFFFFFFFFFFFFFFFFFFFFFFFFFFFFFFFFFFFFFFFFFFFFFFFFF NOT AND EQ JUMPDEST SWAP1 POP SWAP2 SWAP1 POP JUMP JUMPDEST PUSH1 0x0 PUSH32 0x2A55205A00000000000000000000000000000000000000000000000000000000 PUSH28 0xFFFFFFFFFFFFFFFFFFFFFFFFFFFFFFFFFFFFFFFFFFFFFFFFFFFFFFFF NOT AND DUP3 PUSH28 0xFFFFFFFFFFFFFFFFFFFFFFFFFFFFFFFFFFFFFFFFFFFFFFFFFFFFFFFF NOT AND EQ DUP1 PUSH2 0x1D54 JUMPI POP PUSH2 0x1D53 DUP3 PUSH2 0x2780 JUMP JUMPDEST JUMPDEST SWAP1 POP SWAP2 SWAP1 POP JUMP JUMPDEST PUSH1 0x0 DUP2 PUSH2 0x1D66 PUSH2 0x1F7D JUMP JUMPDEST GT ISZERO DUP1 ISZERO PUSH2 0x1D75 JUMPI POP PUSH1 0x0 SLOAD DUP3 LT JUMPDEST DUP1 ISZERO PUSH2 0x1DB3 JUMPI POP PUSH1 0x0 PUSH29 0x100000000000000000000000000000000000000000000000000000000 PUSH1 0x4 PUSH1 0x0 DUP6 DUP2 MSTORE PUSH1 0x20 ADD SWAP1 DUP2 MSTORE PUSH1 0x20 ADD PUSH1 0x0 KECCAK256 SLOAD AND EQ JUMPDEST SWAP1 POP SWAP2 SWAP1 POP JUMP JUMPDEST PUSH1 0x0 CALLER SWAP1 POP SWAP1 JUMP JUMPDEST PUSH1 0x0 DUP1 SLOAD SWAP1 POP PUSH1 0x0 DUP3 SUB PUSH2 0x1E02 JUMPI PUSH1 0x40 MLOAD PUSH32 0xB562E8DD00000000000000000000000000000000000000000000000000000000 DUP2 MSTORE PUSH1 0x4 ADD PUSH1 0x40 MLOAD DUP1 SWAP2 SUB SWAP1 REVERT JUMPDEST PUSH2 0x1E0F PUSH1 0x0 DUP5 DUP4 DUP6 PUSH2 0x20BD JUMP JUMPDEST PUSH1 0x1 PUSH1 0x40 PUSH1 0x1 SWAP1 SHL OR DUP3 MUL PUSH1 0x5 PUSH1 0x0 DUP6 PUSH20 0xFFFFFFFFFFFFFFFFFFFFFFFFFFFFFFFFFFFFFFFF AND PUSH20 0xFFFFFFFFFFFFFFFFFFFFFFFFFFFFFFFFFFFFFFFF AND DUP2 MSTORE PUSH1 0x20 ADD SWAP1 DUP2 MSTORE PUSH1 0x20 ADD PUSH1 0x0 KECCAK256 PUSH1 0x0 DUP3 DUP3 SLOAD ADD SWAP3 POP POP DUP2 SWAP1 SSTORE POP PUSH2 0x1E86 DUP4 PUSH2 0x1E77 PUSH1 0x0 DUP7 PUSH1 0x0 PUSH2 0x20C3 JUMP JUMPDEST PUSH2 0x1E80 DUP6 PUSH2 0x27EA JUMP JUMPDEST OR PUSH2 0x20EB JUMP JUMPDEST PUSH1 0x4 PUSH1 0x0 DUP4 DUP2 MSTORE PUSH1 0x20 ADD SWAP1 DUP2 MSTORE PUSH1 0x20 ADD PUSH1 0x0 KECCAK256 DUP2 SWAP1 SSTORE POP PUSH1 0x0 DUP1 DUP4 DUP4 ADD SWAP1 POP PUSH20 0xFFFFFFFFFFFFFFFFFFFFFFFFFFFFFFFFFFFFFFFF DUP6 AND SWAP2 POP DUP3 DUP3 PUSH1 0x0 PUSH32 0xDDF252AD1BE2C89B69C2B068FC378DAA952BA7F163C4A11628F55A4DF523B3EF PUSH1 0x0 DUP1 LOG4 PUSH1 0x1 DUP4 ADD JUMPDEST DUP2 DUP2 EQ PUSH2 0x1F27 JUMPI DUP1 DUP4 PUSH1 0x0 PUSH32 0xDDF252AD1BE2C89B69C2B068FC378DAA952BA7F163C4A11628F55A4DF523B3EF PUSH1 0x0 DUP1 LOG4 PUSH1 0x1 DUP2 ADD SWAP1 POP PUSH2 0x1EEC JUMP JUMPDEST POP PUSH1 0x0 DUP3 SUB PUSH2 0x1F62 JUMPI PUSH1 0x40 MLOAD PUSH32 0x2E07630000000000000000000000000000000000000000000000000000000000 DUP2 MSTORE PUSH1 0x4 ADD PUSH1 0x40 MLOAD DUP1 SWAP2 SUB SWAP1 REVERT JUMPDEST DUP1 PUSH1 0x0 DUP2 SWAP1 SSTORE POP POP POP PUSH2 0x1F78 PUSH1 0x0 DUP5 DUP4 DUP6 PUSH2 0x2116 JUMP JUMPDEST POP POP POP JUMP JUMPDEST PUSH1 0x0 PUSH1 0x1 SWAP1 POP SWAP1 JUMP JUMPDEST PUSH1 0x0 DUP1 DUP3 SWAP1 POP DUP1 PUSH2 0x1F95 PUSH2 0x1F7D JUMP JUMPDEST GT PUSH2 0x201B JUMPI PUSH1 0x0 SLOAD DUP2 LT ISZERO PUSH2 0x201A JUMPI PUSH1 0x0 PUSH1 0x4 PUSH1 0x0 DUP4 DUP2 MSTORE PUSH1 0x20 ADD SWAP1 DUP2 MSTORE PUSH1 0x20 ADD PUSH1 0x0 KECCAK256 SLOAD SWAP1 POP PUSH1 0x0 PUSH29 0x100000000000000000000000000000000000000000000000000000000 DUP3 AND SUB PUSH2 0x2018 JUMPI JUMPDEST PUSH1 0x0 DUP2 SUB PUSH2 0x200E JUMPI PUSH1 0x4 PUSH1 0x0 DUP4 PUSH1 0x1 SWAP1 SUB SWAP4 POP DUP4 DUP2 MSTORE PUSH1 0x20 ADD SWAP1 DUP2 MSTORE PUSH1 0x20 ADD PUSH1 0x0 KECCAK256 SLOAD SWAP1 POP PUSH2 0x1FE4 JUMP JUMPDEST DUP1 SWAP3 POP POP POP PUSH2 0x204D JUMP JUMPDEST POP JUMPDEST JUMPDEST PUSH1 0x40 MLOAD PUSH32 0xDF2D9B4200000000000000000000000000000000000000000000000000000000 DUP2 MSTORE PUSH1 0x4 ADD PUSH1 0x40 MLOAD DUP1 SWAP2 SUB SWAP1 REVERT JUMPDEST SWAP2 SWAP1 POP JUMP JUMPDEST PUSH1 0x0 DUP1 PUSH1 0x0 PUSH1 0x6 PUSH1 0x0 DUP6 DUP2 MSTORE PUSH1 0x20 ADD SWAP1 DUP2 MSTORE PUSH1 0x20 ADD PUSH1 0x0 KECCAK256 SWAP1 POP DUP1 SWAP3 POP DUP3 SLOAD SWAP2 POP POP SWAP2 POP SWAP2 JUMP JUMPDEST PUSH1 0x0 PUSH20 0xFFFFFFFFFFFFFFFFFFFFFFFFFFFFFFFFFFFFFFFF DUP4 AND SWAP3 POP PUSH20 0xFFFFFFFFFFFFFFFFFFFFFFFFFFFFFFFFFFFFFFFF DUP3 AND SWAP2 POP DUP4 DUP3 EQ DUP4 DUP4 EQ OR SWAP1 POP SWAP4 SWAP3 POP POP POP JUMP JUMPDEST POP POP POP POP JUMP JUMPDEST PUSH1 0x0 DUP1 PUSH1 0xE8 DUP4 SWAP1 SHR SWAP1 POP PUSH1 0xE8 PUSH2 0x20DA DUP7 DUP7 DUP5 PUSH2 0x27FA JUMP JUMPDEST PUSH3 0xFFFFFF AND SWAP1 SHL SWAP2 POP POP SWAP4 SWAP3 POP POP POP JUMP JUMPDEST PUSH1 0x0 PUSH20 0xFFFFFFFFFFFFFFFFFFFFFFFFFFFFFFFFFFFFFFFF DUP4 AND SWAP3 POP DUP2 TIMESTAMP PUSH1 0xA0 SHL OR DUP4 OR SWAP1 POP SWAP3 SWAP2 POP POP JUMP JUMPDEST POP POP POP POP JUMP JUMPDEST PUSH1 0x0 PUSH2 0x2710 SWAP1 POP SWAP1 JUMP JUMPDEST PUSH2 0x212E PUSH2 0x2803 JUMP JUMPDEST PUSH20 0xFFFFFFFFFFFFFFFFFFFFFFFFFFFFFFFFFFFFFFFF AND PUSH2 0x214C PUSH2 0x1216 JUMP JUMPDEST PUSH20 0xFFFFFFFFFFFFFFFFFFFFFFFFFFFFFFFFFFFFFFFF AND EQ PUSH2 0x21A2 JUMPI PUSH1 0x40 MLOAD PUSH32 0x8C379A000000000000000000000000000000000000000000000000000000000 DUP2 MSTORE PUSH1 0x4 ADD PUSH2 0x2199 SWAP1 PUSH2 0x53CC JUMP JUMPDEST PUSH1 0x40 MLOAD DUP1 SWAP2 SUB SWAP1 REVERT JUMPDEST JUMP JUMPDEST PUSH1 0x0 PUSH1 0x8 PUSH1 0x0 SWAP1 SLOAD SWAP1 PUSH2 0x100 EXP SWAP1 DIV PUSH20 0xFFFFFFFFFFFFFFFFFFFFFFFFFFFFFFFFFFFFFFFF AND SWAP1 POP DUP2 PUSH1 0x8 PUSH1 0x0 PUSH2 0x100 EXP DUP2 SLOAD DUP2 PUSH20 0xFFFFFFFFFFFFFFFFFFFFFFFFFFFFFFFFFFFFFFFF MUL NOT AND SWAP1 DUP4 PUSH20 0xFFFFFFFFFFFFFFFFFFFFFFFFFFFFFFFFFFFFFFFF AND MUL OR SWAP1 SSTORE POP DUP2 PUSH20 0xFFFFFFFFFFFFFFFFFFFFFFFFFFFFFFFFFFFFFFFF AND DUP2 PUSH20 0xFFFFFFFFFFFFFFFFFFFFFFFFFFFFFFFFFFFFFFFF AND PUSH32 0x8BE0079C531659141344CD1FD0A4F28419497F9722A3DAAFE3B4186F6B6457E0 PUSH1 0x40 MLOAD PUSH1 0x40 MLOAD DUP1 SWAP2 SUB SWAP1 LOG3 POP POP JUMP JUMPDEST PUSH1 0x60 PUSH1 0xA0 PUSH1 0x40 MLOAD ADD DUP1 PUSH1 0x40 MSTORE PUSH1 0x20 DUP2 SUB SWAP2 POP PUSH1 0x0 DUP3 MSTORE DUP2 DUP4 JUMPDEST PUSH1 0x1 ISZERO PUSH2 0x22A5 JUMPI PUSH1 0x1 DUP5 SUB SWAP4 POP PUSH1 0xA DUP2 MOD PUSH1 0x30 ADD DUP5 MSTORE8 PUSH1 0xA DUP2 DIV SWAP1 POP DUP1 PUSH2 0x2283 JUMPI JUMPDEST POP DUP3 DUP2 SUB PUSH1 0x20 DUP5 SUB SWAP4 POP DUP1 DUP5 MSTORE POP POP POP SWAP2 SWAP1 POP JUMP JUMPDEST PUSH2 0x22C2 PUSH2 0x211C JUMP JUMPDEST PUSH12 0xFFFFFFFFFFFFFFFFFFFFFFFF AND DUP2 PUSH12 0xFFFFFFFFFFFFFFFFFFFFFFFF AND GT ISZERO PUSH2 0x2320 JUMPI PUSH1 0x40 MLOAD PUSH32 0x8C379A000000000000000000000000000000000000000000000000000000000 DUP2 MSTORE PUSH1 0x4 ADD PUSH2 0x2317 SWAP1 PUSH2 0x545E JUMP JUMPDEST PUSH1 0x40 MLOAD DUP1 SWAP2 SUB SWAP1 REVERT JUMPDEST PUSH1 0x0 PUSH20 0xFFFFFFFFFFFFFFFFFFFFFFFFFFFFFFFFFFFFFFFF AND DUP3 PUSH20 0xFFFFFFFFFFFFFFFFFFFFFFFFFFFFFFFFFFFFFFFF AND SUB PUSH2 0x238F JUMPI PUSH1 0x40 MLOAD PUSH32 0x8C379A000000000000000000000000000000000000000000000000000000000 DUP2 MSTORE PUSH1 0x4 ADD PUSH2 0x2386 SWAP1 PUSH2 0x54CA JUMP JUMPDEST PUSH1 0x40 MLOAD DUP1 SWAP2 SUB SWAP1 REVERT JUMPDEST PUSH1 0x40 MLOAD DUP1 PUSH1 0x40 ADD PUSH1 0x40 MSTORE DUP1 DUP4 PUSH20 0xFFFFFFFFFFFFFFFFFFFFFFFFFFFFFFFFFFFFFFFF AND DUP2 MSTORE PUSH1 0x20 ADD DUP3 PUSH12 0xFFFFFFFFFFFFFFFFFFFFFFFF AND DUP2 MSTORE POP PUSH1 0x9 PUSH1 0x0 DUP3 ADD MLOAD DUP2 PUSH1 0x0 ADD PUSH1 0x0 PUSH2 0x100 EXP DUP2 SLOAD DUP2 PUSH20 0xFFFFFFFFFFFFFFFFFFFFFFFFFFFFFFFFFFFFFFFF MUL NOT AND SWAP1 DUP4 PUSH20 0xFFFFFFFFFFFFFFFFFFFFFFFFFFFFFFFFFFFFFFFF AND MUL OR SWAP1 SSTORE POP PUSH1 0x20 DUP3 ADD MLOAD DUP2 PUSH1 0x0 ADD PUSH1 0x14 PUSH2 0x100 EXP DUP2 SLOAD DUP2 PUSH12 0xFFFFFFFFFFFFFFFFFFFFFFFF MUL NOT AND SWAP1 DUP4 PUSH12 0xFFFFFFFFFFFFFFFFFFFFFFFF AND MUL OR SWAP1 SSTORE POP SWAP1 POP POP POP POP JUMP JUMPDEST PUSH1 0xA DUP2 GT ISZERO PUSH2 0x24BF JUMPI PUSH1 0x0 PUSH1 0xA DUP3 PUSH2 0x2467 SWAP2 SWAP1 PUSH2 0x31D2 JUMP JUMPDEST SWAP1 POP PUSH1 0x0 PUSH1 0xA DUP4 PUSH2 0x2478 SWAP2 SWAP1 PUSH2 0x4665 JUMP JUMPDEST SWAP1 POP PUSH1 0x0 JUMPDEST DUP3 DUP2 LT ISZERO PUSH2 0x24A3 JUMPI PUSH2 0x2490 CALLER PUSH1 0xA PUSH2 0x1DC2 JUMP JUMPDEST DUP1 DUP1 PUSH2 0x249B SWAP1 PUSH2 0x4696 JUMP JUMPDEST SWAP2 POP POP PUSH2 0x247D JUMP JUMPDEST POP PUSH1 0x0 DUP2 GT ISZERO PUSH2 0x24B8 JUMPI PUSH2 0x24B7 CALLER DUP3 PUSH2 0x1DC2 JUMP JUMPDEST JUMPDEST POP POP PUSH2 0x24CA JUMP JUMPDEST PUSH2 0x24C9 CALLER DUP3 PUSH2 0x1DC2 JUMP JUMPDEST JUMPDEST POP JUMP JUMPDEST PUSH1 0x0 DUP4 PUSH20 0xFFFFFFFFFFFFFFFFFFFFFFFFFFFFFFFFFFFFFFFF AND PUSH4 0x150B7A02 PUSH2 0x24F3 PUSH2 0x1DBA JUMP JUMPDEST DUP8 DUP7 DUP7 PUSH1 0x40 MLOAD DUP6 PUSH4 0xFFFFFFFF AND PUSH1 0xE0 SHL DUP2 MSTORE PUSH1 0x4 ADD PUSH2 0x2515 SWAP5 SWAP4 SWAP3 SWAP2 SWAP1 PUSH2 0x553F JUMP JUMPDEST PUSH1 0x20 PUSH1 0x40 MLOAD DUP1 DUP4 SUB DUP2 PUSH1 0x0 DUP8 GAS CALL SWAP3 POP POP POP DUP1 ISZERO PUSH2 0x2551 JUMPI POP PUSH1 0x40 MLOAD RETURNDATASIZE PUSH1 0x1F NOT PUSH1 0x1F DUP3 ADD AND DUP3 ADD DUP1 PUSH1 0x40 MSTORE POP DUP2 ADD SWAP1 PUSH2 0x254E SWAP2 SWAP1 PUSH2 0x55A0 JUMP JUMPDEST PUSH1 0x1 JUMPDEST PUSH2 0x25CA JUMPI RETURNDATASIZE DUP1 PUSH1 0x0 DUP2 EQ PUSH2 0x2581 JUMPI PUSH1 0x40 MLOAD SWAP2 POP PUSH1 0x1F NOT PUSH1 0x3F RETURNDATASIZE ADD AND DUP3 ADD PUSH1 0x40 MSTORE RETURNDATASIZE DUP3 MSTORE RETURNDATASIZE PUSH1 0x0 PUSH1 0x20 DUP5 ADD RETURNDATACOPY PUSH2 0x2586 JUMP JUMPDEST PUSH1 0x60 SWAP2 POP JUMPDEST POP PUSH1 0x0 DUP2 MLOAD SUB PUSH2 0x25C2 JUMPI PUSH1 0x40 MLOAD PUSH32 0xD1A57ED600000000000000000000000000000000000000000000000000000000 DUP2 MSTORE PUSH1 0x4 ADD PUSH1 0x40 MLOAD DUP1 SWAP2 SUB SWAP1 REVERT JUMPDEST DUP1 MLOAD DUP2 PUSH1 0x20 ADD REVERT JUMPDEST PUSH4 0x150B7A02 PUSH1 0xE0 SHL PUSH28 0xFFFFFFFFFFFFFFFFFFFFFFFFFFFFFFFFFFFFFFFFFFFFFFFFFFFFFFFF NOT AND DUP2 PUSH28 0xFFFFFFFFFFFFFFFFFFFFFFFFFFFFFFFFFFFFFFFFFFFFFFFFFFFFFFFF NOT AND EQ SWAP2 POP POP SWAP5 SWAP4 POP POP POP POP JUMP JUMPDEST PUSH1 0x60 PUSH1 0x0 DUP3 MLOAD SUB PUSH2 0x263F JUMPI PUSH1 0x40 MLOAD DUP1 PUSH1 0x20 ADD PUSH1 0x40 MSTORE DUP1 PUSH1 0x0 DUP2 MSTORE POP SWAP1 POP PUSH2 0x277B JUMP JUMPDEST PUSH1 0x0 PUSH1 0x40 MLOAD DUP1 PUSH1 0x60 ADD PUSH1 0x40 MSTORE DUP1 PUSH1 0x40 DUP2 MSTORE PUSH1 0x20 ADD PUSH2 0x55CE PUSH1 0x40 SWAP2 CODECOPY SWAP1 POP PUSH1 0x0 PUSH1 0x3 PUSH1 0x2 DUP6 MLOAD PUSH2 0x266E SWAP2 SWAP1 PUSH2 0x3203 JUMP JUMPDEST PUSH2 0x2678 SWAP2 SWAP1 PUSH2 0x31D2 JUMP JUMPDEST PUSH1 0x4 PUSH2 0x2684 SWAP2 SWAP1 PUSH2 0x3161 JUMP JUMPDEST PUSH8 0xFFFFFFFFFFFFFFFF DUP2 GT ISZERO PUSH2 0x269D JUMPI PUSH2 0x269C PUSH2 0x2BA7 JUMP JUMPDEST JUMPDEST PUSH1 0x40 MLOAD SWAP1 DUP1 DUP3 MSTORE DUP1 PUSH1 0x1F ADD PUSH1 0x1F NOT AND PUSH1 0x20 ADD DUP3 ADD PUSH1 0x40 MSTORE DUP1 ISZERO PUSH2 0x26CF JUMPI DUP2 PUSH1 0x20 ADD PUSH1 0x1 DUP3 MUL DUP1 CALLDATASIZE DUP4 CALLDATACOPY DUP1 DUP3 ADD SWAP2 POP POP SWAP1 POP JUMPDEST POP SWAP1 POP PUSH1 0x1 DUP3 ADD PUSH1 0x20 DUP3 ADD DUP6 DUP7 MLOAD DUP8 ADD JUMPDEST DUP1 DUP3 LT ISZERO PUSH2 0x273B JUMPI PUSH1 0x3 DUP3 ADD SWAP2 POP DUP2 MLOAD PUSH1 0x3F DUP2 PUSH1 0x12 SHR AND DUP6 ADD MLOAD DUP5 MSTORE8 PUSH1 0x1 DUP5 ADD SWAP4 POP PUSH1 0x3F DUP2 PUSH1 0xC SHR AND DUP6 ADD MLOAD DUP5 MSTORE8 PUSH1 0x1 DUP5 ADD SWAP4 POP PUSH1 0x3F DUP2 PUSH1 0x6 SHR AND DUP6 ADD MLOAD DUP5 MSTORE8 PUSH1 0x1 DUP5 ADD SWAP4 POP PUSH1 0x3F DUP2 AND DUP6 ADD MLOAD DUP5 MSTORE8 PUSH1 0x1 DUP5 ADD SWAP4 POP POP PUSH2 0x26E0 JUMP JUMPDEST POP POP PUSH1 0x3 DUP7 MLOAD MOD PUSH1 0x1 DUP2 EQ PUSH2 0x2757 JUMPI PUSH1 0x2 DUP2 EQ PUSH2 0x276A JUMPI PUSH2 0x2772 JUMP JUMPDEST PUSH1 0x3D PUSH1 0x1 DUP4 SUB MSTORE8 PUSH1 0x3D PUSH1 0x2 DUP4 SUB MSTORE8 PUSH2 0x2772 JUMP JUMPDEST PUSH1 0x3D PUSH1 0x1 DUP4 SUB MSTORE8 JUMPDEST POP POP POP DUP1 SWAP3 POP POP POP JUMPDEST SWAP2 SWAP1 POP JUMP JUMPDEST PUSH1 0x0 PUSH32 0x1FFC9A700000000000000000000000000000000000000000000000000000000 PUSH28 0xFFFFFFFFFFFFFFFFFFFFFFFFFFFFFFFFFFFFFFFFFFFFFFFFFFFFFFFF NOT AND DUP3 PUSH28 0xFFFFFFFFFFFFFFFFFFFFFFFFFFFFFFFFFFFFFFFFFFFFFFFFFFFFFFFF NOT AND EQ SWAP1 POP SWAP2 SWAP1 POP JUMP JUMPDEST PUSH1 0x0 PUSH1 0x1 DUP3 EQ PUSH1 0xE1 SHL SWAP1 POP SWAP2 SWAP1 POP JUMP JUMPDEST PUSH1 0x0 SWAP4 SWAP3 POP POP POP JUMP JUMPDEST PUSH1 0x0 CALLER SWAP1 POP SWAP1 JUMP JUMPDEST PUSH1 0x0 PUSH1 0x40 MLOAD SWAP1 POP SWAP1 JUMP JUMPDEST PUSH1 0x0 DUP1 REVERT JUMPDEST PUSH1 0x0 DUP1 REVERT JUMPDEST PUSH1 0x0 PUSH32 0xFFFFFFFF00000000000000000000000000000000000000000000000000000000 DUP3 AND SWAP1 POP SWAP2 SWAP1 POP JUMP JUMPDEST PUSH2 0x2854 DUP2 PUSH2 0x281F JUMP JUMPDEST DUP2 EQ PUSH2 0x285F JUMPI PUSH1 0x0 DUP1 REVERT JUMPDEST POP JUMP JUMPDEST PUSH1 0x0 DUP2 CALLDATALOAD SWAP1 POP PUSH2 0x2871 DUP2 PUSH2 0x284B JUMP JUMPDEST SWAP3 SWAP2 POP POP JUMP JUMPDEST PUSH1 0x0 PUSH1 0x20 DUP3 DUP5 SUB SLT ISZERO PUSH2 0x288D JUMPI PUSH2 0x288C PUSH2 0x2815 JUMP JUMPDEST JUMPDEST PUSH1 0x0 PUSH2 0x289B DUP5 DUP3 DUP6 ADD PUSH2 0x2862 JUMP JUMPDEST SWAP2 POP POP SWAP3 SWAP2 POP POP JUMP JUMPDEST PUSH1 0x0 DUP2 ISZERO ISZERO SWAP1 POP SWAP2 SWAP1 POP JUMP JUMPDEST PUSH2 0x28B9 DUP2 PUSH2 0x28A4 JUMP JUMPDEST DUP3 MSTORE POP POP JUMP JUMPDEST PUSH1 0x0 PUSH1 0x20 DUP3 ADD SWAP1 POP PUSH2 0x28D4 PUSH1 0x0 DUP4 ADD DUP5 PUSH2 0x28B0 JUMP JUMPDEST SWAP3 SWAP2 POP POP JUMP JUMPDEST PUSH1 0x0 DUP2 SWAP1 POP SWAP2 SWAP1 POP JUMP JUMPDEST PUSH2 0x28ED DUP2 PUSH2 0x28DA JUMP JUMPDEST DUP3 MSTORE POP POP JUMP JUMPDEST PUSH1 0x0 PUSH1 0x20 DUP3 ADD SWAP1 POP PUSH2 0x2908 PUSH1 0x0 DUP4 ADD DUP5 PUSH2 0x28E4 JUMP JUMPDEST SWAP3 SWAP2 POP POP JUMP JUMPDEST PUSH1 0x0 DUP2 MLOAD SWAP1 POP SWAP2 SWAP1 POP JUMP JUMPDEST PUSH1 0x0 DUP3 DUP3 MSTORE PUSH1 0x20 DUP3 ADD SWAP1 POP SWAP3 SWAP2 POP POP JUMP JUMPDEST PUSH1 0x0 JUMPDEST DUP4 DUP2 LT ISZERO PUSH2 0x2948 JUMPI DUP1 DUP3 ADD MLOAD DUP2 DUP5 ADD MSTORE PUSH1 0x20 DUP2 ADD SWAP1 POP PUSH2 0x292D JUMP JUMPDEST PUSH1 0x0 DUP5 DUP5 ADD MSTORE POP POP POP POP JUMP JUMPDEST PUSH1 0x0 PUSH1 0x1F NOT PUSH1 0x1F DUP4 ADD AND SWAP1 POP SWAP2 SWAP1 POP JUMP JUMPDEST PUSH1 0x0 PUSH2 0x2970 DUP3 PUSH2 0x290E JUMP JUMPDEST PUSH2 0x297A DUP2 DUP6 PUSH2 0x2919 JUMP JUMPDEST SWAP4 POP PUSH2 0x298A DUP2 DUP6 PUSH1 0x20 DUP7 ADD PUSH2 0x292A JUMP JUMPDEST PUSH2 0x2993 DUP2 PUSH2 0x2954 JUMP JUMPDEST DUP5 ADD SWAP2 POP POP SWAP3 SWAP2 POP POP JUMP JUMPDEST PUSH1 0x0 PUSH1 0x20 DUP3 ADD SWAP1 POP DUP2 DUP2 SUB PUSH1 0x0 DUP4 ADD MSTORE PUSH2 0x29B8 DUP2 DUP5 PUSH2 0x2965 JUMP JUMPDEST SWAP1 POP SWAP3 SWAP2 POP POP JUMP JUMPDEST PUSH2 0x29C9 DUP2 PUSH2 0x28DA JUMP JUMPDEST DUP2 EQ PUSH2 0x29D4 JUMPI PUSH1 0x0 DUP1 REVERT JUMPDEST POP JUMP JUMPDEST PUSH1 0x0 DUP2 CALLDATALOAD SWAP1 POP PUSH2 0x29E6 DUP2 PUSH2 0x29C0 JUMP JUMPDEST SWAP3 SWAP2 POP POP JUMP JUMPDEST PUSH1 0x0 PUSH1 0x20 DUP3 DUP5 SUB SLT ISZERO PUSH2 0x2A02 JUMPI PUSH2 0x2A01 PUSH2 0x2815 JUMP JUMPDEST JUMPDEST PUSH1 0x0 PUSH2 0x2A10 DUP5 DUP3 DUP6 ADD PUSH2 0x29D7 JUMP JUMPDEST SWAP2 POP POP SWAP3 SWAP2 POP POP JUMP JUMPDEST PUSH1 0x0 PUSH20 0xFFFFFFFFFFFFFFFFFFFFFFFFFFFFFFFFFFFFFFFF DUP3 AND SWAP1 POP SWAP2 SWAP1 POP JUMP JUMPDEST PUSH1 0x0 PUSH2 0x2A44 DUP3 PUSH2 0x2A19 JUMP JUMPDEST SWAP1 POP SWAP2 SWAP1 POP JUMP JUMPDEST PUSH2 0x2A54 DUP2 PUSH2 0x2A39 JUMP JUMPDEST DUP3 MSTORE POP POP JUMP JUMPDEST PUSH1 0x0 PUSH1 0x20 DUP3 ADD SWAP1 POP PUSH2 0x2A6F PUSH1 0x0 DUP4 ADD DUP5 PUSH2 0x2A4B JUMP JUMPDEST SWAP3 SWAP2 POP POP JUMP JUMPDEST PUSH2 0x2A7E DUP2 PUSH2 0x2A39 JUMP JUMPDEST DUP2 EQ PUSH2 0x2A89 JUMPI PUSH1 0x0 DUP1 REVERT JUMPDEST POP JUMP JUMPDEST PUSH1 0x0 DUP2 CALLDATALOAD SWAP1 POP PUSH2 0x2A9B DUP2 PUSH2 0x2A75 JUMP JUMPDEST SWAP3 SWAP2 POP POP JUMP JUMPDEST PUSH1 0x0 DUP1 PUSH1 0x40 DUP4 DUP6 SUB SLT ISZERO PUSH2 0x2AB8 JUMPI PUSH2 0x2AB7 PUSH2 0x2815 JUMP JUMPDEST JUMPDEST PUSH1 0x0 PUSH2 0x2AC6 DUP6 DUP3 DUP7 ADD PUSH2 0x2A8C JUMP JUMPDEST SWAP3 POP POP PUSH1 0x20 PUSH2 0x2AD7 DUP6 DUP3 DUP7 ADD PUSH2 0x29D7 JUMP JUMPDEST SWAP2 POP POP SWAP3 POP SWAP3 SWAP1 POP JUMP JUMPDEST PUSH1 0x0 DUP1 PUSH1 0x0 PUSH1 0x60 DUP5 DUP7 SUB SLT ISZERO PUSH2 0x2AFA JUMPI PUSH2 0x2AF9 PUSH2 0x2815 JUMP JUMPDEST JUMPDEST PUSH1 0x0 PUSH2 0x2B08 DUP7 DUP3 DUP8 ADD PUSH2 0x2A8C JUMP JUMPDEST SWAP4 POP POP PUSH1 0x20 PUSH2 0x2B19 DUP7 DUP3 DUP8 ADD PUSH2 0x2A8C JUMP JUMPDEST SWAP3 POP POP PUSH1 0x40 PUSH2 0x2B2A DUP7 DUP3 DUP8 ADD PUSH2 0x29D7 JUMP JUMPDEST SWAP2 POP POP SWAP3 POP SWAP3 POP SWAP3 JUMP JUMPDEST PUSH1 0x0 DUP1 PUSH1 0x40 DUP4 DUP6 SUB SLT ISZERO PUSH2 0x2B4B JUMPI PUSH2 0x2B4A PUSH2 0x2815 JUMP JUMPDEST JUMPDEST PUSH1 0x0 PUSH2 0x2B59 DUP6 DUP3 DUP7 ADD PUSH2 0x29D7 JUMP JUMPDEST SWAP3 POP POP PUSH1 0x20 PUSH2 0x2B6A DUP6 DUP3 DUP7 ADD PUSH2 0x29D7 JUMP JUMPDEST SWAP2 POP POP SWAP3 POP SWAP3 SWAP1 POP JUMP JUMPDEST PUSH1 0x0 PUSH1 0x40 DUP3 ADD SWAP1 POP PUSH2 0x2B89 PUSH1 0x0 DUP4 ADD DUP6 PUSH2 0x2A4B JUMP JUMPDEST PUSH2 0x2B96 PUSH1 0x20 DUP4 ADD DUP5 PUSH2 0x28E4 JUMP JUMPDEST SWAP4 SWAP3 POP POP POP JUMP JUMPDEST PUSH1 0x0 DUP1 REVERT JUMPDEST PUSH1 0x0 DUP1 REVERT JUMPDEST PUSH32 0x4E487B7100000000000000000000000000000000000000000000000000000000 PUSH1 0x0 MSTORE PUSH1 0x41 PUSH1 0x4 MSTORE PUSH1 0x24 PUSH1 0x0 REVERT JUMPDEST PUSH2 0x2BDF DUP3 PUSH2 0x2954 JUMP JUMPDEST DUP2 ADD DUP2 DUP2 LT PUSH8 0xFFFFFFFFFFFFFFFF DUP3 GT OR ISZERO PUSH2 0x2BFE JUMPI PUSH2 0x2BFD PUSH2 0x2BA7 JUMP JUMPDEST JUMPDEST DUP1 PUSH1 0x40 MSTORE POP POP POP JUMP JUMPDEST PUSH1 0x0 PUSH2 0x2C11 PUSH2 0x280B JUMP JUMPDEST SWAP1 POP PUSH2 0x2C1D DUP3 DUP3 PUSH2 0x2BD6 JUMP JUMPDEST SWAP2 SWAP1 POP JUMP JUMPDEST PUSH1 0x0 PUSH8 0xFFFFFFFFFFFFFFFF DUP3 GT ISZERO PUSH2 0x2C3D JUMPI PUSH2 0x2C3C PUSH2 0x2BA7 JUMP JUMPDEST JUMPDEST PUSH2 0x2C46 DUP3 PUSH2 0x2954 JUMP JUMPDEST SWAP1 POP PUSH1 0x20 DUP2 ADD SWAP1 POP SWAP2 SWAP1 POP JUMP JUMPDEST DUP3 DUP2 DUP4 CALLDATACOPY PUSH1 0x0 DUP4 DUP4 ADD MSTORE POP POP POP JUMP JUMPDEST PUSH1 0x0 PUSH2 0x2C75 PUSH2 0x2C70 DUP5 PUSH2 0x2C22 JUMP JUMPDEST PUSH2 0x2C07 JUMP JUMPDEST SWAP1 POP DUP3 DUP2 MSTORE PUSH1 0x20 DUP2 ADD DUP5 DUP5 DUP5 ADD GT ISZERO PUSH2 0x2C91 JUMPI PUSH2 0x2C90 PUSH2 0x2BA2 JUMP JUMPDEST JUMPDEST PUSH2 0x2C9C DUP5 DUP3 DUP6 PUSH2 0x2C53 JUMP JUMPDEST POP SWAP4 SWAP3 POP POP POP JUMP JUMPDEST PUSH1 0x0 DUP3 PUSH1 0x1F DUP4 ADD SLT PUSH2 0x2CB9 JUMPI PUSH2 0x2CB8 PUSH2 0x2B9D JUMP JUMPDEST JUMPDEST DUP2 CALLDATALOAD PUSH2 0x2CC9 DUP5 DUP3 PUSH1 0x20 DUP7 ADD PUSH2 0x2C62 JUMP JUMPDEST SWAP2 POP POP SWAP3 SWAP2 POP POP JUMP JUMPDEST PUSH1 0x0 PUSH1 0x20 DUP3 DUP5 SUB SLT ISZERO PUSH2 0x2CE8 JUMPI PUSH2 0x2CE7 PUSH2 0x2815 JUMP JUMPDEST JUMPDEST PUSH1 0x0 DUP3 ADD CALLDATALOAD PUSH8 0xFFFFFFFFFFFFFFFF DUP2 GT ISZERO PUSH2 0x2D06 JUMPI PUSH2 0x2D05 PUSH2 0x281A JUMP JUMPDEST JUMPDEST PUSH2 0x2D12 DUP5 DUP3 DUP6 ADD PUSH2 0x2CA4 JUMP JUMPDEST SWAP2 POP POP SWAP3 SWAP2 POP POP JUMP JUMPDEST PUSH1 0x0 PUSH1 0x20 DUP3 DUP5 SUB SLT ISZERO PUSH2 0x2D31 JUMPI PUSH2 0x2D30 PUSH2 0x2815 JUMP JUMPDEST JUMPDEST PUSH1 0x0 PUSH2 0x2D3F DUP5 DUP3 DUP6 ADD PUSH2 0x2A8C JUMP JUMPDEST SWAP2 POP POP SWAP3 SWAP2 POP POP JUMP JUMPDEST PUSH1 0x0 PUSH12 0xFFFFFFFFFFFFFFFFFFFFFFFF DUP3 AND SWAP1 POP SWAP2 SWAP1 POP JUMP JUMPDEST PUSH2 0x2D69 DUP2 PUSH2 0x2D48 JUMP JUMPDEST DUP2 EQ PUSH2 0x2D74 JUMPI PUSH1 0x0 DUP1 REVERT JUMPDEST POP JUMP JUMPDEST PUSH1 0x0 DUP2 CALLDATALOAD SWAP1 POP PUSH2 0x2D86 DUP2 PUSH2 0x2D60 JUMP JUMPDEST SWAP3 SWAP2 POP POP JUMP JUMPDEST PUSH1 0x0 DUP1 PUSH1 0x40 DUP4 DUP6 SUB SLT ISZERO PUSH2 0x2DA3 JUMPI PUSH2 0x2DA2 PUSH2 0x2815 JUMP JUMPDEST JUMPDEST PUSH1 0x0 PUSH2 0x2DB1 DUP6 DUP3 DUP7 ADD PUSH2 0x2A8C JUMP JUMPDEST SWAP3 POP POP PUSH1 0x20 PUSH2 0x2DC2 DUP6 DUP3 DUP7 ADD PUSH2 0x2D77 JUMP JUMPDEST SWAP2 POP POP SWAP3 POP SWAP3 SWAP1 POP JUMP JUMPDEST PUSH2 0x2DD5 DUP2 PUSH2 0x28A4 JUMP JUMPDEST DUP2 EQ PUSH2 0x2DE0 JUMPI PUSH1 0x0 DUP1 REVERT JUMPDEST POP JUMP JUMPDEST PUSH1 0x0 DUP2 CALLDATALOAD SWAP1 POP PUSH2 0x2DF2 DUP2 PUSH2 0x2DCC JUMP JUMPDEST SWAP3 SWAP2 POP POP JUMP JUMPDEST PUSH1 0x0 DUP1 PUSH1 0x40 DUP4 DUP6 SUB SLT ISZERO PUSH2 0x2E0F JUMPI PUSH2 0x2E0E PUSH2 0x2815 JUMP JUMPDEST JUMPDEST PUSH1 0x0 PUSH2 0x2E1D DUP6 DUP3 DUP7 ADD PUSH2 0x2A8C JUMP JUMPDEST SWAP3 POP POP PUSH1 0x20 PUSH2 0x2E2E DUP6 DUP3 DUP7 ADD PUSH2 0x2DE3 JUMP JUMPDEST SWAP2 POP POP SWAP3 POP SWAP3 SWAP1 POP JUMP JUMPDEST PUSH1 0x0 PUSH8 0xFFFFFFFFFFFFFFFF DUP3 GT ISZERO PUSH2 0x2E53 JUMPI PUSH2 0x2E52 PUSH2 0x2BA7 JUMP JUMPDEST JUMPDEST PUSH1 0x20 DUP3 MUL SWAP1 POP SWAP2 SWAP1 POP JUMP JUMPDEST PUSH1 0x0 DUP1 REVERT JUMPDEST PUSH1 0x0 PUSH2 0x2E76 PUSH2 0x2E71 DUP5 PUSH2 0x2E38 JUMP JUMPDEST PUSH2 0x2C07 JUMP JUMPDEST SWAP1 POP DUP1 PUSH1 0x20 DUP5 MUL DUP4 ADD DUP6 DUP2 GT ISZERO PUSH2 0x2E90 JUMPI PUSH2 0x2E8F PUSH2 0x2E5E JUMP JUMPDEST JUMPDEST DUP4 JUMPDEST DUP2 DUP2 LT ISZERO PUSH2 0x2EB9 JUMPI DUP1 PUSH2 0x2EA5 DUP9 DUP3 PUSH2 0x29D7 JUMP JUMPDEST DUP5 MSTORE PUSH1 0x20 DUP5 ADD SWAP4 POP POP PUSH1 0x20 DUP2 ADD SWAP1 POP PUSH2 0x2E92 JUMP JUMPDEST POP POP POP SWAP4 SWAP3 POP POP POP JUMP JUMPDEST PUSH1 0x0 DUP3 PUSH1 0x1F DUP4 ADD SLT PUSH2 0x2ED8 JUMPI PUSH2 0x2ED7 PUSH2 0x2B9D JUMP JUMPDEST JUMPDEST PUSH1 0x3 PUSH2 0x2EE5 DUP5 DUP3 DUP6 PUSH2 0x2E63 JUMP JUMPDEST SWAP2 POP POP SWAP3 SWAP2 POP POP JUMP JUMPDEST PUSH1 0x0 PUSH1 0x60 DUP3 DUP5 SUB SLT ISZERO PUSH2 0x2F04 JUMPI PUSH2 0x2F03 PUSH2 0x2815 JUMP JUMPDEST JUMPDEST PUSH1 0x0 PUSH2 0x2F12 DUP5 DUP3 DUP6 ADD PUSH2 0x2EC3 JUMP JUMPDEST SWAP2 POP POP SWAP3 SWAP2 POP POP JUMP JUMPDEST PUSH1 0x0 PUSH8 0xFFFFFFFFFFFFFFFF DUP3 GT ISZERO PUSH2 0x2F36 JUMPI PUSH2 0x2F35 PUSH2 0x2BA7 JUMP JUMPDEST JUMPDEST PUSH2 0x2F3F DUP3 PUSH2 0x2954 JUMP JUMPDEST SWAP1 POP PUSH1 0x20 DUP2 ADD SWAP1 POP SWAP2 SWAP1 POP JUMP JUMPDEST PUSH1 0x0 PUSH2 0x2F5F PUSH2 0x2F5A DUP5 PUSH2 0x2F1B JUMP JUMPDEST PUSH2 0x2C07 JUMP JUMPDEST SWAP1 POP DUP3 DUP2 MSTORE PUSH1 0x20 DUP2 ADD DUP5 DUP5 DUP5 ADD GT ISZERO PUSH2 0x2F7B JUMPI PUSH2 0x2F7A PUSH2 0x2BA2 JUMP JUMPDEST JUMPDEST PUSH2 0x2F86 DUP5 DUP3 DUP6 PUSH2 0x2C53 JUMP JUMPDEST POP SWAP4 SWAP3 POP POP POP JUMP JUMPDEST PUSH1 0x0 DUP3 PUSH1 0x1F DUP4 ADD SLT PUSH2 0x2FA3 JUMPI PUSH2 0x2FA2 PUSH2 0x2B9D JUMP JUMPDEST JUMPDEST DUP2 CALLDATALOAD PUSH2 0x2FB3 DUP5 DUP3 PUSH1 0x20 DUP7 ADD PUSH2 0x2F4C JUMP JUMPDEST SWAP2 POP POP SWAP3 SWAP2 POP POP JUMP JUMPDEST PUSH1 0x0 DUP1 PUSH1 0x0 DUP1 PUSH1 0x80 DUP6 DUP8 SUB SLT ISZERO PUSH2 0x2FD6 JUMPI PUSH2 0x2FD5 PUSH2 0x2815 JUMP JUMPDEST JUMPDEST PUSH1 0x0 PUSH2 0x2FE4 DUP8 DUP3 DUP9 ADD PUSH2 0x2A8C JUMP JUMPDEST SWAP5 POP POP PUSH1 0x20 PUSH2 0x2FF5 DUP8 DUP3 DUP9 ADD PUSH2 0x2A8C JUMP JUMPDEST SWAP4 POP POP PUSH1 0x40 PUSH2 0x3006 DUP8 DUP3 DUP9 ADD PUSH2 0x29D7 JUMP JUMPDEST SWAP3 POP POP PUSH1 0x60 DUP6 ADD CALLDATALOAD PUSH8 0xFFFFFFFFFFFFFFFF DUP2 GT ISZERO PUSH2 0x3027 JUMPI PUSH2 0x3026 PUSH2 0x281A JUMP JUMPDEST JUMPDEST PUSH2 0x3033 DUP8 DUP3 DUP9 ADD PUSH2 0x2F8E JUMP JUMPDEST SWAP2 POP POP SWAP3 SWAP6 SWAP2 SWAP5 POP SWAP3 POP JUMP JUMPDEST PUSH1 0x0 DUP1 PUSH1 0x0 PUSH1 0xA0 DUP5 DUP7 SUB SLT ISZERO PUSH2 0x3058 JUMPI PUSH2 0x3057 PUSH2 0x2815 JUMP JUMPDEST JUMPDEST PUSH1 0x0 PUSH2 0x3066 DUP7 DUP3 DUP8 ADD PUSH2 0x29D7 JUMP JUMPDEST SWAP4 POP POP PUSH1 0x20 PUSH2 0x3077 DUP7 DUP3 DUP8 ADD PUSH2 0x2EC3 JUMP JUMPDEST SWAP3 POP POP PUSH1 0x80 PUSH2 0x3088 DUP7 DUP3 DUP8 ADD PUSH2 0x29D7 JUMP JUMPDEST SWAP2 POP POP SWAP3 POP SWAP3 POP SWAP3 JUMP JUMPDEST PUSH1 0x0 DUP1 PUSH1 0x40 DUP4 DUP6 SUB SLT ISZERO PUSH2 0x30A9 JUMPI PUSH2 0x30A8 PUSH2 0x2815 JUMP JUMPDEST JUMPDEST PUSH1 0x0 PUSH2 0x30B7 DUP6 DUP3 DUP7 ADD PUSH2 0x2A8C JUMP JUMPDEST SWAP3 POP POP PUSH1 0x20 PUSH2 0x30C8 DUP6 DUP3 DUP7 ADD PUSH2 0x2A8C JUMP JUMPDEST SWAP2 POP POP SWAP3 POP SWAP3 SWAP1 POP JUMP JUMPDEST PUSH32 0x4E487B7100000000000000000000000000000000000000000000000000000000 PUSH1 0x0 MSTORE PUSH1 0x22 PUSH1 0x4 MSTORE PUSH1 0x24 PUSH1 0x0 REVERT JUMPDEST PUSH1 0x0 PUSH1 0x2 DUP3 DIV SWAP1 POP PUSH1 0x1 DUP3 AND DUP1 PUSH2 0x3119 JUMPI PUSH1 0x7F DUP3 AND SWAP2 POP JUMPDEST PUSH1 0x20 DUP3 LT DUP2 SUB PUSH2 0x312C JUMPI PUSH2 0x312B PUSH2 0x30D2 JUMP JUMPDEST JUMPDEST POP SWAP2 SWAP1 POP JUMP JUMPDEST PUSH32 0x4E487B7100000000000000000000000000000000000000000000000000000000 PUSH1 0x0 MSTORE PUSH1 0x11 PUSH1 0x4 MSTORE PUSH1 0x24 PUSH1 0x0 REVERT JUMPDEST PUSH1 0x0 PUSH2 0x316C DUP3 PUSH2 0x28DA JUMP JUMPDEST SWAP2 POP PUSH2 0x3177 DUP4 PUSH2 0x28DA JUMP JUMPDEST SWAP3 POP DUP3 DUP3 MUL PUSH2 0x3185 DUP2 PUSH2 0x28DA JUMP JUMPDEST SWAP2 POP DUP3 DUP3 DIV DUP5 EQ DUP4 ISZERO OR PUSH2 0x319C JUMPI PUSH2 0x319B PUSH2 0x3132 JUMP JUMPDEST JUMPDEST POP SWAP3 SWAP2 POP POP JUMP JUMPDEST PUSH32 0x4E487B7100000000000000000000000000000000000000000000000000000000 PUSH1 0x0 MSTORE PUSH1 0x12 PUSH1 0x4 MSTORE PUSH1 0x24 PUSH1 0x0 REVERT JUMPDEST PUSH1 0x0 PUSH2 0x31DD DUP3 PUSH2 0x28DA JUMP JUMPDEST SWAP2 POP PUSH2 0x31E8 DUP4 PUSH2 0x28DA JUMP JUMPDEST SWAP3 POP DUP3 PUSH2 0x31F8 JUMPI PUSH2 0x31F7 PUSH2 0x31A3 JUMP JUMPDEST JUMPDEST DUP3 DUP3 DIV SWAP1 POP SWAP3 SWAP2 POP POP JUMP JUMPDEST PUSH1 0x0 PUSH2 0x320E DUP3 PUSH2 0x28DA JUMP JUMPDEST SWAP2 POP PUSH2 0x3219 DUP4 PUSH2 0x28DA JUMP JUMPDEST SWAP3 POP DUP3 DUP3 ADD SWAP1 POP DUP1 DUP3 GT ISZERO PUSH2 0x3231 JUMPI PUSH2 0x3230 PUSH2 0x3132 JUMP JUMPDEST JUMPDEST SWAP3 SWAP2 POP POP JUMP JUMPDEST PUSH1 0x0 DUP2 SWAP1 POP SWAP3 SWAP2 POP POP JUMP JUMPDEST PUSH32 0x3C7376672077696474683D2238343022206865696768743D2238343022207669 PUSH1 0x0 DUP3 ADD MSTORE PUSH32 0x6577426F783D22302030203134203134222066696C6C3D226E6F6E652220786D PUSH1 0x20 DUP3 ADD MSTORE PUSH32 0x6C6E733D22687474703A2F2F7777772E77332E6F72672F323030302F73766722 PUSH1 0x40 DUP3 ADD MSTORE PUSH32 0x3E3C726563742077696474683D22313422206865696768743D22313422206669 PUSH1 0x60 DUP3 ADD MSTORE PUSH32 0x6C6C3D2223304330433043222F3E3C6720636C6173733D2274696C6573223E3C PUSH1 0x80 DUP3 ADD MSTORE PUSH32 0x726563742069643D2270312220783D22332220793D2233222066696C6C3D2223 PUSH1 0xA0 DUP3 ADD MSTORE PUSH32 0x666666222F3E3C726563742069643D2270322220783D22342220793D22332220 PUSH1 0xC0 DUP3 ADD MSTORE PUSH32 0x66696C6C3D2223666666222F3E3C726563742069643D2270332220783D223522 PUSH1 0xE0 DUP3 ADD MSTORE PUSH32 0x20793D2233222066696C6C3D2223666666222F3E3C726563742069643D227034 PUSH2 0x100 DUP3 ADD MSTORE PUSH32 0x2220783D22362220793D2233222066696C6C3D2223666666222F3E3C72656374 PUSH2 0x120 DUP3 ADD MSTORE PUSH32 0x2069643D2270352220783D22372220793D2233222066696C6C3D222366666622 PUSH2 0x140 DUP3 ADD MSTORE PUSH32 0x2F3E3C726563742069643D2270362220783D22382220793D2233222066696C6C PUSH2 0x160 DUP3 ADD MSTORE PUSH32 0x3D2223666666222F3E3C726563742069643D2270372220783D22392220793D22 PUSH2 0x180 DUP3 ADD MSTORE PUSH32 0x33222066696C6C3D2223666666222F3E3C726563742069643D2270382220783D PUSH2 0x1A0 DUP3 ADD MSTORE PUSH32 0x2231302220793D2233222066696C6C3D2223666666222F3E3C72656374206964 PUSH2 0x1C0 DUP3 ADD MSTORE PUSH32 0x3D2270392220783D22332220793D2234222066696C6C3D2223666666222F3E3C PUSH2 0x1E0 DUP3 ADD MSTORE PUSH32 0x726563742069643D227031302220783D22342220793D2234222066696C6C3D22 PUSH2 0x200 DUP3 ADD MSTORE PUSH32 0x23666666222F3E3C726563742069643D227031312220783D22352220793D2234 PUSH2 0x220 DUP3 ADD MSTORE PUSH32 0x222066696C6C3D2223666666222F3E3C726563742069643D227031322220783D PUSH2 0x240 DUP3 ADD MSTORE PUSH32 0x22362220793D2234222066696C6C3D2223666666222F3E3C726563742069643D PUSH2 0x260 DUP3 ADD MSTORE PUSH32 0x227031332220783D22372220793D2234222066696C6C3D2223666666222F3E3C PUSH2 0x280 DUP3 ADD MSTORE PUSH32 0x726563742069643D227031342220783D22382220793D2234222066696C6C3D22 PUSH2 0x2A0 DUP3 ADD MSTORE PUSH32 0x23666666222F3E3C726563742069643D227031352220783D22392220793D2234 PUSH2 0x2C0 DUP3 ADD MSTORE PUSH32 0x222066696C6C3D2223666666222F3E3C726563742069643D227031362220783D PUSH2 0x2E0 DUP3 ADD MSTORE PUSH32 0x2231302220793D2234222066696C6C3D2223666666222F3E3C72656374206964 PUSH2 0x300 DUP3 ADD MSTORE PUSH32 0x3D227031372220783D22332220793D2235222066696C6C3D2223666666222F3E PUSH2 0x320 DUP3 ADD MSTORE PUSH32 0x3C726563742069643D227031382220783D22342220793D2235222066696C6C3D PUSH2 0x340 DUP3 ADD MSTORE PUSH32 0x2223666666222F3E3C726563742069643D227031392220783D22352220793D22 PUSH2 0x360 DUP3 ADD MSTORE PUSH32 0x35222066696C6C3D2223666666222F3E3C726563742069643D22703230222078 PUSH2 0x380 DUP3 ADD MSTORE PUSH32 0x3D22362220793D2235222066696C6C3D2223666666222F3E3C72656374206964 PUSH2 0x3A0 DUP3 ADD MSTORE PUSH32 0x3D227032312220783D22372220793D2235222066696C6C3D2223666666222F3E PUSH2 0x3C0 DUP3 ADD MSTORE PUSH32 0x3C726563742069643D227032322220783D22382220793D2235222066696C6C3D PUSH2 0x3E0 DUP3 ADD MSTORE PUSH32 0x2223666666222F3E3C726563742069643D227032332220783D22392220793D22 PUSH2 0x400 DUP3 ADD MSTORE PUSH32 0x35222066696C6C3D2223666666222F3E3C726563742069643D22703234222078 PUSH2 0x420 DUP3 ADD MSTORE PUSH32 0x3D2231302220793D2235222066696C6C3D2223666666222F3E3C726563742069 PUSH2 0x440 DUP3 ADD MSTORE PUSH32 0x643D227032352220783D22332220793D2236222066696C6C3D2223666666222F PUSH2 0x460 DUP3 ADD MSTORE PUSH32 0x3E3C726563742069643D227032362220783D22342220793D2236222066696C6C PUSH2 0x480 DUP3 ADD MSTORE PUSH32 0x3D2223666666222F3E3C726563742069643D227032372220783D22352220793D PUSH2 0x4A0 DUP3 ADD MSTORE PUSH32 0x2236222066696C6C3D2223666666222F3E3C726563742069643D227032382220 PUSH2 0x4C0 DUP3 ADD MSTORE PUSH32 0x783D22362220793D2236222066696C6C3D2223666666222F3E3C726563742069 PUSH2 0x4E0 DUP3 ADD MSTORE PUSH32 0x643D227032392220783D22372220793D2236222066696C6C3D2223666666222F PUSH2 0x500 DUP3 ADD MSTORE PUSH32 0x3E3C726563742069643D227033302220783D22382220793D2236222066696C6C PUSH2 0x520 DUP3 ADD MSTORE PUSH32 0x3D2223666666222F3E3C726563742069643D227033312220783D22392220793D PUSH2 0x540 DUP3 ADD MSTORE PUSH32 0x2236222066696C6C3D2223666666222F3E3C726563742069643D227033322220 PUSH2 0x560 DUP3 ADD MSTORE PUSH32 0x783D2231302220793D2236222066696C6C3D2223666666222F3E3C7265637420 PUSH2 0x580 DUP3 ADD MSTORE PUSH32 0x69643D227033332220783D22332220793D2237222066696C6C3D222366666622 PUSH2 0x5A0 DUP3 ADD MSTORE PUSH32 0x2F3E3C726563742069643D227033342220783D22342220793D2237222066696C PUSH2 0x5C0 DUP3 ADD MSTORE PUSH32 0x6C3D2223666666222F3E3C726563742069643D227033352220783D2235222079 PUSH2 0x5E0 DUP3 ADD MSTORE PUSH32 0x3D2237222066696C6C3D2223666666222F3E3C726563742069643D2270333622 PUSH2 0x600 DUP3 ADD MSTORE PUSH32 0x20783D22362220793D2237222066696C6C3D2223666666222F3E3C7265637420 PUSH2 0x620 DUP3 ADD MSTORE PUSH32 0x69643D227033372220783D22372220793D2237222066696C6C3D222366666622 PUSH2 0x640 DUP3 ADD MSTORE PUSH32 0x2F3E3C726563742069643D227033382220783D22382220793D2237222066696C PUSH2 0x660 DUP3 ADD MSTORE PUSH32 0x6C3D2223666666222F3E3C726563742069643D227033392220783D2239222079 PUSH2 0x680 DUP3 ADD MSTORE PUSH32 0x3D2237222066696C6C3D2223666666222F3E3C726563742069643D2270343022 PUSH2 0x6A0 DUP3 ADD MSTORE PUSH32 0x20783D2231302220793D2237222066696C6C3D2223666666222F3E3C72656374 PUSH2 0x6C0 DUP3 ADD MSTORE PUSH32 0x2069643D227034312220783D22332220793D2238222066696C6C3D2223666666 PUSH2 0x6E0 DUP3 ADD MSTORE PUSH32 0x222F3E3C726563742069643D227034322220783D22342220793D223822206669 PUSH2 0x700 DUP3 ADD MSTORE PUSH32 0x6C6C3D2223666666222F3E3C726563742069643D227034332220783D22352220 PUSH2 0x720 DUP3 ADD MSTORE PUSH32 0x793D2238222066696C6C3D2223666666222F3E3C726563742069643D22703434 PUSH2 0x740 DUP3 ADD MSTORE PUSH32 0x2220783D22362220793D2238222066696C6C3D2223666666222F3E3C72656374 PUSH2 0x760 DUP3 ADD MSTORE PUSH32 0x2069643D227034352220783D22372220793D2238222066696C6C3D2223666666 PUSH2 0x780 DUP3 ADD MSTORE PUSH32 0x222F3E3C726563742069643D227034362220783D22382220793D223822206669 PUSH2 0x7A0 DUP3 ADD MSTORE PUSH32 0x6C6C3D2223666666222F3E3C726563742069643D227034372220783D22392220 PUSH2 0x7C0 DUP3 ADD MSTORE PUSH32 0x793D2238222066696C6C3D2223666666222F3E3C726563742069643D22703438 PUSH2 0x7E0 DUP3 ADD MSTORE PUSH32 0x2220783D2231302220793D2238222066696C6C3D2223666666222F3E3C726563 PUSH2 0x800 DUP3 ADD MSTORE PUSH32 0x742069643D227034392220783D22332220793D2239222066696C6C3D22236666 PUSH2 0x820 DUP3 ADD MSTORE PUSH32 0x66222F3E3C726563742069643D227035302220783D22342220793D2239222066 PUSH2 0x840 DUP3 ADD MSTORE PUSH32 0x696C6C3D2223666666222F3E3C726563742069643D227035312220783D223522 PUSH2 0x860 DUP3 ADD MSTORE PUSH32 0x20793D2239222066696C6C3D2223666666222F3E3C726563742069643D227035 PUSH2 0x880 DUP3 ADD MSTORE PUSH32 0x322220783D22362220793D2239222066696C6C3D2223666666222F3E3C726563 PUSH2 0x8A0 DUP3 ADD MSTORE PUSH32 0x742069643D227035332220783D22372220793D2239222066696C6C3D22236666 PUSH2 0x8C0 DUP3 ADD MSTORE PUSH32 0x66222F3E3C726563742069643D227035342220783D22382220793D2239222066 PUSH2 0x8E0 DUP3 ADD MSTORE PUSH32 0x696C6C3D2223666666222F3E3C726563742069643D227035352220783D223922 PUSH2 0x900 DUP3 ADD MSTORE PUSH32 0x20793D2239222066696C6C3D2223666666222F3E3C726563742069643D227035 PUSH2 0x920 DUP3 ADD MSTORE PUSH32 0x362220783D2231302220793D2239222066696C6C3D2223666666222F3E3C7265 PUSH2 0x940 DUP3 ADD MSTORE PUSH32 0x63742069643D227035372220783D22332220793D223130222066696C6C3D2223 PUSH2 0x960 DUP3 ADD MSTORE PUSH32 0x666666222F3E3C726563742069643D227035382220783D22342220793D223130 PUSH2 0x980 DUP3 ADD MSTORE PUSH32 0x222066696C6C3D2223666666222F3E3C726563742069643D227035392220783D PUSH2 0x9A0 DUP3 ADD MSTORE PUSH32 0x22352220793D223130222066696C6C3D2223666666222F3E3C72656374206964 PUSH2 0x9C0 DUP3 ADD MSTORE PUSH32 0x3D227036302220783D22362220793D223130222066696C6C3D2223666666222F PUSH2 0x9E0 DUP3 ADD MSTORE PUSH32 0x3E3C726563742069643D227036312220783D22372220793D223130222066696C PUSH2 0xA00 DUP3 ADD MSTORE PUSH32 0x6C3D2223666666222F3E3C726563742069643D227036322220783D2238222079 PUSH2 0xA20 DUP3 ADD MSTORE PUSH32 0x3D223130222066696C6C3D2223666666222F3E3C726563742069643D22703633 PUSH2 0xA40 DUP3 ADD MSTORE PUSH32 0x2220783D22392220793D223130222066696C6C3D2223666666222F3E3C726563 PUSH2 0xA60 DUP3 ADD MSTORE PUSH32 0x742069643D227036342220783D2231302220793D223130222066696C6C3D2223 PUSH2 0xA80 DUP3 ADD MSTORE PUSH32 0x666666222F3E3C2F673E3C6720636C6173733D2267726964223E3C6C696E6520 PUSH2 0xAA0 DUP3 ADD MSTORE PUSH32 0x78313D22312E303035222079313D222D322E3138353537652D3130222078323D PUSH2 0xAC0 DUP3 ADD MSTORE PUSH32 0x22312E303035222079323D223134222F3E3C6C696E652078313D22322E303035 PUSH2 0xAE0 DUP3 ADD MSTORE PUSH32 0x222079313D222D322E3138353537652D3130222078323D22322E303035222079 PUSH2 0xB00 DUP3 ADD MSTORE PUSH32 0x323D223134222F3E3C6C696E652078313D22332E303035222079313D222D322E PUSH2 0xB20 DUP3 ADD MSTORE PUSH32 0x3138353537652D3130222078323D22332E303035222079323D223134222F3E3C PUSH2 0xB40 DUP3 ADD MSTORE PUSH32 0x6C696E652078313D22342E303035222079313D222D322E3138353537652D3130 PUSH2 0xB60 DUP3 ADD MSTORE PUSH32 0x222078323D22342E303035222079323D223134222F3E3C6C696E652078313D22 PUSH2 0xB80 DUP3 ADD MSTORE PUSH32 0x352E303035222079313D222D322E3138353537652D3130222078323D22352E30 PUSH2 0xBA0 DUP3 ADD MSTORE PUSH32 0x3035222079323D223134222F3E3C6C696E652078313D22362E30303522207931 PUSH2 0xBC0 DUP3 ADD MSTORE PUSH32 0x3D222D322E3138353537652D3130222078323D22362E303035222079323D2231 PUSH2 0xBE0 DUP3 ADD MSTORE PUSH32 0x34222F3E3C6C696E652078313D22372E303035222079313D222D322E31383535 PUSH2 0xC00 DUP3 ADD MSTORE PUSH32 0x37652D3130222078323D22372E303035222079323D223134222F3E3C6C696E65 PUSH2 0xC20 DUP3 ADD MSTORE PUSH32 0x2078313D22382E303035222079313D222D322E3138353537652D313022207832 PUSH2 0xC40 DUP3 ADD MSTORE PUSH32 0x3D22382E303035222079323D223134222F3E3C6C696E652078313D22392E3030 PUSH2 0xC60 DUP3 ADD MSTORE PUSH32 0x35222079313D222D322E3138353537652D3130222078323D22392E3030352220 PUSH2 0xC80 DUP3 ADD MSTORE PUSH32 0x79323D223134222F3E3C6C696E652078313D2231302E303035222079313D222D PUSH2 0xCA0 DUP3 ADD MSTORE PUSH32 0x322E3138353537652D3130222078323D2231302E303035222079323D22313422 PUSH2 0xCC0 DUP3 ADD MSTORE PUSH32 0x2F3E3C6C696E652078313D2231312E303035222079313D222D322E3138353537 PUSH2 0xCE0 DUP3 ADD MSTORE PUSH32 0x652D3130222078323D2231312E303035222079323D223134222F3E3C6C696E65 PUSH2 0xD00 DUP3 ADD MSTORE PUSH32 0x2078313D2231322E303035222079313D222D322E3138353537652D3130222078 PUSH2 0xD20 DUP3 ADD MSTORE PUSH32 0x323D2231322E303035222079323D223134222F3E3C6C696E652078313D223133 PUSH2 0xD40 DUP3 ADD MSTORE PUSH32 0x2E303035222079313D222D322E3138353537652D3130222078323D2231332E30 PUSH2 0xD60 DUP3 ADD MSTORE PUSH32 0x3035222079323D223134222F3E3C6C696E652078313D223134222079313D2231 PUSH2 0xD80 DUP3 ADD MSTORE PUSH32 0x2E303035222079323D22312E303035222F3E3C6C696E652078313D2231342220 PUSH2 0xDA0 DUP3 ADD MSTORE PUSH32 0x79313D22322E303035222079323D22322E303035222F3E3C6C696E652078313D PUSH2 0xDC0 DUP3 ADD MSTORE PUSH32 0x223134222079313D22332E303035222079323D22332E303035222F3E3C6C696E PUSH2 0xDE0 DUP3 ADD MSTORE PUSH32 0x652078313D223134222079313D22342E303035222079323D22342E303035222F PUSH2 0xE00 DUP3 ADD MSTORE PUSH32 0x3E3C6C696E652078313D223134222079313D22352E303035222079323D22352E PUSH2 0xE20 DUP3 ADD MSTORE PUSH32 0x303035222F3E3C6C696E652078313D223134222079313D22362E303035222079 PUSH2 0xE40 DUP3 ADD MSTORE PUSH32 0x323D22362E303035222F3E3C6C696E652078313D223134222079313D22372E30 PUSH2 0xE60 DUP3 ADD MSTORE PUSH32 0x3035222079323D22372E303035222F3E3C6C696E652078313D22313422207931 PUSH2 0xE80 DUP3 ADD MSTORE PUSH32 0x3D22382E303035222079323D22382E303035222F3E3C6C696E652078313D2231 PUSH2 0xEA0 DUP3 ADD MSTORE PUSH32 0x34222079313D22392E303035222079323D22392E303035222F3E3C6C696E6520 PUSH2 0xEC0 DUP3 ADD MSTORE PUSH32 0x78313D223134222079313D2231302E303035222079323D2231302E303035222F PUSH2 0xEE0 DUP3 ADD MSTORE PUSH32 0x3E3C6C696E652078313D223134222079313D2231312E303035222079323D2231 PUSH2 0xF00 DUP3 ADD MSTORE PUSH32 0x312E303035222F3E3C6C696E652078313D223134222079313D2231322E303035 PUSH2 0xF20 DUP3 ADD MSTORE PUSH32 0x222079323D2231322E303035222F3E3C6C696E652078313D223134222079313D PUSH2 0xF40 DUP3 ADD MSTORE PUSH32 0x2231332E303035222079323D2231332E303035222F3E3C2F673E3C7374796C65 PUSH2 0xF60 DUP3 ADD MSTORE PUSH32 0x3E2E74696C657320726563747B77696474683A3170783B6865696768743A3170 PUSH2 0xF80 DUP3 ADD MSTORE PUSH32 0x783B7D2E677269647B7374726F6B653A233232323B7374726F6B652D77696474 PUSH2 0xFA0 DUP3 ADD MSTORE PUSH32 0x683A2E30313B7D00000000000000000000000000000000000000000000000000 PUSH2 0xFC0 DUP3 ADD MSTORE POP JUMP JUMPDEST PUSH1 0x0 PUSH2 0x45A4 PUSH2 0xFC7 DUP4 PUSH2 0x3237 JUMP JUMPDEST SWAP2 POP PUSH2 0x45AF DUP3 PUSH2 0x3242 JUMP JUMPDEST PUSH2 0xFC7 DUP3 ADD SWAP1 POP SWAP2 SWAP1 POP JUMP JUMPDEST PUSH1 0x0 PUSH2 0x45C6 DUP3 PUSH2 0x290E JUMP JUMPDEST PUSH2 0x45D0 DUP2 DUP6 PUSH2 0x3237 JUMP JUMPDEST SWAP4 POP PUSH2 0x45E0 DUP2 DUP6 PUSH1 0x20 DUP7 ADD PUSH2 0x292A JUMP JUMPDEST DUP1 DUP5 ADD SWAP2 POP POP SWAP3 SWAP2 POP POP JUMP JUMPDEST PUSH32 0x3C2F7374796C653E3C2F7376673E000000000000000000000000000000000000 PUSH1 0x0 DUP3 ADD MSTORE POP JUMP JUMPDEST PUSH1 0x0 PUSH2 0x4622 PUSH1 0xE DUP4 PUSH2 0x3237 JUMP JUMPDEST SWAP2 POP PUSH2 0x462D DUP3 PUSH2 0x45EC JUMP JUMPDEST PUSH1 0xE DUP3 ADD SWAP1 POP SWAP2 SWAP1 POP JUMP JUMPDEST PUSH1 0x0 PUSH2 0x4643 DUP3 PUSH2 0x4596 JUMP JUMPDEST SWAP2 POP PUSH2 0x464F DUP3 DUP5 PUSH2 0x45BB JUMP JUMPDEST SWAP2 POP PUSH2 0x465A DUP3 PUSH2 0x4615 JUMP JUMPDEST SWAP2 POP DUP2 SWAP1 POP SWAP3 SWAP2 POP POP JUMP JUMPDEST PUSH1 0x0 PUSH2 0x4670 DUP3 PUSH2 0x28DA JUMP JUMPDEST SWAP2 POP PUSH2 0x467B DUP4 PUSH2 0x28DA JUMP JUMPDEST SWAP3 POP DUP3 PUSH2 0x468B JUMPI PUSH2 0x468A PUSH2 0x31A3 JUMP JUMPDEST JUMPDEST DUP3 DUP3 MOD SWAP1 POP SWAP3 SWAP2 POP POP JUMP JUMPDEST PUSH1 0x0 PUSH2 0x46A1 DUP3 PUSH2 0x28DA JUMP JUMPDEST SWAP2 POP PUSH32 0xFFFFFFFFFFFFFFFFFFFFFFFFFFFFFFFFFFFFFFFFFFFFFFFFFFFFFFFFFFFFFFFF DUP3 SUB PUSH2 0x46D3 JUMPI PUSH2 0x46D2 PUSH2 0x3132 JUMP JUMPDEST JUMPDEST PUSH1 0x1 DUP3 ADD SWAP1 POP SWAP2 SWAP1 POP JUMP JUMPDEST PUSH32 0x2370000000000000000000000000000000000000000000000000000000000000 PUSH1 0x0 DUP3 ADD MSTORE POP JUMP JUMPDEST PUSH1 0x0 PUSH2 0x4714 PUSH1 0x2 DUP4 PUSH2 0x3237 JUMP JUMPDEST SWAP2 POP PUSH2 0x471F DUP3 PUSH2 0x46DE JUMP JUMPDEST PUSH1 0x2 DUP3 ADD SWAP1 POP SWAP2 SWAP1 POP JUMP JUMPDEST PUSH32 0x7B66696C6C3A0000000000000000000000000000000000000000000000000000 PUSH1 0x0 DUP3 ADD MSTORE POP JUMP JUMPDEST PUSH1 0x0 PUSH2 0x4760 PUSH1 0x6 DUP4 PUSH2 0x3237 JUMP JUMPDEST SWAP2 POP PUSH2 0x476B DUP3 PUSH2 0x472A JUMP JUMPDEST PUSH1 0x6 DUP3 ADD SWAP1 POP SWAP2 SWAP1 POP JUMP JUMPDEST PUSH1 0x0 DUP2 SWAP1 POP DUP2 PUSH1 0x0 MSTORE PUSH1 0x20 PUSH1 0x0 KECCAK256 SWAP1 POP SWAP2 SWAP1 POP JUMP JUMPDEST PUSH1 0x0 DUP2 SLOAD PUSH2 0x4798 DUP2 PUSH2 0x3101 JUMP JUMPDEST PUSH2 0x47A2 DUP2 DUP7 PUSH2 0x3237 JUMP JUMPDEST SWAP5 POP PUSH1 0x1 DUP3 AND PUSH1 0x0 DUP2 EQ PUSH2 0x47BD JUMPI PUSH1 0x1 DUP2 EQ PUSH2 0x47D2 JUMPI PUSH2 0x4805 JUMP JUMPDEST PUSH1 0xFF NOT DUP4 AND DUP7 MSTORE DUP2 ISZERO ISZERO DUP3 MUL DUP7 ADD SWAP4 POP PUSH2 0x4805 JUMP JUMPDEST PUSH2 0x47DB DUP6 PUSH2 0x4776 JUMP JUMPDEST PUSH1 0x0 JUMPDEST DUP4 DUP2 LT ISZERO PUSH2 0x47FD JUMPI DUP2 SLOAD DUP2 DUP10 ADD MSTORE PUSH1 0x1 DUP3 ADD SWAP2 POP PUSH1 0x20 DUP2 ADD SWAP1 POP PUSH2 0x47DE JUMP JUMPDEST DUP4 DUP9 ADD SWAP6 POP POP POP JUMPDEST POP POP POP SWAP3 SWAP2 POP POP JUMP JUMPDEST PUSH32 0x7D00000000000000000000000000000000000000000000000000000000000000 PUSH1 0x0 DUP3 ADD MSTORE POP JUMP JUMPDEST PUSH1 0x0 PUSH2 0x4844 PUSH1 0x1 DUP4 PUSH2 0x3237 JUMP JUMPDEST SWAP2 POP PUSH2 0x484F DUP3 PUSH2 0x480E JUMP JUMPDEST PUSH1 0x1 DUP3 ADD SWAP1 POP SWAP2 SWAP1 POP JUMP JUMPDEST PUSH1 0x0 PUSH2 0x4866 DUP3 DUP7 PUSH2 0x45BB JUMP JUMPDEST SWAP2 POP PUSH2 0x4871 DUP3 PUSH2 0x4707 JUMP JUMPDEST SWAP2 POP PUSH2 0x487D DUP3 DUP6 PUSH2 0x45BB JUMP JUMPDEST SWAP2 POP PUSH2 0x4888 DUP3 PUSH2 0x4753 JUMP JUMPDEST SWAP2 POP PUSH2 0x4894 DUP3 DUP5 PUSH2 0x478B JUMP JUMPDEST SWAP2 POP PUSH2 0x489F DUP3 PUSH2 0x4837 JUMP JUMPDEST SWAP2 POP DUP2 SWAP1 POP SWAP5 SWAP4 POP POP POP POP JUMP JUMPDEST PUSH1 0x0 DUP2 MLOAD SWAP1 POP PUSH2 0x48BB DUP2 PUSH2 0x29C0 JUMP JUMPDEST SWAP3 SWAP2 POP POP JUMP JUMPDEST PUSH1 0x0 PUSH1 0x20 DUP3 DUP5 SUB SLT ISZERO PUSH2 0x48D7 JUMPI PUSH2 0x48D6 PUSH2 0x2815 JUMP JUMPDEST JUMPDEST PUSH1 0x0 PUSH2 0x48E5 DUP5 DUP3 DUP6 ADD PUSH2 0x48AC JUMP JUMPDEST SWAP2 POP POP SWAP3 SWAP2 POP POP JUMP JUMPDEST PUSH32 0x4D757374206F776E2055494E545320647572696E672070726976617465206D69 PUSH1 0x0 DUP3 ADD MSTORE PUSH32 0x6E74207068617365000000000000000000000000000000000000000000000000 PUSH1 0x20 DUP3 ADD MSTORE POP JUMP JUMPDEST PUSH1 0x0 PUSH2 0x494A PUSH1 0x28 DUP4 PUSH2 0x2919 JUMP JUMPDEST SWAP2 POP PUSH2 0x4955 DUP3 PUSH2 0x48EE JUMP JUMPDEST PUSH1 0x40 DUP3 ADD SWAP1 POP SWAP2 SWAP1 POP JUMP JUMPDEST PUSH1 0x0 PUSH1 0x20 DUP3 ADD SWAP1 POP DUP2 DUP2 SUB PUSH1 0x0 DUP4 ADD MSTORE PUSH2 0x4979 DUP2 PUSH2 0x493D JUMP JUMPDEST SWAP1 POP SWAP2 SWAP1 POP JUMP JUMPDEST PUSH1 0x0 PUSH2 0x498B DUP3 PUSH2 0x28DA JUMP JUMPDEST SWAP2 POP PUSH2 0x4996 DUP4 PUSH2 0x28DA JUMP JUMPDEST SWAP3 POP DUP3 DUP3 SUB SWAP1 POP DUP2 DUP2 GT ISZERO PUSH2 0x49AE JUMPI PUSH2 0x49AD PUSH2 0x3132 JUMP JUMPDEST JUMPDEST SWAP3 SWAP2 POP POP JUMP JUMPDEST PUSH32 0x4D696E742068617320636C6F7365640000000000000000000000000000000000 PUSH1 0x0 DUP3 ADD MSTORE POP JUMP JUMPDEST PUSH1 0x0 PUSH2 0x49EA PUSH1 0xF DUP4 PUSH2 0x2919 JUMP JUMPDEST SWAP2 POP PUSH2 0x49F5 DUP3 PUSH2 0x49B4 JUMP JUMPDEST PUSH1 0x20 DUP3 ADD SWAP1 POP SWAP2 SWAP1 POP JUMP JUMPDEST PUSH1 0x0 PUSH1 0x20 DUP3 ADD SWAP1 POP DUP2 DUP2 SUB PUSH1 0x0 DUP4 ADD MSTORE PUSH2 0x4A19 DUP2 PUSH2 0x49DD JUMP JUMPDEST SWAP1 POP SWAP2 SWAP1 POP JUMP JUMPDEST PUSH32 0x4E487B7100000000000000000000000000000000000000000000000000000000 PUSH1 0x0 MSTORE PUSH1 0x32 PUSH1 0x4 MSTORE PUSH1 0x24 PUSH1 0x0 REVERT JUMPDEST PUSH32 0x7B226E616D65223A202255494E54532045646974696F6E200000000000000000 PUSH1 0x0 DUP3 ADD MSTORE POP JUMP JUMPDEST PUSH1 0x0 PUSH2 0x4A85 PUSH1 0x18 DUP4 PUSH2 0x3237 JUMP JUMPDEST SWAP2 POP PUSH2 0x4A90 DUP3 PUSH2 0x4A4F JUMP JUMPDEST PUSH1 0x18 DUP3 ADD SWAP1 POP SWAP2 SWAP1 POP JUMP JUMPDEST PUSH32 0x222C20226465736372697074696F6E223A202255494E54532045646974696F6E PUSH1 0x0 DUP3 ADD MSTORE PUSH32 0x2067697665732055494E545320686F6C646572732074686520706F7765722074 PUSH1 0x20 DUP3 ADD MSTORE PUSH32 0x6F206D616B65207570646174657320746F206F6E2D636861696E20617274776F PUSH1 0x40 DUP3 ADD MSTORE PUSH32 0x726B2E222C2022696D616765223A2022646174613A696D6167652F7376672B78 PUSH1 0x60 DUP3 ADD MSTORE PUSH32 0x6D6C3B6261736536342C00000000000000000000000000000000000000000000 PUSH1 0x80 DUP3 ADD MSTORE POP JUMP JUMPDEST PUSH1 0x0 PUSH2 0x4B69 PUSH1 0x8A DUP4 PUSH2 0x3237 JUMP JUMPDEST SWAP2 POP PUSH2 0x4B74 DUP3 PUSH2 0x4A9B JUMP JUMPDEST PUSH1 0x8A DUP3 ADD SWAP1 POP SWAP2 SWAP1 POP JUMP JUMPDEST PUSH32 0x227D000000000000000000000000000000000000000000000000000000000000 PUSH1 0x0 DUP3 ADD MSTORE POP JUMP JUMPDEST PUSH1 0x0 PUSH2 0x4BB5 PUSH1 0x2 DUP4 PUSH2 0x3237 JUMP JUMPDEST SWAP2 POP PUSH2 0x4BC0 DUP3 PUSH2 0x4B7F JUMP JUMPDEST PUSH1 0x2 DUP3 ADD SWAP1 POP SWAP2 SWAP1 POP JUMP JUMPDEST PUSH1 0x0 PUSH2 0x4BD6 DUP3 PUSH2 0x4A78 JUMP JUMPDEST SWAP2 POP PUSH2 0x4BE2 DUP3 DUP6 PUSH2 0x45BB JUMP JUMPDEST SWAP2 POP PUSH2 0x4BED DUP3 PUSH2 0x4B5C JUMP JUMPDEST SWAP2 POP PUSH2 0x4BF9 DUP3 DUP5 PUSH2 0x45BB JUMP JUMPDEST SWAP2 POP PUSH2 0x4C04 DUP3 PUSH2 0x4BA8 JUMP JUMPDEST SWAP2 POP DUP2 SWAP1 POP SWAP4 SWAP3 POP POP POP JUMP JUMPDEST PUSH32 0x646174613A6170706C69636174696F6E2F6A736F6E3B6261736536342C000000 PUSH1 0x0 DUP3 ADD MSTORE POP JUMP JUMPDEST PUSH1 0x0 PUSH2 0x4C46 PUSH1 0x1D DUP4 PUSH2 0x3237 JUMP JUMPDEST SWAP2 POP PUSH2 0x4C51 DUP3 PUSH2 0x4C10 JUMP JUMPDEST PUSH1 0x1D DUP3 ADD SWAP1 POP SWAP2 SWAP1 POP JUMP JUMPDEST PUSH1 0x0 PUSH2 0x4C67 DUP3 PUSH2 0x4C39 JUMP JUMPDEST SWAP2 POP PUSH2 0x4C73 DUP3 DUP5 PUSH2 0x45BB JUMP JUMPDEST SWAP2 POP DUP2 SWAP1 POP SWAP3 SWAP2 POP POP JUMP JUMPDEST PUSH32 0x496E76616C696420706F736974696F6E00000000000000000000000000000000 PUSH1 0x0 DUP3 ADD MSTORE POP JUMP JUMPDEST PUSH1 0x0 PUSH2 0x4CB4 PUSH1 0x10 DUP4 PUSH2 0x2919 JUMP JUMPDEST SWAP2 POP PUSH2 0x4CBF DUP3 PUSH2 0x4C7E JUMP JUMPDEST PUSH1 0x20 DUP3 ADD SWAP1 POP SWAP2 SWAP1 POP JUMP JUMPDEST PUSH1 0x0 PUSH1 0x20 DUP3 ADD SWAP1 POP DUP2 DUP2 SUB PUSH1 0x0 DUP4 ADD MSTORE PUSH2 0x4CE3 DUP2 PUSH2 0x4CA7 JUMP JUMPDEST SWAP1 POP SWAP2 SWAP1 POP JUMP JUMPDEST PUSH32 0x496E76616C696420636F6C6F7200000000000000000000000000000000000000 PUSH1 0x0 DUP3 ADD MSTORE POP JUMP JUMPDEST PUSH1 0x0 PUSH2 0x4D20 PUSH1 0xD DUP4 PUSH2 0x2919 JUMP JUMPDEST SWAP2 POP PUSH2 0x4D2B DUP3 PUSH2 0x4CEA JUMP JUMPDEST PUSH1 0x20 DUP3 ADD SWAP1 POP SWAP2 SWAP1 POP JUMP JUMPDEST PUSH1 0x0 PUSH1 0x20 DUP3 ADD SWAP1 POP DUP2 DUP2 SUB PUSH1 0x0 DUP4 ADD MSTORE PUSH2 0x4D4F DUP2 PUSH2 0x4D13 JUMP JUMPDEST SWAP1 POP SWAP2 SWAP1 POP JUMP JUMPDEST PUSH1 0x0 DUP2 MLOAD SWAP1 POP PUSH2 0x4D65 DUP2 PUSH2 0x2A75 JUMP JUMPDEST SWAP3 SWAP2 POP POP JUMP JUMPDEST PUSH1 0x0 PUSH1 0x20 DUP3 DUP5 SUB SLT ISZERO PUSH2 0x4D81 JUMPI PUSH2 0x4D80 PUSH2 0x2815 JUMP JUMPDEST JUMPDEST PUSH1 0x0 PUSH2 0x4D8F DUP5 DUP3 DUP6 ADD PUSH2 0x4D56 JUMP JUMPDEST SWAP2 POP POP SWAP3 SWAP2 POP POP JUMP JUMPDEST PUSH32 0x55494E5453206E6F74206F776E65640000000000000000000000000000000000 PUSH1 0x0 DUP3 ADD MSTORE POP JUMP JUMPDEST PUSH1 0x0 PUSH2 0x4DCE PUSH1 0xF DUP4 PUSH2 0x2919 JUMP JUMPDEST SWAP2 POP PUSH2 0x4DD9 DUP3 PUSH2 0x4D98 JUMP JUMPDEST PUSH1 0x20 DUP3 ADD SWAP1 POP SWAP2 SWAP1 POP JUMP JUMPDEST PUSH1 0x0 PUSH1 0x20 DUP3 ADD SWAP1 POP DUP2 DUP2 SUB PUSH1 0x0 DUP4 ADD MSTORE PUSH2 0x4DFD DUP2 PUSH2 0x4DC1 JUMP JUMPDEST SWAP1 POP SWAP2 SWAP1 POP JUMP JUMPDEST PUSH32 0x55494E545320616C726561647920757365640000000000000000000000000000 PUSH1 0x0 DUP3 ADD MSTORE POP JUMP JUMPDEST PUSH1 0x0 PUSH2 0x4E3A PUSH1 0x12 DUP4 PUSH2 0x2919 JUMP JUMPDEST SWAP2 POP PUSH2 0x4E45 DUP3 PUSH2 0x4E04 JUMP JUMPDEST PUSH1 0x20 DUP3 ADD SWAP1 POP SWAP2 SWAP1 POP JUMP JUMPDEST PUSH1 0x0 PUSH1 0x20 DUP3 ADD SWAP1 POP DUP2 DUP2 SUB PUSH1 0x0 DUP4 ADD MSTORE PUSH2 0x4E69 DUP2 PUSH2 0x4E2D JUMP JUMPDEST SWAP1 POP SWAP2 SWAP1 POP JUMP JUMPDEST PUSH32 0x4D757374206F776E206174206C656173742031204F70656E2045646974696F6E PUSH1 0x0 DUP3 ADD MSTORE POP JUMP JUMPDEST PUSH1 0x0 PUSH2 0x4EA6 PUSH1 0x20 DUP4 PUSH2 0x2919 JUMP JUMPDEST SWAP2 POP PUSH2 0x4EB1 DUP3 PUSH2 0x4E70 JUMP JUMPDEST PUSH1 0x20 DUP3 ADD SWAP1 POP SWAP2 SWAP1 POP JUMP JUMPDEST PUSH1 0x0 PUSH1 0x20 DUP3 ADD SWAP1 POP DUP2 DUP2 SUB PUSH1 0x0 DUP4 ADD MSTORE PUSH2 0x4ED5 DUP2 PUSH2 0x4E99 JUMP JUMPDEST SWAP1 POP SWAP2 SWAP1 POP JUMP JUMPDEST PUSH32 0x7267622800000000000000000000000000000000000000000000000000000000 PUSH1 0x0 DUP3 ADD MSTORE POP JUMP JUMPDEST PUSH1 0x0 PUSH2 0x4F12 PUSH1 0x4 DUP4 PUSH2 0x3237 JUMP JUMPDEST SWAP2 POP PUSH2 0x4F1D DUP3 PUSH2 0x4EDC JUMP JUMPDEST PUSH1 0x4 DUP3 ADD SWAP1 POP SWAP2 SWAP1 POP JUMP JUMPDEST PUSH32 0x2C00000000000000000000000000000000000000000000000000000000000000 PUSH1 0x0 DUP3 ADD MSTORE POP JUMP JUMPDEST PUSH1 0x0 PUSH2 0x4F5E PUSH1 0x1 DUP4 PUSH2 0x3237 JUMP JUMPDEST SWAP2 POP PUSH2 0x4F69 DUP3 PUSH2 0x4F28 JUMP JUMPDEST PUSH1 0x1 DUP3 ADD SWAP1 POP SWAP2 SWAP1 POP JUMP JUMPDEST PUSH32 0x2900000000000000000000000000000000000000000000000000000000000000 PUSH1 0x0 DUP3 ADD MSTORE POP JUMP JUMPDEST PUSH1 0x0 PUSH2 0x4FAA PUSH1 0x1 DUP4 PUSH2 0x3237 JUMP JUMPDEST SWAP2 POP PUSH2 0x4FB5 DUP3 PUSH2 0x4F74 JUMP JUMPDEST PUSH1 0x1 DUP3 ADD SWAP1 POP SWAP2 SWAP1 POP JUMP JUMPDEST PUSH1 0x0 PUSH2 0x4FCB DUP3 PUSH2 0x4F05 JUMP JUMPDEST SWAP2 POP PUSH2 0x4FD7 DUP3 DUP7 PUSH2 0x45BB JUMP JUMPDEST SWAP2 POP PUSH2 0x4FE2 DUP3 PUSH2 0x4F51 JUMP JUMPDEST SWAP2 POP PUSH2 0x4FEE DUP3 DUP6 PUSH2 0x45BB JUMP JUMPDEST SWAP2 POP PUSH2 0x4FF9 DUP3 PUSH2 0x4F51 JUMP JUMPDEST SWAP2 POP PUSH2 0x5005 DUP3 DUP5 PUSH2 0x45BB JUMP JUMPDEST SWAP2 POP PUSH2 0x5010 DUP3 PUSH2 0x4F9D JUMP JUMPDEST SWAP2 POP DUP2 SWAP1 POP SWAP5 SWAP4 POP POP POP POP JUMP JUMPDEST PUSH1 0x0 PUSH1 0x20 PUSH1 0x1F DUP4 ADD DIV SWAP1 POP SWAP2 SWAP1 POP JUMP JUMPDEST PUSH1 0x0 DUP3 DUP3 SHL SWAP1 POP SWAP3 SWAP2 POP POP JUMP JUMPDEST PUSH1 0x0 PUSH1 0x8 DUP4 MUL PUSH2 0x506A PUSH32 0xFFFFFFFFFFFFFFFFFFFFFFFFFFFFFFFFFFFFFFFFFFFFFFFFFFFFFFFFFFFFFFFF DUP3 PUSH2 0x502D JUMP JUMPDEST PUSH2 0x5074 DUP7 DUP4 PUSH2 0x502D JUMP JUMPDEST SWAP6 POP DUP1 NOT DUP5 AND SWAP4 POP DUP1 DUP7 AND DUP5 OR SWAP3 POP POP POP SWAP4 SWAP3 POP POP POP JUMP JUMPDEST PUSH1 0x0 DUP2 SWAP1 POP SWAP2 SWAP1 POP JUMP JUMPDEST PUSH1 0x0 PUSH2 0x50B1 PUSH2 0x50AC PUSH2 0x50A7 DUP5 PUSH2 0x28DA JUMP JUMPDEST PUSH2 0x508C JUMP JUMPDEST PUSH2 0x28DA JUMP JUMPDEST SWAP1 POP SWAP2 SWAP1 POP JUMP JUMPDEST PUSH1 0x0 DUP2 SWAP1 POP SWAP2 SWAP1 POP JUMP JUMPDEST PUSH2 0x50CB DUP4 PUSH2 0x5096 JUMP JUMPDEST PUSH2 0x50DF PUSH2 0x50D7 DUP3 PUSH2 0x50B8 JUMP JUMPDEST DUP5 DUP5 SLOAD PUSH2 0x503A JUMP JUMPDEST DUP3 SSTORE POP POP POP POP JUMP JUMPDEST PUSH1 0x0 SWAP1 JUMP JUMPDEST PUSH2 0x50F4 PUSH2 0x50E7 JUMP JUMPDEST PUSH2 0x50FF DUP2 DUP5 DUP5 PUSH2 0x50C2 JUMP JUMPDEST POP POP POP JUMP JUMPDEST JUMPDEST DUP2 DUP2 LT ISZERO PUSH2 0x5123 JUMPI PUSH2 0x5118 PUSH1 0x0 DUP3 PUSH2 0x50EC JUMP JUMPDEST PUSH1 0x1 DUP2 ADD SWAP1 POP PUSH2 0x5105 JUMP JUMPDEST POP POP JUMP JUMPDEST PUSH1 0x1F DUP3 GT ISZERO PUSH2 0x5168 JUMPI PUSH2 0x5139 DUP2 PUSH2 0x4776 JUMP JUMPDEST PUSH2 0x5142 DUP5 PUSH2 0x501D JUMP JUMPDEST DUP2 ADD PUSH1 0x20 DUP6 LT ISZERO PUSH2 0x5151 JUMPI DUP2 SWAP1 POP JUMPDEST PUSH2 0x5165 PUSH2 0x515D DUP6 PUSH2 0x501D JUMP JUMPDEST DUP4 ADD DUP3 PUSH2 0x5104 JUMP JUMPDEST POP POP JUMPDEST POP POP POP JUMP JUMPDEST PUSH1 0x0 DUP3 DUP3 SHR SWAP1 POP SWAP3 SWAP2 POP POP JUMP JUMPDEST PUSH1 0x0 PUSH2 0x518B PUSH1 0x0 NOT DUP5 PUSH1 0x8 MUL PUSH2 0x516D JUMP JUMPDEST NOT DUP1 DUP4 AND SWAP2 POP POP SWAP3 SWAP2 POP POP JUMP JUMPDEST PUSH1 0x0 PUSH2 0x51A4 DUP4 DUP4 PUSH2 0x517A JUMP JUMPDEST SWAP2 POP DUP3 PUSH1 0x2 MUL DUP3 OR SWAP1 POP SWAP3 SWAP2 POP POP JUMP JUMPDEST PUSH2 0x51BD DUP3 PUSH2 0x290E JUMP JUMPDEST PUSH8 0xFFFFFFFFFFFFFFFF DUP2 GT ISZERO PUSH2 0x51D6 JUMPI PUSH2 0x51D5 PUSH2 0x2BA7 JUMP JUMPDEST JUMPDEST PUSH2 0x51E0 DUP3 SLOAD PUSH2 0x3101 JUMP JUMPDEST PUSH2 0x51EB DUP3 DUP3 DUP6 PUSH2 0x5127 JUMP JUMPDEST PUSH1 0x0 PUSH1 0x20 SWAP1 POP PUSH1 0x1F DUP4 GT PUSH1 0x1 DUP2 EQ PUSH2 0x521E JUMPI PUSH1 0x0 DUP5 ISZERO PUSH2 0x520C JUMPI DUP3 DUP8 ADD MLOAD SWAP1 POP JUMPDEST PUSH2 0x5216 DUP6 DUP3 PUSH2 0x5198 JUMP JUMPDEST DUP7 SSTORE POP PUSH2 0x527E JUMP JUMPDEST PUSH1 0x1F NOT DUP5 AND PUSH2 0x522C DUP7 PUSH2 0x4776 JUMP JUMPDEST PUSH1 0x0 JUMPDEST DUP3 DUP2 LT ISZERO PUSH2 0x5254 JUMPI DUP5 DUP10 ADD MLOAD DUP3 SSTORE PUSH1 0x1 DUP3 ADD SWAP2 POP PUSH1 0x20 DUP6 ADD SWAP5 POP PUSH1 0x20 DUP2 ADD SWAP1 POP PUSH2 0x522F JUMP JUMPDEST DUP7 DUP4 LT ISZERO PUSH2 0x5271 JUMPI DUP5 DUP10 ADD MLOAD PUSH2 0x526D PUSH1 0x1F DUP10 AND DUP3 PUSH2 0x517A JUMP JUMPDEST DUP4 SSTORE POP JUMPDEST PUSH1 0x1 PUSH1 0x2 DUP9 MUL ADD DUP9 SSTORE POP POP POP JUMPDEST POP POP POP POP POP POP JUMP JUMPDEST PUSH1 0x0 PUSH1 0xC0 DUP3 ADD SWAP1 POP PUSH2 0x529B PUSH1 0x0 DUP4 ADD DUP10 PUSH2 0x28E4 JUMP JUMPDEST PUSH2 0x52A8 PUSH1 0x20 DUP4 ADD DUP9 PUSH2 0x28E4 JUMP JUMPDEST DUP2 DUP2 SUB PUSH1 0x40 DUP4 ADD MSTORE PUSH2 0x52BA DUP2 DUP8 PUSH2 0x2965 JUMP JUMPDEST SWAP1 POP PUSH2 0x52C9 PUSH1 0x60 DUP4 ADD DUP7 PUSH2 0x2A4B JUMP JUMPDEST PUSH2 0x52D6 PUSH1 0x80 DUP4 ADD DUP6 PUSH2 0x28E4 JUMP JUMPDEST PUSH2 0x52E3 PUSH1 0xA0 DUP4 ADD DUP5 PUSH2 0x28E4 JUMP JUMPDEST SWAP8 SWAP7 POP POP POP POP POP POP POP JUMP JUMPDEST PUSH32 0x4F776E61626C653A206E6577206F776E657220697320746865207A65726F2061 PUSH1 0x0 DUP3 ADD MSTORE PUSH32 0x6464726573730000000000000000000000000000000000000000000000000000 PUSH1 0x20 DUP3 ADD MSTORE POP JUMP JUMPDEST PUSH1 0x0 PUSH2 0x534A PUSH1 0x26 DUP4 PUSH2 0x2919 JUMP JUMPDEST SWAP2 POP PUSH2 0x5355 DUP3 PUSH2 0x52EE JUMP JUMPDEST PUSH1 0x40 DUP3 ADD SWAP1 POP SWAP2 SWAP1 POP JUMP JUMPDEST PUSH1 0x0 PUSH1 0x20 DUP3 ADD SWAP1 POP DUP2 DUP2 SUB PUSH1 0x0 DUP4 ADD MSTORE PUSH2 0x5379 DUP2 PUSH2 0x533D JUMP JUMPDEST SWAP1 POP SWAP2 SWAP1 POP JUMP JUMPDEST PUSH32 0x4F776E61626C653A2063616C6C6572206973206E6F7420746865206F776E6572 PUSH1 0x0 DUP3 ADD MSTORE POP JUMP JUMPDEST PUSH1 0x0 PUSH2 0x53B6 PUSH1 0x20 DUP4 PUSH2 0x2919 JUMP JUMPDEST SWAP2 POP PUSH2 0x53C1 DUP3 PUSH2 0x5380 JUMP JUMPDEST PUSH1 0x20 DUP3 ADD SWAP1 POP SWAP2 SWAP1 POP JUMP JUMPDEST PUSH1 0x0 PUSH1 0x20 DUP3 ADD SWAP1 POP DUP2 DUP2 SUB PUSH1 0x0 DUP4 ADD MSTORE PUSH2 0x53E5 DUP2 PUSH2 0x53A9 JUMP JUMPDEST SWAP1 POP SWAP2 SWAP1 POP JUMP JUMPDEST PUSH32 0x455243323938313A20726F79616C7479206665652077696C6C20657863656564 PUSH1 0x0 DUP3 ADD MSTORE PUSH32 0x2073616C65507269636500000000000000000000000000000000000000000000 PUSH1 0x20 DUP3 ADD MSTORE POP JUMP JUMPDEST PUSH1 0x0 PUSH2 0x5448 PUSH1 0x2A DUP4 PUSH2 0x2919 JUMP JUMPDEST SWAP2 POP PUSH2 0x5453 DUP3 PUSH2 0x53EC JUMP JUMPDEST PUSH1 0x40 DUP3 ADD SWAP1 POP SWAP2 SWAP1 POP JUMP JUMPDEST PUSH1 0x0 PUSH1 0x20 DUP3 ADD SWAP1 POP DUP2 DUP2 SUB PUSH1 0x0 DUP4 ADD MSTORE PUSH2 0x5477 DUP2 PUSH2 0x543B JUMP JUMPDEST SWAP1 POP SWAP2 SWAP1 POP JUMP JUMPDEST PUSH32 0x455243323938313A20696E76616C696420726563656976657200000000000000 PUSH1 0x0 DUP3 ADD MSTORE POP JUMP JUMPDEST PUSH1 0x0 PUSH2 0x54B4 PUSH1 0x19 DUP4 PUSH2 0x2919 JUMP JUMPDEST SWAP2 POP PUSH2 0x54BF DUP3 PUSH2 0x547E JUMP JUMPDEST PUSH1 0x20 DUP3 ADD SWAP1 POP SWAP2 SWAP1 POP JUMP JUMPDEST PUSH1 0x0 PUSH1 0x20 DUP3 ADD SWAP1 POP DUP2 DUP2 SUB PUSH1 0x0 DUP4 ADD MSTORE PUSH2 0x54E3 DUP2 PUSH2 0x54A7 JUMP JUMPDEST SWAP1 POP SWAP2 SWAP1 POP JUMP JUMPDEST PUSH1 0x0 DUP2 MLOAD SWAP1 POP SWAP2 SWAP1 POP JUMP JUMPDEST PUSH1 0x0 DUP3 DUP3 MSTORE PUSH1 0x20 DUP3 ADD SWAP1 POP SWAP3 SWAP2 POP POP JUMP JUMPDEST PUSH1 0x0 PUSH2 0x5511 DUP3 PUSH2 0x54EA JUMP JUMPDEST PUSH2 0x551B DUP2 DUP6 PUSH2 0x54F5 JUMP JUMPDEST SWAP4 POP PUSH2 0x552B DUP2 DUP6 PUSH1 0x20 DUP7 ADD PUSH2 0x292A JUMP JUMPDEST PUSH2 0x5534 DUP2 PUSH2 0x2954 JUMP JUMPDEST DUP5 ADD SWAP2 POP POP SWAP3 SWAP2 POP POP JUMP JUMPDEST PUSH1 0x0 PUSH1 0x80 DUP3 ADD SWAP1 POP PUSH2 0x5554 PUSH1 0x0 DUP4 ADD DUP8 PUSH2 0x2A4B JUMP JUMPDEST PUSH2 0x5561 PUSH1 0x20 DUP4 ADD DUP7 PUSH2 0x2A4B JUMP JUMPDEST PUSH2 0x556E PUSH1 0x40 DUP4 ADD DUP6 PUSH2 0x28E4 JUMP JUMPDEST DUP2 DUP2 SUB PUSH1 0x60 DUP4 ADD MSTORE PUSH2 0x5580 DUP2 DUP5 PUSH2 0x5506 JUMP JUMPDEST SWAP1 POP SWAP6 SWAP5 POP POP POP POP POP JUMP JUMPDEST PUSH1 0x0 DUP2 MLOAD SWAP1 POP PUSH2 0x559A DUP2 PUSH2 0x284B JUMP JUMPDEST SWAP3 SWAP2 POP POP JUMP JUMPDEST PUSH1 0x0 PUSH1 0x20 DUP3 DUP5 SUB SLT ISZERO PUSH2 0x55B6 JUMPI PUSH2 0x55B5 PUSH2 0x2815 JUMP JUMPDEST JUMPDEST PUSH1 0x0 PUSH2 0x55C4 DUP5 DUP3 DUP6 ADD PUSH2 0x558B JUMP JUMPDEST SWAP2 POP POP SWAP3 SWAP2 POP POP JUMP INVALID COINBASE TIMESTAMP NUMBER PREVRANDAO GASLIMIT CHAINID SELFBALANCE BASEFEE 0x49 0x4A 0x4B 0x4C 0x4D 0x4E 0x4F POP MLOAD MSTORE MSTORE8 SLOAD SSTORE JUMP JUMPI PC MSIZE GAS PUSH2 0x6263 PUSH5 0x6566676869 PUSH11 0x6B6C6D6E6F707172737475 PUSH23 0x7778797A303132333435363738392B2FA2646970667358 0x22 SLT KECCAK256 CREATE 0x5C 0xD6 LOG0 GT 0x21 0x27 NUMBER 0xD4 0x4A 0xB9 INVALID 0xD9 0xE 0xDD 0xAD BYTE GASLIMIT PUSH8 0x41A4AD976BD191DB 0xCB 0xBE 0xC4 0xBE 0xB7 PUSH5 0x736F6C6343 STOP ADDMOD SLT STOP CALLER "
		},
		"gasEstimates": {
			"creation": {
				"codeDepositCost": "4416600",
				"executionCost": "infinite",
				"totalCost": "infinite"
			},
			"external": {
				"approve(address,uint256)": "infinite",
				"balanceOf(address)": "2950",
				"changeAllColors()": "infinite",
				"changeColor(uint256,uint256[3],uint256)": "infinite",
				"changeCounter()": "2518",
				"colors(uint256)": "infinite",
				"getApproved(uint256)": "7434",
				"getBalance()": "2722",
				"getCurrentStyles()": "infinite",
				"isApprovedForAll(address,address)": "infinite",
				"mint(uint256)": "infinite",
				"mintOne()": "73385",
				"name()": "infinite",
				"owner()": "2567",
				"ownerOf(uint256)": "infinite",
				"renderSvg(string)": "infinite",
				"renounceOwnership()": "30488",
				"royaltyInfo(uint256,uint256)": "infinite",
				"safeTransferFrom(address,address,uint256)": "infinite",
				"safeTransferFrom(address,address,uint256,bytes)": "infinite",
				"setApprovalForAll(address,bool)": "infinite",
				"setRoyalty(address,uint96)": "51802",
				"startMint()": "infinite",
				"stopPrivateMintTime()": "2496",
				"stopPublicMintTime()": "2498",
				"supportsInterface(bytes4)": "989",
				"symbol()": "infinite",
				"tokenURI(uint256)": "infinite",
				"totalSupply()": "4630",
				"transferFrom(address,address,uint256)": "infinite",
				"transferOwnership(address)": "30876",
				"usedTokens(uint256)": "2886",
				"validColors(uint256[3])": "infinite",
				"withdraw()": "infinite"
			},
			"internal": {
				"_startTokenId()": "23",
				"batchMint(uint256)": "infinite"
			}
		},
		"methodIdentifiers": {
			"approve(address,uint256)": "095ea7b3",
			"balanceOf(address)": "70a08231",
			"changeAllColors()": "4310e42e",
			"changeColor(uint256,uint256[3],uint256)": "e7c75585",
			"changeCounter()": "aaf4389a",
			"colors(uint256)": "bd11f69d",
			"getApproved(uint256)": "081812fc",
			"getBalance()": "12065fe0",
			"getCurrentStyles()": "7708b2d9",
			"isApprovedForAll(address,address)": "e985e9c5",
			"mint(uint256)": "a0712d68",
			"mintOne()": "0ced8637",
			"name()": "06fdde03",
			"owner()": "8da5cb5b",
			"ownerOf(uint256)": "6352211e",
			"renderSvg(string)": "32783e5b",
			"renounceOwnership()": "715018a6",
			"royaltyInfo(uint256,uint256)": "2a55205a",
			"safeTransferFrom(address,address,uint256)": "42842e0e",
			"safeTransferFrom(address,address,uint256,bytes)": "b88d4fde",
			"setApprovalForAll(address,bool)": "a22cb465",
			"setRoyalty(address,uint96)": "8f2fc60b",
			"startMint()": "2be09561",
			"stopPrivateMintTime()": "3886bbcf",
			"stopPublicMintTime()": "060f8c04",
			"supportsInterface(bytes4)": "01ffc9a7",
			"symbol()": "95d89b41",
			"tokenURI(uint256)": "c87b56dd",
			"totalSupply()": "18160ddd",
			"transferFrom(address,address,uint256)": "23b872dd",
			"transferOwnership(address)": "f2fde38b",
			"usedTokens(uint256)": "0f7ee879",
			"validColors(uint256[3])": "a3bcfe8d",
			"withdraw()": "3ccfd60b"
		}
	},
	"abi": [
		{
			"inputs": [],
			"stateMutability": "nonpayable",
			"type": "constructor"
		},
		{
			"inputs": [],
			"name": "ApprovalCallerNotOwnerNorApproved",
			"type": "error"
		},
		{
			"inputs": [],
			"name": "ApprovalQueryForNonexistentToken",
			"type": "error"
		},
		{
			"inputs": [],
			"name": "BalanceQueryForZeroAddress",
			"type": "error"
		},
		{
			"inputs": [],
			"name": "MintERC2309QuantityExceedsLimit",
			"type": "error"
		},
		{
			"inputs": [],
			"name": "MintToZeroAddress",
			"type": "error"
		},
		{
			"inputs": [],
			"name": "MintZeroQuantity",
			"type": "error"
		},
		{
			"inputs": [],
			"name": "OwnerQueryForNonexistentToken",
			"type": "error"
		},
		{
			"inputs": [],
			"name": "OwnershipNotInitializedForExtraData",
			"type": "error"
		},
		{
			"inputs": [],
			"name": "TransferCallerNotOwnerNorApproved",
			"type": "error"
		},
		{
			"inputs": [],
			"name": "TransferFromIncorrectOwner",
			"type": "error"
		},
		{
			"inputs": [],
			"name": "TransferToNonERC721ReceiverImplementer",
			"type": "error"
		},
		{
			"inputs": [],
			"name": "TransferToZeroAddress",
			"type": "error"
		},
		{
			"inputs": [],
			"name": "URIQueryForNonexistentToken",
			"type": "error"
		},
		{
			"anonymous": false,
			"inputs": [
				{
					"indexed": true,
					"internalType": "address",
					"name": "owner",
					"type": "address"
				},
				{
					"indexed": true,
					"internalType": "address",
					"name": "approved",
					"type": "address"
				},
				{
					"indexed": true,
					"internalType": "uint256",
					"name": "tokenId",
					"type": "uint256"
				}
			],
			"name": "Approval",
			"type": "event"
		},
		{
			"anonymous": false,
			"inputs": [
				{
					"indexed": true,
					"internalType": "address",
					"name": "owner",
					"type": "address"
				},
				{
					"indexed": true,
					"internalType": "address",
					"name": "operator",
					"type": "address"
				},
				{
					"indexed": false,
					"internalType": "bool",
					"name": "approved",
					"type": "bool"
				}
			],
			"name": "ApprovalForAll",
			"type": "event"
		},
		{
			"anonymous": false,
			"inputs": [
				{
					"indexed": true,
					"internalType": "uint256",
					"name": "fromTokenId",
					"type": "uint256"
				},
				{
					"indexed": false,
					"internalType": "uint256",
					"name": "toTokenId",
					"type": "uint256"
				},
				{
					"indexed": true,
					"internalType": "address",
					"name": "from",
					"type": "address"
				},
				{
					"indexed": true,
					"internalType": "address",
					"name": "to",
					"type": "address"
				}
			],
			"name": "ConsecutiveTransfer",
			"type": "event"
		},
		{
			"anonymous": false,
			"inputs": [
				{
					"indexed": true,
					"internalType": "address",
					"name": "previousOwner",
					"type": "address"
				},
				{
					"indexed": true,
					"internalType": "address",
					"name": "newOwner",
					"type": "address"
				}
			],
			"name": "OwnershipTransferred",
			"type": "event"
		},
		{
			"anonymous": false,
			"inputs": [
				{
					"indexed": true,
					"internalType": "address",
					"name": "from",
					"type": "address"
				},
				{
					"indexed": true,
					"internalType": "address",
					"name": "to",
					"type": "address"
				},
				{
					"indexed": true,
					"internalType": "uint256",
					"name": "tokenId",
					"type": "uint256"
				}
			],
			"name": "Transfer",
			"type": "event"
		},
		{
			"inputs": [
				{
					"internalType": "address",
					"name": "to",
					"type": "address"
				},
				{
					"internalType": "uint256",
					"name": "tokenId",
					"type": "uint256"
				}
			],
			"name": "approve",
			"outputs": [],
			"stateMutability": "payable",
			"type": "function"
		},
		{
			"inputs": [
				{
					"internalType": "address",
					"name": "owner",
					"type": "address"
				}
			],
			"name": "balanceOf",
			"outputs": [
				{
					"internalType": "uint256",
					"name": "",
					"type": "uint256"
				}
			],
			"stateMutability": "view",
			"type": "function"
		},
		{
			"inputs": [],
			"name": "changeAllColors",
			"outputs": [],
			"stateMutability": "nonpayable",
			"type": "function"
		},
		{
			"inputs": [
				{
					"internalType": "uint256",
					"name": "position",
					"type": "uint256"
				},
				{
					"internalType": "uint256[3]",
					"name": "rgbColors",
					"type": "uint256[3]"
				},
				{
					"internalType": "uint256",
					"name": "uintsId",
					"type": "uint256"
				}
			],
			"name": "changeColor",
			"outputs": [],
			"stateMutability": "nonpayable",
			"type": "function"
		},
		{
			"inputs": [],
			"name": "changeCounter",
			"outputs": [
				{
					"internalType": "uint256",
					"name": "",
					"type": "uint256"
				}
			],
			"stateMutability": "view",
			"type": "function"
		},
		{
			"inputs": [
				{
					"internalType": "uint256",
					"name": "",
					"type": "uint256"
				}
			],
			"name": "colors",
			"outputs": [
				{
					"internalType": "string",
					"name": "",
					"type": "string"
				}
			],
			"stateMutability": "view",
			"type": "function"
		},
		{
			"inputs": [
				{
					"internalType": "uint256",
					"name": "tokenId",
					"type": "uint256"
				}
			],
			"name": "getApproved",
			"outputs": [
				{
					"internalType": "address",
					"name": "",
					"type": "address"
				}
			],
			"stateMutability": "view",
			"type": "function"
		},
		{
			"inputs": [],
			"name": "getBalance",
			"outputs": [
				{
					"internalType": "uint256",
					"name": "",
					"type": "uint256"
				}
			],
			"stateMutability": "view",
			"type": "function"
		},
		{
			"inputs": [],
			"name": "getCurrentStyles",
			"outputs": [
				{
					"internalType": "string",
					"name": "styles",
					"type": "string"
				}
			],
			"stateMutability": "view",
			"type": "function"
		},
		{
			"inputs": [
				{
					"internalType": "address",
					"name": "owner",
					"type": "address"
				},
				{
					"internalType": "address",
					"name": "operator",
					"type": "address"
				}
			],
			"name": "isApprovedForAll",
			"outputs": [
				{
					"internalType": "bool",
					"name": "",
					"type": "bool"
				}
			],
			"stateMutability": "view",
			"type": "function"
		},
		{
			"inputs": [
				{
					"internalType": "uint256",
					"name": "quantity",
					"type": "uint256"
				}
			],
			"name": "mint",
			"outputs": [],
			"stateMutability": "payable",
			"type": "function"
		},
		{
			"inputs": [],
			"name": "mintOne",
			"outputs": [],
			"stateMutability": "nonpayable",
			"type": "function"
		},
		{
			"inputs": [],
			"name": "name",
			"outputs": [
				{
					"internalType": "string",
					"name": "",
					"type": "string"
				}
			],
			"stateMutability": "view",
			"type": "function"
		},
		{
			"inputs": [],
			"name": "owner",
			"outputs": [
				{
					"internalType": "address",
					"name": "",
					"type": "address"
				}
			],
			"stateMutability": "view",
			"type": "function"
		},
		{
			"inputs": [
				{
					"internalType": "uint256",
					"name": "tokenId",
					"type": "uint256"
				}
			],
			"name": "ownerOf",
			"outputs": [
				{
					"internalType": "address",
					"name": "",
					"type": "address"
				}
			],
			"stateMutability": "view",
			"type": "function"
		},
		{
			"inputs": [
				{
					"internalType": "string",
					"name": "styles",
					"type": "string"
				}
			],
			"name": "renderSvg",
			"outputs": [
				{
					"internalType": "string",
					"name": "",
					"type": "string"
				}
			],
			"stateMutability": "pure",
			"type": "function"
		},
		{
			"inputs": [],
			"name": "renounceOwnership",
			"outputs": [],
			"stateMutability": "nonpayable",
			"type": "function"
		},
		{
			"inputs": [
				{
					"internalType": "uint256",
					"name": "_tokenId",
					"type": "uint256"
				},
				{
					"internalType": "uint256",
					"name": "_salePrice",
					"type": "uint256"
				}
			],
			"name": "royaltyInfo",
			"outputs": [
				{
					"internalType": "address",
					"name": "",
					"type": "address"
				},
				{
					"internalType": "uint256",
					"name": "",
					"type": "uint256"
				}
			],
			"stateMutability": "view",
			"type": "function"
		},
		{
			"inputs": [
				{
					"internalType": "address",
					"name": "from",
					"type": "address"
				},
				{
					"internalType": "address",
					"name": "to",
					"type": "address"
				},
				{
					"internalType": "uint256",
					"name": "tokenId",
					"type": "uint256"
				}
			],
			"name": "safeTransferFrom",
			"outputs": [],
			"stateMutability": "payable",
			"type": "function"
		},
		{
			"inputs": [
				{
					"internalType": "address",
					"name": "from",
					"type": "address"
				},
				{
					"internalType": "address",
					"name": "to",
					"type": "address"
				},
				{
					"internalType": "uint256",
					"name": "tokenId",
					"type": "uint256"
				},
				{
					"internalType": "bytes",
					"name": "_data",
					"type": "bytes"
				}
			],
			"name": "safeTransferFrom",
			"outputs": [],
			"stateMutability": "payable",
			"type": "function"
		},
		{
			"inputs": [
				{
					"internalType": "address",
					"name": "operator",
					"type": "address"
				},
				{
					"internalType": "bool",
					"name": "approved",
					"type": "bool"
				}
			],
			"name": "setApprovalForAll",
			"outputs": [],
			"stateMutability": "nonpayable",
			"type": "function"
		},
		{
			"inputs": [
				{
					"internalType": "address",
					"name": "wallet",
					"type": "address"
				},
				{
					"internalType": "uint96",
					"name": "fee",
					"type": "uint96"
				}
			],
			"name": "setRoyalty",
			"outputs": [],
			"stateMutability": "nonpayable",
			"type": "function"
		},
		{
			"inputs": [],
			"name": "startMint",
			"outputs": [],
			"stateMutability": "nonpayable",
			"type": "function"
		},
		{
			"inputs": [],
			"name": "stopPrivateMintTime",
			"outputs": [
				{
					"internalType": "uint256",
					"name": "",
					"type": "uint256"
				}
			],
			"stateMutability": "view",
			"type": "function"
		},
		{
			"inputs": [],
			"name": "stopPublicMintTime",
			"outputs": [
				{
					"internalType": "uint256",
					"name": "",
					"type": "uint256"
				}
			],
			"stateMutability": "view",
			"type": "function"
		},
		{
			"inputs": [
				{
					"internalType": "bytes4",
					"name": "interfaceId",
					"type": "bytes4"
				}
			],
			"name": "supportsInterface",
			"outputs": [
				{
					"internalType": "bool",
					"name": "",
					"type": "bool"
				}
			],
			"stateMutability": "view",
			"type": "function"
		},
		{
			"inputs": [],
			"name": "symbol",
			"outputs": [
				{
					"internalType": "string",
					"name": "",
					"type": "string"
				}
			],
			"stateMutability": "view",
			"type": "function"
		},
		{
			"inputs": [
				{
					"internalType": "uint256",
					"name": "tokenId",
					"type": "uint256"
				}
			],
			"name": "tokenURI",
			"outputs": [
				{
					"internalType": "string",
					"name": "result",
					"type": "string"
				}
			],
			"stateMutability": "view",
			"type": "function"
		},
		{
			"inputs": [],
			"name": "totalSupply",
			"outputs": [
				{
					"internalType": "uint256",
					"name": "",
					"type": "uint256"
				}
			],
			"stateMutability": "view",
			"type": "function"
		},
		{
			"inputs": [
				{
					"internalType": "address",
					"name": "from",
					"type": "address"
				},
				{
					"internalType": "address",
					"name": "to",
					"type": "address"
				},
				{
					"internalType": "uint256",
					"name": "tokenId",
					"type": "uint256"
				}
			],
			"name": "transferFrom",
			"outputs": [],
			"stateMutability": "payable",
			"type": "function"
		},
		{
			"inputs": [
				{
					"internalType": "address",
					"name": "newOwner",
					"type": "address"
				}
			],
			"name": "transferOwnership",
			"outputs": [],
			"stateMutability": "nonpayable",
			"type": "function"
		},
		{
			"inputs": [
				{
					"internalType": "uint256",
					"name": "",
					"type": "uint256"
				}
			],
			"name": "usedTokens",
			"outputs": [
				{
					"internalType": "bool",
					"name": "",
					"type": "bool"
				}
			],
			"stateMutability": "view",
			"type": "function"
		},
		{
			"inputs": [
				{
					"internalType": "uint256[3]",
					"name": "rgbColors",
					"type": "uint256[3]"
				}
			],
			"name": "validColors",
			"outputs": [
				{
					"internalType": "bool",
					"name": "",
					"type": "bool"
				}
			],
			"stateMutability": "pure",
			"type": "function"
		},
		{
			"inputs": [],
			"name": "withdraw",
			"outputs": [],
			"stateMutability": "nonpayable",
			"type": "function"
		}
	]
}