{
	"data": {
		"bytecode": {
			"linkReferences": {},
			"object": "60806040523480156200001157600080fd5b506040518060400160405280601881526020017f55494e54532050524f4f46204f462042524f41444341535400000000000000008152506040518060400160405280600381526020017f555042000000000000000000000000000000000000000000000000000000000081525081600290816200008f919062000431565b508060039081620000a1919062000431565b50620000b2620000e060201b60201c565b6000819055505050620000da620000ce620000e960201b60201c565b620000f160201b60201c565b62000518565b60006001905090565b600033905090565b6000600860009054906101000a900473ffffffffffffffffffffffffffffffffffffffff16905081600860006101000a81548173ffffffffffffffffffffffffffffffffffffffff021916908373ffffffffffffffffffffffffffffffffffffffff1602179055508173ffffffffffffffffffffffffffffffffffffffff168173ffffffffffffffffffffffffffffffffffffffff167f8be0079c531659141344cd1fd0a4f28419497f9722a3daafe3b4186f6b6457e060405160405180910390a35050565b600081519050919050565b7f4e487b7100000000000000000000000000000000000000000000000000000000600052604160045260246000fd5b7f4e487b7100000000000000000000000000000000000000000000000000000000600052602260045260246000fd5b600060028204905060018216806200023957607f821691505b6020821081036200024f576200024e620001f1565b5b50919050565b60008190508160005260206000209050919050565b60006020601f8301049050919050565b600082821b905092915050565b600060088302620002b97fffffffffffffffffffffffffffffffffffffffffffffffffffffffffffffffff826200027a565b620002c586836200027a565b95508019841693508086168417925050509392505050565b6000819050919050565b6000819050919050565b6000620003126200030c6200030684620002dd565b620002e7565b620002dd565b9050919050565b6000819050919050565b6200032e83620002f1565b620003466200033d8262000319565b84845462000287565b825550505050565b600090565b6200035d6200034e565b6200036a81848462000323565b505050565b5b8181101562000392576200038660008262000353565b60018101905062000370565b5050565b601f821115620003e157620003ab8162000255565b620003b6846200026a565b81016020851015620003c6578190505b620003de620003d5856200026a565b8301826200036f565b50505b505050565b600082821c905092915050565b60006200040660001984600802620003e6565b1980831691505092915050565b6000620004218383620003f3565b9150826002028217905092915050565b6200043c82620001b7565b67ffffffffffffffff811115620004585762000457620001c2565b5b62000464825462000220565b6200047182828562000396565b600060209050601f831160018114620004a9576000841562000494578287015190505b620004a0858262000413565b86555062000510565b601f198416620004b98662000255565b60005b82811015620004e357848901518255600182019150602085019450602081019050620004bc565b86831015620005035784890151620004ff601f891682620003f3565b8355505b6001600288020188555050505b505050505050565b6146cd80620005286000396000f3fe60806040526004361061011f5760003560e01c8063715018a6116100a0578063b63e6ac311610064578063b63e6ac3146103aa578063b88d4fde146103e7578063c87b56dd14610403578063e985e9c514610440578063f2fde38b1461047d5761011f565b8063715018a6146102eb5780638da5cb5b1461030257806390eaefc01461032d57806395d89b4114610356578063a22cb465146103815761011f565b806323b872dd116100e757806323b872dd1461021057806342842e0e1461022c578063433f7b8b146102485780636352211e1461027157806370a08231146102ae5761011f565b806301ffc9a71461012457806306fdde0314610161578063081812fc1461018c578063095ea7b3146101c957806318160ddd146101e5575b600080fd5b34801561013057600080fd5b5061014b60048036038101906101469190612155565b6104a6565b604051610158919061219d565b60405180910390f35b34801561016d57600080fd5b50610176610538565b6040516101839190612248565b60405180910390f35b34801561019857600080fd5b506101b360048036038101906101ae91906122a0565b6105ca565b6040516101c0919061230e565b60405180910390f35b6101e360048036038101906101de9190612355565b610649565b005b3480156101f157600080fd5b506101fa61078d565b60405161020791906123a4565b60405180910390f35b61022a600480360381019061022591906123bf565b6107a4565b005b610246600480360381019061024191906123bf565b610ac6565b005b34801561025457600080fd5b5061026f600480360381019061026a9190612412565b610ae6565b005b34801561027d57600080fd5b50610298600480360381019061029391906122a0565b610b32565b6040516102a5919061230e565b60405180910390f35b3480156102ba57600080fd5b506102d560048036038101906102d09190612412565b610b44565b6040516102e291906123a4565b60405180910390f35b3480156102f757600080fd5b50610300610bfc565b005b34801561030e57600080fd5b50610317610c10565b604051610324919061230e565b60405180910390f35b34801561033957600080fd5b50610354600480360381019061034f919061243f565b610c3a565b005b34801561036257600080fd5b5061036b610e30565b6040516103789190612248565b60405180910390f35b34801561038d57600080fd5b506103a860048036038101906103a3919061254a565b610ec2565b005b3480156103b657600080fd5b506103d160048036038101906103cc91906122a0565b610fcd565b6040516103de91906126a2565b60405180910390f35b61040160048036038101906103fc91906127f9565b611167565b005b34801561040f57600080fd5b5061042a600480360381019061042591906122a0565b6111da565b6040516104379190612248565b60405180910390f35b34801561044c57600080fd5b506104676004803603810190610462919061287c565b6113db565b604051610474919061219d565b60405180910390f35b34801561048957600080fd5b506104a4600480360381019061049f9190612412565b61146f565b005b60006301ffc9a760e01b827bffffffffffffffffffffffffffffffffffffffffffffffffffffffff1916148061050157506380ac58cd60e01b827bffffffffffffffffffffffffffffffffffffffffffffffffffffffff1916145b806105315750635b5e139f60e01b827bffffffffffffffffffffffffffffffffffffffffffffffffffffffff1916145b9050919050565b606060028054610547906128eb565b80601f0160208091040260200160405190810160405280929190818152602001828054610573906128eb565b80156105c05780601f10610595576101008083540402835291602001916105c0565b820191906000526020600020905b8154815290600101906020018083116105a357829003601f168201915b5050505050905090565b60006105d5826114f2565b61060b576040517fcf4700e400000000000000000000000000000000000000000000000000000000815260040160405180910390fd5b6006600083815260200190815260200160002060000160009054906101000a900473ffffffffffffffffffffffffffffffffffffffff169050919050565b600061065482610b32565b90508073ffffffffffffffffffffffffffffffffffffffff16610675611551565b73ffffffffffffffffffffffffffffffffffffffff16146106d8576106a18161069c611551565b6113db565b6106d7576040517fcfb3b94200000000000000000000000000000000000000000000000000000000815260040160405180910390fd5b5b826006600084815260200190815260200160002060000160006101000a81548173ffffffffffffffffffffffffffffffffffffffff021916908373ffffffffffffffffffffffffffffffffffffffff160217905550818373ffffffffffffffffffffffffffffffffffffffff168273ffffffffffffffffffffffffffffffffffffffff167f8c5be1e5ebec7d5bd14f71427d1e84f3dd0314c0f7b2291e5b200ac8c7c3b92560405160405180910390a4505050565b6000610797611559565b6001546000540303905090565b60006107af82611562565b90508373ffffffffffffffffffffffffffffffffffffffff168173ffffffffffffffffffffffffffffffffffffffff1614610816576040517fa114810000000000000000000000000000000000000000000000000000000000815260040160405180910390fd5b6000806108228461162e565b915091506108388187610833611551565b611655565b6108845761084d86610848611551565b6113db565b610883576040517f59c896be00000000000000000000000000000000000000000000000000000000815260040160405180910390fd5b5b600073ffffffffffffffffffffffffffffffffffffffff168573ffffffffffffffffffffffffffffffffffffffff16036108ea576040517fea553b3400000000000000000000000000000000000000000000000000000000815260040160405180910390fd5b6108f78686866001611699565b801561090257600082555b600560008773ffffffffffffffffffffffffffffffffffffffff1673ffffffffffffffffffffffffffffffffffffffff168152602001908152602001600020600081546001900391905081905550600560008673ffffffffffffffffffffffffffffffffffffffff1673ffffffffffffffffffffffffffffffffffffffff16815260200190815260200160002060008154600101919050819055506109d0856109ac88888761169f565b7c0200000000000000000000000000000000000000000000000000000000176116c7565b600460008681526020019081526020016000208190555060007c0200000000000000000000000000000000000000000000000000000000841603610a565760006001850190506000600460008381526020019081526020016000205403610a54576000548114610a53578360046000838152602001908152602001600020819055505b5b505b838573ffffffffffffffffffffffffffffffffffffffff168773ffffffffffffffffffffffffffffffffffffffff167fddf252ad1be2c89b69c2b068fc378daa952ba7f163c4a11628f55a4df523b3ef60405160405180910390a4610abe86868660016116f2565b505050505050565b610ae183838360405180602001604052806000815250611167565b505050565b610aee6116f8565b80600a60006101000a81548173ffffffffffffffffffffffffffffffffffffffff021916908373ffffffffffffffffffffffffffffffffffffffff16021790555050565b6000610b3d82611562565b9050919050565b60008073ffffffffffffffffffffffffffffffffffffffff168273ffffffffffffffffffffffffffffffffffffffff1603610bab576040517f8f4eb60400000000000000000000000000000000000000000000000000000000815260040160405180910390fd5b67ffffffffffffffff600560008473ffffffffffffffffffffffffffffffffffffffff1673ffffffffffffffffffffffffffffffffffffffff16815260200190815260200160002054169050919050565b610c046116f8565b610c0e6000611776565b565b6000600860009054906101000a900473ffffffffffffffffffffffffffffffffffffffff16905090565b600a60009054906101000a900473ffffffffffffffffffffffffffffffffffffffff1673ffffffffffffffffffffffffffffffffffffffff163373ffffffffffffffffffffffffffffffffffffffff1614610cca576040517f08c379a0000000000000000000000000000000000000000000000000000000008152600401610cc190612968565b60405180910390fd5b6000610cd58561183c565b610cde8561183c565b610ce78561183c565b604051602001610cf993929190612aa8565b60405160208183030381529060405290506040518061010001604052808c81526020018b81526020018a81526020018981526020018873ffffffffffffffffffffffffffffffffffffffff168152602001878152602001828152602001633b9aca0084610d669190612b63565b815250600960008d81526020019081526020016000206000820151816000015560208201518160010155604082015181600201556060820151816003015560808201518160040160006101000a81548173ffffffffffffffffffffffffffffffffffffffff021916908373ffffffffffffffffffffffffffffffffffffffff16021790555060a0820151816005015560c0820151816006019081610e0a9190612d40565b5060e08201518160070155905050610e2387600161188c565b5050505050505050505050565b606060038054610e3f906128eb565b80601f0160208091040260200160405190810160405280929190818152602001828054610e6b906128eb565b8015610eb85780601f10610e8d57610100808354040283529160200191610eb8565b820191906000526020600020905b815481529060010190602001808311610e9b57829003601f168201915b5050505050905090565b8060076000610ecf611551565b73ffffffffffffffffffffffffffffffffffffffff1673ffffffffffffffffffffffffffffffffffffffff16815260200190815260200160002060008473ffffffffffffffffffffffffffffffffffffffff1673ffffffffffffffffffffffffffffffffffffffff16815260200190815260200160002060006101000a81548160ff0219169083151502179055508173ffffffffffffffffffffffffffffffffffffffff16610f7c611551565b73ffffffffffffffffffffffffffffffffffffffff167f17307eab39ab6107e8899845ad3d59bd9653f200f220920489ca2b5937696c3183604051610fc1919061219d565b60405180910390a35050565b610fd561208e565b610fde826114f2565b61101d576040517f08c379a000000000000000000000000000000000000000000000000000000000815260040161101490612e5e565b60405180910390fd5b6009600083815260200190815260200160002060405180610100016040529081600082015481526020016001820154815260200160028201548152602001600382015481526020016004820160009054906101000a900473ffffffffffffffffffffffffffffffffffffffff1673ffffffffffffffffffffffffffffffffffffffff1673ffffffffffffffffffffffffffffffffffffffff168152602001600582015481526020016006820180546110d4906128eb565b80601f0160208091040260200160405190810160405280929190818152602001828054611100906128eb565b801561114d5780601f106111225761010080835404028352916020019161114d565b820191906000526020600020905b81548152906001019060200180831161113057829003601f168201915b505050505081526020016007820154815250509050919050565b6111728484846107a4565b60008373ffffffffffffffffffffffffffffffffffffffff163b146111d45761119d84848484611a47565b6111d3576040517fd1a57ed600000000000000000000000000000000000000000000000000000000815260040160405180910390fd5b5b50505050565b60606111e5826114f2565b611224576040517f08c379a000000000000000000000000000000000000000000000000000000000815260040161121b90612e5e565b60405180910390fd5b6000611245600960008581526020019081526020016000206000015461183c565b611264600960008681526020019081526020016000206005015461183c565b600960008681526020019081526020016000206006016112b96009600088815260200190815260200160002060040160009054906101000a900473ffffffffffffffffffffffffffffffffffffffff16611b97565b6112d8600960008981526020019081526020016000206003015461183c565b6112f7600960008a81526020019081526020016000206001015461183c565b611316600960008b81526020019081526020016000206002015461183c565b611335600960008c81526020019081526020016000206007015461183c565b600960008c815260200190815260200160002060060160405160200161136399989796959493929190613c7c565b6040516020818303038152906040529050600061137f8461183c565b61138883611c05565b604051602001611399929190613f6d565b60405160208183030381529060405290506113b381611c05565b6040516020016113c39190613ffe565b60405160208183030381529060405292505050919050565b6000600760008473ffffffffffffffffffffffffffffffffffffffff1673ffffffffffffffffffffffffffffffffffffffff16815260200190815260200160002060008373ffffffffffffffffffffffffffffffffffffffff1673ffffffffffffffffffffffffffffffffffffffff16815260200190815260200160002060009054906101000a900460ff16905092915050565b6114776116f8565b600073ffffffffffffffffffffffffffffffffffffffff168173ffffffffffffffffffffffffffffffffffffffff16036114e6576040517f08c379a00000000000000000000000000000000000000000000000000000000081526004016114dd90614092565b60405180910390fd5b6114ef81611776565b50565b6000816114fd611559565b1115801561150c575060005482105b801561154a575060007c0100000000000000000000000000000000000000000000000000000000600460008581526020019081526020016000205416145b9050919050565b600033905090565b60006001905090565b60008082905080611571611559565b116115f7576000548110156115f65760006004600083815260200190815260200160002054905060007c01000000000000000000000000000000000000000000000000000000008216036115f4575b600081036115ea5760046000836001900393508381526020019081526020016000205490506115c0565b8092505050611629565b505b5b6040517fdf2d9b4200000000000000000000000000000000000000000000000000000000815260040160405180910390fd5b919050565b60008060006006600085815260200190815260200160002090508092508254915050915091565b600073ffffffffffffffffffffffffffffffffffffffff8316925073ffffffffffffffffffffffffffffffffffffffff821691508382148383141790509392505050565b50505050565b60008060e883901c905060e86116b6868684611d68565b62ffffff16901b9150509392505050565b600073ffffffffffffffffffffffffffffffffffffffff83169250814260a01b178317905092915050565b50505050565b611700611d71565b73ffffffffffffffffffffffffffffffffffffffff1661171e610c10565b73ffffffffffffffffffffffffffffffffffffffff1614611774576040517f08c379a000000000000000000000000000000000000000000000000000000000815260040161176b906140fe565b60405180910390fd5b565b6000600860009054906101000a900473ffffffffffffffffffffffffffffffffffffffff16905081600860006101000a81548173ffffffffffffffffffffffffffffffffffffffff021916908373ffffffffffffffffffffffffffffffffffffffff1602179055508173ffffffffffffffffffffffffffffffffffffffff168173ffffffffffffffffffffffffffffffffffffffff167f8be0079c531659141344cd1fd0a4f28419497f9722a3daafe3b4186f6b6457e060405160405180910390a35050565b606060a060405101806040526020810391506000825281835b60011561187757600184039350600a81066030018453600a8104905080611855575b50828103602084039350808452505050919050565b600080549050600082036118cc576040517fb562e8dd00000000000000000000000000000000000000000000000000000000815260040160405180910390fd5b6118d96000848385611699565b600160406001901b178202600560008573ffffffffffffffffffffffffffffffffffffffff1673ffffffffffffffffffffffffffffffffffffffff1681526020019081526020016000206000828254019250508190555061195083611941600086600061169f565b61194a85611d79565b176116c7565b6004600083815260200190815260200160002081905550600080838301905073ffffffffffffffffffffffffffffffffffffffff85169150828260007fddf252ad1be2c89b69c2b068fc378daa952ba7f163c4a11628f55a4df523b3ef600080a4600183015b8181146119f157808360007fddf252ad1be2c89b69c2b068fc378daa952ba7f163c4a11628f55a4df523b3ef600080a46001810190506119b6565b5060008203611a2c576040517f2e07630000000000000000000000000000000000000000000000000000000000815260040160405180910390fd5b806000819055505050611a4260008483856116f2565b505050565b60008373ffffffffffffffffffffffffffffffffffffffff1663150b7a02611a6d611551565b8786866040518563ffffffff1660e01b8152600401611a8f9493929190614173565b6020604051808303816000875af1925050508015611acb57506040513d601f19601f82011682018060405250810190611ac891906141d4565b60015b611b44573d8060008114611afb576040519150601f19603f3d011682016040523d82523d6000602084013e611b00565b606091505b506000815103611b3c576040517fd1a57ed600000000000000000000000000000000000000000000000000000000815260040160405180910390fd5b805181602001fd5b63150b7a0260e01b7bffffffffffffffffffffffffffffffffffffffffffffffffffffffff1916817bffffffffffffffffffffffffffffffffffffffffffffffffffffffff191614915050949350505050565b60606000611ba483611d89565b90506000815190506000600390506000600483611bc19190614201565b9050611bcf84600084611f4c565b611bda858386611f4c565b604051602001611beb9291906142cd565b604051602081830303815290604052945050505050919050565b60606000825103611c2757604051806020016040528060008152509050611d63565b60006040518060600160405280604081526020016146586040913990506000600360028551611c569190614307565b611c609190612b63565b6004611c6c919061433b565b67ffffffffffffffff811115611c8557611c846126ce565b5b6040519080825280601f01601f191660200182016040528015611cb75781602001600182028036833780820191505090505b509050600182016020820185865187015b80821015611d23576003820191508151603f8160121c168501518453600184019350603f81600c1c168501518453600184019350603f8160061c168501518453600184019350603f8116850151845360018401935050611cc8565b5050600386510660018114611d3f5760028114611d5257611d5a565b603d6001830353603d6002830353611d5a565b603d60018303535b50505080925050505b919050565b60009392505050565b600033905090565b60006001821460e11b9050919050565b60606000602867ffffffffffffffff811115611da857611da76126ce565b5b6040519080825280601f01601f191660200182016040528015611dda5781602001600182028036833780820191505090505b50905060005b6014811015611f42576000816013611df89190614201565b6008611e04919061433b565b6002611e1091906144b0565b8573ffffffffffffffffffffffffffffffffffffffff16611e319190612b63565b60f81b9050600060108260f81c611e489190614508565b60f81b905060008160f81c6010611e5f9190614539565b8360f81c611e6d9190614576565b60f81b9050611e7b82612048565b85856002611e89919061433b565b81518110611e9a57611e996145ab565b5b60200101907effffffffffffffffffffffffffffffffffffffffffffffffffffffffffffff1916908160001a905350611ed281612048565b856001866002611ee2919061433b565b611eec9190614307565b81518110611efd57611efc6145ab565b5b60200101907effffffffffffffffffffffffffffffffffffffffffffffffffffffffffffff1916908160001a9053505050508080611f3a906145da565b915050611de0565b5080915050919050565b6060600084905060008484611f619190614201565b67ffffffffffffffff811115611f7a57611f796126ce565b5b6040519080825280601f01601f191660200182016040528015611fac5781602001600182028036833780820191505090505b50905060008590505b8481101561203b57828181518110611fd057611fcf6145ab565b5b602001015160f81c60f81b828783611fe89190614201565b81518110611ff957611ff86145ab565b5b60200101907effffffffffffffffffffffffffffffffffffffffffffffffffffffffffffff1916908160001a9053508080612033906145da565b915050611fb5565b5080925050509392505050565b6000600a8260f81c60ff1610156120735760308260f81c6120699190614622565b60f81b9050612089565b60578260f81c6120839190614622565b60f81b90505b919050565b60405180610100016040528060008152602001600081526020016000815260200160008152602001600073ffffffffffffffffffffffffffffffffffffffff1681526020016000815260200160608152602001600081525090565b6000604051905090565b600080fd5b600080fd5b60007fffffffff0000000000000000000000000000000000000000000000000000000082169050919050565b612132816120fd565b811461213d57600080fd5b50565b60008135905061214f81612129565b92915050565b60006020828403121561216b5761216a6120f3565b5b600061217984828501612140565b91505092915050565b60008115159050919050565b61219781612182565b82525050565b60006020820190506121b2600083018461218e565b92915050565b600081519050919050565b600082825260208201905092915050565b60005b838110156121f25780820151818401526020810190506121d7565b60008484015250505050565b6000601f19601f8301169050919050565b600061221a826121b8565b61222481856121c3565b93506122348185602086016121d4565b61223d816121fe565b840191505092915050565b60006020820190508181036000830152612262818461220f565b905092915050565b6000819050919050565b61227d8161226a565b811461228857600080fd5b50565b60008135905061229a81612274565b92915050565b6000602082840312156122b6576122b56120f3565b5b60006122c48482850161228b565b91505092915050565b600073ffffffffffffffffffffffffffffffffffffffff82169050919050565b60006122f8826122cd565b9050919050565b612308816122ed565b82525050565b600060208201905061232360008301846122ff565b92915050565b612332816122ed565b811461233d57600080fd5b50565b60008135905061234f81612329565b92915050565b6000806040838503121561236c5761236b6120f3565b5b600061237a85828601612340565b925050602061238b8582860161228b565b9150509250929050565b61239e8161226a565b82525050565b60006020820190506123b96000830184612395565b92915050565b6000806000606084860312156123d8576123d76120f3565b5b60006123e686828701612340565b93505060206123f786828701612340565b92505060406124088682870161228b565b9150509250925092565b600060208284031215612428576124276120f3565b5b600061243684828501612340565b91505092915050565b6000806000806000806000806000806101408b8d031215612463576124626120f3565b5b60006124718d828e0161228b565b9a505060206124828d828e0161228b565b99505060406124938d828e0161228b565b98505060606124a48d828e0161228b565b97505060806124b58d828e01612340565b96505060a06124c68d828e0161228b565b95505060c06124d78d828e0161228b565b94505060e06124e88d828e0161228b565b9350506101006124fa8d828e0161228b565b92505061012061250c8d828e0161228b565b9150509295989b9194979a5092959850565b61252781612182565b811461253257600080fd5b50565b6000813590506125448161251e565b92915050565b60008060408385031215612561576125606120f3565b5b600061256f85828601612340565b925050602061258085828601612535565b9150509250929050565b6125938161226a565b82525050565b6125a2816122ed565b82525050565b600082825260208201905092915050565b60006125c4826121b8565b6125ce81856125a8565b93506125de8185602086016121d4565b6125e7816121fe565b840191505092915050565b60006101008301600083015161260b600086018261258a565b50602083015161261e602086018261258a565b506040830151612631604086018261258a565b506060830151612644606086018261258a565b5060808301516126576080860182612599565b5060a083015161266a60a086018261258a565b5060c083015184820360c086015261268282826125b9565b91505060e083015161269760e086018261258a565b508091505092915050565b600060208201905081810360008301526126bc81846125f2565b905092915050565b600080fd5b600080fd5b7f4e487b7100000000000000000000000000000000000000000000000000000000600052604160045260246000fd5b612706826121fe565b810181811067ffffffffffffffff82111715612725576127246126ce565b5b80604052505050565b60006127386120e9565b905061274482826126fd565b919050565b600067ffffffffffffffff821115612764576127636126ce565b5b61276d826121fe565b9050602081019050919050565b82818337600083830152505050565b600061279c61279784612749565b61272e565b9050828152602081018484840111156127b8576127b76126c9565b5b6127c384828561277a565b509392505050565b600082601f8301126127e0576127df6126c4565b5b81356127f0848260208601612789565b91505092915050565b60008060008060808587031215612813576128126120f3565b5b600061282187828801612340565b945050602061283287828801612340565b93505060406128438782880161228b565b925050606085013567ffffffffffffffff811115612864576128636120f8565b5b612870878288016127cb565b91505092959194509250565b60008060408385031215612893576128926120f3565b5b60006128a185828601612340565b92505060206128b285828601612340565b9150509250929050565b7f4e487b7100000000000000000000000000000000000000000000000000000000600052602260045260246000fd5b6000600282049050600182168061290357607f821691505b602082108103612916576129156128bc565b5b50919050565b7f556e617070726f766564206d696e74696e6720736f7572636500000000000000600082015250565b60006129526019836121c3565b915061295d8261291c565b602082019050919050565b6000602082019050818103600083015261298181612945565b9050919050565b600081905092915050565b7f5247422800000000000000000000000000000000000000000000000000000000600082015250565b60006129c9600483612988565b91506129d482612993565b600482019050919050565b60006129ea826121b8565b6129f48185612988565b9350612a048185602086016121d4565b80840191505092915050565b7f2c00000000000000000000000000000000000000000000000000000000000000600082015250565b6000612a46600183612988565b9150612a5182612a10565b600182019050919050565b7f2900000000000000000000000000000000000000000000000000000000000000600082015250565b6000612a92600183612988565b9150612a9d82612a5c565b600182019050919050565b6000612ab3826129bc565b9150612abf82866129df565b9150612aca82612a39565b9150612ad682856129df565b9150612ae182612a39565b9150612aed82846129df565b9150612af882612a85565b9150819050949350505050565b7f4e487b7100000000000000000000000000000000000000000000000000000000600052601260045260246000fd5b7f4e487b7100000000000000000000000000000000000000000000000000000000600052601160045260246000fd5b6000612b6e8261226a565b9150612b798361226a565b925082612b8957612b88612b05565b5b828204905092915050565b60008190508160005260206000209050919050565b60006020601f8301049050919050565b600082821b905092915050565b600060088302612bf67fffffffffffffffffffffffffffffffffffffffffffffffffffffffffffffffff82612bb9565b612c008683612bb9565b95508019841693508086168417925050509392505050565b6000819050919050565b6000612c3d612c38612c338461226a565b612c18565b61226a565b9050919050565b6000819050919050565b612c5783612c22565b612c6b612c6382612c44565b848454612bc6565b825550505050565b600090565b612c80612c73565b612c8b818484612c4e565b505050565b5b81811015612caf57612ca4600082612c78565b600181019050612c91565b5050565b601f821115612cf457612cc581612b94565b612cce84612ba9565b81016020851015612cdd578190505b612cf1612ce985612ba9565b830182612c90565b50505b505050565b600082821c905092915050565b6000612d1760001984600802612cf9565b1980831691505092915050565b6000612d308383612d06565b9150826002028217905092915050565b612d49826121b8565b67ffffffffffffffff811115612d6257612d616126ce565b5b612d6c82546128eb565b612d77828285612cb3565b600060209050601f831160018114612daa5760008415612d98578287015190505b612da28582612d24565b865550612e0a565b601f198416612db886612b94565b60005b82811015612de057848901518255600182019150602085019450602081019050612dbb565b86831015612dfd5784890151612df9601f891682612d06565b8355505b6001600288020188555050505b505050505050565b7f546f6b656e20646f6573206e6f74206578697374000000000000000000000000600082015250565b6000612e486014836121c3565b9150612e5382612e12565b602082019050919050565b60006020820190508181036000830152612e7781612e3b565b9050919050565b7f3c7376672077696474683d2239303022206865696768743d223930302220766960008201527f6577426f783d223020302033303020333030222066696c6c3d226e6f6e65222060208201527f786d6c6e733d22687474703a2f2f7777772e77332e6f72672f323030302f737660408201527f67223e3c726563742077696474683d2233303022206865696768743d2233303060608201527f222066696c6c3d2223304330433043222f3e3c7265637420783d22373622207960808201527f3d223436222077696474683d2231343822206865696768743d2232313022206660a08201527f696c6c3d227768697465222f3e3c726563742069643d22636f6c6f724261722260c08201527f20793d22323934222077696474683d2233303022206865696768743d2236222060e08201527f66696c6c3d2223306330633063223e3c616e696d6174652061747472696275746101008201527f654e616d653d227769647468222076616c7565733d22303b33303022206475726101208201527f3d223173222f3e3c2f726563743e3c7061746820643d224d3134312e352035396101408201527f2e323838364c3134332035372e373838364c3134342e352035392e32383836566101608201527f36392e323838394c3134332037302e3738394c3134312e352036392e323838396101808201527f5635392e323838365a222066696c6c3d22626c61636b222f3e3c7061746820646101a08201527f3d224d3135352e352035392e323838364c3135372035372e373838364c3135386101c08201527f2e352035392e323838365636392e323838394c3135372037302e3738394c31356101e08201527f352e352036392e323838395635392e323838365a222066696c6c3d22626c61636102008201527f6b222f3e3c7061746820643d224d3135352036392e373838374c3135362e35206102208201527f37312e323838374c3135352037322e373838384c3134352037322e373838384c6102408201527f3134332e352037312e323838374c3134352036392e373838374c3135352036396102608201527f2e373838375a222066696c6c3d22626c61636b222f3e3c6c696e652078313d226102808201527f3838222079313d2238342e32333437222078323d22323132222079323d2238346102a08201527f2e3233343722207374726f6b653d22626c61636b222f3e3c6c696e652078313d6102c08201527f223838222079313d223130332e363735222078323d22323132222079323d22316102e08201527f30332e36373522207374726f6b653d22626c61636b222f3e3c746578742066696103008201527f6c6c3d22626c61636b2220666f6e742d66616d696c793d2273616e732d7365726103208201527f69662220666f6e742d73697a653d22382220666f6e742d7765696768743d22626103408201527f6f6c64223e3c747370616e20783d2238382e3739332220793d2239362e3935386103608201527f36223e55494e54532050524f4f46204f462042524f4144434153543c2f7473706103808201527f616e3e3c2f746578743e3c7465787420746578742d616e63686f723d226d69646103a08201527f646c65222066696c6c3d22626c61636b2220666f6e742d66616d696c793d22736103c08201527f616e732d73657269662220666f6e742d73697a653d223132223e3c747370616e6103e08201527f20783d223134372e31362220793d223131392e323339223e230000000000000061040082015250565b600061338e61041983612988565b915061339982612e7e565b61041982019050919050565b7f3c2f747370616e3e3c2f746578743e3c6c696e652078313d2238382e3522207960008201527f313d223132352e343831222078323d223231312e35222079323d223132352e3460208201527f383122207374726f6b653d222330433043304322207374726f6b652d6c696e6560408201527f6361703d2273717561726522207374726f6b652d6461736861727261793d223260608201527f2034222f3e3c746578742066696c6c3d22233043304330432220666f6e742d6660808201527f616d696c793d2273616e732d73657269662220666f6e742d73697a653d22372260a08201527f3e3c747370616e20783d2238382e352220793d223134302e303938223e4e554d60c08201527f4245522042524f4144434153543a20000000000000000000000000000000000060e082015250565b60006134e560ef83612988565b91506134f0826133a5565b60ef82019050919050565b7f3c2f747370616e3e3c2f746578743e3c746578742066696c6c3d22233043304360008201527f30432220666f6e742d66616d696c793d2273616e732d73657269662220666f6e60208201527f742d73697a653d2237223e3c747370616e20783d2238382e352220793d22313560408201527f332e373333223e434f4c4f523a20000000000000000000000000000000000000606082015250565b60006135a3606e83612988565b91506135ae826134fb565b606e82019050919050565b600081546135c6816128eb565b6135d08186612988565b945060018216600081146135eb576001811461360057613633565b60ff1983168652811515820286019350613633565b61360985612b94565b60005b8381101561362b5781548189015260018201915060208101905061360c565b838801955050505b50505092915050565b7f3c2f747370616e3e3c2f746578743e3c746578742066696c6c3d22233043304360008201527f30432220666f6e742d66616d696c793d2273616e732d73657269662220666f6e60208201527f742d73697a653d2237223e3c747370616e20783d2238382e352220793d22313660408201527f372e333638223e4152544953543a200000000000000000000000000000000000606082015250565b60006136e4606f83612988565b91506136ef8261363c565b606f82019050919050565b7f3c2f747370616e3e3c2f746578743e3c746578742066696c6c3d22233043304360008201527f30432220666f6e742d66616d696c793d2273616e732d73657269662220666f6e60208201527f742d73697a653d2237223e3c747370616e20783d2238382e352220793d22313860408201527f312e303033223e55494e545320544f4b454e2049443a20000000000000000000606082015250565b60006137a2607783612988565b91506137ad826136fa565b607782019050919050565b7f3c2f747370616e3e3c2f746578743e3c746578742066696c6c3d22233043304360008201527f30432220666f6e742d66616d696c793d2273616e732d73657269662220666f6e60208201527f742d73697a653d2237223e3c747370616e20783d2238382e352220793d22313960408201527f342e363338223e424c4f434b2054494d455354414d503a200000000000000000606082015250565b6000613860607883612988565b915061386b826137b8565b607882019050919050565b7f3c2f747370616e3e3c2f746578743e3c746578742066696c6c3d22233043304360008201527f30432220666f6e742d66616d696c793d2273616e732d73657269662220666f6e60208201527f742d73697a653d2237223e3c747370616e20783d2238382e352220793d22323060408201527f382e323733223e4c4f434b204455524154494f4e3a2000000000000000000000606082015250565b600061391e607683612988565b915061392982613876565b607682019050919050565b7f204d494e55544553000000000000000000000000000000000000000000000000600082015250565b600061396a600883612988565b915061397582613934565b600882019050919050565b7f3c2f747370616e3e3c2f746578743e3c746578742066696c6c3d22233043304360008201527f30432220666f6e742d66616d696c793d2273616e732d73657269662220666f6e60208201527f742d73697a653d2237223e3c747370616e20783d2238382e352220793d22323260408201527f312e393038223e475241545549545920504149443a2000000000000000000000606082015250565b6000613a28607683612988565b9150613a3382613980565b607682019050919050565b7f2047574549000000000000000000000000000000000000000000000000000000600082015250565b6000613a74600583612988565b9150613a7f82613a3e565b600582019050919050565b7f3c2f747370616e3e3c2f746578743e3c6c696e652078313d2238382e3522207960008201527f313d223233322e373837222078323d223231312e35222079323d223233322e3760208201527f383722207374726f6b653d22626c61636b22207374726f6b652d6c696e65636160408201527f703d2273717561726522207374726f6b652d6461736861727261793d2232203460608201527f222f3e3c746578742066696c6c3d22626c61636b2220666f6e742d66616d696c60808201527f793d2273616e732d73657269662220666f6e742d73697a653d2235223e3c747360a08201527f70616e20783d2239382e353335322220793d223234352e353131223e4e554d4260c08201527f45525320415245204152542c20414e442057452041524520415254495354533c60e08201527f2f747370616e3e3c2f746578743e3c7374796c653e23636f6c6f724261727b666101008201527f696c6c3a0000000000000000000000000000000000000000000000000000000061012082015250565b6000613c1961012483612988565b9150613c2482613a8a565b61012482019050919050565b7f7d3c2f7374796c653e3c2f7376673e0000000000000000000000000000000000600082015250565b6000613c66600f83612988565b9150613c7182613c30565b600f82019050919050565b6000613c8782613380565b9150613c93828c6129df565b9150613c9e826134d8565b9150613caa828b6129df565b9150613cb582613596565b9150613cc1828a6135b9565b9150613ccc826136d7565b9150613cd882896129df565b9150613ce382613795565b9150613cef82886129df565b9150613cfa82613853565b9150613d0682876129df565b9150613d1182613911565b9150613d1d82866129df565b9150613d288261395d565b9150613d3382613a1b565b9150613d3f82856129df565b9150613d4a82613a67565b9150613d5582613c0b565b9150613d6182846135b9565b9150613d6c82613c59565b91508190509a9950505050505050505050565b7f7b226e616d65223a202255494e54532050726f6f66206f662042726f6164636160008201527f7374200000000000000000000000000000000000000000000000000000000000602082015250565b6000613ddb602383612988565b9150613de682613d7f565b602382019050919050565b7f222c20226465736372697074696f6e223a202255494e54532050726f6f66206f60008201527f662042726f61646361737420746f6b656e7320617265206469676974616c207260208201527f656365697074732073656e7420746f2055494e545320686f6c6465727320776860408201527f656e20746865792062726f61646361737420746f207468652055494e5453204560608201527f646974696f6e20636f6c6c656374696f6e2e204e756d6572732061726520617260808201527f742c20616e642077652061726520617274697374732e222c2022696d6167652260a08201527f3a2022646174613a696d6167652f7376672b786d6c3b6261736536342c00000060c082015250565b6000613f0b60dd83612988565b9150613f1682613df1565b60dd82019050919050565b7f227d000000000000000000000000000000000000000000000000000000000000600082015250565b6000613f57600283612988565b9150613f6282613f21565b600282019050919050565b6000613f7882613dce565b9150613f8482856129df565b9150613f8f82613efe565b9150613f9b82846129df565b9150613fa682613f4a565b91508190509392505050565b7f646174613a6170706c69636174696f6e2f6a736f6e3b6261736536342c000000600082015250565b6000613fe8601d83612988565b9150613ff382613fb2565b601d82019050919050565b600061400982613fdb565b915061401582846129df565b915081905092915050565b7f4f776e61626c653a206e6577206f776e657220697320746865207a65726f206160008201527f6464726573730000000000000000000000000000000000000000000000000000602082015250565b600061407c6026836121c3565b915061408782614020565b604082019050919050565b600060208201905081810360008301526140ab8161406f565b9050919050565b7f4f776e61626c653a2063616c6c6572206973206e6f7420746865206f776e6572600082015250565b60006140e86020836121c3565b91506140f3826140b2565b602082019050919050565b60006020820190508181036000830152614117816140db565b9050919050565b600081519050919050565b600082825260208201905092915050565b60006141458261411e565b61414f8185614129565b935061415f8185602086016121d4565b614168816121fe565b840191505092915050565b600060808201905061418860008301876122ff565b61419560208301866122ff565b6141a26040830185612395565b81810360608301526141b4818461413a565b905095945050505050565b6000815190506141ce81612129565b92915050565b6000602082840312156141ea576141e96120f3565b5b60006141f8848285016141bf565b91505092915050565b600061420c8261226a565b91506142178361226a565b925082820390508181111561422f5761422e612b34565b5b92915050565b7f3078000000000000000000000000000000000000000000000000000000000000600082015250565b600061426b600283612988565b915061427682614235565b600282019050919050565b7f2e2e2e0000000000000000000000000000000000000000000000000000000000600082015250565b60006142b7600383612988565b91506142c282614281565b600382019050919050565b60006142d88261425e565b91506142e482856129df565b91506142ef826142aa565b91506142fb82846129df565b91508190509392505050565b60006143128261226a565b915061431d8361226a565b925082820190508082111561433557614334612b34565b5b92915050565b60006143468261226a565b91506143518361226a565b925082820261435f8161226a565b9150828204841483151761437657614375612b34565b5b5092915050565b60008160011c9050919050565b6000808291508390505b60018511156143d4578086048111156143b0576143af612b34565b5b60018516156143bf5780820291505b80810290506143cd8561437d565b9450614394565b94509492505050565b6000826143ed57600190506144a9565b816143fb57600090506144a9565b8160018114614411576002811461441b5761444a565b60019150506144a9565b60ff84111561442d5761442c612b34565b5b8360020a91508482111561444457614443612b34565b5b506144a9565b5060208310610133831016604e8410600b841016171561447f5782820a90508381111561447a57614479612b34565b5b6144a9565b61448c848484600161438a565b925090508184048111156144a3576144a2612b34565b5b81810290505b9392505050565b60006144bb8261226a565b91506144c68361226a565b92506144f37fffffffffffffffffffffffffffffffffffffffffffffffffffffffffffffffff84846143dd565b905092915050565b600060ff82169050919050565b6000614513826144fb565b915061451e836144fb565b92508261452e5761452d612b05565b5b828204905092915050565b6000614544826144fb565b915061454f836144fb565b925082820261455d816144fb565b915080821461456f5761456e612b34565b5b5092915050565b6000614581826144fb565b915061458c836144fb565b9250828203905060ff8111156145a5576145a4612b34565b5b92915050565b7f4e487b7100000000000000000000000000000000000000000000000000000000600052603260045260246000fd5b60006145e58261226a565b91507fffffffffffffffffffffffffffffffffffffffffffffffffffffffffffffffff820361461757614616612b34565b5b600182019050919050565b600061462d826144fb565b9150614638836144fb565b9250828201905060ff81111561465157614650612b34565b5b9291505056fe4142434445464748494a4b4c4d4e4f505152535455565758595a6162636465666768696a6b6c6d6e6f707172737475767778797a303132333435363738392b2fa2646970667358221220547966eaf2ca128237107c5859e6a8d1a1167eda7fcdedc4de3ff79488f1535a64736f6c63430008120033",
			"opcodes": "PUSH1 0x80 PUSH1 0x40 MSTORE CALLVALUE DUP1 ISZERO PUSH3 0x11 JUMPI PUSH1 0x0 DUP1 REVERT JUMPDEST POP PUSH1 0x40 MLOAD DUP1 PUSH1 0x40 ADD PUSH1 0x40 MSTORE DUP1 PUSH1 0x18 DUP2 MSTORE PUSH1 0x20 ADD PUSH32 0x55494E54532050524F4F46204F462042524F4144434153540000000000000000 DUP2 MSTORE POP PUSH1 0x40 MLOAD DUP1 PUSH1 0x40 ADD PUSH1 0x40 MSTORE DUP1 PUSH1 0x3 DUP2 MSTORE PUSH1 0x20 ADD PUSH32 0x5550420000000000000000000000000000000000000000000000000000000000 DUP2 MSTORE POP DUP2 PUSH1 0x2 SWAP1 DUP2 PUSH3 0x8F SWAP2 SWAP1 PUSH3 0x431 JUMP JUMPDEST POP DUP1 PUSH1 0x3 SWAP1 DUP2 PUSH3 0xA1 SWAP2 SWAP1 PUSH3 0x431 JUMP JUMPDEST POP PUSH3 0xB2 PUSH3 0xE0 PUSH1 0x20 SHL PUSH1 0x20 SHR JUMP JUMPDEST PUSH1 0x0 DUP2 SWAP1 SSTORE POP POP POP PUSH3 0xDA PUSH3 0xCE PUSH3 0xE9 PUSH1 0x20 SHL PUSH1 0x20 SHR JUMP JUMPDEST PUSH3 0xF1 PUSH1 0x20 SHL PUSH1 0x20 SHR JUMP JUMPDEST PUSH3 0x518 JUMP JUMPDEST PUSH1 0x0 PUSH1 0x1 SWAP1 POP SWAP1 JUMP JUMPDEST PUSH1 0x0 CALLER SWAP1 POP SWAP1 JUMP JUMPDEST PUSH1 0x0 PUSH1 0x8 PUSH1 0x0 SWAP1 SLOAD SWAP1 PUSH2 0x100 EXP SWAP1 DIV PUSH20 0xFFFFFFFFFFFFFFFFFFFFFFFFFFFFFFFFFFFFFFFF AND SWAP1 POP DUP2 PUSH1 0x8 PUSH1 0x0 PUSH2 0x100 EXP DUP2 SLOAD DUP2 PUSH20 0xFFFFFFFFFFFFFFFFFFFFFFFFFFFFFFFFFFFFFFFF MUL NOT AND SWAP1 DUP4 PUSH20 0xFFFFFFFFFFFFFFFFFFFFFFFFFFFFFFFFFFFFFFFF AND MUL OR SWAP1 SSTORE POP DUP2 PUSH20 0xFFFFFFFFFFFFFFFFFFFFFFFFFFFFFFFFFFFFFFFF AND DUP2 PUSH20 0xFFFFFFFFFFFFFFFFFFFFFFFFFFFFFFFFFFFFFFFF AND PUSH32 0x8BE0079C531659141344CD1FD0A4F28419497F9722A3DAAFE3B4186F6B6457E0 PUSH1 0x40 MLOAD PUSH1 0x40 MLOAD DUP1 SWAP2 SUB SWAP1 LOG3 POP POP JUMP JUMPDEST PUSH1 0x0 DUP2 MLOAD SWAP1 POP SWAP2 SWAP1 POP JUMP JUMPDEST PUSH32 0x4E487B7100000000000000000000000000000000000000000000000000000000 PUSH1 0x0 MSTORE PUSH1 0x41 PUSH1 0x4 MSTORE PUSH1 0x24 PUSH1 0x0 REVERT JUMPDEST PUSH32 0x4E487B7100000000000000000000000000000000000000000000000000000000 PUSH1 0x0 MSTORE PUSH1 0x22 PUSH1 0x4 MSTORE PUSH1 0x24 PUSH1 0x0 REVERT JUMPDEST PUSH1 0x0 PUSH1 0x2 DUP3 DIV SWAP1 POP PUSH1 0x1 DUP3 AND DUP1 PUSH3 0x239 JUMPI PUSH1 0x7F DUP3 AND SWAP2 POP JUMPDEST PUSH1 0x20 DUP3 LT DUP2 SUB PUSH3 0x24F JUMPI PUSH3 0x24E PUSH3 0x1F1 JUMP JUMPDEST JUMPDEST POP SWAP2 SWAP1 POP JUMP JUMPDEST PUSH1 0x0 DUP2 SWAP1 POP DUP2 PUSH1 0x0 MSTORE PUSH1 0x20 PUSH1 0x0 KECCAK256 SWAP1 POP SWAP2 SWAP1 POP JUMP JUMPDEST PUSH1 0x0 PUSH1 0x20 PUSH1 0x1F DUP4 ADD DIV SWAP1 POP SWAP2 SWAP1 POP JUMP JUMPDEST PUSH1 0x0 DUP3 DUP3 SHL SWAP1 POP SWAP3 SWAP2 POP POP JUMP JUMPDEST PUSH1 0x0 PUSH1 0x8 DUP4 MUL PUSH3 0x2B9 PUSH32 0xFFFFFFFFFFFFFFFFFFFFFFFFFFFFFFFFFFFFFFFFFFFFFFFFFFFFFFFFFFFFFFFF DUP3 PUSH3 0x27A JUMP JUMPDEST PUSH3 0x2C5 DUP7 DUP4 PUSH3 0x27A JUMP JUMPDEST SWAP6 POP DUP1 NOT DUP5 AND SWAP4 POP DUP1 DUP7 AND DUP5 OR SWAP3 POP POP POP SWAP4 SWAP3 POP POP POP JUMP JUMPDEST PUSH1 0x0 DUP2 SWAP1 POP SWAP2 SWAP1 POP JUMP JUMPDEST PUSH1 0x0 DUP2 SWAP1 POP SWAP2 SWAP1 POP JUMP JUMPDEST PUSH1 0x0 PUSH3 0x312 PUSH3 0x30C PUSH3 0x306 DUP5 PUSH3 0x2DD JUMP JUMPDEST PUSH3 0x2E7 JUMP JUMPDEST PUSH3 0x2DD JUMP JUMPDEST SWAP1 POP SWAP2 SWAP1 POP JUMP JUMPDEST PUSH1 0x0 DUP2 SWAP1 POP SWAP2 SWAP1 POP JUMP JUMPDEST PUSH3 0x32E DUP4 PUSH3 0x2F1 JUMP JUMPDEST PUSH3 0x346 PUSH3 0x33D DUP3 PUSH3 0x319 JUMP JUMPDEST DUP5 DUP5 SLOAD PUSH3 0x287 JUMP JUMPDEST DUP3 SSTORE POP POP POP POP JUMP JUMPDEST PUSH1 0x0 SWAP1 JUMP JUMPDEST PUSH3 0x35D PUSH3 0x34E JUMP JUMPDEST PUSH3 0x36A DUP2 DUP5 DUP5 PUSH3 0x323 JUMP JUMPDEST POP POP POP JUMP JUMPDEST JUMPDEST DUP2 DUP2 LT ISZERO PUSH3 0x392 JUMPI PUSH3 0x386 PUSH1 0x0 DUP3 PUSH3 0x353 JUMP JUMPDEST PUSH1 0x1 DUP2 ADD SWAP1 POP PUSH3 0x370 JUMP JUMPDEST POP POP JUMP JUMPDEST PUSH1 0x1F DUP3 GT ISZERO PUSH3 0x3E1 JUMPI PUSH3 0x3AB DUP2 PUSH3 0x255 JUMP JUMPDEST PUSH3 0x3B6 DUP5 PUSH3 0x26A JUMP JUMPDEST DUP2 ADD PUSH1 0x20 DUP6 LT ISZERO PUSH3 0x3C6 JUMPI DUP2 SWAP1 POP JUMPDEST PUSH3 0x3DE PUSH3 0x3D5 DUP6 PUSH3 0x26A JUMP JUMPDEST DUP4 ADD DUP3 PUSH3 0x36F JUMP JUMPDEST POP POP JUMPDEST POP POP POP JUMP JUMPDEST PUSH1 0x0 DUP3 DUP3 SHR SWAP1 POP SWAP3 SWAP2 POP POP JUMP JUMPDEST PUSH1 0x0 PUSH3 0x406 PUSH1 0x0 NOT DUP5 PUSH1 0x8 MUL PUSH3 0x3E6 JUMP JUMPDEST NOT DUP1 DUP4 AND SWAP2 POP POP SWAP3 SWAP2 POP POP JUMP JUMPDEST PUSH1 0x0 PUSH3 0x421 DUP4 DUP4 PUSH3 0x3F3 JUMP JUMPDEST SWAP2 POP DUP3 PUSH1 0x2 MUL DUP3 OR SWAP1 POP SWAP3 SWAP2 POP POP JUMP JUMPDEST PUSH3 0x43C DUP3 PUSH3 0x1B7 JUMP JUMPDEST PUSH8 0xFFFFFFFFFFFFFFFF DUP2 GT ISZERO PUSH3 0x458 JUMPI PUSH3 0x457 PUSH3 0x1C2 JUMP JUMPDEST JUMPDEST PUSH3 0x464 DUP3 SLOAD PUSH3 0x220 JUMP JUMPDEST PUSH3 0x471 DUP3 DUP3 DUP6 PUSH3 0x396 JUMP JUMPDEST PUSH1 0x0 PUSH1 0x20 SWAP1 POP PUSH1 0x1F DUP4 GT PUSH1 0x1 DUP2 EQ PUSH3 0x4A9 JUMPI PUSH1 0x0 DUP5 ISZERO PUSH3 0x494 JUMPI DUP3 DUP8 ADD MLOAD SWAP1 POP JUMPDEST PUSH3 0x4A0 DUP6 DUP3 PUSH3 0x413 JUMP JUMPDEST DUP7 SSTORE POP PUSH3 0x510 JUMP JUMPDEST PUSH1 0x1F NOT DUP5 AND PUSH3 0x4B9 DUP7 PUSH3 0x255 JUMP JUMPDEST PUSH1 0x0 JUMPDEST DUP3 DUP2 LT ISZERO PUSH3 0x4E3 JUMPI DUP5 DUP10 ADD MLOAD DUP3 SSTORE PUSH1 0x1 DUP3 ADD SWAP2 POP PUSH1 0x20 DUP6 ADD SWAP5 POP PUSH1 0x20 DUP2 ADD SWAP1 POP PUSH3 0x4BC JUMP JUMPDEST DUP7 DUP4 LT ISZERO PUSH3 0x503 JUMPI DUP5 DUP10 ADD MLOAD PUSH3 0x4FF PUSH1 0x1F DUP10 AND DUP3 PUSH3 0x3F3 JUMP JUMPDEST DUP4 SSTORE POP JUMPDEST PUSH1 0x1 PUSH1 0x2 DUP9 MUL ADD DUP9 SSTORE POP POP POP JUMPDEST POP POP POP POP POP POP JUMP JUMPDEST PUSH2 0x46CD DUP1 PUSH3 0x528 PUSH1 0x0 CODECOPY PUSH1 0x0 RETURN INVALID PUSH1 0x80 PUSH1 0x40 MSTORE PUSH1 0x4 CALLDATASIZE LT PUSH2 0x11F JUMPI PUSH1 0x0 CALLDATALOAD PUSH1 0xE0 SHR DUP1 PUSH4 0x715018A6 GT PUSH2 0xA0 JUMPI DUP1 PUSH4 0xB63E6AC3 GT PUSH2 0x64 JUMPI DUP1 PUSH4 0xB63E6AC3 EQ PUSH2 0x3AA JUMPI DUP1 PUSH4 0xB88D4FDE EQ PUSH2 0x3E7 JUMPI DUP1 PUSH4 0xC87B56DD EQ PUSH2 0x403 JUMPI DUP1 PUSH4 0xE985E9C5 EQ PUSH2 0x440 JUMPI DUP1 PUSH4 0xF2FDE38B EQ PUSH2 0x47D JUMPI PUSH2 0x11F JUMP JUMPDEST DUP1 PUSH4 0x715018A6 EQ PUSH2 0x2EB JUMPI DUP1 PUSH4 0x8DA5CB5B EQ PUSH2 0x302 JUMPI DUP1 PUSH4 0x90EAEFC0 EQ PUSH2 0x32D JUMPI DUP1 PUSH4 0x95D89B41 EQ PUSH2 0x356 JUMPI DUP1 PUSH4 0xA22CB465 EQ PUSH2 0x381 JUMPI PUSH2 0x11F JUMP JUMPDEST DUP1 PUSH4 0x23B872DD GT PUSH2 0xE7 JUMPI DUP1 PUSH4 0x23B872DD EQ PUSH2 0x210 JUMPI DUP1 PUSH4 0x42842E0E EQ PUSH2 0x22C JUMPI DUP1 PUSH4 0x433F7B8B EQ PUSH2 0x248 JUMPI DUP1 PUSH4 0x6352211E EQ PUSH2 0x271 JUMPI DUP1 PUSH4 0x70A08231 EQ PUSH2 0x2AE JUMPI PUSH2 0x11F JUMP JUMPDEST DUP1 PUSH4 0x1FFC9A7 EQ PUSH2 0x124 JUMPI DUP1 PUSH4 0x6FDDE03 EQ PUSH2 0x161 JUMPI DUP1 PUSH4 0x81812FC EQ PUSH2 0x18C JUMPI DUP1 PUSH4 0x95EA7B3 EQ PUSH2 0x1C9 JUMPI DUP1 PUSH4 0x18160DDD EQ PUSH2 0x1E5 JUMPI JUMPDEST PUSH1 0x0 DUP1 REVERT JUMPDEST CALLVALUE DUP1 ISZERO PUSH2 0x130 JUMPI PUSH1 0x0 DUP1 REVERT JUMPDEST POP PUSH2 0x14B PUSH1 0x4 DUP1 CALLDATASIZE SUB DUP2 ADD SWAP1 PUSH2 0x146 SWAP2 SWAP1 PUSH2 0x2155 JUMP JUMPDEST PUSH2 0x4A6 JUMP JUMPDEST PUSH1 0x40 MLOAD PUSH2 0x158 SWAP2 SWAP1 PUSH2 0x219D JUMP JUMPDEST PUSH1 0x40 MLOAD DUP1 SWAP2 SUB SWAP1 RETURN JUMPDEST CALLVALUE DUP1 ISZERO PUSH2 0x16D JUMPI PUSH1 0x0 DUP1 REVERT JUMPDEST POP PUSH2 0x176 PUSH2 0x538 JUMP JUMPDEST PUSH1 0x40 MLOAD PUSH2 0x183 SWAP2 SWAP1 PUSH2 0x2248 JUMP JUMPDEST PUSH1 0x40 MLOAD DUP1 SWAP2 SUB SWAP1 RETURN JUMPDEST CALLVALUE DUP1 ISZERO PUSH2 0x198 JUMPI PUSH1 0x0 DUP1 REVERT JUMPDEST POP PUSH2 0x1B3 PUSH1 0x4 DUP1 CALLDATASIZE SUB DUP2 ADD SWAP1 PUSH2 0x1AE SWAP2 SWAP1 PUSH2 0x22A0 JUMP JUMPDEST PUSH2 0x5CA JUMP JUMPDEST PUSH1 0x40 MLOAD PUSH2 0x1C0 SWAP2 SWAP1 PUSH2 0x230E JUMP JUMPDEST PUSH1 0x40 MLOAD DUP1 SWAP2 SUB SWAP1 RETURN JUMPDEST PUSH2 0x1E3 PUSH1 0x4 DUP1 CALLDATASIZE SUB DUP2 ADD SWAP1 PUSH2 0x1DE SWAP2 SWAP1 PUSH2 0x2355 JUMP JUMPDEST PUSH2 0x649 JUMP JUMPDEST STOP JUMPDEST CALLVALUE DUP1 ISZERO PUSH2 0x1F1 JUMPI PUSH1 0x0 DUP1 REVERT JUMPDEST POP PUSH2 0x1FA PUSH2 0x78D JUMP JUMPDEST PUSH1 0x40 MLOAD PUSH2 0x207 SWAP2 SWAP1 PUSH2 0x23A4 JUMP JUMPDEST PUSH1 0x40 MLOAD DUP1 SWAP2 SUB SWAP1 RETURN JUMPDEST PUSH2 0x22A PUSH1 0x4 DUP1 CALLDATASIZE SUB DUP2 ADD SWAP1 PUSH2 0x225 SWAP2 SWAP1 PUSH2 0x23BF JUMP JUMPDEST PUSH2 0x7A4 JUMP JUMPDEST STOP JUMPDEST PUSH2 0x246 PUSH1 0x4 DUP1 CALLDATASIZE SUB DUP2 ADD SWAP1 PUSH2 0x241 SWAP2 SWAP1 PUSH2 0x23BF JUMP JUMPDEST PUSH2 0xAC6 JUMP JUMPDEST STOP JUMPDEST CALLVALUE DUP1 ISZERO PUSH2 0x254 JUMPI PUSH1 0x0 DUP1 REVERT JUMPDEST POP PUSH2 0x26F PUSH1 0x4 DUP1 CALLDATASIZE SUB DUP2 ADD SWAP1 PUSH2 0x26A SWAP2 SWAP1 PUSH2 0x2412 JUMP JUMPDEST PUSH2 0xAE6 JUMP JUMPDEST STOP JUMPDEST CALLVALUE DUP1 ISZERO PUSH2 0x27D JUMPI PUSH1 0x0 DUP1 REVERT JUMPDEST POP PUSH2 0x298 PUSH1 0x4 DUP1 CALLDATASIZE SUB DUP2 ADD SWAP1 PUSH2 0x293 SWAP2 SWAP1 PUSH2 0x22A0 JUMP JUMPDEST PUSH2 0xB32 JUMP JUMPDEST PUSH1 0x40 MLOAD PUSH2 0x2A5 SWAP2 SWAP1 PUSH2 0x230E JUMP JUMPDEST PUSH1 0x40 MLOAD DUP1 SWAP2 SUB SWAP1 RETURN JUMPDEST CALLVALUE DUP1 ISZERO PUSH2 0x2BA JUMPI PUSH1 0x0 DUP1 REVERT JUMPDEST POP PUSH2 0x2D5 PUSH1 0x4 DUP1 CALLDATASIZE SUB DUP2 ADD SWAP1 PUSH2 0x2D0 SWAP2 SWAP1 PUSH2 0x2412 JUMP JUMPDEST PUSH2 0xB44 JUMP JUMPDEST PUSH1 0x40 MLOAD PUSH2 0x2E2 SWAP2 SWAP1 PUSH2 0x23A4 JUMP JUMPDEST PUSH1 0x40 MLOAD DUP1 SWAP2 SUB SWAP1 RETURN JUMPDEST CALLVALUE DUP1 ISZERO PUSH2 0x2F7 JUMPI PUSH1 0x0 DUP1 REVERT JUMPDEST POP PUSH2 0x300 PUSH2 0xBFC JUMP JUMPDEST STOP JUMPDEST CALLVALUE DUP1 ISZERO PUSH2 0x30E JUMPI PUSH1 0x0 DUP1 REVERT JUMPDEST POP PUSH2 0x317 PUSH2 0xC10 JUMP JUMPDEST PUSH1 0x40 MLOAD PUSH2 0x324 SWAP2 SWAP1 PUSH2 0x230E JUMP JUMPDEST PUSH1 0x40 MLOAD DUP1 SWAP2 SUB SWAP1 RETURN JUMPDEST CALLVALUE DUP1 ISZERO PUSH2 0x339 JUMPI PUSH1 0x0 DUP1 REVERT JUMPDEST POP PUSH2 0x354 PUSH1 0x4 DUP1 CALLDATASIZE SUB DUP2 ADD SWAP1 PUSH2 0x34F SWAP2 SWAP1 PUSH2 0x243F JUMP JUMPDEST PUSH2 0xC3A JUMP JUMPDEST STOP JUMPDEST CALLVALUE DUP1 ISZERO PUSH2 0x362 JUMPI PUSH1 0x0 DUP1 REVERT JUMPDEST POP PUSH2 0x36B PUSH2 0xE30 JUMP JUMPDEST PUSH1 0x40 MLOAD PUSH2 0x378 SWAP2 SWAP1 PUSH2 0x2248 JUMP JUMPDEST PUSH1 0x40 MLOAD DUP1 SWAP2 SUB SWAP1 RETURN JUMPDEST CALLVALUE DUP1 ISZERO PUSH2 0x38D JUMPI PUSH1 0x0 DUP1 REVERT JUMPDEST POP PUSH2 0x3A8 PUSH1 0x4 DUP1 CALLDATASIZE SUB DUP2 ADD SWAP1 PUSH2 0x3A3 SWAP2 SWAP1 PUSH2 0x254A JUMP JUMPDEST PUSH2 0xEC2 JUMP JUMPDEST STOP JUMPDEST CALLVALUE DUP1 ISZERO PUSH2 0x3B6 JUMPI PUSH1 0x0 DUP1 REVERT JUMPDEST POP PUSH2 0x3D1 PUSH1 0x4 DUP1 CALLDATASIZE SUB DUP2 ADD SWAP1 PUSH2 0x3CC SWAP2 SWAP1 PUSH2 0x22A0 JUMP JUMPDEST PUSH2 0xFCD JUMP JUMPDEST PUSH1 0x40 MLOAD PUSH2 0x3DE SWAP2 SWAP1 PUSH2 0x26A2 JUMP JUMPDEST PUSH1 0x40 MLOAD DUP1 SWAP2 SUB SWAP1 RETURN JUMPDEST PUSH2 0x401 PUSH1 0x4 DUP1 CALLDATASIZE SUB DUP2 ADD SWAP1 PUSH2 0x3FC SWAP2 SWAP1 PUSH2 0x27F9 JUMP JUMPDEST PUSH2 0x1167 JUMP JUMPDEST STOP JUMPDEST CALLVALUE DUP1 ISZERO PUSH2 0x40F JUMPI PUSH1 0x0 DUP1 REVERT JUMPDEST POP PUSH2 0x42A PUSH1 0x4 DUP1 CALLDATASIZE SUB DUP2 ADD SWAP1 PUSH2 0x425 SWAP2 SWAP1 PUSH2 0x22A0 JUMP JUMPDEST PUSH2 0x11DA JUMP JUMPDEST PUSH1 0x40 MLOAD PUSH2 0x437 SWAP2 SWAP1 PUSH2 0x2248 JUMP JUMPDEST PUSH1 0x40 MLOAD DUP1 SWAP2 SUB SWAP1 RETURN JUMPDEST CALLVALUE DUP1 ISZERO PUSH2 0x44C JUMPI PUSH1 0x0 DUP1 REVERT JUMPDEST POP PUSH2 0x467 PUSH1 0x4 DUP1 CALLDATASIZE SUB DUP2 ADD SWAP1 PUSH2 0x462 SWAP2 SWAP1 PUSH2 0x287C JUMP JUMPDEST PUSH2 0x13DB JUMP JUMPDEST PUSH1 0x40 MLOAD PUSH2 0x474 SWAP2 SWAP1 PUSH2 0x219D JUMP JUMPDEST PUSH1 0x40 MLOAD DUP1 SWAP2 SUB SWAP1 RETURN JUMPDEST CALLVALUE DUP1 ISZERO PUSH2 0x489 JUMPI PUSH1 0x0 DUP1 REVERT JUMPDEST POP PUSH2 0x4A4 PUSH1 0x4 DUP1 CALLDATASIZE SUB DUP2 ADD SWAP1 PUSH2 0x49F SWAP2 SWAP1 PUSH2 0x2412 JUMP JUMPDEST PUSH2 0x146F JUMP JUMPDEST STOP JUMPDEST PUSH1 0x0 PUSH4 0x1FFC9A7 PUSH1 0xE0 SHL DUP3 PUSH28 0xFFFFFFFFFFFFFFFFFFFFFFFFFFFFFFFFFFFFFFFFFFFFFFFFFFFFFFFF NOT AND EQ DUP1 PUSH2 0x501 JUMPI POP PUSH4 0x80AC58CD PUSH1 0xE0 SHL DUP3 PUSH28 0xFFFFFFFFFFFFFFFFFFFFFFFFFFFFFFFFFFFFFFFFFFFFFFFFFFFFFFFF NOT AND EQ JUMPDEST DUP1 PUSH2 0x531 JUMPI POP PUSH4 0x5B5E139F PUSH1 0xE0 SHL DUP3 PUSH28 0xFFFFFFFFFFFFFFFFFFFFFFFFFFFFFFFFFFFFFFFFFFFFFFFFFFFFFFFF NOT AND EQ JUMPDEST SWAP1 POP SWAP2 SWAP1 POP JUMP JUMPDEST PUSH1 0x60 PUSH1 0x2 DUP1 SLOAD PUSH2 0x547 SWAP1 PUSH2 0x28EB JUMP JUMPDEST DUP1 PUSH1 0x1F ADD PUSH1 0x20 DUP1 SWAP2 DIV MUL PUSH1 0x20 ADD PUSH1 0x40 MLOAD SWAP1 DUP2 ADD PUSH1 0x40 MSTORE DUP1 SWAP3 SWAP2 SWAP1 DUP2 DUP2 MSTORE PUSH1 0x20 ADD DUP3 DUP1 SLOAD PUSH2 0x573 SWAP1 PUSH2 0x28EB JUMP JUMPDEST DUP1 ISZERO PUSH2 0x5C0 JUMPI DUP1 PUSH1 0x1F LT PUSH2 0x595 JUMPI PUSH2 0x100 DUP1 DUP4 SLOAD DIV MUL DUP4 MSTORE SWAP2 PUSH1 0x20 ADD SWAP2 PUSH2 0x5C0 JUMP JUMPDEST DUP3 ADD SWAP2 SWAP1 PUSH1 0x0 MSTORE PUSH1 0x20 PUSH1 0x0 KECCAK256 SWAP1 JUMPDEST DUP2 SLOAD DUP2 MSTORE SWAP1 PUSH1 0x1 ADD SWAP1 PUSH1 0x20 ADD DUP1 DUP4 GT PUSH2 0x5A3 JUMPI DUP3 SWAP1 SUB PUSH1 0x1F AND DUP3 ADD SWAP2 JUMPDEST POP POP POP POP POP SWAP1 POP SWAP1 JUMP JUMPDEST PUSH1 0x0 PUSH2 0x5D5 DUP3 PUSH2 0x14F2 JUMP JUMPDEST PUSH2 0x60B JUMPI PUSH1 0x40 MLOAD PUSH32 0xCF4700E400000000000000000000000000000000000000000000000000000000 DUP2 MSTORE PUSH1 0x4 ADD PUSH1 0x40 MLOAD DUP1 SWAP2 SUB SWAP1 REVERT JUMPDEST PUSH1 0x6 PUSH1 0x0 DUP4 DUP2 MSTORE PUSH1 0x20 ADD SWAP1 DUP2 MSTORE PUSH1 0x20 ADD PUSH1 0x0 KECCAK256 PUSH1 0x0 ADD PUSH1 0x0 SWAP1 SLOAD SWAP1 PUSH2 0x100 EXP SWAP1 DIV PUSH20 0xFFFFFFFFFFFFFFFFFFFFFFFFFFFFFFFFFFFFFFFF AND SWAP1 POP SWAP2 SWAP1 POP JUMP JUMPDEST PUSH1 0x0 PUSH2 0x654 DUP3 PUSH2 0xB32 JUMP JUMPDEST SWAP1 POP DUP1 PUSH20 0xFFFFFFFFFFFFFFFFFFFFFFFFFFFFFFFFFFFFFFFF AND PUSH2 0x675 PUSH2 0x1551 JUMP JUMPDEST PUSH20 0xFFFFFFFFFFFFFFFFFFFFFFFFFFFFFFFFFFFFFFFF AND EQ PUSH2 0x6D8 JUMPI PUSH2 0x6A1 DUP2 PUSH2 0x69C PUSH2 0x1551 JUMP JUMPDEST PUSH2 0x13DB JUMP JUMPDEST PUSH2 0x6D7 JUMPI PUSH1 0x40 MLOAD PUSH32 0xCFB3B94200000000000000000000000000000000000000000000000000000000 DUP2 MSTORE PUSH1 0x4 ADD PUSH1 0x40 MLOAD DUP1 SWAP2 SUB SWAP1 REVERT JUMPDEST JUMPDEST DUP3 PUSH1 0x6 PUSH1 0x0 DUP5 DUP2 MSTORE PUSH1 0x20 ADD SWAP1 DUP2 MSTORE PUSH1 0x20 ADD PUSH1 0x0 KECCAK256 PUSH1 0x0 ADD PUSH1 0x0 PUSH2 0x100 EXP DUP2 SLOAD DUP2 PUSH20 0xFFFFFFFFFFFFFFFFFFFFFFFFFFFFFFFFFFFFFFFF MUL NOT AND SWAP1 DUP4 PUSH20 0xFFFFFFFFFFFFFFFFFFFFFFFFFFFFFFFFFFFFFFFF AND MUL OR SWAP1 SSTORE POP DUP2 DUP4 PUSH20 0xFFFFFFFFFFFFFFFFFFFFFFFFFFFFFFFFFFFFFFFF AND DUP3 PUSH20 0xFFFFFFFFFFFFFFFFFFFFFFFFFFFFFFFFFFFFFFFF AND PUSH32 0x8C5BE1E5EBEC7D5BD14F71427D1E84F3DD0314C0F7B2291E5B200AC8C7C3B925 PUSH1 0x40 MLOAD PUSH1 0x40 MLOAD DUP1 SWAP2 SUB SWAP1 LOG4 POP POP POP JUMP JUMPDEST PUSH1 0x0 PUSH2 0x797 PUSH2 0x1559 JUMP JUMPDEST PUSH1 0x1 SLOAD PUSH1 0x0 SLOAD SUB SUB SWAP1 POP SWAP1 JUMP JUMPDEST PUSH1 0x0 PUSH2 0x7AF DUP3 PUSH2 0x1562 JUMP JUMPDEST SWAP1 POP DUP4 PUSH20 0xFFFFFFFFFFFFFFFFFFFFFFFFFFFFFFFFFFFFFFFF AND DUP2 PUSH20 0xFFFFFFFFFFFFFFFFFFFFFFFFFFFFFFFFFFFFFFFF AND EQ PUSH2 0x816 JUMPI PUSH1 0x40 MLOAD PUSH32 0xA114810000000000000000000000000000000000000000000000000000000000 DUP2 MSTORE PUSH1 0x4 ADD PUSH1 0x40 MLOAD DUP1 SWAP2 SUB SWAP1 REVERT JUMPDEST PUSH1 0x0 DUP1 PUSH2 0x822 DUP5 PUSH2 0x162E JUMP JUMPDEST SWAP2 POP SWAP2 POP PUSH2 0x838 DUP2 DUP8 PUSH2 0x833 PUSH2 0x1551 JUMP JUMPDEST PUSH2 0x1655 JUMP JUMPDEST PUSH2 0x884 JUMPI PUSH2 0x84D DUP7 PUSH2 0x848 PUSH2 0x1551 JUMP JUMPDEST PUSH2 0x13DB JUMP JUMPDEST PUSH2 0x883 JUMPI PUSH1 0x40 MLOAD PUSH32 0x59C896BE00000000000000000000000000000000000000000000000000000000 DUP2 MSTORE PUSH1 0x4 ADD PUSH1 0x40 MLOAD DUP1 SWAP2 SUB SWAP1 REVERT JUMPDEST JUMPDEST PUSH1 0x0 PUSH20 0xFFFFFFFFFFFFFFFFFFFFFFFFFFFFFFFFFFFFFFFF AND DUP6 PUSH20 0xFFFFFFFFFFFFFFFFFFFFFFFFFFFFFFFFFFFFFFFF AND SUB PUSH2 0x8EA JUMPI PUSH1 0x40 MLOAD PUSH32 0xEA553B3400000000000000000000000000000000000000000000000000000000 DUP2 MSTORE PUSH1 0x4 ADD PUSH1 0x40 MLOAD DUP1 SWAP2 SUB SWAP1 REVERT JUMPDEST PUSH2 0x8F7 DUP7 DUP7 DUP7 PUSH1 0x1 PUSH2 0x1699 JUMP JUMPDEST DUP1 ISZERO PUSH2 0x902 JUMPI PUSH1 0x0 DUP3 SSTORE JUMPDEST PUSH1 0x5 PUSH1 0x0 DUP8 PUSH20 0xFFFFFFFFFFFFFFFFFFFFFFFFFFFFFFFFFFFFFFFF AND PUSH20 0xFFFFFFFFFFFFFFFFFFFFFFFFFFFFFFFFFFFFFFFF AND DUP2 MSTORE PUSH1 0x20 ADD SWAP1 DUP2 MSTORE PUSH1 0x20 ADD PUSH1 0x0 KECCAK256 PUSH1 0x0 DUP2 SLOAD PUSH1 0x1 SWAP1 SUB SWAP2 SWAP1 POP DUP2 SWAP1 SSTORE POP PUSH1 0x5 PUSH1 0x0 DUP7 PUSH20 0xFFFFFFFFFFFFFFFFFFFFFFFFFFFFFFFFFFFFFFFF AND PUSH20 0xFFFFFFFFFFFFFFFFFFFFFFFFFFFFFFFFFFFFFFFF AND DUP2 MSTORE PUSH1 0x20 ADD SWAP1 DUP2 MSTORE PUSH1 0x20 ADD PUSH1 0x0 KECCAK256 PUSH1 0x0 DUP2 SLOAD PUSH1 0x1 ADD SWAP2 SWAP1 POP DUP2 SWAP1 SSTORE POP PUSH2 0x9D0 DUP6 PUSH2 0x9AC DUP9 DUP9 DUP8 PUSH2 0x169F JUMP JUMPDEST PUSH29 0x200000000000000000000000000000000000000000000000000000000 OR PUSH2 0x16C7 JUMP JUMPDEST PUSH1 0x4 PUSH1 0x0 DUP7 DUP2 MSTORE PUSH1 0x20 ADD SWAP1 DUP2 MSTORE PUSH1 0x20 ADD PUSH1 0x0 KECCAK256 DUP2 SWAP1 SSTORE POP PUSH1 0x0 PUSH29 0x200000000000000000000000000000000000000000000000000000000 DUP5 AND SUB PUSH2 0xA56 JUMPI PUSH1 0x0 PUSH1 0x1 DUP6 ADD SWAP1 POP PUSH1 0x0 PUSH1 0x4 PUSH1 0x0 DUP4 DUP2 MSTORE PUSH1 0x20 ADD SWAP1 DUP2 MSTORE PUSH1 0x20 ADD PUSH1 0x0 KECCAK256 SLOAD SUB PUSH2 0xA54 JUMPI PUSH1 0x0 SLOAD DUP2 EQ PUSH2 0xA53 JUMPI DUP4 PUSH1 0x4 PUSH1 0x0 DUP4 DUP2 MSTORE PUSH1 0x20 ADD SWAP1 DUP2 MSTORE PUSH1 0x20 ADD PUSH1 0x0 KECCAK256 DUP2 SWAP1 SSTORE POP JUMPDEST JUMPDEST POP JUMPDEST DUP4 DUP6 PUSH20 0xFFFFFFFFFFFFFFFFFFFFFFFFFFFFFFFFFFFFFFFF AND DUP8 PUSH20 0xFFFFFFFFFFFFFFFFFFFFFFFFFFFFFFFFFFFFFFFF AND PUSH32 0xDDF252AD1BE2C89B69C2B068FC378DAA952BA7F163C4A11628F55A4DF523B3EF PUSH1 0x40 MLOAD PUSH1 0x40 MLOAD DUP1 SWAP2 SUB SWAP1 LOG4 PUSH2 0xABE DUP7 DUP7 DUP7 PUSH1 0x1 PUSH2 0x16F2 JUMP JUMPDEST POP POP POP POP POP POP JUMP JUMPDEST PUSH2 0xAE1 DUP4 DUP4 DUP4 PUSH1 0x40 MLOAD DUP1 PUSH1 0x20 ADD PUSH1 0x40 MSTORE DUP1 PUSH1 0x0 DUP2 MSTORE POP PUSH2 0x1167 JUMP JUMPDEST POP POP POP JUMP JUMPDEST PUSH2 0xAEE PUSH2 0x16F8 JUMP JUMPDEST DUP1 PUSH1 0xA PUSH1 0x0 PUSH2 0x100 EXP DUP2 SLOAD DUP2 PUSH20 0xFFFFFFFFFFFFFFFFFFFFFFFFFFFFFFFFFFFFFFFF MUL NOT AND SWAP1 DUP4 PUSH20 0xFFFFFFFFFFFFFFFFFFFFFFFFFFFFFFFFFFFFFFFF AND MUL OR SWAP1 SSTORE POP POP JUMP JUMPDEST PUSH1 0x0 PUSH2 0xB3D DUP3 PUSH2 0x1562 JUMP JUMPDEST SWAP1 POP SWAP2 SWAP1 POP JUMP JUMPDEST PUSH1 0x0 DUP1 PUSH20 0xFFFFFFFFFFFFFFFFFFFFFFFFFFFFFFFFFFFFFFFF AND DUP3 PUSH20 0xFFFFFFFFFFFFFFFFFFFFFFFFFFFFFFFFFFFFFFFF AND SUB PUSH2 0xBAB JUMPI PUSH1 0x40 MLOAD PUSH32 0x8F4EB60400000000000000000000000000000000000000000000000000000000 DUP2 MSTORE PUSH1 0x4 ADD PUSH1 0x40 MLOAD DUP1 SWAP2 SUB SWAP1 REVERT JUMPDEST PUSH8 0xFFFFFFFFFFFFFFFF PUSH1 0x5 PUSH1 0x0 DUP5 PUSH20 0xFFFFFFFFFFFFFFFFFFFFFFFFFFFFFFFFFFFFFFFF AND PUSH20 0xFFFFFFFFFFFFFFFFFFFFFFFFFFFFFFFFFFFFFFFF AND DUP2 MSTORE PUSH1 0x20 ADD SWAP1 DUP2 MSTORE PUSH1 0x20 ADD PUSH1 0x0 KECCAK256 SLOAD AND SWAP1 POP SWAP2 SWAP1 POP JUMP JUMPDEST PUSH2 0xC04 PUSH2 0x16F8 JUMP JUMPDEST PUSH2 0xC0E PUSH1 0x0 PUSH2 0x1776 JUMP JUMPDEST JUMP JUMPDEST PUSH1 0x0 PUSH1 0x8 PUSH1 0x0 SWAP1 SLOAD SWAP1 PUSH2 0x100 EXP SWAP1 DIV PUSH20 0xFFFFFFFFFFFFFFFFFFFFFFFFFFFFFFFFFFFFFFFF AND SWAP1 POP SWAP1 JUMP JUMPDEST PUSH1 0xA PUSH1 0x0 SWAP1 SLOAD SWAP1 PUSH2 0x100 EXP SWAP1 DIV PUSH20 0xFFFFFFFFFFFFFFFFFFFFFFFFFFFFFFFFFFFFFFFF AND PUSH20 0xFFFFFFFFFFFFFFFFFFFFFFFFFFFFFFFFFFFFFFFF AND CALLER PUSH20 0xFFFFFFFFFFFFFFFFFFFFFFFFFFFFFFFFFFFFFFFF AND EQ PUSH2 0xCCA JUMPI PUSH1 0x40 MLOAD PUSH32 0x8C379A000000000000000000000000000000000000000000000000000000000 DUP2 MSTORE PUSH1 0x4 ADD PUSH2 0xCC1 SWAP1 PUSH2 0x2968 JUMP JUMPDEST PUSH1 0x40 MLOAD DUP1 SWAP2 SUB SWAP1 REVERT JUMPDEST PUSH1 0x0 PUSH2 0xCD5 DUP6 PUSH2 0x183C JUMP JUMPDEST PUSH2 0xCDE DUP6 PUSH2 0x183C JUMP JUMPDEST PUSH2 0xCE7 DUP6 PUSH2 0x183C JUMP JUMPDEST PUSH1 0x40 MLOAD PUSH1 0x20 ADD PUSH2 0xCF9 SWAP4 SWAP3 SWAP2 SWAP1 PUSH2 0x2AA8 JUMP JUMPDEST PUSH1 0x40 MLOAD PUSH1 0x20 DUP2 DUP4 SUB SUB DUP2 MSTORE SWAP1 PUSH1 0x40 MSTORE SWAP1 POP PUSH1 0x40 MLOAD DUP1 PUSH2 0x100 ADD PUSH1 0x40 MSTORE DUP1 DUP13 DUP2 MSTORE PUSH1 0x20 ADD DUP12 DUP2 MSTORE PUSH1 0x20 ADD DUP11 DUP2 MSTORE PUSH1 0x20 ADD DUP10 DUP2 MSTORE PUSH1 0x20 ADD DUP9 PUSH20 0xFFFFFFFFFFFFFFFFFFFFFFFFFFFFFFFFFFFFFFFF AND DUP2 MSTORE PUSH1 0x20 ADD DUP8 DUP2 MSTORE PUSH1 0x20 ADD DUP3 DUP2 MSTORE PUSH1 0x20 ADD PUSH4 0x3B9ACA00 DUP5 PUSH2 0xD66 SWAP2 SWAP1 PUSH2 0x2B63 JUMP JUMPDEST DUP2 MSTORE POP PUSH1 0x9 PUSH1 0x0 DUP14 DUP2 MSTORE PUSH1 0x20 ADD SWAP1 DUP2 MSTORE PUSH1 0x20 ADD PUSH1 0x0 KECCAK256 PUSH1 0x0 DUP3 ADD MLOAD DUP2 PUSH1 0x0 ADD SSTORE PUSH1 0x20 DUP3 ADD MLOAD DUP2 PUSH1 0x1 ADD SSTORE PUSH1 0x40 DUP3 ADD MLOAD DUP2 PUSH1 0x2 ADD SSTORE PUSH1 0x60 DUP3 ADD MLOAD DUP2 PUSH1 0x3 ADD SSTORE PUSH1 0x80 DUP3 ADD MLOAD DUP2 PUSH1 0x4 ADD PUSH1 0x0 PUSH2 0x100 EXP DUP2 SLOAD DUP2 PUSH20 0xFFFFFFFFFFFFFFFFFFFFFFFFFFFFFFFFFFFFFFFF MUL NOT AND SWAP1 DUP4 PUSH20 0xFFFFFFFFFFFFFFFFFFFFFFFFFFFFFFFFFFFFFFFF AND MUL OR SWAP1 SSTORE POP PUSH1 0xA0 DUP3 ADD MLOAD DUP2 PUSH1 0x5 ADD SSTORE PUSH1 0xC0 DUP3 ADD MLOAD DUP2 PUSH1 0x6 ADD SWAP1 DUP2 PUSH2 0xE0A SWAP2 SWAP1 PUSH2 0x2D40 JUMP JUMPDEST POP PUSH1 0xE0 DUP3 ADD MLOAD DUP2 PUSH1 0x7 ADD SSTORE SWAP1 POP POP PUSH2 0xE23 DUP8 PUSH1 0x1 PUSH2 0x188C JUMP JUMPDEST POP POP POP POP POP POP POP POP POP POP POP JUMP JUMPDEST PUSH1 0x60 PUSH1 0x3 DUP1 SLOAD PUSH2 0xE3F SWAP1 PUSH2 0x28EB JUMP JUMPDEST DUP1 PUSH1 0x1F ADD PUSH1 0x20 DUP1 SWAP2 DIV MUL PUSH1 0x20 ADD PUSH1 0x40 MLOAD SWAP1 DUP2 ADD PUSH1 0x40 MSTORE DUP1 SWAP3 SWAP2 SWAP1 DUP2 DUP2 MSTORE PUSH1 0x20 ADD DUP3 DUP1 SLOAD PUSH2 0xE6B SWAP1 PUSH2 0x28EB JUMP JUMPDEST DUP1 ISZERO PUSH2 0xEB8 JUMPI DUP1 PUSH1 0x1F LT PUSH2 0xE8D JUMPI PUSH2 0x100 DUP1 DUP4 SLOAD DIV MUL DUP4 MSTORE SWAP2 PUSH1 0x20 ADD SWAP2 PUSH2 0xEB8 JUMP JUMPDEST DUP3 ADD SWAP2 SWAP1 PUSH1 0x0 MSTORE PUSH1 0x20 PUSH1 0x0 KECCAK256 SWAP1 JUMPDEST DUP2 SLOAD DUP2 MSTORE SWAP1 PUSH1 0x1 ADD SWAP1 PUSH1 0x20 ADD DUP1 DUP4 GT PUSH2 0xE9B JUMPI DUP3 SWAP1 SUB PUSH1 0x1F AND DUP3 ADD SWAP2 JUMPDEST POP POP POP POP POP SWAP1 POP SWAP1 JUMP JUMPDEST DUP1 PUSH1 0x7 PUSH1 0x0 PUSH2 0xECF PUSH2 0x1551 JUMP JUMPDEST PUSH20 0xFFFFFFFFFFFFFFFFFFFFFFFFFFFFFFFFFFFFFFFF AND PUSH20 0xFFFFFFFFFFFFFFFFFFFFFFFFFFFFFFFFFFFFFFFF AND DUP2 MSTORE PUSH1 0x20 ADD SWAP1 DUP2 MSTORE PUSH1 0x20 ADD PUSH1 0x0 KECCAK256 PUSH1 0x0 DUP5 PUSH20 0xFFFFFFFFFFFFFFFFFFFFFFFFFFFFFFFFFFFFFFFF AND PUSH20 0xFFFFFFFFFFFFFFFFFFFFFFFFFFFFFFFFFFFFFFFF AND DUP2 MSTORE PUSH1 0x20 ADD SWAP1 DUP2 MSTORE PUSH1 0x20 ADD PUSH1 0x0 KECCAK256 PUSH1 0x0 PUSH2 0x100 EXP DUP2 SLOAD DUP2 PUSH1 0xFF MUL NOT AND SWAP1 DUP4 ISZERO ISZERO MUL OR SWAP1 SSTORE POP DUP2 PUSH20 0xFFFFFFFFFFFFFFFFFFFFFFFFFFFFFFFFFFFFFFFF AND PUSH2 0xF7C PUSH2 0x1551 JUMP JUMPDEST PUSH20 0xFFFFFFFFFFFFFFFFFFFFFFFFFFFFFFFFFFFFFFFF AND PUSH32 0x17307EAB39AB6107E8899845AD3D59BD9653F200F220920489CA2B5937696C31 DUP4 PUSH1 0x40 MLOAD PUSH2 0xFC1 SWAP2 SWAP1 PUSH2 0x219D JUMP JUMPDEST PUSH1 0x40 MLOAD DUP1 SWAP2 SUB SWAP1 LOG3 POP POP JUMP JUMPDEST PUSH2 0xFD5 PUSH2 0x208E JUMP JUMPDEST PUSH2 0xFDE DUP3 PUSH2 0x14F2 JUMP JUMPDEST PUSH2 0x101D JUMPI PUSH1 0x40 MLOAD PUSH32 0x8C379A000000000000000000000000000000000000000000000000000000000 DUP2 MSTORE PUSH1 0x4 ADD PUSH2 0x1014 SWAP1 PUSH2 0x2E5E JUMP JUMPDEST PUSH1 0x40 MLOAD DUP1 SWAP2 SUB SWAP1 REVERT JUMPDEST PUSH1 0x9 PUSH1 0x0 DUP4 DUP2 MSTORE PUSH1 0x20 ADD SWAP1 DUP2 MSTORE PUSH1 0x20 ADD PUSH1 0x0 KECCAK256 PUSH1 0x40 MLOAD DUP1 PUSH2 0x100 ADD PUSH1 0x40 MSTORE SWAP1 DUP2 PUSH1 0x0 DUP3 ADD SLOAD DUP2 MSTORE PUSH1 0x20 ADD PUSH1 0x1 DUP3 ADD SLOAD DUP2 MSTORE PUSH1 0x20 ADD PUSH1 0x2 DUP3 ADD SLOAD DUP2 MSTORE PUSH1 0x20 ADD PUSH1 0x3 DUP3 ADD SLOAD DUP2 MSTORE PUSH1 0x20 ADD PUSH1 0x4 DUP3 ADD PUSH1 0x0 SWAP1 SLOAD SWAP1 PUSH2 0x100 EXP SWAP1 DIV PUSH20 0xFFFFFFFFFFFFFFFFFFFFFFFFFFFFFFFFFFFFFFFF AND PUSH20 0xFFFFFFFFFFFFFFFFFFFFFFFFFFFFFFFFFFFFFFFF AND PUSH20 0xFFFFFFFFFFFFFFFFFFFFFFFFFFFFFFFFFFFFFFFF AND DUP2 MSTORE PUSH1 0x20 ADD PUSH1 0x5 DUP3 ADD SLOAD DUP2 MSTORE PUSH1 0x20 ADD PUSH1 0x6 DUP3 ADD DUP1 SLOAD PUSH2 0x10D4 SWAP1 PUSH2 0x28EB JUMP JUMPDEST DUP1 PUSH1 0x1F ADD PUSH1 0x20 DUP1 SWAP2 DIV MUL PUSH1 0x20 ADD PUSH1 0x40 MLOAD SWAP1 DUP2 ADD PUSH1 0x40 MSTORE DUP1 SWAP3 SWAP2 SWAP1 DUP2 DUP2 MSTORE PUSH1 0x20 ADD DUP3 DUP1 SLOAD PUSH2 0x1100 SWAP1 PUSH2 0x28EB JUMP JUMPDEST DUP1 ISZERO PUSH2 0x114D JUMPI DUP1 PUSH1 0x1F LT PUSH2 0x1122 JUMPI PUSH2 0x100 DUP1 DUP4 SLOAD DIV MUL DUP4 MSTORE SWAP2 PUSH1 0x20 ADD SWAP2 PUSH2 0x114D JUMP JUMPDEST DUP3 ADD SWAP2 SWAP1 PUSH1 0x0 MSTORE PUSH1 0x20 PUSH1 0x0 KECCAK256 SWAP1 JUMPDEST DUP2 SLOAD DUP2 MSTORE SWAP1 PUSH1 0x1 ADD SWAP1 PUSH1 0x20 ADD DUP1 DUP4 GT PUSH2 0x1130 JUMPI DUP3 SWAP1 SUB PUSH1 0x1F AND DUP3 ADD SWAP2 JUMPDEST POP POP POP POP POP DUP2 MSTORE PUSH1 0x20 ADD PUSH1 0x7 DUP3 ADD SLOAD DUP2 MSTORE POP POP SWAP1 POP SWAP2 SWAP1 POP JUMP JUMPDEST PUSH2 0x1172 DUP5 DUP5 DUP5 PUSH2 0x7A4 JUMP JUMPDEST PUSH1 0x0 DUP4 PUSH20 0xFFFFFFFFFFFFFFFFFFFFFFFFFFFFFFFFFFFFFFFF AND EXTCODESIZE EQ PUSH2 0x11D4 JUMPI PUSH2 0x119D DUP5 DUP5 DUP5 DUP5 PUSH2 0x1A47 JUMP JUMPDEST PUSH2 0x11D3 JUMPI PUSH1 0x40 MLOAD PUSH32 0xD1A57ED600000000000000000000000000000000000000000000000000000000 DUP2 MSTORE PUSH1 0x4 ADD PUSH1 0x40 MLOAD DUP1 SWAP2 SUB SWAP1 REVERT JUMPDEST JUMPDEST POP POP POP POP JUMP JUMPDEST PUSH1 0x60 PUSH2 0x11E5 DUP3 PUSH2 0x14F2 JUMP JUMPDEST PUSH2 0x1224 JUMPI PUSH1 0x40 MLOAD PUSH32 0x8C379A000000000000000000000000000000000000000000000000000000000 DUP2 MSTORE PUSH1 0x4 ADD PUSH2 0x121B SWAP1 PUSH2 0x2E5E JUMP JUMPDEST PUSH1 0x40 MLOAD DUP1 SWAP2 SUB SWAP1 REVERT JUMPDEST PUSH1 0x0 PUSH2 0x1245 PUSH1 0x9 PUSH1 0x0 DUP6 DUP2 MSTORE PUSH1 0x20 ADD SWAP1 DUP2 MSTORE PUSH1 0x20 ADD PUSH1 0x0 KECCAK256 PUSH1 0x0 ADD SLOAD PUSH2 0x183C JUMP JUMPDEST PUSH2 0x1264 PUSH1 0x9 PUSH1 0x0 DUP7 DUP2 MSTORE PUSH1 0x20 ADD SWAP1 DUP2 MSTORE PUSH1 0x20 ADD PUSH1 0x0 KECCAK256 PUSH1 0x5 ADD SLOAD PUSH2 0x183C JUMP JUMPDEST PUSH1 0x9 PUSH1 0x0 DUP7 DUP2 MSTORE PUSH1 0x20 ADD SWAP1 DUP2 MSTORE PUSH1 0x20 ADD PUSH1 0x0 KECCAK256 PUSH1 0x6 ADD PUSH2 0x12B9 PUSH1 0x9 PUSH1 0x0 DUP9 DUP2 MSTORE PUSH1 0x20 ADD SWAP1 DUP2 MSTORE PUSH1 0x20 ADD PUSH1 0x0 KECCAK256 PUSH1 0x4 ADD PUSH1 0x0 SWAP1 SLOAD SWAP1 PUSH2 0x100 EXP SWAP1 DIV PUSH20 0xFFFFFFFFFFFFFFFFFFFFFFFFFFFFFFFFFFFFFFFF AND PUSH2 0x1B97 JUMP JUMPDEST PUSH2 0x12D8 PUSH1 0x9 PUSH1 0x0 DUP10 DUP2 MSTORE PUSH1 0x20 ADD SWAP1 DUP2 MSTORE PUSH1 0x20 ADD PUSH1 0x0 KECCAK256 PUSH1 0x3 ADD SLOAD PUSH2 0x183C JUMP JUMPDEST PUSH2 0x12F7 PUSH1 0x9 PUSH1 0x0 DUP11 DUP2 MSTORE PUSH1 0x20 ADD SWAP1 DUP2 MSTORE PUSH1 0x20 ADD PUSH1 0x0 KECCAK256 PUSH1 0x1 ADD SLOAD PUSH2 0x183C JUMP JUMPDEST PUSH2 0x1316 PUSH1 0x9 PUSH1 0x0 DUP12 DUP2 MSTORE PUSH1 0x20 ADD SWAP1 DUP2 MSTORE PUSH1 0x20 ADD PUSH1 0x0 KECCAK256 PUSH1 0x2 ADD SLOAD PUSH2 0x183C JUMP JUMPDEST PUSH2 0x1335 PUSH1 0x9 PUSH1 0x0 DUP13 DUP2 MSTORE PUSH1 0x20 ADD SWAP1 DUP2 MSTORE PUSH1 0x20 ADD PUSH1 0x0 KECCAK256 PUSH1 0x7 ADD SLOAD PUSH2 0x183C JUMP JUMPDEST PUSH1 0x9 PUSH1 0x0 DUP13 DUP2 MSTORE PUSH1 0x20 ADD SWAP1 DUP2 MSTORE PUSH1 0x20 ADD PUSH1 0x0 KECCAK256 PUSH1 0x6 ADD PUSH1 0x40 MLOAD PUSH1 0x20 ADD PUSH2 0x1363 SWAP10 SWAP9 SWAP8 SWAP7 SWAP6 SWAP5 SWAP4 SWAP3 SWAP2 SWAP1 PUSH2 0x3C7C JUMP JUMPDEST PUSH1 0x40 MLOAD PUSH1 0x20 DUP2 DUP4 SUB SUB DUP2 MSTORE SWAP1 PUSH1 0x40 MSTORE SWAP1 POP PUSH1 0x0 PUSH2 0x137F DUP5 PUSH2 0x183C JUMP JUMPDEST PUSH2 0x1388 DUP4 PUSH2 0x1C05 JUMP JUMPDEST PUSH1 0x40 MLOAD PUSH1 0x20 ADD PUSH2 0x1399 SWAP3 SWAP2 SWAP1 PUSH2 0x3F6D JUMP JUMPDEST PUSH1 0x40 MLOAD PUSH1 0x20 DUP2 DUP4 SUB SUB DUP2 MSTORE SWAP1 PUSH1 0x40 MSTORE SWAP1 POP PUSH2 0x13B3 DUP2 PUSH2 0x1C05 JUMP JUMPDEST PUSH1 0x40 MLOAD PUSH1 0x20 ADD PUSH2 0x13C3 SWAP2 SWAP1 PUSH2 0x3FFE JUMP JUMPDEST PUSH1 0x40 MLOAD PUSH1 0x20 DUP2 DUP4 SUB SUB DUP2 MSTORE SWAP1 PUSH1 0x40 MSTORE SWAP3 POP POP POP SWAP2 SWAP1 POP JUMP JUMPDEST PUSH1 0x0 PUSH1 0x7 PUSH1 0x0 DUP5 PUSH20 0xFFFFFFFFFFFFFFFFFFFFFFFFFFFFFFFFFFFFFFFF AND PUSH20 0xFFFFFFFFFFFFFFFFFFFFFFFFFFFFFFFFFFFFFFFF AND DUP2 MSTORE PUSH1 0x20 ADD SWAP1 DUP2 MSTORE PUSH1 0x20 ADD PUSH1 0x0 KECCAK256 PUSH1 0x0 DUP4 PUSH20 0xFFFFFFFFFFFFFFFFFFFFFFFFFFFFFFFFFFFFFFFF AND PUSH20 0xFFFFFFFFFFFFFFFFFFFFFFFFFFFFFFFFFFFFFFFF AND DUP2 MSTORE PUSH1 0x20 ADD SWAP1 DUP2 MSTORE PUSH1 0x20 ADD PUSH1 0x0 KECCAK256 PUSH1 0x0 SWAP1 SLOAD SWAP1 PUSH2 0x100 EXP SWAP1 DIV PUSH1 0xFF AND SWAP1 POP SWAP3 SWAP2 POP POP JUMP JUMPDEST PUSH2 0x1477 PUSH2 0x16F8 JUMP JUMPDEST PUSH1 0x0 PUSH20 0xFFFFFFFFFFFFFFFFFFFFFFFFFFFFFFFFFFFFFFFF AND DUP2 PUSH20 0xFFFFFFFFFFFFFFFFFFFFFFFFFFFFFFFFFFFFFFFF AND SUB PUSH2 0x14E6 JUMPI PUSH1 0x40 MLOAD PUSH32 0x8C379A000000000000000000000000000000000000000000000000000000000 DUP2 MSTORE PUSH1 0x4 ADD PUSH2 0x14DD SWAP1 PUSH2 0x4092 JUMP JUMPDEST PUSH1 0x40 MLOAD DUP1 SWAP2 SUB SWAP1 REVERT JUMPDEST PUSH2 0x14EF DUP2 PUSH2 0x1776 JUMP JUMPDEST POP JUMP JUMPDEST PUSH1 0x0 DUP2 PUSH2 0x14FD PUSH2 0x1559 JUMP JUMPDEST GT ISZERO DUP1 ISZERO PUSH2 0x150C JUMPI POP PUSH1 0x0 SLOAD DUP3 LT JUMPDEST DUP1 ISZERO PUSH2 0x154A JUMPI POP PUSH1 0x0 PUSH29 0x100000000000000000000000000000000000000000000000000000000 PUSH1 0x4 PUSH1 0x0 DUP6 DUP2 MSTORE PUSH1 0x20 ADD SWAP1 DUP2 MSTORE PUSH1 0x20 ADD PUSH1 0x0 KECCAK256 SLOAD AND EQ JUMPDEST SWAP1 POP SWAP2 SWAP1 POP JUMP JUMPDEST PUSH1 0x0 CALLER SWAP1 POP SWAP1 JUMP JUMPDEST PUSH1 0x0 PUSH1 0x1 SWAP1 POP SWAP1 JUMP JUMPDEST PUSH1 0x0 DUP1 DUP3 SWAP1 POP DUP1 PUSH2 0x1571 PUSH2 0x1559 JUMP JUMPDEST GT PUSH2 0x15F7 JUMPI PUSH1 0x0 SLOAD DUP2 LT ISZERO PUSH2 0x15F6 JUMPI PUSH1 0x0 PUSH1 0x4 PUSH1 0x0 DUP4 DUP2 MSTORE PUSH1 0x20 ADD SWAP1 DUP2 MSTORE PUSH1 0x20 ADD PUSH1 0x0 KECCAK256 SLOAD SWAP1 POP PUSH1 0x0 PUSH29 0x100000000000000000000000000000000000000000000000000000000 DUP3 AND SUB PUSH2 0x15F4 JUMPI JUMPDEST PUSH1 0x0 DUP2 SUB PUSH2 0x15EA JUMPI PUSH1 0x4 PUSH1 0x0 DUP4 PUSH1 0x1 SWAP1 SUB SWAP4 POP DUP4 DUP2 MSTORE PUSH1 0x20 ADD SWAP1 DUP2 MSTORE PUSH1 0x20 ADD PUSH1 0x0 KECCAK256 SLOAD SWAP1 POP PUSH2 0x15C0 JUMP JUMPDEST DUP1 SWAP3 POP POP POP PUSH2 0x1629 JUMP JUMPDEST POP JUMPDEST JUMPDEST PUSH1 0x40 MLOAD PUSH32 0xDF2D9B4200000000000000000000000000000000000000000000000000000000 DUP2 MSTORE PUSH1 0x4 ADD PUSH1 0x40 MLOAD DUP1 SWAP2 SUB SWAP1 REVERT JUMPDEST SWAP2 SWAP1 POP JUMP JUMPDEST PUSH1 0x0 DUP1 PUSH1 0x0 PUSH1 0x6 PUSH1 0x0 DUP6 DUP2 MSTORE PUSH1 0x20 ADD SWAP1 DUP2 MSTORE PUSH1 0x20 ADD PUSH1 0x0 KECCAK256 SWAP1 POP DUP1 SWAP3 POP DUP3 SLOAD SWAP2 POP POP SWAP2 POP SWAP2 JUMP JUMPDEST PUSH1 0x0 PUSH20 0xFFFFFFFFFFFFFFFFFFFFFFFFFFFFFFFFFFFFFFFF DUP4 AND SWAP3 POP PUSH20 0xFFFFFFFFFFFFFFFFFFFFFFFFFFFFFFFFFFFFFFFF DUP3 AND SWAP2 POP DUP4 DUP3 EQ DUP4 DUP4 EQ OR SWAP1 POP SWAP4 SWAP3 POP POP POP JUMP JUMPDEST POP POP POP POP JUMP JUMPDEST PUSH1 0x0 DUP1 PUSH1 0xE8 DUP4 SWAP1 SHR SWAP1 POP PUSH1 0xE8 PUSH2 0x16B6 DUP7 DUP7 DUP5 PUSH2 0x1D68 JUMP JUMPDEST PUSH3 0xFFFFFF AND SWAP1 SHL SWAP2 POP POP SWAP4 SWAP3 POP POP POP JUMP JUMPDEST PUSH1 0x0 PUSH20 0xFFFFFFFFFFFFFFFFFFFFFFFFFFFFFFFFFFFFFFFF DUP4 AND SWAP3 POP DUP2 TIMESTAMP PUSH1 0xA0 SHL OR DUP4 OR SWAP1 POP SWAP3 SWAP2 POP POP JUMP JUMPDEST POP POP POP POP JUMP JUMPDEST PUSH2 0x1700 PUSH2 0x1D71 JUMP JUMPDEST PUSH20 0xFFFFFFFFFFFFFFFFFFFFFFFFFFFFFFFFFFFFFFFF AND PUSH2 0x171E PUSH2 0xC10 JUMP JUMPDEST PUSH20 0xFFFFFFFFFFFFFFFFFFFFFFFFFFFFFFFFFFFFFFFF AND EQ PUSH2 0x1774 JUMPI PUSH1 0x40 MLOAD PUSH32 0x8C379A000000000000000000000000000000000000000000000000000000000 DUP2 MSTORE PUSH1 0x4 ADD PUSH2 0x176B SWAP1 PUSH2 0x40FE JUMP JUMPDEST PUSH1 0x40 MLOAD DUP1 SWAP2 SUB SWAP1 REVERT JUMPDEST JUMP JUMPDEST PUSH1 0x0 PUSH1 0x8 PUSH1 0x0 SWAP1 SLOAD SWAP1 PUSH2 0x100 EXP SWAP1 DIV PUSH20 0xFFFFFFFFFFFFFFFFFFFFFFFFFFFFFFFFFFFFFFFF AND SWAP1 POP DUP2 PUSH1 0x8 PUSH1 0x0 PUSH2 0x100 EXP DUP2 SLOAD DUP2 PUSH20 0xFFFFFFFFFFFFFFFFFFFFFFFFFFFFFFFFFFFFFFFF MUL NOT AND SWAP1 DUP4 PUSH20 0xFFFFFFFFFFFFFFFFFFFFFFFFFFFFFFFFFFFFFFFF AND MUL OR SWAP1 SSTORE POP DUP2 PUSH20 0xFFFFFFFFFFFFFFFFFFFFFFFFFFFFFFFFFFFFFFFF AND DUP2 PUSH20 0xFFFFFFFFFFFFFFFFFFFFFFFFFFFFFFFFFFFFFFFF AND PUSH32 0x8BE0079C531659141344CD1FD0A4F28419497F9722A3DAAFE3B4186F6B6457E0 PUSH1 0x40 MLOAD PUSH1 0x40 MLOAD DUP1 SWAP2 SUB SWAP1 LOG3 POP POP JUMP JUMPDEST PUSH1 0x60 PUSH1 0xA0 PUSH1 0x40 MLOAD ADD DUP1 PUSH1 0x40 MSTORE PUSH1 0x20 DUP2 SUB SWAP2 POP PUSH1 0x0 DUP3 MSTORE DUP2 DUP4 JUMPDEST PUSH1 0x1 ISZERO PUSH2 0x1877 JUMPI PUSH1 0x1 DUP5 SUB SWAP4 POP PUSH1 0xA DUP2 MOD PUSH1 0x30 ADD DUP5 MSTORE8 PUSH1 0xA DUP2 DIV SWAP1 POP DUP1 PUSH2 0x1855 JUMPI JUMPDEST POP DUP3 DUP2 SUB PUSH1 0x20 DUP5 SUB SWAP4 POP DUP1 DUP5 MSTORE POP POP POP SWAP2 SWAP1 POP JUMP JUMPDEST PUSH1 0x0 DUP1 SLOAD SWAP1 POP PUSH1 0x0 DUP3 SUB PUSH2 0x18CC JUMPI PUSH1 0x40 MLOAD PUSH32 0xB562E8DD00000000000000000000000000000000000000000000000000000000 DUP2 MSTORE PUSH1 0x4 ADD PUSH1 0x40 MLOAD DUP1 SWAP2 SUB SWAP1 REVERT JUMPDEST PUSH2 0x18D9 PUSH1 0x0 DUP5 DUP4 DUP6 PUSH2 0x1699 JUMP JUMPDEST PUSH1 0x1 PUSH1 0x40 PUSH1 0x1 SWAP1 SHL OR DUP3 MUL PUSH1 0x5 PUSH1 0x0 DUP6 PUSH20 0xFFFFFFFFFFFFFFFFFFFFFFFFFFFFFFFFFFFFFFFF AND PUSH20 0xFFFFFFFFFFFFFFFFFFFFFFFFFFFFFFFFFFFFFFFF AND DUP2 MSTORE PUSH1 0x20 ADD SWAP1 DUP2 MSTORE PUSH1 0x20 ADD PUSH1 0x0 KECCAK256 PUSH1 0x0 DUP3 DUP3 SLOAD ADD SWAP3 POP POP DUP2 SWAP1 SSTORE POP PUSH2 0x1950 DUP4 PUSH2 0x1941 PUSH1 0x0 DUP7 PUSH1 0x0 PUSH2 0x169F JUMP JUMPDEST PUSH2 0x194A DUP6 PUSH2 0x1D79 JUMP JUMPDEST OR PUSH2 0x16C7 JUMP JUMPDEST PUSH1 0x4 PUSH1 0x0 DUP4 DUP2 MSTORE PUSH1 0x20 ADD SWAP1 DUP2 MSTORE PUSH1 0x20 ADD PUSH1 0x0 KECCAK256 DUP2 SWAP1 SSTORE POP PUSH1 0x0 DUP1 DUP4 DUP4 ADD SWAP1 POP PUSH20 0xFFFFFFFFFFFFFFFFFFFFFFFFFFFFFFFFFFFFFFFF DUP6 AND SWAP2 POP DUP3 DUP3 PUSH1 0x0 PUSH32 0xDDF252AD1BE2C89B69C2B068FC378DAA952BA7F163C4A11628F55A4DF523B3EF PUSH1 0x0 DUP1 LOG4 PUSH1 0x1 DUP4 ADD JUMPDEST DUP2 DUP2 EQ PUSH2 0x19F1 JUMPI DUP1 DUP4 PUSH1 0x0 PUSH32 0xDDF252AD1BE2C89B69C2B068FC378DAA952BA7F163C4A11628F55A4DF523B3EF PUSH1 0x0 DUP1 LOG4 PUSH1 0x1 DUP2 ADD SWAP1 POP PUSH2 0x19B6 JUMP JUMPDEST POP PUSH1 0x0 DUP3 SUB PUSH2 0x1A2C JUMPI PUSH1 0x40 MLOAD PUSH32 0x2E07630000000000000000000000000000000000000000000000000000000000 DUP2 MSTORE PUSH1 0x4 ADD PUSH1 0x40 MLOAD DUP1 SWAP2 SUB SWAP1 REVERT JUMPDEST DUP1 PUSH1 0x0 DUP2 SWAP1 SSTORE POP POP POP PUSH2 0x1A42 PUSH1 0x0 DUP5 DUP4 DUP6 PUSH2 0x16F2 JUMP JUMPDEST POP POP POP JUMP JUMPDEST PUSH1 0x0 DUP4 PUSH20 0xFFFFFFFFFFFFFFFFFFFFFFFFFFFFFFFFFFFFFFFF AND PUSH4 0x150B7A02 PUSH2 0x1A6D PUSH2 0x1551 JUMP JUMPDEST DUP8 DUP7 DUP7 PUSH1 0x40 MLOAD DUP6 PUSH4 0xFFFFFFFF AND PUSH1 0xE0 SHL DUP2 MSTORE PUSH1 0x4 ADD PUSH2 0x1A8F SWAP5 SWAP4 SWAP3 SWAP2 SWAP1 PUSH2 0x4173 JUMP JUMPDEST PUSH1 0x20 PUSH1 0x40 MLOAD DUP1 DUP4 SUB DUP2 PUSH1 0x0 DUP8 GAS CALL SWAP3 POP POP POP DUP1 ISZERO PUSH2 0x1ACB JUMPI POP PUSH1 0x40 MLOAD RETURNDATASIZE PUSH1 0x1F NOT PUSH1 0x1F DUP3 ADD AND DUP3 ADD DUP1 PUSH1 0x40 MSTORE POP DUP2 ADD SWAP1 PUSH2 0x1AC8 SWAP2 SWAP1 PUSH2 0x41D4 JUMP JUMPDEST PUSH1 0x1 JUMPDEST PUSH2 0x1B44 JUMPI RETURNDATASIZE DUP1 PUSH1 0x0 DUP2 EQ PUSH2 0x1AFB JUMPI PUSH1 0x40 MLOAD SWAP2 POP PUSH1 0x1F NOT PUSH1 0x3F RETURNDATASIZE ADD AND DUP3 ADD PUSH1 0x40 MSTORE RETURNDATASIZE DUP3 MSTORE RETURNDATASIZE PUSH1 0x0 PUSH1 0x20 DUP5 ADD RETURNDATACOPY PUSH2 0x1B00 JUMP JUMPDEST PUSH1 0x60 SWAP2 POP JUMPDEST POP PUSH1 0x0 DUP2 MLOAD SUB PUSH2 0x1B3C JUMPI PUSH1 0x40 MLOAD PUSH32 0xD1A57ED600000000000000000000000000000000000000000000000000000000 DUP2 MSTORE PUSH1 0x4 ADD PUSH1 0x40 MLOAD DUP1 SWAP2 SUB SWAP1 REVERT JUMPDEST DUP1 MLOAD DUP2 PUSH1 0x20 ADD REVERT JUMPDEST PUSH4 0x150B7A02 PUSH1 0xE0 SHL PUSH28 0xFFFFFFFFFFFFFFFFFFFFFFFFFFFFFFFFFFFFFFFFFFFFFFFFFFFFFFFF NOT AND DUP2 PUSH28 0xFFFFFFFFFFFFFFFFFFFFFFFFFFFFFFFFFFFFFFFFFFFFFFFFFFFFFFFF NOT AND EQ SWAP2 POP POP SWAP5 SWAP4 POP POP POP POP JUMP JUMPDEST PUSH1 0x60 PUSH1 0x0 PUSH2 0x1BA4 DUP4 PUSH2 0x1D89 JUMP JUMPDEST SWAP1 POP PUSH1 0x0 DUP2 MLOAD SWAP1 POP PUSH1 0x0 PUSH1 0x3 SWAP1 POP PUSH1 0x0 PUSH1 0x4 DUP4 PUSH2 0x1BC1 SWAP2 SWAP1 PUSH2 0x4201 JUMP JUMPDEST SWAP1 POP PUSH2 0x1BCF DUP5 PUSH1 0x0 DUP5 PUSH2 0x1F4C JUMP JUMPDEST PUSH2 0x1BDA DUP6 DUP4 DUP7 PUSH2 0x1F4C JUMP JUMPDEST PUSH1 0x40 MLOAD PUSH1 0x20 ADD PUSH2 0x1BEB SWAP3 SWAP2 SWAP1 PUSH2 0x42CD JUMP JUMPDEST PUSH1 0x40 MLOAD PUSH1 0x20 DUP2 DUP4 SUB SUB DUP2 MSTORE SWAP1 PUSH1 0x40 MSTORE SWAP5 POP POP POP POP POP SWAP2 SWAP1 POP JUMP JUMPDEST PUSH1 0x60 PUSH1 0x0 DUP3 MLOAD SUB PUSH2 0x1C27 JUMPI PUSH1 0x40 MLOAD DUP1 PUSH1 0x20 ADD PUSH1 0x40 MSTORE DUP1 PUSH1 0x0 DUP2 MSTORE POP SWAP1 POP PUSH2 0x1D63 JUMP JUMPDEST PUSH1 0x0 PUSH1 0x40 MLOAD DUP1 PUSH1 0x60 ADD PUSH1 0x40 MSTORE DUP1 PUSH1 0x40 DUP2 MSTORE PUSH1 0x20 ADD PUSH2 0x4658 PUSH1 0x40 SWAP2 CODECOPY SWAP1 POP PUSH1 0x0 PUSH1 0x3 PUSH1 0x2 DUP6 MLOAD PUSH2 0x1C56 SWAP2 SWAP1 PUSH2 0x4307 JUMP JUMPDEST PUSH2 0x1C60 SWAP2 SWAP1 PUSH2 0x2B63 JUMP JUMPDEST PUSH1 0x4 PUSH2 0x1C6C SWAP2 SWAP1 PUSH2 0x433B JUMP JUMPDEST PUSH8 0xFFFFFFFFFFFFFFFF DUP2 GT ISZERO PUSH2 0x1C85 JUMPI PUSH2 0x1C84 PUSH2 0x26CE JUMP JUMPDEST JUMPDEST PUSH1 0x40 MLOAD SWAP1 DUP1 DUP3 MSTORE DUP1 PUSH1 0x1F ADD PUSH1 0x1F NOT AND PUSH1 0x20 ADD DUP3 ADD PUSH1 0x40 MSTORE DUP1 ISZERO PUSH2 0x1CB7 JUMPI DUP2 PUSH1 0x20 ADD PUSH1 0x1 DUP3 MUL DUP1 CALLDATASIZE DUP4 CALLDATACOPY DUP1 DUP3 ADD SWAP2 POP POP SWAP1 POP JUMPDEST POP SWAP1 POP PUSH1 0x1 DUP3 ADD PUSH1 0x20 DUP3 ADD DUP6 DUP7 MLOAD DUP8 ADD JUMPDEST DUP1 DUP3 LT ISZERO PUSH2 0x1D23 JUMPI PUSH1 0x3 DUP3 ADD SWAP2 POP DUP2 MLOAD PUSH1 0x3F DUP2 PUSH1 0x12 SHR AND DUP6 ADD MLOAD DUP5 MSTORE8 PUSH1 0x1 DUP5 ADD SWAP4 POP PUSH1 0x3F DUP2 PUSH1 0xC SHR AND DUP6 ADD MLOAD DUP5 MSTORE8 PUSH1 0x1 DUP5 ADD SWAP4 POP PUSH1 0x3F DUP2 PUSH1 0x6 SHR AND DUP6 ADD MLOAD DUP5 MSTORE8 PUSH1 0x1 DUP5 ADD SWAP4 POP PUSH1 0x3F DUP2 AND DUP6 ADD MLOAD DUP5 MSTORE8 PUSH1 0x1 DUP5 ADD SWAP4 POP POP PUSH2 0x1CC8 JUMP JUMPDEST POP POP PUSH1 0x3 DUP7 MLOAD MOD PUSH1 0x1 DUP2 EQ PUSH2 0x1D3F JUMPI PUSH1 0x2 DUP2 EQ PUSH2 0x1D52 JUMPI PUSH2 0x1D5A JUMP JUMPDEST PUSH1 0x3D PUSH1 0x1 DUP4 SUB MSTORE8 PUSH1 0x3D PUSH1 0x2 DUP4 SUB MSTORE8 PUSH2 0x1D5A JUMP JUMPDEST PUSH1 0x3D PUSH1 0x1 DUP4 SUB MSTORE8 JUMPDEST POP POP POP DUP1 SWAP3 POP POP POP JUMPDEST SWAP2 SWAP1 POP JUMP JUMPDEST PUSH1 0x0 SWAP4 SWAP3 POP POP POP JUMP JUMPDEST PUSH1 0x0 CALLER SWAP1 POP SWAP1 JUMP JUMPDEST PUSH1 0x0 PUSH1 0x1 DUP3 EQ PUSH1 0xE1 SHL SWAP1 POP SWAP2 SWAP1 POP JUMP JUMPDEST PUSH1 0x60 PUSH1 0x0 PUSH1 0x28 PUSH8 0xFFFFFFFFFFFFFFFF DUP2 GT ISZERO PUSH2 0x1DA8 JUMPI PUSH2 0x1DA7 PUSH2 0x26CE JUMP JUMPDEST JUMPDEST PUSH1 0x40 MLOAD SWAP1 DUP1 DUP3 MSTORE DUP1 PUSH1 0x1F ADD PUSH1 0x1F NOT AND PUSH1 0x20 ADD DUP3 ADD PUSH1 0x40 MSTORE DUP1 ISZERO PUSH2 0x1DDA JUMPI DUP2 PUSH1 0x20 ADD PUSH1 0x1 DUP3 MUL DUP1 CALLDATASIZE DUP4 CALLDATACOPY DUP1 DUP3 ADD SWAP2 POP POP SWAP1 POP JUMPDEST POP SWAP1 POP PUSH1 0x0 JUMPDEST PUSH1 0x14 DUP2 LT ISZERO PUSH2 0x1F42 JUMPI PUSH1 0x0 DUP2 PUSH1 0x13 PUSH2 0x1DF8 SWAP2 SWAP1 PUSH2 0x4201 JUMP JUMPDEST PUSH1 0x8 PUSH2 0x1E04 SWAP2 SWAP1 PUSH2 0x433B JUMP JUMPDEST PUSH1 0x2 PUSH2 0x1E10 SWAP2 SWAP1 PUSH2 0x44B0 JUMP JUMPDEST DUP6 PUSH20 0xFFFFFFFFFFFFFFFFFFFFFFFFFFFFFFFFFFFFFFFF AND PUSH2 0x1E31 SWAP2 SWAP1 PUSH2 0x2B63 JUMP JUMPDEST PUSH1 0xF8 SHL SWAP1 POP PUSH1 0x0 PUSH1 0x10 DUP3 PUSH1 0xF8 SHR PUSH2 0x1E48 SWAP2 SWAP1 PUSH2 0x4508 JUMP JUMPDEST PUSH1 0xF8 SHL SWAP1 POP PUSH1 0x0 DUP2 PUSH1 0xF8 SHR PUSH1 0x10 PUSH2 0x1E5F SWAP2 SWAP1 PUSH2 0x4539 JUMP JUMPDEST DUP4 PUSH1 0xF8 SHR PUSH2 0x1E6D SWAP2 SWAP1 PUSH2 0x4576 JUMP JUMPDEST PUSH1 0xF8 SHL SWAP1 POP PUSH2 0x1E7B DUP3 PUSH2 0x2048 JUMP JUMPDEST DUP6 DUP6 PUSH1 0x2 PUSH2 0x1E89 SWAP2 SWAP1 PUSH2 0x433B JUMP JUMPDEST DUP2 MLOAD DUP2 LT PUSH2 0x1E9A JUMPI PUSH2 0x1E99 PUSH2 0x45AB JUMP JUMPDEST JUMPDEST PUSH1 0x20 ADD ADD SWAP1 PUSH31 0xFFFFFFFFFFFFFFFFFFFFFFFFFFFFFFFFFFFFFFFFFFFFFFFFFFFFFFFFFFFFFF NOT AND SWAP1 DUP2 PUSH1 0x0 BYTE SWAP1 MSTORE8 POP PUSH2 0x1ED2 DUP2 PUSH2 0x2048 JUMP JUMPDEST DUP6 PUSH1 0x1 DUP7 PUSH1 0x2 PUSH2 0x1EE2 SWAP2 SWAP1 PUSH2 0x433B JUMP JUMPDEST PUSH2 0x1EEC SWAP2 SWAP1 PUSH2 0x4307 JUMP JUMPDEST DUP2 MLOAD DUP2 LT PUSH2 0x1EFD JUMPI PUSH2 0x1EFC PUSH2 0x45AB JUMP JUMPDEST JUMPDEST PUSH1 0x20 ADD ADD SWAP1 PUSH31 0xFFFFFFFFFFFFFFFFFFFFFFFFFFFFFFFFFFFFFFFFFFFFFFFFFFFFFFFFFFFFFF NOT AND SWAP1 DUP2 PUSH1 0x0 BYTE SWAP1 MSTORE8 POP POP POP POP DUP1 DUP1 PUSH2 0x1F3A SWAP1 PUSH2 0x45DA JUMP JUMPDEST SWAP2 POP POP PUSH2 0x1DE0 JUMP JUMPDEST POP DUP1 SWAP2 POP POP SWAP2 SWAP1 POP JUMP JUMPDEST PUSH1 0x60 PUSH1 0x0 DUP5 SWAP1 POP PUSH1 0x0 DUP5 DUP5 PUSH2 0x1F61 SWAP2 SWAP1 PUSH2 0x4201 JUMP JUMPDEST PUSH8 0xFFFFFFFFFFFFFFFF DUP2 GT ISZERO PUSH2 0x1F7A JUMPI PUSH2 0x1F79 PUSH2 0x26CE JUMP JUMPDEST JUMPDEST PUSH1 0x40 MLOAD SWAP1 DUP1 DUP3 MSTORE DUP1 PUSH1 0x1F ADD PUSH1 0x1F NOT AND PUSH1 0x20 ADD DUP3 ADD PUSH1 0x40 MSTORE DUP1 ISZERO PUSH2 0x1FAC JUMPI DUP2 PUSH1 0x20 ADD PUSH1 0x1 DUP3 MUL DUP1 CALLDATASIZE DUP4 CALLDATACOPY DUP1 DUP3 ADD SWAP2 POP POP SWAP1 POP JUMPDEST POP SWAP1 POP PUSH1 0x0 DUP6 SWAP1 POP JUMPDEST DUP5 DUP2 LT ISZERO PUSH2 0x203B JUMPI DUP3 DUP2 DUP2 MLOAD DUP2 LT PUSH2 0x1FD0 JUMPI PUSH2 0x1FCF PUSH2 0x45AB JUMP JUMPDEST JUMPDEST PUSH1 0x20 ADD ADD MLOAD PUSH1 0xF8 SHR PUSH1 0xF8 SHL DUP3 DUP8 DUP4 PUSH2 0x1FE8 SWAP2 SWAP1 PUSH2 0x4201 JUMP JUMPDEST DUP2 MLOAD DUP2 LT PUSH2 0x1FF9 JUMPI PUSH2 0x1FF8 PUSH2 0x45AB JUMP JUMPDEST JUMPDEST PUSH1 0x20 ADD ADD SWAP1 PUSH31 0xFFFFFFFFFFFFFFFFFFFFFFFFFFFFFFFFFFFFFFFFFFFFFFFFFFFFFFFFFFFFFF NOT AND SWAP1 DUP2 PUSH1 0x0 BYTE SWAP1 MSTORE8 POP DUP1 DUP1 PUSH2 0x2033 SWAP1 PUSH2 0x45DA JUMP JUMPDEST SWAP2 POP POP PUSH2 0x1FB5 JUMP JUMPDEST POP DUP1 SWAP3 POP POP POP SWAP4 SWAP3 POP POP POP JUMP JUMPDEST PUSH1 0x0 PUSH1 0xA DUP3 PUSH1 0xF8 SHR PUSH1 0xFF AND LT ISZERO PUSH2 0x2073 JUMPI PUSH1 0x30 DUP3 PUSH1 0xF8 SHR PUSH2 0x2069 SWAP2 SWAP1 PUSH2 0x4622 JUMP JUMPDEST PUSH1 0xF8 SHL SWAP1 POP PUSH2 0x2089 JUMP JUMPDEST PUSH1 0x57 DUP3 PUSH1 0xF8 SHR PUSH2 0x2083 SWAP2 SWAP1 PUSH2 0x4622 JUMP JUMPDEST PUSH1 0xF8 SHL SWAP1 POP JUMPDEST SWAP2 SWAP1 POP JUMP JUMPDEST PUSH1 0x40 MLOAD DUP1 PUSH2 0x100 ADD PUSH1 0x40 MSTORE DUP1 PUSH1 0x0 DUP2 MSTORE PUSH1 0x20 ADD PUSH1 0x0 DUP2 MSTORE PUSH1 0x20 ADD PUSH1 0x0 DUP2 MSTORE PUSH1 0x20 ADD PUSH1 0x0 DUP2 MSTORE PUSH1 0x20 ADD PUSH1 0x0 PUSH20 0xFFFFFFFFFFFFFFFFFFFFFFFFFFFFFFFFFFFFFFFF AND DUP2 MSTORE PUSH1 0x20 ADD PUSH1 0x0 DUP2 MSTORE PUSH1 0x20 ADD PUSH1 0x60 DUP2 MSTORE PUSH1 0x20 ADD PUSH1 0x0 DUP2 MSTORE POP SWAP1 JUMP JUMPDEST PUSH1 0x0 PUSH1 0x40 MLOAD SWAP1 POP SWAP1 JUMP JUMPDEST PUSH1 0x0 DUP1 REVERT JUMPDEST PUSH1 0x0 DUP1 REVERT JUMPDEST PUSH1 0x0 PUSH32 0xFFFFFFFF00000000000000000000000000000000000000000000000000000000 DUP3 AND SWAP1 POP SWAP2 SWAP1 POP JUMP JUMPDEST PUSH2 0x2132 DUP2 PUSH2 0x20FD JUMP JUMPDEST DUP2 EQ PUSH2 0x213D JUMPI PUSH1 0x0 DUP1 REVERT JUMPDEST POP JUMP JUMPDEST PUSH1 0x0 DUP2 CALLDATALOAD SWAP1 POP PUSH2 0x214F DUP2 PUSH2 0x2129 JUMP JUMPDEST SWAP3 SWAP2 POP POP JUMP JUMPDEST PUSH1 0x0 PUSH1 0x20 DUP3 DUP5 SUB SLT ISZERO PUSH2 0x216B JUMPI PUSH2 0x216A PUSH2 0x20F3 JUMP JUMPDEST JUMPDEST PUSH1 0x0 PUSH2 0x2179 DUP5 DUP3 DUP6 ADD PUSH2 0x2140 JUMP JUMPDEST SWAP2 POP POP SWAP3 SWAP2 POP POP JUMP JUMPDEST PUSH1 0x0 DUP2 ISZERO ISZERO SWAP1 POP SWAP2 SWAP1 POP JUMP JUMPDEST PUSH2 0x2197 DUP2 PUSH2 0x2182 JUMP JUMPDEST DUP3 MSTORE POP POP JUMP JUMPDEST PUSH1 0x0 PUSH1 0x20 DUP3 ADD SWAP1 POP PUSH2 0x21B2 PUSH1 0x0 DUP4 ADD DUP5 PUSH2 0x218E JUMP JUMPDEST SWAP3 SWAP2 POP POP JUMP JUMPDEST PUSH1 0x0 DUP2 MLOAD SWAP1 POP SWAP2 SWAP1 POP JUMP JUMPDEST PUSH1 0x0 DUP3 DUP3 MSTORE PUSH1 0x20 DUP3 ADD SWAP1 POP SWAP3 SWAP2 POP POP JUMP JUMPDEST PUSH1 0x0 JUMPDEST DUP4 DUP2 LT ISZERO PUSH2 0x21F2 JUMPI DUP1 DUP3 ADD MLOAD DUP2 DUP5 ADD MSTORE PUSH1 0x20 DUP2 ADD SWAP1 POP PUSH2 0x21D7 JUMP JUMPDEST PUSH1 0x0 DUP5 DUP5 ADD MSTORE POP POP POP POP JUMP JUMPDEST PUSH1 0x0 PUSH1 0x1F NOT PUSH1 0x1F DUP4 ADD AND SWAP1 POP SWAP2 SWAP1 POP JUMP JUMPDEST PUSH1 0x0 PUSH2 0x221A DUP3 PUSH2 0x21B8 JUMP JUMPDEST PUSH2 0x2224 DUP2 DUP6 PUSH2 0x21C3 JUMP JUMPDEST SWAP4 POP PUSH2 0x2234 DUP2 DUP6 PUSH1 0x20 DUP7 ADD PUSH2 0x21D4 JUMP JUMPDEST PUSH2 0x223D DUP2 PUSH2 0x21FE JUMP JUMPDEST DUP5 ADD SWAP2 POP POP SWAP3 SWAP2 POP POP JUMP JUMPDEST PUSH1 0x0 PUSH1 0x20 DUP3 ADD SWAP1 POP DUP2 DUP2 SUB PUSH1 0x0 DUP4 ADD MSTORE PUSH2 0x2262 DUP2 DUP5 PUSH2 0x220F JUMP JUMPDEST SWAP1 POP SWAP3 SWAP2 POP POP JUMP JUMPDEST PUSH1 0x0 DUP2 SWAP1 POP SWAP2 SWAP1 POP JUMP JUMPDEST PUSH2 0x227D DUP2 PUSH2 0x226A JUMP JUMPDEST DUP2 EQ PUSH2 0x2288 JUMPI PUSH1 0x0 DUP1 REVERT JUMPDEST POP JUMP JUMPDEST PUSH1 0x0 DUP2 CALLDATALOAD SWAP1 POP PUSH2 0x229A DUP2 PUSH2 0x2274 JUMP JUMPDEST SWAP3 SWAP2 POP POP JUMP JUMPDEST PUSH1 0x0 PUSH1 0x20 DUP3 DUP5 SUB SLT ISZERO PUSH2 0x22B6 JUMPI PUSH2 0x22B5 PUSH2 0x20F3 JUMP JUMPDEST JUMPDEST PUSH1 0x0 PUSH2 0x22C4 DUP5 DUP3 DUP6 ADD PUSH2 0x228B JUMP JUMPDEST SWAP2 POP POP SWAP3 SWAP2 POP POP JUMP JUMPDEST PUSH1 0x0 PUSH20 0xFFFFFFFFFFFFFFFFFFFFFFFFFFFFFFFFFFFFFFFF DUP3 AND SWAP1 POP SWAP2 SWAP1 POP JUMP JUMPDEST PUSH1 0x0 PUSH2 0x22F8 DUP3 PUSH2 0x22CD JUMP JUMPDEST SWAP1 POP SWAP2 SWAP1 POP JUMP JUMPDEST PUSH2 0x2308 DUP2 PUSH2 0x22ED JUMP JUMPDEST DUP3 MSTORE POP POP JUMP JUMPDEST PUSH1 0x0 PUSH1 0x20 DUP3 ADD SWAP1 POP PUSH2 0x2323 PUSH1 0x0 DUP4 ADD DUP5 PUSH2 0x22FF JUMP JUMPDEST SWAP3 SWAP2 POP POP JUMP JUMPDEST PUSH2 0x2332 DUP2 PUSH2 0x22ED JUMP JUMPDEST DUP2 EQ PUSH2 0x233D JUMPI PUSH1 0x0 DUP1 REVERT JUMPDEST POP JUMP JUMPDEST PUSH1 0x0 DUP2 CALLDATALOAD SWAP1 POP PUSH2 0x234F DUP2 PUSH2 0x2329 JUMP JUMPDEST SWAP3 SWAP2 POP POP JUMP JUMPDEST PUSH1 0x0 DUP1 PUSH1 0x40 DUP4 DUP6 SUB SLT ISZERO PUSH2 0x236C JUMPI PUSH2 0x236B PUSH2 0x20F3 JUMP JUMPDEST JUMPDEST PUSH1 0x0 PUSH2 0x237A DUP6 DUP3 DUP7 ADD PUSH2 0x2340 JUMP JUMPDEST SWAP3 POP POP PUSH1 0x20 PUSH2 0x238B DUP6 DUP3 DUP7 ADD PUSH2 0x228B JUMP JUMPDEST SWAP2 POP POP SWAP3 POP SWAP3 SWAP1 POP JUMP JUMPDEST PUSH2 0x239E DUP2 PUSH2 0x226A JUMP JUMPDEST DUP3 MSTORE POP POP JUMP JUMPDEST PUSH1 0x0 PUSH1 0x20 DUP3 ADD SWAP1 POP PUSH2 0x23B9 PUSH1 0x0 DUP4 ADD DUP5 PUSH2 0x2395 JUMP JUMPDEST SWAP3 SWAP2 POP POP JUMP JUMPDEST PUSH1 0x0 DUP1 PUSH1 0x0 PUSH1 0x60 DUP5 DUP7 SUB SLT ISZERO PUSH2 0x23D8 JUMPI PUSH2 0x23D7 PUSH2 0x20F3 JUMP JUMPDEST JUMPDEST PUSH1 0x0 PUSH2 0x23E6 DUP7 DUP3 DUP8 ADD PUSH2 0x2340 JUMP JUMPDEST SWAP4 POP POP PUSH1 0x20 PUSH2 0x23F7 DUP7 DUP3 DUP8 ADD PUSH2 0x2340 JUMP JUMPDEST SWAP3 POP POP PUSH1 0x40 PUSH2 0x2408 DUP7 DUP3 DUP8 ADD PUSH2 0x228B JUMP JUMPDEST SWAP2 POP POP SWAP3 POP SWAP3 POP SWAP3 JUMP JUMPDEST PUSH1 0x0 PUSH1 0x20 DUP3 DUP5 SUB SLT ISZERO PUSH2 0x2428 JUMPI PUSH2 0x2427 PUSH2 0x20F3 JUMP JUMPDEST JUMPDEST PUSH1 0x0 PUSH2 0x2436 DUP5 DUP3 DUP6 ADD PUSH2 0x2340 JUMP JUMPDEST SWAP2 POP POP SWAP3 SWAP2 POP POP JUMP JUMPDEST PUSH1 0x0 DUP1 PUSH1 0x0 DUP1 PUSH1 0x0 DUP1 PUSH1 0x0 DUP1 PUSH1 0x0 DUP1 PUSH2 0x140 DUP12 DUP14 SUB SLT ISZERO PUSH2 0x2463 JUMPI PUSH2 0x2462 PUSH2 0x20F3 JUMP JUMPDEST JUMPDEST PUSH1 0x0 PUSH2 0x2471 DUP14 DUP3 DUP15 ADD PUSH2 0x228B JUMP JUMPDEST SWAP11 POP POP PUSH1 0x20 PUSH2 0x2482 DUP14 DUP3 DUP15 ADD PUSH2 0x228B JUMP JUMPDEST SWAP10 POP POP PUSH1 0x40 PUSH2 0x2493 DUP14 DUP3 DUP15 ADD PUSH2 0x228B JUMP JUMPDEST SWAP9 POP POP PUSH1 0x60 PUSH2 0x24A4 DUP14 DUP3 DUP15 ADD PUSH2 0x228B JUMP JUMPDEST SWAP8 POP POP PUSH1 0x80 PUSH2 0x24B5 DUP14 DUP3 DUP15 ADD PUSH2 0x2340 JUMP JUMPDEST SWAP7 POP POP PUSH1 0xA0 PUSH2 0x24C6 DUP14 DUP3 DUP15 ADD PUSH2 0x228B JUMP JUMPDEST SWAP6 POP POP PUSH1 0xC0 PUSH2 0x24D7 DUP14 DUP3 DUP15 ADD PUSH2 0x228B JUMP JUMPDEST SWAP5 POP POP PUSH1 0xE0 PUSH2 0x24E8 DUP14 DUP3 DUP15 ADD PUSH2 0x228B JUMP JUMPDEST SWAP4 POP POP PUSH2 0x100 PUSH2 0x24FA DUP14 DUP3 DUP15 ADD PUSH2 0x228B JUMP JUMPDEST SWAP3 POP POP PUSH2 0x120 PUSH2 0x250C DUP14 DUP3 DUP15 ADD PUSH2 0x228B JUMP JUMPDEST SWAP2 POP POP SWAP3 SWAP6 SWAP9 SWAP12 SWAP2 SWAP5 SWAP8 SWAP11 POP SWAP3 SWAP6 SWAP9 POP JUMP JUMPDEST PUSH2 0x2527 DUP2 PUSH2 0x2182 JUMP JUMPDEST DUP2 EQ PUSH2 0x2532 JUMPI PUSH1 0x0 DUP1 REVERT JUMPDEST POP JUMP JUMPDEST PUSH1 0x0 DUP2 CALLDATALOAD SWAP1 POP PUSH2 0x2544 DUP2 PUSH2 0x251E JUMP JUMPDEST SWAP3 SWAP2 POP POP JUMP JUMPDEST PUSH1 0x0 DUP1 PUSH1 0x40 DUP4 DUP6 SUB SLT ISZERO PUSH2 0x2561 JUMPI PUSH2 0x2560 PUSH2 0x20F3 JUMP JUMPDEST JUMPDEST PUSH1 0x0 PUSH2 0x256F DUP6 DUP3 DUP7 ADD PUSH2 0x2340 JUMP JUMPDEST SWAP3 POP POP PUSH1 0x20 PUSH2 0x2580 DUP6 DUP3 DUP7 ADD PUSH2 0x2535 JUMP JUMPDEST SWAP2 POP POP SWAP3 POP SWAP3 SWAP1 POP JUMP JUMPDEST PUSH2 0x2593 DUP2 PUSH2 0x226A JUMP JUMPDEST DUP3 MSTORE POP POP JUMP JUMPDEST PUSH2 0x25A2 DUP2 PUSH2 0x22ED JUMP JUMPDEST DUP3 MSTORE POP POP JUMP JUMPDEST PUSH1 0x0 DUP3 DUP3 MSTORE PUSH1 0x20 DUP3 ADD SWAP1 POP SWAP3 SWAP2 POP POP JUMP JUMPDEST PUSH1 0x0 PUSH2 0x25C4 DUP3 PUSH2 0x21B8 JUMP JUMPDEST PUSH2 0x25CE DUP2 DUP6 PUSH2 0x25A8 JUMP JUMPDEST SWAP4 POP PUSH2 0x25DE DUP2 DUP6 PUSH1 0x20 DUP7 ADD PUSH2 0x21D4 JUMP JUMPDEST PUSH2 0x25E7 DUP2 PUSH2 0x21FE JUMP JUMPDEST DUP5 ADD SWAP2 POP POP SWAP3 SWAP2 POP POP JUMP JUMPDEST PUSH1 0x0 PUSH2 0x100 DUP4 ADD PUSH1 0x0 DUP4 ADD MLOAD PUSH2 0x260B PUSH1 0x0 DUP7 ADD DUP3 PUSH2 0x258A JUMP JUMPDEST POP PUSH1 0x20 DUP4 ADD MLOAD PUSH2 0x261E PUSH1 0x20 DUP7 ADD DUP3 PUSH2 0x258A JUMP JUMPDEST POP PUSH1 0x40 DUP4 ADD MLOAD PUSH2 0x2631 PUSH1 0x40 DUP7 ADD DUP3 PUSH2 0x258A JUMP JUMPDEST POP PUSH1 0x60 DUP4 ADD MLOAD PUSH2 0x2644 PUSH1 0x60 DUP7 ADD DUP3 PUSH2 0x258A JUMP JUMPDEST POP PUSH1 0x80 DUP4 ADD MLOAD PUSH2 0x2657 PUSH1 0x80 DUP7 ADD DUP3 PUSH2 0x2599 JUMP JUMPDEST POP PUSH1 0xA0 DUP4 ADD MLOAD PUSH2 0x266A PUSH1 0xA0 DUP7 ADD DUP3 PUSH2 0x258A JUMP JUMPDEST POP PUSH1 0xC0 DUP4 ADD MLOAD DUP5 DUP3 SUB PUSH1 0xC0 DUP7 ADD MSTORE PUSH2 0x2682 DUP3 DUP3 PUSH2 0x25B9 JUMP JUMPDEST SWAP2 POP POP PUSH1 0xE0 DUP4 ADD MLOAD PUSH2 0x2697 PUSH1 0xE0 DUP7 ADD DUP3 PUSH2 0x258A JUMP JUMPDEST POP DUP1 SWAP2 POP POP SWAP3 SWAP2 POP POP JUMP JUMPDEST PUSH1 0x0 PUSH1 0x20 DUP3 ADD SWAP1 POP DUP2 DUP2 SUB PUSH1 0x0 DUP4 ADD MSTORE PUSH2 0x26BC DUP2 DUP5 PUSH2 0x25F2 JUMP JUMPDEST SWAP1 POP SWAP3 SWAP2 POP POP JUMP JUMPDEST PUSH1 0x0 DUP1 REVERT JUMPDEST PUSH1 0x0 DUP1 REVERT JUMPDEST PUSH32 0x4E487B7100000000000000000000000000000000000000000000000000000000 PUSH1 0x0 MSTORE PUSH1 0x41 PUSH1 0x4 MSTORE PUSH1 0x24 PUSH1 0x0 REVERT JUMPDEST PUSH2 0x2706 DUP3 PUSH2 0x21FE JUMP JUMPDEST DUP2 ADD DUP2 DUP2 LT PUSH8 0xFFFFFFFFFFFFFFFF DUP3 GT OR ISZERO PUSH2 0x2725 JUMPI PUSH2 0x2724 PUSH2 0x26CE JUMP JUMPDEST JUMPDEST DUP1 PUSH1 0x40 MSTORE POP POP POP JUMP JUMPDEST PUSH1 0x0 PUSH2 0x2738 PUSH2 0x20E9 JUMP JUMPDEST SWAP1 POP PUSH2 0x2744 DUP3 DUP3 PUSH2 0x26FD JUMP JUMPDEST SWAP2 SWAP1 POP JUMP JUMPDEST PUSH1 0x0 PUSH8 0xFFFFFFFFFFFFFFFF DUP3 GT ISZERO PUSH2 0x2764 JUMPI PUSH2 0x2763 PUSH2 0x26CE JUMP JUMPDEST JUMPDEST PUSH2 0x276D DUP3 PUSH2 0x21FE JUMP JUMPDEST SWAP1 POP PUSH1 0x20 DUP2 ADD SWAP1 POP SWAP2 SWAP1 POP JUMP JUMPDEST DUP3 DUP2 DUP4 CALLDATACOPY PUSH1 0x0 DUP4 DUP4 ADD MSTORE POP POP POP JUMP JUMPDEST PUSH1 0x0 PUSH2 0x279C PUSH2 0x2797 DUP5 PUSH2 0x2749 JUMP JUMPDEST PUSH2 0x272E JUMP JUMPDEST SWAP1 POP DUP3 DUP2 MSTORE PUSH1 0x20 DUP2 ADD DUP5 DUP5 DUP5 ADD GT ISZERO PUSH2 0x27B8 JUMPI PUSH2 0x27B7 PUSH2 0x26C9 JUMP JUMPDEST JUMPDEST PUSH2 0x27C3 DUP5 DUP3 DUP6 PUSH2 0x277A JUMP JUMPDEST POP SWAP4 SWAP3 POP POP POP JUMP JUMPDEST PUSH1 0x0 DUP3 PUSH1 0x1F DUP4 ADD SLT PUSH2 0x27E0 JUMPI PUSH2 0x27DF PUSH2 0x26C4 JUMP JUMPDEST JUMPDEST DUP2 CALLDATALOAD PUSH2 0x27F0 DUP5 DUP3 PUSH1 0x20 DUP7 ADD PUSH2 0x2789 JUMP JUMPDEST SWAP2 POP POP SWAP3 SWAP2 POP POP JUMP JUMPDEST PUSH1 0x0 DUP1 PUSH1 0x0 DUP1 PUSH1 0x80 DUP6 DUP8 SUB SLT ISZERO PUSH2 0x2813 JUMPI PUSH2 0x2812 PUSH2 0x20F3 JUMP JUMPDEST JUMPDEST PUSH1 0x0 PUSH2 0x2821 DUP8 DUP3 DUP9 ADD PUSH2 0x2340 JUMP JUMPDEST SWAP5 POP POP PUSH1 0x20 PUSH2 0x2832 DUP8 DUP3 DUP9 ADD PUSH2 0x2340 JUMP JUMPDEST SWAP4 POP POP PUSH1 0x40 PUSH2 0x2843 DUP8 DUP3 DUP9 ADD PUSH2 0x228B JUMP JUMPDEST SWAP3 POP POP PUSH1 0x60 DUP6 ADD CALLDATALOAD PUSH8 0xFFFFFFFFFFFFFFFF DUP2 GT ISZERO PUSH2 0x2864 JUMPI PUSH2 0x2863 PUSH2 0x20F8 JUMP JUMPDEST JUMPDEST PUSH2 0x2870 DUP8 DUP3 DUP9 ADD PUSH2 0x27CB JUMP JUMPDEST SWAP2 POP POP SWAP3 SWAP6 SWAP2 SWAP5 POP SWAP3 POP JUMP JUMPDEST PUSH1 0x0 DUP1 PUSH1 0x40 DUP4 DUP6 SUB SLT ISZERO PUSH2 0x2893 JUMPI PUSH2 0x2892 PUSH2 0x20F3 JUMP JUMPDEST JUMPDEST PUSH1 0x0 PUSH2 0x28A1 DUP6 DUP3 DUP7 ADD PUSH2 0x2340 JUMP JUMPDEST SWAP3 POP POP PUSH1 0x20 PUSH2 0x28B2 DUP6 DUP3 DUP7 ADD PUSH2 0x2340 JUMP JUMPDEST SWAP2 POP POP SWAP3 POP SWAP3 SWAP1 POP JUMP JUMPDEST PUSH32 0x4E487B7100000000000000000000000000000000000000000000000000000000 PUSH1 0x0 MSTORE PUSH1 0x22 PUSH1 0x4 MSTORE PUSH1 0x24 PUSH1 0x0 REVERT JUMPDEST PUSH1 0x0 PUSH1 0x2 DUP3 DIV SWAP1 POP PUSH1 0x1 DUP3 AND DUP1 PUSH2 0x2903 JUMPI PUSH1 0x7F DUP3 AND SWAP2 POP JUMPDEST PUSH1 0x20 DUP3 LT DUP2 SUB PUSH2 0x2916 JUMPI PUSH2 0x2915 PUSH2 0x28BC JUMP JUMPDEST JUMPDEST POP SWAP2 SWAP1 POP JUMP JUMPDEST PUSH32 0x556E617070726F766564206D696E74696E6720736F7572636500000000000000 PUSH1 0x0 DUP3 ADD MSTORE POP JUMP JUMPDEST PUSH1 0x0 PUSH2 0x2952 PUSH1 0x19 DUP4 PUSH2 0x21C3 JUMP JUMPDEST SWAP2 POP PUSH2 0x295D DUP3 PUSH2 0x291C JUMP JUMPDEST PUSH1 0x20 DUP3 ADD SWAP1 POP SWAP2 SWAP1 POP JUMP JUMPDEST PUSH1 0x0 PUSH1 0x20 DUP3 ADD SWAP1 POP DUP2 DUP2 SUB PUSH1 0x0 DUP4 ADD MSTORE PUSH2 0x2981 DUP2 PUSH2 0x2945 JUMP JUMPDEST SWAP1 POP SWAP2 SWAP1 POP JUMP JUMPDEST PUSH1 0x0 DUP2 SWAP1 POP SWAP3 SWAP2 POP POP JUMP JUMPDEST PUSH32 0x5247422800000000000000000000000000000000000000000000000000000000 PUSH1 0x0 DUP3 ADD MSTORE POP JUMP JUMPDEST PUSH1 0x0 PUSH2 0x29C9 PUSH1 0x4 DUP4 PUSH2 0x2988 JUMP JUMPDEST SWAP2 POP PUSH2 0x29D4 DUP3 PUSH2 0x2993 JUMP JUMPDEST PUSH1 0x4 DUP3 ADD SWAP1 POP SWAP2 SWAP1 POP JUMP JUMPDEST PUSH1 0x0 PUSH2 0x29EA DUP3 PUSH2 0x21B8 JUMP JUMPDEST PUSH2 0x29F4 DUP2 DUP6 PUSH2 0x2988 JUMP JUMPDEST SWAP4 POP PUSH2 0x2A04 DUP2 DUP6 PUSH1 0x20 DUP7 ADD PUSH2 0x21D4 JUMP JUMPDEST DUP1 DUP5 ADD SWAP2 POP POP SWAP3 SWAP2 POP POP JUMP JUMPDEST PUSH32 0x2C00000000000000000000000000000000000000000000000000000000000000 PUSH1 0x0 DUP3 ADD MSTORE POP JUMP JUMPDEST PUSH1 0x0 PUSH2 0x2A46 PUSH1 0x1 DUP4 PUSH2 0x2988 JUMP JUMPDEST SWAP2 POP PUSH2 0x2A51 DUP3 PUSH2 0x2A10 JUMP JUMPDEST PUSH1 0x1 DUP3 ADD SWAP1 POP SWAP2 SWAP1 POP JUMP JUMPDEST PUSH32 0x2900000000000000000000000000000000000000000000000000000000000000 PUSH1 0x0 DUP3 ADD MSTORE POP JUMP JUMPDEST PUSH1 0x0 PUSH2 0x2A92 PUSH1 0x1 DUP4 PUSH2 0x2988 JUMP JUMPDEST SWAP2 POP PUSH2 0x2A9D DUP3 PUSH2 0x2A5C JUMP JUMPDEST PUSH1 0x1 DUP3 ADD SWAP1 POP SWAP2 SWAP1 POP JUMP JUMPDEST PUSH1 0x0 PUSH2 0x2AB3 DUP3 PUSH2 0x29BC JUMP JUMPDEST SWAP2 POP PUSH2 0x2ABF DUP3 DUP7 PUSH2 0x29DF JUMP JUMPDEST SWAP2 POP PUSH2 0x2ACA DUP3 PUSH2 0x2A39 JUMP JUMPDEST SWAP2 POP PUSH2 0x2AD6 DUP3 DUP6 PUSH2 0x29DF JUMP JUMPDEST SWAP2 POP PUSH2 0x2AE1 DUP3 PUSH2 0x2A39 JUMP JUMPDEST SWAP2 POP PUSH2 0x2AED DUP3 DUP5 PUSH2 0x29DF JUMP JUMPDEST SWAP2 POP PUSH2 0x2AF8 DUP3 PUSH2 0x2A85 JUMP JUMPDEST SWAP2 POP DUP2 SWAP1 POP SWAP5 SWAP4 POP POP POP POP JUMP JUMPDEST PUSH32 0x4E487B7100000000000000000000000000000000000000000000000000000000 PUSH1 0x0 MSTORE PUSH1 0x12 PUSH1 0x4 MSTORE PUSH1 0x24 PUSH1 0x0 REVERT JUMPDEST PUSH32 0x4E487B7100000000000000000000000000000000000000000000000000000000 PUSH1 0x0 MSTORE PUSH1 0x11 PUSH1 0x4 MSTORE PUSH1 0x24 PUSH1 0x0 REVERT JUMPDEST PUSH1 0x0 PUSH2 0x2B6E DUP3 PUSH2 0x226A JUMP JUMPDEST SWAP2 POP PUSH2 0x2B79 DUP4 PUSH2 0x226A JUMP JUMPDEST SWAP3 POP DUP3 PUSH2 0x2B89 JUMPI PUSH2 0x2B88 PUSH2 0x2B05 JUMP JUMPDEST JUMPDEST DUP3 DUP3 DIV SWAP1 POP SWAP3 SWAP2 POP POP JUMP JUMPDEST PUSH1 0x0 DUP2 SWAP1 POP DUP2 PUSH1 0x0 MSTORE PUSH1 0x20 PUSH1 0x0 KECCAK256 SWAP1 POP SWAP2 SWAP1 POP JUMP JUMPDEST PUSH1 0x0 PUSH1 0x20 PUSH1 0x1F DUP4 ADD DIV SWAP1 POP SWAP2 SWAP1 POP JUMP JUMPDEST PUSH1 0x0 DUP3 DUP3 SHL SWAP1 POP SWAP3 SWAP2 POP POP JUMP JUMPDEST PUSH1 0x0 PUSH1 0x8 DUP4 MUL PUSH2 0x2BF6 PUSH32 0xFFFFFFFFFFFFFFFFFFFFFFFFFFFFFFFFFFFFFFFFFFFFFFFFFFFFFFFFFFFFFFFF DUP3 PUSH2 0x2BB9 JUMP JUMPDEST PUSH2 0x2C00 DUP7 DUP4 PUSH2 0x2BB9 JUMP JUMPDEST SWAP6 POP DUP1 NOT DUP5 AND SWAP4 POP DUP1 DUP7 AND DUP5 OR SWAP3 POP POP POP SWAP4 SWAP3 POP POP POP JUMP JUMPDEST PUSH1 0x0 DUP2 SWAP1 POP SWAP2 SWAP1 POP JUMP JUMPDEST PUSH1 0x0 PUSH2 0x2C3D PUSH2 0x2C38 PUSH2 0x2C33 DUP5 PUSH2 0x226A JUMP JUMPDEST PUSH2 0x2C18 JUMP JUMPDEST PUSH2 0x226A JUMP JUMPDEST SWAP1 POP SWAP2 SWAP1 POP JUMP JUMPDEST PUSH1 0x0 DUP2 SWAP1 POP SWAP2 SWAP1 POP JUMP JUMPDEST PUSH2 0x2C57 DUP4 PUSH2 0x2C22 JUMP JUMPDEST PUSH2 0x2C6B PUSH2 0x2C63 DUP3 PUSH2 0x2C44 JUMP JUMPDEST DUP5 DUP5 SLOAD PUSH2 0x2BC6 JUMP JUMPDEST DUP3 SSTORE POP POP POP POP JUMP JUMPDEST PUSH1 0x0 SWAP1 JUMP JUMPDEST PUSH2 0x2C80 PUSH2 0x2C73 JUMP JUMPDEST PUSH2 0x2C8B DUP2 DUP5 DUP5 PUSH2 0x2C4E JUMP JUMPDEST POP POP POP JUMP JUMPDEST JUMPDEST DUP2 DUP2 LT ISZERO PUSH2 0x2CAF JUMPI PUSH2 0x2CA4 PUSH1 0x0 DUP3 PUSH2 0x2C78 JUMP JUMPDEST PUSH1 0x1 DUP2 ADD SWAP1 POP PUSH2 0x2C91 JUMP JUMPDEST POP POP JUMP JUMPDEST PUSH1 0x1F DUP3 GT ISZERO PUSH2 0x2CF4 JUMPI PUSH2 0x2CC5 DUP2 PUSH2 0x2B94 JUMP JUMPDEST PUSH2 0x2CCE DUP5 PUSH2 0x2BA9 JUMP JUMPDEST DUP2 ADD PUSH1 0x20 DUP6 LT ISZERO PUSH2 0x2CDD JUMPI DUP2 SWAP1 POP JUMPDEST PUSH2 0x2CF1 PUSH2 0x2CE9 DUP6 PUSH2 0x2BA9 JUMP JUMPDEST DUP4 ADD DUP3 PUSH2 0x2C90 JUMP JUMPDEST POP POP JUMPDEST POP POP POP JUMP JUMPDEST PUSH1 0x0 DUP3 DUP3 SHR SWAP1 POP SWAP3 SWAP2 POP POP JUMP JUMPDEST PUSH1 0x0 PUSH2 0x2D17 PUSH1 0x0 NOT DUP5 PUSH1 0x8 MUL PUSH2 0x2CF9 JUMP JUMPDEST NOT DUP1 DUP4 AND SWAP2 POP POP SWAP3 SWAP2 POP POP JUMP JUMPDEST PUSH1 0x0 PUSH2 0x2D30 DUP4 DUP4 PUSH2 0x2D06 JUMP JUMPDEST SWAP2 POP DUP3 PUSH1 0x2 MUL DUP3 OR SWAP1 POP SWAP3 SWAP2 POP POP JUMP JUMPDEST PUSH2 0x2D49 DUP3 PUSH2 0x21B8 JUMP JUMPDEST PUSH8 0xFFFFFFFFFFFFFFFF DUP2 GT ISZERO PUSH2 0x2D62 JUMPI PUSH2 0x2D61 PUSH2 0x26CE JUMP JUMPDEST JUMPDEST PUSH2 0x2D6C DUP3 SLOAD PUSH2 0x28EB JUMP JUMPDEST PUSH2 0x2D77 DUP3 DUP3 DUP6 PUSH2 0x2CB3 JUMP JUMPDEST PUSH1 0x0 PUSH1 0x20 SWAP1 POP PUSH1 0x1F DUP4 GT PUSH1 0x1 DUP2 EQ PUSH2 0x2DAA JUMPI PUSH1 0x0 DUP5 ISZERO PUSH2 0x2D98 JUMPI DUP3 DUP8 ADD MLOAD SWAP1 POP JUMPDEST PUSH2 0x2DA2 DUP6 DUP3 PUSH2 0x2D24 JUMP JUMPDEST DUP7 SSTORE POP PUSH2 0x2E0A JUMP JUMPDEST PUSH1 0x1F NOT DUP5 AND PUSH2 0x2DB8 DUP7 PUSH2 0x2B94 JUMP JUMPDEST PUSH1 0x0 JUMPDEST DUP3 DUP2 LT ISZERO PUSH2 0x2DE0 JUMPI DUP5 DUP10 ADD MLOAD DUP3 SSTORE PUSH1 0x1 DUP3 ADD SWAP2 POP PUSH1 0x20 DUP6 ADD SWAP5 POP PUSH1 0x20 DUP2 ADD SWAP1 POP PUSH2 0x2DBB JUMP JUMPDEST DUP7 DUP4 LT ISZERO PUSH2 0x2DFD JUMPI DUP5 DUP10 ADD MLOAD PUSH2 0x2DF9 PUSH1 0x1F DUP10 AND DUP3 PUSH2 0x2D06 JUMP JUMPDEST DUP4 SSTORE POP JUMPDEST PUSH1 0x1 PUSH1 0x2 DUP9 MUL ADD DUP9 SSTORE POP POP POP JUMPDEST POP POP POP POP POP POP JUMP JUMPDEST PUSH32 0x546F6B656E20646F6573206E6F74206578697374000000000000000000000000 PUSH1 0x0 DUP3 ADD MSTORE POP JUMP JUMPDEST PUSH1 0x0 PUSH2 0x2E48 PUSH1 0x14 DUP4 PUSH2 0x21C3 JUMP JUMPDEST SWAP2 POP PUSH2 0x2E53 DUP3 PUSH2 0x2E12 JUMP JUMPDEST PUSH1 0x20 DUP3 ADD SWAP1 POP SWAP2 SWAP1 POP JUMP JUMPDEST PUSH1 0x0 PUSH1 0x20 DUP3 ADD SWAP1 POP DUP2 DUP2 SUB PUSH1 0x0 DUP4 ADD MSTORE PUSH2 0x2E77 DUP2 PUSH2 0x2E3B JUMP JUMPDEST SWAP1 POP SWAP2 SWAP1 POP JUMP JUMPDEST PUSH32 0x3C7376672077696474683D2239303022206865696768743D2239303022207669 PUSH1 0x0 DUP3 ADD MSTORE PUSH32 0x6577426F783D223020302033303020333030222066696C6C3D226E6F6E652220 PUSH1 0x20 DUP3 ADD MSTORE PUSH32 0x786D6C6E733D22687474703A2F2F7777772E77332E6F72672F323030302F7376 PUSH1 0x40 DUP3 ADD MSTORE PUSH32 0x67223E3C726563742077696474683D2233303022206865696768743D22333030 PUSH1 0x60 DUP3 ADD MSTORE PUSH32 0x222066696C6C3D2223304330433043222F3E3C7265637420783D223736222079 PUSH1 0x80 DUP3 ADD MSTORE PUSH32 0x3D223436222077696474683D2231343822206865696768743D22323130222066 PUSH1 0xA0 DUP3 ADD MSTORE PUSH32 0x696C6C3D227768697465222F3E3C726563742069643D22636F6C6F7242617222 PUSH1 0xC0 DUP3 ADD MSTORE PUSH32 0x20793D22323934222077696474683D2233303022206865696768743D22362220 PUSH1 0xE0 DUP3 ADD MSTORE PUSH32 0x66696C6C3D2223306330633063223E3C616E696D617465206174747269627574 PUSH2 0x100 DUP3 ADD MSTORE PUSH32 0x654E616D653D227769647468222076616C7565733D22303B3330302220647572 PUSH2 0x120 DUP3 ADD MSTORE PUSH32 0x3D223173222F3E3C2F726563743E3C7061746820643D224D3134312E35203539 PUSH2 0x140 DUP3 ADD MSTORE PUSH32 0x2E323838364C3134332035372E373838364C3134342E352035392E3238383656 PUSH2 0x160 DUP3 ADD MSTORE PUSH32 0x36392E323838394C3134332037302E3738394C3134312E352036392E32383839 PUSH2 0x180 DUP3 ADD MSTORE PUSH32 0x5635392E323838365A222066696C6C3D22626C61636B222F3E3C706174682064 PUSH2 0x1A0 DUP3 ADD MSTORE PUSH32 0x3D224D3135352E352035392E323838364C3135372035372E373838364C313538 PUSH2 0x1C0 DUP3 ADD MSTORE PUSH32 0x2E352035392E323838365636392E323838394C3135372037302E3738394C3135 PUSH2 0x1E0 DUP3 ADD MSTORE PUSH32 0x352E352036392E323838395635392E323838365A222066696C6C3D22626C6163 PUSH2 0x200 DUP3 ADD MSTORE PUSH32 0x6B222F3E3C7061746820643D224D3135352036392E373838374C3135362E3520 PUSH2 0x220 DUP3 ADD MSTORE PUSH32 0x37312E323838374C3135352037322E373838384C3134352037322E373838384C PUSH2 0x240 DUP3 ADD MSTORE PUSH32 0x3134332E352037312E323838374C3134352036392E373838374C313535203639 PUSH2 0x260 DUP3 ADD MSTORE PUSH32 0x2E373838375A222066696C6C3D22626C61636B222F3E3C6C696E652078313D22 PUSH2 0x280 DUP3 ADD MSTORE PUSH32 0x3838222079313D2238342E32333437222078323D22323132222079323D223834 PUSH2 0x2A0 DUP3 ADD MSTORE PUSH32 0x2E3233343722207374726F6B653D22626C61636B222F3E3C6C696E652078313D PUSH2 0x2C0 DUP3 ADD MSTORE PUSH32 0x223838222079313D223130332E363735222078323D22323132222079323D2231 PUSH2 0x2E0 DUP3 ADD MSTORE PUSH32 0x30332E36373522207374726F6B653D22626C61636B222F3E3C74657874206669 PUSH2 0x300 DUP3 ADD MSTORE PUSH32 0x6C6C3D22626C61636B2220666F6E742D66616D696C793D2273616E732D736572 PUSH2 0x320 DUP3 ADD MSTORE PUSH32 0x69662220666F6E742D73697A653D22382220666F6E742D7765696768743D2262 PUSH2 0x340 DUP3 ADD MSTORE PUSH32 0x6F6C64223E3C747370616E20783D2238382E3739332220793D2239362E393538 PUSH2 0x360 DUP3 ADD MSTORE PUSH32 0x36223E55494E54532050524F4F46204F462042524F4144434153543C2F747370 PUSH2 0x380 DUP3 ADD MSTORE PUSH32 0x616E3E3C2F746578743E3C7465787420746578742D616E63686F723D226D6964 PUSH2 0x3A0 DUP3 ADD MSTORE PUSH32 0x646C65222066696C6C3D22626C61636B2220666F6E742D66616D696C793D2273 PUSH2 0x3C0 DUP3 ADD MSTORE PUSH32 0x616E732D73657269662220666F6E742D73697A653D223132223E3C747370616E PUSH2 0x3E0 DUP3 ADD MSTORE PUSH32 0x20783D223134372E31362220793D223131392E323339223E2300000000000000 PUSH2 0x400 DUP3 ADD MSTORE POP JUMP JUMPDEST PUSH1 0x0 PUSH2 0x338E PUSH2 0x419 DUP4 PUSH2 0x2988 JUMP JUMPDEST SWAP2 POP PUSH2 0x3399 DUP3 PUSH2 0x2E7E JUMP JUMPDEST PUSH2 0x419 DUP3 ADD SWAP1 POP SWAP2 SWAP1 POP JUMP JUMPDEST PUSH32 0x3C2F747370616E3E3C2F746578743E3C6C696E652078313D2238382E35222079 PUSH1 0x0 DUP3 ADD MSTORE PUSH32 0x313D223132352E343831222078323D223231312E35222079323D223132352E34 PUSH1 0x20 DUP3 ADD MSTORE PUSH32 0x383122207374726F6B653D222330433043304322207374726F6B652D6C696E65 PUSH1 0x40 DUP3 ADD MSTORE PUSH32 0x6361703D2273717561726522207374726F6B652D6461736861727261793D2232 PUSH1 0x60 DUP3 ADD MSTORE PUSH32 0x2034222F3E3C746578742066696C6C3D22233043304330432220666F6E742D66 PUSH1 0x80 DUP3 ADD MSTORE PUSH32 0x616D696C793D2273616E732D73657269662220666F6E742D73697A653D223722 PUSH1 0xA0 DUP3 ADD MSTORE PUSH32 0x3E3C747370616E20783D2238382E352220793D223134302E303938223E4E554D PUSH1 0xC0 DUP3 ADD MSTORE PUSH32 0x4245522042524F4144434153543A200000000000000000000000000000000000 PUSH1 0xE0 DUP3 ADD MSTORE POP JUMP JUMPDEST PUSH1 0x0 PUSH2 0x34E5 PUSH1 0xEF DUP4 PUSH2 0x2988 JUMP JUMPDEST SWAP2 POP PUSH2 0x34F0 DUP3 PUSH2 0x33A5 JUMP JUMPDEST PUSH1 0xEF DUP3 ADD SWAP1 POP SWAP2 SWAP1 POP JUMP JUMPDEST PUSH32 0x3C2F747370616E3E3C2F746578743E3C746578742066696C6C3D222330433043 PUSH1 0x0 DUP3 ADD MSTORE PUSH32 0x30432220666F6E742D66616D696C793D2273616E732D73657269662220666F6E PUSH1 0x20 DUP3 ADD MSTORE PUSH32 0x742D73697A653D2237223E3C747370616E20783D2238382E352220793D223135 PUSH1 0x40 DUP3 ADD MSTORE PUSH32 0x332E373333223E434F4C4F523A20000000000000000000000000000000000000 PUSH1 0x60 DUP3 ADD MSTORE POP JUMP JUMPDEST PUSH1 0x0 PUSH2 0x35A3 PUSH1 0x6E DUP4 PUSH2 0x2988 JUMP JUMPDEST SWAP2 POP PUSH2 0x35AE DUP3 PUSH2 0x34FB JUMP JUMPDEST PUSH1 0x6E DUP3 ADD SWAP1 POP SWAP2 SWAP1 POP JUMP JUMPDEST PUSH1 0x0 DUP2 SLOAD PUSH2 0x35C6 DUP2 PUSH2 0x28EB JUMP JUMPDEST PUSH2 0x35D0 DUP2 DUP7 PUSH2 0x2988 JUMP JUMPDEST SWAP5 POP PUSH1 0x1 DUP3 AND PUSH1 0x0 DUP2 EQ PUSH2 0x35EB JUMPI PUSH1 0x1 DUP2 EQ PUSH2 0x3600 JUMPI PUSH2 0x3633 JUMP JUMPDEST PUSH1 0xFF NOT DUP4 AND DUP7 MSTORE DUP2 ISZERO ISZERO DUP3 MUL DUP7 ADD SWAP4 POP PUSH2 0x3633 JUMP JUMPDEST PUSH2 0x3609 DUP6 PUSH2 0x2B94 JUMP JUMPDEST PUSH1 0x0 JUMPDEST DUP4 DUP2 LT ISZERO PUSH2 0x362B JUMPI DUP2 SLOAD DUP2 DUP10 ADD MSTORE PUSH1 0x1 DUP3 ADD SWAP2 POP PUSH1 0x20 DUP2 ADD SWAP1 POP PUSH2 0x360C JUMP JUMPDEST DUP4 DUP9 ADD SWAP6 POP POP POP JUMPDEST POP POP POP SWAP3 SWAP2 POP POP JUMP JUMPDEST PUSH32 0x3C2F747370616E3E3C2F746578743E3C746578742066696C6C3D222330433043 PUSH1 0x0 DUP3 ADD MSTORE PUSH32 0x30432220666F6E742D66616D696C793D2273616E732D73657269662220666F6E PUSH1 0x20 DUP3 ADD MSTORE PUSH32 0x742D73697A653D2237223E3C747370616E20783D2238382E352220793D223136 PUSH1 0x40 DUP3 ADD MSTORE PUSH32 0x372E333638223E4152544953543A200000000000000000000000000000000000 PUSH1 0x60 DUP3 ADD MSTORE POP JUMP JUMPDEST PUSH1 0x0 PUSH2 0x36E4 PUSH1 0x6F DUP4 PUSH2 0x2988 JUMP JUMPDEST SWAP2 POP PUSH2 0x36EF DUP3 PUSH2 0x363C JUMP JUMPDEST PUSH1 0x6F DUP3 ADD SWAP1 POP SWAP2 SWAP1 POP JUMP JUMPDEST PUSH32 0x3C2F747370616E3E3C2F746578743E3C746578742066696C6C3D222330433043 PUSH1 0x0 DUP3 ADD MSTORE PUSH32 0x30432220666F6E742D66616D696C793D2273616E732D73657269662220666F6E PUSH1 0x20 DUP3 ADD MSTORE PUSH32 0x742D73697A653D2237223E3C747370616E20783D2238382E352220793D223138 PUSH1 0x40 DUP3 ADD MSTORE PUSH32 0x312E303033223E55494E545320544F4B454E2049443A20000000000000000000 PUSH1 0x60 DUP3 ADD MSTORE POP JUMP JUMPDEST PUSH1 0x0 PUSH2 0x37A2 PUSH1 0x77 DUP4 PUSH2 0x2988 JUMP JUMPDEST SWAP2 POP PUSH2 0x37AD DUP3 PUSH2 0x36FA JUMP JUMPDEST PUSH1 0x77 DUP3 ADD SWAP1 POP SWAP2 SWAP1 POP JUMP JUMPDEST PUSH32 0x3C2F747370616E3E3C2F746578743E3C746578742066696C6C3D222330433043 PUSH1 0x0 DUP3 ADD MSTORE PUSH32 0x30432220666F6E742D66616D696C793D2273616E732D73657269662220666F6E PUSH1 0x20 DUP3 ADD MSTORE PUSH32 0x742D73697A653D2237223E3C747370616E20783D2238382E352220793D223139 PUSH1 0x40 DUP3 ADD MSTORE PUSH32 0x342E363338223E424C4F434B2054494D455354414D503A200000000000000000 PUSH1 0x60 DUP3 ADD MSTORE POP JUMP JUMPDEST PUSH1 0x0 PUSH2 0x3860 PUSH1 0x78 DUP4 PUSH2 0x2988 JUMP JUMPDEST SWAP2 POP PUSH2 0x386B DUP3 PUSH2 0x37B8 JUMP JUMPDEST PUSH1 0x78 DUP3 ADD SWAP1 POP SWAP2 SWAP1 POP JUMP JUMPDEST PUSH32 0x3C2F747370616E3E3C2F746578743E3C746578742066696C6C3D222330433043 PUSH1 0x0 DUP3 ADD MSTORE PUSH32 0x30432220666F6E742D66616D696C793D2273616E732D73657269662220666F6E PUSH1 0x20 DUP3 ADD MSTORE PUSH32 0x742D73697A653D2237223E3C747370616E20783D2238382E352220793D223230 PUSH1 0x40 DUP3 ADD MSTORE PUSH32 0x382E323733223E4C4F434B204455524154494F4E3A2000000000000000000000 PUSH1 0x60 DUP3 ADD MSTORE POP JUMP JUMPDEST PUSH1 0x0 PUSH2 0x391E PUSH1 0x76 DUP4 PUSH2 0x2988 JUMP JUMPDEST SWAP2 POP PUSH2 0x3929 DUP3 PUSH2 0x3876 JUMP JUMPDEST PUSH1 0x76 DUP3 ADD SWAP1 POP SWAP2 SWAP1 POP JUMP JUMPDEST PUSH32 0x204D494E55544553000000000000000000000000000000000000000000000000 PUSH1 0x0 DUP3 ADD MSTORE POP JUMP JUMPDEST PUSH1 0x0 PUSH2 0x396A PUSH1 0x8 DUP4 PUSH2 0x2988 JUMP JUMPDEST SWAP2 POP PUSH2 0x3975 DUP3 PUSH2 0x3934 JUMP JUMPDEST PUSH1 0x8 DUP3 ADD SWAP1 POP SWAP2 SWAP1 POP JUMP JUMPDEST PUSH32 0x3C2F747370616E3E3C2F746578743E3C746578742066696C6C3D222330433043 PUSH1 0x0 DUP3 ADD MSTORE PUSH32 0x30432220666F6E742D66616D696C793D2273616E732D73657269662220666F6E PUSH1 0x20 DUP3 ADD MSTORE PUSH32 0x742D73697A653D2237223E3C747370616E20783D2238382E352220793D223232 PUSH1 0x40 DUP3 ADD MSTORE PUSH32 0x312E393038223E475241545549545920504149443A2000000000000000000000 PUSH1 0x60 DUP3 ADD MSTORE POP JUMP JUMPDEST PUSH1 0x0 PUSH2 0x3A28 PUSH1 0x76 DUP4 PUSH2 0x2988 JUMP JUMPDEST SWAP2 POP PUSH2 0x3A33 DUP3 PUSH2 0x3980 JUMP JUMPDEST PUSH1 0x76 DUP3 ADD SWAP1 POP SWAP2 SWAP1 POP JUMP JUMPDEST PUSH32 0x2047574549000000000000000000000000000000000000000000000000000000 PUSH1 0x0 DUP3 ADD MSTORE POP JUMP JUMPDEST PUSH1 0x0 PUSH2 0x3A74 PUSH1 0x5 DUP4 PUSH2 0x2988 JUMP JUMPDEST SWAP2 POP PUSH2 0x3A7F DUP3 PUSH2 0x3A3E JUMP JUMPDEST PUSH1 0x5 DUP3 ADD SWAP1 POP SWAP2 SWAP1 POP JUMP JUMPDEST PUSH32 0x3C2F747370616E3E3C2F746578743E3C6C696E652078313D2238382E35222079 PUSH1 0x0 DUP3 ADD MSTORE PUSH32 0x313D223233322E373837222078323D223231312E35222079323D223233322E37 PUSH1 0x20 DUP3 ADD MSTORE PUSH32 0x383722207374726F6B653D22626C61636B22207374726F6B652D6C696E656361 PUSH1 0x40 DUP3 ADD MSTORE PUSH32 0x703D2273717561726522207374726F6B652D6461736861727261793D22322034 PUSH1 0x60 DUP3 ADD MSTORE PUSH32 0x222F3E3C746578742066696C6C3D22626C61636B2220666F6E742D66616D696C PUSH1 0x80 DUP3 ADD MSTORE PUSH32 0x793D2273616E732D73657269662220666F6E742D73697A653D2235223E3C7473 PUSH1 0xA0 DUP3 ADD MSTORE PUSH32 0x70616E20783D2239382E353335322220793D223234352E353131223E4E554D42 PUSH1 0xC0 DUP3 ADD MSTORE PUSH32 0x45525320415245204152542C20414E442057452041524520415254495354533C PUSH1 0xE0 DUP3 ADD MSTORE PUSH32 0x2F747370616E3E3C2F746578743E3C7374796C653E23636F6C6F724261727B66 PUSH2 0x100 DUP3 ADD MSTORE PUSH32 0x696C6C3A00000000000000000000000000000000000000000000000000000000 PUSH2 0x120 DUP3 ADD MSTORE POP JUMP JUMPDEST PUSH1 0x0 PUSH2 0x3C19 PUSH2 0x124 DUP4 PUSH2 0x2988 JUMP JUMPDEST SWAP2 POP PUSH2 0x3C24 DUP3 PUSH2 0x3A8A JUMP JUMPDEST PUSH2 0x124 DUP3 ADD SWAP1 POP SWAP2 SWAP1 POP JUMP JUMPDEST PUSH32 0x7D3C2F7374796C653E3C2F7376673E0000000000000000000000000000000000 PUSH1 0x0 DUP3 ADD MSTORE POP JUMP JUMPDEST PUSH1 0x0 PUSH2 0x3C66 PUSH1 0xF DUP4 PUSH2 0x2988 JUMP JUMPDEST SWAP2 POP PUSH2 0x3C71 DUP3 PUSH2 0x3C30 JUMP JUMPDEST PUSH1 0xF DUP3 ADD SWAP1 POP SWAP2 SWAP1 POP JUMP JUMPDEST PUSH1 0x0 PUSH2 0x3C87 DUP3 PUSH2 0x3380 JUMP JUMPDEST SWAP2 POP PUSH2 0x3C93 DUP3 DUP13 PUSH2 0x29DF JUMP JUMPDEST SWAP2 POP PUSH2 0x3C9E DUP3 PUSH2 0x34D8 JUMP JUMPDEST SWAP2 POP PUSH2 0x3CAA DUP3 DUP12 PUSH2 0x29DF JUMP JUMPDEST SWAP2 POP PUSH2 0x3CB5 DUP3 PUSH2 0x3596 JUMP JUMPDEST SWAP2 POP PUSH2 0x3CC1 DUP3 DUP11 PUSH2 0x35B9 JUMP JUMPDEST SWAP2 POP PUSH2 0x3CCC DUP3 PUSH2 0x36D7 JUMP JUMPDEST SWAP2 POP PUSH2 0x3CD8 DUP3 DUP10 PUSH2 0x29DF JUMP JUMPDEST SWAP2 POP PUSH2 0x3CE3 DUP3 PUSH2 0x3795 JUMP JUMPDEST SWAP2 POP PUSH2 0x3CEF DUP3 DUP9 PUSH2 0x29DF JUMP JUMPDEST SWAP2 POP PUSH2 0x3CFA DUP3 PUSH2 0x3853 JUMP JUMPDEST SWAP2 POP PUSH2 0x3D06 DUP3 DUP8 PUSH2 0x29DF JUMP JUMPDEST SWAP2 POP PUSH2 0x3D11 DUP3 PUSH2 0x3911 JUMP JUMPDEST SWAP2 POP PUSH2 0x3D1D DUP3 DUP7 PUSH2 0x29DF JUMP JUMPDEST SWAP2 POP PUSH2 0x3D28 DUP3 PUSH2 0x395D JUMP JUMPDEST SWAP2 POP PUSH2 0x3D33 DUP3 PUSH2 0x3A1B JUMP JUMPDEST SWAP2 POP PUSH2 0x3D3F DUP3 DUP6 PUSH2 0x29DF JUMP JUMPDEST SWAP2 POP PUSH2 0x3D4A DUP3 PUSH2 0x3A67 JUMP JUMPDEST SWAP2 POP PUSH2 0x3D55 DUP3 PUSH2 0x3C0B JUMP JUMPDEST SWAP2 POP PUSH2 0x3D61 DUP3 DUP5 PUSH2 0x35B9 JUMP JUMPDEST SWAP2 POP PUSH2 0x3D6C DUP3 PUSH2 0x3C59 JUMP JUMPDEST SWAP2 POP DUP2 SWAP1 POP SWAP11 SWAP10 POP POP POP POP POP POP POP POP POP POP JUMP JUMPDEST PUSH32 0x7B226E616D65223A202255494E54532050726F6F66206F662042726F61646361 PUSH1 0x0 DUP3 ADD MSTORE PUSH32 0x7374200000000000000000000000000000000000000000000000000000000000 PUSH1 0x20 DUP3 ADD MSTORE POP JUMP JUMPDEST PUSH1 0x0 PUSH2 0x3DDB PUSH1 0x23 DUP4 PUSH2 0x2988 JUMP JUMPDEST SWAP2 POP PUSH2 0x3DE6 DUP3 PUSH2 0x3D7F JUMP JUMPDEST PUSH1 0x23 DUP3 ADD SWAP1 POP SWAP2 SWAP1 POP JUMP JUMPDEST PUSH32 0x222C20226465736372697074696F6E223A202255494E54532050726F6F66206F PUSH1 0x0 DUP3 ADD MSTORE PUSH32 0x662042726F61646361737420746F6B656E7320617265206469676974616C2072 PUSH1 0x20 DUP3 ADD MSTORE PUSH32 0x656365697074732073656E7420746F2055494E545320686F6C64657273207768 PUSH1 0x40 DUP3 ADD MSTORE PUSH32 0x656E20746865792062726F61646361737420746F207468652055494E54532045 PUSH1 0x60 DUP3 ADD MSTORE PUSH32 0x646974696F6E20636F6C6C656374696F6E2E204E756D65727320617265206172 PUSH1 0x80 DUP3 ADD MSTORE PUSH32 0x742C20616E642077652061726520617274697374732E222C2022696D61676522 PUSH1 0xA0 DUP3 ADD MSTORE PUSH32 0x3A2022646174613A696D6167652F7376672B786D6C3B6261736536342C000000 PUSH1 0xC0 DUP3 ADD MSTORE POP JUMP JUMPDEST PUSH1 0x0 PUSH2 0x3F0B PUSH1 0xDD DUP4 PUSH2 0x2988 JUMP JUMPDEST SWAP2 POP PUSH2 0x3F16 DUP3 PUSH2 0x3DF1 JUMP JUMPDEST PUSH1 0xDD DUP3 ADD SWAP1 POP SWAP2 SWAP1 POP JUMP JUMPDEST PUSH32 0x227D000000000000000000000000000000000000000000000000000000000000 PUSH1 0x0 DUP3 ADD MSTORE POP JUMP JUMPDEST PUSH1 0x0 PUSH2 0x3F57 PUSH1 0x2 DUP4 PUSH2 0x2988 JUMP JUMPDEST SWAP2 POP PUSH2 0x3F62 DUP3 PUSH2 0x3F21 JUMP JUMPDEST PUSH1 0x2 DUP3 ADD SWAP1 POP SWAP2 SWAP1 POP JUMP JUMPDEST PUSH1 0x0 PUSH2 0x3F78 DUP3 PUSH2 0x3DCE JUMP JUMPDEST SWAP2 POP PUSH2 0x3F84 DUP3 DUP6 PUSH2 0x29DF JUMP JUMPDEST SWAP2 POP PUSH2 0x3F8F DUP3 PUSH2 0x3EFE JUMP JUMPDEST SWAP2 POP PUSH2 0x3F9B DUP3 DUP5 PUSH2 0x29DF JUMP JUMPDEST SWAP2 POP PUSH2 0x3FA6 DUP3 PUSH2 0x3F4A JUMP JUMPDEST SWAP2 POP DUP2 SWAP1 POP SWAP4 SWAP3 POP POP POP JUMP JUMPDEST PUSH32 0x646174613A6170706C69636174696F6E2F6A736F6E3B6261736536342C000000 PUSH1 0x0 DUP3 ADD MSTORE POP JUMP JUMPDEST PUSH1 0x0 PUSH2 0x3FE8 PUSH1 0x1D DUP4 PUSH2 0x2988 JUMP JUMPDEST SWAP2 POP PUSH2 0x3FF3 DUP3 PUSH2 0x3FB2 JUMP JUMPDEST PUSH1 0x1D DUP3 ADD SWAP1 POP SWAP2 SWAP1 POP JUMP JUMPDEST PUSH1 0x0 PUSH2 0x4009 DUP3 PUSH2 0x3FDB JUMP JUMPDEST SWAP2 POP PUSH2 0x4015 DUP3 DUP5 PUSH2 0x29DF JUMP JUMPDEST SWAP2 POP DUP2 SWAP1 POP SWAP3 SWAP2 POP POP JUMP JUMPDEST PUSH32 0x4F776E61626C653A206E6577206F776E657220697320746865207A65726F2061 PUSH1 0x0 DUP3 ADD MSTORE PUSH32 0x6464726573730000000000000000000000000000000000000000000000000000 PUSH1 0x20 DUP3 ADD MSTORE POP JUMP JUMPDEST PUSH1 0x0 PUSH2 0x407C PUSH1 0x26 DUP4 PUSH2 0x21C3 JUMP JUMPDEST SWAP2 POP PUSH2 0x4087 DUP3 PUSH2 0x4020 JUMP JUMPDEST PUSH1 0x40 DUP3 ADD SWAP1 POP SWAP2 SWAP1 POP JUMP JUMPDEST PUSH1 0x0 PUSH1 0x20 DUP3 ADD SWAP1 POP DUP2 DUP2 SUB PUSH1 0x0 DUP4 ADD MSTORE PUSH2 0x40AB DUP2 PUSH2 0x406F JUMP JUMPDEST SWAP1 POP SWAP2 SWAP1 POP JUMP JUMPDEST PUSH32 0x4F776E61626C653A2063616C6C6572206973206E6F7420746865206F776E6572 PUSH1 0x0 DUP3 ADD MSTORE POP JUMP JUMPDEST PUSH1 0x0 PUSH2 0x40E8 PUSH1 0x20 DUP4 PUSH2 0x21C3 JUMP JUMPDEST SWAP2 POP PUSH2 0x40F3 DUP3 PUSH2 0x40B2 JUMP JUMPDEST PUSH1 0x20 DUP3 ADD SWAP1 POP SWAP2 SWAP1 POP JUMP JUMPDEST PUSH1 0x0 PUSH1 0x20 DUP3 ADD SWAP1 POP DUP2 DUP2 SUB PUSH1 0x0 DUP4 ADD MSTORE PUSH2 0x4117 DUP2 PUSH2 0x40DB JUMP JUMPDEST SWAP1 POP SWAP2 SWAP1 POP JUMP JUMPDEST PUSH1 0x0 DUP2 MLOAD SWAP1 POP SWAP2 SWAP1 POP JUMP JUMPDEST PUSH1 0x0 DUP3 DUP3 MSTORE PUSH1 0x20 DUP3 ADD SWAP1 POP SWAP3 SWAP2 POP POP JUMP JUMPDEST PUSH1 0x0 PUSH2 0x4145 DUP3 PUSH2 0x411E JUMP JUMPDEST PUSH2 0x414F DUP2 DUP6 PUSH2 0x4129 JUMP JUMPDEST SWAP4 POP PUSH2 0x415F DUP2 DUP6 PUSH1 0x20 DUP7 ADD PUSH2 0x21D4 JUMP JUMPDEST PUSH2 0x4168 DUP2 PUSH2 0x21FE JUMP JUMPDEST DUP5 ADD SWAP2 POP POP SWAP3 SWAP2 POP POP JUMP JUMPDEST PUSH1 0x0 PUSH1 0x80 DUP3 ADD SWAP1 POP PUSH2 0x4188 PUSH1 0x0 DUP4 ADD DUP8 PUSH2 0x22FF JUMP JUMPDEST PUSH2 0x4195 PUSH1 0x20 DUP4 ADD DUP7 PUSH2 0x22FF JUMP JUMPDEST PUSH2 0x41A2 PUSH1 0x40 DUP4 ADD DUP6 PUSH2 0x2395 JUMP JUMPDEST DUP2 DUP2 SUB PUSH1 0x60 DUP4 ADD MSTORE PUSH2 0x41B4 DUP2 DUP5 PUSH2 0x413A JUMP JUMPDEST SWAP1 POP SWAP6 SWAP5 POP POP POP POP POP JUMP JUMPDEST PUSH1 0x0 DUP2 MLOAD SWAP1 POP PUSH2 0x41CE DUP2 PUSH2 0x2129 JUMP JUMPDEST SWAP3 SWAP2 POP POP JUMP JUMPDEST PUSH1 0x0 PUSH1 0x20 DUP3 DUP5 SUB SLT ISZERO PUSH2 0x41EA JUMPI PUSH2 0x41E9 PUSH2 0x20F3 JUMP JUMPDEST JUMPDEST PUSH1 0x0 PUSH2 0x41F8 DUP5 DUP3 DUP6 ADD PUSH2 0x41BF JUMP JUMPDEST SWAP2 POP POP SWAP3 SWAP2 POP POP JUMP JUMPDEST PUSH1 0x0 PUSH2 0x420C DUP3 PUSH2 0x226A JUMP JUMPDEST SWAP2 POP PUSH2 0x4217 DUP4 PUSH2 0x226A JUMP JUMPDEST SWAP3 POP DUP3 DUP3 SUB SWAP1 POP DUP2 DUP2 GT ISZERO PUSH2 0x422F JUMPI PUSH2 0x422E PUSH2 0x2B34 JUMP JUMPDEST JUMPDEST SWAP3 SWAP2 POP POP JUMP JUMPDEST PUSH32 0x3078000000000000000000000000000000000000000000000000000000000000 PUSH1 0x0 DUP3 ADD MSTORE POP JUMP JUMPDEST PUSH1 0x0 PUSH2 0x426B PUSH1 0x2 DUP4 PUSH2 0x2988 JUMP JUMPDEST SWAP2 POP PUSH2 0x4276 DUP3 PUSH2 0x4235 JUMP JUMPDEST PUSH1 0x2 DUP3 ADD SWAP1 POP SWAP2 SWAP1 POP JUMP JUMPDEST PUSH32 0x2E2E2E0000000000000000000000000000000000000000000000000000000000 PUSH1 0x0 DUP3 ADD MSTORE POP JUMP JUMPDEST PUSH1 0x0 PUSH2 0x42B7 PUSH1 0x3 DUP4 PUSH2 0x2988 JUMP JUMPDEST SWAP2 POP PUSH2 0x42C2 DUP3 PUSH2 0x4281 JUMP JUMPDEST PUSH1 0x3 DUP3 ADD SWAP1 POP SWAP2 SWAP1 POP JUMP JUMPDEST PUSH1 0x0 PUSH2 0x42D8 DUP3 PUSH2 0x425E JUMP JUMPDEST SWAP2 POP PUSH2 0x42E4 DUP3 DUP6 PUSH2 0x29DF JUMP JUMPDEST SWAP2 POP PUSH2 0x42EF DUP3 PUSH2 0x42AA JUMP JUMPDEST SWAP2 POP PUSH2 0x42FB DUP3 DUP5 PUSH2 0x29DF JUMP JUMPDEST SWAP2 POP DUP2 SWAP1 POP SWAP4 SWAP3 POP POP POP JUMP JUMPDEST PUSH1 0x0 PUSH2 0x4312 DUP3 PUSH2 0x226A JUMP JUMPDEST SWAP2 POP PUSH2 0x431D DUP4 PUSH2 0x226A JUMP JUMPDEST SWAP3 POP DUP3 DUP3 ADD SWAP1 POP DUP1 DUP3 GT ISZERO PUSH2 0x4335 JUMPI PUSH2 0x4334 PUSH2 0x2B34 JUMP JUMPDEST JUMPDEST SWAP3 SWAP2 POP POP JUMP JUMPDEST PUSH1 0x0 PUSH2 0x4346 DUP3 PUSH2 0x226A JUMP JUMPDEST SWAP2 POP PUSH2 0x4351 DUP4 PUSH2 0x226A JUMP JUMPDEST SWAP3 POP DUP3 DUP3 MUL PUSH2 0x435F DUP2 PUSH2 0x226A JUMP JUMPDEST SWAP2 POP DUP3 DUP3 DIV DUP5 EQ DUP4 ISZERO OR PUSH2 0x4376 JUMPI PUSH2 0x4375 PUSH2 0x2B34 JUMP JUMPDEST JUMPDEST POP SWAP3 SWAP2 POP POP JUMP JUMPDEST PUSH1 0x0 DUP2 PUSH1 0x1 SHR SWAP1 POP SWAP2 SWAP1 POP JUMP JUMPDEST PUSH1 0x0 DUP1 DUP3 SWAP2 POP DUP4 SWAP1 POP JUMPDEST PUSH1 0x1 DUP6 GT ISZERO PUSH2 0x43D4 JUMPI DUP1 DUP7 DIV DUP2 GT ISZERO PUSH2 0x43B0 JUMPI PUSH2 0x43AF PUSH2 0x2B34 JUMP JUMPDEST JUMPDEST PUSH1 0x1 DUP6 AND ISZERO PUSH2 0x43BF JUMPI DUP1 DUP3 MUL SWAP2 POP JUMPDEST DUP1 DUP2 MUL SWAP1 POP PUSH2 0x43CD DUP6 PUSH2 0x437D JUMP JUMPDEST SWAP5 POP PUSH2 0x4394 JUMP JUMPDEST SWAP5 POP SWAP5 SWAP3 POP POP POP JUMP JUMPDEST PUSH1 0x0 DUP3 PUSH2 0x43ED JUMPI PUSH1 0x1 SWAP1 POP PUSH2 0x44A9 JUMP JUMPDEST DUP2 PUSH2 0x43FB JUMPI PUSH1 0x0 SWAP1 POP PUSH2 0x44A9 JUMP JUMPDEST DUP2 PUSH1 0x1 DUP2 EQ PUSH2 0x4411 JUMPI PUSH1 0x2 DUP2 EQ PUSH2 0x441B JUMPI PUSH2 0x444A JUMP JUMPDEST PUSH1 0x1 SWAP2 POP POP PUSH2 0x44A9 JUMP JUMPDEST PUSH1 0xFF DUP5 GT ISZERO PUSH2 0x442D JUMPI PUSH2 0x442C PUSH2 0x2B34 JUMP JUMPDEST JUMPDEST DUP4 PUSH1 0x2 EXP SWAP2 POP DUP5 DUP3 GT ISZERO PUSH2 0x4444 JUMPI PUSH2 0x4443 PUSH2 0x2B34 JUMP JUMPDEST JUMPDEST POP PUSH2 0x44A9 JUMP JUMPDEST POP PUSH1 0x20 DUP4 LT PUSH2 0x133 DUP4 LT AND PUSH1 0x4E DUP5 LT PUSH1 0xB DUP5 LT AND OR ISZERO PUSH2 0x447F JUMPI DUP3 DUP3 EXP SWAP1 POP DUP4 DUP2 GT ISZERO PUSH2 0x447A JUMPI PUSH2 0x4479 PUSH2 0x2B34 JUMP JUMPDEST JUMPDEST PUSH2 0x44A9 JUMP JUMPDEST PUSH2 0x448C DUP5 DUP5 DUP5 PUSH1 0x1 PUSH2 0x438A JUMP JUMPDEST SWAP3 POP SWAP1 POP DUP2 DUP5 DIV DUP2 GT ISZERO PUSH2 0x44A3 JUMPI PUSH2 0x44A2 PUSH2 0x2B34 JUMP JUMPDEST JUMPDEST DUP2 DUP2 MUL SWAP1 POP JUMPDEST SWAP4 SWAP3 POP POP POP JUMP JUMPDEST PUSH1 0x0 PUSH2 0x44BB DUP3 PUSH2 0x226A JUMP JUMPDEST SWAP2 POP PUSH2 0x44C6 DUP4 PUSH2 0x226A JUMP JUMPDEST SWAP3 POP PUSH2 0x44F3 PUSH32 0xFFFFFFFFFFFFFFFFFFFFFFFFFFFFFFFFFFFFFFFFFFFFFFFFFFFFFFFFFFFFFFFF DUP5 DUP5 PUSH2 0x43DD JUMP JUMPDEST SWAP1 POP SWAP3 SWAP2 POP POP JUMP JUMPDEST PUSH1 0x0 PUSH1 0xFF DUP3 AND SWAP1 POP SWAP2 SWAP1 POP JUMP JUMPDEST PUSH1 0x0 PUSH2 0x4513 DUP3 PUSH2 0x44FB JUMP JUMPDEST SWAP2 POP PUSH2 0x451E DUP4 PUSH2 0x44FB JUMP JUMPDEST SWAP3 POP DUP3 PUSH2 0x452E JUMPI PUSH2 0x452D PUSH2 0x2B05 JUMP JUMPDEST JUMPDEST DUP3 DUP3 DIV SWAP1 POP SWAP3 SWAP2 POP POP JUMP JUMPDEST PUSH1 0x0 PUSH2 0x4544 DUP3 PUSH2 0x44FB JUMP JUMPDEST SWAP2 POP PUSH2 0x454F DUP4 PUSH2 0x44FB JUMP JUMPDEST SWAP3 POP DUP3 DUP3 MUL PUSH2 0x455D DUP2 PUSH2 0x44FB JUMP JUMPDEST SWAP2 POP DUP1 DUP3 EQ PUSH2 0x456F JUMPI PUSH2 0x456E PUSH2 0x2B34 JUMP JUMPDEST JUMPDEST POP SWAP3 SWAP2 POP POP JUMP JUMPDEST PUSH1 0x0 PUSH2 0x4581 DUP3 PUSH2 0x44FB JUMP JUMPDEST SWAP2 POP PUSH2 0x458C DUP4 PUSH2 0x44FB JUMP JUMPDEST SWAP3 POP DUP3 DUP3 SUB SWAP1 POP PUSH1 0xFF DUP2 GT ISZERO PUSH2 0x45A5 JUMPI PUSH2 0x45A4 PUSH2 0x2B34 JUMP JUMPDEST JUMPDEST SWAP3 SWAP2 POP POP JUMP JUMPDEST PUSH32 0x4E487B7100000000000000000000000000000000000000000000000000000000 PUSH1 0x0 MSTORE PUSH1 0x32 PUSH1 0x4 MSTORE PUSH1 0x24 PUSH1 0x0 REVERT JUMPDEST PUSH1 0x0 PUSH2 0x45E5 DUP3 PUSH2 0x226A JUMP JUMPDEST SWAP2 POP PUSH32 0xFFFFFFFFFFFFFFFFFFFFFFFFFFFFFFFFFFFFFFFFFFFFFFFFFFFFFFFFFFFFFFFF DUP3 SUB PUSH2 0x4617 JUMPI PUSH2 0x4616 PUSH2 0x2B34 JUMP JUMPDEST JUMPDEST PUSH1 0x1 DUP3 ADD SWAP1 POP SWAP2 SWAP1 POP JUMP JUMPDEST PUSH1 0x0 PUSH2 0x462D DUP3 PUSH2 0x44FB JUMP JUMPDEST SWAP2 POP PUSH2 0x4638 DUP4 PUSH2 0x44FB JUMP JUMPDEST SWAP3 POP DUP3 DUP3 ADD SWAP1 POP PUSH1 0xFF DUP2 GT ISZERO PUSH2 0x4651 JUMPI PUSH2 0x4650 PUSH2 0x2B34 JUMP JUMPDEST JUMPDEST SWAP3 SWAP2 POP POP JUMP INVALID COINBASE TIMESTAMP NUMBER PREVRANDAO GASLIMIT CHAINID SELFBALANCE BASEFEE 0x49 0x4A 0x4B 0x4C 0x4D 0x4E 0x4F POP MLOAD MSTORE MSTORE8 SLOAD SSTORE JUMP JUMPI PC MSIZE GAS PUSH2 0x6263 PUSH5 0x6566676869 PUSH11 0x6B6C6D6E6F707172737475 PUSH23 0x7778797A303132333435363738392B2FA2646970667358 0x22 SLT KECCAK256 SLOAD PUSH26 0x66EAF2CA128237107C5859E6A8D1A1167EDA7FCDEDC4DE3FF794 DUP9 CALL MSTORE8 GAS PUSH5 0x736F6C6343 STOP ADDMOD SLT STOP CALLER "
		},
		"gasEstimates": {
			"creation": {
				"codeDepositCost": "3625000",
				"executionCost": "infinite",
				"totalCost": "infinite"
			},
			"external": {
				"approve(address,uint256)": "infinite",
				"balanceOf(address)": "2993",
				"getApproved(uint256)": "7389",
				"getReceipt(uint256)": "infinite",
				"isApprovedForAll(address,address)": "infinite",
				"mint(uint256,uint256,uint256,uint256,address,uint256,uint256,uint256,uint256,uint256)": "infinite",
				"name()": "infinite",
				"owner()": "2567",
				"ownerOf(uint256)": "infinite",
				"renounceOwnership()": "30421",
				"safeTransferFrom(address,address,uint256)": "infinite",
				"safeTransferFrom(address,address,uint256,bytes)": "infinite",
				"setApprovalForAll(address,bool)": "infinite",
				"setEditionContract(address)": "27053",
				"supportsInterface(bytes4)": "745",
				"symbol()": "infinite",
				"tokenURI(uint256)": "infinite",
				"totalSupply()": "4696",
				"transferFrom(address,address,uint256)": "infinite",
				"transferOwnership(address)": "30854"
			},
			"internal": {
				"_startTokenId()": "23"
			}
		},
		"methodIdentifiers": {
			"approve(address,uint256)": "095ea7b3",
			"balanceOf(address)": "70a08231",
			"getApproved(uint256)": "081812fc",
			"getReceipt(uint256)": "b63e6ac3",
			"isApprovedForAll(address,address)": "e985e9c5",
			"mint(uint256,uint256,uint256,uint256,address,uint256,uint256,uint256,uint256,uint256)": "90eaefc0",
			"name()": "06fdde03",
			"owner()": "8da5cb5b",
			"ownerOf(uint256)": "6352211e",
			"renounceOwnership()": "715018a6",
			"safeTransferFrom(address,address,uint256)": "42842e0e",
			"safeTransferFrom(address,address,uint256,bytes)": "b88d4fde",
			"setApprovalForAll(address,bool)": "a22cb465",
			"setEditionContract(address)": "433f7b8b",
			"supportsInterface(bytes4)": "01ffc9a7",
			"symbol()": "95d89b41",
			"tokenURI(uint256)": "c87b56dd",
			"totalSupply()": "18160ddd",
			"transferFrom(address,address,uint256)": "23b872dd",
			"transferOwnership(address)": "f2fde38b"
		}
	},
	"abi": [
		{
			"inputs": [],
			"stateMutability": "nonpayable",
			"type": "constructor"
		},
		{
			"inputs": [],
			"name": "ApprovalCallerNotOwnerNorApproved",
			"type": "error"
		},
		{
			"inputs": [],
			"name": "ApprovalQueryForNonexistentToken",
			"type": "error"
		},
		{
			"inputs": [],
			"name": "BalanceQueryForZeroAddress",
			"type": "error"
		},
		{
			"inputs": [],
			"name": "MintERC2309QuantityExceedsLimit",
			"type": "error"
		},
		{
			"inputs": [],
			"name": "MintToZeroAddress",
			"type": "error"
		},
		{
			"inputs": [],
			"name": "MintZeroQuantity",
			"type": "error"
		},
		{
			"inputs": [],
			"name": "OwnerQueryForNonexistentToken",
			"type": "error"
		},
		{
			"inputs": [],
			"name": "OwnershipNotInitializedForExtraData",
			"type": "error"
		},
		{
			"inputs": [],
			"name": "TransferCallerNotOwnerNorApproved",
			"type": "error"
		},
		{
			"inputs": [],
			"name": "TransferFromIncorrectOwner",
			"type": "error"
		},
		{
			"inputs": [],
			"name": "TransferToNonERC721ReceiverImplementer",
			"type": "error"
		},
		{
			"inputs": [],
			"name": "TransferToZeroAddress",
			"type": "error"
		},
		{
			"inputs": [],
			"name": "URIQueryForNonexistentToken",
			"type": "error"
		},
		{
			"anonymous": false,
			"inputs": [
				{
					"indexed": true,
					"internalType": "address",
					"name": "owner",
					"type": "address"
				},
				{
					"indexed": true,
					"internalType": "address",
					"name": "approved",
					"type": "address"
				},
				{
					"indexed": true,
					"internalType": "uint256",
					"name": "tokenId",
					"type": "uint256"
				}
			],
			"name": "Approval",
			"type": "event"
		},
		{
			"anonymous": false,
			"inputs": [
				{
					"indexed": true,
					"internalType": "address",
					"name": "owner",
					"type": "address"
				},
				{
					"indexed": true,
					"internalType": "address",
					"name": "operator",
					"type": "address"
				},
				{
					"indexed": false,
					"internalType": "bool",
					"name": "approved",
					"type": "bool"
				}
			],
			"name": "ApprovalForAll",
			"type": "event"
		},
		{
			"anonymous": false,
			"inputs": [
				{
					"indexed": true,
					"internalType": "uint256",
					"name": "fromTokenId",
					"type": "uint256"
				},
				{
					"indexed": false,
					"internalType": "uint256",
					"name": "toTokenId",
					"type": "uint256"
				},
				{
					"indexed": true,
					"internalType": "address",
					"name": "from",
					"type": "address"
				},
				{
					"indexed": true,
					"internalType": "address",
					"name": "to",
					"type": "address"
				}
			],
			"name": "ConsecutiveTransfer",
			"type": "event"
		},
		{
			"anonymous": false,
			"inputs": [
				{
					"indexed": true,
					"internalType": "address",
					"name": "previousOwner",
					"type": "address"
				},
				{
					"indexed": true,
					"internalType": "address",
					"name": "newOwner",
					"type": "address"
				}
			],
			"name": "OwnershipTransferred",
			"type": "event"
		},
		{
			"anonymous": false,
			"inputs": [
				{
					"indexed": true,
					"internalType": "address",
					"name": "from",
					"type": "address"
				},
				{
					"indexed": true,
					"internalType": "address",
					"name": "to",
					"type": "address"
				},
				{
					"indexed": true,
					"internalType": "uint256",
					"name": "tokenId",
					"type": "uint256"
				}
			],
			"name": "Transfer",
			"type": "event"
		},
		{
			"inputs": [
				{
					"internalType": "address",
					"name": "to",
					"type": "address"
				},
				{
					"internalType": "uint256",
					"name": "tokenId",
					"type": "uint256"
				}
			],
			"name": "approve",
			"outputs": [],
			"stateMutability": "payable",
			"type": "function"
		},
		{
			"inputs": [
				{
					"internalType": "address",
					"name": "owner",
					"type": "address"
				}
			],
			"name": "balanceOf",
			"outputs": [
				{
					"internalType": "uint256",
					"name": "",
					"type": "uint256"
				}
			],
			"stateMutability": "view",
			"type": "function"
		},
		{
			"inputs": [
				{
					"internalType": "uint256",
					"name": "tokenId",
					"type": "uint256"
				}
			],
			"name": "getApproved",
			"outputs": [
				{
					"internalType": "address",
					"name": "",
					"type": "address"
				}
			],
			"stateMutability": "view",
			"type": "function"
		},
		{
			"inputs": [
				{
					"internalType": "uint256",
					"name": "tokenId",
					"type": "uint256"
				}
			],
			"name": "getReceipt",
			"outputs": [
				{
					"components": [
						{
							"internalType": "uint256",
							"name": "counter",
							"type": "uint256"
						},
						{
							"internalType": "uint256",
							"name": "timestamp",
							"type": "uint256"
						},
						{
							"internalType": "uint256",
							"name": "duration",
							"type": "uint256"
						},
						{
							"internalType": "uint256",
							"name": "uintsId",
							"type": "uint256"
						},
						{
							"internalType": "address",
							"name": "recipient",
							"type": "address"
						},
						{
							"internalType": "uint256",
							"name": "number",
							"type": "uint256"
						},
						{
							"internalType": "string",
							"name": "color",
							"type": "string"
						},
						{
							"internalType": "uint256",
							"name": "gratuity",
							"type": "uint256"
						}
					],
					"internalType": "struct UintsProofOfBroadcast.Receipt",
					"name": "",
					"type": "tuple"
				}
			],
			"stateMutability": "view",
			"type": "function"
		},
		{
			"inputs": [
				{
					"internalType": "address",
					"name": "owner",
					"type": "address"
				},
				{
					"internalType": "address",
					"name": "operator",
					"type": "address"
				}
			],
			"name": "isApprovedForAll",
			"outputs": [
				{
					"internalType": "bool",
					"name": "",
					"type": "bool"
				}
			],
			"stateMutability": "view",
			"type": "function"
		},
		{
			"inputs": [
				{
					"internalType": "uint256",
					"name": "counter",
					"type": "uint256"
				},
				{
					"internalType": "uint256",
					"name": "timestamp",
					"type": "uint256"
				},
				{
					"internalType": "uint256",
					"name": "duration",
					"type": "uint256"
				},
				{
					"internalType": "uint256",
					"name": "uintsId",
					"type": "uint256"
				},
				{
					"internalType": "address",
					"name": "recipient",
					"type": "address"
				},
				{
					"internalType": "uint256",
					"name": "number",
					"type": "uint256"
				},
				{
					"internalType": "uint256",
					"name": "red",
					"type": "uint256"
				},
				{
					"internalType": "uint256",
					"name": "green",
					"type": "uint256"
				},
				{
					"internalType": "uint256",
					"name": "blue",
					"type": "uint256"
				},
				{
					"internalType": "uint256",
					"name": "gratuity",
					"type": "uint256"
				}
			],
			"name": "mint",
			"outputs": [],
			"stateMutability": "nonpayable",
			"type": "function"
		},
		{
			"inputs": [],
			"name": "name",
			"outputs": [
				{
					"internalType": "string",
					"name": "",
					"type": "string"
				}
			],
			"stateMutability": "view",
			"type": "function"
		},
		{
			"inputs": [],
			"name": "owner",
			"outputs": [
				{
					"internalType": "address",
					"name": "",
					"type": "address"
				}
			],
			"stateMutability": "view",
			"type": "function"
		},
		{
			"inputs": [
				{
					"internalType": "uint256",
					"name": "tokenId",
					"type": "uint256"
				}
			],
			"name": "ownerOf",
			"outputs": [
				{
					"internalType": "address",
					"name": "",
					"type": "address"
				}
			],
			"stateMutability": "view",
			"type": "function"
		},
		{
			"inputs": [],
			"name": "renounceOwnership",
			"outputs": [],
			"stateMutability": "nonpayable",
			"type": "function"
		},
		{
			"inputs": [
				{
					"internalType": "address",
					"name": "from",
					"type": "address"
				},
				{
					"internalType": "address",
					"name": "to",
					"type": "address"
				},
				{
					"internalType": "uint256",
					"name": "tokenId",
					"type": "uint256"
				}
			],
			"name": "safeTransferFrom",
			"outputs": [],
			"stateMutability": "payable",
			"type": "function"
		},
		{
			"inputs": [
				{
					"internalType": "address",
					"name": "from",
					"type": "address"
				},
				{
					"internalType": "address",
					"name": "to",
					"type": "address"
				},
				{
					"internalType": "uint256",
					"name": "tokenId",
					"type": "uint256"
				},
				{
					"internalType": "bytes",
					"name": "_data",
					"type": "bytes"
				}
			],
			"name": "safeTransferFrom",
			"outputs": [],
			"stateMutability": "payable",
			"type": "function"
		},
		{
			"inputs": [
				{
					"internalType": "address",
					"name": "operator",
					"type": "address"
				},
				{
					"internalType": "bool",
					"name": "approved",
					"type": "bool"
				}
			],
			"name": "setApprovalForAll",
			"outputs": [],
			"stateMutability": "nonpayable",
			"type": "function"
		},
		{
			"inputs": [
				{
					"internalType": "address",
					"name": "contractAddress",
					"type": "address"
				}
			],
			"name": "setEditionContract",
			"outputs": [],
			"stateMutability": "nonpayable",
			"type": "function"
		},
		{
			"inputs": [
				{
					"internalType": "bytes4",
					"name": "interfaceId",
					"type": "bytes4"
				}
			],
			"name": "supportsInterface",
			"outputs": [
				{
					"internalType": "bool",
					"name": "",
					"type": "bool"
				}
			],
			"stateMutability": "view",
			"type": "function"
		},
		{
			"inputs": [],
			"name": "symbol",
			"outputs": [
				{
					"internalType": "string",
					"name": "",
					"type": "string"
				}
			],
			"stateMutability": "view",
			"type": "function"
		},
		{
			"inputs": [
				{
					"internalType": "uint256",
					"name": "tokenId",
					"type": "uint256"
				}
			],
			"name": "tokenURI",
			"outputs": [
				{
					"internalType": "string",
					"name": "result",
					"type": "string"
				}
			],
			"stateMutability": "view",
			"type": "function"
		},
		{
			"inputs": [],
			"name": "totalSupply",
			"outputs": [
				{
					"internalType": "uint256",
					"name": "",
					"type": "uint256"
				}
			],
			"stateMutability": "view",
			"type": "function"
		},
		{
			"inputs": [
				{
					"internalType": "address",
					"name": "from",
					"type": "address"
				},
				{
					"internalType": "address",
					"name": "to",
					"type": "address"
				},
				{
					"internalType": "uint256",
					"name": "tokenId",
					"type": "uint256"
				}
			],
			"name": "transferFrom",
			"outputs": [],
			"stateMutability": "payable",
			"type": "function"
		},
		{
			"inputs": [
				{
					"internalType": "address",
					"name": "newOwner",
					"type": "address"
				}
			],
			"name": "transferOwnership",
			"outputs": [],
			"stateMutability": "nonpayable",
			"type": "function"
		}
	]
}